{
  "contractName": "NonfungibleTokenPositionDescriptor",
  "abi": [
    {
      "inputs": [
        {
          "internalType": "address",
          "name": "_WETH9",
          "type": "address"
        }
      ],
      "stateMutability": "nonpayable",
      "type": "constructor"
    },
    {
      "inputs": [],
      "name": "WETH9",
      "outputs": [
        {
          "internalType": "address",
          "name": "",
          "type": "address"
        }
      ],
      "stateMutability": "view",
      "type": "function"
    },
    {
      "inputs": [
        {
          "internalType": "contract INonfungiblePositionManager",
          "name": "positionManager",
          "type": "address"
        },
        {
          "internalType": "uint256",
          "name": "tokenId",
          "type": "uint256"
        }
      ],
      "name": "tokenURI",
      "outputs": [
        {
          "internalType": "string",
          "name": "",
          "type": "string"
        }
      ],
      "stateMutability": "view",
      "type": "function"
    },
    {
      "inputs": [
        {
          "internalType": "address",
          "name": "token0",
          "type": "address"
        },
        {
          "internalType": "address",
          "name": "token1",
          "type": "address"
        },
        {
          "internalType": "uint256",
          "name": "chainId",
          "type": "uint256"
        }
      ],
      "name": "flipRatio",
      "outputs": [
        {
          "internalType": "bool",
          "name": "",
          "type": "bool"
        }
      ],
      "stateMutability": "view",
      "type": "function"
    },
    {
      "inputs": [
        {
          "internalType": "address",
          "name": "token",
          "type": "address"
        },
        {
          "internalType": "uint256",
          "name": "chainId",
          "type": "uint256"
        }
      ],
      "name": "tokenRatioPriority",
      "outputs": [
        {
          "internalType": "int256",
          "name": "",
          "type": "int256"
        }
      ],
      "stateMutability": "view",
      "type": "function"
    }
  ],
  "bytecode": "0x60a060405234801561001057600080fd5b5060405161139f38038061139f83398101604081905261002f91610044565b60601b6001600160601b031916608052610072565b600060208284031215610055578081fd5b81516001600160a01b038116811461006b578182fd5b9392505050565b60805160601c61130261009d6000398060d15280610116528061049a528061050352506113026000f3fe608060405234801561001057600080fd5b506004361061004c5760003560e01c80634aa4a4fc146100515780637e5af7711461006f5780639d7b0ea81461008f578063e9dc6375146100af575b600080fd5b6100596100cf565b604051610066919061112b565b60405180910390f35b61008261007d366004610e31565b6100f3565b604051610066919061113f565b6100a261009d366004610e71565b610112565b604051610066919061114a565b6100c26100bd366004610e71565b610257565b6040516100669190611153565b7f000000000000000000000000000000000000000000000000000000000000000081565b60006100ff8383610112565b6101098584610112565b13949350505050565b60007f00000000000000000000000000000000000000000000000000000000000000006001600160a01b0316836001600160a01b031614156101575750606319610251565b816001141561024d576001600160a01b03831673a0b86991c6218b36c1d19d4a2e9eb0ce3606eb48141561018e575061012c610251565b6001600160a01b03831673dac17f958d2ee523a2206206994597c13d831ec714156101bb575060c8610251565b6001600160a01b038316736b175474e89094c44da98b954eedeac495271d0f14156101e857506064610251565b6001600160a01b038316738daebade922df735c38c80c7ebd708af50815faa1415610216575060c719610251565b6001600160a01b038316732260fac5e5542a773aa44fbcfedf7c193bc2c5991415610245575061012b19610251565b506000610251565b5060005b92915050565b60606000806000806000876001600160a01b03166399fbab88886040518263ffffffff1660e01b815260040161028d919061114a565b6101806040518083038186803b1580156102a657600080fd5b505afa1580156102ba573d6000803e3d6000fd5b505050506040513d601f19601f820116820180604052508101906102de9190610ff6565b5050505050965096509650965096505050600061039c896001600160a01b031663c45a01556040518163ffffffff1660e01b815260040160206040518083038186803b15801561032d57600080fd5b505afa158015610341573d6000803e3d6000fd5b505050506040513d601f19601f820116820180604052508101906103659190610e0e565b6040518060600160405280896001600160a01b03168152602001886001600160a01b031681526020018762ffffff16815250610791565b905060006103ad878761007d610875565b9050600081156103bd57876103bf565b865b9050600082156103cf57876103d1565b885b90506000846001600160a01b0316633850c7bd6040518163ffffffff1660e01b815260040160e06040518083038186803b15801561040e57600080fd5b505afa158015610422573d6000803e3d6000fd5b505050506040513d601f19601f820116820180604052508101906104469190610f4d565b505050505091505073__NFTDescriptor_________________________63c49917d7604051806101c001604052808f8152602001866001600160a01b03168152602001856001600160a01b031681526020017f00000000000000000000000000000000000000000000000000000000000000006001600160a01b0316876001600160a01b0316146104df576104da87610879565b6104fc565b6040518060400160405280600381526020016208aa8960eb1b8152505b81526020017f00000000000000000000000000000000000000000000000000000000000000006001600160a01b0316866001600160a01b0316146105485761054386610879565b610565565b6040518060400160405280600381526020016208aa8960eb1b8152505b8152602001866001600160a01b031663313ce5676040518163ffffffff1660e01b815260040160206040518083038186803b1580156105a357600080fd5b505afa1580156105b7573d6000803e3d6000fd5b505050506040513d601f19601f820116820180604052508101906105db9190610fdc565b60ff168152602001856001600160a01b031663313ce5676040518163ffffffff1660e01b815260040160206040518083038186803b15801561061c57600080fd5b505afa158015610630573d6000803e3d6000fd5b505050506040513d601f19601f820116820180604052508101906106549190610fdc565b60ff16815260200187151581526020018a60020b81526020018960020b81526020018460020b8152602001886001600160a01b031663d0c93a7c6040518163ffffffff1660e01b815260040160206040518083038186803b1580156106b857600080fd5b505afa1580156106cc573d6000803e3d6000fd5b505050506040513d601f19601f820116820180604052508101906106f09190610e9c565b60020b81526020018b62ffffff168152602001886001600160a01b03168152506040518263ffffffff1660e01b815260040161072c9190611166565b60006040518083038186803b15801561074457600080fd5b505af4158015610758573d6000803e3d6000fd5b505050506040513d6000823e601f3d908101601f191682016040526107809190810190610eb6565b9d9c50505050505050505050505050565b600081602001516001600160a01b031682600001516001600160a01b0316106107b957600080fd5b50805160208083015160409384015184516001600160a01b0394851681850152939091168385015262ffffff166060808401919091528351808403820181526080840185528051908301206001600160f81b031960a085015294901b6bffffffffffffffffffffffff191660a183015260b58201939093527fe34f199b19b2b4f47f68442619d555527d244f78a3297ea89325f843f87b8b5460d5808301919091528251808303909101815260f5909101909152805191012090565b4690565b6060600061088e836395d89b4160e01b6108b3565b90508051600014156108ab576108a383610adb565b9150506108ae565b90505b919050565b60408051600481526024810182526020810180516001600160e01b03166001600160e01b031985161781529151815160609360009384936001600160a01b03891693919290918291908083835b6020831061091f5780518252601f199092019160209182019101610900565b6001836020036101000a038019825116818451168082178552505050505050905001915050600060405180830381855afa9150503d806000811461097f576040519150601f19603f3d011682016040523d82523d6000602084013e610984565b606091505b509150915081158061099557508051155b156109b3576040518060200160405280600081525092505050610251565b8051602014156109eb5760008180602001905160208110156109d457600080fd5b505190506109e181610ae8565b9350505050610251565b604081511115610ac357808060200190516020811015610a0a57600080fd5b8101908080516040519392919084640100000000821115610a2a57600080fd5b908301906020820185811115610a3f57600080fd5b8251640100000000811182820188101715610a5957600080fd5b82525081516020918201929091019080838360005b83811015610a86578181015183820152602001610a6e565b50505050905090810190601f168015610ab35780820380516001836020036101000a031916815260200191505b5060405250505092505050610251565b50506040805160208101909152600081529392505050565b60606108ab826006610c10565b604080516020808252818301909252606091600091906020820181803683370190505090506000805b6020811015610b72576000858260208110610b2857fe5b1a60f81b90506001600160f81b0319811615610b695780848481518110610b4b57fe5b60200101906001600160f81b031916908160001a9053506001909201915b50600101610b11565b5060008167ffffffffffffffff81118015610b8c57600080fd5b506040519080825280601f01601f191660200182016040528015610bb7576020820181803683370190505b50905060005b82811015610c0757838181518110610bd157fe5b602001015160f81c60f81b828281518110610be857fe5b60200101906001600160f81b031916908160001a905350600101610bbd565b50949350505050565b606060028206158015610c235750600082115b8015610c30575060288211155b610c81576040805162461bcd60e51b815260206004820152601e60248201527f41646472657373537472696e675574696c3a20494e56414c49445f4c454e0000604482015290519081900360640190fd5b60008267ffffffffffffffff81118015610c9a57600080fd5b506040519080825280601f01601f191660200182016040528015610cc5576020820181803683370190505b5090506001600160a01b03841660005b60028504811015610d6957600860138290030282901c600f600482901c1660f082168203610d0282610d73565b868560020281518110610d1157fe5b60200101906001600160f81b031916908160001a905350610d3181610d73565b868560020260010181518110610d4357fe5b60200101906001600160f81b031916908160001a9053505060019092019150610cd59050565b5090949350505050565b6000600a8260ff161015610d8e57506030810160f81b6108ae565b506037810160f81b6108ae565b80516108ae816112b4565b8051600281900b81146108ae57600080fd5b80516fffffffffffffffffffffffffffffffff811681146108ae57600080fd5b805161ffff811681146108ae57600080fd5b805162ffffff811681146108ae57600080fd5b805160ff811681146108ae57600080fd5b600060208284031215610e1f578081fd5b8151610e2a816112b4565b9392505050565b600080600060608486031215610e45578182fd5b8335610e50816112b4565b92506020840135610e60816112b4565b929592945050506040919091013590565b60008060408385031215610e83578182fd5b8235610e8e816112b4565b946020939093013593505050565b600060208284031215610ead578081fd5b610e2a82610da6565b600060208284031215610ec7578081fd5b815167ffffffffffffffff80821115610ede578283fd5b818401915084601f830112610ef1578283fd5b815181811115610efd57fe5b604051601f8201601f191681016020018381118282101715610f1b57fe5b604052818152838201602001871015610f32578485fd5b610f43826020830160208701611284565b9695505050505050565b600080600080600080600060e0888a031215610f67578283fd5b8751610f72816112b4565b9650610f8060208901610da6565b9550610f8e60408901610dd8565b9450610f9c60608901610dd8565b9350610faa60808901610dd8565b9250610fb860a08901610dfd565b915060c08801518015158114610fcc578182fd5b8091505092959891949750929550565b600060208284031215610fed578081fd5b610e2a82610dfd565b6000806000806000806000806000806000806101808d8f031215611018578485fd5b8c516bffffffffffffffffffffffff81168114611033578586fd5b9b5061104160208e01610d9b565b9a5061104f60408e01610d9b565b995061105d60608e01610d9b565b985061106b60808e01610dea565b975061107960a08e01610da6565b965061108760c08e01610da6565b955061109560e08e01610db8565b94506101008d015193506101208d015192506110b46101408e01610db8565b91506110c36101608e01610db8565b90509295989b509295989b509295989b565b6001600160a01b03169052565b15159052565b60020b9052565b60008151808452611107816020860160208601611284565b601f01601f19169290920160200192915050565b62ffffff169052565b60ff169052565b6001600160a01b0391909116815260200190565b901515815260200190565b90815260200190565b600060208252610e2a60208301846110ef565b60006020825282516020830152602083015161118560408401826110d5565b50604083015161119860608401826110d5565b5060608301516101c08060808501526111b56101e08501836110ef565b91506080850151601f198584030160a08601526111d283826110ef565b92505060a08501516111e760c0860182611124565b5060c08501516111fa60e0860182611124565b5060e085015161010061120f818701836110e2565b8601519050610120611223868201836110e8565b8601519050610140611237868201836110e8565b860151905061016061124b868201836110e8565b860151905061018061125f868201836110e8565b86015190506101a06112738682018361111b565b8601519050610d69858301826110d5565b60005b8381101561129f578181015183820152602001611287565b838111156112ae576000848401525b50505050565b6001600160a01b03811681146112c957600080fd5b5056fea26469706673582212204251fbb916a7bc86dd79e865e27c98d64302308658b798d56bcd517eb84db59c64736f6c63430007060033",
  "immutableReferences": {
    "8158": [
      {
        "length": 32,
        "start": 209
      },
      {
        "length": 32,
        "start": 278
      },
      {
        "length": 32,
        "start": 1178
      },
      {
        "length": 32,
        "start": 1283
      }
    ]
  },
  "source": "// SPDX-License-Identifier: GPL-2.0-or-later\r\npragma solidity =0.7.6;\r\npragma abicoder v2;\r\n\r\nimport '@uniswap/v3-core/contracts/interfaces/IUniswapV3Pool.sol';\r\nimport '@uniswap/lib/contracts/libraries/SafeERC20Namer.sol';\r\n\r\nimport './libraries/ChainId.sol';\r\nimport './interfaces/INonfungiblePositionManager.sol';\r\nimport './interfaces/INonfungibleTokenPositionDescriptor.sol';\r\nimport './interfaces/IERC20Metadata.sol';\r\nimport './libraries/PoolAddress.sol';\r\nimport './libraries/NFTDescriptor.sol';\r\nimport './libraries/TokenRatioSortOrder.sol';\r\n\r\n/// @title Describes NFT token positions\r\n/// @notice Produces a string containing the data URI for a JSON metadata string\r\ncontract NonfungibleTokenPositionDescriptor is INonfungibleTokenPositionDescriptor {\r\n    address private constant DAI = 0x6B175474E89094C44Da98b954EedeAC495271d0F;\r\n    address private constant USDC = 0xA0b86991c6218b36c1d19D4a2e9Eb0cE3606eB48;\r\n    address private constant USDT = 0xdAC17F958D2ee523a2206206994597C13D831ec7;\r\n    address private constant TBTC = 0x8dAEBADE922dF735c38C80C7eBD708Af50815fAa;\r\n    address private constant WBTC = 0x2260FAC5E5542a773Aa44fBCfeDf7C193bc2C599;\r\n\r\n    address public immutable WETH9;\r\n\r\n    constructor(address _WETH9) {\r\n        WETH9 = _WETH9;\r\n    }\r\n\r\n    /// @inheritdoc INonfungibleTokenPositionDescriptor\r\n    function tokenURI(INonfungiblePositionManager positionManager, uint256 tokenId)\r\n        external\r\n        view\r\n        override\r\n        returns (string memory)\r\n    {\r\n        (, , address token0, address token1, uint24 fee, int24 tickLower, int24 tickUpper, , , , , ) =\r\n            positionManager.positions(tokenId);\r\n\r\n        IUniswapV3Pool pool =\r\n            IUniswapV3Pool(\r\n                PoolAddress.computeAddress(\r\n                    positionManager.factory(),\r\n                    PoolAddress.PoolKey({token0: token0, token1: token1, fee: fee})\r\n                )\r\n            );\r\n\r\n        bool _flipRatio = flipRatio(token0, token1, ChainId.get());\r\n        address quoteTokenAddress = !_flipRatio ? token1 : token0;\r\n        address baseTokenAddress = !_flipRatio ? token0 : token1;\r\n        (, int24 tick, , , , , ) = pool.slot0();\r\n\r\n        return\r\n            NFTDescriptor.constructTokenURI(\r\n                NFTDescriptor.ConstructTokenURIParams({\r\n                    tokenId: tokenId,\r\n                    quoteTokenAddress: quoteTokenAddress,\r\n                    baseTokenAddress: baseTokenAddress,\r\n                    quoteTokenSymbol: quoteTokenAddress == WETH9\r\n                        ? 'ETH'\r\n                        : SafeERC20Namer.tokenSymbol(quoteTokenAddress),\r\n                    baseTokenSymbol: baseTokenAddress == WETH9 ? 'ETH' : SafeERC20Namer.tokenSymbol(baseTokenAddress),\r\n                    quoteTokenDecimals: IERC20Metadata(quoteTokenAddress).decimals(),\r\n                    baseTokenDecimals: IERC20Metadata(baseTokenAddress).decimals(),\r\n                    flipRatio: _flipRatio,\r\n                    tickLower: tickLower,\r\n                    tickUpper: tickUpper,\r\n                    tickCurrent: tick,\r\n                    tickSpacing: pool.tickSpacing(),\r\n                    fee: fee,\r\n                    poolAddress: address(pool)\r\n                })\r\n            );\r\n    }\r\n\r\n    function flipRatio(\r\n        address token0,\r\n        address token1,\r\n        uint256 chainId\r\n    ) public view returns (bool) {\r\n        return tokenRatioPriority(token0, chainId) > tokenRatioPriority(token1, chainId);\r\n    }\r\n\r\n    function tokenRatioPriority(address token, uint256 chainId) public view returns (int256) {\r\n        if (token == WETH9) {\r\n            return TokenRatioSortOrder.DENOMINATOR;\r\n        }\r\n        if (chainId == 1) {\r\n            if (token == USDC) {\r\n                return TokenRatioSortOrder.NUMERATOR_MOST;\r\n            } else if (token == USDT) {\r\n                return TokenRatioSortOrder.NUMERATOR_MORE;\r\n            } else if (token == DAI) {\r\n                return TokenRatioSortOrder.NUMERATOR;\r\n            } else if (token == TBTC) {\r\n                return TokenRatioSortOrder.DENOMINATOR_MORE;\r\n            } else if (token == WBTC) {\r\n                return TokenRatioSortOrder.DENOMINATOR_MOST;\r\n            } else {\r\n                return 0;\r\n            }\r\n        }\r\n        return 0;\r\n    }\r\n}\r\n",
  "sourcePath": "C:\\Users\\user\\Desktop\\-repo-\\uniswap-v3-periphery\\contracts\\NonfungibleTokenPositionDescriptor.sol",
  "compiler": {
    "name": "solc",
    "version": "0.7.6+commit.7338295f.Emscripten.clang"
  },
  "schemaVersion": "3.4.2",
  "updatedAt": "2021-08-19T11:40:32.198Z",
  "devdoc": {
    "kind": "dev",
    "methods": {
      "tokenURI(address,uint256)": {
        "details": "Note this URI may be a data: URI with the JSON contents directly inlined",
        "params": {
          "positionManager": "The position manager for which to describe the token",
          "tokenId": "The ID of the token for which to produce a description, which may not be valid"
        },
        "returns": {
          "_0": "The URI of the ERC721-compliant metadata"
        }
      }
    },
    "title": "Describes NFT token positions",
    "version": 1
  },
  "userdoc": {
    "kind": "user",
    "methods": {
      "tokenURI(address,uint256)": {
        "notice": "Produces the URI describing a particular token ID for a position manager"
      }
    },
    "notice": "Produces a string containing the data URI for a JSON metadata string",
    "version": 1
  }
}