{
  "contractName": "Exchange",
  "abi": [
    {
      "constant": true,
      "inputs": [],
      "name": "eventId",
      "outputs": [
        {
          "name": "",
          "type": "uint256"
        }
      ],
      "payable": false,
      "stateMutability": "view",
      "type": "function"
    },
    {
      "constant": true,
      "inputs": [
        {
          "name": "",
          "type": "uint256"
        }
      ],
      "name": "events",
      "outputs": [
        {
          "name": "name",
          "type": "string"
        },
        {
          "name": "result",
          "type": "uint256"
        },
        {
          "name": "urlOracle",
          "type": "string"
        },
        {
          "name": "isResolved",
          "type": "bool"
        }
      ],
      "payable": false,
      "stateMutability": "view",
      "type": "function"
    },
    {
      "constant": false,
      "inputs": [],
      "name": "unpause",
      "outputs": [],
      "payable": false,
      "stateMutability": "nonpayable",
      "type": "function"
    },
    {
      "constant": false,
      "inputs": [],
      "name": "claimOwnership",
      "outputs": [],
      "payable": false,
      "stateMutability": "nonpayable",
      "type": "function"
    },
    {
      "constant": true,
      "inputs": [
        {
          "name": "",
          "type": "address"
        },
        {
          "name": "",
          "type": "uint256"
        }
      ],
      "name": "myEvents",
      "outputs": [
        {
          "name": "",
          "type": "uint256"
        }
      ],
      "payable": false,
      "stateMutability": "view",
      "type": "function"
    },
    {
      "constant": true,
      "inputs": [],
      "name": "paused",
      "outputs": [
        {
          "name": "",
          "type": "bool"
        }
      ],
      "payable": false,
      "stateMutability": "view",
      "type": "function"
    },
    {
      "constant": false,
      "inputs": [],
      "name": "pause",
      "outputs": [],
      "payable": false,
      "stateMutability": "nonpayable",
      "type": "function"
    },
    {
      "constant": true,
      "inputs": [],
      "name": "owner",
      "outputs": [
        {
          "name": "",
          "type": "address"
        }
      ],
      "payable": false,
      "stateMutability": "view",
      "type": "function"
    },
    {
      "constant": true,
      "inputs": [
        {
          "name": "",
          "type": "uint256"
        }
      ],
      "name": "eventIds",
      "outputs": [
        {
          "name": "",
          "type": "uint256"
        }
      ],
      "payable": false,
      "stateMutability": "view",
      "type": "function"
    },
    {
      "constant": true,
      "inputs": [],
      "name": "proposedOwner",
      "outputs": [
        {
          "name": "",
          "type": "address"
        }
      ],
      "payable": false,
      "stateMutability": "view",
      "type": "function"
    },
    {
      "constant": false,
      "inputs": [
        {
          "name": "_proposedOwner",
          "type": "address"
        }
      ],
      "name": "transferOwnership",
      "outputs": [],
      "payable": false,
      "stateMutability": "nonpayable",
      "type": "function"
    },
    {
      "inputs": [],
      "payable": false,
      "stateMutability": "nonpayable",
      "type": "constructor"
    },
    {
      "anonymous": false,
      "inputs": [
        {
          "indexed": true,
          "name": "id",
          "type": "uint256"
        },
        {
          "indexed": true,
          "name": "name",
          "type": "string"
        }
      ],
      "name": "CreateEvent",
      "type": "event"
    },
    {
      "anonymous": false,
      "inputs": [
        {
          "indexed": true,
          "name": "id",
          "type": "uint256"
        },
        {
          "indexed": true,
          "name": "resultSpaceId",
          "type": "uint256"
        },
        {
          "indexed": false,
          "name": "fractionAmount",
          "type": "uint256"
        },
        {
          "indexed": false,
          "name": "fractionCost",
          "type": "uint256"
        },
        {
          "indexed": true,
          "name": "buyer",
          "type": "address"
        }
      ],
      "name": "BuyEvent",
      "type": "event"
    },
    {
      "anonymous": false,
      "inputs": [
        {
          "indexed": true,
          "name": "id",
          "type": "uint256"
        },
        {
          "indexed": true,
          "name": "resultSpaceId",
          "type": "uint256"
        }
      ],
      "name": "CloseEvent",
      "type": "event"
    },
    {
      "anonymous": false,
      "inputs": [
        {
          "indexed": true,
          "name": "id",
          "type": "uint256"
        },
        {
          "indexed": false,
          "name": "winAmount",
          "type": "uint256"
        },
        {
          "indexed": true,
          "name": "buyer",
          "type": "address"
        }
      ],
      "name": "WithdrawEvent",
      "type": "event"
    },
    {
      "anonymous": false,
      "inputs": [
        {
          "indexed": true,
          "name": "id",
          "type": "uint256"
        },
        {
          "indexed": false,
          "name": "liquidateAmount",
          "type": "uint256"
        },
        {
          "indexed": true,
          "name": "sellet",
          "type": "address"
        }
      ],
      "name": "SellEvent",
      "type": "event"
    },
    {
      "anonymous": false,
      "inputs": [],
      "name": "Pause",
      "type": "event"
    },
    {
      "anonymous": false,
      "inputs": [],
      "name": "Unpause",
      "type": "event"
    },
    {
      "anonymous": false,
      "inputs": [
        {
          "indexed": true,
          "name": "previousOwner",
          "type": "address"
        },
        {
          "indexed": true,
          "name": "newOwner",
          "type": "address"
        }
      ],
      "name": "OwnershipTransferred",
      "type": "event"
    },
    {
      "constant": false,
      "inputs": [
        {
          "name": "_eventId",
          "type": "uint256"
        }
      ],
      "name": "isEventOpen",
      "outputs": [
        {
          "name": "success",
          "type": "bool"
        }
      ],
      "payable": false,
      "stateMutability": "nonpayable",
      "type": "function"
    },
    {
      "constant": false,
      "inputs": [
        {
          "name": "_eventId",
          "type": "uint256"
        }
      ],
      "name": "isEventClosed",
      "outputs": [
        {
          "name": "success",
          "type": "bool"
        }
      ],
      "payable": false,
      "stateMutability": "nonpayable",
      "type": "function"
    },
    {
      "constant": false,
      "inputs": [
        {
          "name": "_resultSpaceIds",
          "type": "uint256[]"
        },
        {
          "name": "_urlOracle",
          "type": "string"
        },
        {
          "name": "_eventName",
          "type": "string"
        }
      ],
      "name": "createEvent",
      "outputs": [
        {
          "name": "success",
          "type": "bool"
        }
      ],
      "payable": true,
      "stateMutability": "payable",
      "type": "function"
    },
    {
      "constant": false,
      "inputs": [
        {
          "name": "_eventId",
          "type": "uint256"
        }
      ],
      "name": "addLiquidity",
      "outputs": [
        {
          "name": "success",
          "type": "bool"
        }
      ],
      "payable": true,
      "stateMutability": "payable",
      "type": "function"
    },
    {
      "constant": false,
      "inputs": [
        {
          "name": "_eventId",
          "type": "uint256"
        }
      ],
      "name": "removeLiquidity",
      "outputs": [
        {
          "name": "success",
          "type": "bool"
        }
      ],
      "payable": false,
      "stateMutability": "nonpayable",
      "type": "function"
    },
    {
      "constant": false,
      "inputs": [
        {
          "name": "_eventId",
          "type": "uint256"
        },
        {
          "name": "_resultSpaceId",
          "type": "uint256"
        },
        {
          "name": "_fractionsAmount",
          "type": "uint256"
        }
      ],
      "name": "buy",
      "outputs": [
        {
          "name": "success",
          "type": "bool"
        }
      ],
      "payable": true,
      "stateMutability": "payable",
      "type": "function"
    },
    {
      "constant": false,
      "inputs": [
        {
          "name": "_eventId",
          "type": "uint256"
        },
        {
          "name": "_resultSpaceId",
          "type": "uint256"
        },
        {
          "name": "_fractionsAmountRelative",
          "type": "uint256"
        }
      ],
      "name": "sell",
      "outputs": [
        {
          "name": "success",
          "type": "bool"
        }
      ],
      "payable": false,
      "stateMutability": "nonpayable",
      "type": "function"
    },
    {
      "constant": true,
      "inputs": [
        {
          "name": "_eventId",
          "type": "uint256"
        },
        {
          "name": "_resultSpaceId",
          "type": "uint256"
        },
        {
          "name": "_fractionsAmount",
          "type": "uint256"
        }
      ],
      "name": "getSlipageOnSell",
      "outputs": [
        {
          "name": "slipage",
          "type": "uint256"
        }
      ],
      "payable": false,
      "stateMutability": "view",
      "type": "function"
    },
    {
      "constant": true,
      "inputs": [
        {
          "name": "_eventId",
          "type": "uint256"
        },
        {
          "name": "_resultSpaceId",
          "type": "uint256"
        },
        {
          "name": "_fractionsAmount",
          "type": "uint256"
        }
      ],
      "name": "getSlipageOnBuy",
      "outputs": [
        {
          "name": "slipage",
          "type": "uint256"
        }
      ],
      "payable": false,
      "stateMutability": "view",
      "type": "function"
    },
    {
      "constant": false,
      "inputs": [
        {
          "name": "_eventId",
          "type": "uint256"
        },
        {
          "name": "_resultSpaceId",
          "type": "uint256"
        },
        {
          "name": "_fractionsAmountRelative",
          "type": "uint256"
        }
      ],
      "name": "pullFractions",
      "outputs": [
        {
          "name": "success",
          "type": "bool"
        }
      ],
      "payable": false,
      "stateMutability": "nonpayable",
      "type": "function"
    },
    {
      "constant": false,
      "inputs": [
        {
          "name": "_eventId",
          "type": "uint256"
        },
        {
          "name": "_resultSpaceId",
          "type": "uint256"
        },
        {
          "name": "_fractionsAmountRelative",
          "type": "uint256"
        }
      ],
      "name": "pushFractions",
      "outputs": [
        {
          "name": "success",
          "type": "bool"
        }
      ],
      "payable": false,
      "stateMutability": "nonpayable",
      "type": "function"
    },
    {
      "constant": false,
      "inputs": [
        {
          "name": "_eventId",
          "type": "uint256"
        },
        {
          "name": "_resultId",
          "type": "uint256"
        }
      ],
      "name": "resolveEvent",
      "outputs": [
        {
          "name": "success",
          "type": "bool"
        }
      ],
      "payable": false,
      "stateMutability": "nonpayable",
      "type": "function"
    },
    {
      "constant": false,
      "inputs": [
        {
          "name": "_eventId",
          "type": "uint256"
        },
        {
          "name": "_resultSpaceId",
          "type": "uint256"
        }
      ],
      "name": "withdrawWins",
      "outputs": [
        {
          "name": "success",
          "type": "bool"
        }
      ],
      "payable": false,
      "stateMutability": "nonpayable",
      "type": "function"
    },
    {
      "constant": true,
      "inputs": [],
      "name": "getEvents",
      "outputs": [
        {
          "name": "event_ids",
          "type": "uint256[]"
        }
      ],
      "payable": false,
      "stateMutability": "view",
      "type": "function"
    },
    {
      "constant": true,
      "inputs": [
        {
          "name": "_eventId",
          "type": "uint256"
        }
      ],
      "name": "getEventData",
      "outputs": [
        {
          "name": "",
          "type": "string"
        },
        {
          "name": "",
          "type": "uint256"
        },
        {
          "name": "",
          "type": "string"
        },
        {
          "name": "",
          "type": "bool"
        }
      ],
      "payable": false,
      "stateMutability": "view",
      "type": "function"
    },
    {
      "constant": true,
      "inputs": [
        {
          "name": "_eventId",
          "type": "uint256"
        },
        {
          "name": "resultSpace_id",
          "type": "uint256"
        }
      ],
      "name": "getResultSpaceData",
      "outputs": [
        {
          "name": "_id",
          "type": "uint256"
        },
        {
          "name": "_resultId",
          "type": "uint256"
        },
        {
          "name": "_pool",
          "type": "uint256"
        },
        {
          "name": "_cost",
          "type": "uint256"
        },
        {
          "name": "_odd",
          "type": "uint256"
        },
        {
          "name": "_amount",
          "type": "uint256"
        },
        {
          "name": "_in",
          "type": "uint256"
        },
        {
          "name": "_out",
          "type": "uint256"
        },
        {
          "name": "_fees",
          "type": "uint256"
        },
        {
          "name": "_liqAmount",
          "type": "uint256"
        }
      ],
      "payable": false,
      "stateMutability": "view",
      "type": "function"
    },
    {
      "constant": true,
      "inputs": [],
      "name": "getMyEvents",
      "outputs": [
        {
          "name": "",
          "type": "uint256[]"
        }
      ],
      "payable": false,
      "stateMutability": "view",
      "type": "function"
    },
    {
      "constant": true,
      "inputs": [
        {
          "name": "_eventId",
          "type": "uint256"
        }
      ],
      "name": "getMyEventHoldings",
      "outputs": [
        {
          "name": "",
          "type": "uint256"
        },
        {
          "name": "",
          "type": "uint256"
        },
        {
          "name": "",
          "type": "uint256"
        },
        {
          "name": "",
          "type": "uint256"
        },
        {
          "name": "",
          "type": "uint256"
        },
        {
          "name": "",
          "type": "uint256"
        }
      ],
      "payable": false,
      "stateMutability": "view",
      "type": "function"
    }
  ],
  "bytecode": "0x60806040526000600160146101000a81548160ff021916908315150217905550600060025534801561003057600080fd5b50336000806101000a81548173ffffffffffffffffffffffffffffffffffffffff021916908373ffffffffffffffffffffffffffffffffffffffff160217905550614ce7806100806000396000f3fe6080604052600436106101c25760003560e01c806370f7ae95116100f7578063a8c776a111610095578063d3c9727c11610064578063d3c9727c14610d3d578063e13a7d1114610da4578063e682e9ad14610e07578063f2fde38b14610e64576101c2565b8063a8c776a114610b84578063ad5145af14610be7578063cccbcc7c14610c7f578063d153b60c14610ce6576101c2565b8063998f6ac0116100d1578063998f6ac014610a285780639c8f9f2314610a775780639d9bbde714610aca578063a25e6ab214610b31576101c2565b806370f7ae95146109675780638456cb59146109ba5780638da5cb5b146109d1576101c2565b80634392bb681161016457806351c6590a1161013e57806351c6590a1461069757806354549f96146106dd5780635c975abb146108db57806364f664671461090a576101c2565b80634392bb68146104df5780634e71e0c8146106115780635096865714610628576101c2565b80633548124b116101a05780633548124b146103965780633f4ba83a14610402578063404aa8f91461041957806340993b2614610485576101c2565b8063089cdd0c146101c75780630b791430146101f257806321c3c4be14610324575b600080fd5b3480156101d357600080fd5b506101dc610eb5565b6040518082815260200191505060405180910390f35b3480156101fe57600080fd5b5061022b6004803603602081101561021557600080fd5b8101908080359060200190929190505050610ebb565b60405180806020018581526020018060200184151515158152602001838103835287818151815260200191508051906020019080838360005b8381101561027f578082015181840152602081019050610264565b50505050905090810190601f1680156102ac5780820380516001836020036101000a031916815260200191505b50838103825285818151815260200191508051906020019080838360005b838110156102e55780820151818401526020810190506102ca565b50505050905090810190601f1680156103125780820380516001836020036101000a031916815260200191505b50965050505050505060405180910390f35b34801561033057600080fd5b5061035d6004803603602081101561034757600080fd5b8101908080359060200190929190505050611028565b60405180878152602001868152602001858152602001848152602001838152602001828152602001965050505050505060405180910390f35b3480156103a257600080fd5b506103ab61123e565b6040518080602001828103825283818151815260200191508051906020019060200280838360005b838110156103ee5780820151818401526020810190506103d3565b505050509050019250505060405180910390f35b34801561040e57600080fd5b506104176112d3565b005b34801561042557600080fd5b5061042e611460565b6040518080602001828103825283818151815260200191508051906020019060200280838360005b83811015610471578082015181840152602081019050610456565b505050509050019250505060405180910390f35b6104c56004803603606081101561049b57600080fd5b810190808035906020019092919080359060200190929190803590602001909291905050506114b8565b604051808215151515815260200191505060405180910390f35b3480156104eb57600080fd5b506105186004803603602081101561050257600080fd5b810190808035906020019092919050505061191d565b60405180806020018581526020018060200184151515158152602001838103835287818151815260200191508051906020019080838360005b8381101561056c578082015181840152602081019050610551565b50505050905090810190601f1680156105995780820380516001836020036101000a031916815260200191505b50838103825285818151815260200191508051906020019080838360005b838110156105d25780820151818401526020810190506105b7565b50505050905090810190601f1680156105ff5780820380516001836020036101000a031916815260200191505b50965050505050505060405180910390f35b34801561061d57600080fd5b50610626611ae0565b005b34801561063457600080fd5b506106816004803603604081101561064b57600080fd5b81019080803573ffffffffffffffffffffffffffffffffffffffff16906020019092919080359060200190929190505050611ce6565b6040518082815260200191505060405180910390f35b6106c3600480360360208110156106ad57600080fd5b8101908080359060200190929190505050611d14565b604051808215151515815260200191505060405180910390f35b6108c1600480360360608110156106f357600080fd5b810190808035906020019064010000000081111561071057600080fd5b82018360208201111561072257600080fd5b8035906020019184602083028401116401000000008311171561074457600080fd5b919080806020026020016040519081016040528093929190818152602001838360200280828437600081840152601f19601f820116905080830192505050505050509192919290803590602001906401000000008111156107a457600080fd5b8201836020820111156107b657600080fd5b803590602001918460018302840111640100000000831117156107d857600080fd5b91908080601f016020809104026020016040519081016040528093929190818152602001838380828437600081840152601f19601f8201169050808301925050505050505091929192908035906020019064010000000081111561083b57600080fd5b82018360208201111561084d57600080fd5b8035906020019184600183028401116401000000008311171561086f57600080fd5b91908080601f016020809104026020016040519081016040528093929190818152602001838380828437600081840152601f19601f8201169050808301925050505050505091929192905050506121b1565b604051808215151515815260200191505060405180910390f35b3480156108e757600080fd5b506108f06125f6565b604051808215151515815260200191505060405180910390f35b34801561091657600080fd5b5061094d6004803603604081101561092d57600080fd5b810190808035906020019092919080359060200190929190505050612609565b604051808215151515815260200191505060405180910390f35b34801561097357600080fd5b506109a06004803603602081101561098a57600080fd5b8101908080359060200190929190505050612776565b604051808215151515815260200191505060405180910390f35b3480156109c657600080fd5b506109cf6127aa565b005b3480156109dd57600080fd5b506109e6612937565b604051808273ffffffffffffffffffffffffffffffffffffffff1673ffffffffffffffffffffffffffffffffffffffff16815260200191505060405180910390f35b348015610a3457600080fd5b50610a6160048036036020811015610a4b57600080fd5b810190808035906020019092919050505061295c565b6040518082815260200191505060405180910390f35b348015610a8357600080fd5b50610ab060048036036020811015610a9a57600080fd5b810190808035906020019092919050505061297d565b604051808215151515815260200191505060405180910390f35b348015610ad657600080fd5b50610b1760048036036060811015610aed57600080fd5b8101908080359060200190929190803590602001909291908035906020019092919050505061303a565b604051808215151515815260200191505060405180910390f35b348015610b3d57600080fd5b50610b6a60048036036020811015610b5457600080fd5b81019080803590602001909291905050506133e3565b604051808215151515815260200191505060405180910390f35b348015610b9057600080fd5b50610bd160048036036060811015610ba757600080fd5b81019080803590602001909291908035906020019092919080359060200190929190505050613416565b6040518082815260200191505060405180910390f35b348015610bf357600080fd5b50610c2a60048036036040811015610c0a57600080fd5b81019080803590602001909291908035906020019092919050505061356b565b604051808b81526020018a81526020018981526020018881526020018781526020018681526020018581526020018481526020018381526020018281526020019a505050505050505050505060405180910390f35b348015610c8b57600080fd5b50610ccc60048036036060811015610ca257600080fd5b810190808035906020019092919080359060200190929190803590602001909291905050506136bb565b604051808215151515815260200191505060405180910390f35b348015610cf257600080fd5b50610cfb613a64565b604051808273ffffffffffffffffffffffffffffffffffffffff1673ffffffffffffffffffffffffffffffffffffffff16815260200191505060405180910390f35b348015610d4957600080fd5b50610d8a60048036036060811015610d6057600080fd5b81019080803590602001909291908035906020019092919080359060200190929190505050613a8a565b604051808215151515815260200191505060405180910390f35b348015610db057600080fd5b50610df160048036036060811015610dc757600080fd5b81019080803590602001909291908035906020019092919080359060200190929190505050613fa2565b6040518082815260200191505060405180910390f35b348015610e1357600080fd5b50610e4a60048036036040811015610e2a57600080fd5b8101908080359060200190929190803590602001909291905050506140f7565b604051808215151515815260200191505060405180910390f35b348015610e7057600080fd5b50610eb360048036036020811015610e8757600080fd5b81019080803573ffffffffffffffffffffffffffffffffffffffff1690602001909291905050506145d4565b005b60025481565b6004602052806000526040600020600091509050806000018054600181600116156101000203166002900480601f016020809104026020016040519081016040528092919081815260200182805460018160011615610100020316600290048015610f675780601f10610f3c57610100808354040283529160200191610f67565b820191906000526020600020905b815481529060010190602001808311610f4a57829003601f168201915b505050505090806002015490806003018054600181600116156101000203166002900480601f01602080910402602001604051908101604052809291908181526020018280546001816001161561010002031660029004801561100b5780601f10610fe05761010080835404028352916020019161100b565b820191906000526020600020905b815481529060010190602001808311610fee57829003601f168201915b5050505050908060040160009054906101000a900460ff16905084565b60008060008060008060006004600089815260200190815260200160002060010160006001815260200190815260200160002090506000600460008a815260200190815260200160002060010160006002815260200190815260200160002090508160020160060160003373ffffffffffffffffffffffffffffffffffffffff1673ffffffffffffffffffffffffffffffffffffffff168152602001908152602001600020548260020160090160003373ffffffffffffffffffffffffffffffffffffffff1673ffffffffffffffffffffffffffffffffffffffff1681526020019081526020016000205483600201600c0160003373ffffffffffffffffffffffffffffffffffffffff1673ffffffffffffffffffffffffffffffffffffffff168152602001908152602001600020548360020160060160003373ffffffffffffffffffffffffffffffffffffffff1673ffffffffffffffffffffffffffffffffffffffff168152602001908152602001600020548460020160090160003373ffffffffffffffffffffffffffffffffffffffff1673ffffffffffffffffffffffffffffffffffffffff1681526020019081526020016000205485600201600c0160003373ffffffffffffffffffffffffffffffffffffffff1673ffffffffffffffffffffffffffffffffffffffff16815260200190815260200160002054975097509750975097509750505091939550919395565b6060600560003373ffffffffffffffffffffffffffffffffffffffff1673ffffffffffffffffffffffffffffffffffffffff1681526020019081526020016000208054806020026020016040519081016040528092919081815260200182805480156112c957602002820191906000526020600020905b8154815260200190600101908083116112b5575b5050505050905090565b6000809054906101000a900473ffffffffffffffffffffffffffffffffffffffff1673ffffffffffffffffffffffffffffffffffffffff163373ffffffffffffffffffffffffffffffffffffffff1614611395576040517f08c379a000000000000000000000000000000000000000000000000000000000815260040180806020018281038252600f8152602001807f48617320746f206265206f776e6572000000000000000000000000000000000081525060200191505060405180910390fd5b600160149054906101000a900460ff16611417576040517f08c379a00000000000000000000000000000000000000000000000000000000081526004018080602001828103825260108152602001807f48617320746f206265207061757365640000000000000000000000000000000081525060200191505060405180910390fd5b6000600160146101000a81548160ff0219169083151502179055507f7805862f689e2f13df9f062ff482ad3ad112aca9e0847911ed832e158c525b3360405160405180910390a1565b606060038054806020026020016040519081016040528092919081815260200182805480156114ae57602002820191906000526020600020905b81548152602001906001019080831161149a575b5050505050905090565b60006114c3846133e3565b6114cc57600080fd5b60008211611542576040517f08c379a00000000000000000000000000000000000000000000000000000000081526004018080602001828103825260148152602001807f416d6f756e742068617320746f206265203e203000000000000000000000000081525060200191505060405180910390fd5b600060019050600184141561155657600290505b600060046000878152602001908152602001600020600101600083815260200190815260200160002090506000600460008881526020019081526020016000206001016000878152602001908152602001600020905060006115c882600201600101548761475f90919063ffffffff16565b905060008260020160010154905060006115e38a8a8a613416565b90506003811061165b576040517f08c379a000000000000000000000000000000000000000000000000000000000815260040180806020018281038252601d8152602001807f536c69706167652068617320746f206265206c657373207468616e203300000081525060200191505060405180910390fd5b8234146116b3576040517f08c379a0000000000000000000000000000000000000000000000000000000008152600401808060200182810382526028815260200180614c166028913960400191505060405180910390fd5b6116cd8385600201600001546147e590919063ffffffff16565b84600201600001819055506116f98460020160000154866002016000015461486d90919063ffffffff16565b60010184600201600201819055506117288560020160000154856002016000015461486d90919063ffffffff16565b60010185600201600201819055506117578460020160030154856002016000015461486d90919063ffffffff16565b84600201600101819055506117838560020160030154866002016000015461486d90919063ffffffff16565b856002016001018190555060008890506000856002016005015411156117dc576117d96117c086600201600501548561486d90919063ffffffff16565b600103866002016005015461486d90919063ffffffff16565b90505b6117f68560020160050154826148b790919063ffffffff16565b8560020160060160003373ffffffffffffffffffffffffffffffffffffffff1673ffffffffffffffffffffffffffffffffffffffff16815260200190815260200160002081905550808560020160050181905550600560003373ffffffffffffffffffffffffffffffffffffffff1673ffffffffffffffffffffffffffffffffffffffff1681526020019081526020016000208b90806001815401808255809150509060018203906000526020600020016000909192909190915055503373ffffffffffffffffffffffffffffffffffffffff168a8c7f09128000766ebce884c5ac8e461927d01432ce7f518e74a16b4606728d2c01618c87604051808381526020018281526020019250505060405180910390a460019750505050505050509392505050565b606060006060600061192d614a87565b60046000878152602001908152602001600020604051806080016040529081600082018054600181600116156101000203166002900480601f0160208091040260200160405190810160405280929190818152602001828054600181600116156101000203166002900480156119e45780601f106119b9576101008083540402835291602001916119e4565b820191906000526020600020905b8154815290600101906020018083116119c757829003601f168201915b5050505050815260200160028201548152602001600382018054600181600116156101000203166002900480601f016020809104026020016040519081016040528092919081815260200182805460018160011615610100020316600290048015611a905780601f10611a6557610100808354040283529160200191611a90565b820191906000526020600020905b815481529060010190602001808311611a7357829003601f168201915b505050505081526020016004820160009054906101000a900460ff161515151581525050905080600001518160200151826040015183606001518393508191509450945094509450509193509193565b600160009054906101000a900473ffffffffffffffffffffffffffffffffffffffff1673ffffffffffffffffffffffffffffffffffffffff163373ffffffffffffffffffffffffffffffffffffffff1614611ba3576040517f08c379a000000000000000000000000000000000000000000000000000000000815260040180806020018281038252601c8152602001807f48617320746f206265207468652070726f706f736564206f776e65720000000081525060200191505060405180910390fd5b600160009054906101000a900473ffffffffffffffffffffffffffffffffffffffff1673ffffffffffffffffffffffffffffffffffffffff166000809054906101000a900473ffffffffffffffffffffffffffffffffffffffff1673ffffffffffffffffffffffffffffffffffffffff167f8be0079c531659141344cd1fd0a4f28419497f9722a3daafe3b4186f6b6457e060405160405180910390a3600160009054906101000a900473ffffffffffffffffffffffffffffffffffffffff166000806101000a81548173ffffffffffffffffffffffffffffffffffffffff021916908373ffffffffffffffffffffffffffffffffffffffff1602179055506000600160006101000a81548173ffffffffffffffffffffffffffffffffffffffff021916908373ffffffffffffffffffffffffffffffffffffffff160217905550565b60056020528160005260406000208181548110611cff57fe5b90600052602060002001600091509150505481565b6000611d1f826133e3565b611d2857600080fd5b60003411611d9e576040517f08c379a00000000000000000000000000000000000000000000000000000000081526004018080602001828103825260148152602001807f416d6f756e742068617320746f206265203e203000000000000000000000000081525060200191505060405180910390fd5b600060046000848152602001908152602001600020600101600060018152602001908152602001600020905060006004600085815260200190815260200160002060010160006002815260200190815260200160002090506000809050600080905060008090506000809050600060329050611e4f611e396064611e2b843461475f90919063ffffffff16565b61486d90919063ffffffff16565b87600201600001546147e590919063ffffffff16565b9450611e90611e7a6064611e6c843461475f90919063ffffffff16565b61486d90919063ffffffff16565b88600201600001546147e590919063ffffffff16565b9350611ec58660020160000154611eb788600201600301548861475f90919063ffffffff16565b61486d90919063ffffffff16565b9250611efa8760020160000154611eec89600201600301548761475f90919063ffffffff16565b61486d90919063ffffffff16565b91508486600201600001819055508387600201600001819055506000611f308760020160030154856148b790919063ffffffff16565b90506000611f4e8960020160030154856148b790919063ffffffff16565b9050611f6a8289600201600401546147e590919063ffffffff16565b8860020160040181905550611f8f818a600201600401546147e590919063ffffffff16565b8960020160040181905550611ff18289600201600c0160003373ffffffffffffffffffffffffffffffffffffffff1673ffffffffffffffffffffffffffffffffffffffff168152602001908152602001600020546147e590919063ffffffff16565b88600201600c0160003373ffffffffffffffffffffffffffffffffffffffff1673ffffffffffffffffffffffffffffffffffffffff16815260200190815260200160002081905550612090818a600201600c0160003373ffffffffffffffffffffffffffffffffffffffff1673ffffffffffffffffffffffffffffffffffffffff168152602001908152602001600020546147e590919063ffffffff16565b89600201600c0160003373ffffffffffffffffffffffffffffffffffffffff1673ffffffffffffffffffffffffffffffffffffffff1681526020019081526020016000208190555084886002016003018190555083896002016003018190555061210a8289600201600b01546147e590919063ffffffff16565b88600201600b018190555061212f8189600201600b01546147e590919063ffffffff16565b89600201600b0181905550600560003373ffffffffffffffffffffffffffffffffffffffff1673ffffffffffffffffffffffffffffffffffffffff1681526020019081526020016000208b9080600181540180825580915050906001820390600052602060002001600090919290919091505550505050505050505050919050565b60008060009054906101000a900473ffffffffffffffffffffffffffffffffffffffff1673ffffffffffffffffffffffffffffffffffffffff163373ffffffffffffffffffffffffffffffffffffffff1614612275576040517f08c379a000000000000000000000000000000000000000000000000000000000815260040180806020018281038252600f8152602001807f48617320746f206265206f776e6572000000000000000000000000000000000081525060200191505060405180910390fd5b60028451146122ec576040517f08c379a000000000000000000000000000000000000000000000000000000000815260040180806020018281038252601b8152602001807f526573756c7420537061636573206e65656420746f206265203220000000000081525060200191505060405180910390fd5b60006001905060006064905060006123208261231289513461486d90919063ffffffff16565b61486d90919063ffffffff16565b90506000811161237b576040517f08c379a0000000000000000000000000000000000000000000000000000000008152600401808060200182810382526023815260200180614bf36023913960400191505060405180910390fd5b60006004600060025481526020019081526020016000209050858160000190805190602001906123ac929190614ab1565b50868160030190805190602001906123c5929190614ab1565b5060008160040160006101000a81548160ff02191690831515021790555060008090505b885181101561251c576000826001016000878152602001908152602001600020905085816001018190555089828151811061242057fe5b60200260200101518160000181905550600081600201905061244c8b513461486d90919063ffffffff16565b81600001819055508481600101819055508a5181600201819055508581600301819055508581600401819055508581600501819055506000816007018190555060008160080181905550600081600a0181905550600081600b01819055506001870196508584600101600089815260200190815260200160002060020160060160003073ffffffffffffffffffffffffffffffffffffffff1673ffffffffffffffffffffffffffffffffffffffff16815260200190815260200160002081905550505080806001019150506123e9565b5060036002549080600181540180825580915050906001820390600052602060002001600090919290919091505550856040518082805190602001908083835b6020831061257f578051825260208201915060208101905060208303925061255c565b6001836020036101000a03801982511681845116808217855250505050505090500191505060405180910390206002547f8b7268e8dbd7df43241ab8ae5931d26060053d65b418b03db1e68394dcfcb4cd60405160405180910390a360016002540160028190555060019450505050509392505050565b600160149054906101000a900460ff1681565b60008060009054906101000a900473ffffffffffffffffffffffffffffffffffffffff1673ffffffffffffffffffffffffffffffffffffffff163373ffffffffffffffffffffffffffffffffffffffff16146126cd576040517f08c379a000000000000000000000000000000000000000000000000000000000815260040180806020018281038252600f8152602001807f48617320746f206265206f776e6572000000000000000000000000000000000081525060200191505060405180910390fd5b6126d6836133e3565b6126df57600080fd5b6000821180156126ef5750600382105b6126f857600080fd5b81600460008581526020019081526020016000206002018190555060016004600085815260200190815260200160002060040160006101000a81548160ff02191690831515021790555081837f64e412f8b311be0c82113c299c4caf4b603bab21860146dae45a259bdb7cd36760405160405180910390a392915050565b6000600115156004600084815260200190815260200160002060040160009054906101000a900460ff161515149050919050565b6000809054906101000a900473ffffffffffffffffffffffffffffffffffffffff1673ffffffffffffffffffffffffffffffffffffffff163373ffffffffffffffffffffffffffffffffffffffff161461286c576040517f08c379a000000000000000000000000000000000000000000000000000000000815260040180806020018281038252600f8152602001807f48617320746f206265206f776e6572000000000000000000000000000000000081525060200191505060405180910390fd5b600160149054906101000a900460ff16156128ef576040517f08c379a00000000000000000000000000000000000000000000000000000000081526004018080602001828103825260128152602001807f48617320746f20626520756e706175736564000000000000000000000000000081525060200191505060405180910390fd5b60018060146101000a81548160ff0219169083151502179055507f6985a02210a168e66602d3235cb6db0e70f92b3ba4d376a33c0f3d9434bff62560405160405180910390a1565b6000809054906101000a900473ffffffffffffffffffffffffffffffffffffffff1681565b6003818154811061296957fe5b906000526020600020016000915090505481565b6000806004600084815260200190815260200160002060010160006001815260200190815260200160002090506000600460008581526020019081526020016000206001016000600281526020019081526020016000209050600081600201600c0160003373ffffffffffffffffffffffffffffffffffffffff1673ffffffffffffffffffffffffffffffffffffffff1681526020019081526020016000205411612a90576040517f08c379a000000000000000000000000000000000000000000000000000000000815260040180806020018281038252601e8152602001807f4c69717569646974792068617320746f20626967676572207468616e2030000081525060200191505060405180910390fd5b600082600201600c0160003373ffffffffffffffffffffffffffffffffffffffff1673ffffffffffffffffffffffffffffffffffffffff1681526020019081526020016000205411612b4a576040517f08c379a000000000000000000000000000000000000000000000000000000000815260040180806020018281038252601e8152602001807f4c69717569646974792068617320746f20626967676572207468616e2030000081525060200191505060405180910390fd5b600080905060008090506000612bcd8460020160030154612bbf866002016000015487600201600c0160003373ffffffffffffffffffffffffffffffffffffffff1673ffffffffffffffffffffffffffffffffffffffff1681526020019081526020016000205461475f90919063ffffffff16565b61486d90919063ffffffff16565b90506000612c488660020160030154612c3a886002016000015489600201600c0160003373ffffffffffffffffffffffffffffffffffffffff1673ffffffffffffffffffffffffffffffffffffffff1681526020019081526020016000205461475f90919063ffffffff16565b61486d90919063ffffffff16565b9050612c648286600201600001546148b790919063ffffffff16565b8560020160000181905550612c898187600201600001546148b790919063ffffffff16565b8660020160000181905550612cf285600201600c0160003373ffffffffffffffffffffffffffffffffffffffff1673ffffffffffffffffffffffffffffffffffffffff1681526020019081526020016000205486600201600301546148b790919063ffffffff16565b8560020160030181905550612d5b86600201600c0160003373ffffffffffffffffffffffffffffffffffffffff1673ffffffffffffffffffffffffffffffffffffffff1681526020019081526020016000205487600201600301546148b790919063ffffffff16565b8660020160030181905550612dc485600201600c0160003373ffffffffffffffffffffffffffffffffffffffff1673ffffffffffffffffffffffffffffffffffffffff1681526020019081526020016000205486600201600401546148b790919063ffffffff16565b8560020160040181905550612e2d86600201600c0160003373ffffffffffffffffffffffffffffffffffffffff1673ffffffffffffffffffffffffffffffffffffffff1681526020019081526020016000205487600201600401546148b790919063ffffffff16565b8660020160040181905550600085600201600c0160003373ffffffffffffffffffffffffffffffffffffffff1673ffffffffffffffffffffffffffffffffffffffff16815260200190815260200160002081905550600086600201600c0160003373ffffffffffffffffffffffffffffffffffffffff1673ffffffffffffffffffffffffffffffffffffffff16815260200190815260200160002081905550612f2a85600201600c0160003373ffffffffffffffffffffffffffffffffffffffff1673ffffffffffffffffffffffffffffffffffffffff1681526020019081526020016000205486600201600b01546148b790919063ffffffff16565b85600201600b0181905550612f9386600201600c0160003373ffffffffffffffffffffffffffffffffffffffff1673ffffffffffffffffffffffffffffffffffffffff1681526020019081526020016000205487600201600b01546148b790919063ffffffff16565b86600201600b01819055506000612fe5612fbd88600201600101548461475f90919063ffffffff16565b612fd788600201600101548661475f90919063ffffffff16565b6147e590919063ffffffff16565b90503373ffffffffffffffffffffffffffffffffffffffff166108fc829081150290604051600060405180830381858888f1935050505015801561302d573d6000803e3d6000fd5b5050505050505050919050565b6000613045846133e3565b61304e57600080fd5b600082116130c4576040517f08c379a00000000000000000000000000000000000000000000000000000000081526004018080602001828103825260148152602001807f416d6f756e742068617320746f206265203e203000000000000000000000000081525060200191505060405180910390fd5b600060046000868152602001908152602001600020600101600085815260200190815260200160002090508060020160090160003373ffffffffffffffffffffffffffffffffffffffff1673ffffffffffffffffffffffffffffffffffffffff1681526020019081526020016000205483111561318c576040517f08c379a0000000000000000000000000000000000000000000000000000000008152600401808060200182810382526035815260200180614c876035913960400191505060405180910390fd5b60006131c182600201600801546131b384600201600701548761475f90919063ffffffff16565b61486d90919063ffffffff16565b90506000811161321c576040517f08c379a0000000000000000000000000000000000000000000000000000000008152600401808060200182810382526028815260200180614c5f6028913960400191505060405180910390fd5b613273848360020160090160003373ffffffffffffffffffffffffffffffffffffffff1673ffffffffffffffffffffffffffffffffffffffff168152602001908152602001600020546148b790919063ffffffff16565b8260020160090160003373ffffffffffffffffffffffffffffffffffffffff1673ffffffffffffffffffffffffffffffffffffffff168152602001908152602001600020819055506132d58183600201600701546148b790919063ffffffff16565b82600201600701819055506132fa8483600201600801546148b790919063ffffffff16565b826002016008018190555060006133218284600201600401546147e590919063ffffffff16565b90506000613358846002016004015461334a84876002016005015461475f90919063ffffffff16565b61486d90919063ffffffff16565b90506133748460020160050154826148b790919063ffffffff16565b8460020160060160003373ffffffffffffffffffffffffffffffffffffffff1673ffffffffffffffffffffffffffffffffffffffff1681526020019081526020016000208190555080846002016005018190555081846002016004018190555060019450505050509392505050565b60008015156004600084815260200190815260200160002060040160009054906101000a900460ff161515149050919050565b6000613420614b31565b600460008681526020019081526020016000206001016000858152602001908152602001600020604051806060016040529081600082015481526020016001820154815260200160028201604051806101400160405290816000820154815260200160018201548152602001600282015481526020016003820154815260200160048201548152602001600582015481526020016007820154815260200160088201548152602001600a8201548152602001600b8201548152505081525050905060006134fe8260400151602001518561475f90919063ffffffff16565b90506000613537836040015160600151613529848660400151600001516148b790919063ffffffff16565b61486d90919063ffffffff16565b905061355f8161355160648561475f90919063ffffffff16565b61486d90919063ffffffff16565b93505050509392505050565b600080600080600080600080600080613582614b31565b600460008e815260200190815260200160002060010160008d8152602001908152602001600020604051806060016040529081600082015481526020016001820154815260200160028201604051806101400160405290816000820154815260200160018201548152602001600282015481526020016003820154815260200160048201548152602001600582015481526020016007820154815260200160088201548152602001600a8201548152602001600b8201548152505081525050905080600001518160200151826040015160000151836040015160200151846040015160400151856040015160600151866040015160800151876040015160c0015188604001516101000151896040015161012001519a509a509a509a509a509a509a509a509a509a50509295989b9194979a5092959850565b60006136c6846133e3565b6136cf57600080fd5b60008211613745576040517f08c379a00000000000000000000000000000000000000000000000000000000081526004018080602001828103825260148152602001807f416d6f756e742068617320746f206265203e203000000000000000000000000081525060200191505060405180910390fd5b600060046000868152602001908152602001600020600101600085815260200190815260200160002090508060020160060160003373ffffffffffffffffffffffffffffffffffffffff1673ffffffffffffffffffffffffffffffffffffffff1681526020019081526020016000205483111561380d576040517f08c379a0000000000000000000000000000000000000000000000000000000008152600401808060200182810382526035815260200180614c876035913960400191505060405180910390fd5b6000613842826002016005015461383484600201600401548761475f90919063ffffffff16565b61486d90919063ffffffff16565b90506000811161389d576040517f08c379a0000000000000000000000000000000000000000000000000000000008152600401808060200182810382526028815260200180614c5f6028913960400191505060405180910390fd5b6138f4848360020160060160003373ffffffffffffffffffffffffffffffffffffffff1673ffffffffffffffffffffffffffffffffffffffff168152602001908152602001600020546148b790919063ffffffff16565b8260020160060160003373ffffffffffffffffffffffffffffffffffffffff1673ffffffffffffffffffffffffffffffffffffffff168152602001908152602001600020819055506139568183600201600401546148b790919063ffffffff16565b826002016004018190555061397b8483600201600501546148b790919063ffffffff16565b826002016005018190555060006139a28284600201600701546147e590919063ffffffff16565b905060006139d984600201600701546139cb84876002016008015461475f90919063ffffffff16565b61486d90919063ffffffff16565b90506139f58460020160080154826148b790919063ffffffff16565b8460020160090160003373ffffffffffffffffffffffffffffffffffffffff1673ffffffffffffffffffffffffffffffffffffffff1681526020019081526020016000208190555080846002016008018190555081846002016007018190555060019450505050509392505050565b600160009054906101000a900473ffffffffffffffffffffffffffffffffffffffff1681565b6000613a95846133e3565b613a9e57600080fd5b60008211613b14576040517f08c379a00000000000000000000000000000000000000000000000000000000081526004018080602001828103825260148152602001807f416d6f756e742068617320746f206265203e203000000000000000000000000081525060200191505060405180910390fd5b6000600460008681526020019081526020016000206001016000858152602001908152602001600020905060008160020160090160003373ffffffffffffffffffffffffffffffffffffffff1673ffffffffffffffffffffffffffffffffffffffff1681526020019081526020016000205411613bf9576040517f08c379a00000000000000000000000000000000000000000000000000000000081526004018080602001828103825260178152602001807f4e6f2042616c616e636520746f204c697175696461746500000000000000000081525060200191505060405180910390fd5b6000600190506001851415613c0d57600290505b600060046000888152602001908152602001600020600101600083815260200190815260200160002090506000613c6d8460020160080154613c5f86600201600701548961475f90919063ffffffff16565b61486d90919063ffffffff16565b90506000613c7c898984613fa2565b905060038110613cf4576040517f08c379a000000000000000000000000000000000000000000000000000000000815260040180806020018281038252601d8152602001807f536c69706167652068617320746f206265206c657373207468616e203300000081525060200191505060405180910390fd5b6000613d1086600201600101548461475f90919063ffffffff16565b9050613d69888760020160090160003373ffffffffffffffffffffffffffffffffffffffff1673ffffffffffffffffffffffffffffffffffffffff168152602001908152602001600020546148b790919063ffffffff16565b8660020160090160003373ffffffffffffffffffffffffffffffffffffffff1673ffffffffffffffffffffffffffffffffffffffff16815260200190815260200160002081905550613dcb8387600201600701546148b790919063ffffffff16565b8660020160070181905550613df08887600201600801546148b790919063ffffffff16565b8660020160080181905550613e158387600201600401546147e590919063ffffffff16565b8660020160040181905550613e3a8187600201600001546148b790919063ffffffff16565b8660020160000181905550613e668660020160000154856002016000015461486d90919063ffffffff16565b6001018660020160020181905550613e958460020160000154876002016000015461486d90919063ffffffff16565b6001018460020160020181905550613ec48660020160030154876002016000015461486d90919063ffffffff16565b8660020160010181905550613ef08460020160030154856002016000015461486d90919063ffffffff16565b84600201600101819055503373ffffffffffffffffffffffffffffffffffffffff166108fc829081150290604051600060405180830381858888f19350505050158015613f41573d6000803e3d6000fd5b503373ffffffffffffffffffffffffffffffffffffffff168a7f5510da23a90d54e35ddff683d35a6e64dd363c19c189b94ff402ffc99a8cc274836040518082815260200191505060405180910390a3600196505050505050509392505050565b6000613fac614b31565b600460008681526020019081526020016000206001016000858152602001908152602001600020604051806060016040529081600082015481526020016001820154815260200160028201604051806101400160405290816000820154815260200160018201548152602001600282015481526020016003820154815260200160048201548152602001600582015481526020016007820154815260200160088201548152602001600a8201548152602001600b82015481525050815250509050600061408a8260400151602001518561475f90919063ffffffff16565b905060006140c38360400151606001516140b5848660400151600001516148b790919063ffffffff16565b61486d90919063ffffffff16565b90506140eb826140dd60648461475f90919063ffffffff16565b61486d90919063ffffffff16565b93505050509392505050565b6000600160149054906101000a900460ff161561417c576040517f08c379a00000000000000000000000000000000000000000000000000000000081526004018080602001828103825260128152602001807f48617320746f20626520756e706175736564000000000000000000000000000081525060200191505060405180910390fd5b61418583612776565b6141f7576040517f08c379a00000000000000000000000000000000000000000000000000000000081526004018080602001828103825260168152602001807f4576656e742068617320746f20626520636c6f7365640000000000000000000081525060200191505060405180910390fd5b60006004600085815260200190815260200160002060010160008481526020019081526020016000209050826004600086815260200190815260200160002060020154146142ad576040517f08c379a000000000000000000000000000000000000000000000000000000000815260040180806020018281038252601e8152602001807f526573756c74205370616365206973206e6f74207468652077696e6e6572000081525060200191505060405180910390fd5b6000151581600f0160003373ffffffffffffffffffffffffffffffffffffffff1673ffffffffffffffffffffffffffffffffffffffff16815260200190815260200160002060009054906101000a900460ff16151514614375576040517f08c379a00000000000000000000000000000000000000000000000000000000081526004018080602001828103825260158152602001807f57696e6e696e6720616c72656164792074616b656e000000000000000000000081525060200191505060405180910390fd5b60006143ee82600201600501546143e084600201600401548560020160060160003373ffffffffffffffffffffffffffffffffffffffff1673ffffffffffffffffffffffffffffffffffffffff1681526020019081526020016000205461475f90919063ffffffff16565b61486d90919063ffffffff16565b90506000614469836002016008015461445b85600201600701548660020160090160003373ffffffffffffffffffffffffffffffffffffffff1673ffffffffffffffffffffffffffffffffffffffff1681526020019081526020016000205461475f90919063ffffffff16565b61486d90919063ffffffff16565b905060006144b284600201600201546144a4866002016001015461449687876147e590919063ffffffff16565b61475f90919063ffffffff16565b61475f90919063ffffffff16565b90503373ffffffffffffffffffffffffffffffffffffffff166108fc829081150290604051600060405180830381858888f193505050501580156144fa573d6000803e3d6000fd5b506001600460008981526020019081526020016000206001016000888152602001908152602001600020600f0160003373ffffffffffffffffffffffffffffffffffffffff1673ffffffffffffffffffffffffffffffffffffffff16815260200190815260200160002060006101000a81548160ff0219169083151502179055503373ffffffffffffffffffffffffffffffffffffffff16877fa62bf33e3860a18b08244c1b59b8aa4920be374252eb534e0ab47d5f7a18ca18836040518082815260200191505060405180910390a35050505092915050565b6000809054906101000a900473ffffffffffffffffffffffffffffffffffffffff1673ffffffffffffffffffffffffffffffffffffffff163373ffffffffffffffffffffffffffffffffffffffff1614614696576040517f08c379a000000000000000000000000000000000000000000000000000000000815260040180806020018281038252600f8152602001807f48617320746f206265206f776e6572000000000000000000000000000000000081525060200191505060405180910390fd5b8073ffffffffffffffffffffffffffffffffffffffff163373ffffffffffffffffffffffffffffffffffffffff16141561471b576040517f08c379a0000000000000000000000000000000000000000000000000000000008152600401808060200182810382526021815260200180614c3e6021913960400191505060405180910390fd5b80600160006101000a81548173ffffffffffffffffffffffffffffffffffffffff021916908373ffffffffffffffffffffffffffffffffffffffff16021790555050565b60008083141561477257600090506147df565b600082840290508284828161478357fe5b04146147da576040517f08c379a0000000000000000000000000000000000000000000000000000000008152600401808060200182810382526021815260200180614bd26021913960400191505060405180910390fd5b809150505b92915050565b600080828401905083811015614863576040517f08c379a000000000000000000000000000000000000000000000000000000000815260040180806020018281038252601b8152602001807f536166654d6174683a206164646974696f6e206f766572666c6f77000000000081525060200191505060405180910390fd5b8091505092915050565b60006148af83836040518060400160405280601a81526020017f536166654d6174683a206469766973696f6e206279207a65726f000000000000815250614901565b905092915050565b60006148f983836040518060400160405280601e81526020017f536166654d6174683a207375627472616374696f6e206f766572666c6f7700008152506149c7565b905092915050565b600080831182906149ad576040517f08c379a00000000000000000000000000000000000000000000000000000000081526004018080602001828103825283818151815260200191508051906020019080838360005b83811015614972578082015181840152602081019050614957565b50505050905090810190601f16801561499f5780820380516001836020036101000a031916815260200191505b509250505060405180910390fd5b5060008385816149b957fe5b049050809150509392505050565b6000838311158290614a74576040517f08c379a00000000000000000000000000000000000000000000000000000000081526004018080602001828103825283818151815260200191508051906020019080838360005b83811015614a39578082015181840152602081019050614a1e565b50505050905090810190601f168015614a665780820380516001836020036101000a031916815260200191505b509250505060405180910390fd5b5060008385039050809150509392505050565b60405180608001604052806060815260200160008152602001606081526020016000151581525090565b828054600181600116156101000203166002900490600052602060002090601f016020900481019282601f10614af257805160ff1916838001178555614b20565b82800160010185558215614b20579182015b82811115614b1f578251825591602001919060010190614b04565b5b509050614b2d9190614b59565b5090565b6040518061018001604052806000815260200160008152602001614b53614b7e565b81525090565b614b7b91905b80821115614b77576000816000905550600101614b5f565b5090565b90565b60405180610140016040528060008152602001600081526020016000815260200160008152602001600081526020016000815260200160008152602001600081526020016000815260200160008152509056fe536166654d6174683a206d756c7469706c69636174696f6e206f766572666c6f77496e697469616c204672616374696f6e20436f73742068617320746f206265203e203054782076616c75652068617320746f20626520657175616c20746f2070617961626c652073656e7448617320746f2062652064696666207468616e2063757272656e74206f776e65724672616374696f6e7320416d6f756e742068617320746f20626520626967676572207468616e20304672616374696f6e7320416d6f756e742052656c61746976652068617320746f206265203e2063757272656e742062616c616e6365a165627a7a72305820d72e4322ffacfb38d347de0005a73b2bc97d9ac7fc77e99c8549f0dd732af2d60029",
  "source": "pragma solidity ^0.5.8;\n\n/**\n * @dev Wrappers over Solidity's arithmetic operations with added overflow\n * checks.\n *\n * Arithmetic operations in Solidity wrap on overflow. This can easily result\n * in bugs, because programmers usually assume that an overflow raises an\n * error, which is the standard behavior in high level programming languages.\n * `SafeMath` restores this intuition by reverting the transaction when an\n * operation overflows.\n *\n * Using this library instead of the unchecked operations eliminates an entire\n * class of bugs, so it's recommended to use it always.\n */\nlibrary SafeMath {\n    /**\n     * @dev Returns the addition of two unsigned integers, reverting on\n     * overflow.\n     *\n     * Counterpart to Solidity's `+` operator.\n     *\n     * Requirements:\n     * - Addition cannot overflow.\n     */\n    function add(uint256 a, uint256 b) internal pure returns (uint256) {\n        uint256 c = a + b;\n        require(c >= a, \"SafeMath: addition overflow\");\n\n        return c;\n    }\n\n    /**\n     * @dev Returns the subtraction of two unsigned integers, reverting on\n     * overflow (when the result is negative).\n     *\n     * Counterpart to Solidity's `-` operator.\n     *\n     * Requirements:\n     * - Subtraction cannot overflow.\n     */\n    function sub(uint256 a, uint256 b) internal pure returns (uint256) {\n        return sub(a, b, \"SafeMath: subtraction overflow\");\n    }\n\n    /**\n     * @dev Returns the subtraction of two unsigned integers, reverting with custom message on\n     * overflow (when the result is negative).\n     *\n     * Counterpart to Solidity's `-` operator.\n     *\n     * Requirements:\n     * - Subtraction cannot overflow.\n     *\n     * _Available since v2.4.0._\n     */\n    function sub(uint256 a, uint256 b, string memory errorMessage) internal pure returns (uint256) {\n        require(b <= a, errorMessage);\n        uint256 c = a - b;\n\n        return c;\n    }\n\n    /**\n     * @dev Returns the multiplication of two unsigned integers, reverting on\n     * overflow.\n     *\n     * Counterpart to Solidity's `*` operator.\n     *\n     * Requirements:\n     * - Multiplication cannot overflow.\n     */\n    function mul(uint256 a, uint256 b) internal pure returns (uint256) {\n        // Gas optimization: this is cheaper than requiring 'a' not being zero, but the\n        // benefit is lost if 'b' is also tested.\n        // See: https://github.com/OpenZeppelin/openzeppelin-contracts/pull/522\n        if (a == 0) {\n            return 0;\n        }\n\n        uint256 c = a * b;\n        require(c / a == b, \"SafeMath: multiplication overflow\");\n\n        return c;\n    }\n\n    /**\n     * @dev Returns the integer division of two unsigned integers. Reverts on\n     * division by zero. The result is rounded towards zero.\n     *\n     * Counterpart to Solidity's `/` operator. Note: this function uses a\n     * `revert` opcode (which leaves remaining gas untouched) while Solidity\n     * uses an invalid opcode to revert (consuming all remaining gas).\n     *\n     * Requirements:\n     * - The divisor cannot be zero.\n     */\n    function div(uint256 a, uint256 b) internal pure returns (uint256) {\n        return div(a, b, \"SafeMath: division by zero\");\n    }\n\n    /**\n     * @dev Returns the integer division of two unsigned integers. Reverts with custom message on\n     * division by zero. The result is rounded towards zero.\n     *\n     * Counterpart to Solidity's `/` operator. Note: this function uses a\n     * `revert` opcode (which leaves remaining gas untouched) while Solidity\n     * uses an invalid opcode to revert (consuming all remaining gas).\n     *\n     * Requirements:\n     * - The divisor cannot be zero.\n     *\n     * _Available since v2.4.0._\n     */\n    function div(uint256 a, uint256 b, string memory errorMessage) internal pure returns (uint256) {\n        // Solidity only automatically asserts when dividing by 0\n        require(b > 0, errorMessage);\n        uint256 c = a / b;\n        // assert(a == b * c + a % b); // There is no case in which this doesn't hold\n\n        return c;\n    }\n\n    /**\n     * @dev Returns the remainder of dividing two unsigned integers. (unsigned integer modulo),\n     * Reverts when dividing by zero.\n     *\n     * Counterpart to Solidity's `%` operator. This function uses a `revert`\n     * opcode (which leaves remaining gas untouched) while Solidity uses an\n     * invalid opcode to revert (consuming all remaining gas).\n     *\n     * Requirements:\n     * - The divisor cannot be zero.\n     */\n    function mod(uint256 a, uint256 b) internal pure returns (uint256) {\n        return mod(a, b, \"SafeMath: modulo by zero\");\n    }\n\n    /**\n     * @dev Returns the remainder of dividing two unsigned integers. (unsigned integer modulo),\n     * Reverts with custom message when dividing by zero.\n     *\n     * Counterpart to Solidity's `%` operator. This function uses a `revert`\n     * opcode (which leaves remaining gas untouched) while Solidity uses an\n     * invalid opcode to revert (consuming all remaining gas).\n     *\n     * Requirements:\n     * - The divisor cannot be zero.\n     *\n     * _Available since v2.4.0._\n     */\n    function mod(uint256 a, uint256 b, string memory errorMessage) internal pure returns (uint256) {\n        require(b != 0, errorMessage);\n        return a % b;\n    }\n}\n\n// File: openzeppelin-solidity/contracts/ownership/Ownable.sol\n\n/**\n * @title Ownable\n * @dev The Ownable contract has an owner address, and provides basic authorization control\n * functions, this simplifies the implementation of \"user permissions\".\n */\ncontract Ownable {\n    address public owner;\n    address public proposedOwner;\n    event OwnershipTransferred(address indexed previousOwner, address indexed newOwner);\n\n\n    /**\n    * @dev The Ownable constructor sets the original `owner` of the contract to the sender\n    * account.\n    */\n    constructor() public {\n        owner = msg.sender;\n    }\n\n    /**\n    * @dev Throws if called by any account other than the owner.\n    */\n    modifier onlyOwner() {\n        require(msg.sender == owner, \"Has to be owner\");\n        _;\n    }\n\n    function transferOwnership(address _proposedOwner) public onlyOwner {\n        require(msg.sender != _proposedOwner, \"Has to be diff than current owner\");\n        proposedOwner = _proposedOwner;\n    }\n\n    function claimOwnership() public {\n        require(msg.sender == proposedOwner, \"Has to be the proposed owner\");\n        emit OwnershipTransferred(owner, proposedOwner);\n        owner = proposedOwner;\n        proposedOwner = address(0);\n    }\n}\n\n\n// File: openzeppelin-solidity/contracts/lifecycle/Pausable.sol\n\n/**\n * @title Pausable\n * @dev Base contract which allows children to implement an emergency stop mechanism.\n */\ncontract Pausable is Ownable {\n    event Pause();\n    event Unpause();\n\n    bool public paused = false;\n\n\n    /**\n    * @dev Modifier to make a function callable only when the contract is not paused.\n    */\n    modifier whenNotPaused() {\n        require(!paused, \"Has to be unpaused\");\n        _;\n    }\n\n    /**\n    * @dev Modifier to make a function callable only when the contract is paused.\n    */\n    modifier whenPaused() {\n        require(paused, \"Has to be paused\");\n        _;\n    }\n\n    /**\n    * @dev called by the owner to pause, triggers stopped state\n    */\n    function pause() onlyOwner whenNotPaused public {\n        paused = true;\n        emit Pause();\n    }\n\n    /**\n    * @dev called by the owner to unpause, returns to normal state\n    */\n    function unpause() onlyOwner whenPaused public {\n        paused = false;\n        emit Unpause();\n    }\n}\n\n\ncontract Exchange is Pausable {\n   \n    using SafeMath for uint256;\n\n    uint256 public eventId = 0;\n    uint256[] public eventIds;\n    mapping(uint256 => Event) public events;\n    mapping(address => uint256[]) public myEvents;\n\n \n    struct Fraction {\n        uint256 pool;           /* (Pool) Total pool amount (ETH in WEI) */\n        uint256 cost;           /* (VF) Fraction Cost (ETH in WEI) */\n        uint256 odd;            /* (Odd) Odd of Fraction (in 10**18) (ex : 2.41 = 2.41*10**18) */\n        /* IN + OUT */\n        uint256 amount;         /* (#F) Total amount of fractions (in 10**18)  */\n        /* IN */\n        uint256 inPool;                 /* (In) Total amount Absolute of fractions in pool (in 10**18) */\n        uint256 relIn;            /* (#In) Relative amount of fractions in pool (in 10**18) */\n        mapping(address => uint256) inPoolBalances;   /* (#In[]) Relative amount of fractions in pool per address (in 10**18)*/\n        /* OUT */\n        uint256 outPool;                 /* (Out) Total amount of fractions off pool (in 10**18) */\n        uint256 relOut;            /* (#Out) Relative amount of fractions off pool (in 10**18) */\n        mapping(address => uint256) outPoolBalances;   /* (#Out[])Relative amount of fractions off pool per address (in 10**18)*/\n        /* Fees */\n        uint256 fees;                       /* Absolute Amount of Fees available (in 10**18)  */\n        uint256 liqAmount;                      /* Absolute Amount of Fractions in liquidity */\n        mapping(address => uint256) liquidity;  /* Liquidity of Address - absolute values */\n        // TO DO : Use fees for something\n    }\n\n    struct ResultSpace {\n        uint256 id;                         /* Result Space External ID - IPFS Mapping*/\n        uint256 resultId;                   /* Result Space ID */\n        Fraction fraction;                  /* Amount of Fractions existent */\n        mapping(address => bool) tookWinnings; /* See if Winnings were taken */\n    }\n\n    struct Event {\n        string name; /* Event name */\n        mapping(uint256 => ResultSpace) resultSpaces;\n        uint256 result; /* result space id (when finalized) */\n        string urlOracle; /* URL that determines the result */\n        bool isResolved; /* If Resolved */\n    }    \n\n    event CreateEvent(uint256 indexed id, string indexed name);\n    event BuyEvent(uint256 indexed id, uint256 indexed resultSpaceId, uint256 fractionAmount, uint256 fractionCost, address indexed buyer);\n    event CloseEvent(uint256 indexed id, uint256 indexed resultSpaceId);\n    event WithdrawEvent(uint256 indexed id, uint256 winAmount, address indexed buyer);\n    event SellEvent(uint256 indexed id, uint256 liquidateAmount, address indexed sellet);\n\n\n    /**\n    * @dev Modifier to make a function callable only when the contract is not paused.\n    */\n    modifier whenFinalized() {\n        require(!paused, \"Has to be unpaused\");\n        _;\n    }\n\n    constructor() public {\n       \n    }\n\n    function isEventOpen(uint256 _eventId) public returns (bool success){\n        return (events[_eventId].isResolved == false);\n    }\n\n    function isEventClosed(uint256 _eventId) public returns (bool success){\n        return (events[_eventId].isResolved == true);\n    }\n\n    function createEvent(uint256[] memory _resultSpaceIds /* Descriptions */, string memory _urlOracle, string memory _eventName) payable public onlyOwner returns (bool success) {\n        require(_resultSpaceIds.length == 2, \"Result Spaces need to be 2 \"); \n        uint256 resultId = 1;\n        uint256 fractionAmount = 100; /* Per result Space */\n        uint256 initialFractionCost = msg.value.div(_resultSpaceIds.length).div(fractionAmount); /* Initial Amount */\n        require(initialFractionCost > 0, \"Initial Fraction Cost has to be > 0\"); /* Initial Fraction Cost has to be > 0 */\n\n        /* Create Event */\n        Event storage _event = events[eventId];\n        _event.name = _eventName;\n        _event.urlOracle = _urlOracle;\n        _event.isResolved = false;\n\n        /* Create the Result spaces */\n        for (uint i = 0; i < _resultSpaceIds.length; i++) {\n\n            ResultSpace storage resultSpace = _event.resultSpaces[resultId];\n\n            resultSpace.resultId = resultId;\n            resultSpace.id = _resultSpaceIds[i];\n\n            Fraction storage fraction = resultSpace.fraction;\n            fraction.pool = msg.value.div(_resultSpaceIds.length);\n            fraction.cost = initialFractionCost;\n            fraction.odd = _resultSpaceIds.length;\n            fraction.amount = fractionAmount;\n            fraction.inPool = fractionAmount;\n            fraction.relIn = fractionAmount;\n            fraction.outPool = 0;\n            fraction.relOut = 0;\n            fraction.fees = 0;\n            fraction.liqAmount = 0;\n\n            resultId = resultId + 1;\n            _event.resultSpaces[resultId].fraction.inPoolBalances[address(this)] = fractionAmount;\n        }\n\n        eventIds.push(eventId);\n        emit CreateEvent(eventId, _eventName);\n        eventId = eventId + 1;\n        return true;\n    }\n\n    function addLiquidity(uint256 _eventId) payable public returns (bool success) {\n        require(isEventOpen(_eventId));\n        require(msg.value > 0, \"Amount has to be > 0\");\n\n        ResultSpace storage resultSpace_opp = events[_eventId].resultSpaces[1];\n        ResultSpace storage resultSpace = events[_eventId].resultSpaces[2];\n\n        uint256 poolA2 = 0;\n        uint256 poolB2 = 0;\n        uint256 FA2 = 0;\n        uint256 FB2 = 0;\n        uint256 ratio = 50; /* 50% */ // resultSpace_opp.fraction.pool.div(resultSpace.fraction.pool)\n\n        /* Pool A2 */\n        poolA2 = resultSpace.fraction.pool.add(msg.value.mul(ratio).div(100));\n        /* Pool B2 */\n        poolB2 = resultSpace_opp.fraction.pool.add(msg.value.mul(ratio).div(100));\n\n        /* FA2 */\n        FA2 = (poolA2.mul(resultSpace.fraction.amount)).div(resultSpace.fraction.pool);\n        /* FB2 */\n        FB2 = (poolB2.mul(resultSpace_opp.fraction.amount)).div(resultSpace_opp.fraction.pool);\n\n        resultSpace.fraction.pool = poolA2;\n        resultSpace_opp.fraction.pool = poolB2;\n\n        uint256 fractionsToAddA = FA2.sub(resultSpace.fraction.amount);\n        uint256 fractionsToAddB = FB2.sub(resultSpace_opp.fraction.amount);\n\n        /* INA2 */\n        resultSpace.fraction.inPool = resultSpace.fraction.inPool.add(fractionsToAddA);\n        /* INB2 */\n        resultSpace_opp.fraction.inPool = resultSpace_opp.fraction.inPool.add(fractionsToAddB);\n\n        /* LiqA[]2 */\n        resultSpace.fraction.liquidity[msg.sender] = resultSpace.fraction.liquidity[msg.sender].add(fractionsToAddA);\n        /* LiqB[]2 */\n        resultSpace_opp.fraction.liquidity[msg.sender] = resultSpace_opp.fraction.liquidity[msg.sender].add(fractionsToAddB);\n\n        resultSpace.fraction.amount = FA2;\n        resultSpace_opp.fraction.amount = FB2;\n\n        /* Add Liquidity Amount */\n        resultSpace.fraction.liqAmount = resultSpace.fraction.liqAmount.add(fractionsToAddA);\n        resultSpace_opp.fraction.liqAmount = resultSpace.fraction.liqAmount.add(fractionsToAddB);\n        \n        myEvents[msg.sender].push(_eventId);\n    }\n\n    function removeLiquidity(uint256 _eventId) public returns (bool success) {\n\n        ResultSpace storage resultSpace_opp = events[_eventId].resultSpaces[1];\n        ResultSpace storage resultSpace = events[_eventId].resultSpaces[2];\n        \n        require(resultSpace.fraction.liquidity[msg.sender] > 0, \"Liquidity has to bigger than 0\");\n        require(resultSpace_opp.fraction.liquidity[msg.sender] > 0, \"Liquidity has to bigger than 0\");\n\n        uint256 poolA2 = 0;\n        uint256 poolB2 = 0;\n\n        uint256 liqPoolAfromUser = resultSpace.fraction.liquidity[msg.sender].mul(resultSpace.fraction.pool).div(resultSpace.fraction.amount);\n        uint256 liqPoolBfromUser = resultSpace_opp.fraction.liquidity[msg.sender].mul(resultSpace_opp.fraction.pool).div(resultSpace_opp.fraction.amount);\n        \n        /* Pool A2 */\n        resultSpace.fraction.pool = resultSpace.fraction.pool.sub(liqPoolAfromUser);\n        /* Pool B2 */\n        resultSpace_opp.fraction.pool = resultSpace_opp.fraction.pool.sub(liqPoolBfromUser);\n\n        /* FA2 */\n        resultSpace.fraction.amount = resultSpace.fraction.amount.sub(resultSpace.fraction.liquidity[msg.sender]);\n        /* FB2 */\n        resultSpace_opp.fraction.amount = resultSpace_opp.fraction.amount.sub(resultSpace_opp.fraction.liquidity[msg.sender]);\n\n        /* INA2 */\n        resultSpace.fraction.inPool = resultSpace.fraction.inPool.sub(resultSpace.fraction.liquidity[msg.sender]);\n        /* INB2 */\n        resultSpace_opp.fraction.inPool = resultSpace_opp.fraction.inPool.sub(resultSpace_opp.fraction.liquidity[msg.sender]);\n\n        /* LiqA[]2 */\n        resultSpace.fraction.liquidity[msg.sender] = 0;\n        /* LiqB[]2 */\n        resultSpace_opp.fraction.liquidity[msg.sender] = 0;\n\n        /* Remove Liquidity Amount */\n        resultSpace.fraction.liqAmount = resultSpace.fraction.liqAmount.sub(resultSpace.fraction.liquidity[msg.sender]);\n        resultSpace_opp.fraction.liqAmount = resultSpace_opp.fraction.liqAmount.sub(resultSpace_opp.fraction.liquidity[msg.sender]);\n\n        uint256 totalLiquidity = liqPoolAfromUser.mul(resultSpace.fraction.cost).add(liqPoolBfromUser.mul(resultSpace_opp.fraction.cost));\n        /* Remove Liquidity */\n        msg.sender.transfer(totalLiquidity);\n    }\n\n    function buy(uint256 _eventId, uint256 _resultSpaceId, uint256 _fractionsAmount) payable public returns (bool success) {\n        require(isEventOpen(_eventId));\n        require(_fractionsAmount > 0, \"Amount has to be > 0\");\n\n        uint256 _oppResSpaceId = 1;\n        if(_resultSpaceId == 1){_oppResSpaceId = 2;}\n\n        ResultSpace storage resultSpace_opp = events[_eventId].resultSpaces[_oppResSpaceId];\n        ResultSpace storage resultSpace = events[_eventId].resultSpaces[_resultSpaceId];\n\n        uint256 marketValue = _fractionsAmount.mul(resultSpace.fraction.cost);\n        uint256 fractionCost = resultSpace.fraction.cost;\n\n        uint256 slipage = getSlipageOnBuy(_eventId, _resultSpaceId, _fractionsAmount);\n        require(slipage < 3, \"Slipage has to be less than 3\");\n\n        require(msg.value == marketValue, \"Tx value has to be equal to payable sent\"); \n\n        /* Pool A2 */\n        resultSpace.fraction.pool = resultSpace.fraction.pool.add(marketValue);\n        /* Odd A2 */\n        resultSpace.fraction.odd = 1 + (resultSpace_opp.fraction.pool.div(resultSpace.fraction.pool));\n        /* Odd B2 */\n        resultSpace_opp.fraction.odd = 1 + (resultSpace.fraction.pool.div(resultSpace_opp.fraction.pool));\n        /* VF A2 */\n        resultSpace.fraction.cost = resultSpace.fraction.pool.div(resultSpace.fraction.amount);\n        /* VF B2 */\n        resultSpace_opp.fraction.cost = resultSpace_opp.fraction.pool.div(resultSpace_opp.fraction.amount);\n        /* #In A2 */\n        uint256 relIn2 = _fractionsAmount;\n        if(resultSpace.fraction.relIn > 0){\n            relIn2 = resultSpace.fraction.relIn.div(1 - (fractionCost.div(resultSpace.fraction.relIn)));\n        }\n        /* #In[] A2 */\n        resultSpace.fraction.inPoolBalances[msg.sender] = relIn2.sub(resultSpace.fraction.relIn);\n        resultSpace.fraction.relIn = relIn2;\n        myEvents[msg.sender].push(_eventId);\n        emit BuyEvent(_eventId, _resultSpaceId, _fractionsAmount, fractionCost, msg.sender);\n        return true;\n    }\n\n    function sell(uint256 _eventId, uint256 _resultSpaceId, uint256 _fractionsAmountRelative /* #FT */) public returns (bool success) {\n        require(isEventOpen(_eventId));\n        require(_fractionsAmountRelative > 0, \"Amount has to be > 0\");\n        \n        ResultSpace storage resultSpace = events[_eventId].resultSpaces[_resultSpaceId];\n        require(resultSpace.fraction.outPoolBalances[msg.sender] > 0, \"No Balance to Liquidate\");\n        uint256 _oppResSpaceId = 1;\n        if(_resultSpaceId == 1){_oppResSpaceId = 2;}\n        ResultSpace storage resultSpace_opp = events[_eventId].resultSpaces[_oppResSpaceId];\n\n        uint256 fractionsAmount = (_fractionsAmountRelative.mul(resultSpace.fraction.outPool)).div(resultSpace.fraction.relOut);\n        uint256 slipage = getSlipageOnSell(_eventId, _resultSpaceId, fractionsAmount);\n        require(slipage < 3, \"Slipage has to be less than 3\");\n\n        uint256 marketValue = fractionsAmount.mul(resultSpace.fraction.cost);\n\n        /* #Out[] A2 */\n        resultSpace.fraction.outPoolBalances[msg.sender] = resultSpace.fraction.outPoolBalances[msg.sender].sub(_fractionsAmountRelative);\n        /* Out A2 */\n        resultSpace.fraction.outPool = resultSpace.fraction.outPool.sub(fractionsAmount);\n        /* #Out A2 */\n        resultSpace.fraction.relOut = resultSpace.fraction.relOut.sub(_fractionsAmountRelative);\n        /* In A2 */\n        resultSpace.fraction.inPool = resultSpace.fraction.inPool.add(fractionsAmount);\n        /* Pool A2 */\n        resultSpace.fraction.pool = resultSpace.fraction.pool.sub(marketValue);\n        /* Odd A2 */\n        resultSpace.fraction.odd = 1 + (resultSpace_opp.fraction.pool.div(resultSpace.fraction.pool));\n        /* Odd B2 */\n        resultSpace_opp.fraction.odd = 1 + (resultSpace.fraction.pool.div(resultSpace_opp.fraction.pool));\n        /* VF A2 */\n        resultSpace.fraction.cost = resultSpace.fraction.pool.div(resultSpace.fraction.amount);\n        /* VF B2 */\n        resultSpace_opp.fraction.cost = resultSpace_opp.fraction.pool.div(resultSpace_opp.fraction.amount);\n      \n        /* Liquidate the pool capital to the seller */\n        msg.sender.transfer(marketValue);\n\n        /* Winnings taken */\n        emit SellEvent(_eventId, marketValue, msg.sender);\n        return true;\n    }\n\n    function getSlipageOnSell(uint256 _eventId, uint256 _resultSpaceId, uint256 _fractionsAmount) view public returns (uint256 slipage) {\n        ResultSpace memory resultSpace = events[_eventId].resultSpaces[_resultSpaceId];\n        uint256 marketValue = _fractionsAmount.mul(resultSpace.fraction.cost);\n        uint256 newValue = (resultSpace.fraction.pool.sub(marketValue)).div(resultSpace.fraction.amount);\n        return newValue.mul(100).div(marketValue);\n    }\n\n    function getSlipageOnBuy(uint256 _eventId, uint256 _resultSpaceId, uint256 _fractionsAmount) view public returns (uint256 slipage) {\n        ResultSpace memory resultSpace = events[_eventId].resultSpaces[_resultSpaceId];\n        uint256 marketValue = _fractionsAmount.mul(resultSpace.fraction.cost);\n        uint256 newValue = (resultSpace.fraction.pool.sub(marketValue)).div(resultSpace.fraction.amount);\n        return marketValue.mul(100).div(newValue);\n    }\n\n    function pullFractions(uint256 _eventId, uint256 _resultSpaceId, uint256 _fractionsAmountRelative /* #FT */) public returns (bool success) {\n        require(isEventOpen(_eventId));\n        require(_fractionsAmountRelative > 0, \"Amount has to be > 0\");\n\n        ResultSpace storage resultSpace = events[_eventId].resultSpaces[_resultSpaceId];\n        require(_fractionsAmountRelative <= resultSpace.fraction.inPoolBalances[msg.sender], \"Fractions Amount Relative has to be > current balance\");\n\n        /* FT */\n        uint256 fractionsAmount = (_fractionsAmountRelative.mul(resultSpace.fraction.inPool)).div(resultSpace.fraction.relIn);\n        require(fractionsAmount > 0, \"Fractions Amount has to be bigger than 0\");\n        /* #In[] A2 */\n        resultSpace.fraction.inPoolBalances[msg.sender] = resultSpace.fraction.inPoolBalances[msg.sender].sub(_fractionsAmountRelative);\n        /* In A2 */\n        resultSpace.fraction.inPool = resultSpace.fraction.inPool.sub(fractionsAmount);\n        /* #In A2 */\n        resultSpace.fraction.relIn = resultSpace.fraction.relIn.sub(_fractionsAmountRelative);\n\n        uint256 out2 = resultSpace.fraction.outPool.add(fractionsAmount);\n        uint256 relOut2 = (resultSpace.fraction.relOut.mul(out2)).div(resultSpace.fraction.outPool);\n\n        /* #Out[] A2 */\n        resultSpace.fraction.outPoolBalances[msg.sender] = relOut2.sub(resultSpace.fraction.relOut);\n        /* #Out A2 */\n        resultSpace.fraction.relOut = relOut2;\n        /* Out A2 */\n        resultSpace.fraction.outPool = out2;\n\n        return true;\n    }\n\n    function pushFractions(uint256 _eventId, uint256 _resultSpaceId, uint256 _fractionsAmountRelative /* #FT */) public returns (bool success) {\n        require(isEventOpen(_eventId));\n        require(_fractionsAmountRelative > 0, \"Amount has to be > 0\");\n\n        ResultSpace storage resultSpace = events[_eventId].resultSpaces[_resultSpaceId];\n        require(_fractionsAmountRelative <= resultSpace.fraction.outPoolBalances[msg.sender], \"Fractions Amount Relative has to be > current balance\");\n\n        /* FT */\n        uint256 fractionsAmount = (_fractionsAmountRelative.mul(resultSpace.fraction.outPool)).div(resultSpace.fraction.relOut);\n        require(fractionsAmount > 0, \"Fractions Amount has to be bigger than 0\");\n        /* #Out[] A2 */\n        resultSpace.fraction.outPoolBalances[msg.sender] = resultSpace.fraction.outPoolBalances[msg.sender].sub(_fractionsAmountRelative);\n        /* Out A2 */\n        resultSpace.fraction.outPool = resultSpace.fraction.outPool.sub(fractionsAmount);\n        /* #Out A2 */\n        resultSpace.fraction.relOut = resultSpace.fraction.relOut.sub(_fractionsAmountRelative);\n\n        uint256 in2 = resultSpace.fraction.inPool.add(fractionsAmount);\n        uint256 relIn2 = (resultSpace.fraction.relIn.mul(in2)).div(resultSpace.fraction.inPool);\n\n        /* #Int[] A2 */\n        resultSpace.fraction.inPoolBalances[msg.sender] = relIn2.sub(resultSpace.fraction.relIn);\n        /* #In A2 */\n        resultSpace.fraction.relIn = relIn2;\n        /* In A2 */\n        resultSpace.fraction.inPool = in2;\n\n        return true;\n    }\n\n    /* Event Resolution */\n    function resolveEvent(uint256 _eventId, uint256 _resultId) public onlyOwner returns (bool success) {\n        require(isEventOpen(_eventId));\n        /* Confirm it exists */\n        require((_resultId > 0) && (_resultId < 3));\n        /* Set the result */\n        events[_eventId].result = _resultId;\n        /* Close Event */\n        events[_eventId].isResolved = true;\n        emit CloseEvent(_eventId, _resultId);\n    }\n\n    function withdrawWins(uint256 _eventId, uint256 _resultSpaceId) public whenFinalized returns (bool success) {\n\n        require(isEventClosed(_eventId), \"Event has to be closed\");\n        ResultSpace storage resultSpace = events[_eventId].resultSpaces[_resultSpaceId];\n        require(events[_eventId].result == _resultSpaceId, \"Result Space is not the winner\");\n        require(resultSpace.tookWinnings[msg.sender] == false, \"Winning already taken\");\n\n        /* Get Win Amount */\n        uint256 absoluteFractionsIn = (resultSpace.fraction.inPoolBalances[msg.sender].mul(resultSpace.fraction.inPool)).div(resultSpace.fraction.relIn);\n        uint256 absoluteFractionsOut = (resultSpace.fraction.outPoolBalances[msg.sender].mul(resultSpace.fraction.outPool)).div(resultSpace.fraction.relOut);\n        uint256 winningAmount = (absoluteFractionsOut.add(absoluteFractionsIn)).mul(resultSpace.fraction.cost).mul(resultSpace.fraction.odd);\n\n        /* Send Winnings */\n        msg.sender.transfer(winningAmount);\n\n        /* Winnings taken */\n        events[_eventId].resultSpaces[_resultSpaceId].tookWinnings[msg.sender] = true;\n        emit WithdrawEvent(_eventId, winningAmount, msg.sender);\n    }\n\n    /* Get All Events */\n    function getEvents() view public returns (uint256[] memory event_ids) {\n        return eventIds;\n    }\n\n    /* Get Event Date */\n    function getEventData(uint256 _eventId) view public returns (string memory, uint256, string memory, bool) {\n        Event memory _event = events[_eventId];\n        /* Return Event Data */\n        return (_event.name, _event.result, _event.urlOracle, _event.isResolved);\n    }\n\n    /* Get Result Space Date */\n    function getResultSpaceData(uint256 _eventId, uint256 resultSpace_id) view public returns (\n        uint256 _id, uint256 _resultId, uint256 _pool, uint256 _cost, uint256 _odd, \n        uint256 _amount, uint256 _in, uint256 _out, uint256 _fees, uint256 _liqAmount\n    ) {\n        ResultSpace memory resultSpace = events[_eventId].resultSpaces[resultSpace_id];\n\n        return (resultSpace.id, resultSpace.resultId, resultSpace.fraction.pool, resultSpace.fraction.cost,\n        resultSpace.fraction.odd, resultSpace.fraction.amount, resultSpace.fraction.inPool, resultSpace.fraction.outPool,\n        resultSpace.fraction.fees, resultSpace.fraction.liqAmount);\n    }\n\n    /* Get Portfolio of My events based on address */\n    function getMyEvents() view public returns (uint256[] memory){\n        return myEvents[msg.sender];\n    }\n\n    /* Get Portfolio of My Holdings/Liquidity on Event Data based on address (IN / OUT / Liquidity for each type) */\n    function getMyEventHoldings(uint256 _eventId) view public returns (uint256, uint256, uint256, uint256, uint256, uint256){\n        /* TO DO */\n        ResultSpace storage resultSpace = events[_eventId].resultSpaces[1];\n        ResultSpace storage resultSpace_opp = events[_eventId].resultSpaces[2];\n\n        return (\n            resultSpace.fraction.inPoolBalances[msg.sender], resultSpace.fraction.outPoolBalances[msg.sender], resultSpace.fraction.liquidity[msg.sender],\n            resultSpace_opp.fraction.inPoolBalances[msg.sender], resultSpace_opp.fraction.outPoolBalances[msg.sender], resultSpace_opp.fraction.liquidity[msg.sender]\n            );\n    }\n\n}",
  "sourcePath": "/Users/ruipedro/Desktop/projects/Staking/erc20/contracts/BettingExchange.sol",
  "compiler": {
    "name": "solc",
    "version": "0.5.8+commit.23d335f2.Emscripten.clang"
  },
  "schemaVersion": "3.0.20",
  "updatedAt": "2020-12-20T20:58:01.860Z",
  "devdoc": {
    "methods": {
      "pause()": {
        "details": "called by the owner to pause, triggers stopped state"
      },
      "unpause()": {
        "details": "called by the owner to unpause, returns to normal state"
      }
    }
  },
  "userdoc": {
    "methods": {}
  }
}