{
    "contractName": "StakingContract",
    "abi": [
        {
            "constant": false,
            "inputs": [],
            "name": "unpause",
            "outputs": [],
            "payable": false,
            "stateMutability": "nonpayable",
            "type": "function"
        },
        {
            "constant": true,
            "inputs": [],
            "name": "paused",
            "outputs": [
                {
                    "name": "",
                    "type": "bool"
                }
            ],
            "payable": false,
            "stateMutability": "view",
            "type": "function"
        },
        {
            "constant": true,
            "inputs": [],
            "name": "erc20",
            "outputs": [
                {
                    "name": "",
                    "type": "address"
                }
            ],
            "payable": false,
            "stateMutability": "view",
            "type": "function"
        },
        {
            "constant": true,
            "inputs": [
                {
                    "name": "",
                    "type": "uint256"
                }
            ],
            "name": "products",
            "outputs": [
                {
                    "name": "createdAt",
                    "type": "uint256"
                },
                {
                    "name": "startDate",
                    "type": "uint256"
                },
                {
                    "name": "endDate",
                    "type": "uint256"
                },
                {
                    "name": "totalMaxAmount",
                    "type": "uint256"
                },
                {
                    "name": "individualMinimumAmount",
                    "type": "uint256"
                },
                {
                    "name": "APR",
                    "type": "uint256"
                },
                {
                    "name": "currentAmount",
                    "type": "uint256"
                },
                {
                    "name": "lockedUntilFinalization",
                    "type": "bool"
                }
            ],
            "payable": false,
            "stateMutability": "view",
            "type": "function"
        },
        {
            "constant": false,
            "inputs": [],
            "name": "pause",
            "outputs": [],
            "payable": false,
            "stateMutability": "nonpayable",
            "type": "function"
        },
        {
            "constant": true,
            "inputs": [],
            "name": "owner",
            "outputs": [
                {
                    "name": "",
                    "type": "address"
                }
            ],
            "payable": false,
            "stateMutability": "view",
            "type": "function"
        },
        {
            "constant": true,
            "inputs": [
                {
                    "name": "",
                    "type": "address"
                },
                {
                    "name": "",
                    "type": "uint256"
                }
            ],
            "name": "mySubscriptions",
            "outputs": [
                {
                    "name": "",
                    "type": "uint256"
                }
            ],
            "payable": false,
            "stateMutability": "view",
            "type": "function"
        },
        {
            "constant": true,
            "inputs": [
                {
                    "name": "",
                    "type": "uint256"
                }
            ],
            "name": "productIds",
            "outputs": [
                {
                    "name": "",
                    "type": "uint256"
                }
            ],
            "payable": false,
            "stateMutability": "view",
            "type": "function"
        },
        {
            "constant": false,
            "inputs": [
                {
                    "name": "newOwner",
                    "type": "address"
                }
            ],
            "name": "transferOwnership",
            "outputs": [],
            "payable": false,
            "stateMutability": "nonpayable",
            "type": "function"
        },
        {
            "inputs": [
                {
                    "name": "_tokenAddress",
                    "type": "address"
                }
            ],
            "payable": false,
            "stateMutability": "nonpayable",
            "type": "constructor"
        },
        {
            "anonymous": false,
            "inputs": [],
            "name": "Pause",
            "type": "event"
        },
        {
            "anonymous": false,
            "inputs": [],
            "name": "Unpause",
            "type": "event"
        },
        {
            "anonymous": false,
            "inputs": [
                {
                    "indexed": true,
                    "name": "previousOwner",
                    "type": "address"
                },
                {
                    "indexed": true,
                    "name": "newOwner",
                    "type": "address"
                }
            ],
            "name": "OwnershipTransferred",
            "type": "event"
        },
        {
            "constant": true,
            "inputs": [],
            "name": "heldTokens",
            "outputs": [
                {
                    "name": "",
                    "type": "uint256"
                }
            ],
            "payable": false,
            "stateMutability": "view",
            "type": "function"
        },
        {
            "constant": true,
            "inputs": [],
            "name": "futureLockedTokens",
            "outputs": [
                {
                    "name": "",
                    "type": "uint256"
                }
            ],
            "payable": false,
            "stateMutability": "view",
            "type": "function"
        },
        {
            "constant": true,
            "inputs": [],
            "name": "availableTokens",
            "outputs": [
                {
                    "name": "",
                    "type": "uint256"
                }
            ],
            "payable": false,
            "stateMutability": "view",
            "type": "function"
        },
        {
            "constant": false,
            "inputs": [
                {
                    "name": "_product_id",
                    "type": "uint256"
                },
                {
                    "name": "_amount",
                    "type": "uint256"
                }
            ],
            "name": "subscribeProduct",
            "outputs": [],
            "payable": false,
            "stateMutability": "nonpayable",
            "type": "function"
        },
        {
            "constant": false,
            "inputs": [
                {
                    "name": "_startDate",
                    "type": "uint256"
                },
                {
                    "name": "_endDate",
                    "type": "uint256"
                },
                {
                    "name": "_totalMaxAmount",
                    "type": "uint256"
                },
                {
                    "name": "_individualMinimumAmount",
                    "type": "uint256"
                },
                {
                    "name": "_APR",
                    "type": "uint256"
                },
                {
                    "name": "_lockedUntilFinalization",
                    "type": "bool"
                }
            ],
            "name": "createProduct",
            "outputs": [],
            "payable": false,
            "stateMutability": "nonpayable",
            "type": "function"
        },
        {
            "constant": true,
            "inputs": [
                {
                    "name": "_APR",
                    "type": "uint256"
                },
                {
                    "name": "_startDate",
                    "type": "uint256"
                },
                {
                    "name": "_endDate",
                    "type": "uint256"
                },
                {
                    "name": "_amount",
                    "type": "uint256"
                }
            ],
            "name": "getAPRAmount",
            "outputs": [
                {
                    "name": "",
                    "type": "uint256"
                }
            ],
            "payable": false,
            "stateMutability": "pure",
            "type": "function"
        },
        {
            "constant": true,
            "inputs": [],
            "name": "getProductIds",
            "outputs": [
                {
                    "name": "",
                    "type": "uint256[]"
                }
            ],
            "payable": false,
            "stateMutability": "view",
            "type": "function"
        },
        {
            "constant": true,
            "inputs": [
                {
                    "name": "_address",
                    "type": "address"
                }
            ],
            "name": "getMySubscriptions",
            "outputs": [
                {
                    "name": "",
                    "type": "uint256[]"
                }
            ],
            "payable": false,
            "stateMutability": "view",
            "type": "function"
        },
        {
            "constant": false,
            "inputs": [
                {
                    "name": "_product_id",
                    "type": "uint256"
                },
                {
                    "name": "_subscription_id",
                    "type": "uint256"
                }
            ],
            "name": "withdrawSubscription",
            "outputs": [],
            "payable": false,
            "stateMutability": "nonpayable",
            "type": "function"
        },
        {
            "constant": true,
            "inputs": [
                {
                    "name": "_subscription_id",
                    "type": "uint256"
                },
                {
                    "name": "_product_id",
                    "type": "uint256"
                }
            ],
            "name": "getSubscription",
            "outputs": [
                {
                    "name": "",
                    "type": "uint256"
                },
                {
                    "name": "",
                    "type": "uint256"
                },
                {
                    "name": "",
                    "type": "uint256"
                },
                {
                    "name": "",
                    "type": "uint256"
                },
                {
                    "name": "",
                    "type": "uint256"
                },
                {
                    "name": "",
                    "type": "address"
                },
                {
                    "name": "",
                    "type": "uint256"
                },
                {
                    "name": "",
                    "type": "bool"
                }
            ],
            "payable": false,
            "stateMutability": "view",
            "type": "function"
        },
        {
            "constant": true,
            "inputs": [
                {
                    "name": "_product_id",
                    "type": "uint256"
                }
            ],
            "name": "getProduct",
            "outputs": [
                {
                    "name": "",
                    "type": "uint256"
                },
                {
                    "name": "",
                    "type": "uint256"
                },
                {
                    "name": "",
                    "type": "uint256"
                },
                {
                    "name": "",
                    "type": "uint256"
                },
                {
                    "name": "",
                    "type": "uint256"
                },
                {
                    "name": "",
                    "type": "uint256"
                },
                {
                    "name": "",
                    "type": "uint256"
                },
                {
                    "name": "",
                    "type": "bool"
                },
                {
                    "name": "",
                    "type": "address[]"
                },
                {
                    "name": "",
                    "type": "uint256[]"
                }
            ],
            "payable": false,
            "stateMutability": "view",
            "type": "function"
        },
        {
            "constant": false,
            "inputs": [
                {
                    "name": "_address",
                    "type": "address"
                }
            ],
            "name": "safeGuardAllTokens",
            "outputs": [],
            "payable": false,
            "stateMutability": "nonpayable",
            "type": "function"
        },
        {
            "constant": false,
            "inputs": [
                {
                    "name": "_tokenAddress",
                    "type": "address"
                }
            ],
            "name": "changeTokenAddress",
            "outputs": [],
            "payable": false,
            "stateMutability": "nonpayable",
            "type": "function"
        }
    ],
    "bytecode": "0x608060405260008060146101000a81548160ff0219169083151502179055506000600455600060055534801561003457600080fd5b5060405160208061267e8339810180604052602081101561005457600080fd5b8101908080519060200190929190505050336000806101000a81548173ffffffffffffffffffffffffffffffffffffffff021916908373ffffffffffffffffffffffffffffffffffffffff16021790555080600660006101000a81548173ffffffffffffffffffffffffffffffffffffffff021916908373ffffffffffffffffffffffffffffffffffffffff16021790555050612588806100f66000396000f3fe608060405234801561001057600080fd5b50600436106101425760003560e01c80637acc0b20116100b8578063b6ee04fa1161007c578063b6ee04fa146105b9578063b90c72ae1461061b578063b9db15b41461065f578063c9cda91f14610766578063cb51bba9146107aa578063f2fde38b146107ec57610142565b80637acc0b20146103e15780637e6288f1146104585780638456cb59146104b85780638da5cb5b146104c2578063a461efb91461050c57610142565b806347428e7b1161010a57806347428e7b146102bc5780635c975abb1461031b57806369bb4dc21461033d5780636ede83321461035b57806376f7ca6e14610379578063785e9e861461039757610142565b80630ea52b6c14610147578063130d89451461017f57806321090380146102185780632c6131cb146102505780633f4ba83a146102b2575b600080fd5b61017d6004803603604081101561015d57600080fd5b810190808035906020019092919080359060200190929190505050610830565b005b6101c16004803603602081101561019557600080fd5b81019080803573ffffffffffffffffffffffffffffffffffffffff169060200190929190505050610c55565b6040518080602001828103825283818151815260200191508051906020019060200280838360005b838110156102045780820151818401526020810190506101e9565b505050509050019250505060405180910390f35b61024e6004803603604081101561022e57600080fd5b810190808035906020019092919080359060200190929190505050610cec565b005b6102b0600480360360c081101561026657600080fd5b810190808035906020019092919080359060200190929190803590602001909291908035906020019092919080359060200190929190803515159060200190929190505050611222565b005b6102ba611441565b005b6102c46114fb565b6040518080602001828103825283818151815260200191508051906020019060200280838360005b838110156103075780820151818401526020810190506102ec565b505050509050019250505060405180910390f35b610323611553565b604051808215151515815260200191505060405180910390f35b610345611566565b6040518082815260200191505060405180910390f35b61036361158e565b6040518082815260200191505060405180910390f35b61038161166f565b6040518082815260200191505060405180910390f35b61039f611679565b604051808273ffffffffffffffffffffffffffffffffffffffff1673ffffffffffffffffffffffffffffffffffffffff16815260200191505060405180910390f35b61040d600480360360208110156103f757600080fd5b810190808035906020019092919050505061169f565b60405180898152602001888152602001878152602001868152602001858152602001848152602001838152602001821515151581526020019850505050505050505060405180910390f35b6104a26004803603608081101561046e57600080fd5b81019080803590602001909291908035906020019092919080359060200190929190803590602001909291905050506116f4565b6040518082815260200191505060405180910390f35b6104c0611760565b005b6104ca61181c565b604051808273ffffffffffffffffffffffffffffffffffffffff1673ffffffffffffffffffffffffffffffffffffffff16815260200191505060405180910390f35b6105426004803603604081101561052257600080fd5b810190808035906020019092919080359060200190929190505050611841565b604051808981526020018881526020018781526020018681526020018581526020018473ffffffffffffffffffffffffffffffffffffffff1673ffffffffffffffffffffffffffffffffffffffff168152602001838152602001821515151581526020019850505050505050505060405180910390f35b610605600480360360408110156105cf57600080fd5b81019080803573ffffffffffffffffffffffffffffffffffffffff1690602001909291908035906020019092919050505061197d565b6040518082815260200191505060405180910390f35b61065d6004803603602081101561063157600080fd5b81019080803573ffffffffffffffffffffffffffffffffffffffff1690602001909291905050506119ab565b005b61068b6004803603602081101561067557600080fd5b8101908080359060200190929190505050611be6565b604051808b81526020018a8152602001898152602001888152602001878152602001868152602001858152602001841515151581526020018060200180602001838103835285818151815260200191508051906020019060200280838360005b838110156107065780820151818401526020810190506106eb565b50505050905001838103825284818151815260200191508051906020019060200280838360005b8381101561074857808201518184015260208101905061072d565b505050509050019c5050505050505050505050505060405180910390f35b6107a86004803603602081101561077c57600080fd5b81019080803573ffffffffffffffffffffffffffffffffffffffff169060200190929190505050611dc1565b005b6107d6600480360360208110156107c057600080fd5b8101908080359060200190929190505050611e77565b6040518082815260200191505060405180910390f35b61082e6004803603602081101561080257600080fd5b81019080803573ffffffffffffffffffffffffffffffffffffffff169060200190929190505050611e98565b005b600060149054906101000a900460ff161561084a57600080fd5b60006001600084815260200190815260200160002060020154141561086e57600080fd5b600060016000848152602001908152602001600020600a0160008381526020019081526020016000206003015414156108a657600080fd5b6000151560016000848152602001908152602001600020600a01600083815260200190815260200160002060070160009054906101000a900460ff161515146108ee57600080fd5b3373ffffffffffffffffffffffffffffffffffffffff1660016000848152602001908152602001600020600a01600083815260200190815260200160002060050160009054906101000a900473ffffffffffffffffffffffffffffffffffffffff1673ffffffffffffffffffffffffffffffffffffffff161461097057600080fd5b61097861234a565b60016000848152602001908152602001600020600a0160008381526020019081526020016000206040518061010001604052908160008201548152602001600182015481526020016002820154815260200160038201548152602001600482015481526020016005820160009054906101000a900473ffffffffffffffffffffffffffffffffffffffff1673ffffffffffffffffffffffffffffffffffffffff1673ffffffffffffffffffffffffffffffffffffffff168152602001600682015481526020016007820160009054906101000a900460ff161515151581525050905080604001514211610a6a57600080fd5b600042905081606001514210610a865781606001519050610abb565b600015156001600086815260200190815260200160002060070160009054906101000a900460ff16151514610aba57600080fd5b5b6001806000868152602001908152602001600020600a01600085815260200190815260200160002060070160006101000a81548160ff0219169083151502179055506000610b178360c0015184604001518486608001516116f4565b905060008111610b2657600080fd5b6000610b3f828560800151611fe990919063ffffffff16565b9050600660009054906101000a900473ffffffffffffffffffffffffffffffffffffffff1673ffffffffffffffffffffffffffffffffffffffff1663a9059cbb8560a00151836040518363ffffffff1660e01b8152600401808373ffffffffffffffffffffffffffffffffffffffff1673ffffffffffffffffffffffffffffffffffffffff16815260200182815260200192505050602060405180830381600087803b158015610bee57600080fd5b505af1158015610c02573d6000803e3d6000fd5b505050506040513d6020811015610c1857600080fd5b8101908080519060200190929190505050610c3257600080fd5b610c478160055461207190919063ffffffff16565b600581905550505050505050565b6060600360008373ffffffffffffffffffffffffffffffffffffffff1673ffffffffffffffffffffffffffffffffffffffff168152602001908152602001600020805480602002602001604051908101604052809291908181526020018280548015610ce057602002820191906000526020600020905b815481526020019060010190808311610ccc575b50505050509050919050565b600060149054906101000a900460ff1615610d0657600080fd5b60008111610d1357600080fd5b60016000838152602001908152602001600020600201544210610d3557600080fd5b80600160008481526020019081526020016000206006015401600160008481526020019081526020016000206003015411610d6f57600080fd5b6001600083815260200190815260200160002060040154811015610d9257600080fd5b6000610dcc6001600085815260200190815260200160002060050154426001600087815260200190815260200160002060020154856116f4565b9050610de18183611fe990919063ffffffff16565b610de9611566565b1015610df457600080fd5b600660009054906101000a900473ffffffffffffffffffffffffffffffffffffffff1673ffffffffffffffffffffffffffffffffffffffff166323b872dd3330856040518463ffffffff1660e01b8152600401808473ffffffffffffffffffffffffffffffffffffffff1673ffffffffffffffffffffffffffffffffffffffff1681526020018373ffffffffffffffffffffffffffffffffffffffff1673ffffffffffffffffffffffffffffffffffffffff1681526020018281526020019350505050602060405180830381600087803b158015610ed157600080fd5b505af1158015610ee5573d6000803e3d6000fd5b505050506040513d6020811015610efb57600080fd5b8101908080519060200190929190505050610f1557600080fd5b610f3c610f2b8284611fe990919063ffffffff16565b600554611fe990919063ffffffff16565b6005819055506000610f60600454610f526120bb565b611fe990919063ffffffff16565b9050600160045401600481905550610f7661234a565b604051806101000160405280838152602001868152602001428152602001600160008881526020019081526020016000206002015481526020018581526020013373ffffffffffffffffffffffffffffffffffffffff16815260200160016000888152602001908152602001600020600501548152602001600015158152509050600360003373ffffffffffffffffffffffffffffffffffffffff1673ffffffffffffffffffffffffffffffffffffffff168152602001908152602001600020829080600181540180825580915050906001820390600052602060002001600090919290919091505550600160008681526020019081526020016000206009018290806001815401808255809150509060018203906000526020600020016000909192909190915055508060016000878152602001908152602001600020600a016000848152602001908152602001600020600082015181600001556020820151816001015560408201518160020155606082015181600301556080820151816004015560a08201518160050160006101000a81548173ffffffffffffffffffffffffffffffffffffffff021916908373ffffffffffffffffffffffffffffffffffffffff16021790555060c0820151816006015560e08201518160070160006101000a81548160ff021916908315150217905550905050836001600087815260200190815260200160002060060154016001600087815260200190815260200160002060060181905550600160008681526020019081526020016000206008013390806001815401808255809150509060018203906000526020600020016000909192909190916101000a81548173ffffffffffffffffffffffffffffffffffffffff021916908373ffffffffffffffffffffffffffffffffffffffff160217905550505050505050565b600060149054906101000a900460ff161561123c57600080fd5b6000809054906101000a900473ffffffffffffffffffffffffffffffffffffffff1673ffffffffffffffffffffffffffffffffffffffff163373ffffffffffffffffffffffffffffffffffffffff161461129557600080fd5b8442106112a157600080fd5b854211156112ae57600080fd5b8486106112ba57600080fd5b600084116112c757600080fd5b600083116112d457600080fd5b8284116112e057600080fd5b600082116112ed57600080fd5b6060806112f86123a7565b6040518061014001604052804281526020018a81526020018981526020018881526020018781526020018681526020016000815260200185151581526020018481526020018381525090506000600160028054905001905060028190806001815401808255809150509060018203906000526020600020016000909192909190915055508160016000838152602001908152602001600020600082015181600001556020820151816001015560408201518160020155606082015181600301556080820151816004015560a0820151816005015560c0820151816006015560e08201518160070160006101000a81548160ff0219169083151502179055506101008201518160080190805190602001906114139291906123fc565b50610120820151816009019080519060200190611431929190612486565b5090505050505050505050505050565b6000809054906101000a900473ffffffffffffffffffffffffffffffffffffffff1673ffffffffffffffffffffffffffffffffffffffff163373ffffffffffffffffffffffffffffffffffffffff161461149a57600080fd5b600060149054906101000a900460ff166114b357600080fd5b60008060146101000a81548160ff0219169083151502179055507f7805862f689e2f13df9f062ff482ad3ad112aca9e0847911ed832e158c525b3360405160405180910390a1565b6060600280548060200260200160405190810160405280929190818152602001828054801561154957602002820191906000526020600020905b815481526020019060010190808311611535575b5050505050905090565b600060149054906101000a900460ff1681565b600061158961157361166f565b61157b61158e565b61207190919063ffffffff16565b905090565b6000600660009054906101000a900473ffffffffffffffffffffffffffffffffffffffff1673ffffffffffffffffffffffffffffffffffffffff166370a08231306040518263ffffffff1660e01b8152600401808273ffffffffffffffffffffffffffffffffffffffff1673ffffffffffffffffffffffffffffffffffffffff16815260200191505060206040518083038186803b15801561162f57600080fd5b505afa158015611643573d6000803e3d6000fd5b505050506040513d602081101561165957600080fd5b8101908080519060200190929190505050905090565b6000600554905090565b600660009054906101000a900473ffffffffffffffffffffffffffffffffffffffff1681565b60016020528060005260406000206000915090508060000154908060010154908060020154908060030154908060040154908060050154908060060154908060070160009054906101000a900460ff16905088565b600061175661171160646301e133806120f490919063ffffffff16565b6117488461173a8961172c8a8a61207190919063ffffffff16565b6120f490919063ffffffff16565b6120f490919063ffffffff16565b61217a90919063ffffffff16565b9050949350505050565b6000809054906101000a900473ffffffffffffffffffffffffffffffffffffffff1673ffffffffffffffffffffffffffffffffffffffff163373ffffffffffffffffffffffffffffffffffffffff16146117b957600080fd5b600060149054906101000a900460ff16156117d357600080fd5b6001600060146101000a81548160ff0219169083151502179055507f6985a02210a168e66602d3235cb6db0e70f92b3ba4d376a33c0f3d9434bff62560405160405180910390a1565b6000809054906101000a900473ffffffffffffffffffffffffffffffffffffffff1681565b60008060008060008060008061185561234a565b600160008b8152602001908152602001600020600a0160008c81526020019081526020016000206040518061010001604052908160008201548152602001600182015481526020016002820154815260200160038201548152602001600482015481526020016005820160009054906101000a900473ffffffffffffffffffffffffffffffffffffffff1673ffffffffffffffffffffffffffffffffffffffff1673ffffffffffffffffffffffffffffffffffffffff168152602001600682015481526020016007820160009054906101000a900460ff1615151515815250509050806000015181602001518260400151836060015184608001518560a001518660c001518760e0015198509850985098509850985098509850509295985092959890939650565b6003602052816000526040600020818154811061199657fe5b90600052602060002001600091509150505481565b6000809054906101000a900473ffffffffffffffffffffffffffffffffffffffff1673ffffffffffffffffffffffffffffffffffffffff163373ffffffffffffffffffffffffffffffffffffffff1614611a0457600080fd5b600060149054906101000a900460ff16611a1d57600080fd5b600660009054906101000a900473ffffffffffffffffffffffffffffffffffffffff1673ffffffffffffffffffffffffffffffffffffffff1663a9059cbb82600660009054906101000a900473ffffffffffffffffffffffffffffffffffffffff1673ffffffffffffffffffffffffffffffffffffffff166370a08231306040518263ffffffff1660e01b8152600401808273ffffffffffffffffffffffffffffffffffffffff1673ffffffffffffffffffffffffffffffffffffffff16815260200191505060206040518083038186803b158015611afb57600080fd5b505afa158015611b0f573d6000803e3d6000fd5b505050506040513d6020811015611b2557600080fd5b81019080805190602001909291905050506040518363ffffffff1660e01b8152600401808373ffffffffffffffffffffffffffffffffffffffff1673ffffffffffffffffffffffffffffffffffffffff16815260200182815260200192505050602060405180830381600087803b158015611b9f57600080fd5b505af1158015611bb3573d6000803e3d6000fd5b505050506040513d6020811015611bc957600080fd5b8101908080519060200190929190505050611be357600080fd5b50565b600080600080600080600080606080611bfd6123a7565b600160008d815260200190815260200160002060405180610140016040529081600082015481526020016001820154815260200160028201548152602001600382015481526020016004820154815260200160058201548152602001600682015481526020016007820160009054906101000a900460ff1615151515815260200160088201805480602002602001604051908101604052809291908181526020018280548015611d0257602002820191906000526020600020905b8160009054906101000a900473ffffffffffffffffffffffffffffffffffffffff1673ffffffffffffffffffffffffffffffffffffffff1681526020019060010190808311611cb8575b5050505050815260200160098201805480602002602001604051908101604052809291908181526020018280548015611d5a57602002820191906000526020600020905b815481526020019060010190808311611d46575b5050505050815250509050806000015181602001518260400151836060015184608001518560a001518660c001518760e001518861010001518961012001518191508090509a509a509a509a509a509a509a509a509a509a50509193959799509193959799565b6000809054906101000a900473ffffffffffffffffffffffffffffffffffffffff1673ffffffffffffffffffffffffffffffffffffffff163373ffffffffffffffffffffffffffffffffffffffff1614611e1a57600080fd5b600060149054906101000a900460ff16611e3357600080fd5b80600660006101000a81548173ffffffffffffffffffffffffffffffffffffffff021916908373ffffffffffffffffffffffffffffffffffffffff16021790555050565b60028181548110611e8457fe5b906000526020600020016000915090505481565b6000809054906101000a900473ffffffffffffffffffffffffffffffffffffffff1673ffffffffffffffffffffffffffffffffffffffff163373ffffffffffffffffffffffffffffffffffffffff1614611ef157600080fd5b600073ffffffffffffffffffffffffffffffffffffffff168173ffffffffffffffffffffffffffffffffffffffff161415611f2b57600080fd5b8073ffffffffffffffffffffffffffffffffffffffff166000809054906101000a900473ffffffffffffffffffffffffffffffffffffffff1673ffffffffffffffffffffffffffffffffffffffff167f8be0079c531659141344cd1fd0a4f28419497f9722a3daafe3b4186f6b6457e060405160405180910390a3806000806101000a81548173ffffffffffffffffffffffffffffffffffffffff021916908373ffffffffffffffffffffffffffffffffffffffff16021790555050565b600080828401905083811015612067576040517f08c379a000000000000000000000000000000000000000000000000000000000815260040180806020018281038252601b8152602001807f536166654d6174683a206164646974696f6e206f766572666c6f77000000000081525060200191505060405180910390fd5b8091505092915050565b60006120b383836040518060400160405280601e81526020017f536166654d6174683a207375627472616374696f6e206f766572666c6f7700008152506121c4565b905092915050565b6000444260405160200180838152602001828152602001925050506040516020818303038152906040528051906020012060001c905090565b6000808314156121075760009050612174565b600082840290508284828161211857fe5b041461216f576040517f08c379a000000000000000000000000000000000000000000000000000000000815260040180806020018281038252602181526020018061253c6021913960400191505060405180910390fd5b809150505b92915050565b60006121bc83836040518060400160405280601a81526020017f536166654d6174683a206469766973696f6e206279207a65726f000000000000815250612284565b905092915050565b6000838311158290612271576040517f08c379a00000000000000000000000000000000000000000000000000000000081526004018080602001828103825283818151815260200191508051906020019080838360005b8381101561223657808201518184015260208101905061221b565b50505050905090810190601f1680156122635780820380516001836020036101000a031916815260200191505b509250505060405180910390fd5b5060008385039050809150509392505050565b60008083118290612330576040517f08c379a00000000000000000000000000000000000000000000000000000000081526004018080602001828103825283818151815260200191508051906020019080838360005b838110156122f55780820151818401526020810190506122da565b50505050905090810190601f1680156123225780820380516001836020036101000a031916815260200191505b509250505060405180910390fd5b50600083858161233c57fe5b049050809150509392505050565b6040518061010001604052806000815260200160008152602001600081526020016000815260200160008152602001600073ffffffffffffffffffffffffffffffffffffffff168152602001600081526020016000151581525090565b6040518061014001604052806000815260200160008152602001600081526020016000815260200160008152602001600081526020016000815260200160001515815260200160608152602001606081525090565b828054828255906000526020600020908101928215612475579160200282015b828111156124745782518260006101000a81548173ffffffffffffffffffffffffffffffffffffffff021916908373ffffffffffffffffffffffffffffffffffffffff1602179055509160200191906001019061241c565b5b50905061248291906124d3565b5090565b8280548282559060005260206000209081019282156124c2579160200282015b828111156124c15782518255916020019190600101906124a6565b5b5090506124cf9190612516565b5090565b61251391905b8082111561250f57600081816101000a81549073ffffffffffffffffffffffffffffffffffffffff0219169055506001016124d9565b5090565b90565b61253891905b8082111561253457600081600090555060010161251c565b5090565b9056fe536166654d6174683a206d756c7469706c69636174696f6e206f766572666c6f77a165627a7a72305820883d0bd0473ad1c75db4d93f7a508b55e4baf4844b97b175922d0a3670590c4a0029",
    "source": "pragma solidity 0.5.8; \n\n/**\n * @title ERC20Basic\n * @dev Simpler version of ERC20 interface\n * @dev see https://github.com/ethereum/EIPs/issues/179\n */\ncontract ERC20Basic {\n    function totalSupply() public view returns (uint256);\n    function balanceOf(address who) public view returns (uint256);\n    function transfer(address to, uint256 value) public returns (bool);\n    event Transfer(address indexed from, address indexed to, uint256 value);\n}\n\n/**\n * @dev Wrappers over Solidity's arithmetic operations with added overflow\n * checks.\n *\n * Arithmetic operations in Solidity wrap on overflow. This can easily result\n * in bugs, because programmers usually assume that an overflow raises an\n * error, which is the standard behavior in high level programming languages.\n * `SafeMath` restores this intuition by reverting the transaction when an\n * operation overflows.\n *\n * Using this library instead of the unchecked operations eliminates an entire\n * class of bugs, so it's recommended to use it always.\n */\nlibrary SafeMath {\n    /**\n     * @dev Returns the addition of two unsigned integers, reverting on\n     * overflow.\n     *\n     * Counterpart to Solidity's `+` operator.\n     *\n     * Requirements:\n     * - Addition cannot overflow.\n     */\n    function add(uint256 a, uint256 b) internal pure returns (uint256) {\n        uint256 c = a + b;\n        require(c >= a, \"SafeMath: addition overflow\");\n\n        return c;\n    }\n\n    /**\n     * @dev Returns the subtraction of two unsigned integers, reverting on\n     * overflow (when the result is negative).\n     *\n     * Counterpart to Solidity's `-` operator.\n     *\n     * Requirements:\n     * - Subtraction cannot overflow.\n     */\n    function sub(uint256 a, uint256 b) internal pure returns (uint256) {\n        return sub(a, b, \"SafeMath: subtraction overflow\");\n    }\n\n    /**\n     * @dev Returns the subtraction of two unsigned integers, reverting with custom message on\n     * overflow (when the result is negative).\n     *\n     * Counterpart to Solidity's `-` operator.\n     *\n     * Requirements:\n     * - Subtraction cannot overflow.\n     *\n     * _Available since v2.4.0._\n     */\n    function sub(uint256 a, uint256 b, string memory errorMessage) internal pure returns (uint256) {\n        require(b <= a, errorMessage);\n        uint256 c = a - b;\n\n        return c;\n    }\n\n    /**\n     * @dev Returns the multiplication of two unsigned integers, reverting on\n     * overflow.\n     *\n     * Counterpart to Solidity's `*` operator.\n     *\n     * Requirements:\n     * - Multiplication cannot overflow.\n     */\n    function mul(uint256 a, uint256 b) internal pure returns (uint256) {\n        // Gas optimization: this is cheaper than requiring 'a' not being zero, but the\n        // benefit is lost if 'b' is also tested.\n        // See: https://github.com/OpenZeppelin/openzeppelin-contracts/pull/522\n        if (a == 0) {\n            return 0;\n        }\n\n        uint256 c = a * b;\n        require(c / a == b, \"SafeMath: multiplication overflow\");\n\n        return c;\n    }\n\n    /**\n     * @dev Returns the integer division of two unsigned integers. Reverts on\n     * division by zero. The result is rounded towards zero.\n     *\n     * Counterpart to Solidity's `/` operator. Note: this function uses a\n     * `revert` opcode (which leaves remaining gas untouched) while Solidity\n     * uses an invalid opcode to revert (consuming all remaining gas).\n     *\n     * Requirements:\n     * - The divisor cannot be zero.\n     */\n    function div(uint256 a, uint256 b) internal pure returns (uint256) {\n        return div(a, b, \"SafeMath: division by zero\");\n    }\n\n    /**\n     * @dev Returns the integer division of two unsigned integers. Reverts with custom message on\n     * division by zero. The result is rounded towards zero.\n     *\n     * Counterpart to Solidity's `/` operator. Note: this function uses a\n     * `revert` opcode (which leaves remaining gas untouched) while Solidity\n     * uses an invalid opcode to revert (consuming all remaining gas).\n     *\n     * Requirements:\n     * - The divisor cannot be zero.\n     *\n     * _Available since v2.4.0._\n     */\n    function div(uint256 a, uint256 b, string memory errorMessage) internal pure returns (uint256) {\n        // Solidity only automatically asserts when dividing by 0\n        require(b > 0, errorMessage);\n        uint256 c = a / b;\n        // assert(a == b * c + a % b); // There is no case in which this doesn't hold\n\n        return c;\n    }\n\n    /**\n     * @dev Returns the remainder of dividing two unsigned integers. (unsigned integer modulo),\n     * Reverts when dividing by zero.\n     *\n     * Counterpart to Solidity's `%` operator. This function uses a `revert`\n     * opcode (which leaves remaining gas untouched) while Solidity uses an\n     * invalid opcode to revert (consuming all remaining gas).\n     *\n     * Requirements:\n     * - The divisor cannot be zero.\n     */\n    function mod(uint256 a, uint256 b) internal pure returns (uint256) {\n        return mod(a, b, \"SafeMath: modulo by zero\");\n    }\n\n    /**\n     * @dev Returns the remainder of dividing two unsigned integers. (unsigned integer modulo),\n     * Reverts with custom message when dividing by zero.\n     *\n     * Counterpart to Solidity's `%` operator. This function uses a `revert`\n     * opcode (which leaves remaining gas untouched) while Solidity uses an\n     * invalid opcode to revert (consuming all remaining gas).\n     *\n     * Requirements:\n     * - The divisor cannot be zero.\n     *\n     * _Available since v2.4.0._\n     */\n    function mod(uint256 a, uint256 b, string memory errorMessage) internal pure returns (uint256) {\n        require(b != 0, errorMessage);\n        return a % b;\n    }\n}\n\n// File: openzeppelin-solidity/contracts/token/ERC20/ERC20.sol\n\n/**\n * @title ERC20 interface\n * @dev see https://github.com/ethereum/EIPs/issues/20\n */\ncontract ERC20 is ERC20Basic {\n  function allowance(address owner, address spender) public view returns (uint256);\n  function transferFrom(address from, address to, uint256 value) public returns (bool);\n  function approve(address spender, uint256 value) public returns (bool);\n  event Approval(address indexed owner, address indexed spender, uint256 value);\n}\n\n// File: openzeppelin-solidity/contracts/ownership/Ownable.sol\n\n/**\n * @title Ownable\n * @dev The Ownable contract has an owner address, and provides basic authorization control\n * functions, this simplifies the implementation of \"user permissions\".\n */\ncontract Ownable {\n    address public owner;\n    event OwnershipTransferred(address indexed previousOwner, address indexed newOwner);\n\n\n    /**\n    * @dev The Ownable constructor sets the original `owner` of the contract to the sender\n    * account.\n    */\n    constructor() public {\n        owner = msg.sender;\n    }\n\n    /**\n    * @dev Throws if called by any account other than the owner.\n    */\n    modifier onlyOwner() {\n        require(msg.sender == owner);\n        _;\n    }\n\n    /**\n    * @dev Allows the current owner to transfer control of the contract to a newOwner.\n    * @param newOwner The address to transfer ownership to.\n    */\n    function transferOwnership(address newOwner) public onlyOwner {\n        require(newOwner != address(0));\n        emit OwnershipTransferred(owner, newOwner);\n        owner = newOwner;\n    }\n}\n\n// File: openzeppelin-solidity/contracts/lifecycle/Pausable.sol\n\n/**\n * @title Pausable\n * @dev Base contract which allows children to implement an emergency stop mechanism.\n */\ncontract Pausable is Ownable {\n    event Pause();\n    event Unpause();\n\n    bool public paused = false;\n\n\n    /**\n    * @dev Modifier to make a function callable only when the contract is not paused.\n    */\n    modifier whenNotPaused() {\n        require(!paused);\n        _;\n    }\n\n    /**\n    * @dev Modifier to make a function callable only when the contract is paused.\n    */\n    modifier whenPaused() {\n        require(paused);\n        _;\n    }\n\n    /**\n    * @dev called by the owner to pause, triggers stopped state\n    */\n    function pause() onlyOwner whenNotPaused public {\n        paused = true;\n        emit Pause();\n    }\n\n    /**\n    * @dev called by the owner to unpause, returns to normal state\n    */\n    function unpause() onlyOwner whenPaused public {\n        paused = false;\n        emit Unpause();\n    }\n}\n\ncontract StakingContract is Pausable {\n    using SafeMath for uint256;\n\n    mapping(uint256 => ProductAPR) public products; /* Available Products */\n    uint256[] public productIds; /* Available Product Ids*/\n    mapping(address => uint256[]) public mySubscriptions; /* Address Based Subcriptions */\n    uint256 incrementId = 0;\n    uint256 lockedTokens = 0;\n\n    uint256 constant private year = 365 days;\n    \n    ERC20 public erc20;\n\n    struct SubscriptionAPR {\n        uint256 _id;\n        uint256 productId;\n        uint256 startDate;\n        uint256 endDate;\n        uint256 amount;\n        address subscriberAddress;\n        uint256 APR; /* APR for this product */\n        bool finalized;\n    }\n\n    struct ProductAPR {\n        uint256 createdAt;\n        uint256 startDate;\n        uint256 endDate;\n        uint256 totalMaxAmount;\n        uint256 individualMinimumAmount;\n        uint256 APR; /* APR for this product */\n        uint256 currentAmount;\n        bool lockedUntilFinalization; /* Product can only be withdrawn when finalized */\n        address[] subscribers;\n        uint256[] subscriptionIds;\n        mapping(uint256 => SubscriptionAPR) subscriptions; /* Distribution object */\n    }\n    \n    constructor(address _tokenAddress) public {\n        erc20 = ERC20(_tokenAddress);\n    }\n\n    function random() private view returns (uint) {\n        return uint(keccak256(abi.encode(block.difficulty, now)));\n    } \n    \n    /* Current Held Tokens */\n    function heldTokens() public view returns (uint256) {\n        return erc20.balanceOf(address(this));\n    }\n\n    /* Locked Tokens for the APR */\n    function futureLockedTokens() public view returns (uint256) {\n        return lockedTokens;\n    }\n\n    /* Available Tokens to he APRed by future subscribers */\n    function availableTokens() public view returns (uint256) {\n        return heldTokens().sub(futureLockedTokens());\n    }\n\n    function subscribeProduct(uint256 _product_id, uint256 _amount) external whenNotPaused {\n\n        /* Confirm Amount is positive */\n        require(_amount > 0);\n     \n        /* Confirm product still exists */\n        require(block.timestamp < products[_product_id].endDate);\n\n        /* Confirm Max Amount was not hit already */\n        require(products[_product_id].totalMaxAmount > (products[_product_id].currentAmount + _amount));\n\n        /* Confirm Amount is bigger than minimum Amount */\n        require(_amount >= products[_product_id].individualMinimumAmount);\n        \n        uint256 futureAPRAmount = getAPRAmount(products[_product_id].APR, block.timestamp, products[_product_id].endDate, _amount);\n\n        /* Confirm the current funds can assure the user the APR is valid */\n        require(availableTokens() >= _amount.add(futureAPRAmount));\n\n        /* Confirm the user has funds for the transfer */\n        require(erc20.transferFrom(msg.sender, address(this), _amount));\n\n        /* Add to LockedTokens */\n        lockedTokens = lockedTokens.add(_amount.add(futureAPRAmount));\n\n        uint256 subscription_id = random().add(incrementId);\n        incrementId = incrementId + 1;\n\n        /* Create SubscriptionAPR Object */\n        SubscriptionAPR memory subscriptionAPR = SubscriptionAPR(subscription_id, _product_id, block.timestamp, products[_product_id].endDate, _amount, \n        msg.sender, products[_product_id].APR, false);\n\n        /* Create new subscription */\n        mySubscriptions[msg.sender].push(subscription_id);\n        products[_product_id].subscriptionIds.push(subscription_id);\n        products[_product_id].subscriptions[subscription_id] = subscriptionAPR;\n        products[_product_id].currentAmount = products[_product_id].currentAmount + _amount;\n        products[_product_id].subscribers.push(msg.sender);\n    }\n\n    function createProduct(uint256 _startDate, uint256 _endDate, uint256 _totalMaxAmount, uint256 _individualMinimumAmount, uint256 _APR, bool _lockedUntilFinalization) external whenNotPaused onlyOwner {\n\n        /* Confirmations */\n        require(block.timestamp < _endDate);\n        require(block.timestamp <= _startDate);\n        require(_startDate < _endDate);\n        require(_totalMaxAmount > 0);\n        require(_individualMinimumAmount > 0);\n        require(_totalMaxAmount > _individualMinimumAmount);\n        require(_APR > 0);\n\n        address[] memory addressesI;\n        uint256[] memory subscriptionsI;\n        \n        /* Create SubscriptionAPR Object */\n        ProductAPR memory productAPR = ProductAPR(block.timestamp, _startDate, _endDate, _totalMaxAmount, _individualMinimumAmount, _APR, 0, _lockedUntilFinalization,\n            addressesI, subscriptionsI);\n\n        uint256 product_id = productIds.length + 1;\n\n        /* Add Product to System */\n        productIds.push(product_id);\n        products[product_id] = productAPR;\n    }\n\n\n    function getAPRAmount(uint256 _APR, uint256 _startDate, uint256 _endDate, uint256 _amount) public pure returns(uint256) {\n        return ((_endDate.sub(_startDate)).mul(_APR).mul(_amount)).div(year.mul(100));\n    }\n\n    function getProductIds() public view returns(uint256[] memory) {\n        return productIds;\n    }\n\n    function getMySubscriptions(address _address) public view returns(uint256[] memory) {\n        return mySubscriptions[_address];\n    }\n\n    function withdrawSubscription(uint256 _product_id, uint256 _subscription_id) external whenNotPaused {\n\n        /* Confirm Product exists */\n        require(products[_product_id].endDate != 0);\n\n        /* Confirm Subscription exists */\n        require(products[_product_id].subscriptions[_subscription_id].endDate != 0);\n\n        /* Confirm Subscription is not finalized */\n        require(products[_product_id].subscriptions[_subscription_id].finalized == false);\n\n        /* Confirm Subscriptor is the sender */\n        require(products[_product_id].subscriptions[_subscription_id].subscriberAddress == msg.sender);\n\n        SubscriptionAPR memory subscription = products[_product_id].subscriptions[_subscription_id];\n\n        /* Confirm start date has already passed */\n        require(block.timestamp > subscription.startDate);\n\n        /* Confirm end date for APR */\n        uint256 finishDate = block.timestamp;\n\n        /* Verify if date has passed the end date */\n        if(block.timestamp >= subscription.endDate){\n            finishDate = subscription.endDate;\n        }else{\n            /* Confirm the Product can be withdrawn at any time */\n            require(products[_product_id].lockedUntilFinalization == false);\n        }\n\n        /* Update Subscription */\n        products[_product_id].subscriptions[_subscription_id].finalized = true;\n        uint256 APRedAmount = getAPRAmount(subscription.APR, subscription.startDate, finishDate, subscription.amount);\n        require(APRedAmount > 0);\n        uint256 totalAmount = subscription.amount.add(APRedAmount);\n\n        /* Transfer funds to the subscriber address */\n        require(erc20.transfer(subscription.subscriberAddress, totalAmount));\n\n        /* Sub to LockedTokens */\n        lockedTokens = lockedTokens.sub(totalAmount);\n    }   \n\n    function getSubscription(uint256 _subscription_id, uint256 _product_id) external view returns (uint256, uint256, uint256, uint256, uint256, address, uint256, bool){\n\n        SubscriptionAPR memory subscription = products[_product_id].subscriptions[_subscription_id];\n\n        return (subscription._id, subscription.productId, subscription.startDate, subscription.endDate, \n            subscription.amount, subscription.subscriberAddress, subscription.APR, subscription.finalized);\n    }\n    \n    function getProduct(uint256 _product_id) external view returns (uint256, uint256, uint256, uint256, uint256, uint256, uint256, bool, address[] memory, uint256[] memory){\n\n        ProductAPR memory product = products[_product_id];\n\n        return (product.createdAt, product.startDate, product.endDate, product.totalMaxAmount, \n            product.individualMinimumAmount, product.APR, product.currentAmount, product.lockedUntilFinalization,\n            product.subscribers, product.subscriptionIds\n        );\n    }\n    \n    function safeGuardAllTokens(address _address) external onlyOwner whenPaused  { /* In case of needed urgency for the sake of contract bug */\n        require(erc20.transfer(_address, erc20.balanceOf(address(this))));\n    }\n\n    function changeTokenAddress(address _tokenAddress) external onlyOwner whenPaused  {\n        /* If Needed to Update the Token Address (ex : token swap) */\n        erc20 = ERC20(_tokenAddress);\n    }\n}",
    "sourcePath": "/Users/ruipedro/Desktop/projects/Staking/erc20/contracts/StakingContract.sol",
    "compiler": {
        "name": "solc",
        "version": "0.5.8+commit.23d335f2.Emscripten.clang"
    },
    "schemaVersion": "3.2.4",
    "updatedAt": "2020-10-19T12:13:49.379Z",
    "devdoc": {
        "methods": {
            "pause()": {
                "details": "called by the owner to pause, triggers stopped state"
            },
            "transferOwnership(address)": {
                "details": "Allows the current owner to transfer control of the contract to a newOwner.",
                "params": {
                    "newOwner": "The address to transfer ownership to."
                }
            },
            "unpause()": {
                "details": "called by the owner to unpause, returns to normal state"
            }
        }
    },
    "userdoc": {
        "methods": {}
    }
}