{
  "contractName": "Achievements",
  "abi": [
    {
      "inputs": [],
      "stateMutability": "nonpayable",
      "type": "constructor"
    },
    {
      "anonymous": false,
      "inputs": [
        {
          "indexed": true,
          "internalType": "address",
          "name": "owner",
          "type": "address"
        },
        {
          "indexed": true,
          "internalType": "address",
          "name": "approved",
          "type": "address"
        },
        {
          "indexed": true,
          "internalType": "uint256",
          "name": "tokenId",
          "type": "uint256"
        }
      ],
      "name": "Approval",
      "type": "event"
    },
    {
      "anonymous": false,
      "inputs": [
        {
          "indexed": true,
          "internalType": "address",
          "name": "owner",
          "type": "address"
        },
        {
          "indexed": true,
          "internalType": "address",
          "name": "operator",
          "type": "address"
        },
        {
          "indexed": false,
          "internalType": "bool",
          "name": "approved",
          "type": "bool"
        }
      ],
      "name": "ApprovalForAll",
      "type": "event"
    },
    {
      "anonymous": false,
      "inputs": [
        {
          "indexed": true,
          "internalType": "address",
          "name": "from",
          "type": "address"
        },
        {
          "indexed": true,
          "internalType": "address",
          "name": "to",
          "type": "address"
        },
        {
          "indexed": true,
          "internalType": "uint256",
          "name": "tokenId",
          "type": "uint256"
        }
      ],
      "name": "Transfer",
      "type": "event"
    },
    {
      "inputs": [],
      "name": "achievementIndex",
      "outputs": [
        {
          "internalType": "uint256",
          "name": "",
          "type": "uint256"
        }
      ],
      "stateMutability": "view",
      "type": "function",
      "constant": true
    },
    {
      "inputs": [
        {
          "internalType": "uint256",
          "name": "",
          "type": "uint256"
        }
      ],
      "name": "achievements",
      "outputs": [
        {
          "internalType": "enum Achievements.Action",
          "name": "action",
          "type": "uint8"
        },
        {
          "internalType": "uint256",
          "name": "occurrences",
          "type": "uint256"
        }
      ],
      "stateMutability": "view",
      "type": "function",
      "constant": true
    },
    {
      "inputs": [
        {
          "internalType": "address",
          "name": "to",
          "type": "address"
        },
        {
          "internalType": "uint256",
          "name": "tokenId",
          "type": "uint256"
        }
      ],
      "name": "approve",
      "outputs": [],
      "stateMutability": "nonpayable",
      "type": "function"
    },
    {
      "inputs": [
        {
          "internalType": "address",
          "name": "owner",
          "type": "address"
        }
      ],
      "name": "balanceOf",
      "outputs": [
        {
          "internalType": "uint256",
          "name": "",
          "type": "uint256"
        }
      ],
      "stateMutability": "view",
      "type": "function",
      "constant": true
    },
    {
      "inputs": [],
      "name": "baseURI",
      "outputs": [
        {
          "internalType": "string",
          "name": "",
          "type": "string"
        }
      ],
      "stateMutability": "view",
      "type": "function",
      "constant": true
    },
    {
      "inputs": [
        {
          "internalType": "uint256",
          "name": "tokenId",
          "type": "uint256"
        }
      ],
      "name": "getApproved",
      "outputs": [
        {
          "internalType": "address",
          "name": "",
          "type": "address"
        }
      ],
      "stateMutability": "view",
      "type": "function",
      "constant": true
    },
    {
      "inputs": [
        {
          "internalType": "address",
          "name": "owner",
          "type": "address"
        },
        {
          "internalType": "address",
          "name": "operator",
          "type": "address"
        }
      ],
      "name": "isApprovedForAll",
      "outputs": [
        {
          "internalType": "bool",
          "name": "",
          "type": "bool"
        }
      ],
      "stateMutability": "view",
      "type": "function",
      "constant": true
    },
    {
      "inputs": [],
      "name": "name",
      "outputs": [
        {
          "internalType": "string",
          "name": "",
          "type": "string"
        }
      ],
      "stateMutability": "view",
      "type": "function",
      "constant": true
    },
    {
      "inputs": [
        {
          "internalType": "uint256",
          "name": "tokenId",
          "type": "uint256"
        }
      ],
      "name": "ownerOf",
      "outputs": [
        {
          "internalType": "address",
          "name": "",
          "type": "address"
        }
      ],
      "stateMutability": "view",
      "type": "function",
      "constant": true
    },
    {
      "inputs": [],
      "name": "predictionMarket",
      "outputs": [
        {
          "internalType": "contract PredictionMarket",
          "name": "",
          "type": "address"
        }
      ],
      "stateMutability": "view",
      "type": "function",
      "constant": true
    },
    {
      "inputs": [],
      "name": "realitioERC20",
      "outputs": [
        {
          "internalType": "contract RealitioERC20",
          "name": "",
          "type": "address"
        }
      ],
      "stateMutability": "view",
      "type": "function",
      "constant": true
    },
    {
      "inputs": [
        {
          "internalType": "address",
          "name": "from",
          "type": "address"
        },
        {
          "internalType": "address",
          "name": "to",
          "type": "address"
        },
        {
          "internalType": "uint256",
          "name": "tokenId",
          "type": "uint256"
        }
      ],
      "name": "safeTransferFrom",
      "outputs": [],
      "stateMutability": "nonpayable",
      "type": "function"
    },
    {
      "inputs": [
        {
          "internalType": "address",
          "name": "from",
          "type": "address"
        },
        {
          "internalType": "address",
          "name": "to",
          "type": "address"
        },
        {
          "internalType": "uint256",
          "name": "tokenId",
          "type": "uint256"
        },
        {
          "internalType": "bytes",
          "name": "_data",
          "type": "bytes"
        }
      ],
      "name": "safeTransferFrom",
      "outputs": [],
      "stateMutability": "nonpayable",
      "type": "function"
    },
    {
      "inputs": [
        {
          "internalType": "address",
          "name": "operator",
          "type": "address"
        },
        {
          "internalType": "bool",
          "name": "approved",
          "type": "bool"
        }
      ],
      "name": "setApprovalForAll",
      "outputs": [],
      "stateMutability": "nonpayable",
      "type": "function"
    },
    {
      "inputs": [
        {
          "internalType": "bytes4",
          "name": "interfaceId",
          "type": "bytes4"
        }
      ],
      "name": "supportsInterface",
      "outputs": [
        {
          "internalType": "bool",
          "name": "",
          "type": "bool"
        }
      ],
      "stateMutability": "view",
      "type": "function",
      "constant": true
    },
    {
      "inputs": [],
      "name": "symbol",
      "outputs": [
        {
          "internalType": "string",
          "name": "",
          "type": "string"
        }
      ],
      "stateMutability": "view",
      "type": "function",
      "constant": true
    },
    {
      "inputs": [
        {
          "internalType": "uint256",
          "name": "index",
          "type": "uint256"
        }
      ],
      "name": "tokenByIndex",
      "outputs": [
        {
          "internalType": "uint256",
          "name": "",
          "type": "uint256"
        }
      ],
      "stateMutability": "view",
      "type": "function",
      "constant": true
    },
    {
      "inputs": [
        {
          "internalType": "address",
          "name": "owner",
          "type": "address"
        },
        {
          "internalType": "uint256",
          "name": "index",
          "type": "uint256"
        }
      ],
      "name": "tokenOfOwnerByIndex",
      "outputs": [
        {
          "internalType": "uint256",
          "name": "",
          "type": "uint256"
        }
      ],
      "stateMutability": "view",
      "type": "function",
      "constant": true
    },
    {
      "inputs": [
        {
          "internalType": "uint256",
          "name": "tokenId",
          "type": "uint256"
        }
      ],
      "name": "tokenURI",
      "outputs": [
        {
          "internalType": "string",
          "name": "",
          "type": "string"
        }
      ],
      "stateMutability": "view",
      "type": "function",
      "constant": true
    },
    {
      "inputs": [
        {
          "internalType": "uint256",
          "name": "",
          "type": "uint256"
        }
      ],
      "name": "tokens",
      "outputs": [
        {
          "internalType": "enum Achievements.Action",
          "name": "action",
          "type": "uint8"
        },
        {
          "internalType": "uint256",
          "name": "occurrences",
          "type": "uint256"
        }
      ],
      "stateMutability": "view",
      "type": "function",
      "constant": true
    },
    {
      "inputs": [],
      "name": "totalSupply",
      "outputs": [
        {
          "internalType": "uint256",
          "name": "",
          "type": "uint256"
        }
      ],
      "stateMutability": "view",
      "type": "function",
      "constant": true
    },
    {
      "inputs": [
        {
          "internalType": "address",
          "name": "from",
          "type": "address"
        },
        {
          "internalType": "address",
          "name": "to",
          "type": "address"
        },
        {
          "internalType": "uint256",
          "name": "tokenId",
          "type": "uint256"
        }
      ],
      "name": "transferFrom",
      "outputs": [],
      "stateMutability": "nonpayable",
      "type": "function"
    },
    {
      "inputs": [
        {
          "internalType": "contract PredictionMarket",
          "name": "_predictionMarket",
          "type": "address"
        },
        {
          "internalType": "contract RealitioERC20",
          "name": "_realitioERC20",
          "type": "address"
        }
      ],
      "name": "setContracts",
      "outputs": [],
      "stateMutability": "nonpayable",
      "type": "function"
    },
    {
      "inputs": [
        {
          "internalType": "string",
          "name": "_baseURI",
          "type": "string"
        }
      ],
      "name": "setBaseURI",
      "outputs": [],
      "stateMutability": "nonpayable",
      "type": "function"
    },
    {
      "inputs": [
        {
          "internalType": "enum Achievements.Action",
          "name": "action",
          "type": "uint8"
        },
        {
          "internalType": "uint256",
          "name": "occurrences",
          "type": "uint256"
        }
      ],
      "name": "createAchievement",
      "outputs": [
        {
          "internalType": "uint256",
          "name": "",
          "type": "uint256"
        }
      ],
      "stateMutability": "nonpayable",
      "type": "function"
    },
    {
      "inputs": [
        {
          "internalType": "address",
          "name": "user",
          "type": "address"
        },
        {
          "internalType": "uint256",
          "name": "marketId",
          "type": "uint256"
        }
      ],
      "name": "hasUserPlacedPrediction",
      "outputs": [
        {
          "internalType": "bool",
          "name": "",
          "type": "bool"
        }
      ],
      "stateMutability": "view",
      "type": "function",
      "constant": true
    },
    {
      "inputs": [
        {
          "internalType": "address",
          "name": "user",
          "type": "address"
        },
        {
          "internalType": "uint256",
          "name": "marketId",
          "type": "uint256"
        }
      ],
      "name": "hasUserAddedLiquidity",
      "outputs": [
        {
          "internalType": "bool",
          "name": "",
          "type": "bool"
        }
      ],
      "stateMutability": "view",
      "type": "function",
      "constant": true
    },
    {
      "inputs": [
        {
          "internalType": "address",
          "name": "user",
          "type": "address"
        },
        {
          "internalType": "uint256",
          "name": "marketId",
          "type": "uint256"
        },
        {
          "internalType": "bytes32[]",
          "name": "history_hashes",
          "type": "bytes32[]"
        },
        {
          "internalType": "address[]",
          "name": "addrs",
          "type": "address[]"
        },
        {
          "internalType": "uint256[]",
          "name": "bonds",
          "type": "uint256[]"
        },
        {
          "internalType": "bytes32[]",
          "name": "answers",
          "type": "bytes32[]"
        }
      ],
      "name": "hasUserPlacedBond",
      "outputs": [
        {
          "internalType": "bool",
          "name": "",
          "type": "bool"
        }
      ],
      "stateMutability": "view",
      "type": "function",
      "constant": true
    },
    {
      "inputs": [
        {
          "internalType": "address",
          "name": "user",
          "type": "address"
        },
        {
          "internalType": "uint256",
          "name": "marketId",
          "type": "uint256"
        }
      ],
      "name": "hasUserClaimedWinnings",
      "outputs": [
        {
          "internalType": "bool",
          "name": "",
          "type": "bool"
        }
      ],
      "stateMutability": "view",
      "type": "function",
      "constant": true
    },
    {
      "inputs": [
        {
          "internalType": "address",
          "name": "user",
          "type": "address"
        },
        {
          "internalType": "uint256",
          "name": "marketId",
          "type": "uint256"
        }
      ],
      "name": "hasUserCreatedMarket",
      "outputs": [
        {
          "internalType": "bool",
          "name": "",
          "type": "bool"
        }
      ],
      "stateMutability": "view",
      "type": "function",
      "constant": true
    },
    {
      "inputs": [
        {
          "internalType": "uint256",
          "name": "achievementId",
          "type": "uint256"
        },
        {
          "internalType": "uint256[]",
          "name": "marketIds",
          "type": "uint256[]"
        }
      ],
      "name": "claimAchievement",
      "outputs": [
        {
          "internalType": "uint256",
          "name": "",
          "type": "uint256"
        }
      ],
      "stateMutability": "nonpayable",
      "type": "function"
    },
    {
      "inputs": [
        {
          "internalType": "uint256",
          "name": "achievementId",
          "type": "uint256"
        },
        {
          "internalType": "uint256[]",
          "name": "marketIds",
          "type": "uint256[]"
        },
        {
          "internalType": "uint256[]",
          "name": "lengths",
          "type": "uint256[]"
        },
        {
          "internalType": "bytes32[]",
          "name": "history_hashes",
          "type": "bytes32[]"
        },
        {
          "internalType": "address[]",
          "name": "addrs",
          "type": "address[]"
        },
        {
          "internalType": "uint256[]",
          "name": "bonds",
          "type": "uint256[]"
        },
        {
          "internalType": "bytes32[]",
          "name": "answers",
          "type": "bytes32[]"
        }
      ],
      "name": "claimAchievement",
      "outputs": [],
      "stateMutability": "nonpayable",
      "type": "function"
    }
  ],
  "bytecode": "0x60806040526000600d553480156200001657600080fd5b50604080518082018252600c81526b416368696576656d656e747360a01b60208083019190915282518084019093526003835262504d4160e81b9083015290620000706301ffc9a760e01b6001600160e01b03620000f516565b81516200008590600690602085019062000150565b5080516200009b90600790602084019062000150565b50620000b76380ac58cd60e01b6001600160e01b03620000f516565b620000d2635b5e139f60e01b6001600160e01b03620000f516565b620000ed63780e9d6360e01b6001600160e01b03620000f516565b50506200022c565b6001600160e01b031980821614156200012b5760405162461bcd60e51b81526004016200012290620001f5565b60405180910390fd5b6001600160e01b0319166000908152602081905260409020805460ff19166001179055565b828054600181600116156101000203166002900490600052602060002090601f016020900481019282601f106200019357805160ff1916838001178555620001c3565b82800160010185558215620001c3579182015b82811115620001c3578251825591602001919060010190620001a6565b50620001d1929150620001d5565b5090565b620001f291905b80821115620001d15760008155600101620001dc565b90565b6020808252601c908201527f4552433136353a20696e76616c696420696e7465726661636520696400000000604082015260600190565b6133b4806200023c6000396000f3fe608060405234801561001057600080fd5b50600436106101805760003560e01c806301ffc9a71461018557806306fdde03146101ae578063081812fc146101c3578063095ea7b3146101e35780630c04f83b146101f857806318160ddd1461020b57806323b872dd1461022057806327aed72e146102335780632f745c591461025457806342842e0e14610267578063497e40961461027a5780634f64b2be1461028d5780634f6ccce7146102a057806355f804b3146102b35780635a7ce107146102c65780636352211e146102d95780636be5179f146102ec5780636c0360eb146102ff57806370a08231146103075780638c8b8f4e1461031a578063947f53a21461032d57806395d89b4114610340578063a22cb46514610348578063b88d4fde1461035b578063c87b56dd1461036e578063c97c897614610381578063c99aea3314610389578063d8952a4914610391578063def114b6146103a4578063e7c38730146103ac578063e985e9c5146103bf578063ecf5f69b146103d2575b600080fd5b6101986101933660046125aa565b6103e5565b6040516101a591906128dc565b60405180910390f35b6101b6610408565b6040516101a59190612908565b6101d66101d136600461265e565b61049f565b6040516101a5919061288b565b6101f66101f1366004612418565b6104eb565b005b610198610206366004612418565b610583565b610213610651565b6040516101a591906128e7565b6101f661022e366004612342565b610662565b61024661024136600461265e565b61069a565b6040516101a59291906128f0565b610213610262366004612418565b6106b9565b6101f6610275366004612342565b6106e8565b610213610288366004612676565b610703565b61024661029b36600461265e565b61092d565b6102136102ae36600461265e565b61094c565b6101f66102c136600461262c565b610968565b6102136102d43660046125f4565b61099a565b6101d66102e736600461265e565b6109fe565b6101f66102fa3660046126ba565b610a2c565b6101b6610d5f565b6102136103153660046122ee565b610dc0565b610198610328366004612443565b610e09565b61019861033b366004612418565b611039565b6101b66111ac565b6101f66103563660046123eb565b61120d565b6101f6610369366004612382565b6112db565b6101b661037c36600461265e565b61131a565b6101d6611460565b61021361146f565b6101f661039f3660046125e2565b611475565b6101d6611541565b6101986103ba366004612418565b611550565b6101986103cd36600461230a565b6115f9565b6101986103e0366004612418565b611627565b6001600160e01b0319811660009081526020819052604090205460ff165b919050565b60068054604080516020601f60026000196101006001881615020190951694909404938401819004810282018101909252828152606093909290918301828280156104945780601f1061046957610100808354040283529160200191610494565b820191906000526020600020905b81548152906001019060200180831161047757829003601f168201915b505050505090505b90565b60006104aa82611791565b6104cf5760405162461bcd60e51b81526004016104c690612e20565b60405180910390fd5b506000908152600460205260409020546001600160a01b031690565b60006104f6826109fe565b9050806001600160a01b0316836001600160a01b0316141561052a5760405162461bcd60e51b81526004016104c690612fe4565b806001600160a01b031661053c6117a4565b6001600160a01b031614806105585750610558816103cd6117a4565b6105745760405162461bcd60e51b81526004016104c690612c3d565b61057e83836117a8565b505050565b600061058d6120f0565b600c5460405163b31eb89560e01b81526001600160a01b039091169063b31eb895906105bf9086908890600401613230565b60606040518083038186803b1580156105d757600080fd5b505afa1580156105eb573d6000803e3d6000fd5b505050506040513d601f19601f8201168201806040525061060f91908101906127b2565b602084015280835215159050806106295750602081015115155b6106455760405162461bcd60e51b81526004016104c690612a2e565b60019150505b92915050565b600061065d6002611816565b905090565b61067361066d6117a4565b82611821565b61068f5760405162461bcd60e51b81526004016104c690613088565b61057e8383836118a6565b600e602052600090815260409020805460019091015460ff9091169082565b6001600160a01b03821660009081526001602052604081206106e1908363ffffffff6119b416565b9392505050565b61057e838383604051806020016040528060008152506112db565b6000828152600e60209081526040808320338452600f90925282208154839190829060ff16600481111561073357fe5b8152602081019190915260400160002090506002825460ff16600481111561075757fe5b14156107755760405162461bcd60e51b81526004016104c69061319d565b60008451116107965760405162461bcd60e51b81526004016104c690612cdf565b60018201548154855101146107bd5760405162461bcd60e51b81526004016104c6906129af565b60005b84518110156108e15760008582815181106107d757fe5b60209081029190910181015160008181526001860190925260409091205490915060ff16156108185760405162461bcd60e51b81526004016104c690612ae6565b6000818152600184810160205260408220805460ff19169091179055845460ff16600481111561084457fe5b141561085a576108543382610583565b506108d8565b6001845460ff16600481111561086c57fe5b141561087c576108543382611550565b6003845460ff16600481111561088e57fe5b141561089e576108543382611039565b6004845460ff1660048111156108b057fe5b14156108c0576108543382611627565b60405162461bcd60e51b81526004016104c690612f6d565b506001016107c0565b506040805180820190915282546109249133918590829060ff16600481111561090657fe5b600481111561091157fe5b81526020016001820154815250506119c0565b50505092915050565b6010602052600090815260409020805460019091015460ff9091169082565b60008061096060028463ffffffff611a2716565b509392505050565b610970610d5f565b511561098e5760405162461bcd60e51b81526004016104c690612b2c565b61099781611a43565b50565b60008082116109bb5760405162461bcd60e51b81526004016104c6906131ec565b600d546000818152600e6020526040902080548590829060ff191660018360048111156109e457fe5b021790555060019081018490558101600d55905092915050565b600061064b82604051806060016040528060298152602001613336602991396002919063ffffffff611a5a16565b6000878152600e60209081526040808320338452600f90925282208154919291829060ff166004811115610a5c57fe5b8152602081019190915260400160002090506002825460ff166004811115610a8057fe5b14610a9d5760405162461bcd60e51b81526004016104c690612dd0565b6000885111610abe5760405162461bcd60e51b81526004016104c690612cdf565b6001820154815489510114610ae55760405162461bcd60e51b81526004016104c6906129af565b6000805b8951811015610d2d5760008a8281518110610b0057fe5b60209081029190910181015160008181526001870190925260409091205490915060ff1615610b415760405162461bcd60e51b81526004016104c690612ae6565b6000818152600185810160205260408220805460ff191690911790558a518b9084908110610b6b57fe5b60200260200101519050606081604051908082528060200260200182016040528015610ba1578160200160208202803883390190505b509050606082604051908082528060200260200182016040528015610bd0578160200160208202803883390190505b509050606083604051908082528060200260200182016040528015610bff578160200160208202803883390190505b509050606084604051908082528060200260200182016040528015610c2e578160200160208202803883390190505b50905060005b85811015610d0b578e8981518110610c4857fe5b6020026020010151858281518110610c5c57fe5b6020026020010181815250508d8981518110610c7457fe5b6020026020010151848281518110610c8857fe5b60200260200101906001600160a01b031690816001600160a01b0316815250508c8981518110610cb457fe5b6020026020010151838281518110610cc857fe5b6020026020010181815250508b8981518110610ce057fe5b6020026020010151828281518110610cf457fe5b602090810291909101015260019889019801610c34565b610d19338887878787610e09565b505060019096019550610ae9945050505050565b50604080518082019091528354610d529133918690829060ff16600481111561090657fe5b5050505050505050505050565b60098054604080516020601f60026000196101006001881615020190951694909404938401819004810282018101909252828152606093909290918301828280156104945780601f1061046957610100808354040283529160200191610494565b60006001600160a01b038216610de85760405162461bcd60e51b81526004016104c690612c95565b6001600160a01b038216600090815260016020526040902061064b90611816565b600c54604051630ebc905560e11b8152600091829182916001600160a01b031690631d7920aa90610e3e908b906004016128e7565b60606040518083038186803b158015610e5657600080fd5b505afa158015610e6a573d6000803e3d6000fd5b505050506040513d601f19601f82011682018060405250610e8e91908101906127b2565b50600b5460405163095addb960e41b81529193506001600160a01b031691506395addb9090610ec19084906004016128e7565b6101406040518083038186803b158015610eda57600080fd5b505afa158015610eee573d6000803e3d6000fd5b505050506040513d601f19601f82011682018060405250610f129190810190612504565b509950600097508796505050505050505b885181101561100657888181518110610f3857fe5b6020026020010151868281518110610f4c57fe5b6020026020010151888381518110610f6057fe5b60200260200101518a8481518110610f7457fe5b60200260200101516000604051602001610f9295949392919061280b565b604051602081830303815290604052805190602001208414610fb357600080fd5b8a6001600160a01b0316888281518110610fc957fe5b60200260200101516001600160a01b03161415610fe557600191505b888181518110610ff157fe5b60209081029190910101519350600101610f23565b6001821515146110285760405162461bcd60e51b81526004016104c690613110565b5060019a9950505050505050505050565b60006110436120f0565b600c5460405163b31eb89560e01b81526001600160a01b039091169063b31eb895906110759086908890600401613230565b60606040518083038186803b15801561108d57600080fd5b505afa1580156110a1573d6000803e3d6000fd5b505050506040513d601f19601f820116820180604052506110c591908101906127b2565b6020840152825250600c5460405163bf45572160e01b81526000916001600160a01b03169063bf455721906110fe9087906004016128e7565b60206040518083038186803b15801561111657600080fd5b505afa15801561112a573d6000803e3d6000fd5b505050506040513d601f19601f8201168201806040525061114e9190810190612614565b905060008112156111715760405162461bcd60e51b81526004016104c690613025565b600082826002811061117f57fe5b6020020151116111a15760405162461bcd60e51b81526004016104c690613154565b506001949350505050565b60078054604080516020601f60026000196101006001881615020190951694909404938401819004810282018101909252828152606093909290918301828280156104945780601f1061046957610100808354040283529160200191610494565b6112156117a4565b6001600160a01b0316826001600160a01b031614156112465760405162461bcd60e51b81526004016104c690612ab3565b80600560006112536117a4565b6001600160a01b03908116825260208083019390935260409182016000908120918716808252919093529120805460ff1916921515929092179091556112976117a4565b6001600160a01b03167f17307eab39ab6107e8899845ad3d59bd9653f200f220920489ca2b5937696c31836040516112cf91906128dc565b60405180910390a35050565b6112ec6112e66117a4565b83611821565b6113085760405162461bcd60e51b81526004016104c690613088565b61131484848484611a67565b50505050565b606061132582611791565b6113415760405162461bcd60e51b81526004016104c690612eb5565b60008281526008602090815260409182902080548351601f60026000196101006001861615020190931692909204918201849004840281018401909452808452606093928301828280156113d65780601f106113ab576101008083540402835291602001916113d6565b820191906000526020600020905b8154815290600101906020018083116113b957829003601f168201915b5050505050905060606113e7610d5f565b90508051600014156113fb57509050610403565b81511561142d57808260405160200161141592919061285d565b60405160208183030381529060405292505050610403565b8061143785611a9a565b60405160200161144892919061285d565b60405160208183030381529060405292505050919050565b600b546001600160a01b031681565b600d5481565b600c546001600160a01b03161561149e5760405162461bcd60e51b81526004016104c690612d83565b600b546001600160a01b0316156114c75760405162461bcd60e51b81526004016104c690612bf3565b6001600160a01b0382166114ed5760405162461bcd60e51b81526004016104c690612bbc565b6001600160a01b0381166115135760405162461bcd60e51b81526004016104c690612f38565b600c80546001600160a01b039384166001600160a01b031991821617909155600b8054929093169116179055565b600c546001600160a01b031681565b600c5460405163b31eb89560e01b815260009182916001600160a01b039091169063b31eb895906115879086908890600401613230565b60606040518083038186803b15801561159f57600080fd5b505afa1580156115b3573d6000803e3d6000fd5b505050506040513d601f19601f820116820180604052506115d791908101906127b2565b5090915050806106455760405162461bcd60e51b81526004016104c690612fa1565b6001600160a01b03918216600090815260056020908152604080832093909416825291909152205460ff1690565b60006001600160a01b03831661164f5760405162461bcd60e51b81526004016104c69061305b565b600c54604051630ebc905560e11b815260009182916001600160a01b0390911690631d7920aa906116849087906004016128e7565b60606040518083038186803b15801561169c57600080fd5b505afa1580156116b0573d6000803e3d6000fd5b505050506040513d601f19601f820116820180604052506116d491908101906127b2565b50600b5460405163095addb960e41b81529194506001600160a01b031691506395addb90906117079085906004016128e7565b6101406040518083038186803b15801561172057600080fd5b505afa158015611734573d6000803e3d6000fd5b505050506040513d601f19601f820116820180604052506117589190810190612504565b509698505050506001600160a01b038a81169087161494506111a193505050505760405162461bcd60e51b81526004016104c690612f04565b600061064b60028363ffffffff611b5e16565b3390565b600081815260046020526040902080546001600160a01b0319166001600160a01b03841690811790915581906117dd826109fe565b6001600160a01b03167f8c5be1e5ebec7d5bd14f71427d1e84f3dd0314c0f7b2291e5b200ac8c7c3b92560405160405180910390a45050565b600061064b82611b6a565b600061182c82611791565b6118485760405162461bcd60e51b81526004016104c690612b70565b6000611853836109fe565b9050806001600160a01b0316846001600160a01b0316148061188e5750836001600160a01b03166118838461049f565b6001600160a01b0316145b8061189e575061189e81856115f9565b949350505050565b826001600160a01b03166118b9826109fe565b6001600160a01b0316146118df5760405162461bcd60e51b81526004016104c690612e6c565b6001600160a01b0382166119055760405162461bcd60e51b81526004016104c690612a6f565b61191083838361057e565b61191b6000826117a8565b6001600160a01b0383166000908152600160205260409020611943908263ffffffff611b6e16565b506001600160a01b038216600090815260016020526040902061196c908263ffffffff611b7a16565b5061197f6002828463ffffffff611b8616565b5080826001600160a01b0316846001600160a01b031660008051602061335f83398151915260405160405180910390a4505050565b60006106e18383611b9c565b60006119cc600a611be1565b60006119d8600a611b6a565b90506119e48482611bea565b60008181526010602052604090208351815485929190829060ff19166001836004811115611a0e57fe5b0217905550602091909101516001909101559392505050565b6000808080611a368686611ca8565b9097909650945050505050565b8051611a5690600990602084019061210e565b5050565b600061189e848484611d04565b611a728484846118a6565b611a7e84848484611d63565b6113145760405162461bcd60e51b81526004016104c69061295d565b606081611abf57506040805180820190915260018152600360fc1b6020820152610403565b8160005b8115611ad757600101600a82049150611ac3565b6060816040519080825280601f01601f191660200182016040528015611b04576020820181803883390190505b50859350905060001982015b8315611b5557600a840660300160f81b82828060019003935081518110611b3357fe5b60200101906001600160f81b031916908160001a905350600a84049350611b10565b50949350505050565b60006106e18383611e48565b5490565b60006106e18383611e60565b60006106e18383611f26565b600061189e84846001600160a01b038516611f70565b81546000908210611bbf5760405162461bcd60e51b81526004016104c69061291b565b826000018281548110611bce57fe5b9060005260206000200154905092915050565b80546001019055565b6001600160a01b038216611c105760405162461bcd60e51b81526004016104c690612d4e565b611c1981611791565b15611c365760405162461bcd60e51b81526004016104c6906129f8565b611c426000838361057e565b6001600160a01b0382166000908152600160205260409020611c6a908263ffffffff611b7a16565b50611c7d6002828463ffffffff611b8616565b5060405181906001600160a01b0384169060009060008051602061335f833981519152908290a45050565b815460009081908310611ccd5760405162461bcd60e51b81526004016104c690612d0c565b6000846000018481548110611cde57fe5b906000526020600020906002020190508060000154816001015492509250509250929050565b60008281526001840160205260408120548281611d345760405162461bcd60e51b81526004016104c69190612908565b50846000016001820381548110611d4757fe5b9060005260206000209060020201600101549150509392505050565b6000611d77846001600160a01b0316612007565b611d835750600161189e565b6060611e11630a85bd0160e11b611d986117a4565b888787604051602401611dae949392919061289f565b604051602081830303815290604052906001600160e01b0319166020820180516001600160e01b038381831617835250505050604051806060016040528060328152602001613304603291396001600160a01b038816919063ffffffff61200d16565b9050600081806020019051611e2991908101906125c6565b6001600160e01b031916630a85bd0160e11b1492505050949350505050565b60009081526001919091016020526040902054151590565b60008181526001830160205260408120548015611f1c5783546000198083019190810190600090879083908110611e9357fe5b9060005260206000200154905080876000018481548110611eb057fe5b600091825260208083209091019290925582815260018981019092526040902090840190558654879080611ee057fe5b6001900381819060005260206000200160009055905586600101600087815260200190815260200160002060009055600194505050505061064b565b600091505061064b565b6000611f328383611e48565b611f685750815460018181018455600084815260208082209093018490558454848252828601909352604090209190915561064b565b50600061064b565b600082815260018401602052604081205480611fd55750506040805180820182528381526020808201848152865460018181018955600089815284812095516002909302909501918255915190820155865486845281880190925292909120556106e1565b82856000016001830381548110611fe857fe5b90600052602060002090600202016001018190555060009150506106e1565b3b151590565b606061189e84846000858561202185612007565b61203d5760405162461bcd60e51b81526004016104c6906130d9565b60006060866001600160a01b0316858760405161205a9190612841565b60006040518083038185875af1925050503d8060008114612097576040519150601f19603f3d011682016040523d82523d6000602084013e61209c565b606091505b50915091506120ac8282866120b7565b979650505050505050565b606083156120c65750816106e1565b8251156120d65782518084602001fd5b8160405162461bcd60e51b81526004016104c69190612908565b60405180604001604052806002906020820280388339509192915050565b828054600181600116156101000203166002900490600052602060002090601f016020900481019282601f1061214f57805160ff191683800117855561217c565b8280016001018555821561217c579182015b8281111561217c578251825591602001919060010190612161565b5061218892915061218c565b5090565b61049c91905b808211156121885760008155600101612192565b803561064b816132b8565b600082601f8301126121c1578081fd5b81356121d46121cf8261326d565b613247565b8181529150602080830190848101818402860182018710156121f557600080fd5b60005b8481101561221d57813561220b816132b8565b845292820192908201906001016121f8565b505050505092915050565b600082601f830112612238578081fd5b81356122466121cf8261326d565b81815291506020808301908481018184028601820187101561226757600080fd5b60005b8481101561221d5781358452928201929082019060010161226a565b600082601f830112612296578081fd5b81356001600160401b038111156122ab578182fd5b6122be601f8201601f1916602001613247565b91508082528360208285010111156122d557600080fd5b8060208401602084013760009082016020015292915050565b6000602082840312156122ff578081fd5b81356106e1816132b8565b6000806040838503121561231c578081fd5b8235612327816132b8565b91506020830135612337816132b8565b809150509250929050565b600080600060608486031215612356578081fd5b8335612361816132b8565b92506020840135612371816132b8565b929592945050506040919091013590565b60008060008060808587031215612397578081fd5b84356123a2816132b8565b935060208501356123b2816132b8565b92506040850135915060608501356001600160401b038111156123d3578182fd5b6123df87828801612286565b91505092959194509250565b600080604083850312156123fd578182fd5b8235612408816132b8565b91506020830135612337816132cd565b6000806040838503121561242a578182fd5b8235612435816132b8565b946020939093013593505050565b60008060008060008060c0878903121561245b578384fd5b61246588886121a6565b95506020870135945060408701356001600160401b0380821115612487578586fd5b6124938a838b01612228565b955060608901359150808211156124a8578384fd5b6124b48a838b016121b1565b945060808901359150808211156124c9578384fd5b6124d58a838b01612228565b935060a08901359150808211156124ea578283fd5b506124f789828a01612228565b9150509295509295509295565b6000806000806000806000806000806101408b8d031215612523578788fd5b8a51995060208b0151612535816132b8565b60408c0151909950612546816132f1565b60608c0151909850612557816132f1565b60808c0151909750612568816132f1565b60a08c0151909650612579816132cd565b8095505060c08b0151935060e08b015192506101008b015191506101208b015190509295989b9194979a5092959850565b6000602082840312156125bb578081fd5b81356106e1816132db565b6000602082840312156125d7578081fd5b81516106e1816132db565b6000806040838503121561231c578182fd5b60008060408385031215612606578182fd5b823560058110612435578283fd5b600060208284031215612625578081fd5b5051919050565b60006020828403121561263d578081fd5b81356001600160401b03811115612652578182fd5b61189e84828501612286565b60006020828403121561266f578081fd5b5035919050565b60008060408385031215612688578182fd5b8235915060208301356001600160401b038111156126a4578182fd5b6126b085828601612228565b9150509250929050565b600080600080600080600060e0888a0312156126d4578081fd5b8735965060208801356001600160401b03808211156126f1578283fd5b6126fd8b838c01612228565b975060408a0135915080821115612712578283fd5b61271e8b838c01612228565b965060608a0135915080821115612733578283fd5b61273f8b838c01612228565b955060808a0135915080821115612754578283fd5b6127608b838c016121b1565b945060a08a0135915080821115612775578283fd5b6127818b838c01612228565b935060c08a0135915080821115612796578283fd5b506127a38a828b01612228565b91505092959891949750929550565b6000806000606084860312156127c6578081fd5b8351925060208401519150604084015190509250925092565b600081518084526127f781602086016020860161328c565b601f01601f19169290920160200192915050565b94855260208501939093526040840191909152606090811b6001600160601b03191690830152151560f81b607482015260750190565b6000825161285381846020870161328c565b9190910192915050565b6000835161286f81846020880161328c565b835190830161288282826020880161328c565b01949350505050565b6001600160a01b0391909116815260200190565b6001600160a01b03858116825284166020820152604081018390526080606082018190526000906128d2908301846127df565b9695505050505050565b901515815260200190565b90815260200190565b60408101600584106128fe57fe5b9281526020015290565b6000602082526106e160208301846127df565b60208082526022908201527f456e756d657261626c655365743a20696e646578206f7574206f6620626f756e604082015261647360f01b606082015260800190565b60208082526032908201527f4552433732313a207472616e7366657220746f206e6f6e20455243373231526560408201527131b2b4bb32b91034b6b83632b6b2b73a32b960711b606082015260800190565b60208082526029908201527f4d61726b65747320636f756e7420616e64206f6363757272656e63657320646f6040820152680dc4ee840dac2e8c6d60bb1b606082015260800190565b6020808252601c908201527b115490cdcc8c4e881d1bdad95b88185b1c9958591e481b5a5b9d195960221b604082015260600190565b60208082526021908201527f7573657220646f6573206e6f7420686f6c64206f7574636f6d652073686172656040820152607360f81b606082015260800190565b60208082526024908201527f4552433732313a207472616e7366657220746f20746865207a65726f206164646040820152637265737360e01b606082015260800190565b60208082526019908201527822a9219b99189d1030b8383937bb32903a379031b0b63632b960391b604082015260600190565b60208082526026908201527f416368696576656d656e7420616c726561647920636865636b656420666f72206040820152651b585c9ad95d60d21b606082015260800190565b60208082526024908201527f626173655552492063616e206f6e6c7920626520696e697469616c697a6564206040820152636f6e636560e01b606082015260800190565b6020808252602c908201527f4552433732313a206f70657261746f7220717565727920666f72206e6f6e657860408201526b34b9ba32b73a103a37b5b2b760a11b606082015260800190565b6020808252601e908201527f5f70726564696374696f6e4d61726b6574206164647265737320697320300000604082015260600190565b6020808252602a908201527f7265616c6974696f45524332302063616e206f6e6c7920626520696e697469616040820152696c697a6564206f6e636560b01b606082015260800190565b60208082526038908201527f4552433732313a20617070726f76652063616c6c6572206973206e6f74206f776040820152771b995c881b9bdc88185c1c1c9bdd995908199bdc88185b1b60421b606082015260800190565b6020808252602a908201527f4552433732313a2062616c616e636520717565727920666f7220746865207a65604082015269726f206164647265737360b01b606082015260800190565b602080825260139082015272139bc81858dd1a5bdb9cc81c1c9bdd9a591959606a1b604082015260600190565b60208082526022908201527f456e756d657261626c654d61703a20696e646578206f7574206f6620626f756e604082015261647360f01b606082015260800190565b6020808252818101527f4552433732313a206d696e7420746f20746865207a65726f2061646472657373604082015260600190565b6020808252602d908201527f70726564696374696f6e4d61726b65742063616e206f6e6c7920626520696e6960408201526c7469616c697a6564206f6e636560981b606082015260800190565b60208082526030908201527f4d6574686f64206f6e6c79207573656420666f7220626f6e6420706c6163656d60408201526f656e7420616368696576656d656e747360801b606082015260800190565b6020808252602c908201527f4552433732313a20617070726f76656420717565727920666f72206e6f6e657860408201526b34b9ba32b73a103a37b5b2b760a11b606082015260800190565b60208082526029908201527f4552433732313a207472616e73666572206f6620746f6b656e2074686174206960408201526839903737ba1037bbb760b91b606082015260800190565b6020808252602f908201527f4552433732314d657461646174613a2055524920717565727920666f72206e6f60408201526e3732bc34b9ba32b73a103a37b5b2b760891b606082015260800190565b6020808252601a90820152791d5cd95c88191a59081b9bdd0818dc99585d19481b585c9ad95d60321b604082015260600190565b6020808252601b908201527a05f7265616c6974696f45524332302061646472657373206973203602c1b604082015260600190565b6020808252601a908201527924b73b30b634b21030b1b434b2bb32b6b2b73a1030b1ba34b7b760311b604082015260600190565b60208082526023908201527f7573657220646f6573206e6f7420686f6c64206c69717569646974792073686160408201526272657360e81b606082015260800190565b60208082526021908201527f4552433732313a20617070726f76616c20746f2063757272656e74206f776e656040820152603960f91b606082015260800190565b6020808252601c908201527b1b585c9ad95d081a5cc81cdd1a5b1b081b9bdd081c995cdbdb1d995960221b604082015260600190565b60208082526013908201527207573657220616464726573732069732030783606c1b604082015260600190565b60208082526031908201527f4552433732313a207472616e736665722063616c6c6572206973206e6f74206f6040820152701ddb995c881b9bdc88185c1c1c9bdd9959607a1b606082015260800190565b6020808252601d908201527f416464726573733a2063616c6c20746f206e6f6e2d636f6e7472616374000000604082015260600190565b60208082526024908201527f7573657220686173206e6f7420706c61636564206120626f6e6420696e206d616040820152631c9ad95d60e21b606082015260800190565b60208082526029908201527f7573657220646f6573206e6f7420686f6c642077696e6e696e67206f7574636f6040820152686d652073686172657360b81b606082015260800190565b6020808252602f908201527f4d6574686f64206e6f74207573656420666f7220626f6e6420706c6163656d6560408201526e6e7420616368696576656d656e747360881b606082015260800190565b60208082526024908201527f6f6363757272656e6365732068617320746f20626520677265617465722074686040820152630616e20360e41b606082015260800190565b9182526001600160a01b0316602082015260400190565b6040518181016001600160401b038111828210171561326557600080fd5b604052919050565b60006001600160401b03821115613282578081fd5b5060209081020190565b60005b838110156132a757818101518382015260200161328f565b838111156113145750506000910152565b6001600160a01b038116811461099757600080fd5b801515811461099757600080fd5b6001600160e01b03198116811461099757600080fd5b63ffffffff8116811461099757600080fdfe4552433732313a207472616e7366657220746f206e6f6e20455243373231526563656976657220696d706c656d656e7465724552433732313a206f776e657220717565727920666f72206e6f6e6578697374656e7420746f6b656eddf252ad1be2c89b69c2b068fc378daa952ba7f163c4a11628f55a4df523b3efa264697066735822122070e0726dd5098399c1f4b8d2776e3ec35b4254005600c94e2793566bc1b88a7364736f6c63430006020033",
  "source": "pragma solidity ^0.6.0;\npragma experimental ABIEncoderV2;\n\nimport \"./RealitioERC20.sol\";\nimport \"./PredictionMarket.sol\";\n\n// openzeppelin imports\nimport \"@openzeppelin/contracts/math/SafeMath.sol\";\nimport \"@openzeppelin/contracts/token/ERC721/ERC721.sol\";\nimport \"@openzeppelin/contracts/utils/Counters.sol\";\n\n/// @title Prediction Market Achievements Contract\ncontract Achievements is ERC721 {\n  using Counters for Counters.Counter;\n  Counters.Counter private _tokenIds;\n\n  /// @dev protocol is immutable and has no ownership\n  RealitioERC20 public realitioERC20;\n  PredictionMarket public predictionMarket;\n\n  // Buy: Claim through market[x].outcome[y].shares.holders[msg.sender] > 0\n  // AddLiquidity: Claim through market[x].liquidityShares[msg.sender] > 0\n  // CreateMarket: RealitioERC20 question arbitrator == msg.sender\n  // ClaimWinnings: Claim through market[x].outcome[y].shares.holders[msg.sender] > 0 && y == market.resolution.outcomeId\n  // Bond: Use RealitioERC20 historyHashes logic value and ensure addrs.includes(msg.sender)\n  enum Action {\n    Buy,\n    AddLiquidity,\n    Bond,\n    ClaimWinnings,\n    CreateMarket\n  }\n\n  struct Achievement {\n    Action action;\n    uint256 occurrences;\n    mapping(address => bool) claims;\n  }\n\n  struct ActionClaim {\n    uint256 count;\n    mapping(uint256 => bool) markets;\n  }\n\n  struct Claim {\n    mapping(uint256 => ActionClaim) actionClaims;\n  }\n\n  uint256 public achievementIndex = 0;\n  mapping(uint256 => Achievement) public achievements;\n\n  mapping(address => Claim) claims;\n  mapping(uint256 => Achievement) public tokens;\n\n  constructor() public ERC721(\"Achievements\", \"PMA\") {}\n\n  function setContracts(PredictionMarket _predictionMarket, RealitioERC20 _realitioERC20) public {\n    require(address(predictionMarket) == address(0), \"predictionMarket can only be initialized once\");\n    require(address(realitioERC20) == address(0), \"realitioERC20 can only be initialized once\");\n\n    require(address(_predictionMarket) != address(0), \"_predictionMarket address is 0\");\n    require(address(_realitioERC20) != address(0), \"_realitioERC20 address is 0\");\n\n    predictionMarket = _predictionMarket;\n    realitioERC20 = _realitioERC20;\n  }\n\n  function setBaseURI(string memory _baseURI) public {\n    require(bytes(baseURI()).length == 0, \"baseURI can only be initialized once\");\n\n    _setBaseURI(_baseURI);\n  }\n\n  function createAchievement(Action action, uint256 occurrences) public returns (uint256) {\n    require(occurrences > 0, \"occurrences has to be greater than 0\");\n    uint256 achievementId = achievementIndex;\n    Achievement storage achievement = achievements[achievementId];\n\n    achievement.action = action;\n    achievement.occurrences = occurrences;\n    // emit LogNewAchievement(achievementId, msg.sender, content);\n    achievementIndex = achievementId + 1;\n    return achievementId;\n  }\n\n  function hasUserPlacedPrediction(address user, uint256 marketId) public view returns (bool) {\n    uint256[2] memory outcomeShares;\n    (, outcomeShares[0], outcomeShares[1]) = predictionMarket.getUserMarketShares(marketId, user);\n\n    require(outcomeShares[0] > 0 || outcomeShares[1] > 0, \"user does not hold outcome shares\");\n\n    return true;\n  }\n\n  function hasUserAddedLiquidity(address user, uint256 marketId) public view returns (bool) {\n    uint256 liquidityShares;\n    (liquidityShares, , ) = predictionMarket.getUserMarketShares(marketId, user);\n\n    require(liquidityShares > 0, \"user does not hold liquidity shares\");\n\n    return true;\n  }\n\n  function hasUserPlacedBond(\n    address user,\n    uint256 marketId,\n    bytes32[] memory history_hashes,\n    address[] memory addrs,\n    uint256[] memory bonds,\n    bytes32[] memory answers\n  ) public view returns (bool) {\n    bytes32 last_history_hash;\n    bytes32 questionId;\n    (, questionId, ) = predictionMarket.getMarketAltData(marketId);\n    (, , , , , , , , last_history_hash, ) = realitioERC20.questions(questionId);\n    bool bonded;\n\n    uint256 i;\n    for (i = 0; i < history_hashes.length; i++) {\n      require(\n        last_history_hash == keccak256(abi.encodePacked(history_hashes[i], answers[i], bonds[i], addrs[i], false))\n      );\n\n      if (addrs[i] == user) bonded = true;\n\n      last_history_hash = history_hashes[i];\n    }\n\n    require(bonded == true, \"user has not placed a bond in market\");\n\n    return true;\n  }\n\n  function hasUserClaimedWinnings(address user, uint256 marketId) public view returns (bool) {\n    uint256[2] memory outcomeShares;\n    (, outcomeShares[0], outcomeShares[1]) = predictionMarket.getUserMarketShares(marketId, user);\n    int256 resolvedOutcomeId = predictionMarket.getMarketResolvedOutcome(marketId);\n\n    require(resolvedOutcomeId >= 0, \"market is still not resolved\");\n    require(outcomeShares[uint256(resolvedOutcomeId)] > 0, \"user does not hold winning outcome shares\");\n\n    return true;\n  }\n\n  function hasUserCreatedMarket(address user, uint256 marketId) public view returns (bool) {\n    require(user != address(0), \"user address is 0x0\");\n\n    bytes32 questionId;\n    address arbitrator;\n    (, questionId, ) = predictionMarket.getMarketAltData(marketId);\n    (, arbitrator, , , , , , , , ) = realitioERC20.questions(questionId);\n\n    require(user == arbitrator, \"user did not create market\");\n\n    return true;\n  }\n\n  function claimAchievement(uint256 achievementId, uint256[] memory marketIds) public returns (uint256) {\n    Achievement storage achievement = achievements[achievementId];\n    ActionClaim storage actionClaim = claims[msg.sender].actionClaims[uint256(achievement.action)];\n\n    require(achievement.action != Action.Bond, \"Method not used for bond placement achievements\");\n    require(marketIds.length > 0, \"No actions provided\");\n    require(\n      marketIds.length + actionClaim.count == achievement.occurrences,\n      \"Markets count and occurrences don't match\"\n    );\n\n    for (uint256 i = 0; i < marketIds.length; i++) {\n      uint256 marketId = marketIds[i];\n      require(actionClaim.markets[marketId] == false, \"Achievement already checked for market\");\n\n      actionClaim.markets[marketId] = true;\n\n      if (achievement.action == Action.Buy) {\n        hasUserPlacedPrediction(msg.sender, marketId);\n      } else if (achievement.action == Action.AddLiquidity) {\n        hasUserAddedLiquidity(msg.sender, marketId);\n      } else if (achievement.action == Action.ClaimWinnings) {\n        hasUserClaimedWinnings(msg.sender, marketId);\n      } else if (achievement.action == Action.CreateMarket) {\n        hasUserCreatedMarket(msg.sender, marketId);\n      } else {\n        revert(\"Invalid achievement action\");\n      }\n    }\n\n    mintAchievement(msg.sender, achievement);\n  }\n\n  function claimAchievement(\n    uint256 achievementId,\n    uint256[] memory marketIds,\n    uint256[] memory lengths,\n    bytes32[] memory history_hashes,\n    address[] memory addrs,\n    uint256[] memory bonds,\n    bytes32[] memory answers\n  ) public {\n    Achievement storage achievement = achievements[achievementId];\n    ActionClaim storage actionClaim = claims[msg.sender].actionClaims[uint256(achievement.action)];\n\n    require(achievement.action == Action.Bond, \"Method only used for bond placement achievements\");\n    require(marketIds.length > 0, \"No actions provided\");\n    require(\n      marketIds.length + actionClaim.count == achievement.occurrences,\n      \"Markets count and occurrences don't match\"\n    );\n\n    uint256 qi;\n\n    for (uint256 i = 0; i < marketIds.length; i++) {\n      uint256 marketId = marketIds[i];\n      require(actionClaim.markets[marketId] == false, \"Achievement already checked for market\");\n\n      actionClaim.markets[marketId] = true;\n\n      uint256 ln = lengths[i];\n      bytes32[] memory hh = new bytes32[](ln);\n      address[] memory ad = new address[](ln);\n      uint256[] memory bo = new uint256[](ln);\n      bytes32[] memory an = new bytes32[](ln);\n      uint256 j;\n      for (j = 0; j < ln; j++) {\n        hh[j] = history_hashes[qi];\n        ad[j] = addrs[qi];\n        bo[j] = bonds[qi];\n        an[j] = answers[qi];\n        qi++;\n      }\n      hasUserPlacedBond(msg.sender, marketId, hh, ad, bo, an);\n    }\n\n    mintAchievement(msg.sender, achievement);\n  }\n\n  function mintAchievement(address user, Achievement memory achievement) private returns (uint256) {\n    _tokenIds.increment();\n\n    uint256 tokenId = _tokenIds.current();\n    _mint(user, tokenId);\n    tokens[tokenId] = achievement;\n\n    return tokenId;\n  }\n}\n",
  "sourcePath": "/Users/ricardomarques/dev/workspace/polkamarkets/bepro-js/contracts/Achievements.sol",
  "compiler": {
    "name": "solc",
    "version": "0.6.2+commit.bacdbe57.Emscripten.clang"
  },
  "schemaVersion": "3.4.4",
  "updatedAt": "2022-02-28T10:07:58.089Z",
  "networkType": "ethereum",
  "devdoc": {
    "methods": {
      "approve(address,uint256)": {
        "details": "See {IERC721-approve}."
      },
      "balanceOf(address)": {
        "details": "See {IERC721-balanceOf}."
      },
      "baseURI()": {
        "details": "Returns the base URI set via {_setBaseURI}. This will be automatically added as a prefix in {tokenURI} to each token's URI, or to the token ID if no specific URI is set for that token ID."
      },
      "getApproved(uint256)": {
        "details": "See {IERC721-getApproved}."
      },
      "isApprovedForAll(address,address)": {
        "details": "See {IERC721-isApprovedForAll}."
      },
      "name()": {
        "details": "See {IERC721Metadata-name}."
      },
      "ownerOf(uint256)": {
        "details": "See {IERC721-ownerOf}."
      },
      "safeTransferFrom(address,address,uint256)": {
        "details": "See {IERC721-safeTransferFrom}."
      },
      "safeTransferFrom(address,address,uint256,bytes)": {
        "details": "See {IERC721-safeTransferFrom}."
      },
      "setApprovalForAll(address,bool)": {
        "details": "See {IERC721-setApprovalForAll}."
      },
      "supportsInterface(bytes4)": {
        "details": "See {IERC165-supportsInterface}.     * Time complexity O(1), guaranteed to always use less than 30 000 gas."
      },
      "symbol()": {
        "details": "See {IERC721Metadata-symbol}."
      },
      "tokenByIndex(uint256)": {
        "details": "See {IERC721Enumerable-tokenByIndex}."
      },
      "tokenOfOwnerByIndex(address,uint256)": {
        "details": "See {IERC721Enumerable-tokenOfOwnerByIndex}."
      },
      "tokenURI(uint256)": {
        "details": "See {IERC721Metadata-tokenURI}."
      },
      "totalSupply()": {
        "details": "See {IERC721Enumerable-totalSupply}."
      },
      "transferFrom(address,address,uint256)": {
        "details": "See {IERC721-transferFrom}."
      }
    },
    "title": "Prediction Market Achievements Contract"
  },
  "userdoc": {
    "methods": {}
  }
}