{
  "contractName": "Achievements",
  "abi": [
    {
      "inputs": [],
      "stateMutability": "nonpayable",
      "type": "constructor"
    },
    {
      "anonymous": false,
      "inputs": [
        {
          "indexed": true,
          "internalType": "address",
          "name": "owner",
          "type": "address"
        },
        {
          "indexed": true,
          "internalType": "address",
          "name": "approved",
          "type": "address"
        },
        {
          "indexed": true,
          "internalType": "uint256",
          "name": "tokenId",
          "type": "uint256"
        }
      ],
      "name": "Approval",
      "type": "event"
    },
    {
      "anonymous": false,
      "inputs": [
        {
          "indexed": true,
          "internalType": "address",
          "name": "owner",
          "type": "address"
        },
        {
          "indexed": true,
          "internalType": "address",
          "name": "operator",
          "type": "address"
        },
        {
          "indexed": false,
          "internalType": "bool",
          "name": "approved",
          "type": "bool"
        }
      ],
      "name": "ApprovalForAll",
      "type": "event"
    },
    {
      "anonymous": false,
      "inputs": [
        {
          "indexed": true,
          "internalType": "address",
          "name": "from",
          "type": "address"
        },
        {
          "indexed": true,
          "internalType": "address",
          "name": "to",
          "type": "address"
        },
        {
          "indexed": true,
          "internalType": "uint256",
          "name": "tokenId",
          "type": "uint256"
        }
      ],
      "name": "Transfer",
      "type": "event"
    },
    {
      "inputs": [],
      "name": "achievementIndex",
      "outputs": [
        {
          "internalType": "uint256",
          "name": "",
          "type": "uint256"
        }
      ],
      "stateMutability": "view",
      "type": "function",
      "constant": true
    },
    {
      "inputs": [
        {
          "internalType": "uint256",
          "name": "",
          "type": "uint256"
        }
      ],
      "name": "achievements",
      "outputs": [
        {
          "internalType": "enum Achievements.Action",
          "name": "action",
          "type": "uint8"
        },
        {
          "internalType": "uint256",
          "name": "occurrences",
          "type": "uint256"
        }
      ],
      "stateMutability": "view",
      "type": "function",
      "constant": true
    },
    {
      "inputs": [
        {
          "internalType": "address",
          "name": "to",
          "type": "address"
        },
        {
          "internalType": "uint256",
          "name": "tokenId",
          "type": "uint256"
        }
      ],
      "name": "approve",
      "outputs": [],
      "stateMutability": "nonpayable",
      "type": "function"
    },
    {
      "inputs": [
        {
          "internalType": "address",
          "name": "owner",
          "type": "address"
        }
      ],
      "name": "balanceOf",
      "outputs": [
        {
          "internalType": "uint256",
          "name": "",
          "type": "uint256"
        }
      ],
      "stateMutability": "view",
      "type": "function",
      "constant": true
    },
    {
      "inputs": [],
      "name": "baseURI",
      "outputs": [
        {
          "internalType": "string",
          "name": "",
          "type": "string"
        }
      ],
      "stateMutability": "view",
      "type": "function",
      "constant": true
    },
    {
      "inputs": [
        {
          "internalType": "uint256",
          "name": "tokenId",
          "type": "uint256"
        }
      ],
      "name": "getApproved",
      "outputs": [
        {
          "internalType": "address",
          "name": "",
          "type": "address"
        }
      ],
      "stateMutability": "view",
      "type": "function",
      "constant": true
    },
    {
      "inputs": [
        {
          "internalType": "address",
          "name": "owner",
          "type": "address"
        },
        {
          "internalType": "address",
          "name": "operator",
          "type": "address"
        }
      ],
      "name": "isApprovedForAll",
      "outputs": [
        {
          "internalType": "bool",
          "name": "",
          "type": "bool"
        }
      ],
      "stateMutability": "view",
      "type": "function",
      "constant": true
    },
    {
      "inputs": [],
      "name": "name",
      "outputs": [
        {
          "internalType": "string",
          "name": "",
          "type": "string"
        }
      ],
      "stateMutability": "view",
      "type": "function",
      "constant": true
    },
    {
      "inputs": [
        {
          "internalType": "uint256",
          "name": "tokenId",
          "type": "uint256"
        }
      ],
      "name": "ownerOf",
      "outputs": [
        {
          "internalType": "address",
          "name": "",
          "type": "address"
        }
      ],
      "stateMutability": "view",
      "type": "function",
      "constant": true
    },
    {
      "inputs": [],
      "name": "predictionMarket",
      "outputs": [
        {
          "internalType": "contract PredictionMarket",
          "name": "",
          "type": "address"
        }
      ],
      "stateMutability": "view",
      "type": "function",
      "constant": true
    },
    {
      "inputs": [],
      "name": "realitioERC20",
      "outputs": [
        {
          "internalType": "contract RealitioERC20",
          "name": "",
          "type": "address"
        }
      ],
      "stateMutability": "view",
      "type": "function",
      "constant": true
    },
    {
      "inputs": [
        {
          "internalType": "address",
          "name": "from",
          "type": "address"
        },
        {
          "internalType": "address",
          "name": "to",
          "type": "address"
        },
        {
          "internalType": "uint256",
          "name": "tokenId",
          "type": "uint256"
        }
      ],
      "name": "safeTransferFrom",
      "outputs": [],
      "stateMutability": "nonpayable",
      "type": "function"
    },
    {
      "inputs": [
        {
          "internalType": "address",
          "name": "from",
          "type": "address"
        },
        {
          "internalType": "address",
          "name": "to",
          "type": "address"
        },
        {
          "internalType": "uint256",
          "name": "tokenId",
          "type": "uint256"
        },
        {
          "internalType": "bytes",
          "name": "_data",
          "type": "bytes"
        }
      ],
      "name": "safeTransferFrom",
      "outputs": [],
      "stateMutability": "nonpayable",
      "type": "function"
    },
    {
      "inputs": [
        {
          "internalType": "address",
          "name": "operator",
          "type": "address"
        },
        {
          "internalType": "bool",
          "name": "approved",
          "type": "bool"
        }
      ],
      "name": "setApprovalForAll",
      "outputs": [],
      "stateMutability": "nonpayable",
      "type": "function"
    },
    {
      "inputs": [
        {
          "internalType": "bytes4",
          "name": "interfaceId",
          "type": "bytes4"
        }
      ],
      "name": "supportsInterface",
      "outputs": [
        {
          "internalType": "bool",
          "name": "",
          "type": "bool"
        }
      ],
      "stateMutability": "view",
      "type": "function",
      "constant": true
    },
    {
      "inputs": [],
      "name": "symbol",
      "outputs": [
        {
          "internalType": "string",
          "name": "",
          "type": "string"
        }
      ],
      "stateMutability": "view",
      "type": "function",
      "constant": true
    },
    {
      "inputs": [
        {
          "internalType": "uint256",
          "name": "index",
          "type": "uint256"
        }
      ],
      "name": "tokenByIndex",
      "outputs": [
        {
          "internalType": "uint256",
          "name": "",
          "type": "uint256"
        }
      ],
      "stateMutability": "view",
      "type": "function",
      "constant": true
    },
    {
      "inputs": [
        {
          "internalType": "address",
          "name": "owner",
          "type": "address"
        },
        {
          "internalType": "uint256",
          "name": "index",
          "type": "uint256"
        }
      ],
      "name": "tokenOfOwnerByIndex",
      "outputs": [
        {
          "internalType": "uint256",
          "name": "",
          "type": "uint256"
        }
      ],
      "stateMutability": "view",
      "type": "function",
      "constant": true
    },
    {
      "inputs": [
        {
          "internalType": "uint256",
          "name": "tokenId",
          "type": "uint256"
        }
      ],
      "name": "tokenURI",
      "outputs": [
        {
          "internalType": "string",
          "name": "",
          "type": "string"
        }
      ],
      "stateMutability": "view",
      "type": "function",
      "constant": true
    },
    {
      "inputs": [
        {
          "internalType": "uint256",
          "name": "",
          "type": "uint256"
        }
      ],
      "name": "tokens",
      "outputs": [
        {
          "internalType": "uint256",
          "name": "",
          "type": "uint256"
        }
      ],
      "stateMutability": "view",
      "type": "function",
      "constant": true
    },
    {
      "inputs": [],
      "name": "totalSupply",
      "outputs": [
        {
          "internalType": "uint256",
          "name": "",
          "type": "uint256"
        }
      ],
      "stateMutability": "view",
      "type": "function",
      "constant": true
    },
    {
      "inputs": [
        {
          "internalType": "address",
          "name": "from",
          "type": "address"
        },
        {
          "internalType": "address",
          "name": "to",
          "type": "address"
        },
        {
          "internalType": "uint256",
          "name": "tokenId",
          "type": "uint256"
        }
      ],
      "name": "transferFrom",
      "outputs": [],
      "stateMutability": "nonpayable",
      "type": "function"
    },
    {
      "inputs": [
        {
          "internalType": "contract PredictionMarket",
          "name": "_predictionMarket",
          "type": "address"
        },
        {
          "internalType": "contract RealitioERC20",
          "name": "_realitioERC20",
          "type": "address"
        }
      ],
      "name": "setContracts",
      "outputs": [],
      "stateMutability": "nonpayable",
      "type": "function"
    },
    {
      "inputs": [
        {
          "internalType": "string",
          "name": "_baseURI",
          "type": "string"
        }
      ],
      "name": "setBaseURI",
      "outputs": [],
      "stateMutability": "nonpayable",
      "type": "function"
    },
    {
      "inputs": [
        {
          "internalType": "enum Achievements.Action",
          "name": "action",
          "type": "uint8"
        },
        {
          "internalType": "uint256",
          "name": "occurrences",
          "type": "uint256"
        }
      ],
      "name": "createAchievement",
      "outputs": [
        {
          "internalType": "uint256",
          "name": "",
          "type": "uint256"
        }
      ],
      "stateMutability": "nonpayable",
      "type": "function"
    },
    {
      "inputs": [
        {
          "internalType": "address",
          "name": "user",
          "type": "address"
        },
        {
          "internalType": "uint256",
          "name": "achievementId",
          "type": "uint256"
        }
      ],
      "name": "hasUserClaimedAchievement",
      "outputs": [
        {
          "internalType": "bool",
          "name": "",
          "type": "bool"
        }
      ],
      "stateMutability": "view",
      "type": "function",
      "constant": true
    },
    {
      "inputs": [
        {
          "internalType": "address",
          "name": "user",
          "type": "address"
        },
        {
          "internalType": "uint256",
          "name": "marketId",
          "type": "uint256"
        }
      ],
      "name": "hasUserPlacedPrediction",
      "outputs": [
        {
          "internalType": "bool",
          "name": "",
          "type": "bool"
        }
      ],
      "stateMutability": "view",
      "type": "function",
      "constant": true
    },
    {
      "inputs": [
        {
          "internalType": "address",
          "name": "user",
          "type": "address"
        },
        {
          "internalType": "uint256",
          "name": "marketId",
          "type": "uint256"
        }
      ],
      "name": "hasUserAddedLiquidity",
      "outputs": [
        {
          "internalType": "bool",
          "name": "",
          "type": "bool"
        }
      ],
      "stateMutability": "view",
      "type": "function",
      "constant": true
    },
    {
      "inputs": [
        {
          "internalType": "address",
          "name": "user",
          "type": "address"
        },
        {
          "internalType": "uint256",
          "name": "marketId",
          "type": "uint256"
        },
        {
          "internalType": "bytes32[]",
          "name": "history_hashes",
          "type": "bytes32[]"
        },
        {
          "internalType": "address[]",
          "name": "addrs",
          "type": "address[]"
        },
        {
          "internalType": "uint256[]",
          "name": "bonds",
          "type": "uint256[]"
        },
        {
          "internalType": "bytes32[]",
          "name": "answers",
          "type": "bytes32[]"
        }
      ],
      "name": "hasUserPlacedBond",
      "outputs": [
        {
          "internalType": "bool",
          "name": "",
          "type": "bool"
        }
      ],
      "stateMutability": "view",
      "type": "function",
      "constant": true
    },
    {
      "inputs": [
        {
          "internalType": "address",
          "name": "user",
          "type": "address"
        },
        {
          "internalType": "uint256",
          "name": "marketId",
          "type": "uint256"
        }
      ],
      "name": "hasUserClaimedWinnings",
      "outputs": [
        {
          "internalType": "bool",
          "name": "",
          "type": "bool"
        }
      ],
      "stateMutability": "view",
      "type": "function",
      "constant": true
    },
    {
      "inputs": [
        {
          "internalType": "address",
          "name": "user",
          "type": "address"
        },
        {
          "internalType": "uint256",
          "name": "marketId",
          "type": "uint256"
        }
      ],
      "name": "hasUserCreatedMarket",
      "outputs": [
        {
          "internalType": "bool",
          "name": "",
          "type": "bool"
        }
      ],
      "stateMutability": "view",
      "type": "function",
      "constant": true
    },
    {
      "inputs": [
        {
          "internalType": "uint256",
          "name": "achievementId",
          "type": "uint256"
        },
        {
          "internalType": "uint256[]",
          "name": "marketIds",
          "type": "uint256[]"
        }
      ],
      "name": "claimAchievement",
      "outputs": [
        {
          "internalType": "uint256",
          "name": "",
          "type": "uint256"
        }
      ],
      "stateMutability": "nonpayable",
      "type": "function"
    },
    {
      "inputs": [
        {
          "internalType": "uint256",
          "name": "achievementId",
          "type": "uint256"
        },
        {
          "internalType": "uint256[]",
          "name": "marketIds",
          "type": "uint256[]"
        },
        {
          "internalType": "uint256[]",
          "name": "lengths",
          "type": "uint256[]"
        },
        {
          "internalType": "bytes32[]",
          "name": "history_hashes",
          "type": "bytes32[]"
        },
        {
          "internalType": "address[]",
          "name": "addrs",
          "type": "address[]"
        },
        {
          "internalType": "uint256[]",
          "name": "bonds",
          "type": "uint256[]"
        },
        {
          "internalType": "bytes32[]",
          "name": "answers",
          "type": "bytes32[]"
        }
      ],
      "name": "claimAchievement",
      "outputs": [],
      "stateMutability": "nonpayable",
      "type": "function"
    },
    {
      "inputs": [],
      "name": "tokenIndex",
      "outputs": [
        {
          "internalType": "uint256",
          "name": "",
          "type": "uint256"
        }
      ],
      "stateMutability": "view",
      "type": "function",
      "constant": true
    }
  ],
  "bytecode": "0x60806040526000600d553480156200001657600080fd5b50604080518082018252600c81526b416368696576656d656e747360a01b60208083019190915282518084019093526003835262504d4160e81b9083015290620000706301ffc9a760e01b6001600160e01b03620000f516565b81516200008590600690602085019062000150565b5080516200009b90600790602084019062000150565b50620000b76380ac58cd60e01b6001600160e01b03620000f516565b620000d2635b5e139f60e01b6001600160e01b03620000f516565b620000ed63780e9d6360e01b6001600160e01b03620000f516565b50506200022c565b6001600160e01b031980821614156200012b5760405162461bcd60e51b81526004016200012290620001f5565b60405180910390fd5b6001600160e01b0319166000908152602081905260409020805460ff19166001179055565b828054600181600116156101000203166002900490600052602060002090601f016020900481019282601f106200019357805160ff1916838001178555620001c3565b82800160010185558215620001c3579182015b82811115620001c3578251825591602001919060010190620001a6565b50620001d1929150620001d5565b5090565b620001f291905b80821115620001d15760008155600101620001dc565b90565b6020808252601c908201527f4552433136353a20696e76616c696420696e7465726661636520696400000000604082015260600190565b6132e8806200023c6000396000f3fe608060405234801561001057600080fd5b50600436106101965760003560e01c806301ffc9a71461019b57806306fdde03146101c4578063081812fc146101d9578063095ea7b3146101f95780630c04f83b1461020e57806318160ddd1461022157806323b872dd1461023657806327aed72e146102495780632f745c591461026a57806342842e0e1461027d57806342da0beb14610290578063497e4096146102a35780634f64b2be146102b65780634f6ccce7146102c957806355f804b3146102dc5780635a7ce107146102ef5780636352211e146103025780636be5179f146103155780636c0360eb1461032857806370a08231146103305780638c8b8f4e14610343578063947f53a21461035657806395d89b4114610369578063a22cb46514610371578063b88d4fde14610384578063c87b56dd14610397578063c97c8976146103aa578063c99aea33146103b2578063d55f9273146103ba578063d8952a49146103c2578063def114b6146103d5578063e7c38730146103dd578063e985e9c5146103f0578063ecf5f69b14610403575b600080fd5b6101ae6101a93660046124ef565b610416565b6040516101bb9190612821565b60405180910390f35b6101cc610439565b6040516101bb919061284d565b6101ec6101e73660046125a3565b6104d0565b6040516101bb91906127d0565b61020c61020736600461235d565b61051c565b005b6101ae61021c36600461235d565b6105b4565b610229610682565b6040516101bb919061282c565b61020c610244366004612287565b610693565b61025c6102573660046125a3565b6106cb565b6040516101bb929190612835565b61022961027836600461235d565b6106ea565b61020c61028b366004612287565b610719565b6101ae61029e36600461235d565b610734565b6102296102b13660046125bb565b610762565b6102296102c43660046125a3565b6108e5565b6102296102d73660046125a3565b6108f7565b61020c6102ea366004612571565b610913565b6102296102fd366004612539565b610945565b6101ec6103103660046125a3565b6109a9565b61020c6103233660046125ff565b6109d7565b6101cc610c96565b61022961033e366004612233565b610cf7565b6101ae610351366004612388565b610d40565b6101ae61036436600461235d565b610f70565b6101cc6110e3565b61020c61037f366004612330565b611144565b61020c6103923660046122c7565b611212565b6101cc6103a53660046125a3565b611251565b6101ec611397565b6102296113a6565b6102296113ac565b61020c6103d0366004612527565b6113b8565b6101ec611484565b6101ae6103eb36600461235d565b611493565b6101ae6103fe36600461224f565b61153c565b6101ae61041136600461235d565b61156a565b6001600160e01b0319811660009081526020819052604090205460ff165b919050565b60068054604080516020601f60026000196101006001881615020190951694909404938401819004810282018101909252828152606093909290918301828280156104c55780601f1061049a576101008083540402835291602001916104c5565b820191906000526020600020905b8154815290600101906020018083116104a857829003601f168201915b505050505090505b90565b60006104db826116d4565b6105005760405162461bcd60e51b81526004016104f790612d1f565b60405180910390fd5b506000908152600460205260409020546001600160a01b031690565b6000610527826109a9565b9050806001600160a01b0316836001600160a01b0316141561055b5760405162461bcd60e51b81526004016104f790612ee3565b806001600160a01b031661056d6116e7565b6001600160a01b031614806105895750610589816103fe6116e7565b6105a55760405162461bcd60e51b81526004016104f790612b3c565b6105af83836116eb565b505050565b60006105be612035565b600c5460405163b31eb89560e01b81526001600160a01b039091169063b31eb895906105f09086908890600401613164565b60606040518083038186803b15801561060857600080fd5b505afa15801561061c573d6000803e3d6000fd5b505050506040513d601f19601f8201168201806040525061064091908101906126f7565b6020840152808352151590508061065a5750602081015115155b6106765760405162461bcd60e51b81526004016104f790612973565b60019150505b92915050565b600061068e6002611759565b905090565b6106a461069e6116e7565b82611764565b6106c05760405162461bcd60e51b81526004016104f790612f87565b6105af8383836117e9565b600e602052600090815260409020805460019091015460ff9091169082565b6001600160a01b0382166000908152600160205260408120610712908363ffffffff6118f716565b9392505050565b6105af83838360405180602001604052806000815250611212565b6000908152600e602090815260408083206001600160a01b0394909416835260029093019052205460ff1690565b6000828152600e602090815260408083203384526002810190925282205460ff16156107a05760405162461bcd60e51b81526004016104f790612fd8565b6002815460ff1660048111156107b257fe5b14156107d05760405162461bcd60e51b81526004016104f7906130d1565b80600101548351146107f45760405162461bcd60e51b81526004016104f7906128f4565b60005b83518110156108d257600084828151811061080e57fe5b602002602001015190506000600481111561082557fe5b835460ff16600481111561083557fe5b141561084b5761084533826105b4565b506108c9565b6001835460ff16600481111561085d57fe5b141561086d576108453382611493565b6003835460ff16600481111561087f57fe5b141561088f576108453382610f70565b6004835460ff1660048111156108a157fe5b14156108b157610845338261156a565b60405162461bcd60e51b81526004016104f790612e6c565b506001016107f7565b506108dd3385611903565b505092915050565b600f6020526000908152604090205481565b60008061090b60028463ffffffff61196c16565b509392505050565b61091b610c96565b51156109395760405162461bcd60e51b81526004016104f790612a2b565b61094281611988565b50565b60008082116109665760405162461bcd60e51b81526004016104f790613120565b600d546000818152600e6020526040902080548590829060ff1916600183600481111561098f57fe5b021790555060019081018490558101600d55905092915050565b600061067c8260405180606001604052806029815260200161326a602991396002919063ffffffff61199f16565b6000878152600e60209081526040808320338452600281019092529091205460ff1615610a165760405162461bcd60e51b81526004016104f790612fd8565b6002815460ff166004811115610a2857fe5b14610a455760405162461bcd60e51b81526004016104f790612ccf565b6000875111610a665760405162461bcd60e51b81526004016104f790612bde565b8060010154875114610a8a5760405162461bcd60e51b81526004016104f7906128f4565b6000805b8851811015610c7f576000898281518110610aa557fe5b602002602001015190506000898381518110610abd57fe5b60200260200101519050606081604051908082528060200260200182016040528015610af3578160200160208202803883390190505b509050606082604051908082528060200260200182016040528015610b22578160200160208202803883390190505b509050606083604051908082528060200260200182016040528015610b51578160200160208202803883390190505b509050606084604051908082528060200260200182016040528015610b80578160200160208202803883390190505b50905060005b85811015610c5d578d8981518110610b9a57fe5b6020026020010151858281518110610bae57fe5b6020026020010181815250508c8981518110610bc657fe5b6020026020010151848281518110610bda57fe5b60200260200101906001600160a01b031690816001600160a01b0316815250508b8981518110610c0657fe5b6020026020010151838281518110610c1a57fe5b6020026020010181815250508a8981518110610c3257fe5b6020026020010151828281518110610c4657fe5b602090810291909101015260019889019801610b86565b610c6b338887878787610d40565b505060019096019550610a8e945050505050565b50610c8a338a611903565b50505050505050505050565b60098054604080516020601f60026000196101006001881615020190951694909404938401819004810282018101909252828152606093909290918301828280156104c55780601f1061049a576101008083540402835291602001916104c5565b60006001600160a01b038216610d1f5760405162461bcd60e51b81526004016104f790612b94565b6001600160a01b038216600090815260016020526040902061067c90611759565b600c54604051630ebc905560e11b8152600091829182916001600160a01b031690631d7920aa90610d75908b9060040161282c565b60606040518083038186803b158015610d8d57600080fd5b505afa158015610da1573d6000803e3d6000fd5b505050506040513d601f19601f82011682018060405250610dc591908101906126f7565b50600b5460405163095addb960e41b81529193506001600160a01b031691506395addb9090610df890849060040161282c565b6101406040518083038186803b158015610e1157600080fd5b505afa158015610e25573d6000803e3d6000fd5b505050506040513d601f19601f82011682018060405250610e499190810190612449565b509950600097508796505050505050505b8851811015610f3d57888181518110610e6f57fe5b6020026020010151868281518110610e8357fe5b6020026020010151888381518110610e9757fe5b60200260200101518a8481518110610eab57fe5b60200260200101516000604051602001610ec9959493929190612750565b604051602081830303815290604052805190602001208414610eea57600080fd5b8a6001600160a01b0316888281518110610f0057fe5b60200260200101516001600160a01b03161415610f1c57600191505b888181518110610f2857fe5b60209081029190910101519350600101610e5a565b600182151514610f5f5760405162461bcd60e51b81526004016104f790613044565b5060019a9950505050505050505050565b6000610f7a612035565b600c5460405163b31eb89560e01b81526001600160a01b039091169063b31eb89590610fac9086908890600401613164565b60606040518083038186803b158015610fc457600080fd5b505afa158015610fd8573d6000803e3d6000fd5b505050506040513d601f19601f82011682018060405250610ffc91908101906126f7565b6020840152825250600c5460405163bf45572160e01b81526000916001600160a01b03169063bf4557219061103590879060040161282c565b60206040518083038186803b15801561104d57600080fd5b505afa158015611061573d6000803e3d6000fd5b505050506040513d601f19601f820116820180604052506110859190810190612559565b905060008112156110a85760405162461bcd60e51b81526004016104f790612f24565b60008282600281106110b657fe5b6020020151116110d85760405162461bcd60e51b81526004016104f790613088565b506001949350505050565b60078054604080516020601f60026000196101006001881615020190951694909404938401819004810282018101909252828152606093909290918301828280156104c55780601f1061049a576101008083540402835291602001916104c5565b61114c6116e7565b6001600160a01b0316826001600160a01b0316141561117d5760405162461bcd60e51b81526004016104f7906129f8565b806005600061118a6116e7565b6001600160a01b03908116825260208083019390935260409182016000908120918716808252919093529120805460ff1916921515929092179091556111ce6116e7565b6001600160a01b03167f17307eab39ab6107e8899845ad3d59bd9653f200f220920489ca2b5937696c31836040516112069190612821565b60405180910390a35050565b61122361121d6116e7565b83611764565b61123f5760405162461bcd60e51b81526004016104f790612f87565b61124b848484846119ac565b50505050565b606061125c826116d4565b6112785760405162461bcd60e51b81526004016104f790612db4565b60008281526008602090815260409182902080548351601f600260001961010060018616150201909316929092049182018490048402810184019094528084526060939283018282801561130d5780601f106112e25761010080835404028352916020019161130d565b820191906000526020600020905b8154815290600101906020018083116112f057829003601f168201915b50505050509050606061131e610c96565b905080516000141561133257509050610434565b81511561136457808260405160200161134c9291906127a2565b60405160208183030381529060405292505050610434565b8061136e856119df565b60405160200161137f9291906127a2565b60405160208183030381529060405292505050919050565b600b546001600160a01b031681565b600d5481565b600061068e600a611aa3565b600c546001600160a01b0316156113e15760405162461bcd60e51b81526004016104f790612c82565b600b546001600160a01b03161561140a5760405162461bcd60e51b81526004016104f790612af2565b6001600160a01b0382166114305760405162461bcd60e51b81526004016104f790612abb565b6001600160a01b0381166114565760405162461bcd60e51b81526004016104f790612e37565b600c80546001600160a01b039384166001600160a01b031991821617909155600b8054929093169116179055565b600c546001600160a01b031681565b600c5460405163b31eb89560e01b815260009182916001600160a01b039091169063b31eb895906114ca9086908890600401613164565b60606040518083038186803b1580156114e257600080fd5b505afa1580156114f6573d6000803e3d6000fd5b505050506040513d601f19601f8201168201806040525061151a91908101906126f7565b5090915050806106765760405162461bcd60e51b81526004016104f790612ea0565b6001600160a01b03918216600090815260056020908152604080832093909416825291909152205460ff1690565b60006001600160a01b0383166115925760405162461bcd60e51b81526004016104f790612f5a565b600c54604051630ebc905560e11b815260009182916001600160a01b0390911690631d7920aa906115c790879060040161282c565b60606040518083038186803b1580156115df57600080fd5b505afa1580156115f3573d6000803e3d6000fd5b505050506040513d601f19601f8201168201806040525061161791908101906126f7565b50600b5460405163095addb960e41b81529194506001600160a01b031691506395addb909061164a90859060040161282c565b6101406040518083038186803b15801561166357600080fd5b505afa158015611677573d6000803e3d6000fd5b505050506040513d601f19601f8201168201806040525061169b9190810190612449565b509698505050506001600160a01b038a81169087161494506110d893505050505760405162461bcd60e51b81526004016104f790612e03565b600061067c60028363ffffffff611aa716565b3390565b600081815260046020526040902080546001600160a01b0319166001600160a01b0384169081179091558190611720826109a9565b6001600160a01b03167f8c5be1e5ebec7d5bd14f71427d1e84f3dd0314c0f7b2291e5b200ac8c7c3b92560405160405180910390a45050565b600061067c82611aa3565b600061176f826116d4565b61178b5760405162461bcd60e51b81526004016104f790612a6f565b6000611796836109a9565b9050806001600160a01b0316846001600160a01b031614806117d15750836001600160a01b03166117c6846104d0565b6001600160a01b0316145b806117e157506117e1818561153c565b949350505050565b826001600160a01b03166117fc826109a9565b6001600160a01b0316146118225760405162461bcd60e51b81526004016104f790612d6b565b6001600160a01b0382166118485760405162461bcd60e51b81526004016104f7906129b4565b6118538383836105af565b61185e6000826116eb565b6001600160a01b0383166000908152600160205260409020611886908263ffffffff611ab316565b506001600160a01b03821660009081526001602052604090206118af908263ffffffff611abf16565b506118c26002828463ffffffff611acb16565b5080826001600160a01b0316846001600160a01b031660008051602061329383398151915260405160405180910390a4505050565b60006107128383611ae1565b600061190f600a611b26565b600061191b600a611aa3565b90506119278482611b2f565b6000818152600f60209081526040808320869055858352600e82528083206001600160a01b03881684526002019091529020805460ff19166001179055905092915050565b600080808061197b8686611bed565b9097909650945050505050565b805161199b906009906020840190612053565b5050565b60006117e1848484611c49565b6119b78484846117e9565b6119c384848484611ca8565b61124b5760405162461bcd60e51b81526004016104f7906128a2565b606081611a0457506040805180820190915260018152600360fc1b6020820152610434565b8160005b8115611a1c57600101600a82049150611a08565b6060816040519080825280601f01601f191660200182016040528015611a49576020820181803883390190505b50859350905060001982015b8315611a9a57600a840660300160f81b82828060019003935081518110611a7857fe5b60200101906001600160f81b031916908160001a905350600a84049350611a55565b50949350505050565b5490565b60006107128383611d8d565b60006107128383611da5565b60006107128383611e6b565b60006117e184846001600160a01b038516611eb5565b81546000908210611b045760405162461bcd60e51b81526004016104f790612860565b826000018281548110611b1357fe5b9060005260206000200154905092915050565b80546001019055565b6001600160a01b038216611b555760405162461bcd60e51b81526004016104f790612c4d565b611b5e816116d4565b15611b7b5760405162461bcd60e51b81526004016104f79061293d565b611b87600083836105af565b6001600160a01b0382166000908152600160205260409020611baf908263ffffffff611abf16565b50611bc26002828463ffffffff611acb16565b5060405181906001600160a01b03841690600090600080516020613293833981519152908290a45050565b815460009081908310611c125760405162461bcd60e51b81526004016104f790612c0b565b6000846000018481548110611c2357fe5b906000526020600020906002020190508060000154816001015492509250509250929050565b60008281526001840160205260408120548281611c795760405162461bcd60e51b81526004016104f7919061284d565b50846000016001820381548110611c8c57fe5b9060005260206000209060020201600101549150509392505050565b6000611cbc846001600160a01b0316611f4c565b611cc8575060016117e1565b6060611d56630a85bd0160e11b611cdd6116e7565b888787604051602401611cf394939291906127e4565b604051602081830303815290604052906001600160e01b0319166020820180516001600160e01b038381831617835250505050604051806060016040528060328152602001613238603291396001600160a01b038816919063ffffffff611f5216565b9050600081806020019051611d6e919081019061250b565b6001600160e01b031916630a85bd0160e11b1492505050949350505050565b60009081526001919091016020526040902054151590565b60008181526001830160205260408120548015611e615783546000198083019190810190600090879083908110611dd857fe5b9060005260206000200154905080876000018481548110611df557fe5b600091825260208083209091019290925582815260018981019092526040902090840190558654879080611e2557fe5b6001900381819060005260206000200160009055905586600101600087815260200190815260200160002060009055600194505050505061067c565b600091505061067c565b6000611e778383611d8d565b611ead5750815460018181018455600084815260208082209093018490558454848252828601909352604090209190915561067c565b50600061067c565b600082815260018401602052604081205480611f1a575050604080518082018252838152602080820184815286546001818101895560008981528481209551600290930290950191825591519082015586548684528188019092529290912055610712565b82856000016001830381548110611f2d57fe5b9060005260206000209060020201600101819055506000915050610712565b3b151590565b60606117e1848460008585611f6685611f4c565b611f825760405162461bcd60e51b81526004016104f79061300d565b60006060866001600160a01b03168587604051611f9f9190612786565b60006040518083038185875af1925050503d8060008114611fdc576040519150601f19603f3d011682016040523d82523d6000602084013e611fe1565b606091505b5091509150611ff1828286611ffc565b979650505050505050565b6060831561200b575081610712565b82511561201b5782518084602001fd5b8160405162461bcd60e51b81526004016104f7919061284d565b60405180604001604052806002906020820280388339509192915050565b828054600181600116156101000203166002900490600052602060002090601f016020900481019282601f1061209457805160ff19168380011785556120c1565b828001600101855582156120c1579182015b828111156120c15782518255916020019190600101906120a6565b506120cd9291506120d1565b5090565b6104cd91905b808211156120cd57600081556001016120d7565b803561067c816131ec565b600082601f830112612106578081fd5b8135612119612114826131a1565b61317b565b81815291506020808301908481018184028601820187101561213a57600080fd5b60005b84811015612162578135612150816131ec565b8452928201929082019060010161213d565b505050505092915050565b600082601f83011261217d578081fd5b813561218b612114826131a1565b8181529150602080830190848101818402860182018710156121ac57600080fd5b60005b84811015612162578135845292820192908201906001016121af565b600082601f8301126121db578081fd5b81356001600160401b038111156121f0578182fd5b612203601f8201601f191660200161317b565b915080825283602082850101111561221a57600080fd5b8060208401602084013760009082016020015292915050565b600060208284031215612244578081fd5b8135610712816131ec565b60008060408385031215612261578081fd5b823561226c816131ec565b9150602083013561227c816131ec565b809150509250929050565b60008060006060848603121561229b578081fd5b83356122a6816131ec565b925060208401356122b6816131ec565b929592945050506040919091013590565b600080600080608085870312156122dc578081fd5b84356122e7816131ec565b935060208501356122f7816131ec565b92506040850135915060608501356001600160401b03811115612318578182fd5b612324878288016121cb565b91505092959194509250565b60008060408385031215612342578182fd5b823561234d816131ec565b9150602083013561227c81613201565b6000806040838503121561236f578182fd5b823561237a816131ec565b946020939093013593505050565b60008060008060008060c087890312156123a0578384fd5b6123aa88886120eb565b95506020870135945060408701356001600160401b03808211156123cc578586fd5b6123d88a838b0161216d565b955060608901359150808211156123ed578384fd5b6123f98a838b016120f6565b9450608089013591508082111561240e578384fd5b61241a8a838b0161216d565b935060a089013591508082111561242f578283fd5b5061243c89828a0161216d565b9150509295509295509295565b6000806000806000806000806000806101408b8d031215612468578788fd5b8a51995060208b015161247a816131ec565b60408c015190995061248b81613225565b60608c015190985061249c81613225565b60808c01519097506124ad81613225565b60a08c01519096506124be81613201565b8095505060c08b0151935060e08b015192506101008b015191506101208b015190509295989b9194979a5092959850565b600060208284031215612500578081fd5b81356107128161320f565b60006020828403121561251c578081fd5b81516107128161320f565b60008060408385031215612261578182fd5b6000806040838503121561254b578182fd5b82356005811061237a578283fd5b60006020828403121561256a578081fd5b5051919050565b600060208284031215612582578081fd5b81356001600160401b03811115612597578182fd5b6117e1848285016121cb565b6000602082840312156125b4578081fd5b5035919050565b600080604083850312156125cd578182fd5b8235915060208301356001600160401b038111156125e9578182fd5b6125f58582860161216d565b9150509250929050565b600080600080600080600060e0888a031215612619578081fd5b8735965060208801356001600160401b0380821115612636578283fd5b6126428b838c0161216d565b975060408a0135915080821115612657578283fd5b6126638b838c0161216d565b965060608a0135915080821115612678578283fd5b6126848b838c0161216d565b955060808a0135915080821115612699578283fd5b6126a58b838c016120f6565b945060a08a01359150808211156126ba578283fd5b6126c68b838c0161216d565b935060c08a01359150808211156126db578283fd5b506126e88a828b0161216d565b91505092959891949750929550565b60008060006060848603121561270b578081fd5b8351925060208401519150604084015190509250925092565b6000815180845261273c8160208601602086016131c0565b601f01601f19169290920160200192915050565b94855260208501939093526040840191909152606090811b6001600160601b03191690830152151560f81b607482015260750190565b600082516127988184602087016131c0565b9190910192915050565b600083516127b48184602088016131c0565b83519083016127c78282602088016131c0565b01949350505050565b6001600160a01b0391909116815260200190565b6001600160a01b038581168252841660208201526040810183905260806060820181905260009061281790830184612724565b9695505050505050565b901515815260200190565b90815260200190565b604081016005841061284357fe5b9281526020015290565b6000602082526107126020830184612724565b60208082526022908201527f456e756d657261626c655365743a20696e646578206f7574206f6620626f756e604082015261647360f01b606082015260800190565b60208082526032908201527f4552433732313a207472616e7366657220746f206e6f6e20455243373231526560408201527131b2b4bb32b91034b6b83632b6b2b73a32b960711b606082015260800190565b60208082526029908201527f4d61726b65747320636f756e7420616e64206f6363757272656e63657320646f6040820152680dc4ee840dac2e8c6d60bb1b606082015260800190565b6020808252601c908201527b115490cdcc8c4e881d1bdad95b88185b1c9958591e481b5a5b9d195960221b604082015260600190565b60208082526021908201527f7573657220646f6573206e6f7420686f6c64206f7574636f6d652073686172656040820152607360f81b606082015260800190565b60208082526024908201527f4552433732313a207472616e7366657220746f20746865207a65726f206164646040820152637265737360e01b606082015260800190565b60208082526019908201527822a9219b99189d1030b8383937bb32903a379031b0b63632b960391b604082015260600190565b60208082526024908201527f626173655552492063616e206f6e6c7920626520696e697469616c697a6564206040820152636f6e636560e01b606082015260800190565b6020808252602c908201527f4552433732313a206f70657261746f7220717565727920666f72206e6f6e657860408201526b34b9ba32b73a103a37b5b2b760a11b606082015260800190565b6020808252601e908201527f5f70726564696374696f6e4d61726b6574206164647265737320697320300000604082015260600190565b6020808252602a908201527f7265616c6974696f45524332302063616e206f6e6c7920626520696e697469616040820152696c697a6564206f6e636560b01b606082015260800190565b60208082526038908201527f4552433732313a20617070726f76652063616c6c6572206973206e6f74206f776040820152771b995c881b9bdc88185c1c1c9bdd995908199bdc88185b1b60421b606082015260800190565b6020808252602a908201527f4552433732313a2062616c616e636520717565727920666f7220746865207a65604082015269726f206164647265737360b01b606082015260800190565b602080825260139082015272139bc81858dd1a5bdb9cc81c1c9bdd9a591959606a1b604082015260600190565b60208082526022908201527f456e756d657261626c654d61703a20696e646578206f7574206f6620626f756e604082015261647360f01b606082015260800190565b6020808252818101527f4552433732313a206d696e7420746f20746865207a65726f2061646472657373604082015260600190565b6020808252602d908201527f70726564696374696f6e4d61726b65742063616e206f6e6c7920626520696e6960408201526c7469616c697a6564206f6e636560981b606082015260800190565b60208082526030908201527f4d6574686f64206f6e6c79207573656420666f7220626f6e6420706c6163656d60408201526f656e7420616368696576656d656e747360801b606082015260800190565b6020808252602c908201527f4552433732313a20617070726f76656420717565727920666f72206e6f6e657860408201526b34b9ba32b73a103a37b5b2b760a11b606082015260800190565b60208082526029908201527f4552433732313a207472616e73666572206f6620746f6b656e2074686174206960408201526839903737ba1037bbb760b91b606082015260800190565b6020808252602f908201527f4552433732314d657461646174613a2055524920717565727920666f72206e6f60408201526e3732bc34b9ba32b73a103a37b5b2b760891b606082015260800190565b6020808252601a90820152791d5cd95c88191a59081b9bdd0818dc99585d19481b585c9ad95d60321b604082015260600190565b6020808252601b908201527a05f7265616c6974696f45524332302061646472657373206973203602c1b604082015260600190565b6020808252601a908201527924b73b30b634b21030b1b434b2bb32b6b2b73a1030b1ba34b7b760311b604082015260600190565b60208082526023908201527f7573657220646f6573206e6f7420686f6c64206c69717569646974792073686160408201526272657360e81b606082015260800190565b60208082526021908201527f4552433732313a20617070726f76616c20746f2063757272656e74206f776e656040820152603960f91b606082015260800190565b6020808252601c908201527b1b585c9ad95d081a5cc81cdd1a5b1b081b9bdd081c995cdbdb1d995960221b604082015260600190565b60208082526013908201527207573657220616464726573732069732030783606c1b604082015260600190565b60208082526031908201527f4552433732313a207472616e736665722063616c6c6572206973206e6f74206f6040820152701ddb995c881b9bdc88185c1c1c9bdd9959607a1b606082015260800190565b6020808252601b908201527a1058da1a595d995b595b9d08185b1c9958591e4818db185a5b5959602a1b604082015260600190565b6020808252601d908201527f416464726573733a2063616c6c20746f206e6f6e2d636f6e7472616374000000604082015260600190565b60208082526024908201527f7573657220686173206e6f7420706c61636564206120626f6e6420696e206d616040820152631c9ad95d60e21b606082015260800190565b60208082526029908201527f7573657220646f6573206e6f7420686f6c642077696e6e696e67206f7574636f6040820152686d652073686172657360b81b606082015260800190565b6020808252602f908201527f4d6574686f64206e6f74207573656420666f7220626f6e6420706c6163656d6560408201526e6e7420616368696576656d656e747360881b606082015260800190565b60208082526024908201527f6f6363757272656e6365732068617320746f20626520677265617465722074686040820152630616e20360e41b606082015260800190565b9182526001600160a01b0316602082015260400190565b6040518181016001600160401b038111828210171561319957600080fd5b604052919050565b60006001600160401b038211156131b6578081fd5b5060209081020190565b60005b838110156131db5781810151838201526020016131c3565b8381111561124b5750506000910152565b6001600160a01b038116811461094257600080fd5b801515811461094257600080fd5b6001600160e01b03198116811461094257600080fd5b63ffffffff8116811461094257600080fdfe4552433732313a207472616e7366657220746f206e6f6e20455243373231526563656976657220696d706c656d656e7465724552433732313a206f776e657220717565727920666f72206e6f6e6578697374656e7420746f6b656eddf252ad1be2c89b69c2b068fc378daa952ba7f163c4a11628f55a4df523b3efa2646970667358221220193fadea5127c6b2af34f8e461b70ce6e88f3de3fe8f458a6ad927c5129e1b5664736f6c63430006020033",
  "source": "pragma solidity ^0.6.0;\npragma experimental ABIEncoderV2;\n\nimport \"./RealitioERC20.sol\";\nimport \"./PredictionMarket.sol\";\n\n// openzeppelin imports\nimport \"@openzeppelin/contracts/math/SafeMath.sol\";\nimport \"@openzeppelin/contracts/token/ERC721/ERC721.sol\";\nimport \"@openzeppelin/contracts/utils/Counters.sol\";\n\n/// @title Prediction Market Achievements Contract\ncontract Achievements is ERC721 {\n  using Counters for Counters.Counter;\n  Counters.Counter private _tokenIds;\n\n  /// @dev protocol is immutable and has no ownership\n  RealitioERC20 public realitioERC20;\n  PredictionMarket public predictionMarket;\n\n  // Buy: Claim through market[x].outcome[y].shares.holders[msg.sender] > 0\n  // AddLiquidity: Claim through market[x].liquidityShares[msg.sender] > 0\n  // CreateMarket: RealitioERC20 question arbitrator == msg.sender\n  // ClaimWinnings: Claim through market[x].outcome[y].shares.holders[msg.sender] > 0 && y == market.resolution.outcomeId\n  // Bond: Use RealitioERC20 historyHashes logic value and ensure addrs.includes(msg.sender)\n  enum Action {\n    Buy,\n    AddLiquidity,\n    Bond,\n    ClaimWinnings,\n    CreateMarket\n  }\n\n  struct Achievement {\n    Action action;\n    uint256 occurrences;\n    mapping(address => bool) claims;\n  }\n\n  uint256 public achievementIndex = 0;\n  mapping(uint256 => Achievement) public achievements;\n  mapping(uint256 => uint256) public tokens; // tokenId => achievementId\n\n  constructor() public ERC721(\"Achievements\", \"PMA\") {}\n\n  function setContracts(PredictionMarket _predictionMarket, RealitioERC20 _realitioERC20) public {\n    require(address(predictionMarket) == address(0), \"predictionMarket can only be initialized once\");\n    require(address(realitioERC20) == address(0), \"realitioERC20 can only be initialized once\");\n\n    require(address(_predictionMarket) != address(0), \"_predictionMarket address is 0\");\n    require(address(_realitioERC20) != address(0), \"_realitioERC20 address is 0\");\n\n    predictionMarket = _predictionMarket;\n    realitioERC20 = _realitioERC20;\n  }\n\n  function setBaseURI(string memory _baseURI) public {\n    require(bytes(baseURI()).length == 0, \"baseURI can only be initialized once\");\n\n    _setBaseURI(_baseURI);\n  }\n\n  function createAchievement(Action action, uint256 occurrences) public returns (uint256) {\n    require(occurrences > 0, \"occurrences has to be greater than 0\");\n    uint256 achievementId = achievementIndex;\n    Achievement storage achievement = achievements[achievementId];\n\n    achievement.action = action;\n    achievement.occurrences = occurrences;\n    // emit LogNewAchievement(achievementId, msg.sender, content);\n    achievementIndex = achievementId + 1;\n    return achievementId;\n  }\n\n  function hasUserClaimedAchievement(address user, uint256 achievementId) public view returns (bool) {\n    Achievement storage achievement = achievements[achievementId];\n\n    return achievement.claims[user];\n  }\n\n  function hasUserPlacedPrediction(address user, uint256 marketId) public view returns (bool) {\n    uint256[2] memory outcomeShares;\n    (, outcomeShares[0], outcomeShares[1]) = predictionMarket.getUserMarketShares(marketId, user);\n\n    require(outcomeShares[0] > 0 || outcomeShares[1] > 0, \"user does not hold outcome shares\");\n\n    return true;\n  }\n\n  function hasUserAddedLiquidity(address user, uint256 marketId) public view returns (bool) {\n    uint256 liquidityShares;\n    (liquidityShares, , ) = predictionMarket.getUserMarketShares(marketId, user);\n\n    require(liquidityShares > 0, \"user does not hold liquidity shares\");\n\n    return true;\n  }\n\n  function hasUserPlacedBond(\n    address user,\n    uint256 marketId,\n    bytes32[] memory history_hashes,\n    address[] memory addrs,\n    uint256[] memory bonds,\n    bytes32[] memory answers\n  ) public view returns (bool) {\n    bytes32 last_history_hash;\n    bytes32 questionId;\n    (, questionId, ) = predictionMarket.getMarketAltData(marketId);\n    (, , , , , , , , last_history_hash, ) = realitioERC20.questions(questionId);\n    bool bonded;\n\n    uint256 i;\n    for (i = 0; i < history_hashes.length; i++) {\n      require(\n        last_history_hash == keccak256(abi.encodePacked(history_hashes[i], answers[i], bonds[i], addrs[i], false))\n      );\n\n      if (addrs[i] == user) bonded = true;\n\n      last_history_hash = history_hashes[i];\n    }\n\n    require(bonded == true, \"user has not placed a bond in market\");\n\n    return true;\n  }\n\n  function hasUserClaimedWinnings(address user, uint256 marketId) public view returns (bool) {\n    uint256[2] memory outcomeShares;\n    (, outcomeShares[0], outcomeShares[1]) = predictionMarket.getUserMarketShares(marketId, user);\n    int256 resolvedOutcomeId = predictionMarket.getMarketResolvedOutcome(marketId);\n\n    require(resolvedOutcomeId >= 0, \"market is still not resolved\");\n    require(outcomeShares[uint256(resolvedOutcomeId)] > 0, \"user does not hold winning outcome shares\");\n\n    return true;\n  }\n\n  function hasUserCreatedMarket(address user, uint256 marketId) public view returns (bool) {\n    require(user != address(0), \"user address is 0x0\");\n\n    bytes32 questionId;\n    address arbitrator;\n    (, questionId, ) = predictionMarket.getMarketAltData(marketId);\n    (, arbitrator, , , , , , , , ) = realitioERC20.questions(questionId);\n\n    require(user == arbitrator, \"user did not create market\");\n\n    return true;\n  }\n\n  function claimAchievement(uint256 achievementId, uint256[] memory marketIds) public returns (uint256) {\n    Achievement storage achievement = achievements[achievementId];\n\n    require(achievement.claims[msg.sender] == false, \"Achievement already claimed\");\n    require(achievement.action != Action.Bond, \"Method not used for bond placement achievements\");\n    require(marketIds.length == achievement.occurrences, \"Markets count and occurrences don't match\");\n\n    for (uint256 i = 0; i < marketIds.length; i++) {\n      uint256 marketId = marketIds[i];\n\n      if (achievement.action == Action.Buy) {\n        hasUserPlacedPrediction(msg.sender, marketId);\n      } else if (achievement.action == Action.AddLiquidity) {\n        hasUserAddedLiquidity(msg.sender, marketId);\n      } else if (achievement.action == Action.ClaimWinnings) {\n        hasUserClaimedWinnings(msg.sender, marketId);\n      } else if (achievement.action == Action.CreateMarket) {\n        hasUserCreatedMarket(msg.sender, marketId);\n      } else {\n        revert(\"Invalid achievement action\");\n      }\n    }\n\n    mintAchievement(msg.sender, achievementId);\n  }\n\n  function claimAchievement(\n    uint256 achievementId,\n    uint256[] memory marketIds,\n    uint256[] memory lengths,\n    bytes32[] memory history_hashes,\n    address[] memory addrs,\n    uint256[] memory bonds,\n    bytes32[] memory answers\n  ) public {\n    Achievement storage achievement = achievements[achievementId];\n\n    require(achievement.claims[msg.sender] == false, \"Achievement already claimed\");\n    require(achievement.action == Action.Bond, \"Method only used for bond placement achievements\");\n    require(marketIds.length > 0, \"No actions provided\");\n    require(marketIds.length == achievement.occurrences, \"Markets count and occurrences don't match\");\n\n    uint256 qi;\n\n    for (uint256 i = 0; i < marketIds.length; i++) {\n      uint256 marketId = marketIds[i];\n\n      uint256 ln = lengths[i];\n      bytes32[] memory hh = new bytes32[](ln);\n      address[] memory ad = new address[](ln);\n      uint256[] memory bo = new uint256[](ln);\n      bytes32[] memory an = new bytes32[](ln);\n      uint256 j;\n      for (j = 0; j < ln; j++) {\n        hh[j] = history_hashes[qi];\n        ad[j] = addrs[qi];\n        bo[j] = bonds[qi];\n        an[j] = answers[qi];\n        qi++;\n      }\n      hasUserPlacedBond(msg.sender, marketId, hh, ad, bo, an);\n    }\n\n    mintAchievement(msg.sender, achievementId);\n  }\n\n  function mintAchievement(address user, uint256 achievementId) private returns (uint256) {\n    _tokenIds.increment();\n\n    uint256 tokenId = _tokenIds.current();\n    _mint(user, tokenId);\n    tokens[tokenId] = achievementId;\n\n    Achievement storage achievement = achievements[achievementId];\n    achievement.claims[user] = true;\n\n    return tokenId;\n  }\n\n  function tokenIndex() public view returns (uint256) {\n    return _tokenIds.current();\n  }\n}\n",
  "sourcePath": "/Users/ricardomarques/dev/workspace/polkamarkets/bepro-js/contracts/Achievements.sol",
  "compiler": {
    "name": "solc",
    "version": "0.6.2+commit.bacdbe57.Emscripten.clang"
  },
  "schemaVersion": "3.4.4",
  "updatedAt": "2022-03-09T05:02:05.207Z",
  "networkType": "ethereum",
  "devdoc": {
    "methods": {
      "approve(address,uint256)": {
        "details": "See {IERC721-approve}."
      },
      "balanceOf(address)": {
        "details": "See {IERC721-balanceOf}."
      },
      "baseURI()": {
        "details": "Returns the base URI set via {_setBaseURI}. This will be automatically added as a prefix in {tokenURI} to each token's URI, or to the token ID if no specific URI is set for that token ID."
      },
      "getApproved(uint256)": {
        "details": "See {IERC721-getApproved}."
      },
      "isApprovedForAll(address,address)": {
        "details": "See {IERC721-isApprovedForAll}."
      },
      "name()": {
        "details": "See {IERC721Metadata-name}."
      },
      "ownerOf(uint256)": {
        "details": "See {IERC721-ownerOf}."
      },
      "safeTransferFrom(address,address,uint256)": {
        "details": "See {IERC721-safeTransferFrom}."
      },
      "safeTransferFrom(address,address,uint256,bytes)": {
        "details": "See {IERC721-safeTransferFrom}."
      },
      "setApprovalForAll(address,bool)": {
        "details": "See {IERC721-setApprovalForAll}."
      },
      "supportsInterface(bytes4)": {
        "details": "See {IERC165-supportsInterface}.     * Time complexity O(1), guaranteed to always use less than 30 000 gas."
      },
      "symbol()": {
        "details": "See {IERC721Metadata-symbol}."
      },
      "tokenByIndex(uint256)": {
        "details": "See {IERC721Enumerable-tokenByIndex}."
      },
      "tokenOfOwnerByIndex(address,uint256)": {
        "details": "See {IERC721Enumerable-tokenOfOwnerByIndex}."
      },
      "tokenURI(uint256)": {
        "details": "See {IERC721Metadata-tokenURI}."
      },
      "totalSupply()": {
        "details": "See {IERC721Enumerable-totalSupply}."
      },
      "transferFrom(address,address,uint256)": {
        "details": "See {IERC721-transferFrom}."
      }
    },
    "title": "Prediction Market Achievements Contract"
  },
  "userdoc": {
    "methods": {}
  }
}