{
  "contractName": "Achievements",
  "abi": [
    {
      "inputs": [
        {
          "internalType": "string",
          "name": "token",
          "type": "string"
        },
        {
          "internalType": "string",
          "name": "ticker",
          "type": "string"
        }
      ],
      "stateMutability": "nonpayable",
      "type": "constructor"
    },
    {
      "anonymous": false,
      "inputs": [
        {
          "indexed": true,
          "internalType": "address",
          "name": "owner",
          "type": "address"
        },
        {
          "indexed": true,
          "internalType": "address",
          "name": "approved",
          "type": "address"
        },
        {
          "indexed": true,
          "internalType": "uint256",
          "name": "tokenId",
          "type": "uint256"
        }
      ],
      "name": "Approval",
      "type": "event"
    },
    {
      "anonymous": false,
      "inputs": [
        {
          "indexed": true,
          "internalType": "address",
          "name": "owner",
          "type": "address"
        },
        {
          "indexed": true,
          "internalType": "address",
          "name": "operator",
          "type": "address"
        },
        {
          "indexed": false,
          "internalType": "bool",
          "name": "approved",
          "type": "bool"
        }
      ],
      "name": "ApprovalForAll",
      "type": "event"
    },
    {
      "anonymous": false,
      "inputs": [
        {
          "indexed": true,
          "internalType": "uint256",
          "name": "achievementId",
          "type": "uint256"
        },
        {
          "indexed": true,
          "internalType": "address",
          "name": "user",
          "type": "address"
        },
        {
          "indexed": false,
          "internalType": "string",
          "name": "content",
          "type": "string"
        }
      ],
      "name": "LogNewAchievement",
      "type": "event"
    },
    {
      "anonymous": false,
      "inputs": [
        {
          "indexed": true,
          "internalType": "address",
          "name": "from",
          "type": "address"
        },
        {
          "indexed": true,
          "internalType": "address",
          "name": "to",
          "type": "address"
        },
        {
          "indexed": true,
          "internalType": "uint256",
          "name": "tokenId",
          "type": "uint256"
        }
      ],
      "name": "Transfer",
      "type": "event"
    },
    {
      "inputs": [],
      "name": "achievementIndex",
      "outputs": [
        {
          "internalType": "uint256",
          "name": "",
          "type": "uint256"
        }
      ],
      "stateMutability": "view",
      "type": "function"
    },
    {
      "inputs": [
        {
          "internalType": "uint256",
          "name": "",
          "type": "uint256"
        }
      ],
      "name": "achievements",
      "outputs": [
        {
          "internalType": "enum Achievements.Action",
          "name": "action",
          "type": "uint8"
        },
        {
          "internalType": "uint256",
          "name": "occurrences",
          "type": "uint256"
        }
      ],
      "stateMutability": "view",
      "type": "function"
    },
    {
      "inputs": [
        {
          "internalType": "address",
          "name": "to",
          "type": "address"
        },
        {
          "internalType": "uint256",
          "name": "tokenId",
          "type": "uint256"
        }
      ],
      "name": "approve",
      "outputs": [],
      "stateMutability": "nonpayable",
      "type": "function"
    },
    {
      "inputs": [
        {
          "internalType": "address",
          "name": "owner",
          "type": "address"
        }
      ],
      "name": "balanceOf",
      "outputs": [
        {
          "internalType": "uint256",
          "name": "",
          "type": "uint256"
        }
      ],
      "stateMutability": "view",
      "type": "function"
    },
    {
      "inputs": [],
      "name": "baseURI",
      "outputs": [
        {
          "internalType": "string",
          "name": "",
          "type": "string"
        }
      ],
      "stateMutability": "view",
      "type": "function"
    },
    {
      "inputs": [
        {
          "internalType": "uint256",
          "name": "tokenId",
          "type": "uint256"
        }
      ],
      "name": "getApproved",
      "outputs": [
        {
          "internalType": "address",
          "name": "",
          "type": "address"
        }
      ],
      "stateMutability": "view",
      "type": "function"
    },
    {
      "inputs": [
        {
          "internalType": "address",
          "name": "owner",
          "type": "address"
        },
        {
          "internalType": "address",
          "name": "operator",
          "type": "address"
        }
      ],
      "name": "isApprovedForAll",
      "outputs": [
        {
          "internalType": "bool",
          "name": "",
          "type": "bool"
        }
      ],
      "stateMutability": "view",
      "type": "function"
    },
    {
      "inputs": [],
      "name": "name",
      "outputs": [
        {
          "internalType": "string",
          "name": "",
          "type": "string"
        }
      ],
      "stateMutability": "view",
      "type": "function"
    },
    {
      "inputs": [
        {
          "internalType": "uint256",
          "name": "tokenId",
          "type": "uint256"
        }
      ],
      "name": "ownerOf",
      "outputs": [
        {
          "internalType": "address",
          "name": "",
          "type": "address"
        }
      ],
      "stateMutability": "view",
      "type": "function"
    },
    {
      "inputs": [],
      "name": "predictionMarket",
      "outputs": [
        {
          "internalType": "contract PredictionMarket",
          "name": "",
          "type": "address"
        }
      ],
      "stateMutability": "view",
      "type": "function"
    },
    {
      "inputs": [],
      "name": "realitioERC20",
      "outputs": [
        {
          "internalType": "contract RealitioERC20",
          "name": "",
          "type": "address"
        }
      ],
      "stateMutability": "view",
      "type": "function"
    },
    {
      "inputs": [
        {
          "internalType": "address",
          "name": "from",
          "type": "address"
        },
        {
          "internalType": "address",
          "name": "to",
          "type": "address"
        },
        {
          "internalType": "uint256",
          "name": "tokenId",
          "type": "uint256"
        }
      ],
      "name": "safeTransferFrom",
      "outputs": [],
      "stateMutability": "nonpayable",
      "type": "function"
    },
    {
      "inputs": [
        {
          "internalType": "address",
          "name": "from",
          "type": "address"
        },
        {
          "internalType": "address",
          "name": "to",
          "type": "address"
        },
        {
          "internalType": "uint256",
          "name": "tokenId",
          "type": "uint256"
        },
        {
          "internalType": "bytes",
          "name": "_data",
          "type": "bytes"
        }
      ],
      "name": "safeTransferFrom",
      "outputs": [],
      "stateMutability": "nonpayable",
      "type": "function"
    },
    {
      "inputs": [
        {
          "internalType": "address",
          "name": "operator",
          "type": "address"
        },
        {
          "internalType": "bool",
          "name": "approved",
          "type": "bool"
        }
      ],
      "name": "setApprovalForAll",
      "outputs": [],
      "stateMutability": "nonpayable",
      "type": "function"
    },
    {
      "inputs": [
        {
          "internalType": "bytes4",
          "name": "interfaceId",
          "type": "bytes4"
        }
      ],
      "name": "supportsInterface",
      "outputs": [
        {
          "internalType": "bool",
          "name": "",
          "type": "bool"
        }
      ],
      "stateMutability": "view",
      "type": "function"
    },
    {
      "inputs": [],
      "name": "symbol",
      "outputs": [
        {
          "internalType": "string",
          "name": "",
          "type": "string"
        }
      ],
      "stateMutability": "view",
      "type": "function"
    },
    {
      "inputs": [
        {
          "internalType": "uint256",
          "name": "index",
          "type": "uint256"
        }
      ],
      "name": "tokenByIndex",
      "outputs": [
        {
          "internalType": "uint256",
          "name": "",
          "type": "uint256"
        }
      ],
      "stateMutability": "view",
      "type": "function"
    },
    {
      "inputs": [
        {
          "internalType": "address",
          "name": "owner",
          "type": "address"
        },
        {
          "internalType": "uint256",
          "name": "index",
          "type": "uint256"
        }
      ],
      "name": "tokenOfOwnerByIndex",
      "outputs": [
        {
          "internalType": "uint256",
          "name": "",
          "type": "uint256"
        }
      ],
      "stateMutability": "view",
      "type": "function"
    },
    {
      "inputs": [
        {
          "internalType": "uint256",
          "name": "tokenId",
          "type": "uint256"
        }
      ],
      "name": "tokenURI",
      "outputs": [
        {
          "internalType": "string",
          "name": "",
          "type": "string"
        }
      ],
      "stateMutability": "view",
      "type": "function"
    },
    {
      "inputs": [
        {
          "internalType": "uint256",
          "name": "",
          "type": "uint256"
        }
      ],
      "name": "tokens",
      "outputs": [
        {
          "internalType": "uint256",
          "name": "",
          "type": "uint256"
        }
      ],
      "stateMutability": "view",
      "type": "function"
    },
    {
      "inputs": [],
      "name": "totalSupply",
      "outputs": [
        {
          "internalType": "uint256",
          "name": "",
          "type": "uint256"
        }
      ],
      "stateMutability": "view",
      "type": "function"
    },
    {
      "inputs": [
        {
          "internalType": "address",
          "name": "from",
          "type": "address"
        },
        {
          "internalType": "address",
          "name": "to",
          "type": "address"
        },
        {
          "internalType": "uint256",
          "name": "tokenId",
          "type": "uint256"
        }
      ],
      "name": "transferFrom",
      "outputs": [],
      "stateMutability": "nonpayable",
      "type": "function"
    },
    {
      "inputs": [
        {
          "internalType": "contract PredictionMarket",
          "name": "_predictionMarket",
          "type": "address"
        },
        {
          "internalType": "contract RealitioERC20",
          "name": "_realitioERC20",
          "type": "address"
        }
      ],
      "name": "setContracts",
      "outputs": [],
      "stateMutability": "nonpayable",
      "type": "function"
    },
    {
      "inputs": [
        {
          "internalType": "string",
          "name": "_baseURI",
          "type": "string"
        }
      ],
      "name": "setBaseURI",
      "outputs": [],
      "stateMutability": "nonpayable",
      "type": "function"
    },
    {
      "inputs": [
        {
          "internalType": "enum Achievements.Action",
          "name": "action",
          "type": "uint8"
        },
        {
          "internalType": "uint256",
          "name": "occurrences",
          "type": "uint256"
        },
        {
          "internalType": "string",
          "name": "content",
          "type": "string"
        }
      ],
      "name": "createAchievement",
      "outputs": [
        {
          "internalType": "uint256",
          "name": "",
          "type": "uint256"
        }
      ],
      "stateMutability": "nonpayable",
      "type": "function"
    },
    {
      "inputs": [
        {
          "internalType": "address",
          "name": "user",
          "type": "address"
        },
        {
          "internalType": "uint256",
          "name": "achievementId",
          "type": "uint256"
        }
      ],
      "name": "hasUserClaimedAchievement",
      "outputs": [
        {
          "internalType": "bool",
          "name": "",
          "type": "bool"
        }
      ],
      "stateMutability": "view",
      "type": "function"
    },
    {
      "inputs": [
        {
          "internalType": "address",
          "name": "user",
          "type": "address"
        },
        {
          "internalType": "uint256",
          "name": "marketId",
          "type": "uint256"
        }
      ],
      "name": "hasUserPlacedPrediction",
      "outputs": [
        {
          "internalType": "bool",
          "name": "",
          "type": "bool"
        }
      ],
      "stateMutability": "view",
      "type": "function"
    },
    {
      "inputs": [
        {
          "internalType": "address",
          "name": "user",
          "type": "address"
        },
        {
          "internalType": "uint256",
          "name": "marketId",
          "type": "uint256"
        }
      ],
      "name": "hasUserAddedLiquidity",
      "outputs": [
        {
          "internalType": "bool",
          "name": "",
          "type": "bool"
        }
      ],
      "stateMutability": "view",
      "type": "function"
    },
    {
      "inputs": [
        {
          "internalType": "address",
          "name": "user",
          "type": "address"
        },
        {
          "internalType": "uint256",
          "name": "marketId",
          "type": "uint256"
        },
        {
          "internalType": "bytes32[]",
          "name": "history_hashes",
          "type": "bytes32[]"
        },
        {
          "internalType": "address[]",
          "name": "addrs",
          "type": "address[]"
        },
        {
          "internalType": "uint256[]",
          "name": "bonds",
          "type": "uint256[]"
        },
        {
          "internalType": "bytes32[]",
          "name": "answers",
          "type": "bytes32[]"
        }
      ],
      "name": "hasUserPlacedBond",
      "outputs": [
        {
          "internalType": "bool",
          "name": "",
          "type": "bool"
        }
      ],
      "stateMutability": "view",
      "type": "function"
    },
    {
      "inputs": [
        {
          "internalType": "address",
          "name": "user",
          "type": "address"
        },
        {
          "internalType": "uint256",
          "name": "marketId",
          "type": "uint256"
        }
      ],
      "name": "hasUserClaimedWinnings",
      "outputs": [
        {
          "internalType": "bool",
          "name": "",
          "type": "bool"
        }
      ],
      "stateMutability": "view",
      "type": "function"
    },
    {
      "inputs": [
        {
          "internalType": "address",
          "name": "user",
          "type": "address"
        },
        {
          "internalType": "uint256",
          "name": "marketId",
          "type": "uint256"
        }
      ],
      "name": "hasUserCreatedMarket",
      "outputs": [
        {
          "internalType": "bool",
          "name": "",
          "type": "bool"
        }
      ],
      "stateMutability": "view",
      "type": "function"
    },
    {
      "inputs": [
        {
          "internalType": "uint256",
          "name": "achievementId",
          "type": "uint256"
        },
        {
          "internalType": "uint256[]",
          "name": "marketIds",
          "type": "uint256[]"
        }
      ],
      "name": "claimAchievement",
      "outputs": [
        {
          "internalType": "uint256",
          "name": "",
          "type": "uint256"
        }
      ],
      "stateMutability": "nonpayable",
      "type": "function"
    },
    {
      "inputs": [
        {
          "internalType": "uint256",
          "name": "achievementId",
          "type": "uint256"
        },
        {
          "internalType": "uint256[]",
          "name": "marketIds",
          "type": "uint256[]"
        },
        {
          "internalType": "uint256[]",
          "name": "lengths",
          "type": "uint256[]"
        },
        {
          "internalType": "bytes32[]",
          "name": "history_hashes",
          "type": "bytes32[]"
        },
        {
          "internalType": "address[]",
          "name": "addrs",
          "type": "address[]"
        },
        {
          "internalType": "uint256[]",
          "name": "bonds",
          "type": "uint256[]"
        },
        {
          "internalType": "bytes32[]",
          "name": "answers",
          "type": "bytes32[]"
        }
      ],
      "name": "claimAchievement",
      "outputs": [],
      "stateMutability": "nonpayable",
      "type": "function"
    },
    {
      "inputs": [],
      "name": "tokenIndex",
      "outputs": [
        {
          "internalType": "uint256",
          "name": "",
          "type": "uint256"
        }
      ],
      "stateMutability": "view",
      "type": "function"
    }
  ],
  "bytecode": "0x60806040526000600d553480156200001657600080fd5b506040516200369138038062003691833981016040819052620000399162000284565b8181620000566301ffc9a760e01b6001600160e01b03620000dd16565b81516200006b90600690602085019062000138565b5080516200008190600790602084019062000138565b506200009d6380ac58cd60e01b6001600160e01b03620000dd16565b620000b8635b5e139f60e01b6001600160e01b03620000dd16565b620000d363780e9d6360e01b6001600160e01b03620000dd16565b5050505062000322565b6001600160e01b03198082161415620001135760405162461bcd60e51b81526004016200010a90620002eb565b60405180910390fd5b6001600160e01b0319166000908152602081905260409020805460ff19166001179055565b828054600181600116156101000203166002900490600052602060002090601f016020900481019282601f106200017b57805160ff1916838001178555620001ab565b82800160010185558215620001ab579182015b82811115620001ab5782518255916020019190600101906200018e565b50620001b9929150620001bd565b5090565b620001da91905b80821115620001b95760008155600101620001c4565b90565b600082601f830112620001ee578081fd5b81516001600160401b038082111562000205578283fd5b6040516020601f8401601f191682018101838111838210171562000227578586fd5b806040525081945083825286818588010111156200024457600080fd5b600092505b8383101562000268578583018101518284018201529182019162000249565b838311156200027a5760008185840101525b5050505092915050565b6000806040838503121562000297578182fd5b82516001600160401b0380821115620002ae578384fd5b620002bc86838701620001dd565b93506020850151915080821115620002d2578283fd5b50620002e185828601620001dd565b9150509250929050565b6020808252601c908201527f4552433136353a20696e76616c696420696e7465726661636520696400000000604082015260600190565b61335f80620003326000396000f3fe608060405234801561001057600080fd5b50600436106101965760003560e01c806301ffc9a71461019b57806306fdde03146101c4578063081812fc146101d9578063095ea7b3146101f95780630c04f83b1461020e57806318160ddd1461022157806323b872dd1461023657806327aed72e146102495780632f745c591461026a57806342842e0e1461027d57806342da0beb14610290578063497e4096146102a35780634f64b2be146102b65780634f6ccce7146102c957806355f804b3146102dc5780636352211e146102ef5780636be5179f146103025780636c0360eb1461031557806370a082311461031d5780638c8b8f4e14610330578063947f53a21461034357806395d89b4114610356578063a22cb4651461035e578063b88d4fde14610371578063c87b56dd14610384578063c8c787ae14610397578063c97c8976146103aa578063c99aea33146103b2578063d55f9273146103ba578063d8952a49146103c2578063def114b6146103d5578063e7c38730146103dd578063e985e9c5146103f0578063ecf5f69b14610403575b600080fd5b6101ae6101a936600461252d565b610416565b6040516101bb9190612898565b60405180910390f35b6101cc610439565b6040516101bb91906128c4565b6101ec6101e736600461261a565b6104d0565b6040516101bb9190612847565b61020c61020736600461239b565b61051c565b005b6101ae61021c36600461239b565b6105b4565b610229610682565b6040516101bb91906128a3565b61020c6102443660046122c5565b610693565b61025c61025736600461261a565b6106cb565b6040516101bb9291906128ac565b61022961027836600461239b565b6106ea565b61020c61028b3660046122c5565b610719565b6101ae61029e36600461239b565b610734565b6102296102b1366004612632565b610762565b6102296102c436600461261a565b6108e5565b6102296102d736600461261a565b6108f7565b61020c6102ea3660046125e8565b610913565b6101ec6102fd36600461261a565b610945565b61020c610310366004612676565b610973565b6101cc610c32565b61022961032b366004612271565b610c93565b6101ae61033e3660046123c6565b610cdc565b6101ae61035136600461239b565b610f0c565b6101cc61107f565b61020c61036c36600461236e565b6110e0565b61020c61037f366004612305565b6111ae565b6101cc61039236600461261a565b6111ed565b6102296103a5366004612577565b611333565b6101ec6113d5565b6102296113e4565b6102296113ea565b61020c6103d0366004612565565b6113f6565b6101ec6114c2565b6101ae6103eb36600461239b565b6114d1565b6101ae6103fe36600461228d565b61157a565b6101ae61041136600461239b565b6115a8565b6001600160e01b0319811660009081526020819052604090205460ff165b919050565b60068054604080516020601f60026000196101006001881615020190951694909404938401819004810282018101909252828152606093909290918301828280156104c55780601f1061049a576101008083540402835291602001916104c5565b820191906000526020600020905b8154815290600101906020018083116104a857829003601f168201915b505050505090505b90565b60006104db82611712565b6105005760405162461bcd60e51b81526004016104f790612d96565b60405180910390fd5b506000908152600460205260409020546001600160a01b031690565b600061052782610945565b9050806001600160a01b0316836001600160a01b0316141561055b5760405162461bcd60e51b81526004016104f790612f5a565b806001600160a01b031661056d611725565b6001600160a01b031614806105895750610589816103fe611725565b6105a55760405162461bcd60e51b81526004016104f790612bb3565b6105af8383611729565b505050565b60006105be612073565b600c5460405163b31eb89560e01b81526001600160a01b039091169063b31eb895906105f090869088906004016131db565b60606040518083038186803b15801561060857600080fd5b505afa15801561061c573d6000803e3d6000fd5b505050506040513d601f19601f82011682018060405250610640919081019061276e565b6020840152808352151590508061065a5750602081015115155b6106765760405162461bcd60e51b81526004016104f7906129ea565b60019150505b92915050565b600061068e6002611797565b905090565b6106a461069e611725565b826117a2565b6106c05760405162461bcd60e51b81526004016104f790612ffe565b6105af838383611827565b600e602052600090815260409020805460019091015460ff9091169082565b6001600160a01b0382166000908152600160205260408120610712908363ffffffff61193516565b9392505050565b6105af838383604051806020016040528060008152506111ae565b6000908152600e602090815260408083206001600160a01b0394909416835260029093019052205460ff1690565b6000828152600e602090815260408083203384526002810190925282205460ff16156107a05760405162461bcd60e51b81526004016104f79061304f565b6002815460ff1660048111156107b257fe5b14156107d05760405162461bcd60e51b81526004016104f790613148565b80600101548351146107f45760405162461bcd60e51b81526004016104f79061296b565b60005b83518110156108d257600084828151811061080e57fe5b602002602001015190506000600481111561082557fe5b835460ff16600481111561083557fe5b141561084b5761084533826105b4565b506108c9565b6001835460ff16600481111561085d57fe5b141561086d5761084533826114d1565b6003835460ff16600481111561087f57fe5b141561088f576108453382610f0c565b6004835460ff1660048111156108a157fe5b14156108b15761084533826115a8565b60405162461bcd60e51b81526004016104f790612ee3565b506001016107f7565b506108dd3385611941565b505092915050565b600f6020526000908152604090205481565b60008061090b60028463ffffffff6119aa16565b509392505050565b61091b610c32565b51156109395760405162461bcd60e51b81526004016104f790612aa2565b610942816119c6565b50565b600061067c826040518060600160405280602981526020016132e1602991396002919063ffffffff6119dd16565b6000878152600e60209081526040808320338452600281019092529091205460ff16156109b25760405162461bcd60e51b81526004016104f79061304f565b6002815460ff1660048111156109c457fe5b146109e15760405162461bcd60e51b81526004016104f790612d46565b6000875111610a025760405162461bcd60e51b81526004016104f790612c55565b8060010154875114610a265760405162461bcd60e51b81526004016104f79061296b565b6000805b8851811015610c1b576000898281518110610a4157fe5b602002602001015190506000898381518110610a5957fe5b60200260200101519050606081604051908082528060200260200182016040528015610a8f578160200160208202803883390190505b509050606082604051908082528060200260200182016040528015610abe578160200160208202803883390190505b509050606083604051908082528060200260200182016040528015610aed578160200160208202803883390190505b509050606084604051908082528060200260200182016040528015610b1c578160200160208202803883390190505b50905060005b85811015610bf9578d8981518110610b3657fe5b6020026020010151858281518110610b4a57fe5b6020026020010181815250508c8981518110610b6257fe5b6020026020010151848281518110610b7657fe5b60200260200101906001600160a01b031690816001600160a01b0316815250508b8981518110610ba257fe5b6020026020010151838281518110610bb657fe5b6020026020010181815250508a8981518110610bce57fe5b6020026020010151828281518110610be257fe5b602090810291909101015260019889019801610b22565b610c07338887878787610cdc565b505060019096019550610a2a945050505050565b50610c26338a611941565b50505050505050505050565b60098054604080516020601f60026000196101006001881615020190951694909404938401819004810282018101909252828152606093909290918301828280156104c55780601f1061049a576101008083540402835291602001916104c5565b60006001600160a01b038216610cbb5760405162461bcd60e51b81526004016104f790612c0b565b6001600160a01b038216600090815260016020526040902061067c90611797565b600c54604051630ebc905560e11b8152600091829182916001600160a01b031690631d7920aa90610d11908b906004016128a3565b60606040518083038186803b158015610d2957600080fd5b505afa158015610d3d573d6000803e3d6000fd5b505050506040513d601f19601f82011682018060405250610d61919081019061276e565b50600b5460405163095addb960e41b81529193506001600160a01b031691506395addb9090610d949084906004016128a3565b6101406040518083038186803b158015610dad57600080fd5b505afa158015610dc1573d6000803e3d6000fd5b505050506040513d601f19601f82011682018060405250610de59190810190612487565b509950600097508796505050505050505b8851811015610ed957888181518110610e0b57fe5b6020026020010151868281518110610e1f57fe5b6020026020010151888381518110610e3357fe5b60200260200101518a8481518110610e4757fe5b60200260200101516000604051602001610e659594939291906127c7565b604051602081830303815290604052805190602001208414610e8657600080fd5b8a6001600160a01b0316888281518110610e9c57fe5b60200260200101516001600160a01b03161415610eb857600191505b888181518110610ec457fe5b60209081029190910101519350600101610df6565b600182151514610efb5760405162461bcd60e51b81526004016104f7906130bb565b5060019a9950505050505050505050565b6000610f16612073565b600c5460405163b31eb89560e01b81526001600160a01b039091169063b31eb89590610f4890869088906004016131db565b60606040518083038186803b158015610f6057600080fd5b505afa158015610f74573d6000803e3d6000fd5b505050506040513d601f19601f82011682018060405250610f98919081019061276e565b6020840152825250600c5460405163bf45572160e01b81526000916001600160a01b03169063bf45572190610fd19087906004016128a3565b60206040518083038186803b158015610fe957600080fd5b505afa158015610ffd573d6000803e3d6000fd5b505050506040513d601f19601f8201168201806040525061102191908101906125d0565b905060008112156110445760405162461bcd60e51b81526004016104f790612f9b565b600082826002811061105257fe5b6020020151116110745760405162461bcd60e51b81526004016104f7906130ff565b506001949350505050565b60078054604080516020601f60026000196101006001881615020190951694909404938401819004810282018101909252828152606093909290918301828280156104c55780601f1061049a576101008083540402835291602001916104c5565b6110e8611725565b6001600160a01b0316826001600160a01b031614156111195760405162461bcd60e51b81526004016104f790612a6f565b8060056000611126611725565b6001600160a01b03908116825260208083019390935260409182016000908120918716808252919093529120805460ff19169215159290921790915561116a611725565b6001600160a01b03167f17307eab39ab6107e8899845ad3d59bd9653f200f220920489ca2b5937696c31836040516111a29190612898565b60405180910390a35050565b6111bf6111b9611725565b836117a2565b6111db5760405162461bcd60e51b81526004016104f790612ffe565b6111e7848484846119ea565b50505050565b60606111f882611712565b6112145760405162461bcd60e51b81526004016104f790612e2b565b60008281526008602090815260409182902080548351601f60026000196101006001861615020190931692909204918201849004840281018401909452808452606093928301828280156112a95780601f1061127e576101008083540402835291602001916112a9565b820191906000526020600020905b81548152906001019060200180831161128c57829003601f168201915b5050505050905060606112ba610c32565b90508051600014156112ce57509050610434565b8151156113005780826040516020016112e8929190612819565b60405160208183030381529060405292505050610434565b8061130a85611a1d565b60405160200161131b929190612819565b60405160208183030381529060405292505050919050565b60008083116113545760405162461bcd60e51b81526004016104f790613197565b600d546000818152600e6020526040902080548690829060ff1916600183600481111561137d57fe5b021790555060018101859055604051339083907ff12dd2cec284c7695fa5ff87a683b64add6d47d7a74e190171798ee5e70a744c906113bd9088906128c4565b60405180910390a35060018101600d55949350505050565b600b546001600160a01b031681565b600d5481565b600061068e600a611ae1565b600c546001600160a01b03161561141f5760405162461bcd60e51b81526004016104f790612cf9565b600b546001600160a01b0316156114485760405162461bcd60e51b81526004016104f790612b69565b6001600160a01b03821661146e5760405162461bcd60e51b81526004016104f790612b32565b6001600160a01b0381166114945760405162461bcd60e51b81526004016104f790612eae565b600c80546001600160a01b039384166001600160a01b031991821617909155600b8054929093169116179055565b600c546001600160a01b031681565b600c5460405163b31eb89560e01b815260009182916001600160a01b039091169063b31eb8959061150890869088906004016131db565b60606040518083038186803b15801561152057600080fd5b505afa158015611534573d6000803e3d6000fd5b505050506040513d601f19601f82011682018060405250611558919081019061276e565b5090915050806106765760405162461bcd60e51b81526004016104f790612f17565b6001600160a01b03918216600090815260056020908152604080832093909416825291909152205460ff1690565b60006001600160a01b0383166115d05760405162461bcd60e51b81526004016104f790612fd1565b600c54604051630ebc905560e11b815260009182916001600160a01b0390911690631d7920aa906116059087906004016128a3565b60606040518083038186803b15801561161d57600080fd5b505afa158015611631573d6000803e3d6000fd5b505050506040513d601f19601f82011682018060405250611655919081019061276e565b50600b5460405163095addb960e41b81529194506001600160a01b031691506395addb90906116889085906004016128a3565b6101406040518083038186803b1580156116a157600080fd5b505afa1580156116b5573d6000803e3d6000fd5b505050506040513d601f19601f820116820180604052506116d99190810190612487565b509698505050506001600160a01b038a811690871614945061107493505050505760405162461bcd60e51b81526004016104f790612e7a565b600061067c60028363ffffffff611ae516565b3390565b600081815260046020526040902080546001600160a01b0319166001600160a01b038416908117909155819061175e82610945565b6001600160a01b03167f8c5be1e5ebec7d5bd14f71427d1e84f3dd0314c0f7b2291e5b200ac8c7c3b92560405160405180910390a45050565b600061067c82611ae1565b60006117ad82611712565b6117c95760405162461bcd60e51b81526004016104f790612ae6565b60006117d483610945565b9050806001600160a01b0316846001600160a01b0316148061180f5750836001600160a01b0316611804846104d0565b6001600160a01b0316145b8061181f575061181f818561157a565b949350505050565b826001600160a01b031661183a82610945565b6001600160a01b0316146118605760405162461bcd60e51b81526004016104f790612de2565b6001600160a01b0382166118865760405162461bcd60e51b81526004016104f790612a2b565b6118918383836105af565b61189c600082611729565b6001600160a01b03831660009081526001602052604090206118c4908263ffffffff611af116565b506001600160a01b03821660009081526001602052604090206118ed908263ffffffff611afd16565b506119006002828463ffffffff611b0916565b5080826001600160a01b0316846001600160a01b031660008051602061330a83398151915260405160405180910390a4505050565b60006107128383611b1f565b600061194d600a611b64565b6000611959600a611ae1565b90506119658482611b6d565b6000818152600f60209081526040808320869055858352600e82528083206001600160a01b03881684526002019091529020805460ff19166001179055905092915050565b60008080806119b98686611c2b565b9097909650945050505050565b80516119d9906009906020840190612091565b5050565b600061181f848484611c87565b6119f5848484611827565b611a0184848484611ce6565b6111e75760405162461bcd60e51b81526004016104f790612919565b606081611a4257506040805180820190915260018152600360fc1b6020820152610434565b8160005b8115611a5a57600101600a82049150611a46565b6060816040519080825280601f01601f191660200182016040528015611a87576020820181803883390190505b50859350905060001982015b8315611ad857600a840660300160f81b82828060019003935081518110611ab657fe5b60200101906001600160f81b031916908160001a905350600a84049350611a93565b50949350505050565b5490565b60006107128383611dcb565b60006107128383611de3565b60006107128383611ea9565b600061181f84846001600160a01b038516611ef3565b81546000908210611b425760405162461bcd60e51b81526004016104f7906128d7565b826000018281548110611b5157fe5b9060005260206000200154905092915050565b80546001019055565b6001600160a01b038216611b935760405162461bcd60e51b81526004016104f790612cc4565b611b9c81611712565b15611bb95760405162461bcd60e51b81526004016104f7906129b4565b611bc5600083836105af565b6001600160a01b0382166000908152600160205260409020611bed908263ffffffff611afd16565b50611c006002828463ffffffff611b0916565b5060405181906001600160a01b0384169060009060008051602061330a833981519152908290a45050565b815460009081908310611c505760405162461bcd60e51b81526004016104f790612c82565b6000846000018481548110611c6157fe5b906000526020600020906002020190508060000154816001015492509250509250929050565b60008281526001840160205260408120548281611cb75760405162461bcd60e51b81526004016104f791906128c4565b50846000016001820381548110611cca57fe5b9060005260206000209060020201600101549150509392505050565b6000611cfa846001600160a01b0316611f8a565b611d065750600161181f565b6060611d94630a85bd0160e11b611d1b611725565b888787604051602401611d31949392919061285b565b604051602081830303815290604052906001600160e01b0319166020820180516001600160e01b0383818316178352505050506040518060600160405280603281526020016132af603291396001600160a01b038816919063ffffffff611f9016565b9050600081806020019051611dac9190810190612549565b6001600160e01b031916630a85bd0160e11b1492505050949350505050565b60009081526001919091016020526040902054151590565b60008181526001830160205260408120548015611e9f5783546000198083019190810190600090879083908110611e1657fe5b9060005260206000200154905080876000018481548110611e3357fe5b600091825260208083209091019290925582815260018981019092526040902090840190558654879080611e6357fe5b6001900381819060005260206000200160009055905586600101600087815260200190815260200160002060009055600194505050505061067c565b600091505061067c565b6000611eb58383611dcb565b611eeb5750815460018181018455600084815260208082209093018490558454848252828601909352604090209190915561067c565b50600061067c565b600082815260018401602052604081205480611f58575050604080518082018252838152602080820184815286546001818101895560008981528481209551600290930290950191825591519082015586548684528188019092529290912055610712565b82856000016001830381548110611f6b57fe5b9060005260206000209060020201600101819055506000915050610712565b3b151590565b606061181f848460008585611fa485611f8a565b611fc05760405162461bcd60e51b81526004016104f790613084565b60006060866001600160a01b03168587604051611fdd91906127fd565b60006040518083038185875af1925050503d806000811461201a576040519150601f19603f3d011682016040523d82523d6000602084013e61201f565b606091505b509150915061202f82828661203a565b979650505050505050565b60608315612049575081610712565b8251156120595782518084602001fd5b8160405162461bcd60e51b81526004016104f791906128c4565b60405180604001604052806002906020820280388339509192915050565b828054600181600116156101000203166002900490600052602060002090601f016020900481019282601f106120d257805160ff19168380011785556120ff565b828001600101855582156120ff579182015b828111156120ff5782518255916020019190600101906120e4565b5061210b92915061210f565b5090565b6104cd91905b8082111561210b5760008155600101612115565b803561067c81613263565b600082601f830112612144578081fd5b813561215761215282613218565b6131f2565b81815291506020808301908481018184028601820187101561217857600080fd5b60005b848110156121a057813561218e81613263565b8452928201929082019060010161217b565b505050505092915050565b600082601f8301126121bb578081fd5b81356121c961215282613218565b8181529150602080830190848101818402860182018710156121ea57600080fd5b60005b848110156121a0578135845292820192908201906001016121ed565b600082601f830112612219578081fd5b81356001600160401b0381111561222e578182fd5b612241601f8201601f19166020016131f2565b915080825283602082850101111561225857600080fd5b8060208401602084013760009082016020015292915050565b600060208284031215612282578081fd5b813561071281613263565b6000806040838503121561229f578081fd5b82356122aa81613263565b915060208301356122ba81613263565b809150509250929050565b6000806000606084860312156122d9578081fd5b83356122e481613263565b925060208401356122f481613263565b929592945050506040919091013590565b6000806000806080858703121561231a578081fd5b843561232581613263565b9350602085013561233581613263565b92506040850135915060608501356001600160401b03811115612356578182fd5b61236287828801612209565b91505092959194509250565b60008060408385031215612380578182fd5b823561238b81613263565b915060208301356122ba81613278565b600080604083850312156123ad578182fd5b82356123b881613263565b946020939093013593505050565b60008060008060008060c087890312156123de578384fd5b6123e88888612129565b95506020870135945060408701356001600160401b038082111561240a578586fd5b6124168a838b016121ab565b9550606089013591508082111561242b578384fd5b6124378a838b01612134565b9450608089013591508082111561244c578384fd5b6124588a838b016121ab565b935060a089013591508082111561246d578283fd5b5061247a89828a016121ab565b9150509295509295509295565b6000806000806000806000806000806101408b8d0312156124a6578788fd5b8a51995060208b01516124b881613263565b60408c01519099506124c98161329c565b60608c01519098506124da8161329c565b60808c01519097506124eb8161329c565b60a08c01519096506124fc81613278565b8095505060c08b0151935060e08b015192506101008b015191506101208b015190509295989b9194979a5092959850565b60006020828403121561253e578081fd5b813561071281613286565b60006020828403121561255a578081fd5b815161071281613286565b6000806040838503121561229f578182fd5b60008060006060848603121561258b578081fd5b833560058110612599578182fd5b92506020840135915060408401356001600160401b038111156125ba578182fd5b6125c686828701612209565b9150509250925092565b6000602082840312156125e1578081fd5b5051919050565b6000602082840312156125f9578081fd5b81356001600160401b0381111561260e578182fd5b61181f84828501612209565b60006020828403121561262b578081fd5b5035919050565b60008060408385031215612644578182fd5b8235915060208301356001600160401b03811115612660578182fd5b61266c858286016121ab565b9150509250929050565b600080600080600080600060e0888a031215612690578081fd5b8735965060208801356001600160401b03808211156126ad578283fd5b6126b98b838c016121ab565b975060408a01359150808211156126ce578283fd5b6126da8b838c016121ab565b965060608a01359150808211156126ef578283fd5b6126fb8b838c016121ab565b955060808a0135915080821115612710578283fd5b61271c8b838c01612134565b945060a08a0135915080821115612731578283fd5b61273d8b838c016121ab565b935060c08a0135915080821115612752578283fd5b5061275f8a828b016121ab565b91505092959891949750929550565b600080600060608486031215612782578081fd5b8351925060208401519150604084015190509250925092565b600081518084526127b3816020860160208601613237565b601f01601f19169290920160200192915050565b94855260208501939093526040840191909152606090811b6001600160601b03191690830152151560f81b607482015260750190565b6000825161280f818460208701613237565b9190910192915050565b6000835161282b818460208801613237565b835190830161283e828260208801613237565b01949350505050565b6001600160a01b0391909116815260200190565b6001600160a01b038581168252841660208201526040810183905260806060820181905260009061288e9083018461279b565b9695505050505050565b901515815260200190565b90815260200190565b60408101600584106128ba57fe5b9281526020015290565b600060208252610712602083018461279b565b60208082526022908201527f456e756d657261626c655365743a20696e646578206f7574206f6620626f756e604082015261647360f01b606082015260800190565b60208082526032908201527f4552433732313a207472616e7366657220746f206e6f6e20455243373231526560408201527131b2b4bb32b91034b6b83632b6b2b73a32b960711b606082015260800190565b60208082526029908201527f4d61726b65747320636f756e7420616e64206f6363757272656e63657320646f6040820152680dc4ee840dac2e8c6d60bb1b606082015260800190565b6020808252601c908201527b115490cdcc8c4e881d1bdad95b88185b1c9958591e481b5a5b9d195960221b604082015260600190565b60208082526021908201527f7573657220646f6573206e6f7420686f6c64206f7574636f6d652073686172656040820152607360f81b606082015260800190565b60208082526024908201527f4552433732313a207472616e7366657220746f20746865207a65726f206164646040820152637265737360e01b606082015260800190565b60208082526019908201527822a9219b99189d1030b8383937bb32903a379031b0b63632b960391b604082015260600190565b60208082526024908201527f626173655552492063616e206f6e6c7920626520696e697469616c697a6564206040820152636f6e636560e01b606082015260800190565b6020808252602c908201527f4552433732313a206f70657261746f7220717565727920666f72206e6f6e657860408201526b34b9ba32b73a103a37b5b2b760a11b606082015260800190565b6020808252601e908201527f5f70726564696374696f6e4d61726b6574206164647265737320697320300000604082015260600190565b6020808252602a908201527f7265616c6974696f45524332302063616e206f6e6c7920626520696e697469616040820152696c697a6564206f6e636560b01b606082015260800190565b60208082526038908201527f4552433732313a20617070726f76652063616c6c6572206973206e6f74206f776040820152771b995c881b9bdc88185c1c1c9bdd995908199bdc88185b1b60421b606082015260800190565b6020808252602a908201527f4552433732313a2062616c616e636520717565727920666f7220746865207a65604082015269726f206164647265737360b01b606082015260800190565b602080825260139082015272139bc81858dd1a5bdb9cc81c1c9bdd9a591959606a1b604082015260600190565b60208082526022908201527f456e756d657261626c654d61703a20696e646578206f7574206f6620626f756e604082015261647360f01b606082015260800190565b6020808252818101527f4552433732313a206d696e7420746f20746865207a65726f2061646472657373604082015260600190565b6020808252602d908201527f70726564696374696f6e4d61726b65742063616e206f6e6c7920626520696e6960408201526c7469616c697a6564206f6e636560981b606082015260800190565b60208082526030908201527f4d6574686f64206f6e6c79207573656420666f7220626f6e6420706c6163656d60408201526f656e7420616368696576656d656e747360801b606082015260800190565b6020808252602c908201527f4552433732313a20617070726f76656420717565727920666f72206e6f6e657860408201526b34b9ba32b73a103a37b5b2b760a11b606082015260800190565b60208082526029908201527f4552433732313a207472616e73666572206f6620746f6b656e2074686174206960408201526839903737ba1037bbb760b91b606082015260800190565b6020808252602f908201527f4552433732314d657461646174613a2055524920717565727920666f72206e6f60408201526e3732bc34b9ba32b73a103a37b5b2b760891b606082015260800190565b6020808252601a90820152791d5cd95c88191a59081b9bdd0818dc99585d19481b585c9ad95d60321b604082015260600190565b6020808252601b908201527a05f7265616c6974696f45524332302061646472657373206973203602c1b604082015260600190565b6020808252601a908201527924b73b30b634b21030b1b434b2bb32b6b2b73a1030b1ba34b7b760311b604082015260600190565b60208082526023908201527f7573657220646f6573206e6f7420686f6c64206c69717569646974792073686160408201526272657360e81b606082015260800190565b60208082526021908201527f4552433732313a20617070726f76616c20746f2063757272656e74206f776e656040820152603960f91b606082015260800190565b6020808252601c908201527b1b585c9ad95d081a5cc81cdd1a5b1b081b9bdd081c995cdbdb1d995960221b604082015260600190565b60208082526013908201527207573657220616464726573732069732030783606c1b604082015260600190565b60208082526031908201527f4552433732313a207472616e736665722063616c6c6572206973206e6f74206f6040820152701ddb995c881b9bdc88185c1c1c9bdd9959607a1b606082015260800190565b6020808252601b908201527a1058da1a595d995b595b9d08185b1c9958591e4818db185a5b5959602a1b604082015260600190565b6020808252601d908201527f416464726573733a2063616c6c20746f206e6f6e2d636f6e7472616374000000604082015260600190565b60208082526024908201527f7573657220686173206e6f7420706c61636564206120626f6e6420696e206d616040820152631c9ad95d60e21b606082015260800190565b60208082526029908201527f7573657220646f6573206e6f7420686f6c642077696e6e696e67206f7574636f6040820152686d652073686172657360b81b606082015260800190565b6020808252602f908201527f4d6574686f64206e6f74207573656420666f7220626f6e6420706c6163656d6560408201526e6e7420616368696576656d656e747360881b606082015260800190565b60208082526024908201527f6f6363757272656e6365732068617320746f20626520677265617465722074686040820152630616e20360e41b606082015260800190565b9182526001600160a01b0316602082015260400190565b6040518181016001600160401b038111828210171561321057600080fd5b604052919050565b60006001600160401b0382111561322d578081fd5b5060209081020190565b60005b8381101561325257818101518382015260200161323a565b838111156111e75750506000910152565b6001600160a01b038116811461094257600080fd5b801515811461094257600080fd5b6001600160e01b03198116811461094257600080fd5b63ffffffff8116811461094257600080fdfe4552433732313a207472616e7366657220746f206e6f6e20455243373231526563656976657220696d706c656d656e7465724552433732313a206f776e657220717565727920666f72206e6f6e6578697374656e7420746f6b656eddf252ad1be2c89b69c2b068fc378daa952ba7f163c4a11628f55a4df523b3efa264697066735822122083c8a681c2f5e884dafe32f7d82a2686645ddaaad672eb8d85e7f81a84d67a2b64736f6c63430006020033",
  "source": "pragma solidity ^0.6.0;\npragma experimental ABIEncoderV2;\n\nimport \"./RealitioERC20.sol\";\nimport \"./PredictionMarket.sol\";\n\n// openzeppelin imports\nimport \"@openzeppelin/contracts/math/SafeMath.sol\";\nimport \"@openzeppelin/contracts/token/ERC721/ERC721.sol\";\nimport \"@openzeppelin/contracts/utils/Counters.sol\";\n\n/// @title Prediction Market Achievements Contract\ncontract Achievements is ERC721 {\n  using Counters for Counters.Counter;\n  Counters.Counter private _tokenIds;\n\n  /// @dev protocol is immutable and has no ownership\n  RealitioERC20 public realitioERC20;\n  PredictionMarket public predictionMarket;\n\n  event LogNewAchievement(\n    uint256 indexed achievementId,\n    address indexed user,\n    string content\n  );\n\n  // Buy: Claim through market[x].outcome[y].shares.holders[msg.sender] > 0\n  // AddLiquidity: Claim through market[x].liquidityShares[msg.sender] > 0\n  // CreateMarket: RealitioERC20 question arbitrator == msg.sender\n  // ClaimWinnings: Claim through market[x].outcome[y].shares.holders[msg.sender] > 0 && y == market.resolution.outcomeId\n  // Bond: Use RealitioERC20 historyHashes logic value and ensure addrs.includes(msg.sender)\n  enum Action {\n    Buy,\n    AddLiquidity,\n    Bond,\n    ClaimWinnings,\n    CreateMarket\n  }\n\n  struct Achievement {\n    Action action;\n    uint256 occurrences;\n    mapping(address => bool) claims;\n  }\n\n  uint256 public achievementIndex = 0;\n  mapping(uint256 => Achievement) public achievements;\n  mapping(uint256 => uint256) public tokens; // tokenId => achievementId\n\n  constructor(string memory token, string memory ticker) public ERC721(token, ticker) {}\n\n  function setContracts(PredictionMarket _predictionMarket, RealitioERC20 _realitioERC20) public {\n    require(address(predictionMarket) == address(0), \"predictionMarket can only be initialized once\");\n    require(address(realitioERC20) == address(0), \"realitioERC20 can only be initialized once\");\n\n    require(address(_predictionMarket) != address(0), \"_predictionMarket address is 0\");\n    require(address(_realitioERC20) != address(0), \"_realitioERC20 address is 0\");\n\n    predictionMarket = _predictionMarket;\n    realitioERC20 = _realitioERC20;\n  }\n\n  function setBaseURI(string memory _baseURI) public {\n    require(bytes(baseURI()).length == 0, \"baseURI can only be initialized once\");\n\n    _setBaseURI(_baseURI);\n  }\n\n  function createAchievement(Action action, uint256 occurrences, string memory content) public returns (uint256) {\n    require(occurrences > 0, \"occurrences has to be greater than 0\");\n    uint256 achievementId = achievementIndex;\n    Achievement storage achievement = achievements[achievementId];\n\n    achievement.action = action;\n    achievement.occurrences = occurrences;\n    emit LogNewAchievement(achievementId, msg.sender, content);\n    achievementIndex = achievementId + 1;\n    return achievementId;\n  }\n\n  function hasUserClaimedAchievement(address user, uint256 achievementId) public view returns (bool) {\n    Achievement storage achievement = achievements[achievementId];\n\n    return achievement.claims[user];\n  }\n\n  function hasUserPlacedPrediction(address user, uint256 marketId) public view returns (bool) {\n    uint256[2] memory outcomeShares;\n    (, outcomeShares[0], outcomeShares[1]) = predictionMarket.getUserMarketShares(marketId, user);\n\n    require(outcomeShares[0] > 0 || outcomeShares[1] > 0, \"user does not hold outcome shares\");\n\n    return true;\n  }\n\n  function hasUserAddedLiquidity(address user, uint256 marketId) public view returns (bool) {\n    uint256 liquidityShares;\n    (liquidityShares, , ) = predictionMarket.getUserMarketShares(marketId, user);\n\n    require(liquidityShares > 0, \"user does not hold liquidity shares\");\n\n    return true;\n  }\n\n  function hasUserPlacedBond(\n    address user,\n    uint256 marketId,\n    bytes32[] memory history_hashes,\n    address[] memory addrs,\n    uint256[] memory bonds,\n    bytes32[] memory answers\n  ) public view returns (bool) {\n    bytes32 last_history_hash;\n    bytes32 questionId;\n    (, questionId, ) = predictionMarket.getMarketAltData(marketId);\n    (, , , , , , , , last_history_hash, ) = realitioERC20.questions(questionId);\n    bool bonded;\n\n    uint256 i;\n    for (i = 0; i < history_hashes.length; i++) {\n      require(\n        last_history_hash == keccak256(abi.encodePacked(history_hashes[i], answers[i], bonds[i], addrs[i], false))\n      );\n\n      if (addrs[i] == user) bonded = true;\n\n      last_history_hash = history_hashes[i];\n    }\n\n    require(bonded == true, \"user has not placed a bond in market\");\n\n    return true;\n  }\n\n  function hasUserClaimedWinnings(address user, uint256 marketId) public view returns (bool) {\n    uint256[2] memory outcomeShares;\n    (, outcomeShares[0], outcomeShares[1]) = predictionMarket.getUserMarketShares(marketId, user);\n    int256 resolvedOutcomeId = predictionMarket.getMarketResolvedOutcome(marketId);\n\n    require(resolvedOutcomeId >= 0, \"market is still not resolved\");\n    require(outcomeShares[uint256(resolvedOutcomeId)] > 0, \"user does not hold winning outcome shares\");\n\n    return true;\n  }\n\n  function hasUserCreatedMarket(address user, uint256 marketId) public view returns (bool) {\n    require(user != address(0), \"user address is 0x0\");\n\n    bytes32 questionId;\n    address arbitrator;\n    (, questionId, ) = predictionMarket.getMarketAltData(marketId);\n    (, arbitrator, , , , , , , , ) = realitioERC20.questions(questionId);\n\n    require(user == arbitrator, \"user did not create market\");\n\n    return true;\n  }\n\n  function claimAchievement(uint256 achievementId, uint256[] memory marketIds) public returns (uint256) {\n    Achievement storage achievement = achievements[achievementId];\n\n    require(achievement.claims[msg.sender] == false, \"Achievement already claimed\");\n    require(achievement.action != Action.Bond, \"Method not used for bond placement achievements\");\n    require(marketIds.length == achievement.occurrences, \"Markets count and occurrences don't match\");\n\n    for (uint256 i = 0; i < marketIds.length; i++) {\n      uint256 marketId = marketIds[i];\n\n      if (achievement.action == Action.Buy) {\n        hasUserPlacedPrediction(msg.sender, marketId);\n      } else if (achievement.action == Action.AddLiquidity) {\n        hasUserAddedLiquidity(msg.sender, marketId);\n      } else if (achievement.action == Action.ClaimWinnings) {\n        hasUserClaimedWinnings(msg.sender, marketId);\n      } else if (achievement.action == Action.CreateMarket) {\n        hasUserCreatedMarket(msg.sender, marketId);\n      } else {\n        revert(\"Invalid achievement action\");\n      }\n    }\n\n    mintAchievement(msg.sender, achievementId);\n  }\n\n  function claimAchievement(\n    uint256 achievementId,\n    uint256[] memory marketIds,\n    uint256[] memory lengths,\n    bytes32[] memory history_hashes,\n    address[] memory addrs,\n    uint256[] memory bonds,\n    bytes32[] memory answers\n  ) public {\n    Achievement storage achievement = achievements[achievementId];\n\n    require(achievement.claims[msg.sender] == false, \"Achievement already claimed\");\n    require(achievement.action == Action.Bond, \"Method only used for bond placement achievements\");\n    require(marketIds.length > 0, \"No actions provided\");\n    require(marketIds.length == achievement.occurrences, \"Markets count and occurrences don't match\");\n\n    uint256 qi;\n\n    for (uint256 i = 0; i < marketIds.length; i++) {\n      uint256 marketId = marketIds[i];\n\n      uint256 ln = lengths[i];\n      bytes32[] memory hh = new bytes32[](ln);\n      address[] memory ad = new address[](ln);\n      uint256[] memory bo = new uint256[](ln);\n      bytes32[] memory an = new bytes32[](ln);\n      uint256 j;\n      for (j = 0; j < ln; j++) {\n        hh[j] = history_hashes[qi];\n        ad[j] = addrs[qi];\n        bo[j] = bonds[qi];\n        an[j] = answers[qi];\n        qi++;\n      }\n      hasUserPlacedBond(msg.sender, marketId, hh, ad, bo, an);\n    }\n\n    mintAchievement(msg.sender, achievementId);\n  }\n\n  function mintAchievement(address user, uint256 achievementId) private returns (uint256) {\n    _tokenIds.increment();\n\n    uint256 tokenId = _tokenIds.current();\n    _mint(user, tokenId);\n    tokens[tokenId] = achievementId;\n\n    Achievement storage achievement = achievements[achievementId];\n    achievement.claims[user] = true;\n\n    return tokenId;\n  }\n\n  function tokenIndex() public view returns (uint256) {\n    return _tokenIds.current();\n  }\n}\n",
  "sourcePath": "/Users/ricardomarques/dev/workspace/polkamarkets/bepro-js/contracts/Achievements.sol",
  "compiler": {
    "name": "solc",
    "version": "0.6.2+commit.bacdbe57.Emscripten.clang"
  },
  "schemaVersion": "3.4.4",
  "updatedAt": "2022-03-18T16:17:13.027Z",
  "devdoc": {
    "methods": {
      "approve(address,uint256)": {
        "details": "See {IERC721-approve}."
      },
      "balanceOf(address)": {
        "details": "See {IERC721-balanceOf}."
      },
      "baseURI()": {
        "details": "Returns the base URI set via {_setBaseURI}. This will be automatically added as a prefix in {tokenURI} to each token's URI, or to the token ID if no specific URI is set for that token ID."
      },
      "getApproved(uint256)": {
        "details": "See {IERC721-getApproved}."
      },
      "isApprovedForAll(address,address)": {
        "details": "See {IERC721-isApprovedForAll}."
      },
      "name()": {
        "details": "See {IERC721Metadata-name}."
      },
      "ownerOf(uint256)": {
        "details": "See {IERC721-ownerOf}."
      },
      "safeTransferFrom(address,address,uint256)": {
        "details": "See {IERC721-safeTransferFrom}."
      },
      "safeTransferFrom(address,address,uint256,bytes)": {
        "details": "See {IERC721-safeTransferFrom}."
      },
      "setApprovalForAll(address,bool)": {
        "details": "See {IERC721-setApprovalForAll}."
      },
      "supportsInterface(bytes4)": {
        "details": "See {IERC165-supportsInterface}.     * Time complexity O(1), guaranteed to always use less than 30 000 gas."
      },
      "symbol()": {
        "details": "See {IERC721Metadata-symbol}."
      },
      "tokenByIndex(uint256)": {
        "details": "See {IERC721Enumerable-tokenByIndex}."
      },
      "tokenOfOwnerByIndex(address,uint256)": {
        "details": "See {IERC721Enumerable-tokenOfOwnerByIndex}."
      },
      "tokenURI(uint256)": {
        "details": "See {IERC721Metadata-tokenURI}."
      },
      "totalSupply()": {
        "details": "See {IERC721Enumerable-totalSupply}."
      },
      "transferFrom(address,address,uint256)": {
        "details": "See {IERC721-transferFrom}."
      }
    },
    "title": "Prediction Market Achievements Contract"
  },
  "userdoc": {
    "methods": {}
  }
}