{
  "contractName": "BEPRONetwork",
  "abi": [
    {
      "inputs": [],
      "stateMutability": "nonpayable",
      "type": "constructor"
    },
    {
      "anonymous": false,
      "inputs": [
        {
          "indexed": true,
          "internalType": "uint256",
          "name": "id",
          "type": "uint256"
        },
        {
          "indexed": true,
          "internalType": "address[]",
          "name": "addresses",
          "type": "address[]"
        }
      ],
      "name": "CloseIssue",
      "type": "event"
    },
    {
      "anonymous": false,
      "inputs": [
        {
          "indexed": true,
          "internalType": "uint256",
          "name": "id",
          "type": "uint256"
        },
        {
          "indexed": true,
          "internalType": "address",
          "name": "opener",
          "type": "address"
        },
        {
          "indexed": true,
          "internalType": "uint256",
          "name": "amount",
          "type": "uint256"
        }
      ],
      "name": "OpenIssue",
      "type": "event"
    },
    {
      "anonymous": false,
      "inputs": [
        {
          "indexed": true,
          "internalType": "address",
          "name": "previousOwner",
          "type": "address"
        },
        {
          "indexed": true,
          "internalType": "address",
          "name": "newOwner",
          "type": "address"
        }
      ],
      "name": "OwnershipTransferred",
      "type": "event"
    },
    {
      "anonymous": false,
      "inputs": [
        {
          "indexed": false,
          "internalType": "address",
          "name": "account",
          "type": "address"
        }
      ],
      "name": "Paused",
      "type": "event"
    },
    {
      "anonymous": false,
      "inputs": [
        {
          "indexed": false,
          "internalType": "address",
          "name": "account",
          "type": "address"
        }
      ],
      "name": "Unpaused",
      "type": "event"
    },
    {
      "inputs": [],
      "name": "beproToken",
      "outputs": [
        {
          "internalType": "contract _IERC20",
          "name": "",
          "type": "address"
        }
      ],
      "stateMutability": "view",
      "type": "function"
    },
    {
      "inputs": [],
      "name": "closedIdsCount",
      "outputs": [
        {
          "internalType": "uint256",
          "name": "",
          "type": "uint256"
        }
      ],
      "stateMutability": "view",
      "type": "function"
    },
    {
      "inputs": [],
      "name": "feeAddress",
      "outputs": [
        {
          "internalType": "address",
          "name": "",
          "type": "address"
        }
      ],
      "stateMutability": "view",
      "type": "function"
    },
    {
      "inputs": [],
      "name": "feeShare",
      "outputs": [
        {
          "internalType": "uint256",
          "name": "",
          "type": "uint256"
        }
      ],
      "stateMutability": "view",
      "type": "function"
    },
    {
      "inputs": [],
      "name": "incrementIssueID",
      "outputs": [
        {
          "internalType": "uint256",
          "name": "",
          "type": "uint256"
        }
      ],
      "stateMutability": "view",
      "type": "function"
    },
    {
      "inputs": [
        {
          "internalType": "uint256",
          "name": "",
          "type": "uint256"
        }
      ],
      "name": "issues",
      "outputs": [
        {
          "internalType": "uint256",
          "name": "_id",
          "type": "uint256"
        },
        {
          "internalType": "uint256",
          "name": "beproStaked",
          "type": "uint256"
        },
        {
          "internalType": "address",
          "name": "issueGenerator",
          "type": "address"
        },
        {
          "internalType": "bool",
          "name": "finalized",
          "type": "bool"
        }
      ],
      "stateMutability": "view",
      "type": "function"
    },
    {
      "inputs": [
        {
          "internalType": "address",
          "name": "",
          "type": "address"
        },
        {
          "internalType": "uint256",
          "name": "",
          "type": "uint256"
        }
      ],
      "name": "myIssues",
      "outputs": [
        {
          "internalType": "uint256",
          "name": "",
          "type": "uint256"
        }
      ],
      "stateMutability": "view",
      "type": "function"
    },
    {
      "inputs": [
        {
          "internalType": "uint256",
          "name": "",
          "type": "uint256"
        }
      ],
      "name": "openIssueMapIndex",
      "outputs": [
        {
          "internalType": "uint256",
          "name": "",
          "type": "uint256"
        }
      ],
      "stateMutability": "view",
      "type": "function"
    },
    {
      "inputs": [],
      "name": "owner",
      "outputs": [
        {
          "internalType": "address",
          "name": "",
          "type": "address"
        }
      ],
      "stateMutability": "view",
      "type": "function"
    },
    {
      "inputs": [],
      "name": "paused",
      "outputs": [
        {
          "internalType": "bool",
          "name": "",
          "type": "bool"
        }
      ],
      "stateMutability": "view",
      "type": "function"
    },
    {
      "inputs": [],
      "name": "totalStaked",
      "outputs": [
        {
          "internalType": "uint256",
          "name": "",
          "type": "uint256"
        }
      ],
      "stateMutability": "view",
      "type": "function"
    },
    {
      "inputs": [
        {
          "internalType": "address",
          "name": "newOwner",
          "type": "address"
        }
      ],
      "name": "transferOwnership",
      "outputs": [],
      "stateMutability": "nonpayable",
      "type": "function"
    },
    {
      "inputs": [
        {
          "internalType": "uint256",
          "name": "_beproAmount",
          "type": "uint256"
        }
      ],
      "name": "openIssue",
      "outputs": [],
      "stateMutability": "nonpayable",
      "type": "function"
    },
    {
      "inputs": [
        {
          "internalType": "uint256",
          "name": "_issueId",
          "type": "uint256"
        },
        {
          "internalType": "uint256",
          "name": "_newbeproAmount",
          "type": "uint256"
        }
      ],
      "name": "updateIssue",
      "outputs": [],
      "stateMutability": "nonpayable",
      "type": "function"
    },
    {
      "inputs": [
        {
          "internalType": "uint256",
          "name": "_issueID",
          "type": "uint256"
        },
        {
          "internalType": "address[]",
          "name": "_prAddresses",
          "type": "address[]"
        },
        {
          "internalType": "uint256[]",
          "name": "_prAmounts",
          "type": "uint256[]"
        }
      ],
      "name": "closeIssue",
      "outputs": [],
      "stateMutability": "nonpayable",
      "type": "function"
    },
    {
      "inputs": [
        {
          "internalType": "address",
          "name": "_address",
          "type": "address"
        }
      ],
      "name": "getIssuesByAddress",
      "outputs": [
        {
          "internalType": "uint256[]",
          "name": "",
          "type": "uint256[]"
        }
      ],
      "stateMutability": "nonpayable",
      "type": "function"
    },
    {
      "inputs": [
        {
          "internalType": "uint256",
          "name": "_issueID",
          "type": "uint256"
        }
      ],
      "name": "getIssueById",
      "outputs": [
        {
          "internalType": "uint256",
          "name": "",
          "type": "uint256"
        },
        {
          "internalType": "uint256",
          "name": "",
          "type": "uint256"
        },
        {
          "internalType": "address",
          "name": "",
          "type": "address"
        },
        {
          "internalType": "bool",
          "name": "",
          "type": "bool"
        },
        {
          "internalType": "address[]",
          "name": "",
          "type": "address[]"
        },
        {
          "internalType": "uint256[]",
          "name": "",
          "type": "uint256[]"
        }
      ],
      "stateMutability": "nonpayable",
      "type": "function"
    },
    {
      "inputs": [
        {
          "internalType": "address",
          "name": "_newAddress",
          "type": "address"
        }
      ],
      "name": "changeBEPROAddress",
      "outputs": [],
      "stateMutability": "nonpayable",
      "type": "function"
    },
    {
      "inputs": [
        {
          "internalType": "address",
          "name": "_newAddress",
          "type": "address"
        }
      ],
      "name": "editFeeAddress",
      "outputs": [],
      "stateMutability": "nonpayable",
      "type": "function"
    },
    {
      "inputs": [
        {
          "internalType": "uint256",
          "name": "_feeShare",
          "type": "uint256"
        }
      ],
      "name": "editFeeShare",
      "outputs": [],
      "stateMutability": "nonpayable",
      "type": "function"
    },
    {
      "inputs": [
        {
          "internalType": "address",
          "name": "_newContract",
          "type": "address"
        }
      ],
      "name": "upgradeContract",
      "outputs": [],
      "stateMutability": "nonpayable",
      "type": "function"
    }
  ],
  "bytecode": "0x608060405273cf3c8be2e2c42331da80ef210e9b1b307c03d36a600160006101000a81548173ffffffffffffffffffffffffffffffffffffffff021916908373ffffffffffffffffffffffffffffffffffffffff16021790555060016002556000600355600060045573cf3c8be2e2c42331da80ef210e9b1b307c03d36a600560006101000a81548173ffffffffffffffffffffffffffffffffffffffff021916908373ffffffffffffffffffffffffffffffffffffffff16021790555060026006553480156100ce57600080fd5b5060008060006101000a81548160ff02191690831515021790555033600060016101000a81548173ffffffffffffffffffffffffffffffffffffffff021916908373ffffffffffffffffffffffffffffffffffffffff160217905550612586806101396000396000f3fe608060405234801561001057600080fd5b5060043610610154576000357c010000000000000000000000000000000000000000000000000000000090048063729911a8116100d5578063b2bb95f511610099578063b2bb95f514610671578063c98244d01461069f578063e113e452146107b6578063e9ade90e14610800578063eb2c02231461081e578063f2fde38b1461086257610154565b8063729911a814610467578063817b1cd214610485578063833bdcec146104a357806388632e28146105f95780638da5cb5b1461062757610154565b80635c975abb1161011c5780635c975abb146103085780635d795bd21461032a57806362f61e62146103c35780636ba7fa821461040557806370c9c7911461042357610154565b806304e15de51461015957806305563309146101e05780631ac63d9214610218578063412753581461027a5780635ac203cf146102c4575b600080fd5b6101856004803603602081101561016f57600080fd5b81019080803590602001909291905050506108a6565b604051808581526020018481526020018373ffffffffffffffffffffffffffffffffffffffff1673ffffffffffffffffffffffffffffffffffffffff1681526020018215151515815260200194505050505060405180910390f35b610216600480360360408110156101f657600080fd5b810190808035906020019092919080359060200190929190505050610903565b005b6102646004803603604081101561022e57600080fd5b81019080803573ffffffffffffffffffffffffffffffffffffffff16906020019092919080359060200190929190505050610e7a565b6040518082815260200191505060405180910390f35b610282610ea8565b604051808273ffffffffffffffffffffffffffffffffffffffff1673ffffffffffffffffffffffffffffffffffffffff16815260200191505060405180910390f35b610306600480360360208110156102da57600080fd5b81019080803573ffffffffffffffffffffffffffffffffffffffff169060200190929190505050610ece565b005b610310610f6c565b604051808215151515815260200191505060405180910390f35b61036c6004803603602081101561034057600080fd5b81019080803573ffffffffffffffffffffffffffffffffffffffff169060200190929190505050610f82565b6040518080602001828103825283818151815260200191508051906020019060200280838360005b838110156103af578082015181840152602081019050610394565b505050509050019250505060405180910390f35b6103ef600480360360208110156103d957600080fd5b8101908080359060200190929190505050611019565b6040518082815260200191505060405180910390f35b61040d611031565b6040518082815260200191505060405180910390f35b6104656004803603602081101561043957600080fd5b81019080803573ffffffffffffffffffffffffffffffffffffffff169060200190929190505050611037565b005b61046f6110d5565b6040518082815260200191505060405180910390f35b61048d6110db565b6040518082815260200191505060405180910390f35b6105f7600480360360608110156104b957600080fd5b8101908080359060200190929190803590602001906401000000008111156104e057600080fd5b8201836020820111156104f257600080fd5b8035906020019184602083028401116401000000008311171561051457600080fd5b919080806020026020016040519081016040528093929190818152602001838360200280828437600081840152601f19601f8201169050808301925050505050505091929192908035906020019064010000000081111561057457600080fd5b82018360208201111561058657600080fd5b803590602001918460208302840111640100000000831117156105a857600080fd5b919080806020026020016040519081016040528093929190818152602001838360200280828437600081840152601f19601f8201169050808301925050505050505091929192905050506110e1565b005b6106256004803603602081101561060f57600080fd5b8101908080359060200190929190505050611952565b005b61062f6119b6565b604051808273ffffffffffffffffffffffffffffffffffffffff1673ffffffffffffffffffffffffffffffffffffffff16815260200191505060405180910390f35b61069d6004803603602081101561068757600080fd5b81019080803590602001909291905050506119dc565b005b6106cb600480360360208110156106b557600080fd5b8101908080359060200190929190505050611e0c565b604051808781526020018681526020018573ffffffffffffffffffffffffffffffffffffffff1673ffffffffffffffffffffffffffffffffffffffff168152602001841515151581526020018060200180602001838103835285818151815260200191508051906020019060200280838360005b8381101561075a57808201518184015260208101905061073f565b50505050905001838103825284818151815260200191508051906020019060200280838360005b8381101561079c578082015181840152602081019050610781565b505050509050019850505050505050505060405180910390f35b6107be611f65565b604051808273ffffffffffffffffffffffffffffffffffffffff1673ffffffffffffffffffffffffffffffffffffffff16815260200191505060405180910390f35b610808611f8b565b6040518082815260200191505060405180910390f35b6108606004803603602081101561083457600080fd5b81019080803573ffffffffffffffffffffffffffffffffffffffff169060200190929190505050611f91565b005b6108a46004803603602081101561087857600080fd5b81019080803573ffffffffffffffffffffffffffffffffffffffff169060200190929190505050612068565b005b60076020528060005260406000206000915090508060000154908060010154908060020160009054906101000a900473ffffffffffffffffffffffffffffffffffffffff16908060020160149054906101000a900460ff16905084565b61090b610f6c565b1561097e576040517f08c379a00000000000000000000000000000000000000000000000000000000081526004018080602001828103825260108152602001807f5061757361626c653a207061757365640000000000000000000000000000000081525060200191505060405180910390fd5b600060019054906101000a900473ffffffffffffffffffffffffffffffffffffffff1673ffffffffffffffffffffffffffffffffffffffff163373ffffffffffffffffffffffffffffffffffffffff16146109d857600080fd5b600060076000848152602001908152602001600020600101541415610a65576040517f08c379a00000000000000000000000000000000000000000000000000000000081526004018080602001828103825260128152602001807f49737375652068617320746f206578697374000000000000000000000000000081525060200191505060405180910390fd5b60006007600084815260200190815260200160002060010154905081600760008581526020019081526020016000206001018190555080821115610c8d57600160009054906101000a900473ffffffffffffffffffffffffffffffffffffffff1673ffffffffffffffffffffffffffffffffffffffff166323b872dd3330610af685876121bc90919063ffffffff16565b6040518463ffffffff167c0100000000000000000000000000000000000000000000000000000000028152600401808473ffffffffffffffffffffffffffffffffffffffff1673ffffffffffffffffffffffffffffffffffffffff1681526020018373ffffffffffffffffffffffffffffffffffffffff1673ffffffffffffffffffffffffffffffffffffffff1681526020018281526020019350505050602060405180830381600087803b158015610bae57600080fd5b505af1158015610bc2573d6000803e3d6000fd5b505050506040513d6020811015610bd857600080fd5b8101908080519060200190929190505050610c5b576040517f08c379a000000000000000000000000000000000000000000000000000000000815260040180806020018281038252600f8152602001807f4e6565647320416c6c6f77616e6365000000000000000000000000000000000081525060200191505060405180910390fd5b610c82610c7182846121bc90919063ffffffff16565b60045461223f90919063ffffffff16565b600481905550610e75565b600160009054906101000a900473ffffffffffffffffffffffffffffffffffffffff1673ffffffffffffffffffffffffffffffffffffffff1663a9059cbb6007600086815260200190815260200160002060020160009054906101000a900473ffffffffffffffffffffffffffffffffffffffff16610d1585856121bc90919063ffffffff16565b6040518363ffffffff167c0100000000000000000000000000000000000000000000000000000000028152600401808373ffffffffffffffffffffffffffffffffffffffff1673ffffffffffffffffffffffffffffffffffffffff16815260200182815260200192505050602060405180830381600087803b158015610d9a57600080fd5b505af1158015610dae573d6000803e3d6000fd5b505050506040513d6020811015610dc457600080fd5b8101908080519060200190929190505050610e47576040517f08c379a00000000000000000000000000000000000000000000000000000000081526004018080602001828103825260168152602001807f5472616e73666572206e6f742073756365737366756c0000000000000000000081525060200191505060405180910390fd5b610e6e610e5d83836121bc90919063ffffffff16565b6004546121bc90919063ffffffff16565b6004819055505b505050565b60086020528160005260406000208181548110610e9357fe5b90600052602060002001600091509150505481565b600560009054906101000a900473ffffffffffffffffffffffffffffffffffffffff1681565b600060019054906101000a900473ffffffffffffffffffffffffffffffffffffffff1673ffffffffffffffffffffffffffffffffffffffff163373ffffffffffffffffffffffffffffffffffffffff1614610f2857600080fd5b80600160006101000a81548173ffffffffffffffffffffffffffffffffffffffff021916908373ffffffffffffffffffffffffffffffffffffffff16021790555050565b60008060009054906101000a900460ff16905090565b6060600860008373ffffffffffffffffffffffffffffffffffffffff1673ffffffffffffffffffffffffffffffffffffffff16815260200190815260200160002080548060200260200160405190810160405280929190818152602001828054801561100d57602002820191906000526020600020905b815481526020019060010190808311610ff9575b50505050509050919050565b60096020528060005260406000206000915090505481565b60035481565b600060019054906101000a900473ffffffffffffffffffffffffffffffffffffffff1673ffffffffffffffffffffffffffffffffffffffff163373ffffffffffffffffffffffffffffffffffffffff161461109157600080fd5b80600560006101000a81548173ffffffffffffffffffffffffffffffffffffffff021916908373ffffffffffffffffffffffffffffffffffffffff16021790555050565b60025481565b60045481565b6110e9610f6c565b1561115c576040517f08c379a00000000000000000000000000000000000000000000000000000000081526004018080602001828103825260108152602001807f5061757361626c653a207061757365640000000000000000000000000000000081525060200191505060405180910390fd5b600060019054906101000a900473ffffffffffffffffffffffffffffffffffffffff1673ffffffffffffffffffffffffffffffffffffffff163373ffffffffffffffffffffffffffffffffffffffff16146111b657600080fd5b600060076000858152602001908152602001600020600001541415611243576040517f08c379a00000000000000000000000000000000000000000000000000000000081526004018080602001828103825260128152602001807f49737375652068617320746f206578697374000000000000000000000000000081525060200191505060405180910390fd5b600015156007600085815260200190815260200160002060020160149054906101000a900460ff161515146112e0576040517f08c379a00000000000000000000000000000000000000000000000000000000081526004018080602001828103825260168152602001807f49737375652068617320746f206265206f70656e65640000000000000000000081525060200191505060405180910390fd5b815181511461133a576040517f08c379a000000000000000000000000000000000000000000000000000000000815260040180806020018281038252602581526020018061252c6025913960400191505060405180910390fd5b60016007600085815260200190815260200160002060020160146101000a81548160ff021916908315150217905550816007600085815260200190815260200160002060030190805190602001906113939291906122c7565b50806007600085815260200190815260200160002060040190805190602001906113be929190612351565b5060006064600654600760008781526020019081526020016000206001015402816113e557fe5b04905060008090505b835181101561143d5761142e606460065460640385848151811061140e57fe5b6020026020010151028161141e57fe5b048361223f90919063ffffffff16565b915080806001019150506113ee565b50600760008581526020019081526020016000206001015481146114c9576040517f08c379a00000000000000000000000000000000000000000000000000000000081526004018080602001828103825260118152602001807f546f74616c7320646f6e74206d6174636800000000000000000000000000000081525060200191505060405180910390fd5b600160009054906101000a900473ffffffffffffffffffffffffffffffffffffffff1673ffffffffffffffffffffffffffffffffffffffff1663a9059cbb600560009054906101000a900473ffffffffffffffffffffffffffffffffffffffff166064600654600760008a815260200190815260200160002060010154028161154e57fe5b046040518363ffffffff167c0100000000000000000000000000000000000000000000000000000000028152600401808373ffffffffffffffffffffffffffffffffffffffff1673ffffffffffffffffffffffffffffffffffffffff16815260200182815260200192505050602060405180830381600087803b1580156115d457600080fd5b505af11580156115e8573d6000803e3d6000fd5b505050506040513d60208110156115fe57600080fd5b8101908080519060200190929190505050611681576040517f08c379a000000000000000000000000000000000000000000000000000000000815260040180806020018281038252600f8152602001807f48617320746f207472616e73666572000000000000000000000000000000000081525060200191505060405180910390fd5b60008090505b83518110156118bf57600860008583815181106116a057fe5b602002602001015173ffffffffffffffffffffffffffffffffffffffff1673ffffffffffffffffffffffffffffffffffffffff168152602001908152602001600020859080600181540180825580915050600190039060005260206000200160009091909190915055600160009054906101000a900473ffffffffffffffffffffffffffffffffffffffff1673ffffffffffffffffffffffffffffffffffffffff1663a9059cbb85838151811061175357fe5b6020026020010151606460065460640387868151811061176f57fe5b6020026020010151028161177f57fe5b046040518363ffffffff167c0100000000000000000000000000000000000000000000000000000000028152600401808373ffffffffffffffffffffffffffffffffffffffff1673ffffffffffffffffffffffffffffffffffffffff16815260200182815260200192505050602060405180830381600087803b15801561180557600080fd5b505af1158015611819573d6000803e3d6000fd5b505050506040513d602081101561182f57600080fd5b81019080805190602001909291905050506118b2576040517f08c379a000000000000000000000000000000000000000000000000000000000815260040180806020018281038252600f8152602001807f48617320746f207472616e73666572000000000000000000000000000000000081525060200191505060405180910390fd5b8080600101915050611687565b506118d6600160035461223f90919063ffffffff16565b6003819055508260405180828051906020019060200280838360005b8381101561190d5780820151818401526020810190506118f2565b505050509050019150506040518091039020847fe0fefd90a21895c6200eb1c21c7d45e46e60f9c9746e654f2dd61336b0aa1ab760405160405180910390a350505050565b600060019054906101000a900473ffffffffffffffffffffffffffffffffffffffff1673ffffffffffffffffffffffffffffffffffffffff163373ffffffffffffffffffffffffffffffffffffffff16146119ac57600080fd5b8060068190555050565b600060019054906101000a900473ffffffffffffffffffffffffffffffffffffffff1681565b6119e4610f6c565b15611a57576040517f08c379a00000000000000000000000000000000000000000000000000000000081526004018080602001828103825260108152602001807f5061757361626c653a207061757365640000000000000000000000000000000081525060200191505060405180910390fd5b611a5f61239e565b6002548160000181815250508181602001818152505033816040019073ffffffffffffffffffffffffffffffffffffffff16908173ffffffffffffffffffffffffffffffffffffffff1681525050600081606001901515908115158152505080600760006002548152602001908152602001600020600082015181600001556020820151816001015560408201518160020160006101000a81548173ffffffffffffffffffffffffffffffffffffffff021916908373ffffffffffffffffffffffffffffffffffffffff16021790555060608201518160020160146101000a81548160ff0219169083151502179055506080820151816003019080519060200190611b6b9291906123ec565b5060a0820151816004019080519060200190611b88929190612476565b50905050600860003373ffffffffffffffffffffffffffffffffffffffff1673ffffffffffffffffffffffffffffffffffffffff1681526020019081526020016000206002549080600181540180825580915050600190039060005260206000200160009091909190915055600160009054906101000a900473ffffffffffffffffffffffffffffffffffffffff1673ffffffffffffffffffffffffffffffffffffffff166323b872dd3330856040518463ffffffff167c0100000000000000000000000000000000000000000000000000000000028152600401808473ffffffffffffffffffffffffffffffffffffffff1673ffffffffffffffffffffffffffffffffffffffff1681526020018373ffffffffffffffffffffffffffffffffffffffff1673ffffffffffffffffffffffffffffffffffffffff1681526020018281526020019350505050602060405180830381600087803b158015611ced57600080fd5b505af1158015611d01573d6000803e3d6000fd5b505050506040513d6020811015611d1757600080fd5b8101908080519060200190929190505050611d9a576040517f08c379a000000000000000000000000000000000000000000000000000000000815260040180806020018281038252600f8152602001807f4e6565647320416c6c6f77616e6365000000000000000000000000000000000081525060200191505060405180910390fd5b611daf8260045461223f90919063ffffffff16565b600481905550600160025401600281905550813373ffffffffffffffffffffffffffffffffffffffff166002547f6aecdf6df15bd1371e1740df5f88ad1066c22c0506751320acc231234f2c26c560405160405180910390a45050565b6000806000806060806000600760008981526020019081526020016000209050806000015481600101548260020160009054906101000a900473ffffffffffffffffffffffffffffffffffffffff168360020160149054906101000a900460ff16846003018560040181805480602002602001604051908101604052809291908181526020018280548015611ef657602002820191906000526020600020905b8160009054906101000a900473ffffffffffffffffffffffffffffffffffffffff1673ffffffffffffffffffffffffffffffffffffffff1681526020019060010190808311611eac575b5050505050915080805480602002602001604051908101604052809291908181526020018280548015611f4857602002820191906000526020600020905b815481526020019060010190808311611f34575b505050505090509650965096509650965096505091939550919395565b600160009054906101000a900473ffffffffffffffffffffffffffffffffffffffff1681565b60065481565b600060019054906101000a900473ffffffffffffffffffffffffffffffffffffffff1673ffffffffffffffffffffffffffffffffffffffff163373ffffffffffffffffffffffffffffffffffffffff1614611feb57600080fd5b611ff3610f6c565b612065576040517f08c379a00000000000000000000000000000000000000000000000000000000081526004018080602001828103825260148152602001807f5061757361626c653a206e6f742070617573656400000000000000000000000081525060200191505060405180910390fd5b50565b600060019054906101000a900473ffffffffffffffffffffffffffffffffffffffff1673ffffffffffffffffffffffffffffffffffffffff163373ffffffffffffffffffffffffffffffffffffffff16146120c257600080fd5b600073ffffffffffffffffffffffffffffffffffffffff168173ffffffffffffffffffffffffffffffffffffffff1614156120fc57600080fd5b8073ffffffffffffffffffffffffffffffffffffffff16600060019054906101000a900473ffffffffffffffffffffffffffffffffffffffff1673ffffffffffffffffffffffffffffffffffffffff167f8be0079c531659141344cd1fd0a4f28419497f9722a3daafe3b4186f6b6457e060405160405180910390a380600060016101000a81548173ffffffffffffffffffffffffffffffffffffffff021916908373ffffffffffffffffffffffffffffffffffffffff16021790555050565b600082821115612234576040517f08c379a000000000000000000000000000000000000000000000000000000000815260040180806020018281038252601e8152602001807f536166654d6174683a207375627472616374696f6e206f766572666c6f77000081525060200191505060405180910390fd5b818303905092915050565b6000808284019050838110156122bd576040517f08c379a000000000000000000000000000000000000000000000000000000000815260040180806020018281038252601b8152602001807f536166654d6174683a206164646974696f6e206f766572666c6f77000000000081525060200191505060405180910390fd5b8091505092915050565b828054828255906000526020600020908101928215612340579160200282015b8281111561233f5782518260006101000a81548173ffffffffffffffffffffffffffffffffffffffff021916908373ffffffffffffffffffffffffffffffffffffffff160217905550916020019190600101906122e7565b5b50905061234d91906124c3565b5090565b82805482825590600052602060002090810192821561238d579160200282015b8281111561238c578251825591602001919060010190612371565b5b50905061239a9190612506565b5090565b6040518060c001604052806000815260200160008152602001600073ffffffffffffffffffffffffffffffffffffffff16815260200160001515815260200160608152602001606081525090565b828054828255906000526020600020908101928215612465579160200282015b828111156124645782518260006101000a81548173ffffffffffffffffffffffffffffffffffffffff021916908373ffffffffffffffffffffffffffffffffffffffff1602179055509160200191906001019061240c565b5b50905061247291906124c3565b5090565b8280548282559060005260206000209081019282156124b2579160200282015b828111156124b1578251825591602001919060010190612496565b5b5090506124bf9190612506565b5090565b61250391905b808211156124ff57600081816101000a81549073ffffffffffffffffffffffffffffffffffffffff0219169055506001016124c9565b5090565b90565b61252891905b8082111561252457600081600090555060010161250c565b5090565b9056fe416d6f756e74732068617320746f20657175616c20616464726573736573206c656e677468a26469706673582212200efe8f286a3e459ba10132569358beb877bbc1ae5c1c935bdd0368f992241b0f64736f6c63430006020033",
  "source": "pragma solidity >=0.6.0;\n\nimport \"@openzeppelin/contracts/token/ERC20/ERC20.sol\";\nimport \"@openzeppelin/contracts/utils/Pausable.sol\";\nimport \"../utils/Ownable.sol\";\n\n\n/**\n * @dev Interface of the ERC20 standard + mint & burn\n */\ninterface _IERC20 is IERC20  {\n\n    /**\n    * @dev Mint Function\n    */\n    function mint(address account, uint256 amount) external;\n\n    /**\n    * @dev Burn Function\n    */\n    function burn(address account, uint256 amount) external;\n\n}\n\n/**\n * @title BEPRO Network Contract\n */\ncontract BEPRONetwork is Pausable, Ownable{\n    using SafeMath for uint256;\n\n    _IERC20 public beproToken = _IERC20(0xCF3C8Be2e2C42331Da80EF210e9B1b307C03d36A);\n\n    uint256 constant private year = 365 days;\n    uint256 public incrementIssueID = 1;\n    uint256 public closedIdsCount = 0;\n    uint256 public totalStaked = 0;\n    address public feeAddress = 0xCF3C8Be2e2C42331Da80EF210e9B1b307C03d36A;\n    uint256 public feeShare = 2; // 2%\n\n    mapping(uint256 => Issue) public issues; /* Distribution object */\n    mapping(address => uint256[]) public myIssues; /* Address Based Subcription */\n    mapping(uint256 => uint256) public openIssueMapIndex; /* Distribution object */\n\n     struct Issue {\n        uint256 _id;\n        uint256 beproStaked;\n        address issueGenerator;\n        bool finalized;\n        address[] prAddresses;\n        uint256[] prAmounts;\n    }\n\n    event OpenIssue(uint256 indexed id, address indexed opener, uint256 indexed amount);\n    event CloseIssue(uint256 indexed id, address[] indexed addresses);\n\n    constructor() public { }\n\n    /**\n     * @dev open an Issue with bepro owned\n     */\n    function openIssue(uint256 _beproAmount) public whenNotPaused {\n        // Open Issue\n        Issue memory issue;\n        issue._id = incrementIssueID;\n        issue.beproStaked = _beproAmount;\n        issue.issueGenerator = msg.sender;\n        issue.finalized = false;\n        issues[incrementIssueID] = issue;\n        myIssues[msg.sender].push(incrementIssueID);\n        // Stake bepro\n        require(beproToken.transferFrom(msg.sender, address(this), _beproAmount), \"Needs Allowance\");\n        totalStaked = totalStaked.add(_beproAmount);\n        incrementIssueID = incrementIssueID + 1;\n        emit OpenIssue(incrementIssueID, msg.sender, _beproAmount);\n    }\n\n    /**\n     * @dev update an Issue with bepro owned\n     */\n    function updateIssue(uint256 _issueId, uint256 _newbeproAmount) public whenNotPaused onlyOwner{\n        require(issues[_issueId].beproStaked != 0, \"Issue has to exist\");\n        uint256 previousAmount = issues[_issueId].beproStaked;\n        // Update Issue\n        issues[_issueId].beproStaked = _newbeproAmount;\n        // Stake bepro\n        if(_newbeproAmount > previousAmount){\n            require(beproToken.transferFrom(msg.sender, address(this), _newbeproAmount.sub(previousAmount)), \"Needs Allowance\");\n            totalStaked = totalStaked.add(_newbeproAmount.sub(previousAmount));\n        }else{\n            require(beproToken.transfer(issues[_issueId].issueGenerator, previousAmount.sub(_newbeproAmount)), \"Transfer not sucessful\");\n            totalStaked = totalStaked.sub(previousAmount.sub(_newbeproAmount));\n        }\n\n    }\n\n    /**\n     * @dev Owner finalizes the issue and distributes the reputation or rejects the PR\n     * @param _issueID issue id (mapping with github)\n     * @param _prAddresses PR Address\n     * @param _prAmounts PR Amounts\n     */\n    function closeIssue(uint256 _issueID, address[] memory _prAddresses, uint256[] memory _prAmounts) public whenNotPaused onlyOwner {\n        require(issues[_issueID]._id != 0 , \"Issue has to exist\");\n        require(issues[_issueID].finalized == false, \"Issue has to be opened\");\n        require(_prAmounts.length == _prAddresses.length, \"Amounts has to equal addresses length\");\n\n        // Closes the issue\n        issues[_issueID].finalized = true;\n        issues[_issueID].prAddresses = _prAddresses;\n        issues[_issueID].prAmounts = _prAmounts;\n        uint256 total = ((issues[_issueID].beproStaked * feeShare) / 100); // Fee + 0\n\n        for(uint i = 0; i < _prAddresses.length; i++){\n            total = total.add((_prAmounts[i] * (100-feeShare)) / 100);\n        }\n\n        require(total == issues[_issueID].beproStaked, \"Totals dont match\");\n\n        // Fee Transfer\n        require(beproToken.transfer(feeAddress, (issues[_issueID].beproStaked * feeShare) / 100), \"Has to transfer\");\n        \n        // Generate Reputation Tokens\n        for(uint i = 0; i < _prAddresses.length; i++){\n            myIssues[_prAddresses[i]].push(_issueID);\n            require(beproToken.transfer(_prAddresses[i], (_prAmounts[i] * (100-feeShare)) / 100), \"Has to transfer\");\n        }\n\n        closedIdsCount = closedIdsCount.add(1);\n\n        emit CloseIssue(_issueID, _prAddresses);\n    }\n\n    function getIssuesByAddress(address _address) public returns (uint256[] memory){\n        return myIssues[_address];\n    }\n    \n    function getIssueById(uint256 _issueID) public returns (uint256, uint256, address, bool, address[] memory, uint256[] memory){\n        Issue storage issue = issues[_issueID];\n        return (issue._id, issue.beproStaked, issue.issueGenerator, issue.finalized, issue.prAddresses, issue.prAmounts);\n    }\n\n    /**\n     * @dev Change BEPRO Token Address (Upgrade)\n     */\n    function changeBEPROAddress(address _newAddress) public onlyOwner {\n        beproToken = _IERC20(_newAddress);\n    }\n\n    /**\n     * @dev Change Fee Address\n    */\n    function editFeeAddress(address _newAddress) public onlyOwner {\n        feeAddress = _newAddress;\n    }\n\n    /**\n     * @dev Change Share Fee Amount\n    */\n    function editFeeShare(uint256 _feeShare) public onlyOwner {\n        feeShare = _feeShare;\n    }\n\n    /**\n     * @dev Upgrade Contract Version\n     */\n    function upgradeContract(address _newContract) public onlyOwner whenPaused {\n        //To be done\n    }\n}\n",
  "sourcePath": "/Users/ruipedro/Desktop/projects/Bepro/@bepro-js/contracts/bepro/Network.sol",
  "compiler": {
    "name": "solc",
    "version": "0.6.2+commit.bacdbe57.Emscripten.clang"
  },
  "schemaVersion": "3.0.20",
  "updatedAt": "2021-04-22T18:29:29.369Z",
  "devdoc": {
    "methods": {
      "changeBEPROAddress(address)": {
        "details": "Change BEPRO Token Address (Upgrade)"
      },
      "closeIssue(uint256,address[],uint256[])": {
        "details": "Owner finalizes the issue and distributes the reputation or rejects the PR",
        "params": {
          "_issueID": "issue id (mapping with github)",
          "_prAddresses": "PR Address",
          "_prAmounts": "PR Amounts"
        }
      },
      "editFeeAddress(address)": {
        "details": "Change Fee Address"
      },
      "editFeeShare(uint256)": {
        "details": "Change Share Fee Amount"
      },
      "openIssue(uint256)": {
        "details": "open an Issue with bepro owned"
      },
      "paused()": {
        "details": "Returns true if the contract is paused, and false otherwise."
      },
      "transferOwnership(address)": {
        "details": "Allows the current owner to transfer control of the contract to a newOwner.",
        "params": {
          "newOwner": "The address to transfer ownership to."
        }
      },
      "updateIssue(uint256,uint256)": {
        "details": "update an Issue with bepro owned"
      },
      "upgradeContract(address)": {
        "details": "Upgrade Contract Version"
      }
    },
    "title": "BEPRO Network Contract"
  },
  "userdoc": {
    "methods": {}
  }
}