{
  "contractName": "BEPRONetwork",
  "abi": [
    {
      "inputs": [
        {
          "internalType": "address",
          "name": "_tokenAddress",
          "type": "address"
        }
      ],
      "stateMutability": "nonpayable",
      "type": "constructor"
    },
    {
      "anonymous": false,
      "inputs": [
        {
          "indexed": true,
          "internalType": "uint256",
          "name": "id",
          "type": "uint256"
        },
        {
          "indexed": true,
          "internalType": "uint256",
          "name": "votes",
          "type": "uint256"
        },
        {
          "indexed": true,
          "internalType": "address",
          "name": "approver",
          "type": "address"
        }
      ],
      "name": "ApproveIssue",
      "type": "event"
    },
    {
      "anonymous": false,
      "inputs": [
        {
          "indexed": true,
          "internalType": "uint256",
          "name": "id",
          "type": "uint256"
        },
        {
          "indexed": true,
          "internalType": "uint256",
          "name": "mergeID",
          "type": "uint256"
        },
        {
          "indexed": false,
          "internalType": "uint256",
          "name": "votes",
          "type": "uint256"
        },
        {
          "indexed": true,
          "internalType": "address",
          "name": "approver",
          "type": "address"
        }
      ],
      "name": "ApproveMerge",
      "type": "event"
    },
    {
      "anonymous": false,
      "inputs": [
        {
          "indexed": true,
          "internalType": "uint256",
          "name": "id",
          "type": "uint256"
        },
        {
          "indexed": true,
          "internalType": "uint256",
          "name": "mergeID",
          "type": "uint256"
        },
        {
          "indexed": true,
          "internalType": "address[]",
          "name": "addresses",
          "type": "address[]"
        }
      ],
      "name": "CloseIssue",
      "type": "event"
    },
    {
      "anonymous": false,
      "inputs": [
        {
          "indexed": true,
          "internalType": "uint256",
          "name": "id",
          "type": "uint256"
        },
        {
          "indexed": true,
          "internalType": "uint256",
          "name": "mergeID",
          "type": "uint256"
        },
        {
          "indexed": true,
          "internalType": "address",
          "name": "creator",
          "type": "address"
        }
      ],
      "name": "MergeProposalCreated",
      "type": "event"
    },
    {
      "anonymous": false,
      "inputs": [
        {
          "indexed": true,
          "internalType": "uint256",
          "name": "id",
          "type": "uint256"
        },
        {
          "indexed": true,
          "internalType": "address",
          "name": "opener",
          "type": "address"
        },
        {
          "indexed": true,
          "internalType": "uint256",
          "name": "amount",
          "type": "uint256"
        }
      ],
      "name": "OpenIssue",
      "type": "event"
    },
    {
      "anonymous": false,
      "inputs": [
        {
          "indexed": true,
          "internalType": "address",
          "name": "previousOwner",
          "type": "address"
        },
        {
          "indexed": true,
          "internalType": "address",
          "name": "newOwner",
          "type": "address"
        }
      ],
      "name": "OwnershipTransferred",
      "type": "event"
    },
    {
      "anonymous": false,
      "inputs": [
        {
          "indexed": false,
          "internalType": "address",
          "name": "account",
          "type": "address"
        }
      ],
      "name": "Paused",
      "type": "event"
    },
    {
      "anonymous": false,
      "inputs": [
        {
          "indexed": false,
          "internalType": "address",
          "name": "account",
          "type": "address"
        }
      ],
      "name": "Unpaused",
      "type": "event"
    },
    {
      "inputs": [],
      "name": "COUNCIL_BEPRO_AMOUNT",
      "outputs": [
        {
          "internalType": "uint256",
          "name": "",
          "type": "uint256"
        }
      ],
      "stateMutability": "view",
      "type": "function"
    },
    {
      "inputs": [],
      "name": "beproToken",
      "outputs": [
        {
          "internalType": "contract _IERC20",
          "name": "",
          "type": "address"
        }
      ],
      "stateMutability": "view",
      "type": "function"
    },
    {
      "inputs": [],
      "name": "beproVotesStaked",
      "outputs": [
        {
          "internalType": "uint256",
          "name": "",
          "type": "uint256"
        }
      ],
      "stateMutability": "view",
      "type": "function"
    },
    {
      "inputs": [],
      "name": "closedIdsCount",
      "outputs": [
        {
          "internalType": "uint256",
          "name": "",
          "type": "uint256"
        }
      ],
      "stateMutability": "view",
      "type": "function"
    },
    {
      "inputs": [],
      "name": "feeAddress",
      "outputs": [
        {
          "internalType": "address",
          "name": "",
          "type": "address"
        }
      ],
      "stateMutability": "view",
      "type": "function"
    },
    {
      "inputs": [],
      "name": "feeShare",
      "outputs": [
        {
          "internalType": "uint256",
          "name": "",
          "type": "uint256"
        }
      ],
      "stateMutability": "view",
      "type": "function"
    },
    {
      "inputs": [],
      "name": "incrementIssueID",
      "outputs": [
        {
          "internalType": "uint256",
          "name": "",
          "type": "uint256"
        }
      ],
      "stateMutability": "view",
      "type": "function"
    },
    {
      "inputs": [
        {
          "internalType": "uint256",
          "name": "",
          "type": "uint256"
        }
      ],
      "name": "issues",
      "outputs": [
        {
          "internalType": "uint256",
          "name": "_id",
          "type": "uint256"
        },
        {
          "internalType": "uint256",
          "name": "beproStaked",
          "type": "uint256"
        },
        {
          "internalType": "address",
          "name": "issueGenerator",
          "type": "address"
        },
        {
          "internalType": "uint256",
          "name": "votesForApprove",
          "type": "uint256"
        },
        {
          "internalType": "uint256",
          "name": "mergeIDIncrement",
          "type": "uint256"
        },
        {
          "internalType": "bool",
          "name": "finalized",
          "type": "bool"
        }
      ],
      "stateMutability": "view",
      "type": "function"
    },
    {
      "inputs": [],
      "name": "mergeCreatorFeeShare",
      "outputs": [
        {
          "internalType": "uint256",
          "name": "",
          "type": "uint256"
        }
      ],
      "stateMutability": "view",
      "type": "function"
    },
    {
      "inputs": [
        {
          "internalType": "address",
          "name": "",
          "type": "address"
        },
        {
          "internalType": "uint256",
          "name": "",
          "type": "uint256"
        }
      ],
      "name": "myIssues",
      "outputs": [
        {
          "internalType": "uint256",
          "name": "",
          "type": "uint256"
        }
      ],
      "stateMutability": "view",
      "type": "function"
    },
    {
      "inputs": [],
      "name": "owner",
      "outputs": [
        {
          "internalType": "address",
          "name": "",
          "type": "address"
        }
      ],
      "stateMutability": "view",
      "type": "function"
    },
    {
      "inputs": [],
      "name": "paused",
      "outputs": [
        {
          "internalType": "bool",
          "name": "",
          "type": "bool"
        }
      ],
      "stateMutability": "view",
      "type": "function"
    },
    {
      "inputs": [],
      "name": "percentageNeededForApprove",
      "outputs": [
        {
          "internalType": "uint256",
          "name": "",
          "type": "uint256"
        }
      ],
      "stateMutability": "view",
      "type": "function"
    },
    {
      "inputs": [],
      "name": "percentageNeededForMerge",
      "outputs": [
        {
          "internalType": "uint256",
          "name": "",
          "type": "uint256"
        }
      ],
      "stateMutability": "view",
      "type": "function"
    },
    {
      "inputs": [],
      "name": "totalStaked",
      "outputs": [
        {
          "internalType": "uint256",
          "name": "",
          "type": "uint256"
        }
      ],
      "stateMutability": "view",
      "type": "function"
    },
    {
      "inputs": [
        {
          "internalType": "address",
          "name": "newOwner",
          "type": "address"
        }
      ],
      "name": "transferOwnership",
      "outputs": [],
      "stateMutability": "nonpayable",
      "type": "function"
    },
    {
      "inputs": [
        {
          "internalType": "address",
          "name": "",
          "type": "address"
        }
      ],
      "name": "voters",
      "outputs": [
        {
          "internalType": "uint256",
          "name": "votesDelegatedByOthers",
          "type": "uint256"
        },
        {
          "internalType": "uint256",
          "name": "beproLocked",
          "type": "uint256"
        }
      ],
      "stateMutability": "view",
      "type": "function"
    },
    {
      "inputs": [
        {
          "internalType": "uint256",
          "name": "",
          "type": "uint256"
        }
      ],
      "name": "votersArray",
      "outputs": [
        {
          "internalType": "address",
          "name": "",
          "type": "address"
        }
      ],
      "stateMutability": "view",
      "type": "function"
    },
    {
      "inputs": [
        {
          "internalType": "uint256",
          "name": "_beproAmount",
          "type": "uint256"
        }
      ],
      "name": "lockVotes",
      "outputs": [],
      "stateMutability": "nonpayable",
      "type": "function"
    },
    {
      "inputs": [
        {
          "internalType": "uint256",
          "name": "_beproAmount",
          "type": "uint256"
        },
        {
          "internalType": "address",
          "name": "_from",
          "type": "address"
        }
      ],
      "name": "unlockVotes",
      "outputs": [],
      "stateMutability": "nonpayable",
      "type": "function"
    },
    {
      "inputs": [
        {
          "internalType": "uint256",
          "name": "_issueID",
          "type": "uint256"
        }
      ],
      "name": "approveIssue",
      "outputs": [],
      "stateMutability": "nonpayable",
      "type": "function"
    },
    {
      "inputs": [
        {
          "internalType": "uint256",
          "name": "_issueID",
          "type": "uint256"
        },
        {
          "internalType": "uint256",
          "name": "_mergeID",
          "type": "uint256"
        }
      ],
      "name": "approveMerge",
      "outputs": [],
      "stateMutability": "nonpayable",
      "type": "function"
    },
    {
      "inputs": [
        {
          "internalType": "uint256",
          "name": "_issueID",
          "type": "uint256"
        }
      ],
      "name": "isIssueApproved",
      "outputs": [
        {
          "internalType": "bool",
          "name": "",
          "type": "bool"
        }
      ],
      "stateMutability": "nonpayable",
      "type": "function"
    },
    {
      "inputs": [
        {
          "internalType": "uint256",
          "name": "_issueID",
          "type": "uint256"
        },
        {
          "internalType": "uint256",
          "name": "_mergeID",
          "type": "uint256"
        }
      ],
      "name": "isIssueMergeable",
      "outputs": [
        {
          "internalType": "bool",
          "name": "",
          "type": "bool"
        }
      ],
      "stateMutability": "nonpayable",
      "type": "function"
    },
    {
      "inputs": [
        {
          "internalType": "uint256",
          "name": "_issueID",
          "type": "uint256"
        },
        {
          "internalType": "uint256",
          "name": "_mergeID",
          "type": "uint256"
        }
      ],
      "name": "isMergeTheOneWithMoreVotes",
      "outputs": [
        {
          "internalType": "bool",
          "name": "",
          "type": "bool"
        }
      ],
      "stateMutability": "nonpayable",
      "type": "function"
    },
    {
      "inputs": [
        {
          "internalType": "uint256",
          "name": "_beproAmount",
          "type": "uint256"
        }
      ],
      "name": "openIssue",
      "outputs": [],
      "stateMutability": "nonpayable",
      "type": "function"
    },
    {
      "inputs": [
        {
          "internalType": "uint256",
          "name": "_issueId",
          "type": "uint256"
        },
        {
          "internalType": "uint256",
          "name": "_newbeproAmount",
          "type": "uint256"
        }
      ],
      "name": "updateIssue",
      "outputs": [],
      "stateMutability": "nonpayable",
      "type": "function"
    },
    {
      "inputs": [
        {
          "internalType": "uint256",
          "name": "_issueID",
          "type": "uint256"
        },
        {
          "internalType": "address[]",
          "name": "_prAddresses",
          "type": "address[]"
        },
        {
          "internalType": "uint256[]",
          "name": "_prAmounts",
          "type": "uint256[]"
        }
      ],
      "name": "proposeIssueMerge",
      "outputs": [],
      "stateMutability": "nonpayable",
      "type": "function"
    },
    {
      "inputs": [
        {
          "internalType": "uint256",
          "name": "_issueID",
          "type": "uint256"
        },
        {
          "internalType": "uint256",
          "name": "_mergeID",
          "type": "uint256"
        }
      ],
      "name": "closeIssue",
      "outputs": [],
      "stateMutability": "nonpayable",
      "type": "function"
    },
    {
      "inputs": [
        {
          "internalType": "address",
          "name": "_address",
          "type": "address"
        }
      ],
      "name": "getIssuesByAddress",
      "outputs": [
        {
          "internalType": "uint256[]",
          "name": "",
          "type": "uint256[]"
        }
      ],
      "stateMutability": "nonpayable",
      "type": "function"
    },
    {
      "inputs": [
        {
          "internalType": "address",
          "name": "_address",
          "type": "address"
        }
      ],
      "name": "getVotesByAddress",
      "outputs": [
        {
          "internalType": "uint256",
          "name": "",
          "type": "uint256"
        }
      ],
      "stateMutability": "nonpayable",
      "type": "function"
    },
    {
      "inputs": [
        {
          "internalType": "uint256",
          "name": "_issueID",
          "type": "uint256"
        }
      ],
      "name": "getIssueById",
      "outputs": [
        {
          "internalType": "uint256",
          "name": "",
          "type": "uint256"
        },
        {
          "internalType": "uint256",
          "name": "",
          "type": "uint256"
        },
        {
          "internalType": "address",
          "name": "",
          "type": "address"
        },
        {
          "internalType": "uint256",
          "name": "",
          "type": "uint256"
        },
        {
          "internalType": "uint256",
          "name": "",
          "type": "uint256"
        },
        {
          "internalType": "bool",
          "name": "",
          "type": "bool"
        }
      ],
      "stateMutability": "nonpayable",
      "type": "function"
    },
    {
      "inputs": [
        {
          "internalType": "uint256",
          "name": "_issueID",
          "type": "uint256"
        },
        {
          "internalType": "uint256",
          "name": "_mergeId",
          "type": "uint256"
        }
      ],
      "name": "getMergeById",
      "outputs": [
        {
          "internalType": "uint256",
          "name": "",
          "type": "uint256"
        },
        {
          "internalType": "uint256",
          "name": "",
          "type": "uint256"
        },
        {
          "internalType": "address[]",
          "name": "",
          "type": "address[]"
        },
        {
          "internalType": "uint256[]",
          "name": "",
          "type": "uint256[]"
        },
        {
          "internalType": "address",
          "name": "",
          "type": "address"
        }
      ],
      "stateMutability": "nonpayable",
      "type": "function"
    },
    {
      "inputs": [
        {
          "internalType": "address",
          "name": "_newAddress",
          "type": "address"
        }
      ],
      "name": "changeBEPROAddress",
      "outputs": [],
      "stateMutability": "nonpayable",
      "type": "function"
    },
    {
      "inputs": [
        {
          "internalType": "address",
          "name": "_newAddress",
          "type": "address"
        }
      ],
      "name": "editFeeAddress",
      "outputs": [],
      "stateMutability": "nonpayable",
      "type": "function"
    },
    {
      "inputs": [
        {
          "internalType": "uint256",
          "name": "_feeShare",
          "type": "uint256"
        }
      ],
      "name": "editFeeShare",
      "outputs": [],
      "stateMutability": "nonpayable",
      "type": "function"
    },
    {
      "inputs": [
        {
          "internalType": "address",
          "name": "_newContract",
          "type": "address"
        }
      ],
      "name": "upgradeContract",
      "outputs": [],
      "stateMutability": "nonpayable",
      "type": "function"
    }
  ],
  "bytecode": "0x608060405260016002556000600355600060045573cf3c8be2e2c42331da80ef210e9b1b307c03d36a600560006101000a81548173ffffffffffffffffffffffffffffffffffffffff021916908373ffffffffffffffffffffffffffffffffffffffff16021790555060026006556001600755601460085560146009556000600a5563017d7840600b5534801561009557600080fd5b5060405162004f1038038062004f10833981810160405260208110156100ba57600080fd5b810190808051906020019092919050505060008060006101000a81548160ff02191690831515021790555033600060016101000a81548173ffffffffffffffffffffffffffffffffffffffff021916908373ffffffffffffffffffffffffffffffffffffffff16021790555080600160006101000a81548173ffffffffffffffffffffffffffffffffffffffff021916908373ffffffffffffffffffffffffffffffffffffffff16021790555050614d9880620001786000396000f3fe608060405234801561001057600080fd5b5060043610610244576000357c010000000000000000000000000000000000000000000000000000000090048063817b1cd21161014d578063bdfd4524116100d5578063e113e45211610099578063e113e45214610ca3578063e2b6b3d914610ced578063e9ade90e14610d0b578063eb2c022314610d29578063f2fde38b14610d6d57610244565b8063bdfd452414610a2e578063c576315514610a4c578063c881bbe814610ba2578063c98244d014610bc0578063d8d7fa2014610c5557610244565b80638ccaf9681161011c5780638ccaf968146109015780638da5cb5b1461091f578063953030c514610969578063a3ec138d146109a1578063b2bb95f514610a0057610244565b8063817b1cd21461083757806381cc4a8a14610855578063839408a51461088357806388632e28146108d357610244565b806356036543116101d05780636106e4eb1161019f5780636106e4eb146106695780636931e7251461077f5780636ba7fa82146107b757806370c9c791146107d5578063729911a81461081957610244565b8063560365431461053c5780635ac203cf1461056a5780635c975abb146105ae5780635d795bd2146105d057610244565b806329d7e68d1161021757806329d7e68d146103d05780633d7349481461042057806341275358146104665780634ca8b9eb146104b057806353da4247146104ce57610244565b806304e15de51461024957806305563309146102de5780631ac63d92146103165780631e63c0a514610378575b600080fd5b6102756004803603602081101561025f57600080fd5b8101908080359060200190929190505050610db1565b604051808781526020018681526020018573ffffffffffffffffffffffffffffffffffffffff1673ffffffffffffffffffffffffffffffffffffffff16815260200184815260200183815260200182151515158152602001965050505050505060405180910390f35b610314600480360360408110156102f457600080fd5b810190808035906020019092919080359060200190929190505050610e1a565b005b6103626004803603604081101561032c57600080fd5b81019080803573ffffffffffffffffffffffffffffffffffffffff16906020019092919080359060200190929190505050611454565b6040518082815260200191505060405180910390f35b6103ba6004803603602081101561038e57600080fd5b81019080803573ffffffffffffffffffffffffffffffffffffffff169060200190929190505050611482565b6040518082815260200191505060405180910390f35b610406600480360360408110156103e657600080fd5b810190808035906020019092919080359060200190929190505050611526565b604051808215151515815260200191505060405180910390f35b61044c6004803603602081101561043657600080fd5b8101908080359060200190929190505050611587565b604051808215151515815260200191505060405180910390f35b61046e6115d3565b604051808273ffffffffffffffffffffffffffffffffffffffff1673ffffffffffffffffffffffffffffffffffffffff16815260200191505060405180910390f35b6104b86115f9565b6040518082815260200191505060405180910390f35b6104fa600480360360208110156104e457600080fd5b81019080803590602001909291905050506115ff565b604051808273ffffffffffffffffffffffffffffffffffffffff1673ffffffffffffffffffffffffffffffffffffffff16815260200191505060405180910390f35b6105686004803603602081101561055257600080fd5b810190808035906020019092919050505061163b565b005b6105ac6004803603602081101561058057600080fd5b81019080803573ffffffffffffffffffffffffffffffffffffffff169060200190929190505050611a29565b005b6105b6611ac7565b604051808215151515815260200191505060405180910390f35b610612600480360360208110156105e657600080fd5b81019080803573ffffffffffffffffffffffffffffffffffffffff169060200190929190505050611add565b6040518080602001828103825283818151815260200191508051906020019060200280838360005b8381101561065557808201518184015260208101905061063a565b505050509050019250505060405180910390f35b61069f6004803603604081101561067f57600080fd5b810190808035906020019092919080359060200190929190505050611b74565b6040518086815260200185815260200180602001806020018473ffffffffffffffffffffffffffffffffffffffff1673ffffffffffffffffffffffffffffffffffffffff168152602001838103835286818151815260200191508051906020019060200280838360005b83811015610724578082015181840152602081019050610709565b50505050905001838103825285818151815260200191508051906020019060200280838360005b8381101561076657808201518184015260208101905061074b565b5050505090500197505050505050505060405180910390f35b6107b56004803603604081101561079557600080fd5b810190808035906020019092919080359060200190929190505050611d3c565b005b6107bf6128da565b6040518082815260200191505060405180910390f35b610817600480360360208110156107eb57600080fd5b81019080803573ffffffffffffffffffffffffffffffffffffffff1690602001909291905050506128e0565b005b61082161297e565b6040518082815260200191505060405180910390f35b61083f612984565b6040518082815260200191505060405180910390f35b6108816004803603602081101561086b57600080fd5b810190808035906020019092919050505061298a565b005b6108b96004803603604081101561089957600080fd5b810190808035906020019092919080359060200190929190505050612ed0565b604051808215151515815260200191505060405180910390f35b6108ff600480360360208110156108e957600080fd5b8101908080359060200190929190505050612f81565b005b610909612fe5565b6040518082815260200191505060405180910390f35b610927612feb565b604051808273ffffffffffffffffffffffffffffffffffffffff1673ffffffffffffffffffffffffffffffffffffffff16815260200191505060405180910390f35b61099f6004803603604081101561097f57600080fd5b810190808035906020019092919080359060200190929190505050613011565b005b6109e3600480360360208110156109b757600080fd5b81019080803573ffffffffffffffffffffffffffffffffffffffff1690602001909291905050506134b4565b604051808381526020018281526020019250505060405180910390f35b610a2c60048036036020811015610a1657600080fd5b81019080803590602001909291905050506134d8565b005b610a366138e2565b6040518082815260200191505060405180910390f35b610ba060048036036060811015610a6257600080fd5b810190808035906020019092919080359060200190640100000000811115610a8957600080fd5b820183602082011115610a9b57600080fd5b80359060200191846020830284011164010000000083111715610abd57600080fd5b919080806020026020016040519081016040528093929190818152602001838360200280828437600081840152601f19601f82011690508083019250505050505050919291929080359060200190640100000000811115610b1d57600080fd5b820183602082011115610b2f57600080fd5b80359060200191846020830284011164010000000083111715610b5157600080fd5b919080806020026020016040519081016040528093929190818152602001838360200280828437600081840152601f19601f8201169050808301925050505050505091929192905050506138e8565b005b610baa613f8b565b6040518082815260200191505060405180910390f35b610bec60048036036020811015610bd657600080fd5b8101908080359060200190929190505050613f91565b604051808781526020018681526020018573ffffffffffffffffffffffffffffffffffffffff1673ffffffffffffffffffffffffffffffffffffffff16815260200184815260200183815260200182151515158152602001965050505050505060405180910390f35b610ca160048036036040811015610c6b57600080fd5b8101908080359060200190929190803573ffffffffffffffffffffffffffffffffffffffff16906020019092919050505061408f565b005b610cab614593565b604051808273ffffffffffffffffffffffffffffffffffffffff1673ffffffffffffffffffffffffffffffffffffffff16815260200191505060405180910390f35b610cf56145b9565b6040518082815260200191505060405180910390f35b610d136145bf565b6040518082815260200191505060405180910390f35b610d6b60048036036020811015610d3f57600080fd5b81019080803573ffffffffffffffffffffffffffffffffffffffff1690602001909291905050506145c5565b005b610daf60048036036020811015610d8357600080fd5b81019080803573ffffffffffffffffffffffffffffffffffffffff16906020019092919050505061469c565b005b600c6020528060005260406000206000915090508060000154908060010154908060020160009054906101000a900473ffffffffffffffffffffffffffffffffffffffff16908060040154908060060154908060070160009054906101000a900460ff16905086565b610e22611ac7565b15610e95576040517f08c379a00000000000000000000000000000000000000000000000000000000081526004018080602001828103825260108152602001807f5061757361626c653a207061757365640000000000000000000000000000000081525060200191505060405180910390fd5b6000600c6000848152602001908152602001600020600101541415610f22576040517f08c379a00000000000000000000000000000000000000000000000000000000081526004018080602001828103825260128152602001807f49737375652068617320746f206578697374000000000000000000000000000081525060200191505060405180910390fd5b3373ffffffffffffffffffffffffffffffffffffffff16600c600084815260200190815260200160002060020160009054906101000a900473ffffffffffffffffffffffffffffffffffffffff1673ffffffffffffffffffffffffffffffffffffffff1614610ff9576040517f08c379a000000000000000000000000000000000000000000000000000000000815260040180806020018281038252601b8152602001807f48617320746f206265207468652069737375652063726561746f72000000000081525060200191505060405180910390fd5b61100282611587565b15611075576040517f08c379a00000000000000000000000000000000000000000000000000000000081526004018080602001828103825260198152602001807f497373756520697320616c726561647920417070726f7665640000000000000081525060200191505060405180910390fd5b6000600c600084815260200190815260200160002060010154905081600c6000858152602001908152602001600020600101819055508082111561129d57600160009054906101000a900473ffffffffffffffffffffffffffffffffffffffff1673ffffffffffffffffffffffffffffffffffffffff166323b872dd333061110685876147f090919063ffffffff16565b6040518463ffffffff167c0100000000000000000000000000000000000000000000000000000000028152600401808473ffffffffffffffffffffffffffffffffffffffff1673ffffffffffffffffffffffffffffffffffffffff1681526020018373ffffffffffffffffffffffffffffffffffffffff1673ffffffffffffffffffffffffffffffffffffffff1681526020018281526020019350505050602060405180830381600087803b1580156111be57600080fd5b505af11580156111d2573d6000803e3d6000fd5b505050506040513d60208110156111e857600080fd5b810190808051906020019092919050505061126b576040517f08c379a000000000000000000000000000000000000000000000000000000000815260040180806020018281038252600f8152602001807f4e6565647320416c6c6f77616e6365000000000000000000000000000000000081525060200191505060405180910390fd5b61129261128182846147f090919063ffffffff16565b60045461487390919063ffffffff16565b60048190555061144f565b600160009054906101000a900473ffffffffffffffffffffffffffffffffffffffff1673ffffffffffffffffffffffffffffffffffffffff1663a9059cbb336112ef85856147f090919063ffffffff16565b6040518363ffffffff167c0100000000000000000000000000000000000000000000000000000000028152600401808373ffffffffffffffffffffffffffffffffffffffff1673ffffffffffffffffffffffffffffffffffffffff16815260200182815260200192505050602060405180830381600087803b15801561137457600080fd5b505af1158015611388573d6000803e3d6000fd5b505050506040513d602081101561139e57600080fd5b8101908080519060200190929190505050611421576040517f08c379a00000000000000000000000000000000000000000000000000000000081526004018080602001828103825260168152602001807f5472616e73666572206e6f742073756365737366756c0000000000000000000081525060200191505060405180910390fd5b61144861143783836147f090919063ffffffff16565b6004546147f090919063ffffffff16565b6004819055505b505050565b600d602052816000526040600020818154811061146d57fe5b90600052602060002001600091509150505481565b600080600e60008473ffffffffffffffffffffffffffffffffffffffff1673ffffffffffffffffffffffffffffffffffffffff168152602001908152602001600020905061151e8160010160008573ffffffffffffffffffffffffffffffffffffffff1673ffffffffffffffffffffffffffffffffffffffff16815260200190815260200160002054826000015461487390919063ffffffff16565b915050919050565b60006115526064611544600954600a546148fb90919063ffffffff16565b61498190919063ffffffff16565b600c60008581526020019081526020016000206005016000848152602001908152602001600020600201541015905092915050565b60006115b360646115a5600854600a546148fb90919063ffffffff16565b61498190919063ffffffff16565b600c60008481526020019081526020016000206004015410159050919050565b600560009054906101000a900473ffffffffffffffffffffffffffffffffffffffff1681565b60095481565b600f818154811061160c57fe5b906000526020600020016000915054906101000a900473ffffffffffffffffffffffffffffffffffffffff1681565b611643614a0a565b600e60003373ffffffffffffffffffffffffffffffffffffffff1673ffffffffffffffffffffffffffffffffffffffff168152602001908152602001600020604051806060016040529081600082015481526020016002820180548060200260200160405190810160405280929190818152602001828054801561171c57602002820191906000526020600020905b8160009054906101000a900473ffffffffffffffffffffffffffffffffffffffff1673ffffffffffffffffffffffffffffffffffffffff16815260200190600101908083116116d2575b505050505081526020016003820154815250509050611739614a2b565b600c60008481526020019081526020016000206040518060c001604052908160008201548152602001600182015481526020016002820160009054906101000a900473ffffffffffffffffffffffffffffffffffffffff1673ffffffffffffffffffffffffffffffffffffffff1673ffffffffffffffffffffffffffffffffffffffff16815260200160048201548152602001600682015481526020016007820160009054906101000a900460ff161515151581525050905060008160000151141561186d576040517f08c379a00000000000000000000000000000000000000000000000000000000081526004018080602001828103825260148152602001807f497373756520646f6573206e6f7420657869737400000000000000000000000081525060200191505060405180910390fd5b6000600c600085815260200190815260200160002060030160003373ffffffffffffffffffffffffffffffffffffffff1673ffffffffffffffffffffffffffffffffffffffff1681526020019081526020016000205414611936576040517f08c379a00000000000000000000000000000000000000000000000000000000081526004018080602001828103825260118152602001807f48617320616c726561647920766f74656400000000000000000000000000000081525060200191505060405180910390fd5b600061194133611482565b905061196c81600c60008781526020019081526020016000206004015461487390919063ffffffff16565b600c60008681526020019081526020016000206004018190555080600c600086815260200190815260200160002060030160003373ffffffffffffffffffffffffffffffffffffffff1673ffffffffffffffffffffffffffffffffffffffff168152602001908152602001600020819055503373ffffffffffffffffffffffffffffffffffffffff1681857f874c2861194fad2379fb15b08319bf4f3ec0c9f22bfd1ed18435ac4600abb0a060405160405180910390a450505050565b600060019054906101000a900473ffffffffffffffffffffffffffffffffffffffff1673ffffffffffffffffffffffffffffffffffffffff163373ffffffffffffffffffffffffffffffffffffffff1614611a8357600080fd5b80600160006101000a81548173ffffffffffffffffffffffffffffffffffffffff021916908373ffffffffffffffffffffffffffffffffffffffff16021790555050565b60008060009054906101000a900460ff16905090565b6060600d60008373ffffffffffffffffffffffffffffffffffffffff1673ffffffffffffffffffffffffffffffffffffffff168152602001908152602001600020805480602002602001604051908101604052809291908181526020018280548015611b6857602002820191906000526020600020905b815481526020019060010190808311611b54575b50505050509050919050565b6000806060806000611b84614a79565b600c600089815260200190815260200160002060050160008881526020019081526020016000206040518060a0016040529081600082015481526020016002820154815260200160038201805480602002602001604051908101604052809291908181526020018280548015611c4f57602002820191906000526020600020905b8160009054906101000a900473ffffffffffffffffffffffffffffffffffffffff1673ffffffffffffffffffffffffffffffffffffffff1681526020019060010190808311611c05575b5050505050815260200160048201805480602002602001604051908101604052809291908181526020018280548015611ca757602002820191906000526020600020905b815481526020019060010190808311611c93575b505050505081526020016005820160009054906101000a900473ffffffffffffffffffffffffffffffffffffffff1673ffffffffffffffffffffffffffffffffffffffff1673ffffffffffffffffffffffffffffffffffffffff168152505090508060000151816020015182604001518360600151846080015182925081915095509550955095509550509295509295909350565b611d44611ac7565b15611db7576040517f08c379a00000000000000000000000000000000000000000000000000000000081526004018080602001828103825260108152602001807f5061757361626c653a207061757365640000000000000000000000000000000081525060200191505060405180910390fd5b611dbf614a2b565b600c60008481526020019081526020016000206040518060c001604052908160008201548152602001600182015481526020016002820160009054906101000a900473ffffffffffffffffffffffffffffffffffffffff1673ffffffffffffffffffffffffffffffffffffffff1673ffffffffffffffffffffffffffffffffffffffff16815260200160048201548152602001600682015481526020016007820160009054906101000a900460ff1615151515815250509050600081600001511415611ef3576040517f08c379a00000000000000000000000000000000000000000000000000000000081526004018080602001828103825260128152602001807f49737375652068617320746f206578697374000000000000000000000000000081525060200191505060405180910390fd5b600015158160a00151151514611f71576040517f08c379a00000000000000000000000000000000000000000000000000000000081526004018080602001828103825260168152602001807f49737375652068617320746f206265206f70656e65640000000000000000000081525060200191505060405180910390fd5b81816080015111611fea576040517f08c379a000000000000000000000000000000000000000000000000000000000815260040180806020018281038252601d8152602001807f4d657267652050726f706f73616c20646f6573206e6f7420657869737400000081525060200191505060405180910390fd5b611ff48383611526565b612066576040517f08c379a000000000000000000000000000000000000000000000000000000000815260040180806020018281038252601f8152602001807f49737375652068617320746f20686176652070617373656420766f74696e670081525060200191505060405180910390fd5b6120708383612ed0565b6120c5576040517f08c379a0000000000000000000000000000000000000000000000000000000008152600401808060200182810382526029815260200180614d3a6029913960400191505060405180910390fd5b6001600c600085815260200190815260200160002060070160006101000a81548160ff0219169083151502179055506120fc614a79565b600c600085815260200190815260200160002060050160008481526020019081526020016000206040518060a00160405290816000820154815260200160028201548152602001600382018054806020026020016040519081016040528092919081815260200182805480156121c757602002820191906000526020600020905b8160009054906101000a900473ffffffffffffffffffffffffffffffffffffffff1673ffffffffffffffffffffffffffffffffffffffff168152602001906001019080831161217d575b505050505081526020016004820180548060200260200160405190810160405280929190818152602001828054801561221f57602002820191906000526020600020905b81548152602001906001019080831161220b575b505050505081526020016005820160009054906101000a900473ffffffffffffffffffffffffffffffffffffffff1673ffffffffffffffffffffffffffffffffffffffff1673ffffffffffffffffffffffffffffffffffffffff16815250509050600160009054906101000a900473ffffffffffffffffffffffffffffffffffffffff1673ffffffffffffffffffffffffffffffffffffffff1663a9059cbb600560009054906101000a900473ffffffffffffffffffffffffffffffffffffffff166064600654600c60008a815260200190815260200160002060010154028161230557fe5b046040518363ffffffff167c0100000000000000000000000000000000000000000000000000000000028152600401808373ffffffffffffffffffffffffffffffffffffffff1673ffffffffffffffffffffffffffffffffffffffff16815260200182815260200192505050602060405180830381600087803b15801561238b57600080fd5b505af115801561239f573d6000803e3d6000fd5b505050506040513d60208110156123b557600080fd5b8101908080519060200190929190505050612438576040517f08c379a000000000000000000000000000000000000000000000000000000000815260040180806020018281038252600f8152602001807f48617320746f207472616e73666572000000000000000000000000000000000081525060200191505060405180910390fd5b600160009054906101000a900473ffffffffffffffffffffffffffffffffffffffff1673ffffffffffffffffffffffffffffffffffffffff1663a9059cbb600560009054906101000a900473ffffffffffffffffffffffffffffffffffffffff166064600754600c60008a81526020019081526020016000206001015402816124bd57fe5b046040518363ffffffff167c0100000000000000000000000000000000000000000000000000000000028152600401808373ffffffffffffffffffffffffffffffffffffffff1673ffffffffffffffffffffffffffffffffffffffff16815260200182815260200192505050602060405180830381600087803b15801561254357600080fd5b505af1158015612557573d6000803e3d6000fd5b505050506040513d602081101561256d57600080fd5b81019080805190602001909291905050506125f0576040517f08c379a000000000000000000000000000000000000000000000000000000000815260040180806020018281038252600f8152602001807f48617320746f207472616e73666572000000000000000000000000000000000081525060200191505060405180910390fd5b60008090505b81604001515181101561284257600d60008360400151838151811061261757fe5b602002602001015173ffffffffffffffffffffffffffffffffffffffff1673ffffffffffffffffffffffffffffffffffffffff168152602001908152602001600020859080600181540180825580915050600190039060005260206000200160009091909190915055600160009054906101000a900473ffffffffffffffffffffffffffffffffffffffff1673ffffffffffffffffffffffffffffffffffffffff1663a9059cbb836040015183815181106126ce57fe5b6020026020010151606460075460065460640303866060015186815181106126f257fe5b6020026020010151028161270257fe5b046040518363ffffffff167c0100000000000000000000000000000000000000000000000000000000028152600401808373ffffffffffffffffffffffffffffffffffffffff1673ffffffffffffffffffffffffffffffffffffffff16815260200182815260200192505050602060405180830381600087803b15801561278857600080fd5b505af115801561279c573d6000803e3d6000fd5b505050506040513d60208110156127b257600080fd5b8101908080519060200190929190505050612835576040517f08c379a000000000000000000000000000000000000000000000000000000000815260040180806020018281038252600f8152602001807f48617320746f207472616e73666572000000000000000000000000000000000081525060200191505060405180910390fd5b80806001019150506125f6565b50612859600160035461487390919063ffffffff16565b600381905550806040015160405180828051906020019060200280838360005b83811015612894578082015181840152602081019050612879565b50505050905001915050604051809103902083857f2764a4973e9de159354a809146f484fb4f13f7f8d108a4cbce66127098b8769660405160405180910390a450505050565b60035481565b600060019054906101000a900473ffffffffffffffffffffffffffffffffffffffff1673ffffffffffffffffffffffffffffffffffffffff163373ffffffffffffffffffffffffffffffffffffffff161461293a57600080fd5b80600560006101000a81548173ffffffffffffffffffffffffffffffffffffffff021916908373ffffffffffffffffffffffffffffffffffffffff16021790555050565b60025481565b60045481565b600081116129e3576040517f08c379a0000000000000000000000000000000000000000000000000000000008152600401808060200182810382526023815260200180614c886023913960400191505060405180910390fd5b600160009054906101000a900473ffffffffffffffffffffffffffffffffffffffff1673ffffffffffffffffffffffffffffffffffffffff166323b872dd3330846040518463ffffffff167c0100000000000000000000000000000000000000000000000000000000028152600401808473ffffffffffffffffffffffffffffffffffffffff1673ffffffffffffffffffffffffffffffffffffffff1681526020018373ffffffffffffffffffffffffffffffffffffffff1673ffffffffffffffffffffffffffffffffffffffff1681526020018281526020019350505050602060405180830381600087803b158015612adc57600080fd5b505af1158015612af0573d6000803e3d6000fd5b505050506040513d6020811015612b0657600080fd5b8101908080519060200190929190505050612b89576040517f08c379a000000000000000000000000000000000000000000000000000000000815260040180806020018281038252600f8152602001807f4e6565647320416c6c6f77616e6365000000000000000000000000000000000081525060200191505060405180910390fd5b6000600e60003373ffffffffffffffffffffffffffffffffffffffff1673ffffffffffffffffffffffffffffffffffffffff1681526020019081526020016000206003015414612d8857612c6581600e60003373ffffffffffffffffffffffffffffffffffffffff1673ffffffffffffffffffffffffffffffffffffffff16815260200190815260200160002060010160003373ffffffffffffffffffffffffffffffffffffffff1673ffffffffffffffffffffffffffffffffffffffff1681526020019081526020016000205461487390919063ffffffff16565b600e60003373ffffffffffffffffffffffffffffffffffffffff1673ffffffffffffffffffffffffffffffffffffffff16815260200190815260200160002060010160003373ffffffffffffffffffffffffffffffffffffffff1673ffffffffffffffffffffffffffffffffffffffff16815260200190815260200160002081905550612d3d81600e60003373ffffffffffffffffffffffffffffffffffffffff1673ffffffffffffffffffffffffffffffffffffffff1681526020019081526020016000206003015461487390919063ffffffff16565b600e60003373ffffffffffffffffffffffffffffffffffffffff1673ffffffffffffffffffffffffffffffffffffffff16815260200190815260200160002060030181905550612ecd565b6000600e60003373ffffffffffffffffffffffffffffffffffffffff1673ffffffffffffffffffffffffffffffffffffffff168152602001908152602001600020905081816003018190555060405180602001604052803373ffffffffffffffffffffffffffffffffffffffff1673ffffffffffffffffffffffffffffffffffffffff1681525081600201906001612e21929190614abe565b50818160010160003373ffffffffffffffffffffffffffffffffffffffff1673ffffffffffffffffffffffffffffffffffffffff16815260200190815260200160002081905550600f339080600181540180825580915050600190039060005260206000200160009091909190916101000a81548173ffffffffffffffffffffffffffffffffffffffff021916908373ffffffffffffffffffffffffffffffffffffffff160217905550505b50565b600080600c6000858152602001908152602001600020600501600084815260200190815260200160002060020154905060008090505b600c6000868152602001908152602001600020600601548160ff161015612f745781600c600087815260200190815260200160002060050160008360ff168152602001908152602001600020600201541115612f6757600092505050612f7b565b8080600101915050612f06565b5060019150505b92915050565b600060019054906101000a900473ffffffffffffffffffffffffffffffffffffffff1673ffffffffffffffffffffffffffffffffffffffff163373ffffffffffffffffffffffffffffffffffffffff1614612fdb57600080fd5b8060068190555050565b600b5481565b600060019054906101000a900473ffffffffffffffffffffffffffffffffffffffff1681565b613019614a0a565b600e60003373ffffffffffffffffffffffffffffffffffffffff1673ffffffffffffffffffffffffffffffffffffffff16815260200190815260200160002060405180606001604052908160008201548152602001600282018054806020026020016040519081016040528092919081815260200182805480156130f257602002820191906000526020600020905b8160009054906101000a900473ffffffffffffffffffffffffffffffffffffffff1673ffffffffffffffffffffffffffffffffffffffff16815260200190600101908083116130a8575b50505050508152602001600382015481525050905061310f614a2b565b600c60008581526020019081526020016000206040518060c001604052908160008201548152602001600182015481526020016002820160009054906101000a900473ffffffffffffffffffffffffffffffffffffffff1673ffffffffffffffffffffffffffffffffffffffff1673ffffffffffffffffffffffffffffffffffffffff16815260200160048201548152602001600682015481526020016007820160009054906101000a900460ff16151515158152505090506000600c60008681526020019081526020016000206005016000858152602001908152602001600020905060008260000151141561326e576040517f08c379a00000000000000000000000000000000000000000000000000000000081526004018080602001828103825260148152602001807f497373756520646f6573206e6f7420657869737400000000000000000000000081525060200191505060405180910390fd5b838260800151116132e7576040517f08c379a000000000000000000000000000000000000000000000000000000000815260040180806020018281038252601d8152602001807f4d657267652050726f706f73616c20646f6573206e6f7420657869737400000081525060200191505060405180910390fd5b60008160010160003373ffffffffffffffffffffffffffffffffffffffff1673ffffffffffffffffffffffffffffffffffffffff168152602001908152602001600020541461339e576040517f08c379a00000000000000000000000000000000000000000000000000000000081526004018080602001828103825260118152602001807f48617320616c726561647920766f74656400000000000000000000000000000081525060200191505060405180910390fd5b60006133a933611482565b90506133c281836002015461487390919063ffffffff16565b600c600088815260200190815260200160002060050160008781526020019081526020016000206002018190555080600c6000888152602001908152602001600020600501600087815260200190815260200160002060010160003373ffffffffffffffffffffffffffffffffffffffff1673ffffffffffffffffffffffffffffffffffffffff168152602001908152602001600020819055503373ffffffffffffffffffffffffffffffffffffffff1685877ffd3b653bc5d01de8ac8bc3857b862274c9914a8820abb138052a747aab3d5dde846040518082815260200191505060405180910390a4505050505050565b600e6020528060005260406000206000915090508060000154908060030154905082565b6134e0611ac7565b15613553576040517f08c379a00000000000000000000000000000000000000000000000000000000081526004018080602001828103825260108152602001807f5061757361626c653a207061757365640000000000000000000000000000000081525060200191505060405180910390fd5b61355b614a2b565b6002548160000181815250508181602001818152505033816040019073ffffffffffffffffffffffffffffffffffffffff16908173ffffffffffffffffffffffffffffffffffffffff168152505060008160a001901515908115158152505080600c60006002548152602001908152602001600020600082015181600001556020820151816001015560408201518160020160006101000a81548173ffffffffffffffffffffffffffffffffffffffff021916908373ffffffffffffffffffffffffffffffffffffffff160217905550606082015181600401556080820151816006015560a08201518160070160006101000a81548160ff021916908315150217905550905050600d60003373ffffffffffffffffffffffffffffffffffffffff1673ffffffffffffffffffffffffffffffffffffffff1681526020019081526020016000206002549080600181540180825580915050600190039060005260206000200160009091909190915055600160009054906101000a900473ffffffffffffffffffffffffffffffffffffffff1673ffffffffffffffffffffffffffffffffffffffff166323b872dd3330856040518463ffffffff167c0100000000000000000000000000000000000000000000000000000000028152600401808473ffffffffffffffffffffffffffffffffffffffff1673ffffffffffffffffffffffffffffffffffffffff1681526020018373ffffffffffffffffffffffffffffffffffffffff1673ffffffffffffffffffffffffffffffffffffffff1681526020018281526020019350505050602060405180830381600087803b1580156137c357600080fd5b505af11580156137d7573d6000803e3d6000fd5b505050506040513d60208110156137ed57600080fd5b8101908080519060200190929190505050613870576040517f08c379a000000000000000000000000000000000000000000000000000000000815260040180806020018281038252600f8152602001807f4e6565647320416c6c6f77616e6365000000000000000000000000000000000081525060200191505060405180910390fd5b6138858260045461487390919063ffffffff16565b600481905550600160025401600281905550813373ffffffffffffffffffffffffffffffffffffffff166002547f6aecdf6df15bd1371e1740df5f88ad1066c22c0506751320acc231234f2c26c560405160405180910390a45050565b600a5481565b6138f0611ac7565b15613963576040517f08c379a00000000000000000000000000000000000000000000000000000000081526004018080602001828103825260108152602001807f5061757361626c653a207061757365640000000000000000000000000000000081525060200191505060405180910390fd5b61396b614a2b565b600c60008581526020019081526020016000206040518060c001604052908160008201548152602001600182015481526020016002820160009054906101000a900473ffffffffffffffffffffffffffffffffffffffff1673ffffffffffffffffffffffffffffffffffffffff1673ffffffffffffffffffffffffffffffffffffffff16815260200160048201548152602001600682015481526020016007820160009054906101000a900460ff1615151515815250509050600081600001511415613a9f576040517f08c379a00000000000000000000000000000000000000000000000000000000081526004018080602001828103825260128152602001807f49737375652068617320746f206578697374000000000000000000000000000081525060200191505060405180910390fd5b600015158160a00151151514613b1d576040517f08c379a00000000000000000000000000000000000000000000000000000000081526004018080602001828103825260168152602001807f49737375652068617320746f206265206f70656e65640000000000000000000081525060200191505060405180910390fd5b8251825114613b77576040517f08c379a0000000000000000000000000000000000000000000000000000000008152600401808060200182810382526025815260200180614d156025913960400191505060405180910390fd5b670de0b6b3a7640000600b5402600160009054906101000a900473ffffffffffffffffffffffffffffffffffffffff1673ffffffffffffffffffffffffffffffffffffffff166370a08231336040518263ffffffff167c0100000000000000000000000000000000000000000000000000000000028152600401808273ffffffffffffffffffffffffffffffffffffffff1673ffffffffffffffffffffffffffffffffffffffff16815260200191505060206040518083038186803b158015613c3f57600080fd5b505afa158015613c53573d6000803e3d6000fd5b505050506040513d6020811015613c6957600080fd5b810190808051906020019092919050505011613cd0576040517f08c379a0000000000000000000000000000000000000000000000000000000008152600401808060200182810382526049815260200180614cab6049913960600191505060405180910390fd5b613cd8614a79565b816080015181600001818152505082816060018190525083816040018190525033816080019073ffffffffffffffffffffffffffffffffffffffff16908173ffffffffffffffffffffffffffffffffffffffff16815250506000606460075460065401600c6000898152602001908152602001600020600101540281613d5a57fe5b04905060008090505b8551811015613db657613da7606460075460065460640303878481518110613d8757fe5b60200260200101510281613d9757fe5b048361487390919063ffffffff16565b91508080600101915050613d63565b50600c6000878152602001908152602001600020600101548114613e42576040517f08c379a00000000000000000000000000000000000000000000000000000000081526004018080602001828103825260118152602001807f546f74616c7320646f6e74206d6174636800000000000000000000000000000081525060200191505060405180910390fd5b81600c600088815260200190815260200160002060050160008560800151815260200190815260200160002060008201518160000155602082015181600201556040820151816003019080519060200190613e9e929190614b48565b506060820151816004019080519060200190613ebb929190614bd2565b5060808201518160050160006101000a81548173ffffffffffffffffffffffffffffffffffffffff021916908373ffffffffffffffffffffffffffffffffffffffff1602179055509050506001600c60008881526020019081526020016000206006015401600c6000888152602001908152602001600020600601819055503373ffffffffffffffffffffffffffffffffffffffff168260000151877f3a9041e1cf9ad999ea58090279700f3cb926fbf3c58ecea9897a40540c02581c60405160405180910390a4505050505050565b60075481565b600080600080600080613fa2614a2b565b600c60008981526020019081526020016000206040518060c001604052908160008201548152602001600182015481526020016002820160009054906101000a900473ffffffffffffffffffffffffffffffffffffffff1673ffffffffffffffffffffffffffffffffffffffff1673ffffffffffffffffffffffffffffffffffffffff16815260200160048201548152602001600682015481526020016007820160009054906101000a900460ff1615151515815250509050806000015181602001518260400151836060015184608001518560a001519650965096509650965096505091939550919395565b6000600e60003373ffffffffffffffffffffffffffffffffffffffff1673ffffffffffffffffffffffffffffffffffffffff1681526020019081526020016000209050828160030154101561414c576040517f08c379a000000000000000000000000000000000000000000000000000000000815260040180806020018281038252601b8152602001807f48617320746f206861766520626570726f20746f20756e6c6f636b000000000081525060200191505060405180910390fd5b828160010160008473ffffffffffffffffffffffffffffffffffffffff1673ffffffffffffffffffffffffffffffffffffffff168152602001908152602001600020541015614203576040517f08c379a00000000000000000000000000000000000000000000000000000000081526004018080602001828103825260208152602001807f46726f6d2068617320746f206861766520626570726f20746f20756e6c6f636b81525060200191505060405180910390fd5b61421a8382600301546147f090919063ffffffff16565b600e60003373ffffffffffffffffffffffffffffffffffffffff1673ffffffffffffffffffffffffffffffffffffffff168152602001908152602001600020600301819055506142b4838260010160008573ffffffffffffffffffffffffffffffffffffffff1673ffffffffffffffffffffffffffffffffffffffff168152602001908152602001600020546147f090919063ffffffff16565b600e60003373ffffffffffffffffffffffffffffffffffffffff1673ffffffffffffffffffffffffffffffffffffffff16815260200190815260200160002060010160008473ffffffffffffffffffffffffffffffffffffffff1673ffffffffffffffffffffffffffffffffffffffff168152602001908152602001600020819055508173ffffffffffffffffffffffffffffffffffffffff163373ffffffffffffffffffffffffffffffffffffffff1614614406576143bf83600e60008573ffffffffffffffffffffffffffffffffffffffff1673ffffffffffffffffffffffffffffffffffffffff168152602001908152602001600020600001546147f090919063ffffffff16565b600e60008473ffffffffffffffffffffffffffffffffffffffff1673ffffffffffffffffffffffffffffffffffffffff168152602001908152602001600020600001819055505b600160009054906101000a900473ffffffffffffffffffffffffffffffffffffffff1673ffffffffffffffffffffffffffffffffffffffff1663a9059cbb33856040518363ffffffff167c0100000000000000000000000000000000000000000000000000000000028152600401808373ffffffffffffffffffffffffffffffffffffffff1673ffffffffffffffffffffffffffffffffffffffff16815260200182815260200192505050602060405180830381600087803b1580156144cb57600080fd5b505af11580156144df573d6000803e3d6000fd5b505050506040513d60208110156144f557600080fd5b8101908080519060200190929190505050614578576040517f08c379a00000000000000000000000000000000000000000000000000000000081526004018080602001828103825260138152602001807f5472616e73666572206469646e7420776f726b0000000000000000000000000081525060200191505060405180910390fd5b61458d83600a546147f090919063ffffffff16565b50505050565b600160009054906101000a900473ffffffffffffffffffffffffffffffffffffffff1681565b60085481565b60065481565b600060019054906101000a900473ffffffffffffffffffffffffffffffffffffffff1673ffffffffffffffffffffffffffffffffffffffff163373ffffffffffffffffffffffffffffffffffffffff161461461f57600080fd5b614627611ac7565b614699576040517f08c379a00000000000000000000000000000000000000000000000000000000081526004018080602001828103825260148152602001807f5061757361626c653a206e6f742070617573656400000000000000000000000081525060200191505060405180910390fd5b50565b600060019054906101000a900473ffffffffffffffffffffffffffffffffffffffff1673ffffffffffffffffffffffffffffffffffffffff163373ffffffffffffffffffffffffffffffffffffffff16146146f657600080fd5b600073ffffffffffffffffffffffffffffffffffffffff168173ffffffffffffffffffffffffffffffffffffffff16141561473057600080fd5b8073ffffffffffffffffffffffffffffffffffffffff16600060019054906101000a900473ffffffffffffffffffffffffffffffffffffffff1673ffffffffffffffffffffffffffffffffffffffff167f8be0079c531659141344cd1fd0a4f28419497f9722a3daafe3b4186f6b6457e060405160405180910390a380600060016101000a81548173ffffffffffffffffffffffffffffffffffffffff021916908373ffffffffffffffffffffffffffffffffffffffff16021790555050565b600082821115614868576040517f08c379a000000000000000000000000000000000000000000000000000000000815260040180806020018281038252601e8152602001807f536166654d6174683a207375627472616374696f6e206f766572666c6f77000081525060200191505060405180910390fd5b818303905092915050565b6000808284019050838110156148f1576040517f08c379a000000000000000000000000000000000000000000000000000000000815260040180806020018281038252601b8152602001807f536166654d6174683a206164646974696f6e206f766572666c6f77000000000081525060200191505060405180910390fd5b8091505092915050565b60008083141561490e576000905061497b565b600082840290508284828161491f57fe5b0414614976576040517f08c379a0000000000000000000000000000000000000000000000000000000008152600401808060200182810382526021815260200180614cf46021913960400191505060405180910390fd5b809150505b92915050565b60008082116149f8576040517f08c379a000000000000000000000000000000000000000000000000000000000815260040180806020018281038252601a8152602001807f536166654d6174683a206469766973696f6e206279207a65726f00000000000081525060200191505060405180910390fd5b818381614a0157fe5b04905092915050565b60405180606001604052806000815260200160608152602001600081525090565b6040518060c001604052806000815260200160008152602001600073ffffffffffffffffffffffffffffffffffffffff16815260200160008152602001600081526020016000151581525090565b6040518060a0016040528060008152602001600081526020016060815260200160608152602001600073ffffffffffffffffffffffffffffffffffffffff1681525090565b828054828255906000526020600020908101928215614b37579160200282015b82811115614b365782518260006101000a81548173ffffffffffffffffffffffffffffffffffffffff021916908373ffffffffffffffffffffffffffffffffffffffff16021790555091602001919060010190614ade565b5b509050614b449190614c1f565b5090565b828054828255906000526020600020908101928215614bc1579160200282015b82811115614bc05782518260006101000a81548173ffffffffffffffffffffffffffffffffffffffff021916908373ffffffffffffffffffffffffffffffffffffffff16021790555091602001919060010190614b68565b5b509050614bce9190614c1f565b5090565b828054828255906000526020600020908101928215614c0e579160200282015b82811115614c0d578251825591602001919060010190614bf2565b5b509050614c1b9190614c62565b5090565b614c5f91905b80821115614c5b57600081816101000a81549073ffffffffffffffffffffffffffffffffffffffff021916905550600101614c25565b5090565b90565b614c8491905b80821115614c80576000816000905550600101614c68565b5090565b9056fe424550524f20416d6f756e7420697320746f20626520686967686572207468616e2030546f2070726f706f7365206d6572676573207468652070726f706f7365722068617320746f206265206120436f756e63696c2028434f554e43494c5f424550524f5f414d4f554e5429536166654d6174683a206d756c7469706c69636174696f6e206f766572666c6f77416d6f756e74732068617320746f20657175616c20616464726573736573206c656e67746854686572652069732061206d657267652070726f706f73616c2077697468206d6f726520766f746573a2646970667358221220f1844311e4ae49d8d8eeff9939b1e87f601fa083d24923c52af81219f1ef268364736f6c63430006020033",
  "source": "pragma solidity >=0.6.0;\n\nimport \"@openzeppelin/contracts/token/ERC20/ERC20.sol\";\nimport \"@openzeppelin/contracts/utils/Pausable.sol\";\nimport \"../utils/Ownable.sol\";\n\n\n/**\n * @dev Interface of the ERC20 standard + mint & burn\n */\ninterface _IERC20 is IERC20  {\n\n    /**\n    * @dev Mint Function\n    */\n    function mint(address account, uint256 amount) external;\n\n    /**\n    * @dev Burn Function\n    */\n    function burn(address account, uint256 amount) external;\n\n}\n\n\n/**\n * @title BEPRO Network Contract\n */\ncontract BEPRONetwork is Pausable, Ownable{\n    using SafeMath for uint256;\n\n    _IERC20 public beproToken;\n\n    uint256 constant private year = 365 days;\n    uint256 public incrementIssueID = 1;\n    uint256 public closedIdsCount = 0;\n    uint256 public totalStaked = 0;\n    address public feeAddress = 0xCF3C8Be2e2C42331Da80EF210e9B1b307C03d36A;\n    uint256 public feeShare = 2; // (%) - Share to go to company creator\n    uint256 public mergeCreatorFeeShare = 1; // (%) - Share to go to company creator\n    uint256 public percentageNeededForApprove = 20; // (%) - Amount needed to approve a PR and distribute the rewards\n    uint256 public percentageNeededForMerge = 20; // (%) - Amount needed to approve a PR and distribute the rewards\n    uint256 public beproVotesStaked = 0;\n\n    uint256 public COUNCIL_BEPRO_AMOUNT = 25000000;\n\n    mapping(uint256 => Issue) public issues; /* Distribution object */\n    mapping(address => uint256[]) public myIssues; /* Address Based Subcription */\n\n    mapping(address => Voter) public voters; \n    address[] public votersArray; \n\n\n    struct MergeProposal {\n        uint256 _id;\n        mapping(address => uint256) votesForMergeByAddress; // Address -> Votes for that merge\n        uint256 votes; // Amount of votes set\n        address[] prAddresses;\n        uint256[] prAmounts;\n        address proposalAddress;\n    }\n\n    struct Issue {\n        uint256 _id;\n        uint256 beproStaked;\n        address issueGenerator;\n        mapping(address => uint256) votesForApproveByAddress;\n        uint256 votesForApprove;\n        mapping(uint256 => MergeProposal) mergeProposals; // Id -> Merge Proposal\n        uint256 mergeIDIncrement;\n        bool finalized;\n\n    }\n\n    struct Voter {\n        uint256 votesDelegatedByOthers;\n        mapping(address => uint256) votesDelegated;\n        address[] delegatedVotesAddresses;\n        uint256 beproLocked;\n    }\n\n    event OpenIssue(uint256 indexed id, address indexed opener, uint256 indexed amount);\n    event ApproveIssue(uint256 indexed id, uint256 indexed votes, address indexed approver);\n    event MergeProposalCreated(uint256 indexed id, uint256 indexed mergeID, address indexed creator);\n    event ApproveMerge(uint256 indexed id, uint256 indexed mergeID, uint256 votes, address indexed approver);\n    event CloseIssue(uint256 indexed id, uint256 indexed mergeID, address[] indexed addresses);\n\n    constructor(address _tokenAddress) public { \n        beproToken = _IERC20(_tokenAddress);\n    }\n\n    function lockVotes(uint256 _beproAmount) public {\n        require(_beproAmount > 0, \"BEPRO Amount is to be higher than 0\");\n        require(beproToken.transferFrom(msg.sender, address(this), _beproAmount), \"Needs Allowance\");\n\n        if(voters[msg.sender].beproLocked != 0){\n            // Exists\n            voters[msg.sender].votesDelegated[msg.sender] = voters[msg.sender].votesDelegated[msg.sender].add(_beproAmount);\n            voters[msg.sender].beproLocked = voters[msg.sender].beproLocked.add(_beproAmount);\n        }else{\n            // Does not exist\n            Voter storage voter = voters[msg.sender];\n            voter.beproLocked = _beproAmount;\n            voter.delegatedVotesAddresses = [msg.sender];\n            voter.votesDelegated[msg.sender] = _beproAmount;\n            votersArray.push(msg.sender);\n        }\n    }\n\n    function unlockVotes(uint256 _beproAmount, address _from) public {\n        Voter storage voter = voters[msg.sender];\n        require(voter.beproLocked >= _beproAmount, \"Has to have bepro to unlock\");\n        require(voter.votesDelegated[_from] >= _beproAmount, \"From has to have bepro to unlock\");\n\n        voters[msg.sender].beproLocked = voter.beproLocked.sub(_beproAmount);\n        voters[msg.sender].votesDelegated[_from] = voter.votesDelegated[_from].sub(_beproAmount);\n        if(msg.sender != _from){\n            voters[_from].votesDelegatedByOthers = voters[_from].votesDelegatedByOthers.sub(_beproAmount);\n        }\n\n        require(beproToken.transfer(msg.sender, _beproAmount), \"Transfer didnt work\");\n        beproVotesStaked.sub(_beproAmount);\n    }\n\n    function delegateVotes(uint256 _beproAmount, address _delegatedTo) internal {\n        Voter storage voter = voters[msg.sender];\n\n        require(_delegatedTo != address(0), \"Cannot transfer to the zero address\");\n        require(_delegatedTo != msg.sender, \"Cannot transfer to itself\");\n\n        require(voter.beproLocked >= _beproAmount, \"Has to have bepro to unlock\");\n        require(voter.votesDelegated[msg.sender] >= _beproAmount, \"From has to have bepro to unlock\");\n\n        voters[msg.sender].votesDelegated[msg.sender] = voter.votesDelegated[msg.sender].sub(_beproAmount);\n        voters[msg.sender].votesDelegated[_delegatedTo] = voter.votesDelegated[_delegatedTo].add(_beproAmount);\n\n        require(voters[_delegatedTo].beproLocked != uint256(0), \"Delegated to has to have voted already\");\n        voters[_delegatedTo].votesDelegatedByOthers = voters[_delegatedTo].votesDelegatedByOthers.add(_beproAmount);\n    }\n\n    function approveIssue(uint256 _issueID) public {\n        Voter memory voter = voters[msg.sender];\n        Issue memory issue = issues[_issueID];\n        require(issue._id != 0, \"Issue does not exist\");\n        require(issues[_issueID].votesForApproveByAddress[msg.sender] == 0, \"Has already voted\");\n\n        uint256 votesToAdd = getVotesByAddress(msg.sender);\n        issues[_issueID].votesForApprove = issues[_issueID].votesForApprove.add(votesToAdd);\n        issues[_issueID].votesForApproveByAddress[msg.sender] = votesToAdd;\n\n        emit ApproveIssue(_issueID, votesToAdd, msg.sender);\n    }\n\n    function approveMerge(uint256 _issueID, uint256 _mergeID) public {\n        Voter memory voter = voters[msg.sender];\n        Issue memory issue = issues[_issueID];\n        MergeProposal storage merge = issues[_issueID].mergeProposals[_mergeID];\n        require(issue._id != 0, \"Issue does not exist\");\n        require(issue.mergeIDIncrement >  _mergeID, \"Merge Proposal does not exist\");\n        require(merge.votesForMergeByAddress[msg.sender] == 0, \"Has already voted\");\n\n        uint256 votesToAdd = getVotesByAddress(msg.sender);\n        \n        issues[_issueID].mergeProposals[_mergeID].votes = merge.votes.add(votesToAdd);\n        issues[_issueID].mergeProposals[_mergeID].votesForMergeByAddress[msg.sender] = votesToAdd;\n        \n        emit ApproveMerge(_issueID, _mergeID, votesToAdd, msg.sender);\n    }\n\n    function isIssueApproved(uint256 _issueID) public returns (bool) {\n        return (issues[_issueID].votesForApprove >= beproVotesStaked.mul(percentageNeededForApprove).div(100));\n    }\n\n    function isIssueMergeable(uint256 _issueID, uint256 _mergeID) public returns (bool) {\n        return (issues[_issueID].mergeProposals[_mergeID].votes >= beproVotesStaked.mul(percentageNeededForMerge).div(100));\n    }\n    \n    function isMergeTheOneWithMoreVotes(uint256 _issueID, uint256 _mergeID) public returns (bool) {\n        uint256 thisMergeVotes = issues[_issueID].mergeProposals[_mergeID].votes;\n        for(uint8 i = 0; i < issues[_issueID].mergeIDIncrement; i++){\n            if(issues[_issueID].mergeProposals[i].votes > thisMergeVotes){\n                return false;\n            }\n        }\n        return true;\n    }\n\n    /**\n     * @dev open an Issue with bepro owned\n     * 1st step\n     */\n    function openIssue(uint256 _beproAmount) public whenNotPaused {\n        // Open Issue\n        Issue memory issue;\n        issue._id = incrementIssueID;\n        issue.beproStaked = _beproAmount;\n        issue.issueGenerator = msg.sender;\n        issue.finalized = false;\n        issues[incrementIssueID] = issue;\n        myIssues[msg.sender].push(incrementIssueID);\n        // Stake bepro\n        require(beproToken.transferFrom(msg.sender, address(this), _beproAmount), \"Needs Allowance\");\n        totalStaked = totalStaked.add(_beproAmount);\n        incrementIssueID = incrementIssueID + 1;\n        emit OpenIssue(incrementIssueID, msg.sender, _beproAmount);\n    }\n\n\n    /**\n     * @dev update an Issue with bepro owned\n     * 2nd step  (optional)\n     */\n    function updateIssue(uint256 _issueId, uint256 _newbeproAmount) public whenNotPaused {\n        require(issues[_issueId].beproStaked != 0, \"Issue has to exist\");\n        require(issues[_issueId].issueGenerator == msg.sender, \"Has to be the issue creator\");\n        require(!isIssueApproved(_issueId), \"Issue is already Approved\");\n\n        uint256 previousAmount = issues[_issueId].beproStaked;\n        // Update Issue\n        issues[_issueId].beproStaked = _newbeproAmount;\n        // Stake bepro\n        if(_newbeproAmount > previousAmount){\n            require(beproToken.transferFrom(msg.sender, address(this), _newbeproAmount.sub(previousAmount)), \"Needs Allowance\");\n            totalStaked = totalStaked.add(_newbeproAmount.sub(previousAmount));\n        }else{\n            require(beproToken.transfer(msg.sender, previousAmount.sub(_newbeproAmount)), \"Transfer not sucessful\");\n            totalStaked = totalStaked.sub(previousAmount.sub(_newbeproAmount));\n        }\n    }\n\n  /**\n     * @dev Owner finalizes the issue and distributes the bepro or rejects the PR\n     * @param _issueID issue id (mapping with github)\n     * @param _prAddresses PR Address\n     * @param _prAmounts PR Amounts\n     */\n    function proposeIssueMerge(uint256 _issueID, address[] memory _prAddresses, uint256[] memory _prAmounts) public whenNotPaused {\n        \n        Issue memory issue = issues[_issueID];\n        require(issue._id != 0 , \"Issue has to exist\");\n        require(issue.finalized == false, \"Issue has to be opened\");\n        require(_prAmounts.length == _prAddresses.length, \"Amounts has to equal addresses length\");\n        require(beproToken.balanceOf(msg.sender) > COUNCIL_BEPRO_AMOUNT*10**18, \"To propose merges the proposer has to be a Council (COUNCIL_BEPRO_AMOUNT)\");\n\n        MergeProposal memory mergeProposal;\n        mergeProposal._id = issue.mergeIDIncrement;\n        mergeProposal.prAmounts = _prAmounts;\n        mergeProposal.prAddresses = _prAddresses;\n        mergeProposal.proposalAddress = msg.sender;\n\n        uint256 total = ((issues[_issueID].beproStaked * (feeShare + mergeCreatorFeeShare)) / 100); // Fee + Merge Creator Fee + 0\n\n        for(uint i = 0; i < _prAddresses.length; i++){\n            total = total.add((_prAmounts[i] * (100-feeShare-mergeCreatorFeeShare)) / 100);\n        }\n\n        require(total == issues[_issueID].beproStaked, \"Totals dont match\");\n\n        issues[_issueID].mergeProposals[issue.mergeIDIncrement] = mergeProposal;\n        issues[_issueID].mergeIDIncrement = issues[_issueID].mergeIDIncrement + 1;\n        emit MergeProposalCreated(_issueID, mergeProposal._id, msg.sender);\n    }\n\n\n\n    /**\n     * @dev Owner finalizes the issue and distributes the bepro or rejects the PR\n     * @param _issueID issue id (mapping with github)\n     * @param _mergeID merge id \n     */\n    function closeIssue(uint256 _issueID, uint256 _mergeID) public whenNotPaused {\n        Issue memory issue = issues[_issueID];\n        require(issue._id != 0 , \"Issue has to exist\");\n        require(issue.finalized == false, \"Issue has to be opened\");\n        require(issue.mergeIDIncrement >  _mergeID, \"Merge Proposal does not exist\");\n        require(isIssueMergeable(_issueID, _mergeID), \"Issue has to have passed voting\");\n        require(isMergeTheOneWithMoreVotes(_issueID, _mergeID), \"There is a merge proposal with more votes\");\n\n        // Closes the issue\n        issues[_issueID].finalized = true;\n        MergeProposal memory merge = issues[_issueID].mergeProposals[_mergeID];\n\n        // Fee Transfer\n        require(beproToken.transfer(feeAddress, (issues[_issueID].beproStaked * feeShare) / 100), \"Has to transfer\");\n\n        // Merge Creator Transfer\n        require(beproToken.transfer(feeAddress, (issues[_issueID].beproStaked * mergeCreatorFeeShare) / 100), \"Has to transfer\");\n        \n        // Generate Reputation Tokens\n        for(uint i = 0; i < merge.prAddresses.length; i++){\n            myIssues[merge.prAddresses[i]].push(_issueID);\n            require(beproToken.transfer(merge.prAddresses[i], (merge.prAmounts[i] * (100-feeShare-mergeCreatorFeeShare)) / 100), \"Has to transfer\");\n        }\n\n        closedIdsCount = closedIdsCount.add(1);\n\n        emit CloseIssue(_issueID, _mergeID, merge.prAddresses);\n    }\n\n    function getIssuesByAddress(address _address) public returns (uint256[] memory){\n        return myIssues[_address];\n    }\n\n    function getVotesByAddress(address _address) public returns (uint256){\n        Voter storage voter = voters[_address];\n        return voter.votesDelegatedByOthers.add(voter.votesDelegated[_address]);\n    }\n    \n    function getIssueById(uint256 _issueID) public returns (uint256, uint256, address, uint256, uint256, bool){\n        Issue memory issue = issues[_issueID];\n        return (issue._id, issue.beproStaked, issue.issueGenerator, issue.votesForApprove, issue.mergeIDIncrement, issue.finalized);\n    }\n\n    function getMergeById(uint256 _issueID, uint256 _mergeId) public returns (uint256, uint256, address[] memory, uint256[] memory, address){\n        MergeProposal memory merge = issues[_issueID].mergeProposals[_mergeId];\n        return (merge._id, merge.votes, merge.prAddresses, merge.prAmounts, merge.proposalAddress);\n    }\n\n    /**\n     * @dev Change BEPRO Token Address (Upgrade)\n     */\n    function changeBEPROAddress(address _newAddress) public onlyOwner {\n        beproToken = _IERC20(_newAddress);\n    }\n\n    /**\n     * @dev Change Fee Address\n    */\n    function editFeeAddress(address _newAddress) public onlyOwner {\n        feeAddress = _newAddress;\n    }\n\n    /**\n     * @dev Change Share Fee Amount\n    */\n    function editFeeShare(uint256 _feeShare) public onlyOwner {\n        feeShare = _feeShare;\n    }\n\n    /**\n     * @dev Upgrade Contract Version\n     */\n    function upgradeContract(address _newContract) public onlyOwner whenPaused {\n        //To be done\n    }\n}\n",
  "sourcePath": "/Users/ruipedro/Desktop/projects/Bepro/@bepro-js/contracts/bepro/Network.sol",
  "compiler": {
    "name": "solc",
    "version": "0.6.2+commit.bacdbe57.Emscripten.clang"
  },
  "schemaVersion": "3.0.20",
  "updatedAt": "2021-04-30T10:31:23.468Z",
  "devdoc": {
    "methods": {
      "changeBEPROAddress(address)": {
        "details": "Change BEPRO Token Address (Upgrade)"
      },
      "closeIssue(uint256,uint256)": {
        "details": "Owner finalizes the issue and distributes the bepro or rejects the PR",
        "params": {
          "_issueID": "issue id (mapping with github)",
          "_mergeID": "merge id "
        }
      },
      "editFeeAddress(address)": {
        "details": "Change Fee Address"
      },
      "editFeeShare(uint256)": {
        "details": "Change Share Fee Amount"
      },
      "openIssue(uint256)": {
        "details": "open an Issue with bepro owned 1st step"
      },
      "paused()": {
        "details": "Returns true if the contract is paused, and false otherwise."
      },
      "proposeIssueMerge(uint256,address[],uint256[])": {
        "details": "Owner finalizes the issue and distributes the bepro or rejects the PR",
        "params": {
          "_issueID": "issue id (mapping with github)",
          "_prAddresses": "PR Address",
          "_prAmounts": "PR Amounts"
        }
      },
      "transferOwnership(address)": {
        "details": "Allows the current owner to transfer control of the contract to a newOwner.",
        "params": {
          "newOwner": "The address to transfer ownership to."
        }
      },
      "updateIssue(uint256,uint256)": {
        "details": "update an Issue with bepro owned 2nd step  (optional)"
      },
      "upgradeContract(address)": {
        "details": "Upgrade Contract Version"
      }
    },
    "title": "BEPRO Network Contract"
  },
  "userdoc": {
    "methods": {}
  }
}