{
  "contractName": "BEPRONetwork",
  "abi": [
    {
      "inputs": [],
      "stateMutability": "nonpayable",
      "type": "constructor"
    },
    {
      "anonymous": false,
      "inputs": [
        {
          "indexed": true,
          "internalType": "address",
          "name": "previousOwner",
          "type": "address"
        },
        {
          "indexed": true,
          "internalType": "address",
          "name": "newOwner",
          "type": "address"
        }
      ],
      "name": "OwnershipTransferred",
      "type": "event"
    },
    {
      "anonymous": false,
      "inputs": [
        {
          "indexed": false,
          "internalType": "address",
          "name": "account",
          "type": "address"
        }
      ],
      "name": "Paused",
      "type": "event"
    },
    {
      "anonymous": false,
      "inputs": [
        {
          "indexed": false,
          "internalType": "address",
          "name": "account",
          "type": "address"
        }
      ],
      "name": "Unpaused",
      "type": "event"
    },
    {
      "inputs": [],
      "name": "beproTicketToken",
      "outputs": [
        {
          "internalType": "contract _IERC20",
          "name": "",
          "type": "address"
        }
      ],
      "stateMutability": "view",
      "type": "function"
    },
    {
      "inputs": [],
      "name": "beproToken",
      "outputs": [
        {
          "internalType": "contract _IERC20",
          "name": "",
          "type": "address"
        }
      ],
      "stateMutability": "view",
      "type": "function"
    },
    {
      "inputs": [],
      "name": "incrementID",
      "outputs": [
        {
          "internalType": "uint256",
          "name": "",
          "type": "uint256"
        }
      ],
      "stateMutability": "view",
      "type": "function"
    },
    {
      "inputs": [],
      "name": "incrementIssueID",
      "outputs": [
        {
          "internalType": "uint256",
          "name": "",
          "type": "uint256"
        }
      ],
      "stateMutability": "view",
      "type": "function"
    },
    {
      "inputs": [
        {
          "internalType": "uint256",
          "name": "",
          "type": "uint256"
        }
      ],
      "name": "issues",
      "outputs": [
        {
          "internalType": "uint256",
          "name": "_id",
          "type": "uint256"
        },
        {
          "internalType": "uint256",
          "name": "ticketsStaked",
          "type": "uint256"
        },
        {
          "internalType": "address",
          "name": "issueGenerator",
          "type": "address"
        },
        {
          "internalType": "bool",
          "name": "finalized",
          "type": "bool"
        }
      ],
      "stateMutability": "view",
      "type": "function"
    },
    {
      "inputs": [
        {
          "internalType": "address",
          "name": "",
          "type": "address"
        },
        {
          "internalType": "uint256",
          "name": "",
          "type": "uint256"
        }
      ],
      "name": "myIssues",
      "outputs": [
        {
          "internalType": "uint256",
          "name": "",
          "type": "uint256"
        }
      ],
      "stateMutability": "view",
      "type": "function"
    },
    {
      "inputs": [
        {
          "internalType": "address",
          "name": "",
          "type": "address"
        }
      ],
      "name": "mySubscription",
      "outputs": [
        {
          "internalType": "uint256",
          "name": "",
          "type": "uint256"
        }
      ],
      "stateMutability": "view",
      "type": "function"
    },
    {
      "inputs": [],
      "name": "owner",
      "outputs": [
        {
          "internalType": "address",
          "name": "",
          "type": "address"
        }
      ],
      "stateMutability": "view",
      "type": "function"
    },
    {
      "inputs": [],
      "name": "paused",
      "outputs": [
        {
          "internalType": "bool",
          "name": "",
          "type": "bool"
        }
      ],
      "stateMutability": "view",
      "type": "function"
    },
    {
      "inputs": [],
      "name": "ratioOfApproving",
      "outputs": [
        {
          "internalType": "uint256",
          "name": "",
          "type": "uint256"
        }
      ],
      "stateMutability": "view",
      "type": "function"
    },
    {
      "inputs": [
        {
          "internalType": "uint256",
          "name": "",
          "type": "uint256"
        }
      ],
      "name": "subscriptions",
      "outputs": [
        {
          "internalType": "uint256",
          "name": "_id",
          "type": "uint256"
        },
        {
          "internalType": "uint256",
          "name": "startDate",
          "type": "uint256"
        },
        {
          "internalType": "uint256",
          "name": "amount",
          "type": "uint256"
        },
        {
          "internalType": "uint256",
          "name": "ticketsAccumulatedNotClaimed",
          "type": "uint256"
        },
        {
          "internalType": "uint256",
          "name": "lastUpdateDate",
          "type": "uint256"
        },
        {
          "internalType": "address",
          "name": "subscriberAddress",
          "type": "address"
        }
      ],
      "stateMutability": "view",
      "type": "function"
    },
    {
      "inputs": [],
      "name": "ticketGenAPR",
      "outputs": [
        {
          "internalType": "uint256",
          "name": "",
          "type": "uint256"
        }
      ],
      "stateMutability": "view",
      "type": "function"
    },
    {
      "inputs": [],
      "name": "totalStaked",
      "outputs": [
        {
          "internalType": "uint256",
          "name": "",
          "type": "uint256"
        }
      ],
      "stateMutability": "view",
      "type": "function"
    },
    {
      "inputs": [],
      "name": "totalTicketsStaked",
      "outputs": [
        {
          "internalType": "uint256",
          "name": "",
          "type": "uint256"
        }
      ],
      "stateMutability": "view",
      "type": "function"
    },
    {
      "inputs": [
        {
          "internalType": "address",
          "name": "newOwner",
          "type": "address"
        }
      ],
      "name": "transferOwnership",
      "outputs": [],
      "stateMutability": "nonpayable",
      "type": "function"
    },
    {
      "inputs": [
        {
          "internalType": "uint256",
          "name": "_amount",
          "type": "uint256"
        }
      ],
      "name": "stake",
      "outputs": [],
      "stateMutability": "nonpayable",
      "type": "function"
    },
    {
      "inputs": [
        {
          "internalType": "uint256",
          "name": "_amount",
          "type": "uint256"
        }
      ],
      "name": "unstake",
      "outputs": [],
      "stateMutability": "nonpayable",
      "type": "function"
    },
    {
      "inputs": [
        {
          "internalType": "uint256",
          "name": "_ticketsAmount",
          "type": "uint256"
        }
      ],
      "name": "openIssue",
      "outputs": [],
      "stateMutability": "nonpayable",
      "type": "function"
    },
    {
      "inputs": [
        {
          "internalType": "uint256",
          "name": "_issueId",
          "type": "uint256"
        },
        {
          "internalType": "uint256",
          "name": "_newTicketsAmount",
          "type": "uint256"
        }
      ],
      "name": "updateIssue",
      "outputs": [],
      "stateMutability": "nonpayable",
      "type": "function"
    },
    {
      "inputs": [
        {
          "internalType": "uint256",
          "name": "_issueID",
          "type": "uint256"
        },
        {
          "internalType": "address[]",
          "name": "_prAddresses",
          "type": "address[]"
        },
        {
          "internalType": "uint256[]",
          "name": "_amounts",
          "type": "uint256[]"
        }
      ],
      "name": "closeIssue",
      "outputs": [],
      "stateMutability": "nonpayable",
      "type": "function"
    },
    {
      "inputs": [],
      "name": "claimTickets",
      "outputs": [],
      "stateMutability": "nonpayable",
      "type": "function"
    },
    {
      "inputs": [
        {
          "internalType": "uint256",
          "name": "_startDate",
          "type": "uint256"
        },
        {
          "internalType": "uint256",
          "name": "_endDate",
          "type": "uint256"
        },
        {
          "internalType": "uint256",
          "name": "_amount",
          "type": "uint256"
        }
      ],
      "name": "getTicketAPRAmount",
      "outputs": [
        {
          "internalType": "uint256",
          "name": "",
          "type": "uint256"
        }
      ],
      "stateMutability": "nonpayable",
      "type": "function"
    },
    {
      "inputs": [
        {
          "internalType": "address",
          "name": "_newAddress",
          "type": "address"
        }
      ],
      "name": "changeBEPROAddress",
      "outputs": [],
      "stateMutability": "nonpayable",
      "type": "function"
    },
    {
      "inputs": [
        {
          "internalType": "address",
          "name": "_newAddress",
          "type": "address"
        }
      ],
      "name": "setBeproTicketToken",
      "outputs": [],
      "stateMutability": "nonpayable",
      "type": "function"
    },
    {
      "inputs": [
        {
          "internalType": "uint256",
          "name": "_ticketGenAPR",
          "type": "uint256"
        }
      ],
      "name": "editTicketGenAPR",
      "outputs": [],
      "stateMutability": "nonpayable",
      "type": "function"
    },
    {
      "inputs": [
        {
          "internalType": "address",
          "name": "_newContract",
          "type": "address"
        }
      ],
      "name": "upgradeContract",
      "outputs": [],
      "stateMutability": "nonpayable",
      "type": "function"
    },
    {
      "inputs": [],
      "name": "getSubscriptionID",
      "outputs": [
        {
          "internalType": "uint256",
          "name": "",
          "type": "uint256"
        }
      ],
      "stateMutability": "nonpayable",
      "type": "function"
    }
  ],
  "bytecode": "0x608060405273cf3c8be2e2c42331da80ef210e9b1b307c03d36a600160006101000a81548173ffffffffffffffffffffffffffffffffffffffff021916908373ffffffffffffffffffffffffffffffffffffffff16021790555060016003556001600455620f424060055560006006556000600755603c60085534801561008557600080fd5b5060008060006101000a81548160ff02191690831515021790555033600060016101000a81548173ffffffffffffffffffffffffffffffffffffffff021916908373ffffffffffffffffffffffffffffffffffffffff160217905550613038806100f06000396000f3fe608060405234801561001057600080fd5b50600436106101c6576000357c01000000000000000000000000000000000000000000000000000000009004806381fe4c6111610116578063a694fc3a116100b4578063e0205b8b1161008e578063e0205b8b14610835578063e113e45214610853578063eb2c02231461089d578063f2fde38b146108e1576101c6565b8063a694fc3a14610795578063b2bb95f5146107c3578063d68c958b146107f1576101c6565b80638da5cb5b116100f05780638da5cb5b146106b55780638e2a6036146106ff57806395d7427a1461072d578063a039139e1461074b576101c6565b806381fe4c6114610537578063833bdcec146105415780638440bd7a14610697576101c6565b806330ff19ac116101835780635c975abb1161015d5780635c975abb146104835780636a2eba91146104a5578063729911a8146104fb578063817b1cd214610519576101c6565b806330ff19ac146103c95780635ac203cf146104215780635bc31ff414610465576101c6565b806304e15de5146101cb5780630556330914610252578063122aedd11461028a5780631ac63d92146102a85780632d5bbf601461030a5780632e17de781461039b575b600080fd5b6101f7600480360360208110156101e157600080fd5b8101908080359060200190929190505050610925565b604051808581526020018481526020018373ffffffffffffffffffffffffffffffffffffffff1673ffffffffffffffffffffffffffffffffffffffff1681526020018215151515815260200194505050505060405180910390f35b6102886004803603604081101561026857600080fd5b810190808035906020019092919080359060200190929190505050610982565b005b610292610f40565b6040518082815260200191505060405180910390f35b6102f4600480360360408110156102be57600080fd5b81019080803573ffffffffffffffffffffffffffffffffffffffff16906020019092919080359060200190929190505050610f46565b6040518082815260200191505060405180910390f35b6103366004803603602081101561032057600080fd5b8101908080359060200190929190505050610f74565b604051808781526020018681526020018581526020018481526020018381526020018273ffffffffffffffffffffffffffffffffffffffff1673ffffffffffffffffffffffffffffffffffffffff168152602001965050505050505060405180910390f35b6103c7600480360360208110156103b157600080fd5b8101908080359060200190929190505050610fd0565b005b61040b600480360360208110156103df57600080fd5b81019080803573ffffffffffffffffffffffffffffffffffffffff1690602001909291905050506112a9565b6040518082815260200191505060405180910390f35b6104636004803603602081101561043757600080fd5b81019080803573ffffffffffffffffffffffffffffffffffffffff1690602001909291905050506112c1565b005b61046d61135f565b6040518082815260200191505060405180910390f35b61048b611365565b604051808215151515815260200191505060405180910390f35b6104e5600480360360608110156104bb57600080fd5b8101908080359060200190929190803590602001909291908035906020019092919050505061137b565b6040518082815260200191505060405180910390f35b6105036113e8565b6040518082815260200191505060405180910390f35b6105216113ee565b6040518082815260200191505060405180910390f35b61053f6113f4565b005b6106956004803603606081101561055757600080fd5b81019080803590602001909291908035906020019064010000000081111561057e57600080fd5b82018360208201111561059057600080fd5b803590602001918460208302840111640100000000831117156105b257600080fd5b919080806020026020016040519081016040528093929190818152602001838360200280828437600081840152601f19601f8201169050808301925050505050505091929192908035906020019064010000000081111561061257600080fd5b82018360208201111561062457600080fd5b8035906020019184602083028401116401000000008311171561064657600080fd5b919080806020026020016040519081016040528093929190818152602001838360200280828437600081840152601f19601f820116905080830192505050505050509192919290505050611734565b005b61069f611cf0565b6040518082815260200191505060405180910390f35b6106bd611cf6565b604051808273ffffffffffffffffffffffffffffffffffffffff1673ffffffffffffffffffffffffffffffffffffffff16815260200191505060405180910390f35b61072b6004803603602081101561071557600080fd5b8101908080359060200190929190505050611d1c565b005b610735611d80565b6040518082815260200191505060405180910390f35b610753611e42565b604051808273ffffffffffffffffffffffffffffffffffffffff1673ffffffffffffffffffffffffffffffffffffffff16815260200191505060405180910390f35b6107c1600480360360208110156107ab57600080fd5b8101908080359060200190929190505050611e68565b005b6107ef600480360360208110156107d957600080fd5b810190808035906020019092919050505061227b565b005b6108336004803603602081101561080757600080fd5b81019080803573ffffffffffffffffffffffffffffffffffffffff1690602001909291905050506125df565b005b61083d61267d565b6040518082815260200191505060405180910390f35b61085b612683565b604051808273ffffffffffffffffffffffffffffffffffffffff1673ffffffffffffffffffffffffffffffffffffffff16815260200191505060405180910390f35b6108df600480360360208110156108b357600080fd5b81019080803573ffffffffffffffffffffffffffffffffffffffff1690602001909291905050506126a9565b005b610923600480360360208110156108f757600080fd5b81019080803573ffffffffffffffffffffffffffffffffffffffff169060200190929190505050612780565b005b60096020528060005260406000206000915090508060000154908060010154908060020160009054906101000a900473ffffffffffffffffffffffffffffffffffffffff16908060020160149054906101000a900460ff16905084565b61098a611365565b156109fd576040517f08c379a00000000000000000000000000000000000000000000000000000000081526004018080602001828103825260108152602001807f5061757361626c653a207061757365640000000000000000000000000000000081525060200191505060405180910390fd5b3373ffffffffffffffffffffffffffffffffffffffff166009600084815260200190815260200160002060020160009054906101000a900473ffffffffffffffffffffffffffffffffffffffff1673ffffffffffffffffffffffffffffffffffffffff1614610ad4576040517f08c379a00000000000000000000000000000000000000000000000000000000081526004018080602001828103825260098152602001807f4e6f74206f776e6572000000000000000000000000000000000000000000000081525060200191505060405180910390fd5b600060096000848152602001908152602001600020600101541415610b61576040517f08c379a00000000000000000000000000000000000000000000000000000000081526004018080602001828103825260128152602001807f49737375652068617320746f206578697374000000000000000000000000000081525060200191505060405180910390fd5b60006009600084815260200190815260200160002060010154905081600960008581526020019081526020016000206001018190555080821115610d8957600260009054906101000a900473ffffffffffffffffffffffffffffffffffffffff1673ffffffffffffffffffffffffffffffffffffffff166323b872dd3330610bf285876128d490919063ffffffff16565b6040518463ffffffff167c0100000000000000000000000000000000000000000000000000000000028152600401808473ffffffffffffffffffffffffffffffffffffffff1673ffffffffffffffffffffffffffffffffffffffff1681526020018373ffffffffffffffffffffffffffffffffffffffff1673ffffffffffffffffffffffffffffffffffffffff1681526020018281526020019350505050602060405180830381600087803b158015610caa57600080fd5b505af1158015610cbe573d6000803e3d6000fd5b505050506040513d6020811015610cd457600080fd5b8101908080519060200190929190505050610d57576040517f08c379a000000000000000000000000000000000000000000000000000000000815260040180806020018281038252600f8152602001807f4e6565647320416c6c6f77616e6365000000000000000000000000000000000081525060200191505060405180910390fd5b610d7e610d6d82846128d490919063ffffffff16565b60075461295790919063ffffffff16565b600781905550610f3b565b600260009054906101000a900473ffffffffffffffffffffffffffffffffffffffff1673ffffffffffffffffffffffffffffffffffffffff1663a9059cbb33610ddb85856128d490919063ffffffff16565b6040518363ffffffff167c0100000000000000000000000000000000000000000000000000000000028152600401808373ffffffffffffffffffffffffffffffffffffffff1673ffffffffffffffffffffffffffffffffffffffff16815260200182815260200192505050602060405180830381600087803b158015610e6057600080fd5b505af1158015610e74573d6000803e3d6000fd5b505050506040513d6020811015610e8a57600080fd5b8101908080519060200190929190505050610f0d576040517f08c379a00000000000000000000000000000000000000000000000000000000081526004018080602001828103825260168152602001807f5472616e73666572206e6f742073756365737366756c0000000000000000000081525060200191505060405180910390fd5b610f34610f2383836128d490919063ffffffff16565b6007546128d490919063ffffffff16565b6007819055505b505050565b60085481565b600c6020528160005260406000208181548110610f5f57fe5b90600052602060002001600091509150505481565b600a6020528060005260406000206000915090508060000154908060010154908060020154908060030154908060040154908060050160009054906101000a900473ffffffffffffffffffffffffffffffffffffffff16905086565b610fd8611365565b1561104b576040517f08c379a00000000000000000000000000000000000000000000000000000000081526004018080602001828103825260108152602001807f5061757361626c653a207061757365640000000000000000000000000000000081525060200191505060405180910390fd5b6000611055611d80565b905081600a60008381526020019081526020016000206002015410156110c6576040517f08c379a0000000000000000000000000000000000000000000000000000000008152600401808060200182810382526034815260200180612f896034913960400191505060405180910390fd5b60006110f183600a6000858152602001908152602001600020600201546128d490919063ffffffff16565b905080600a600084815260200190815260200160002060020181905550611117826129df565b61112c836006546128d490919063ffffffff16565b600681905550600160009054906101000a900473ffffffffffffffffffffffffffffffffffffffff1673ffffffffffffffffffffffffffffffffffffffff1663a9059cbb33856040518363ffffffff167c0100000000000000000000000000000000000000000000000000000000028152600401808373ffffffffffffffffffffffffffffffffffffffff1673ffffffffffffffffffffffffffffffffffffffff16815260200182815260200192505050602060405180830381600087803b1580156111f757600080fd5b505af115801561120b573d6000803e3d6000fd5b505050506040513d602081101561122157600080fd5b81019080805190602001909291905050506112a4576040517f08c379a00000000000000000000000000000000000000000000000000000000081526004018080602001828103825260158152602001807f5472616e73666572206e6f7420706f737369626c65000000000000000000000081525060200191505060405180910390fd5b505050565b600b6020528060005260406000206000915090505481565b600060019054906101000a900473ffffffffffffffffffffffffffffffffffffffff1673ffffffffffffffffffffffffffffffffffffffff163373ffffffffffffffffffffffffffffffffffffffff161461131b57600080fd5b80600160006101000a81548173ffffffffffffffffffffffffffffffffffffffff021916908373ffffffffffffffffffffffffffffffffffffffff16021790555050565b60055481565b60008060009054906101000a900460ff16905090565b60006113df61139860646301e13380612c8f90919063ffffffff16565b6113d1846113c36005546113b58a8a6128d490919063ffffffff16565b612c8f90919063ffffffff16565b612c8f90919063ffffffff16565b612d1590919063ffffffff16565b90509392505050565b60045481565b60065481565b6113fc611365565b1561146f576040517f08c379a00000000000000000000000000000000000000000000000000000000081526004018080602001828103825260108152602001807f5061757361626c653a207061757365640000000000000000000000000000000081525060200191505060405180910390fd5b6000611479611d80565b9050611484816129df565b6000600a60008381526020019081526020016000206003015490506000600a600084815260200190815260200160002060030181905550600260009054906101000a900473ffffffffffffffffffffffffffffffffffffffff1673ffffffffffffffffffffffffffffffffffffffff1663f50249fc6040518163ffffffff167c0100000000000000000000000000000000000000000000000000000000028152600401602060405180830381600087803b15801561154157600080fd5b505af1158015611555573d6000803e3d6000fd5b505050506040513d602081101561156b57600080fd5b810190808051906020019092919050505061164d82600260009054906101000a900473ffffffffffffffffffffffffffffffffffffffff1673ffffffffffffffffffffffffffffffffffffffff166318160ddd6040518163ffffffff167c010000000000000000000000000000000000000000000000000000000002815260040160206040518083038186803b15801561160457600080fd5b505afa158015611618573d6000803e3d6000fd5b505050506040513d602081101561162e57600080fd5b810190808051906020019092919050505061295790919063ffffffff16565b1161173057600260009054906101000a900473ffffffffffffffffffffffffffffffffffffffff1673ffffffffffffffffffffffffffffffffffffffff166340c10f1933836040518363ffffffff167c0100000000000000000000000000000000000000000000000000000000028152600401808373ffffffffffffffffffffffffffffffffffffffff1673ffffffffffffffffffffffffffffffffffffffff16815260200182815260200192505050600060405180830381600087803b15801561171757600080fd5b505af115801561172b573d6000803e3d6000fd5b505050505b5050565b61173c611365565b156117af576040517f08c379a00000000000000000000000000000000000000000000000000000000081526004018080602001828103825260108152602001807f5061757361626c653a207061757365640000000000000000000000000000000081525060200191505060405180910390fd5b600060019054906101000a900473ffffffffffffffffffffffffffffffffffffffff1673ffffffffffffffffffffffffffffffffffffffff163373ffffffffffffffffffffffffffffffffffffffff161461180957600080fd5b600060096000858152602001908152602001600020600001541415611896576040517f08c379a00000000000000000000000000000000000000000000000000000000081526004018080602001828103825260128152602001807f49737375652068617320746f206578697374000000000000000000000000000081525060200191505060405180910390fd5b600015156009600085815260200190815260200160002060020160149054906101000a900460ff16151514611933576040517f08c379a00000000000000000000000000000000000000000000000000000000081526004018080602001828103825260168152602001807f49737375652068617320746f206265206f70656e65640000000000000000000081525060200191505060405180910390fd5b815181511461198d576040517f08c379a0000000000000000000000000000000000000000000000000000000008152600401808060200182810382526025815260200180612fde6025913960400191505060405180910390fd5b60016009600085815260200190815260200160002060020160146101000a81548160ff021916908315150217905550816009600085815260200190815260200160002060030190805190602001906119e6929190612d9e565b50600080905060008090505b8351811015611a3057611a21838281518110611a0a57fe5b60200260200101518361295790919063ffffffff16565b915080806001019150506119f2565b5060096000858152602001908152602001600020600101548114611abc576040517f08c379a00000000000000000000000000000000000000000000000000000000081526004018080602001828103825260118152602001807f546f74616c7320646f6e74206d6174636800000000000000000000000000000081525060200191505060405180910390fd5b60008090505b8351811015611ce957600c6000858381518110611adb57fe5b602002602001015173ffffffffffffffffffffffffffffffffffffffff1673ffffffffffffffffffffffffffffffffffffffff168152602001908152602001600020859080600181540180825580915050600190039060005260206000200160009091909190915055600260009054906101000a900473ffffffffffffffffffffffffffffffffffffffff1673ffffffffffffffffffffffffffffffffffffffff1663a9059cbb858381518110611b8e57fe5b6020026020010151858481518110611ba257fe5b60200260200101516040518363ffffffff167c0100000000000000000000000000000000000000000000000000000000028152600401808373ffffffffffffffffffffffffffffffffffffffff1673ffffffffffffffffffffffffffffffffffffffff16815260200182815260200192505050602060405180830381600087803b158015611c2f57600080fd5b505af1158015611c43573d6000803e3d6000fd5b505050506040513d6020811015611c5957600080fd5b8101908080519060200190929190505050611cdc576040517f08c379a000000000000000000000000000000000000000000000000000000000815260040180806020018281038252600f8152602001807f48617320746f207472616e73666572000000000000000000000000000000000081525060200191505060405180910390fd5b8080600101915050611ac2565b5050505050565b60075481565b600060019054906101000a900473ffffffffffffffffffffffffffffffffffffffff1681565b600060019054906101000a900473ffffffffffffffffffffffffffffffffffffffff1673ffffffffffffffffffffffffffffffffffffffff163373ffffffffffffffffffffffffffffffffffffffff1614611d7657600080fd5b8060058190555050565b600080600b60003373ffffffffffffffffffffffffffffffffffffffff1673ffffffffffffffffffffffffffffffffffffffff16815260200190815260200160002054905060008111611e3b576040517f08c379a00000000000000000000000000000000000000000000000000000000081526004018080602001828103825260148152602001807f4e6f206f70656e20737562736372697074696f6e00000000000000000000000081525060200191505060405180910390fd5b8091505090565b600260009054906101000a900473ffffffffffffffffffffffffffffffffffffffff1681565b611e70611365565b15611ee3576040517f08c379a00000000000000000000000000000000000000000000000000000000081526004018080602001828103825260108152602001807f5061757361626c653a207061757365640000000000000000000000000000000081525060200191505060405180910390fd5b6000600b60003373ffffffffffffffffffffffffffffffffffffffff1673ffffffffffffffffffffffffffffffffffffffff1681526020019081526020016000205490506000811115611f7857611f5982600a60008481526020019081526020016000206002015461295790919063ffffffff16565b600a6000838152602001908152602001600020600201819055506120a1565b6003549050611f85612e28565b6040518060c00160405280838152602001428152602001848152602001600081526020014281526020013373ffffffffffffffffffffffffffffffffffffffff16815250905080600a6000848152602001908152602001600020600082015181600001556020820151816001015560408201518160020155606082015181600301556080820151816004015560a08201518160050160006101000a81548173ffffffffffffffffffffffffffffffffffffffff021916908373ffffffffffffffffffffffffffffffffffffffff16021790555090505081600b60003373ffffffffffffffffffffffffffffffffffffffff1673ffffffffffffffffffffffffffffffffffffffff16815260200190815260200160002081905550505b600160009054906101000a900473ffffffffffffffffffffffffffffffffffffffff1673ffffffffffffffffffffffffffffffffffffffff166323b872dd3330856040518463ffffffff167c0100000000000000000000000000000000000000000000000000000000028152600401808473ffffffffffffffffffffffffffffffffffffffff1673ffffffffffffffffffffffffffffffffffffffff1681526020018373ffffffffffffffffffffffffffffffffffffffff1673ffffffffffffffffffffffffffffffffffffffff1681526020018281526020019350505050602060405180830381600087803b15801561219a57600080fd5b505af11580156121ae573d6000803e3d6000fd5b505050506040513d60208110156121c457600080fd5b8101908080519060200190929190505050612247576040517f08c379a000000000000000000000000000000000000000000000000000000000815260040180806020018281038252600f8152602001807f4e6565647320416c6c6f77616e6365000000000000000000000000000000000081525060200191505060405180910390fd5b612250816129df565b6122658260065461295790919063ffffffff16565b6006819055506001600354016003819055505050565b612283611365565b156122f6576040517f08c379a00000000000000000000000000000000000000000000000000000000081526004018080602001828103825260108152602001807f5061757361626c653a207061757365640000000000000000000000000000000081525060200191505060405180910390fd5b6122fe612e74565b6004548160000181815250508181602001818152505033816040019073ffffffffffffffffffffffffffffffffffffffff16908173ffffffffffffffffffffffffffffffffffffffff1681525050600081606001901515908115158152505080600960006004548152602001908152602001600020600082015181600001556020820151816001015560408201518160020160006101000a81548173ffffffffffffffffffffffffffffffffffffffff021916908373ffffffffffffffffffffffffffffffffffffffff16021790555060608201518160020160146101000a81548160ff021916908315150217905550608082015181600301908051906020019061240a929190612ebb565b50905050600260009054906101000a900473ffffffffffffffffffffffffffffffffffffffff1673ffffffffffffffffffffffffffffffffffffffff166323b872dd3330856040518463ffffffff167c0100000000000000000000000000000000000000000000000000000000028152600401808473ffffffffffffffffffffffffffffffffffffffff1673ffffffffffffffffffffffffffffffffffffffff1681526020018373ffffffffffffffffffffffffffffffffffffffff1673ffffffffffffffffffffffffffffffffffffffff1681526020018281526020019350505050602060405180830381600087803b15801561250757600080fd5b505af115801561251b573d6000803e3d6000fd5b505050506040513d602081101561253157600080fd5b81019080805190602001909291905050506125b4576040517f08c379a000000000000000000000000000000000000000000000000000000000815260040180806020018281038252600f8152602001807f4e6565647320416c6c6f77616e6365000000000000000000000000000000000081525060200191505060405180910390fd5b6125c9826007546128d490919063ffffffff16565b6007819055506001600454016004819055505050565b600060019054906101000a900473ffffffffffffffffffffffffffffffffffffffff1673ffffffffffffffffffffffffffffffffffffffff163373ffffffffffffffffffffffffffffffffffffffff161461263957600080fd5b80600260006101000a81548173ffffffffffffffffffffffffffffffffffffffff021916908373ffffffffffffffffffffffffffffffffffffffff16021790555050565b60035481565b600160009054906101000a900473ffffffffffffffffffffffffffffffffffffffff1681565b600060019054906101000a900473ffffffffffffffffffffffffffffffffffffffff1673ffffffffffffffffffffffffffffffffffffffff163373ffffffffffffffffffffffffffffffffffffffff161461270357600080fd5b61270b611365565b61277d576040517f08c379a00000000000000000000000000000000000000000000000000000000081526004018080602001828103825260148152602001807f5061757361626c653a206e6f742070617573656400000000000000000000000081525060200191505060405180910390fd5b50565b600060019054906101000a900473ffffffffffffffffffffffffffffffffffffffff1673ffffffffffffffffffffffffffffffffffffffff163373ffffffffffffffffffffffffffffffffffffffff16146127da57600080fd5b600073ffffffffffffffffffffffffffffffffffffffff168173ffffffffffffffffffffffffffffffffffffffff16141561281457600080fd5b8073ffffffffffffffffffffffffffffffffffffffff16600060019054906101000a900473ffffffffffffffffffffffffffffffffffffffff1673ffffffffffffffffffffffffffffffffffffffff167f8be0079c531659141344cd1fd0a4f28419497f9722a3daafe3b4186f6b6457e060405160405180910390a380600060016101000a81548173ffffffffffffffffffffffffffffffffffffffff021916908373ffffffffffffffffffffffffffffffffffffffff16021790555050565b60008282111561294c576040517f08c379a000000000000000000000000000000000000000000000000000000000815260040180806020018281038252601e8152602001807f536166654d6174683a207375627472616374696f6e206f766572666c6f77000081525060200191505060405180910390fd5b818303905092915050565b6000808284019050838110156129d5576040517f08c379a000000000000000000000000000000000000000000000000000000000815260040180806020018281038252601b8152602001807f536166654d6174683a206164646974696f6e206f766572666c6f77000000000081525060200191505060405180910390fd5b8091505092915050565b6129e7611365565b15612a5a576040517f08c379a00000000000000000000000000000000000000000000000000000000081526004018080602001828103825260108152602001807f5061757361626c653a207061757365640000000000000000000000000000000081525060200191505060405180910390fd5b6000612abb612a96600a60008581526020019081526020016000206004015442600a60008781526020019081526020016000206002015461137b565b600a60008581526020019081526020016000206003015461295790919063ffffffff16565b9050600260009054906101000a900473ffffffffffffffffffffffffffffffffffffffff1673ffffffffffffffffffffffffffffffffffffffff1663f50249fc6040518163ffffffff167c0100000000000000000000000000000000000000000000000000000000028152600401602060405180830381600087803b158015612b4357600080fd5b505af1158015612b57573d6000803e3d6000fd5b505050506040513d6020811015612b6d57600080fd5b8101908080519060200190929190505050612c4f82600260009054906101000a900473ffffffffffffffffffffffffffffffffffffffff1673ffffffffffffffffffffffffffffffffffffffff166318160ddd6040518163ffffffff167c010000000000000000000000000000000000000000000000000000000002815260040160206040518083038186803b158015612c0657600080fd5b505afa158015612c1a573d6000803e3d6000fd5b505050506040513d6020811015612c3057600080fd5b810190808051906020019092919050505061295790919063ffffffff16565b11612c705780600a6000848152602001908152602001600020600301819055505b42600a6000848152602001908152602001600020600401819055505050565b600080831415612ca25760009050612d0f565b6000828402905082848281612cb357fe5b0414612d0a576040517f08c379a0000000000000000000000000000000000000000000000000000000008152600401808060200182810382526021815260200180612fbd6021913960400191505060405180910390fd5b809150505b92915050565b6000808211612d8c576040517f08c379a000000000000000000000000000000000000000000000000000000000815260040180806020018281038252601a8152602001807f536166654d6174683a206469766973696f6e206279207a65726f00000000000081525060200191505060405180910390fd5b818381612d9557fe5b04905092915050565b828054828255906000526020600020908101928215612e17579160200282015b82811115612e165782518260006101000a81548173ffffffffffffffffffffffffffffffffffffffff021916908373ffffffffffffffffffffffffffffffffffffffff16021790555091602001919060010190612dbe565b5b509050612e249190612f45565b5090565b6040518060c001604052806000815260200160008152602001600081526020016000815260200160008152602001600073ffffffffffffffffffffffffffffffffffffffff1681525090565b6040518060a001604052806000815260200160008152602001600073ffffffffffffffffffffffffffffffffffffffff168152602001600015158152602001606081525090565b828054828255906000526020600020908101928215612f34579160200282015b82811115612f335782518260006101000a81548173ffffffffffffffffffffffffffffffffffffffff021916908373ffffffffffffffffffffffffffffffffffffffff16021790555091602001919060010190612edb565b5b509050612f419190612f45565b5090565b612f8591905b80821115612f8157600081816101000a81549073ffffffffffffffffffffffffffffffffffffffff021916905550600101612f4b565b5090565b9056fe416d6f756e7420746f20756e7374616b652068617320746f20626520657175616c206f72206c65737320746f2063757272656e74536166654d6174683a206d756c7469706c69636174696f6e206f766572666c6f77416d6f756e74732068617320746f20657175616c20616464726573736573206c656e677468a2646970667358221220c3ec550757d06bac983db7182c6ad2ea50b2cee614ad42dcca180b09c1c653dc64736f6c63430006020033",
  "source": "pragma solidity >=0.6.0;\n\nimport \"@openzeppelin/contracts/token/ERC20/ERC20.sol\";\nimport \"@openzeppelin/contracts/utils/Pausable.sol\";\nimport \"../utils/Ownable.sol\";\n\n\n/**\n * @dev Interface of the ERC20 standard + mint & burn\n */\ninterface _IERC20 is IERC20  {\n\n    function totalSupplyMax() external returns (uint256);\n    /**\n    * @dev Mint Function\n    */\n    function mint(address account, uint256 amount) external;\n\n    /**\n    * @dev Burn Function\n    */\n    function burn(address account, uint256 amount) external;\n\n}\n\n/**\n * @title BEPRO Network Contract\n */\ncontract BEPRONetwork is Pausable, Ownable{\n    using SafeMath for uint256;\n\n    _IERC20 public beproToken = _IERC20(0xCF3C8Be2e2C42331Da80EF210e9B1b307C03d36A);\n    _IERC20 public beproTicketToken;\n\n    uint256 constant private year = 365 days;\n    uint256 public incrementID = 1;\n    uint256 public incrementIssueID = 1;\n    uint256 public ticketGenAPR = 1000000; // 1 Ticket = 1M BEPRO Staked per Year (Operator)\n    uint256 public totalStaked = 0;\n    uint256 public totalTicketsStaked = 0;\n    uint256 public ratioOfApproving = 60;\n\n    mapping(uint256 => Issue) public issues; /* Distribution object */\n    mapping(uint256 => Subscription) public subscriptions; /* Distribution object */\n    mapping(address => uint256) public mySubscription; /* Address Based Subcription */\n    mapping(address => uint256[]) public myIssues; /* Address Based Subcription */\n\n    struct Subscription {\n        uint256 _id;\n        uint256 startDate;\n        uint256 amount;\n        uint256 ticketsAccumulatedNotClaimed;\n        uint256 lastUpdateDate;\n        address subscriberAddress;\n    }\n\n     struct Issue {\n        uint256 _id;\n        uint256 ticketsStaked;\n        address issueGenerator;\n        bool finalized;\n        address[] prAddresses;\n    }\n\n    constructor() public {        \n    }\n\n\n    function _updateTicketsAcumulated(uint256 _id) internal whenNotPaused {\n        uint256 _newTickets = subscriptions[_id].ticketsAccumulatedNotClaimed.add(getTicketAPRAmount(\n                subscriptions[_id].lastUpdateDate,\n                block.timestamp,\n                subscriptions[_id].amount\n        ));\n        if(beproTicketToken.totalSupply().add(_newTickets) <= beproTicketToken.totalSupplyMax()){\n            subscriptions[_id].ticketsAccumulatedNotClaimed = _newTickets;\n        }\n\n        subscriptions[_id].lastUpdateDate = block.timestamp;\n    }\n\n    /**\n     * @dev Stakes an Amount of tokens to generate tickets     \n    */\n    function stake(uint256 _amount) public whenNotPaused {\n        uint256 id = mySubscription[msg.sender];\n        if(id > 0){\n            // has stake already\n            subscriptions[id].amount = subscriptions[id].amount.add(_amount);\n        }else{\n            id = incrementID;\n            // new stake\n            Subscription memory subscription = Subscription(id, block.timestamp, _amount, 0, block.timestamp, msg.sender);\n            subscriptions[id] = subscription;\n            mySubscription[msg.sender] = id;\n        }\n\n        require(beproToken.transferFrom(msg.sender, address(this), _amount), \"Needs Allowance\");\n        _updateTicketsAcumulated(id);\n        totalStaked = totalStaked.add(_amount);\n        incrementID = incrementID+1;\n    }\n       \n    /**\n     * @dev Unstakes an Amount of tokens to generate tickets\n     */\n    function unstake(uint256 _amount) public whenNotPaused {\n        uint256 id = getSubscriptionID();\n        require(subscriptions[id].amount >=_amount, \"Amount to unstake has to be equal or less to current\");\n        uint256 newAmount = subscriptions[id].amount.sub(_amount);\n        subscriptions[id].amount = newAmount;\n        // Accumulated Tickets\n        _updateTicketsAcumulated(id);\n        // has stake already\n        totalStaked = totalStaked.sub(_amount);\n        require(beproToken.transfer(msg.sender, _amount), \"Transfer not possible\");\n\n    }\n   \n    /**\n     * @dev open an Issue with tickets owned\n     */\n    function openIssue(uint256 _ticketsAmount) public whenNotPaused {\n        // Open Issue\n        Issue memory issue;\n        issue._id = incrementIssueID;\n        issue.ticketsStaked = _ticketsAmount;\n        issue.issueGenerator = msg.sender;\n        issue.finalized = false;\n        issues[incrementIssueID] = issue;\n        // Stake tickets\n        require(beproTicketToken.transferFrom(msg.sender, address(this), _ticketsAmount), \"Needs Allowance\");\n        totalTicketsStaked = totalTicketsStaked.sub(_ticketsAmount);\n        incrementIssueID = incrementIssueID + 1;\n    }\n\n    /**\n     * @dev update an Issue with tickets owned\n     */\n    function updateIssue(uint256 _issueId, uint256 _newTicketsAmount) public whenNotPaused {\n        require(issues[_issueId].issueGenerator == msg.sender, \"Not owner\");\n        require(issues[_issueId].ticketsStaked != 0, \"Issue has to exist\");\n        uint256 previousAmount = issues[_issueId].ticketsStaked;\n        // Update Issue\n        issues[_issueId].ticketsStaked = _newTicketsAmount;\n        // Stake tickets\n        if(_newTicketsAmount > previousAmount){\n            require(beproTicketToken.transferFrom(msg.sender, address(this), _newTicketsAmount.sub(previousAmount)), \"Needs Allowance\");\n            totalTicketsStaked = totalTicketsStaked.add(_newTicketsAmount.sub(previousAmount));\n        }else{\n            require(beproTicketToken.transfer(msg.sender, previousAmount.sub(_newTicketsAmount)), \"Transfer not sucessful\");\n            totalTicketsStaked = totalTicketsStaked.sub(previousAmount.sub(_newTicketsAmount));\n        }\n\n    }\n\n    /**\n     * @dev Owner finalizes the issue and distributes the reputation or rejects the PR\n     * @param _issueID issue id (mapping with github)\n     * @param _prAddresses PR Address\n     * @param _amounts Amounts\n     */\n    function closeIssue(uint256 _issueID, address[] memory _prAddresses, uint256[] memory _amounts) public whenNotPaused onlyOwner {\n        require(issues[_issueID]._id != 0 , \"Issue has to exist\");\n        require(issues[_issueID].finalized == false, \"Issue has to be opened\");\n        require(_amounts.length == _prAddresses.length, \"Amounts has to equal addresses length\");\n\n        // Closes the issue\n        issues[_issueID].finalized = true;\n        issues[_issueID].prAddresses = _prAddresses;\n        uint256 total = 0;\n\n        for(uint i = 0; i < _prAddresses.length; i++){\n            total = total.add(_amounts[i]);\n        }\n\n        require(total == issues[_issueID].ticketsStaked, \"Totals dont match\");\n\n        // Generate Reputation Tokens\n        for(uint i = 0; i < _prAddresses.length; i++){\n            myIssues[_prAddresses[i]].push(_issueID);\n            require(beproTicketToken.transfer(_prAddresses[i], _amounts[i]), \"Has to transfer\");\n        }\n    }\n\n     /**\n     * @dev Claims Tickets generated by Staking BEPRO \n     */\n    function claimTickets() public whenNotPaused {\n        uint256 id = getSubscriptionID();\n        _updateTicketsAcumulated(id);\n        uint256 availableTickets = subscriptions[id].ticketsAccumulatedNotClaimed;\n        // update subscription\n        subscriptions[id].ticketsAccumulatedNotClaimed = 0;\n        // mint tickets\n        if(beproTicketToken.totalSupply().add(availableTickets) <= beproTicketToken.totalSupplyMax()){\n            // Not all minted\n            beproTicketToken.mint(msg.sender, availableTickets);\n        }\n    }\n\n    /**\n     * @dev Get Calculation of Amount of Tickets Available to Claim at any moment\n     */\n    function getTicketAPRAmount(uint256 _startDate, uint256 _endDate, uint256 _amount) public returns(uint256) {\n        return ((_endDate.sub(_startDate)).mul(ticketGenAPR).mul(_amount)).div(year.mul(100));\n    }\n\n    /**\n     * @dev Change BEPRO Token Address (Upgrade)\n     */\n    function changeBEPROAddress(address _newAddress) public onlyOwner {\n        beproToken = _IERC20(_newAddress);\n    }\n     \n    /**\n     * @dev Change BEPRO Ticket Address (Upgrade)\n     */\n    function setBeproTicketToken(address _newAddress) public onlyOwner {\n        beproTicketToken = _IERC20(_newAddress);\n    }\n\n    /**\n     * @dev Change BEPRO Ticket Generation APR based on BEPRO Staked (Upgrade)\n     */\n    function editTicketGenAPR(uint256 _ticketGenAPR) public onlyOwner {\n        ticketGenAPR = _ticketGenAPR;\n    }\n\n    /**\n     * @dev Upgrade Contract Version\n     */\n    function upgradeContract(address _newContract) public onlyOwner whenPaused {\n        //To be done\n    }\n\n    function getSubscriptionID() public returns (uint256) {\n        uint256 id = mySubscription[msg.sender];\n        require(id > 0, \"No open subscription\");\n        return id;\n    }\n\n}\n",
  "sourcePath": "/Users/ruipedro/Desktop/projects/Bepro/@bepro-js/contracts/bepro/Network.sol",
  "compiler": {
    "name": "solc",
    "version": "0.6.2+commit.bacdbe57.Emscripten.clang"
  },
  "schemaVersion": "3.0.20",
  "updatedAt": "2021-04-22T10:58:26.537Z",
  "devdoc": {
    "methods": {
      "changeBEPROAddress(address)": {
        "details": "Change BEPRO Token Address (Upgrade)"
      },
      "claimTickets()": {
        "details": "Claims Tickets generated by Staking BEPRO "
      },
      "closeIssue(uint256,address[],uint256[])": {
        "details": "Owner finalizes the issue and distributes the reputation or rejects the PR",
        "params": {
          "_amounts": "Amounts",
          "_issueID": "issue id (mapping with github)",
          "_prAddresses": "PR Address"
        }
      },
      "editTicketGenAPR(uint256)": {
        "details": "Change BEPRO Ticket Generation APR based on BEPRO Staked (Upgrade)"
      },
      "getTicketAPRAmount(uint256,uint256,uint256)": {
        "details": "Get Calculation of Amount of Tickets Available to Claim at any moment"
      },
      "openIssue(uint256)": {
        "details": "open an Issue with tickets owned"
      },
      "paused()": {
        "details": "Returns true if the contract is paused, and false otherwise."
      },
      "setBeproTicketToken(address)": {
        "details": "Change BEPRO Ticket Address (Upgrade)"
      },
      "stake(uint256)": {
        "details": "Stakes an Amount of tokens to generate tickets     "
      },
      "transferOwnership(address)": {
        "details": "Allows the current owner to transfer control of the contract to a newOwner.",
        "params": {
          "newOwner": "The address to transfer ownership to."
        }
      },
      "unstake(uint256)": {
        "details": "Unstakes an Amount of tokens to generate tickets"
      },
      "updateIssue(uint256,uint256)": {
        "details": "update an Issue with tickets owned"
      },
      "upgradeContract(address)": {
        "details": "Upgrade Contract Version"
      }
    },
    "title": "BEPRO Network Contract"
  },
  "userdoc": {
    "methods": {}
  }
}