{
  "contractName": "BEPRONetwork",
  "abi": [
    {
      "inputs": [
        {
          "internalType": "address",
          "name": "_tokenAddress",
          "type": "address"
        }
      ],
      "stateMutability": "nonpayable",
      "type": "constructor"
    },
    {
      "anonymous": false,
      "inputs": [
        {
          "indexed": true,
          "internalType": "uint256",
          "name": "id",
          "type": "uint256"
        },
        {
          "indexed": true,
          "internalType": "uint256",
          "name": "votes",
          "type": "uint256"
        },
        {
          "indexed": true,
          "internalType": "address",
          "name": "approver",
          "type": "address"
        }
      ],
      "name": "ApproveIssue",
      "type": "event"
    },
    {
      "anonymous": false,
      "inputs": [
        {
          "indexed": true,
          "internalType": "uint256",
          "name": "id",
          "type": "uint256"
        },
        {
          "indexed": true,
          "internalType": "uint256",
          "name": "mergeID",
          "type": "uint256"
        },
        {
          "indexed": false,
          "internalType": "uint256",
          "name": "votes",
          "type": "uint256"
        },
        {
          "indexed": true,
          "internalType": "address",
          "name": "approver",
          "type": "address"
        }
      ],
      "name": "ApproveMerge",
      "type": "event"
    },
    {
      "anonymous": false,
      "inputs": [
        {
          "indexed": true,
          "internalType": "uint256",
          "name": "id",
          "type": "uint256"
        },
        {
          "indexed": true,
          "internalType": "uint256",
          "name": "mergeID",
          "type": "uint256"
        },
        {
          "indexed": true,
          "internalType": "address[]",
          "name": "addresses",
          "type": "address[]"
        }
      ],
      "name": "CloseIssue",
      "type": "event"
    },
    {
      "anonymous": false,
      "inputs": [
        {
          "indexed": true,
          "internalType": "uint256",
          "name": "id",
          "type": "uint256"
        },
        {
          "indexed": true,
          "internalType": "uint256",
          "name": "mergeID",
          "type": "uint256"
        },
        {
          "indexed": true,
          "internalType": "address",
          "name": "creator",
          "type": "address"
        }
      ],
      "name": "MergeProposalCreated",
      "type": "event"
    },
    {
      "anonymous": false,
      "inputs": [
        {
          "indexed": true,
          "internalType": "uint256",
          "name": "id",
          "type": "uint256"
        },
        {
          "indexed": true,
          "internalType": "address",
          "name": "opener",
          "type": "address"
        },
        {
          "indexed": true,
          "internalType": "uint256",
          "name": "amount",
          "type": "uint256"
        }
      ],
      "name": "OpenIssue",
      "type": "event"
    },
    {
      "anonymous": false,
      "inputs": [
        {
          "indexed": true,
          "internalType": "address",
          "name": "previousOwner",
          "type": "address"
        },
        {
          "indexed": true,
          "internalType": "address",
          "name": "newOwner",
          "type": "address"
        }
      ],
      "name": "OwnershipTransferred",
      "type": "event"
    },
    {
      "anonymous": false,
      "inputs": [
        {
          "indexed": false,
          "internalType": "address",
          "name": "account",
          "type": "address"
        }
      ],
      "name": "Paused",
      "type": "event"
    },
    {
      "anonymous": false,
      "inputs": [
        {
          "indexed": false,
          "internalType": "address",
          "name": "account",
          "type": "address"
        }
      ],
      "name": "Unpaused",
      "type": "event"
    },
    {
      "inputs": [],
      "name": "COUNCIL_BEPRO_AMOUNT",
      "outputs": [
        {
          "internalType": "uint256",
          "name": "",
          "type": "uint256"
        }
      ],
      "stateMutability": "view",
      "type": "function"
    },
    {
      "inputs": [],
      "name": "DEVELOPER_BEPRO_AMOUNT",
      "outputs": [
        {
          "internalType": "uint256",
          "name": "",
          "type": "uint256"
        }
      ],
      "stateMutability": "view",
      "type": "function"
    },
    {
      "inputs": [],
      "name": "OPERATOR_BEPRO_AMOUNT",
      "outputs": [
        {
          "internalType": "uint256",
          "name": "",
          "type": "uint256"
        }
      ],
      "stateMutability": "view",
      "type": "function"
    },
    {
      "inputs": [],
      "name": "beproToken",
      "outputs": [
        {
          "internalType": "contract _IERC20",
          "name": "",
          "type": "address"
        }
      ],
      "stateMutability": "view",
      "type": "function"
    },
    {
      "inputs": [],
      "name": "beproVotesStaked",
      "outputs": [
        {
          "internalType": "uint256",
          "name": "",
          "type": "uint256"
        }
      ],
      "stateMutability": "view",
      "type": "function"
    },
    {
      "inputs": [],
      "name": "closedIdsCount",
      "outputs": [
        {
          "internalType": "uint256",
          "name": "",
          "type": "uint256"
        }
      ],
      "stateMutability": "view",
      "type": "function"
    },
    {
      "inputs": [],
      "name": "feeAddress",
      "outputs": [
        {
          "internalType": "address",
          "name": "",
          "type": "address"
        }
      ],
      "stateMutability": "view",
      "type": "function"
    },
    {
      "inputs": [],
      "name": "feeShare",
      "outputs": [
        {
          "internalType": "uint256",
          "name": "",
          "type": "uint256"
        }
      ],
      "stateMutability": "view",
      "type": "function"
    },
    {
      "inputs": [],
      "name": "incrementIssueID",
      "outputs": [
        {
          "internalType": "uint256",
          "name": "",
          "type": "uint256"
        }
      ],
      "stateMutability": "view",
      "type": "function"
    },
    {
      "inputs": [
        {
          "internalType": "uint256",
          "name": "",
          "type": "uint256"
        }
      ],
      "name": "issues",
      "outputs": [
        {
          "internalType": "uint256",
          "name": "_id",
          "type": "uint256"
        },
        {
          "internalType": "uint256",
          "name": "creationDate",
          "type": "uint256"
        },
        {
          "internalType": "uint256",
          "name": "beproStaked",
          "type": "uint256"
        },
        {
          "internalType": "address",
          "name": "issueGenerator",
          "type": "address"
        },
        {
          "internalType": "uint256",
          "name": "votesForApprove",
          "type": "uint256"
        },
        {
          "internalType": "uint256",
          "name": "mergeIDIncrement",
          "type": "uint256"
        },
        {
          "internalType": "bool",
          "name": "finalized",
          "type": "bool"
        }
      ],
      "stateMutability": "view",
      "type": "function"
    },
    {
      "inputs": [],
      "name": "mergeCreatorFeeShare",
      "outputs": [
        {
          "internalType": "uint256",
          "name": "",
          "type": "uint256"
        }
      ],
      "stateMutability": "view",
      "type": "function"
    },
    {
      "inputs": [
        {
          "internalType": "address",
          "name": "",
          "type": "address"
        },
        {
          "internalType": "uint256",
          "name": "",
          "type": "uint256"
        }
      ],
      "name": "myIssues",
      "outputs": [
        {
          "internalType": "uint256",
          "name": "",
          "type": "uint256"
        }
      ],
      "stateMutability": "view",
      "type": "function"
    },
    {
      "inputs": [],
      "name": "owner",
      "outputs": [
        {
          "internalType": "address",
          "name": "",
          "type": "address"
        }
      ],
      "stateMutability": "view",
      "type": "function"
    },
    {
      "inputs": [],
      "name": "paused",
      "outputs": [
        {
          "internalType": "bool",
          "name": "",
          "type": "bool"
        }
      ],
      "stateMutability": "view",
      "type": "function"
    },
    {
      "inputs": [],
      "name": "percentageNeededForApprove",
      "outputs": [
        {
          "internalType": "uint256",
          "name": "",
          "type": "uint256"
        }
      ],
      "stateMutability": "view",
      "type": "function"
    },
    {
      "inputs": [],
      "name": "percentageNeededForMerge",
      "outputs": [
        {
          "internalType": "uint256",
          "name": "",
          "type": "uint256"
        }
      ],
      "stateMutability": "view",
      "type": "function"
    },
    {
      "inputs": [],
      "name": "timeOpenForIssueApprove",
      "outputs": [
        {
          "internalType": "uint256",
          "name": "",
          "type": "uint256"
        }
      ],
      "stateMutability": "view",
      "type": "function"
    },
    {
      "inputs": [],
      "name": "totalStaked",
      "outputs": [
        {
          "internalType": "uint256",
          "name": "",
          "type": "uint256"
        }
      ],
      "stateMutability": "view",
      "type": "function"
    },
    {
      "inputs": [
        {
          "internalType": "address",
          "name": "newOwner",
          "type": "address"
        }
      ],
      "name": "transferOwnership",
      "outputs": [],
      "stateMutability": "nonpayable",
      "type": "function"
    },
    {
      "inputs": [
        {
          "internalType": "address",
          "name": "",
          "type": "address"
        }
      ],
      "name": "voters",
      "outputs": [
        {
          "internalType": "uint256",
          "name": "votesDelegatedByOthers",
          "type": "uint256"
        },
        {
          "internalType": "uint256",
          "name": "beproLocked",
          "type": "uint256"
        }
      ],
      "stateMutability": "view",
      "type": "function"
    },
    {
      "inputs": [
        {
          "internalType": "uint256",
          "name": "",
          "type": "uint256"
        }
      ],
      "name": "votersArray",
      "outputs": [
        {
          "internalType": "address",
          "name": "",
          "type": "address"
        }
      ],
      "stateMutability": "view",
      "type": "function"
    },
    {
      "inputs": [
        {
          "internalType": "uint256",
          "name": "_beproAmount",
          "type": "uint256"
        }
      ],
      "name": "lockBepro",
      "outputs": [],
      "stateMutability": "nonpayable",
      "type": "function"
    },
    {
      "inputs": [
        {
          "internalType": "uint256",
          "name": "_beproAmount",
          "type": "uint256"
        },
        {
          "internalType": "address",
          "name": "_from",
          "type": "address"
        }
      ],
      "name": "unlockBepro",
      "outputs": [],
      "stateMutability": "nonpayable",
      "type": "function"
    },
    {
      "inputs": [
        {
          "internalType": "uint256",
          "name": "_issueID",
          "type": "uint256"
        }
      ],
      "name": "approveIssue",
      "outputs": [],
      "stateMutability": "nonpayable",
      "type": "function"
    },
    {
      "inputs": [
        {
          "internalType": "uint256",
          "name": "_issueID",
          "type": "uint256"
        },
        {
          "internalType": "uint256",
          "name": "_mergeID",
          "type": "uint256"
        }
      ],
      "name": "approveMerge",
      "outputs": [],
      "stateMutability": "nonpayable",
      "type": "function"
    },
    {
      "inputs": [
        {
          "internalType": "uint256",
          "name": "_issueID",
          "type": "uint256"
        }
      ],
      "name": "isIssueApproved",
      "outputs": [
        {
          "internalType": "bool",
          "name": "",
          "type": "bool"
        }
      ],
      "stateMutability": "nonpayable",
      "type": "function"
    },
    {
      "inputs": [
        {
          "internalType": "uint256",
          "name": "_issueID",
          "type": "uint256"
        },
        {
          "internalType": "uint256",
          "name": "_mergeID",
          "type": "uint256"
        }
      ],
      "name": "isIssueMergeable",
      "outputs": [
        {
          "internalType": "bool",
          "name": "",
          "type": "bool"
        }
      ],
      "stateMutability": "nonpayable",
      "type": "function"
    },
    {
      "inputs": [
        {
          "internalType": "uint256",
          "name": "_issueID",
          "type": "uint256"
        },
        {
          "internalType": "uint256",
          "name": "_mergeID",
          "type": "uint256"
        }
      ],
      "name": "isMergeTheOneWithMoreVotes",
      "outputs": [
        {
          "internalType": "bool",
          "name": "",
          "type": "bool"
        }
      ],
      "stateMutability": "nonpayable",
      "type": "function"
    },
    {
      "inputs": [
        {
          "internalType": "uint256",
          "name": "_beproAmount",
          "type": "uint256"
        }
      ],
      "name": "openIssue",
      "outputs": [],
      "stateMutability": "nonpayable",
      "type": "function"
    },
    {
      "inputs": [
        {
          "internalType": "uint256",
          "name": "_issueId",
          "type": "uint256"
        },
        {
          "internalType": "uint256",
          "name": "_newbeproAmount",
          "type": "uint256"
        }
      ],
      "name": "updateIssue",
      "outputs": [],
      "stateMutability": "nonpayable",
      "type": "function"
    },
    {
      "inputs": [
        {
          "internalType": "uint256",
          "name": "_issueID",
          "type": "uint256"
        },
        {
          "internalType": "address[]",
          "name": "_prAddresses",
          "type": "address[]"
        },
        {
          "internalType": "uint256[]",
          "name": "_prAmounts",
          "type": "uint256[]"
        }
      ],
      "name": "proposeIssueMerge",
      "outputs": [],
      "stateMutability": "nonpayable",
      "type": "function"
    },
    {
      "inputs": [
        {
          "internalType": "uint256",
          "name": "_issueID",
          "type": "uint256"
        },
        {
          "internalType": "uint256",
          "name": "_mergeID",
          "type": "uint256"
        }
      ],
      "name": "closeIssue",
      "outputs": [],
      "stateMutability": "nonpayable",
      "type": "function"
    },
    {
      "inputs": [
        {
          "internalType": "address",
          "name": "_address",
          "type": "address"
        }
      ],
      "name": "getIssuesByAddress",
      "outputs": [
        {
          "internalType": "uint256[]",
          "name": "",
          "type": "uint256[]"
        }
      ],
      "stateMutability": "nonpayable",
      "type": "function"
    },
    {
      "inputs": [
        {
          "internalType": "address",
          "name": "_address",
          "type": "address"
        }
      ],
      "name": "getVotesByAddress",
      "outputs": [
        {
          "internalType": "uint256",
          "name": "",
          "type": "uint256"
        }
      ],
      "stateMutability": "nonpayable",
      "type": "function"
    },
    {
      "inputs": [
        {
          "internalType": "uint256",
          "name": "_issueID",
          "type": "uint256"
        }
      ],
      "name": "getIssueById",
      "outputs": [
        {
          "internalType": "uint256",
          "name": "",
          "type": "uint256"
        },
        {
          "internalType": "uint256",
          "name": "",
          "type": "uint256"
        },
        {
          "internalType": "uint256",
          "name": "",
          "type": "uint256"
        },
        {
          "internalType": "address",
          "name": "",
          "type": "address"
        },
        {
          "internalType": "uint256",
          "name": "",
          "type": "uint256"
        },
        {
          "internalType": "uint256",
          "name": "",
          "type": "uint256"
        },
        {
          "internalType": "bool",
          "name": "",
          "type": "bool"
        }
      ],
      "stateMutability": "nonpayable",
      "type": "function"
    },
    {
      "inputs": [
        {
          "internalType": "uint256",
          "name": "_issueID",
          "type": "uint256"
        },
        {
          "internalType": "uint256",
          "name": "_mergeId",
          "type": "uint256"
        }
      ],
      "name": "getMergeById",
      "outputs": [
        {
          "internalType": "uint256",
          "name": "",
          "type": "uint256"
        },
        {
          "internalType": "uint256",
          "name": "",
          "type": "uint256"
        },
        {
          "internalType": "address[]",
          "name": "",
          "type": "address[]"
        },
        {
          "internalType": "uint256[]",
          "name": "",
          "type": "uint256[]"
        },
        {
          "internalType": "address",
          "name": "",
          "type": "address"
        }
      ],
      "stateMutability": "nonpayable",
      "type": "function"
    },
    {
      "inputs": [
        {
          "internalType": "address",
          "name": "_newAddress",
          "type": "address"
        }
      ],
      "name": "changeBEPROAddress",
      "outputs": [],
      "stateMutability": "nonpayable",
      "type": "function"
    },
    {
      "inputs": [
        {
          "internalType": "address",
          "name": "_newAddress",
          "type": "address"
        }
      ],
      "name": "editFeeAddress",
      "outputs": [],
      "stateMutability": "nonpayable",
      "type": "function"
    },
    {
      "inputs": [
        {
          "internalType": "uint256",
          "name": "_feeShare",
          "type": "uint256"
        }
      ],
      "name": "editFeeShare",
      "outputs": [],
      "stateMutability": "nonpayable",
      "type": "function"
    },
    {
      "inputs": [
        {
          "internalType": "address",
          "name": "_newContract",
          "type": "address"
        }
      ],
      "name": "upgradeContract",
      "outputs": [],
      "stateMutability": "nonpayable",
      "type": "function"
    }
  ],
  "bytecode": "0x608060405260016002556000600355600060045573cf3c8be2e2c42331da80ef210e9b1b307c03d36a600560006101000a81548173ffffffffffffffffffffffffffffffffffffffff021916908373ffffffffffffffffffffffffffffffffffffffff16021790555060026006556001600755600a60085560146009556000600a5562989680600b55620f4240600c55612710600d553480156100a157600080fd5b50604051620051fb380380620051fb833981810160405260208110156100c657600080fd5b810190808051906020019092919050505060008060006101000a81548160ff02191690831515021790555033600060016101000a81548173ffffffffffffffffffffffffffffffffffffffff021916908373ffffffffffffffffffffffffffffffffffffffff16021790555080600160006101000a81548173ffffffffffffffffffffffffffffffffffffffff021916908373ffffffffffffffffffffffffffffffffffffffff1602179055505061507780620001846000396000f3fe608060405234801561001057600080fd5b5060043610610265576000357c010000000000000000000000000000000000000000000000000000000090048063817b1cd211610158578063c5763155116100d5578063e38ebcf911610099578063e38ebcf914610d28578063e9ade90e14610d46578063eb2c022314610d64578063f2fde38b14610da8578063f38b79b714610dec57610265565b8063c576315514610ab0578063c881bbe814610c06578063c98244d014610c24578063e113e45214610cc0578063e2b6b3d914610d0a57610265565b8063953030c51161011c578063953030c51461099f5780639816c170146109d7578063a3ec138d14610a05578063b2bb95f514610a64578063bdfd452414610a9257610265565b8063817b1cd21461089b578063839408a5146108b957806388632e28146109095780638ccaf968146109375780638da5cb5b1461095557610265565b806356036543116101e65780636253faf8116101aa5780636253faf8146107c55780636931e725146107e35780636ba7fa821461081b57806370c9c79114610839578063729911a81461087d57610265565b806356036543146105825780635ac203cf146105b05780635c975abb146105f45780635d795bd2146106165780636106e4eb146106af57610265565b806329d7e68d1161022d57806329d7e68d146104165780633d7349481461046657806341275358146104ac5780634ca8b9eb146104f657806353da42471461051457610265565b806304e15de51461026a57806305563309146103065780631ac63d921461033e5780631e63c0a5146103a05780632307debc146103f8575b600080fd5b6102966004803603602081101561028057600080fd5b8101908080359060200190929190505050610e3a565b604051808881526020018781526020018681526020018573ffffffffffffffffffffffffffffffffffffffff1673ffffffffffffffffffffffffffffffffffffffff1681526020018481526020018381526020018215151515815260200197505050505050505060405180910390f35b61033c6004803603604081101561031c57600080fd5b810190808035906020019092919080359060200190929190505050610ea9565b005b61038a6004803603604081101561035457600080fd5b81019080803573ffffffffffffffffffffffffffffffffffffffff169060200190929190803590602001909291905050506114e3565b6040518082815260200191505060405180910390f35b6103e2600480360360208110156103b657600080fd5b81019080803573ffffffffffffffffffffffffffffffffffffffff169060200190929190505050611511565b6040518082815260200191505060405180910390f35b6104006115b5565b6040518082815260200191505060405180910390f35b61044c6004803603604081101561042c57600080fd5b8101908080359060200190929190803590602001909291905050506115bc565b604051808215151515815260200191505060405180910390f35b6104926004803603602081101561047c57600080fd5b810190808035906020019092919050505061161d565b604051808215151515815260200191505060405180910390f35b6104b4611669565b604051808273ffffffffffffffffffffffffffffffffffffffff1673ffffffffffffffffffffffffffffffffffffffff16815260200191505060405180910390f35b6104fe61168f565b6040518082815260200191505060405180910390f35b6105406004803603602081101561052a57600080fd5b8101908080359060200190929190505050611695565b604051808273ffffffffffffffffffffffffffffffffffffffff1673ffffffffffffffffffffffffffffffffffffffff16815260200191505060405180910390f35b6105ae6004803603602081101561059857600080fd5b81019080803590602001909291905050506116d1565b005b6105f2600480360360208110156105c657600080fd5b81019080803573ffffffffffffffffffffffffffffffffffffffff169060200190929190505050611ac9565b005b6105fc611b67565b604051808215151515815260200191505060405180910390f35b6106586004803603602081101561062c57600080fd5b81019080803573ffffffffffffffffffffffffffffffffffffffff169060200190929190505050611b7d565b6040518080602001828103825283818151815260200191508051906020019060200280838360005b8381101561069b578082015181840152602081019050610680565b505050509050019250505060405180910390f35b6106e5600480360360408110156106c557600080fd5b810190808035906020019092919080359060200190929190505050611c14565b6040518086815260200185815260200180602001806020018473ffffffffffffffffffffffffffffffffffffffff1673ffffffffffffffffffffffffffffffffffffffff168152602001838103835286818151815260200191508051906020019060200280838360005b8381101561076a57808201518184015260208101905061074f565b50505050905001838103825285818151815260200191508051906020019060200280838360005b838110156107ac578082015181840152602081019050610791565b5050505090500197505050505050505060405180910390f35b6107cd611ddc565b6040518082815260200191505060405180910390f35b610819600480360360408110156107f957600080fd5b810190808035906020019092919080359060200190929190505050611de2565b005b6108236129a9565b6040518082815260200191505060405180910390f35b61087b6004803603602081101561084f57600080fd5b81019080803573ffffffffffffffffffffffffffffffffffffffff1690602001909291905050506129af565b005b610885612a4d565b6040518082815260200191505060405180910390f35b6108a3612a53565b6040518082815260200191505060405180910390f35b6108ef600480360360408110156108cf57600080fd5b810190808035906020019092919080359060200190929190505050612a59565b604051808215151515815260200191505060405180910390f35b6109356004803603602081101561091f57600080fd5b8101908080359060200190929190505050612b0a565b005b61093f612b6e565b6040518082815260200191505060405180910390f35b61095d612b74565b604051808273ffffffffffffffffffffffffffffffffffffffff1673ffffffffffffffffffffffffffffffffffffffff16815260200191505060405180910390f35b6109d5600480360360408110156109b557600080fd5b810190808035906020019092919080359060200190929190505050612b9a565b005b610a03600480360360208110156109ed57600080fd5b8101908080359060200190929190505050613047565b005b610a4760048036036020811015610a1b57600080fd5b81019080803573ffffffffffffffffffffffffffffffffffffffff16906020019092919050505061358d565b604051808381526020018281526020019250505060405180910390f35b610a9060048036036020811015610a7a57600080fd5b81019080803590602001909291905050506135b1565b005b610a9a6139cf565b6040518082815260200191505060405180910390f35b610c0460048036036060811015610ac657600080fd5b810190808035906020019092919080359060200190640100000000811115610aed57600080fd5b820183602082011115610aff57600080fd5b80359060200191846020830284011164010000000083111715610b2157600080fd5b919080806020026020016040519081016040528093929190818152602001838360200280828437600081840152601f19601f82011690508083019250505050505050919291929080359060200190640100000000811115610b8157600080fd5b820183602082011115610b9357600080fd5b80359060200191846020830284011164010000000083111715610bb557600080fd5b919080806020026020016040519081016040528093929190818152602001838360200280828437600081840152601f19601f8201169050808301925050505050505091929192905050506139d5565b005b610c0e6141ee565b6040518082815260200191505060405180910390f35b610c5060048036036020811015610c3a57600080fd5b81019080803590602001909291905050506141f4565b604051808881526020018781526020018681526020018573ffffffffffffffffffffffffffffffffffffffff1673ffffffffffffffffffffffffffffffffffffffff1681526020018481526020018381526020018215151515815260200197505050505050505060405180910390f35b610cc8614307565b604051808273ffffffffffffffffffffffffffffffffffffffff1673ffffffffffffffffffffffffffffffffffffffff16815260200191505060405180910390f35b610d1261432d565b6040518082815260200191505060405180910390f35b610d30614333565b6040518082815260200191505060405180910390f35b610d4e614339565b6040518082815260200191505060405180910390f35b610da660048036036020811015610d7a57600080fd5b81019080803573ffffffffffffffffffffffffffffffffffffffff16906020019092919050505061433f565b005b610dea60048036036020811015610dbe57600080fd5b81019080803573ffffffffffffffffffffffffffffffffffffffff169060200190929190505050614416565b005b610e3860048036036040811015610e0257600080fd5b8101908080359060200190929190803573ffffffffffffffffffffffffffffffffffffffff16906020019092919050505061456a565b005b600e6020528060005260406000206000915090508060000154908060010154908060020154908060030160009054906101000a900473ffffffffffffffffffffffffffffffffffffffff16908060050154908060070154908060080160009054906101000a900460ff16905087565b610eb1611b67565b15610f24576040517f08c379a00000000000000000000000000000000000000000000000000000000081526004018080602001828103825260108152602001807f5061757361626c653a207061757365640000000000000000000000000000000081525060200191505060405180910390fd5b6000600e6000848152602001908152602001600020600201541415610fb1576040517f08c379a00000000000000000000000000000000000000000000000000000000081526004018080602001828103825260128152602001807f49737375652068617320746f206578697374000000000000000000000000000081525060200191505060405180910390fd5b3373ffffffffffffffffffffffffffffffffffffffff16600e600084815260200190815260200160002060030160009054906101000a900473ffffffffffffffffffffffffffffffffffffffff1673ffffffffffffffffffffffffffffffffffffffff1614611088576040517f08c379a000000000000000000000000000000000000000000000000000000000815260040180806020018281038252601b8152602001807f48617320746f206265207468652069737375652063726561746f72000000000081525060200191505060405180910390fd5b6110918261161d565b15611104576040517f08c379a00000000000000000000000000000000000000000000000000000000081526004018080602001828103825260198152602001807f497373756520697320616c726561647920417070726f7665640000000000000081525060200191505060405180910390fd5b6000600e600084815260200190815260200160002060020154905081600e6000858152602001908152602001600020600201819055508082111561132c57600160009054906101000a900473ffffffffffffffffffffffffffffffffffffffff1673ffffffffffffffffffffffffffffffffffffffff166323b872dd33306111958587614a6e90919063ffffffff16565b6040518463ffffffff167c0100000000000000000000000000000000000000000000000000000000028152600401808473ffffffffffffffffffffffffffffffffffffffff1673ffffffffffffffffffffffffffffffffffffffff1681526020018373ffffffffffffffffffffffffffffffffffffffff1673ffffffffffffffffffffffffffffffffffffffff1681526020018281526020019350505050602060405180830381600087803b15801561124d57600080fd5b505af1158015611261573d6000803e3d6000fd5b505050506040513d602081101561127757600080fd5b81019080805190602001909291905050506112fa576040517f08c379a000000000000000000000000000000000000000000000000000000000815260040180806020018281038252600f8152602001807f4e6565647320416c6c6f77616e6365000000000000000000000000000000000081525060200191505060405180910390fd5b6113216113108284614a6e90919063ffffffff16565b600454614af190919063ffffffff16565b6004819055506114de565b600160009054906101000a900473ffffffffffffffffffffffffffffffffffffffff1673ffffffffffffffffffffffffffffffffffffffff1663a9059cbb3361137e8585614a6e90919063ffffffff16565b6040518363ffffffff167c0100000000000000000000000000000000000000000000000000000000028152600401808373ffffffffffffffffffffffffffffffffffffffff1673ffffffffffffffffffffffffffffffffffffffff16815260200182815260200192505050602060405180830381600087803b15801561140357600080fd5b505af1158015611417573d6000803e3d6000fd5b505050506040513d602081101561142d57600080fd5b81019080805190602001909291905050506114b0576040517f08c379a00000000000000000000000000000000000000000000000000000000081526004018080602001828103825260168152602001807f5472616e73666572206e6f742073756365737366756c0000000000000000000081525060200191505060405180910390fd5b6114d76114c68383614a6e90919063ffffffff16565b600454614a6e90919063ffffffff16565b6004819055505b505050565b600f60205281600052604060002081815481106114fc57fe5b90600052602060002001600091509150505481565b600080601060008473ffffffffffffffffffffffffffffffffffffffff1673ffffffffffffffffffffffffffffffffffffffff16815260200190815260200160002090506115ad8160010160008573ffffffffffffffffffffffffffffffffffffffff1673ffffffffffffffffffffffffffffffffffffffff168152602001908152602001600020548260000154614af190919063ffffffff16565b915050919050565b6203f48081565b60006115e860646115da600954600a54614b7990919063ffffffff16565b614bff90919063ffffffff16565b600e60008581526020019081526020016000206006016000848152602001908152602001600020600201541015905092915050565b6000611649606461163b600854600a54614b7990919063ffffffff16565b614bff90919063ffffffff16565b600e60008481526020019081526020016000206005015410159050919050565b600560009054906101000a900473ffffffffffffffffffffffffffffffffffffffff1681565b60095481565b601181815481106116a257fe5b906000526020600020016000915054906101000a900473ffffffffffffffffffffffffffffffffffffffff1681565b6116d9614c88565b601060003373ffffffffffffffffffffffffffffffffffffffff1673ffffffffffffffffffffffffffffffffffffffff16815260200190815260200160002060405180606001604052908160008201548152602001600282018054806020026020016040519081016040528092919081815260200182805480156117b257602002820191906000526020600020905b8160009054906101000a900473ffffffffffffffffffffffffffffffffffffffff1673ffffffffffffffffffffffffffffffffffffffff1681526020019060010190808311611768575b5050505050815260200160038201548152505090506117cf614ca9565b600e60008481526020019081526020016000206040518060e00160405290816000820154815260200160018201548152602001600282015481526020016003820160009054906101000a900473ffffffffffffffffffffffffffffffffffffffff1673ffffffffffffffffffffffffffffffffffffffff1673ffffffffffffffffffffffffffffffffffffffff16815260200160058201548152602001600782015481526020016008820160009054906101000a900460ff161515151581525050905060008160000151141561190d576040517f08c379a00000000000000000000000000000000000000000000000000000000081526004018080602001828103825260148152602001807f497373756520646f6573206e6f7420657869737400000000000000000000000081525060200191505060405180910390fd5b6000600e600085815260200190815260200160002060040160003373ffffffffffffffffffffffffffffffffffffffff1673ffffffffffffffffffffffffffffffffffffffff16815260200190815260200160002054146119d6576040517f08c379a00000000000000000000000000000000000000000000000000000000081526004018080602001828103825260118152602001807f48617320616c726561647920766f74656400000000000000000000000000000081525060200191505060405180910390fd5b60006119e133611511565b9050611a0c81600e600087815260200190815260200160002060050154614af190919063ffffffff16565b600e60008681526020019081526020016000206005018190555080600e600086815260200190815260200160002060040160003373ffffffffffffffffffffffffffffffffffffffff1673ffffffffffffffffffffffffffffffffffffffff168152602001908152602001600020819055503373ffffffffffffffffffffffffffffffffffffffff1681857f874c2861194fad2379fb15b08319bf4f3ec0c9f22bfd1ed18435ac4600abb0a060405160405180910390a450505050565b600060019054906101000a900473ffffffffffffffffffffffffffffffffffffffff1673ffffffffffffffffffffffffffffffffffffffff163373ffffffffffffffffffffffffffffffffffffffff1614611b2357600080fd5b80600160006101000a81548173ffffffffffffffffffffffffffffffffffffffff021916908373ffffffffffffffffffffffffffffffffffffffff16021790555050565b60008060009054906101000a900460ff16905090565b6060600f60008373ffffffffffffffffffffffffffffffffffffffff1673ffffffffffffffffffffffffffffffffffffffff168152602001908152602001600020805480602002602001604051908101604052809291908181526020018280548015611c0857602002820191906000526020600020905b815481526020019060010190808311611bf4575b50505050509050919050565b6000806060806000611c24614cfe565b600e600089815260200190815260200160002060060160008881526020019081526020016000206040518060a0016040529081600082015481526020016002820154815260200160038201805480602002602001604051908101604052809291908181526020018280548015611cef57602002820191906000526020600020905b8160009054906101000a900473ffffffffffffffffffffffffffffffffffffffff1673ffffffffffffffffffffffffffffffffffffffff1681526020019060010190808311611ca5575b5050505050815260200160048201805480602002602001604051908101604052809291908181526020018280548015611d4757602002820191906000526020600020905b815481526020019060010190808311611d33575b505050505081526020016005820160009054906101000a900473ffffffffffffffffffffffffffffffffffffffff1673ffffffffffffffffffffffffffffffffffffffff1673ffffffffffffffffffffffffffffffffffffffff168152505090508060000151816020015182604001518360600151846080015182925081915095509550955095509550509295509295909350565b600c5481565b611dea611b67565b15611e5d576040517f08c379a00000000000000000000000000000000000000000000000000000000081526004018080602001828103825260108152602001807f5061757361626c653a207061757365640000000000000000000000000000000081525060200191505060405180910390fd5b611e65614ca9565b600e60008481526020019081526020016000206040518060e00160405290816000820154815260200160018201548152602001600282015481526020016003820160009054906101000a900473ffffffffffffffffffffffffffffffffffffffff1673ffffffffffffffffffffffffffffffffffffffff1673ffffffffffffffffffffffffffffffffffffffff16815260200160058201548152602001600782015481526020016008820160009054906101000a900460ff1615151515815250509050600081600001511415611fa3576040517f08c379a00000000000000000000000000000000000000000000000000000000081526004018080602001828103825260128152602001807f49737375652068617320746f206578697374000000000000000000000000000081525060200191505060405180910390fd5b600015158160c00151151514612021576040517f08c379a00000000000000000000000000000000000000000000000000000000081526004018080602001828103825260168152602001807f49737375652068617320746f206265206f70656e65640000000000000000000081525060200191505060405180910390fd5b818160a001511161209a576040517f08c379a000000000000000000000000000000000000000000000000000000000815260040180806020018281038252601d8152602001807f4d657267652050726f706f73616c20646f6573206e6f7420657869737400000081525060200191505060405180910390fd5b6120a483836115bc565b612116576040517f08c379a000000000000000000000000000000000000000000000000000000000815260040180806020018281038252601f8152602001807f49737375652068617320746f20686176652070617373656420766f74696e670081525060200191505060405180910390fd5b6121208383612a59565b612175576040517f08c379a00000000000000000000000000000000000000000000000000000000081526004018080602001828103825260298152602001806150196029913960400191505060405180910390fd5b6001600e600085815260200190815260200160002060080160006101000a81548160ff0219169083151502179055506121ac614cfe565b600e600085815260200190815260200160002060060160008481526020019081526020016000206040518060a001604052908160008201548152602001600282015481526020016003820180548060200260200160405190810160405280929190818152602001828054801561227757602002820191906000526020600020905b8160009054906101000a900473ffffffffffffffffffffffffffffffffffffffff1673ffffffffffffffffffffffffffffffffffffffff168152602001906001019080831161222d575b50505050508152602001600482018054806020026020016040519081016040528092919081815260200182805480156122cf57602002820191906000526020600020905b8154815260200190600101908083116122bb575b505050505081526020016005820160009054906101000a900473ffffffffffffffffffffffffffffffffffffffff1673ffffffffffffffffffffffffffffffffffffffff1673ffffffffffffffffffffffffffffffffffffffff16815250509050600160009054906101000a900473ffffffffffffffffffffffffffffffffffffffff1673ffffffffffffffffffffffffffffffffffffffff1663a9059cbb600560009054906101000a900473ffffffffffffffffffffffffffffffffffffffff166064600654600e60008a81526020019081526020016000206002015402816123b557fe5b046040518363ffffffff167c0100000000000000000000000000000000000000000000000000000000028152600401808373ffffffffffffffffffffffffffffffffffffffff1673ffffffffffffffffffffffffffffffffffffffff16815260200182815260200192505050602060405180830381600087803b15801561243b57600080fd5b505af115801561244f573d6000803e3d6000fd5b505050506040513d602081101561246557600080fd5b81019080805190602001909291905050506124e8576040517f08c379a000000000000000000000000000000000000000000000000000000000815260040180806020018281038252600f8152602001807f48617320746f207472616e73666572000000000000000000000000000000000081525060200191505060405180910390fd5b600160009054906101000a900473ffffffffffffffffffffffffffffffffffffffff1673ffffffffffffffffffffffffffffffffffffffff1663a9059cbb600560009054906101000a900473ffffffffffffffffffffffffffffffffffffffff166064600754600e60008a815260200190815260200160002060020154028161256d57fe5b046040518363ffffffff167c0100000000000000000000000000000000000000000000000000000000028152600401808373ffffffffffffffffffffffffffffffffffffffff1673ffffffffffffffffffffffffffffffffffffffff16815260200182815260200192505050602060405180830381600087803b1580156125f357600080fd5b505af1158015612607573d6000803e3d6000fd5b505050506040513d602081101561261d57600080fd5b81019080805190602001909291905050506126a0576040517f08c379a000000000000000000000000000000000000000000000000000000000815260040180806020018281038252600f8152602001807f48617320746f207472616e73666572000000000000000000000000000000000081525060200191505060405180910390fd5b60008090505b8160400151518110156128f257600f6000836040015183815181106126c757fe5b602002602001015173ffffffffffffffffffffffffffffffffffffffff1673ffffffffffffffffffffffffffffffffffffffff168152602001908152602001600020859080600181540180825580915050600190039060005260206000200160009091909190915055600160009054906101000a900473ffffffffffffffffffffffffffffffffffffffff1673ffffffffffffffffffffffffffffffffffffffff1663a9059cbb8360400151838151811061277e57fe5b6020026020010151606460075460065460640303866060015186815181106127a257fe5b602002602001015102816127b257fe5b046040518363ffffffff167c0100000000000000000000000000000000000000000000000000000000028152600401808373ffffffffffffffffffffffffffffffffffffffff1673ffffffffffffffffffffffffffffffffffffffff16815260200182815260200192505050602060405180830381600087803b15801561283857600080fd5b505af115801561284c573d6000803e3d6000fd5b505050506040513d602081101561286257600080fd5b81019080805190602001909291905050506128e5576040517f08c379a000000000000000000000000000000000000000000000000000000000815260040180806020018281038252600f8152602001807f48617320746f207472616e73666572000000000000000000000000000000000081525060200191505060405180910390fd5b80806001019150506126a6565b506129096001600354614af190919063ffffffff16565b6003819055506129288260400151600454614a6e90919063ffffffff16565b600481905550806040015160405180828051906020019060200280838360005b83811015612963578082015181840152602081019050612948565b50505050905001915050604051809103902083857f2764a4973e9de159354a809146f484fb4f13f7f8d108a4cbce66127098b8769660405160405180910390a450505050565b60035481565b600060019054906101000a900473ffffffffffffffffffffffffffffffffffffffff1673ffffffffffffffffffffffffffffffffffffffff163373ffffffffffffffffffffffffffffffffffffffff1614612a0957600080fd5b80600560006101000a81548173ffffffffffffffffffffffffffffffffffffffff021916908373ffffffffffffffffffffffffffffffffffffffff16021790555050565b60025481565b60045481565b600080600e6000858152602001908152602001600020600601600084815260200190815260200160002060020154905060008090505b600e6000868152602001908152602001600020600701548160ff161015612afd5781600e600087815260200190815260200160002060060160008360ff168152602001908152602001600020600201541115612af057600092505050612b04565b8080600101915050612a8f565b5060019150505b92915050565b600060019054906101000a900473ffffffffffffffffffffffffffffffffffffffff1673ffffffffffffffffffffffffffffffffffffffff163373ffffffffffffffffffffffffffffffffffffffff1614612b6457600080fd5b8060068190555050565b600b5481565b600060019054906101000a900473ffffffffffffffffffffffffffffffffffffffff1681565b612ba2614c88565b601060003373ffffffffffffffffffffffffffffffffffffffff1673ffffffffffffffffffffffffffffffffffffffff1681526020019081526020016000206040518060600160405290816000820154815260200160028201805480602002602001604051908101604052809291908181526020018280548015612c7b57602002820191906000526020600020905b8160009054906101000a900473ffffffffffffffffffffffffffffffffffffffff1673ffffffffffffffffffffffffffffffffffffffff1681526020019060010190808311612c31575b505050505081526020016003820154815250509050612c98614ca9565b600e60008581526020019081526020016000206040518060e00160405290816000820154815260200160018201548152602001600282015481526020016003820160009054906101000a900473ffffffffffffffffffffffffffffffffffffffff1673ffffffffffffffffffffffffffffffffffffffff1673ffffffffffffffffffffffffffffffffffffffff16815260200160058201548152602001600782015481526020016008820160009054906101000a900460ff16151515158152505090506000600e600086815260200190815260200160002060060160008581526020019081526020016000209050600082600001511415612e01576040517f08c379a00000000000000000000000000000000000000000000000000000000081526004018080602001828103825260148152602001807f497373756520646f6573206e6f7420657869737400000000000000000000000081525060200191505060405180910390fd5b838260a0015111612e7a576040517f08c379a000000000000000000000000000000000000000000000000000000000815260040180806020018281038252601d8152602001807f4d657267652050726f706f73616c20646f6573206e6f7420657869737400000081525060200191505060405180910390fd5b60008160010160003373ffffffffffffffffffffffffffffffffffffffff1673ffffffffffffffffffffffffffffffffffffffff1681526020019081526020016000205414612f31576040517f08c379a00000000000000000000000000000000000000000000000000000000081526004018080602001828103825260118152602001807f48617320616c726561647920766f74656400000000000000000000000000000081525060200191505060405180910390fd5b6000612f3c33611511565b9050612f55818360020154614af190919063ffffffff16565b600e600088815260200190815260200160002060060160008781526020019081526020016000206002018190555080600e6000888152602001908152602001600020600601600087815260200190815260200160002060010160003373ffffffffffffffffffffffffffffffffffffffff1673ffffffffffffffffffffffffffffffffffffffff168152602001908152602001600020819055503373ffffffffffffffffffffffffffffffffffffffff1685877ffd3b653bc5d01de8ac8bc3857b862274c9914a8820abb138052a747aab3d5dde846040518082815260200191505060405180910390a4505050505050565b600081116130a0576040517f08c379a0000000000000000000000000000000000000000000000000000000008152600401808060200182810382526023815260200180614f0d6023913960400191505060405180910390fd5b600160009054906101000a900473ffffffffffffffffffffffffffffffffffffffff1673ffffffffffffffffffffffffffffffffffffffff166323b872dd3330846040518463ffffffff167c0100000000000000000000000000000000000000000000000000000000028152600401808473ffffffffffffffffffffffffffffffffffffffff1673ffffffffffffffffffffffffffffffffffffffff1681526020018373ffffffffffffffffffffffffffffffffffffffff1673ffffffffffffffffffffffffffffffffffffffff1681526020018281526020019350505050602060405180830381600087803b15801561319957600080fd5b505af11580156131ad573d6000803e3d6000fd5b505050506040513d60208110156131c357600080fd5b8101908080519060200190929190505050613246576040517f08c379a000000000000000000000000000000000000000000000000000000000815260040180806020018281038252600f8152602001807f4e6565647320416c6c6f77616e6365000000000000000000000000000000000081525060200191505060405180910390fd5b6000601060003373ffffffffffffffffffffffffffffffffffffffff1673ffffffffffffffffffffffffffffffffffffffff16815260200190815260200160002060030154146134455761332281601060003373ffffffffffffffffffffffffffffffffffffffff1673ffffffffffffffffffffffffffffffffffffffff16815260200190815260200160002060010160003373ffffffffffffffffffffffffffffffffffffffff1673ffffffffffffffffffffffffffffffffffffffff16815260200190815260200160002054614af190919063ffffffff16565b601060003373ffffffffffffffffffffffffffffffffffffffff1673ffffffffffffffffffffffffffffffffffffffff16815260200190815260200160002060010160003373ffffffffffffffffffffffffffffffffffffffff1673ffffffffffffffffffffffffffffffffffffffff168152602001908152602001600020819055506133fa81601060003373ffffffffffffffffffffffffffffffffffffffff1673ffffffffffffffffffffffffffffffffffffffff16815260200190815260200160002060030154614af190919063ffffffff16565b601060003373ffffffffffffffffffffffffffffffffffffffff1673ffffffffffffffffffffffffffffffffffffffff1681526020019081526020016000206003018190555061358a565b6000601060003373ffffffffffffffffffffffffffffffffffffffff1673ffffffffffffffffffffffffffffffffffffffff168152602001908152602001600020905081816003018190555060405180602001604052803373ffffffffffffffffffffffffffffffffffffffff1673ffffffffffffffffffffffffffffffffffffffff16815250816002019060016134de929190614d43565b50818160010160003373ffffffffffffffffffffffffffffffffffffffff1673ffffffffffffffffffffffffffffffffffffffff168152602001908152602001600020819055506011339080600181540180825580915050600190039060005260206000200160009091909190916101000a81548173ffffffffffffffffffffffffffffffffffffffff021916908373ffffffffffffffffffffffffffffffffffffffff160217905550505b50565b60106020528060005260406000206000915090508060000154908060030154905082565b6135b9611b67565b1561362c576040517f08c379a00000000000000000000000000000000000000000000000000000000081526004018080602001828103825260108152602001807f5061757361626c653a207061757365640000000000000000000000000000000081525060200191505060405180910390fd5b613634614ca9565b6002548160000181815250508181604001818152505033816060019073ffffffffffffffffffffffffffffffffffffffff16908173ffffffffffffffffffffffffffffffffffffffff16815250504281602001818152505060008160c001901515908115158152505080600e6000600254815260200190815260200160002060008201518160000155602082015181600101556040820151816002015560608201518160030160006101000a81548173ffffffffffffffffffffffffffffffffffffffff021916908373ffffffffffffffffffffffffffffffffffffffff1602179055506080820151816005015560a0820151816007015560c08201518160080160006101000a81548160ff021916908315150217905550905050600f60003373ffffffffffffffffffffffffffffffffffffffff1673ffffffffffffffffffffffffffffffffffffffff1681526020019081526020016000206002549080600181540180825580915050600190039060005260206000200160009091909190915055600160009054906101000a900473ffffffffffffffffffffffffffffffffffffffff1673ffffffffffffffffffffffffffffffffffffffff166323b872dd3330856040518463ffffffff167c0100000000000000000000000000000000000000000000000000000000028152600401808473ffffffffffffffffffffffffffffffffffffffff1673ffffffffffffffffffffffffffffffffffffffff1681526020018373ffffffffffffffffffffffffffffffffffffffff1673ffffffffffffffffffffffffffffffffffffffff1681526020018281526020019350505050602060405180830381600087803b1580156138b057600080fd5b505af11580156138c4573d6000803e3d6000fd5b505050506040513d60208110156138da57600080fd5b810190808051906020019092919050505061395d576040517f08c379a000000000000000000000000000000000000000000000000000000000815260040180806020018281038252600f8152602001807f4e6565647320416c6c6f77616e6365000000000000000000000000000000000081525060200191505060405180910390fd5b61397282600454614af190919063ffffffff16565b600481905550600160025401600281905550813373ffffffffffffffffffffffffffffffffffffffff166002547f6aecdf6df15bd1371e1740df5f88ad1066c22c0506751320acc231234f2c26c560405160405180910390a45050565b600a5481565b6139dd611b67565b15613a50576040517f08c379a00000000000000000000000000000000000000000000000000000000081526004018080602001828103825260108152602001807f5061757361626c653a207061757365640000000000000000000000000000000081525060200191505060405180910390fd5b613a58614ca9565b600e60008581526020019081526020016000206040518060e00160405290816000820154815260200160018201548152602001600282015481526020016003820160009054906101000a900473ffffffffffffffffffffffffffffffffffffffff1673ffffffffffffffffffffffffffffffffffffffff1673ffffffffffffffffffffffffffffffffffffffff16815260200160058201548152602001600782015481526020016008820160009054906101000a900460ff1615151515815250509050600081600001511415613b96576040517f08c379a00000000000000000000000000000000000000000000000000000000081526004018080602001828103825260128152602001807f49737375652068617320746f206578697374000000000000000000000000000081525060200191505060405180910390fd5b600015158160c00151151514613c14576040517f08c379a00000000000000000000000000000000000000000000000000000000081526004018080602001828103825260168152602001807f49737375652068617320746f206265206f70656e65640000000000000000000081525060200191505060405180910390fd5b8251825114613c6e576040517f08c379a0000000000000000000000000000000000000000000000000000000008152600401808060200182810382526025815260200180614ff46025913960400191505060405180910390fd5b670de0b6b3a7640000600b5402600160009054906101000a900473ffffffffffffffffffffffffffffffffffffffff1673ffffffffffffffffffffffffffffffffffffffff166370a08231336040518263ffffffff167c0100000000000000000000000000000000000000000000000000000000028152600401808273ffffffffffffffffffffffffffffffffffffffff1673ffffffffffffffffffffffffffffffffffffffff16815260200191505060206040518083038186803b158015613d3657600080fd5b505afa158015613d4a573d6000803e3d6000fd5b505050506040513d6020811015613d6057600080fd5b810190808051906020019092919050505011613dc7576040517f08c379a0000000000000000000000000000000000000000000000000000000008152600401808060200182810382526049815260200180614f306049913960600191505060405180910390fd5b613dcf614cfe565b8160a0015181600001818152505082816060018190525083816040018190525033816080019073ffffffffffffffffffffffffffffffffffffffff16908173ffffffffffffffffffffffffffffffffffffffff16815250506000606460075460065401600e6000898152602001908152602001600020600201540281613e5157fe5b04905060008090505b855181101561401957670de0b6b3a7640000600d5402600160009054906101000a900473ffffffffffffffffffffffffffffffffffffffff1673ffffffffffffffffffffffffffffffffffffffff166370a08231888481518110613eba57fe5b60200260200101516040518263ffffffff167c0100000000000000000000000000000000000000000000000000000000028152600401808273ffffffffffffffffffffffffffffffffffffffff1673ffffffffffffffffffffffffffffffffffffffff16815260200191505060206040518083038186803b158015613f3e57600080fd5b505afa158015613f52573d6000803e3d6000fd5b505050506040513d6020811015613f6857600080fd5b810190808051906020019092919050505011613fcf576040517f08c379a000000000000000000000000000000000000000000000000000000000815260040180806020018281038252605a815260200180614f9a605a913960600191505060405180910390fd5b61400a606460075460065460640303878481518110613fea57fe5b60200260200101510281613ffa57fe5b0483614af190919063ffffffff16565b91508080600101915050613e5a565b50600e60008781526020019081526020016000206002015481146140a5576040517f08c379a00000000000000000000000000000000000000000000000000000000081526004018080602001828103825260118152602001807f546f74616c7320646f6e74206d6174636800000000000000000000000000000081525060200191505060405180910390fd5b81600e600088815260200190815260200160002060060160008560a00151815260200190815260200160002060008201518160000155602082015181600201556040820151816003019080519060200190614101929190614dcd565b50606082015181600401908051906020019061411e929190614e57565b5060808201518160050160006101000a81548173ffffffffffffffffffffffffffffffffffffffff021916908373ffffffffffffffffffffffffffffffffffffffff1602179055509050506001600e60008881526020019081526020016000206007015401600e6000888152602001908152602001600020600701819055503373ffffffffffffffffffffffffffffffffffffffff168260000151877f3a9041e1cf9ad999ea58090279700f3cb926fbf3c58ecea9897a40540c02581c60405160405180910390a4505050505050565b60075481565b6000806000806000806000614207614ca9565b600e60008a81526020019081526020016000206040518060e00160405290816000820154815260200160018201548152602001600282015481526020016003820160009054906101000a900473ffffffffffffffffffffffffffffffffffffffff1673ffffffffffffffffffffffffffffffffffffffff1673ffffffffffffffffffffffffffffffffffffffff16815260200160058201548152602001600782015481526020016008820160009054906101000a900460ff1615151515815250509050806000015181604001518260200151836060015184608001518560a001518660c00151975097509750975097509750975050919395979092949650565b600160009054906101000a900473ffffffffffffffffffffffffffffffffffffffff1681565b60085481565b600d5481565b60065481565b600060019054906101000a900473ffffffffffffffffffffffffffffffffffffffff1673ffffffffffffffffffffffffffffffffffffffff163373ffffffffffffffffffffffffffffffffffffffff161461439957600080fd5b6143a1611b67565b614413576040517f08c379a00000000000000000000000000000000000000000000000000000000081526004018080602001828103825260148152602001807f5061757361626c653a206e6f742070617573656400000000000000000000000081525060200191505060405180910390fd5b50565b600060019054906101000a900473ffffffffffffffffffffffffffffffffffffffff1673ffffffffffffffffffffffffffffffffffffffff163373ffffffffffffffffffffffffffffffffffffffff161461447057600080fd5b600073ffffffffffffffffffffffffffffffffffffffff168173ffffffffffffffffffffffffffffffffffffffff1614156144aa57600080fd5b8073ffffffffffffffffffffffffffffffffffffffff16600060019054906101000a900473ffffffffffffffffffffffffffffffffffffffff1673ffffffffffffffffffffffffffffffffffffffff167f8be0079c531659141344cd1fd0a4f28419497f9722a3daafe3b4186f6b6457e060405160405180910390a380600060016101000a81548173ffffffffffffffffffffffffffffffffffffffff021916908373ffffffffffffffffffffffffffffffffffffffff16021790555050565b6000601060003373ffffffffffffffffffffffffffffffffffffffff1673ffffffffffffffffffffffffffffffffffffffff16815260200190815260200160002090508281600301541015614627576040517f08c379a000000000000000000000000000000000000000000000000000000000815260040180806020018281038252601b8152602001807f48617320746f206861766520626570726f20746f20756e6c6f636b000000000081525060200191505060405180910390fd5b828160010160008473ffffffffffffffffffffffffffffffffffffffff1673ffffffffffffffffffffffffffffffffffffffff1681526020019081526020016000205410156146de576040517f08c379a00000000000000000000000000000000000000000000000000000000081526004018080602001828103825260208152602001807f46726f6d2068617320746f206861766520626570726f20746f20756e6c6f636b81525060200191505060405180910390fd5b6146f5838260030154614a6e90919063ffffffff16565b601060003373ffffffffffffffffffffffffffffffffffffffff1673ffffffffffffffffffffffffffffffffffffffff1681526020019081526020016000206003018190555061478f838260010160008573ffffffffffffffffffffffffffffffffffffffff1673ffffffffffffffffffffffffffffffffffffffff16815260200190815260200160002054614a6e90919063ffffffff16565b601060003373ffffffffffffffffffffffffffffffffffffffff1673ffffffffffffffffffffffffffffffffffffffff16815260200190815260200160002060010160008473ffffffffffffffffffffffffffffffffffffffff1673ffffffffffffffffffffffffffffffffffffffff168152602001908152602001600020819055508173ffffffffffffffffffffffffffffffffffffffff163373ffffffffffffffffffffffffffffffffffffffff16146148e15761489a83601060008573ffffffffffffffffffffffffffffffffffffffff1673ffffffffffffffffffffffffffffffffffffffff16815260200190815260200160002060000154614a6e90919063ffffffff16565b601060008473ffffffffffffffffffffffffffffffffffffffff1673ffffffffffffffffffffffffffffffffffffffff168152602001908152602001600020600001819055505b600160009054906101000a900473ffffffffffffffffffffffffffffffffffffffff1673ffffffffffffffffffffffffffffffffffffffff1663a9059cbb33856040518363ffffffff167c0100000000000000000000000000000000000000000000000000000000028152600401808373ffffffffffffffffffffffffffffffffffffffff1673ffffffffffffffffffffffffffffffffffffffff16815260200182815260200192505050602060405180830381600087803b1580156149a657600080fd5b505af11580156149ba573d6000803e3d6000fd5b505050506040513d60208110156149d057600080fd5b8101908080519060200190929190505050614a53576040517f08c379a00000000000000000000000000000000000000000000000000000000081526004018080602001828103825260138152602001807f5472616e73666572206469646e7420776f726b0000000000000000000000000081525060200191505060405180910390fd5b614a6883600a54614a6e90919063ffffffff16565b50505050565b600082821115614ae6576040517f08c379a000000000000000000000000000000000000000000000000000000000815260040180806020018281038252601e8152602001807f536166654d6174683a207375627472616374696f6e206f766572666c6f77000081525060200191505060405180910390fd5b818303905092915050565b600080828401905083811015614b6f576040517f08c379a000000000000000000000000000000000000000000000000000000000815260040180806020018281038252601b8152602001807f536166654d6174683a206164646974696f6e206f766572666c6f77000000000081525060200191505060405180910390fd5b8091505092915050565b600080831415614b8c5760009050614bf9565b6000828402905082848281614b9d57fe5b0414614bf4576040517f08c379a0000000000000000000000000000000000000000000000000000000008152600401808060200182810382526021815260200180614f796021913960400191505060405180910390fd5b809150505b92915050565b6000808211614c76576040517f08c379a000000000000000000000000000000000000000000000000000000000815260040180806020018281038252601a8152602001807f536166654d6174683a206469766973696f6e206279207a65726f00000000000081525060200191505060405180910390fd5b818381614c7f57fe5b04905092915050565b60405180606001604052806000815260200160608152602001600081525090565b6040518060e00160405280600081526020016000815260200160008152602001600073ffffffffffffffffffffffffffffffffffffffff16815260200160008152602001600081526020016000151581525090565b6040518060a0016040528060008152602001600081526020016060815260200160608152602001600073ffffffffffffffffffffffffffffffffffffffff1681525090565b828054828255906000526020600020908101928215614dbc579160200282015b82811115614dbb5782518260006101000a81548173ffffffffffffffffffffffffffffffffffffffff021916908373ffffffffffffffffffffffffffffffffffffffff16021790555091602001919060010190614d63565b5b509050614dc99190614ea4565b5090565b828054828255906000526020600020908101928215614e46579160200282015b82811115614e455782518260006101000a81548173ffffffffffffffffffffffffffffffffffffffff021916908373ffffffffffffffffffffffffffffffffffffffff16021790555091602001919060010190614ded565b5b509050614e539190614ea4565b5090565b828054828255906000526020600020908101928215614e93579160200282015b82811115614e92578251825591602001919060010190614e77565b5b509050614ea09190614ee7565b5090565b614ee491905b80821115614ee057600081816101000a81549073ffffffffffffffffffffffffffffffffffffffff021916905550600101614eaa565b5090565b90565b614f0991905b80821115614f05576000816000905550600101614eed565b5090565b9056fe424550524f20416d6f756e7420697320746f20626520686967686572207468616e2030546f2070726f706f7365206d6572676573207468652070726f706f7365722068617320746f206265206120436f756e63696c2028434f554e43494c5f424550524f5f414d4f554e5429536166654d6174683a206d756c7469706c69636174696f6e206f766572666c6f77546f207265636569766520646576656c6f706d656e742072657761726473207468652072657761726465642068617320746f206265206120446576656c6f7065722028444556454c4f5045525f424550524f5f414d4f554e5429416d6f756e74732068617320746f20657175616c20616464726573736573206c656e67746854686572652069732061206d657267652070726f706f73616c2077697468206d6f726520766f746573a2646970667358221220e06a97964edc6c6dbce04f39bfd75471c99110ebe06f61a0c219b37e98dd2fd664736f6c63430006020033",
  "source": "pragma solidity >=0.6.0;\n\nimport \"@openzeppelin/contracts/token/ERC20/ERC20.sol\";\nimport \"@openzeppelin/contracts/utils/Pausable.sol\";\nimport \"../utils/Ownable.sol\";\n\n\n/**\n * @dev Interface of the ERC20 standard + mint & burn\n */\ninterface _IERC20 is IERC20  {\n\n    /**\n    * @dev Mint Function\n    */\n    function mint(address account, uint256 amount) external;\n\n    /**\n    * @dev Burn Function\n    */\n    function burn(address account, uint256 amount) external;\n\n}\n\n\n/**\n * @title BEPRO Network Contract\n */\ncontract BEPRONetwork is Pausable, Ownable{\n    using SafeMath for uint256;\n\n    _IERC20 public beproToken;\n\n    uint256 constant private year = 365 days;\n    uint256 public incrementIssueID = 1;\n    uint256 public closedIdsCount = 0;\n    uint256 public totalStaked = 0;\n    address public feeAddress = 0xCF3C8Be2e2C42331Da80EF210e9B1b307C03d36A;\n    uint256 public feeShare = 2; // (%) - Share to go to marketplace manager\n    uint256 public mergeCreatorFeeShare = 1; // (%) - Share to go to the merge proposal creator\n    uint256 public percentageNeededForApprove = 10; // (%) - Amount needed to approve a PR and distribute the rewards\n    uint256 constant public timeOpenForIssueApprove = 3 days;\n    uint256 public percentageNeededForMerge = 20; // (%) - Amount needed to approve a PR and distribute the rewards\n    uint256 public beproVotesStaked = 0;\n\n    uint256 public COUNCIL_BEPRO_AMOUNT = 10000000; // 10M\n    uint256 public OPERATOR_BEPRO_AMOUNT = 1000000; // 1M\n    uint256 public DEVELOPER_BEPRO_AMOUNT = 10000; // 10k\n\n    mapping(uint256 => Issue) public issues; /* Distribution object */\n    mapping(address => uint256[]) public myIssues; /* Address Based Subcription */\n\n    mapping(address => Voter) public voters; \n    address[] public votersArray; \n\n\n    struct MergeProposal {\n        uint256 _id;\n        mapping(address => uint256) votesForMergeByAddress; // Address -> Votes for that merge\n        uint256 votes; // Amount of votes set\n        address[] prAddresses;\n        uint256[] prAmounts;\n        address proposalAddress;\n    }\n\n    struct Issue {\n        uint256 _id;\n        uint256 creationDate;\n        uint256 beproStaked;\n        address issueGenerator;\n        mapping(address => uint256) votesForApproveByAddress;\n        uint256 votesForApprove;\n        mapping(uint256 => MergeProposal) mergeProposals; // Id -> Merge Proposal\n        uint256 mergeIDIncrement;\n        bool finalized;\n\n    }\n\n    struct Voter {\n        uint256 votesDelegatedByOthers;\n        mapping(address => uint256) votesDelegated;\n        address[] delegatedVotesAddresses;\n        uint256 beproLocked;\n    }\n\n    event OpenIssue(uint256 indexed id, address indexed opener, uint256 indexed amount);\n    event ApproveIssue(uint256 indexed id, uint256 indexed votes, address indexed approver);\n    event MergeProposalCreated(uint256 indexed id, uint256 indexed mergeID, address indexed creator);\n    event ApproveMerge(uint256 indexed id, uint256 indexed mergeID, uint256 votes, address indexed approver);\n    event CloseIssue(uint256 indexed id, uint256 indexed mergeID, address[] indexed addresses);\n\n    constructor(address _tokenAddress) public { \n        beproToken = _IERC20(_tokenAddress);\n    }\n\n    function lockBepro(uint256 _beproAmount) public {\n        require(_beproAmount > 0, \"BEPRO Amount is to be higher than 0\");\n        require(beproToken.transferFrom(msg.sender, address(this), _beproAmount), \"Needs Allowance\");\n\n        if(voters[msg.sender].beproLocked != 0){\n            // Exists\n            voters[msg.sender].votesDelegated[msg.sender] = voters[msg.sender].votesDelegated[msg.sender].add(_beproAmount);\n            voters[msg.sender].beproLocked = voters[msg.sender].beproLocked.add(_beproAmount);\n        }else{\n            // Does not exist\n            Voter storage voter = voters[msg.sender];\n            voter.beproLocked = _beproAmount;\n            voter.delegatedVotesAddresses = [msg.sender];\n            voter.votesDelegated[msg.sender] = _beproAmount;\n            votersArray.push(msg.sender);\n        }\n    }\n\n    function unlockBepro(uint256 _beproAmount, address _from) public {\n        Voter storage voter = voters[msg.sender];\n        require(voter.beproLocked >= _beproAmount, \"Has to have bepro to unlock\");\n        require(voter.votesDelegated[_from] >= _beproAmount, \"From has to have bepro to unlock\");\n\n        voters[msg.sender].beproLocked = voter.beproLocked.sub(_beproAmount);\n        voters[msg.sender].votesDelegated[_from] = voter.votesDelegated[_from].sub(_beproAmount);\n        if(msg.sender != _from){\n            voters[_from].votesDelegatedByOthers = voters[_from].votesDelegatedByOthers.sub(_beproAmount);\n        }\n\n        require(beproToken.transfer(msg.sender, _beproAmount), \"Transfer didnt work\");\n        beproVotesStaked.sub(_beproAmount);\n    }\n\n    function delegateOracles(uint256 _beproAmount, address _delegatedTo) internal {\n        Voter storage voter = voters[msg.sender];\n\n        require(_delegatedTo != address(0), \"Cannot transfer to the zero address\");\n        require(_delegatedTo != msg.sender, \"Cannot transfer to itself\");\n\n        require(voter.beproLocked >= _beproAmount, \"Has to have bepro to unlock\");\n        require(voter.votesDelegated[msg.sender] >= _beproAmount, \"From has to have bepro to unlock\");\n\n        voters[msg.sender].votesDelegated[msg.sender] = voter.votesDelegated[msg.sender].sub(_beproAmount);\n        voters[msg.sender].votesDelegated[_delegatedTo] = voter.votesDelegated[_delegatedTo].add(_beproAmount);\n\n        require(voters[_delegatedTo].beproLocked != uint256(0), \"Delegated to has to have voted already\");\n        voters[_delegatedTo].votesDelegatedByOthers = voters[_delegatedTo].votesDelegatedByOthers.add(_beproAmount);\n    }\n\n    function approveIssue(uint256 _issueID) public {\n        Voter memory voter = voters[msg.sender];\n        Issue memory issue = issues[_issueID];\n        require(issue._id != 0, \"Issue does not exist\");\n        require(issues[_issueID].votesForApproveByAddress[msg.sender] == 0, \"Has already voted\");\n\n        uint256 votesToAdd = getVotesByAddress(msg.sender);\n        issues[_issueID].votesForApprove = issues[_issueID].votesForApprove.add(votesToAdd);\n        issues[_issueID].votesForApproveByAddress[msg.sender] = votesToAdd;\n\n        emit ApproveIssue(_issueID, votesToAdd, msg.sender);\n    }\n\n    function approveMerge(uint256 _issueID, uint256 _mergeID) public {\n        Voter memory voter = voters[msg.sender];\n        Issue memory issue = issues[_issueID];\n        MergeProposal storage merge = issues[_issueID].mergeProposals[_mergeID];\n        require(issue._id != 0, \"Issue does not exist\");\n        require(issue.mergeIDIncrement >  _mergeID, \"Merge Proposal does not exist\");\n        require(merge.votesForMergeByAddress[msg.sender] == 0, \"Has already voted\");\n\n        uint256 votesToAdd = getVotesByAddress(msg.sender);\n        \n        issues[_issueID].mergeProposals[_mergeID].votes = merge.votes.add(votesToAdd);\n        issues[_issueID].mergeProposals[_mergeID].votesForMergeByAddress[msg.sender] = votesToAdd;\n        \n        emit ApproveMerge(_issueID, _mergeID, votesToAdd, msg.sender);\n    }\n\n    function isIssueApproved(uint256 _issueID) public returns (bool) {\n        return (issues[_issueID].votesForApprove >= beproVotesStaked.mul(percentageNeededForApprove).div(100));\n    }\n\n    function isIssueMergeable(uint256 _issueID, uint256 _mergeID) public returns (bool) {\n        return (issues[_issueID].mergeProposals[_mergeID].votes >= beproVotesStaked.mul(percentageNeededForMerge).div(100));\n    }\n    \n    function isMergeTheOneWithMoreVotes(uint256 _issueID, uint256 _mergeID) public returns (bool) {\n        uint256 thisMergeVotes = issues[_issueID].mergeProposals[_mergeID].votes;\n        for(uint8 i = 0; i < issues[_issueID].mergeIDIncrement; i++){\n            if(issues[_issueID].mergeProposals[i].votes > thisMergeVotes){\n                return false;\n            }\n        }\n        return true;\n    }\n\n    /**\n     * @dev open an Issue with bepro owned\n     * 1st step\n     */\n    function openIssue(uint256 _beproAmount) public whenNotPaused {\n        // Open Issue\n        Issue memory issue;\n        issue._id = incrementIssueID;\n        issue.beproStaked = _beproAmount;\n        issue.issueGenerator = msg.sender;\n        issue.creationDate = block.timestamp;\n        issue.finalized = false;\n        issues[incrementIssueID] = issue;\n        myIssues[msg.sender].push(incrementIssueID);\n        // Stake bepro\n        require(beproToken.transferFrom(msg.sender, address(this), _beproAmount), \"Needs Allowance\");\n        totalStaked = totalStaked.add(_beproAmount);\n        incrementIssueID = incrementIssueID + 1;\n        emit OpenIssue(incrementIssueID, msg.sender, _beproAmount);\n    }\n\n\n    /**\n     * @dev update an Issue with bepro owned\n     * 2nd step  (optional)\n     */\n    function updateIssue(uint256 _issueId, uint256 _newbeproAmount) public whenNotPaused {\n        require(issues[_issueId].beproStaked != 0, \"Issue has to exist\");\n        require(issues[_issueId].issueGenerator == msg.sender, \"Has to be the issue creator\");\n        require(!isIssueApproved(_issueId), \"Issue is already Approved\");\n\n        uint256 previousAmount = issues[_issueId].beproStaked;\n        // Update Issue\n        issues[_issueId].beproStaked = _newbeproAmount;\n        // Stake bepro\n        if(_newbeproAmount > previousAmount){\n            require(beproToken.transferFrom(msg.sender, address(this), _newbeproAmount.sub(previousAmount)), \"Needs Allowance\");\n            totalStaked = totalStaked.add(_newbeproAmount.sub(previousAmount));\n        }else{\n            require(beproToken.transfer(msg.sender, previousAmount.sub(_newbeproAmount)), \"Transfer not sucessful\");\n            totalStaked = totalStaked.sub(previousAmount.sub(_newbeproAmount));\n        }\n    }\n\n  /**\n     * @dev Owner finalizes the issue and distributes the bepro or rejects the PR\n     * @param _issueID issue id (mapping with github)\n     * @param _prAddresses PR Address\n     * @param _prAmounts PR Amounts\n     */\n    function proposeIssueMerge(uint256 _issueID, address[] memory _prAddresses, uint256[] memory _prAmounts) public whenNotPaused {\n        \n        Issue memory issue = issues[_issueID];\n        require(issue._id != 0 , \"Issue has to exist\");\n        require(issue.finalized == false, \"Issue has to be opened\");\n        require(_prAmounts.length == _prAddresses.length, \"Amounts has to equal addresses length\");\n        require(beproToken.balanceOf(msg.sender) > COUNCIL_BEPRO_AMOUNT*10**18, \"To propose merges the proposer has to be a Council (COUNCIL_BEPRO_AMOUNT)\");\n\n        MergeProposal memory mergeProposal;\n        mergeProposal._id = issue.mergeIDIncrement;\n        mergeProposal.prAmounts = _prAmounts;\n        mergeProposal.prAddresses = _prAddresses;\n        mergeProposal.proposalAddress = msg.sender;\n\n        uint256 total = ((issues[_issueID].beproStaked * (feeShare + mergeCreatorFeeShare)) / 100); // Fee + Merge Creator Fee + 0\n\n        for(uint i = 0; i < _prAddresses.length; i++){\n            require(beproToken.balanceOf(_prAddresses[i]) > DEVELOPER_BEPRO_AMOUNT*10**18, \"To receive development rewards the rewarded has to be a Developer (DEVELOPER_BEPRO_AMOUNT)\");\n            total = total.add((_prAmounts[i] * (100-feeShare-mergeCreatorFeeShare)) / 100);\n        }\n\n        require(total == issues[_issueID].beproStaked, \"Totals dont match\");\n\n        issues[_issueID].mergeProposals[issue.mergeIDIncrement] = mergeProposal;\n        issues[_issueID].mergeIDIncrement = issues[_issueID].mergeIDIncrement + 1;\n        emit MergeProposalCreated(_issueID, mergeProposal._id, msg.sender);\n    }\n\n\n\n    /**\n     * @dev Owner finalizes the issue and distributes the bepro or rejects the PR\n     * @param _issueID issue id (mapping with github)\n     * @param _mergeID merge id \n     */\n    function closeIssue(uint256 _issueID, uint256 _mergeID) public whenNotPaused {\n        Issue memory issue = issues[_issueID];\n        require(issue._id != 0 , \"Issue has to exist\");\n        require(issue.finalized == false, \"Issue has to be opened\");\n        require(issue.mergeIDIncrement >  _mergeID, \"Merge Proposal does not exist\");\n        require(isIssueMergeable(_issueID, _mergeID), \"Issue has to have passed voting\");\n        require(isMergeTheOneWithMoreVotes(_issueID, _mergeID), \"There is a merge proposal with more votes\");\n\n        // Closes the issue\n        issues[_issueID].finalized = true;\n        MergeProposal memory merge = issues[_issueID].mergeProposals[_mergeID];\n\n        // Fee Transfer\n        require(beproToken.transfer(feeAddress, (issues[_issueID].beproStaked * feeShare) / 100), \"Has to transfer\");\n\n        // Merge Creator Transfer\n        require(beproToken.transfer(feeAddress, (issues[_issueID].beproStaked * mergeCreatorFeeShare) / 100), \"Has to transfer\");\n        \n        // Generate Reputation Tokens\n        for(uint i = 0; i < merge.prAddresses.length; i++){\n            myIssues[merge.prAddresses[i]].push(_issueID);\n            require(beproToken.transfer(merge.prAddresses[i], (merge.prAmounts[i] * (100-feeShare-mergeCreatorFeeShare)) / 100), \"Has to transfer\");\n        }\n\n        closedIdsCount = closedIdsCount.add(1);\n        totalStaked = totalStaked.sub(issue.beproStaked);\n        emit CloseIssue(_issueID, _mergeID, merge.prAddresses);\n    }\n\n    function getIssuesByAddress(address _address) public returns (uint256[] memory){\n        return myIssues[_address];\n    }\n\n    function getVotesByAddress(address _address) public returns (uint256){\n        Voter storage voter = voters[_address];\n        return voter.votesDelegatedByOthers.add(voter.votesDelegated[_address]);\n    }\n    \n    function getIssueById(uint256 _issueID) public returns (uint256, uint256, uint256, address, uint256, uint256, bool){\n        Issue memory issue = issues[_issueID];\n        return (issue._id, issue.beproStaked, issue.creationDate, issue.issueGenerator, issue.votesForApprove, issue.mergeIDIncrement, issue.finalized);\n    }\n\n    function getMergeById(uint256 _issueID, uint256 _mergeId) public returns (uint256, uint256, address[] memory, uint256[] memory, address){\n        MergeProposal memory merge = issues[_issueID].mergeProposals[_mergeId];\n        return (merge._id, merge.votes, merge.prAddresses, merge.prAmounts, merge.proposalAddress);\n    }\n\n    /**\n     * @dev Change BEPRO Token Address (Upgrade)\n     */\n    function changeBEPROAddress(address _newAddress) public onlyOwner {\n        beproToken = _IERC20(_newAddress);\n    }\n\n    /**\n     * @dev Change Fee Address\n    */\n    function editFeeAddress(address _newAddress) public onlyOwner {\n        feeAddress = _newAddress;\n    }\n\n    /**\n     * @dev Change Share Fee Amount\n    */\n    function editFeeShare(uint256 _feeShare) public onlyOwner {\n        feeShare = _feeShare;\n    }\n\n    /**\n     * @dev Upgrade Contract Version\n     */\n    function upgradeContract(address _newContract) public onlyOwner whenPaused {\n        //To be done\n    }\n}\n",
  "sourcePath": "/Users/ruipedro/Desktop/projects/Bepro/@bepro-js/contracts/bepro/Network.sol",
  "compiler": {
    "name": "solc",
    "version": "0.6.2+commit.bacdbe57.Emscripten.clang"
  },
  "schemaVersion": "3.0.20",
  "updatedAt": "2021-04-30T15:26:38.430Z",
  "devdoc": {
    "methods": {
      "changeBEPROAddress(address)": {
        "details": "Change BEPRO Token Address (Upgrade)"
      },
      "closeIssue(uint256,uint256)": {
        "details": "Owner finalizes the issue and distributes the bepro or rejects the PR",
        "params": {
          "_issueID": "issue id (mapping with github)",
          "_mergeID": "merge id "
        }
      },
      "editFeeAddress(address)": {
        "details": "Change Fee Address"
      },
      "editFeeShare(uint256)": {
        "details": "Change Share Fee Amount"
      },
      "openIssue(uint256)": {
        "details": "open an Issue with bepro owned 1st step"
      },
      "paused()": {
        "details": "Returns true if the contract is paused, and false otherwise."
      },
      "proposeIssueMerge(uint256,address[],uint256[])": {
        "details": "Owner finalizes the issue and distributes the bepro or rejects the PR",
        "params": {
          "_issueID": "issue id (mapping with github)",
          "_prAddresses": "PR Address",
          "_prAmounts": "PR Amounts"
        }
      },
      "transferOwnership(address)": {
        "details": "Allows the current owner to transfer control of the contract to a newOwner.",
        "params": {
          "newOwner": "The address to transfer ownership to."
        }
      },
      "updateIssue(uint256,uint256)": {
        "details": "update an Issue with bepro owned 2nd step  (optional)"
      },
      "upgradeContract(address)": {
        "details": "Upgrade Contract Version"
      }
    },
    "title": "BEPRO Network Contract"
  },
  "userdoc": {
    "methods": {}
  }
}