{
  "contractName": "BEPRONetwork",
  "abi": [
    {
      "inputs": [
        {
          "internalType": "address",
          "name": "_tokenAddress",
          "type": "address"
        }
      ],
      "stateMutability": "nonpayable",
      "type": "constructor"
    },
    {
      "anonymous": false,
      "inputs": [
        {
          "indexed": true,
          "internalType": "uint256",
          "name": "id",
          "type": "uint256"
        },
        {
          "indexed": true,
          "internalType": "uint256",
          "name": "votes",
          "type": "uint256"
        },
        {
          "indexed": true,
          "internalType": "address",
          "name": "approver",
          "type": "address"
        }
      ],
      "name": "ApproveIssue",
      "type": "event"
    },
    {
      "anonymous": false,
      "inputs": [
        {
          "indexed": true,
          "internalType": "uint256",
          "name": "id",
          "type": "uint256"
        },
        {
          "indexed": true,
          "internalType": "uint256",
          "name": "mergeID",
          "type": "uint256"
        },
        {
          "indexed": false,
          "internalType": "uint256",
          "name": "votes",
          "type": "uint256"
        },
        {
          "indexed": true,
          "internalType": "address",
          "name": "approver",
          "type": "address"
        }
      ],
      "name": "ApproveMerge",
      "type": "event"
    },
    {
      "anonymous": false,
      "inputs": [
        {
          "indexed": true,
          "internalType": "uint256",
          "name": "id",
          "type": "uint256"
        },
        {
          "indexed": true,
          "internalType": "uint256",
          "name": "mergeID",
          "type": "uint256"
        },
        {
          "indexed": true,
          "internalType": "address[]",
          "name": "addresses",
          "type": "address[]"
        }
      ],
      "name": "CloseIssue",
      "type": "event"
    },
    {
      "anonymous": false,
      "inputs": [
        {
          "indexed": true,
          "internalType": "uint256",
          "name": "id",
          "type": "uint256"
        },
        {
          "indexed": true,
          "internalType": "uint256",
          "name": "mergeID",
          "type": "uint256"
        },
        {
          "indexed": false,
          "internalType": "uint256",
          "name": "votes",
          "type": "uint256"
        },
        {
          "indexed": true,
          "internalType": "address",
          "name": "disputer",
          "type": "address"
        }
      ],
      "name": "DisputeMerge",
      "type": "event"
    },
    {
      "anonymous": false,
      "inputs": [
        {
          "indexed": true,
          "internalType": "uint256",
          "name": "id",
          "type": "uint256"
        },
        {
          "indexed": true,
          "internalType": "uint256",
          "name": "mergeID",
          "type": "uint256"
        },
        {
          "indexed": true,
          "internalType": "address",
          "name": "creator",
          "type": "address"
        }
      ],
      "name": "MergeProposalCreated",
      "type": "event"
    },
    {
      "anonymous": false,
      "inputs": [
        {
          "indexed": true,
          "internalType": "uint256",
          "name": "id",
          "type": "uint256"
        },
        {
          "indexed": true,
          "internalType": "address",
          "name": "opener",
          "type": "address"
        },
        {
          "indexed": true,
          "internalType": "uint256",
          "name": "amount",
          "type": "uint256"
        }
      ],
      "name": "OpenIssue",
      "type": "event"
    },
    {
      "anonymous": false,
      "inputs": [
        {
          "indexed": true,
          "internalType": "address",
          "name": "previousOwner",
          "type": "address"
        },
        {
          "indexed": true,
          "internalType": "address",
          "name": "newOwner",
          "type": "address"
        }
      ],
      "name": "OwnershipTransferred",
      "type": "event"
    },
    {
      "anonymous": false,
      "inputs": [
        {
          "indexed": false,
          "internalType": "address",
          "name": "account",
          "type": "address"
        }
      ],
      "name": "Paused",
      "type": "event"
    },
    {
      "anonymous": false,
      "inputs": [
        {
          "indexed": false,
          "internalType": "address",
          "name": "account",
          "type": "address"
        }
      ],
      "name": "Unpaused",
      "type": "event"
    },
    {
      "inputs": [],
      "name": "COUNCIL_BEPRO_AMOUNT",
      "outputs": [
        {
          "internalType": "uint256",
          "name": "",
          "type": "uint256"
        }
      ],
      "stateMutability": "view",
      "type": "function"
    },
    {
      "inputs": [],
      "name": "DEVELOPER_BEPRO_AMOUNT",
      "outputs": [
        {
          "internalType": "uint256",
          "name": "",
          "type": "uint256"
        }
      ],
      "stateMutability": "view",
      "type": "function"
    },
    {
      "inputs": [],
      "name": "OPERATOR_BEPRO_AMOUNT",
      "outputs": [
        {
          "internalType": "uint256",
          "name": "",
          "type": "uint256"
        }
      ],
      "stateMutability": "view",
      "type": "function"
    },
    {
      "inputs": [],
      "name": "beproToken",
      "outputs": [
        {
          "internalType": "contract _IERC20",
          "name": "",
          "type": "address"
        }
      ],
      "stateMutability": "view",
      "type": "function"
    },
    {
      "inputs": [],
      "name": "beproVotesStaked",
      "outputs": [
        {
          "internalType": "uint256",
          "name": "",
          "type": "uint256"
        }
      ],
      "stateMutability": "view",
      "type": "function"
    },
    {
      "inputs": [],
      "name": "closedIdsCount",
      "outputs": [
        {
          "internalType": "uint256",
          "name": "",
          "type": "uint256"
        }
      ],
      "stateMutability": "view",
      "type": "function"
    },
    {
      "inputs": [],
      "name": "feeAddress",
      "outputs": [
        {
          "internalType": "address",
          "name": "",
          "type": "address"
        }
      ],
      "stateMutability": "view",
      "type": "function"
    },
    {
      "inputs": [],
      "name": "feeShare",
      "outputs": [
        {
          "internalType": "uint256",
          "name": "",
          "type": "uint256"
        }
      ],
      "stateMutability": "view",
      "type": "function"
    },
    {
      "inputs": [],
      "name": "incrementIssueID",
      "outputs": [
        {
          "internalType": "uint256",
          "name": "",
          "type": "uint256"
        }
      ],
      "stateMutability": "view",
      "type": "function"
    },
    {
      "inputs": [
        {
          "internalType": "uint256",
          "name": "",
          "type": "uint256"
        }
      ],
      "name": "issues",
      "outputs": [
        {
          "internalType": "uint256",
          "name": "_id",
          "type": "uint256"
        },
        {
          "internalType": "uint256",
          "name": "creationDate",
          "type": "uint256"
        },
        {
          "internalType": "uint256",
          "name": "beproStaked",
          "type": "uint256"
        },
        {
          "internalType": "address",
          "name": "issueGenerator",
          "type": "address"
        },
        {
          "internalType": "uint256",
          "name": "votesForApprove",
          "type": "uint256"
        },
        {
          "internalType": "uint256",
          "name": "mergeIDIncrement",
          "type": "uint256"
        },
        {
          "internalType": "bool",
          "name": "finalized",
          "type": "bool"
        },
        {
          "internalType": "bool",
          "name": "canceled",
          "type": "bool"
        }
      ],
      "stateMutability": "view",
      "type": "function"
    },
    {
      "inputs": [],
      "name": "mergeCreatorFeeShare",
      "outputs": [
        {
          "internalType": "uint256",
          "name": "",
          "type": "uint256"
        }
      ],
      "stateMutability": "view",
      "type": "function"
    },
    {
      "inputs": [
        {
          "internalType": "address",
          "name": "",
          "type": "address"
        },
        {
          "internalType": "uint256",
          "name": "",
          "type": "uint256"
        }
      ],
      "name": "myIssues",
      "outputs": [
        {
          "internalType": "uint256",
          "name": "",
          "type": "uint256"
        }
      ],
      "stateMutability": "view",
      "type": "function"
    },
    {
      "inputs": [],
      "name": "owner",
      "outputs": [
        {
          "internalType": "address",
          "name": "",
          "type": "address"
        }
      ],
      "stateMutability": "view",
      "type": "function"
    },
    {
      "inputs": [],
      "name": "paused",
      "outputs": [
        {
          "internalType": "bool",
          "name": "",
          "type": "bool"
        }
      ],
      "stateMutability": "view",
      "type": "function"
    },
    {
      "inputs": [],
      "name": "percentageNeededForApprove",
      "outputs": [
        {
          "internalType": "uint256",
          "name": "",
          "type": "uint256"
        }
      ],
      "stateMutability": "view",
      "type": "function"
    },
    {
      "inputs": [],
      "name": "percentageNeededForDispute",
      "outputs": [
        {
          "internalType": "uint256",
          "name": "",
          "type": "uint256"
        }
      ],
      "stateMutability": "view",
      "type": "function"
    },
    {
      "inputs": [],
      "name": "percentageNeededForMerge",
      "outputs": [
        {
          "internalType": "uint256",
          "name": "",
          "type": "uint256"
        }
      ],
      "stateMutability": "view",
      "type": "function"
    },
    {
      "inputs": [],
      "name": "timeOpenForIssueApprove",
      "outputs": [
        {
          "internalType": "uint256",
          "name": "",
          "type": "uint256"
        }
      ],
      "stateMutability": "view",
      "type": "function"
    },
    {
      "inputs": [],
      "name": "totalStaked",
      "outputs": [
        {
          "internalType": "uint256",
          "name": "",
          "type": "uint256"
        }
      ],
      "stateMutability": "view",
      "type": "function"
    },
    {
      "inputs": [
        {
          "internalType": "address",
          "name": "newOwner",
          "type": "address"
        }
      ],
      "name": "transferOwnership",
      "outputs": [],
      "stateMutability": "nonpayable",
      "type": "function"
    },
    {
      "inputs": [
        {
          "internalType": "address",
          "name": "",
          "type": "address"
        }
      ],
      "name": "voters",
      "outputs": [
        {
          "internalType": "uint256",
          "name": "votesDelegatedByOthers",
          "type": "uint256"
        },
        {
          "internalType": "uint256",
          "name": "beproLocked",
          "type": "uint256"
        }
      ],
      "stateMutability": "view",
      "type": "function"
    },
    {
      "inputs": [
        {
          "internalType": "uint256",
          "name": "",
          "type": "uint256"
        }
      ],
      "name": "votersArray",
      "outputs": [
        {
          "internalType": "address",
          "name": "",
          "type": "address"
        }
      ],
      "stateMutability": "view",
      "type": "function"
    },
    {
      "inputs": [
        {
          "internalType": "uint256",
          "name": "_beproAmount",
          "type": "uint256"
        }
      ],
      "name": "lockBepro",
      "outputs": [],
      "stateMutability": "nonpayable",
      "type": "function"
    },
    {
      "inputs": [
        {
          "internalType": "uint256",
          "name": "_beproAmount",
          "type": "uint256"
        },
        {
          "internalType": "address",
          "name": "_from",
          "type": "address"
        }
      ],
      "name": "unlockBepro",
      "outputs": [],
      "stateMutability": "nonpayable",
      "type": "function"
    },
    {
      "inputs": [
        {
          "internalType": "uint256",
          "name": "_issueID",
          "type": "uint256"
        }
      ],
      "name": "approveIssue",
      "outputs": [],
      "stateMutability": "nonpayable",
      "type": "function"
    },
    {
      "inputs": [
        {
          "internalType": "uint256",
          "name": "_issueID",
          "type": "uint256"
        },
        {
          "internalType": "uint256",
          "name": "_mergeID",
          "type": "uint256"
        }
      ],
      "name": "approveMerge",
      "outputs": [],
      "stateMutability": "nonpayable",
      "type": "function"
    },
    {
      "inputs": [
        {
          "internalType": "uint256",
          "name": "_issueID",
          "type": "uint256"
        },
        {
          "internalType": "uint256",
          "name": "_mergeID",
          "type": "uint256"
        }
      ],
      "name": "disputeMerge",
      "outputs": [],
      "stateMutability": "nonpayable",
      "type": "function"
    },
    {
      "inputs": [
        {
          "internalType": "uint256",
          "name": "_issueID",
          "type": "uint256"
        }
      ],
      "name": "isIssueApprovable",
      "outputs": [
        {
          "internalType": "bool",
          "name": "",
          "type": "bool"
        }
      ],
      "stateMutability": "nonpayable",
      "type": "function"
    },
    {
      "inputs": [
        {
          "internalType": "uint256",
          "name": "_issueID",
          "type": "uint256"
        }
      ],
      "name": "isIssueApproved",
      "outputs": [
        {
          "internalType": "bool",
          "name": "",
          "type": "bool"
        }
      ],
      "stateMutability": "nonpayable",
      "type": "function"
    },
    {
      "inputs": [
        {
          "internalType": "uint256",
          "name": "_issueID",
          "type": "uint256"
        },
        {
          "internalType": "uint256",
          "name": "_mergeID",
          "type": "uint256"
        }
      ],
      "name": "isMergeDisputed",
      "outputs": [
        {
          "internalType": "bool",
          "name": "",
          "type": "bool"
        }
      ],
      "stateMutability": "nonpayable",
      "type": "function"
    },
    {
      "inputs": [
        {
          "internalType": "uint256",
          "name": "_issueID",
          "type": "uint256"
        },
        {
          "internalType": "uint256",
          "name": "_mergeID",
          "type": "uint256"
        }
      ],
      "name": "isMergeApproved",
      "outputs": [
        {
          "internalType": "bool",
          "name": "",
          "type": "bool"
        }
      ],
      "stateMutability": "nonpayable",
      "type": "function"
    },
    {
      "inputs": [
        {
          "internalType": "uint256",
          "name": "_issueID",
          "type": "uint256"
        },
        {
          "internalType": "uint256",
          "name": "_mergeID",
          "type": "uint256"
        }
      ],
      "name": "isMergeTheOneWithMoreVotes",
      "outputs": [
        {
          "internalType": "bool",
          "name": "",
          "type": "bool"
        }
      ],
      "stateMutability": "nonpayable",
      "type": "function"
    },
    {
      "inputs": [
        {
          "internalType": "uint256",
          "name": "_beproAmount",
          "type": "uint256"
        }
      ],
      "name": "openIssue",
      "outputs": [],
      "stateMutability": "nonpayable",
      "type": "function"
    },
    {
      "inputs": [
        {
          "internalType": "uint256",
          "name": "_issueId",
          "type": "uint256"
        }
      ],
      "name": "redeemIssue",
      "outputs": [],
      "stateMutability": "nonpayable",
      "type": "function"
    },
    {
      "inputs": [
        {
          "internalType": "uint256",
          "name": "_issueId",
          "type": "uint256"
        },
        {
          "internalType": "uint256",
          "name": "_newbeproAmount",
          "type": "uint256"
        }
      ],
      "name": "updateIssue",
      "outputs": [],
      "stateMutability": "nonpayable",
      "type": "function"
    },
    {
      "inputs": [
        {
          "internalType": "uint256",
          "name": "_issueID",
          "type": "uint256"
        },
        {
          "internalType": "address[]",
          "name": "_prAddresses",
          "type": "address[]"
        },
        {
          "internalType": "uint256[]",
          "name": "_prAmounts",
          "type": "uint256[]"
        }
      ],
      "name": "proposeIssueMerge",
      "outputs": [],
      "stateMutability": "nonpayable",
      "type": "function"
    },
    {
      "inputs": [
        {
          "internalType": "uint256",
          "name": "_issueID",
          "type": "uint256"
        },
        {
          "internalType": "uint256",
          "name": "_mergeID",
          "type": "uint256"
        }
      ],
      "name": "closeIssue",
      "outputs": [],
      "stateMutability": "nonpayable",
      "type": "function"
    },
    {
      "inputs": [
        {
          "internalType": "address",
          "name": "_address",
          "type": "address"
        }
      ],
      "name": "getIssuesByAddress",
      "outputs": [
        {
          "internalType": "uint256[]",
          "name": "",
          "type": "uint256[]"
        }
      ],
      "stateMutability": "nonpayable",
      "type": "function"
    },
    {
      "inputs": [
        {
          "internalType": "address",
          "name": "_address",
          "type": "address"
        }
      ],
      "name": "getVotesByAddress",
      "outputs": [
        {
          "internalType": "uint256",
          "name": "",
          "type": "uint256"
        }
      ],
      "stateMutability": "nonpayable",
      "type": "function"
    },
    {
      "inputs": [
        {
          "internalType": "uint256",
          "name": "_issueID",
          "type": "uint256"
        }
      ],
      "name": "getIssueById",
      "outputs": [
        {
          "internalType": "uint256",
          "name": "",
          "type": "uint256"
        },
        {
          "internalType": "uint256",
          "name": "",
          "type": "uint256"
        },
        {
          "internalType": "uint256",
          "name": "",
          "type": "uint256"
        },
        {
          "internalType": "address",
          "name": "",
          "type": "address"
        },
        {
          "internalType": "uint256",
          "name": "",
          "type": "uint256"
        },
        {
          "internalType": "uint256",
          "name": "",
          "type": "uint256"
        },
        {
          "internalType": "bool",
          "name": "",
          "type": "bool"
        },
        {
          "internalType": "bool",
          "name": "",
          "type": "bool"
        }
      ],
      "stateMutability": "nonpayable",
      "type": "function"
    },
    {
      "inputs": [
        {
          "internalType": "uint256",
          "name": "_issueID",
          "type": "uint256"
        },
        {
          "internalType": "uint256",
          "name": "_mergeId",
          "type": "uint256"
        }
      ],
      "name": "getMergeById",
      "outputs": [
        {
          "internalType": "uint256",
          "name": "",
          "type": "uint256"
        },
        {
          "internalType": "uint256",
          "name": "",
          "type": "uint256"
        },
        {
          "internalType": "uint256",
          "name": "",
          "type": "uint256"
        },
        {
          "internalType": "address[]",
          "name": "",
          "type": "address[]"
        },
        {
          "internalType": "uint256[]",
          "name": "",
          "type": "uint256[]"
        },
        {
          "internalType": "address",
          "name": "",
          "type": "address"
        }
      ],
      "stateMutability": "nonpayable",
      "type": "function"
    },
    {
      "inputs": [
        {
          "internalType": "address",
          "name": "_newAddress",
          "type": "address"
        }
      ],
      "name": "changeBEPROAddress",
      "outputs": [],
      "stateMutability": "nonpayable",
      "type": "function"
    },
    {
      "inputs": [
        {
          "internalType": "address",
          "name": "_newAddress",
          "type": "address"
        }
      ],
      "name": "editFeeAddress",
      "outputs": [],
      "stateMutability": "nonpayable",
      "type": "function"
    },
    {
      "inputs": [
        {
          "internalType": "uint256",
          "name": "_feeShare",
          "type": "uint256"
        }
      ],
      "name": "editFeeShare",
      "outputs": [],
      "stateMutability": "nonpayable",
      "type": "function"
    },
    {
      "inputs": [
        {
          "internalType": "address",
          "name": "_newContract",
          "type": "address"
        }
      ],
      "name": "upgradeContract",
      "outputs": [],
      "stateMutability": "nonpayable",
      "type": "function"
    }
  ],
  "bytecode": "0x608060405260016002556000600355600060045573cf3c8be2e2c42331da80ef210e9b1b307c03d36a600560006101000a8154816001600160a01b0302191690836001600160a01b0316021790555060026006556001600755600a60085560036009556014600a556000600b5562989680600c55620f4240600d55612710600e5534801561008c57600080fd5b50604051613806380380613806833981810160405260208110156100af57600080fd5b5051600080546001600160a81b0319166101003302178155600180546001600160a01b0319166001600160a01b039093169290921790915561370f9081906100f790396000f3fe608060405234801561001057600080fd5b506004361061027f5760003560e01c806388632e281161015c578063c98244d0116100ce578063eb2c022311610087578063eb2c0223146108d1578063f29b4250146108f7578063f2fde38b1461091a578063f38b79b714610940578063f78480491461096c578063f87be2d4146109745761027f565b8063c98244d014610871578063ce13eae61461088e578063e113e452146108b1578063e2b6b3d9146108b9578063e38ebcf9146108c1578063e9ade90e146108c95761027f565b80639816c170116101205780639816c170146106ba578063a3ec138d146106d7578063b2bb95f514610716578063bdfd452414610733578063c57631551461073b578063c881bbe8146108695761027f565b806388632e281461064d5780638ccaf9681461066a5780638da5cb5b14610672578063953030c51461067a578063969838221461069d5761027f565b80635ac203cf116101f55780636931e725116101b95780636931e725146105c95780636ba7fa82146105ec57806370c9c791146105f4578063729911a81461061a578063817b1cd214610622578063839408a51461062a5761027f565b80635ac203cf146104335780635c975abb146104595780635d795bd2146104615780636106e4eb146104d75780636253faf8146105c15761027f565b80632307debc116102475780632307debc146103945780633d7349481461039c57806341275358146103cd5780634ca8b9eb146103f157806353da4247146103f957806356036543146104165761027f565b806304e15de51461028457806305563309146102ee5780631ac63d92146103135780631e63c0a514610351578063202996fb14610377575b600080fd5b6102a16004803603602081101561029a57600080fd5b5035610997565b604080519889526020890197909752878701959095526001600160a01b039093166060870152608086019190915260a0850152151560c0840152151560e083015251908190036101000190f35b6103116004803603604081101561030457600080fd5b50803590602001356109ea565b005b61033f6004803603604081101561032957600080fd5b506001600160a01b038135169060200135610dad565b60408051918252519081900360200190f35b61033f6004803603602081101561036757600080fd5b50356001600160a01b0316610ddb565b6103116004803603602081101561038d57600080fd5b5035610e18565b61033f61106e565b6103b9600480360360208110156103b257600080fd5b5035611075565b604080519115158252519081900360200190f35b6103d56110ba565b604080516001600160a01b039092168252519081900360200190f35b61033f6110c9565b6103d56004803603602081101561040f57600080fd5b50356110cf565b6103116004803603602081101561042c57600080fd5b50356110f6565b6103116004803603602081101561044957600080fd5b50356001600160a01b0316611359565b6103b9611397565b6104876004803603602081101561047757600080fd5b50356001600160a01b03166113a1565b60408051602080825283518183015283519192839290830191858101910280838360005b838110156104c35781810151838201526020016104ab565b505050509050019250505060405180910390f35b6104fa600480360360408110156104ed57600080fd5b508035906020013561140d565b604051808781526020018681526020018581526020018060200180602001846001600160a01b03166001600160a01b03168152602001838103835286818151815260200191508051906020019060200280838360005b83811015610568578181015183820152602001610550565b50505050905001838103825285818151815260200191508051906020019060200280838360005b838110156105a757818101518382015260200161058f565b505050509050019850505050505050505060405180910390f35b61033f61155a565b610311600480360360408110156105df57600080fd5b5080359060200135611560565b61033f611d2f565b6103116004803603602081101561060a57600080fd5b50356001600160a01b0316611d35565b61033f611d73565b61033f611d79565b6103b96004803603604081101561064057600080fd5b5080359060200135611d7f565b6103116004803603602081101561066357600080fd5b5035611e07565b61033f611e28565b6103d5611e2e565b6103116004803603604081101561069057600080fd5b5080359060200135611e42565b6103b9600480360360208110156106b357600080fd5b50356120f0565b610311600480360360208110156106d057600080fd5b503561211e565b6106fd600480360360208110156106ed57600080fd5b50356001600160a01b0316612344565b6040805192835260208301919091528051918290030190f35b6103116004803603602081101561072c57600080fd5b503561235d565b61033f61258f565b6103116004803603606081101561075157600080fd5b8135919081019060408101602082013564010000000081111561077357600080fd5b82018360208201111561078557600080fd5b803590602001918460208302840111640100000000831117156107a757600080fd5b91908080602002602001604051908101604052809392919081815260200183836020028082843760009201919091525092959493602081019350359150506401000000008111156107f757600080fd5b82018360208201111561080957600080fd5b8035906020019184602083028401116401000000008311171561082b57600080fd5b919080806020026020016040519081016040528093929190818152602001838360200280828437600092019190915250929550612595945050505050565b61033f612acb565b6102a16004803603602081101561088757600080fd5b5035612ad1565b6103b9600480360360408110156108a457600080fd5b5080359060200135612b81565b6103d5612bc9565b61033f612bd8565b61033f612bde565b61033f612be4565b610311600480360360208110156108e757600080fd5b50356001600160a01b0316612bea565b6103b96004803603604081101561090d57600080fd5b5080359060200135612c56565b6103116004803603602081101561093057600080fd5b50356001600160a01b0316612c9e565b6103116004803603604081101561095657600080fd5b50803590602001356001600160a01b0316612d33565b61033f612fb2565b6103116004803603604081101561098a57600080fd5b5080359060200135612fb8565b600f6020526000908152604090208054600182015460028301546003840154600585015460078601546008909601549495939492936001600160a01b039092169290919060ff8082169161010090041688565b6109f2611397565b15610a37576040805162461bcd60e51b815260206004820152601060248201526f14185d5cd8589b194e881c185d5cd95960821b604482015290519081900360640190fd5b6000828152600f6020526040902060020154610a8f576040805162461bcd60e51b8152602060048201526012602482015271125cdcdd59481a185cc81d1bc8195e1a5cdd60721b604482015290519081900360640190fd5b6000828152600f60205260409020600301546001600160a01b03163314610afd576040805162461bcd60e51b815260206004820152601b60248201527f48617320746f206265207468652069737375652063726561746f720000000000604482015290519081900360640190fd5b610b0682611075565b15610b58576040805162461bcd60e51b815260206004820152601960248201527f497373756520697320616c726561647920417070726f76656400000000000000604482015290519081900360640190fd5b6000828152600f6020526040902060020180549082905580821115610c9b576001546001600160a01b03166323b872dd3330610b9a868663ffffffff61326616565b6040518463ffffffff1660e01b815260040180846001600160a01b03166001600160a01b03168152602001836001600160a01b03166001600160a01b031681526020018281526020019350505050602060405180830381600087803b158015610c0257600080fd5b505af1158015610c16573d6000803e3d6000fd5b505050506040513d6020811015610c2c57600080fd5b5051610c71576040805162461bcd60e51b815260206004820152600f60248201526e4e6565647320416c6c6f77616e636560881b604482015290519081900360640190fd5b610c93610c84838363ffffffff61326616565b6004549063ffffffff6132c316565b600455610da8565b6001546001600160a01b031663a9059cbb33610cbd848663ffffffff61326616565b6040518363ffffffff1660e01b815260040180836001600160a01b03166001600160a01b0316815260200182815260200192505050602060405180830381600087803b158015610d0c57600080fd5b505af1158015610d20573d6000803e3d6000fd5b505050506040513d6020811015610d3657600080fd5b5051610d82576040805162461bcd60e51b8152602060048201526016602482015275151c985b9cd9995c881b9bdd081cdd58d95cdcd99d5b60521b604482015290519081900360640190fd5b610da4610d95828463ffffffff61326616565b6004549063ffffffff61326616565b6004555b505050565b60106020528160005260406000208181548110610dc657fe5b90600052602060002001600091509150505481565b6001600160a01b0381166000908152601160209081526040808320600181019092528220548154610e119163ffffffff6132c316565b9392505050565b610e20611397565b15610e65576040805162461bcd60e51b815260206004820152601060248201526f14185d5cd8589b194e881c185d5cd95960821b604482015290519081900360640190fd5b6000818152600f60205260409020600301546001600160a01b03163314610ed3576040805162461bcd60e51b815260206004820152601b60248201527f48617320746f206265207468652069737375652063726561746f720000000000604482015290519081900360640190fd5b610edc81611075565b15610f2e576040805162461bcd60e51b815260206004820152601c60248201527f49737375652068617320746f206e6f7420626520617070726f76656400000000604482015290519081900360640190fd5b610f37816120f0565b15610f735760405162461bcd60e51b815260040180806020018281038252602b81526020018061359d602b913960400191505060405180910390fd5b6000818152600f60209081526040808320600881018054610100600160ff19909216821761ff0019161790915554600290910154825163a9059cbb60e01b8152336004820152602481019190915291516001600160a01b039091169363a9059cbb93604480850194919392918390030190829087803b158015610ff557600080fd5b505af1158015611009573d6000803e3d6000fd5b505050506040513d602081101561101f57600080fd5b505161106b576040805162461bcd60e51b8152602060048201526016602482015275151c985b9cd9995c881b9bdd081cdd58d95cdcd99d5b60521b604482015290519081900360640190fd5b50565b6203f48081565b600061109f6064611093600854600b5461331d90919063ffffffff16565b9063ffffffff61337616565b6000838152600f602052604090206005015410159050919050565b6005546001600160a01b031681565b600a5481565b601281815481106110dc57fe5b6000918252602090912001546001600160a01b0316905081565b6110fe6133dd565b336000908152601160209081526040918290208251606081018452815481526002820180548551818602810186019096528086529194929385810193929083018282801561117557602002820191906000526020600020905b81546001600160a01b03168152600190910190602001808311611157575b5050505050815260200160038201548152505090506111926133fe565b506000828152600f602090815260409182902082516101008082018552825480835260018401549483019490945260028301549482019490945260038201546001600160a01b0316606082015260058201546080820152600782015460a082015260089091015460ff808216151560c0840152939004909216151560e083015261125a576040805162461bcd60e51b8152602060048201526014602482015273125cdcdd5948191bd95cc81b9bdd08195e1a5cdd60621b604482015290519081900360640190fd5b611263836120f0565b61126c57600080fd5b6000838152600f60209081526040808320338452600401909152902054156112cf576040805162461bcd60e51b815260206004820152601160248201527012185cc8185b1c9958591e481d9bdd1959607a1b604482015290519081900360640190fd5b60006112da33610ddb565b6000858152600f60205260409020600501549091506112ff908263ffffffff6132c316565b6000858152600f60209081526040808320600581019490945533808452600490940190915280822084905551839187917f874c2861194fad2379fb15b08319bf4f3ec0c9f22bfd1ed18435ac4600abb0a09190a450505050565b60005461010090046001600160a01b0316331461137557600080fd5b600180546001600160a01b0319166001600160a01b0392909216919091179055565b60005460ff165b90565b6001600160a01b03811660009081526010602090815260409182902080548351818402810184019094528084526060939283018282801561140157602002820191906000526020600020905b8154815260200190600101908083116113ed575b50505050509050919050565b6000806000606080600061141f613450565b6000898152600f602090815260408083208b8452600601825291829020825160c0810184528154815260038201548184015260048201548185015260058201805485518186028101860190965280865291949293606086019392908301828280156114b357602002820191906000526020600020905b81546001600160a01b03168152600190910190602001808311611495575b505050505081526020016006820180548060200260200160405190810160405280929190818152602001828054801561150b57602002820191906000526020600020905b8154815260200190600101908083116114f7575b5050509183525050600791909101546001600160a01b031660209182015281519082015160408301516060840151608085015160a090950151939e929d50909b50995091975095509350505050565b600d5481565b611568611397565b156115ad576040805162461bcd60e51b815260206004820152601060248201526f14185d5cd8589b194e881c185d5cd95960821b604482015290519081900360640190fd5b6115b56133fe565b506000828152600f602090815260409182902082516101008082018552825480835260018401549483019490945260028301549482019490945260038201546001600160a01b0316606082015260058201546080820152600782015460a082015260089091015460ff808216151560c0840152939004909216151560e083015261167b576040805162461bcd60e51b8152602060048201526012602482015271125cdcdd59481a185cc81d1bc8195e1a5cdd60721b604482015290519081900360640190fd5b60c0810151156116cb576040805162461bcd60e51b8152602060048201526016602482015275125cdcdd59481a185cc81d1bc81899481bdc195b995960521b604482015290519081900360640190fd5b818160a0015111611723576040805162461bcd60e51b815260206004820152601d60248201527f4d657267652050726f706f73616c20646f6573206e6f74206578697374000000604482015290519081900360640190fd5b61172d8383612b81565b61177e576040805162461bcd60e51b815260206004820152601f60248201527f49737375652068617320746f20686176652070617373656420766f74696e6700604482015290519081900360640190fd5b6117888383612c56565b156117da576040805162461bcd60e51b815260206004820152601760248201527f4d6572676520686173206265656e206469737075746564000000000000000000604482015290519081900360640190fd5b6117e48383611d7f565b61181f5760405162461bcd60e51b81526004018080602001828103825260298152602001806136b16029913960400191505060405180910390fd5b6000838152600f60205260409020600801805460ff19166001179055611843613450565b6000848152600f60209081526040808320868452600601825291829020825160c0810184528154815260038201548184015260048201548185015260058201805485518186028101860190965280865291949293606086019392908301828280156118d757602002820191906000526020600020905b81546001600160a01b031681526001909101906020018083116118b9575b505050505081526020016006820180548060200260200160405190810160405280929190818152602001828054801561192f57602002820191906000526020600020905b81548152602001906001019080831161191b575b5050509183525050600791909101546001600160a01b0390811660209283015260015460055460065460008a8152600f8652604080822060020154815163a9059cbb60e01b81529487166004860152606493029290920460248401529051959650919092169363a9059cbb936044808501949193918390030190829087803b1580156119ba57600080fd5b505af11580156119ce573d6000803e3d6000fd5b505050506040513d60208110156119e457600080fd5b5051611a29576040805162461bcd60e51b815260206004820152600f60248201526e2430b9903a37903a3930b739b332b960891b604482015290519081900360640190fd5b6001546005546007546000878152600f6020908152604080832060020154815163a9059cbb60e01b81526001600160a01b03968716600482015260649190950204602485015251939094169363a9059cbb93604480850194929391928390030190829087803b158015611a9b57600080fd5b505af1158015611aaf573d6000803e3d6000fd5b505050506040513d6020811015611ac557600080fd5b5051611b0a576040805162461bcd60e51b815260206004820152600f60248201526e2430b9903a37903a3930b739b332b960891b604482015290519081900360640190fd5b60005b816060015151811015611c86576010600083606001518381518110611b2e57fe5b6020908102919091018101516001600160a01b0390811683528282019390935260409091016000908120805460018181018355918352929091209091018790555460608401518051919092169163a9059cbb9184908110611b8b57fe5b602002602001015160646007546006546064030386608001518681518110611baf57fe5b60200260200101510281611bbf57fe5b046040518363ffffffff1660e01b815260040180836001600160a01b03166001600160a01b0316815260200182815260200192505050602060405180830381600087803b158015611c0f57600080fd5b505af1158015611c23573d6000803e3d6000fd5b505050506040513d6020811015611c3957600080fd5b5051611c7e576040805162461bcd60e51b815260206004820152600f60248201526e2430b9903a37903a3930b739b332b960891b604482015290519081900360640190fd5b600101611b0d565b50600354611c9b90600163ffffffff6132c316565b6003556040820151600454611cb59163ffffffff61326616565b6004556060810151604051815181906020808501910280838360005b83811015611ce9578181015183820152602001611cd1565b50505050905001915050604051809103902083857f2764a4973e9de159354a809146f484fb4f13f7f8d108a4cbce66127098b8769660405160405180910390a450505050565b60035481565b60005461010090046001600160a01b03163314611d5157600080fd5b600580546001600160a01b0319166001600160a01b0392909216919091179055565b60025481565b60045481565b6000828152600f60209081526040808320848452600601909152812060030154815b6000858152600f602052604090206007015460ff82161015611dfa576000858152600f6020908152604080832060ff85168452600601909152902060030154821015611df257600092505050611e01565b600101611da1565b5060019150505b92915050565b60005461010090046001600160a01b03163314611e2357600080fd5b600655565b600c5481565b60005461010090046001600160a01b031681565b611e4a6133dd565b3360009081526011602090815260409182902082516060810184528154815260028201805485518186028101860190965280865291949293858101939290830182828015611ec157602002820191906000526020600020905b81546001600160a01b03168152600190910190602001808311611ea3575b505050505081526020016003820154815250509050611ede6133fe565b506000838152600f60209081526040808320815161010080820184528254825260018301548286015260028301548285015260038301546001600160a01b0316606083015260058301546080830152600783015460a0830152600883015460ff808216151560c085015291900416151560e082015286855260069091019092529091208151611fab576040805162461bcd60e51b8152602060048201526014602482015273125cdcdd5948191bd95cc81b9bdd08195e1a5cdd60621b604482015290519081900360640190fd5b838260a0015111612003576040805162461bcd60e51b815260206004820152601d60248201527f4d657267652050726f706f73616c20646f6573206e6f74206578697374000000604482015290519081900360640190fd5b3360009081526001820160205260409020541561205b576040805162461bcd60e51b815260206004820152601160248201527012185cc8185b1c9958591e481d9bdd1959607a1b604482015290519081900360640190fd5b600061206633610ddb565b600383015490915061207e908263ffffffff6132c316565b6000878152600f60209081526040808320898452600601825280832060038101949094553380845260019094018252918290208490558151848152915188928a927ffd3b653bc5d01de8ac8bc3857b862274c9914a8820abb138052a747aab3d5dde92918290030190a4505050505050565b6000818152600f60205260408120600101544290612117906203f48063ffffffff6132c316565b1092915050565b6000811161215d5760405162461bcd60e51b815260040180806020018281038252602381526020018061357a6023913960400191505060405180910390fd5b600154604080516323b872dd60e01b81523360048201523060248201526044810184905290516001600160a01b03909216916323b872dd916064808201926020929091908290030181600087803b1580156121b757600080fd5b505af11580156121cb573d6000803e3d6000fd5b505050506040513d60208110156121e157600080fd5b5051612226576040805162461bcd60e51b815260206004820152600f60248201526e4e6565647320416c6c6f77616e636560881b604482015290519081900360640190fd5b33600090815260116020526040902060030154156122b657336000908152601160209081526040808320600101909152902054612269908263ffffffff6132c316565b3360009081526011602081815260408084206001810183529320939093559091526003015461229e908263ffffffff6132c316565b3360009081526011602052604090206003015561106b565b33600081815260116020908152604091829020600381018590558251918201909252918252906122ec906002830190600161348f565b50336000818152600192830160205260408120939093556012805492830181559092527fbb8a6a4669ba250d26cd7a459eca9d215f8307e33aebe50379bc5a3617ec34440180546001600160a01b0319169091179055565b6011602052600090815260409020805460039091015482565b612365611397565b156123aa576040805162461bcd60e51b815260206004820152601060248201526f14185d5cd8589b194e881c185d5cd95960821b604482015290519081900360640190fd5b6123b26133fe565b6002805480835260408084018581523360608601818152426020808901918252600060c08a01818152978152600f82528681208a51815592516001808501919091559551838a015592516003830180546001600160a01b0319166001600160a01b0392831617905560808a0151600584015560a08a0151600784015596516008909201805460e08b015160ff199091169315159390931761ff00191661010093151593909302929092179091558282526010815284822096548754808601895597835281832090970196909655915483516323b872dd60e01b8152600481019290925230602483015260448201889052925192909316936323b872dd936064808201949293918390030190829087803b1580156124ce57600080fd5b505af11580156124e2573d6000803e3d6000fd5b505050506040513d60208110156124f857600080fd5b505161253d576040805162461bcd60e51b815260206004820152600f60248201526e4e6565647320416c6c6f77616e636560881b604482015290519081900360640190fd5b600454612550908363ffffffff6132c316565b6004556002805460010190819055604051839133917f6aecdf6df15bd1371e1740df5f88ad1066c22c0506751320acc231234f2c26c590600090a45050565b600b5481565b61259d611397565b156125e2576040805162461bcd60e51b815260206004820152601060248201526f14185d5cd8589b194e881c185d5cd95960821b604482015290519081900360640190fd5b6125ea6133fe565b506000838152600f602090815260409182902082516101008082018552825480835260018401549483019490945260028301549482019490945260038201546001600160a01b0316606082015260058201546080820152600782015460a082015260089091015460ff808216151560c0840152939004909216151560e08301526126b0576040805162461bcd60e51b8152602060048201526012602482015271125cdcdd59481a185cc81d1bc8195e1a5cdd60721b604482015290519081900360640190fd5b60c081015115612700576040805162461bcd60e51b8152602060048201526016602482015275125cdcdd59481a185cc81d1bc81899481bdc195b995960521b604482015290519081900360640190fd5b82518251146127405760405162461bcd60e51b815260040180806020018281038252602581526020018061368c6025913960400191505060405180910390fd5b600c54600154604080516370a0823160e01b81523360048201529051670de0b6b3a7640000909302926001600160a01b03909216916370a0823191602480820192602092909190829003018186803b15801561279b57600080fd5b505afa1580156127af573d6000803e3d6000fd5b505050506040513d60208110156127c557600080fd5b5051116128035760405162461bcd60e51b81526004018080602001828103825260498152602001806135c86049913960600191505060405180910390fd5b61280b613450565b60a0808301518252608082018490526060820185905233908201526007546006546000878152600f60205260408120600201549092606492010204905060005b855181101561298b57600e54670de0b6b3a764000002600160009054906101000a90046001600160a01b03166001600160a01b03166370a0823188848151811061289157fe5b60200260200101516040518263ffffffff1660e01b815260040180826001600160a01b03166001600160a01b0316815260200191505060206040518083038186803b1580156128df57600080fd5b505afa1580156128f3573d6000803e3d6000fd5b505050506040513d602081101561290957600080fd5b5051116129475760405162461bcd60e51b815260040180806020018281038252605a815260200180613632605a913960600191505060405180910390fd5b61298160646007546006546064030387848151811061296257fe5b6020026020010151028161297257fe5b8491900463ffffffff6132c316565b915060010161284b565b506000868152600f602052604090206002015481146129e5576040805162461bcd60e51b81526020600482015260116024820152700a8dee8c2d8e640c8dedce840dac2e8c6d607b1b604482015290519081900360640190fd5b6000868152600f6020908152604080832060a087015184526006018252918290208451815581850151600382015591840151600483015560608401518051859392612a3792600585019291019061348f565b5060808201518051612a539160068401916020909101906134f4565b5060a09190910151600791820180546001600160a01b0319166001600160a01b039092169190911790556000878152600f6020526040808220909201805460010190558351915133929189917f3a9041e1cf9ad999ea58090279700f3cb926fbf3c58ecea9897a40540c02581c9190a4505050505050565b60075481565b600080600080600080600080612ae56133fe565b50505060009687525050600f6020908152604095869020865161010080820189528254808352600184015494830185905260028401549983018a905260038401546001600160a01b031660608401819052600585015460808501819052600786015460a0860181905260089096015460ff808216151560c088018190529590910416151560e0909501859052919b959950975095509193509091565b6000612b9f6064611093600a54600b5461331d90919063ffffffff16565b6000848152600f602090815260408083208684526006019091529020600301541015905092915050565b6001546001600160a01b031681565b60085481565b600e5481565b60065481565b60005461010090046001600160a01b03163314612c0657600080fd5b612c0e611397565b61106b576040805162461bcd60e51b815260206004820152601460248201527314185d5cd8589b194e881b9bdd081c185d5cd95960621b604482015290519081900360640190fd5b6000612c746064611093600954600b5461331d90919063ffffffff16565b6000848152600f602090815260408083208684526006019091529020600401541015905092915050565b60005461010090046001600160a01b03163314612cba57600080fd5b6001600160a01b038116612ccd57600080fd5b600080546040516001600160a01b038085169361010090930416917f8be0079c531659141344cd1fd0a4f28419497f9722a3daafe3b4186f6b6457e091a3600080546001600160a01b0390921661010002610100600160a81b0319909216919091179055565b3360009081526011602052604090206003810154831115612d9b576040805162461bcd60e51b815260206004820152601b60248201527f48617320746f206861766520626570726f20746f20756e6c6f636b0000000000604482015290519081900360640190fd5b6001600160a01b0382166000908152600182016020526040902054831115612e0a576040805162461bcd60e51b815260206004820181905260248201527f46726f6d2068617320746f206861766520626570726f20746f20756e6c6f636b604482015290519081900360640190fd5b6003810154612e1f908463ffffffff61326616565b336000908152601160209081526040808320600301939093556001600160a01b03851682526001840190522054612e5c908463ffffffff61326616565b3360008181526011602090815260408083206001600160a01b03881680855260019091019092529091209290925514612ed2576001600160a01b038216600090815260116020526040902054612eb8908463ffffffff61326616565b6001600160a01b0383166000908152601160205260409020555b6001546040805163a9059cbb60e01b81523360048201526024810186905290516001600160a01b039092169163a9059cbb916044808201926020929091908290030181600087803b158015612f2657600080fd5b505af1158015612f3a573d6000803e3d6000fd5b505050506040513d6020811015612f5057600080fd5b5051612f99576040805162461bcd60e51b81526020600482015260136024820152725472616e73666572206469646e7420776f726b60681b604482015290519081900360640190fd5b600b54612fac908463ffffffff61326616565b50505050565b60095481565b612fc06133dd565b336000908152601160209081526040918290208251606081018452815481526002820180548551818602810186019096528086529194929385810193929083018282801561303757602002820191906000526020600020905b81546001600160a01b03168152600190910190602001808311613019575b5050505050815260200160038201548152505090506130546133fe565b506000838152600f60209081526040808320815161010080820184528254825260018301548286015260028301548285015260038301546001600160a01b0316606083015260058301546080830152600783015460a0830152600883015460ff808216151560c085015291900416151560e082015286855260069091019092529091208151613121576040805162461bcd60e51b8152602060048201526014602482015273125cdcdd5948191bd95cc81b9bdd08195e1a5cdd60621b604482015290519081900360640190fd5b838260a0015111613179576040805162461bcd60e51b815260206004820152601d60248201527f4d657267652050726f706f73616c20646f6573206e6f74206578697374000000604482015290519081900360640190fd5b336000908152600282016020526040902054156131d1576040805162461bcd60e51b815260206004820152601160248201527012185cc8185b1c9958591e481d9bdd1959607a1b604482015290519081900360640190fd5b60006131dc33610ddb565b60048301549091506131f4908263ffffffff6132c316565b6000878152600f60209081526040808320898452600601825280832060048101949094553380845260029094018252918290208490558151848152915188928a927fca6ae470609db3acf375ecc9883dfc54b3f4693d078dd882713eee7ba5d9b69392918290030190a4505050505050565b6000828211156132bd576040805162461bcd60e51b815260206004820152601e60248201527f536166654d6174683a207375627472616374696f6e206f766572666c6f770000604482015290519081900360640190fd5b50900390565b600082820183811015610e11576040805162461bcd60e51b815260206004820152601b60248201527f536166654d6174683a206164646974696f6e206f766572666c6f770000000000604482015290519081900360640190fd5b60008261332c57506000611e01565b8282028284828161333957fe5b0414610e115760405162461bcd60e51b81526004018080602001828103825260218152602001806136116021913960400191505060405180910390fd5b60008082116133cc576040805162461bcd60e51b815260206004820152601a60248201527f536166654d6174683a206469766973696f6e206279207a65726f000000000000604482015290519081900360640190fd5b8183816133d557fe5b049392505050565b60405180606001604052806000815260200160608152602001600081525090565b60405180610100016040528060008152602001600081526020016000815260200160006001600160a01b0316815260200160008152602001600081526020016000151581526020016000151581525090565b6040518060c00160405280600081526020016000815260200160008152602001606081526020016060815260200160006001600160a01b031681525090565b8280548282559060005260206000209081019282156134e4579160200282015b828111156134e457825182546001600160a01b0319166001600160a01b039091161782556020909201916001909101906134af565b506134f092915061353b565b5090565b82805482825590600052602060002090810192821561352f579160200282015b8281111561352f578251825591602001919060010190613514565b506134f092915061355f565b61139e91905b808211156134f05780546001600160a01b0319168155600101613541565b61139e91905b808211156134f0576000815560010161356556fe424550524f20416d6f756e7420697320746f20626520686967686572207468616e203054696d6520666f7220617070726f76696e672068617320746f20626520616c726561647920706173736564546f2070726f706f7365206d6572676573207468652070726f706f7365722068617320746f206265206120436f756e63696c2028434f554e43494c5f424550524f5f414d4f554e5429536166654d6174683a206d756c7469706c69636174696f6e206f766572666c6f77546f207265636569766520646576656c6f706d656e742072657761726473207468652072657761726465642068617320746f206265206120446576656c6f7065722028444556454c4f5045525f424550524f5f414d4f554e5429416d6f756e74732068617320746f20657175616c20616464726573736573206c656e67746854686572652069732061206d657267652070726f706f73616c2077697468206d6f726520766f746573a264697066735822122051019a52e1af4cf40ad08784b9bd00d380b452fab397e54995c9bece345f5a0c64736f6c63430006020033",
  "source": "pragma solidity >=0.6.0;\r\n\r\nimport \"@openzeppelin/contracts/token/ERC20/ERC20.sol\";\r\nimport \"@openzeppelin/contracts/utils/Pausable.sol\";\r\nimport \"../utils/Ownable.sol\";\r\n\r\n\r\n/**\r\n * @dev Interface of the ERC20 standard + mint & burn\r\n */\r\ninterface _IERC20 is IERC20  {\r\n\r\n    /**\r\n    * @dev Mint Function\r\n    */\r\n    function mint(address account, uint256 amount) external;\r\n\r\n    /**\r\n    * @dev Burn Function\r\n    */\r\n    function burn(address account, uint256 amount) external;\r\n\r\n}\r\n\r\n\r\n/**\r\n * @title BEPRO Network Contract\r\n */\r\ncontract BEPRONetwork is Pausable, Ownable{\r\n    using SafeMath for uint256;\r\n\r\n    _IERC20 public beproToken;\r\n\r\n    uint256 constant private year = 365 days;\r\n    uint256 public incrementIssueID = 1;\r\n    uint256 public closedIdsCount = 0;\r\n    uint256 public totalStaked = 0;\r\n    address public feeAddress = 0xCF3C8Be2e2C42331Da80EF210e9B1b307C03d36A;\r\n    uint256 public feeShare = 2; // (%) - Share to go to marketplace manager\r\n    uint256 public mergeCreatorFeeShare = 1; // (%) - Share to go to the merge proposal creator\r\n    uint256 public percentageNeededForApprove = 10; // (%) - Amount needed to approve a PR and distribute the rewards\r\n    uint256 public percentageNeededForDispute = 3; // (%) - Amount needed to approve a PR and distribute the rewards\r\n    uint256 constant public timeOpenForIssueApprove = 3 days;\r\n    uint256 public percentageNeededForMerge = 20; // (%) - Amount needed to approve a PR and distribute the rewards\r\n    uint256 public beproVotesStaked = 0;\r\n\r\n    uint256 public COUNCIL_BEPRO_AMOUNT = 10000000; // 10M\r\n    uint256 public OPERATOR_BEPRO_AMOUNT = 1000000; // 1M\r\n    uint256 public DEVELOPER_BEPRO_AMOUNT = 10000; // 10k\r\n\r\n    mapping(uint256 => Issue) public issues; /* Distribution object */\r\n    mapping(address => uint256[]) public myIssues; /* Address Based Subcription */\r\n\r\n    mapping(address => Voter) public voters; \r\n    address[] public votersArray; \r\n\r\n\r\n    struct MergeProposal {\r\n        uint256 _id;\r\n        mapping(address => uint256) votesForMergeByAddress; // Address -> Votes for that merge\r\n        mapping(address => uint256) disputesForMergeByAddress; // Address -> Votes for that merge\r\n        uint256 votes; // Amount of votes set\r\n        uint256 disputes; // Amount of votes set\r\n        address[] prAddresses;\r\n        uint256[] prAmounts;\r\n        address proposalAddress;\r\n    }\r\n\r\n    struct Issue {\r\n        uint256 _id;\r\n        uint256 creationDate;\r\n        uint256 beproStaked;\r\n        address issueGenerator;\r\n        mapping(address => uint256) votesForApproveByAddress;\r\n        uint256 votesForApprove;\r\n        mapping(uint256 => MergeProposal) mergeProposals; // Id -> Merge Proposal\r\n        uint256 mergeIDIncrement;\r\n        bool finalized;\r\n        bool canceled;\r\n    }\r\n\r\n    struct Voter {\r\n        uint256 votesDelegatedByOthers;\r\n        mapping(address => uint256) votesDelegated;\r\n        address[] delegatedVotesAddresses;\r\n        uint256 beproLocked;\r\n    }\r\n\r\n    event OpenIssue(uint256 indexed id, address indexed opener, uint256 indexed amount);\r\n    event ApproveIssue(uint256 indexed id, uint256 indexed votes, address indexed approver);\r\n    event MergeProposalCreated(uint256 indexed id, uint256 indexed mergeID, address indexed creator);\r\n    event DisputeMerge(uint256 indexed id, uint256 indexed mergeID, uint256 votes, address indexed disputer);\r\n    event ApproveMerge(uint256 indexed id, uint256 indexed mergeID, uint256 votes, address indexed approver);\r\n    event CloseIssue(uint256 indexed id, uint256 indexed mergeID, address[] indexed addresses);\r\n\r\n    constructor(address _tokenAddress) public { \r\n        beproToken = _IERC20(_tokenAddress);\r\n    }\r\n\r\n    function lockBepro(uint256 _beproAmount) public {\r\n        require(_beproAmount > 0, \"BEPRO Amount is to be higher than 0\");\r\n        require(beproToken.transferFrom(msg.sender, address(this), _beproAmount), \"Needs Allowance\");\r\n\r\n        if(voters[msg.sender].beproLocked != 0){\r\n            // Exists\r\n            voters[msg.sender].votesDelegated[msg.sender] = voters[msg.sender].votesDelegated[msg.sender].add(_beproAmount);\r\n            voters[msg.sender].beproLocked = voters[msg.sender].beproLocked.add(_beproAmount);\r\n        }else{\r\n            // Does not exist\r\n            Voter storage voter = voters[msg.sender];\r\n            voter.beproLocked = _beproAmount;\r\n            voter.delegatedVotesAddresses = [msg.sender];\r\n            voter.votesDelegated[msg.sender] = _beproAmount;\r\n            votersArray.push(msg.sender);\r\n        }\r\n    }\r\n\r\n    function unlockBepro(uint256 _beproAmount, address _from) public {\r\n        Voter storage voter = voters[msg.sender];\r\n        require(voter.beproLocked >= _beproAmount, \"Has to have bepro to unlock\");\r\n        require(voter.votesDelegated[_from] >= _beproAmount, \"From has to have bepro to unlock\");\r\n\r\n        voters[msg.sender].beproLocked = voter.beproLocked.sub(_beproAmount);\r\n        voters[msg.sender].votesDelegated[_from] = voter.votesDelegated[_from].sub(_beproAmount);\r\n        if(msg.sender != _from){\r\n            voters[_from].votesDelegatedByOthers = voters[_from].votesDelegatedByOthers.sub(_beproAmount);\r\n        }\r\n\r\n        require(beproToken.transfer(msg.sender, _beproAmount), \"Transfer didnt work\");\r\n        beproVotesStaked.sub(_beproAmount);\r\n    }\r\n\r\n    function delegateOracles(uint256 _beproAmount, address _delegatedTo) internal {\r\n        Voter storage voter = voters[msg.sender];\r\n\r\n        require(_delegatedTo != address(0), \"Cannot transfer to the zero address\");\r\n        require(_delegatedTo != msg.sender, \"Cannot transfer to itself\");\r\n\r\n        require(voter.beproLocked >= _beproAmount, \"Has to have bepro to unlock\");\r\n        require(voter.votesDelegated[msg.sender] >= _beproAmount, \"From has to have bepro to unlock\");\r\n\r\n        voters[msg.sender].votesDelegated[msg.sender] = voter.votesDelegated[msg.sender].sub(_beproAmount);\r\n        voters[msg.sender].votesDelegated[_delegatedTo] = voter.votesDelegated[_delegatedTo].add(_beproAmount);\r\n\r\n        require(voters[_delegatedTo].beproLocked != uint256(0), \"Delegated to has to have voted already\");\r\n        voters[_delegatedTo].votesDelegatedByOthers = voters[_delegatedTo].votesDelegatedByOthers.add(_beproAmount);\r\n    }\r\n\r\n    function approveIssue(uint256 _issueID) public {\r\n        Voter memory voter = voters[msg.sender];\r\n        Issue memory issue = issues[_issueID];\r\n        require(issue._id != 0, \"Issue does not exist\");\r\n        require(isIssueApprovable(_issueID));\r\n        require(issues[_issueID].votesForApproveByAddress[msg.sender] == 0, \"Has already voted\");\r\n\r\n        uint256 votesToAdd = getVotesByAddress(msg.sender);\r\n        issues[_issueID].votesForApprove = issues[_issueID].votesForApprove.add(votesToAdd);\r\n        issues[_issueID].votesForApproveByAddress[msg.sender] = votesToAdd;\r\n\r\n        emit ApproveIssue(_issueID, votesToAdd, msg.sender);\r\n    }\r\n\r\n    function approveMerge(uint256 _issueID, uint256 _mergeID) public {\r\n        Voter memory voter = voters[msg.sender];\r\n        Issue memory issue = issues[_issueID];\r\n        MergeProposal storage merge = issues[_issueID].mergeProposals[_mergeID];\r\n        require(issue._id != 0, \"Issue does not exist\");\r\n        require(issue.mergeIDIncrement >  _mergeID, \"Merge Proposal does not exist\");\r\n        require(merge.votesForMergeByAddress[msg.sender] == 0, \"Has already voted\");\r\n\r\n        uint256 votesToAdd = getVotesByAddress(msg.sender);\r\n        \r\n        issues[_issueID].mergeProposals[_mergeID].votes = merge.votes.add(votesToAdd);\r\n        issues[_issueID].mergeProposals[_mergeID].votesForMergeByAddress[msg.sender] = votesToAdd;\r\n        \r\n        emit ApproveMerge(_issueID, _mergeID, votesToAdd, msg.sender);\r\n    }\r\n\r\n    function disputeMerge(uint256 _issueID, uint256 _mergeID) public {\r\n        Voter memory voter = voters[msg.sender];\r\n        Issue memory issue = issues[_issueID];\r\n        MergeProposal storage merge = issues[_issueID].mergeProposals[_mergeID];\r\n        require(issue._id != 0, \"Issue does not exist\");\r\n        require(issue.mergeIDIncrement >  _mergeID, \"Merge Proposal does not exist\");\r\n        require(merge.disputesForMergeByAddress[msg.sender] == 0, \"Has already voted\");\r\n\r\n        uint256 votesToAdd = getVotesByAddress(msg.sender);\r\n        \r\n        issues[_issueID].mergeProposals[_mergeID].disputes = merge.disputes.add(votesToAdd);\r\n        issues[_issueID].mergeProposals[_mergeID].disputesForMergeByAddress[msg.sender] = votesToAdd;\r\n        \r\n        emit DisputeMerge(_issueID, _mergeID, votesToAdd, msg.sender);\r\n    }\r\n\r\n    function isIssueApprovable(uint256 _issueID) public returns (bool){\r\n        // Only if in the open window\r\n        return (issues[_issueID].creationDate.add(timeOpenForIssueApprove) < block.timestamp);\r\n    }\r\n\r\n    function isIssueApproved(uint256 _issueID) public returns (bool) {\r\n        return (issues[_issueID].votesForApprove >= beproVotesStaked.mul(percentageNeededForApprove).div(100));\r\n    }\r\n\r\n    function isMergeDisputed(uint256 _issueID, uint256 _mergeID) public returns (bool) {\r\n        return (issues[_issueID].mergeProposals[_mergeID].disputes >= beproVotesStaked.mul(percentageNeededForDispute).div(100));\r\n    }\r\n\r\n    function isMergeApproved(uint256 _issueID, uint256 _mergeID) public returns (bool) {\r\n        return (issues[_issueID].mergeProposals[_mergeID].votes >= beproVotesStaked.mul(percentageNeededForMerge).div(100));\r\n    }\r\n    \r\n    function isMergeTheOneWithMoreVotes(uint256 _issueID, uint256 _mergeID) public returns (bool) {\r\n        uint256 thisMergeVotes = issues[_issueID].mergeProposals[_mergeID].votes;\r\n        for(uint8 i = 0; i < issues[_issueID].mergeIDIncrement; i++){\r\n            if(issues[_issueID].mergeProposals[i].votes > thisMergeVotes){\r\n                return false;\r\n            }\r\n        }\r\n        return true;\r\n    }\r\n\r\n    /**\r\n     * @dev open an Issue with bepro owned\r\n     * 1st step\r\n     */\r\n    function openIssue(uint256 _beproAmount) public whenNotPaused {\r\n        // Open Issue\r\n        Issue memory issue;\r\n        issue._id = incrementIssueID;\r\n        issue.beproStaked = _beproAmount;\r\n        issue.issueGenerator = msg.sender;\r\n        issue.creationDate = block.timestamp;\r\n        issue.finalized = false;\r\n        issues[incrementIssueID] = issue;\r\n        myIssues[msg.sender].push(incrementIssueID);\r\n        // Stake bepro\r\n        require(beproToken.transferFrom(msg.sender, address(this), _beproAmount), \"Needs Allowance\");\r\n        totalStaked = totalStaked.add(_beproAmount);\r\n        incrementIssueID = incrementIssueID + 1;\r\n        emit OpenIssue(incrementIssueID, msg.sender, _beproAmount);\r\n    }\r\n\r\n    function redeemIssue(uint256 _issueId) public whenNotPaused {\r\n        require(issues[_issueId].issueGenerator == msg.sender, \"Has to be the issue creator\");\r\n        require(!isIssueApproved(_issueId), \"Issue has to not be approved\");\r\n        require(!isIssueApprovable(_issueId), \"Time for approving has to be already passed\");\r\n        issues[_issueId].finalized = true;\r\n        issues[_issueId].canceled = true;\r\n        require(beproToken.transfer(msg.sender, issues[_issueId].beproStaked), \"Transfer not sucessful\");\r\n    }\r\n\r\n\r\n\r\n    /**\r\n     * @dev update an Issue with bepro owned\r\n     * 2nd step  (optional)\r\n     */\r\n    function updateIssue(uint256 _issueId, uint256 _newbeproAmount) public whenNotPaused {\r\n        require(issues[_issueId].beproStaked != 0, \"Issue has to exist\");\r\n        require(issues[_issueId].issueGenerator == msg.sender, \"Has to be the issue creator\");\r\n        require(!isIssueApproved(_issueId), \"Issue is already Approved\");\r\n\r\n        uint256 previousAmount = issues[_issueId].beproStaked;\r\n        // Update Issue\r\n        issues[_issueId].beproStaked = _newbeproAmount;\r\n        // Stake bepro\r\n        if(_newbeproAmount > previousAmount){\r\n            require(beproToken.transferFrom(msg.sender, address(this), _newbeproAmount.sub(previousAmount)), \"Needs Allowance\");\r\n            totalStaked = totalStaked.add(_newbeproAmount.sub(previousAmount));\r\n        }else{\r\n            require(beproToken.transfer(msg.sender, previousAmount.sub(_newbeproAmount)), \"Transfer not sucessful\");\r\n            totalStaked = totalStaked.sub(previousAmount.sub(_newbeproAmount));\r\n        }\r\n    }\r\n\r\n  /**\r\n     * @dev Owner finalizes the issue and distributes the bepro or rejects the PR\r\n     * @param _issueID issue id (mapping with github)\r\n     * @param _prAddresses PR Address\r\n     * @param _prAmounts PR Amounts\r\n     */\r\n    function proposeIssueMerge(uint256 _issueID, address[] memory _prAddresses, uint256[] memory _prAmounts) public whenNotPaused {\r\n        \r\n        Issue memory issue = issues[_issueID];\r\n        require(issue._id != 0 , \"Issue has to exist\");\r\n        require(issue.finalized == false, \"Issue has to be opened\");\r\n        require(_prAmounts.length == _prAddresses.length, \"Amounts has to equal addresses length\");\r\n        require(beproToken.balanceOf(msg.sender) > COUNCIL_BEPRO_AMOUNT*10**18, \"To propose merges the proposer has to be a Council (COUNCIL_BEPRO_AMOUNT)\");\r\n\r\n        MergeProposal memory mergeProposal;\r\n        mergeProposal._id = issue.mergeIDIncrement;\r\n        mergeProposal.prAmounts = _prAmounts;\r\n        mergeProposal.prAddresses = _prAddresses;\r\n        mergeProposal.proposalAddress = msg.sender;\r\n\r\n        uint256 total = ((issues[_issueID].beproStaked * (feeShare + mergeCreatorFeeShare)) / 100); // Fee + Merge Creator Fee + 0\r\n\r\n        for(uint i = 0; i < _prAddresses.length; i++){\r\n            require(beproToken.balanceOf(_prAddresses[i]) > DEVELOPER_BEPRO_AMOUNT*10**18, \"To receive development rewards the rewarded has to be a Developer (DEVELOPER_BEPRO_AMOUNT)\");\r\n            total = total.add((_prAmounts[i] * (100-feeShare-mergeCreatorFeeShare)) / 100);\r\n        }\r\n\r\n        require(total == issues[_issueID].beproStaked, \"Totals dont match\");\r\n\r\n        issues[_issueID].mergeProposals[issue.mergeIDIncrement] = mergeProposal;\r\n        issues[_issueID].mergeIDIncrement = issues[_issueID].mergeIDIncrement + 1;\r\n        emit MergeProposalCreated(_issueID, mergeProposal._id, msg.sender);\r\n    }\r\n\r\n\r\n\r\n    /**\r\n     * @dev Owner finalizes the issue and distributes the bepro or rejects the PR\r\n     * @param _issueID issue id (mapping with github)\r\n     * @param _mergeID merge id \r\n     */\r\n    function closeIssue(uint256 _issueID, uint256 _mergeID) public whenNotPaused {\r\n        Issue memory issue = issues[_issueID];\r\n        require(issue._id != 0 , \"Issue has to exist\");\r\n        require(issue.finalized == false, \"Issue has to be opened\");\r\n        require(issue.mergeIDIncrement >  _mergeID, \"Merge Proposal does not exist\");\r\n        require(isMergeApproved(_issueID, _mergeID), \"Issue has to have passed voting\");\r\n        require(!isMergeDisputed(_issueID, _mergeID), \"Merge has been disputed\");\r\n        require(isMergeTheOneWithMoreVotes(_issueID, _mergeID), \"There is a merge proposal with more votes\");\r\n\r\n        // Closes the issue\r\n        issues[_issueID].finalized = true;\r\n        MergeProposal memory merge = issues[_issueID].mergeProposals[_mergeID];\r\n\r\n        // Fee Transfer\r\n        require(beproToken.transfer(feeAddress, (issues[_issueID].beproStaked * feeShare) / 100), \"Has to transfer\");\r\n\r\n        // Merge Creator Transfer\r\n        require(beproToken.transfer(feeAddress, (issues[_issueID].beproStaked * mergeCreatorFeeShare) / 100), \"Has to transfer\");\r\n        \r\n        // Generate Reputation Tokens\r\n        for(uint i = 0; i < merge.prAddresses.length; i++){\r\n            myIssues[merge.prAddresses[i]].push(_issueID);\r\n            require(beproToken.transfer(merge.prAddresses[i], (merge.prAmounts[i] * (100-feeShare-mergeCreatorFeeShare)) / 100), \"Has to transfer\");\r\n        }\r\n\r\n        closedIdsCount = closedIdsCount.add(1);\r\n        totalStaked = totalStaked.sub(issue.beproStaked);\r\n        emit CloseIssue(_issueID, _mergeID, merge.prAddresses);\r\n    }\r\n\r\n    function getIssuesByAddress(address _address) public returns (uint256[] memory){\r\n        return myIssues[_address];\r\n    }\r\n\r\n    function getVotesByAddress(address _address) public returns (uint256){\r\n        Voter storage voter = voters[_address];\r\n        return voter.votesDelegatedByOthers.add(voter.votesDelegated[_address]);\r\n    }\r\n    \r\n    function getIssueById(uint256 _issueID) public returns (uint256, uint256, uint256, address, uint256, uint256, bool, bool){\r\n        Issue memory issue = issues[_issueID];\r\n        return (issue._id, issue.beproStaked, issue.creationDate, issue.issueGenerator, issue.votesForApprove, issue.mergeIDIncrement, issue.finalized, issue.canceled);\r\n    }\r\n\r\n    function getMergeById(uint256 _issueID, uint256 _mergeId) public returns (uint256, uint256, uint256, address[] memory, uint256[] memory, address){\r\n        MergeProposal memory merge = issues[_issueID].mergeProposals[_mergeId];\r\n        return (merge._id, merge.votes, merge.disputes, merge.prAddresses, merge.prAmounts, merge.proposalAddress);\r\n    }\r\n\r\n    /**\r\n     * @dev Change BEPRO Token Address (Upgrade)\r\n     */\r\n    function changeBEPROAddress(address _newAddress) public onlyOwner {\r\n        beproToken = _IERC20(_newAddress);\r\n    }\r\n\r\n    /**\r\n     * @dev Change Fee Address\r\n    */\r\n    function editFeeAddress(address _newAddress) public onlyOwner {\r\n        feeAddress = _newAddress;\r\n    }\r\n\r\n    /**\r\n     * @dev Change Share Fee Amount\r\n    */\r\n    function editFeeShare(uint256 _feeShare) public onlyOwner {\r\n        feeShare = _feeShare;\r\n    }\r\n\r\n    /**\r\n     * @dev Upgrade Contract Version\r\n     */\r\n    function upgradeContract(address _newContract) public onlyOwner whenPaused {\r\n        //To be done\r\n    }\r\n}\r\n",
  "sourcePath": "C:/Users/user/Desktop/sgoia.bepronetwork.bepro-js/contracts/bepro/Network.sol",
  "compiler": {
    "name": "solc",
    "version": "0.6.2+commit.bacdbe57.Emscripten.clang"
  },
  "schemaVersion": "3.0.20",
  "updatedAt": "2021-05-25T23:28:00.955Z",
  "devdoc": {
    "methods": {
      "changeBEPROAddress(address)": {
        "details": "Change BEPRO Token Address (Upgrade)"
      },
      "closeIssue(uint256,uint256)": {
        "details": "Owner finalizes the issue and distributes the bepro or rejects the PR",
        "params": {
          "_issueID": "issue id (mapping with github)",
          "_mergeID": "merge id "
        }
      },
      "editFeeAddress(address)": {
        "details": "Change Fee Address"
      },
      "editFeeShare(uint256)": {
        "details": "Change Share Fee Amount"
      },
      "openIssue(uint256)": {
        "details": "open an Issue with bepro owned 1st step"
      },
      "paused()": {
        "details": "Returns true if the contract is paused, and false otherwise."
      },
      "proposeIssueMerge(uint256,address[],uint256[])": {
        "details": "Owner finalizes the issue and distributes the bepro or rejects the PR",
        "params": {
          "_issueID": "issue id (mapping with github)",
          "_prAddresses": "PR Address",
          "_prAmounts": "PR Amounts"
        }
      },
      "transferOwnership(address)": {
        "details": "Allows the current owner to transfer control of the contract to a newOwner.",
        "params": {
          "newOwner": "The address to transfer ownership to."
        }
      },
      "updateIssue(uint256,uint256)": {
        "details": "update an Issue with bepro owned 2nd step  (optional)"
      },
      "upgradeContract(address)": {
        "details": "Upgrade Contract Version"
      }
    },
    "title": "BEPRO Network Contract"
  },
  "userdoc": {
    "methods": {}
  }
}