{
  "contractName": "ERC20TokenLock",
  "abi": [
    {
      "inputs": [
        {
          "internalType": "address",
          "name": "_erc20TokenAddress",
          "type": "address"
        }
      ],
      "stateMutability": "nonpayable",
      "type": "constructor"
    },
    {
      "anonymous": false,
      "inputs": [
        {
          "indexed": false,
          "internalType": "address",
          "name": "admin",
          "type": "address"
        },
        {
          "indexed": false,
          "internalType": "uint256",
          "name": "oldValue",
          "type": "uint256"
        },
        {
          "indexed": false,
          "internalType": "uint256",
          "name": "newValue",
          "type": "uint256"
        }
      ],
      "name": "MaxAmountToLockChanged",
      "type": "event"
    },
    {
      "anonymous": false,
      "inputs": [
        {
          "indexed": false,
          "internalType": "address",
          "name": "admin",
          "type": "address"
        },
        {
          "indexed": false,
          "internalType": "uint256",
          "name": "oldValue",
          "type": "uint256"
        },
        {
          "indexed": false,
          "internalType": "uint256",
          "name": "newValue",
          "type": "uint256"
        }
      ],
      "name": "MinAmountToLockChanged",
      "type": "event"
    },
    {
      "anonymous": false,
      "inputs": [
        {
          "indexed": true,
          "internalType": "address",
          "name": "previousOwner",
          "type": "address"
        },
        {
          "indexed": true,
          "internalType": "address",
          "name": "newOwner",
          "type": "address"
        }
      ],
      "name": "OwnershipTransferred",
      "type": "event"
    },
    {
      "anonymous": false,
      "inputs": [
        {
          "indexed": false,
          "internalType": "address",
          "name": "account",
          "type": "address"
        }
      ],
      "name": "Paused",
      "type": "event"
    },
    {
      "anonymous": false,
      "inputs": [
        {
          "indexed": false,
          "internalType": "address",
          "name": "user",
          "type": "address"
        },
        {
          "indexed": false,
          "internalType": "uint256",
          "name": "amount",
          "type": "uint256"
        },
        {
          "indexed": false,
          "internalType": "uint256",
          "name": "startDate",
          "type": "uint256"
        },
        {
          "indexed": false,
          "internalType": "uint256",
          "name": "endDate",
          "type": "uint256"
        }
      ],
      "name": "TokensLocked",
      "type": "event"
    },
    {
      "anonymous": false,
      "inputs": [
        {
          "indexed": false,
          "internalType": "address",
          "name": "user",
          "type": "address"
        },
        {
          "indexed": false,
          "internalType": "uint256",
          "name": "amount",
          "type": "uint256"
        },
        {
          "indexed": false,
          "internalType": "uint256",
          "name": "withdrawDate",
          "type": "uint256"
        }
      ],
      "name": "TokensReleased",
      "type": "event"
    },
    {
      "anonymous": false,
      "inputs": [
        {
          "indexed": false,
          "internalType": "address",
          "name": "account",
          "type": "address"
        }
      ],
      "name": "Unpaused",
      "type": "event"
    },
    {
      "inputs": [],
      "name": "erc20",
      "outputs": [
        {
          "internalType": "contract IERC20",
          "name": "",
          "type": "address"
        }
      ],
      "stateMutability": "view",
      "type": "function"
    },
    {
      "inputs": [
        {
          "internalType": "address",
          "name": "",
          "type": "address"
        }
      ],
      "name": "lockedTokensMap",
      "outputs": [
        {
          "internalType": "uint256",
          "name": "startDate",
          "type": "uint256"
        },
        {
          "internalType": "uint256",
          "name": "endDate",
          "type": "uint256"
        },
        {
          "internalType": "uint256",
          "name": "amount",
          "type": "uint256"
        }
      ],
      "stateMutability": "view",
      "type": "function"
    },
    {
      "inputs": [],
      "name": "maxAmountToLock",
      "outputs": [
        {
          "internalType": "uint256",
          "name": "",
          "type": "uint256"
        }
      ],
      "stateMutability": "view",
      "type": "function"
    },
    {
      "inputs": [],
      "name": "minAmountToLock",
      "outputs": [
        {
          "internalType": "uint256",
          "name": "",
          "type": "uint256"
        }
      ],
      "stateMutability": "view",
      "type": "function"
    },
    {
      "inputs": [],
      "name": "owner",
      "outputs": [
        {
          "internalType": "address",
          "name": "",
          "type": "address"
        }
      ],
      "stateMutability": "view",
      "type": "function"
    },
    {
      "inputs": [],
      "name": "paused",
      "outputs": [
        {
          "internalType": "bool",
          "name": "",
          "type": "bool"
        }
      ],
      "stateMutability": "view",
      "type": "function"
    },
    {
      "inputs": [],
      "name": "totalAmountStaked",
      "outputs": [
        {
          "internalType": "uint256",
          "name": "",
          "type": "uint256"
        }
      ],
      "stateMutability": "view",
      "type": "function"
    },
    {
      "inputs": [
        {
          "internalType": "address",
          "name": "newOwner",
          "type": "address"
        }
      ],
      "name": "transferOwnership",
      "outputs": [],
      "stateMutability": "nonpayable",
      "type": "function"
    },
    {
      "inputs": [],
      "name": "admin",
      "outputs": [
        {
          "internalType": "address",
          "name": "",
          "type": "address"
        }
      ],
      "stateMutability": "view",
      "type": "function"
    },
    {
      "inputs": [
        {
          "internalType": "uint256",
          "name": "tokenAmount",
          "type": "uint256"
        }
      ],
      "name": "setMaxAmountToLock",
      "outputs": [
        {
          "internalType": "bool",
          "name": "",
          "type": "bool"
        }
      ],
      "stateMutability": "nonpayable",
      "type": "function"
    },
    {
      "inputs": [
        {
          "internalType": "uint256",
          "name": "tokenAmount",
          "type": "uint256"
        }
      ],
      "name": "setMinAmountToLock",
      "outputs": [
        {
          "internalType": "bool",
          "name": "",
          "type": "bool"
        }
      ],
      "stateMutability": "nonpayable",
      "type": "function"
    },
    {
      "inputs": [
        {
          "internalType": "uint256",
          "name": "amount",
          "type": "uint256"
        },
        {
          "internalType": "uint256",
          "name": "endDate",
          "type": "uint256"
        }
      ],
      "name": "lock",
      "outputs": [
        {
          "internalType": "bool",
          "name": "",
          "type": "bool"
        }
      ],
      "stateMutability": "nonpayable",
      "type": "function"
    },
    {
      "inputs": [],
      "name": "release",
      "outputs": [
        {
          "internalType": "bool",
          "name": "",
          "type": "bool"
        }
      ],
      "stateMutability": "nonpayable",
      "type": "function"
    },
    {
      "inputs": [
        {
          "internalType": "address",
          "name": "user",
          "type": "address"
        }
      ],
      "name": "canRelease",
      "outputs": [
        {
          "internalType": "bool",
          "name": "",
          "type": "bool"
        }
      ],
      "stateMutability": "view",
      "type": "function"
    },
    {
      "inputs": [
        {
          "internalType": "address",
          "name": "user",
          "type": "address"
        }
      ],
      "name": "getLockedTokens",
      "outputs": [
        {
          "internalType": "uint256",
          "name": "",
          "type": "uint256"
        }
      ],
      "stateMutability": "view",
      "type": "function"
    },
    {
      "inputs": [
        {
          "internalType": "address",
          "name": "user",
          "type": "address"
        }
      ],
      "name": "getLockedTokensInfo",
      "outputs": [
        {
          "internalType": "uint256",
          "name": "startDate",
          "type": "uint256"
        },
        {
          "internalType": "uint256",
          "name": "endDate",
          "type": "uint256"
        },
        {
          "internalType": "uint256",
          "name": "amount",
          "type": "uint256"
        }
      ],
      "stateMutability": "view",
      "type": "function"
    }
  ],
  "bytecode": "0x608060405260006002556000600355600060045534801561001f57600080fd5b50604051610d71380380610d718339818101604052602081101561004257600080fd5b5051600080546001600160a81b0319166101003302178155600180546001600160a01b0319166001600160a01b0390931692909217909155610ce790819061008a90396000f3fe608060405234801561001057600080fd5b50600436106101005760003560e01c806386d1a69f11610097578063f2fde38b11610066578063f2fde38b14610264578063f3e49d961461028c578063f851a440146102b2578063fe961f61146102ba57610100565b806386d1a69f1461022f5780638da5cb5b14610237578063e959824f1461023f578063f2682c041461025c57610100565b80636dfe789a116100d35780636dfe789a14610199578063785e9e86146101bf57806380506457146101e357806380acddbd146101eb57610100565b80631338736f146101055780635c975abb1461013c5780636b2d95d4146101445780636c53e4fe1461017c575b600080fd5b6101286004803603604081101561011b57600080fd5b50803590602001356102c2565b604080519115158252519081900360200190f35b6101286105fa565b61016a6004803603602081101561015a57600080fd5b50356001600160a01b0316610603565b60408051918252519081900360200190f35b6101286004803603602081101561019257600080fd5b5035610621565b610128600480360360208110156101af57600080fd5b50356001600160a01b031661073d565b6101c761075e565b604080516001600160a01b039092168252519081900360200190f35b61016a61076d565b6102116004803603602081101561020157600080fd5b50356001600160a01b0316610773565b60408051938452602084019290925282820152519081900360600190f35b6101286107c8565b6101c76109cc565b6101286004803603602081101561025557600080fd5b50356109e0565b61016a610afc565b61028a6004803603602081101561027a57600080fd5b50356001600160a01b0316610b02565b005b610211600480360360208110156102a257600080fd5b50356001600160a01b0316610b97565b6101c7610bb8565b61016a610bcc565b60006102cc6105fa565b15610311576040805162461bcd60e51b815260206004820152601060248201526f14185d5cd8589b194e881c185d5cd95960821b604482015290519081900360640190fd5b60008311801561032357506003548310155b801561033157506002548311155b610379576040805162461bcd60e51b8152602060048201526014602482015273125b9d985b1a59081d1bdad95b88185b5bdd5b9d60621b604482015290519081900360640190fd5b4282116103c0576040805162461bcd60e51b815260206004820152601060248201526f496e76616c696420656e64206461746560801b604482015290519081900360640190fd5b33600090815260056020526040902060020154156103da57fe5b60015460408051636eb1769f60e11b8152336004820152306024820152905185926001600160a01b03169163dd62ed3e916044808301926020929190829003018186803b15801561042a57600080fd5b505afa15801561043e573d6000803e3d6000fd5b505050506040513d602081101561045457600080fd5b505110156104a9576040805162461bcd60e51b815260206004820152601a60248201527f4e6f7420656e6f75676820746f6b656e7320617070726f766564000000000000604482015290519081900360640190fd5b600154604080516323b872dd60e01b81523360048201523060248201526044810186905290516001600160a01b03909216916323b872dd916064808201926020929091908290030181600087803b15801561050357600080fd5b505af1158015610517573d6000803e3d6000fd5b505050506040513d602081101561052d57600080fd5b5051610576576040805162461bcd60e51b81526020600482015260136024820152721d1c985b9cd9995c919c9bdb4819985a5b1959606a1b604482015290519081900360640190fd5b336000908152600560205260409020428155600181018390556002018390556004546105a8908463ffffffff610bd216565b600455604080513381526020810185905242818301526060810184905290517f90e20a62e0f2a608d33bd96a4e15cb853006a15caf4455f373b7b55de520b68c9181900360800190a150600192915050565b60005460ff1690565b6001600160a01b031660009081526005602052604090206002015490565b6000805461010090046001600160a01b0316331461063e57600080fd5b600354821415610695576040805162461bcd60e51b815260206004820152601f60248201527f446966666572656e7420746f6b656e20616d6f756e7420726571756972656400604482015290519081900360640190fd5b6002548211156106ec576040805162461bcd60e51b815260206004820152601b60248201527f3c3d206d6178416d6f756e74546f4c6f636b2072657175697265640000000000604482015290519081900360640190fd5b6003805490839055604080513381526020810183905280820185905290517f26cd3240aacd6d90dacd3d7c64ba6c98a2cd3e7fcf7f7251a8b11cde59b283c59181900360600190a150600192915050565b6001600160a01b031660009081526005602052604090206001015442101590565b6001546001600160a01b031681565b60035481565b6000806000610780610c90565b505050506001600160a01b0316600090815260056020908152604091829020825160608101845281548082526001830154938201849052600290920154930183905292909190565b3360009081526005602052604081206002015461082c576040805162461bcd60e51b815260206004820152601960248201527f7573657220686173206e6f206c6f636b656420746f6b656e7300000000000000604482015290519081900360640190fd5b33600090815260056020526040902060010154421015610893576040805162461bcd60e51b815260206004820152601f60248201527f746f6b656e732072656c656173652064617465206e6f74207265616368656400604482015290519081900360640190fd5b33600090815260056020526040812060020180549190556004546108bd908263ffffffff610c3316565b60049081556001546040805163a9059cbb60e01b8152339381019390935260248301849052516001600160a01b039091169163a9059cbb9160448083019260209291908290030181600087803b15801561091657600080fd5b505af115801561092a573d6000803e3d6000fd5b505050506040513d602081101561094057600080fd5b5051610985576040805162461bcd60e51b815260206004820152600f60248201526e1d1c985b9cd9995c8819985a5b1959608a1b604482015290519081900360640190fd5b6040805133815260208101839052428183015290517fc5c52c2a9175470464d5ea4429889e7df2ea88630a3d32f4d0d3d2d4486562109181900360600190a1600191505090565b60005461010090046001600160a01b031681565b6000805461010090046001600160a01b031633146109fd57600080fd5b600254821415610a54576040805162461bcd60e51b815260206004820152601f60248201527f446966666572656e7420746f6b656e20616d6f756e7420726571756972656400604482015290519081900360640190fd5b600354821015610aab576040805162461bcd60e51b815260206004820152601b60248201527f3e3d206d696e416d6f756e74546f4c6f636b2072657175697265640000000000604482015290519081900360640190fd5b6002805490839055604080513381526020810183905280820185905290517fa681f7266a89baea6aef96b2e31932f3746d3a6995846958e3de4279d9f41da49181900360600190a150600192915050565b60025481565b60005461010090046001600160a01b03163314610b1e57600080fd5b6001600160a01b038116610b3157600080fd5b600080546040516001600160a01b038085169361010090930416917f8be0079c531659141344cd1fd0a4f28419497f9722a3daafe3b4186f6b6457e091a3600080546001600160a01b0390921661010002610100600160a81b0319909216919091179055565b60056020526000908152604090208054600182015460029092015490919083565b60005461010090046001600160a01b031690565b60045481565b600082820183811015610c2c576040805162461bcd60e51b815260206004820152601b60248201527f536166654d6174683a206164646974696f6e206f766572666c6f770000000000604482015290519081900360640190fd5b9392505050565b600082821115610c8a576040805162461bcd60e51b815260206004820152601e60248201527f536166654d6174683a207375627472616374696f6e206f766572666c6f770000604482015290519081900360640190fd5b50900390565b6040518060600160405280600081526020016000815260200160008152509056fea2646970667358221220e2e0099cbe9bfaa1e23da2d3633300329a788af2fda0d9d0e559c1886bfb3c3264736f6c63430006020033",
  "source": "// SPDX-License-Identifier: MIT\n\npragma solidity >=0.6.0;\n\nimport \"@openzeppelin/contracts/token/ERC20/IERC20.sol\";\nimport \"@openzeppelin/contracts/utils/Pausable.sol\";\nimport \"@openzeppelin/contracts/math/SafeMath.sol\";\nimport \"./utils/Ownable.sol\";\n\ncontract ERC20TokenLock is Pausable, Ownable {\n    using SafeMath for uint256;\n\t\n\tIERC20 public erc20; //address of ERC20 token being held/locked by this contract\n\t\n\tuint256 public maxAmountToLock = 0; //max amount of tokens to lock per user\n\t\n\tuint256 public minAmountToLock = 0; //min amount of tokens to lock per user\n\t\n\tuint256 public totalAmountStaked = 0; //total tokens locked in contract\n\t\n\tmapping (address => lockedTokensInfo) public lockedTokensMap; //locked tokens map for all users\n\t\n    struct lockedTokensInfo {\n        uint256 startDate; //block.timestamp\n        uint256 endDate;\n        uint256 amount;\n    }\n\t\n\t// set maxAmountToLock event\n\tevent MaxAmountToLockChanged(address admin, uint256 oldValue, uint256 newValue);\n\t\n\t// set minAmountToLock event\n\tevent MinAmountToLockChanged(address admin, uint256 oldValue, uint256 newValue);\n\t\n\t// tokens locked event\n\tevent TokensLocked(address user, uint256 amount, uint256 startDate, uint256 endDate);\n\t\n\t// tokens released event\n\tevent TokensReleased(address user, uint256 amount, uint256 withdrawDate);\n    \n\t\n\t\n    /**\n     * @dev Constructor\n\t */\n    constructor(address _erc20TokenAddress) public {\n\t\terc20 = IERC20(_erc20TokenAddress);\n    }\n\t\n\t/**\n     * @dev Returns the admin address, usually the contract owner address.\n\t * @return address\n     */\n    function admin() public view returns (address) {\n        return owner;\n    }\n\t\n\t/**\n     * @dev Admin sets maximum amount of tokens to lock per user.\n\t * @param tokenAmount Maximum tokens amount.\n\t * @return bool True if operation was successful.\n     */\n\tfunction setMaxAmountToLock(uint256 tokenAmount) external onlyOwner returns (bool) {\n\t\trequire(tokenAmount != maxAmountToLock, \"Different token amount required\");\n\t\trequire(tokenAmount >= minAmountToLock, \">= minAmountToLock required\");\n\t\tuint256 oldValue = maxAmountToLock;\n\t\tmaxAmountToLock = tokenAmount;\n\t\temit MaxAmountToLockChanged(msg.sender, oldValue, tokenAmount);\n\t\treturn true;\n\t}\n\t\n\t/**\n     * @dev Admin sets minimum amount of tokens to lock per user.\n\t * @param tokenAmount Minimum tokens amount.\n\t * @return bool True if operation was successful.\n     */\n\tfunction setMinAmountToLock(uint256 tokenAmount) external onlyOwner returns (bool) {\n\t\trequire(tokenAmount != minAmountToLock, \"Different token amount required\");\n\t\trequire(tokenAmount <= maxAmountToLock, \"<= maxAmountToLock required\");\n\t\tuint256 oldValue = minAmountToLock;\n\t\tminAmountToLock = tokenAmount;\n\t\temit MinAmountToLockChanged(msg.sender, oldValue, tokenAmount);\n\t\treturn true;\n\t}\n\t\n\t/**\n     * @dev User locks his tokens until specified end date.\n\t * @param amount Tokens amount to be locked.\n\t * @param endDate Lock tokens until this end date.\n\t * @return bool True if operation was successful.\n\t * REQUIREMENTS:\n\t *\tuser must have approved this contract to spend the tokens \"amount\" he wants to lock before calling this function.\n     */\n\tfunction lock(uint256 amount, uint256 endDate) external whenNotPaused returns (bool) {\n\t\trequire(amount > 0 && amount >= minAmountToLock && amount <= maxAmountToLock, \"Invalid token amount\");\n\t\trequire(endDate > block.timestamp, \"Invalid end date\");\n\t\t\n\t\tassert(lockedTokensMap[msg.sender].amount == 0); //otherwise user already locked tokens\n\t\t\n\t\trequire(erc20.allowance(msg.sender, address(this)) >= amount, \"Not enough tokens approved\");\n\t\trequire(erc20.transferFrom(msg.sender, address(this), amount), \"transferFrom failed\");\n\t\t\n\t\tlockedTokensMap[msg.sender].startDate = block.timestamp;\n        lockedTokensMap[msg.sender].endDate = endDate;\n        lockedTokensMap[msg.sender].amount = amount;\n\t\t\n\t\ttotalAmountStaked = totalAmountStaked.add(amount);\n\t\temit TokensLocked(msg.sender, amount, block.timestamp, endDate);\n\t\treturn true;\n\t}\n\t\n\t/**\n     * @dev User withdraws/releases his tokens after specified end date.\n\t * @return bool True if operation was successful.\n\t */\n\tfunction release() external returns (bool) {\n\t\t\n\t\trequire(lockedTokensMap[msg.sender].amount > 0, \"user has no locked tokens\");\n\t\trequire(lockedTokensMap[msg.sender].endDate <= block.timestamp, \"tokens release date not reached\");\n\t\t\n\t\tuint amount = lockedTokensMap[msg.sender].amount;\n\t\tlockedTokensMap[msg.sender].amount = 0;\n\t\ttotalAmountStaked = totalAmountStaked.sub(amount);\n\t\t\n\t\trequire(erc20.transfer(msg.sender, amount), \"transfer failed\");\n\t\temit TokensReleased(msg.sender, amount, block.timestamp);\n\t\treturn true;\n\t}\n\t\n\t/**\n     * @dev Check if locked tokens release date has come and user can withdraw them\n\t * @return bool True if lock end date was reached\n\t */\n\tfunction canRelease(address user) external view returns (bool) {\n\t\treturn (lockedTokensMap[user].endDate <= block.timestamp);\n\t}\n\t\n\t/**\n     * @dev Get locked tokens amount for a given address\n\t * @return uint256 Tokens amount for user address\n\t */\n\tfunction getLockedTokens(address user) external view returns (uint256) {\n\t\t\n\t\treturn lockedTokensMap[user].amount;\n    }\n\t\n    /// @dev Get locked tokens info for a given address\n\t/// @return startDate endDate amount Locked tokens info\n\tfunction getLockedTokensInfo(address user) external view returns (uint256 startDate, uint256 endDate, uint256 amount) {\n\t\t\n\t\tlockedTokensInfo memory info = lockedTokensMap[user];\n        return (info.startDate, info.endDate, info.amount);\n    }\n\t\n}",
  "sourcePath": "/Users/ruipedro/Desktop/projects/Bepro/@bepro-js/contracts/ERC20TokenLock.sol",
  "compiler": {
    "name": "solc",
    "version": "0.6.2+commit.bacdbe57.Emscripten.clang"
  },
  "schemaVersion": "3.0.20",
  "updatedAt": "2021-05-11T16:04:02.406Z",
  "devdoc": {
    "methods": {
      "admin()": {
        "details": "Returns the admin address, usually the contract owner address.",
        "returns": {
          "_0": "address"
        }
      },
      "canRelease(address)": {
        "details": "Check if locked tokens release date has come and user can withdraw them",
        "returns": {
          "_0": "bool True if lock end date was reached"
        }
      },
      "constructor": {
        "details": "Constructor"
      },
      "getLockedTokens(address)": {
        "details": "Get locked tokens amount for a given address",
        "returns": {
          "_0": "uint256 Tokens amount for user address"
        }
      },
      "getLockedTokensInfo(address)": {
        "details": "Get locked tokens info for a given address",
        "returns": {
          "startDate": "endDate amount Locked tokens info"
        }
      },
      "lock(uint256,uint256)": {
        "details": "User locks his tokens until specified end date.",
        "params": {
          "amount": "Tokens amount to be locked.",
          "endDate": "Lock tokens until this end date."
        },
        "returns": {
          "_0": "bool True if operation was successful. REQUIREMENTS: user must have approved this contract to spend the tokens \"amount\" he wants to lock before calling this function."
        }
      },
      "paused()": {
        "details": "Returns true if the contract is paused, and false otherwise."
      },
      "release()": {
        "details": "User withdraws/releases his tokens after specified end date.",
        "returns": {
          "_0": "bool True if operation was successful."
        }
      },
      "setMaxAmountToLock(uint256)": {
        "details": "Admin sets maximum amount of tokens to lock per user.",
        "params": {
          "tokenAmount": "Maximum tokens amount."
        },
        "returns": {
          "_0": "bool True if operation was successful."
        }
      },
      "setMinAmountToLock(uint256)": {
        "details": "Admin sets minimum amount of tokens to lock per user.",
        "params": {
          "tokenAmount": "Minimum tokens amount."
        },
        "returns": {
          "_0": "bool True if operation was successful."
        }
      },
      "transferOwnership(address)": {
        "details": "Allows the current owner to transfer control of the contract to a newOwner.",
        "params": {
          "newOwner": "The address to transfer ownership to."
        }
      }
    }
  },
  "userdoc": {
    "methods": {}
  }
}