{
  "contractName": "ERC20Distribution",
  "abi": [
    {
      "inputs": [],
      "stateMutability": "nonpayable",
      "type": "constructor"
    },
    {
      "anonymous": false,
      "inputs": [
        {
          "indexed": true,
          "internalType": "address",
          "name": "previousOwner",
          "type": "address"
        },
        {
          "indexed": true,
          "internalType": "address",
          "name": "newOwner",
          "type": "address"
        }
      ],
      "name": "OwnershipTransferred",
      "type": "event"
    },
    {
      "anonymous": false,
      "inputs": [
        {
          "indexed": false,
          "internalType": "address",
          "name": "account",
          "type": "address"
        }
      ],
      "name": "Paused",
      "type": "event"
    },
    {
      "anonymous": false,
      "inputs": [
        {
          "indexed": false,
          "internalType": "address",
          "name": "account",
          "type": "address"
        }
      ],
      "name": "Unpaused",
      "type": "event"
    },
    {
      "inputs": [],
      "name": "TGEDate",
      "outputs": [
        {
          "internalType": "uint256",
          "name": "",
          "type": "uint256"
        }
      ],
      "stateMutability": "view",
      "type": "function"
    },
    {
      "inputs": [],
      "name": "decimals",
      "outputs": [
        {
          "internalType": "uint256",
          "name": "",
          "type": "uint256"
        }
      ],
      "stateMutability": "view",
      "type": "function"
    },
    {
      "inputs": [
        {
          "internalType": "address",
          "name": "",
          "type": "address"
        },
        {
          "internalType": "uint256",
          "name": "",
          "type": "uint256"
        }
      ],
      "name": "distributions",
      "outputs": [
        {
          "internalType": "uint256",
          "name": "amountAllocated",
          "type": "uint256"
        },
        {
          "internalType": "uint256",
          "name": "currentAllocated",
          "type": "uint256"
        },
        {
          "internalType": "uint256",
          "name": "unlockDay",
          "type": "uint256"
        },
        {
          "internalType": "uint256",
          "name": "amountSent",
          "type": "uint256"
        }
      ],
      "stateMutability": "view",
      "type": "function"
    },
    {
      "inputs": [],
      "name": "erc20",
      "outputs": [
        {
          "internalType": "contract IERC20",
          "name": "",
          "type": "address"
        }
      ],
      "stateMutability": "view",
      "type": "function"
    },
    {
      "inputs": [],
      "name": "lastDateDistribution",
      "outputs": [
        {
          "internalType": "uint256",
          "name": "",
          "type": "uint256"
        }
      ],
      "stateMutability": "view",
      "type": "function"
    },
    {
      "inputs": [],
      "name": "month",
      "outputs": [
        {
          "internalType": "uint256",
          "name": "",
          "type": "uint256"
        }
      ],
      "stateMutability": "view",
      "type": "function"
    },
    {
      "inputs": [],
      "name": "owner",
      "outputs": [
        {
          "internalType": "address",
          "name": "",
          "type": "address"
        }
      ],
      "stateMutability": "view",
      "type": "function"
    },
    {
      "inputs": [],
      "name": "paused",
      "outputs": [
        {
          "internalType": "bool",
          "name": "",
          "type": "bool"
        }
      ],
      "stateMutability": "view",
      "type": "function"
    },
    {
      "inputs": [
        {
          "internalType": "uint256",
          "name": "",
          "type": "uint256"
        }
      ],
      "name": "tokenOwners",
      "outputs": [
        {
          "internalType": "address",
          "name": "",
          "type": "address"
        }
      ],
      "stateMutability": "view",
      "type": "function"
    },
    {
      "inputs": [
        {
          "internalType": "address",
          "name": "newOwner",
          "type": "address"
        }
      ],
      "name": "transferOwnership",
      "outputs": [],
      "stateMutability": "nonpayable",
      "type": "function"
    },
    {
      "inputs": [],
      "name": "year",
      "outputs": [
        {
          "internalType": "uint256",
          "name": "",
          "type": "uint256"
        }
      ],
      "stateMutability": "view",
      "type": "function"
    },
    {
      "inputs": [
        {
          "internalType": "contract IERC20",
          "name": "_tokenAddress",
          "type": "address"
        }
      ],
      "name": "setTokenAddress",
      "outputs": [],
      "stateMutability": "nonpayable",
      "type": "function"
    },
    {
      "inputs": [
        {
          "internalType": "address",
          "name": "_address",
          "type": "address"
        }
      ],
      "name": "safeGuardAllTokens",
      "outputs": [],
      "stateMutability": "nonpayable",
      "type": "function"
    },
    {
      "inputs": [
        {
          "internalType": "uint256",
          "name": "_time",
          "type": "uint256"
        }
      ],
      "name": "setTGEDate",
      "outputs": [],
      "stateMutability": "nonpayable",
      "type": "function"
    },
    {
      "inputs": [],
      "name": "triggerTokenSend",
      "outputs": [],
      "stateMutability": "nonpayable",
      "type": "function"
    }
  ],
  "bytecode": "0x60806040526000600255600060035534801561001a57600080fd5b506000805433610100026001600160a81b0319909116179055610c0f806100426000396000f3fe608060405234801561001057600080fd5b50600436106100f55760003560e01c8063785e9e8611610097578063cb12872811610066578063cb12872814610231578063f2fde38b14610239578063f32697161461025f578063f8a14f4614610267576100f5565b8063785e9e86146101d757806383e2ad63146101fb5780638da5cb5b14610203578063b90c72ae1461020b576100f5565b806332a01103116100d357806332a011031461018e5780635c975abb146101ab578063702921f5146101c757806376093957146101cf576100f5565b806326a4e8d2146100fa5780632d9b4b2514610122578063313ce56714610174575b600080fd5b6101206004803603602081101561011057600080fd5b50356001600160a01b0316610284565b005b61014e6004803603604081101561013857600080fd5b506001600160a01b03813516906020013561030f565b604080519485526020850193909352838301919091526060830152519081900360800190f35b61017c610352565b60408051918252519081900360200190f35b610120600480360360208110156101a457600080fd5b503561035e565b6101b36103cc565b604080519115158252519081900360200190f35b61017c6103d5565b61017c6103dc565b6101df6103e2565b604080516001600160a01b039092168252519081900360200190f35b6101206103f1565b6101df6108cd565b6101206004803603602081101561022157600080fd5b50356001600160a01b03166108e1565b61017c610a51565b6101206004803603602081101561024f57600080fd5b50356001600160a01b0316610a57565b61017c610aec565b6101df6004803603602081101561027d57600080fd5b5035610af4565b60005461010090046001600160a01b031633146102a057600080fd5b6102a86103cc565b156102ed576040805162461bcd60e51b815260206004820152601060248201526f14185d5cd8589b194e881c185d5cd95960821b604482015290519081900360640190fd5b600580546001600160a01b0319166001600160a01b0392909216919091179055565b6004602052816000526040600020818154811061032857fe5b60009182526020909120600490910201805460018201546002830154600390930154919450925084565b670de0b6b3a764000081565b60005461010090046001600160a01b0316331461037a57600080fd5b6103826103cc565b156103c7576040805162461bcd60e51b815260206004820152601060248201526f14185d5cd8589b194e881c185d5cd95960821b604482015290519081900360640190fd5b600255565b60005460ff1690565b62278d0081565b60035481565b6005546001600160a01b031681565b6103f96103cc565b1561043e576040805162461bcd60e51b815260206004820152601060248201526f14185d5cd8589b194e881c185d5cd95960821b604482015290519081900360640190fd5b600254610489576040805162461bcd60e51b81526020600482015260146024820152731511d14819185d19481b9bdd081cd95d081e595d60621b604482015290519081900360640190fd5b60025442116104df576040805162461bcd60e51b815260206004820152601960248201527f544745207374696c6c206861736ec2b474207374617274656400000000000000604482015290519081900360640190fd5b620151806104f860035442610b1b90919063ffffffff16565b1161054a576040805162461bcd60e51b815260206004820152601d60248201527f43616e206f6e6c792062652063616c6c6564206f6e6365206120646179000000604482015290519081900360640190fd5b4260035560005b6001548110156108ca576060600460006001848154811061056e57fe5b60009182526020808320909101546001600160a01b031683528281019390935260409182018120805483518186028101860190945280845292939092919084015b828210156106095783829060005260206000209060040201604051806080016040529081600082015481526020016001820154815260200160028201548152602001600382015481525050815260200190600101906105af565b509293506000925050505b81518110156108c05781818151811061062957fe5b60200260200101516040015161064a60025442610b1b90919063ffffffff16565b11801561066e5750600082828151811061066057fe5b602002602001015160200151115b156108b857600082828151811061068157fe5b60200260200101516020015190506106f48160046000600188815481106106a457fe5b60009182526020808320909101546001600160a01b0316835282019290925260400190208054859081106106d457fe5b906000526020600020906004020160010154610b1b90919063ffffffff16565b600460006001878154811061070557fe5b60009182526020808320909101546001600160a01b03168352820192909252604001902080548490811061073557fe5b9060005260206000209060040201600101819055506107af81600460006001888154811061075f57fe5b60009182526020808320909101546001600160a01b03168352820192909252604001902080548590811061078f57fe5b906000526020600020906004020160030154610b7890919063ffffffff16565b60046000600187815481106107c057fe5b60009182526020808320909101546001600160a01b0316835282019290925260400190208054849081106107f057fe5b6000918252602090912060036004909202010155600554600180546001600160a01b039092169163a9059cbb91908790811061082857fe5b6000918252602080832090910154604080516001600160e01b031960e087901b1681526001600160a01b039092166004830152602482018790525160448083019491928390030190829087803b15801561088157600080fd5b505af1158015610895573d6000803e3d6000fd5b505050506040513d60208110156108ab57600080fd5b50516108b657600080fd5b505b600101610614565b5050600101610551565b50565b60005461010090046001600160a01b031681565b60005461010090046001600160a01b031633146108fd57600080fd5b6109056103cc565b61094d576040805162461bcd60e51b815260206004820152601460248201527314185d5cd8589b194e881b9bdd081c185d5cd95960621b604482015290519081900360640190fd5b600554604080516370a0823160e01b815230600482015290516001600160a01b039092169163a9059cbb91849184916370a08231916024808301926020929190829003018186803b1580156109a157600080fd5b505afa1580156109b5573d6000803e3d6000fd5b505050506040513d60208110156109cb57600080fd5b5051604080516001600160e01b031960e086901b1681526001600160a01b03909316600484015260248301919091525160448083019260209291908290030181600087803b158015610a1c57600080fd5b505af1158015610a30573d6000803e3d6000fd5b505050506040513d6020811015610a4657600080fd5b50516108ca57600080fd5b60025481565b60005461010090046001600160a01b03163314610a7357600080fd5b6001600160a01b038116610a8657600080fd5b600080546040516001600160a01b038085169361010090930416917f8be0079c531659141344cd1fd0a4f28419497f9722a3daafe3b4186f6b6457e091a3600080546001600160a01b0390921661010002610100600160a81b0319909216919091179055565b6301e1338081565b60018181548110610b0157fe5b6000918252602090912001546001600160a01b0316905081565b600082821115610b72576040805162461bcd60e51b815260206004820152601e60248201527f536166654d6174683a207375627472616374696f6e206f766572666c6f770000604482015290519081900360640190fd5b50900390565b600082820183811015610bd2576040805162461bcd60e51b815260206004820152601b60248201527f536166654d6174683a206164646974696f6e206f766572666c6f770000000000604482015290519081900360640190fd5b939250505056fea2646970667358221220e2af8c49666ab16d4fdfb72b7edeecd89de8bdee51ab1591e30fb7c759de24a864736f6c63430006020033",
  "source": "pragma solidity >=0.6.0;\n\nimport \"@openzeppelin/contracts/token/ERC20/IERC20.sol\";\nimport \"@openzeppelin/contracts/utils/Pausable.sol\";\nimport \"@openzeppelin/contracts/math/SafeMath.sol\";\nimport \"./utils/Ownable.sol\";\n\ncontract ERC20Distribution is Pausable, Ownable {\n    using SafeMath for uint256;\n\n    uint256 constant public decimals = 1 ether;\n    address[] public tokenOwners ; /* Tracks distributions mapping (iterable) */\n    uint256 public TGEDate = 0; /* Date From where the distribution starts (TGE) */\n    uint256 constant public month = 30 days;\n    uint256 constant public year = 365 days;\n    uint256 public lastDateDistribution = 0;\n    \n    mapping(address => DistributionStep[]) public distributions; /* Distribution object */\n    \n    IERC20 public erc20;\n\n    struct DistributionStep {\n        uint256 amountAllocated;\n        uint256 currentAllocated;\n        uint256 unlockDay;\n        uint256 amountSent;\n    }\n\n    constructor() public{}\n\n    function setTokenAddress(IERC20 _tokenAddress) external onlyOwner whenNotPaused  {\n        erc20 = _tokenAddress;\n    }\n    \n    function safeGuardAllTokens(address _address) external onlyOwner whenPaused  { /* In case of needed urgency for the sake of contract bug */\n        require(erc20.transfer(_address, erc20.balanceOf(address(this))));\n    }\n\n    function setTGEDate(uint256 _time) external onlyOwner whenNotPaused  {\n        TGEDate = _time;\n    }\n\n    /**\n    *   Should allow any address to trigger it, but since the calls are atomic it should do only once per day\n     */\n\n    function triggerTokenSend() external whenNotPaused  {\n        /* Require TGE Date already been set */\n        require(TGEDate != 0, \"TGE date not set yet\");\n        /* TGE has not started */\n        require(block.timestamp > TGEDate, \"TGE still hasn´t started\");\n        /* Test that the call be only done once per day */\n        require(block.timestamp.sub(lastDateDistribution) > 1 days, \"Can only be called once a day\");\n        lastDateDistribution = block.timestamp;\n        /* Go thru all tokenOwners */\n        for(uint i = 0; i < tokenOwners.length; i++) {\n            /* Get Address Distribution */\n            DistributionStep[] memory d = distributions[tokenOwners[i]];\n            /* Go thru all distributions array */\n            for(uint j = 0; j < d.length; j++){\n                if( (block.timestamp.sub(TGEDate) > d[j].unlockDay) /* Verify if unlockDay has passed */\n                    && (d[j].currentAllocated > 0) /* Verify if currentAllocated > 0, so that address has tokens to be sent still */\n                ){\n                    uint256 sendingAmount;\n                    sendingAmount = d[j].currentAllocated;\n                    distributions[tokenOwners[i]][j].currentAllocated = distributions[tokenOwners[i]][j].currentAllocated.sub(sendingAmount);\n                    distributions[tokenOwners[i]][j].amountSent = distributions[tokenOwners[i]][j].amountSent.add(sendingAmount);\n                    require(erc20.transfer(tokenOwners[i], sendingAmount));\n                }\n            }\n        }   \n    }\n\n    function setInitialDistribution(address _address, uint256 _tokenAmount, uint256 _unlockDays) internal onlyOwner whenNotPaused {\n        /* Add tokenOwner to Eachable Mapping */\n        bool isAddressPresent = false;\n\n        /* Verify if tokenOwner was already added */\n        for(uint i = 0; i < tokenOwners.length; i++) {\n            if(tokenOwners[i] == _address){\n                isAddressPresent = true;\n            }\n        }\n        /* Create DistributionStep Object */\n        DistributionStep memory distributionStep = DistributionStep(_tokenAmount * decimals, _tokenAmount * decimals, _unlockDays, 0);\n        /* Attach */\n        distributions[_address].push(distributionStep);\n\n        /* If Address not present in array of iterable token owners */\n        if(!isAddressPresent){\n            tokenOwners.push(_address);\n        }\n    }\n}",
  "sourcePath": "/Users/ruipedro/Desktop/projects/Bepro/@bepro-js/contracts/ERC20Distribution.sol",
  "compiler": {
    "name": "solc",
    "version": "0.6.2+commit.bacdbe57.Emscripten.clang"
  },
  "schemaVersion": "3.0.20",
  "updatedAt": "2021-06-15T12:05:05.696Z",
  "devdoc": {
    "methods": {
      "paused()": {
        "details": "Returns true if the contract is paused, and false otherwise."
      },
      "transferOwnership(address)": {
        "details": "Allows the current owner to transfer control of the contract to a newOwner.",
        "params": {
          "newOwner": "The address to transfer ownership to."
        }
      }
    }
  },
  "userdoc": {
    "methods": {
      "triggerTokenSend()": {
        "notice": "Should allow any address to trigger it, but since the calls are atomic it should do only once per day"
      }
    }
  }
}