{
  "contractName": "ERC20TokenLock",
  "abi": [
    {
      "inputs": [
        {
          "internalType": "address",
          "name": "_erc20TokenAddress",
          "type": "address"
        }
      ],
      "stateMutability": "nonpayable",
      "type": "constructor"
    },
    {
      "anonymous": false,
      "inputs": [
        {
          "indexed": false,
          "internalType": "address",
          "name": "admin",
          "type": "address"
        },
        {
          "indexed": false,
          "internalType": "uint256",
          "name": "oldValue",
          "type": "uint256"
        },
        {
          "indexed": false,
          "internalType": "uint256",
          "name": "newValue",
          "type": "uint256"
        }
      ],
      "name": "MaxAmountToLockChanged",
      "type": "event"
    },
    {
      "anonymous": false,
      "inputs": [
        {
          "indexed": false,
          "internalType": "address",
          "name": "admin",
          "type": "address"
        },
        {
          "indexed": false,
          "internalType": "uint256",
          "name": "oldValue",
          "type": "uint256"
        },
        {
          "indexed": false,
          "internalType": "uint256",
          "name": "newValue",
          "type": "uint256"
        }
      ],
      "name": "MinAmountToLockChanged",
      "type": "event"
    },
    {
      "anonymous": false,
      "inputs": [
        {
          "indexed": true,
          "internalType": "address",
          "name": "previousOwner",
          "type": "address"
        },
        {
          "indexed": true,
          "internalType": "address",
          "name": "newOwner",
          "type": "address"
        }
      ],
      "name": "OwnershipTransferred",
      "type": "event"
    },
    {
      "anonymous": false,
      "inputs": [
        {
          "indexed": false,
          "internalType": "address",
          "name": "account",
          "type": "address"
        }
      ],
      "name": "Paused",
      "type": "event"
    },
    {
      "anonymous": false,
      "inputs": [
        {
          "indexed": false,
          "internalType": "address",
          "name": "user",
          "type": "address"
        },
        {
          "indexed": false,
          "internalType": "uint256",
          "name": "amount",
          "type": "uint256"
        },
        {
          "indexed": false,
          "internalType": "uint256",
          "name": "startDate",
          "type": "uint256"
        },
        {
          "indexed": false,
          "internalType": "uint256",
          "name": "endDate",
          "type": "uint256"
        }
      ],
      "name": "TokensLocked",
      "type": "event"
    },
    {
      "anonymous": false,
      "inputs": [
        {
          "indexed": false,
          "internalType": "address",
          "name": "user",
          "type": "address"
        },
        {
          "indexed": false,
          "internalType": "uint256",
          "name": "amount",
          "type": "uint256"
        },
        {
          "indexed": false,
          "internalType": "uint256",
          "name": "withdrawDate",
          "type": "uint256"
        }
      ],
      "name": "TokensReleased",
      "type": "event"
    },
    {
      "anonymous": false,
      "inputs": [
        {
          "indexed": false,
          "internalType": "address",
          "name": "account",
          "type": "address"
        }
      ],
      "name": "Unpaused",
      "type": "event"
    },
    {
      "inputs": [],
      "name": "erc20",
      "outputs": [
        {
          "internalType": "contract IERC20",
          "name": "",
          "type": "address"
        }
      ],
      "stateMutability": "view",
      "type": "function"
    },
    {
      "inputs": [
        {
          "internalType": "address",
          "name": "",
          "type": "address"
        }
      ],
      "name": "lockedTokensMap",
      "outputs": [
        {
          "internalType": "uint256",
          "name": "startDate",
          "type": "uint256"
        },
        {
          "internalType": "uint256",
          "name": "endDate",
          "type": "uint256"
        },
        {
          "internalType": "uint256",
          "name": "amount",
          "type": "uint256"
        }
      ],
      "stateMutability": "view",
      "type": "function"
    },
    {
      "inputs": [],
      "name": "maxAmountToLock",
      "outputs": [
        {
          "internalType": "uint256",
          "name": "",
          "type": "uint256"
        }
      ],
      "stateMutability": "view",
      "type": "function"
    },
    {
      "inputs": [],
      "name": "minAmountToLock",
      "outputs": [
        {
          "internalType": "uint256",
          "name": "",
          "type": "uint256"
        }
      ],
      "stateMutability": "view",
      "type": "function"
    },
    {
      "inputs": [],
      "name": "owner",
      "outputs": [
        {
          "internalType": "address",
          "name": "",
          "type": "address"
        }
      ],
      "stateMutability": "view",
      "type": "function"
    },
    {
      "inputs": [],
      "name": "paused",
      "outputs": [
        {
          "internalType": "bool",
          "name": "",
          "type": "bool"
        }
      ],
      "stateMutability": "view",
      "type": "function"
    },
    {
      "inputs": [],
      "name": "totalAmountStaked",
      "outputs": [
        {
          "internalType": "uint256",
          "name": "",
          "type": "uint256"
        }
      ],
      "stateMutability": "view",
      "type": "function"
    },
    {
      "inputs": [
        {
          "internalType": "address",
          "name": "newOwner",
          "type": "address"
        }
      ],
      "name": "transferOwnership",
      "outputs": [],
      "stateMutability": "nonpayable",
      "type": "function"
    },
    {
      "inputs": [],
      "name": "admin",
      "outputs": [
        {
          "internalType": "address",
          "name": "",
          "type": "address"
        }
      ],
      "stateMutability": "view",
      "type": "function"
    },
    {
      "inputs": [
        {
          "internalType": "uint256",
          "name": "tokenAmount",
          "type": "uint256"
        }
      ],
      "name": "setMaxAmountToLock",
      "outputs": [
        {
          "internalType": "bool",
          "name": "",
          "type": "bool"
        }
      ],
      "stateMutability": "nonpayable",
      "type": "function"
    },
    {
      "inputs": [
        {
          "internalType": "uint256",
          "name": "tokenAmount",
          "type": "uint256"
        }
      ],
      "name": "setMinAmountToLock",
      "outputs": [
        {
          "internalType": "bool",
          "name": "",
          "type": "bool"
        }
      ],
      "stateMutability": "nonpayable",
      "type": "function"
    },
    {
      "inputs": [
        {
          "internalType": "uint256",
          "name": "amount",
          "type": "uint256"
        },
        {
          "internalType": "uint256",
          "name": "endDate",
          "type": "uint256"
        }
      ],
      "name": "lock",
      "outputs": [
        {
          "internalType": "bool",
          "name": "",
          "type": "bool"
        }
      ],
      "stateMutability": "nonpayable",
      "type": "function"
    },
    {
      "inputs": [],
      "name": "release",
      "outputs": [
        {
          "internalType": "bool",
          "name": "",
          "type": "bool"
        }
      ],
      "stateMutability": "nonpayable",
      "type": "function"
    },
    {
      "inputs": [
        {
          "internalType": "address",
          "name": "user",
          "type": "address"
        }
      ],
      "name": "canRelease",
      "outputs": [
        {
          "internalType": "bool",
          "name": "",
          "type": "bool"
        }
      ],
      "stateMutability": "view",
      "type": "function"
    },
    {
      "inputs": [
        {
          "internalType": "address",
          "name": "user",
          "type": "address"
        }
      ],
      "name": "getLockedTokens",
      "outputs": [
        {
          "internalType": "uint256",
          "name": "",
          "type": "uint256"
        }
      ],
      "stateMutability": "view",
      "type": "function"
    },
    {
      "inputs": [
        {
          "internalType": "address",
          "name": "user",
          "type": "address"
        }
      ],
      "name": "getLockedTokensInfo",
      "outputs": [
        {
          "internalType": "uint256",
          "name": "startDate",
          "type": "uint256"
        },
        {
          "internalType": "uint256",
          "name": "endDate",
          "type": "uint256"
        },
        {
          "internalType": "uint256",
          "name": "amount",
          "type": "uint256"
        }
      ],
      "stateMutability": "view",
      "type": "function"
    }
  ],
  "bytecode": "0x608060405260006002556000600355600060045534801561001f57600080fd5b506040516119273803806119278339818101604052602081101561004257600080fd5b810190808051906020019092919050505060008060006101000a81548160ff02191690831515021790555033600060016101000a81548173ffffffffffffffffffffffffffffffffffffffff021916908373ffffffffffffffffffffffffffffffffffffffff16021790555080600160006101000a81548173ffffffffffffffffffffffffffffffffffffffff021916908373ffffffffffffffffffffffffffffffffffffffff16021790555050611828806100ff6000396000f3fe608060405234801561001057600080fd5b506004361061011d576000357c01000000000000000000000000000000000000000000000000000000009004806386d1a69f116100b4578063f2fde38b11610083578063f2fde38b1461042c578063f3e49d9614610470578063f851a440146104d6578063fe961f61146105205761011d565b806386d1a69f1461035c5780638da5cb5b1461037e578063e959824f146103c8578063f2682c041461040e5761011d565b80636dfe789a116100f05780636dfe789a14610232578063785e9e861461028e57806380506457146102d857806380acddbd146102f65761011d565b80631338736f146101225780635c975abb146101725780636b2d95d4146101945780636c53e4fe146101ec575b600080fd5b6101586004803603604081101561013857600080fd5b81019080803590602001909291908035906020019092919050505061053e565b604051808215151515815260200191505060405180910390f35b61017a610bc8565b604051808215151515815260200191505060405180910390f35b6101d6600480360360208110156101aa57600080fd5b81019080803573ffffffffffffffffffffffffffffffffffffffff169060200190929190505050610bde565b6040518082815260200191505060405180910390f35b6102186004803603602081101561020257600080fd5b8101908080359060200190929190505050610c2a565b604051808215151515815260200191505060405180910390f35b6102746004803603602081101561024857600080fd5b81019080803573ffffffffffffffffffffffffffffffffffffffff169060200190929190505050610e00565b604051808215151515815260200191505060405180910390f35b610296610e4f565b604051808273ffffffffffffffffffffffffffffffffffffffff1673ffffffffffffffffffffffffffffffffffffffff16815260200191505060405180910390f35b6102e0610e75565b6040518082815260200191505060405180910390f35b6103386004803603602081101561030c57600080fd5b81019080803573ffffffffffffffffffffffffffffffffffffffff169060200190929190505050610e7b565b60405180848152602001838152602001828152602001935050505060405180910390f35b610364610f0f565b604051808215151515815260200191505060405180910390f35b610386611317565b604051808273ffffffffffffffffffffffffffffffffffffffff1673ffffffffffffffffffffffffffffffffffffffff16815260200191505060405180910390f35b6103f4600480360360208110156103de57600080fd5b810190808035906020019092919050505061133d565b604051808215151515815260200191505060405180910390f35b610416611513565b6040518082815260200191505060405180910390f35b61046e6004803603602081101561044257600080fd5b81019080803573ffffffffffffffffffffffffffffffffffffffff169060200190929190505050611519565b005b6104b26004803603602081101561048657600080fd5b81019080803573ffffffffffffffffffffffffffffffffffffffff16906020019092919050505061166d565b60405180848152602001838152602001828152602001935050505060405180910390f35b6104de611697565b604051808273ffffffffffffffffffffffffffffffffffffffff1673ffffffffffffffffffffffffffffffffffffffff16815260200191505060405180910390f35b6105286116c0565b6040518082815260200191505060405180910390f35b6000610548610bc8565b156105bb576040517f08c379a00000000000000000000000000000000000000000000000000000000081526004018080602001828103825260108152602001807f5061757361626c653a207061757365640000000000000000000000000000000081525060200191505060405180910390fd5b6000831180156105cd57506003548310155b80156105db57506002548311155b61064d576040517f08c379a00000000000000000000000000000000000000000000000000000000081526004018080602001828103825260148152602001807f496e76616c696420746f6b656e20616d6f756e7400000000000000000000000081525060200191505060405180910390fd5b4282116106c2576040517f08c379a00000000000000000000000000000000000000000000000000000000081526004018080602001828103825260108152602001807f496e76616c696420656e6420646174650000000000000000000000000000000081525060200191505060405180910390fd5b6000600560003373ffffffffffffffffffffffffffffffffffffffff1673ffffffffffffffffffffffffffffffffffffffff168152602001908152602001600020600201541461070e57fe5b82600160009054906101000a900473ffffffffffffffffffffffffffffffffffffffff1673ffffffffffffffffffffffffffffffffffffffff1663dd62ed3e33306040518363ffffffff167c0100000000000000000000000000000000000000000000000000000000028152600401808373ffffffffffffffffffffffffffffffffffffffff1673ffffffffffffffffffffffffffffffffffffffff1681526020018273ffffffffffffffffffffffffffffffffffffffff1673ffffffffffffffffffffffffffffffffffffffff1681526020019250505060206040518083038186803b1580156107fe57600080fd5b505afa158015610812573d6000803e3d6000fd5b505050506040513d602081101561082857600080fd5b810190808051906020019092919050505010156108ad576040517f08c379a000000000000000000000000000000000000000000000000000000000815260040180806020018281038252601a8152602001807f4e6f7420656e6f75676820746f6b656e7320617070726f76656400000000000081525060200191505060405180910390fd5b600160009054906101000a900473ffffffffffffffffffffffffffffffffffffffff1673ffffffffffffffffffffffffffffffffffffffff166323b872dd3330866040518463ffffffff167c0100000000000000000000000000000000000000000000000000000000028152600401808473ffffffffffffffffffffffffffffffffffffffff1673ffffffffffffffffffffffffffffffffffffffff1681526020018373ffffffffffffffffffffffffffffffffffffffff1673ffffffffffffffffffffffffffffffffffffffff1681526020018281526020019350505050602060405180830381600087803b1580156109a657600080fd5b505af11580156109ba573d6000803e3d6000fd5b505050506040513d60208110156109d057600080fd5b8101908080519060200190929190505050610a53576040517f08c379a00000000000000000000000000000000000000000000000000000000081526004018080602001828103825260138152602001807f7472616e7366657246726f6d206661696c65640000000000000000000000000081525060200191505060405180910390fd5b42600560003373ffffffffffffffffffffffffffffffffffffffff1673ffffffffffffffffffffffffffffffffffffffff1681526020019081526020016000206000018190555081600560003373ffffffffffffffffffffffffffffffffffffffff1673ffffffffffffffffffffffffffffffffffffffff1681526020019081526020016000206001018190555082600560003373ffffffffffffffffffffffffffffffffffffffff1673ffffffffffffffffffffffffffffffffffffffff16815260200190815260200160002060020181905550610b3d836004546116c690919063ffffffff16565b6004819055507f90e20a62e0f2a608d33bd96a4e15cb853006a15caf4455f373b7b55de520b68c33844285604051808573ffffffffffffffffffffffffffffffffffffffff1673ffffffffffffffffffffffffffffffffffffffff16815260200184815260200183815260200182815260200194505050505060405180910390a16001905092915050565b60008060009054906101000a900460ff16905090565b6000600560008373ffffffffffffffffffffffffffffffffffffffff1673ffffffffffffffffffffffffffffffffffffffff168152602001908152602001600020600201549050919050565b60008060019054906101000a900473ffffffffffffffffffffffffffffffffffffffff1673ffffffffffffffffffffffffffffffffffffffff163373ffffffffffffffffffffffffffffffffffffffff1614610c8557600080fd5b600354821415610cfd576040517f08c379a000000000000000000000000000000000000000000000000000000000815260040180806020018281038252601f8152602001807f446966666572656e7420746f6b656e20616d6f756e742072657175697265640081525060200191505060405180910390fd5b600254821115610d75576040517f08c379a000000000000000000000000000000000000000000000000000000000815260040180806020018281038252601b8152602001807f3c3d206d6178416d6f756e74546f4c6f636b207265717569726564000000000081525060200191505060405180910390fd5b60006003549050826003819055507f26cd3240aacd6d90dacd3d7c64ba6c98a2cd3e7fcf7f7251a8b11cde59b283c5338285604051808473ffffffffffffffffffffffffffffffffffffffff1673ffffffffffffffffffffffffffffffffffffffff168152602001838152602001828152602001935050505060405180910390a16001915050919050565b600042600560008473ffffffffffffffffffffffffffffffffffffffff1673ffffffffffffffffffffffffffffffffffffffff1681526020019081526020016000206001015411159050919050565b600160009054906101000a900473ffffffffffffffffffffffffffffffffffffffff1681565b60035481565b6000806000610e886117d1565b600560008673ffffffffffffffffffffffffffffffffffffffff1673ffffffffffffffffffffffffffffffffffffffff16815260200190815260200160002060405180606001604052908160008201548152602001600182015481526020016002820154815250509050806000015181602001518260400151935093509350509193909250565b600080600560003373ffffffffffffffffffffffffffffffffffffffff1673ffffffffffffffffffffffffffffffffffffffff1681526020019081526020016000206002015411610fc8576040517f08c379a00000000000000000000000000000000000000000000000000000000081526004018080602001828103825260198152602001807f7573657220686173206e6f206c6f636b656420746f6b656e730000000000000081525060200191505060405180910390fd5b42600560003373ffffffffffffffffffffffffffffffffffffffff1673ffffffffffffffffffffffffffffffffffffffff168152602001908152602001600020600101541115611080576040517f08c379a000000000000000000000000000000000000000000000000000000000815260040180806020018281038252601f8152602001807f746f6b656e732072656c656173652064617465206e6f7420726561636865640081525060200191505060405180910390fd5b6000600560003373ffffffffffffffffffffffffffffffffffffffff1673ffffffffffffffffffffffffffffffffffffffff1681526020019081526020016000206002015490506000600560003373ffffffffffffffffffffffffffffffffffffffff1673ffffffffffffffffffffffffffffffffffffffff168152602001908152602001600020600201819055506111248160045461174e90919063ffffffff16565b600481905550600160009054906101000a900473ffffffffffffffffffffffffffffffffffffffff1673ffffffffffffffffffffffffffffffffffffffff1663a9059cbb33836040518363ffffffff167c0100000000000000000000000000000000000000000000000000000000028152600401808373ffffffffffffffffffffffffffffffffffffffff1673ffffffffffffffffffffffffffffffffffffffff16815260200182815260200192505050602060405180830381600087803b1580156111ef57600080fd5b505af1158015611203573d6000803e3d6000fd5b505050506040513d602081101561121957600080fd5b810190808051906020019092919050505061129c576040517f08c379a000000000000000000000000000000000000000000000000000000000815260040180806020018281038252600f8152602001807f7472616e73666572206661696c6564000000000000000000000000000000000081525060200191505060405180910390fd5b7fc5c52c2a9175470464d5ea4429889e7df2ea88630a3d32f4d0d3d2d448656210338242604051808473ffffffffffffffffffffffffffffffffffffffff1673ffffffffffffffffffffffffffffffffffffffff168152602001838152602001828152602001935050505060405180910390a1600191505090565b600060019054906101000a900473ffffffffffffffffffffffffffffffffffffffff1681565b60008060019054906101000a900473ffffffffffffffffffffffffffffffffffffffff1673ffffffffffffffffffffffffffffffffffffffff163373ffffffffffffffffffffffffffffffffffffffff161461139857600080fd5b600254821415611410576040517f08c379a000000000000000000000000000000000000000000000000000000000815260040180806020018281038252601f8152602001807f446966666572656e7420746f6b656e20616d6f756e742072657175697265640081525060200191505060405180910390fd5b600354821015611488576040517f08c379a000000000000000000000000000000000000000000000000000000000815260040180806020018281038252601b8152602001807f3e3d206d696e416d6f756e74546f4c6f636b207265717569726564000000000081525060200191505060405180910390fd5b60006002549050826002819055507fa681f7266a89baea6aef96b2e31932f3746d3a6995846958e3de4279d9f41da4338285604051808473ffffffffffffffffffffffffffffffffffffffff1673ffffffffffffffffffffffffffffffffffffffff168152602001838152602001828152602001935050505060405180910390a16001915050919050565b60025481565b600060019054906101000a900473ffffffffffffffffffffffffffffffffffffffff1673ffffffffffffffffffffffffffffffffffffffff163373ffffffffffffffffffffffffffffffffffffffff161461157357600080fd5b600073ffffffffffffffffffffffffffffffffffffffff168173ffffffffffffffffffffffffffffffffffffffff1614156115ad57600080fd5b8073ffffffffffffffffffffffffffffffffffffffff16600060019054906101000a900473ffffffffffffffffffffffffffffffffffffffff1673ffffffffffffffffffffffffffffffffffffffff167f8be0079c531659141344cd1fd0a4f28419497f9722a3daafe3b4186f6b6457e060405160405180910390a380600060016101000a81548173ffffffffffffffffffffffffffffffffffffffff021916908373ffffffffffffffffffffffffffffffffffffffff16021790555050565b60056020528060005260406000206000915090508060000154908060010154908060020154905083565b60008060019054906101000a900473ffffffffffffffffffffffffffffffffffffffff16905090565b60045481565b600080828401905083811015611744576040517f08c379a000000000000000000000000000000000000000000000000000000000815260040180806020018281038252601b8152602001807f536166654d6174683a206164646974696f6e206f766572666c6f77000000000081525060200191505060405180910390fd5b8091505092915050565b6000828211156117c6576040517f08c379a000000000000000000000000000000000000000000000000000000000815260040180806020018281038252601e8152602001807f536166654d6174683a207375627472616374696f6e206f766572666c6f77000081525060200191505060405180910390fd5b818303905092915050565b6040518060600160405280600081526020016000815260200160008152509056fea26469706673582212202dd3f6f9bdb6d408e3c667c5b9bb9d07fbd9500ca949370aeffb29beeb9529ce64736f6c63430006020033",
  "source": "// SPDX-License-Identifier: MIT\r\n\r\npragma solidity >=0.6.0;\r\n\r\nimport \"@openzeppelin/contracts/token/ERC20/IERC20.sol\";\r\nimport \"@openzeppelin/contracts/utils/Pausable.sol\";\r\nimport \"@openzeppelin/contracts/math/SafeMath.sol\";\r\nimport \"./utils/Ownable.sol\";\r\n\r\ncontract ERC20TokenLock is Pausable, Ownable {\r\n    using SafeMath for uint256;\r\n\t\r\n\tIERC20 public erc20; //address of ERC20 token being held/locked by this contract\r\n\t\r\n\tuint256 public maxAmountToLock = 0; //max amount of tokens to lock per user\r\n\t\r\n\tuint256 public minAmountToLock = 0; //min amount of tokens to lock per user\r\n\t\r\n\tuint256 public totalAmountStaked = 0; //total tokens locked in contract\r\n\t\r\n\tmapping (address => lockedTokensInfo) public lockedTokensMap; //locked tokens map for all users\r\n\t\r\n    struct lockedTokensInfo {\r\n        uint256 startDate; //block.timestamp\r\n        uint256 endDate;\r\n        uint256 amount;\r\n    }\r\n\t\r\n\t\r\n\t// set maxAmountToLock event\r\n\tevent MaxAmountToLockChanged(address admin, uint256 oldValue, uint256 newValue);\r\n\t\r\n\t// set minAmountToLock event\r\n\tevent MinAmountToLockChanged(address admin, uint256 oldValue, uint256 newValue);\r\n\t\r\n\t// tokens locked event\r\n\tevent TokensLocked(address user, uint256 amount, uint256 startDate, uint256 endDate);\r\n\t\r\n\t// tokens released event\r\n\tevent TokensReleased(address user, uint256 amount, uint256 withdrawDate);\r\n    \r\n\t\r\n\t\r\n    /**\r\n     * @dev Constructor\r\n\t */\r\n    constructor(address _erc20TokenAddress) public {\r\n\t\terc20 = IERC20(_erc20TokenAddress);\r\n    }\r\n\t\r\n\t/**\r\n     * @dev Returns the admin address, usually the contract owner address.\r\n\t * @return address\r\n     */\r\n    function admin() public view returns (address) {\r\n        return owner;\r\n    }\r\n\t\r\n\t/**\r\n     * @dev Admin sets maximum amount of tokens to lock per user.\r\n\t * @param tokenAmount Maximum tokens amount.\r\n\t * @return bool True if operation was successful.\r\n     */\r\n\tfunction setMaxAmountToLock(uint256 tokenAmount) external onlyOwner returns (bool) {\r\n\t\trequire(tokenAmount != maxAmountToLock, \"Different token amount required\");\r\n\t\trequire(tokenAmount >= minAmountToLock, \">= minAmountToLock required\");\r\n\t\tuint256 oldValue = maxAmountToLock;\r\n\t\tmaxAmountToLock = tokenAmount;\r\n\t\temit MaxAmountToLockChanged(msg.sender, oldValue, tokenAmount);\r\n\t\treturn true;\r\n\t}\r\n\t\r\n\t/**\r\n     * @dev Admin sets minimum amount of tokens to lock per user.\r\n\t * @param tokenAmount Minimum tokens amount.\r\n\t * @return bool True if operation was successful.\r\n     */\r\n\tfunction setMinAmountToLock(uint256 tokenAmount) external onlyOwner returns (bool) {\r\n\t\trequire(tokenAmount != minAmountToLock, \"Different token amount required\");\r\n\t\trequire(tokenAmount <= maxAmountToLock, \"<= maxAmountToLock required\");\r\n\t\tuint256 oldValue = minAmountToLock;\r\n\t\tminAmountToLock = tokenAmount;\r\n\t\temit MinAmountToLockChanged(msg.sender, oldValue, tokenAmount);\r\n\t\treturn true;\r\n\t}\r\n\t\r\n\t/**\r\n     * @dev User locks his tokens until specified end date.\r\n\t * @param amount Tokens amount to be locked.\r\n\t * @param endDate Lock tokens until this end date.\r\n\t * @return bool True if operation was successful.\r\n\t * REQUIREMENTS:\r\n\t *\tuser must have approved this contract to spend the tokens \"amount\" he wants to lock before calling this function.\r\n     */\r\n\tfunction lock(uint256 amount, uint256 endDate) external whenNotPaused returns (bool) {\r\n\t\trequire(amount > 0 && amount >= minAmountToLock && amount <= maxAmountToLock, \"Invalid token amount\");\r\n\t\trequire(endDate > block.timestamp, \"Invalid end date\");\r\n\t\t\r\n\t\tassert(lockedTokensMap[msg.sender].amount == 0); //otherwise user already locked tokens\r\n\t\t\r\n\t\trequire(erc20.allowance(msg.sender, address(this)) >= amount, \"Not enough tokens approved\");\r\n\t\trequire(erc20.transferFrom(msg.sender, address(this), amount), \"transferFrom failed\");\r\n\t\t\r\n\t\tlockedTokensMap[msg.sender].startDate = block.timestamp;\r\n        lockedTokensMap[msg.sender].endDate = endDate;\r\n        lockedTokensMap[msg.sender].amount = amount;\r\n\t\t\r\n\t\ttotalAmountStaked = totalAmountStaked.add(amount);\r\n\t\temit TokensLocked(msg.sender, amount, block.timestamp, endDate);\r\n\t\treturn true;\r\n\t}\r\n\t\r\n\t/**\r\n     * @dev User withdraws/releases his tokens after specified end date.\r\n\t * @return bool True if operation was successful.\r\n\t */\r\n\tfunction release() external returns (bool) {\r\n\t\t\r\n\t\trequire(lockedTokensMap[msg.sender].amount > 0, \"user has no locked tokens\");\r\n\t\trequire(lockedTokensMap[msg.sender].endDate <= block.timestamp, \"tokens release date not reached\");\r\n\t\t\r\n\t\tuint amount = lockedTokensMap[msg.sender].amount;\r\n\t\tlockedTokensMap[msg.sender].amount = 0;\r\n\t\ttotalAmountStaked = totalAmountStaked.sub(amount);\r\n\t\t\r\n\t\trequire(erc20.transfer(msg.sender, amount), \"transfer failed\");\r\n\t\temit TokensReleased(msg.sender, amount, block.timestamp);\r\n\t\treturn true;\r\n\t}\r\n\t\r\n\t/**\r\n     * @dev Check if locked tokens release date has come and user can withdraw them\r\n\t * @return bool True if lock end date was reached\r\n\t */\r\n\tfunction canRelease(address user) external view returns (bool) {\r\n\t\treturn (lockedTokensMap[user].endDate <= block.timestamp);\r\n\t}\r\n\t\r\n\t/**\r\n     * @dev Get locked tokens amount for a given address\r\n\t * @return uint256 Tokens amount for user address\r\n\t */\r\n\tfunction getLockedTokens(address user) external view returns (uint256) {\r\n\t\t\r\n\t\treturn lockedTokensMap[user].amount;\r\n    }\r\n\t\r\n    /// @dev Get locked tokens info for a given address\r\n\t/// @return startDate endDate amount Locked tokens info\r\n\tfunction getLockedTokensInfo(address user) external view returns (uint256 startDate, uint256 endDate, uint256 amount) {\r\n\t\t\r\n\t\tlockedTokensInfo memory info = lockedTokensMap[user];\r\n        return (info.startDate, info.endDate, info.amount);\r\n    }\r\n\t\r\n}",
  "sourcePath": "C:/Users/user/Desktop/sgoia.bepronetwork.bepro-js/contracts/ERC20TokenLock.sol",
  "compiler": {
    "name": "solc",
    "version": "0.6.2+commit.bacdbe57.Emscripten.clang"
  },
  "schemaVersion": "3.0.20",
  "updatedAt": "2021-05-04T14:23:00.937Z",
  "devdoc": {
    "methods": {
      "admin()": {
        "details": "Returns the admin address, usually the contract owner address.",
        "returns": {
          "_0": "address"
        }
      },
      "canRelease(address)": {
        "details": "Check if locked tokens release date has come and user can withdraw them",
        "returns": {
          "_0": "bool True if lock end date was reached"
        }
      },
      "constructor": {
        "details": "Constructor"
      },
      "getLockedTokens(address)": {
        "details": "Get locked tokens amount for a given address",
        "returns": {
          "_0": "uint256 Tokens amount for user address"
        }
      },
      "getLockedTokensInfo(address)": {
        "details": "Get locked tokens info for a given address",
        "returns": {
          "startDate": "endDate amount Locked tokens info"
        }
      },
      "lock(uint256,uint256)": {
        "details": "User locks his tokens until specified end date.",
        "params": {
          "amount": "Tokens amount to be locked.",
          "endDate": "Lock tokens until this end date."
        },
        "returns": {
          "_0": "bool True if operation was successful. REQUIREMENTS: user must have approved this contract to spend the tokens \"amount\" he wants to lock before calling this function."
        }
      },
      "paused()": {
        "details": "Returns true if the contract is paused, and false otherwise."
      },
      "release()": {
        "details": "User withdraws/releases his tokens after specified end date.",
        "returns": {
          "_0": "bool True if operation was successful."
        }
      },
      "setMaxAmountToLock(uint256)": {
        "details": "Admin sets maximum amount of tokens to lock per user.",
        "params": {
          "tokenAmount": "Maximum tokens amount."
        },
        "returns": {
          "_0": "bool True if operation was successful."
        }
      },
      "setMinAmountToLock(uint256)": {
        "details": "Admin sets minimum amount of tokens to lock per user.",
        "params": {
          "tokenAmount": "Minimum tokens amount."
        },
        "returns": {
          "_0": "bool True if operation was successful."
        }
      },
      "transferOwnership(address)": {
        "details": "Allows the current owner to transfer control of the contract to a newOwner.",
        "params": {
          "newOwner": "The address to transfer ownership to."
        }
      }
    }
  },
  "userdoc": {
    "methods": {}
  }
}