{
  "contractName": "ERC721Colectibles",
  "abi": [
    {
      "inputs": [
        {
          "internalType": "string",
          "name": "name",
          "type": "string"
        },
        {
          "internalType": "string",
          "name": "symbol",
          "type": "string"
        },
        {
          "internalType": "uint256",
          "name": "limitedAmount",
          "type": "uint256"
        },
        {
          "internalType": "contract ERC20",
          "name": "_purchaseToken",
          "type": "address"
        },
        {
          "internalType": "address",
          "name": "baseFeeAddress",
          "type": "address"
        },
        {
          "internalType": "address",
          "name": "feeAddress",
          "type": "address"
        },
        {
          "internalType": "address",
          "name": "otherAddress",
          "type": "address"
        }
      ],
      "stateMutability": "nonpayable",
      "type": "constructor"
    },
    {
      "anonymous": false,
      "inputs": [
        {
          "indexed": true,
          "internalType": "address",
          "name": "owner",
          "type": "address"
        },
        {
          "indexed": true,
          "internalType": "address",
          "name": "approved",
          "type": "address"
        },
        {
          "indexed": true,
          "internalType": "uint256",
          "name": "tokenId",
          "type": "uint256"
        }
      ],
      "name": "Approval",
      "type": "event"
    },
    {
      "anonymous": false,
      "inputs": [
        {
          "indexed": true,
          "internalType": "address",
          "name": "owner",
          "type": "address"
        },
        {
          "indexed": true,
          "internalType": "address",
          "name": "operator",
          "type": "address"
        },
        {
          "indexed": false,
          "internalType": "bool",
          "name": "approved",
          "type": "bool"
        }
      ],
      "name": "ApprovalForAll",
      "type": "event"
    },
    {
      "anonymous": false,
      "inputs": [
        {
          "indexed": true,
          "internalType": "address",
          "name": "from",
          "type": "address"
        },
        {
          "indexed": false,
          "internalType": "uint256",
          "name": "amount",
          "type": "uint256"
        },
        {
          "indexed": false,
          "internalType": "uint256",
          "name": "openedPacks",
          "type": "uint256"
        }
      ],
      "name": "Opening",
      "type": "event"
    },
    {
      "anonymous": false,
      "inputs": [
        {
          "indexed": true,
          "internalType": "address",
          "name": "previousOwner",
          "type": "address"
        },
        {
          "indexed": true,
          "internalType": "address",
          "name": "newOwner",
          "type": "address"
        }
      ],
      "name": "OwnershipTransferred",
      "type": "event"
    },
    {
      "anonymous": false,
      "inputs": [
        {
          "indexed": true,
          "internalType": "address",
          "name": "from",
          "type": "address"
        },
        {
          "indexed": true,
          "internalType": "address",
          "name": "to",
          "type": "address"
        },
        {
          "indexed": true,
          "internalType": "uint256",
          "name": "tokenId",
          "type": "uint256"
        }
      ],
      "name": "Transfer",
      "type": "event"
    },
    {
      "inputs": [],
      "name": "MAX_PURCHASE",
      "outputs": [
        {
          "internalType": "uint256",
          "name": "",
          "type": "uint256"
        }
      ],
      "stateMutability": "view",
      "type": "function"
    },
    {
      "inputs": [],
      "name": "_baseFeeAddress",
      "outputs": [
        {
          "internalType": "address",
          "name": "",
          "type": "address"
        }
      ],
      "stateMutability": "view",
      "type": "function"
    },
    {
      "inputs": [],
      "name": "_baseFeeShare",
      "outputs": [
        {
          "internalType": "uint256",
          "name": "",
          "type": "uint256"
        }
      ],
      "stateMutability": "view",
      "type": "function"
    },
    {
      "inputs": [],
      "name": "_closed",
      "outputs": [
        {
          "internalType": "bool",
          "name": "",
          "type": "bool"
        }
      ],
      "stateMutability": "view",
      "type": "function"
    },
    {
      "inputs": [],
      "name": "_currentTokenId",
      "outputs": [
        {
          "internalType": "uint256",
          "name": "",
          "type": "uint256"
        }
      ],
      "stateMutability": "view",
      "type": "function"
    },
    {
      "inputs": [],
      "name": "_feeAddress",
      "outputs": [
        {
          "internalType": "address",
          "name": "",
          "type": "address"
        }
      ],
      "stateMutability": "view",
      "type": "function"
    },
    {
      "inputs": [],
      "name": "_feeShare",
      "outputs": [
        {
          "internalType": "uint256",
          "name": "",
          "type": "uint256"
        }
      ],
      "stateMutability": "view",
      "type": "function"
    },
    {
      "inputs": [],
      "name": "_isLimited",
      "outputs": [
        {
          "internalType": "bool",
          "name": "",
          "type": "bool"
        }
      ],
      "stateMutability": "view",
      "type": "function"
    },
    {
      "inputs": [],
      "name": "_limitedAmount",
      "outputs": [
        {
          "internalType": "uint256",
          "name": "",
          "type": "uint256"
        }
      ],
      "stateMutability": "view",
      "type": "function"
    },
    {
      "inputs": [],
      "name": "_openedPacks",
      "outputs": [
        {
          "internalType": "uint256",
          "name": "",
          "type": "uint256"
        }
      ],
      "stateMutability": "view",
      "type": "function"
    },
    {
      "inputs": [],
      "name": "_otherAddress",
      "outputs": [
        {
          "internalType": "address",
          "name": "",
          "type": "address"
        }
      ],
      "stateMutability": "view",
      "type": "function"
    },
    {
      "inputs": [],
      "name": "_otherShare",
      "outputs": [
        {
          "internalType": "uint256",
          "name": "",
          "type": "uint256"
        }
      ],
      "stateMutability": "view",
      "type": "function"
    },
    {
      "inputs": [],
      "name": "_pricePerPack",
      "outputs": [
        {
          "internalType": "uint256",
          "name": "",
          "type": "uint256"
        }
      ],
      "stateMutability": "view",
      "type": "function"
    },
    {
      "inputs": [],
      "name": "_purchaseToken",
      "outputs": [
        {
          "internalType": "contract ERC20",
          "name": "",
          "type": "address"
        }
      ],
      "stateMutability": "view",
      "type": "function"
    },
    {
      "inputs": [
        {
          "internalType": "uint256",
          "name": "",
          "type": "uint256"
        }
      ],
      "name": "alreadyMinted",
      "outputs": [
        {
          "internalType": "bool",
          "name": "",
          "type": "bool"
        }
      ],
      "stateMutability": "view",
      "type": "function"
    },
    {
      "inputs": [
        {
          "internalType": "address",
          "name": "to",
          "type": "address"
        },
        {
          "internalType": "uint256",
          "name": "tokenId",
          "type": "uint256"
        }
      ],
      "name": "approve",
      "outputs": [],
      "stateMutability": "nonpayable",
      "type": "function"
    },
    {
      "inputs": [
        {
          "internalType": "address",
          "name": "owner",
          "type": "address"
        }
      ],
      "name": "balanceOf",
      "outputs": [
        {
          "internalType": "uint256",
          "name": "",
          "type": "uint256"
        }
      ],
      "stateMutability": "view",
      "type": "function"
    },
    {
      "inputs": [],
      "name": "baseURI",
      "outputs": [
        {
          "internalType": "string",
          "name": "",
          "type": "string"
        }
      ],
      "stateMutability": "view",
      "type": "function"
    },
    {
      "inputs": [
        {
          "internalType": "uint256",
          "name": "tokenId",
          "type": "uint256"
        }
      ],
      "name": "getApproved",
      "outputs": [
        {
          "internalType": "address",
          "name": "",
          "type": "address"
        }
      ],
      "stateMutability": "view",
      "type": "function"
    },
    {
      "inputs": [
        {
          "internalType": "address",
          "name": "owner",
          "type": "address"
        },
        {
          "internalType": "address",
          "name": "operator",
          "type": "address"
        }
      ],
      "name": "isApprovedForAll",
      "outputs": [
        {
          "internalType": "bool",
          "name": "",
          "type": "bool"
        }
      ],
      "stateMutability": "view",
      "type": "function"
    },
    {
      "inputs": [],
      "name": "lock",
      "outputs": [],
      "stateMutability": "nonpayable",
      "type": "function"
    },
    {
      "inputs": [],
      "name": "name",
      "outputs": [
        {
          "internalType": "string",
          "name": "",
          "type": "string"
        }
      ],
      "stateMutability": "view",
      "type": "function"
    },
    {
      "inputs": [],
      "name": "owner",
      "outputs": [
        {
          "internalType": "address",
          "name": "",
          "type": "address"
        }
      ],
      "stateMutability": "view",
      "type": "function"
    },
    {
      "inputs": [
        {
          "internalType": "uint256",
          "name": "tokenId",
          "type": "uint256"
        }
      ],
      "name": "ownerOf",
      "outputs": [
        {
          "internalType": "address",
          "name": "",
          "type": "address"
        }
      ],
      "stateMutability": "view",
      "type": "function"
    },
    {
      "inputs": [
        {
          "internalType": "address",
          "name": "",
          "type": "address"
        },
        {
          "internalType": "uint256",
          "name": "",
          "type": "uint256"
        }
      ],
      "name": "registeredIDs",
      "outputs": [
        {
          "internalType": "bool",
          "name": "",
          "type": "bool"
        }
      ],
      "stateMutability": "view",
      "type": "function"
    },
    {
      "inputs": [
        {
          "internalType": "address",
          "name": "",
          "type": "address"
        },
        {
          "internalType": "uint256",
          "name": "",
          "type": "uint256"
        }
      ],
      "name": "registeredIDsArray",
      "outputs": [
        {
          "internalType": "uint256",
          "name": "",
          "type": "uint256"
        }
      ],
      "stateMutability": "view",
      "type": "function"
    },
    {
      "inputs": [
        {
          "internalType": "address",
          "name": "from",
          "type": "address"
        },
        {
          "internalType": "address",
          "name": "to",
          "type": "address"
        },
        {
          "internalType": "uint256",
          "name": "tokenId",
          "type": "uint256"
        }
      ],
      "name": "safeTransferFrom",
      "outputs": [],
      "stateMutability": "nonpayable",
      "type": "function"
    },
    {
      "inputs": [
        {
          "internalType": "address",
          "name": "from",
          "type": "address"
        },
        {
          "internalType": "address",
          "name": "to",
          "type": "address"
        },
        {
          "internalType": "uint256",
          "name": "tokenId",
          "type": "uint256"
        },
        {
          "internalType": "bytes",
          "name": "_data",
          "type": "bytes"
        }
      ],
      "name": "safeTransferFrom",
      "outputs": [],
      "stateMutability": "nonpayable",
      "type": "function"
    },
    {
      "inputs": [
        {
          "internalType": "address",
          "name": "operator",
          "type": "address"
        },
        {
          "internalType": "bool",
          "name": "approved",
          "type": "bool"
        }
      ],
      "name": "setApprovalForAll",
      "outputs": [],
      "stateMutability": "nonpayable",
      "type": "function"
    },
    {
      "inputs": [
        {
          "internalType": "address",
          "name": "feeAddress",
          "type": "address"
        }
      ],
      "name": "setFeeAddress",
      "outputs": [],
      "stateMutability": "nonpayable",
      "type": "function"
    },
    {
      "inputs": [
        {
          "internalType": "address",
          "name": "otherAddress",
          "type": "address"
        }
      ],
      "name": "setOtherAddress",
      "outputs": [],
      "stateMutability": "nonpayable",
      "type": "function"
    },
    {
      "inputs": [
        {
          "internalType": "uint256",
          "name": "newPrice",
          "type": "uint256"
        }
      ],
      "name": "setPricePerPack",
      "outputs": [],
      "stateMutability": "nonpayable",
      "type": "function"
    },
    {
      "inputs": [
        {
          "internalType": "contract ERC20",
          "name": "purchaseToken",
          "type": "address"
        }
      ],
      "name": "setPurchaseTokenAddress",
      "outputs": [],
      "stateMutability": "nonpayable",
      "type": "function"
    },
    {
      "inputs": [
        {
          "internalType": "uint256",
          "name": "feeShare",
          "type": "uint256"
        },
        {
          "internalType": "uint256",
          "name": "otherShare",
          "type": "uint256"
        }
      ],
      "name": "setShares",
      "outputs": [],
      "stateMutability": "nonpayable",
      "type": "function"
    },
    {
      "inputs": [
        {
          "internalType": "bytes4",
          "name": "interfaceId",
          "type": "bytes4"
        }
      ],
      "name": "supportsInterface",
      "outputs": [
        {
          "internalType": "bool",
          "name": "",
          "type": "bool"
        }
      ],
      "stateMutability": "view",
      "type": "function"
    },
    {
      "inputs": [],
      "name": "symbol",
      "outputs": [
        {
          "internalType": "string",
          "name": "",
          "type": "string"
        }
      ],
      "stateMutability": "view",
      "type": "function"
    },
    {
      "inputs": [
        {
          "internalType": "uint256",
          "name": "index",
          "type": "uint256"
        }
      ],
      "name": "tokenByIndex",
      "outputs": [
        {
          "internalType": "uint256",
          "name": "",
          "type": "uint256"
        }
      ],
      "stateMutability": "view",
      "type": "function"
    },
    {
      "inputs": [
        {
          "internalType": "address",
          "name": "owner",
          "type": "address"
        },
        {
          "internalType": "uint256",
          "name": "index",
          "type": "uint256"
        }
      ],
      "name": "tokenOfOwnerByIndex",
      "outputs": [
        {
          "internalType": "uint256",
          "name": "",
          "type": "uint256"
        }
      ],
      "stateMutability": "view",
      "type": "function"
    },
    {
      "inputs": [
        {
          "internalType": "uint256",
          "name": "tokenId",
          "type": "uint256"
        }
      ],
      "name": "tokenURI",
      "outputs": [
        {
          "internalType": "string",
          "name": "",
          "type": "string"
        }
      ],
      "stateMutability": "view",
      "type": "function"
    },
    {
      "inputs": [],
      "name": "totalSupply",
      "outputs": [
        {
          "internalType": "uint256",
          "name": "",
          "type": "uint256"
        }
      ],
      "stateMutability": "view",
      "type": "function"
    },
    {
      "inputs": [
        {
          "internalType": "address",
          "name": "from",
          "type": "address"
        },
        {
          "internalType": "address",
          "name": "to",
          "type": "address"
        },
        {
          "internalType": "uint256",
          "name": "tokenId",
          "type": "uint256"
        }
      ],
      "name": "transferFrom",
      "outputs": [],
      "stateMutability": "nonpayable",
      "type": "function"
    },
    {
      "inputs": [
        {
          "internalType": "address",
          "name": "newOwner",
          "type": "address"
        }
      ],
      "name": "transferOwnership",
      "outputs": [],
      "stateMutability": "nonpayable",
      "type": "function"
    },
    {
      "inputs": [],
      "name": "unlock",
      "outputs": [],
      "stateMutability": "nonpayable",
      "type": "function"
    },
    {
      "inputs": [
        {
          "internalType": "uint256",
          "name": "tokenId",
          "type": "uint256"
        }
      ],
      "name": "exists",
      "outputs": [
        {
          "internalType": "bool",
          "name": "",
          "type": "bool"
        }
      ],
      "stateMutability": "view",
      "type": "function"
    },
    {
      "inputs": [
        {
          "internalType": "uint256",
          "name": "tokenId",
          "type": "uint256"
        },
        {
          "internalType": "string",
          "name": "uri",
          "type": "string"
        }
      ],
      "name": "setTokenURI",
      "outputs": [],
      "stateMutability": "nonpayable",
      "type": "function"
    },
    {
      "inputs": [
        {
          "internalType": "string",
          "name": "baseURI",
          "type": "string"
        }
      ],
      "name": "setBaseURI",
      "outputs": [],
      "stateMutability": "nonpayable",
      "type": "function"
    },
    {
      "inputs": [
        {
          "internalType": "uint256",
          "name": "tokenIdToMint",
          "type": "uint256"
        }
      ],
      "name": "mint",
      "outputs": [],
      "stateMutability": "nonpayable",
      "type": "function"
    },
    {
      "inputs": [
        {
          "internalType": "uint256",
          "name": "amount",
          "type": "uint256"
        }
      ],
      "name": "openPack",
      "outputs": [],
      "stateMutability": "nonpayable",
      "type": "function"
    },
    {
      "inputs": [
        {
          "internalType": "address",
          "name": "_address",
          "type": "address"
        }
      ],
      "name": "getRegisteredIDs",
      "outputs": [
        {
          "internalType": "uint256[]",
          "name": "",
          "type": "uint256[]"
        }
      ],
      "stateMutability": "view",
      "type": "function"
    }
  ],
  "bytecode": "0x60806040526004805460ff60a01b191690556103e8600555670de0b6b3a76400006007556001600b556063600c556000600d819055600a600e55600f805460ff191690556010553480156200005357600080fd5b506040516200315538038062003155833981810160405260e08110156200007957600080fd5b81019080805160405193929190846401000000008211156200009a57600080fd5b908301906020820185811115620000b057600080fd5b8251640100000000811182820188101715620000cb57600080fd5b82525081516020918201929091019080838360005b83811015620000fa578181015183820152602001620000e0565b50505050905090810190601f168015620001285780820380516001836020036101000a031916815260200191505b50604052602001805160405193929190846401000000008211156200014c57600080fd5b9083019060208201858111156200016257600080fd5b82516401000000008111828201881017156200017d57600080fd5b82525081516020918201929091019080838360005b83811015620001ac57818101518382015260200162000192565b50505050905090810190601f168015620001da5780820380516001836020036101000a031916815260200191505b5060409081526020820151908201516060830151608084015160a09094015160008054336001600160a01b0319918216179091556001805482166001600160a01b03808716919091179091556002805483168286161790556003805483168289161790556004805490921690831617905592955090935091908686858585858a801562000275576004805460ff60a01b1916600160a01b1790555b600655506200029992506301ffc9a760e01b9150506001600160e01b036200032516565b8151620002ae906017906020850190620003aa565b508051620002c4906018906020840190620003aa565b50620002e06380ac58cd60e01b6001600160e01b036200032516565b620002fb635b5e139f60e01b6001600160e01b036200032516565b6200031663780e9d6360e01b6001600160e01b036200032516565b5050505050505050506200044f565b6001600160e01b0319808216141562000385576040805162461bcd60e51b815260206004820152601c60248201527f4552433136353a20696e76616c696420696e7465726661636520696400000000604482015290519081900360640190fd5b6001600160e01b0319166000908152601160205260409020805460ff19166001179055565b828054600181600116156101000203166002900490600052602060002090601f016020900481019282601f10620003ed57805160ff19168380011785556200041d565b828001600101855582156200041d579182015b828111156200041d57825182559160200191906001019062000400565b506200042b9291506200042f565b5090565b6200044c91905b808211156200042b576000815560010162000436565b90565b612cf6806200045f6000396000f3fe608060405234801561001057600080fd5b50600436106102bb5760003560e01c80636c0360eb11610182578063a69df4b5116100e9578063dd7c5e54116100a2578063f24a9e4e1161007c578063f24a9e4e146109d9578063f2fde38b146109e1578063f4d3698614610a07578063f83d08ba14610a2d576102bb565b8063dd7c5e541461099b578063e985e9c5146109a3578063eb8800d0146109d1576102bb565b8063a69df4b514610883578063b7365f1f1461088b578063b88d4fde146108a8578063c3a9896d1461096e578063c87b56dd14610976578063c963483c14610993576102bb565b80638da5cb5b1161013b5780638da5cb5b146108035780639456b2321461080b57806395d89b411461081357806398bdd8031461081b578063a0712d6814610838578063a22cb46514610855576102bb565b80636c0360eb1461079757806370a082311461079f5780637146bd08146107c5578063759b2b3c146107cd578063790411be146107d55780638705fcd4146107dd576102bb565b80632aca3e7d116102265780634f6ccce7116101df5780634f6ccce71461068a57806350a88c7e146106a757806353facd01146106c457806355f804b3146106cc5780636352211e1461077257806369c7d8a31461078f576102bb565b80632aca3e7d1461056a5780632c6860301461058d5780632f745c59146106035780632f80f7501461062f57806342842e0e146106375780634f558e791461066d576102bb565b8063095ea7b311610278578063095ea7b3146103ff578063162094c41461042d57806318160ddd146104da5780631e14a533146104e257806323b872dd1461050e578063298489d214610544576102bb565b80630119b740146102c05780630135f740146102dc57806301d243a61461030057806301ffc9a71461033e57806306fdde0314610365578063081812fc146103e2575b600080fd5b6102c8610a35565b604080519115158252519081900360200190f35b6102e4610a45565b604080516001600160a01b039092168252519081900360200190f35b61032c6004803603604081101561031657600080fd5b506001600160a01b038135169060200135610a54565b60408051918252519081900360200190f35b6102c86004803603602081101561035457600080fd5b50356001600160e01b031916610a82565b61036d610aa5565b6040805160208082528351818301528351919283929083019185019080838360005b838110156103a757818101518382015260200161038f565b50505050905090810190601f1680156103d45780820380516001836020036101000a031916815260200191505b509250505060405180910390f35b6102e4600480360360208110156103f857600080fd5b5035610b3c565b61042b6004803603604081101561041557600080fd5b506001600160a01b038135169060200135610b9e565b005b61042b6004803603604081101561044357600080fd5b8135919081019060408101602082013564010000000081111561046557600080fd5b82018360208201111561047757600080fd5b8035906020019184600183028401116401000000008311171561049957600080fd5b91908080601f016020809104026020016040519081016040528093929190818152602001838380828437600092019190915250929550610c79945050505050565b61032c610c9e565b6102c8600480360360408110156104f857600080fd5b506001600160a01b038135169060200135610caf565b61042b6004803603606081101561052457600080fd5b506001600160a01b03813581169160208101359091169060400135610ccf565b61042b6004803603602081101561055a57600080fd5b50356001600160a01b0316610d26565b61042b6004803603604081101561058057600080fd5b5080359060200135610d5f565b6105b3600480360360208110156105a357600080fd5b50356001600160a01b0316610dd1565b60408051602080825283518183015283519192839290830191858101910280838360005b838110156105ef5781810151838201526020016105d7565b505050509050019250505060405180910390f35b61032c6004803603604081101561061957600080fd5b506001600160a01b038135169060200135610e3d565b6102e4610e6e565b61042b6004803603606081101561064d57600080fd5b506001600160a01b03813581169160208101359091169060400135610e7d565b6102c86004803603602081101561068357600080fd5b5035610e98565b61032c600480360360208110156106a057600080fd5b5035610ea3565b61042b600480360360208110156106bd57600080fd5b5035610ebf565b61032c610ecb565b61042b600480360360208110156106e257600080fd5b8101906020810181356401000000008111156106fd57600080fd5b82018360208201111561070f57600080fd5b8035906020019184600183028401116401000000008311171561073157600080fd5b91908080601f016020809104026020016040519081016040528093929190818152602001838380828437600092019190915250929550610ed1945050505050565b6102e46004803603602081101561078857600080fd5b5035610ef1565b6102e4610f1f565b61036d610f2e565b61032c600480360360208110156107b557600080fd5b50356001600160a01b0316610f8f565b61032c610ff7565b61032c610ffd565b61032c611003565b61042b600480360360208110156107f357600080fd5b50356001600160a01b0316611009565b6102e4611042565b6102e4611051565b61036d611060565b61042b6004803603602081101561083157600080fd5b50356110c1565b61042b6004803603602081101561084e57600080fd5b50356110dd565b61042b6004803603604081101561086b57600080fd5b506001600160a01b0381351690602001351515611205565b61042b61130a565b6102c8600480360360208110156108a157600080fd5b503561132d565b61042b600480360360808110156108be57600080fd5b6001600160a01b038235811692602081013590911691604082013591908101906080810160608201356401000000008111156108f957600080fd5b82018360208201111561090b57600080fd5b8035906020019184600183028401116401000000008311171561092d57600080fd5b91908080601f016020809104026020016040519081016040528093929190818152602001838380828437600092019190915250929550611342945050505050565b61032c6113a0565b61036d6004803603602081101561098c57600080fd5b50356113a6565b61032c611629565b6102c861162f565b6102c8600480360360408110156109b957600080fd5b506001600160a01b0381358116916020013516611638565b61032c611666565b61032c61166c565b61042b600480360360208110156109f757600080fd5b50356001600160a01b0316611672565b61042b60048036036020811015610a1d57600080fd5b50356001600160a01b03166116f7565b61042b611730565b600454600160a01b900460ff1681565b6003546001600160a01b031681565b60096020528160005260406000208181548110610a6d57fe5b90600052602060002001600091509150505481565b6001600160e01b0319811660009081526011602052604090205460ff165b919050565b60178054604080516020601f6002600019610100600188161502019095169490940493840181900481028201810190925282815260609390929091830182828015610b315780601f10610b0657610100808354040283529160200191610b31565b820191906000526020600020905b815481529060010190602001808311610b1457829003601f168201915b505050505090505b90565b6000610b4782611756565b610b825760405162461bcd60e51b815260040180806020018281038252602c815260200180612b8d602c913960400191505060405180910390fd5b506000908152601560205260409020546001600160a01b031690565b6000610ba982610ef1565b9050806001600160a01b0316836001600160a01b03161415610bfc5760405162461bcd60e51b8152600401808060200182810382526021815260200180612c6f6021913960400191505060405180910390fd5b806001600160a01b0316610c0e611769565b6001600160a01b03161480610c2f5750610c2f81610c2a611769565b611638565b610c6a5760405162461bcd60e51b8152600401808060200182810382526038815260200180612abf6038913960400191505060405180910390fd5b610c74838361176d565b505050565b6000546001600160a01b03163314610c9057600080fd5b610c9a82826117db565b5050565b6000610caa601361183e565b905090565b600860209081526000928352604080842090915290825290205460ff1681565b610ce0610cda611769565b82611849565b610d1b5760405162461bcd60e51b8152600401808060200182810382526031815260200180612c906031913960400191505060405180910390fd5b610c748383836118ed565b6000546001600160a01b03163314610d3d57600080fd5b600180546001600160a01b0319166001600160a01b0392909216919091179055565b6000546001600160a01b03163314610d7657600080fd5b600b5482820101606414610dc9576040805162461bcd60e51b81526020600482015260156024820152740446f65736e27742061646420757020746f2031303605c1b604482015290519081900360640190fd5b600d55600c55565b6001600160a01b038116600090815260096020908152604091829020805483518184028101840190945280845260609392830182828015610e3157602002820191906000526020600020905b815481526020019060010190808311610e1d575b50505050509050919050565b6001600160a01b0382166000908152601260205260408120610e65908363ffffffff611a4b16565b90505b92915050565b6004546001600160a01b031681565b610c7483838360405180602001604052806000815250611342565b6000610e6882611756565b600080610eb760138463ffffffff611a5716565b509392505050565b610ec881611a73565b50565b600b5481565b6000546001600160a01b03163314610ee857600080fd5b610ec881611d57565b6000610e6882604051806060016040528060298152602001612b21602991396013919063ffffffff611d6a16565b6001546001600160a01b031681565b601a8054604080516020601f6002600019610100600188161502019095169490940493840181900481028201810190925282815260609390929091830182828015610b315780601f10610b0657610100808354040283529160200191610b31565b60006001600160a01b038216610fd65760405162461bcd60e51b815260040180806020018281038252602a815260200180612af7602a913960400191505060405180910390fd5b6001600160a01b0382166000908152601260205260409020610e689061183e565b600e5481565b60065481565b60075481565b6000546001600160a01b0316331461102057600080fd5b600380546001600160a01b0319166001600160a01b0392909216919091179055565b6000546001600160a01b031681565b6002546001600160a01b031681565b60188054604080516020601f6002600019610100600188161502019095169490940493840181900481028201810190925282815260609390929091830182828015610b315780601f10610b0657610100808354040283529160200191610b31565b6000546001600160a01b031633146110d857600080fd5b600755565b600554811115611134576040805162461bcd60e51b815260206004820152601760248201527f546f6b656e204964206e6f742072656769737465726564000000000000000000604482015290519081900360640190fd5b33600090815260086020908152604080832084845290915290205460ff1661118d5760405162461bcd60e51b8152600401808060200182810382526032815260200180612be56032913960400191505060405180910390fd5b6000818152600a602052604090205460ff16156111e2576040805162461bcd60e51b815260206004820152600e60248201526d105b1c9958591e481b5a5b9d195960921b604482015290519081900360640190fd5b6000818152600a60205260409020805460ff19166001179055610ec83382611d81565b61120d611769565b6001600160a01b0316826001600160a01b03161415611273576040805162461bcd60e51b815260206004820152601960248201527f4552433732313a20617070726f766520746f2063616c6c657200000000000000604482015290519081900360640190fd5b8060166000611280611769565b6001600160a01b03908116825260208083019390935260409182016000908120918716808252919093529120805460ff1916921515929092179091556112c4611769565b60408051841515815290516001600160a01b0392909216917f17307eab39ab6107e8899845ad3d59bd9653f200f220920489ca2b5937696c319181900360200190a35050565b6000546001600160a01b0316331461132157600080fd5b600f805460ff19169055565b600a6020526000908152604090205460ff1681565b61135361134d611769565b83611849565b61138e5760405162461bcd60e51b8152600401808060200182810382526031815260200180612c906031913960400191505060405180910390fd5b61139a84848484611d9b565b50505050565b600c5481565b60606113b182611756565b6113ec5760405162461bcd60e51b815260040180806020018281038252602f815260200180612c40602f913960400191505060405180910390fd5b60008281526019602090815260409182902080548351601f60026000196101006001861615020190931692909204918201849004840281018401909452808452606093928301828280156114815780601f1061145657610100808354040283529160200191611481565b820191906000526020600020905b81548152906001019060200180831161146457829003601f168201915b505050505090506060611492610f2e565b90508051600014156114a657509050610aa0565b8151156115675780826040516020018083805190602001908083835b602083106114e15780518252601f1990920191602091820191016114c2565b51815160209384036101000a600019018019909216911617905285519190930192850191508083835b602083106115295780518252601f19909201916020918201910161150a565b6001836020036101000a0380198251168184511680821785525050505050509050019250505060405160208183030381529060405292505050610aa0565b8061157185611ded565b6040516020018083805190602001908083835b602083106115a35780518252601f199092019160209182019101611584565b51815160209384036101000a600019018019909216911617905285519190930192850191508083835b602083106115eb5780518252601f1990920191602091820191016115cc565b6001836020036101000a0380198251168184511680821785525050505050509050019250505060405160208183030381529060405292505050919050565b60055481565b600f5460ff1681565b6001600160a01b03918216600090815260166020908152604080832093909416825291909152205460ff1690565b60105481565b600d5481565b6000546001600160a01b0316331461168957600080fd5b6001600160a01b03811661169c57600080fd5b600080546040516001600160a01b03808516939216917f8be0079c531659141344cd1fd0a4f28419497f9722a3daafe3b4186f6b6457e091a3600080546001600160a01b0319166001600160a01b0392909216919091179055565b6000546001600160a01b0316331461170e57600080fd5b600480546001600160a01b0319166001600160a01b0392909216919091179055565b6000546001600160a01b0316331461174757600080fd5b600f805460ff19166001179055565b6000610e6860138363ffffffff611eb116565b3390565b600081815260156020526040902080546001600160a01b0319166001600160a01b03841690811790915581906117a282610ef1565b6001600160a01b03167f8c5be1e5ebec7d5bd14f71427d1e84f3dd0314c0f7b2291e5b200ac8c7c3b92560405160405180910390a45050565b6117e482611756565b61181f5760405162461bcd60e51b815260040180806020018281038252602c815260200180612bb9602c913960400191505060405180910390fd5b60008281526019602090815260409091208251610c7492840190612982565b6000610e6882611ebd565b600061185482611756565b61188f5760405162461bcd60e51b815260040180806020018281038252602c815260200180612a93602c913960400191505060405180910390fd5b600061189a83610ef1565b9050806001600160a01b0316846001600160a01b031614806118d55750836001600160a01b03166118ca84610b3c565b6001600160a01b0316145b806118e557506118e58185611638565b949350505050565b826001600160a01b031661190082610ef1565b6001600160a01b0316146119455760405162461bcd60e51b8152600401808060200182810382526029815260200180612c176029913960400191505060405180910390fd5b6001600160a01b03821661198a5760405162461bcd60e51b8152600401808060200182810382526024815260200180612a6f6024913960400191505060405180910390fd5b611995838383610c74565b6119a060008261176d565b6001600160a01b03831660009081526012602052604090206119c8908263ffffffff611ec116565b506001600160a01b03821660009081526012602052604090206119f1908263ffffffff611ecd16565b50611a046013828463ffffffff611ed916565b5080826001600160a01b0316846001600160a01b03167fddf252ad1be2c89b69c2b068fc378daa952ba7f163c4a11628f55a4df523b3ef60405160405180910390a4505050565b6000610e658383611eef565b6000808080611a668686611f53565b9097909650945050505050565b600f5460ff1615611abe576040805162461bcd60e51b815260206004820152601060248201526f13dc195b995c881a5cc81b1bd8dad95960821b604482015290519081900360640190fd5b600754600090611ad4908363ffffffff611fce16565b60015460408051636eb1769f60e11b8152336004820152306024820152905192935083926001600160a01b039092169163dd62ed3e91604480820192602092909190829003018186803b158015611b2a57600080fd5b505afa158015611b3e573d6000803e3d6000fd5b505050506040513d6020811015611b5457600080fd5b50511015611ba9576040805162461bcd60e51b815260206004820152601960248201527f4e6f7420656e6f756768206d6f6e657920706572207061636b00000000000000604482015290519081900360640190fd5b600e543390831115611c02576040805162461bcd60e51b815260206004820152601b60248201527f4d61782070757263686173652070657220747820726561636865640000000000604482015290519081900360640190fd5b600454600160a01b900460ff1615611c7d57601054611c27908463ffffffff61202716565b6006541015611c7d576040805162461bcd60e51b815260206004820152601d60248201527f416d6f756e74206f66207061636b73206e6f7420617661696c61626c65000000604482015290519081900360640190fd5b611c878183612081565b60105460408051858152602081019290925280516001600160a01b038416927f836ddd803a6e03cf1f1512425a9f88798f8287a3b75501d3c552810c8b1142d792908290030190a260108054840190556005545b600554611cee908563ffffffff61202716565b811015611d3c573360008181526008602090815260408083208584528252808320805460ff191660019081179091559383526009825282208054808501825590835291200182905501611cdb565b506005805484019055600754606490606d0204600755505050565b8051610c9a90601a906020840190612982565b6000611d7784848461225b565b90505b9392505050565b610c9a828260405180602001604052806000815250612325565b611da68484846118ed565b611db284848484612377565b61139a5760405162461bcd60e51b8152600401808060200182810382526032815260200180612a3d6032913960400191505060405180910390fd5b606081611e1257506040805180820190915260018152600360fc1b6020820152610aa0565b8160005b8115611e2a57600101600a82049150611e16565b6060816040519080825280601f01601f191660200182016040528015611e57576020820181803883390190505b50859350905060001982015b8315611ea857600a840660300160f81b82828060019003935081518110611e8657fe5b60200101906001600160f81b031916908160001a905350600a84049350611e63565b50949350505050565b6000610e6583836124f7565b5490565b6000610e65838361250f565b6000610e6583836125d5565b6000611d7784846001600160a01b03851661261f565b81546000908210611f315760405162461bcd60e51b8152600401808060200182810382526022815260200180612a1b6022913960400191505060405180910390fd5b826000018281548110611f4057fe5b9060005260206000200154905092915050565b815460009081908310611f975760405162461bcd60e51b8152600401808060200182810382526022815260200180612b4a6022913960400191505060405180910390fd5b6000846000018481548110611fa857fe5b906000526020600020906002020190508060000154816001015492509250509250929050565b600082611fdd57506000610e68565b82820282848281611fea57fe5b0414610e655760405162461bcd60e51b8152600401808060200182810382526021815260200180612b6c6021913960400191505060405180910390fd5b600082820183811015610e65576040805162461bcd60e51b815260206004820152601b60248201527f536166654d6174683a206164646974696f6e206f766572666c6f770000000000604482015290519081900360640190fd5b600154600254600b54604080516323b872dd60e01b81526001600160a01b038781166004830152938416602482015260649286028390046044820152905192909316926323b872dd92818301926020928290030181600087803b1580156120e757600080fd5b505af11580156120fb573d6000803e3d6000fd5b505050506040513d602081101561211157600080fd5b5050600c546001600160a01b0316156121b757600154600354600c54604080516323b872dd60e01b81526001600160a01b038781166004830152938416602482015260649286028390046044820152905192909316926323b872dd92818301926020928290030181600087803b15801561218a57600080fd5b505af115801561219e573d6000803e3d6000fd5b505050506040513d60208110156121b457600080fd5b50505b6004546001600160a01b031615610c9a5760015460048054600d54604080516323b872dd60e01b81526001600160a01b03888116958201959095529284166024840152606491860282900460448401525192909316926323b872dd9282820192602092908290030181600087803b15801561223157600080fd5b505af1158015612245573d6000803e3d6000fd5b505050506040513d602081101561139a57600080fd5b600082815260018401602052604081205482816122f65760405162461bcd60e51b81526004018080602001828103825283818151815260200191508051906020019080838360005b838110156122bb5781810151838201526020016122a3565b50505050905090810190601f1680156122e85780820380516001836020036101000a031916815260200191505b509250505060405180910390fd5b5084600001600182038154811061230957fe5b9060005260206000209060020201600101549150509392505050565b61232f83836126b6565b61233c6000848484612377565b610c745760405162461bcd60e51b8152600401808060200182810382526032815260200180612a3d6032913960400191505060405180910390fd5b600061238b846001600160a01b03166127f0565b612397575060016118e5565b60606124bd630a85bd0160e11b6123ac611769565b88878760405160240180856001600160a01b03166001600160a01b03168152602001846001600160a01b03166001600160a01b0316815260200183815260200180602001828103825283818151815260200191508051906020019080838360005b8381101561242557818101518382015260200161240d565b50505050905090810190601f1680156124525780820380516001836020036101000a031916815260200191505b5095505050505050604051602081830303815290604052906001600160e01b0319166020820180516001600160e01b038381831617835250505050604051806060016040528060328152602001612a3d603291396001600160a01b038816919063ffffffff6127f616565b905060008180602001905160208110156124d657600080fd5b50516001600160e01b031916630a85bd0160e11b1492505050949350505050565b60009081526001919091016020526040902054151590565b600081815260018301602052604081205480156125cb578354600019808301919081019060009087908390811061254257fe5b906000526020600020015490508087600001848154811061255f57fe5b60009182526020808320909101929092558281526001898101909252604090209084019055865487908061258f57fe5b60019003818190600052602060002001600090559055866001016000878152602001908152602001600020600090556001945050505050610e68565b6000915050610e68565b60006125e183836124f7565b61261757508154600181810184556000848152602080822090930184905584548482528286019093526040902091909155610e68565b506000610e68565b600082815260018401602052604081205480612684575050604080518082018252838152602080820184815286546001818101895560008981528481209551600290930290950191825591519082015586548684528188019092529290912055611d7a565b8285600001600183038154811061269757fe5b9060005260206000209060020201600101819055506000915050611d7a565b6001600160a01b038216612711576040805162461bcd60e51b815260206004820181905260248201527f4552433732313a206d696e7420746f20746865207a65726f2061646472657373604482015290519081900360640190fd5b61271a81611756565b1561276c576040805162461bcd60e51b815260206004820152601c60248201527f4552433732313a20746f6b656e20616c7265616479206d696e74656400000000604482015290519081900360640190fd5b61277860008383610c74565b6001600160a01b03821660009081526012602052604090206127a0908263ffffffff611ecd16565b506127b36013828463ffffffff611ed916565b5060405181906001600160a01b038416906000907fddf252ad1be2c89b69c2b068fc378daa952ba7f163c4a11628f55a4df523b3ef908290a45050565b3b151590565b6060611d7784846000858561280a856127f0565b61285b576040805162461bcd60e51b815260206004820152601d60248201527f416464726573733a2063616c6c20746f206e6f6e2d636f6e7472616374000000604482015290519081900360640190fd5b60006060866001600160a01b031685876040518082805190602001908083835b6020831061289a5780518252601f19909201916020918201910161287b565b6001836020036101000a03801982511681845116808217855250505050505090500191505060006040518083038185875af1925050503d80600081146128fc576040519150601f19603f3d011682016040523d82523d6000602084013e612901565b606091505b509150915061291182828661291c565b979650505050505050565b6060831561292b575081611d7a565b82511561293b5782518084602001fd5b60405162461bcd60e51b81526020600482018181528451602484015284518593919283926044019190850190808383600083156122bb5781810151838201526020016122a3565b828054600181600116156101000203166002900490600052602060002090601f016020900481019282601f106129c357805160ff19168380011785556129f0565b828001600101855582156129f0579182015b828111156129f05782518255916020019190600101906129d5565b506129fc929150612a00565b5090565b610b3991905b808211156129fc5760008155600101612a0656fe456e756d657261626c655365743a20696e646578206f7574206f6620626f756e64734552433732313a207472616e7366657220746f206e6f6e20455243373231526563656976657220696d706c656d656e7465724552433732313a207472616e7366657220746f20746865207a65726f20616464726573734552433732313a206f70657261746f7220717565727920666f72206e6f6e6578697374656e7420746f6b656e4552433732313a20617070726f76652063616c6c6572206973206e6f74206f776e6572206e6f7220617070726f76656420666f7220616c6c4552433732313a2062616c616e636520717565727920666f7220746865207a65726f20616464726573734552433732313a206f776e657220717565727920666f72206e6f6e6578697374656e7420746f6b656e456e756d657261626c654d61703a20696e646578206f7574206f6620626f756e6473536166654d6174683a206d756c7469706c69636174696f6e206f766572666c6f774552433732313a20617070726f76656420717565727920666f72206e6f6e6578697374656e7420746f6b656e4552433732314d657461646174613a2055524920736574206f66206e6f6e6578697374656e7420746f6b656e546f6b656e20776173206e6f742072656769737465726564206f72206e6f742074686520726967687466756c206f776e65724552433732313a207472616e73666572206f6620746f6b656e2074686174206973206e6f74206f776e4552433732314d657461646174613a2055524920717565727920666f72206e6f6e6578697374656e7420746f6b656e4552433732313a20617070726f76616c20746f2063757272656e74206f776e65724552433732313a207472616e736665722063616c6c6572206973206e6f74206f776e6572206e6f7220617070726f766564a2646970667358221220f0a3d3022971e56a5606c9e3fe6cfc2ca96359f4c221736b797bb5577ca1b34c64736f6c63430006020033",
  "source": "// SPDX-License-Identifier: MIT\n\npragma solidity >=0.6.0;\n\nimport \"@openzeppelin/contracts/token/ERC721/ERC721.sol\";\nimport \"@openzeppelin/contracts/token/ERC20/ERC20.sol\";\nimport \"./utils/Ownable.sol\";\n\ncontract Opener is  Ownable {\n    using SafeMath for uint256;\n\n    ERC20 public _purchaseToken;\n    address public _baseFeeAddress;\n    address public _feeAddress;\n    address public _otherAddress;\n    bool public _isLimited = false;\n    uint256 public _currentTokenId = 1000;\n    uint256 public _limitedAmount;\n    uint256 public _pricePerPack = 1*10**18;\n\n    // Mapping from address to bool, if egg was already claimed\n    // The hash is about the userId and the nftIds array\n    mapping(address => mapping(uint256 => bool)) public registeredIDs;\n    mapping(address => uint256[]) public registeredIDsArray;\n    mapping(uint256 => bool) public alreadyMinted;\n\n    event Opening(address indexed from, uint256 amount, uint256 openedPacks);\n\n    uint256 public _baseFeeShare = 1;\n    uint256 public _feeShare = 99;\n    uint256 public _otherShare = 0;\n    uint256 public MAX_PURCHASE = 10;\n\n    bool public _closed = false;\n    uint256 public _openedPacks = 0;\n\n    constructor(\n        ERC20 purchaseToken,\n        address baseFeeAddress,\n        address feeAddress,\n        address otherAddress,\n        uint256 limitedAmount\n    ) public {\n        _purchaseToken = purchaseToken;\n        _baseFeeAddress = baseFeeAddress;\n        _feeAddress = feeAddress;\n        _otherAddress = otherAddress;\n        if(limitedAmount != 0){\n            _isLimited = true;\n        }\n        _limitedAmount = limitedAmount;\n    }\n\n    function _openPack(uint256 amount) internal {\n        require(!_closed, \"Opener is locked\");\n        uint256 totalPrice = _pricePerPack.mul(amount);\n\n        require(_purchaseToken.allowance(msg.sender, address(this)) >= totalPrice, \"Not enough money per pack\");\n\n        address from = msg.sender;\n\n        require(amount <= MAX_PURCHASE, \"Max purchase per tx reached\");\n\n        if(_isLimited){\n            require(_limitedAmount >= _openedPacks.add(amount), \"Amount of packs not available\");\n        }\n\n        _distributePackShares(from, totalPrice);\n\n        emit Opening(from, amount, _openedPacks);\n        _openedPacks += amount;\n\n        for(uint i = _currentTokenId; i < _currentTokenId.add(amount); i++){\n            registeredIDs[msg.sender][i] = true;\n            registeredIDsArray[msg.sender].push(i);\n        }\n\n        _currentTokenId += amount;\n        _pricePerPack = _pricePerPack*109/100;\n    }\n\n    function _distributePackShares(address from, uint256 amount) internal {\n        //transfer of fee share\n        _purchaseToken.transferFrom(from, _baseFeeAddress, (amount * _baseFeeShare) / 100);\n\n        if(address(_feeShare) != address(0)){\n            //transfer of stake share\n            _purchaseToken.transferFrom(\n                from,\n                _feeAddress,\n                (amount * _feeShare) / 100\n            );\n        }\n\n        if(address(_otherAddress) != address(0)){\n            //transfer of stake share\n            _purchaseToken.transferFrom(\n                from,\n                _otherAddress,\n                (amount * _otherShare) / 100\n            );\n        }\n    }\n\n    function setShares(\n        uint256 feeShare,\n        uint256 otherShare\n    ) public onlyOwner {\n        require(\n            otherShare + feeShare + _baseFeeShare == 100,\n            \"Doesn't add up to 100\"\n        );\n\n        _otherShare = otherShare;\n        _feeShare = feeShare;\n    }\n\n\n    function setPurchaseTokenAddress(ERC20 purchaseToken) public onlyOwner {\n        _purchaseToken = purchaseToken;\n    }\n\n    function setPricePerPack(uint256 newPrice) public onlyOwner {\n        _pricePerPack = newPrice;\n    }\n\n    function setFeeAddress(address feeAddress) public onlyOwner {\n        _feeAddress = feeAddress;\n    }\n\n    function setOtherAddress(address otherAddress) public onlyOwner {\n        _otherAddress = otherAddress;\n    }\n\n    function lock() public onlyOwner {\n        _closed = true;\n    }\n\n    function unlock() public onlyOwner {\n        _closed = false;\n    }\n}\n\n// ERC721Standard made for a simple structure, owner generates himself the NFT he wants (direct minting)\ncontract ERC721Standard is ERC721, Ownable {\n\n    constructor (string memory name, string memory symbol) public ERC721(name, symbol) { }\n\n    function exists(uint256 tokenId) public view returns (bool) {\n        return _exists(tokenId);\n    }\n\n    function setTokenURI(uint256 tokenId, string memory uri) public onlyOwner {\n        _setTokenURI(tokenId, uri);\n    }\n\n    function setBaseURI(string memory baseURI) public onlyOwner {\n        _setBaseURI(baseURI);\n    }\n\n    function mint(address to, uint256 tokenId) public onlyOwner {\n        _safeMint(to, tokenId);\n    }\n\n    function mint(address to, uint256 tokenId, bytes memory _data) public onlyOwner {\n        _safeMint(to, tokenId, _data);\n    }\n}\n\n// ERC721Colectibles made for a Cryptokitties/Polkamon like structure, where an hash is given by the owner based on a purchase of a package\n// Can be limited or unlimited\ncontract ERC721Colectibles is Opener, ERC721 {\n\n    constructor (\n        string memory name, string memory symbol,\n        uint256 limitedAmount,\n        ERC20 _purchaseToken,\n        address baseFeeAddress,\n        address feeAddress,\n        address otherAddress) public ERC721(name, symbol) \n        Opener(_purchaseToken, baseFeeAddress, feeAddress, otherAddress, limitedAmount)\n    {\n    }\n\n    function exists(uint256 tokenId) public view returns (bool) {\n        return _exists(tokenId);\n    }\n\n    function setTokenURI(uint256 tokenId, string memory uri) public onlyOwner {\n        _setTokenURI(tokenId, uri);\n    }\n\n    function setBaseURI(string memory baseURI) public onlyOwner {\n        _setBaseURI(baseURI);\n    }\n\n    function mint(uint256 tokenIdToMint) public {\n        require(\n            tokenIdToMint <= _currentTokenId, \n            \"Token Id not registered\"\n        );\n\n        require(registeredIDs[msg.sender][tokenIdToMint], \"Token was not registered or not the rightful owner\");\n        require(!alreadyMinted[tokenIdToMint], \"Already minted\");\n\n        alreadyMinted[tokenIdToMint] = true;\n        _safeMint(msg.sender, tokenIdToMint);\n    }\n\n    function openPack(uint256 amount) public {\n        _openPack(amount);\n    }\n\n    function getRegisteredIDs(address _address) public view returns(uint256[] memory) {\n        return registeredIDsArray[_address];\n    }\n}",
  "sourcePath": "/Users/ruipedro/Desktop/projects/Bepro/@bepro-js/contracts/ERC721Factory.sol",
  "compiler": {
    "name": "solc",
    "version": "0.6.2+commit.bacdbe57.Emscripten.clang"
  },
  "schemaVersion": "3.0.20",
  "updatedAt": "2021-05-11T16:04:02.410Z",
  "devdoc": {
    "methods": {
      "approve(address,uint256)": {
        "details": "See {IERC721-approve}."
      },
      "balanceOf(address)": {
        "details": "See {IERC721-balanceOf}."
      },
      "baseURI()": {
        "details": "Returns the base URI set via {_setBaseURI}. This will be automatically added as a prefix in {tokenURI} to each token's URI, or to the token ID if no specific URI is set for that token ID."
      },
      "getApproved(uint256)": {
        "details": "See {IERC721-getApproved}."
      },
      "isApprovedForAll(address,address)": {
        "details": "See {IERC721-isApprovedForAll}."
      },
      "name()": {
        "details": "See {IERC721Metadata-name}."
      },
      "ownerOf(uint256)": {
        "details": "See {IERC721-ownerOf}."
      },
      "safeTransferFrom(address,address,uint256)": {
        "details": "See {IERC721-safeTransferFrom}."
      },
      "safeTransferFrom(address,address,uint256,bytes)": {
        "details": "See {IERC721-safeTransferFrom}."
      },
      "setApprovalForAll(address,bool)": {
        "details": "See {IERC721-setApprovalForAll}."
      },
      "supportsInterface(bytes4)": {
        "details": "See {IERC165-supportsInterface}.     * Time complexity O(1), guaranteed to always use less than 30 000 gas."
      },
      "symbol()": {
        "details": "See {IERC721Metadata-symbol}."
      },
      "tokenByIndex(uint256)": {
        "details": "See {IERC721Enumerable-tokenByIndex}."
      },
      "tokenOfOwnerByIndex(address,uint256)": {
        "details": "See {IERC721Enumerable-tokenOfOwnerByIndex}."
      },
      "tokenURI(uint256)": {
        "details": "See {IERC721Metadata-tokenURI}."
      },
      "totalSupply()": {
        "details": "See {IERC721Enumerable-totalSupply}."
      },
      "transferFrom(address,address,uint256)": {
        "details": "See {IERC721-transferFrom}."
      },
      "transferOwnership(address)": {
        "details": "Allows the current owner to transfer control of the contract to a newOwner.",
        "params": {
          "newOwner": "The address to transfer ownership to."
        }
      }
    }
  },
  "userdoc": {
    "methods": {}
  }
}