{
  "contractName": "ERC721Colectibles",
  "abi": [
    {
      "inputs": [
        {
          "internalType": "string",
          "name": "name",
          "type": "string"
        },
        {
          "internalType": "string",
          "name": "symbol",
          "type": "string"
        },
        {
          "internalType": "uint256",
          "name": "limitedAmount",
          "type": "uint256"
        },
        {
          "internalType": "contract ERC20",
          "name": "_purchaseToken",
          "type": "address"
        },
        {
          "internalType": "address",
          "name": "baseFeeAddress",
          "type": "address"
        },
        {
          "internalType": "address",
          "name": "feeAddress",
          "type": "address"
        },
        {
          "internalType": "address",
          "name": "otherAddress",
          "type": "address"
        }
      ],
      "stateMutability": "nonpayable",
      "type": "constructor"
    },
    {
      "anonymous": false,
      "inputs": [
        {
          "indexed": true,
          "internalType": "address",
          "name": "owner",
          "type": "address"
        },
        {
          "indexed": true,
          "internalType": "address",
          "name": "approved",
          "type": "address"
        },
        {
          "indexed": true,
          "internalType": "uint256",
          "name": "tokenId",
          "type": "uint256"
        }
      ],
      "name": "Approval",
      "type": "event"
    },
    {
      "anonymous": false,
      "inputs": [
        {
          "indexed": true,
          "internalType": "address",
          "name": "owner",
          "type": "address"
        },
        {
          "indexed": true,
          "internalType": "address",
          "name": "operator",
          "type": "address"
        },
        {
          "indexed": false,
          "internalType": "bool",
          "name": "approved",
          "type": "bool"
        }
      ],
      "name": "ApprovalForAll",
      "type": "event"
    },
    {
      "anonymous": false,
      "inputs": [
        {
          "indexed": true,
          "internalType": "address",
          "name": "from",
          "type": "address"
        },
        {
          "indexed": false,
          "internalType": "uint256",
          "name": "amount",
          "type": "uint256"
        },
        {
          "indexed": false,
          "internalType": "uint256",
          "name": "openedPacks",
          "type": "uint256"
        }
      ],
      "name": "Opening",
      "type": "event"
    },
    {
      "anonymous": false,
      "inputs": [
        {
          "indexed": true,
          "internalType": "address",
          "name": "previousOwner",
          "type": "address"
        },
        {
          "indexed": true,
          "internalType": "address",
          "name": "newOwner",
          "type": "address"
        }
      ],
      "name": "OwnershipTransferred",
      "type": "event"
    },
    {
      "anonymous": false,
      "inputs": [
        {
          "indexed": true,
          "internalType": "address",
          "name": "from",
          "type": "address"
        },
        {
          "indexed": true,
          "internalType": "address",
          "name": "to",
          "type": "address"
        },
        {
          "indexed": true,
          "internalType": "uint256",
          "name": "tokenId",
          "type": "uint256"
        }
      ],
      "name": "Transfer",
      "type": "event"
    },
    {
      "inputs": [],
      "name": "MAX_PURCHASE",
      "outputs": [
        {
          "internalType": "uint256",
          "name": "",
          "type": "uint256"
        }
      ],
      "stateMutability": "view",
      "type": "function"
    },
    {
      "inputs": [],
      "name": "_baseFeeAddress",
      "outputs": [
        {
          "internalType": "address",
          "name": "",
          "type": "address"
        }
      ],
      "stateMutability": "view",
      "type": "function"
    },
    {
      "inputs": [],
      "name": "_baseFeeShare",
      "outputs": [
        {
          "internalType": "uint256",
          "name": "",
          "type": "uint256"
        }
      ],
      "stateMutability": "view",
      "type": "function"
    },
    {
      "inputs": [],
      "name": "_closed",
      "outputs": [
        {
          "internalType": "bool",
          "name": "",
          "type": "bool"
        }
      ],
      "stateMutability": "view",
      "type": "function"
    },
    {
      "inputs": [],
      "name": "_currentTokenId",
      "outputs": [
        {
          "internalType": "uint256",
          "name": "",
          "type": "uint256"
        }
      ],
      "stateMutability": "view",
      "type": "function"
    },
    {
      "inputs": [],
      "name": "_feeAddress",
      "outputs": [
        {
          "internalType": "address",
          "name": "",
          "type": "address"
        }
      ],
      "stateMutability": "view",
      "type": "function"
    },
    {
      "inputs": [],
      "name": "_feeShare",
      "outputs": [
        {
          "internalType": "uint256",
          "name": "",
          "type": "uint256"
        }
      ],
      "stateMutability": "view",
      "type": "function"
    },
    {
      "inputs": [],
      "name": "_isLimited",
      "outputs": [
        {
          "internalType": "bool",
          "name": "",
          "type": "bool"
        }
      ],
      "stateMutability": "view",
      "type": "function"
    },
    {
      "inputs": [],
      "name": "_limitedAmount",
      "outputs": [
        {
          "internalType": "uint256",
          "name": "",
          "type": "uint256"
        }
      ],
      "stateMutability": "view",
      "type": "function"
    },
    {
      "inputs": [],
      "name": "_openedPacks",
      "outputs": [
        {
          "internalType": "uint256",
          "name": "",
          "type": "uint256"
        }
      ],
      "stateMutability": "view",
      "type": "function"
    },
    {
      "inputs": [],
      "name": "_otherAddress",
      "outputs": [
        {
          "internalType": "address",
          "name": "",
          "type": "address"
        }
      ],
      "stateMutability": "view",
      "type": "function"
    },
    {
      "inputs": [],
      "name": "_otherShare",
      "outputs": [
        {
          "internalType": "uint256",
          "name": "",
          "type": "uint256"
        }
      ],
      "stateMutability": "view",
      "type": "function"
    },
    {
      "inputs": [],
      "name": "_pricePerPack",
      "outputs": [
        {
          "internalType": "uint256",
          "name": "",
          "type": "uint256"
        }
      ],
      "stateMutability": "view",
      "type": "function"
    },
    {
      "inputs": [],
      "name": "_purchaseToken",
      "outputs": [
        {
          "internalType": "contract ERC20",
          "name": "",
          "type": "address"
        }
      ],
      "stateMutability": "view",
      "type": "function"
    },
    {
      "inputs": [
        {
          "internalType": "uint256",
          "name": "",
          "type": "uint256"
        }
      ],
      "name": "alreadyMinted",
      "outputs": [
        {
          "internalType": "bool",
          "name": "",
          "type": "bool"
        }
      ],
      "stateMutability": "view",
      "type": "function"
    },
    {
      "inputs": [
        {
          "internalType": "address",
          "name": "to",
          "type": "address"
        },
        {
          "internalType": "uint256",
          "name": "tokenId",
          "type": "uint256"
        }
      ],
      "name": "approve",
      "outputs": [],
      "stateMutability": "nonpayable",
      "type": "function"
    },
    {
      "inputs": [
        {
          "internalType": "address",
          "name": "owner",
          "type": "address"
        }
      ],
      "name": "balanceOf",
      "outputs": [
        {
          "internalType": "uint256",
          "name": "",
          "type": "uint256"
        }
      ],
      "stateMutability": "view",
      "type": "function"
    },
    {
      "inputs": [],
      "name": "baseURI",
      "outputs": [
        {
          "internalType": "string",
          "name": "",
          "type": "string"
        }
      ],
      "stateMutability": "view",
      "type": "function"
    },
    {
      "inputs": [
        {
          "internalType": "uint256",
          "name": "tokenId",
          "type": "uint256"
        }
      ],
      "name": "getApproved",
      "outputs": [
        {
          "internalType": "address",
          "name": "",
          "type": "address"
        }
      ],
      "stateMutability": "view",
      "type": "function"
    },
    {
      "inputs": [
        {
          "internalType": "address",
          "name": "owner",
          "type": "address"
        },
        {
          "internalType": "address",
          "name": "operator",
          "type": "address"
        }
      ],
      "name": "isApprovedForAll",
      "outputs": [
        {
          "internalType": "bool",
          "name": "",
          "type": "bool"
        }
      ],
      "stateMutability": "view",
      "type": "function"
    },
    {
      "inputs": [],
      "name": "lock",
      "outputs": [],
      "stateMutability": "nonpayable",
      "type": "function"
    },
    {
      "inputs": [],
      "name": "name",
      "outputs": [
        {
          "internalType": "string",
          "name": "",
          "type": "string"
        }
      ],
      "stateMutability": "view",
      "type": "function"
    },
    {
      "inputs": [],
      "name": "owner",
      "outputs": [
        {
          "internalType": "address",
          "name": "",
          "type": "address"
        }
      ],
      "stateMutability": "view",
      "type": "function"
    },
    {
      "inputs": [
        {
          "internalType": "uint256",
          "name": "tokenId",
          "type": "uint256"
        }
      ],
      "name": "ownerOf",
      "outputs": [
        {
          "internalType": "address",
          "name": "",
          "type": "address"
        }
      ],
      "stateMutability": "view",
      "type": "function"
    },
    {
      "inputs": [
        {
          "internalType": "address",
          "name": "",
          "type": "address"
        },
        {
          "internalType": "uint256",
          "name": "",
          "type": "uint256"
        }
      ],
      "name": "registeredIDs",
      "outputs": [
        {
          "internalType": "bool",
          "name": "",
          "type": "bool"
        }
      ],
      "stateMutability": "view",
      "type": "function"
    },
    {
      "inputs": [
        {
          "internalType": "address",
          "name": "",
          "type": "address"
        },
        {
          "internalType": "uint256",
          "name": "",
          "type": "uint256"
        }
      ],
      "name": "registeredIDsArray",
      "outputs": [
        {
          "internalType": "uint256",
          "name": "",
          "type": "uint256"
        }
      ],
      "stateMutability": "view",
      "type": "function"
    },
    {
      "inputs": [
        {
          "internalType": "address",
          "name": "from",
          "type": "address"
        },
        {
          "internalType": "address",
          "name": "to",
          "type": "address"
        },
        {
          "internalType": "uint256",
          "name": "tokenId",
          "type": "uint256"
        }
      ],
      "name": "safeTransferFrom",
      "outputs": [],
      "stateMutability": "nonpayable",
      "type": "function"
    },
    {
      "inputs": [
        {
          "internalType": "address",
          "name": "from",
          "type": "address"
        },
        {
          "internalType": "address",
          "name": "to",
          "type": "address"
        },
        {
          "internalType": "uint256",
          "name": "tokenId",
          "type": "uint256"
        },
        {
          "internalType": "bytes",
          "name": "_data",
          "type": "bytes"
        }
      ],
      "name": "safeTransferFrom",
      "outputs": [],
      "stateMutability": "nonpayable",
      "type": "function"
    },
    {
      "inputs": [
        {
          "internalType": "address",
          "name": "operator",
          "type": "address"
        },
        {
          "internalType": "bool",
          "name": "approved",
          "type": "bool"
        }
      ],
      "name": "setApprovalForAll",
      "outputs": [],
      "stateMutability": "nonpayable",
      "type": "function"
    },
    {
      "inputs": [
        {
          "internalType": "address",
          "name": "feeAddress",
          "type": "address"
        }
      ],
      "name": "setFeeAddress",
      "outputs": [],
      "stateMutability": "nonpayable",
      "type": "function"
    },
    {
      "inputs": [
        {
          "internalType": "address",
          "name": "otherAddress",
          "type": "address"
        }
      ],
      "name": "setOtherAddress",
      "outputs": [],
      "stateMutability": "nonpayable",
      "type": "function"
    },
    {
      "inputs": [
        {
          "internalType": "uint256",
          "name": "newPrice",
          "type": "uint256"
        }
      ],
      "name": "setPricePerPack",
      "outputs": [],
      "stateMutability": "nonpayable",
      "type": "function"
    },
    {
      "inputs": [
        {
          "internalType": "contract ERC20",
          "name": "purchaseToken",
          "type": "address"
        }
      ],
      "name": "setPurchaseTokenAddress",
      "outputs": [],
      "stateMutability": "nonpayable",
      "type": "function"
    },
    {
      "inputs": [
        {
          "internalType": "uint256",
          "name": "feeShare",
          "type": "uint256"
        },
        {
          "internalType": "uint256",
          "name": "otherShare",
          "type": "uint256"
        }
      ],
      "name": "setShares",
      "outputs": [],
      "stateMutability": "nonpayable",
      "type": "function"
    },
    {
      "inputs": [
        {
          "internalType": "bytes4",
          "name": "interfaceId",
          "type": "bytes4"
        }
      ],
      "name": "supportsInterface",
      "outputs": [
        {
          "internalType": "bool",
          "name": "",
          "type": "bool"
        }
      ],
      "stateMutability": "view",
      "type": "function"
    },
    {
      "inputs": [],
      "name": "symbol",
      "outputs": [
        {
          "internalType": "string",
          "name": "",
          "type": "string"
        }
      ],
      "stateMutability": "view",
      "type": "function"
    },
    {
      "inputs": [
        {
          "internalType": "uint256",
          "name": "index",
          "type": "uint256"
        }
      ],
      "name": "tokenByIndex",
      "outputs": [
        {
          "internalType": "uint256",
          "name": "",
          "type": "uint256"
        }
      ],
      "stateMutability": "view",
      "type": "function"
    },
    {
      "inputs": [
        {
          "internalType": "address",
          "name": "owner",
          "type": "address"
        },
        {
          "internalType": "uint256",
          "name": "index",
          "type": "uint256"
        }
      ],
      "name": "tokenOfOwnerByIndex",
      "outputs": [
        {
          "internalType": "uint256",
          "name": "",
          "type": "uint256"
        }
      ],
      "stateMutability": "view",
      "type": "function"
    },
    {
      "inputs": [
        {
          "internalType": "uint256",
          "name": "tokenId",
          "type": "uint256"
        }
      ],
      "name": "tokenURI",
      "outputs": [
        {
          "internalType": "string",
          "name": "",
          "type": "string"
        }
      ],
      "stateMutability": "view",
      "type": "function"
    },
    {
      "inputs": [],
      "name": "totalSupply",
      "outputs": [
        {
          "internalType": "uint256",
          "name": "",
          "type": "uint256"
        }
      ],
      "stateMutability": "view",
      "type": "function"
    },
    {
      "inputs": [
        {
          "internalType": "address",
          "name": "from",
          "type": "address"
        },
        {
          "internalType": "address",
          "name": "to",
          "type": "address"
        },
        {
          "internalType": "uint256",
          "name": "tokenId",
          "type": "uint256"
        }
      ],
      "name": "transferFrom",
      "outputs": [],
      "stateMutability": "nonpayable",
      "type": "function"
    },
    {
      "inputs": [
        {
          "internalType": "address",
          "name": "newOwner",
          "type": "address"
        }
      ],
      "name": "transferOwnership",
      "outputs": [],
      "stateMutability": "nonpayable",
      "type": "function"
    },
    {
      "inputs": [],
      "name": "unlock",
      "outputs": [],
      "stateMutability": "nonpayable",
      "type": "function"
    },
    {
      "inputs": [
        {
          "internalType": "uint256",
          "name": "tokenId",
          "type": "uint256"
        }
      ],
      "name": "exists",
      "outputs": [
        {
          "internalType": "bool",
          "name": "",
          "type": "bool"
        }
      ],
      "stateMutability": "view",
      "type": "function"
    },
    {
      "inputs": [
        {
          "internalType": "uint256",
          "name": "tokenId",
          "type": "uint256"
        },
        {
          "internalType": "string",
          "name": "uri",
          "type": "string"
        }
      ],
      "name": "setTokenURI",
      "outputs": [],
      "stateMutability": "nonpayable",
      "type": "function"
    },
    {
      "inputs": [
        {
          "internalType": "string",
          "name": "baseURI",
          "type": "string"
        }
      ],
      "name": "setBaseURI",
      "outputs": [],
      "stateMutability": "nonpayable",
      "type": "function"
    },
    {
      "inputs": [
        {
          "internalType": "uint256",
          "name": "tokenIdToMint",
          "type": "uint256"
        }
      ],
      "name": "mint",
      "outputs": [],
      "stateMutability": "nonpayable",
      "type": "function"
    },
    {
      "inputs": [
        {
          "internalType": "uint256",
          "name": "amount",
          "type": "uint256"
        }
      ],
      "name": "openPack",
      "outputs": [],
      "stateMutability": "nonpayable",
      "type": "function"
    },
    {
      "inputs": [
        {
          "internalType": "address",
          "name": "_address",
          "type": "address"
        }
      ],
      "name": "getRegisteredIDs",
      "outputs": [
        {
          "internalType": "uint256[]",
          "name": "",
          "type": "uint256[]"
        }
      ],
      "stateMutability": "view",
      "type": "function"
    }
  ],
  "bytecode": "0x60806040526000600460146101000a81548160ff0219169083151502179055506103e8600555670de0b6b3a76400006007556001600b556063600c556000600d55600a600e556000600f60006101000a81548160ff02191690831515021790555060006010553480156200007257600080fd5b506040516200520238038062005202833981810160405260e08110156200009857600080fd5b8101908080516040519392919084640100000000821115620000b957600080fd5b83820191506020820185811115620000d057600080fd5b8251866001820283011164010000000082111715620000ee57600080fd5b8083526020830192505050908051906020019080838360005b838110156200012457808201518184015260208101905062000107565b50505050905090810190601f168015620001525780820380516001836020036101000a031916815260200191505b50604052602001805160405193929190846401000000008211156200017657600080fd5b838201915060208201858111156200018d57600080fd5b8251866001820283011164010000000082111715620001ab57600080fd5b8083526020830192505050908051906020019080838360005b83811015620001e1578082015181840152602081019050620001c4565b50505050905090810190601f1680156200020f5780820380516001836020036101000a031916815260200191505b5060405260200180519060200190929190805190602001909291908051906020019092919080519060200190929190805190602001909291905050508686858585858a336000806101000a81548173ffffffffffffffffffffffffffffffffffffffff021916908373ffffffffffffffffffffffffffffffffffffffff16021790555084600160006101000a81548173ffffffffffffffffffffffffffffffffffffffff021916908373ffffffffffffffffffffffffffffffffffffffff16021790555083600260006101000a81548173ffffffffffffffffffffffffffffffffffffffff021916908373ffffffffffffffffffffffffffffffffffffffff16021790555082600360006101000a81548173ffffffffffffffffffffffffffffffffffffffff021916908373ffffffffffffffffffffffffffffffffffffffff16021790555081600460006101000a81548173ffffffffffffffffffffffffffffffffffffffff021916908373ffffffffffffffffffffffffffffffffffffffff16021790555060008114620003bb576001600460146101000a81548160ff0219169083151502179055505b806006819055505050505050620004046301ffc9a77c010000000000000000000000000000000000000000000000000000000002620004fc640100000000026401000000009004565b81601790805190602001906200041c92919062000622565b5080601890805190602001906200043592919062000622565b50620004736380ac58cd7c010000000000000000000000000000000000000000000000000000000002620004fc640100000000026401000000009004565b620004b0635b5e139f7c010000000000000000000000000000000000000000000000000000000002620004fc640100000000026401000000009004565b620004ed63780e9d637c010000000000000000000000000000000000000000000000000000000002620004fc640100000000026401000000009004565b505050505050505050620006d1565b63ffffffff7c010000000000000000000000000000000000000000000000000000000002817bffffffffffffffffffffffffffffffffffffffffffffffffffffffff19161415620005b5576040517f08c379a000000000000000000000000000000000000000000000000000000000815260040180806020018281038252601c8152602001807f4552433136353a20696e76616c696420696e746572666163652069640000000081525060200191505060405180910390fd5b600160116000837bffffffffffffffffffffffffffffffffffffffffffffffffffffffff19167bffffffffffffffffffffffffffffffffffffffffffffffffffffffff1916815260200190815260200160002060006101000a81548160ff02191690831515021790555050565b828054600181600116156101000203166002900490600052602060002090601f016020900481019282601f106200066557805160ff191683800117855562000696565b8280016001018555821562000696579182015b828111156200069557825182559160200191906001019062000678565b5b509050620006a59190620006a9565b5090565b620006ce91905b80821115620006ca576000816000905550600101620006b0565b5090565b90565b614b2180620006e16000396000f3fe608060405234801561001057600080fd5b50600436106102d8576000357c0100000000000000000000000000000000000000000000000000000000900480636c0360eb1161019f578063a69df4b511610106578063dd7c5e54116100bf578063f24a9e4e11610099578063f24a9e4e146111ac578063f2fde38b146111ca578063f4d369861461120e578063f83d08ba14611252576102d8565b8063dd7c5e54146110f0578063e985e9c514611112578063eb8800d01461118e576102d8565b8063a69df4b514610eb8578063b7365f1f14610ec2578063b88d4fde14610f08578063c3a9896d1461100d578063c87b56dd1461102b578063c963483c146110d2576102d8565b80638da5cb5b116101585780638da5cb5b14610cf55780639456b23214610d3f57806395d89b4114610d8957806398bdd80314610e0c578063a0712d6814610e3a578063a22cb46514610e68576102d8565b80636c0360eb14610b7c57806370a0823114610bff5780637146bd0814610c57578063759b2b3c14610c75578063790411be14610c935780638705fcd414610cb1576102d8565b80632aca3e7d116102435780634f6ccce7116101fc5780634f6ccce71461097b57806350a88c7e146109bd57806353facd01146109eb57806355f804b314610a095780636352211e14610ac457806369c7d8a314610b32576102d8565b80632aca3e7d1461074a5780632c686030146107825780632f745c591461081b5780632f80f7501461087d57806342842e0e146108c75780634f558e7914610935576102d8565b8063095ea7b311610295578063095ea7b314610501578063162094c41461054f57806318160ddd146106145780631e14a5331461063257806323b872dd14610698578063298489d214610706576102d8565b80630119b740146102dd5780630135f740146102ff57806301d243a61461034957806301ffc9a7146103ab57806306fdde0314610410578063081812fc14610493575b600080fd5b6102e561125c565b604051808215151515815260200191505060405180910390f35b61030761126f565b604051808273ffffffffffffffffffffffffffffffffffffffff1673ffffffffffffffffffffffffffffffffffffffff16815260200191505060405180910390f35b6103956004803603604081101561035f57600080fd5b81019080803573ffffffffffffffffffffffffffffffffffffffff16906020019092919080359060200190929190505050611295565b6040518082815260200191505060405180910390f35b6103f6600480360360208110156103c157600080fd5b8101908080357bffffffffffffffffffffffffffffffffffffffffffffffffffffffff191690602001909291905050506112c3565b604051808215151515815260200191505060405180910390f35b61041861132b565b6040518080602001828103825283818151815260200191508051906020019080838360005b8381101561045857808201518184015260208101905061043d565b50505050905090810190601f1680156104855780820380516001836020036101000a031916815260200191505b509250505060405180910390f35b6104bf600480360360208110156104a957600080fd5b81019080803590602001909291905050506113cd565b604051808273ffffffffffffffffffffffffffffffffffffffff1673ffffffffffffffffffffffffffffffffffffffff16815260200191505060405180910390f35b61054d6004803603604081101561051757600080fd5b81019080803573ffffffffffffffffffffffffffffffffffffffff16906020019092919080359060200190929190505050611468565b005b6106126004803603604081101561056557600080fd5b81019080803590602001909291908035906020019064010000000081111561058c57600080fd5b82018360208201111561059e57600080fd5b803590602001918460018302840111640100000000831117156105c057600080fd5b91908080601f016020809104026020016040519081016040528093929190818152602001838380828437600081840152601f19601f8201169050808301925050505050505091929192905050506115ac565b005b61061c611613565b6040518082815260200191505060405180910390f35b61067e6004803603604081101561064857600080fd5b81019080803573ffffffffffffffffffffffffffffffffffffffff16906020019092919080359060200190929190505050611624565b604051808215151515815260200191505060405180910390f35b610704600480360360608110156106ae57600080fd5b81019080803573ffffffffffffffffffffffffffffffffffffffff169060200190929190803573ffffffffffffffffffffffffffffffffffffffff16906020019092919080359060200190929190505050611653565b005b6107486004803603602081101561071c57600080fd5b81019080803573ffffffffffffffffffffffffffffffffffffffff1690602001909291905050506116c9565b005b6107806004803603604081101561076057600080fd5b810190808035906020019092919080359060200190929190505050611766565b005b6107c46004803603602081101561079857600080fd5b81019080803573ffffffffffffffffffffffffffffffffffffffff16906020019092919050505061184d565b6040518080602001828103825283818151815260200191508051906020019060200280838360005b838110156108075780820151818401526020810190506107ec565b505050509050019250505060405180910390f35b6108676004803603604081101561083157600080fd5b81019080803573ffffffffffffffffffffffffffffffffffffffff169060200190929190803590602001909291905050506118e4565b6040518082815260200191505060405180910390f35b61088561193f565b604051808273ffffffffffffffffffffffffffffffffffffffff1673ffffffffffffffffffffffffffffffffffffffff16815260200191505060405180910390f35b610933600480360360608110156108dd57600080fd5b81019080803573ffffffffffffffffffffffffffffffffffffffff169060200190929190803573ffffffffffffffffffffffffffffffffffffffff16906020019092919080359060200190929190505050611965565b005b6109616004803603602081101561094b57600080fd5b8101908080359060200190929190505050611985565b604051808215151515815260200191505060405180910390f35b6109a76004803603602081101561099157600080fd5b8101908080359060200190929190505050611997565b6040518082815260200191505060405180910390f35b6109e9600480360360208110156109d357600080fd5b81019080803590602001909291905050506119ba565b005b6109f36119c6565b6040518082815260200191505060405180910390f35b610ac260048036036020811015610a1f57600080fd5b8101908080359060200190640100000000811115610a3c57600080fd5b820183602082011115610a4e57600080fd5b80359060200191846001830284011164010000000083111715610a7057600080fd5b91908080601f016020809104026020016040519081016040528093929190818152602001838380828437600081840152601f19601f8201169050808301925050505050505091929192905050506119cc565b005b610af060048036036020811015610ada57600080fd5b8101908080359060200190929190505050611a31565b604051808273ffffffffffffffffffffffffffffffffffffffff1673ffffffffffffffffffffffffffffffffffffffff16815260200191505060405180910390f35b610b3a611a68565b604051808273ffffffffffffffffffffffffffffffffffffffff1673ffffffffffffffffffffffffffffffffffffffff16815260200191505060405180910390f35b610b84611a8e565b6040518080602001828103825283818151815260200191508051906020019080838360005b83811015610bc4578082015181840152602081019050610ba9565b50505050905090810190601f168015610bf15780820380516001836020036101000a031916815260200191505b509250505060405180910390f35b610c4160048036036020811015610c1557600080fd5b81019080803573ffffffffffffffffffffffffffffffffffffffff169060200190929190505050611b30565b6040518082815260200191505060405180910390f35b610c5f611c05565b6040518082815260200191505060405180910390f35b610c7d611c0b565b6040518082815260200191505060405180910390f35b610c9b611c11565b6040518082815260200191505060405180910390f35b610cf360048036036020811015610cc757600080fd5b81019080803573ffffffffffffffffffffffffffffffffffffffff169060200190929190505050611c17565b005b610cfd611cb4565b604051808273ffffffffffffffffffffffffffffffffffffffff1673ffffffffffffffffffffffffffffffffffffffff16815260200191505060405180910390f35b610d47611cd9565b604051808273ffffffffffffffffffffffffffffffffffffffff1673ffffffffffffffffffffffffffffffffffffffff16815260200191505060405180910390f35b610d91611cff565b6040518080602001828103825283818151815260200191508051906020019080838360005b83811015610dd1578082015181840152602081019050610db6565b50505050905090810190601f168015610dfe5780820380516001836020036101000a031916815260200191505b509250505060405180910390f35b610e3860048036036020811015610e2257600080fd5b8101908080359060200190929190505050611da1565b005b610e6660048036036020811015610e5057600080fd5b8101908080359060200190929190505050611e04565b005b610eb660048036036040811015610e7e57600080fd5b81019080803573ffffffffffffffffffffffffffffffffffffffff169060200190929190803515159060200190929190505050611ffc565b005b610ec06121b4565b005b610eee60048036036020811015610ed857600080fd5b810190808035906020019092919050505061222a565b604051808215151515815260200191505060405180910390f35b61100b60048036036080811015610f1e57600080fd5b81019080803573ffffffffffffffffffffffffffffffffffffffff169060200190929190803573ffffffffffffffffffffffffffffffffffffffff1690602001909291908035906020019092919080359060200190640100000000811115610f8557600080fd5b820183602082011115610f9757600080fd5b80359060200191846001830284011164010000000083111715610fb957600080fd5b91908080601f016020809104026020016040519081016040528093929190818152602001838380828437600081840152601f19601f82011690508083019250505050505050919291929050505061224a565b005b6110156122c2565b6040518082815260200191505060405180910390f35b6110576004803603602081101561104157600080fd5b81019080803590602001909291905050506122c8565b6040518080602001828103825283818151815260200191508051906020019080838360005b8381101561109757808201518184015260208101905061107c565b50505050905090810190601f1680156110c45780820380516001836020036101000a031916815260200191505b509250505060405180910390f35b6110da612599565b6040518082815260200191505060405180910390f35b6110f861259f565b604051808215151515815260200191505060405180910390f35b6111746004803603604081101561112857600080fd5b81019080803573ffffffffffffffffffffffffffffffffffffffff169060200190929190803573ffffffffffffffffffffffffffffffffffffffff1690602001909291905050506125b2565b604051808215151515815260200191505060405180910390f35b611196612646565b6040518082815260200191505060405180910390f35b6111b461264c565b6040518082815260200191505060405180910390f35b61120c600480360360208110156111e057600080fd5b81019080803573ffffffffffffffffffffffffffffffffffffffff169060200190929190505050612652565b005b6112506004803603602081101561122457600080fd5b81019080803573ffffffffffffffffffffffffffffffffffffffff1690602001909291905050506127a3565b005b61125a612840565b005b600460149054906101000a900460ff1681565b600360009054906101000a900473ffffffffffffffffffffffffffffffffffffffff1681565b600960205281600052604060002081815481106112ae57fe5b90600052602060002001600091509150505481565b600060116000837bffffffffffffffffffffffffffffffffffffffffffffffffffffffff19167bffffffffffffffffffffffffffffffffffffffffffffffffffffffff1916815260200190815260200160002060009054906101000a900460ff169050919050565b606060178054600181600116156101000203166002900480601f0160208091040260200160405190810160405280929190818152602001828054600181600116156101000203166002900480156113c35780601f10611398576101008083540402835291602001916113c3565b820191906000526020600020905b8154815290600101906020018083116113a657829003601f168201915b5050505050905090565b60006113d8826128b6565b61142d576040517f08c379a000000000000000000000000000000000000000000000000000000000815260040180806020018281038252602c8152602001806149b8602c913960400191505060405180910390fd5b6015600083815260200190815260200160002060009054906101000a900473ffffffffffffffffffffffffffffffffffffffff169050919050565b600061147382611a31565b90508073ffffffffffffffffffffffffffffffffffffffff168373ffffffffffffffffffffffffffffffffffffffff1614156114fa576040517f08c379a0000000000000000000000000000000000000000000000000000000008152600401808060200182810382526021815260200180614a9a6021913960400191505060405180910390fd5b8073ffffffffffffffffffffffffffffffffffffffff166115196128d3565b73ffffffffffffffffffffffffffffffffffffffff1614806115485750611547816115426128d3565b6125b2565b5b61159d576040517f08c379a00000000000000000000000000000000000000000000000000000000081526004018080602001828103825260388152602001806148ea6038913960400191505060405180910390fd5b6115a783836128db565b505050565b6000809054906101000a900473ffffffffffffffffffffffffffffffffffffffff1673ffffffffffffffffffffffffffffffffffffffff163373ffffffffffffffffffffffffffffffffffffffff161461160557600080fd5b61160f8282612994565b5050565b600061161f6013612a1e565b905090565b60086020528160005260406000206020528060005260406000206000915091509054906101000a900460ff1681565b61166461165e6128d3565b82612a33565b6116b9576040517f08c379a0000000000000000000000000000000000000000000000000000000008152600401808060200182810382526031815260200180614abb6031913960400191505060405180910390fd5b6116c4838383612b27565b505050565b6000809054906101000a900473ffffffffffffffffffffffffffffffffffffffff1673ffffffffffffffffffffffffffffffffffffffff163373ffffffffffffffffffffffffffffffffffffffff161461172257600080fd5b80600160006101000a81548173ffffffffffffffffffffffffffffffffffffffff021916908373ffffffffffffffffffffffffffffffffffffffff16021790555050565b6000809054906101000a900473ffffffffffffffffffffffffffffffffffffffff1673ffffffffffffffffffffffffffffffffffffffff163373ffffffffffffffffffffffffffffffffffffffff16146117bf57600080fd5b6064600b54838301011461183b576040517f08c379a00000000000000000000000000000000000000000000000000000000081526004018080602001828103825260158152602001807f446f65736e27742061646420757020746f20313030000000000000000000000081525060200191505060405180910390fd5b80600d8190555081600c819055505050565b6060600960008373ffffffffffffffffffffffffffffffffffffffff1673ffffffffffffffffffffffffffffffffffffffff1681526020019081526020016000208054806020026020016040519081016040528092919081815260200182805480156118d857602002820191906000526020600020905b8154815260200190600101908083116118c4575b50505050509050919050565b600061193782601260008673ffffffffffffffffffffffffffffffffffffffff1673ffffffffffffffffffffffffffffffffffffffff168152602001908152602001600020612d6a90919063ffffffff16565b905092915050565b600460009054906101000a900473ffffffffffffffffffffffffffffffffffffffff1681565b6119808383836040518060200160405280600081525061224a565b505050565b6000611990826128b6565b9050919050565b6000806119ae836013612d8590919063ffffffff16565b50905080915050919050565b6119c381612db6565b50565b600b5481565b6000809054906101000a900473ffffffffffffffffffffffffffffffffffffffff1673ffffffffffffffffffffffffffffffffffffffff163373ffffffffffffffffffffffffffffffffffffffff1614611a2557600080fd5b611a2e816132ae565b50565b6000611a618260405180606001604052806029815260200161494c6029913960136132c89092919063ffffffff16565b9050919050565b600160009054906101000a900473ffffffffffffffffffffffffffffffffffffffff1681565b6060601a8054600181600116156101000203166002900480601f016020809104026020016040519081016040528092919081815260200182805460018160011615610100020316600290048015611b265780601f10611afb57610100808354040283529160200191611b26565b820191906000526020600020905b815481529060010190602001808311611b0957829003601f168201915b5050505050905090565b60008073ffffffffffffffffffffffffffffffffffffffff168273ffffffffffffffffffffffffffffffffffffffff161415611bb7576040517f08c379a000000000000000000000000000000000000000000000000000000000815260040180806020018281038252602a815260200180614922602a913960400191505060405180910390fd5b611bfe601260008473ffffffffffffffffffffffffffffffffffffffff1673ffffffffffffffffffffffffffffffffffffffff1681526020019081526020016000206132e8565b9050919050565b600e5481565b60065481565b60075481565b6000809054906101000a900473ffffffffffffffffffffffffffffffffffffffff1673ffffffffffffffffffffffffffffffffffffffff163373ffffffffffffffffffffffffffffffffffffffff1614611c7057600080fd5b80600360006101000a81548173ffffffffffffffffffffffffffffffffffffffff021916908373ffffffffffffffffffffffffffffffffffffffff16021790555050565b6000809054906101000a900473ffffffffffffffffffffffffffffffffffffffff1681565b600260009054906101000a900473ffffffffffffffffffffffffffffffffffffffff1681565b606060188054600181600116156101000203166002900480601f016020809104026020016040519081016040528092919081815260200182805460018160011615610100020316600290048015611d975780601f10611d6c57610100808354040283529160200191611d97565b820191906000526020600020905b815481529060010190602001808311611d7a57829003601f168201915b5050505050905090565b6000809054906101000a900473ffffffffffffffffffffffffffffffffffffffff1673ffffffffffffffffffffffffffffffffffffffff163373ffffffffffffffffffffffffffffffffffffffff1614611dfa57600080fd5b8060078190555050565b600554811115611e7c576040517f08c379a00000000000000000000000000000000000000000000000000000000081526004018080602001828103825260178152602001807f546f6b656e204964206e6f74207265676973746572656400000000000000000081525060200191505060405180910390fd5b600860003373ffffffffffffffffffffffffffffffffffffffff1673ffffffffffffffffffffffffffffffffffffffff168152602001908152602001600020600082815260200190815260200160002060009054906101000a900460ff16611f2f576040517f08c379a0000000000000000000000000000000000000000000000000000000008152600401808060200182810382526032815260200180614a106032913960400191505060405180910390fd5b600a600082815260200190815260200160002060009054906101000a900460ff1615611fc3576040517f08c379a000000000000000000000000000000000000000000000000000000000815260040180806020018281038252600e8152602001807f416c7265616479206d696e74656400000000000000000000000000000000000081525060200191505060405180910390fd5b6001600a600083815260200190815260200160002060006101000a81548160ff021916908315150217905550611ff933826132fd565b50565b6120046128d3565b73ffffffffffffffffffffffffffffffffffffffff168273ffffffffffffffffffffffffffffffffffffffff1614156120a5576040517f08c379a00000000000000000000000000000000000000000000000000000000081526004018080602001828103825260198152602001807f4552433732313a20617070726f766520746f2063616c6c65720000000000000081525060200191505060405180910390fd5b80601660006120b26128d3565b73ffffffffffffffffffffffffffffffffffffffff1673ffffffffffffffffffffffffffffffffffffffff16815260200190815260200160002060008473ffffffffffffffffffffffffffffffffffffffff1673ffffffffffffffffffffffffffffffffffffffff16815260200190815260200160002060006101000a81548160ff0219169083151502179055508173ffffffffffffffffffffffffffffffffffffffff1661215f6128d3565b73ffffffffffffffffffffffffffffffffffffffff167f17307eab39ab6107e8899845ad3d59bd9653f200f220920489ca2b5937696c3183604051808215151515815260200191505060405180910390a35050565b6000809054906101000a900473ffffffffffffffffffffffffffffffffffffffff1673ffffffffffffffffffffffffffffffffffffffff163373ffffffffffffffffffffffffffffffffffffffff161461220d57600080fd5b6000600f60006101000a81548160ff021916908315150217905550565b600a6020528060005260406000206000915054906101000a900460ff1681565b61225b6122556128d3565b83612a33565b6122b0576040517f08c379a0000000000000000000000000000000000000000000000000000000008152600401808060200182810382526031815260200180614abb6031913960400191505060405180910390fd5b6122bc8484848461331b565b50505050565b600c5481565b60606122d3826128b6565b612328576040517f08c379a000000000000000000000000000000000000000000000000000000000815260040180806020018281038252602f815260200180614a6b602f913960400191505060405180910390fd5b6060601960008481526020019081526020016000208054600181600116156101000203166002900480601f0160208091040260200160405190810160405280929190818152602001828054600181600116156101000203166002900480156123d15780601f106123a6576101008083540402835291602001916123d1565b820191906000526020600020905b8154815290600101906020018083116123b457829003601f168201915b5050505050905060606123e2611a8e565b90506000815114156123f8578192505050612594565b6000825111156124c95780826040516020018083805190602001908083835b6020831061243a5780518252602082019150602081019050602083039250612417565b6001836020036101000a03801982511681845116808217855250505050505090500182805190602001908083835b6020831061248b5780518252602082019150602081019050602083039250612468565b6001836020036101000a0380198251168184511680821785525050505050509050019250505060405160208183030381529060405292505050612594565b806124d38561338d565b6040516020018083805190602001908083835b6020831061250957805182526020820191506020810190506020830392506124e6565b6001836020036101000a03801982511681845116808217855250505050505090500182805190602001908083835b6020831061255a5780518252602082019150602081019050602083039250612537565b6001836020036101000a03801982511681845116808217855250505050505090500192505050604051602081830303815290604052925050505b919050565b60055481565b600f60009054906101000a900460ff1681565b6000601660008473ffffffffffffffffffffffffffffffffffffffff1673ffffffffffffffffffffffffffffffffffffffff16815260200190815260200160002060008373ffffffffffffffffffffffffffffffffffffffff1673ffffffffffffffffffffffffffffffffffffffff16815260200190815260200160002060009054906101000a900460ff16905092915050565b60105481565b600d5481565b6000809054906101000a900473ffffffffffffffffffffffffffffffffffffffff1673ffffffffffffffffffffffffffffffffffffffff163373ffffffffffffffffffffffffffffffffffffffff16146126ab57600080fd5b600073ffffffffffffffffffffffffffffffffffffffff168173ffffffffffffffffffffffffffffffffffffffff1614156126e557600080fd5b8073ffffffffffffffffffffffffffffffffffffffff166000809054906101000a900473ffffffffffffffffffffffffffffffffffffffff1673ffffffffffffffffffffffffffffffffffffffff167f8be0079c531659141344cd1fd0a4f28419497f9722a3daafe3b4186f6b6457e060405160405180910390a3806000806101000a81548173ffffffffffffffffffffffffffffffffffffffff021916908373ffffffffffffffffffffffffffffffffffffffff16021790555050565b6000809054906101000a900473ffffffffffffffffffffffffffffffffffffffff1673ffffffffffffffffffffffffffffffffffffffff163373ffffffffffffffffffffffffffffffffffffffff16146127fc57600080fd5b80600460006101000a81548173ffffffffffffffffffffffffffffffffffffffff021916908373ffffffffffffffffffffffffffffffffffffffff16021790555050565b6000809054906101000a900473ffffffffffffffffffffffffffffffffffffffff1673ffffffffffffffffffffffffffffffffffffffff163373ffffffffffffffffffffffffffffffffffffffff161461289957600080fd5b6001600f60006101000a81548160ff021916908315150217905550565b60006128cc8260136134dc90919063ffffffff16565b9050919050565b600033905090565b816015600083815260200190815260200160002060006101000a81548173ffffffffffffffffffffffffffffffffffffffff021916908373ffffffffffffffffffffffffffffffffffffffff160217905550808273ffffffffffffffffffffffffffffffffffffffff1661294e83611a31565b73ffffffffffffffffffffffffffffffffffffffff167f8c5be1e5ebec7d5bd14f71427d1e84f3dd0314c0f7b2291e5b200ac8c7c3b92560405160405180910390a45050565b61299d826128b6565b6129f2576040517f08c379a000000000000000000000000000000000000000000000000000000000815260040180806020018281038252602c8152602001806149e4602c913960400191505060405180910390fd5b80601960008481526020019081526020016000209080519060200190612a1992919061477a565b505050565b6000612a2c826000016134f6565b9050919050565b6000612a3e826128b6565b612a93576040517f08c379a000000000000000000000000000000000000000000000000000000000815260040180806020018281038252602c8152602001806148be602c913960400191505060405180910390fd5b6000612a9e83611a31565b90508073ffffffffffffffffffffffffffffffffffffffff168473ffffffffffffffffffffffffffffffffffffffff161480612b0d57508373ffffffffffffffffffffffffffffffffffffffff16612af5846113cd565b73ffffffffffffffffffffffffffffffffffffffff16145b80612b1e5750612b1d81856125b2565b5b91505092915050565b8273ffffffffffffffffffffffffffffffffffffffff16612b4782611a31565b73ffffffffffffffffffffffffffffffffffffffff1614612bb3576040517f08c379a0000000000000000000000000000000000000000000000000000000008152600401808060200182810382526029815260200180614a426029913960400191505060405180910390fd5b600073ffffffffffffffffffffffffffffffffffffffff168273ffffffffffffffffffffffffffffffffffffffff161415612c39576040517f08c379a00000000000000000000000000000000000000000000000000000000081526004018080602001828103825260248152602001806148746024913960400191505060405180910390fd5b612c44838383613507565b612c4f6000826128db565b612ca081601260008673ffffffffffffffffffffffffffffffffffffffff1673ffffffffffffffffffffffffffffffffffffffff16815260200190815260200160002061350c90919063ffffffff16565b50612cf281601260008573ffffffffffffffffffffffffffffffffffffffff1673ffffffffffffffffffffffffffffffffffffffff16815260200190815260200160002061352690919063ffffffff16565b50612d09818360136135409092919063ffffffff16565b50808273ffffffffffffffffffffffffffffffffffffffff168473ffffffffffffffffffffffffffffffffffffffff167fddf252ad1be2c89b69c2b068fc378daa952ba7f163c4a11628f55a4df523b3ef60405160405180910390a4505050565b6000612d798360000183613575565b60019004905092915050565b600080600080612d9886600001866135f8565b91509150816001900481600190048090509350935050509250929050565b600f60009054906101000a900460ff1615612e39576040517f08c379a00000000000000000000000000000000000000000000000000000000081526004018080602001828103825260108152602001807f4f70656e6572206973206c6f636b65640000000000000000000000000000000081525060200191505060405180910390fd5b6000612e508260075461369190919063ffffffff16565b905080600160009054906101000a900473ffffffffffffffffffffffffffffffffffffffff1673ffffffffffffffffffffffffffffffffffffffff1663dd62ed3e33306040518363ffffffff167c0100000000000000000000000000000000000000000000000000000000028152600401808373ffffffffffffffffffffffffffffffffffffffff1673ffffffffffffffffffffffffffffffffffffffff1681526020018273ffffffffffffffffffffffffffffffffffffffff1673ffffffffffffffffffffffffffffffffffffffff1681526020019250505060206040518083038186803b158015612f4257600080fd5b505afa158015612f56573d6000803e3d6000fd5b505050506040513d6020811015612f6c57600080fd5b81019080805190602001909291905050501015612ff1576040517f08c379a00000000000000000000000000000000000000000000000000000000081526004018080602001828103825260198152602001807f4e6f7420656e6f756768206d6f6e657920706572207061636b0000000000000081525060200191505060405180910390fd5b6000339050600e5483111561306e576040517f08c379a000000000000000000000000000000000000000000000000000000000815260040180806020018281038252601b8152602001807f4d6178207075726368617365207065722074782072656163686564000000000081525060200191505060405180910390fd5b600460149054906101000a900460ff1615613110576130988360105461371790919063ffffffff16565b600654101561310f576040517f08c379a000000000000000000000000000000000000000000000000000000000815260040180806020018281038252601d8152602001807f416d6f756e74206f66207061636b73206e6f7420617661696c61626c6500000081525060200191505060405180910390fd5b5b61311a818361379f565b8073ffffffffffffffffffffffffffffffffffffffff167f836ddd803a6e03cf1f1512425a9f88798f8287a3b75501d3c552810c8b1142d784601054604051808381526020018281526020019250505060405180910390a282601060008282540192505081905550600060055490505b61319f8460055461371790919063ffffffff16565b811015613282576001600860003373ffffffffffffffffffffffffffffffffffffffff1673ffffffffffffffffffffffffffffffffffffffff168152602001908152602001600020600083815260200190815260200160002060006101000a81548160ff021916908315150217905550600960003373ffffffffffffffffffffffffffffffffffffffff1673ffffffffffffffffffffffffffffffffffffffff168152602001908152602001600020819080600181540180825580915050600190039060005260206000200160009091909190915055808060010191505061318a565b50826005600082825401925050819055506064606d60075402816132a257fe5b04600781905550505050565b80601a90805190602001906132c492919061477a565b5050565b60006132db846000018460010284613c60565b6001900490509392505050565b60006132f682600001613d56565b9050919050565b613317828260405180602001604052806000815250613d67565b5050565b613326848484612b27565b61333284848484613dd8565b613387576040517f08c379a00000000000000000000000000000000000000000000000000000000081526004018080602001828103825260328152602001806148426032913960400191505060405180910390fd5b50505050565b606060008214156133d5576040518060400160405280600181526020017f300000000000000000000000000000000000000000000000000000000000000081525090506134d7565b600082905060005b600082146133ff578080600101915050600a82816133f757fe5b0491506133dd565b6060816040519080825280601f01601f1916602001820160405280156134345781602001600182028038833980820191505090505b50905060006001830390508593505b600084146134cf57600a848161345557fe5b066030017f0100000000000000000000000000000000000000000000000000000000000000028282806001900393508151811061348e57fe5b60200101907effffffffffffffffffffffffffffffffffffffffffffffffffffffffffffff1916908160001a905350600a84816134c757fe5b049350613443565b819450505050505b919050565b60006134ee8360000183600102614055565b905092915050565b600081600001805490509050919050565b505050565b600061351e8360000183600102614078565b905092915050565b60006135388360000183600102614160565b905092915050565b600061356c84600001846001028473ffffffffffffffffffffffffffffffffffffffff166001026141d0565b90509392505050565b6000818360000180549050116135d6576040517f08c379a00000000000000000000000000000000000000000000000000000000081526004018080602001828103825260228152602001806148206022913960400191505060405180910390fd5b8260000182815481106135e557fe5b9060005260206000200154905092915050565b6000808284600001805490501161365a576040517f08c379a00000000000000000000000000000000000000000000000000000000081526004018080602001828103825260228152602001806149756022913960400191505060405180910390fd5b600084600001848154811061366b57fe5b906000526020600020906002020190508060000154816001015492509250509250929050565b6000808314156136a45760009050613711565b60008284029050828482816136b557fe5b041461370c576040517f08c379a00000000000000000000000000000000000000000000000000000000081526004018080602001828103825260218152602001806149976021913960400191505060405180910390fd5b809150505b92915050565b600080828401905083811015613795576040517f08c379a000000000000000000000000000000000000000000000000000000000815260040180806020018281038252601b8152602001807f536166654d6174683a206164646974696f6e206f766572666c6f77000000000081525060200191505060405180910390fd5b8091505092915050565b600160009054906101000a900473ffffffffffffffffffffffffffffffffffffffff1673ffffffffffffffffffffffffffffffffffffffff166323b872dd83600260009054906101000a900473ffffffffffffffffffffffffffffffffffffffff166064600b5486028161380f57fe5b046040518463ffffffff167c0100000000000000000000000000000000000000000000000000000000028152600401808473ffffffffffffffffffffffffffffffffffffffff1673ffffffffffffffffffffffffffffffffffffffff1681526020018373ffffffffffffffffffffffffffffffffffffffff1673ffffffffffffffffffffffffffffffffffffffff1681526020018281526020019350505050602060405180830381600087803b1580156138c857600080fd5b505af11580156138dc573d6000803e3d6000fd5b505050506040513d60208110156138f257600080fd5b810190808051906020019092919050505050600073ffffffffffffffffffffffffffffffffffffffff16600c5473ffffffffffffffffffffffffffffffffffffffff1614613aa057600160009054906101000a900473ffffffffffffffffffffffffffffffffffffffff1673ffffffffffffffffffffffffffffffffffffffff166323b872dd83600360009054906101000a900473ffffffffffffffffffffffffffffffffffffffff166064600c548602816139aa57fe5b046040518463ffffffff167c0100000000000000000000000000000000000000000000000000000000028152600401808473ffffffffffffffffffffffffffffffffffffffff1673ffffffffffffffffffffffffffffffffffffffff1681526020018373ffffffffffffffffffffffffffffffffffffffff1673ffffffffffffffffffffffffffffffffffffffff1681526020018281526020019350505050602060405180830381600087803b158015613a6357600080fd5b505af1158015613a77573d6000803e3d6000fd5b505050506040513d6020811015613a8d57600080fd5b8101908080519060200190929190505050505b600073ffffffffffffffffffffffffffffffffffffffff16600460009054906101000a900473ffffffffffffffffffffffffffffffffffffffff1673ffffffffffffffffffffffffffffffffffffffff1614613c5c57600160009054906101000a900473ffffffffffffffffffffffffffffffffffffffff1673ffffffffffffffffffffffffffffffffffffffff166323b872dd83600460009054906101000a900473ffffffffffffffffffffffffffffffffffffffff166064600d54860281613b6657fe5b046040518463ffffffff167c0100000000000000000000000000000000000000000000000000000000028152600401808473ffffffffffffffffffffffffffffffffffffffff1673ffffffffffffffffffffffffffffffffffffffff1681526020018373ffffffffffffffffffffffffffffffffffffffff1673ffffffffffffffffffffffffffffffffffffffff1681526020018281526020019350505050602060405180830381600087803b158015613c1f57600080fd5b505af1158015613c33573d6000803e3d6000fd5b505050506040513d6020811015613c4957600080fd5b8101908080519060200190929190505050505b5050565b60008084600101600085815260200190815260200160002054905060008114158390613d27576040517f08c379a00000000000000000000000000000000000000000000000000000000081526004018080602001828103825283818151815260200191508051906020019080838360005b83811015613cec578082015181840152602081019050613cd1565b50505050905090810190601f168015613d195780820380516001836020036101000a031916815260200191505b509250505060405180910390fd5b50846000016001820381548110613d3a57fe5b9060005260206000209060020201600101549150509392505050565b600081600001805490509050919050565b613d7183836142ac565b613d7e6000848484613dd8565b613dd3576040517f08c379a00000000000000000000000000000000000000000000000000000000081526004018080602001828103825260328152602001806148426032913960400191505060405180910390fd5b505050565b6000613df98473ffffffffffffffffffffffffffffffffffffffff166144a0565b613e06576001905061404d565b6060613fb863150b7a027c010000000000000000000000000000000000000000000000000000000002613e376128d3565b888787604051602401808573ffffffffffffffffffffffffffffffffffffffff1673ffffffffffffffffffffffffffffffffffffffff1681526020018473ffffffffffffffffffffffffffffffffffffffff1673ffffffffffffffffffffffffffffffffffffffff16815260200183815260200180602001828103825283818151815260200191508051906020019080838360005b83811015613ee7578082015181840152602081019050613ecc565b50505050905090810190601f168015613f145780820380516001836020036101000a031916815260200191505b5095505050505050604051602081830303815290604052907bffffffffffffffffffffffffffffffffffffffffffffffffffffffff19166020820180517bffffffffffffffffffffffffffffffffffffffffffffffffffffffff8381831617835250505050604051806060016040528060328152602001614842603291398773ffffffffffffffffffffffffffffffffffffffff166144b39092919063ffffffff16565b90506000818060200190516020811015613fd157600080fd5b8101908080519060200190929190505050905063150b7a027c0100000000000000000000000000000000000000000000000000000000027bffffffffffffffffffffffffffffffffffffffffffffffffffffffff1916817bffffffffffffffffffffffffffffffffffffffffffffffffffffffff191614925050505b949350505050565b600080836001016000848152602001908152602001600020541415905092915050565b6000808360010160008481526020019081526020016000205490506000811461415457600060018203905060006001866000018054905003905060008660000182815481106140c357fe5b90600052602060002001549050808760000184815481106140e057fe5b906000526020600020018190555060018301876001016000838152602001908152602001600020819055508660000180548061411857fe5b6001900381819060005260206000200160009055905586600101600087815260200190815260200160002060009055600194505050505061415a565b60009150505b92915050565b600061416c83836144cb565b6141c55782600001829080600181540180825580915050600190039060005260206000200160009091909190915055826000018054905083600101600084815260200190815260200160002081905550600190506141ca565b600090505b92915050565b6000808460010160008581526020019081526020016000205490506000811415614277578460000160405180604001604052808681526020018581525090806001815401808255809150506001900390600052602060002090600202016000909190919091506000820151816000015560208201518160010155505084600001805490508560010160008681526020019081526020016000208190555060019150506142a5565b8285600001600183038154811061428a57fe5b90600052602060002090600202016001018190555060009150505b9392505050565b600073ffffffffffffffffffffffffffffffffffffffff168273ffffffffffffffffffffffffffffffffffffffff16141561434f576040517f08c379a00000000000000000000000000000000000000000000000000000000081526004018080602001828103825260208152602001807f4552433732313a206d696e7420746f20746865207a65726f206164647265737381525060200191505060405180910390fd5b614358816128b6565b156143cb576040517f08c379a000000000000000000000000000000000000000000000000000000000815260040180806020018281038252601c8152602001807f4552433732313a20746f6b656e20616c7265616479206d696e7465640000000081525060200191505060405180910390fd5b6143d760008383613507565b61442881601260008573ffffffffffffffffffffffffffffffffffffffff1673ffffffffffffffffffffffffffffffffffffffff16815260200190815260200160002061352690919063ffffffff16565b5061443f818360136135409092919063ffffffff16565b50808273ffffffffffffffffffffffffffffffffffffffff16600073ffffffffffffffffffffffffffffffffffffffff167fddf252ad1be2c89b69c2b068fc378daa952ba7f163c4a11628f55a4df523b3ef60405160405180910390a45050565b600080823b905060008111915050919050565b60606144c284846000856144ee565b90509392505050565b600080836001016000848152602001908152602001600020541415905092915050565b6060823073ffffffffffffffffffffffffffffffffffffffff16311015614560576040517f08c379a00000000000000000000000000000000000000000000000000000000081526004018080602001828103825260268152602001806148986026913960400191505060405180910390fd5b614569856144a0565b6145db576040517f08c379a000000000000000000000000000000000000000000000000000000000815260040180806020018281038252601d8152602001807f416464726573733a2063616c6c20746f206e6f6e2d636f6e747261637400000081525060200191505060405180910390fd5b600060608673ffffffffffffffffffffffffffffffffffffffff1685876040518082805190602001908083835b6020831061462b5780518252602082019150602081019050602083039250614608565b6001836020036101000a03801982511681845116808217855250505050505090500191505060006040518083038185875af1925050503d806000811461468d576040519150601f19603f3d011682016040523d82523d6000602084013e614692565b606091505b50915091506146a28282866146ae565b92505050949350505050565b606083156146be57829050614773565b6000835111156146d15782518084602001fd5b816040517f08c379a00000000000000000000000000000000000000000000000000000000081526004018080602001828103825283818151815260200191508051906020019080838360005b8381101561473857808201518184015260208101905061471d565b50505050905090810190601f1680156147655780820380516001836020036101000a031916815260200191505b509250505060405180910390fd5b9392505050565b828054600181600116156101000203166002900490600052602060002090601f016020900481019282601f106147bb57805160ff19168380011785556147e9565b828001600101855582156147e9579182015b828111156147e85782518255916020019190600101906147cd565b5b5090506147f691906147fa565b5090565b61481c91905b80821115614818576000816000905550600101614800565b5090565b9056fe456e756d657261626c655365743a20696e646578206f7574206f6620626f756e64734552433732313a207472616e7366657220746f206e6f6e20455243373231526563656976657220696d706c656d656e7465724552433732313a207472616e7366657220746f20746865207a65726f2061646472657373416464726573733a20696e73756666696369656e742062616c616e636520666f722063616c6c4552433732313a206f70657261746f7220717565727920666f72206e6f6e6578697374656e7420746f6b656e4552433732313a20617070726f76652063616c6c6572206973206e6f74206f776e6572206e6f7220617070726f76656420666f7220616c6c4552433732313a2062616c616e636520717565727920666f7220746865207a65726f20616464726573734552433732313a206f776e657220717565727920666f72206e6f6e6578697374656e7420746f6b656e456e756d657261626c654d61703a20696e646578206f7574206f6620626f756e6473536166654d6174683a206d756c7469706c69636174696f6e206f766572666c6f774552433732313a20617070726f76656420717565727920666f72206e6f6e6578697374656e7420746f6b656e4552433732314d657461646174613a2055524920736574206f66206e6f6e6578697374656e7420746f6b656e546f6b656e20776173206e6f742072656769737465726564206f72206e6f742074686520726967687466756c206f776e65724552433732313a207472616e73666572206f6620746f6b656e2074686174206973206e6f74206f776e4552433732314d657461646174613a2055524920717565727920666f72206e6f6e6578697374656e7420746f6b656e4552433732313a20617070726f76616c20746f2063757272656e74206f776e65724552433732313a207472616e736665722063616c6c6572206973206e6f74206f776e6572206e6f7220617070726f766564a2646970667358221220b2867b193e63d91e71c3dd9185d3d554a6b7208fada4649c3ad850ab84e4fd3764736f6c63430006020033",
  "source": "// SPDX-License-Identifier: MIT\n\npragma solidity >=0.6.0;\n\nimport \"@openzeppelin/contracts/token/ERC721/ERC721.sol\";\nimport \"@openzeppelin/contracts/token/ERC20/ERC20.sol\";\nimport \"./utils/Ownable.sol\";\n\ncontract Opener is  Ownable {\n    using SafeMath for uint256;\n\n    ERC20 public _purchaseToken;\n    address public _baseFeeAddress;\n    address public _feeAddress;\n    address public _otherAddress;\n    bool public _isLimited = false;\n    uint256 public _currentTokenId = 1000;\n    uint256 public _limitedAmount;\n    uint256 public _pricePerPack = 1*10**18;\n\n    // Mapping from address to bool, if egg was already claimed\n    // The hash is about the userId and the nftIds array\n    mapping(address => mapping(uint256 => bool)) public registeredIDs;\n    mapping(address => uint256[]) public registeredIDsArray;\n    mapping(uint256 => bool) public alreadyMinted;\n\n    event Opening(address indexed from, uint256 amount, uint256 openedPacks);\n\n    uint256 public _baseFeeShare = 1;\n    uint256 public _feeShare = 99;\n    uint256 public _otherShare = 0;\n    uint256 public MAX_PURCHASE = 10;\n\n    bool public _closed = false;\n    uint256 public _openedPacks = 0;\n\n    constructor(\n        ERC20 purchaseToken,\n        address baseFeeAddress,\n        address feeAddress,\n        address otherAddress,\n        uint256 limitedAmount\n    ) public {\n        _purchaseToken = purchaseToken;\n        _baseFeeAddress = baseFeeAddress;\n        _feeAddress = feeAddress;\n        _otherAddress = otherAddress;\n        if(limitedAmount != 0){\n            _isLimited = true;\n        }\n        _limitedAmount = limitedAmount;\n    }\n\n    function _openPack(uint256 amount) internal {\n        require(!_closed, \"Opener is locked\");\n        uint256 totalPrice = _pricePerPack.mul(amount);\n\n        require(_purchaseToken.allowance(msg.sender, address(this)) >= totalPrice, \"Not enough money per pack\");\n\n        address from = msg.sender;\n\n        require(amount <= MAX_PURCHASE, \"Max purchase per tx reached\");\n\n        if(_isLimited){\n            require(_limitedAmount >= _openedPacks.add(amount), \"Amount of packs not available\");\n        }\n\n        _distributePackShares(from, totalPrice);\n\n        emit Opening(from, amount, _openedPacks);\n        _openedPacks += amount;\n\n        for(uint i = _currentTokenId; i < _currentTokenId.add(amount); i++){\n            registeredIDs[msg.sender][i] = true;\n            registeredIDsArray[msg.sender].push(i);\n        }\n\n        _currentTokenId += amount;\n        _pricePerPack = _pricePerPack*109/100;\n    }\n\n    function _distributePackShares(address from, uint256 amount) internal {\n        //transfer of fee share\n        _purchaseToken.transferFrom(from, _baseFeeAddress, (amount * _baseFeeShare) / 100);\n\n        if(address(_feeShare) != address(0)){\n            //transfer of stake share\n            _purchaseToken.transferFrom(\n                from,\n                _feeAddress,\n                (amount * _feeShare) / 100\n            );\n        }\n\n        if(address(_otherAddress) != address(0)){\n            //transfer of stake share\n            _purchaseToken.transferFrom(\n                from,\n                _otherAddress,\n                (amount * _otherShare) / 100\n            );\n        }\n    }\n\n    function setShares(\n        uint256 feeShare,\n        uint256 otherShare\n    ) public onlyOwner {\n        require(\n            otherShare + feeShare + _baseFeeShare == 100,\n            \"Doesn't add up to 100\"\n        );\n\n        _otherShare = otherShare;\n        _feeShare = feeShare;\n    }\n\n\n    function setPurchaseTokenAddress(ERC20 purchaseToken) public onlyOwner {\n        _purchaseToken = purchaseToken;\n    }\n\n    function setPricePerPack(uint256 newPrice) public onlyOwner {\n        _pricePerPack = newPrice;\n    }\n\n    function setFeeAddress(address feeAddress) public onlyOwner {\n        _feeAddress = feeAddress;\n    }\n\n    function setOtherAddress(address otherAddress) public onlyOwner {\n        _otherAddress = otherAddress;\n    }\n\n    function lock() public onlyOwner {\n        _closed = true;\n    }\n\n    function unlock() public onlyOwner {\n        _closed = false;\n    }\n}\n\n// ERC721Standard made for a simple structure, owner generates himself the NFT he wants (direct minting)\ncontract ERC721Standard is ERC721, Ownable {\n\n    constructor (string memory name, string memory symbol) public ERC721(name, symbol) { }\n\n    function exists(uint256 tokenId) public view returns (bool) {\n        return _exists(tokenId);\n    }\n\n    function setTokenURI(uint256 tokenId, string memory uri) public onlyOwner {\n        _setTokenURI(tokenId, uri);\n    }\n\n    function setBaseURI(string memory baseURI) public onlyOwner {\n        _setBaseURI(baseURI);\n    }\n\n    function mint(address to, uint256 tokenId) public onlyOwner {\n        _safeMint(to, tokenId);\n    }\n\n    function mint(address to, uint256 tokenId, bytes memory _data) public onlyOwner {\n        _safeMint(to, tokenId, _data);\n    }\n}\n\n// ERC721Colectibles made for a Cryptokitties/Polkamon like structure, where an hash is given by the owner based on a purchase of a package\n// Can be limited or unlimited\ncontract ERC721Colectibles is Opener, ERC721 {\n\n    constructor (\n        string memory name, string memory symbol,\n        uint256 limitedAmount,\n        ERC20 _purchaseToken,\n        address baseFeeAddress,\n        address feeAddress,\n        address otherAddress) public ERC721(name, symbol) \n        Opener(_purchaseToken, baseFeeAddress, feeAddress, otherAddress, limitedAmount)\n    {\n    }\n\n    function exists(uint256 tokenId) public view returns (bool) {\n        return _exists(tokenId);\n    }\n\n    function setTokenURI(uint256 tokenId, string memory uri) public onlyOwner {\n        _setTokenURI(tokenId, uri);\n    }\n\n    function setBaseURI(string memory baseURI) public onlyOwner {\n        _setBaseURI(baseURI);\n    }\n\n    function mint(uint256 tokenIdToMint) public {\n        require(\n            tokenIdToMint <= _currentTokenId, \n            \"Token Id not registered\"\n        );\n\n        require(registeredIDs[msg.sender][tokenIdToMint], \"Token was not registered or not the rightful owner\");\n        require(!alreadyMinted[tokenIdToMint], \"Already minted\");\n\n        alreadyMinted[tokenIdToMint] = true;\n        _safeMint(msg.sender, tokenIdToMint);\n    }\n\n    function openPack(uint256 amount) public {\n        _openPack(amount);\n    }\n\n    function getRegisteredIDs(address _address) public view returns(uint256[] memory) {\n        return registeredIDsArray[_address];\n    }\n}",
  "sourcePath": "/Users/ruipedro/Desktop/projects/Bepro/@bepro-js/contracts/ERC721Factory.sol",
  "compiler": {
    "name": "solc",
    "version": "0.6.2+commit.bacdbe57.Emscripten.clang"
  },
  "schemaVersion": "3.0.20",
  "updatedAt": "2021-05-06T10:31:40.620Z",
  "devdoc": {
    "methods": {
      "approve(address,uint256)": {
        "details": "See {IERC721-approve}."
      },
      "balanceOf(address)": {
        "details": "See {IERC721-balanceOf}."
      },
      "baseURI()": {
        "details": "Returns the base URI set via {_setBaseURI}. This will be automatically added as a prefix in {tokenURI} to each token's URI, or to the token ID if no specific URI is set for that token ID."
      },
      "getApproved(uint256)": {
        "details": "See {IERC721-getApproved}."
      },
      "isApprovedForAll(address,address)": {
        "details": "See {IERC721-isApprovedForAll}."
      },
      "name()": {
        "details": "See {IERC721Metadata-name}."
      },
      "ownerOf(uint256)": {
        "details": "See {IERC721-ownerOf}."
      },
      "safeTransferFrom(address,address,uint256)": {
        "details": "See {IERC721-safeTransferFrom}."
      },
      "safeTransferFrom(address,address,uint256,bytes)": {
        "details": "See {IERC721-safeTransferFrom}."
      },
      "setApprovalForAll(address,bool)": {
        "details": "See {IERC721-setApprovalForAll}."
      },
      "supportsInterface(bytes4)": {
        "details": "See {IERC165-supportsInterface}.     * Time complexity O(1), guaranteed to always use less than 30 000 gas."
      },
      "symbol()": {
        "details": "See {IERC721Metadata-symbol}."
      },
      "tokenByIndex(uint256)": {
        "details": "See {IERC721Enumerable-tokenByIndex}."
      },
      "tokenOfOwnerByIndex(address,uint256)": {
        "details": "See {IERC721Enumerable-tokenOfOwnerByIndex}."
      },
      "tokenURI(uint256)": {
        "details": "See {IERC721Metadata-tokenURI}."
      },
      "totalSupply()": {
        "details": "See {IERC721Enumerable-totalSupply}."
      },
      "transferFrom(address,address,uint256)": {
        "details": "See {IERC721-transferFrom}."
      },
      "transferOwnership(address)": {
        "details": "Allows the current owner to transfer control of the contract to a newOwner.",
        "params": {
          "newOwner": "The address to transfer ownership to."
        }
      }
    }
  },
  "userdoc": {
    "methods": {}
  }
}