{
  "contractName": "ERC721Marketplace",
  "abi": [
    {
      "inputs": [
        {
          "internalType": "contract ERC20",
          "name": "_erc20Address",
          "type": "address"
        },
        {
          "internalType": "contract IERC721",
          "name": "_erc721Address",
          "type": "address"
        }
      ],
      "stateMutability": "nonpayable",
      "type": "constructor"
    },
    {
      "anonymous": false,
      "inputs": [
        {
          "indexed": true,
          "internalType": "address",
          "name": "previousOwner",
          "type": "address"
        },
        {
          "indexed": true,
          "internalType": "address",
          "name": "newOwner",
          "type": "address"
        }
      ],
      "name": "OwnershipTransferred",
      "type": "event"
    },
    {
      "anonymous": false,
      "inputs": [
        {
          "indexed": true,
          "internalType": "uint256",
          "name": "tokenId",
          "type": "uint256"
        },
        {
          "indexed": true,
          "internalType": "address",
          "name": "creator",
          "type": "address"
        }
      ],
      "name": "SaleCanceled",
      "type": "event"
    },
    {
      "anonymous": false,
      "inputs": [
        {
          "indexed": true,
          "internalType": "uint256",
          "name": "tokenId",
          "type": "uint256"
        },
        {
          "indexed": false,
          "internalType": "uint256",
          "name": "price",
          "type": "uint256"
        },
        {
          "indexed": true,
          "internalType": "address",
          "name": "creator",
          "type": "address"
        }
      ],
      "name": "SaleCreated",
      "type": "event"
    },
    {
      "anonymous": false,
      "inputs": [
        {
          "indexed": true,
          "internalType": "uint256",
          "name": "tokenId",
          "type": "uint256"
        },
        {
          "indexed": true,
          "internalType": "address",
          "name": "buyer",
          "type": "address"
        },
        {
          "indexed": true,
          "internalType": "address",
          "name": "creator",
          "type": "address"
        },
        {
          "indexed": false,
          "internalType": "uint256",
          "name": "price",
          "type": "uint256"
        }
      ],
      "name": "SaleDone",
      "type": "event"
    },
    {
      "inputs": [],
      "name": "erc20Address",
      "outputs": [
        {
          "internalType": "contract ERC20",
          "name": "",
          "type": "address"
        }
      ],
      "stateMutability": "view",
      "type": "function"
    },
    {
      "inputs": [],
      "name": "feeAddress",
      "outputs": [
        {
          "internalType": "address",
          "name": "",
          "type": "address"
        }
      ],
      "stateMutability": "view",
      "type": "function"
    },
    {
      "inputs": [],
      "name": "feePercentage",
      "outputs": [
        {
          "internalType": "uint256",
          "name": "",
          "type": "uint256"
        }
      ],
      "stateMutability": "view",
      "type": "function"
    },
    {
      "inputs": [],
      "name": "owner",
      "outputs": [
        {
          "internalType": "address",
          "name": "",
          "type": "address"
        }
      ],
      "stateMutability": "view",
      "type": "function"
    },
    {
      "inputs": [],
      "name": "saleIncrementId",
      "outputs": [
        {
          "internalType": "uint256",
          "name": "",
          "type": "uint256"
        }
      ],
      "stateMutability": "view",
      "type": "function"
    },
    {
      "inputs": [
        {
          "internalType": "uint256",
          "name": "",
          "type": "uint256"
        }
      ],
      "name": "sales",
      "outputs": [
        {
          "internalType": "uint256",
          "name": "saleId",
          "type": "uint256"
        },
        {
          "internalType": "uint256",
          "name": "tokenId",
          "type": "uint256"
        },
        {
          "internalType": "uint256",
          "name": "price",
          "type": "uint256"
        },
        {
          "internalType": "address",
          "name": "seller",
          "type": "address"
        },
        {
          "internalType": "address",
          "name": "buyer",
          "type": "address"
        },
        {
          "internalType": "uint256",
          "name": "date",
          "type": "uint256"
        },
        {
          "internalType": "bool",
          "name": "canceled",
          "type": "bool"
        },
        {
          "internalType": "bool",
          "name": "sold",
          "type": "bool"
        }
      ],
      "stateMutability": "view",
      "type": "function"
    },
    {
      "inputs": [
        {
          "internalType": "uint256",
          "name": "",
          "type": "uint256"
        }
      ],
      "name": "salesById",
      "outputs": [
        {
          "internalType": "uint256",
          "name": "",
          "type": "uint256"
        }
      ],
      "stateMutability": "view",
      "type": "function"
    },
    {
      "inputs": [
        {
          "internalType": "address",
          "name": "newOwner",
          "type": "address"
        }
      ],
      "name": "transferOwnership",
      "outputs": [],
      "stateMutability": "nonpayable",
      "type": "function"
    },
    {
      "inputs": [
        {
          "internalType": "uint256",
          "name": "_tokenId",
          "type": "uint256"
        },
        {
          "internalType": "uint256",
          "name": "_price",
          "type": "uint256"
        }
      ],
      "name": "putERC721OnSale",
      "outputs": [],
      "stateMutability": "nonpayable",
      "type": "function"
    },
    {
      "inputs": [
        {
          "internalType": "uint256",
          "name": "_tokenId",
          "type": "uint256"
        }
      ],
      "name": "removeERC721FromSale",
      "outputs": [],
      "stateMutability": "nonpayable",
      "type": "function"
    },
    {
      "inputs": [
        {
          "internalType": "uint256",
          "name": "_tokenId",
          "type": "uint256"
        }
      ],
      "name": "buyERC721",
      "outputs": [],
      "stateMutability": "nonpayable",
      "type": "function"
    },
    {
      "inputs": [
        {
          "internalType": "contract ERC20",
          "name": "_erc20Address",
          "type": "address"
        }
      ],
      "name": "changeERC20",
      "outputs": [],
      "stateMutability": "nonpayable",
      "type": "function"
    },
    {
      "inputs": [
        {
          "internalType": "contract IERC721",
          "name": "_erc721Address",
          "type": "address"
        }
      ],
      "name": "changeERC721",
      "outputs": [],
      "stateMutability": "nonpayable",
      "type": "function"
    },
    {
      "inputs": [
        {
          "internalType": "address",
          "name": "_feeAddress",
          "type": "address"
        },
        {
          "internalType": "uint256",
          "name": "_feePercentage",
          "type": "uint256"
        }
      ],
      "name": "setFixedFees",
      "outputs": [],
      "stateMutability": "nonpayable",
      "type": "function"
    }
  ],
  "bytecode": "0x60806040526000600455600160055534801561001a57600080fd5b506040516110693803806110698339818101604052604081101561003d57600080fd5b508051602090910151600080546001600160a01b03199081163317909155600180546001600160a01b0394851690831617905560028054939092169216919091179055610fda8061008f6000396000f3fe608060405234801561001057600080fd5b50600436106100ea5760003560e01c806395fcf58e1161008c578063c4c2812511610066578063c4c281251461023e578063d26518551461025b578063f2fde38b14610281578063fd637975146102a7576100ea565b806395fcf58e1461019c578063a001ecdd146101c8578063b5f522f7146101d0576100ea565b806341275358116100c857806341275358146101555780637f09e9af1461015d5780638da5cb5b14610177578063944cce5b1461017f576100ea565b8063276184ae146100ef578063332c7263146101135780633c61c90714610138575b600080fd5b6100f76102cd565b604080516001600160a01b039092168252519081900360200190f35b6101366004803603604081101561012957600080fd5b50803590602001356102dc565b005b6101366004803603602081101561014e57600080fd5b5035610686565b6100f76107fe565b61016561080d565b60408051918252519081900360200190f35b6100f7610813565b6101366004803603602081101561019557600080fd5b5035610822565b610136600480360360408110156101b257600080fd5b506001600160a01b038135169060200135610c71565b610165610d3f565b6101ed600480360360208110156101e657600080fd5b5035610d45565b604080519889526020890197909752878701959095526001600160a01b03938416606088015291909216608086015260a0850191909152151560c0840152151560e083015251908190036101000190f35b6101656004803603602081101561025457600080fd5b5035610d9c565b6101366004803603602081101561027157600080fd5b50356001600160a01b0316610dae565b6101366004803603602081101561029757600080fd5b50356001600160a01b0316610de7565b610136600480360360208110156102bd57600080fd5b50356001600160a01b0316610e6c565b6001546001600160a01b031681565b600254604080516331a9108f60e11b815260048101859052905133926001600160a01b031691636352211e916024808301926020929190829003018186803b15801561032757600080fd5b505afa15801561033b573d6000803e3d6000fd5b505050506040513d602081101561035157600080fd5b50516001600160a01b0316146103a5576040805162461bcd60e51b8152602060048201526014602482015273139bdd0813dddb995c881bd9881d1a194813919560621b604482015290519081900360640190fd5b600254604080516323b872dd60e01b81523360048201523060248201526044810185905290516001600160a01b03909216916323b872dd9160648082019260009290919082900301818387803b1580156103fe57600080fd5b505af1158015610412573d6000803e3d6000fd5b5050505061041e610ea5565b60066000848152602001908152602001600020604051806101000160405290816000820154815260200160018201548152602001600282015481526020016003820160009054906101000a90046001600160a01b03166001600160a01b03166001600160a01b031681526020016004820160009054906101000a90046001600160a01b03166001600160a01b03166001600160a01b03168152602001600582015481526020016006820160009054906101000a900460ff161515151581526020016006820160019054906101000a900460ff161515151581525050905060055481600001818152505082816020018181525050818160400181815250503381606001906001600160a01b031690816001600160a01b031681525050428160a0018181525050806006600085815260200190815260200160002060008201518160000155602082015181600101556040820151816002015560608201518160030160006101000a8154816001600160a01b0302191690836001600160a01b0316021790555060808201518160040160006101000a8154816001600160a01b0302191690836001600160a01b0316021790555060a0820151816005015560c08201518160060160006101000a81548160ff02191690831515021790555060e08201518160060160016101000a81548160ff0219169083151502179055509050508260076000600554815260200190815260200160002081905550336001600160a01b0316837f63ee37b4d42c1356bfc458c2a7f33bc4b37d951b24e3ec0852c981789dfc1e9c846040518082815260200191505060405180910390a3505060058054600101905550565b6000818152600660205260409020600301546001600160a01b031633146106eb576040805162461bcd60e51b8152602060048201526014602482015273139bdd0813dddb995c881bd9881d1a194813919560621b604482015290519081900360640190fd5b6000818152600660205260409020600101548114610745576040805162461bcd60e51b81526020600482015260126024820152714e4654206973206e6f7420696e2073616c6560701b604482015290519081900360640190fd5b6000818152600660208190526040808320909101805460ff1916600117905560025481516323b872dd60e01b81523060048201523360248201526044810185905291516001600160a01b03909116926323b872dd926064808201939182900301818387803b1580156107b657600080fd5b505af11580156107ca573d6000803e3d6000fd5b50506040513392508391507fc17a2000b952093a1b49de547dc3416f2a96f6d78da5b597d5ee0272b6be70e990600090a350565b6003546001600160a01b031681565b60055481565b6000546001600160a01b031681565b600081815260066020526040902060010154811461087c576040805162461bcd60e51b81526020600482015260126024820152714e4654206973206e6f7420696e2073616c6560701b604482015290519081900360640190fd5b60008181526006602081905260409091200154610100900460ff16156108d35760405162461bcd60e51b8152600401808060200182810382526024815260200180610f016024913960400191505060405180910390fd5b60015460008281526006602090815260408083206002015481516323b872dd60e01b8152336004820152306024820152604481019190915290516001600160a01b03909416936323b872dd93606480840194938390030190829087803b15801561093c57600080fd5b505af1158015610950573d6000803e3d6000fd5b505050506040513d602081101561096657600080fd5b50516109a35760405162461bcd60e51b815260040180806020018281038252602b815260200180610f25602b913960400191505060405180910390fd5b6003546001600160a01b031615610a9e576001546003546000838152600660205260409020600201546004546001600160a01b039384169363a9059cbb93169160649102046040518363ffffffff1660e01b815260040180836001600160a01b03166001600160a01b0316815260200182815260200192505050602060405180830381600087803b158015610a3757600080fd5b505af1158015610a4b573d6000803e3d6000fd5b505050506040513d6020811015610a6157600080fd5b5051610a9e5760405162461bcd60e51b815260040180806020018281038252602b815260200180610f25602b913960400191505060405180910390fd5b600154600082815260066020526040902060038101546002909101546004546001600160a01b039384169363a9059cbb931691606491820302046040518363ffffffff1660e01b815260040180836001600160a01b03166001600160a01b0316815260200182815260200192505050602060405180830381600087803b158015610b2757600080fd5b505af1158015610b3b573d6000803e3d6000fd5b505050506040513d6020811015610b5157600080fd5b5051610b8e5760405162461bcd60e51b815260040180806020018281038252602e815260200180610f77602e913960400191505060405180910390fd5b600254604080516323b872dd60e01b81523060048201523360248201526044810184905290516001600160a01b03909216916323b872dd9160648082019260009290919082900301818387803b158015610be757600080fd5b505af1158015610bfb573d6000803e3d6000fd5b505050600082815260066020818152604092839020918201805461ff0019166101001790556003820154600290920154835190815292516001600160a01b039092169350339285927ff987d279e153abdd99199c514bc50631e79d5e1f82343a733d9fcd149cff97ff929181900390910190a450565b6000546001600160a01b03163314610c8857600080fd5b6001600160a01b038216610cda576040805162461bcd60e51b81526020600482015260146024820152731059191c995cdcc818d85b9d081899481b9d5b1b60621b604482015290519081900360640190fd5b60648110610d195760405162461bcd60e51b8152600401808060200182810382526027815260200180610f506027913960400191505060405180910390fd5b600380546001600160a01b0319166001600160a01b039390931692909217909155600455565b60045481565b600660208190526000918252604090912080546001820154600283015460038401546004850154600586015495909601549395929491936001600160a01b0391821693909116919060ff8082169161010090041688565b60076020526000908152604090205481565b6000546001600160a01b03163314610dc557600080fd5b600180546001600160a01b0319166001600160a01b0392909216919091179055565b6000546001600160a01b03163314610dfe57600080fd5b6001600160a01b038116610e1157600080fd5b600080546040516001600160a01b03808516939216917f8be0079c531659141344cd1fd0a4f28419497f9722a3daafe3b4186f6b6457e091a3600080546001600160a01b0319166001600160a01b0392909216919091179055565b6000546001600160a01b03163314610e8357600080fd5b600280546001600160a01b0319166001600160a01b0392909216919091179055565b60405180610100016040528060008152602001600081526020016000815260200160006001600160a01b0316815260200160006001600160a01b0316815260200160008152602001600015158152602001600015158152509056fe4e46542068617320746f20626520617661696c61626c6520666f72207075726368617365436f6e747261637420776173206e6f7420616c6c6f77656420746f20646f20746865207472616e736665724665652050657263656e746167652068617320746f206265206c6f776572207468616e203130305761736e742061626c6520746f207472616e736665722074686520455243323020746f207468652073656c6c6572a2646970667358221220350f4c8f99581270a2856b15f9afcac4980adb4e845916fdd26224776087606f64736f6c63430006020033",
  "source": "pragma solidity >=0.6.0;\n\nimport \"@openzeppelin/contracts/token/ERC721/ERC721.sol\";\nimport \"@openzeppelin/contracts/token/ERC20/ERC20.sol\";\nimport \"./utils/Ownable.sol\";\n\ncontract ERC721Marketplace is Ownable {\n\n    using SafeMath for uint256;\n\n    ERC20 public erc20Address;\n    IERC721 private erc721Address;\n    address public feeAddress;\n    uint256 public feePercentage = 0; // 1 = 1%\n    uint256 public saleIncrementId = 1;\n    \n    mapping(uint256 => Sale) public sales; // maps token id with sales object\n    mapping(uint256 => uint256) public salesById; // maps saleId with token id\n\n    struct Sale {\n        uint256 saleId;\n        uint256 tokenId;\n        uint256 price;\n        address seller;\n        address buyer;\n        uint256 date;\n        bool canceled;\n        bool sold;\n    }\n\n    constructor(ERC20 _erc20Address, \n    IERC721 _erc721Address) public {\n        erc20Address = _erc20Address;\n        erc721Address = _erc721Address;\n    }\n\n    event SaleCreated(uint256 indexed tokenId, uint256 price, address indexed creator);\n    event SaleCanceled(uint256 indexed tokenId, address indexed creator);\n    event SaleDone(uint256 indexed tokenId, address indexed buyer,  address indexed creator, uint256 price);\n\n    function putERC721OnSale(uint256 _tokenId, uint256 _price) public {\n        require(erc721Address.ownerOf(_tokenId) == msg.sender, \"Not Owner of the NFT\");\n        erc721Address.transferFrom(msg.sender, address(this), _tokenId);\n        // Create Sale Object\n        Sale memory sale = sales[_tokenId];\n        sale.saleId = saleIncrementId;\n        sale.tokenId = _tokenId;\n        sale.price = _price;\n        sale.seller = msg.sender;\n        sale.date = block.timestamp;\n        sales[_tokenId] = sale;\n        salesById[saleIncrementId] = _tokenId;\n\n        emit SaleCreated(_tokenId, _price, msg.sender);\n        saleIncrementId = saleIncrementId+1;\n    }\n\n    function removeERC721FromSale(uint256 _tokenId) public {\n        require(sales[_tokenId].seller == msg.sender, \"Not Owner of the NFT\");\n        require(sales[_tokenId].tokenId == _tokenId, \"NFT is not in sale\");\n        sales[_tokenId].canceled = true;\n        erc721Address.transferFrom(address(this), msg.sender, _tokenId);\n        emit SaleCanceled(_tokenId, msg.sender);\n    }\n\n    function buyERC721(uint256 _tokenId) public virtual {\n        require(sales[_tokenId].tokenId == _tokenId, \"NFT is not in sale\");\n        require(!sales[_tokenId].sold, \"NFT has to be available for purchase\" );\n\n        //Transfer ERC20 to contract\n        require(erc20Address.transferFrom(msg.sender, address(this), sales[_tokenId].price), \"Contract was not allowed to do the transfer\");\n\n        if(feeAddress != address(0)){\n            // Transfer fee to fee address\n            require(erc20Address.transfer(\n                    feeAddress,\n                    (feePercentage * sales[_tokenId].price) / 100\n            ), \"Contract was not allowed to do the transfer\");\n        }\n      \n        //Transfer ERC20 to seller\n        require(erc20Address.transfer(sales[_tokenId].seller, ((100-feePercentage) * sales[_tokenId].price) / 100), \"Wasnt able to transfer the ERC20 to the seller\");\n        \n        //Transfer ERC721 to buyer\n        erc721Address.transferFrom(address(this), msg.sender, _tokenId);\n\n        sales[_tokenId].sold = true;\n        emit SaleDone(_tokenId, msg.sender, sales[_tokenId].seller, sales[_tokenId].price);\n    }\n\n    function changeERC20(ERC20 _erc20Address) public onlyOwner {\n        erc20Address = _erc20Address;\n    }\n\n    function changeERC721(IERC721 _erc721Address) public onlyOwner {\n        erc721Address = _erc721Address;\n    }\n\n    function setFixedFees(address _feeAddress, uint256 _feePercentage) public onlyOwner {\n        require(_feeAddress != address(0), \"Address cant be null\");\n        require(_feePercentage < 100, \"Fee Percentage has to be lower than 100\");\n        feeAddress = _feeAddress;\n        feePercentage = _feePercentage;\n    }\n\n}",
  "sourcePath": "/Users/ruipedro/Desktop/projects/Bepro/@bepro-js/contracts/ERC721Marketplace.sol",
  "compiler": {
    "name": "solc",
    "version": "0.6.2+commit.bacdbe57.Emscripten.clang"
  },
  "schemaVersion": "3.0.20",
  "updatedAt": "2021-06-22T10:39:33.606Z",
  "devdoc": {
    "methods": {
      "transferOwnership(address)": {
        "details": "Allows the current owner to transfer control of the contract to a newOwner.",
        "params": {
          "newOwner": "The address to transfer ownership to."
        }
      }
    }
  },
  "userdoc": {
    "methods": {}
  }
}