{
  "contractName": "ERC721Colectibles",
  "abi": [
    {
      "inputs": [
        {
          "internalType": "string",
          "name": "name",
          "type": "string"
        },
        {
          "internalType": "string",
          "name": "symbol",
          "type": "string"
        },
        {
          "internalType": "contract ERC20",
          "name": "_purchaseToken",
          "type": "address"
        }
      ],
      "stateMutability": "nonpayable",
      "type": "constructor"
    },
    {
      "anonymous": false,
      "inputs": [
        {
          "indexed": true,
          "internalType": "address",
          "name": "owner",
          "type": "address"
        },
        {
          "indexed": true,
          "internalType": "address",
          "name": "approved",
          "type": "address"
        },
        {
          "indexed": true,
          "internalType": "uint256",
          "name": "tokenId",
          "type": "uint256"
        }
      ],
      "name": "Approval",
      "type": "event"
    },
    {
      "anonymous": false,
      "inputs": [
        {
          "indexed": true,
          "internalType": "address",
          "name": "owner",
          "type": "address"
        },
        {
          "indexed": true,
          "internalType": "address",
          "name": "operator",
          "type": "address"
        },
        {
          "indexed": false,
          "internalType": "bool",
          "name": "approved",
          "type": "bool"
        }
      ],
      "name": "ApprovalForAll",
      "type": "event"
    },
    {
      "anonymous": false,
      "inputs": [
        {
          "indexed": true,
          "internalType": "address",
          "name": "previousOwner",
          "type": "address"
        },
        {
          "indexed": true,
          "internalType": "address",
          "name": "newOwner",
          "type": "address"
        }
      ],
      "name": "OwnershipTransferred",
      "type": "event"
    },
    {
      "anonymous": false,
      "inputs": [
        {
          "indexed": false,
          "internalType": "uint256",
          "name": "packId",
          "type": "uint256"
        },
        {
          "indexed": false,
          "internalType": "uint256",
          "name": "nftsAmount",
          "type": "uint256"
        },
        {
          "indexed": true,
          "internalType": "string",
          "name": "serie",
          "type": "string"
        },
        {
          "indexed": true,
          "internalType": "string",
          "name": "packType",
          "type": "string"
        },
        {
          "indexed": true,
          "internalType": "string",
          "name": "drop",
          "type": "string"
        }
      ],
      "name": "PackCreated",
      "type": "event"
    },
    {
      "anonymous": false,
      "inputs": [
        {
          "indexed": true,
          "internalType": "uint256",
          "name": "packId",
          "type": "uint256"
        }
      ],
      "name": "PackDelete",
      "type": "event"
    },
    {
      "anonymous": false,
      "inputs": [
        {
          "indexed": true,
          "internalType": "address",
          "name": "by",
          "type": "address"
        },
        {
          "indexed": true,
          "internalType": "uint256",
          "name": "packId",
          "type": "uint256"
        }
      ],
      "name": "PackOpened",
      "type": "event"
    },
    {
      "anonymous": false,
      "inputs": [
        {
          "indexed": true,
          "internalType": "address",
          "name": "from",
          "type": "address"
        },
        {
          "indexed": true,
          "internalType": "address",
          "name": "to",
          "type": "address"
        },
        {
          "indexed": true,
          "internalType": "uint256",
          "name": "tokenId",
          "type": "uint256"
        }
      ],
      "name": "Transfer",
      "type": "event"
    },
    {
      "inputs": [],
      "name": "_closed",
      "outputs": [
        {
          "internalType": "bool",
          "name": "",
          "type": "bool"
        }
      ],
      "stateMutability": "view",
      "type": "function"
    },
    {
      "inputs": [],
      "name": "_openedPacks",
      "outputs": [
        {
          "internalType": "uint256",
          "name": "",
          "type": "uint256"
        }
      ],
      "stateMutability": "view",
      "type": "function"
    },
    {
      "inputs": [],
      "name": "_purchaseToken",
      "outputs": [
        {
          "internalType": "contract ERC20",
          "name": "",
          "type": "address"
        }
      ],
      "stateMutability": "view",
      "type": "function"
    },
    {
      "inputs": [],
      "name": "_realFvrTokenPriceUSD",
      "outputs": [
        {
          "internalType": "uint256",
          "name": "",
          "type": "uint256"
        }
      ],
      "stateMutability": "view",
      "type": "function"
    },
    {
      "inputs": [
        {
          "internalType": "uint256",
          "name": "",
          "type": "uint256"
        }
      ],
      "name": "alreadyMinted",
      "outputs": [
        {
          "internalType": "bool",
          "name": "",
          "type": "bool"
        }
      ],
      "stateMutability": "view",
      "type": "function"
    },
    {
      "inputs": [
        {
          "internalType": "address",
          "name": "to",
          "type": "address"
        },
        {
          "internalType": "uint256",
          "name": "tokenId",
          "type": "uint256"
        }
      ],
      "name": "approve",
      "outputs": [],
      "stateMutability": "nonpayable",
      "type": "function"
    },
    {
      "inputs": [
        {
          "internalType": "address",
          "name": "owner",
          "type": "address"
        }
      ],
      "name": "balanceOf",
      "outputs": [
        {
          "internalType": "uint256",
          "name": "",
          "type": "uint256"
        }
      ],
      "stateMutability": "view",
      "type": "function"
    },
    {
      "inputs": [],
      "name": "baseURI",
      "outputs": [
        {
          "internalType": "string",
          "name": "",
          "type": "string"
        }
      ],
      "stateMutability": "view",
      "type": "function"
    },
    {
      "inputs": [
        {
          "internalType": "uint256",
          "name": "packId",
          "type": "uint256"
        }
      ],
      "name": "buyPack",
      "outputs": [],
      "stateMutability": "nonpayable",
      "type": "function"
    },
    {
      "inputs": [
        {
          "internalType": "uint256",
          "name": "packNumber",
          "type": "uint256"
        },
        {
          "internalType": "uint256",
          "name": "nftAmount",
          "type": "uint256"
        },
        {
          "internalType": "uint256",
          "name": "price",
          "type": "uint256"
        },
        {
          "internalType": "string",
          "name": "serie",
          "type": "string"
        },
        {
          "internalType": "string",
          "name": "packType",
          "type": "string"
        },
        {
          "internalType": "string",
          "name": "drop",
          "type": "string"
        },
        {
          "internalType": "uint256",
          "name": "saleStart",
          "type": "uint256"
        },
        {
          "internalType": "address[]",
          "name": "saleDistributionAddresses",
          "type": "address[]"
        },
        {
          "internalType": "uint256[]",
          "name": "saleDistributionAmounts",
          "type": "uint256[]"
        }
      ],
      "name": "createPack",
      "outputs": [],
      "stateMutability": "nonpayable",
      "type": "function"
    },
    {
      "inputs": [
        {
          "internalType": "uint256",
          "name": "packId",
          "type": "uint256"
        }
      ],
      "name": "deletePackById",
      "outputs": [],
      "stateMutability": "nonpayable",
      "type": "function"
    },
    {
      "inputs": [
        {
          "internalType": "uint256",
          "name": "_packId",
          "type": "uint256"
        },
        {
          "internalType": "uint256",
          "name": "_saleStart",
          "type": "uint256"
        },
        {
          "internalType": "string",
          "name": "serie",
          "type": "string"
        },
        {
          "internalType": "string",
          "name": "packType",
          "type": "string"
        },
        {
          "internalType": "string",
          "name": "drop",
          "type": "string"
        },
        {
          "internalType": "uint256",
          "name": "price",
          "type": "uint256"
        }
      ],
      "name": "editPackInfo",
      "outputs": [],
      "stateMutability": "nonpayable",
      "type": "function"
    },
    {
      "inputs": [
        {
          "internalType": "uint256",
          "name": "tokenId",
          "type": "uint256"
        }
      ],
      "name": "getApproved",
      "outputs": [
        {
          "internalType": "address",
          "name": "",
          "type": "address"
        }
      ],
      "stateMutability": "view",
      "type": "function"
    },
    {
      "inputs": [
        {
          "internalType": "uint256",
          "name": "packId",
          "type": "uint256"
        }
      ],
      "name": "getPackPriceInFVR",
      "outputs": [
        {
          "internalType": "uint256",
          "name": "",
          "type": "uint256"
        }
      ],
      "stateMutability": "nonpayable",
      "type": "function"
    },
    {
      "inputs": [
        {
          "internalType": "uint256",
          "name": "_packId",
          "type": "uint256"
        }
      ],
      "name": "getPackbyId",
      "outputs": [
        {
          "internalType": "uint256",
          "name": "",
          "type": "uint256"
        },
        {
          "internalType": "uint256",
          "name": "",
          "type": "uint256"
        },
        {
          "internalType": "uint256",
          "name": "",
          "type": "uint256"
        },
        {
          "internalType": "uint256",
          "name": "",
          "type": "uint256"
        },
        {
          "internalType": "string",
          "name": "",
          "type": "string"
        },
        {
          "internalType": "string",
          "name": "",
          "type": "string"
        },
        {
          "internalType": "string",
          "name": "",
          "type": "string"
        },
        {
          "internalType": "address",
          "name": "",
          "type": "address"
        },
        {
          "internalType": "address[]",
          "name": "",
          "type": "address[]"
        },
        {
          "internalType": "uint256[]",
          "name": "",
          "type": "uint256[]"
        }
      ],
      "stateMutability": "nonpayable",
      "type": "function"
    },
    {
      "inputs": [
        {
          "internalType": "address",
          "name": "owner",
          "type": "address"
        },
        {
          "internalType": "address",
          "name": "operator",
          "type": "address"
        }
      ],
      "name": "isApprovedForAll",
      "outputs": [
        {
          "internalType": "bool",
          "name": "",
          "type": "bool"
        }
      ],
      "stateMutability": "view",
      "type": "function"
    },
    {
      "inputs": [],
      "name": "lastNFTID",
      "outputs": [
        {
          "internalType": "uint256",
          "name": "",
          "type": "uint256"
        }
      ],
      "stateMutability": "view",
      "type": "function"
    },
    {
      "inputs": [],
      "name": "lock",
      "outputs": [],
      "stateMutability": "nonpayable",
      "type": "function"
    },
    {
      "inputs": [],
      "name": "name",
      "outputs": [
        {
          "internalType": "string",
          "name": "",
          "type": "string"
        }
      ],
      "stateMutability": "view",
      "type": "function"
    },
    {
      "inputs": [
        {
          "internalType": "uint256",
          "name": "packId",
          "type": "uint256"
        },
        {
          "internalType": "address",
          "name": "receivingAddress",
          "type": "address"
        }
      ],
      "name": "offerPack",
      "outputs": [],
      "stateMutability": "nonpayable",
      "type": "function"
    },
    {
      "inputs": [],
      "name": "owner",
      "outputs": [
        {
          "internalType": "address",
          "name": "",
          "type": "address"
        }
      ],
      "stateMutability": "view",
      "type": "function"
    },
    {
      "inputs": [
        {
          "internalType": "uint256",
          "name": "tokenId",
          "type": "uint256"
        }
      ],
      "name": "ownerOf",
      "outputs": [
        {
          "internalType": "address",
          "name": "",
          "type": "address"
        }
      ],
      "stateMutability": "view",
      "type": "function"
    },
    {
      "inputs": [],
      "name": "packIncrementId",
      "outputs": [
        {
          "internalType": "uint256",
          "name": "",
          "type": "uint256"
        }
      ],
      "stateMutability": "view",
      "type": "function"
    },
    {
      "inputs": [
        {
          "internalType": "uint256",
          "name": "",
          "type": "uint256"
        }
      ],
      "name": "packs",
      "outputs": [
        {
          "internalType": "uint256",
          "name": "packId",
          "type": "uint256"
        },
        {
          "internalType": "uint256",
          "name": "nftAmount",
          "type": "uint256"
        },
        {
          "internalType": "uint256",
          "name": "packNumber",
          "type": "uint256"
        },
        {
          "internalType": "uint256",
          "name": "initialNFTId",
          "type": "uint256"
        },
        {
          "internalType": "uint256",
          "name": "saleStart",
          "type": "uint256"
        },
        {
          "internalType": "uint256",
          "name": "price",
          "type": "uint256"
        },
        {
          "internalType": "string",
          "name": "serie",
          "type": "string"
        },
        {
          "internalType": "string",
          "name": "drop",
          "type": "string"
        },
        {
          "internalType": "string",
          "name": "packType",
          "type": "string"
        },
        {
          "internalType": "address",
          "name": "buyer",
          "type": "address"
        }
      ],
      "stateMutability": "view",
      "type": "function"
    },
    {
      "inputs": [
        {
          "internalType": "address",
          "name": "",
          "type": "address"
        },
        {
          "internalType": "uint256",
          "name": "",
          "type": "uint256"
        }
      ],
      "name": "registeredIDs",
      "outputs": [
        {
          "internalType": "bool",
          "name": "",
          "type": "bool"
        }
      ],
      "stateMutability": "view",
      "type": "function"
    },
    {
      "inputs": [
        {
          "internalType": "address",
          "name": "",
          "type": "address"
        },
        {
          "internalType": "uint256",
          "name": "",
          "type": "uint256"
        }
      ],
      "name": "registeredIDsArray",
      "outputs": [
        {
          "internalType": "uint256",
          "name": "",
          "type": "uint256"
        }
      ],
      "stateMutability": "view",
      "type": "function"
    },
    {
      "inputs": [
        {
          "internalType": "address",
          "name": "from",
          "type": "address"
        },
        {
          "internalType": "address",
          "name": "to",
          "type": "address"
        },
        {
          "internalType": "uint256",
          "name": "tokenId",
          "type": "uint256"
        }
      ],
      "name": "safeTransferFrom",
      "outputs": [],
      "stateMutability": "nonpayable",
      "type": "function"
    },
    {
      "inputs": [
        {
          "internalType": "address",
          "name": "from",
          "type": "address"
        },
        {
          "internalType": "address",
          "name": "to",
          "type": "address"
        },
        {
          "internalType": "uint256",
          "name": "tokenId",
          "type": "uint256"
        },
        {
          "internalType": "bytes",
          "name": "_data",
          "type": "bytes"
        }
      ],
      "name": "safeTransferFrom",
      "outputs": [],
      "stateMutability": "nonpayable",
      "type": "function"
    },
    {
      "inputs": [
        {
          "internalType": "address",
          "name": "operator",
          "type": "address"
        },
        {
          "internalType": "bool",
          "name": "approved",
          "type": "bool"
        }
      ],
      "name": "setApprovalForAll",
      "outputs": [],
      "stateMutability": "nonpayable",
      "type": "function"
    },
    {
      "inputs": [
        {
          "internalType": "contract ERC20",
          "name": "purchaseToken",
          "type": "address"
        }
      ],
      "name": "setPurchaseTokenAddress",
      "outputs": [],
      "stateMutability": "nonpayable",
      "type": "function"
    },
    {
      "inputs": [
        {
          "internalType": "uint256",
          "name": "newPrice",
          "type": "uint256"
        }
      ],
      "name": "setTokenPriceInUSD",
      "outputs": [],
      "stateMutability": "nonpayable",
      "type": "function"
    },
    {
      "inputs": [
        {
          "internalType": "bytes4",
          "name": "interfaceId",
          "type": "bytes4"
        }
      ],
      "name": "supportsInterface",
      "outputs": [
        {
          "internalType": "bool",
          "name": "",
          "type": "bool"
        }
      ],
      "stateMutability": "view",
      "type": "function"
    },
    {
      "inputs": [],
      "name": "symbol",
      "outputs": [
        {
          "internalType": "string",
          "name": "",
          "type": "string"
        }
      ],
      "stateMutability": "view",
      "type": "function"
    },
    {
      "inputs": [
        {
          "internalType": "uint256",
          "name": "index",
          "type": "uint256"
        }
      ],
      "name": "tokenByIndex",
      "outputs": [
        {
          "internalType": "uint256",
          "name": "",
          "type": "uint256"
        }
      ],
      "stateMutability": "view",
      "type": "function"
    },
    {
      "inputs": [
        {
          "internalType": "address",
          "name": "owner",
          "type": "address"
        },
        {
          "internalType": "uint256",
          "name": "index",
          "type": "uint256"
        }
      ],
      "name": "tokenOfOwnerByIndex",
      "outputs": [
        {
          "internalType": "uint256",
          "name": "",
          "type": "uint256"
        }
      ],
      "stateMutability": "view",
      "type": "function"
    },
    {
      "inputs": [
        {
          "internalType": "uint256",
          "name": "tokenId",
          "type": "uint256"
        }
      ],
      "name": "tokenURI",
      "outputs": [
        {
          "internalType": "string",
          "name": "",
          "type": "string"
        }
      ],
      "stateMutability": "view",
      "type": "function"
    },
    {
      "inputs": [],
      "name": "totalSupply",
      "outputs": [
        {
          "internalType": "uint256",
          "name": "",
          "type": "uint256"
        }
      ],
      "stateMutability": "view",
      "type": "function"
    },
    {
      "inputs": [
        {
          "internalType": "address",
          "name": "from",
          "type": "address"
        },
        {
          "internalType": "address",
          "name": "to",
          "type": "address"
        },
        {
          "internalType": "uint256",
          "name": "tokenId",
          "type": "uint256"
        }
      ],
      "name": "transferFrom",
      "outputs": [],
      "stateMutability": "nonpayable",
      "type": "function"
    },
    {
      "inputs": [
        {
          "internalType": "address",
          "name": "newOwner",
          "type": "address"
        }
      ],
      "name": "transferOwnership",
      "outputs": [],
      "stateMutability": "nonpayable",
      "type": "function"
    },
    {
      "inputs": [],
      "name": "unlock",
      "outputs": [],
      "stateMutability": "nonpayable",
      "type": "function"
    },
    {
      "inputs": [
        {
          "internalType": "uint256",
          "name": "tokenId",
          "type": "uint256"
        }
      ],
      "name": "exists",
      "outputs": [
        {
          "internalType": "bool",
          "name": "",
          "type": "bool"
        }
      ],
      "stateMutability": "view",
      "type": "function"
    },
    {
      "inputs": [
        {
          "internalType": "uint256",
          "name": "tokenId",
          "type": "uint256"
        },
        {
          "internalType": "string",
          "name": "uri",
          "type": "string"
        }
      ],
      "name": "setTokenURI",
      "outputs": [],
      "stateMutability": "nonpayable",
      "type": "function"
    },
    {
      "inputs": [
        {
          "internalType": "string",
          "name": "baseURI",
          "type": "string"
        }
      ],
      "name": "setBaseURI",
      "outputs": [],
      "stateMutability": "nonpayable",
      "type": "function"
    },
    {
      "inputs": [
        {
          "internalType": "uint256",
          "name": "tokenIdToMint",
          "type": "uint256"
        }
      ],
      "name": "mint",
      "outputs": [],
      "stateMutability": "nonpayable",
      "type": "function"
    },
    {
      "inputs": [
        {
          "internalType": "address",
          "name": "_address",
          "type": "address"
        }
      ],
      "name": "getRegisteredIDs",
      "outputs": [
        {
          "internalType": "uint256[]",
          "name": "",
          "type": "uint256[]"
        }
      ],
      "stateMutability": "view",
      "type": "function"
    }
  ],
  "bytecode": "0x60806040526000600655600060075560006008556000600960006101000a81548160ff0219169083151502179055506000600a553480156200004057600080fd5b506040516200700b3803806200700b833981810160405260608110156200006657600080fd5b81019080805160405193929190846401000000008211156200008757600080fd5b838201915060208201858111156200009e57600080fd5b8251866001820283011164010000000082111715620000bc57600080fd5b8083526020830192505050908051906020019080838360005b83811015620000f2578082015181840152602081019050620000d5565b50505050905090810190601f168015620001205780820380516001836020036101000a031916815260200191505b50604052602001805160405193929190846401000000008211156200014457600080fd5b838201915060208201858111156200015b57600080fd5b82518660018202830111640100000000821117156200017957600080fd5b8083526020830192505050908051906020019080838360005b83811015620001af57808201518184015260208101905062000192565b50505050905090810190601f168015620001dd5780820380516001836020036101000a031916815260200191505b5060405260200180519060200190929190505050828282336000806101000a81548173ffffffffffffffffffffffffffffffffffffffff021916908373ffffffffffffffffffffffffffffffffffffffff16021790555080600160006101000a81548173ffffffffffffffffffffffffffffffffffffffff021916908373ffffffffffffffffffffffffffffffffffffffff16021790555050620002b36301ffc9a77c010000000000000000000000000000000000000000000000000000000002620003a7640100000000026401000000009004565b8160119080519060200190620002cb929190620004cd565b508060129080519060200190620002e4929190620004cd565b50620003226380ac58cd7c010000000000000000000000000000000000000000000000000000000002620003a7640100000000026401000000009004565b6200035f635b5e139f7c010000000000000000000000000000000000000000000000000000000002620003a7640100000000026401000000009004565b6200039c63780e9d637c010000000000000000000000000000000000000000000000000000000002620003a7640100000000026401000000009004565b50505050506200057c565b63ffffffff7c010000000000000000000000000000000000000000000000000000000002817bffffffffffffffffffffffffffffffffffffffffffffffffffffffff1916141562000460576040517f08c379a000000000000000000000000000000000000000000000000000000000815260040180806020018281038252601c8152602001807f4552433136353a20696e76616c696420696e746572666163652069640000000081525060200191505060405180910390fd5b6001600b6000837bffffffffffffffffffffffffffffffffffffffffffffffffffffffff19167bffffffffffffffffffffffffffffffffffffffffffffffffffffffff1916815260200190815260200160002060006101000a81548160ff02191690831515021790555050565b828054600181600116156101000203166002900490600052602060002090601f016020900481019282601f106200051057805160ff191683800117855562000541565b8280016001018555821562000541579182015b828111156200054057825182559160200191906001019062000523565b5b50905062000550919062000554565b5090565b6200057991905b80821115620005755760008160009055506001016200055b565b5090565b90565b616a7f806200058c6000396000f3fe608060405234801561001057600080fd5b506004361061029c576000357c01000000000000000000000000000000000000000000000000000000009004806369c7d8a311610179578063b84c1392116100eb578063e985e9c5116100a4578063e985e9c5146118bd578063eb8800d014611939578063ec6923a114611957578063ec90a293146119a5578063f2fde38b146119d3578063f83d08ba14611a175761029c565b8063b84c1392146114c7578063b88d4fde146116a3578063c87b56dd146117a8578063dc45bfb31461184f578063dd7c5e541461187d578063e64165031461189f5761029c565b80638da5cb5b1161013d5780638da5cb5b1461132c57806395d89b4114611376578063a0712d68146113f9578063a22cb46514611427578063a69df4b514611477578063b7365f1f146114815761029c565b806369c7d8a3146111a75780636c0360eb146111f15780636fcbc6ed1461127457806370a082311461129257806384a50270146112ea5761029c565b806323b872dd1161021257806342842e0e116101d657806342842e0e14610f5a5780634f558e7914610fc85780634f6ccce71461100e57806355f804b3146110505780635eeb57c01461110b5780636352211e146111395761029c565b806323b872dd14610ba6578063298489d214610c145780632c68603014610c585780632f745c5914610cf15780633a307f6114610d535761029c565b806315424e6e1161026457806315424e6e146104a7578063162094c41461070557806318160ddd146107ca5780631a27a338146107e85780631e14a53314610b225780631eae863614610b885761029c565b806301d243a6146102a157806301ffc9a71461030357806306fdde0314610368578063081812fc146103eb578063095ea7b314610459575b600080fd5b6102ed600480360360408110156102b757600080fd5b81019080803573ffffffffffffffffffffffffffffffffffffffff16906020019092919080359060200190929190505050611a21565b6040518082815260200191505060405180910390f35b61034e6004803603602081101561031957600080fd5b8101908080357bffffffffffffffffffffffffffffffffffffffffffffffffffffffff19169060200190929190505050611a4f565b604051808215151515815260200191505060405180910390f35b610370611ab7565b6040518080602001828103825283818151815260200191508051906020019080838360005b838110156103b0578082015181840152602081019050610395565b50505050905090810190601f1680156103dd5780820380516001836020036101000a031916815260200191505b509250505060405180910390f35b6104176004803603602081101561040157600080fd5b8101908080359060200190929190505050611b59565b604051808273ffffffffffffffffffffffffffffffffffffffff1673ffffffffffffffffffffffffffffffffffffffff16815260200191505060405180910390f35b6104a56004803603604081101561046f57600080fd5b81019080803573ffffffffffffffffffffffffffffffffffffffff16906020019092919080359060200190929190505050611bf4565b005b6104d3600480360360208110156104bd57600080fd5b8101908080359060200190929190505050611d38565b604051808b81526020018a81526020018981526020018881526020018060200180602001806020018773ffffffffffffffffffffffffffffffffffffffff1673ffffffffffffffffffffffffffffffffffffffff168152602001806020018060200186810386528c818151815260200191508051906020019080838360005b8381101561056d578082015181840152602081019050610552565b50505050905090810190601f16801561059a5780820380516001836020036101000a031916815260200191505b5086810385528b818151815260200191508051906020019080838360005b838110156105d35780820151818401526020810190506105b8565b50505050905090810190601f1680156106005780820380516001836020036101000a031916815260200191505b5086810384528a818151815260200191508051906020019080838360005b8381101561063957808201518184015260208101905061061e565b50505050905090810190601f1680156106665780820380516001836020036101000a031916815260200191505b50868103835288818151815260200191508051906020019060200280838360005b838110156106a2578082015181840152602081019050610687565b50505050905001868103825287818151815260200191508051906020019060200280838360005b838110156106e45780820151818401526020810190506106c9565b505050509050019f5050505050505050505050505050505060405180910390f35b6107c86004803603604081101561071b57600080fd5b81019080803590602001909291908035906020019064010000000081111561074257600080fd5b82018360208201111561075457600080fd5b8035906020019184600183028401116401000000008311171561077657600080fd5b91908080601f016020809104026020016040519081016040528093929190818152602001838380828437600081840152601f19601f82011690508083019250505050505050919291929050505061218f565b005b6107d26121f6565b6040518082815260200191505060405180910390f35b610b2060048036036101208110156107ff57600080fd5b810190808035906020019092919080359060200190929190803590602001909291908035906020019064010000000081111561083a57600080fd5b82018360208201111561084c57600080fd5b8035906020019184600183028401116401000000008311171561086e57600080fd5b91908080601f016020809104026020016040519081016040528093929190818152602001838380828437600081840152601f19601f820116905080830192505050505050509192919290803590602001906401000000008111156108d157600080fd5b8201836020820111156108e357600080fd5b8035906020019184600183028401116401000000008311171561090557600080fd5b91908080601f016020809104026020016040519081016040528093929190818152602001838380828437600081840152601f19601f8201169050808301925050505050505091929192908035906020019064010000000081111561096857600080fd5b82018360208201111561097a57600080fd5b8035906020019184600183028401116401000000008311171561099c57600080fd5b91908080601f016020809104026020016040519081016040528093929190818152602001838380828437600081840152601f19601f8201169050808301925050505050505091929192908035906020019092919080359060200190640100000000811115610a0957600080fd5b820183602082011115610a1b57600080fd5b80359060200191846020830284011164010000000083111715610a3d57600080fd5b919080806020026020016040519081016040528093929190818152602001838360200280828437600081840152601f19601f82011690508083019250505050505050919291929080359060200190640100000000811115610a9d57600080fd5b820183602082011115610aaf57600080fd5b80359060200191846020830284011164010000000083111715610ad157600080fd5b919080806020026020016040519081016040528093929190818152602001838360200280828437600081840152601f19601f820116905080830192505050505050509192919290505050612207565b005b610b6e60048036036040811015610b3857600080fd5b81019080803573ffffffffffffffffffffffffffffffffffffffff169060200190929190803590602001909291905050506128ce565b604051808215151515815260200191505060405180910390f35b610b906128fd565b6040518082815260200191505060405180910390f35b610c1260048036036060811015610bbc57600080fd5b81019080803573ffffffffffffffffffffffffffffffffffffffff169060200190929190803573ffffffffffffffffffffffffffffffffffffffff16906020019092919080359060200190929190505050612903565b005b610c5660048036036020811015610c2a57600080fd5b81019080803573ffffffffffffffffffffffffffffffffffffffff169060200190929190505050612979565b005b610c9a60048036036020811015610c6e57600080fd5b81019080803573ffffffffffffffffffffffffffffffffffffffff169060200190929190505050612a16565b6040518080602001828103825283818151815260200191508051906020019060200280838360005b83811015610cdd578082015181840152602081019050610cc2565b505050509050019250505060405180910390f35b610d3d60048036036040811015610d0757600080fd5b81019080803573ffffffffffffffffffffffffffffffffffffffff16906020019092919080359060200190929190505050612aad565b6040518082815260200191505060405180910390f35b610f58600480360360c0811015610d6957600080fd5b81019080803590602001909291908035906020019092919080359060200190640100000000811115610d9a57600080fd5b820183602082011115610dac57600080fd5b80359060200191846001830284011164010000000083111715610dce57600080fd5b91908080601f016020809104026020016040519081016040528093929190818152602001838380828437600081840152601f19601f82011690508083019250505050505050919291929080359060200190640100000000811115610e3157600080fd5b820183602082011115610e4357600080fd5b80359060200191846001830284011164010000000083111715610e6557600080fd5b91908080601f016020809104026020016040519081016040528093929190818152602001838380828437600081840152601f19601f82011690508083019250505050505050919291929080359060200190640100000000811115610ec857600080fd5b820183602082011115610eda57600080fd5b80359060200191846001830284011164010000000083111715610efc57600080fd5b91908080601f016020809104026020016040519081016040528093929190818152602001838380828437600081840152601f19601f82011690508083019250505050505050919291929080359060200190929190505050612b08565b005b610fc660048036036060811015610f7057600080fd5b81019080803573ffffffffffffffffffffffffffffffffffffffff169060200190929190803573ffffffffffffffffffffffffffffffffffffffff16906020019092919080359060200190929190505050612cab565b005b610ff460048036036020811015610fde57600080fd5b8101908080359060200190929190505050612ccb565b604051808215151515815260200191505060405180910390f35b61103a6004803603602081101561102457600080fd5b8101908080359060200190929190505050612cdd565b6040518082815260200191505060405180910390f35b6111096004803603602081101561106657600080fd5b810190808035906020019064010000000081111561108357600080fd5b82018360208201111561109557600080fd5b803590602001918460018302840111640100000000831117156110b757600080fd5b91908080601f016020809104026020016040519081016040528093929190818152602001838380828437600081840152601f19601f820116905080830192505050505050509192919290505050612d00565b005b6111376004803603602081101561112157600080fd5b8101908080359060200190929190505050612d65565b005b6111656004803603602081101561114f57600080fd5b8101908080359060200190929190505050612dc8565b604051808273ffffffffffffffffffffffffffffffffffffffff1673ffffffffffffffffffffffffffffffffffffffff16815260200191505060405180910390f35b6111af612dff565b604051808273ffffffffffffffffffffffffffffffffffffffff1673ffffffffffffffffffffffffffffffffffffffff16815260200191505060405180910390f35b6111f9612e25565b6040518080602001828103825283818151815260200191508051906020019080838360005b8381101561123957808201518184015260208101905061121e565b50505050905090810190601f1680156112665780820380516001836020036101000a031916815260200191505b509250505060405180910390f35b61127c612ec7565b6040518082815260200191505060405180910390f35b6112d4600480360360208110156112a857600080fd5b81019080803573ffffffffffffffffffffffffffffffffffffffff169060200190929190505050612ecd565b6040518082815260200191505060405180910390f35b6113166004803603602081101561130057600080fd5b8101908080359060200190929190505050612fa2565b6040518082815260200191505060405180910390f35b6113346130af565b604051808273ffffffffffffffffffffffffffffffffffffffff1673ffffffffffffffffffffffffffffffffffffffff16815260200191505060405180910390f35b61137e6130d4565b6040518080602001828103825283818151815260200191508051906020019080838360005b838110156113be5780820151818401526020810190506113a3565b50505050905090810190601f1680156113eb5780820380516001836020036101000a031916815260200191505b509250505060405180910390f35b6114256004803603602081101561140f57600080fd5b8101908080359060200190929190505050613176565b005b6114756004803603604081101561143d57600080fd5b81019080803573ffffffffffffffffffffffffffffffffffffffff1690602001909291908035151590602001909291905050506132f6565b005b61147f6134ae565b005b6114ad6004803603602081101561149757600080fd5b8101908080359060200190929190505050613524565b604051808215151515815260200191505060405180910390f35b6114f3600480360360208110156114dd57600080fd5b8101908080359060200190929190505050613544565b604051808b81526020018a81526020018981526020018881526020018781526020018681526020018060200180602001806020018573ffffffffffffffffffffffffffffffffffffffff1673ffffffffffffffffffffffffffffffffffffffff168152602001848103845288818151815260200191508051906020019080838360005b83811015611591578082015181840152602081019050611576565b50505050905090810190601f1680156115be5780820380516001836020036101000a031916815260200191505b50848103835287818151815260200191508051906020019080838360005b838110156115f75780820151818401526020810190506115dc565b50505050905090810190601f1680156116245780820380516001836020036101000a031916815260200191505b50848103825286818151815260200191508051906020019080838360005b8381101561165d578082015181840152602081019050611642565b50505050905090810190601f16801561168a5780820380516001836020036101000a031916815260200191505b509d505050505050505050505050505060405180910390f35b6117a6600480360360808110156116b957600080fd5b81019080803573ffffffffffffffffffffffffffffffffffffffff169060200190929190803573ffffffffffffffffffffffffffffffffffffffff169060200190929190803590602001909291908035906020019064010000000081111561172057600080fd5b82018360208201111561173257600080fd5b8035906020019184600183028401116401000000008311171561175457600080fd5b91908080601f016020809104026020016040519081016040528093929190818152602001838380828437600081840152601f19601f820116905080830192505050505050509192919290505050613780565b005b6117d4600480360360208110156117be57600080fd5b81019080803590602001909291905050506137f8565b6040518080602001828103825283818151815260200191508051906020019080838360005b838110156118145780820151818401526020810190506117f9565b50505050905090810190601f1680156118415780820380516001836020036101000a031916815260200191505b509250505060405180910390f35b61187b6004803603602081101561186557600080fd5b8101908080359060200190929190505050613ac9565b005b6118856140a7565b604051808215151515815260200191505060405180910390f35b6118a76140ba565b6040518082815260200191505060405180910390f35b61191f600480360360408110156118d357600080fd5b81019080803573ffffffffffffffffffffffffffffffffffffffff169060200190929190803573ffffffffffffffffffffffffffffffffffffffff1690602001909291905050506140c0565b604051808215151515815260200191505060405180910390f35b611941614154565b6040518082815260200191505060405180910390f35b6119a36004803603604081101561196d57600080fd5b8101908080359060200190929190803573ffffffffffffffffffffffffffffffffffffffff16906020019092919050505061415a565b005b6119d1600480360360208110156119bb57600080fd5b810190808035906020019092919050505061478d565b005b611a15600480360360208110156119e957600080fd5b81019080803573ffffffffffffffffffffffffffffffffffffffff16906020019092919050505061495e565b005b611a1f614aaf565b005b60036020528160005260406000208181548110611a3a57fe5b90600052602060002001600091509150505481565b6000600b6000837bffffffffffffffffffffffffffffffffffffffffffffffffffffffff19167bffffffffffffffffffffffffffffffffffffffffffffffffffffffff1916815260200190815260200160002060009054906101000a900460ff169050919050565b606060118054600181600116156101000203166002900480601f016020809104026020016040519081016040528092919081815260200182805460018160011615610100020316600290048015611b4f5780601f10611b2457610100808354040283529160200191611b4f565b820191906000526020600020905b815481529060010190602001808311611b3257829003601f168201915b5050505050905090565b6000611b6482614b25565b611bb9576040517f08c379a000000000000000000000000000000000000000000000000000000000815260040180806020018281038252602c81526020018061688d602c913960400191505060405180910390fd5b600f600083815260200190815260200160002060009054906101000a900473ffffffffffffffffffffffffffffffffffffffff169050919050565b6000611bff82612dc8565b90508073ffffffffffffffffffffffffffffffffffffffff168373ffffffffffffffffffffffffffffffffffffffff161415611c86576040517f08c379a000000000000000000000000000000000000000000000000000000000815260040180806020018281038252602181526020018061696f6021913960400191505060405180910390fd5b8073ffffffffffffffffffffffffffffffffffffffff16611ca5614b42565b73ffffffffffffffffffffffffffffffffffffffff161480611cd45750611cd381611cce614b42565b6140c0565b5b611d29576040517f08c379a00000000000000000000000000000000000000000000000000000000081526004018080602001828103825260388152602001806167bf6038913960400191505060405180910390fd5b611d338383614b4a565b505050565b600080600080606080606060006060806000809054906101000a900473ffffffffffffffffffffffffffffffffffffffff1673ffffffffffffffffffffffffffffffffffffffff163373ffffffffffffffffffffffffffffffffffffffff1614611da157600080fd5b611da961654e565b600560008d815260200190815260200160002060405180610180016040529081600082015481526020016001820154815260200160028201548152602001600382015481526020016004820154815260200160058201805480602002602001604051908101604052809291908181526020018280548015611e4957602002820191906000526020600020905b815481526020019060010190808311611e35575b5050505050815260200160068201805480602002602001604051908101604052809291908181526020018280548015611ed757602002820191906000526020600020905b8160009054906101000a900473ffffffffffffffffffffffffffffffffffffffff1673ffffffffffffffffffffffffffffffffffffffff1681526020019060010190808311611e8d575b5050505050815260200160078201548152602001600882018054600181600116156101000203166002900480601f016020809104026020016040519081016040528092919081815260200182805460018160011615610100020316600290048015611f835780601f10611f5857610100808354040283529160200191611f83565b820191906000526020600020905b815481529060010190602001808311611f6657829003601f168201915b50505050508152602001600982018054600181600116156101000203166002900480601f0160208091040260200160405190810160405280929190818152602001828054600181600116156101000203166002900480156120255780601f10611ffa57610100808354040283529160200191612025565b820191906000526020600020905b81548152906001019060200180831161200857829003601f168201915b50505050508152602001600a82018054600181600116156101000203166002900480601f0160208091040260200160405190810160405280929190818152602001828054600181600116156101000203166002900480156120c75780601f1061209c576101008083540402835291602001916120c7565b820191906000526020600020905b8154815290600101906020018083116120aa57829003601f168201915b50505050508152602001600b820160009054906101000a900473ffffffffffffffffffffffffffffffffffffffff1673ffffffffffffffffffffffffffffffffffffffff1673ffffffffffffffffffffffffffffffffffffffff168152505090508060000151816040015182606001518360e001518461010001518561012001518661014001518761016001518860c001518960a001518595508494508393508191508090509a509a509a509a509a509a509a509a509a509a50509193959799509193959799565b6000809054906101000a900473ffffffffffffffffffffffffffffffffffffffff1673ffffffffffffffffffffffffffffffffffffffff163373ffffffffffffffffffffffffffffffffffffffff16146121e857600080fd5b6121f28282614c03565b5050565b6000612202600d614c8d565b905090565b6000809054906101000a900473ffffffffffffffffffffffffffffffffffffffff1673ffffffffffffffffffffffffffffffffffffffff163373ffffffffffffffffffffffffffffffffffffffff161461226057600080fd5b81518151146122ba576040517f08c379a0000000000000000000000000000000000000000000000000000000008152600401808060200182810382526029815260200180616a216029913960400191505060405180910390fd5b600080905060008090505b83518110156122f3578281815181106122da57fe5b60200260200101518201915080806001019150506122c5565b506064811461234d576040517f08c379a00000000000000000000000000000000000000000000000000000000081526004018080602001828103825260238152602001806169fe6023913960400191505060405180910390fd5b61235561654e565b600560006006548152602001908152602001600020604051806101800160405290816000820154815260200160018201548152602001600282015481526020016003820154815260200160048201548152602001600582018054806020026020016040519081016040528092919081815260200182805480156123f757602002820191906000526020600020905b8154815260200190600101908083116123e3575b505050505081526020016006820180548060200260200160405190810160405280929190818152602001828054801561248557602002820191906000526020600020905b8160009054906101000a900473ffffffffffffffffffffffffffffffffffffffff1673ffffffffffffffffffffffffffffffffffffffff168152602001906001019080831161243b575b5050505050815260200160078201548152602001600882018054600181600116156101000203166002900480601f0160208091040260200160405190810160405280929190818152602001828054600181600116156101000203166002900480156125315780601f1061250657610100808354040283529160200191612531565b820191906000526020600020905b81548152906001019060200180831161251457829003601f168201915b50505050508152602001600982018054600181600116156101000203166002900480601f0160208091040260200160405190810160405280929190818152602001828054600181600116156101000203166002900480156125d35780601f106125a8576101008083540402835291602001916125d3565b820191906000526020600020905b8154815290600101906020018083116125b657829003601f168201915b50505050508152602001600a82018054600181600116156101000203166002900480601f0160208091040260200160405190810160405280929190818152602001828054600181600116156101000203166002900480156126755780601f1061264a57610100808354040283529160200191612675565b820191906000526020600020905b81548152906001019060200180831161265857829003601f168201915b50505050508152602001600b820160009054906101000a900473ffffffffffffffffffffffffffffffffffffffff1673ffffffffffffffffffffffffffffffffffffffff1673ffffffffffffffffffffffffffffffffffffffff168152505090506006548160000181815250508a8160400181815250508981602001818152505084816080018181525050600754816060018181525050888160e00181815250508781610100018190525085816101200181905250838160c00181905250828160a0018190525086816101400181905250856040518082805190602001908083835b6020831061277a5780518252602082019150602081019050602083039250612757565b6001836020036101000a0380198251168184511680821785525050505050509050019150506040518091039020876040518082805190602001908083835b602083106127db57805182526020820191506020810190506020830392506127b8565b6001836020036101000a0380198251168184511680821785525050505050509050019150506040518091039020896040518082805190602001908083835b6020831061283c5780518252602082019150602081019050602083039250612819565b6001836020036101000a03801982511681845116808217855250505050505090500191505060405180910390207fc7128ef83e27b770c32cee39d6f6ba01ee93bc0c4f4f82cc28499d258eac3f5f6006548e604051808381526020018281526020019250505060405180910390a489600754016007819055506001600654016006819055505050505050505050505050565b60026020528160005260406000206020528060005260406000206000915091509054906101000a900460ff1681565b60085481565b61291461290e614b42565b82614ca2565b612969576040517f08c379a00000000000000000000000000000000000000000000000000000000081526004018080602001828103825260318152602001806169906031913960400191505060405180910390fd5b612974838383614d96565b505050565b6000809054906101000a900473ffffffffffffffffffffffffffffffffffffffff1673ffffffffffffffffffffffffffffffffffffffff163373ffffffffffffffffffffffffffffffffffffffff16146129d257600080fd5b80600160006101000a81548173ffffffffffffffffffffffffffffffffffffffff021916908373ffffffffffffffffffffffffffffffffffffffff16021790555050565b6060600360008373ffffffffffffffffffffffffffffffffffffffff1673ffffffffffffffffffffffffffffffffffffffff168152602001908152602001600020805480602002602001604051908101604052809291908181526020018280548015612aa157602002820191906000526020600020905b815481526020019060010190808311612a8d575b50505050509050919050565b6000612b0082600c60008673ffffffffffffffffffffffffffffffffffffffff1673ffffffffffffffffffffffffffffffffffffffff168152602001908152602001600020614fd990919063ffffffff16565b905092915050565b6000809054906101000a900473ffffffffffffffffffffffffffffffffffffffff1673ffffffffffffffffffffffffffffffffffffffff163373ffffffffffffffffffffffffffffffffffffffff1614612b6157600080fd5b60056000878152602001908152602001600020600401544210612bec576040517f08c379a00000000000000000000000000000000000000000000000000000000081526004018080602001828103825260148152602001807f53616c6520697320616c7265616479206c69766500000000000000000000000081525060200191505060405180910390fd5b84600560008881526020019081526020016000206004018190555083600560008881526020019081526020016000206008019080519060200190612c319291906165c5565b508260056000888152602001908152602001600020600a019080519060200190612c5c9291906165c5565b5081600560008881526020019081526020016000206009019080519060200190612c879291906165c5565b50806005600088815260200190815260200160002060070181905550505050505050565b612cc683838360405180602001604052806000815250613780565b505050565b6000612cd682614b25565b9050919050565b600080612cf483600d614ff490919063ffffffff16565b50905080915050919050565b6000809054906101000a900473ffffffffffffffffffffffffffffffffffffffff1673ffffffffffffffffffffffffffffffffffffffff163373ffffffffffffffffffffffffffffffffffffffff1614612d5957600080fd5b612d6281615025565b50565b6000809054906101000a900473ffffffffffffffffffffffffffffffffffffffff1673ffffffffffffffffffffffffffffffffffffffff163373ffffffffffffffffffffffffffffffffffffffff1614612dbe57600080fd5b8060088190555050565b6000612df88260405180606001604052806029815260200161682160299139600d61503f9092919063ffffffff16565b9050919050565b600160009054906101000a900473ffffffffffffffffffffffffffffffffffffffff1681565b606060148054600181600116156101000203166002900480601f016020809104026020016040519081016040528092919081815260200182805460018160011615610100020316600290048015612ebd5780601f10612e9257610100808354040283529160200191612ebd565b820191906000526020600020905b815481529060010190602001808311612ea057829003601f168201915b5050505050905090565b60065481565b60008073ffffffffffffffffffffffffffffffffffffffff168273ffffffffffffffffffffffffffffffffffffffff161415612f54576040517f08c379a000000000000000000000000000000000000000000000000000000000815260040180806020018281038252602a8152602001806167f7602a913960400191505060405180910390fd5b612f9b600c60008473ffffffffffffffffffffffffffffffffffffffff1673ffffffffffffffffffffffffffffffffffffffff16815260200190815260200160002061505f565b9050919050565b60006130a860085461309a600160009054906101000a900473ffffffffffffffffffffffffffffffffffffffff1673ffffffffffffffffffffffffffffffffffffffff1663313ce5676040518163ffffffff167c010000000000000000000000000000000000000000000000000000000002815260040160206040518083038186803b15801561303157600080fd5b505afa158015613045573d6000803e3d6000fd5b505050506040513d602081101561305b57600080fd5b810190808051906020019092919050505060ff16600a0a60ff16600560008781526020019081526020016000206007015461507490919063ffffffff16565b6150fa90919063ffffffff16565b9050919050565b6000809054906101000a900473ffffffffffffffffffffffffffffffffffffffff1681565b606060128054600181600116156101000203166002900480601f01602080910402602001604051908101604052809291908181526020018280546001816001161561010002031660029004801561316c5780601f106131415761010080835404028352916020019161316c565b820191906000526020600020905b81548152906001019060200180831161314f57829003601f168201915b5050505050905090565b600260003373ffffffffffffffffffffffffffffffffffffffff1673ffffffffffffffffffffffffffffffffffffffff168152602001908152602001600020600082815260200190815260200160002060009054906101000a900460ff16613229576040517f08c379a00000000000000000000000000000000000000000000000000000000081526004018080602001828103825260328152602001806168e56032913960400191505060405180910390fd5b6004600082815260200190815260200160002060009054906101000a900460ff16156132bd576040517f08c379a000000000000000000000000000000000000000000000000000000000815260040180806020018281038252600e8152602001807f416c7265616479206d696e74656400000000000000000000000000000000000081525060200191505060405180910390fd5b60016004600083815260200190815260200160002060006101000a81548160ff0219169083151502179055506132f33382615183565b50565b6132fe614b42565b73ffffffffffffffffffffffffffffffffffffffff168273ffffffffffffffffffffffffffffffffffffffff16141561339f576040517f08c379a00000000000000000000000000000000000000000000000000000000081526004018080602001828103825260198152602001807f4552433732313a20617070726f766520746f2063616c6c65720000000000000081525060200191505060405180910390fd5b80601060006133ac614b42565b73ffffffffffffffffffffffffffffffffffffffff1673ffffffffffffffffffffffffffffffffffffffff16815260200190815260200160002060008473ffffffffffffffffffffffffffffffffffffffff1673ffffffffffffffffffffffffffffffffffffffff16815260200190815260200160002060006101000a81548160ff0219169083151502179055508173ffffffffffffffffffffffffffffffffffffffff16613459614b42565b73ffffffffffffffffffffffffffffffffffffffff167f17307eab39ab6107e8899845ad3d59bd9653f200f220920489ca2b5937696c3183604051808215151515815260200191505060405180910390a35050565b6000809054906101000a900473ffffffffffffffffffffffffffffffffffffffff1673ffffffffffffffffffffffffffffffffffffffff163373ffffffffffffffffffffffffffffffffffffffff161461350757600080fd5b6000600960006101000a81548160ff021916908315150217905550565b60046020528060005260406000206000915054906101000a900460ff1681565b6005602052806000526040600020600091509050806000015490806001015490806002015490806003015490806004015490806007015490806008018054600181600116156101000203166002900480601f0160208091040260200160405190810160405280929190818152602001828054600181600116156101000203166002900480156136145780601f106135e957610100808354040283529160200191613614565b820191906000526020600020905b8154815290600101906020018083116135f757829003601f168201915b505050505090806009018054600181600116156101000203166002900480601f0160208091040260200160405190810160405280929190818152602001828054600181600116156101000203166002900480156136b25780601f10613687576101008083540402835291602001916136b2565b820191906000526020600020905b81548152906001019060200180831161369557829003601f168201915b50505050509080600a018054600181600116156101000203166002900480601f0160208091040260200160405190810160405280929190818152602001828054600181600116156101000203166002900480156137505780601f1061372557610100808354040283529160200191613750565b820191906000526020600020905b81548152906001019060200180831161373357829003601f168201915b50505050509080600b0160009054906101000a900473ffffffffffffffffffffffffffffffffffffffff1690508a565b61379161378b614b42565b83614ca2565b6137e6576040517f08c379a00000000000000000000000000000000000000000000000000000000081526004018080602001828103825260318152602001806169906031913960400191505060405180910390fd5b6137f2848484846151a1565b50505050565b606061380382614b25565b613858576040517f08c379a000000000000000000000000000000000000000000000000000000000815260040180806020018281038252602f815260200180616940602f913960400191505060405180910390fd5b6060601360008481526020019081526020016000208054600181600116156101000203166002900480601f0160208091040260200160405190810160405280929190818152602001828054600181600116156101000203166002900480156139015780601f106138d657610100808354040283529160200191613901565b820191906000526020600020905b8154815290600101906020018083116138e457829003601f168201915b505050505090506060613912612e25565b9050600081511415613928578192505050613ac4565b6000825111156139f95780826040516020018083805190602001908083835b6020831061396a5780518252602082019150602081019050602083039250613947565b6001836020036101000a03801982511681845116808217855250505050505090500182805190602001908083835b602083106139bb5780518252602082019150602081019050602083039250613998565b6001836020036101000a0380198251168184511680821785525050505050509050019250505060405160208183030381529060405292505050613ac4565b80613a0385615213565b6040516020018083805190602001908083835b60208310613a395780518252602082019150602081019050602083039250613a16565b6001836020036101000a03801982511681845116808217855250505050505090500182805190602001908083835b60208310613a8a5780518252602082019150602081019050602083039250613a67565b6001836020036101000a03801982511681845116808217855250505050505090500192505050604051602081830303815290604052925050505b919050565b600960009054906101000a900460ff1615613b4c576040517f08c379a00000000000000000000000000000000000000000000000000000000081526004018080602001828103825260108152602001807f4f70656e6572206973206c6f636b65640000000000000000000000000000000081525060200191505060405180910390fd5b600073ffffffffffffffffffffffffffffffffffffffff1660056000838152602001908152602001600020600b0160009054906101000a900473ffffffffffffffffffffffffffffffffffffffff1673ffffffffffffffffffffffffffffffffffffffff161415613c25576040517f08c379a00000000000000000000000000000000000000000000000000000000081526004018080602001828103825260178152602001807f5061636b2077617320616c726561647920626f7567687400000000000000000081525060200191505060405180910390fd5b600060056000838152602001908152602001600020600701541415613cb2576040517f08c379a00000000000000000000000000000000000000000000000000000000081526004018080602001828103825260118152602001807f5061636b2068617320746f20657869737400000000000000000000000000000081525060200191505060405180910390fd5b60085460056000838152602001908152602001600020600701541015613d23576040517f08c379a000000000000000000000000000000000000000000000000000000000815260040180806020018281038252603d8152602001806169c1603d913960400191505060405180910390fd5b6000613d2e82612fa2565b905080600160009054906101000a900473ffffffffffffffffffffffffffffffffffffffff1673ffffffffffffffffffffffffffffffffffffffff1663dd62ed3e33306040518363ffffffff167c0100000000000000000000000000000000000000000000000000000000028152600401808373ffffffffffffffffffffffffffffffffffffffff1673ffffffffffffffffffffffffffffffffffffffff1681526020018273ffffffffffffffffffffffffffffffffffffffff1673ffffffffffffffffffffffffffffffffffffffff1681526020019250505060206040518083038186803b158015613e2057600080fd5b505afa158015613e34573d6000803e3d6000fd5b505050506040513d6020811015613e4a57600080fd5b81019080805190602001909291905050501015613ecf576040517f08c379a00000000000000000000000000000000000000000000000000000000081526004018080602001828103825260198152602001807f4e6f7420656e6f756768206d6f6e657920706572207061636b0000000000000081525060200191505060405180910390fd5b6000339050613edf818484615362565b6001600a6000828254019250508190555060008090505b6005600085815260200190815260200160002060010154811015614008576001600260003373ffffffffffffffffffffffffffffffffffffffff1673ffffffffffffffffffffffffffffffffffffffff168152602001908152602001600020600083600560008981526020019081526020016000206003015401815260200190815260200160002060006101000a81548160ff021916908315150217905550600360003373ffffffffffffffffffffffffffffffffffffffff1673ffffffffffffffffffffffffffffffffffffffff1681526020019081526020016000208190806001815401808255809150506001900390600052602060002001600090919091909150558080600101915050613ef6565b508060056000858152602001908152602001600020600b0160006101000a81548173ffffffffffffffffffffffffffffffffffffffff021916908373ffffffffffffffffffffffffffffffffffffffff160217905550828173ffffffffffffffffffffffffffffffffffffffff167f459bdaa71b6c253b49d34a7622dc4c6c1c416c0567571c068b392ba7172ddd4c60405160405180910390a3505050565b600960009054906101000a900460ff1681565b60075481565b6000601060008473ffffffffffffffffffffffffffffffffffffffff1673ffffffffffffffffffffffffffffffffffffffff16815260200190815260200160002060008373ffffffffffffffffffffffffffffffffffffffff1673ffffffffffffffffffffffffffffffffffffffff16815260200190815260200160002060009054906101000a900460ff16905092915050565b600a5481565b6000809054906101000a900473ffffffffffffffffffffffffffffffffffffffff1673ffffffffffffffffffffffffffffffffffffffff163373ffffffffffffffffffffffffffffffffffffffff16146141b357600080fd5b8160056000848152602001908152602001600020600001541461423e576040517f08c379a00000000000000000000000000000000000000000000000000000000081526004018080602001828103825260138152602001807f5061636b20646f6573206e6f742065786973740000000000000000000000000081525060200191505060405180910390fd5b61424661654e565b60056000848152602001908152602001600020604051806101800160405290816000820154815260200160018201548152602001600282015481526020016003820154815260200160048201548152602001600582018054806020026020016040519081016040528092919081815260200182805480156142e657602002820191906000526020600020905b8154815260200190600101908083116142d2575b505050505081526020016006820180548060200260200160405190810160405280929190818152602001828054801561437457602002820191906000526020600020905b8160009054906101000a900473ffffffffffffffffffffffffffffffffffffffff1673ffffffffffffffffffffffffffffffffffffffff168152602001906001019080831161432a575b5050505050815260200160078201548152602001600882018054600181600116156101000203166002900480601f0160208091040260200160405190810160405280929190818152602001828054600181600116156101000203166002900480156144205780601f106143f557610100808354040283529160200191614420565b820191906000526020600020905b81548152906001019060200180831161440357829003601f168201915b50505050508152602001600982018054600181600116156101000203166002900480601f0160208091040260200160405190810160405280929190818152602001828054600181600116156101000203166002900480156144c25780601f10614497576101008083540402835291602001916144c2565b820191906000526020600020905b8154815290600101906020018083116144a557829003601f168201915b50505050508152602001600a82018054600181600116156101000203166002900480601f0160208091040260200160405190810160405280929190818152602001828054600181600116156101000203166002900480156145645780601f1061453957610100808354040283529160200191614564565b820191906000526020600020905b81548152906001019060200180831161454757829003601f168201915b50505050508152602001600b820160009054906101000a900473ffffffffffffffffffffffffffffffffffffffff1673ffffffffffffffffffffffffffffffffffffffff1673ffffffffffffffffffffffffffffffffffffffff168152505090508160056000858152602001908152602001600020600b0160006101000a81548173ffffffffffffffffffffffffffffffffffffffff021916908373ffffffffffffffffffffffffffffffffffffffff1602179055506001600a6000828254019250508190555060008090505b6005600085815260200190815260200160002060010154811015614743576001600260008573ffffffffffffffffffffffffffffffffffffffff1673ffffffffffffffffffffffffffffffffffffffff168152602001908152602001600020600083600560008981526020019081526020016000206003015401815260200190815260200160002060006101000a81548160ff021916908315150217905550600360008473ffffffffffffffffffffffffffffffffffffffff1673ffffffffffffffffffffffffffffffffffffffff1681526020019081526020016000208190806001815401808255809150506001900390600052602060002001600090919091909150558080600101915050614631565b50828273ffffffffffffffffffffffffffffffffffffffff167f459bdaa71b6c253b49d34a7622dc4c6c1c416c0567571c068b392ba7172ddd4c60405160405180910390a3505050565b6000809054906101000a900473ffffffffffffffffffffffffffffffffffffffff1673ffffffffffffffffffffffffffffffffffffffff163373ffffffffffffffffffffffffffffffffffffffff16146147e657600080fd5b60056000828152602001908152602001600020600401544210614871576040517f08c379a00000000000000000000000000000000000000000000000000000000081526004018080602001828103825260148152602001807f53616c6520697320616c7265616479206c69766500000000000000000000000081525060200191505060405180910390fd5b6005600082815260200190815260200160002060008082016000905560018201600090556002820160009055600382016000905560048201600090556005820160006148bd9190616645565b6006820160006148cd9190616666565b60078201600090556008820160006148e59190616687565b6009820160006148f59190616687565b600a820160006149059190616687565b600b820160006101000a81549073ffffffffffffffffffffffffffffffffffffffff02191690555050807fc02722c9e8790b48040a1db93c8b8e288fa395ffeed86c32215412ec047fd89260405160405180910390a250565b6000809054906101000a900473ffffffffffffffffffffffffffffffffffffffff1673ffffffffffffffffffffffffffffffffffffffff163373ffffffffffffffffffffffffffffffffffffffff16146149b757600080fd5b600073ffffffffffffffffffffffffffffffffffffffff168173ffffffffffffffffffffffffffffffffffffffff1614156149f157600080fd5b8073ffffffffffffffffffffffffffffffffffffffff166000809054906101000a900473ffffffffffffffffffffffffffffffffffffffff1673ffffffffffffffffffffffffffffffffffffffff167f8be0079c531659141344cd1fd0a4f28419497f9722a3daafe3b4186f6b6457e060405160405180910390a3806000806101000a81548173ffffffffffffffffffffffffffffffffffffffff021916908373ffffffffffffffffffffffffffffffffffffffff16021790555050565b6000809054906101000a900473ffffffffffffffffffffffffffffffffffffffff1673ffffffffffffffffffffffffffffffffffffffff163373ffffffffffffffffffffffffffffffffffffffff1614614b0857600080fd5b6001600960006101000a81548160ff021916908315150217905550565b6000614b3b82600d61587f90919063ffffffff16565b9050919050565b600033905090565b81600f600083815260200190815260200160002060006101000a81548173ffffffffffffffffffffffffffffffffffffffff021916908373ffffffffffffffffffffffffffffffffffffffff160217905550808273ffffffffffffffffffffffffffffffffffffffff16614bbd83612dc8565b73ffffffffffffffffffffffffffffffffffffffff167f8c5be1e5ebec7d5bd14f71427d1e84f3dd0314c0f7b2291e5b200ac8c7c3b92560405160405180910390a45050565b614c0c82614b25565b614c61576040517f08c379a000000000000000000000000000000000000000000000000000000000815260040180806020018281038252602c8152602001806168b9602c913960400191505060405180910390fd5b80601360008481526020019081526020016000209080519060200190614c889291906165c5565b505050565b6000614c9b82600001615899565b9050919050565b6000614cad82614b25565b614d02576040517f08c379a000000000000000000000000000000000000000000000000000000000815260040180806020018281038252602c815260200180616793602c913960400191505060405180910390fd5b6000614d0d83612dc8565b90508073ffffffffffffffffffffffffffffffffffffffff168473ffffffffffffffffffffffffffffffffffffffff161480614d7c57508373ffffffffffffffffffffffffffffffffffffffff16614d6484611b59565b73ffffffffffffffffffffffffffffffffffffffff16145b80614d8d5750614d8c81856140c0565b5b91505092915050565b8273ffffffffffffffffffffffffffffffffffffffff16614db682612dc8565b73ffffffffffffffffffffffffffffffffffffffff1614614e22576040517f08c379a00000000000000000000000000000000000000000000000000000000081526004018080602001828103825260298152602001806169176029913960400191505060405180910390fd5b600073ffffffffffffffffffffffffffffffffffffffff168273ffffffffffffffffffffffffffffffffffffffff161415614ea8576040517f08c379a00000000000000000000000000000000000000000000000000000000081526004018080602001828103825260248152602001806167496024913960400191505060405180910390fd5b614eb38383836158aa565b614ebe600082614b4a565b614f0f81600c60008673ffffffffffffffffffffffffffffffffffffffff1673ffffffffffffffffffffffffffffffffffffffff1681526020019081526020016000206158af90919063ffffffff16565b50614f6181600c60008573ffffffffffffffffffffffffffffffffffffffff1673ffffffffffffffffffffffffffffffffffffffff1681526020019081526020016000206158c990919063ffffffff16565b50614f788183600d6158e39092919063ffffffff16565b50808273ffffffffffffffffffffffffffffffffffffffff168473ffffffffffffffffffffffffffffffffffffffff167fddf252ad1be2c89b69c2b068fc378daa952ba7f163c4a11628f55a4df523b3ef60405160405180910390a4505050565b6000614fe88360000183615918565b60019004905092915050565b600080600080615007866000018661599b565b91509150816001900481600190048090509350935050509250929050565b806014908051906020019061503b9291906165c5565b5050565b6000615052846000018460010284615a34565b6001900490509392505050565b600061506d82600001615b2a565b9050919050565b60008083141561508757600090506150f4565b600082840290508284828161509857fe5b04146150ef576040517f08c379a000000000000000000000000000000000000000000000000000000000815260040180806020018281038252602181526020018061686c6021913960400191505060405180910390fd5b809150505b92915050565b6000808211615171576040517f08c379a000000000000000000000000000000000000000000000000000000000815260040180806020018281038252601a8152602001807f536166654d6174683a206469766973696f6e206279207a65726f00000000000081525060200191505060405180910390fd5b81838161517a57fe5b04905092915050565b61519d828260405180602001604052806000815250615b3b565b5050565b6151ac848484614d96565b6151b884848484615bac565b61520d576040517f08c379a00000000000000000000000000000000000000000000000000000000081526004018080602001828103825260328152602001806167176032913960400191505060405180910390fd5b50505050565b6060600082141561525b576040518060400160405280600181526020017f3000000000000000000000000000000000000000000000000000000000000000815250905061535d565b600082905060005b60008214615285578080600101915050600a828161527d57fe5b049150615263565b6060816040519080825280601f01601f1916602001820160405280156152ba5781602001600182028038833980820191505090505b50905060006001830390508593505b6000841461535557600a84816152db57fe5b066030017f0100000000000000000000000000000000000000000000000000000000000000028282806001900393508151811061531457fe5b60200101907effffffffffffffffffffffffffffffffffffffffffffffffffffffffffffff1916908160001a905350600a848161534d57fe5b0493506152c9565b819450505050505b919050565b61536a61654e565b600560008481526020019081526020016000206040518061018001604052908160008201548152602001600182015481526020016002820154815260200160038201548152602001600482015481526020016005820180548060200260200160405190810160405280929190818152602001828054801561540a57602002820191906000526020600020905b8154815260200190600101908083116153f6575b505050505081526020016006820180548060200260200160405190810160405280929190818152602001828054801561549857602002820191906000526020600020905b8160009054906101000a900473ffffffffffffffffffffffffffffffffffffffff1673ffffffffffffffffffffffffffffffffffffffff168152602001906001019080831161544e575b5050505050815260200160078201548152602001600882018054600181600116156101000203166002900480601f0160208091040260200160405190810160405280929190818152602001828054600181600116156101000203166002900480156155445780601f1061551957610100808354040283529160200191615544565b820191906000526020600020905b81548152906001019060200180831161552757829003601f168201915b50505050508152602001600982018054600181600116156101000203166002900480601f0160208091040260200160405190810160405280929190818152602001828054600181600116156101000203166002900480156155e65780601f106155bb576101008083540402835291602001916155e6565b820191906000526020600020905b8154815290600101906020018083116155c957829003601f168201915b50505050508152602001600a82018054600181600116156101000203166002900480601f0160208091040260200160405190810160405280929190818152602001828054600181600116156101000203166002900480156156885780601f1061565d57610100808354040283529160200191615688565b820191906000526020600020905b81548152906001019060200180831161566b57829003601f168201915b50505050508152602001600b820160009054906101000a900473ffffffffffffffffffffffffffffffffffffffff1673ffffffffffffffffffffffffffffffffffffffff1673ffffffffffffffffffffffffffffffffffffffff1681525050905060008090505b8160c001515181101561587857600160009054906101000a900473ffffffffffffffffffffffffffffffffffffffff1673ffffffffffffffffffffffffffffffffffffffff166323b872dd868460c00151848151811061574b57fe5b60200260200101516064878760a00151878151811061576657fe5b6020026020010151028161577657fe5b046040518463ffffffff167c0100000000000000000000000000000000000000000000000000000000028152600401808473ffffffffffffffffffffffffffffffffffffffff1673ffffffffffffffffffffffffffffffffffffffff1681526020018373ffffffffffffffffffffffffffffffffffffffff1673ffffffffffffffffffffffffffffffffffffffff1681526020018281526020019350505050602060405180830381600087803b15801561582f57600080fd5b505af1158015615843573d6000803e3d6000fd5b505050506040513d602081101561585957600080fd5b81019080805190602001909291905050505080806001019150506156ef565b5050505050565b60006158918360000183600102615e29565b905092915050565b600081600001805490509050919050565b505050565b60006158c18360000183600102615e4c565b905092915050565b60006158db8360000183600102615f34565b905092915050565b600061590f84600001846001028473ffffffffffffffffffffffffffffffffffffffff16600102615fa4565b90509392505050565b600081836000018054905011615979576040517f08c379a00000000000000000000000000000000000000000000000000000000081526004018080602001828103825260228152602001806166f56022913960400191505060405180910390fd5b82600001828154811061598857fe5b9060005260206000200154905092915050565b600080828460000180549050116159fd576040517f08c379a000000000000000000000000000000000000000000000000000000000815260040180806020018281038252602281526020018061684a6022913960400191505060405180910390fd5b6000846000018481548110615a0e57fe5b906000526020600020906002020190508060000154816001015492509250509250929050565b60008084600101600085815260200190815260200160002054905060008114158390615afb576040517f08c379a00000000000000000000000000000000000000000000000000000000081526004018080602001828103825283818151815260200191508051906020019080838360005b83811015615ac0578082015181840152602081019050615aa5565b50505050905090810190601f168015615aed5780820380516001836020036101000a031916815260200191505b509250505060405180910390fd5b50846000016001820381548110615b0e57fe5b9060005260206000209060020201600101549150509392505050565b600081600001805490509050919050565b615b458383616080565b615b526000848484615bac565b615ba7576040517f08c379a00000000000000000000000000000000000000000000000000000000081526004018080602001828103825260328152602001806167176032913960400191505060405180910390fd5b505050565b6000615bcd8473ffffffffffffffffffffffffffffffffffffffff16616274565b615bda5760019050615e21565b6060615d8c63150b7a027c010000000000000000000000000000000000000000000000000000000002615c0b614b42565b888787604051602401808573ffffffffffffffffffffffffffffffffffffffff1673ffffffffffffffffffffffffffffffffffffffff1681526020018473ffffffffffffffffffffffffffffffffffffffff1673ffffffffffffffffffffffffffffffffffffffff16815260200183815260200180602001828103825283818151815260200191508051906020019080838360005b83811015615cbb578082015181840152602081019050615ca0565b50505050905090810190601f168015615ce85780820380516001836020036101000a031916815260200191505b5095505050505050604051602081830303815290604052907bffffffffffffffffffffffffffffffffffffffffffffffffffffffff19166020820180517bffffffffffffffffffffffffffffffffffffffffffffffffffffffff8381831617835250505050604051806060016040528060328152602001616717603291398773ffffffffffffffffffffffffffffffffffffffff166162879092919063ffffffff16565b90506000818060200190516020811015615da557600080fd5b8101908080519060200190929190505050905063150b7a027c0100000000000000000000000000000000000000000000000000000000027bffffffffffffffffffffffffffffffffffffffffffffffffffffffff1916817bffffffffffffffffffffffffffffffffffffffffffffffffffffffff191614925050505b949350505050565b600080836001016000848152602001908152602001600020541415905092915050565b60008083600101600084815260200190815260200160002054905060008114615f285760006001820390506000600186600001805490500390506000866000018281548110615e9757fe5b9060005260206000200154905080876000018481548110615eb457fe5b9060005260206000200181905550600183018760010160008381526020019081526020016000208190555086600001805480615eec57fe5b60019003818190600052602060002001600090559055866001016000878152602001908152602001600020600090556001945050505050615f2e565b60009150505b92915050565b6000615f40838361629f565b615f99578260000182908060018154018082558091505060019003906000526020600020016000909190919091505582600001805490508360010160008481526020019081526020016000208190555060019050615f9e565b600090505b92915050565b600080846001016000858152602001908152602001600020549050600081141561604b57846000016040518060400160405280868152602001858152509080600181540180825580915050600190039060005260206000209060020201600090919091909150600082015181600001556020820151816001015550508460000180549050856001016000868152602001908152602001600020819055506001915050616079565b8285600001600183038154811061605e57fe5b90600052602060002090600202016001018190555060009150505b9392505050565b600073ffffffffffffffffffffffffffffffffffffffff168273ffffffffffffffffffffffffffffffffffffffff161415616123576040517f08c379a00000000000000000000000000000000000000000000000000000000081526004018080602001828103825260208152602001807f4552433732313a206d696e7420746f20746865207a65726f206164647265737381525060200191505060405180910390fd5b61612c81614b25565b1561619f576040517f08c379a000000000000000000000000000000000000000000000000000000000815260040180806020018281038252601c8152602001807f4552433732313a20746f6b656e20616c7265616479206d696e7465640000000081525060200191505060405180910390fd5b6161ab600083836158aa565b6161fc81600c60008573ffffffffffffffffffffffffffffffffffffffff1673ffffffffffffffffffffffffffffffffffffffff1681526020019081526020016000206158c990919063ffffffff16565b506162138183600d6158e39092919063ffffffff16565b50808273ffffffffffffffffffffffffffffffffffffffff16600073ffffffffffffffffffffffffffffffffffffffff167fddf252ad1be2c89b69c2b068fc378daa952ba7f163c4a11628f55a4df523b3ef60405160405180910390a45050565b600080823b905060008111915050919050565b606061629684846000856162c2565b90509392505050565b600080836001016000848152602001908152602001600020541415905092915050565b6060823073ffffffffffffffffffffffffffffffffffffffff16311015616334576040517f08c379a000000000000000000000000000000000000000000000000000000000815260040180806020018281038252602681526020018061676d6026913960400191505060405180910390fd5b61633d85616274565b6163af576040517f08c379a000000000000000000000000000000000000000000000000000000000815260040180806020018281038252601d8152602001807f416464726573733a2063616c6c20746f206e6f6e2d636f6e747261637400000081525060200191505060405180910390fd5b600060608673ffffffffffffffffffffffffffffffffffffffff1685876040518082805190602001908083835b602083106163ff57805182526020820191506020810190506020830392506163dc565b6001836020036101000a03801982511681845116808217855250505050505090500191505060006040518083038185875af1925050503d8060008114616461576040519150601f19603f3d011682016040523d82523d6000602084013e616466565b606091505b5091509150616476828286616482565b92505050949350505050565b6060831561649257829050616547565b6000835111156164a55782518084602001fd5b816040517f08c379a00000000000000000000000000000000000000000000000000000000081526004018080602001828103825283818151815260200191508051906020019080838360005b8381101561650c5780820151818401526020810190506164f1565b50505050905090810190601f1680156165395780820380516001836020036101000a031916815260200191505b509250505060405180910390fd5b9392505050565b6040518061018001604052806000815260200160008152602001600081526020016000815260200160008152602001606081526020016060815260200160008152602001606081526020016060815260200160608152602001600073ffffffffffffffffffffffffffffffffffffffff1681525090565b828054600181600116156101000203166002900490600052602060002090601f016020900481019282601f1061660657805160ff1916838001178555616634565b82800160010185558215616634579182015b82811115616633578251825591602001919060010190616618565b5b50905061664191906166cf565b5090565b508054600082559060005260206000209081019061666391906166cf565b50565b508054600082559060005260206000209081019061668491906166cf565b50565b50805460018160011615610100020316600290046000825580601f106166ad57506166cc565b601f0160209004906000526020600020908101906166cb91906166cf565b5b50565b6166f191905b808211156166ed5760008160009055506001016166d5565b5090565b9056fe456e756d657261626c655365743a20696e646578206f7574206f6620626f756e64734552433732313a207472616e7366657220746f206e6f6e20455243373231526563656976657220696d706c656d656e7465724552433732313a207472616e7366657220746f20746865207a65726f2061646472657373416464726573733a20696e73756666696369656e742062616c616e636520666f722063616c6c4552433732313a206f70657261746f7220717565727920666f72206e6f6e6578697374656e7420746f6b656e4552433732313a20617070726f76652063616c6c6572206973206e6f74206f776e6572206e6f7220617070726f76656420666f7220616c6c4552433732313a2062616c616e636520717565727920666f7220746865207a65726f20616464726573734552433732313a206f776e657220717565727920666f72206e6f6e6578697374656e7420746f6b656e456e756d657261626c654d61703a20696e646578206f7574206f6620626f756e6473536166654d6174683a206d756c7469706c69636174696f6e206f766572666c6f774552433732313a20617070726f76656420717565727920666f72206e6f6e6578697374656e7420746f6b656e4552433732314d657461646174613a2055524920736574206f66206e6f6e6578697374656e7420746f6b656e546f6b656e20776173206e6f742072656769737465726564206f72206e6f742074686520726967687466756c206f776e65724552433732313a207472616e73666572206f6620746f6b656e2074686174206973206e6f74206f776e4552433732314d657461646174613a2055524920717565727920666f72206e6f6e6578697374656e7420746f6b656e4552433732313a20617070726f76616c20746f2063757272656e74206f776e65724552433732313a207472616e736665722063616c6c6572206973206e6f74206f776e6572206e6f7220617070726f766564507269636520696e207265616c4676722068617320746f20626520686967686572207468616e20756e6974207072696365206f6620746865207061636b53756d206f6620616c6c20616d6f756e74732068617320746f20657175616c2031303073616c65446973747269627574696f6e204c656e6768747320617265206e6f74207468652073616d65a264697066735822122098d52f043e1b7dd94cdc5699d73e957293b820b2a1eedb7e4b35292e5013740564736f6c63430006020033",
  "source": "// SPDX-License-Identifier: MIT\n\npragma solidity >=0.6.0;\n\nimport \"@openzeppelin/contracts/token/ERC721/ERC721.sol\";\nimport \"@openzeppelin/contracts/token/ERC20/ERC20.sol\";\nimport \"../utils/Ownable.sol\";\n\ncontract Opener is  Ownable {\n    using SafeMath for uint256;\n\n    ERC20 public _purchaseToken;\n    // Mapping from address to bool, if egg was already claimed\n    // The hash is about the userId and the nftIds array\n    mapping(address => mapping(uint256 => bool)) public registeredIDs;\n    mapping(address => uint256[]) public registeredIDsArray;\n    mapping(uint256 => bool) public alreadyMinted;\n    mapping(uint256 => Pack) public packs;\n    uint256 public packIncrementId = 0;\n    uint256 public lastNFTID = 0;\n\n    event PackCreated(uint256 packId, uint256  nftsAmount, string indexed serie, string indexed packType, string indexed drop);\n    event PackOpened(address indexed by, uint256 indexed packId);\n    event PackDelete(uint256 indexed packId);\n\n    uint256 public _realFvrTokenPriceUSD = 0;\n\n    bool public _closed = false;\n    uint256 public _openedPacks = 0;\n\n    struct Pack {\n        uint256 packId;\n        uint256 nftAmount;\n        uint256 packNumber;\n        uint256 initialNFTId;\n        uint256 saleStart;\n        uint256[] saleDistributionAmounts;\n        address[] saleDistributionAddresses;\n        // Catalog info\n        uint256 price; // in usd (1 = $0.000001)\n        string serie;\n        string drop;\n        string packType;\n        //external info\n        address buyer;\n    }\n\n    constructor(\n        ERC20 purchaseToken\n    ) public {\n        _purchaseToken = purchaseToken;\n    }\n\n    function buyPack(uint256 packId) public {\n        require(!_closed, \"Opener is locked\");\n        require(packs[packId].buyer != address(0), \"Pack was already bought\");\n        require(packs[packId].price != 0, \"Pack has to exist\");\n        require(packs[packId].price >= _realFvrTokenPriceUSD, \"Price in realFvr has to be higher than unit price of the pack\");\n\n        uint256 price = getPackPriceInFVR(packId);\n\n        require(_purchaseToken.allowance(msg.sender, address(this)) >= price, \"Not enough money per pack\");\n\n        address from = msg.sender;\n\n        _distributePackShares(from, packId, price);\n\n        _openedPacks += 1;\n\n        for(uint i = 0; i < packs[packId].nftAmount; i++){\n            registeredIDs[msg.sender][packs[packId].initialNFTId+i] = true;\n            registeredIDsArray[msg.sender].push(i);\n        }\n\n        packs[packId].buyer = from;\n\n        emit PackOpened(from, packId);\n\n    }\n\n    function _distributePackShares(address from, uint256 packId, uint256 amount) internal {\n        //transfer of fee share\n        Pack memory pack = packs[packId];\n\n        for(uint i = 0; i < pack.saleDistributionAddresses.length; i++){\n            //transfer of stake share\n            _purchaseToken.transferFrom(\n                from,\n                pack.saleDistributionAddresses[i],\n                (pack.saleDistributionAmounts[i] * amount) / 100\n            );\n        }\n    }\n\n    function createPack(uint256 packNumber, uint256 nftAmount, uint256 price /* 1 = ($0.000001) */, \n        string memory serie, string memory packType, string memory drop, uint256 saleStart,\n        address[] memory saleDistributionAddresses,  uint256[] memory saleDistributionAmounts /* [1;98;1]*/\n    ) public onlyOwner {\n\n        require(saleDistributionAmounts.length == saleDistributionAddresses.length, \"saleDistribution Lenghts are not the same\");\n        uint256 totalFees = 0;\n        for(uint i = 0; i < saleDistributionAddresses.length; i++){\n            totalFees += saleDistributionAmounts[i];\n        }\n        require(totalFees == 100, \"Sum of all amounts has to equal 100\");\n\n        Pack memory pack = packs[packIncrementId];\n        pack.packId = packIncrementId;\n        pack.packNumber = packNumber;\n        pack.nftAmount = nftAmount;\n        pack.saleStart = saleStart;\n        pack.initialNFTId = lastNFTID;\n        pack.price = price;\n        pack.serie = serie;\n        pack.drop = drop;\n        pack.saleDistributionAddresses = saleDistributionAddresses;\n        pack.saleDistributionAmounts = saleDistributionAmounts;\n        pack.packType = packType;\n\n        emit PackCreated(packIncrementId, nftAmount, serie, packType, drop);\n        lastNFTID = lastNFTID + nftAmount;\n        packIncrementId = packIncrementId+1;\n    }\n\n     function offerPack(uint256 packId, address receivingAddress) public onlyOwner {\n        require(packs[packId].packId == packId, \"Pack does not exist\");\n        Pack memory pack = packs[packId];\n        packs[packId].buyer = receivingAddress;\n\n        _openedPacks += 1;\n\n        for(uint i = 0; i < packs[packId].nftAmount; i++){\n            registeredIDs[receivingAddress][packs[packId].initialNFTId+i] = true;\n            registeredIDsArray[receivingAddress].push(i);\n        }\n\n        emit PackOpened(receivingAddress, packId);\n    }\n\n    function editPackInfo(uint256 _packId, uint256 _saleStart, string memory serie, string memory packType, string memory drop, uint256 price) public onlyOwner {\n        require(block.timestamp < packs[_packId].saleStart, \"Sale is already live\");\n        packs[_packId].saleStart = _saleStart;\n        packs[_packId].serie = serie;\n        packs[_packId].packType = packType;\n        packs[_packId].drop = drop;\n        packs[_packId].price = price;\n    }\n\n    function deletePackById(uint256 packId) public onlyOwner {\n        require(block.timestamp < packs[packId].saleStart, \"Sale is already live\");\n        delete packs[packId];\n        emit PackDelete(packId);\n    }\n\n    function getPackbyId(uint256 _packId) public onlyOwner returns (uint256, uint256, uint256, uint256, string memory, string memory, string memory, address, \n        address[] memory, uint256[] memory)  {\n        Pack memory pack = packs[_packId];\n        return (\n            pack.packId, pack.packNumber, pack.initialNFTId, pack.price, pack.serie, pack.drop, pack.packType, pack.buyer,\n            pack.saleDistributionAddresses, pack.saleDistributionAmounts);\n    }\n\n    function getPackPriceInFVR(uint256 packId) public returns (uint256) {\n        return packs[packId].price.mul(10**_purchaseToken.decimals()).div(_realFvrTokenPriceUSD);\n    }\n\n    function setPurchaseTokenAddress(ERC20 purchaseToken) public onlyOwner {\n        _purchaseToken = purchaseToken;\n    }\n\n    function setTokenPriceInUSD(uint256 newPrice /* 1 = $0.000001 */) public onlyOwner {\n        _realFvrTokenPriceUSD = newPrice; // 1/10**18 Real Fvr ( 0.00(16)1 FVR) = 1000000 ($1)\n    }\n\n    function lock() public onlyOwner {\n        _closed = true;\n    }\n\n    function unlock() public onlyOwner {\n        _closed = false;\n    }\n}\n\n// ERC721Standard made for a simple structure, owner generates himself the NFT he wants (direct minting)\ncontract ERC721Standard is ERC721, Ownable {\n\n    constructor (string memory name, string memory symbol) public ERC721(name, symbol) { }\n\n    function exists(uint256 tokenId) public view returns (bool) {\n        return _exists(tokenId);\n    }\n\n    function setTokenURI(uint256 tokenId, string memory uri) public onlyOwner {\n        _setTokenURI(tokenId, uri);\n    }\n\n    function setBaseURI(string memory baseURI) public onlyOwner {\n        _setBaseURI(baseURI);\n    }\n\n    function mint(address to, uint256 tokenId) public onlyOwner {\n        _safeMint(to, tokenId);\n    }\n\n    function mint(address to, uint256 tokenId, bytes memory _data) public onlyOwner {\n        _safeMint(to, tokenId, _data);\n    }\n}\n\n// ERC721Colectibles made for a Cryptokitties/Polkamon like structure, where an hash is given by the owner based on a purchase of a package\n// Can be limited or unlimited\ncontract ERC721Colectibles is Opener, ERC721 {\n\n    constructor (\n        string memory name, string memory symbol,\n        ERC20 _purchaseToken) public ERC721(name, symbol) \n        Opener(_purchaseToken)\n    {\n    }\n\n    function exists(uint256 tokenId) public view returns (bool) {\n        return _exists(tokenId);\n    }\n\n    function setTokenURI(uint256 tokenId, string memory uri) public onlyOwner {\n        _setTokenURI(tokenId, uri);\n    }\n\n    function setBaseURI(string memory baseURI) public onlyOwner {\n        _setBaseURI(baseURI);\n    }\n\n    function mint(uint256 tokenIdToMint) public {\n        require(registeredIDs[msg.sender][tokenIdToMint], \"Token was not registered or not the rightful owner\");\n        require(!alreadyMinted[tokenIdToMint], \"Already minted\");\n\n        alreadyMinted[tokenIdToMint] = true;\n        _safeMint(msg.sender, tokenIdToMint);\n    }\n\n    function getRegisteredIDs(address _address) public view returns(uint256[] memory) {\n        return registeredIDsArray[_address];\n    }\n}",
  "sourcePath": "/Users/ruipedro/Desktop/projects/Bepro/@bepro-js/contracts/custom/ERC721RealFvr.sol",
  "compiler": {
    "name": "solc",
    "version": "0.6.2+commit.bacdbe57.Emscripten.clang"
  },
  "schemaVersion": "3.0.20",
  "updatedAt": "2021-05-05T23:16:42.517Z",
  "devdoc": {
    "methods": {
      "approve(address,uint256)": {
        "details": "See {IERC721-approve}."
      },
      "balanceOf(address)": {
        "details": "See {IERC721-balanceOf}."
      },
      "baseURI()": {
        "details": "Returns the base URI set via {_setBaseURI}. This will be automatically added as a prefix in {tokenURI} to each token's URI, or to the token ID if no specific URI is set for that token ID."
      },
      "getApproved(uint256)": {
        "details": "See {IERC721-getApproved}."
      },
      "isApprovedForAll(address,address)": {
        "details": "See {IERC721-isApprovedForAll}."
      },
      "name()": {
        "details": "See {IERC721Metadata-name}."
      },
      "ownerOf(uint256)": {
        "details": "See {IERC721-ownerOf}."
      },
      "safeTransferFrom(address,address,uint256)": {
        "details": "See {IERC721-safeTransferFrom}."
      },
      "safeTransferFrom(address,address,uint256,bytes)": {
        "details": "See {IERC721-safeTransferFrom}."
      },
      "setApprovalForAll(address,bool)": {
        "details": "See {IERC721-setApprovalForAll}."
      },
      "supportsInterface(bytes4)": {
        "details": "See {IERC165-supportsInterface}.     * Time complexity O(1), guaranteed to always use less than 30 000 gas."
      },
      "symbol()": {
        "details": "See {IERC721Metadata-symbol}."
      },
      "tokenByIndex(uint256)": {
        "details": "See {IERC721Enumerable-tokenByIndex}."
      },
      "tokenOfOwnerByIndex(address,uint256)": {
        "details": "See {IERC721Enumerable-tokenOfOwnerByIndex}."
      },
      "tokenURI(uint256)": {
        "details": "See {IERC721Metadata-tokenURI}."
      },
      "totalSupply()": {
        "details": "See {IERC721Enumerable-totalSupply}."
      },
      "transferFrom(address,address,uint256)": {
        "details": "See {IERC721-transferFrom}."
      },
      "transferOwnership(address)": {
        "details": "Allows the current owner to transfer control of the contract to a newOwner.",
        "params": {
          "newOwner": "The address to transfer ownership to."
        }
      }
    }
  },
  "userdoc": {
    "methods": {}
  }
}