{
  "contractName": "ERC721Standard",
  "abi": [
    {
      "inputs": [
        {
          "internalType": "string",
          "name": "name",
          "type": "string"
        },
        {
          "internalType": "string",
          "name": "symbol",
          "type": "string"
        }
      ],
      "stateMutability": "nonpayable",
      "type": "constructor"
    },
    {
      "anonymous": false,
      "inputs": [
        {
          "indexed": true,
          "internalType": "address",
          "name": "owner",
          "type": "address"
        },
        {
          "indexed": true,
          "internalType": "address",
          "name": "approved",
          "type": "address"
        },
        {
          "indexed": true,
          "internalType": "uint256",
          "name": "tokenId",
          "type": "uint256"
        }
      ],
      "name": "Approval",
      "type": "event"
    },
    {
      "anonymous": false,
      "inputs": [
        {
          "indexed": true,
          "internalType": "address",
          "name": "owner",
          "type": "address"
        },
        {
          "indexed": true,
          "internalType": "address",
          "name": "operator",
          "type": "address"
        },
        {
          "indexed": false,
          "internalType": "bool",
          "name": "approved",
          "type": "bool"
        }
      ],
      "name": "ApprovalForAll",
      "type": "event"
    },
    {
      "anonymous": false,
      "inputs": [
        {
          "indexed": true,
          "internalType": "address",
          "name": "previousOwner",
          "type": "address"
        },
        {
          "indexed": true,
          "internalType": "address",
          "name": "newOwner",
          "type": "address"
        }
      ],
      "name": "OwnershipTransferred",
      "type": "event"
    },
    {
      "anonymous": false,
      "inputs": [
        {
          "indexed": true,
          "internalType": "address",
          "name": "from",
          "type": "address"
        },
        {
          "indexed": true,
          "internalType": "address",
          "name": "to",
          "type": "address"
        },
        {
          "indexed": true,
          "internalType": "uint256",
          "name": "tokenId",
          "type": "uint256"
        }
      ],
      "name": "Transfer",
      "type": "event"
    },
    {
      "inputs": [
        {
          "internalType": "address",
          "name": "to",
          "type": "address"
        },
        {
          "internalType": "uint256",
          "name": "tokenId",
          "type": "uint256"
        }
      ],
      "name": "approve",
      "outputs": [],
      "stateMutability": "nonpayable",
      "type": "function"
    },
    {
      "inputs": [
        {
          "internalType": "address",
          "name": "owner",
          "type": "address"
        }
      ],
      "name": "balanceOf",
      "outputs": [
        {
          "internalType": "uint256",
          "name": "",
          "type": "uint256"
        }
      ],
      "stateMutability": "view",
      "type": "function"
    },
    {
      "inputs": [],
      "name": "baseURI",
      "outputs": [
        {
          "internalType": "string",
          "name": "",
          "type": "string"
        }
      ],
      "stateMutability": "view",
      "type": "function"
    },
    {
      "inputs": [
        {
          "internalType": "uint256",
          "name": "tokenId",
          "type": "uint256"
        }
      ],
      "name": "getApproved",
      "outputs": [
        {
          "internalType": "address",
          "name": "",
          "type": "address"
        }
      ],
      "stateMutability": "view",
      "type": "function"
    },
    {
      "inputs": [
        {
          "internalType": "address",
          "name": "owner",
          "type": "address"
        },
        {
          "internalType": "address",
          "name": "operator",
          "type": "address"
        }
      ],
      "name": "isApprovedForAll",
      "outputs": [
        {
          "internalType": "bool",
          "name": "",
          "type": "bool"
        }
      ],
      "stateMutability": "view",
      "type": "function"
    },
    {
      "inputs": [],
      "name": "name",
      "outputs": [
        {
          "internalType": "string",
          "name": "",
          "type": "string"
        }
      ],
      "stateMutability": "view",
      "type": "function"
    },
    {
      "inputs": [],
      "name": "owner",
      "outputs": [
        {
          "internalType": "address",
          "name": "",
          "type": "address"
        }
      ],
      "stateMutability": "view",
      "type": "function"
    },
    {
      "inputs": [
        {
          "internalType": "uint256",
          "name": "tokenId",
          "type": "uint256"
        }
      ],
      "name": "ownerOf",
      "outputs": [
        {
          "internalType": "address",
          "name": "",
          "type": "address"
        }
      ],
      "stateMutability": "view",
      "type": "function"
    },
    {
      "inputs": [
        {
          "internalType": "address",
          "name": "from",
          "type": "address"
        },
        {
          "internalType": "address",
          "name": "to",
          "type": "address"
        },
        {
          "internalType": "uint256",
          "name": "tokenId",
          "type": "uint256"
        }
      ],
      "name": "safeTransferFrom",
      "outputs": [],
      "stateMutability": "nonpayable",
      "type": "function"
    },
    {
      "inputs": [
        {
          "internalType": "address",
          "name": "from",
          "type": "address"
        },
        {
          "internalType": "address",
          "name": "to",
          "type": "address"
        },
        {
          "internalType": "uint256",
          "name": "tokenId",
          "type": "uint256"
        },
        {
          "internalType": "bytes",
          "name": "_data",
          "type": "bytes"
        }
      ],
      "name": "safeTransferFrom",
      "outputs": [],
      "stateMutability": "nonpayable",
      "type": "function"
    },
    {
      "inputs": [
        {
          "internalType": "address",
          "name": "operator",
          "type": "address"
        },
        {
          "internalType": "bool",
          "name": "approved",
          "type": "bool"
        }
      ],
      "name": "setApprovalForAll",
      "outputs": [],
      "stateMutability": "nonpayable",
      "type": "function"
    },
    {
      "inputs": [
        {
          "internalType": "bytes4",
          "name": "interfaceId",
          "type": "bytes4"
        }
      ],
      "name": "supportsInterface",
      "outputs": [
        {
          "internalType": "bool",
          "name": "",
          "type": "bool"
        }
      ],
      "stateMutability": "view",
      "type": "function"
    },
    {
      "inputs": [],
      "name": "symbol",
      "outputs": [
        {
          "internalType": "string",
          "name": "",
          "type": "string"
        }
      ],
      "stateMutability": "view",
      "type": "function"
    },
    {
      "inputs": [
        {
          "internalType": "uint256",
          "name": "index",
          "type": "uint256"
        }
      ],
      "name": "tokenByIndex",
      "outputs": [
        {
          "internalType": "uint256",
          "name": "",
          "type": "uint256"
        }
      ],
      "stateMutability": "view",
      "type": "function"
    },
    {
      "inputs": [
        {
          "internalType": "address",
          "name": "owner",
          "type": "address"
        },
        {
          "internalType": "uint256",
          "name": "index",
          "type": "uint256"
        }
      ],
      "name": "tokenOfOwnerByIndex",
      "outputs": [
        {
          "internalType": "uint256",
          "name": "",
          "type": "uint256"
        }
      ],
      "stateMutability": "view",
      "type": "function"
    },
    {
      "inputs": [
        {
          "internalType": "uint256",
          "name": "tokenId",
          "type": "uint256"
        }
      ],
      "name": "tokenURI",
      "outputs": [
        {
          "internalType": "string",
          "name": "",
          "type": "string"
        }
      ],
      "stateMutability": "view",
      "type": "function"
    },
    {
      "inputs": [],
      "name": "totalSupply",
      "outputs": [
        {
          "internalType": "uint256",
          "name": "",
          "type": "uint256"
        }
      ],
      "stateMutability": "view",
      "type": "function"
    },
    {
      "inputs": [
        {
          "internalType": "address",
          "name": "from",
          "type": "address"
        },
        {
          "internalType": "address",
          "name": "to",
          "type": "address"
        },
        {
          "internalType": "uint256",
          "name": "tokenId",
          "type": "uint256"
        }
      ],
      "name": "transferFrom",
      "outputs": [],
      "stateMutability": "nonpayable",
      "type": "function"
    },
    {
      "inputs": [
        {
          "internalType": "address",
          "name": "newOwner",
          "type": "address"
        }
      ],
      "name": "transferOwnership",
      "outputs": [],
      "stateMutability": "nonpayable",
      "type": "function"
    },
    {
      "inputs": [
        {
          "internalType": "uint256",
          "name": "tokenId",
          "type": "uint256"
        }
      ],
      "name": "exists",
      "outputs": [
        {
          "internalType": "bool",
          "name": "",
          "type": "bool"
        }
      ],
      "stateMutability": "view",
      "type": "function"
    },
    {
      "inputs": [
        {
          "internalType": "uint256",
          "name": "tokenId",
          "type": "uint256"
        },
        {
          "internalType": "string",
          "name": "uri",
          "type": "string"
        }
      ],
      "name": "setTokenURI",
      "outputs": [],
      "stateMutability": "nonpayable",
      "type": "function"
    },
    {
      "inputs": [
        {
          "internalType": "string",
          "name": "baseURI",
          "type": "string"
        }
      ],
      "name": "setBaseURI",
      "outputs": [],
      "stateMutability": "nonpayable",
      "type": "function"
    },
    {
      "inputs": [
        {
          "internalType": "address",
          "name": "to",
          "type": "address"
        },
        {
          "internalType": "uint256",
          "name": "tokenId",
          "type": "uint256"
        }
      ],
      "name": "mint",
      "outputs": [],
      "stateMutability": "nonpayable",
      "type": "function"
    },
    {
      "inputs": [
        {
          "internalType": "address",
          "name": "to",
          "type": "address"
        },
        {
          "internalType": "uint256",
          "name": "tokenId",
          "type": "uint256"
        },
        {
          "internalType": "bytes",
          "name": "_data",
          "type": "bytes"
        }
      ],
      "name": "mint",
      "outputs": [],
      "stateMutability": "nonpayable",
      "type": "function"
    }
  ],
  "bytecode": "0x60806040523480156200001157600080fd5b506040516200242638038062002426833981810160405260408110156200003757600080fd5b81019080805160405193929190846401000000008211156200005857600080fd5b9083019060208201858111156200006e57600080fd5b82516401000000008111828201881017156200008957600080fd5b82525081516020918201929091019080838360005b83811015620000b85781810151838201526020016200009e565b50505050905090810190601f168015620000e65780820380516001836020036101000a031916815260200191505b50604052602001805160405193929190846401000000008211156200010a57600080fd5b9083019060208201858111156200012057600080fd5b82516401000000008111828201881017156200013b57600080fd5b82525081516020918201929091019080838360005b838110156200016a57818101518382015260200162000150565b50505050905090810190601f168015620001985780820380516001836020036101000a031916815260200191505b5060405250839150829050620001be6301ffc9a760e01b6001600160e01b036200025816565b8151620001d3906006906020850190620002dd565b508051620001e9906007906020840190620002dd565b50620002056380ac58cd60e01b6001600160e01b036200025816565b62000220635b5e139f60e01b6001600160e01b036200025816565b6200023b63780e9d6360e01b6001600160e01b036200025816565b5050600a80546001600160a01b0319163317905550620003829050565b6001600160e01b03198082161415620002b8576040805162461bcd60e51b815260206004820152601c60248201527f4552433136353a20696e76616c696420696e7465726661636520696400000000604482015290519081900360640190fd5b6001600160e01b0319166000908152602081905260409020805460ff19166001179055565b828054600181600116156101000203166002900490600052602060002090601f016020900481019282601f106200032057805160ff191683800117855562000350565b8280016001018555821562000350579182015b828111156200035057825182559160200191906001019062000333565b506200035e92915062000362565b5090565b6200037f91905b808211156200035e576000815560010162000369565b90565b61209480620003926000396000f3fe608060405234801561001057600080fd5b50600436106101585760003560e01c806355f804b3116100c357806395d89b411161007c57806395d89b41146105ef578063a22cb465146105f7578063b88d4fde14610625578063c87b56dd146106e9578063e985e9c514610706578063f2fde38b1461073457610158565b806355f804b31461043f5780636352211e146104e35780636c0360eb1461050057806370a08231146105085780638da5cb5b1461052e57806394d008ef1461053657610158565b806323b872dd1161011557806323b872dd146103415780632f745c591461037757806340c10f19146103a357806342842e0e146103cf5780634f558e79146104055780634f6ccce71461042257610158565b806301ffc9a71461015d57806306fdde0314610198578063081812fc14610215578063095ea7b31461024e578063162094c41461027c57806318160ddd14610327575b600080fd5b6101846004803603602081101561017357600080fd5b50356001600160e01b03191661075a565b604080519115158252519081900360200190f35b6101a061077d565b6040805160208082528351818301528351919283929083019185019080838360005b838110156101da5781810151838201526020016101c2565b50505050905090810190601f1680156102075780820380516001836020036101000a031916815260200191505b509250505060405180910390f35b6102326004803603602081101561022b57600080fd5b5035610814565b604080516001600160a01b039092168252519081900360200190f35b61027a6004803603604081101561026457600080fd5b506001600160a01b038135169060200135610876565b005b61027a6004803603604081101561029257600080fd5b81359190810190604081016020820135600160201b8111156102b357600080fd5b8201836020820111156102c557600080fd5b803590602001918460018302840111600160201b831117156102e657600080fd5b91908080601f016020809104026020016040519081016040528093929190818152602001838380828437600092019190915250929550610951945050505050565b61032f610976565b60408051918252519081900360200190f35b61027a6004803603606081101561035757600080fd5b506001600160a01b03813581169160208101359091169060400135610987565b61032f6004803603604081101561038d57600080fd5b506001600160a01b0381351690602001356109de565b61027a600480360360408110156103b957600080fd5b506001600160a01b038135169060200135610a0f565b61027a600480360360608110156103e557600080fd5b506001600160a01b03813581169160208101359091169060400135610a30565b6101846004803603602081101561041b57600080fd5b5035610a4b565b61032f6004803603602081101561043857600080fd5b5035610a56565b61027a6004803603602081101561045557600080fd5b810190602081018135600160201b81111561046f57600080fd5b82018360208201111561048157600080fd5b803590602001918460018302840111600160201b831117156104a257600080fd5b91908080601f016020809104026020016040519081016040528093929190818152602001838380828437600092019190915250929550610a72945050505050565b610232600480360360208110156104f957600080fd5b5035610a95565b6101a0610ac3565b61032f6004803603602081101561051e57600080fd5b50356001600160a01b0316610b24565b610232610b8c565b61027a6004803603606081101561054c57600080fd5b6001600160a01b0382351691602081013591810190606081016040820135600160201b81111561057b57600080fd5b82018360208201111561058d57600080fd5b803590602001918460018302840111600160201b831117156105ae57600080fd5b91908080601f016020809104026020016040519081016040528093929190818152602001838380828437600092019190915250929550610b9b945050505050565b6101a0610bbd565b61027a6004803603604081101561060d57600080fd5b506001600160a01b0381351690602001351515610c1e565b61027a6004803603608081101561063b57600080fd5b6001600160a01b03823581169260208101359091169160408201359190810190608081016060820135600160201b81111561067557600080fd5b82018360208201111561068757600080fd5b803590602001918460018302840111600160201b831117156106a857600080fd5b91908080601f016020809104026020016040519081016040528093929190818152602001838380828437600092019190915250929550610d23945050505050565b6101a0600480360360208110156106ff57600080fd5b5035610d81565b6101846004803603604081101561071c57600080fd5b506001600160a01b0381358116916020013516611004565b61027a6004803603602081101561074a57600080fd5b50356001600160a01b0316611032565b6001600160e01b0319811660009081526020819052604090205460ff165b919050565b60068054604080516020601f60026000196101006001881615020190951694909404938401819004810282018101909252828152606093909290918301828280156108095780601f106107de57610100808354040283529160200191610809565b820191906000526020600020905b8154815290600101906020018083116107ec57829003601f168201915b505050505090505b90565b600061081f826110b8565b61085a5760405162461bcd60e51b815260040180806020018281038252602c815260200180611f5d602c913960400191505060405180910390fd5b506000908152600460205260409020546001600160a01b031690565b600061088182610a95565b9050806001600160a01b0316836001600160a01b031614156108d45760405162461bcd60e51b815260040180806020018281038252602181526020018061200d6021913960400191505060405180910390fd5b806001600160a01b03166108e66110cb565b6001600160a01b031614806109075750610907816109026110cb565b611004565b6109425760405162461bcd60e51b8152600401808060200182810382526038815260200180611eb06038913960400191505060405180910390fd5b61094c83836110cf565b505050565b600a546001600160a01b0316331461096857600080fd5b610972828261113d565b5050565b600061098260026111a0565b905090565b6109986109926110cb565b826111ab565b6109d35760405162461bcd60e51b815260040180806020018281038252603181526020018061202e6031913960400191505060405180910390fd5b61094c83838361124f565b6001600160a01b0382166000908152600160205260408120610a06908363ffffffff6113ad16565b90505b92915050565b600a546001600160a01b03163314610a2657600080fd5b61097282826113b9565b61094c83838360405180602001604052806000815250610d23565b6000610a09826110b8565b600080610a6a60028463ffffffff6113d316565b509392505050565b600a546001600160a01b03163314610a8957600080fd5b610a92816113ef565b50565b6000610a0982604051806060016040528060298152602001611f12602991396002919063ffffffff61140216565b60098054604080516020601f60026000196101006001881615020190951694909404938401819004810282018101909252828152606093909290918301828280156108095780601f106107de57610100808354040283529160200191610809565b60006001600160a01b038216610b6b5760405162461bcd60e51b815260040180806020018281038252602a815260200180611ee8602a913960400191505060405180910390fd5b6001600160a01b0382166000908152600160205260409020610a09906111a0565b600a546001600160a01b031681565b600a546001600160a01b03163314610bb257600080fd5b61094c838383611419565b60078054604080516020601f60026000196101006001881615020190951694909404938401819004810282018101909252828152606093909290918301828280156108095780601f106107de57610100808354040283529160200191610809565b610c266110cb565b6001600160a01b0316826001600160a01b03161415610c8c576040805162461bcd60e51b815260206004820152601960248201527f4552433732313a20617070726f766520746f2063616c6c657200000000000000604482015290519081900360640190fd5b8060056000610c996110cb565b6001600160a01b03908116825260208083019390935260409182016000908120918716808252919093529120805460ff191692151592909217909155610cdd6110cb565b60408051841515815290516001600160a01b0392909216917f17307eab39ab6107e8899845ad3d59bd9653f200f220920489ca2b5937696c319181900360200190a35050565b610d34610d2e6110cb565b836111ab565b610d6f5760405162461bcd60e51b815260040180806020018281038252603181526020018061202e6031913960400191505060405180910390fd5b610d7b8484848461146b565b50505050565b6060610d8c826110b8565b610dc75760405162461bcd60e51b815260040180806020018281038252602f815260200180611fde602f913960400191505060405180910390fd5b60008281526008602090815260409182902080548351601f6002600019610100600186161502019093169290920491820184900484028101840190945280845260609392830182828015610e5c5780601f10610e3157610100808354040283529160200191610e5c565b820191906000526020600020905b815481529060010190602001808311610e3f57829003601f168201915b505050505090506060610e6d610ac3565b9050805160001415610e8157509050610778565b815115610f425780826040516020018083805190602001908083835b60208310610ebc5780518252601f199092019160209182019101610e9d565b51815160209384036101000a600019018019909216911617905285519190930192850191508083835b60208310610f045780518252601f199092019160209182019101610ee5565b6001836020036101000a0380198251168184511680821785525050505050509050019250505060405160208183030381529060405292505050610778565b80610f4c856114bd565b6040516020018083805190602001908083835b60208310610f7e5780518252601f199092019160209182019101610f5f565b51815160209384036101000a600019018019909216911617905285519190930192850191508083835b60208310610fc65780518252601f199092019160209182019101610fa7565b6001836020036101000a0380198251168184511680821785525050505050509050019250505060405160208183030381529060405292505050919050565b6001600160a01b03918216600090815260056020908152604080832093909416825291909152205460ff1690565b600a546001600160a01b0316331461104957600080fd5b6001600160a01b03811661105c57600080fd5b600a546040516001600160a01b038084169216907f8be0079c531659141344cd1fd0a4f28419497f9722a3daafe3b4186f6b6457e090600090a3600a80546001600160a01b0319166001600160a01b0392909216919091179055565b6000610a0960028363ffffffff61158116565b3390565b600081815260046020526040902080546001600160a01b0319166001600160a01b038416908117909155819061110482610a95565b6001600160a01b03167f8c5be1e5ebec7d5bd14f71427d1e84f3dd0314c0f7b2291e5b200ac8c7c3b92560405160405180910390a45050565b611146826110b8565b6111815760405162461bcd60e51b815260040180806020018281038252602c815260200180611f89602c913960400191505060405180910390fd5b6000828152600860209081526040909120825161094c92840190611d73565b6000610a098261158d565b60006111b6826110b8565b6111f15760405162461bcd60e51b815260040180806020018281038252602c815260200180611e84602c913960400191505060405180910390fd5b60006111fc83610a95565b9050806001600160a01b0316846001600160a01b031614806112375750836001600160a01b031661122c84610814565b6001600160a01b0316145b8061124757506112478185611004565b949350505050565b826001600160a01b031661126282610a95565b6001600160a01b0316146112a75760405162461bcd60e51b8152600401808060200182810382526029815260200180611fb56029913960400191505060405180910390fd5b6001600160a01b0382166112ec5760405162461bcd60e51b8152600401808060200182810382526024815260200180611e606024913960400191505060405180910390fd5b6112f783838361094c565b6113026000826110cf565b6001600160a01b038316600090815260016020526040902061132a908263ffffffff61159116565b506001600160a01b0382166000908152600160205260409020611353908263ffffffff61159d16565b506113666002828463ffffffff6115a916565b5080826001600160a01b0316846001600160a01b03167fddf252ad1be2c89b69c2b068fc378daa952ba7f163c4a11628f55a4df523b3ef60405160405180910390a4505050565b6000610a0683836115bf565b610972828260405180602001604052806000815250611419565b60008080806113e28686611623565b9097909650945050505050565b8051610972906009906020840190611d73565b600061140f84848461169e565b90505b9392505050565b6114238383611768565b61143060008484846118a2565b61094c5760405162461bcd60e51b8152600401808060200182810382526032815260200180611e2e6032913960400191505060405180910390fd5b61147684848461124f565b611482848484846118a2565b610d7b5760405162461bcd60e51b8152600401808060200182810382526032815260200180611e2e6032913960400191505060405180910390fd5b6060816114e257506040805180820190915260018152600360fc1b6020820152610778565b8160005b81156114fa57600101600a820491506114e6565b6060816040519080825280601f01601f191660200182016040528015611527576020820181803883390190505b50859350905060001982015b831561157857600a840660300160f81b8282806001900393508151811061155657fe5b60200101906001600160f81b031916908160001a905350600a84049350611533565b50949350505050565b6000610a068383611a22565b5490565b6000610a068383611a3a565b6000610a068383611b00565b600061140f84846001600160a01b038516611b4a565b815460009082106116015760405162461bcd60e51b8152600401808060200182810382526022815260200180611e0c6022913960400191505060405180910390fd5b82600001828154811061161057fe5b9060005260206000200154905092915050565b8154600090819083106116675760405162461bcd60e51b8152600401808060200182810382526022815260200180611f3b6022913960400191505060405180910390fd5b600084600001848154811061167857fe5b906000526020600020906002020190508060000154816001015492509250509250929050565b600082815260018401602052604081205482816117395760405162461bcd60e51b81526004018080602001828103825283818151815260200191508051906020019080838360005b838110156116fe5781810151838201526020016116e6565b50505050905090810190601f16801561172b5780820380516001836020036101000a031916815260200191505b509250505060405180910390fd5b5084600001600182038154811061174c57fe5b9060005260206000209060020201600101549150509392505050565b6001600160a01b0382166117c3576040805162461bcd60e51b815260206004820181905260248201527f4552433732313a206d696e7420746f20746865207a65726f2061646472657373604482015290519081900360640190fd5b6117cc816110b8565b1561181e576040805162461bcd60e51b815260206004820152601c60248201527f4552433732313a20746f6b656e20616c7265616479206d696e74656400000000604482015290519081900360640190fd5b61182a6000838361094c565b6001600160a01b0382166000908152600160205260409020611852908263ffffffff61159d16565b506118656002828463ffffffff6115a916565b5060405181906001600160a01b038416906000907fddf252ad1be2c89b69c2b068fc378daa952ba7f163c4a11628f55a4df523b3ef908290a45050565b60006118b6846001600160a01b0316611be1565b6118c257506001611247565b60606119e8630a85bd0160e11b6118d76110cb565b88878760405160240180856001600160a01b03166001600160a01b03168152602001846001600160a01b03166001600160a01b0316815260200183815260200180602001828103825283818151815260200191508051906020019080838360005b83811015611950578181015183820152602001611938565b50505050905090810190601f16801561197d5780820380516001836020036101000a031916815260200191505b5095505050505050604051602081830303815290604052906001600160e01b0319166020820180516001600160e01b038381831617835250505050604051806060016040528060328152602001611e2e603291396001600160a01b038816919063ffffffff611be716565b90506000818060200190516020811015611a0157600080fd5b50516001600160e01b031916630a85bd0160e11b1492505050949350505050565b60009081526001919091016020526040902054151590565b60008181526001830160205260408120548015611af65783546000198083019190810190600090879083908110611a6d57fe5b9060005260206000200154905080876000018481548110611a8a57fe5b600091825260208083209091019290925582815260018981019092526040902090840190558654879080611aba57fe5b60019003818190600052602060002001600090559055866001016000878152602001908152602001600020600090556001945050505050610a09565b6000915050610a09565b6000611b0c8383611a22565b611b4257508154600181810184556000848152602080822090930184905584548482528286019093526040902091909155610a09565b506000610a09565b600082815260018401602052604081205480611baf575050604080518082018252838152602080820184815286546001818101895560008981528481209551600290930290950191825591519082015586548684528188019092529290912055611412565b82856000016001830381548110611bc257fe5b9060005260206000209060020201600101819055506000915050611412565b3b151590565b606061140f848460008585611bfb85611be1565b611c4c576040805162461bcd60e51b815260206004820152601d60248201527f416464726573733a2063616c6c20746f206e6f6e2d636f6e7472616374000000604482015290519081900360640190fd5b60006060866001600160a01b031685876040518082805190602001908083835b60208310611c8b5780518252601f199092019160209182019101611c6c565b6001836020036101000a03801982511681845116808217855250505050505090500191505060006040518083038185875af1925050503d8060008114611ced576040519150601f19603f3d011682016040523d82523d6000602084013e611cf2565b606091505b5091509150611d02828286611d0d565b979650505050505050565b60608315611d1c575081611412565b825115611d2c5782518084602001fd5b60405162461bcd60e51b81526020600482018181528451602484015284518593919283926044019190850190808383600083156116fe5781810151838201526020016116e6565b828054600181600116156101000203166002900490600052602060002090601f016020900481019282601f10611db457805160ff1916838001178555611de1565b82800160010185558215611de1579182015b82811115611de1578251825591602001919060010190611dc6565b50611ded929150611df1565b5090565b61081191905b80821115611ded5760008155600101611df756fe456e756d657261626c655365743a20696e646578206f7574206f6620626f756e64734552433732313a207472616e7366657220746f206e6f6e20455243373231526563656976657220696d706c656d656e7465724552433732313a207472616e7366657220746f20746865207a65726f20616464726573734552433732313a206f70657261746f7220717565727920666f72206e6f6e6578697374656e7420746f6b656e4552433732313a20617070726f76652063616c6c6572206973206e6f74206f776e6572206e6f7220617070726f76656420666f7220616c6c4552433732313a2062616c616e636520717565727920666f7220746865207a65726f20616464726573734552433732313a206f776e657220717565727920666f72206e6f6e6578697374656e7420746f6b656e456e756d657261626c654d61703a20696e646578206f7574206f6620626f756e64734552433732313a20617070726f76656420717565727920666f72206e6f6e6578697374656e7420746f6b656e4552433732314d657461646174613a2055524920736574206f66206e6f6e6578697374656e7420746f6b656e4552433732313a207472616e73666572206f6620746f6b656e2074686174206973206e6f74206f776e4552433732314d657461646174613a2055524920717565727920666f72206e6f6e6578697374656e7420746f6b656e4552433732313a20617070726f76616c20746f2063757272656e74206f776e65724552433732313a207472616e736665722063616c6c6572206973206e6f74206f776e6572206e6f7220617070726f766564a26469706673582212209f2e2b896c960bc191a437cc051a5920a3325c2cde284f2cf82271585849bc1964736f6c63430006020033",
  "source": "// SPDX-License-Identifier: MIT\n\npragma solidity >=0.6.0;\n\nimport \"@openzeppelin/contracts/token/ERC721/ERC721.sol\";\nimport \"@openzeppelin/contracts/token/ERC20/ERC20.sol\";\nimport \"./utils/Ownable.sol\";\n\ncontract Opener is  Ownable {\n    using SafeMath for uint256;\n\n    ERC20 public _purchaseToken;\n    address public _baseFeeAddress;\n    address public _feeAddress;\n    address public _otherAddress;\n    bool public _isLimited = false;\n    uint256 public _currentTokenId = 1000;\n    uint256 public _limitedAmount;\n    uint256 public _pricePerPack = 1*10**18;\n\n    // Mapping from address to bool, if egg was already claimed\n    // The hash is about the userId and the nftIds array\n    mapping(address => mapping(uint256 => bool)) public registeredIDs;\n    mapping(address => uint256[]) public registeredIDsArray;\n    mapping(uint256 => bool) public alreadyMinted;\n\n    event Opening(address indexed from, uint256 amount, uint256 openedPacks);\n\n    uint256 public _baseFeeShare = 1;\n    uint256 public _feeShare = 99;\n    uint256 public _otherShare = 0;\n    uint256 public MAX_PURCHASE = 10;\n\n    bool public _closed = false;\n    uint256 public _openedPacks = 0;\n\n    constructor(\n        ERC20 purchaseToken,\n        address baseFeeAddress,\n        address feeAddress,\n        address otherAddress,\n        uint256 limitedAmount\n    ) public {\n        _purchaseToken = purchaseToken;\n        _baseFeeAddress = baseFeeAddress;\n        _feeAddress = feeAddress;\n        _otherAddress = otherAddress;\n        if(limitedAmount != 0){\n            _isLimited = true;\n        }\n        _limitedAmount = limitedAmount;\n    }\n\n    function _openPack(uint256 amount) internal {\n        require(!_closed, \"Opener is locked\");\n        uint256 totalPrice = _pricePerPack.mul(amount);\n\n        require(_purchaseToken.allowance(msg.sender, address(this)) >= totalPrice, \"Not enough money per pack\");\n\n        address from = msg.sender;\n\n        require(amount <= MAX_PURCHASE, \"Max purchase per tx reached\");\n\n        if(_isLimited){\n            require(_limitedAmount >= _openedPacks.add(amount), \"Amount of packs not available\");\n        }\n\n        _distributePackShares(from, totalPrice);\n\n        emit Opening(from, amount, _openedPacks);\n        _openedPacks += amount;\n\n        for(uint i = _currentTokenId; i < _currentTokenId.add(amount); i++){\n            registeredIDs[msg.sender][i] = true;\n            registeredIDsArray[msg.sender].push(i);\n        }\n\n        _currentTokenId += amount;\n        _pricePerPack = _pricePerPack*109/100;\n    }\n\n    function _distributePackShares(address from, uint256 amount) internal {\n        //transfer of fee share\n        _purchaseToken.transferFrom(from, _baseFeeAddress, (amount * _baseFeeShare) / 100);\n\n        if(address(_feeShare) != address(0)){\n            //transfer of stake share\n            _purchaseToken.transferFrom(\n                from,\n                _feeAddress,\n                (amount * _feeShare) / 100\n            );\n        }\n\n        if(address(_otherAddress) != address(0)){\n            //transfer of stake share\n            _purchaseToken.transferFrom(\n                from,\n                _otherAddress,\n                (amount * _otherShare) / 100\n            );\n        }\n    }\n\n    function setShares(\n        uint256 feeShare,\n        uint256 otherShare\n    ) public onlyOwner {\n        require(\n            otherShare + feeShare + _baseFeeShare == 100,\n            \"Doesn't add up to 100\"\n        );\n\n        _otherShare = otherShare;\n        _feeShare = feeShare;\n    }\n\n\n    function setPurchaseTokenAddress(ERC20 purchaseToken) public onlyOwner {\n        _purchaseToken = purchaseToken;\n    }\n\n    function setPricePerPack(uint256 newPrice) public onlyOwner {\n        _pricePerPack = newPrice;\n    }\n\n    function setFeeAddress(address feeAddress) public onlyOwner {\n        _feeAddress = feeAddress;\n    }\n\n    function setOtherAddress(address otherAddress) public onlyOwner {\n        _otherAddress = otherAddress;\n    }\n\n    function lock() public onlyOwner {\n        _closed = true;\n    }\n\n    function unlock() public onlyOwner {\n        _closed = false;\n    }\n}\n\n// ERC721Standard made for a simple structure, owner generates himself the NFT he wants (direct minting)\ncontract ERC721Standard is ERC721, Ownable {\n\n    constructor (string memory name, string memory symbol) public ERC721(name, symbol) { }\n\n    function exists(uint256 tokenId) public view returns (bool) {\n        return _exists(tokenId);\n    }\n\n    function setTokenURI(uint256 tokenId, string memory uri) public onlyOwner {\n        _setTokenURI(tokenId, uri);\n    }\n\n    function setBaseURI(string memory baseURI) public onlyOwner {\n        _setBaseURI(baseURI);\n    }\n\n    function mint(address to, uint256 tokenId) public onlyOwner {\n        _safeMint(to, tokenId);\n    }\n\n    function mint(address to, uint256 tokenId, bytes memory _data) public onlyOwner {\n        _safeMint(to, tokenId, _data);\n    }\n}\n\n// ERC721Colectibles made for a Cryptokitties/Polkamon like structure, where an hash is given by the owner based on a purchase of a package\n// Can be limited or unlimited\ncontract ERC721Colectibles is Opener, ERC721 {\n\n    constructor (\n        string memory name, string memory symbol,\n        uint256 limitedAmount,\n        ERC20 _purchaseToken,\n        address baseFeeAddress,\n        address feeAddress,\n        address otherAddress) public ERC721(name, symbol) \n        Opener(_purchaseToken, baseFeeAddress, feeAddress, otherAddress, limitedAmount)\n    {\n    }\n\n    function exists(uint256 tokenId) public view returns (bool) {\n        return _exists(tokenId);\n    }\n\n    function setTokenURI(uint256 tokenId, string memory uri) public onlyOwner {\n        _setTokenURI(tokenId, uri);\n    }\n\n    function setBaseURI(string memory baseURI) public onlyOwner {\n        _setBaseURI(baseURI);\n    }\n\n    function mint(uint256 tokenIdToMint) public {\n        require(\n            tokenIdToMint <= _currentTokenId, \n            \"Token Id not registered\"\n        );\n\n        require(registeredIDs[msg.sender][tokenIdToMint], \"Token was not registered or not the rightful owner\");\n        require(!alreadyMinted[tokenIdToMint], \"Already minted\");\n\n        alreadyMinted[tokenIdToMint] = true;\n        _safeMint(msg.sender, tokenIdToMint);\n    }\n\n    function openPack(uint256 amount) public {\n        _openPack(amount);\n    }\n\n    function getRegisteredIDs(address _address) public view returns(uint256[] memory) {\n        return registeredIDsArray[_address];\n    }\n}",
  "sourcePath": "/Users/ruipedro/Desktop/projects/Bepro/@bepro-js/contracts/ERC721Factory.sol",
  "compiler": {
    "name": "solc",
    "version": "0.6.2+commit.bacdbe57.Emscripten.clang"
  },
  "schemaVersion": "3.0.20",
  "updatedAt": "2021-05-28T17:18:50.516Z",
  "devdoc": {
    "methods": {
      "approve(address,uint256)": {
        "details": "See {IERC721-approve}."
      },
      "balanceOf(address)": {
        "details": "See {IERC721-balanceOf}."
      },
      "baseURI()": {
        "details": "Returns the base URI set via {_setBaseURI}. This will be automatically added as a prefix in {tokenURI} to each token's URI, or to the token ID if no specific URI is set for that token ID."
      },
      "getApproved(uint256)": {
        "details": "See {IERC721-getApproved}."
      },
      "isApprovedForAll(address,address)": {
        "details": "See {IERC721-isApprovedForAll}."
      },
      "name()": {
        "details": "See {IERC721Metadata-name}."
      },
      "ownerOf(uint256)": {
        "details": "See {IERC721-ownerOf}."
      },
      "safeTransferFrom(address,address,uint256)": {
        "details": "See {IERC721-safeTransferFrom}."
      },
      "safeTransferFrom(address,address,uint256,bytes)": {
        "details": "See {IERC721-safeTransferFrom}."
      },
      "setApprovalForAll(address,bool)": {
        "details": "See {IERC721-setApprovalForAll}."
      },
      "supportsInterface(bytes4)": {
        "details": "See {IERC165-supportsInterface}.     * Time complexity O(1), guaranteed to always use less than 30 000 gas."
      },
      "symbol()": {
        "details": "See {IERC721Metadata-symbol}."
      },
      "tokenByIndex(uint256)": {
        "details": "See {IERC721Enumerable-tokenByIndex}."
      },
      "tokenOfOwnerByIndex(address,uint256)": {
        "details": "See {IERC721Enumerable-tokenOfOwnerByIndex}."
      },
      "tokenURI(uint256)": {
        "details": "See {IERC721Metadata-tokenURI}."
      },
      "totalSupply()": {
        "details": "See {IERC721Enumerable-totalSupply}."
      },
      "transferFrom(address,address,uint256)": {
        "details": "See {IERC721-transferFrom}."
      },
      "transferOwnership(address)": {
        "details": "Allows the current owner to transfer control of the contract to a newOwner.",
        "params": {
          "newOwner": "The address to transfer ownership to."
        }
      }
    }
  },
  "userdoc": {
    "methods": {}
  }
}