{
  "contractName": "Exchange",
  "abi": [
    {
      "constant": true,
      "inputs": [],
      "name": "ODD_DECIMALS",
      "outputs": [
        {
          "name": "",
          "type": "uint256"
        }
      ],
      "payable": false,
      "stateMutability": "view",
      "type": "function"
    },
    {
      "constant": true,
      "inputs": [],
      "name": "eventId",
      "outputs": [
        {
          "name": "",
          "type": "uint256"
        }
      ],
      "payable": false,
      "stateMutability": "view",
      "type": "function"
    },
    {
      "constant": true,
      "inputs": [
        {
          "name": "",
          "type": "uint256"
        }
      ],
      "name": "events",
      "outputs": [
        {
          "name": "name",
          "type": "string"
        },
        {
          "name": "result",
          "type": "uint256"
        },
        {
          "name": "urlOracle",
          "type": "string"
        },
        {
          "name": "isResolved",
          "type": "bool"
        }
      ],
      "payable": false,
      "stateMutability": "view",
      "type": "function"
    },
    {
      "constant": true,
      "inputs": [],
      "name": "CURRENCY_DECIMALS",
      "outputs": [
        {
          "name": "",
          "type": "uint256"
        }
      ],
      "payable": false,
      "stateMutability": "view",
      "type": "function"
    },
    {
      "constant": false,
      "inputs": [],
      "name": "unpause",
      "outputs": [],
      "payable": false,
      "stateMutability": "nonpayable",
      "type": "function"
    },
    {
      "constant": false,
      "inputs": [],
      "name": "claimOwnership",
      "outputs": [],
      "payable": false,
      "stateMutability": "nonpayable",
      "type": "function"
    },
    {
      "constant": true,
      "inputs": [
        {
          "name": "",
          "type": "address"
        },
        {
          "name": "",
          "type": "uint256"
        }
      ],
      "name": "myEvents",
      "outputs": [
        {
          "name": "",
          "type": "uint256"
        }
      ],
      "payable": false,
      "stateMutability": "view",
      "type": "function"
    },
    {
      "constant": true,
      "inputs": [],
      "name": "paused",
      "outputs": [
        {
          "name": "",
          "type": "bool"
        }
      ],
      "payable": false,
      "stateMutability": "view",
      "type": "function"
    },
    {
      "constant": false,
      "inputs": [],
      "name": "pause",
      "outputs": [],
      "payable": false,
      "stateMutability": "nonpayable",
      "type": "function"
    },
    {
      "constant": true,
      "inputs": [],
      "name": "owner",
      "outputs": [
        {
          "name": "",
          "type": "address"
        }
      ],
      "payable": false,
      "stateMutability": "view",
      "type": "function"
    },
    {
      "constant": true,
      "inputs": [
        {
          "name": "",
          "type": "uint256"
        }
      ],
      "name": "eventIds",
      "outputs": [
        {
          "name": "",
          "type": "uint256"
        }
      ],
      "payable": false,
      "stateMutability": "view",
      "type": "function"
    },
    {
      "constant": true,
      "inputs": [],
      "name": "proposedOwner",
      "outputs": [
        {
          "name": "",
          "type": "address"
        }
      ],
      "payable": false,
      "stateMutability": "view",
      "type": "function"
    },
    {
      "constant": false,
      "inputs": [
        {
          "name": "_proposedOwner",
          "type": "address"
        }
      ],
      "name": "transferOwnership",
      "outputs": [],
      "payable": false,
      "stateMutability": "nonpayable",
      "type": "function"
    },
    {
      "inputs": [],
      "payable": false,
      "stateMutability": "nonpayable",
      "type": "constructor"
    },
    {
      "anonymous": false,
      "inputs": [
        {
          "indexed": true,
          "name": "id",
          "type": "uint256"
        },
        {
          "indexed": true,
          "name": "name",
          "type": "string"
        }
      ],
      "name": "CreateEvent",
      "type": "event"
    },
    {
      "anonymous": false,
      "inputs": [
        {
          "indexed": true,
          "name": "id",
          "type": "uint256"
        },
        {
          "indexed": true,
          "name": "resultSpaceId",
          "type": "uint256"
        },
        {
          "indexed": false,
          "name": "fractionAmount",
          "type": "uint256"
        },
        {
          "indexed": false,
          "name": "fractionCost",
          "type": "uint256"
        },
        {
          "indexed": true,
          "name": "buyer",
          "type": "address"
        }
      ],
      "name": "BuyEvent",
      "type": "event"
    },
    {
      "anonymous": false,
      "inputs": [
        {
          "indexed": true,
          "name": "id",
          "type": "uint256"
        },
        {
          "indexed": true,
          "name": "resultSpaceId",
          "type": "uint256"
        }
      ],
      "name": "CloseEvent",
      "type": "event"
    },
    {
      "anonymous": false,
      "inputs": [
        {
          "indexed": true,
          "name": "id",
          "type": "uint256"
        },
        {
          "indexed": false,
          "name": "winAmount",
          "type": "uint256"
        },
        {
          "indexed": true,
          "name": "buyer",
          "type": "address"
        }
      ],
      "name": "WithdrawEvent",
      "type": "event"
    },
    {
      "anonymous": false,
      "inputs": [
        {
          "indexed": true,
          "name": "id",
          "type": "uint256"
        },
        {
          "indexed": false,
          "name": "liquidateAmount",
          "type": "uint256"
        },
        {
          "indexed": true,
          "name": "seller",
          "type": "address"
        }
      ],
      "name": "SellEvent",
      "type": "event"
    },
    {
      "anonymous": false,
      "inputs": [],
      "name": "Pause",
      "type": "event"
    },
    {
      "anonymous": false,
      "inputs": [],
      "name": "Unpause",
      "type": "event"
    },
    {
      "anonymous": false,
      "inputs": [
        {
          "indexed": true,
          "name": "previousOwner",
          "type": "address"
        },
        {
          "indexed": true,
          "name": "newOwner",
          "type": "address"
        }
      ],
      "name": "OwnershipTransferred",
      "type": "event"
    },
    {
      "constant": false,
      "inputs": [
        {
          "name": "_eventId",
          "type": "uint256"
        }
      ],
      "name": "isEventOpen",
      "outputs": [
        {
          "name": "success",
          "type": "bool"
        }
      ],
      "payable": false,
      "stateMutability": "nonpayable",
      "type": "function"
    },
    {
      "constant": false,
      "inputs": [
        {
          "name": "_eventId",
          "type": "uint256"
        }
      ],
      "name": "isEventClosed",
      "outputs": [
        {
          "name": "success",
          "type": "bool"
        }
      ],
      "payable": false,
      "stateMutability": "nonpayable",
      "type": "function"
    },
    {
      "constant": false,
      "inputs": [
        {
          "name": "_resultSpaceIds",
          "type": "uint256[]"
        },
        {
          "name": "_urlOracle",
          "type": "string"
        },
        {
          "name": "_eventName",
          "type": "string"
        }
      ],
      "name": "createEvent",
      "outputs": [
        {
          "name": "success",
          "type": "bool"
        }
      ],
      "payable": true,
      "stateMutability": "payable",
      "type": "function"
    },
    {
      "constant": false,
      "inputs": [
        {
          "name": "_eventId",
          "type": "uint256"
        }
      ],
      "name": "addLiquidity",
      "outputs": [
        {
          "name": "success",
          "type": "bool"
        }
      ],
      "payable": true,
      "stateMutability": "payable",
      "type": "function"
    },
    {
      "constant": false,
      "inputs": [
        {
          "name": "_eventId",
          "type": "uint256"
        }
      ],
      "name": "removeLiquidity",
      "outputs": [
        {
          "name": "success",
          "type": "bool"
        }
      ],
      "payable": false,
      "stateMutability": "nonpayable",
      "type": "function"
    },
    {
      "constant": false,
      "inputs": [
        {
          "name": "_eventId",
          "type": "uint256"
        },
        {
          "name": "_resultSpaceId",
          "type": "uint256"
        },
        {
          "name": "_fractionsAmount",
          "type": "uint256"
        }
      ],
      "name": "buy",
      "outputs": [
        {
          "name": "success",
          "type": "bool"
        }
      ],
      "payable": true,
      "stateMutability": "payable",
      "type": "function"
    },
    {
      "constant": false,
      "inputs": [
        {
          "name": "_eventId",
          "type": "uint256"
        },
        {
          "name": "_resultSpaceId",
          "type": "uint256"
        },
        {
          "name": "_fractionsAmount",
          "type": "uint256"
        }
      ],
      "name": "sell",
      "outputs": [
        {
          "name": "success",
          "type": "bool"
        }
      ],
      "payable": false,
      "stateMutability": "nonpayable",
      "type": "function"
    },
    {
      "constant": true,
      "inputs": [
        {
          "name": "_eventId",
          "type": "uint256"
        },
        {
          "name": "_resultSpaceId",
          "type": "uint256"
        },
        {
          "name": "_fractionsAmount",
          "type": "uint256"
        }
      ],
      "name": "getSlipageOnSell",
      "outputs": [
        {
          "name": "slipage",
          "type": "uint256"
        }
      ],
      "payable": false,
      "stateMutability": "view",
      "type": "function"
    },
    {
      "constant": true,
      "inputs": [
        {
          "name": "_eventId",
          "type": "uint256"
        },
        {
          "name": "_resultSpaceId",
          "type": "uint256"
        },
        {
          "name": "_fractionsAmount",
          "type": "uint256"
        }
      ],
      "name": "getSlipageOnBuy",
      "outputs": [
        {
          "name": "slipage",
          "type": "uint256"
        }
      ],
      "payable": false,
      "stateMutability": "view",
      "type": "function"
    },
    {
      "constant": true,
      "inputs": [
        {
          "name": "_eventId",
          "type": "uint256"
        },
        {
          "name": "_resultSpaceId",
          "type": "uint256"
        },
        {
          "name": "_fractionsAmount",
          "type": "uint256"
        }
      ],
      "name": "getFractionsCost",
      "outputs": [
        {
          "name": "",
          "type": "uint256"
        }
      ],
      "payable": false,
      "stateMutability": "view",
      "type": "function"
    },
    {
      "constant": false,
      "inputs": [
        {
          "name": "_eventId",
          "type": "uint256"
        },
        {
          "name": "_resultSpaceId",
          "type": "uint256"
        },
        {
          "name": "_fractionsAmount",
          "type": "uint256"
        }
      ],
      "name": "pullFractions",
      "outputs": [
        {
          "name": "success",
          "type": "bool"
        }
      ],
      "payable": false,
      "stateMutability": "nonpayable",
      "type": "function"
    },
    {
      "constant": false,
      "inputs": [
        {
          "name": "_eventId",
          "type": "uint256"
        },
        {
          "name": "_resultSpaceId",
          "type": "uint256"
        },
        {
          "name": "_fractionsAmount",
          "type": "uint256"
        }
      ],
      "name": "pushFractions",
      "outputs": [
        {
          "name": "success",
          "type": "bool"
        }
      ],
      "payable": false,
      "stateMutability": "nonpayable",
      "type": "function"
    },
    {
      "constant": false,
      "inputs": [
        {
          "name": "_eventId",
          "type": "uint256"
        },
        {
          "name": "_resultId",
          "type": "uint256"
        }
      ],
      "name": "resolveEvent",
      "outputs": [
        {
          "name": "success",
          "type": "bool"
        }
      ],
      "payable": false,
      "stateMutability": "nonpayable",
      "type": "function"
    },
    {
      "constant": false,
      "inputs": [
        {
          "name": "_eventId",
          "type": "uint256"
        },
        {
          "name": "_resultSpaceId",
          "type": "uint256"
        }
      ],
      "name": "withdrawWins",
      "outputs": [
        {
          "name": "success",
          "type": "bool"
        }
      ],
      "payable": false,
      "stateMutability": "nonpayable",
      "type": "function"
    },
    {
      "constant": true,
      "inputs": [],
      "name": "getEvents",
      "outputs": [
        {
          "name": "event_ids",
          "type": "uint256[]"
        }
      ],
      "payable": false,
      "stateMutability": "view",
      "type": "function"
    },
    {
      "constant": true,
      "inputs": [
        {
          "name": "_eventId",
          "type": "uint256"
        }
      ],
      "name": "getEventData",
      "outputs": [
        {
          "name": "",
          "type": "string"
        },
        {
          "name": "",
          "type": "uint256"
        },
        {
          "name": "",
          "type": "string"
        },
        {
          "name": "",
          "type": "bool"
        }
      ],
      "payable": false,
      "stateMutability": "view",
      "type": "function"
    },
    {
      "constant": true,
      "inputs": [
        {
          "name": "_eventId",
          "type": "uint256"
        },
        {
          "name": "resultSpace_id",
          "type": "uint256"
        }
      ],
      "name": "getResultSpaceData",
      "outputs": [
        {
          "name": "_id",
          "type": "uint256"
        },
        {
          "name": "_resultId",
          "type": "uint256"
        },
        {
          "name": "_pool",
          "type": "uint256"
        },
        {
          "name": "_cost",
          "type": "uint256"
        },
        {
          "name": "_odd",
          "type": "uint256"
        },
        {
          "name": "_amount",
          "type": "uint256"
        },
        {
          "name": "_in",
          "type": "uint256"
        },
        {
          "name": "_out",
          "type": "uint256"
        },
        {
          "name": "_fees",
          "type": "uint256"
        },
        {
          "name": "_liqAmount",
          "type": "uint256"
        }
      ],
      "payable": false,
      "stateMutability": "view",
      "type": "function"
    },
    {
      "constant": true,
      "inputs": [],
      "name": "getMyEvents",
      "outputs": [
        {
          "name": "",
          "type": "uint256[]"
        }
      ],
      "payable": false,
      "stateMutability": "view",
      "type": "function"
    },
    {
      "constant": true,
      "inputs": [
        {
          "name": "_eventId",
          "type": "uint256"
        }
      ],
      "name": "getMyEventHoldings",
      "outputs": [
        {
          "name": "",
          "type": "uint256"
        },
        {
          "name": "",
          "type": "uint256"
        },
        {
          "name": "",
          "type": "uint256"
        },
        {
          "name": "",
          "type": "uint256"
        },
        {
          "name": "",
          "type": "uint256"
        },
        {
          "name": "",
          "type": "uint256"
        }
      ],
      "payable": false,
      "stateMutability": "view",
      "type": "function"
    },
    {
      "constant": false,
      "inputs": [
        {
          "name": "_tokenAddress",
          "type": "address"
        },
        {
          "name": "_to",
          "type": "address"
        }
      ],
      "name": "removeOtherERC20Tokens",
      "outputs": [],
      "payable": false,
      "stateMutability": "nonpayable",
      "type": "function"
    }
  ],
  "bytecode": "0x60806040526000600160146101000a81548160ff02191690831515021790555060006002556127106003556298968060045534801561003d57600080fd5b50336000806101000a81548173ffffffffffffffffffffffffffffffffffffffff021916908373ffffffffffffffffffffffffffffffffffffffff1602179055506156df806200008e6000396000f3fe6080604052600436106101ee5760003560e01c806370f7ae951161010d578063a8c776a1116100a0578063d153b60c1161006f578063d153b60c14610e3c578063d3c9727c14610e93578063e13a7d1114610efa578063e682e9ad14610f5d578063f2fde38b14610fba576101ee565b8063a8c776a114610c77578063ad5145af14610cda578063bf3edf7e14610d72578063cccbcc7c14610dd5576101ee565b8063998f6ac0116100dc578063998f6ac014610b1b5780639c8f9f2314610b6a5780639d9bbde714610bbd578063a25e6ab214610c24576101ee565b806370f7ae95146109e95780638456cb5914610a3c5780638da5cb5b14610a53578063917c854d14610aaa576101ee565b806340993b261161018557806351c6590a1161015457806351c6590a1461071957806354549f961461075f5780635c975abb1461095d57806364f664671461098c576101ee565b806340993b26146105075780634392bb68146105615780634e71e0c81461069357806350968657146106aa576101ee565b8063262f92d2116101c1578063262f92d2146103ed5780633548124b146104185780633f4ba83a14610484578063404aa8f91461049b576101ee565b806308888c0a146101f3578063089cdd0c1461021e5780630b7914301461024957806321c3c4be1461037b575b600080fd5b3480156101ff57600080fd5b5061020861100b565b6040518082815260200191505060405180910390f35b34801561022a57600080fd5b50610233611011565b6040518082815260200191505060405180910390f35b34801561025557600080fd5b506102826004803603602081101561026c57600080fd5b8101908080359060200190929190505050611017565b60405180806020018581526020018060200184151515158152602001838103835287818151815260200191508051906020019080838360005b838110156102d65780820151818401526020810190506102bb565b50505050905090810190601f1680156103035780820380516001836020036101000a031916815260200191505b50838103825285818151815260200191508051906020019080838360005b8381101561033c578082015181840152602081019050610321565b50505050905090810190601f1680156103695780820380516001836020036101000a031916815260200191505b50965050505050505060405180910390f35b34801561038757600080fd5b506103b46004803603602081101561039e57600080fd5b8101908080359060200190929190505050611184565b60405180878152602001868152602001858152602001848152602001838152602001828152602001965050505050505060405180910390f35b3480156103f957600080fd5b5061040261139a565b6040518082815260200191505060405180910390f35b34801561042457600080fd5b5061042d6113a0565b6040518080602001828103825283818151815260200191508051906020019060200280838360005b83811015610470578082015181840152602081019050610455565b505050509050019250505060405180910390f35b34801561049057600080fd5b50610499611435565b005b3480156104a757600080fd5b506104b06115c2565b6040518080602001828103825283818151815260200191508051906020019060200280838360005b838110156104f35780820151818401526020810190506104d8565b505050509050019250505060405180910390f35b6105476004803603606081101561051d57600080fd5b8101908080359060200190929190803590602001909291908035906020019092919050505061161a565b604051808215151515815260200191505060405180910390f35b34801561056d57600080fd5b5061059a6004803603602081101561058457600080fd5b8101908080359060200190929190505050611aa0565b60405180806020018581526020018060200184151515158152602001838103835287818151815260200191508051906020019080838360005b838110156105ee5780820151818401526020810190506105d3565b50505050905090810190601f16801561061b5780820380516001836020036101000a031916815260200191505b50838103825285818151815260200191508051906020019080838360005b83811015610654578082015181840152602081019050610639565b50505050905090810190601f1680156106815780820380516001836020036101000a031916815260200191505b50965050505050505060405180910390f35b34801561069f57600080fd5b506106a8611c63565b005b3480156106b657600080fd5b50610703600480360360408110156106cd57600080fd5b81019080803573ffffffffffffffffffffffffffffffffffffffff16906020019092919080359060200190929190505050611e69565b6040518082815260200191505060405180910390f35b6107456004803603602081101561072f57600080fd5b8101908080359060200190929190505050611e97565b604051808215151515815260200191505060405180910390f35b6109436004803603606081101561077557600080fd5b810190808035906020019064010000000081111561079257600080fd5b8201836020820111156107a457600080fd5b803590602001918460208302840111640100000000831117156107c657600080fd5b919080806020026020016040519081016040528093929190818152602001838360200280828437600081840152601f19601f8201169050808301925050505050505091929192908035906020019064010000000081111561082657600080fd5b82018360208201111561083857600080fd5b8035906020019184600183028401116401000000008311171561085a57600080fd5b91908080601f016020809104026020016040519081016040528093929190818152602001838380828437600081840152601f19601f820116905080830192505050505050509192919290803590602001906401000000008111156108bd57600080fd5b8201836020820111156108cf57600080fd5b803590602001918460018302840111640100000000831117156108f157600080fd5b91908080601f016020809104026020016040519081016040528093929190818152602001838380828437600081840152601f19601f820116905080830192505050505050509192919290505050612560565b604051808215151515815260200191505060405180910390f35b34801561096957600080fd5b506109726129ad565b604051808215151515815260200191505060405180910390f35b34801561099857600080fd5b506109cf600480360360408110156109af57600080fd5b8101908080359060200190929190803590602001909291905050506129c0565b604051808215151515815260200191505060405180910390f35b3480156109f557600080fd5b50610a2260048036036020811015610a0c57600080fd5b8101908080359060200190929190505050612b2d565b604051808215151515815260200191505060405180910390f35b348015610a4857600080fd5b50610a51612b61565b005b348015610a5f57600080fd5b50610a68612cee565b604051808273ffffffffffffffffffffffffffffffffffffffff1673ffffffffffffffffffffffffffffffffffffffff16815260200191505060405180910390f35b348015610ab657600080fd5b50610b1960048036036040811015610acd57600080fd5b81019080803573ffffffffffffffffffffffffffffffffffffffff169060200190929190803573ffffffffffffffffffffffffffffffffffffffff169060200190929190505050612d13565b005b348015610b2757600080fd5b50610b5460048036036020811015610b3e57600080fd5b8101908080359060200190929190505050612f59565b6040518082815260200191505060405180910390f35b348015610b7657600080fd5b50610ba360048036036020811015610b8d57600080fd5b8101908080359060200190929190505050612f7a565b604051808215151515815260200191505060405180910390f35b348015610bc957600080fd5b50610c0a60048036036060811015610be057600080fd5b81019080803590602001909291908035906020019092919080359060200190929190505050613949565b604051808215151515815260200191505060405180910390f35b348015610c3057600080fd5b50610c5d60048036036020811015610c4757600080fd5b8101908080359060200190929190505050613cb5565b604051808215151515815260200191505060405180910390f35b348015610c8357600080fd5b50610cc460048036036060811015610c9a57600080fd5b81019080803590602001909291908035906020019092919080359060200190929190505050613ce8565b6040518082815260200191505060405180910390f35b348015610ce657600080fd5b50610d1d60048036036040811015610cfd57600080fd5b810190808035906020019092919080359060200190929190505050613e2d565b604051808b81526020018a81526020018981526020018881526020018781526020018681526020018581526020018481526020018381526020018281526020019a505050505050505050505060405180910390f35b348015610d7e57600080fd5b50610dbf60048036036060811015610d9557600080fd5b81019080803590602001909291908035906020019092919080359060200190929190505050613f7d565b6040518082815260200191505060405180910390f35b348015610de157600080fd5b50610e2260048036036060811015610df857600080fd5b8101908080359060200190929190803590602001909291908035906020019092919050505061406d565b604051808215151515815260200191505060405180910390f35b348015610e4857600080fd5b50610e516144ad565b604051808273ffffffffffffffffffffffffffffffffffffffff1673ffffffffffffffffffffffffffffffffffffffff16815260200191505060405180910390f35b348015610e9f57600080fd5b50610ee060048036036060811015610eb657600080fd5b810190808035906020019092919080359060200190929190803590602001909291905050506144d3565b604051808215151515815260200191505060405180910390f35b348015610f0657600080fd5b50610f4760048036036060811015610f1d57600080fd5b81019080803590602001909291908035906020019092919080359060200190929190505050614a1a565b6040518082815260200191505060405180910390f35b348015610f6957600080fd5b50610fa060048036036040811015610f8057600080fd5b810190808035906020019092919080359060200190929190505050614b5f565b604051808215151515815260200191505060405180910390f35b348015610fc657600080fd5b5061100960048036036020811015610fdd57600080fd5b81019080803573ffffffffffffffffffffffffffffffffffffffff169060200190929190505050614fe1565b005b60035481565b60025481565b6006602052806000526040600020600091509050806000018054600181600116156101000203166002900480601f0160208091040260200160405190810160405280929190818152602001828054600181600116156101000203166002900480156110c35780601f10611098576101008083540402835291602001916110c3565b820191906000526020600020905b8154815290600101906020018083116110a657829003601f168201915b505050505090806002015490806003018054600181600116156101000203166002900480601f0160208091040260200160405190810160405280929190818152602001828054600181600116156101000203166002900480156111675780601f1061113c57610100808354040283529160200191611167565b820191906000526020600020905b81548152906001019060200180831161114a57829003601f168201915b5050505050908060040160009054906101000a900460ff16905084565b60008060008060008060006006600089815260200190815260200160002060010160006001815260200190815260200160002090506000600660008a815260200190815260200160002060010160006002815260200190815260200160002090508160020160060160003373ffffffffffffffffffffffffffffffffffffffff1673ffffffffffffffffffffffffffffffffffffffff168152602001908152602001600020548260020160090160003373ffffffffffffffffffffffffffffffffffffffff1673ffffffffffffffffffffffffffffffffffffffff1681526020019081526020016000205483600201600c0160003373ffffffffffffffffffffffffffffffffffffffff1673ffffffffffffffffffffffffffffffffffffffff168152602001908152602001600020548360020160060160003373ffffffffffffffffffffffffffffffffffffffff1673ffffffffffffffffffffffffffffffffffffffff168152602001908152602001600020548460020160090160003373ffffffffffffffffffffffffffffffffffffffff1673ffffffffffffffffffffffffffffffffffffffff1681526020019081526020016000205485600201600c0160003373ffffffffffffffffffffffffffffffffffffffff1673ffffffffffffffffffffffffffffffffffffffff16815260200190815260200160002054975097509750975097509750505091939550919395565b60045481565b6060600760003373ffffffffffffffffffffffffffffffffffffffff1673ffffffffffffffffffffffffffffffffffffffff16815260200190815260200160002080548060200260200160405190810160405280929190818152602001828054801561142b57602002820191906000526020600020905b815481526020019060010190808311611417575b5050505050905090565b6000809054906101000a900473ffffffffffffffffffffffffffffffffffffffff1673ffffffffffffffffffffffffffffffffffffffff163373ffffffffffffffffffffffffffffffffffffffff16146114f7576040517f08c379a000000000000000000000000000000000000000000000000000000000815260040180806020018281038252600f8152602001807f48617320746f206265206f776e6572000000000000000000000000000000000081525060200191505060405180910390fd5b600160149054906101000a900460ff16611579576040517f08c379a00000000000000000000000000000000000000000000000000000000081526004018080602001828103825260108152602001807f48617320746f206265207061757365640000000000000000000000000000000081525060200191505060405180910390fd5b6000600160146101000a81548160ff0219169083151502179055507f7805862f689e2f13df9f062ff482ad3ad112aca9e0847911ed832e158c525b3360405160405180910390a1565b6060600580548060200260200160405190810160405280929190818152602001828054801561161057602002820191906000526020600020905b8154815260200190600101908083116115fc575b5050505050905090565b600061162584613cb5565b61162e57600080fd5b600082116116a4576040517f08c379a00000000000000000000000000000000000000000000000000000000081526004018080602001828103825260148152602001807f416d6f756e742068617320746f206265203e203000000000000000000000000081525060200191505060405180910390fd5b60006001905060018414156116b857600290505b6000600660008781526020019081526020016000206001016000838152602001908152602001600020905060006006600088815260200190815260200160002060010160008781526020019081526020016000209050600061171b888888613f7d565b905060008260020160010154905060006117368a8a8a613ce8565b9050600381106117ae576040517f08c379a000000000000000000000000000000000000000000000000000000000815260040180806020018281038252601d8152602001807f536c69706167652068617320746f206265206c657373207468616e203300000081525060200191505060405180910390fd5b823414611806576040517f08c379a000000000000000000000000000000000000000000000000000000000815260040180806020018281038252602881526020018061566b6028913960400191505060405180910390fd5b61182083856002016000015461516c90919063ffffffff16565b8460020160000181905550611860846002016000015461185260035488600201600001546151f490919063ffffffff16565b61527a90919063ffffffff16565b6003546001020184600201600201819055506118a7856002016000015461189960035487600201600001546151f490919063ffffffff16565b61527a90919063ffffffff16565b6003546001020185600201600201819055506118da8460020160030154856002016000015461527a90919063ffffffff16565b84600201600101819055506119068560020160030154866002016000015461527a90919063ffffffff16565b8560020160010181905550600088905060008560020160050154111561195f5761195c61194386600201600501548561527a90919063ffffffff16565b600103866002016005015461527a90919063ffffffff16565b90505b6119798560020160050154826152c490919063ffffffff16565b8560020160060160003373ffffffffffffffffffffffffffffffffffffffff1673ffffffffffffffffffffffffffffffffffffffff16815260200190815260200160002081905550808560020160050181905550600760003373ffffffffffffffffffffffffffffffffffffffff1673ffffffffffffffffffffffffffffffffffffffff1681526020019081526020016000208b90806001815401808255809150509060018203906000526020600020016000909192909190915055503373ffffffffffffffffffffffffffffffffffffffff168a8c7f09128000766ebce884c5ac8e461927d01432ce7f518e74a16b4606728d2c01618c87604051808381526020018281526020019250505060405180910390a460019750505050505050509392505050565b6060600060606000611ab0615494565b60066000878152602001908152602001600020604051806080016040529081600082018054600181600116156101000203166002900480601f016020809104026020016040519081016040528092919081815260200182805460018160011615610100020316600290048015611b675780601f10611b3c57610100808354040283529160200191611b67565b820191906000526020600020905b815481529060010190602001808311611b4a57829003601f168201915b5050505050815260200160028201548152602001600382018054600181600116156101000203166002900480601f016020809104026020016040519081016040528092919081815260200182805460018160011615610100020316600290048015611c135780601f10611be857610100808354040283529160200191611c13565b820191906000526020600020905b815481529060010190602001808311611bf657829003601f168201915b505050505081526020016004820160009054906101000a900460ff161515151581525050905080600001518160200151826040015183606001518393508191509450945094509450509193509193565b600160009054906101000a900473ffffffffffffffffffffffffffffffffffffffff1673ffffffffffffffffffffffffffffffffffffffff163373ffffffffffffffffffffffffffffffffffffffff1614611d26576040517f08c379a000000000000000000000000000000000000000000000000000000000815260040180806020018281038252601c8152602001807f48617320746f206265207468652070726f706f736564206f776e65720000000081525060200191505060405180910390fd5b600160009054906101000a900473ffffffffffffffffffffffffffffffffffffffff1673ffffffffffffffffffffffffffffffffffffffff166000809054906101000a900473ffffffffffffffffffffffffffffffffffffffff1673ffffffffffffffffffffffffffffffffffffffff167f8be0079c531659141344cd1fd0a4f28419497f9722a3daafe3b4186f6b6457e060405160405180910390a3600160009054906101000a900473ffffffffffffffffffffffffffffffffffffffff166000806101000a81548173ffffffffffffffffffffffffffffffffffffffff021916908373ffffffffffffffffffffffffffffffffffffffff1602179055506000600160006101000a81548173ffffffffffffffffffffffffffffffffffffffff021916908373ffffffffffffffffffffffffffffffffffffffff160217905550565b60076020528160005260406000208181548110611e8257fe5b90600052602060002001600091509150505481565b6000611ea282613cb5565b611eab57600080fd5b60003411611f21576040517f08c379a00000000000000000000000000000000000000000000000000000000081526004018080602001828103825260148152602001807f416d6f756e742068617320746f206265203e203000000000000000000000000081525060200191505060405180910390fd5b600060066000848152602001908152602001600020600101600060018152602001908152602001600020905060006006600085815260200190815260200160002060010160006002815260200190815260200160002090506000809050600080905060008090506000809050600060329050611fd2611fbc6064611fae84346151f490919063ffffffff16565b61527a90919063ffffffff16565b876002016000015461516c90919063ffffffff16565b9450612013611ffd6064611fef84346151f490919063ffffffff16565b61527a90919063ffffffff16565b886002016000015461516c90919063ffffffff16565b9350612048866002016000015461203a8860020160030154886151f490919063ffffffff16565b61527a90919063ffffffff16565b925061207d876002016000015461206f8960020160030154876151f490919063ffffffff16565b61527a90919063ffffffff16565b915084866002016000018190555083876002016000018190555060006120b38760020160030154856152c490919063ffffffff16565b905060006120d18960020160030154856152c490919063ffffffff16565b905060006120ef838a6002016004015461516c90919063ffffffff16565b9050600061210d838c6002016004015461516c90919063ffffffff16565b90506000849050600084905060008c60020160050154111561215f5761215c8c6002016004015461214e8e60020160050154876151f490919063ffffffff16565b61527a90919063ffffffff16565b91505b60008d6002016005015411156121a5576121a28d600201600401546121948f60020160050154866151f490919063ffffffff16565b61527a90919063ffffffff16565b90505b838c60020160040181905550828d6002016004018190555061222d6121da8d60020160050154846152c490919063ffffffff16565b8d60020160060160003373ffffffffffffffffffffffffffffffffffffffff1673ffffffffffffffffffffffffffffffffffffffff1681526020019081526020016000205461516c90919063ffffffff16565b8c60020160060160003373ffffffffffffffffffffffffffffffffffffffff1673ffffffffffffffffffffffffffffffffffffffff168152602001908152602001600020819055506122e56122928e60020160050154836152c490919063ffffffff16565b8e60020160060160003373ffffffffffffffffffffffffffffffffffffffff1673ffffffffffffffffffffffffffffffffffffffff1681526020019081526020016000205461516c90919063ffffffff16565b8d60020160060160003373ffffffffffffffffffffffffffffffffffffffff1673ffffffffffffffffffffffffffffffffffffffff16815260200190815260200160002081905550612384868d600201600c0160003373ffffffffffffffffffffffffffffffffffffffff1673ffffffffffffffffffffffffffffffffffffffff1681526020019081526020016000205461516c90919063ffffffff16565b8c600201600c0160003373ffffffffffffffffffffffffffffffffffffffff1673ffffffffffffffffffffffffffffffffffffffff16815260200190815260200160002081905550612423858e600201600c0160003373ffffffffffffffffffffffffffffffffffffffff1673ffffffffffffffffffffffffffffffffffffffff1681526020019081526020016000205461516c90919063ffffffff16565b8d600201600c0160003373ffffffffffffffffffffffffffffffffffffffff1673ffffffffffffffffffffffffffffffffffffffff16815260200190815260200160002081905550818c60020160050181905550808d60020160050181905550888c60020160030181905550878d600201600301819055506124b5868d600201600b015461516c90919063ffffffff16565b8c600201600b01819055506124da858d600201600b015461516c90919063ffffffff16565b8d600201600b0181905550600760003373ffffffffffffffffffffffffffffffffffffffff1673ffffffffffffffffffffffffffffffffffffffff1681526020019081526020016000208f908060018154018082558091505090600182039060005260206000200160009091929091909150555050505050505050505050505050919050565b60008060009054906101000a900473ffffffffffffffffffffffffffffffffffffffff1673ffffffffffffffffffffffffffffffffffffffff163373ffffffffffffffffffffffffffffffffffffffff1614612624576040517f08c379a000000000000000000000000000000000000000000000000000000000815260040180806020018281038252600f8152602001807f48617320746f206265206f776e6572000000000000000000000000000000000081525060200191505060405180910390fd5b600284511461269b576040517f08c379a000000000000000000000000000000000000000000000000000000000815260040180806020018281038252601b8152602001807f526573756c7420537061636573206e65656420746f206265203220000000000081525060200191505060405180910390fd5b6000600190506000600454606402905060006126d3826126c589513461527a90919063ffffffff16565b61527a90919063ffffffff16565b90506000811161272e576040517f08c379a00000000000000000000000000000000000000000000000000000000081526004018080602001828103825260238152602001806156486023913960400191505060405180910390fd5b600060066000600254815260200190815260200160002090508581600001908051906020019061275f9291906154be565b50868160030190805190602001906127789291906154be565b5060008160040160006101000a81548160ff02191690831515021790555060008090505b88518110156128d357600082600101600087815260200190815260200160002090508581600101819055508982815181106127d357fe5b6020026020010151816000018190555060008160020190506127ff8b513461527a90919063ffffffff16565b81600001819055508481600101819055506003548b510281600201819055508581600301819055508581600401819055508581600501819055506000816007018190555060008160080181905550600081600a0181905550600081600b01819055506001870196508584600101600089815260200190815260200160002060020160060160003073ffffffffffffffffffffffffffffffffffffffff1673ffffffffffffffffffffffffffffffffffffffff168152602001908152602001600020819055505050808060010191505061279c565b5060056002549080600181540180825580915050906001820390600052602060002001600090919290919091505550856040518082805190602001908083835b602083106129365780518252602082019150602081019050602083039250612913565b6001836020036101000a03801982511681845116808217855250505050505090500191505060405180910390206002547f8b7268e8dbd7df43241ab8ae5931d26060053d65b418b03db1e68394dcfcb4cd60405160405180910390a360016002540160028190555060019450505050509392505050565b600160149054906101000a900460ff1681565b60008060009054906101000a900473ffffffffffffffffffffffffffffffffffffffff1673ffffffffffffffffffffffffffffffffffffffff163373ffffffffffffffffffffffffffffffffffffffff1614612a84576040517f08c379a000000000000000000000000000000000000000000000000000000000815260040180806020018281038252600f8152602001807f48617320746f206265206f776e6572000000000000000000000000000000000081525060200191505060405180910390fd5b612a8d83613cb5565b612a9657600080fd5b600082118015612aa65750600382105b612aaf57600080fd5b81600660008581526020019081526020016000206002018190555060016006600085815260200190815260200160002060040160006101000a81548160ff02191690831515021790555081837f64e412f8b311be0c82113c299c4caf4b603bab21860146dae45a259bdb7cd36760405160405180910390a392915050565b6000600115156006600084815260200190815260200160002060040160009054906101000a900460ff161515149050919050565b6000809054906101000a900473ffffffffffffffffffffffffffffffffffffffff1673ffffffffffffffffffffffffffffffffffffffff163373ffffffffffffffffffffffffffffffffffffffff1614612c23576040517f08c379a000000000000000000000000000000000000000000000000000000000815260040180806020018281038252600f8152602001807f48617320746f206265206f776e6572000000000000000000000000000000000081525060200191505060405180910390fd5b600160149054906101000a900460ff1615612ca6576040517f08c379a00000000000000000000000000000000000000000000000000000000081526004018080602001828103825260128152602001807f48617320746f20626520756e706175736564000000000000000000000000000081525060200191505060405180910390fd5b60018060146101000a81548160ff0219169083151502179055507f6985a02210a168e66602d3235cb6db0e70f92b3ba4d376a33c0f3d9434bff62560405160405180910390a1565b6000809054906101000a900473ffffffffffffffffffffffffffffffffffffffff1681565b6000809054906101000a900473ffffffffffffffffffffffffffffffffffffffff1673ffffffffffffffffffffffffffffffffffffffff163373ffffffffffffffffffffffffffffffffffffffff1614612dd5576040517f08c379a000000000000000000000000000000000000000000000000000000000815260040180806020018281038252600f8152602001807f48617320746f206265206f776e6572000000000000000000000000000000000081525060200191505060405180910390fd5b60008290508073ffffffffffffffffffffffffffffffffffffffff1663a9059cbb838373ffffffffffffffffffffffffffffffffffffffff166370a08231306040518263ffffffff1660e01b8152600401808273ffffffffffffffffffffffffffffffffffffffff1673ffffffffffffffffffffffffffffffffffffffff16815260200191505060206040518083038186803b158015612e7457600080fd5b505afa158015612e88573d6000803e3d6000fd5b505050506040513d6020811015612e9e57600080fd5b81019080805190602001909291905050506040518363ffffffff1660e01b8152600401808373ffffffffffffffffffffffffffffffffffffffff1673ffffffffffffffffffffffffffffffffffffffff16815260200182815260200192505050602060405180830381600087803b158015612f1857600080fd5b505af1158015612f2c573d6000803e3d6000fd5b505050506040513d6020811015612f4257600080fd5b810190808051906020019092919050505050505050565b60058181548110612f6657fe5b906000526020600020016000915090505481565b6000806006600084815260200190815260200160002060010160006001815260200190815260200160002090506000600660008581526020019081526020016000206001016000600281526020019081526020016000209050600081600201600c0160003373ffffffffffffffffffffffffffffffffffffffff1673ffffffffffffffffffffffffffffffffffffffff168152602001908152602001600020541161308d576040517f08c379a000000000000000000000000000000000000000000000000000000000815260040180806020018281038252601e8152602001807f4c69717569646974792068617320746f20626967676572207468616e2030000081525060200191505060405180910390fd5b600082600201600c0160003373ffffffffffffffffffffffffffffffffffffffff1673ffffffffffffffffffffffffffffffffffffffff1681526020019081526020016000205411613147576040517f08c379a000000000000000000000000000000000000000000000000000000000815260040180806020018281038252601e8152602001807f4c69717569646974792068617320746f20626967676572207468616e2030000081525060200191505060405180910390fd5b6000809050600080905060006131ca84600201600301546131bc866002016000015487600201600c0160003373ffffffffffffffffffffffffffffffffffffffff1673ffffffffffffffffffffffffffffffffffffffff168152602001908152602001600020546151f490919063ffffffff16565b61527a90919063ffffffff16565b905060006132458660020160030154613237886002016000015489600201600c0160003373ffffffffffffffffffffffffffffffffffffffff1673ffffffffffffffffffffffffffffffffffffffff168152602001908152602001600020546151f490919063ffffffff16565b61527a90919063ffffffff16565b90506132618286600201600001546152c490919063ffffffff16565b85600201600001819055506132868187600201600001546152c490919063ffffffff16565b86600201600001819055506132ef85600201600c0160003373ffffffffffffffffffffffffffffffffffffffff1673ffffffffffffffffffffffffffffffffffffffff1681526020019081526020016000205486600201600301546152c490919063ffffffff16565b856002016003018190555061335886600201600c0160003373ffffffffffffffffffffffffffffffffffffffff1673ffffffffffffffffffffffffffffffffffffffff1681526020019081526020016000205487600201600301546152c490919063ffffffff16565b866002016003018190555060006133c386600201600c0160003373ffffffffffffffffffffffffffffffffffffffff1673ffffffffffffffffffffffffffffffffffffffff1681526020019081526020016000205487600201600401546152c490919063ffffffff16565b9050600061342588600201600c0160003373ffffffffffffffffffffffffffffffffffffffff1673ffffffffffffffffffffffffffffffffffffffff1681526020019081526020016000205489600201600401546152c490919063ffffffff16565b9050600061345c886002016004015461344e858b600201600501546151f490919063ffffffff16565b61527a90919063ffffffff16565b905060006134938a60020160040154613485858d600201600501546151f490919063ffffffff16565b61527a90919063ffffffff16565b9050600061350e8a600201600501546135008c600201600401548d60020160060160003373ffffffffffffffffffffffffffffffffffffffff1673ffffffffffffffffffffffffffffffffffffffff168152602001908152602001600020546151f490919063ffffffff16565b61527a90919063ffffffff16565b905060006135898c6002016005015461357b8e600201600401548f60020160060160003373ffffffffffffffffffffffffffffffffffffffff1673ffffffffffffffffffffffffffffffffffffffff168152602001908152602001600020546151f490919063ffffffff16565b61527a90919063ffffffff16565b9050613606866135f86135e98e600201600c0160003373ffffffffffffffffffffffffffffffffffffffff1673ffffffffffffffffffffffffffffffffffffffff16815260200190815260200160002054866152c490919063ffffffff16565b876151f490919063ffffffff16565b61527a90919063ffffffff16565b8b60020160060160003373ffffffffffffffffffffffffffffffffffffffff1673ffffffffffffffffffffffffffffffffffffffff168152602001908152602001600020819055506136c9856136bb6136ac8f600201600c0160003373ffffffffffffffffffffffffffffffffffffffff1673ffffffffffffffffffffffffffffffffffffffff16815260200190815260200160002054856152c490919063ffffffff16565b866151f490919063ffffffff16565b61527a90919063ffffffff16565b8c60020160060160003373ffffffffffffffffffffffffffffffffffffffff1673ffffffffffffffffffffffffffffffffffffffff16815260200190815260200160002081905550858b60020160040181905550848c60020160040181905550838b60020160050181905550828c6002016005018190555061379f8b600201600c0160003373ffffffffffffffffffffffffffffffffffffffff1673ffffffffffffffffffffffffffffffffffffffff168152602001908152602001600020548c600201600b01546152c490919063ffffffff16565b8b600201600b01819055506138088c600201600c0160003373ffffffffffffffffffffffffffffffffffffffff1673ffffffffffffffffffffffffffffffffffffffff168152602001908152602001600020548d600201600b01546152c490919063ffffffff16565b8c600201600b018190555060008b600201600c0160003373ffffffffffffffffffffffffffffffffffffffff1673ffffffffffffffffffffffffffffffffffffffff1681526020019081526020016000208190555060008c600201600c0160003373ffffffffffffffffffffffffffffffffffffffff1673ffffffffffffffffffffffffffffffffffffffff1681526020019081526020016000208190555060006138ee6138c68e600201600101548a6151f490919063ffffffff16565b6138e08e600201600101548c6151f490919063ffffffff16565b61516c90919063ffffffff16565b90503373ffffffffffffffffffffffffffffffffffffffff166108fc829081150290604051600060405180830381858888f19350505050158015613936573d6000803e3d6000fd5b5050505050505050505050505050919050565b600061395484613cb5565b61395d57600080fd5b600082116139d3576040517f08c379a00000000000000000000000000000000000000000000000000000000081526004018080602001828103825260148152602001807f416d6f756e742068617320746f206265203e203000000000000000000000000081525060200191505060405180910390fd5b600060066000868152602001908152602001600020600101600085815260200190815260200160002090506000613a338260020160070154613a258460020160080154876151f490919063ffffffff16565b61527a90919063ffffffff16565b9050808260020160090160003373ffffffffffffffffffffffffffffffffffffffff1673ffffffffffffffffffffffffffffffffffffffff1681526020019081526020016000205411613aee576040517f08c379a000000000000000000000000000000000000000000000000000000000815260040180806020018281038252601c8152602001807f4e6f2042616c616e636520746f2050756c6c204672616374696f6e730000000081525060200191505060405180910390fd5b613b45818360020160090160003373ffffffffffffffffffffffffffffffffffffffff1673ffffffffffffffffffffffffffffffffffffffff168152602001908152602001600020546152c490919063ffffffff16565b8260020160090160003373ffffffffffffffffffffffffffffffffffffffff1673ffffffffffffffffffffffffffffffffffffffff16815260200190815260200160002081905550613ba78483600201600701546152c490919063ffffffff16565b8260020160070181905550613bcc8183600201600801546152c490919063ffffffff16565b82600201600801819055506000613bf385846002016004015461516c90919063ffffffff16565b90506000613c2a8460020160040154613c1c8487600201600501546151f490919063ffffffff16565b61527a90919063ffffffff16565b9050613c468460020160050154826152c490919063ffffffff16565b8460020160060160003373ffffffffffffffffffffffffffffffffffffffff1673ffffffffffffffffffffffffffffffffffffffff1681526020019081526020016000208190555080846002016005018190555081846002016004018190555060019450505050509392505050565b60008015156006600084815260200190815260200160002060040160009054906101000a900460ff161515149050919050565b6000613cf261553e565b600660008681526020019081526020016000206001016000858152602001908152602001600020604051806060016040529081600082015481526020016001820154815260200160028201604051806101400160405290816000820154815260200160018201548152602001600282015481526020016003820154815260200160048201548152602001600582015481526020016007820154815260200160088201548152602001600a8201548152602001600b820154815250508152505090506000613dc0868686613f7d565b90506000613df9836040015160600151613deb848660400151600001516152c490919063ffffffff16565b61527a90919063ffffffff16565b9050613e2181613e136064856151f490919063ffffffff16565b61527a90919063ffffffff16565b93505050509392505050565b600080600080600080600080600080613e4461553e565b600660008e815260200190815260200160002060010160008d8152602001908152602001600020604051806060016040529081600082015481526020016001820154815260200160028201604051806101400160405290816000820154815260200160018201548152602001600282015481526020016003820154815260200160048201548152602001600582015481526020016007820154815260200160088201548152602001600a8201548152602001600b8201548152505081525050905080600001518160200151826040015160000151836040015160200151846040015160400151856040015160600151866040015160800151876040015160c0015188604001516101000151896040015161012001519a509a509a509a509a509a509a509a509a509a50509295989b9194979a5092959850565b6000613f8761553e565b600660008681526020019081526020016000206001016000858152602001908152602001600020604051806060016040529081600082015481526020016001820154815260200160028201604051806101400160405290816000820154815260200160018201548152602001600282015481526020016003820154815260200160048201548152602001600582015481526020016007820154815260200160088201548152602001600a8201548152602001600b82015481525050815250509050614063816040015160200151846151f490919063ffffffff16565b9150509392505050565b600061407884613cb5565b61408157600080fd5b600082116140f7576040517f08c379a00000000000000000000000000000000000000000000000000000000081526004018080602001828103825260148152602001807f416d6f756e742068617320746f206265203e203000000000000000000000000081525060200191505060405180910390fd5b60006006600086815260200190815260200160002060010160008581526020019081526020016000209050600061415782600201600401546141498460020160050154876151f490919063ffffffff16565b61527a90919063ffffffff16565b9050808260020160060160003373ffffffffffffffffffffffffffffffffffffffff1673ffffffffffffffffffffffffffffffffffffffff1681526020019081526020016000205411614212576040517f08c379a000000000000000000000000000000000000000000000000000000000815260040180806020018281038252601c8152602001807f4e6f2042616c616e636520746f2050756c6c204672616374696f6e730000000081525060200191505060405180910390fd5b600061428b836002016004015461427d8560020160060160003373ffffffffffffffffffffffffffffffffffffffff1673ffffffffffffffffffffffffffffffffffffffff1681526020019081526020016000205486600201600501546151f490919063ffffffff16565b61527a90919063ffffffff16565b90508085106142e5576040517f08c379a00000000000000000000000000000000000000000000000000000000081526004018080602001828103825260488152602001806156006048913960600191505060405180910390fd5b61433c828460020160060160003373ffffffffffffffffffffffffffffffffffffffff1673ffffffffffffffffffffffffffffffffffffffff168152602001908152602001600020546152c490919063ffffffff16565b8360020160060160003373ffffffffffffffffffffffffffffffffffffffff1673ffffffffffffffffffffffffffffffffffffffff1681526020019081526020016000208190555061439e8584600201600401546152c490919063ffffffff16565b83600201600401819055506143c38284600201600501546152c490919063ffffffff16565b836002016005018190555060006143ea86856002016007015461516c90919063ffffffff16565b9050600061442185600201600701546144138488600201600801546151f490919063ffffffff16565b61527a90919063ffffffff16565b905061443d8560020160080154826152c490919063ffffffff16565b8560020160090160003373ffffffffffffffffffffffffffffffffffffffff1673ffffffffffffffffffffffffffffffffffffffff168152602001908152602001600020819055508085600201600801819055508185600201600701819055506001955050505050509392505050565b600160009054906101000a900473ffffffffffffffffffffffffffffffffffffffff1681565b60006144de84613cb5565b6144e757600080fd5b6000821161455d576040517f08c379a00000000000000000000000000000000000000000000000000000000081526004018080602001828103825260148152602001807f416d6f756e742068617320746f206265203e203000000000000000000000000081525060200191505060405180910390fd5b60006006600086815260200190815260200160002060010160008581526020019081526020016000209050600060019050600185141561459c57600290505b6000600660008881526020019081526020016000206001016000838152602001908152602001600020905060006145fc84600201600701546145ee8660020160080154896151f490919063ffffffff16565b61527a90919063ffffffff16565b9050808460020160090160003373ffffffffffffffffffffffffffffffffffffffff1673ffffffffffffffffffffffffffffffffffffffff16815260200190815260200160002054116146b7576040517f08c379a00000000000000000000000000000000000000000000000000000000081526004018080602001828103825260178152602001807f4e6f2042616c616e636520746f204c697175696461746500000000000000000081525060200191505060405180910390fd5b60006146c4898989614a1a565b90506003811061473c576040517f08c379a000000000000000000000000000000000000000000000000000000000815260040180806020018281038252601d8152602001807f536c69706167652068617320746f206265206c657373207468616e203300000081525060200191505060405180910390fd5b60006147588660020160010154896151f490919063ffffffff16565b90506147b1838760020160090160003373ffffffffffffffffffffffffffffffffffffffff1673ffffffffffffffffffffffffffffffffffffffff168152602001908152602001600020546152c490919063ffffffff16565b8660020160090160003373ffffffffffffffffffffffffffffffffffffffff1673ffffffffffffffffffffffffffffffffffffffff168152602001908152602001600020819055506148138887600201600701546152c490919063ffffffff16565b86600201600701819055506148388387600201600801546152c490919063ffffffff16565b866002016008018190555061485d88876002016004015461516c90919063ffffffff16565b86600201600401819055506148828187600201600001546152c490919063ffffffff16565b86600201600001819055506148c286600201600001546148b460035487600201600001546151f490919063ffffffff16565b61527a90919063ffffffff16565b60035460010201866002016002018190555061490984600201600001546148fb60035489600201600001546151f490919063ffffffff16565b61527a90919063ffffffff16565b60035460010201846002016002018190555061493c8660020160030154876002016000015461527a90919063ffffffff16565b86600201600101819055506149688460020160030154856002016000015461527a90919063ffffffff16565b84600201600101819055503373ffffffffffffffffffffffffffffffffffffffff166108fc829081150290604051600060405180830381858888f193505050501580156149b9573d6000803e3d6000fd5b503373ffffffffffffffffffffffffffffffffffffffff168a7f5510da23a90d54e35ddff683d35a6e64dd363c19c189b94ff402ffc99a8cc274836040518082815260200191505060405180910390a3600196505050505050509392505050565b6000614a2461553e565b600660008681526020019081526020016000206001016000858152602001908152602001600020604051806060016040529081600082015481526020016001820154815260200160028201604051806101400160405290816000820154815260200160018201548152602001600282015481526020016003820154815260200160048201548152602001600582015481526020016007820154815260200160088201548152602001600a8201548152602001600b820154815250508152505090506000614af2868686613f7d565b90506000614b2b836040015160600151614b1d848660400151600001516152c490919063ffffffff16565b61527a90919063ffffffff16565b9050614b5382614b456064846151f490919063ffffffff16565b61527a90919063ffffffff16565b93505050509392505050565b6000614b6a83612b2d565b614bdc576040517f08c379a00000000000000000000000000000000000000000000000000000000081526004018080602001828103825260168152602001807f4576656e742068617320746f20626520636c6f7365640000000000000000000081525060200191505060405180910390fd5b6000600660008581526020019081526020016000206001016000848152602001908152602001600020905082600660008681526020019081526020016000206002015414614c92576040517f08c379a000000000000000000000000000000000000000000000000000000000815260040180806020018281038252601e8152602001807f526573756c74205370616365206973206e6f74207468652077696e6e6572000081525060200191505060405180910390fd5b6000151581600f0160003373ffffffffffffffffffffffffffffffffffffffff1673ffffffffffffffffffffffffffffffffffffffff16815260200190815260200160002060009054906101000a900460ff16151514614d5a576040517f08c379a00000000000000000000000000000000000000000000000000000000081526004018080602001828103825260158152602001807f57696e6e696e6720616c72656164792074616b656e000000000000000000000081525060200191505060405180910390fd5b6000614dd38260020160050154614dc584600201600401548560020160060160003373ffffffffffffffffffffffffffffffffffffffff1673ffffffffffffffffffffffffffffffffffffffff168152602001908152602001600020546151f490919063ffffffff16565b61527a90919063ffffffff16565b90506000614e4e8360020160080154614e4085600201600701548660020160090160003373ffffffffffffffffffffffffffffffffffffffff1673ffffffffffffffffffffffffffffffffffffffff168152602001908152602001600020546151f490919063ffffffff16565b61527a90919063ffffffff16565b90506000614ebf614e6c6004546003546151f490919063ffffffff16565b614eb18660020160020154614ea38860020160010154614e95898961516c90919063ffffffff16565b6151f490919063ffffffff16565b6151f490919063ffffffff16565b61527a90919063ffffffff16565b90503373ffffffffffffffffffffffffffffffffffffffff166108fc829081150290604051600060405180830381858888f19350505050158015614f07573d6000803e3d6000fd5b506001600660008981526020019081526020016000206001016000888152602001908152602001600020600f0160003373ffffffffffffffffffffffffffffffffffffffff1673ffffffffffffffffffffffffffffffffffffffff16815260200190815260200160002060006101000a81548160ff0219169083151502179055503373ffffffffffffffffffffffffffffffffffffffff16877fa62bf33e3860a18b08244c1b59b8aa4920be374252eb534e0ab47d5f7a18ca18836040518082815260200191505060405180910390a35050505092915050565b6000809054906101000a900473ffffffffffffffffffffffffffffffffffffffff1673ffffffffffffffffffffffffffffffffffffffff163373ffffffffffffffffffffffffffffffffffffffff16146150a3576040517f08c379a000000000000000000000000000000000000000000000000000000000815260040180806020018281038252600f8152602001807f48617320746f206265206f776e6572000000000000000000000000000000000081525060200191505060405180910390fd5b8073ffffffffffffffffffffffffffffffffffffffff163373ffffffffffffffffffffffffffffffffffffffff161415615128576040517f08c379a00000000000000000000000000000000000000000000000000000000081526004018080602001828103825260218152602001806156936021913960400191505060405180910390fd5b80600160006101000a81548173ffffffffffffffffffffffffffffffffffffffff021916908373ffffffffffffffffffffffffffffffffffffffff16021790555050565b6000808284019050838110156151ea576040517f08c379a000000000000000000000000000000000000000000000000000000000815260040180806020018281038252601b8152602001807f536166654d6174683a206164646974696f6e206f766572666c6f77000000000081525060200191505060405180910390fd5b8091505092915050565b6000808314156152075760009050615274565b600082840290508284828161521857fe5b041461526f576040517f08c379a00000000000000000000000000000000000000000000000000000000081526004018080602001828103825260218152602001806155df6021913960400191505060405180910390fd5b809150505b92915050565b60006152bc83836040518060400160405280601a81526020017f536166654d6174683a206469766973696f6e206279207a65726f00000000000081525061530e565b905092915050565b600061530683836040518060400160405280601e81526020017f536166654d6174683a207375627472616374696f6e206f766572666c6f7700008152506153d4565b905092915050565b600080831182906153ba576040517f08c379a00000000000000000000000000000000000000000000000000000000081526004018080602001828103825283818151815260200191508051906020019080838360005b8381101561537f578082015181840152602081019050615364565b50505050905090810190601f1680156153ac5780820380516001836020036101000a031916815260200191505b509250505060405180910390fd5b5060008385816153c657fe5b049050809150509392505050565b6000838311158290615481576040517f08c379a00000000000000000000000000000000000000000000000000000000081526004018080602001828103825283818151815260200191508051906020019080838360005b8381101561544657808201518184015260208101905061542b565b50505050905090810190601f1680156154735780820380516001836020036101000a031916815260200191505b509250505060405180910390fd5b5060008385039050809150509392505050565b60405180608001604052806060815260200160008152602001606081526020016000151581525090565b828054600181600116156101000203166002900490600052602060002090601f016020900481019282601f106154ff57805160ff191683800117855561552d565b8280016001018555821561552d579182015b8281111561552c578251825591602001919060010190615511565b5b50905061553a9190615566565b5090565b604051806101800160405280600081526020016000815260200161556061558b565b81525090565b61558891905b8082111561558457600081600090555060010161556c565b5090565b90565b60405180610140016040528060008152602001600081526020016000815260200160008152602001600081526020016000815260200160008152602001600081526020016000815260200160008152509056fe536166654d6174683a206d756c7469706c69636174696f6e206f766572666c6f77416d6f756e74206f66204672616374696f6e73206f757473696465206f66206c6971756964697479206861766520746f20626520626967676572207468616e2070726f706f736564496e697469616c204672616374696f6e20436f73742068617320746f206265203e203054782076616c75652068617320746f20626520657175616c20746f2070617961626c652073656e7448617320746f2062652064696666207468616e2063757272656e74206f776e6572a165627a7a723058201fed341d562735e44fa4cb89d030d54fbe83e95f15d12b42baebb4e5cc2577b40029",
  "source": "pragma solidity ^0.5.8;\n\n/**\n * @title ERC20Basic\n * @dev Simpler version of ERC20 interface\n * @dev see https://github.com/ethereum/EIPs/issues/179\n */\ncontract ERC20Basic {\n    function decimals() public view returns (uint8);\n    function totalSupply() public view returns (uint256);\n    function balanceOf(address who) public view returns (uint256);\n    function transfer(address to, uint256 value) public returns (bool);\n    event Transfer(address indexed from, address indexed to, uint256 value);\n}\n\n/**\n * @title ERC20 interface\n * @dev see https://github.com/ethereum/EIPs/issues/20\n */\ncontract ERC20 is ERC20Basic {\n  function allowance(address owner, address spender) public view returns (uint256);\n  function transferFrom(address from, address to, uint256 value) public returns (bool);\n  function approve(address spender, uint256 value) public returns (bool);\n  event Approval(address indexed owner, address indexed spender, uint256 value);\n}\n\n/**\n * @dev Wrappers over Solidity's arithmetic operations with added overflow\n * checks.\n *\n * Arithmetic operations in Solidity wrap on overflow. This can easily result\n * in bugs, because programmers usually assume that an overflow raises an\n * error, which is the standard behavior in high level programming languages.\n * `SafeMath` restores this intuition by reverting the transaction when an\n * operation overflows.\n *\n * Using this library instead of the unchecked operations eliminates an entire\n * class of bugs, so it's recommended to use it always.\n */\nlibrary SafeMath {\n    /**\n     * @dev Returns the addition of two unsigned integers, reverting on\n     * overflow.\n     *\n     * Counterpart to Solidity's `+` operator.\n     *\n     * Requirements:\n     * - Addition cannot overflow.\n     */\n    function add(uint256 a, uint256 b) internal pure returns (uint256) {\n        uint256 c = a + b;\n        require(c >= a, \"SafeMath: addition overflow\");\n\n        return c;\n    }\n\n    /**\n     * @dev Returns the subtraction of two unsigned integers, reverting on\n     * overflow (when the result is negative).\n     *\n     * Counterpart to Solidity's `-` operator.\n     *\n     * Requirements:\n     * - Subtraction cannot overflow.\n     */\n    function sub(uint256 a, uint256 b) internal pure returns (uint256) {\n        return sub(a, b, \"SafeMath: subtraction overflow\");\n    }\n\n    /**\n     * @dev Returns the subtraction of two unsigned integers, reverting with custom message on\n     * overflow (when the result is negative).\n     *\n     * Counterpart to Solidity's `-` operator.\n     *\n     * Requirements:\n     * - Subtraction cannot overflow.\n     *\n     * _Available since v2.4.0._\n     */\n    function sub(uint256 a, uint256 b, string memory errorMessage) internal pure returns (uint256) {\n        require(b <= a, errorMessage);\n        uint256 c = a - b;\n\n        return c;\n    }\n\n    /**\n     * @dev Returns the multiplication of two unsigned integers, reverting on\n     * overflow.\n     *\n     * Counterpart to Solidity's `*` operator.\n     *\n     * Requirements:\n     * - Multiplication cannot overflow.\n     */\n    function mul(uint256 a, uint256 b) internal pure returns (uint256) {\n        // Gas optimization: this is cheaper than requiring 'a' not being zero, but the\n        // benefit is lost if 'b' is also tested.\n        // See: https://github.com/OpenZeppelin/openzeppelin-contracts/pull/522\n        if (a == 0) {\n            return 0;\n        }\n\n        uint256 c = a * b;\n        require(c / a == b, \"SafeMath: multiplication overflow\");\n\n        return c;\n    }\n\n    /**\n     * @dev Returns the integer division of two unsigned integers. Reverts on\n     * division by zero. The result is rounded towards zero.\n     *\n     * Counterpart to Solidity's `/` operator. Note: this function uses a\n     * `revert` opcode (which leaves remaining gas untouched) while Solidity\n     * uses an invalid opcode to revert (consuming all remaining gas).\n     *\n     * Requirements:\n     * - The divisor cannot be zero.\n     */\n    function div(uint256 a, uint256 b) internal pure returns (uint256) {\n        return div(a, b, \"SafeMath: division by zero\");\n    }\n\n    /**\n     * @dev Returns the integer division of two unsigned integers. Reverts with custom message on\n     * division by zero. The result is rounded towards zero.\n     *\n     * Counterpart to Solidity's `/` operator. Note: this function uses a\n     * `revert` opcode (which leaves remaining gas untouched) while Solidity\n     * uses an invalid opcode to revert (consuming all remaining gas).\n     *\n     * Requirements:\n     * - The divisor cannot be zero.\n     *\n     * _Available since v2.4.0._\n     */\n    function div(uint256 a, uint256 b, string memory errorMessage) internal pure returns (uint256) {\n        // Solidity only automatically asserts when dividing by 0\n        require(b > 0, errorMessage);\n        uint256 c = a / b;\n        // assert(a == b * c + a % b); // There is no case in which this doesn't hold\n\n        return c;\n    }\n\n    /**\n     * @dev Returns the remainder of dividing two unsigned integers. (unsigned integer modulo),\n     * Reverts when dividing by zero.\n     *\n     * Counterpart to Solidity's `%` operator. This function uses a `revert`\n     * opcode (which leaves remaining gas untouched) while Solidity uses an\n     * invalid opcode to revert (consuming all remaining gas).\n     *\n     * Requirements:\n     * - The divisor cannot be zero.\n     */\n    function mod(uint256 a, uint256 b) internal pure returns (uint256) {\n        return mod(a, b, \"SafeMath: modulo by zero\");\n    }\n\n    /**\n     * @dev Returns the remainder of dividing two unsigned integers. (unsigned integer modulo),\n     * Reverts with custom message when dividing by zero.\n     *\n     * Counterpart to Solidity's `%` operator. This function uses a `revert`\n     * opcode (which leaves remaining gas untouched) while Solidity uses an\n     * invalid opcode to revert (consuming all remaining gas).\n     *\n     * Requirements:\n     * - The divisor cannot be zero.\n     *\n     * _Available since v2.4.0._\n     */\n    function mod(uint256 a, uint256 b, string memory errorMessage) internal pure returns (uint256) {\n        require(b != 0, errorMessage);\n        return a % b;\n    }\n}\n\n// File: openzeppelin-solidity/contracts/ownership/Ownable.sol\n\n/**\n * @title Ownable\n * @dev The Ownable contract has an owner address, and provides basic authorization control\n * functions, this simplifies the implementation of \"user permissions\".\n */\ncontract Ownable {\n    address public owner;\n    address public proposedOwner;\n    event OwnershipTransferred(address indexed previousOwner, address indexed newOwner);\n\n\n    /**\n    * @dev The Ownable constructor sets the original `owner` of the contract to the sender\n    * account.\n    */\n    constructor() public {\n        owner = msg.sender;\n    }\n\n    /**\n    * @dev Throws if called by any account other than the owner.\n    */\n    modifier onlyOwner() {\n        require(msg.sender == owner, \"Has to be owner\");\n        _;\n    }\n\n    function transferOwnership(address _proposedOwner) public onlyOwner {\n        require(msg.sender != _proposedOwner, \"Has to be diff than current owner\");\n        proposedOwner = _proposedOwner;\n    }\n\n    function claimOwnership() public {\n        require(msg.sender == proposedOwner, \"Has to be the proposed owner\");\n        emit OwnershipTransferred(owner, proposedOwner);\n        owner = proposedOwner;\n        proposedOwner = address(0);\n    }\n}\n\n\n// File: openzeppelin-solidity/contracts/lifecycle/Pausable.sol\n\n/**\n * @title Pausable\n * @dev Base contract which allows children to implement an emergency stop mechanism.\n */\ncontract Pausable is Ownable {\n    event Pause();\n    event Unpause();\n\n    bool public paused = false;\n\n\n    /**\n    * @dev Modifier to make a function callable only when the contract is not paused.\n    */\n    modifier whenNotPaused() {\n        require(!paused, \"Has to be unpaused\");\n        _;\n    }\n\n    /**\n    * @dev Modifier to make a function callable only when the contract is paused.\n    */\n    modifier whenPaused() {\n        require(paused, \"Has to be paused\");\n        _;\n    }\n\n    /**\n    * @dev called by the owner to pause, triggers stopped state\n    */\n    function pause() onlyOwner whenNotPaused public {\n        paused = true;\n        emit Pause();\n    }\n\n    /**\n    * @dev called by the owner to unpause, returns to normal state\n    */\n    function unpause() onlyOwner whenPaused public {\n        paused = false;\n        emit Unpause();\n    }\n}\n\n\ncontract Exchange is Pausable {\n   \n    using SafeMath for uint256;\n\n    uint256 public eventId = 0;\n    uint256 public ODD_DECIMALS = 10**4; // 1*10**4 = 10000 => 1.000\n    uint256 public CURRENCY_DECIMALS = 10**7; \n    uint256[] public eventIds;\n    mapping(uint256 => Event) public events;\n    mapping(address => uint256[]) public myEvents;\n\n \n    struct Fraction {\n        uint256 pool;           /* (Pool) Total pool amount (ETH in WEI) */\n        uint256 cost;           /* (VF) Fraction Cost (ETH in WEI) */\n        uint256 odd;            /* (Odd) Odd of Fraction (in 10**4) (ex : 2.410 = 2410) */\n        /* IN + OUT */\n        uint256 amount;         /* (#F) Total amount of fractions (in 10**18)  */\n        /* IN */\n        uint256 inPool;                 /* (In) Total amount Absolute of fractions in pool (in 10**18) */\n        uint256 relIn;            /* (#In) Relative amount of fractions in pool (in 10**18) */\n        mapping(address => uint256) inPoolBalances;   /* (#In[]) Relative amount of fractions in pool per address (in 10**18)*/\n        /* OUT */\n        uint256 outPool;                 /* (Out) Total amount of fractions off pool (in 10**18) */\n        uint256 relOut;            /* (#Out) Relative amount of fractions off pool (in 10**18) */\n        mapping(address => uint256) outPoolBalances;   /* (#Out[])Relative amount of fractions off pool per address (in 10**18)*/\n        /* Fees */\n        uint256 fees;                       /* Absolute Amount of Fees available (in 10**18)  */\n        uint256 liqAmount;                      /* Absolute Amount of Fractions in liquidity */\n        mapping(address => uint256) liquidity;  /* Liquidity of Address - absolute values */\n        // TO DO : Use fees for something\n    }\n\n    struct ResultSpace {\n        uint256 id;                         /* Result Space External ID - IPFS Mapping*/\n        uint256 resultId;                   /* Result Space ID */\n        Fraction fraction;                  /* Amount of Fractions existent */\n        mapping(address => bool) tookWinnings; /* See if Winnings were taken */\n    }\n\n    struct Event {\n        string name; /* Event name */\n        mapping(uint256 => ResultSpace) resultSpaces;\n        uint256 result; /* result space id (when finalized) */\n        string urlOracle; /* URL that determines the result */\n        bool isResolved; /* If Resolved */\n    }    \n\n    event CreateEvent(uint256 indexed id, string indexed name);\n    event BuyEvent(uint256 indexed id, uint256 indexed resultSpaceId, uint256 fractionAmount, uint256 fractionCost, address indexed buyer);\n    event CloseEvent(uint256 indexed id, uint256 indexed resultSpaceId);\n    event WithdrawEvent(uint256 indexed id, uint256 winAmount, address indexed buyer);\n    event SellEvent(uint256 indexed id, uint256 liquidateAmount, address indexed seller);\n\n    constructor() public {\n       \n    }\n\n    function isEventOpen(uint256 _eventId) public returns (bool success){\n        return (events[_eventId].isResolved == false);\n    }\n\n    function isEventClosed(uint256 _eventId) public returns (bool success){\n        return (events[_eventId].isResolved == true);\n    }\n\n    function createEvent(uint256[] memory _resultSpaceIds /* Descriptions */, string memory _urlOracle, string memory _eventName) payable public onlyOwner returns (bool success) {\n        require(_resultSpaceIds.length == 2, \"Result Spaces need to be 2 \"); \n        uint256 resultId = 1;\n        uint256 fractionAmount = 100*CURRENCY_DECIMALS;\n        uint256 initialFractionCost = msg.value.div(_resultSpaceIds.length).div(fractionAmount); /* Initial Amount */\n        require(initialFractionCost > 0, \"Initial Fraction Cost has to be > 0\"); /* Initial Fraction Cost has to be > 0 */\n\n        /* Create Event */\n        Event storage _event = events[eventId];\n        _event.name = _eventName;\n        _event.urlOracle = _urlOracle;\n        _event.isResolved = false;\n\n        /* Create the Result spaces */\n        for (uint i = 0; i < _resultSpaceIds.length; i++) {\n\n            ResultSpace storage resultSpace = _event.resultSpaces[resultId];\n\n            resultSpace.resultId = resultId;\n            resultSpace.id = _resultSpaceIds[i];\n\n            Fraction storage fraction = resultSpace.fraction;\n            fraction.pool = msg.value.div(_resultSpaceIds.length);\n            fraction.cost = initialFractionCost;\n            fraction.odd = _resultSpaceIds.length*ODD_DECIMALS;\n            fraction.amount = fractionAmount;\n            fraction.inPool = fractionAmount;\n            fraction.relIn = fractionAmount;\n            fraction.outPool = 0;\n            fraction.relOut = 0;\n            fraction.fees = 0;\n            fraction.liqAmount = 0;\n\n            resultId = resultId + 1;\n            _event.resultSpaces[resultId].fraction.inPoolBalances[address(this)] = fractionAmount;\n        }\n\n        eventIds.push(eventId);\n        emit CreateEvent(eventId, _eventName);\n        eventId = eventId + 1;\n        return true;\n    }\n\n    function addLiquidity(uint256 _eventId) payable public returns (bool success) {\n        require(isEventOpen(_eventId));\n        require(msg.value > 0, \"Amount has to be > 0\");\n\n        ResultSpace storage resultSpace_opp = events[_eventId].resultSpaces[1];\n        ResultSpace storage resultSpace = events[_eventId].resultSpaces[2];\n\n        uint256 poolA2 = 0;\n        uint256 poolB2 = 0;\n        uint256 FA2 = 0;\n        uint256 FB2 = 0;\n        uint256 ratio = 50; /* 50% */ // resultSpace_opp.fraction.pool.div(resultSpace.fraction.pool)\n\n        /* Pool A2 */\n        poolA2 = resultSpace.fraction.pool.add(msg.value.mul(ratio).div(100));\n        /* Pool B2 */\n        poolB2 = resultSpace_opp.fraction.pool.add(msg.value.mul(ratio).div(100));\n\n        /* FA2 */\n        FA2 = (poolA2.mul(resultSpace.fraction.amount)).div(resultSpace.fraction.pool);\n        /* FB2 */\n        FB2 = (poolB2.mul(resultSpace_opp.fraction.amount)).div(resultSpace_opp.fraction.pool);\n\n        resultSpace.fraction.pool = poolA2;\n        resultSpace_opp.fraction.pool = poolB2;\n\n        uint256 fractionsToAddA = FA2.sub(resultSpace.fraction.amount);\n        uint256 fractionsToAddB = FB2.sub(resultSpace_opp.fraction.amount);\n\n        uint256 inPoolA2 = resultSpace.fraction.inPool.add(fractionsToAddA);\n        uint256 inPoolB2 = resultSpace_opp.fraction.inPool.add(fractionsToAddB);\n\n        uint256 relIn2 = fractionsToAddA;\n        uint256 relIn2_opp = fractionsToAddB;\n\n        if(resultSpace.fraction.relIn > 0){\n            relIn2 = inPoolA2.mul(resultSpace.fraction.relIn).div(resultSpace.fraction.inPool);\n        }\n        if(resultSpace_opp.fraction.relIn > 0){\n            relIn2_opp = inPoolB2.mul(resultSpace_opp.fraction.relIn).div(resultSpace_opp.fraction.inPool);\n        }        \n\n        /* INA2 */\n        resultSpace.fraction.inPool = inPoolA2;\n        /* INB2 */\n        resultSpace_opp.fraction.inPool = inPoolB2;\n\n        /* INA[]2 */\n        resultSpace.fraction.inPoolBalances[msg.sender] = resultSpace.fraction.inPoolBalances[msg.sender].add(relIn2.sub(resultSpace.fraction.relIn));\n        /* INB[]2 */\n        resultSpace_opp.fraction.inPoolBalances[msg.sender] = resultSpace_opp.fraction.inPoolBalances[msg.sender].add(relIn2_opp.sub(resultSpace_opp.fraction.relIn));\n\n        /* LiqA[]2 */\n        resultSpace.fraction.liquidity[msg.sender] = resultSpace.fraction.liquidity[msg.sender].add(fractionsToAddA);\n        /* LiqB[]2 */\n        resultSpace_opp.fraction.liquidity[msg.sender] = resultSpace_opp.fraction.liquidity[msg.sender].add(fractionsToAddB);\n\n        /* #INA2 */\n        resultSpace.fraction.relIn = relIn2;\n        /* #INB2 */\n        resultSpace_opp.fraction.relIn = relIn2_opp;\n\n        resultSpace.fraction.amount = FA2;\n        resultSpace_opp.fraction.amount = FB2;\n\n        /* Add Liquidity Amount */\n        resultSpace.fraction.liqAmount = resultSpace.fraction.liqAmount.add(fractionsToAddA);\n        resultSpace_opp.fraction.liqAmount = resultSpace.fraction.liqAmount.add(fractionsToAddB);\n        \n        myEvents[msg.sender].push(_eventId);\n    }\n\n    function removeLiquidity(uint256 _eventId) public returns (bool success) {\n\n        ResultSpace storage resultSpace_opp = events[_eventId].resultSpaces[1];\n        ResultSpace storage resultSpace = events[_eventId].resultSpaces[2];\n        \n        require(resultSpace.fraction.liquidity[msg.sender] > 0, \"Liquidity has to bigger than 0\");\n        require(resultSpace_opp.fraction.liquidity[msg.sender] > 0, \"Liquidity has to bigger than 0\");\n\n        uint256 poolA2 = 0;\n        uint256 poolB2 = 0;\n\n        uint256 liqPoolAfromUser = resultSpace.fraction.liquidity[msg.sender].mul(resultSpace.fraction.pool).div(resultSpace.fraction.amount);\n        uint256 liqPoolBfromUser = resultSpace_opp.fraction.liquidity[msg.sender].mul(resultSpace_opp.fraction.pool).div(resultSpace_opp.fraction.amount);\n        \n        /* Pool A2 */\n        resultSpace.fraction.pool = resultSpace.fraction.pool.sub(liqPoolAfromUser);\n        /* Pool B2 */\n        resultSpace_opp.fraction.pool = resultSpace_opp.fraction.pool.sub(liqPoolBfromUser);\n\n        /* FA2 */\n        resultSpace.fraction.amount = resultSpace.fraction.amount.sub(resultSpace.fraction.liquidity[msg.sender]);\n        /* FB2 */\n        resultSpace_opp.fraction.amount = resultSpace_opp.fraction.amount.sub(resultSpace_opp.fraction.liquidity[msg.sender]);\n\n        /* INA2 */\n        uint256 inPoolA2 = resultSpace.fraction.inPool.sub(resultSpace.fraction.liquidity[msg.sender]);\n        /* INB2 */\n        uint256 inPoolB2 = resultSpace_opp.fraction.inPool.sub(resultSpace_opp.fraction.liquidity[msg.sender]);\n\n        /* #INA2 */\n        uint256 relAIn = resultSpace.fraction.relIn.mul(inPoolA2).div(resultSpace.fraction.inPool);\n        /* #INB2 */\n        uint256 relBIn = resultSpace_opp.fraction.relIn.mul(inPoolB2).div(resultSpace_opp.fraction.inPool);\n\n        /* Initial Fractions Amount */\n        uint256 initialFractionsA = resultSpace.fraction.inPoolBalances[msg.sender].mul(resultSpace.fraction.inPool).div(resultSpace.fraction.relIn);\n        uint256 initialFractionsB = resultSpace_opp.fraction.inPoolBalances[msg.sender].mul(resultSpace_opp.fraction.inPool).div(resultSpace_opp.fraction.relIn);\n\n        /* INA[]2 */\n        resultSpace.fraction.inPoolBalances[msg.sender] = relAIn.mul(initialFractionsA.sub(resultSpace.fraction.liquidity[msg.sender])).div(inPoolA2);\n        /* INB[]2 */\n        resultSpace_opp.fraction.inPoolBalances[msg.sender] = relBIn.mul(initialFractionsB.sub(resultSpace_opp.fraction.liquidity[msg.sender])).div(inPoolB2);\n\n        resultSpace.fraction.inPool = inPoolA2;\n        resultSpace_opp.fraction.inPool = inPoolB2;\n\n        resultSpace.fraction.relIn = relAIn;\n        resultSpace_opp.fraction.relIn = relBIn;\n\n        /* Remove Liquidity Amount */\n        resultSpace.fraction.liqAmount = resultSpace.fraction.liqAmount.sub(resultSpace.fraction.liquidity[msg.sender]);\n        resultSpace_opp.fraction.liqAmount = resultSpace_opp.fraction.liqAmount.sub(resultSpace_opp.fraction.liquidity[msg.sender]);\n\n        /* LiqA[]2 */\n        resultSpace.fraction.liquidity[msg.sender] = 0;\n        /* LiqB[]2 */\n        resultSpace_opp.fraction.liquidity[msg.sender] = 0;\n\n        uint256 totalLiquidity = liqPoolAfromUser.mul(resultSpace.fraction.cost).add(liqPoolBfromUser.mul(resultSpace_opp.fraction.cost));\n        /* Remove Liquidity */\n        msg.sender.transfer(totalLiquidity);\n    }\n\n    function buy(uint256 _eventId, uint256 _resultSpaceId, uint256 _fractionsAmount) payable public returns (bool success) {\n        require(isEventOpen(_eventId));\n        require(_fractionsAmount > 0, \"Amount has to be > 0\");\n\n        uint256 _oppResSpaceId = 1;\n        if(_resultSpaceId == 1){_oppResSpaceId = 2;}\n\n        ResultSpace storage resultSpace_opp = events[_eventId].resultSpaces[_oppResSpaceId];\n        ResultSpace storage resultSpace = events[_eventId].resultSpaces[_resultSpaceId];\n\n        uint256 marketValue =  getFractionsCost(_eventId, _resultSpaceId, _fractionsAmount);\n        uint256 previousFractionCost = resultSpace.fraction.cost;\n\n        uint256 slipage = getSlipageOnBuy(_eventId, _resultSpaceId, _fractionsAmount);\n        require(slipage < 3, \"Slipage has to be less than 3\");\n\n        require(msg.value == marketValue, \"Tx value has to be equal to payable sent\"); \n\n        /* Pool A2 */\n        resultSpace.fraction.pool = resultSpace.fraction.pool.add(marketValue);\n        /* Odd A2 */\n        resultSpace.fraction.odd = 1*ODD_DECIMALS + (resultSpace_opp.fraction.pool.mul(ODD_DECIMALS).div(resultSpace.fraction.pool));\n        /* Odd B2 */\n        resultSpace_opp.fraction.odd = 1*ODD_DECIMALS + (resultSpace.fraction.pool.mul(ODD_DECIMALS).div(resultSpace_opp.fraction.pool));\n        /* VF A2 */\n        resultSpace.fraction.cost = resultSpace.fraction.pool.div(resultSpace.fraction.amount);\n        /* VF B2 */\n        resultSpace_opp.fraction.cost = resultSpace_opp.fraction.pool.div(resultSpace_opp.fraction.amount);\n        /* #In A2 */\n        uint256 relIn2 = _fractionsAmount;\n        if(resultSpace.fraction.relIn > 0){\n            relIn2 = resultSpace.fraction.relIn.div(1 - (previousFractionCost.div(resultSpace.fraction.relIn)));\n        }\n        /* #In[] A2 */\n        resultSpace.fraction.inPoolBalances[msg.sender] = relIn2.sub(resultSpace.fraction.relIn);\n        resultSpace.fraction.relIn = relIn2;\n        myEvents[msg.sender].push(_eventId);\n        emit BuyEvent(_eventId, _resultSpaceId, _fractionsAmount, previousFractionCost, msg.sender);\n        return true;\n    }\n\n    function sell(uint256 _eventId, uint256 _resultSpaceId, uint256 _fractionsAmount) public returns (bool success) {\n        require(isEventOpen(_eventId));\n        require(_fractionsAmount > 0, \"Amount has to be > 0\");\n        \n        ResultSpace storage resultSpace = events[_eventId].resultSpaces[_resultSpaceId];\n        uint256 _oppResSpaceId = 1;\n        if(_resultSpaceId == 1){_oppResSpaceId = 2;}\n        ResultSpace storage resultSpace_opp = events[_eventId].resultSpaces[_oppResSpaceId];\n\n        uint256 fractionsAmountRelative = (_fractionsAmount.mul(resultSpace.fraction.relOut)).div(resultSpace.fraction.outPool);\n        require(resultSpace.fraction.outPoolBalances[msg.sender] > fractionsAmountRelative, \"No Balance to Liquidate\");\n\n        uint256 slipage = getSlipageOnSell(_eventId, _resultSpaceId, _fractionsAmount);\n        require(slipage < 3, \"Slipage has to be less than 3\");\n\n        uint256 marketValue = _fractionsAmount.mul(resultSpace.fraction.cost);\n\n        /* #Out[] A2 */\n        resultSpace.fraction.outPoolBalances[msg.sender] = resultSpace.fraction.outPoolBalances[msg.sender].sub(fractionsAmountRelative);\n        /* Out A2 */\n        resultSpace.fraction.outPool = resultSpace.fraction.outPool.sub(_fractionsAmount);\n        /* #Out A2 */\n        resultSpace.fraction.relOut = resultSpace.fraction.relOut.sub(fractionsAmountRelative);\n        /* In A2 */\n        resultSpace.fraction.inPool = resultSpace.fraction.inPool.add(_fractionsAmount);\n        /* Pool A2 */\n        resultSpace.fraction.pool = resultSpace.fraction.pool.sub(marketValue);\n        /* Odd A2 */\n        resultSpace.fraction.odd = 1*ODD_DECIMALS + (resultSpace_opp.fraction.pool.mul(ODD_DECIMALS).div(resultSpace.fraction.pool));\n        /* Odd B2 */\n        resultSpace_opp.fraction.odd = 1*ODD_DECIMALS + (resultSpace.fraction.pool.mul(ODD_DECIMALS).div(resultSpace_opp.fraction.pool));\n        /* VF A2 */\n        resultSpace.fraction.cost = resultSpace.fraction.pool.div(resultSpace.fraction.amount);\n        /* VF B2 */\n        resultSpace_opp.fraction.cost = resultSpace_opp.fraction.pool.div(resultSpace_opp.fraction.amount);\n      \n        /* Liquidate the pool capital to the seller */\n        msg.sender.transfer(marketValue);\n\n        /* Winnings taken */\n        emit SellEvent(_eventId, marketValue, msg.sender);\n        return true;\n    }\n\n    function getSlipageOnSell(uint256 _eventId, uint256 _resultSpaceId, uint256 _fractionsAmount) view public returns (uint256 slipage) {\n        ResultSpace memory resultSpace = events[_eventId].resultSpaces[_resultSpaceId];\n        uint256 marketValue = getFractionsCost(_eventId, _resultSpaceId, _fractionsAmount);\n        uint256 newValue = (resultSpace.fraction.pool.sub(marketValue)).div(resultSpace.fraction.amount);\n        return newValue.mul(100).div(marketValue);\n    }\n\n    function getSlipageOnBuy(uint256 _eventId, uint256 _resultSpaceId, uint256 _fractionsAmount) view public returns (uint256 slipage) {\n        ResultSpace memory resultSpace = events[_eventId].resultSpaces[_resultSpaceId];\n        uint256 marketValue = getFractionsCost(_eventId, _resultSpaceId, _fractionsAmount);\n        uint256 newValue = (resultSpace.fraction.pool.sub(marketValue)).div(resultSpace.fraction.amount);\n        return marketValue.mul(100).div(newValue);\n    }\n\n    function getFractionsCost(uint256 _eventId, uint256 _resultSpaceId, uint256 _fractionsAmount) view public returns (uint256) {\n        ResultSpace memory resultSpace = events[_eventId].resultSpaces[_resultSpaceId];\n        return _fractionsAmount.mul(resultSpace.fraction.cost);\n    }\n\n    function pullFractions(uint256 _eventId, uint256 _resultSpaceId, uint256 _fractionsAmount) public returns (bool success) {\n        require(isEventOpen(_eventId));\n        require(_fractionsAmount > 0, \"Amount has to be > 0\");\n\n        ResultSpace storage resultSpace = events[_eventId].resultSpaces[_resultSpaceId];        \n        /* #FT */\n        uint256 fractionsAmountRelative = (_fractionsAmount.mul(resultSpace.fraction.relIn)).div(resultSpace.fraction.inPool);\n        require(resultSpace.fraction.inPoolBalances[msg.sender] > fractionsAmountRelative, \"No Balance to Pull Fractions\");\n\n        uint256 fractionsOutsideOfLiquidity = resultSpace.fraction.relIn.mul(resultSpace.fraction.inPoolBalances[msg.sender]).div(resultSpace.fraction.inPool);\n        require(_fractionsAmount < fractionsOutsideOfLiquidity, \"Amount of Fractions outside of liquidity have to be bigger than proposed\"); \n\n        /* #In[] A2 */\n        resultSpace.fraction.inPoolBalances[msg.sender] = resultSpace.fraction.inPoolBalances[msg.sender].sub(fractionsAmountRelative);\n        /* In A2 */\n        resultSpace.fraction.inPool = resultSpace.fraction.inPool.sub(_fractionsAmount);\n        /* #In A2 */\n        resultSpace.fraction.relIn = resultSpace.fraction.relIn.sub(fractionsAmountRelative);\n\n        uint256 out2 = resultSpace.fraction.outPool.add(_fractionsAmount);\n        uint256 relOut2 = (resultSpace.fraction.relOut.mul(out2)).div(resultSpace.fraction.outPool);\n\n        /* #Out[] A2 */\n        resultSpace.fraction.outPoolBalances[msg.sender] = relOut2.sub(resultSpace.fraction.relOut);\n        /* #Out A2 */\n        resultSpace.fraction.relOut = relOut2;\n        /* Out A2 */\n        resultSpace.fraction.outPool = out2;\n\n        return true;\n    }\n\n    function pushFractions(uint256 _eventId, uint256 _resultSpaceId, uint256 _fractionsAmount) public returns (bool success) {\n        require(isEventOpen(_eventId));\n        require(_fractionsAmount > 0, \"Amount has to be > 0\");\n\n        ResultSpace storage resultSpace = events[_eventId].resultSpaces[_resultSpaceId];\n\n        /* #FT */\n        uint256 fractionsAmountRelative = (_fractionsAmount.mul(resultSpace.fraction.relOut)).div(resultSpace.fraction.outPool);\n        require(resultSpace.fraction.outPoolBalances[msg.sender] > fractionsAmountRelative, \"No Balance to Pull Fractions\");\n \n        /* #Out[] A2 */\n        resultSpace.fraction.outPoolBalances[msg.sender] = resultSpace.fraction.outPoolBalances[msg.sender].sub(fractionsAmountRelative);\n        /* Out A2 */\n        resultSpace.fraction.outPool = resultSpace.fraction.outPool.sub(_fractionsAmount);\n        /* #Out A2 */\n        resultSpace.fraction.relOut = resultSpace.fraction.relOut.sub(fractionsAmountRelative);\n\n        uint256 in2 = resultSpace.fraction.inPool.add(_fractionsAmount);\n        uint256 relIn2 = (resultSpace.fraction.relIn.mul(in2)).div(resultSpace.fraction.inPool);\n\n        /* #Int[] A2 */\n        resultSpace.fraction.inPoolBalances[msg.sender] = relIn2.sub(resultSpace.fraction.relIn);\n        /* #In A2 */\n        resultSpace.fraction.relIn = relIn2;\n        /* In A2 */\n        resultSpace.fraction.inPool = in2;\n\n        return true;\n    }\n\n    /* Event Resolution */\n    function resolveEvent(uint256 _eventId, uint256 _resultId) public onlyOwner returns (bool success) {\n        require(isEventOpen(_eventId));\n        /* Confirm it exists */\n        require((_resultId > 0) && (_resultId < 3));\n        /* Set the result */\n        events[_eventId].result = _resultId;\n        /* Close Event */\n        events[_eventId].isResolved = true;\n        emit CloseEvent(_eventId, _resultId);\n    }\n\n    function withdrawWins(uint256 _eventId, uint256 _resultSpaceId) public returns (bool success) {\n\n        require(isEventClosed(_eventId), \"Event has to be closed\");\n        ResultSpace storage resultSpace = events[_eventId].resultSpaces[_resultSpaceId];\n        require(events[_eventId].result == _resultSpaceId, \"Result Space is not the winner\");\n        require(resultSpace.tookWinnings[msg.sender] == false, \"Winning already taken\");\n\n        /* Get Win Amount */\n        uint256 absoluteFractionsIn = (resultSpace.fraction.inPoolBalances[msg.sender].mul(resultSpace.fraction.inPool)).div(resultSpace.fraction.relIn);\n        uint256 absoluteFractionsOut = (resultSpace.fraction.outPoolBalances[msg.sender].mul(resultSpace.fraction.outPool)).div(resultSpace.fraction.relOut);\n        uint256 winningAmount = ((absoluteFractionsOut.add(absoluteFractionsIn)).mul(resultSpace.fraction.cost).mul(resultSpace.fraction.odd)).div(ODD_DECIMALS.mul(CURRENCY_DECIMALS));\n\n        /* Send Winnings */\n        msg.sender.transfer(winningAmount);\n\n        /* Winnings taken */\n        events[_eventId].resultSpaces[_resultSpaceId].tookWinnings[msg.sender] = true;\n        emit WithdrawEvent(_eventId, winningAmount, msg.sender);\n    }\n\n    /* Get All Events */\n    function getEvents() view public returns (uint256[] memory event_ids) {\n        return eventIds;\n    }\n\n    /* Get Event Date */\n    function getEventData(uint256 _eventId) view public returns (string memory, uint256, string memory, bool) {\n        Event memory _event = events[_eventId];\n        /* Return Event Data */\n        return (_event.name, _event.result, _event.urlOracle, _event.isResolved);\n    }\n\n    /* Get Result Space Date */\n    function getResultSpaceData(uint256 _eventId, uint256 resultSpace_id) view public returns (\n        uint256 _id, uint256 _resultId, uint256 _pool, uint256 _cost, uint256 _odd, \n        uint256 _amount, uint256 _in, uint256 _out, uint256 _fees, uint256 _liqAmount\n    ) {\n        ResultSpace memory resultSpace = events[_eventId].resultSpaces[resultSpace_id];\n\n        return (resultSpace.id, resultSpace.resultId, resultSpace.fraction.pool, resultSpace.fraction.cost,\n        resultSpace.fraction.odd, resultSpace.fraction.amount, resultSpace.fraction.inPool, resultSpace.fraction.outPool,\n        resultSpace.fraction.fees, resultSpace.fraction.liqAmount);\n    }\n\n    /* Get Portfolio of My events based on address */\n    function getMyEvents() view public returns (uint256[] memory){\n        return myEvents[msg.sender];\n    }\n\n    /* Get Portfolio of My Holdings/Liquidity on Event Data based on address (IN / OUT / Liquidity for each type) */\n    function getMyEventHoldings(uint256 _eventId) view public returns (uint256, uint256, uint256, uint256, uint256, uint256){\n        /* TO DO */\n        ResultSpace storage resultSpace = events[_eventId].resultSpaces[1];\n        ResultSpace storage resultSpace_opp = events[_eventId].resultSpaces[2];\n\n        return (\n            resultSpace.fraction.inPoolBalances[msg.sender], resultSpace.fraction.outPoolBalances[msg.sender], resultSpace.fraction.liquidity[msg.sender],\n            resultSpace_opp.fraction.inPoolBalances[msg.sender], resultSpace_opp.fraction.outPoolBalances[msg.sender], resultSpace_opp.fraction.liquidity[msg.sender]\n            );\n    }\n\n   function removeOtherERC20Tokens(address _tokenAddress, address _to) external onlyOwner {\n        ERC20 erc20Token = ERC20(_tokenAddress);\n        erc20Token.transfer(_to, erc20Token.balanceOf(address(this)));\n    } \n}",
  "sourcePath": "/Users/ruipedro/Desktop/projects/Bepro/@bepro-js/contracts/PredictionMarket.sol",
  "compiler": {
    "name": "solc",
    "version": "0.5.8+commit.23d335f2.Emscripten.clang"
  },
  "schemaVersion": "3.0.20",
  "updatedAt": "2021-01-16T15:47:35.598Z",
  "devdoc": {
    "methods": {
      "pause()": {
        "details": "called by the owner to pause, triggers stopped state"
      },
      "unpause()": {
        "details": "called by the owner to unpause, returns to normal state"
      }
    }
  },
  "userdoc": {
    "methods": {}
  }
}