{
  "contractName": "Exchange",
  "abi": [
    {
      "inputs": [],
      "stateMutability": "nonpayable",
      "type": "constructor"
    },
    {
      "anonymous": false,
      "inputs": [
        {
          "indexed": true,
          "internalType": "uint256",
          "name": "id",
          "type": "uint256"
        },
        {
          "indexed": true,
          "internalType": "uint256",
          "name": "resultSpaceId",
          "type": "uint256"
        },
        {
          "indexed": false,
          "internalType": "uint256",
          "name": "fractionAmount",
          "type": "uint256"
        },
        {
          "indexed": false,
          "internalType": "uint256",
          "name": "fractionCost",
          "type": "uint256"
        },
        {
          "indexed": true,
          "internalType": "address",
          "name": "buyer",
          "type": "address"
        }
      ],
      "name": "BuyEvent",
      "type": "event"
    },
    {
      "anonymous": false,
      "inputs": [
        {
          "indexed": true,
          "internalType": "uint256",
          "name": "id",
          "type": "uint256"
        },
        {
          "indexed": true,
          "internalType": "uint256",
          "name": "resultSpaceId",
          "type": "uint256"
        }
      ],
      "name": "CloseEvent",
      "type": "event"
    },
    {
      "anonymous": false,
      "inputs": [
        {
          "indexed": true,
          "internalType": "uint256",
          "name": "id",
          "type": "uint256"
        },
        {
          "indexed": true,
          "internalType": "string",
          "name": "name",
          "type": "string"
        }
      ],
      "name": "CreateEvent",
      "type": "event"
    },
    {
      "anonymous": false,
      "inputs": [
        {
          "indexed": true,
          "internalType": "address",
          "name": "previousOwner",
          "type": "address"
        },
        {
          "indexed": true,
          "internalType": "address",
          "name": "newOwner",
          "type": "address"
        }
      ],
      "name": "OwnershipTransferred",
      "type": "event"
    },
    {
      "anonymous": false,
      "inputs": [
        {
          "indexed": false,
          "internalType": "address",
          "name": "account",
          "type": "address"
        }
      ],
      "name": "Paused",
      "type": "event"
    },
    {
      "anonymous": false,
      "inputs": [
        {
          "indexed": true,
          "internalType": "uint256",
          "name": "id",
          "type": "uint256"
        },
        {
          "indexed": false,
          "internalType": "uint256",
          "name": "liquidateAmount",
          "type": "uint256"
        },
        {
          "indexed": true,
          "internalType": "address",
          "name": "seller",
          "type": "address"
        }
      ],
      "name": "SellEvent",
      "type": "event"
    },
    {
      "anonymous": false,
      "inputs": [
        {
          "indexed": false,
          "internalType": "address",
          "name": "account",
          "type": "address"
        }
      ],
      "name": "Unpaused",
      "type": "event"
    },
    {
      "anonymous": false,
      "inputs": [
        {
          "indexed": true,
          "internalType": "uint256",
          "name": "id",
          "type": "uint256"
        },
        {
          "indexed": false,
          "internalType": "uint256",
          "name": "winAmount",
          "type": "uint256"
        },
        {
          "indexed": true,
          "internalType": "address",
          "name": "buyer",
          "type": "address"
        }
      ],
      "name": "WithdrawEvent",
      "type": "event"
    },
    {
      "inputs": [],
      "name": "CURRENCY_DECIMALS",
      "outputs": [
        {
          "internalType": "uint256",
          "name": "",
          "type": "uint256"
        }
      ],
      "stateMutability": "view",
      "type": "function"
    },
    {
      "inputs": [],
      "name": "ODD_DECIMALS",
      "outputs": [
        {
          "internalType": "uint256",
          "name": "",
          "type": "uint256"
        }
      ],
      "stateMutability": "view",
      "type": "function"
    },
    {
      "inputs": [],
      "name": "eventId",
      "outputs": [
        {
          "internalType": "uint256",
          "name": "",
          "type": "uint256"
        }
      ],
      "stateMutability": "view",
      "type": "function"
    },
    {
      "inputs": [
        {
          "internalType": "uint256",
          "name": "",
          "type": "uint256"
        }
      ],
      "name": "eventIds",
      "outputs": [
        {
          "internalType": "uint256",
          "name": "",
          "type": "uint256"
        }
      ],
      "stateMutability": "view",
      "type": "function"
    },
    {
      "inputs": [
        {
          "internalType": "uint256",
          "name": "",
          "type": "uint256"
        }
      ],
      "name": "events",
      "outputs": [
        {
          "internalType": "string",
          "name": "name",
          "type": "string"
        },
        {
          "internalType": "uint256",
          "name": "result",
          "type": "uint256"
        },
        {
          "internalType": "string",
          "name": "urlOracle",
          "type": "string"
        },
        {
          "internalType": "bool",
          "name": "isResolved",
          "type": "bool"
        }
      ],
      "stateMutability": "view",
      "type": "function"
    },
    {
      "inputs": [
        {
          "internalType": "address",
          "name": "",
          "type": "address"
        },
        {
          "internalType": "uint256",
          "name": "",
          "type": "uint256"
        }
      ],
      "name": "myEvents",
      "outputs": [
        {
          "internalType": "uint256",
          "name": "",
          "type": "uint256"
        }
      ],
      "stateMutability": "view",
      "type": "function"
    },
    {
      "inputs": [],
      "name": "owner",
      "outputs": [
        {
          "internalType": "address",
          "name": "",
          "type": "address"
        }
      ],
      "stateMutability": "view",
      "type": "function"
    },
    {
      "inputs": [],
      "name": "paused",
      "outputs": [
        {
          "internalType": "bool",
          "name": "",
          "type": "bool"
        }
      ],
      "stateMutability": "view",
      "type": "function"
    },
    {
      "inputs": [
        {
          "internalType": "address",
          "name": "newOwner",
          "type": "address"
        }
      ],
      "name": "transferOwnership",
      "outputs": [],
      "stateMutability": "nonpayable",
      "type": "function"
    },
    {
      "inputs": [
        {
          "internalType": "uint256",
          "name": "_eventId",
          "type": "uint256"
        }
      ],
      "name": "isEventOpen",
      "outputs": [
        {
          "internalType": "bool",
          "name": "success",
          "type": "bool"
        }
      ],
      "stateMutability": "nonpayable",
      "type": "function"
    },
    {
      "inputs": [
        {
          "internalType": "uint256",
          "name": "_eventId",
          "type": "uint256"
        }
      ],
      "name": "isEventClosed",
      "outputs": [
        {
          "internalType": "bool",
          "name": "success",
          "type": "bool"
        }
      ],
      "stateMutability": "nonpayable",
      "type": "function"
    },
    {
      "inputs": [
        {
          "internalType": "uint256[]",
          "name": "_resultSpaceIds",
          "type": "uint256[]"
        },
        {
          "internalType": "string",
          "name": "_urlOracle",
          "type": "string"
        },
        {
          "internalType": "string",
          "name": "_eventName",
          "type": "string"
        }
      ],
      "name": "createEvent",
      "outputs": [
        {
          "internalType": "bool",
          "name": "success",
          "type": "bool"
        }
      ],
      "stateMutability": "payable",
      "type": "function"
    },
    {
      "inputs": [
        {
          "internalType": "uint256",
          "name": "_eventId",
          "type": "uint256"
        }
      ],
      "name": "addLiquidity",
      "outputs": [
        {
          "internalType": "bool",
          "name": "success",
          "type": "bool"
        }
      ],
      "stateMutability": "payable",
      "type": "function"
    },
    {
      "inputs": [
        {
          "internalType": "uint256",
          "name": "_eventId",
          "type": "uint256"
        }
      ],
      "name": "removeLiquidity",
      "outputs": [
        {
          "internalType": "bool",
          "name": "success",
          "type": "bool"
        }
      ],
      "stateMutability": "nonpayable",
      "type": "function"
    },
    {
      "inputs": [
        {
          "internalType": "uint256",
          "name": "_eventId",
          "type": "uint256"
        },
        {
          "internalType": "uint256",
          "name": "_resultSpaceId",
          "type": "uint256"
        },
        {
          "internalType": "uint256",
          "name": "_fractionsAmount",
          "type": "uint256"
        }
      ],
      "name": "buy",
      "outputs": [
        {
          "internalType": "bool",
          "name": "success",
          "type": "bool"
        }
      ],
      "stateMutability": "payable",
      "type": "function"
    },
    {
      "inputs": [
        {
          "internalType": "uint256",
          "name": "_eventId",
          "type": "uint256"
        },
        {
          "internalType": "uint256",
          "name": "_resultSpaceId",
          "type": "uint256"
        },
        {
          "internalType": "uint256",
          "name": "_fractionsAmount",
          "type": "uint256"
        }
      ],
      "name": "sell",
      "outputs": [
        {
          "internalType": "bool",
          "name": "success",
          "type": "bool"
        }
      ],
      "stateMutability": "nonpayable",
      "type": "function"
    },
    {
      "inputs": [
        {
          "internalType": "uint256",
          "name": "_eventId",
          "type": "uint256"
        },
        {
          "internalType": "uint256",
          "name": "_resultSpaceId",
          "type": "uint256"
        },
        {
          "internalType": "uint256",
          "name": "_fractionsAmount",
          "type": "uint256"
        }
      ],
      "name": "getSlipageOnSell",
      "outputs": [
        {
          "internalType": "uint256",
          "name": "slipage",
          "type": "uint256"
        }
      ],
      "stateMutability": "view",
      "type": "function"
    },
    {
      "inputs": [
        {
          "internalType": "uint256",
          "name": "_eventId",
          "type": "uint256"
        },
        {
          "internalType": "uint256",
          "name": "_resultSpaceId",
          "type": "uint256"
        },
        {
          "internalType": "uint256",
          "name": "_fractionsAmount",
          "type": "uint256"
        }
      ],
      "name": "getSlipageOnBuy",
      "outputs": [
        {
          "internalType": "uint256",
          "name": "slipage",
          "type": "uint256"
        }
      ],
      "stateMutability": "view",
      "type": "function"
    },
    {
      "inputs": [
        {
          "internalType": "uint256",
          "name": "_eventId",
          "type": "uint256"
        },
        {
          "internalType": "uint256",
          "name": "_resultSpaceId",
          "type": "uint256"
        },
        {
          "internalType": "uint256",
          "name": "_fractionsAmount",
          "type": "uint256"
        }
      ],
      "name": "getFractionsCost",
      "outputs": [
        {
          "internalType": "uint256",
          "name": "",
          "type": "uint256"
        }
      ],
      "stateMutability": "view",
      "type": "function"
    },
    {
      "inputs": [
        {
          "internalType": "uint256",
          "name": "_eventId",
          "type": "uint256"
        },
        {
          "internalType": "uint256",
          "name": "_resultSpaceId",
          "type": "uint256"
        },
        {
          "internalType": "uint256",
          "name": "_fractionsAmount",
          "type": "uint256"
        }
      ],
      "name": "pullFractions",
      "outputs": [
        {
          "internalType": "bool",
          "name": "success",
          "type": "bool"
        }
      ],
      "stateMutability": "nonpayable",
      "type": "function"
    },
    {
      "inputs": [
        {
          "internalType": "uint256",
          "name": "_eventId",
          "type": "uint256"
        },
        {
          "internalType": "uint256",
          "name": "_resultSpaceId",
          "type": "uint256"
        },
        {
          "internalType": "uint256",
          "name": "_fractionsAmount",
          "type": "uint256"
        }
      ],
      "name": "pushFractions",
      "outputs": [
        {
          "internalType": "bool",
          "name": "success",
          "type": "bool"
        }
      ],
      "stateMutability": "nonpayable",
      "type": "function"
    },
    {
      "inputs": [
        {
          "internalType": "uint256",
          "name": "_eventId",
          "type": "uint256"
        },
        {
          "internalType": "uint256",
          "name": "_resultId",
          "type": "uint256"
        }
      ],
      "name": "resolveEvent",
      "outputs": [
        {
          "internalType": "bool",
          "name": "success",
          "type": "bool"
        }
      ],
      "stateMutability": "nonpayable",
      "type": "function"
    },
    {
      "inputs": [
        {
          "internalType": "uint256",
          "name": "_eventId",
          "type": "uint256"
        },
        {
          "internalType": "uint256",
          "name": "_resultSpaceId",
          "type": "uint256"
        }
      ],
      "name": "withdrawWins",
      "outputs": [
        {
          "internalType": "bool",
          "name": "success",
          "type": "bool"
        }
      ],
      "stateMutability": "nonpayable",
      "type": "function"
    },
    {
      "inputs": [],
      "name": "getEvents",
      "outputs": [
        {
          "internalType": "uint256[]",
          "name": "event_ids",
          "type": "uint256[]"
        }
      ],
      "stateMutability": "view",
      "type": "function"
    },
    {
      "inputs": [
        {
          "internalType": "uint256",
          "name": "_eventId",
          "type": "uint256"
        }
      ],
      "name": "getEventData",
      "outputs": [
        {
          "internalType": "string",
          "name": "",
          "type": "string"
        },
        {
          "internalType": "uint256",
          "name": "",
          "type": "uint256"
        },
        {
          "internalType": "string",
          "name": "",
          "type": "string"
        },
        {
          "internalType": "bool",
          "name": "",
          "type": "bool"
        }
      ],
      "stateMutability": "view",
      "type": "function"
    },
    {
      "inputs": [
        {
          "internalType": "uint256",
          "name": "_eventId",
          "type": "uint256"
        },
        {
          "internalType": "uint256",
          "name": "resultSpace_id",
          "type": "uint256"
        }
      ],
      "name": "getResultSpaceData",
      "outputs": [
        {
          "internalType": "uint256",
          "name": "_id",
          "type": "uint256"
        },
        {
          "internalType": "uint256",
          "name": "_resultId",
          "type": "uint256"
        },
        {
          "internalType": "uint256",
          "name": "_pool",
          "type": "uint256"
        },
        {
          "internalType": "uint256",
          "name": "_cost",
          "type": "uint256"
        },
        {
          "internalType": "uint256",
          "name": "_odd",
          "type": "uint256"
        },
        {
          "internalType": "uint256",
          "name": "_amount",
          "type": "uint256"
        },
        {
          "internalType": "uint256",
          "name": "_in",
          "type": "uint256"
        },
        {
          "internalType": "uint256",
          "name": "_out",
          "type": "uint256"
        },
        {
          "internalType": "uint256",
          "name": "_fees",
          "type": "uint256"
        },
        {
          "internalType": "uint256",
          "name": "_liqAmount",
          "type": "uint256"
        }
      ],
      "stateMutability": "view",
      "type": "function"
    },
    {
      "inputs": [],
      "name": "getMyEvents",
      "outputs": [
        {
          "internalType": "uint256[]",
          "name": "",
          "type": "uint256[]"
        }
      ],
      "stateMutability": "view",
      "type": "function"
    },
    {
      "inputs": [
        {
          "internalType": "uint256",
          "name": "_eventId",
          "type": "uint256"
        }
      ],
      "name": "getMyEventHoldings",
      "outputs": [
        {
          "internalType": "uint256",
          "name": "",
          "type": "uint256"
        },
        {
          "internalType": "uint256",
          "name": "",
          "type": "uint256"
        },
        {
          "internalType": "uint256",
          "name": "",
          "type": "uint256"
        },
        {
          "internalType": "uint256",
          "name": "",
          "type": "uint256"
        },
        {
          "internalType": "uint256",
          "name": "",
          "type": "uint256"
        },
        {
          "internalType": "uint256",
          "name": "",
          "type": "uint256"
        }
      ],
      "stateMutability": "view",
      "type": "function"
    },
    {
      "inputs": [
        {
          "internalType": "address",
          "name": "_tokenAddress",
          "type": "address"
        },
        {
          "internalType": "address",
          "name": "_to",
          "type": "address"
        }
      ],
      "name": "removeOtherERC20Tokens",
      "outputs": [],
      "stateMutability": "nonpayable",
      "type": "function"
    }
  ],
  "bytecode": "0x608060405260006001556127106002556298968060035534801561002257600080fd5b506000805433610100026001600160a81b03199091161790556130848061004a6000396000f3fe6080604052600436106101c25760003560e01c806370f7ae95116100f7578063a8c776a111610095578063d3c9727c11610064578063d3c9727c1461092a578063e13a7d1114610960578063e682e9ad14610996578063f2fde38b146109c6576101c2565b8063a8c776a114610808578063ad5145af1461083e578063bf3edf7e146108be578063cccbcc7c146108f4576101c2565b8063998f6ac0116100d1578063998f6ac0146107545780639c8f9f231461077e5780639d9bbde7146107a8578063a25e6ab2146107de576101c2565b806370f7ae95146106bc5780638da5cb5b146106e6578063917c854d14610717576101c2565b806340993b261161016457806351c6590a1161013e57806351c6590a146104a957806354549f96146104c65780635c975abb1461067757806364f664671461068c576101c2565b806340993b26146104095780634392bb68146104465780635096865714610470576101c2565b806321c3c4be116101a057806321c3c4be1461031d578063262f92d21461037a5780633548124b1461038f578063404aa8f9146103f4576101c2565b806308888c0a146101c7578063089cdd0c146101ee5780630b79143014610203575b600080fd5b3480156101d357600080fd5b506101dc6109f9565b60408051918252519081900360200190f35b3480156101fa57600080fd5b506101dc6109ff565b34801561020f57600080fd5b5061022d6004803603602081101561022657600080fd5b5035610a05565b60405180806020018581526020018060200184151515158152602001838103835287818151815260200191508051906020019080838360005b8381101561027e578181015183820152602001610266565b50505050905090810190601f1680156102ab5780820380516001836020036101000a031916815260200191505b50838103825285518152855160209182019187019080838360005b838110156102de5781810151838201526020016102c6565b50505050905090810190601f16801561030b5780820380516001836020036101000a031916815260200191505b50965050505050505060405180910390f35b34801561032957600080fd5b506103476004803603602081101561034057600080fd5b5035610b47565b604080519687526020870195909552858501939093526060850191909152608084015260a0830152519081900360c00190f35b34801561038657600080fd5b506101dc610bb5565b34801561039b57600080fd5b506103a4610bbb565b60408051602080825283518183015283519192839290830191858101910280838360005b838110156103e05781810151838201526020016103c8565b505050509050019250505060405180910390f35b34801561040057600080fd5b506103a4610c1d565b6104326004803603606081101561041f57600080fd5b5080359060208101359060400135610c73565b604080519115158252519081900360200190f35b34801561045257600080fd5b5061022d6004803603602081101561046957600080fd5b5035610f4d565b34801561047c57600080fd5b506101dc6004803603604081101561049357600080fd5b506001600160a01b0381351690602001356110d5565b610432600480360360208110156104bf57600080fd5b5035611103565b610432600480360360608110156104dc57600080fd5b8101906020810181356401000000008111156104f757600080fd5b82018360208201111561050957600080fd5b8035906020019184602083028401116401000000008311171561052b57600080fd5b919080806020026020016040519081016040528093929190818152602001838360200280828437600092019190915250929594936020810193503591505064010000000081111561057b57600080fd5b82018360208201111561058d57600080fd5b803590602001918460018302840111640100000000831117156105af57600080fd5b91908080601f016020809104026020016040519081016040528093929190818152602001838380828437600092019190915250929594936020810193503591505064010000000081111561060257600080fd5b82018360208201111561061457600080fd5b8035906020019184600183028401116401000000008311171561063657600080fd5b91908080601f0160208091040260200160405190810160405280939291908181526020018383808284376000920191909152509295506114d6945050505050565b34801561068357600080fd5b5061043261179b565b34801561069857600080fd5b50610432600480360360408110156106af57600080fd5b50803590602001356117a4565b3480156106c857600080fd5b50610432600480360360208110156106df57600080fd5b503561183f565b3480156106f257600080fd5b506106fb61185e565b604080516001600160a01b039092168252519081900360200190f35b34801561072357600080fd5b506107526004803603604081101561073a57600080fd5b506001600160a01b0381358116916020013516611872565b005b34801561076057600080fd5b506101dc6004803603602081101561077757600080fd5b503561198c565b34801561078a57600080fd5b50610432600480360360208110156107a157600080fd5b50356119aa565b3480156107b457600080fd5b50610432600480360360608110156107cb57600080fd5b5080359060208101359060400135611e3c565b3480156107ea57600080fd5b506104326004803603602081101561080157600080fd5b503561202c565b34801561081457600080fd5b506101dc6004803603606081101561082b57600080fd5b5080359060208101359060400135612045565b34801561084a57600080fd5b5061086e6004803603604081101561086157600080fd5b5080359060200135612148565b604080519a8b5260208b0199909952898901979097526060890195909552608088019390935260a087019190915260c086015260e085015261010084015261012083015251908190036101400190f35b3480156108ca57600080fd5b506101dc600480360360608110156108e157600080fd5b5080359060208101359060400135612246565b34801561090057600080fd5b506104326004803603606081101561091757600080fd5b5080359060208101359060400135612312565b34801561093657600080fd5b506104326004803603606081101561094d57600080fd5b5080359060208101359060400135612577565b34801561096c57600080fd5b506101dc6004803603606081101561098357600080fd5b50803590602081013590604001356128cc565b3480156109a257600080fd5b50610432600480360360408110156109b957600080fd5b50803590602001356129c4565b3480156109d257600080fd5b50610752600480360360208110156109e957600080fd5b50356001600160a01b0316612c4a565b60025481565b60015481565b60056020908152600091825260409182902080548351601f60026000196101006001861615020190931692909204918201849004840281018401909452808452909291839190830182828015610a9c5780601f10610a7157610100808354040283529160200191610a9c565b820191906000526020600020905b815481529060010190602001808311610a7f57829003601f168201915b505050506002838101546003850180546040805160206001841615610100026000190190931695909504601f810183900483028601830190915280855295969295929450909190830182828015610b345780601f10610b0957610100808354040283529160200191610b34565b820191906000526020600020905b815481529060010190602001808311610b1757829003601f168201915b5050506004909301549192505060ff1684565b60009081526005602090815260408083206001808552018252808320600284528184203385526008808301855283862054600b808501875285882054600e95860188528689205493850188528689205491850188528689205495909401909652939095205492959094939290565b60035481565b33600090815260066020908152604091829020805483518184028101840190945280845260609392830182828015610c1257602002820191906000526020600020905b815481526020019060010190808311610bfe575b505050505090505b90565b60606004805480602002602001604051908101604052809291908181526020018280548015610c125760200282019190600052602060002090815481526020019060010190808311610bfe575050505050905090565b6000610c7e8461202c565b610c8757600080fd5b60008211610cd3576040805162461bcd60e51b81526020600482015260146024820152730416d6f756e742068617320746f206265203e20360641b604482015290519081900360640190fd5b600183811415610ce1575060025b60008581526005602090815260408083208484526001019091528082208683529082209091610d11888888612246565b60038301549091506000610d268a8a8a612045565b905060038110610d7d576040805162461bcd60e51b815260206004820152601d60248201527f536c69706167652068617320746f206265206c657373207468616e2033000000604482015290519081900360640190fd5b823414610dbb5760405162461bcd60e51b81526004018080602001828103825260288152602001806130276028913960400191505060405180910390fd5b6002840154610dd0908463ffffffff612cdf16565b6002808601829055805490870154610dff9291610df3919063ffffffff612d4216565b9063ffffffff612d9b16565b6002805491909101600486015585810154815491860154610e2a92610df3919063ffffffff612d4216565b60028054919091016004870155600585015490850154610e4f9163ffffffff612d9b16565b600385015560058501546002860154610e6d9163ffffffff612d9b16565b60038601556007840154889015610eaf576007850154610eac90610e9890859063ffffffff612d9b16565b60078701549060010363ffffffff612d9b16565b90505b6007850154610ec590829063ffffffff612e0216565b33600081815260088801602090815260408083209490945560078901859055600681528382208054600181018255908352918190209091018e905582518c8152908101869052825191928d928f927f09128000766ebce884c5ac8e461927d01432ce7f518e74a16b4606728d2c016192908290030190a45060019a9950505050505050505050565b6060600060606000610f5d612e5f565b6000868152600560209081526040918290208251815460026001821615610100026000190190911604601f8101849004909302810160a090810190945260808101838152909391928492849190840182828015610ffb5780601f10610fd057610100808354040283529160200191610ffb565b820191906000526020600020905b815481529060010190602001808311610fde57829003601f168201915b505050918352505060028281015460208084019190915260038401805460408051601f6000196101006001861615020190931695909504918201849004840285018401815281855290940193909183018282801561109a5780601f1061106f5761010080835404028352916020019161109a565b820191906000526020600020905b81548152906001019060200180831161107d57829003601f168201915b50505091835250506004919091015460ff16151560209182015281519082015160408301516060909301519199909850919650945092505050565b600660205281600052604060002081815481106110ee57fe5b90600052602060002001600091509150505481565b600061110e8261202c565b61111757600080fd5b60003411611163576040805162461bcd60e51b81526020600482015260146024820152730416d6f756e742068617320746f206265203e20360641b604482015290519081900360640190fd5b600082815260056020908152604080832060018085520190915280822060028352908220909180808060326111b16111a06064610df33485612d42565b60028801549063ffffffff612cdf16565b94506111dc6111cb6064610df3348563ffffffff612d4216565b60028901549063ffffffff612cdf16565b600287015460058801549195506111fe91610df390889063ffffffff612d4216565b6002880154600589015491945061122091610df390879063ffffffff612d4216565b60028088018790558801859055600587015490925060009061124990859063ffffffff612e0216565b600589015490915060009061126590859063ffffffff612e0216565b6006890154909150600090611280908463ffffffff612cdf16565b60068b015490915060009061129b908463ffffffff612cdf16565b60078b015490915084908490156112cf5760068c015460078d01546112cc9190610df390879063ffffffff612d4216565b91505b60078d0154156112fc5760068d015460078e01546112f99190610df390869063ffffffff612d4216565b90505b6006808d018590558d0183905560078c01546113419061132390849063ffffffff612e0216565b33600090815260088f0160205260409020549063ffffffff612cdf16565b33600090815260088e01602052604090205560078d01546113a69061136d90839063ffffffff612e0216565b8e6002016006016000336001600160a01b03166001600160a01b0316815260200190815260200160002054612cdf90919063ffffffff16565b33600090815260088f016020908152604080832093909355600e8f01905220546113d6908763ffffffff612cdf16565b8c600201600c016000336001600160a01b03166001600160a01b0316815260200190815260200160002081905550611441858e600201600c016000336001600160a01b03166001600160a01b0316815260200190815260200160002054612cdf90919063ffffffff16565b336000908152600e8f0160205260409020556007808d018390558d018190556005808d018a90558d01889055600d8c0154611482908763ffffffff612cdf16565b600d8d01819055611499908663ffffffff612cdf16565b600d909d019c909c555050336000908152600660209081526040822080546001810182559083529120019b909b5550979998505050505050505050565b6000805461010090046001600160a01b031633146114f357600080fd5b8351600214611549576040805162461bcd60e51b815260206004820152601b60248201527f526573756c7420537061636573206e65656420746f2062652032200000000000604482015290519081900360640190fd5b60035484516001916064029060009061156f908390610df390349063ffffffff612d9b16565b9050600081116115b05760405162461bcd60e51b81526004018080602001828103825260238152602001806130046023913960400191505060405180910390fd5b6001546000908152600560209081526040909120865190916115d6918391890190612e89565b5086516115ec90600383019060208a0190612e89565b5060048101805460ff1916905560005b88518110156116c85760008581526001808401602052604090912090810186905589518a908390811061162b57fe5b602090810291909101015181558951600282019061165090349063ffffffff612d9b16565b81556001808201869055600280548d5102908301556003820187905560048201879055600582018790556000600783018190556008808401829055600a8401829055600b90930181905597810180895285820160209081526040808b20308c52909401905291909720869055959190910190506115fc565b50600180546004805492830181556000527f8a35acfbc15ff81a39ae7d344fd709f28e8600b4aa8c65c6b64bfe7fe36bd19b909101556040518651879190819060208401908083835b602083106117305780518252601f199092019160209182019101611711565b5181516020939093036101000a60001901801990911692169190911790526040519201829003822060015490945092507f8b7268e8dbd7df43241ab8ae5931d26060053d65b418b03db1e68394dcfcb4cd9160009150a3505060018054810181559695505050505050565b60005460ff1690565b6000805461010090046001600160a01b031633146117c157600080fd5b6117ca8361202c565b6117d357600080fd5b6000821180156117e35750600382105b6117ec57600080fd5b60008381526005602052604080822060028101859055600401805460ff1916600117905551839185917f64e412f8b311be0c82113c299c4caf4b603bab21860146dae45a259bdb7cd3679190a392915050565b60008181526005602052604090206004015460ff161515600114919050565b60005461010090046001600160a01b031681565b60005461010090046001600160a01b0316331461188e57600080fd5b604080516370a0823160e01b8152306004820152905183916001600160a01b0383169163a9059cbb91859184916370a08231916024808301926020929190829003018186803b1580156118e057600080fd5b505afa1580156118f4573d6000803e3d6000fd5b505050506040513d602081101561190a57600080fd5b5051604080516001600160e01b031960e086901b1681526001600160a01b03909316600484015260248301919091525160448083019260209291908290030181600087803b15801561195b57600080fd5b505af115801561196f573d6000803e3d6000fd5b505050506040513d602081101561198557600080fd5b5050505050565b6004818154811061199957fe5b600091825260209091200154905081565b6000818152600560209081526040808320600180855201825280832060028452818420338552600e810190935290832054909190611a2f576040805162461bcd60e51b815260206004820152601e60248201527f4c69717569646974792068617320746f20626967676572207468616e20300000604482015290519081900360640190fd5b336000908152600e83016020526040902054611a92576040805162461bcd60e51b815260206004820152601e60248201527f4c69717569646974792068617320746f20626967676572207468616e20300000604482015290519081900360640190fd5b60058101546002820154336000908152600e84016020526040812054909283928392611ac99291610df3919063ffffffff612d4216565b60058601546002870154336000908152600e8901602052604081205493945092611afe9291610df3919063ffffffff612d4216565b6002860154909150611b16908363ffffffff612e0216565b600280870191909155860154611b32908263ffffffff612e0216565b6002870155336000908152600e860160205260409020546005860154611b5d9163ffffffff612e0216565b600580870191909155336000908152600e8801602052604090205490870154611b8b9163ffffffff612e0216565b6005870155336000908152600e860160205260408120546006870154611bb69163ffffffff612e0216565b336000908152600e8901602052604081205460068a01549293509091611be19163ffffffff612e0216565b60068801546007890154919250600091611c069190610df3908663ffffffff612d4216565b60068a015460078b0154919250600091611c2b9190610df3908663ffffffff612d4216565b60078a015460068b015433600090815260088d01602052604081205493945092611c609291610df3919063ffffffff612d4216565b60078c015460068d015433600090815260088f01602052604081205493945092611c959291610df3919063ffffffff612d4216565b336000908152600e8d016020526040902054909150611cd2908790610df390611cc590869063ffffffff612e0216565b879063ffffffff612d4216565b33600090815260088d016020908152604080832093909355600e8f0190522054611d1a908690610df390611d0d90859063ffffffff612e0216565b869063ffffffff612d4216565b33600090815260088e01602090815260408083209390935560068e81018a90558f018890556007808f018890558f01869055600e8e0190522054600d8c0154611d689163ffffffff612e0216565b600d808d0191909155336000908152600e8e016020526040902054908d0154611d969163ffffffff612e0216565b600d8d0155336000908152600e808d0160209081526040808420849055918f019052812081905560038d0154611df990611dd7908a9063ffffffff612d4216565b60038e0154611ded908c9063ffffffff612d4216565b9063ffffffff612cdf16565b604051909150339082156108fc029083906000818181858888f19350505050158015611e29573d6000803e3d6000fd5b5050505050505050505050505050919050565b6000611e478461202c565b611e5057600080fd5b60008211611e9c576040805162461bcd60e51b81526020600482015260146024820152730416d6f756e742068617320746f206265203e20360641b604482015290519081900360640190fd5b600084815260056020908152604080832086845260010190915281206009810154600a820154919291611edb9190610df390879063ffffffff612d4216565b336000908152600b840160205260409020549091508110611f43576040805162461bcd60e51b815260206004820152601c60248201527f4e6f2042616c616e636520746f2050756c6c204672616374696f6e7300000000604482015290519081900360640190fd5b336000908152600b83016020526040902054611f65908263ffffffff612e0216565b336000908152600b840160205260409020556009820154611f8c908563ffffffff612e0216565b6009830155600a820154611fa6908263ffffffff612e0216565b600a8301556006820154600090611fc3908663ffffffff612cdf16565b60068401546007850154919250600091611fe89190610df3908563ffffffff612d4216565b600785015490915061200190829063ffffffff612e0216565b3360009081526008860160205260409020556007840155600690920191909155506001949350505050565b60009081526005602052604090206004015460ff161590565b600061204f612f07565b5060008481526005602081815260408084208785526001908101835281852082516060808201855282548252928201548186015283516101408101855260028301548152600383015495810195909552600482015485850152948101549184019190915260068101546080840152600781015460a0840152600981015460c0840152600a81015460e0840152600c810154610100840152600d0154610120830152820152906120ff868686612246565b6040830151606081015190519192506000916121269190610df3908563ffffffff612e0216565b905061213d81610df384606463ffffffff612d4216565b979650505050505050565b60008060008060008060008060008061215f612f07565b5050506000998a525050600560208181526040808b20998b526001998a018252998a90208a5160608082018d52825482529a8201548184019081528c5161014081018e526002840154815260038401549481019485526004840154818f01908152958401549c81019c8d52600684015460808201908152600785015460a0830152600985015460c08301908152600a86015460e0840152600c8601546101008401908152600d9096015461012084019081529f8501839052935192519151955196519d519051935194519e51929f919e959d969c50959a5094985090965090945090925090565b6000612250612f07565b5060008481526005602081815260408084208785526001908101835293819020815160608082018452825482529582015481850152825161014081018452600283015481526003830154948101948552600483015481850152948201549585019590955260068101546080850152600781015460a0850152600981015460c0850152600a81015460e0850152600c810154610100850152600d01546101208401528301919091525161230990849063ffffffff612d4216565b95945050505050565b600061231d8461202c565b61232657600080fd5b60008211612372576040805162461bcd60e51b81526020600482015260146024820152730416d6f756e742068617320746f206265203e20360641b604482015290519081900360640190fd5b60008481526005602090815260408083208684526001019091528120600681015460078201549192916123b19190610df390879063ffffffff612d4216565b3360009081526008840160205260409020549091508110612419576040805162461bcd60e51b815260206004820152601c60248201527f4e6f2042616c616e636520746f2050756c6c204672616374696f6e7300000000604482015290519081900360640190fd5b60068201543360009081526008840160205260408120546007850154919261244d929091610df3919063ffffffff612d4216565b905080851061248d5760405162461bcd60e51b8152600401808060200182810382526048815260200180612fbc6048913960600191505060405180910390fd5b3360009081526008840160205260409020546124af908363ffffffff612e0216565b33600090815260088501602052604090205560068301546124d6908663ffffffff612e0216565b600684015560078301546124f0908363ffffffff612e0216565b6007840155600983015460009061250d908763ffffffff612cdf16565b6009850154600a8601549192506000916125329190610df3908563ffffffff612d4216565b600a86015490915061254b90829063ffffffff612e0216565b336000908152600b87016020526040902055600a85015560099093019290925550600195945050505050565b60006125828461202c565b61258b57600080fd5b600082116125d7576040805162461bcd60e51b81526020600482015260146024820152730416d6f756e742068617320746f206265203e20360641b604482015290519081900360640190fd5b600084815260056020908152604080832086845260019081019092529091209084811415612603575060025b600086815260056020908152604080832084845260010190915281206009840154600a8501549192916126429190610df390899063ffffffff612d4216565b336000908152600b8601602052604090205490915081106126aa576040805162461bcd60e51b815260206004820152601760248201527f4e6f2042616c616e636520746f204c6971756964617465000000000000000000604482015290519081900360640190fd5b60006126b78989896128cc565b90506003811061270e576040805162461bcd60e51b815260206004820152601d60248201527f536c69706167652068617320746f206265206c657373207468616e2033000000604482015290519081900360640190fd5b600385015460009061272790899063ffffffff612d4216565b336000908152600b8801602052604090205490915061274c908463ffffffff612e0216565b336000908152600b880160205260409020556009860154612773908963ffffffff612e0216565b6009870155600a86015461278d908463ffffffff612e0216565b600a87015560068601546127a7908963ffffffff612cdf16565b600687015560028601546127c1908263ffffffff612e0216565b60028088018290558054908601546127e49291610df3919063ffffffff612d4216565b600280549190910160048801558481015481549188015461280f92610df3919063ffffffff612d4216565b600280549190910160048601556005870154908701546128349163ffffffff612d9b16565b6003870155600584015460028501546128529163ffffffff612d9b16565b6003850155604051339082156108fc029083906000818181858888f19350505050158015612884573d6000803e3d6000fd5b5060408051828152905133918c917f5510da23a90d54e35ddff683d35a6e64dd363c19c189b94ff402ffc99a8cc2749181900360200190a35060019998505050505050505050565b60006128d6612f07565b5060008481526005602081815260408084208785526001908101835281852082516060808201855282548252928201548186015283516101408101855260028301548152600383015495810195909552600482015485850152948101549184019190915260068101546080840152600781015460a0840152600981015460c0840152600a81015460e0840152600c810154610100840152600d015461012083015282015290612986868686612246565b6040830151606081015190519192506000916129ad9190610df3908563ffffffff612e0216565b905061213d82610df383606463ffffffff612d4216565b60006129cf8361183f565b612a19576040805162461bcd60e51b8152602060048201526016602482015275115d995b9d081a185cc81d1bc818994818db1bdcd95960521b604482015290519081900360640190fd5b600083815260056020818152604080842086855260018101835290842093879052919052600201548314612a94576040805162461bcd60e51b815260206004820152601e60248201527f526573756c74205370616365206973206e6f74207468652077696e6e65720000604482015290519081900360640190fd5b336000908152600f8201602052604090205460ff1615612af3576040805162461bcd60e51b81526020600482015260156024820152742bb4b73734b7339030b63932b0b23c903a30b5b2b760591b604482015290519081900360640190fd5b600781015460068201543360009081526008840160205260408120549092612b26929091610df39163ffffffff612d4216565b600a8301546009840154336000908152600b8601602052604081205493945092612b5b9291610df3919063ffffffff612d4216565b90506000612ba6612b79600354600254612d4290919063ffffffff16565b60048601546003870154610df39190612b9a9081888a63ffffffff612cdf16565b9063ffffffff612d4216565b604051909150339082156108fc029083906000818181858888f19350505050158015612bd6573d6000803e3d6000fd5b5060008781526005602090815260408083208984526001908101835281842033808652600f909101845293829020805460ff19169091179055805184815290518a927fa62bf33e3860a18b08244c1b59b8aa4920be374252eb534e0ab47d5f7a18ca18928290030190a35050505092915050565b60005461010090046001600160a01b03163314612c6657600080fd5b6001600160a01b038116612c7957600080fd5b600080546040516001600160a01b038085169361010090930416917f8be0079c531659141344cd1fd0a4f28419497f9722a3daafe3b4186f6b6457e091a3600080546001600160a01b0390921661010002610100600160a81b0319909216919091179055565b600082820183811015612d39576040805162461bcd60e51b815260206004820152601b60248201527f536166654d6174683a206164646974696f6e206f766572666c6f770000000000604482015290519081900360640190fd5b90505b92915050565b600082612d5157506000612d3c565b82820282848281612d5e57fe5b0414612d395760405162461bcd60e51b8152600401808060200182810382526021815260200180612f9b6021913960400191505060405180910390fd5b6000808211612df1576040805162461bcd60e51b815260206004820152601a60248201527f536166654d6174683a206469766973696f6e206279207a65726f000000000000604482015290519081900360640190fd5b818381612dfa57fe5b049392505050565b600082821115612e59576040805162461bcd60e51b815260206004820152601e60248201527f536166654d6174683a207375627472616374696f6e206f766572666c6f770000604482015290519081900360640190fd5b50900390565b60405180608001604052806060815260200160008152602001606081526020016000151581525090565b828054600181600116156101000203166002900490600052602060002090601f016020900481019282601f10612eca57805160ff1916838001178555612ef7565b82800160010185558215612ef7579182015b82811115612ef7578251825591602001919060010190612edc565b50612f03929150612f2d565b5090565b60405180606001604052806000815260200160008152602001612f28612f47565b905290565b610c1a91905b80821115612f035760008155600101612f33565b60405180610140016040528060008152602001600081526020016000815260200160008152602001600081526020016000815260200160008152602001600081526020016000815260200160008152509056fe536166654d6174683a206d756c7469706c69636174696f6e206f766572666c6f77416d6f756e74206f66204672616374696f6e73206f757473696465206f66206c6971756964697479206861766520746f20626520626967676572207468616e2070726f706f736564496e697469616c204672616374696f6e20436f73742068617320746f206265203e203054782076616c75652068617320746f20626520657175616c20746f2070617961626c652073656e74a2646970667358221220d048fb33aa930d9528df38faf3a4812d2d52aa2c8c13a01ccdbc4fd9dc3703d364736f6c63430006020033",
  "source": "// SPDX-License-Identifier: MIT\n\npragma solidity >=0.6.0;\n\nimport \"@openzeppelin/contracts/token/ERC20/ERC20.sol\";\nimport \"@openzeppelin/contracts/utils/Pausable.sol\";\nimport \"./utils/Ownable.sol\";\n\ncontract Exchange is Pausable, Ownable {\n   \n    using SafeMath for uint256;\n\n    uint256 public eventId = 0;\n    uint256 public ODD_DECIMALS = 10**4; // 1*10**4 = 10000 => 1.000\n    uint256 public CURRENCY_DECIMALS = 10**7; \n    uint256[] public eventIds;\n    mapping(uint256 => Event) public events;\n    mapping(address => uint256[]) public myEvents;\n\n \n    struct Fraction {\n        uint256 pool;           /* (Pool) Total pool amount (ETH in WEI) */\n        uint256 cost;           /* (VF) Fraction Cost (ETH in WEI) */\n        uint256 odd;            /* (Odd) Odd of Fraction (in 10**4) (ex : 2.410 = 2410) */\n        /* IN + OUT */\n        uint256 amount;         /* (#F) Total amount of fractions (in 10**18)  */\n        /* IN */\n        uint256 inPool;                 /* (In) Total amount Absolute of fractions in pool (in 10**18) */\n        uint256 relIn;            /* (#In) Relative amount of fractions in pool (in 10**18) */\n        mapping(address => uint256) inPoolBalances;   /* (#In[]) Relative amount of fractions in pool per address (in 10**18)*/\n        /* OUT */\n        uint256 outPool;                 /* (Out) Total amount of fractions off pool (in 10**18) */\n        uint256 relOut;            /* (#Out) Relative amount of fractions off pool (in 10**18) */\n        mapping(address => uint256) outPoolBalances;   /* (#Out[])Relative amount of fractions off pool per address (in 10**18)*/\n        /* Fees */\n        uint256 fees;                       /* Absolute Amount of Fees available (in 10**18)  */\n        uint256 liqAmount;                      /* Absolute Amount of Fractions in liquidity */\n        mapping(address => uint256) liquidity;  /* Liquidity of Address - absolute values */\n        // TO DO : Use fees for something\n    }\n\n    struct ResultSpace {\n        uint256 id;                         /* Result Space External ID - IPFS Mapping*/\n        uint256 resultId;                   /* Result Space ID */\n        Fraction fraction;                  /* Amount of Fractions existent */\n        mapping(address => bool) tookWinnings; /* See if Winnings were taken */\n    }\n\n    struct Event {\n        string name; /* Event name */\n        mapping(uint256 => ResultSpace) resultSpaces;\n        uint256 result; /* result space id (when finalized) */\n        string urlOracle; /* URL that determines the result */\n        bool isResolved; /* If Resolved */\n    }    \n\n    event CreateEvent(uint256 indexed id, string indexed name);\n    event BuyEvent(uint256 indexed id, uint256 indexed resultSpaceId, uint256 fractionAmount, uint256 fractionCost, address indexed buyer);\n    event CloseEvent(uint256 indexed id, uint256 indexed resultSpaceId);\n    event WithdrawEvent(uint256 indexed id, uint256 winAmount, address indexed buyer);\n    event SellEvent(uint256 indexed id, uint256 liquidateAmount, address indexed seller);\n\n    constructor() public {\n       \n    }\n\n    function isEventOpen(uint256 _eventId) public returns (bool success){\n        return (events[_eventId].isResolved == false);\n    }\n\n    function isEventClosed(uint256 _eventId) public returns (bool success){\n        return (events[_eventId].isResolved == true);\n    }\n\n    function createEvent(uint256[] memory _resultSpaceIds /* Descriptions */, string memory _urlOracle, string memory _eventName) payable public onlyOwner returns (bool success) {\n        require(_resultSpaceIds.length == 2, \"Result Spaces need to be 2 \"); \n        uint256 resultId = 1;\n        uint256 fractionAmount = 100*CURRENCY_DECIMALS;\n        uint256 initialFractionCost = msg.value.div(_resultSpaceIds.length).div(fractionAmount); /* Initial Amount */\n        require(initialFractionCost > 0, \"Initial Fraction Cost has to be > 0\"); /* Initial Fraction Cost has to be > 0 */\n\n        /* Create Event */\n        Event storage _event = events[eventId];\n        _event.name = _eventName;\n        _event.urlOracle = _urlOracle;\n        _event.isResolved = false;\n\n        /* Create the Result spaces */\n        for (uint i = 0; i < _resultSpaceIds.length; i++) {\n\n            ResultSpace storage resultSpace = _event.resultSpaces[resultId];\n\n            resultSpace.resultId = resultId;\n            resultSpace.id = _resultSpaceIds[i];\n\n            Fraction storage fraction = resultSpace.fraction;\n            fraction.pool = msg.value.div(_resultSpaceIds.length);\n            fraction.cost = initialFractionCost;\n            fraction.odd = _resultSpaceIds.length*ODD_DECIMALS;\n            fraction.amount = fractionAmount;\n            fraction.inPool = fractionAmount;\n            fraction.relIn = fractionAmount;\n            fraction.outPool = 0;\n            fraction.relOut = 0;\n            fraction.fees = 0;\n            fraction.liqAmount = 0;\n\n            resultId = resultId + 1;\n            _event.resultSpaces[resultId].fraction.inPoolBalances[address(this)] = fractionAmount;\n        }\n\n        eventIds.push(eventId);\n        emit CreateEvent(eventId, _eventName);\n        eventId = eventId + 1;\n        return true;\n    }\n\n    function addLiquidity(uint256 _eventId) payable public returns (bool success) {\n        require(isEventOpen(_eventId));\n        require(msg.value > 0, \"Amount has to be > 0\");\n\n        ResultSpace storage resultSpace_opp = events[_eventId].resultSpaces[1];\n        ResultSpace storage resultSpace = events[_eventId].resultSpaces[2];\n\n        uint256 poolA2 = 0;\n        uint256 poolB2 = 0;\n        uint256 FA2 = 0;\n        uint256 FB2 = 0;\n        uint256 ratio = 50; /* 50% */ // resultSpace_opp.fraction.pool.div(resultSpace.fraction.pool)\n\n        /* Pool A2 */\n        poolA2 = resultSpace.fraction.pool.add(msg.value.mul(ratio).div(100));\n        /* Pool B2 */\n        poolB2 = resultSpace_opp.fraction.pool.add(msg.value.mul(ratio).div(100));\n\n        /* FA2 */\n        FA2 = (poolA2.mul(resultSpace.fraction.amount)).div(resultSpace.fraction.pool);\n        /* FB2 */\n        FB2 = (poolB2.mul(resultSpace_opp.fraction.amount)).div(resultSpace_opp.fraction.pool);\n\n        resultSpace.fraction.pool = poolA2;\n        resultSpace_opp.fraction.pool = poolB2;\n\n        uint256 fractionsToAddA = FA2.sub(resultSpace.fraction.amount);\n        uint256 fractionsToAddB = FB2.sub(resultSpace_opp.fraction.amount);\n\n        uint256 inPoolA2 = resultSpace.fraction.inPool.add(fractionsToAddA);\n        uint256 inPoolB2 = resultSpace_opp.fraction.inPool.add(fractionsToAddB);\n\n        uint256 relIn2 = fractionsToAddA;\n        uint256 relIn2_opp = fractionsToAddB;\n\n        if(resultSpace.fraction.relIn > 0){\n            relIn2 = inPoolA2.mul(resultSpace.fraction.relIn).div(resultSpace.fraction.inPool);\n        }\n        if(resultSpace_opp.fraction.relIn > 0){\n            relIn2_opp = inPoolB2.mul(resultSpace_opp.fraction.relIn).div(resultSpace_opp.fraction.inPool);\n        }        \n\n        /* INA2 */\n        resultSpace.fraction.inPool = inPoolA2;\n        /* INB2 */\n        resultSpace_opp.fraction.inPool = inPoolB2;\n\n        /* INA[]2 */\n        resultSpace.fraction.inPoolBalances[msg.sender] = resultSpace.fraction.inPoolBalances[msg.sender].add(relIn2.sub(resultSpace.fraction.relIn));\n        /* INB[]2 */\n        resultSpace_opp.fraction.inPoolBalances[msg.sender] = resultSpace_opp.fraction.inPoolBalances[msg.sender].add(relIn2_opp.sub(resultSpace_opp.fraction.relIn));\n\n        /* LiqA[]2 */\n        resultSpace.fraction.liquidity[msg.sender] = resultSpace.fraction.liquidity[msg.sender].add(fractionsToAddA);\n        /* LiqB[]2 */\n        resultSpace_opp.fraction.liquidity[msg.sender] = resultSpace_opp.fraction.liquidity[msg.sender].add(fractionsToAddB);\n\n        /* #INA2 */\n        resultSpace.fraction.relIn = relIn2;\n        /* #INB2 */\n        resultSpace_opp.fraction.relIn = relIn2_opp;\n\n        resultSpace.fraction.amount = FA2;\n        resultSpace_opp.fraction.amount = FB2;\n\n        /* Add Liquidity Amount */\n        resultSpace.fraction.liqAmount = resultSpace.fraction.liqAmount.add(fractionsToAddA);\n        resultSpace_opp.fraction.liqAmount = resultSpace.fraction.liqAmount.add(fractionsToAddB);\n        \n        myEvents[msg.sender].push(_eventId);\n    }\n\n    function removeLiquidity(uint256 _eventId) public returns (bool success) {\n\n        ResultSpace storage resultSpace_opp = events[_eventId].resultSpaces[1];\n        ResultSpace storage resultSpace = events[_eventId].resultSpaces[2];\n        \n        require(resultSpace.fraction.liquidity[msg.sender] > 0, \"Liquidity has to bigger than 0\");\n        require(resultSpace_opp.fraction.liquidity[msg.sender] > 0, \"Liquidity has to bigger than 0\");\n\n        uint256 poolA2 = 0;\n        uint256 poolB2 = 0;\n\n        uint256 liqPoolAfromUser = resultSpace.fraction.liquidity[msg.sender].mul(resultSpace.fraction.pool).div(resultSpace.fraction.amount);\n        uint256 liqPoolBfromUser = resultSpace_opp.fraction.liquidity[msg.sender].mul(resultSpace_opp.fraction.pool).div(resultSpace_opp.fraction.amount);\n        \n        /* Pool A2 */\n        resultSpace.fraction.pool = resultSpace.fraction.pool.sub(liqPoolAfromUser);\n        /* Pool B2 */\n        resultSpace_opp.fraction.pool = resultSpace_opp.fraction.pool.sub(liqPoolBfromUser);\n\n        /* FA2 */\n        resultSpace.fraction.amount = resultSpace.fraction.amount.sub(resultSpace.fraction.liquidity[msg.sender]);\n        /* FB2 */\n        resultSpace_opp.fraction.amount = resultSpace_opp.fraction.amount.sub(resultSpace_opp.fraction.liquidity[msg.sender]);\n\n        /* INA2 */\n        uint256 inPoolA2 = resultSpace.fraction.inPool.sub(resultSpace.fraction.liquidity[msg.sender]);\n        /* INB2 */\n        uint256 inPoolB2 = resultSpace_opp.fraction.inPool.sub(resultSpace_opp.fraction.liquidity[msg.sender]);\n\n        /* #INA2 */\n        uint256 relAIn = resultSpace.fraction.relIn.mul(inPoolA2).div(resultSpace.fraction.inPool);\n        /* #INB2 */\n        uint256 relBIn = resultSpace_opp.fraction.relIn.mul(inPoolB2).div(resultSpace_opp.fraction.inPool);\n\n        /* Initial Fractions Amount */\n        uint256 initialFractionsA = resultSpace.fraction.inPoolBalances[msg.sender].mul(resultSpace.fraction.inPool).div(resultSpace.fraction.relIn);\n        uint256 initialFractionsB = resultSpace_opp.fraction.inPoolBalances[msg.sender].mul(resultSpace_opp.fraction.inPool).div(resultSpace_opp.fraction.relIn);\n\n        /* INA[]2 */\n        resultSpace.fraction.inPoolBalances[msg.sender] = relAIn.mul(initialFractionsA.sub(resultSpace.fraction.liquidity[msg.sender])).div(inPoolA2);\n        /* INB[]2 */\n        resultSpace_opp.fraction.inPoolBalances[msg.sender] = relBIn.mul(initialFractionsB.sub(resultSpace_opp.fraction.liquidity[msg.sender])).div(inPoolB2);\n\n        resultSpace.fraction.inPool = inPoolA2;\n        resultSpace_opp.fraction.inPool = inPoolB2;\n\n        resultSpace.fraction.relIn = relAIn;\n        resultSpace_opp.fraction.relIn = relBIn;\n\n        /* Remove Liquidity Amount */\n        resultSpace.fraction.liqAmount = resultSpace.fraction.liqAmount.sub(resultSpace.fraction.liquidity[msg.sender]);\n        resultSpace_opp.fraction.liqAmount = resultSpace_opp.fraction.liqAmount.sub(resultSpace_opp.fraction.liquidity[msg.sender]);\n\n        /* LiqA[]2 */\n        resultSpace.fraction.liquidity[msg.sender] = 0;\n        /* LiqB[]2 */\n        resultSpace_opp.fraction.liquidity[msg.sender] = 0;\n\n        uint256 totalLiquidity = liqPoolAfromUser.mul(resultSpace.fraction.cost).add(liqPoolBfromUser.mul(resultSpace_opp.fraction.cost));\n        /* Remove Liquidity */\n        msg.sender.transfer(totalLiquidity);\n    }\n\n    function buy(uint256 _eventId, uint256 _resultSpaceId, uint256 _fractionsAmount) payable public returns (bool success) {\n        require(isEventOpen(_eventId));\n        require(_fractionsAmount > 0, \"Amount has to be > 0\");\n\n        uint256 _oppResSpaceId = 1;\n        if(_resultSpaceId == 1){_oppResSpaceId = 2;}\n\n        ResultSpace storage resultSpace_opp = events[_eventId].resultSpaces[_oppResSpaceId];\n        ResultSpace storage resultSpace = events[_eventId].resultSpaces[_resultSpaceId];\n\n        uint256 marketValue =  getFractionsCost(_eventId, _resultSpaceId, _fractionsAmount);\n        uint256 previousFractionCost = resultSpace.fraction.cost;\n\n        uint256 slipage = getSlipageOnBuy(_eventId, _resultSpaceId, _fractionsAmount);\n        require(slipage < 3, \"Slipage has to be less than 3\");\n\n        require(msg.value == marketValue, \"Tx value has to be equal to payable sent\"); \n\n        /* Pool A2 */\n        resultSpace.fraction.pool = resultSpace.fraction.pool.add(marketValue);\n        /* Odd A2 */\n        resultSpace.fraction.odd = 1*ODD_DECIMALS + (resultSpace_opp.fraction.pool.mul(ODD_DECIMALS).div(resultSpace.fraction.pool));\n        /* Odd B2 */\n        resultSpace_opp.fraction.odd = 1*ODD_DECIMALS + (resultSpace.fraction.pool.mul(ODD_DECIMALS).div(resultSpace_opp.fraction.pool));\n        /* VF A2 */\n        resultSpace.fraction.cost = resultSpace.fraction.pool.div(resultSpace.fraction.amount);\n        /* VF B2 */\n        resultSpace_opp.fraction.cost = resultSpace_opp.fraction.pool.div(resultSpace_opp.fraction.amount);\n        /* #In A2 */\n        uint256 relIn2 = _fractionsAmount;\n        if(resultSpace.fraction.relIn > 0){\n            relIn2 = resultSpace.fraction.relIn.div(1 - (previousFractionCost.div(resultSpace.fraction.relIn)));\n        }\n        /* #In[] A2 */\n        resultSpace.fraction.inPoolBalances[msg.sender] = relIn2.sub(resultSpace.fraction.relIn);\n        resultSpace.fraction.relIn = relIn2;\n        myEvents[msg.sender].push(_eventId);\n        emit BuyEvent(_eventId, _resultSpaceId, _fractionsAmount, previousFractionCost, msg.sender);\n        return true;\n    }\n\n    function sell(uint256 _eventId, uint256 _resultSpaceId, uint256 _fractionsAmount) public returns (bool success) {\n        require(isEventOpen(_eventId));\n        require(_fractionsAmount > 0, \"Amount has to be > 0\");\n        \n        ResultSpace storage resultSpace = events[_eventId].resultSpaces[_resultSpaceId];\n        uint256 _oppResSpaceId = 1;\n        if(_resultSpaceId == 1){_oppResSpaceId = 2;}\n        ResultSpace storage resultSpace_opp = events[_eventId].resultSpaces[_oppResSpaceId];\n\n        uint256 fractionsAmountRelative = (_fractionsAmount.mul(resultSpace.fraction.relOut)).div(resultSpace.fraction.outPool);\n        require(resultSpace.fraction.outPoolBalances[msg.sender] > fractionsAmountRelative, \"No Balance to Liquidate\");\n\n        uint256 slipage = getSlipageOnSell(_eventId, _resultSpaceId, _fractionsAmount);\n        require(slipage < 3, \"Slipage has to be less than 3\");\n\n        uint256 marketValue = _fractionsAmount.mul(resultSpace.fraction.cost);\n\n        /* #Out[] A2 */\n        resultSpace.fraction.outPoolBalances[msg.sender] = resultSpace.fraction.outPoolBalances[msg.sender].sub(fractionsAmountRelative);\n        /* Out A2 */\n        resultSpace.fraction.outPool = resultSpace.fraction.outPool.sub(_fractionsAmount);\n        /* #Out A2 */\n        resultSpace.fraction.relOut = resultSpace.fraction.relOut.sub(fractionsAmountRelative);\n        /* In A2 */\n        resultSpace.fraction.inPool = resultSpace.fraction.inPool.add(_fractionsAmount);\n        /* Pool A2 */\n        resultSpace.fraction.pool = resultSpace.fraction.pool.sub(marketValue);\n        /* Odd A2 */\n        resultSpace.fraction.odd = 1*ODD_DECIMALS + (resultSpace_opp.fraction.pool.mul(ODD_DECIMALS).div(resultSpace.fraction.pool));\n        /* Odd B2 */\n        resultSpace_opp.fraction.odd = 1*ODD_DECIMALS + (resultSpace.fraction.pool.mul(ODD_DECIMALS).div(resultSpace_opp.fraction.pool));\n        /* VF A2 */\n        resultSpace.fraction.cost = resultSpace.fraction.pool.div(resultSpace.fraction.amount);\n        /* VF B2 */\n        resultSpace_opp.fraction.cost = resultSpace_opp.fraction.pool.div(resultSpace_opp.fraction.amount);\n      \n        /* Liquidate the pool capital to the seller */\n        msg.sender.transfer(marketValue);\n\n        /* Winnings taken */\n        emit SellEvent(_eventId, marketValue, msg.sender);\n        return true;\n    }\n\n    function getSlipageOnSell(uint256 _eventId, uint256 _resultSpaceId, uint256 _fractionsAmount) view public returns (uint256 slipage) {\n        ResultSpace memory resultSpace = events[_eventId].resultSpaces[_resultSpaceId];\n        uint256 marketValue = getFractionsCost(_eventId, _resultSpaceId, _fractionsAmount);\n        uint256 newValue = (resultSpace.fraction.pool.sub(marketValue)).div(resultSpace.fraction.amount);\n        return newValue.mul(100).div(marketValue);\n    }\n\n    function getSlipageOnBuy(uint256 _eventId, uint256 _resultSpaceId, uint256 _fractionsAmount) view public returns (uint256 slipage) {\n        ResultSpace memory resultSpace = events[_eventId].resultSpaces[_resultSpaceId];\n        uint256 marketValue = getFractionsCost(_eventId, _resultSpaceId, _fractionsAmount);\n        uint256 newValue = (resultSpace.fraction.pool.sub(marketValue)).div(resultSpace.fraction.amount);\n        return marketValue.mul(100).div(newValue);\n    }\n\n    function getFractionsCost(uint256 _eventId, uint256 _resultSpaceId, uint256 _fractionsAmount) view public returns (uint256) {\n        ResultSpace memory resultSpace = events[_eventId].resultSpaces[_resultSpaceId];\n        return _fractionsAmount.mul(resultSpace.fraction.cost);\n    }\n\n    function pullFractions(uint256 _eventId, uint256 _resultSpaceId, uint256 _fractionsAmount) public returns (bool success) {\n        require(isEventOpen(_eventId));\n        require(_fractionsAmount > 0, \"Amount has to be > 0\");\n\n        ResultSpace storage resultSpace = events[_eventId].resultSpaces[_resultSpaceId];        \n        /* #FT */\n        uint256 fractionsAmountRelative = (_fractionsAmount.mul(resultSpace.fraction.relIn)).div(resultSpace.fraction.inPool);\n        require(resultSpace.fraction.inPoolBalances[msg.sender] > fractionsAmountRelative, \"No Balance to Pull Fractions\");\n\n        uint256 fractionsOutsideOfLiquidity = resultSpace.fraction.relIn.mul(resultSpace.fraction.inPoolBalances[msg.sender]).div(resultSpace.fraction.inPool);\n        require(_fractionsAmount < fractionsOutsideOfLiquidity, \"Amount of Fractions outside of liquidity have to be bigger than proposed\"); \n\n        /* #In[] A2 */\n        resultSpace.fraction.inPoolBalances[msg.sender] = resultSpace.fraction.inPoolBalances[msg.sender].sub(fractionsAmountRelative);\n        /* In A2 */\n        resultSpace.fraction.inPool = resultSpace.fraction.inPool.sub(_fractionsAmount);\n        /* #In A2 */\n        resultSpace.fraction.relIn = resultSpace.fraction.relIn.sub(fractionsAmountRelative);\n\n        uint256 out2 = resultSpace.fraction.outPool.add(_fractionsAmount);\n        uint256 relOut2 = (resultSpace.fraction.relOut.mul(out2)).div(resultSpace.fraction.outPool);\n\n        /* #Out[] A2 */\n        resultSpace.fraction.outPoolBalances[msg.sender] = relOut2.sub(resultSpace.fraction.relOut);\n        /* #Out A2 */\n        resultSpace.fraction.relOut = relOut2;\n        /* Out A2 */\n        resultSpace.fraction.outPool = out2;\n\n        return true;\n    }\n\n    function pushFractions(uint256 _eventId, uint256 _resultSpaceId, uint256 _fractionsAmount) public returns (bool success) {\n        require(isEventOpen(_eventId));\n        require(_fractionsAmount > 0, \"Amount has to be > 0\");\n\n        ResultSpace storage resultSpace = events[_eventId].resultSpaces[_resultSpaceId];\n\n        /* #FT */\n        uint256 fractionsAmountRelative = (_fractionsAmount.mul(resultSpace.fraction.relOut)).div(resultSpace.fraction.outPool);\n        require(resultSpace.fraction.outPoolBalances[msg.sender] > fractionsAmountRelative, \"No Balance to Pull Fractions\");\n \n        /* #Out[] A2 */\n        resultSpace.fraction.outPoolBalances[msg.sender] = resultSpace.fraction.outPoolBalances[msg.sender].sub(fractionsAmountRelative);\n        /* Out A2 */\n        resultSpace.fraction.outPool = resultSpace.fraction.outPool.sub(_fractionsAmount);\n        /* #Out A2 */\n        resultSpace.fraction.relOut = resultSpace.fraction.relOut.sub(fractionsAmountRelative);\n\n        uint256 in2 = resultSpace.fraction.inPool.add(_fractionsAmount);\n        uint256 relIn2 = (resultSpace.fraction.relIn.mul(in2)).div(resultSpace.fraction.inPool);\n\n        /* #Int[] A2 */\n        resultSpace.fraction.inPoolBalances[msg.sender] = relIn2.sub(resultSpace.fraction.relIn);\n        /* #In A2 */\n        resultSpace.fraction.relIn = relIn2;\n        /* In A2 */\n        resultSpace.fraction.inPool = in2;\n\n        return true;\n    }\n\n    /* Event Resolution */\n    function resolveEvent(uint256 _eventId, uint256 _resultId) public onlyOwner returns (bool success) {\n        require(isEventOpen(_eventId));\n        /* Confirm it exists */\n        require((_resultId > 0) && (_resultId < 3));\n        /* Set the result */\n        events[_eventId].result = _resultId;\n        /* Close Event */\n        events[_eventId].isResolved = true;\n        emit CloseEvent(_eventId, _resultId);\n    }\n\n    function withdrawWins(uint256 _eventId, uint256 _resultSpaceId) public returns (bool success) {\n\n        require(isEventClosed(_eventId), \"Event has to be closed\");\n        ResultSpace storage resultSpace = events[_eventId].resultSpaces[_resultSpaceId];\n        require(events[_eventId].result == _resultSpaceId, \"Result Space is not the winner\");\n        require(resultSpace.tookWinnings[msg.sender] == false, \"Winning already taken\");\n\n        /* Get Win Amount */\n        uint256 absoluteFractionsIn = (resultSpace.fraction.inPoolBalances[msg.sender].mul(resultSpace.fraction.inPool)).div(resultSpace.fraction.relIn);\n        uint256 absoluteFractionsOut = (resultSpace.fraction.outPoolBalances[msg.sender].mul(resultSpace.fraction.outPool)).div(resultSpace.fraction.relOut);\n        uint256 winningAmount = ((absoluteFractionsOut.add(absoluteFractionsIn)).mul(resultSpace.fraction.cost).mul(resultSpace.fraction.odd)).div(ODD_DECIMALS.mul(CURRENCY_DECIMALS));\n\n        /* Send Winnings */\n        msg.sender.transfer(winningAmount);\n\n        /* Winnings taken */\n        events[_eventId].resultSpaces[_resultSpaceId].tookWinnings[msg.sender] = true;\n        emit WithdrawEvent(_eventId, winningAmount, msg.sender);\n    }\n\n    /* Get All Events */\n    function getEvents() view public returns (uint256[] memory event_ids) {\n        return eventIds;\n    }\n\n    /* Get Event Date */\n    function getEventData(uint256 _eventId) view public returns (string memory, uint256, string memory, bool) {\n        Event memory _event = events[_eventId];\n        /* Return Event Data */\n        return (_event.name, _event.result, _event.urlOracle, _event.isResolved);\n    }\n\n    /* Get Result Space Date */\n    function getResultSpaceData(uint256 _eventId, uint256 resultSpace_id) view public returns (\n        uint256 _id, uint256 _resultId, uint256 _pool, uint256 _cost, uint256 _odd, \n        uint256 _amount, uint256 _in, uint256 _out, uint256 _fees, uint256 _liqAmount\n    ) {\n        ResultSpace memory resultSpace = events[_eventId].resultSpaces[resultSpace_id];\n\n        return (resultSpace.id, resultSpace.resultId, resultSpace.fraction.pool, resultSpace.fraction.cost,\n        resultSpace.fraction.odd, resultSpace.fraction.amount, resultSpace.fraction.inPool, resultSpace.fraction.outPool,\n        resultSpace.fraction.fees, resultSpace.fraction.liqAmount);\n    }\n\n    /* Get Portfolio of My events based on address */\n    function getMyEvents() view public returns (uint256[] memory){\n        return myEvents[msg.sender];\n    }\n\n    /* Get Portfolio of My Holdings/Liquidity on Event Data based on address (IN / OUT / Liquidity for each type) */\n    function getMyEventHoldings(uint256 _eventId) view public returns (uint256, uint256, uint256, uint256, uint256, uint256){\n        /* TO DO */\n        ResultSpace storage resultSpace = events[_eventId].resultSpaces[1];\n        ResultSpace storage resultSpace_opp = events[_eventId].resultSpaces[2];\n\n        return (\n            resultSpace.fraction.inPoolBalances[msg.sender], resultSpace.fraction.outPoolBalances[msg.sender], resultSpace.fraction.liquidity[msg.sender],\n            resultSpace_opp.fraction.inPoolBalances[msg.sender], resultSpace_opp.fraction.outPoolBalances[msg.sender], resultSpace_opp.fraction.liquidity[msg.sender]\n            );\n    }\n\n   function removeOtherERC20Tokens(address _tokenAddress, address _to) external onlyOwner {\n        ERC20 erc20Token = ERC20(_tokenAddress);\n        erc20Token.transfer(_to, erc20Token.balanceOf(address(this)));\n    } \n}",
  "sourcePath": "/Users/ruipedro/Desktop/projects/Bepro/@bepro-js/contracts/ExchangeMarket.sol",
  "compiler": {
    "name": "solc",
    "version": "0.6.2+commit.bacdbe57.Emscripten.clang"
  },
  "schemaVersion": "3.0.20",
  "updatedAt": "2021-08-24T11:35:49.747Z",
  "devdoc": {
    "methods": {
      "paused()": {
        "details": "Returns true if the contract is paused, and false otherwise."
      },
      "transferOwnership(address)": {
        "details": "Allows the current owner to transfer control of the contract to a newOwner.",
        "params": {
          "newOwner": "The address to transfer ownership to."
        }
      }
    }
  },
  "userdoc": {
    "methods": {}
  }
}