{
  "contractName": "Exchange",
  "abi": [
    {
      "inputs": [],
      "stateMutability": "nonpayable",
      "type": "constructor"
    },
    {
      "anonymous": false,
      "inputs": [
        {
          "indexed": true,
          "internalType": "uint256",
          "name": "id",
          "type": "uint256"
        },
        {
          "indexed": true,
          "internalType": "uint256",
          "name": "resultSpaceId",
          "type": "uint256"
        },
        {
          "indexed": false,
          "internalType": "uint256",
          "name": "fractionAmount",
          "type": "uint256"
        },
        {
          "indexed": false,
          "internalType": "uint256",
          "name": "fractionCost",
          "type": "uint256"
        },
        {
          "indexed": true,
          "internalType": "address",
          "name": "buyer",
          "type": "address"
        }
      ],
      "name": "BuyEvent",
      "type": "event"
    },
    {
      "anonymous": false,
      "inputs": [
        {
          "indexed": true,
          "internalType": "uint256",
          "name": "id",
          "type": "uint256"
        },
        {
          "indexed": true,
          "internalType": "uint256",
          "name": "resultSpaceId",
          "type": "uint256"
        }
      ],
      "name": "CloseEvent",
      "type": "event"
    },
    {
      "anonymous": false,
      "inputs": [
        {
          "indexed": true,
          "internalType": "uint256",
          "name": "id",
          "type": "uint256"
        },
        {
          "indexed": true,
          "internalType": "string",
          "name": "name",
          "type": "string"
        }
      ],
      "name": "CreateEvent",
      "type": "event"
    },
    {
      "anonymous": false,
      "inputs": [
        {
          "indexed": true,
          "internalType": "address",
          "name": "previousOwner",
          "type": "address"
        },
        {
          "indexed": true,
          "internalType": "address",
          "name": "newOwner",
          "type": "address"
        }
      ],
      "name": "OwnershipTransferred",
      "type": "event"
    },
    {
      "anonymous": false,
      "inputs": [
        {
          "indexed": false,
          "internalType": "address",
          "name": "account",
          "type": "address"
        }
      ],
      "name": "Paused",
      "type": "event"
    },
    {
      "anonymous": false,
      "inputs": [
        {
          "indexed": true,
          "internalType": "uint256",
          "name": "id",
          "type": "uint256"
        },
        {
          "indexed": false,
          "internalType": "uint256",
          "name": "liquidateAmount",
          "type": "uint256"
        },
        {
          "indexed": true,
          "internalType": "address",
          "name": "seller",
          "type": "address"
        }
      ],
      "name": "SellEvent",
      "type": "event"
    },
    {
      "anonymous": false,
      "inputs": [
        {
          "indexed": false,
          "internalType": "address",
          "name": "account",
          "type": "address"
        }
      ],
      "name": "Unpaused",
      "type": "event"
    },
    {
      "anonymous": false,
      "inputs": [
        {
          "indexed": true,
          "internalType": "uint256",
          "name": "id",
          "type": "uint256"
        },
        {
          "indexed": false,
          "internalType": "uint256",
          "name": "winAmount",
          "type": "uint256"
        },
        {
          "indexed": true,
          "internalType": "address",
          "name": "buyer",
          "type": "address"
        }
      ],
      "name": "WithdrawEvent",
      "type": "event"
    },
    {
      "inputs": [],
      "name": "CURRENCY_DECIMALS",
      "outputs": [
        {
          "internalType": "uint256",
          "name": "",
          "type": "uint256"
        }
      ],
      "stateMutability": "view",
      "type": "function"
    },
    {
      "inputs": [],
      "name": "ODD_DECIMALS",
      "outputs": [
        {
          "internalType": "uint256",
          "name": "",
          "type": "uint256"
        }
      ],
      "stateMutability": "view",
      "type": "function"
    },
    {
      "inputs": [],
      "name": "eventId",
      "outputs": [
        {
          "internalType": "uint256",
          "name": "",
          "type": "uint256"
        }
      ],
      "stateMutability": "view",
      "type": "function"
    },
    {
      "inputs": [
        {
          "internalType": "uint256",
          "name": "",
          "type": "uint256"
        }
      ],
      "name": "eventIds",
      "outputs": [
        {
          "internalType": "uint256",
          "name": "",
          "type": "uint256"
        }
      ],
      "stateMutability": "view",
      "type": "function"
    },
    {
      "inputs": [
        {
          "internalType": "uint256",
          "name": "",
          "type": "uint256"
        }
      ],
      "name": "events",
      "outputs": [
        {
          "internalType": "string",
          "name": "name",
          "type": "string"
        },
        {
          "internalType": "uint256",
          "name": "result",
          "type": "uint256"
        },
        {
          "internalType": "string",
          "name": "urlOracle",
          "type": "string"
        },
        {
          "internalType": "bool",
          "name": "isResolved",
          "type": "bool"
        }
      ],
      "stateMutability": "view",
      "type": "function"
    },
    {
      "inputs": [
        {
          "internalType": "address",
          "name": "",
          "type": "address"
        },
        {
          "internalType": "uint256",
          "name": "",
          "type": "uint256"
        }
      ],
      "name": "myEvents",
      "outputs": [
        {
          "internalType": "uint256",
          "name": "",
          "type": "uint256"
        }
      ],
      "stateMutability": "view",
      "type": "function"
    },
    {
      "inputs": [],
      "name": "owner",
      "outputs": [
        {
          "internalType": "address",
          "name": "",
          "type": "address"
        }
      ],
      "stateMutability": "view",
      "type": "function"
    },
    {
      "inputs": [],
      "name": "paused",
      "outputs": [
        {
          "internalType": "bool",
          "name": "",
          "type": "bool"
        }
      ],
      "stateMutability": "view",
      "type": "function"
    },
    {
      "inputs": [
        {
          "internalType": "address",
          "name": "newOwner",
          "type": "address"
        }
      ],
      "name": "transferOwnership",
      "outputs": [],
      "stateMutability": "nonpayable",
      "type": "function"
    },
    {
      "inputs": [
        {
          "internalType": "uint256",
          "name": "_eventId",
          "type": "uint256"
        }
      ],
      "name": "isEventOpen",
      "outputs": [
        {
          "internalType": "bool",
          "name": "success",
          "type": "bool"
        }
      ],
      "stateMutability": "nonpayable",
      "type": "function"
    },
    {
      "inputs": [
        {
          "internalType": "uint256",
          "name": "_eventId",
          "type": "uint256"
        }
      ],
      "name": "isEventClosed",
      "outputs": [
        {
          "internalType": "bool",
          "name": "success",
          "type": "bool"
        }
      ],
      "stateMutability": "nonpayable",
      "type": "function"
    },
    {
      "inputs": [
        {
          "internalType": "uint256[]",
          "name": "_resultSpaceIds",
          "type": "uint256[]"
        },
        {
          "internalType": "string",
          "name": "_urlOracle",
          "type": "string"
        },
        {
          "internalType": "string",
          "name": "_eventName",
          "type": "string"
        }
      ],
      "name": "createEvent",
      "outputs": [
        {
          "internalType": "bool",
          "name": "success",
          "type": "bool"
        }
      ],
      "stateMutability": "payable",
      "type": "function"
    },
    {
      "inputs": [
        {
          "internalType": "uint256",
          "name": "_eventId",
          "type": "uint256"
        }
      ],
      "name": "addLiquidity",
      "outputs": [
        {
          "internalType": "bool",
          "name": "success",
          "type": "bool"
        }
      ],
      "stateMutability": "payable",
      "type": "function"
    },
    {
      "inputs": [
        {
          "internalType": "uint256",
          "name": "_eventId",
          "type": "uint256"
        }
      ],
      "name": "removeLiquidity",
      "outputs": [
        {
          "internalType": "bool",
          "name": "success",
          "type": "bool"
        }
      ],
      "stateMutability": "nonpayable",
      "type": "function"
    },
    {
      "inputs": [
        {
          "internalType": "uint256",
          "name": "_eventId",
          "type": "uint256"
        },
        {
          "internalType": "uint256",
          "name": "_resultSpaceId",
          "type": "uint256"
        },
        {
          "internalType": "uint256",
          "name": "_fractionsAmount",
          "type": "uint256"
        }
      ],
      "name": "buy",
      "outputs": [
        {
          "internalType": "bool",
          "name": "success",
          "type": "bool"
        }
      ],
      "stateMutability": "payable",
      "type": "function"
    },
    {
      "inputs": [
        {
          "internalType": "uint256",
          "name": "_eventId",
          "type": "uint256"
        },
        {
          "internalType": "uint256",
          "name": "_resultSpaceId",
          "type": "uint256"
        },
        {
          "internalType": "uint256",
          "name": "_fractionsAmount",
          "type": "uint256"
        }
      ],
      "name": "sell",
      "outputs": [
        {
          "internalType": "bool",
          "name": "success",
          "type": "bool"
        }
      ],
      "stateMutability": "nonpayable",
      "type": "function"
    },
    {
      "inputs": [
        {
          "internalType": "uint256",
          "name": "_eventId",
          "type": "uint256"
        },
        {
          "internalType": "uint256",
          "name": "_resultSpaceId",
          "type": "uint256"
        },
        {
          "internalType": "uint256",
          "name": "_fractionsAmount",
          "type": "uint256"
        }
      ],
      "name": "getSlipageOnSell",
      "outputs": [
        {
          "internalType": "uint256",
          "name": "slipage",
          "type": "uint256"
        }
      ],
      "stateMutability": "view",
      "type": "function"
    },
    {
      "inputs": [
        {
          "internalType": "uint256",
          "name": "_eventId",
          "type": "uint256"
        },
        {
          "internalType": "uint256",
          "name": "_resultSpaceId",
          "type": "uint256"
        },
        {
          "internalType": "uint256",
          "name": "_fractionsAmount",
          "type": "uint256"
        }
      ],
      "name": "getSlipageOnBuy",
      "outputs": [
        {
          "internalType": "uint256",
          "name": "slipage",
          "type": "uint256"
        }
      ],
      "stateMutability": "view",
      "type": "function"
    },
    {
      "inputs": [
        {
          "internalType": "uint256",
          "name": "_eventId",
          "type": "uint256"
        },
        {
          "internalType": "uint256",
          "name": "_resultSpaceId",
          "type": "uint256"
        },
        {
          "internalType": "uint256",
          "name": "_fractionsAmount",
          "type": "uint256"
        }
      ],
      "name": "getFractionsCost",
      "outputs": [
        {
          "internalType": "uint256",
          "name": "",
          "type": "uint256"
        }
      ],
      "stateMutability": "view",
      "type": "function"
    },
    {
      "inputs": [
        {
          "internalType": "uint256",
          "name": "_eventId",
          "type": "uint256"
        },
        {
          "internalType": "uint256",
          "name": "_resultSpaceId",
          "type": "uint256"
        },
        {
          "internalType": "uint256",
          "name": "_fractionsAmount",
          "type": "uint256"
        }
      ],
      "name": "pullFractions",
      "outputs": [
        {
          "internalType": "bool",
          "name": "success",
          "type": "bool"
        }
      ],
      "stateMutability": "nonpayable",
      "type": "function"
    },
    {
      "inputs": [
        {
          "internalType": "uint256",
          "name": "_eventId",
          "type": "uint256"
        },
        {
          "internalType": "uint256",
          "name": "_resultSpaceId",
          "type": "uint256"
        },
        {
          "internalType": "uint256",
          "name": "_fractionsAmount",
          "type": "uint256"
        }
      ],
      "name": "pushFractions",
      "outputs": [
        {
          "internalType": "bool",
          "name": "success",
          "type": "bool"
        }
      ],
      "stateMutability": "nonpayable",
      "type": "function"
    },
    {
      "inputs": [
        {
          "internalType": "uint256",
          "name": "_eventId",
          "type": "uint256"
        },
        {
          "internalType": "uint256",
          "name": "_resultId",
          "type": "uint256"
        }
      ],
      "name": "resolveEvent",
      "outputs": [
        {
          "internalType": "bool",
          "name": "success",
          "type": "bool"
        }
      ],
      "stateMutability": "nonpayable",
      "type": "function"
    },
    {
      "inputs": [
        {
          "internalType": "uint256",
          "name": "_eventId",
          "type": "uint256"
        },
        {
          "internalType": "uint256",
          "name": "_resultSpaceId",
          "type": "uint256"
        }
      ],
      "name": "withdrawWins",
      "outputs": [
        {
          "internalType": "bool",
          "name": "success",
          "type": "bool"
        }
      ],
      "stateMutability": "nonpayable",
      "type": "function"
    },
    {
      "inputs": [],
      "name": "getEvents",
      "outputs": [
        {
          "internalType": "uint256[]",
          "name": "event_ids",
          "type": "uint256[]"
        }
      ],
      "stateMutability": "view",
      "type": "function"
    },
    {
      "inputs": [
        {
          "internalType": "uint256",
          "name": "_eventId",
          "type": "uint256"
        }
      ],
      "name": "getEventData",
      "outputs": [
        {
          "internalType": "string",
          "name": "",
          "type": "string"
        },
        {
          "internalType": "uint256",
          "name": "",
          "type": "uint256"
        },
        {
          "internalType": "string",
          "name": "",
          "type": "string"
        },
        {
          "internalType": "bool",
          "name": "",
          "type": "bool"
        }
      ],
      "stateMutability": "view",
      "type": "function"
    },
    {
      "inputs": [
        {
          "internalType": "uint256",
          "name": "_eventId",
          "type": "uint256"
        },
        {
          "internalType": "uint256",
          "name": "resultSpace_id",
          "type": "uint256"
        }
      ],
      "name": "getResultSpaceData",
      "outputs": [
        {
          "internalType": "uint256",
          "name": "_id",
          "type": "uint256"
        },
        {
          "internalType": "uint256",
          "name": "_resultId",
          "type": "uint256"
        },
        {
          "internalType": "uint256",
          "name": "_pool",
          "type": "uint256"
        },
        {
          "internalType": "uint256",
          "name": "_cost",
          "type": "uint256"
        },
        {
          "internalType": "uint256",
          "name": "_odd",
          "type": "uint256"
        },
        {
          "internalType": "uint256",
          "name": "_amount",
          "type": "uint256"
        },
        {
          "internalType": "uint256",
          "name": "_in",
          "type": "uint256"
        },
        {
          "internalType": "uint256",
          "name": "_out",
          "type": "uint256"
        },
        {
          "internalType": "uint256",
          "name": "_fees",
          "type": "uint256"
        },
        {
          "internalType": "uint256",
          "name": "_liqAmount",
          "type": "uint256"
        }
      ],
      "stateMutability": "view",
      "type": "function"
    },
    {
      "inputs": [],
      "name": "getMyEvents",
      "outputs": [
        {
          "internalType": "uint256[]",
          "name": "",
          "type": "uint256[]"
        }
      ],
      "stateMutability": "view",
      "type": "function"
    },
    {
      "inputs": [
        {
          "internalType": "uint256",
          "name": "_eventId",
          "type": "uint256"
        }
      ],
      "name": "getMyEventHoldings",
      "outputs": [
        {
          "internalType": "uint256",
          "name": "",
          "type": "uint256"
        },
        {
          "internalType": "uint256",
          "name": "",
          "type": "uint256"
        },
        {
          "internalType": "uint256",
          "name": "",
          "type": "uint256"
        },
        {
          "internalType": "uint256",
          "name": "",
          "type": "uint256"
        },
        {
          "internalType": "uint256",
          "name": "",
          "type": "uint256"
        },
        {
          "internalType": "uint256",
          "name": "",
          "type": "uint256"
        }
      ],
      "stateMutability": "view",
      "type": "function"
    },
    {
      "inputs": [
        {
          "internalType": "address",
          "name": "_tokenAddress",
          "type": "address"
        },
        {
          "internalType": "address",
          "name": "_to",
          "type": "address"
        }
      ],
      "name": "removeOtherERC20Tokens",
      "outputs": [],
      "stateMutability": "nonpayable",
      "type": "function"
    }
  ],
  "bytecode": "0x608060405260006001556127106002556298968060035534801561002257600080fd5b5060008060006101000a81548160ff02191690831515021790555033600060016101000a81548173ffffffffffffffffffffffffffffffffffffffff021916908373ffffffffffffffffffffffffffffffffffffffff160217905550614e898061008d6000396000f3fe6080604052600436106101df576000357c01000000000000000000000000000000000000000000000000000000009004806370f7ae9511610114578063a8c776a1116100b2578063d3c9727c11610081578063d3c9727c14610de8578063e13a7d1114610e4f578063e682e9ad14610eb2578063f2fde38b14610f0f576101df565b8063a8c776a114610c23578063ad5145af14610c86578063bf3edf7e14610d1e578063cccbcc7c14610d81576101df565b8063998f6ac0116100ee578063998f6ac014610ac75780639c8f9f2314610b165780639d9bbde714610b69578063a25e6ab214610bd0576101df565b806370f7ae95146109ac5780638da5cb5b146109ff578063917c854d14610a56576101df565b806340993b261161018157806351c6590a1161015b57806351c6590a146106dc57806354549f96146107225780635c975abb1461092057806364f664671461094f576101df565b806340993b26146104e15780634392bb681461053b578063509686571461066d576101df565b806321c3c4be116101bd57806321c3c4be1461036c578063262f92d2146103de5780633548124b14610409578063404aa8f914610475576101df565b806308888c0a146101e4578063089cdd0c1461020f5780630b7914301461023a575b600080fd5b3480156101f057600080fd5b506101f9610f60565b6040518082815260200191505060405180910390f35b34801561021b57600080fd5b50610224610f66565b6040518082815260200191505060405180910390f35b34801561024657600080fd5b506102736004803603602081101561025d57600080fd5b8101908080359060200190929190505050610f6c565b60405180806020018581526020018060200184151515158152602001838103835287818151815260200191508051906020019080838360005b838110156102c75780820151818401526020810190506102ac565b50505050905090810190601f1680156102f45780820380516001836020036101000a031916815260200191505b50838103825285818151815260200191508051906020019080838360005b8381101561032d578082015181840152602081019050610312565b50505050905090810190601f16801561035a5780820380516001836020036101000a031916815260200191505b50965050505050505060405180910390f35b34801561037857600080fd5b506103a56004803603602081101561038f57600080fd5b81019080803590602001909291905050506110d9565b60405180878152602001868152602001858152602001848152602001838152602001828152602001965050505050505060405180910390f35b3480156103ea57600080fd5b506103f36112ef565b6040518082815260200191505060405180910390f35b34801561041557600080fd5b5061041e6112f5565b6040518080602001828103825283818151815260200191508051906020019060200280838360005b83811015610461578082015181840152602081019050610446565b505050509050019250505060405180910390f35b34801561048157600080fd5b5061048a61138a565b6040518080602001828103825283818151815260200191508051906020019060200280838360005b838110156104cd5780820151818401526020810190506104b2565b505050509050019250505060405180910390f35b610521600480360360608110156104f757600080fd5b810190808035906020019092919080359060200190929190803590602001909291905050506113e2565b604051808215151515815260200191505060405180910390f35b34801561054757600080fd5b506105746004803603602081101561055e57600080fd5b8101908080359060200190929190505050611865565b60405180806020018581526020018060200184151515158152602001838103835287818151815260200191508051906020019080838360005b838110156105c85780820151818401526020810190506105ad565b50505050905090810190601f1680156105f55780820380516001836020036101000a031916815260200191505b50838103825285818151815260200191508051906020019080838360005b8381101561062e578082015181840152602081019050610613565b50505050905090810190601f16801561065b5780820380516001836020036101000a031916815260200191505b50965050505050505060405180910390f35b34801561067957600080fd5b506106c66004803603604081101561069057600080fd5b81019080803573ffffffffffffffffffffffffffffffffffffffff16906020019092919080359060200190929190505050611a28565b6040518082815260200191505060405180910390f35b610708600480360360208110156106f257600080fd5b8101908080359060200190929190505050611a56565b604051808215151515815260200191505060405180910390f35b6109066004803603606081101561073857600080fd5b810190808035906020019064010000000081111561075557600080fd5b82018360208201111561076757600080fd5b8035906020019184602083028401116401000000008311171561078957600080fd5b919080806020026020016040519081016040528093929190818152602001838360200280828437600081840152601f19601f820116905080830192505050505050509192919290803590602001906401000000008111156107e957600080fd5b8201836020820111156107fb57600080fd5b8035906020019184600183028401116401000000008311171561081d57600080fd5b91908080601f016020809104026020016040519081016040528093929190818152602001838380828437600081840152601f19601f8201169050808301925050505050505091929192908035906020019064010000000081111561088057600080fd5b82018360208201111561089257600080fd5b803590602001918460018302840111640100000000831117156108b457600080fd5b91908080601f016020809104026020016040519081016040528093929190818152602001838380828437600081840152601f19601f82011690508083019250505050505050919291929050505061211c565b604051808215151515815260200191505060405180910390f35b34801561092c57600080fd5b506109356124fc565b604051808215151515815260200191505060405180910390f35b34801561095b57600080fd5b506109926004803603604081101561097257600080fd5b810190808035906020019092919080359060200190929190505050612512565b604051808215151515815260200191505060405180910390f35b3480156109b857600080fd5b506109e5600480360360208110156109cf57600080fd5b8101908080359060200190929190505050612616565b604051808215151515815260200191505060405180910390f35b348015610a0b57600080fd5b50610a1461264a565b604051808273ffffffffffffffffffffffffffffffffffffffff1673ffffffffffffffffffffffffffffffffffffffff16815260200191505060405180910390f35b348015610a6257600080fd5b50610ac560048036036040811015610a7957600080fd5b81019080803573ffffffffffffffffffffffffffffffffffffffff169060200190929190803573ffffffffffffffffffffffffffffffffffffffff169060200190929190505050612670565b005b348015610ad357600080fd5b50610b0060048036036020811015610aea57600080fd5b8101908080359060200190929190505050612886565b6040518082815260200191505060405180910390f35b348015610b2257600080fd5b50610b4f60048036036020811015610b3957600080fd5b81019080803590602001909291905050506128a7565b604051808215151515815260200191505060405180910390f35b348015610b7557600080fd5b50610bb660048036036060811015610b8c57600080fd5b81019080803590602001909291908035906020019092919080359060200190929190505050613276565b604051808215151515815260200191505060405180910390f35b348015610bdc57600080fd5b50610c0960048036036020811015610bf357600080fd5b81019080803590602001909291905050506135e2565b604051808215151515815260200191505060405180910390f35b348015610c2f57600080fd5b50610c7060048036036060811015610c4657600080fd5b81019080803590602001909291908035906020019092919080359060200190929190505050613615565b6040518082815260200191505060405180910390f35b348015610c9257600080fd5b50610cc960048036036040811015610ca957600080fd5b81019080803590602001909291908035906020019092919050505061375a565b604051808b81526020018a81526020018981526020018881526020018781526020018681526020018581526020018481526020018381526020018281526020019a505050505050505050505060405180910390f35b348015610d2a57600080fd5b50610d6b60048036036060811015610d4157600080fd5b810190808035906020019092919080359060200190929190803590602001909291905050506138aa565b6040518082815260200191505060405180910390f35b348015610d8d57600080fd5b50610dce60048036036060811015610da457600080fd5b8101908080359060200190929190803590602001909291908035906020019092919050505061399a565b604051808215151515815260200191505060405180910390f35b348015610df457600080fd5b50610e3560048036036060811015610e0b57600080fd5b81019080803590602001909291908035906020019092919080359060200190929190505050613dda565b604051808215151515815260200191505060405180910390f35b348015610e5b57600080fd5b50610e9c60048036036060811015610e7257600080fd5b81019080803590602001909291908035906020019092919080359060200190929190505050614321565b6040518082815260200191505060405180910390f35b348015610ebe57600080fd5b50610ef560048036036040811015610ed557600080fd5b810190808035906020019092919080359060200190929190505050614466565b604051808215151515815260200191505060405180910390f35b348015610f1b57600080fd5b50610f5e60048036036020811015610f3257600080fd5b81019080803573ffffffffffffffffffffffffffffffffffffffff1690602001909291905050506148e8565b005b60025481565b60015481565b6005602052806000526040600020600091509050806000018054600181600116156101000203166002900480601f0160208091040260200160405190810160405280929190818152602001828054600181600116156101000203166002900480156110185780601f10610fed57610100808354040283529160200191611018565b820191906000526020600020905b815481529060010190602001808311610ffb57829003601f168201915b505050505090806002015490806003018054600181600116156101000203166002900480601f0160208091040260200160405190810160405280929190818152602001828054600181600116156101000203166002900480156110bc5780601f10611091576101008083540402835291602001916110bc565b820191906000526020600020905b81548152906001019060200180831161109f57829003601f168201915b5050505050908060040160009054906101000a900460ff16905084565b60008060008060008060006005600089815260200190815260200160002060010160006001815260200190815260200160002090506000600560008a815260200190815260200160002060010160006002815260200190815260200160002090508160020160060160003373ffffffffffffffffffffffffffffffffffffffff1673ffffffffffffffffffffffffffffffffffffffff168152602001908152602001600020548260020160090160003373ffffffffffffffffffffffffffffffffffffffff1673ffffffffffffffffffffffffffffffffffffffff1681526020019081526020016000205483600201600c0160003373ffffffffffffffffffffffffffffffffffffffff1673ffffffffffffffffffffffffffffffffffffffff168152602001908152602001600020548360020160060160003373ffffffffffffffffffffffffffffffffffffffff1673ffffffffffffffffffffffffffffffffffffffff168152602001908152602001600020548460020160090160003373ffffffffffffffffffffffffffffffffffffffff1673ffffffffffffffffffffffffffffffffffffffff1681526020019081526020016000205485600201600c0160003373ffffffffffffffffffffffffffffffffffffffff1673ffffffffffffffffffffffffffffffffffffffff16815260200190815260200160002054975097509750975097509750505091939550919395565b60035481565b6060600660003373ffffffffffffffffffffffffffffffffffffffff1673ffffffffffffffffffffffffffffffffffffffff16815260200190815260200160002080548060200260200160405190810160405280929190818152602001828054801561138057602002820191906000526020600020905b81548152602001906001019080831161136c575b5050505050905090565b606060048054806020026020016040519081016040528092919081815260200182805480156113d857602002820191906000526020600020905b8154815260200190600101908083116113c4575b5050505050905090565b60006113ed846135e2565b6113f657600080fd5b6000821161146c576040517f08c379a00000000000000000000000000000000000000000000000000000000081526004018080602001828103825260148152602001807f416d6f756e742068617320746f206265203e203000000000000000000000000081525060200191505060405180910390fd5b600060019050600184141561148057600290505b600060056000878152602001908152602001600020600101600083815260200190815260200160002090506000600560008881526020019081526020016000206001016000878152602001908152602001600020905060006114e38888886138aa565b905060008260020160010154905060006114fe8a8a8a613615565b905060038110611576576040517f08c379a000000000000000000000000000000000000000000000000000000000815260040180806020018281038252601d8152602001807f536c69706167652068617320746f206265206c657373207468616e203300000081525060200191505060405180910390fd5b8234146115ce576040517f08c379a0000000000000000000000000000000000000000000000000000000008152600401808060200182810382526028815260200180614e2c6028913960400191505060405180910390fd5b6115e8838560020160000154614a3c90919063ffffffff16565b8460020160000181905550611628846002016000015461161a6002548860020160000154614ac490919063ffffffff16565b614b4a90919063ffffffff16565b60025460010201846002016002018190555061166f85600201600001546116616002548760020160000154614ac490919063ffffffff16565b614b4a90919063ffffffff16565b6002546001020185600201600201819055506116a284600201600301548560020160000154614b4a90919063ffffffff16565b84600201600101819055506116ce85600201600301548660020160000154614b4a90919063ffffffff16565b856002016001018190555060008890506000856002016005015411156117275761172461170b866002016005015485614b4a90919063ffffffff16565b6001038660020160050154614b4a90919063ffffffff16565b90505b611741856002016005015482614bd390919063ffffffff16565b8560020160060160003373ffffffffffffffffffffffffffffffffffffffff1673ffffffffffffffffffffffffffffffffffffffff16815260200190815260200160002081905550808560020160050181905550600660003373ffffffffffffffffffffffffffffffffffffffff1673ffffffffffffffffffffffffffffffffffffffff1681526020019081526020016000208b90806001815401808255809150506001900390600052602060002001600090919091909150553373ffffffffffffffffffffffffffffffffffffffff168a8c7f09128000766ebce884c5ac8e461927d01432ce7f518e74a16b4606728d2c01618c87604051808381526020018281526020019250505060405180910390a460019750505050505050509392505050565b6060600060606000611875614c56565b60056000878152602001908152602001600020604051806080016040529081600082018054600181600116156101000203166002900480601f01602080910402602001604051908101604052809291908181526020018280546001816001161561010002031660029004801561192c5780601f106119015761010080835404028352916020019161192c565b820191906000526020600020905b81548152906001019060200180831161190f57829003601f168201915b5050505050815260200160028201548152602001600382018054600181600116156101000203166002900480601f0160208091040260200160405190810160405280929190818152602001828054600181600116156101000203166002900480156119d85780601f106119ad576101008083540402835291602001916119d8565b820191906000526020600020905b8154815290600101906020018083116119bb57829003601f168201915b505050505081526020016004820160009054906101000a900460ff161515151581525050905080600001518160200151826040015183606001518393508191509450945094509450509193509193565b60066020528160005260406000208181548110611a4157fe5b90600052602060002001600091509150505481565b6000611a61826135e2565b611a6a57600080fd5b60003411611ae0576040517f08c379a00000000000000000000000000000000000000000000000000000000081526004018080602001828103825260148152602001807f416d6f756e742068617320746f206265203e203000000000000000000000000081525060200191505060405180910390fd5b600060056000848152602001908152602001600020600101600060018152602001908152602001600020905060006005600085815260200190815260200160002060010160006002815260200190815260200160002090506000809050600080905060008090506000809050600060329050611b91611b7b6064611b6d8434614ac490919063ffffffff16565b614b4a90919063ffffffff16565b8760020160000154614a3c90919063ffffffff16565b9450611bd2611bbc6064611bae8434614ac490919063ffffffff16565b614b4a90919063ffffffff16565b8860020160000154614a3c90919063ffffffff16565b9350611c078660020160000154611bf9886002016003015488614ac490919063ffffffff16565b614b4a90919063ffffffff16565b9250611c3c8760020160000154611c2e896002016003015487614ac490919063ffffffff16565b614b4a90919063ffffffff16565b91508486600201600001819055508387600201600001819055506000611c72876002016003015485614bd390919063ffffffff16565b90506000611c90896002016003015485614bd390919063ffffffff16565b90506000611cae838a60020160040154614a3c90919063ffffffff16565b90506000611ccc838c60020160040154614a3c90919063ffffffff16565b90506000849050600084905060008c600201600501541115611d1e57611d1b8c60020160040154611d0d8e6002016005015487614ac490919063ffffffff16565b614b4a90919063ffffffff16565b91505b60008d600201600501541115611d6457611d618d60020160040154611d538f6002016005015486614ac490919063ffffffff16565b614b4a90919063ffffffff16565b90505b838c60020160040181905550828d60020160040181905550611dec611d998d6002016005015484614bd390919063ffffffff16565b8d60020160060160003373ffffffffffffffffffffffffffffffffffffffff1673ffffffffffffffffffffffffffffffffffffffff16815260200190815260200160002054614a3c90919063ffffffff16565b8c60020160060160003373ffffffffffffffffffffffffffffffffffffffff1673ffffffffffffffffffffffffffffffffffffffff16815260200190815260200160002081905550611ea4611e518e6002016005015483614bd390919063ffffffff16565b8e60020160060160003373ffffffffffffffffffffffffffffffffffffffff1673ffffffffffffffffffffffffffffffffffffffff16815260200190815260200160002054614a3c90919063ffffffff16565b8d60020160060160003373ffffffffffffffffffffffffffffffffffffffff1673ffffffffffffffffffffffffffffffffffffffff16815260200190815260200160002081905550611f43868d600201600c0160003373ffffffffffffffffffffffffffffffffffffffff1673ffffffffffffffffffffffffffffffffffffffff16815260200190815260200160002054614a3c90919063ffffffff16565b8c600201600c0160003373ffffffffffffffffffffffffffffffffffffffff1673ffffffffffffffffffffffffffffffffffffffff16815260200190815260200160002081905550611fe2858e600201600c0160003373ffffffffffffffffffffffffffffffffffffffff1673ffffffffffffffffffffffffffffffffffffffff16815260200190815260200160002054614a3c90919063ffffffff16565b8d600201600c0160003373ffffffffffffffffffffffffffffffffffffffff1673ffffffffffffffffffffffffffffffffffffffff16815260200190815260200160002081905550818c60020160050181905550808d60020160050181905550888c60020160030181905550878d60020160030181905550612074868d600201600b0154614a3c90919063ffffffff16565b8c600201600b0181905550612099858d600201600b0154614a3c90919063ffffffff16565b8d600201600b0181905550600660003373ffffffffffffffffffffffffffffffffffffffff1673ffffffffffffffffffffffffffffffffffffffff1681526020019081526020016000208f908060018154018082558091505060019003906000526020600020016000909190919091505550505050505050505050505050919050565b60008060019054906101000a900473ffffffffffffffffffffffffffffffffffffffff1673ffffffffffffffffffffffffffffffffffffffff163373ffffffffffffffffffffffffffffffffffffffff161461217757600080fd5b60028451146121ee576040517f08c379a000000000000000000000000000000000000000000000000000000000815260040180806020018281038252601b8152602001807f526573756c7420537061636573206e65656420746f206265203220000000000081525060200191505060405180910390fd5b60006001905060006003546064029050600061222682612218895134614b4a90919063ffffffff16565b614b4a90919063ffffffff16565b905060008111612281576040517f08c379a0000000000000000000000000000000000000000000000000000000008152600401808060200182810382526023815260200180614e096023913960400191505060405180910390fd5b60006005600060015481526020019081526020016000209050858160000190805190602001906122b2929190614c80565b50868160030190805190602001906122cb929190614c80565b5060008160040160006101000a81548160ff02191690831515021790555060008090505b8851811015612426576000826001016000878152602001908152602001600020905085816001018190555089828151811061232657fe5b6020026020010151816000018190555060008160020190506123528b5134614b4a90919063ffffffff16565b81600001819055508481600101819055506002548b510281600201819055508581600301819055508581600401819055508581600501819055506000816007018190555060008160080181905550600081600a0181905550600081600b01819055506001870196508584600101600089815260200190815260200160002060020160060160003073ffffffffffffffffffffffffffffffffffffffff1673ffffffffffffffffffffffffffffffffffffffff16815260200190815260200160002081905550505080806001019150506122ef565b5060046001549080600181540180825580915050600190039060005260206000200160009091909190915055856040518082805190602001908083835b602083106124865780518252602082019150602081019050602083039250612463565b6001836020036101000a03801982511681845116808217855250505050505090500191505060405180910390206001547f8b7268e8dbd7df43241ab8ae5931d26060053d65b418b03db1e68394dcfcb4cd60405160405180910390a3600180540160018190555060019450505050509392505050565b60008060009054906101000a900460ff16905090565b60008060019054906101000a900473ffffffffffffffffffffffffffffffffffffffff1673ffffffffffffffffffffffffffffffffffffffff163373ffffffffffffffffffffffffffffffffffffffff161461256d57600080fd5b612576836135e2565b61257f57600080fd5b60008211801561258f5750600382105b61259857600080fd5b81600560008581526020019081526020016000206002018190555060016005600085815260200190815260200160002060040160006101000a81548160ff02191690831515021790555081837f64e412f8b311be0c82113c299c4caf4b603bab21860146dae45a259bdb7cd36760405160405180910390a392915050565b6000600115156005600084815260200190815260200160002060040160009054906101000a900460ff161515149050919050565b600060019054906101000a900473ffffffffffffffffffffffffffffffffffffffff1681565b600060019054906101000a900473ffffffffffffffffffffffffffffffffffffffff1673ffffffffffffffffffffffffffffffffffffffff163373ffffffffffffffffffffffffffffffffffffffff16146126ca57600080fd5b60008290508073ffffffffffffffffffffffffffffffffffffffff1663a9059cbb838373ffffffffffffffffffffffffffffffffffffffff166370a08231306040518263ffffffff167c0100000000000000000000000000000000000000000000000000000000028152600401808273ffffffffffffffffffffffffffffffffffffffff1673ffffffffffffffffffffffffffffffffffffffff16815260200191505060206040518083038186803b15801561278557600080fd5b505afa158015612799573d6000803e3d6000fd5b505050506040513d60208110156127af57600080fd5b81019080805190602001909291905050506040518363ffffffff167c0100000000000000000000000000000000000000000000000000000000028152600401808373ffffffffffffffffffffffffffffffffffffffff1673ffffffffffffffffffffffffffffffffffffffff16815260200182815260200192505050602060405180830381600087803b15801561284557600080fd5b505af1158015612859573d6000803e3d6000fd5b505050506040513d602081101561286f57600080fd5b810190808051906020019092919050505050505050565b6004818154811061289357fe5b906000526020600020016000915090505481565b6000806005600084815260200190815260200160002060010160006001815260200190815260200160002090506000600560008581526020019081526020016000206001016000600281526020019081526020016000209050600081600201600c0160003373ffffffffffffffffffffffffffffffffffffffff1673ffffffffffffffffffffffffffffffffffffffff16815260200190815260200160002054116129ba576040517f08c379a000000000000000000000000000000000000000000000000000000000815260040180806020018281038252601e8152602001807f4c69717569646974792068617320746f20626967676572207468616e2030000081525060200191505060405180910390fd5b600082600201600c0160003373ffffffffffffffffffffffffffffffffffffffff1673ffffffffffffffffffffffffffffffffffffffff1681526020019081526020016000205411612a74576040517f08c379a000000000000000000000000000000000000000000000000000000000815260040180806020018281038252601e8152602001807f4c69717569646974792068617320746f20626967676572207468616e2030000081525060200191505060405180910390fd5b600080905060008090506000612af78460020160030154612ae9866002016000015487600201600c0160003373ffffffffffffffffffffffffffffffffffffffff1673ffffffffffffffffffffffffffffffffffffffff16815260200190815260200160002054614ac490919063ffffffff16565b614b4a90919063ffffffff16565b90506000612b728660020160030154612b64886002016000015489600201600c0160003373ffffffffffffffffffffffffffffffffffffffff1673ffffffffffffffffffffffffffffffffffffffff16815260200190815260200160002054614ac490919063ffffffff16565b614b4a90919063ffffffff16565b9050612b8e828660020160000154614bd390919063ffffffff16565b8560020160000181905550612bb3818760020160000154614bd390919063ffffffff16565b8660020160000181905550612c1c85600201600c0160003373ffffffffffffffffffffffffffffffffffffffff1673ffffffffffffffffffffffffffffffffffffffff168152602001908152602001600020548660020160030154614bd390919063ffffffff16565b8560020160030181905550612c8586600201600c0160003373ffffffffffffffffffffffffffffffffffffffff1673ffffffffffffffffffffffffffffffffffffffff168152602001908152602001600020548760020160030154614bd390919063ffffffff16565b86600201600301819055506000612cf086600201600c0160003373ffffffffffffffffffffffffffffffffffffffff1673ffffffffffffffffffffffffffffffffffffffff168152602001908152602001600020548760020160040154614bd390919063ffffffff16565b90506000612d5288600201600c0160003373ffffffffffffffffffffffffffffffffffffffff1673ffffffffffffffffffffffffffffffffffffffff168152602001908152602001600020548960020160040154614bd390919063ffffffff16565b90506000612d898860020160040154612d7b858b60020160050154614ac490919063ffffffff16565b614b4a90919063ffffffff16565b90506000612dc08a60020160040154612db2858d60020160050154614ac490919063ffffffff16565b614b4a90919063ffffffff16565b90506000612e3b8a60020160050154612e2d8c600201600401548d60020160060160003373ffffffffffffffffffffffffffffffffffffffff1673ffffffffffffffffffffffffffffffffffffffff16815260200190815260200160002054614ac490919063ffffffff16565b614b4a90919063ffffffff16565b90506000612eb68c60020160050154612ea88e600201600401548f60020160060160003373ffffffffffffffffffffffffffffffffffffffff1673ffffffffffffffffffffffffffffffffffffffff16815260200190815260200160002054614ac490919063ffffffff16565b614b4a90919063ffffffff16565b9050612f3386612f25612f168e600201600c0160003373ffffffffffffffffffffffffffffffffffffffff1673ffffffffffffffffffffffffffffffffffffffff1681526020019081526020016000205486614bd390919063ffffffff16565b87614ac490919063ffffffff16565b614b4a90919063ffffffff16565b8b60020160060160003373ffffffffffffffffffffffffffffffffffffffff1673ffffffffffffffffffffffffffffffffffffffff16815260200190815260200160002081905550612ff685612fe8612fd98f600201600c0160003373ffffffffffffffffffffffffffffffffffffffff1673ffffffffffffffffffffffffffffffffffffffff1681526020019081526020016000205485614bd390919063ffffffff16565b86614ac490919063ffffffff16565b614b4a90919063ffffffff16565b8c60020160060160003373ffffffffffffffffffffffffffffffffffffffff1673ffffffffffffffffffffffffffffffffffffffff16815260200190815260200160002081905550858b60020160040181905550848c60020160040181905550838b60020160050181905550828c600201600501819055506130cc8b600201600c0160003373ffffffffffffffffffffffffffffffffffffffff1673ffffffffffffffffffffffffffffffffffffffff168152602001908152602001600020548c600201600b0154614bd390919063ffffffff16565b8b600201600b01819055506131358c600201600c0160003373ffffffffffffffffffffffffffffffffffffffff1673ffffffffffffffffffffffffffffffffffffffff168152602001908152602001600020548d600201600b0154614bd390919063ffffffff16565b8c600201600b018190555060008b600201600c0160003373ffffffffffffffffffffffffffffffffffffffff1673ffffffffffffffffffffffffffffffffffffffff1681526020019081526020016000208190555060008c600201600c0160003373ffffffffffffffffffffffffffffffffffffffff1673ffffffffffffffffffffffffffffffffffffffff16815260200190815260200160002081905550600061321b6131f38e600201600101548a614ac490919063ffffffff16565b61320d8e600201600101548c614ac490919063ffffffff16565b614a3c90919063ffffffff16565b90503373ffffffffffffffffffffffffffffffffffffffff166108fc829081150290604051600060405180830381858888f19350505050158015613263573d6000803e3d6000fd5b5050505050505050505050505050919050565b6000613281846135e2565b61328a57600080fd5b60008211613300576040517f08c379a00000000000000000000000000000000000000000000000000000000081526004018080602001828103825260148152602001807f416d6f756e742068617320746f206265203e203000000000000000000000000081525060200191505060405180910390fd5b6000600560008681526020019081526020016000206001016000858152602001908152602001600020905060006133608260020160070154613352846002016008015487614ac490919063ffffffff16565b614b4a90919063ffffffff16565b9050808260020160090160003373ffffffffffffffffffffffffffffffffffffffff1673ffffffffffffffffffffffffffffffffffffffff168152602001908152602001600020541161341b576040517f08c379a000000000000000000000000000000000000000000000000000000000815260040180806020018281038252601c8152602001807f4e6f2042616c616e636520746f2050756c6c204672616374696f6e730000000081525060200191505060405180910390fd5b613472818360020160090160003373ffffffffffffffffffffffffffffffffffffffff1673ffffffffffffffffffffffffffffffffffffffff16815260200190815260200160002054614bd390919063ffffffff16565b8260020160090160003373ffffffffffffffffffffffffffffffffffffffff1673ffffffffffffffffffffffffffffffffffffffff168152602001908152602001600020819055506134d4848360020160070154614bd390919063ffffffff16565b82600201600701819055506134f9818360020160080154614bd390919063ffffffff16565b82600201600801819055506000613520858460020160040154614a3c90919063ffffffff16565b905060006135578460020160040154613549848760020160050154614ac490919063ffffffff16565b614b4a90919063ffffffff16565b9050613573846002016005015482614bd390919063ffffffff16565b8460020160060160003373ffffffffffffffffffffffffffffffffffffffff1673ffffffffffffffffffffffffffffffffffffffff1681526020019081526020016000208190555080846002016005018190555081846002016004018190555060019450505050509392505050565b60008015156005600084815260200190815260200160002060040160009054906101000a900460ff161515149050919050565b600061361f614d00565b600560008681526020019081526020016000206001016000858152602001908152602001600020604051806060016040529081600082015481526020016001820154815260200160028201604051806101400160405290816000820154815260200160018201548152602001600282015481526020016003820154815260200160048201548152602001600582015481526020016007820154815260200160088201548152602001600a8201548152602001600b8201548152505081525050905060006136ed8686866138aa565b9050600061372683604001516060015161371884866040015160000151614bd390919063ffffffff16565b614b4a90919063ffffffff16565b905061374e81613740606485614ac490919063ffffffff16565b614b4a90919063ffffffff16565b93505050509392505050565b600080600080600080600080600080613771614d00565b600560008e815260200190815260200160002060010160008d8152602001908152602001600020604051806060016040529081600082015481526020016001820154815260200160028201604051806101400160405290816000820154815260200160018201548152602001600282015481526020016003820154815260200160048201548152602001600582015481526020016007820154815260200160088201548152602001600a8201548152602001600b8201548152505081525050905080600001518160200151826040015160000151836040015160200151846040015160400151856040015160600151866040015160800151876040015160c0015188604001516101000151896040015161012001519a509a509a509a509a509a509a509a509a509a50509295989b9194979a5092959850565b60006138b4614d00565b600560008681526020019081526020016000206001016000858152602001908152602001600020604051806060016040529081600082015481526020016001820154815260200160028201604051806101400160405290816000820154815260200160018201548152602001600282015481526020016003820154815260200160048201548152602001600582015481526020016007820154815260200160088201548152602001600a8201548152602001600b8201548152505081525050905061399081604001516020015184614ac490919063ffffffff16565b9150509392505050565b60006139a5846135e2565b6139ae57600080fd5b60008211613a24576040517f08c379a00000000000000000000000000000000000000000000000000000000081526004018080602001828103825260148152602001807f416d6f756e742068617320746f206265203e203000000000000000000000000081525060200191505060405180910390fd5b600060056000868152602001908152602001600020600101600085815260200190815260200160002090506000613a848260020160040154613a76846002016005015487614ac490919063ffffffff16565b614b4a90919063ffffffff16565b9050808260020160060160003373ffffffffffffffffffffffffffffffffffffffff1673ffffffffffffffffffffffffffffffffffffffff1681526020019081526020016000205411613b3f576040517f08c379a000000000000000000000000000000000000000000000000000000000815260040180806020018281038252601c8152602001807f4e6f2042616c616e636520746f2050756c6c204672616374696f6e730000000081525060200191505060405180910390fd5b6000613bb88360020160040154613baa8560020160060160003373ffffffffffffffffffffffffffffffffffffffff1673ffffffffffffffffffffffffffffffffffffffff168152602001908152602001600020548660020160050154614ac490919063ffffffff16565b614b4a90919063ffffffff16565b9050808510613c12576040517f08c379a0000000000000000000000000000000000000000000000000000000008152600401808060200182810382526048815260200180614dc16048913960600191505060405180910390fd5b613c69828460020160060160003373ffffffffffffffffffffffffffffffffffffffff1673ffffffffffffffffffffffffffffffffffffffff16815260200190815260200160002054614bd390919063ffffffff16565b8360020160060160003373ffffffffffffffffffffffffffffffffffffffff1673ffffffffffffffffffffffffffffffffffffffff16815260200190815260200160002081905550613ccb858460020160040154614bd390919063ffffffff16565b8360020160040181905550613cf0828460020160050154614bd390919063ffffffff16565b83600201600501819055506000613d17868560020160070154614a3c90919063ffffffff16565b90506000613d4e8560020160070154613d40848860020160080154614ac490919063ffffffff16565b614b4a90919063ffffffff16565b9050613d6a856002016008015482614bd390919063ffffffff16565b8560020160090160003373ffffffffffffffffffffffffffffffffffffffff1673ffffffffffffffffffffffffffffffffffffffff168152602001908152602001600020819055508085600201600801819055508185600201600701819055506001955050505050509392505050565b6000613de5846135e2565b613dee57600080fd5b60008211613e64576040517f08c379a00000000000000000000000000000000000000000000000000000000081526004018080602001828103825260148152602001807f416d6f756e742068617320746f206265203e203000000000000000000000000081525060200191505060405180910390fd5b600060056000868152602001908152602001600020600101600085815260200190815260200160002090506000600190506001851415613ea357600290505b600060056000888152602001908152602001600020600101600083815260200190815260200160002090506000613f038460020160070154613ef5866002016008015489614ac490919063ffffffff16565b614b4a90919063ffffffff16565b9050808460020160090160003373ffffffffffffffffffffffffffffffffffffffff1673ffffffffffffffffffffffffffffffffffffffff1681526020019081526020016000205411613fbe576040517f08c379a00000000000000000000000000000000000000000000000000000000081526004018080602001828103825260178152602001807f4e6f2042616c616e636520746f204c697175696461746500000000000000000081525060200191505060405180910390fd5b6000613fcb898989614321565b905060038110614043576040517f08c379a000000000000000000000000000000000000000000000000000000000815260040180806020018281038252601d8152602001807f536c69706167652068617320746f206265206c657373207468616e203300000081525060200191505060405180910390fd5b600061405f866002016001015489614ac490919063ffffffff16565b90506140b8838760020160090160003373ffffffffffffffffffffffffffffffffffffffff1673ffffffffffffffffffffffffffffffffffffffff16815260200190815260200160002054614bd390919063ffffffff16565b8660020160090160003373ffffffffffffffffffffffffffffffffffffffff1673ffffffffffffffffffffffffffffffffffffffff1681526020019081526020016000208190555061411a888760020160070154614bd390919063ffffffff16565b866002016007018190555061413f838760020160080154614bd390919063ffffffff16565b8660020160080181905550614164888760020160040154614a3c90919063ffffffff16565b8660020160040181905550614189818760020160000154614bd390919063ffffffff16565b86600201600001819055506141c986600201600001546141bb6002548760020160000154614ac490919063ffffffff16565b614b4a90919063ffffffff16565b60025460010201866002016002018190555061421084600201600001546142026002548960020160000154614ac490919063ffffffff16565b614b4a90919063ffffffff16565b60025460010201846002016002018190555061424386600201600301548760020160000154614b4a90919063ffffffff16565b866002016001018190555061426f84600201600301548560020160000154614b4a90919063ffffffff16565b84600201600101819055503373ffffffffffffffffffffffffffffffffffffffff166108fc829081150290604051600060405180830381858888f193505050501580156142c0573d6000803e3d6000fd5b503373ffffffffffffffffffffffffffffffffffffffff168a7f5510da23a90d54e35ddff683d35a6e64dd363c19c189b94ff402ffc99a8cc274836040518082815260200191505060405180910390a3600196505050505050509392505050565b600061432b614d00565b600560008681526020019081526020016000206001016000858152602001908152602001600020604051806060016040529081600082015481526020016001820154815260200160028201604051806101400160405290816000820154815260200160018201548152602001600282015481526020016003820154815260200160048201548152602001600582015481526020016007820154815260200160088201548152602001600a8201548152602001600b8201548152505081525050905060006143f98686866138aa565b9050600061443283604001516060015161442484866040015160000151614bd390919063ffffffff16565b614b4a90919063ffffffff16565b905061445a8261444c606484614ac490919063ffffffff16565b614b4a90919063ffffffff16565b93505050509392505050565b600061447183612616565b6144e3576040517f08c379a00000000000000000000000000000000000000000000000000000000081526004018080602001828103825260168152602001807f4576656e742068617320746f20626520636c6f7365640000000000000000000081525060200191505060405180910390fd5b6000600560008581526020019081526020016000206001016000848152602001908152602001600020905082600560008681526020019081526020016000206002015414614599576040517f08c379a000000000000000000000000000000000000000000000000000000000815260040180806020018281038252601e8152602001807f526573756c74205370616365206973206e6f74207468652077696e6e6572000081525060200191505060405180910390fd5b6000151581600f0160003373ffffffffffffffffffffffffffffffffffffffff1673ffffffffffffffffffffffffffffffffffffffff16815260200190815260200160002060009054906101000a900460ff16151514614661576040517f08c379a00000000000000000000000000000000000000000000000000000000081526004018080602001828103825260158152602001807f57696e6e696e6720616c72656164792074616b656e000000000000000000000081525060200191505060405180910390fd5b60006146da82600201600501546146cc84600201600401548560020160060160003373ffffffffffffffffffffffffffffffffffffffff1673ffffffffffffffffffffffffffffffffffffffff16815260200190815260200160002054614ac490919063ffffffff16565b614b4a90919063ffffffff16565b90506000614755836002016008015461474785600201600701548660020160090160003373ffffffffffffffffffffffffffffffffffffffff1673ffffffffffffffffffffffffffffffffffffffff16815260200190815260200160002054614ac490919063ffffffff16565b614b4a90919063ffffffff16565b905060006147c6614773600354600254614ac490919063ffffffff16565b6147b886600201600201546147aa886002016001015461479c8989614a3c90919063ffffffff16565b614ac490919063ffffffff16565b614ac490919063ffffffff16565b614b4a90919063ffffffff16565b90503373ffffffffffffffffffffffffffffffffffffffff166108fc829081150290604051600060405180830381858888f1935050505015801561480e573d6000803e3d6000fd5b506001600560008981526020019081526020016000206001016000888152602001908152602001600020600f0160003373ffffffffffffffffffffffffffffffffffffffff1673ffffffffffffffffffffffffffffffffffffffff16815260200190815260200160002060006101000a81548160ff0219169083151502179055503373ffffffffffffffffffffffffffffffffffffffff16877fa62bf33e3860a18b08244c1b59b8aa4920be374252eb534e0ab47d5f7a18ca18836040518082815260200191505060405180910390a35050505092915050565b600060019054906101000a900473ffffffffffffffffffffffffffffffffffffffff1673ffffffffffffffffffffffffffffffffffffffff163373ffffffffffffffffffffffffffffffffffffffff161461494257600080fd5b600073ffffffffffffffffffffffffffffffffffffffff168173ffffffffffffffffffffffffffffffffffffffff16141561497c57600080fd5b8073ffffffffffffffffffffffffffffffffffffffff16600060019054906101000a900473ffffffffffffffffffffffffffffffffffffffff1673ffffffffffffffffffffffffffffffffffffffff167f8be0079c531659141344cd1fd0a4f28419497f9722a3daafe3b4186f6b6457e060405160405180910390a380600060016101000a81548173ffffffffffffffffffffffffffffffffffffffff021916908373ffffffffffffffffffffffffffffffffffffffff16021790555050565b600080828401905083811015614aba576040517f08c379a000000000000000000000000000000000000000000000000000000000815260040180806020018281038252601b8152602001807f536166654d6174683a206164646974696f6e206f766572666c6f77000000000081525060200191505060405180910390fd5b8091505092915050565b600080831415614ad75760009050614b44565b6000828402905082848281614ae857fe5b0414614b3f576040517f08c379a0000000000000000000000000000000000000000000000000000000008152600401808060200182810382526021815260200180614da06021913960400191505060405180910390fd5b809150505b92915050565b6000808211614bc1576040517f08c379a000000000000000000000000000000000000000000000000000000000815260040180806020018281038252601a8152602001807f536166654d6174683a206469766973696f6e206279207a65726f00000000000081525060200191505060405180910390fd5b818381614bca57fe5b04905092915050565b600082821115614c4b576040517f08c379a000000000000000000000000000000000000000000000000000000000815260040180806020018281038252601e8152602001807f536166654d6174683a207375627472616374696f6e206f766572666c6f77000081525060200191505060405180910390fd5b818303905092915050565b60405180608001604052806060815260200160008152602001606081526020016000151581525090565b828054600181600116156101000203166002900490600052602060002090601f016020900481019282601f10614cc157805160ff1916838001178555614cef565b82800160010185558215614cef579182015b82811115614cee578251825591602001919060010190614cd3565b5b509050614cfc9190614d27565b5090565b60405180606001604052806000815260200160008152602001614d21614d4c565b81525090565b614d4991905b80821115614d45576000816000905550600101614d2d565b5090565b90565b60405180610140016040528060008152602001600081526020016000815260200160008152602001600081526020016000815260200160008152602001600081526020016000815260200160008152509056fe536166654d6174683a206d756c7469706c69636174696f6e206f766572666c6f77416d6f756e74206f66204672616374696f6e73206f757473696465206f66206c6971756964697479206861766520746f20626520626967676572207468616e2070726f706f736564496e697469616c204672616374696f6e20436f73742068617320746f206265203e203054782076616c75652068617320746f20626520657175616c20746f2070617961626c652073656e74a26469706673582212201be44ad1656cdf5636d03a74fab020d66e56780f9f6742961db7df78b716dd0364736f6c63430006020033",
  "source": "// SPDX-License-Identifier: MIT\n\npragma solidity >=0.6.0;\n\nimport \"@openzeppelin/contracts/token/ERC20/ERC20.sol\";\nimport \"@openzeppelin/contracts/utils/Pausable.sol\";\nimport \"./utils/Ownable.sol\";\n\ncontract Exchange is Pausable, Ownable {\n   \n    using SafeMath for uint256;\n\n    uint256 public eventId = 0;\n    uint256 public ODD_DECIMALS = 10**4; // 1*10**4 = 10000 => 1.000\n    uint256 public CURRENCY_DECIMALS = 10**7; \n    uint256[] public eventIds;\n    mapping(uint256 => Event) public events;\n    mapping(address => uint256[]) public myEvents;\n\n \n    struct Fraction {\n        uint256 pool;           /* (Pool) Total pool amount (ETH in WEI) */\n        uint256 cost;           /* (VF) Fraction Cost (ETH in WEI) */\n        uint256 odd;            /* (Odd) Odd of Fraction (in 10**4) (ex : 2.410 = 2410) */\n        /* IN + OUT */\n        uint256 amount;         /* (#F) Total amount of fractions (in 10**18)  */\n        /* IN */\n        uint256 inPool;                 /* (In) Total amount Absolute of fractions in pool (in 10**18) */\n        uint256 relIn;            /* (#In) Relative amount of fractions in pool (in 10**18) */\n        mapping(address => uint256) inPoolBalances;   /* (#In[]) Relative amount of fractions in pool per address (in 10**18)*/\n        /* OUT */\n        uint256 outPool;                 /* (Out) Total amount of fractions off pool (in 10**18) */\n        uint256 relOut;            /* (#Out) Relative amount of fractions off pool (in 10**18) */\n        mapping(address => uint256) outPoolBalances;   /* (#Out[])Relative amount of fractions off pool per address (in 10**18)*/\n        /* Fees */\n        uint256 fees;                       /* Absolute Amount of Fees available (in 10**18)  */\n        uint256 liqAmount;                      /* Absolute Amount of Fractions in liquidity */\n        mapping(address => uint256) liquidity;  /* Liquidity of Address - absolute values */\n        // TO DO : Use fees for something\n    }\n\n    struct ResultSpace {\n        uint256 id;                         /* Result Space External ID - IPFS Mapping*/\n        uint256 resultId;                   /* Result Space ID */\n        Fraction fraction;                  /* Amount of Fractions existent */\n        mapping(address => bool) tookWinnings; /* See if Winnings were taken */\n    }\n\n    struct Event {\n        string name; /* Event name */\n        mapping(uint256 => ResultSpace) resultSpaces;\n        uint256 result; /* result space id (when finalized) */\n        string urlOracle; /* URL that determines the result */\n        bool isResolved; /* If Resolved */\n    }    \n\n    event CreateEvent(uint256 indexed id, string indexed name);\n    event BuyEvent(uint256 indexed id, uint256 indexed resultSpaceId, uint256 fractionAmount, uint256 fractionCost, address indexed buyer);\n    event CloseEvent(uint256 indexed id, uint256 indexed resultSpaceId);\n    event WithdrawEvent(uint256 indexed id, uint256 winAmount, address indexed buyer);\n    event SellEvent(uint256 indexed id, uint256 liquidateAmount, address indexed seller);\n\n    constructor() public {\n       \n    }\n\n    function isEventOpen(uint256 _eventId) public returns (bool success){\n        return (events[_eventId].isResolved == false);\n    }\n\n    function isEventClosed(uint256 _eventId) public returns (bool success){\n        return (events[_eventId].isResolved == true);\n    }\n\n    function createEvent(uint256[] memory _resultSpaceIds /* Descriptions */, string memory _urlOracle, string memory _eventName) payable public onlyOwner returns (bool success) {\n        require(_resultSpaceIds.length == 2, \"Result Spaces need to be 2 \"); \n        uint256 resultId = 1;\n        uint256 fractionAmount = 100*CURRENCY_DECIMALS;\n        uint256 initialFractionCost = msg.value.div(_resultSpaceIds.length).div(fractionAmount); /* Initial Amount */\n        require(initialFractionCost > 0, \"Initial Fraction Cost has to be > 0\"); /* Initial Fraction Cost has to be > 0 */\n\n        /* Create Event */\n        Event storage _event = events[eventId];\n        _event.name = _eventName;\n        _event.urlOracle = _urlOracle;\n        _event.isResolved = false;\n\n        /* Create the Result spaces */\n        for (uint i = 0; i < _resultSpaceIds.length; i++) {\n\n            ResultSpace storage resultSpace = _event.resultSpaces[resultId];\n\n            resultSpace.resultId = resultId;\n            resultSpace.id = _resultSpaceIds[i];\n\n            Fraction storage fraction = resultSpace.fraction;\n            fraction.pool = msg.value.div(_resultSpaceIds.length);\n            fraction.cost = initialFractionCost;\n            fraction.odd = _resultSpaceIds.length*ODD_DECIMALS;\n            fraction.amount = fractionAmount;\n            fraction.inPool = fractionAmount;\n            fraction.relIn = fractionAmount;\n            fraction.outPool = 0;\n            fraction.relOut = 0;\n            fraction.fees = 0;\n            fraction.liqAmount = 0;\n\n            resultId = resultId + 1;\n            _event.resultSpaces[resultId].fraction.inPoolBalances[address(this)] = fractionAmount;\n        }\n\n        eventIds.push(eventId);\n        emit CreateEvent(eventId, _eventName);\n        eventId = eventId + 1;\n        return true;\n    }\n\n    function addLiquidity(uint256 _eventId) payable public returns (bool success) {\n        require(isEventOpen(_eventId));\n        require(msg.value > 0, \"Amount has to be > 0\");\n\n        ResultSpace storage resultSpace_opp = events[_eventId].resultSpaces[1];\n        ResultSpace storage resultSpace = events[_eventId].resultSpaces[2];\n\n        uint256 poolA2 = 0;\n        uint256 poolB2 = 0;\n        uint256 FA2 = 0;\n        uint256 FB2 = 0;\n        uint256 ratio = 50; /* 50% */ // resultSpace_opp.fraction.pool.div(resultSpace.fraction.pool)\n\n        /* Pool A2 */\n        poolA2 = resultSpace.fraction.pool.add(msg.value.mul(ratio).div(100));\n        /* Pool B2 */\n        poolB2 = resultSpace_opp.fraction.pool.add(msg.value.mul(ratio).div(100));\n\n        /* FA2 */\n        FA2 = (poolA2.mul(resultSpace.fraction.amount)).div(resultSpace.fraction.pool);\n        /* FB2 */\n        FB2 = (poolB2.mul(resultSpace_opp.fraction.amount)).div(resultSpace_opp.fraction.pool);\n\n        resultSpace.fraction.pool = poolA2;\n        resultSpace_opp.fraction.pool = poolB2;\n\n        uint256 fractionsToAddA = FA2.sub(resultSpace.fraction.amount);\n        uint256 fractionsToAddB = FB2.sub(resultSpace_opp.fraction.amount);\n\n        uint256 inPoolA2 = resultSpace.fraction.inPool.add(fractionsToAddA);\n        uint256 inPoolB2 = resultSpace_opp.fraction.inPool.add(fractionsToAddB);\n\n        uint256 relIn2 = fractionsToAddA;\n        uint256 relIn2_opp = fractionsToAddB;\n\n        if(resultSpace.fraction.relIn > 0){\n            relIn2 = inPoolA2.mul(resultSpace.fraction.relIn).div(resultSpace.fraction.inPool);\n        }\n        if(resultSpace_opp.fraction.relIn > 0){\n            relIn2_opp = inPoolB2.mul(resultSpace_opp.fraction.relIn).div(resultSpace_opp.fraction.inPool);\n        }        \n\n        /* INA2 */\n        resultSpace.fraction.inPool = inPoolA2;\n        /* INB2 */\n        resultSpace_opp.fraction.inPool = inPoolB2;\n\n        /* INA[]2 */\n        resultSpace.fraction.inPoolBalances[msg.sender] = resultSpace.fraction.inPoolBalances[msg.sender].add(relIn2.sub(resultSpace.fraction.relIn));\n        /* INB[]2 */\n        resultSpace_opp.fraction.inPoolBalances[msg.sender] = resultSpace_opp.fraction.inPoolBalances[msg.sender].add(relIn2_opp.sub(resultSpace_opp.fraction.relIn));\n\n        /* LiqA[]2 */\n        resultSpace.fraction.liquidity[msg.sender] = resultSpace.fraction.liquidity[msg.sender].add(fractionsToAddA);\n        /* LiqB[]2 */\n        resultSpace_opp.fraction.liquidity[msg.sender] = resultSpace_opp.fraction.liquidity[msg.sender].add(fractionsToAddB);\n\n        /* #INA2 */\n        resultSpace.fraction.relIn = relIn2;\n        /* #INB2 */\n        resultSpace_opp.fraction.relIn = relIn2_opp;\n\n        resultSpace.fraction.amount = FA2;\n        resultSpace_opp.fraction.amount = FB2;\n\n        /* Add Liquidity Amount */\n        resultSpace.fraction.liqAmount = resultSpace.fraction.liqAmount.add(fractionsToAddA);\n        resultSpace_opp.fraction.liqAmount = resultSpace.fraction.liqAmount.add(fractionsToAddB);\n        \n        myEvents[msg.sender].push(_eventId);\n    }\n\n    function removeLiquidity(uint256 _eventId) public returns (bool success) {\n\n        ResultSpace storage resultSpace_opp = events[_eventId].resultSpaces[1];\n        ResultSpace storage resultSpace = events[_eventId].resultSpaces[2];\n        \n        require(resultSpace.fraction.liquidity[msg.sender] > 0, \"Liquidity has to bigger than 0\");\n        require(resultSpace_opp.fraction.liquidity[msg.sender] > 0, \"Liquidity has to bigger than 0\");\n\n        uint256 poolA2 = 0;\n        uint256 poolB2 = 0;\n\n        uint256 liqPoolAfromUser = resultSpace.fraction.liquidity[msg.sender].mul(resultSpace.fraction.pool).div(resultSpace.fraction.amount);\n        uint256 liqPoolBfromUser = resultSpace_opp.fraction.liquidity[msg.sender].mul(resultSpace_opp.fraction.pool).div(resultSpace_opp.fraction.amount);\n        \n        /* Pool A2 */\n        resultSpace.fraction.pool = resultSpace.fraction.pool.sub(liqPoolAfromUser);\n        /* Pool B2 */\n        resultSpace_opp.fraction.pool = resultSpace_opp.fraction.pool.sub(liqPoolBfromUser);\n\n        /* FA2 */\n        resultSpace.fraction.amount = resultSpace.fraction.amount.sub(resultSpace.fraction.liquidity[msg.sender]);\n        /* FB2 */\n        resultSpace_opp.fraction.amount = resultSpace_opp.fraction.amount.sub(resultSpace_opp.fraction.liquidity[msg.sender]);\n\n        /* INA2 */\n        uint256 inPoolA2 = resultSpace.fraction.inPool.sub(resultSpace.fraction.liquidity[msg.sender]);\n        /* INB2 */\n        uint256 inPoolB2 = resultSpace_opp.fraction.inPool.sub(resultSpace_opp.fraction.liquidity[msg.sender]);\n\n        /* #INA2 */\n        uint256 relAIn = resultSpace.fraction.relIn.mul(inPoolA2).div(resultSpace.fraction.inPool);\n        /* #INB2 */\n        uint256 relBIn = resultSpace_opp.fraction.relIn.mul(inPoolB2).div(resultSpace_opp.fraction.inPool);\n\n        /* Initial Fractions Amount */\n        uint256 initialFractionsA = resultSpace.fraction.inPoolBalances[msg.sender].mul(resultSpace.fraction.inPool).div(resultSpace.fraction.relIn);\n        uint256 initialFractionsB = resultSpace_opp.fraction.inPoolBalances[msg.sender].mul(resultSpace_opp.fraction.inPool).div(resultSpace_opp.fraction.relIn);\n\n        /* INA[]2 */\n        resultSpace.fraction.inPoolBalances[msg.sender] = relAIn.mul(initialFractionsA.sub(resultSpace.fraction.liquidity[msg.sender])).div(inPoolA2);\n        /* INB[]2 */\n        resultSpace_opp.fraction.inPoolBalances[msg.sender] = relBIn.mul(initialFractionsB.sub(resultSpace_opp.fraction.liquidity[msg.sender])).div(inPoolB2);\n\n        resultSpace.fraction.inPool = inPoolA2;\n        resultSpace_opp.fraction.inPool = inPoolB2;\n\n        resultSpace.fraction.relIn = relAIn;\n        resultSpace_opp.fraction.relIn = relBIn;\n\n        /* Remove Liquidity Amount */\n        resultSpace.fraction.liqAmount = resultSpace.fraction.liqAmount.sub(resultSpace.fraction.liquidity[msg.sender]);\n        resultSpace_opp.fraction.liqAmount = resultSpace_opp.fraction.liqAmount.sub(resultSpace_opp.fraction.liquidity[msg.sender]);\n\n        /* LiqA[]2 */\n        resultSpace.fraction.liquidity[msg.sender] = 0;\n        /* LiqB[]2 */\n        resultSpace_opp.fraction.liquidity[msg.sender] = 0;\n\n        uint256 totalLiquidity = liqPoolAfromUser.mul(resultSpace.fraction.cost).add(liqPoolBfromUser.mul(resultSpace_opp.fraction.cost));\n        /* Remove Liquidity */\n        msg.sender.transfer(totalLiquidity);\n    }\n\n    function buy(uint256 _eventId, uint256 _resultSpaceId, uint256 _fractionsAmount) payable public returns (bool success) {\n        require(isEventOpen(_eventId));\n        require(_fractionsAmount > 0, \"Amount has to be > 0\");\n\n        uint256 _oppResSpaceId = 1;\n        if(_resultSpaceId == 1){_oppResSpaceId = 2;}\n\n        ResultSpace storage resultSpace_opp = events[_eventId].resultSpaces[_oppResSpaceId];\n        ResultSpace storage resultSpace = events[_eventId].resultSpaces[_resultSpaceId];\n\n        uint256 marketValue =  getFractionsCost(_eventId, _resultSpaceId, _fractionsAmount);\n        uint256 previousFractionCost = resultSpace.fraction.cost;\n\n        uint256 slipage = getSlipageOnBuy(_eventId, _resultSpaceId, _fractionsAmount);\n        require(slipage < 3, \"Slipage has to be less than 3\");\n\n        require(msg.value == marketValue, \"Tx value has to be equal to payable sent\"); \n\n        /* Pool A2 */\n        resultSpace.fraction.pool = resultSpace.fraction.pool.add(marketValue);\n        /* Odd A2 */\n        resultSpace.fraction.odd = 1*ODD_DECIMALS + (resultSpace_opp.fraction.pool.mul(ODD_DECIMALS).div(resultSpace.fraction.pool));\n        /* Odd B2 */\n        resultSpace_opp.fraction.odd = 1*ODD_DECIMALS + (resultSpace.fraction.pool.mul(ODD_DECIMALS).div(resultSpace_opp.fraction.pool));\n        /* VF A2 */\n        resultSpace.fraction.cost = resultSpace.fraction.pool.div(resultSpace.fraction.amount);\n        /* VF B2 */\n        resultSpace_opp.fraction.cost = resultSpace_opp.fraction.pool.div(resultSpace_opp.fraction.amount);\n        /* #In A2 */\n        uint256 relIn2 = _fractionsAmount;\n        if(resultSpace.fraction.relIn > 0){\n            relIn2 = resultSpace.fraction.relIn.div(1 - (previousFractionCost.div(resultSpace.fraction.relIn)));\n        }\n        /* #In[] A2 */\n        resultSpace.fraction.inPoolBalances[msg.sender] = relIn2.sub(resultSpace.fraction.relIn);\n        resultSpace.fraction.relIn = relIn2;\n        myEvents[msg.sender].push(_eventId);\n        emit BuyEvent(_eventId, _resultSpaceId, _fractionsAmount, previousFractionCost, msg.sender);\n        return true;\n    }\n\n    function sell(uint256 _eventId, uint256 _resultSpaceId, uint256 _fractionsAmount) public returns (bool success) {\n        require(isEventOpen(_eventId));\n        require(_fractionsAmount > 0, \"Amount has to be > 0\");\n        \n        ResultSpace storage resultSpace = events[_eventId].resultSpaces[_resultSpaceId];\n        uint256 _oppResSpaceId = 1;\n        if(_resultSpaceId == 1){_oppResSpaceId = 2;}\n        ResultSpace storage resultSpace_opp = events[_eventId].resultSpaces[_oppResSpaceId];\n\n        uint256 fractionsAmountRelative = (_fractionsAmount.mul(resultSpace.fraction.relOut)).div(resultSpace.fraction.outPool);\n        require(resultSpace.fraction.outPoolBalances[msg.sender] > fractionsAmountRelative, \"No Balance to Liquidate\");\n\n        uint256 slipage = getSlipageOnSell(_eventId, _resultSpaceId, _fractionsAmount);\n        require(slipage < 3, \"Slipage has to be less than 3\");\n\n        uint256 marketValue = _fractionsAmount.mul(resultSpace.fraction.cost);\n\n        /* #Out[] A2 */\n        resultSpace.fraction.outPoolBalances[msg.sender] = resultSpace.fraction.outPoolBalances[msg.sender].sub(fractionsAmountRelative);\n        /* Out A2 */\n        resultSpace.fraction.outPool = resultSpace.fraction.outPool.sub(_fractionsAmount);\n        /* #Out A2 */\n        resultSpace.fraction.relOut = resultSpace.fraction.relOut.sub(fractionsAmountRelative);\n        /* In A2 */\n        resultSpace.fraction.inPool = resultSpace.fraction.inPool.add(_fractionsAmount);\n        /* Pool A2 */\n        resultSpace.fraction.pool = resultSpace.fraction.pool.sub(marketValue);\n        /* Odd A2 */\n        resultSpace.fraction.odd = 1*ODD_DECIMALS + (resultSpace_opp.fraction.pool.mul(ODD_DECIMALS).div(resultSpace.fraction.pool));\n        /* Odd B2 */\n        resultSpace_opp.fraction.odd = 1*ODD_DECIMALS + (resultSpace.fraction.pool.mul(ODD_DECIMALS).div(resultSpace_opp.fraction.pool));\n        /* VF A2 */\n        resultSpace.fraction.cost = resultSpace.fraction.pool.div(resultSpace.fraction.amount);\n        /* VF B2 */\n        resultSpace_opp.fraction.cost = resultSpace_opp.fraction.pool.div(resultSpace_opp.fraction.amount);\n      \n        /* Liquidate the pool capital to the seller */\n        msg.sender.transfer(marketValue);\n\n        /* Winnings taken */\n        emit SellEvent(_eventId, marketValue, msg.sender);\n        return true;\n    }\n\n    function getSlipageOnSell(uint256 _eventId, uint256 _resultSpaceId, uint256 _fractionsAmount) view public returns (uint256 slipage) {\n        ResultSpace memory resultSpace = events[_eventId].resultSpaces[_resultSpaceId];\n        uint256 marketValue = getFractionsCost(_eventId, _resultSpaceId, _fractionsAmount);\n        uint256 newValue = (resultSpace.fraction.pool.sub(marketValue)).div(resultSpace.fraction.amount);\n        return newValue.mul(100).div(marketValue);\n    }\n\n    function getSlipageOnBuy(uint256 _eventId, uint256 _resultSpaceId, uint256 _fractionsAmount) view public returns (uint256 slipage) {\n        ResultSpace memory resultSpace = events[_eventId].resultSpaces[_resultSpaceId];\n        uint256 marketValue = getFractionsCost(_eventId, _resultSpaceId, _fractionsAmount);\n        uint256 newValue = (resultSpace.fraction.pool.sub(marketValue)).div(resultSpace.fraction.amount);\n        return marketValue.mul(100).div(newValue);\n    }\n\n    function getFractionsCost(uint256 _eventId, uint256 _resultSpaceId, uint256 _fractionsAmount) view public returns (uint256) {\n        ResultSpace memory resultSpace = events[_eventId].resultSpaces[_resultSpaceId];\n        return _fractionsAmount.mul(resultSpace.fraction.cost);\n    }\n\n    function pullFractions(uint256 _eventId, uint256 _resultSpaceId, uint256 _fractionsAmount) public returns (bool success) {\n        require(isEventOpen(_eventId));\n        require(_fractionsAmount > 0, \"Amount has to be > 0\");\n\n        ResultSpace storage resultSpace = events[_eventId].resultSpaces[_resultSpaceId];        \n        /* #FT */\n        uint256 fractionsAmountRelative = (_fractionsAmount.mul(resultSpace.fraction.relIn)).div(resultSpace.fraction.inPool);\n        require(resultSpace.fraction.inPoolBalances[msg.sender] > fractionsAmountRelative, \"No Balance to Pull Fractions\");\n\n        uint256 fractionsOutsideOfLiquidity = resultSpace.fraction.relIn.mul(resultSpace.fraction.inPoolBalances[msg.sender]).div(resultSpace.fraction.inPool);\n        require(_fractionsAmount < fractionsOutsideOfLiquidity, \"Amount of Fractions outside of liquidity have to be bigger than proposed\"); \n\n        /* #In[] A2 */\n        resultSpace.fraction.inPoolBalances[msg.sender] = resultSpace.fraction.inPoolBalances[msg.sender].sub(fractionsAmountRelative);\n        /* In A2 */\n        resultSpace.fraction.inPool = resultSpace.fraction.inPool.sub(_fractionsAmount);\n        /* #In A2 */\n        resultSpace.fraction.relIn = resultSpace.fraction.relIn.sub(fractionsAmountRelative);\n\n        uint256 out2 = resultSpace.fraction.outPool.add(_fractionsAmount);\n        uint256 relOut2 = (resultSpace.fraction.relOut.mul(out2)).div(resultSpace.fraction.outPool);\n\n        /* #Out[] A2 */\n        resultSpace.fraction.outPoolBalances[msg.sender] = relOut2.sub(resultSpace.fraction.relOut);\n        /* #Out A2 */\n        resultSpace.fraction.relOut = relOut2;\n        /* Out A2 */\n        resultSpace.fraction.outPool = out2;\n\n        return true;\n    }\n\n    function pushFractions(uint256 _eventId, uint256 _resultSpaceId, uint256 _fractionsAmount) public returns (bool success) {\n        require(isEventOpen(_eventId));\n        require(_fractionsAmount > 0, \"Amount has to be > 0\");\n\n        ResultSpace storage resultSpace = events[_eventId].resultSpaces[_resultSpaceId];\n\n        /* #FT */\n        uint256 fractionsAmountRelative = (_fractionsAmount.mul(resultSpace.fraction.relOut)).div(resultSpace.fraction.outPool);\n        require(resultSpace.fraction.outPoolBalances[msg.sender] > fractionsAmountRelative, \"No Balance to Pull Fractions\");\n \n        /* #Out[] A2 */\n        resultSpace.fraction.outPoolBalances[msg.sender] = resultSpace.fraction.outPoolBalances[msg.sender].sub(fractionsAmountRelative);\n        /* Out A2 */\n        resultSpace.fraction.outPool = resultSpace.fraction.outPool.sub(_fractionsAmount);\n        /* #Out A2 */\n        resultSpace.fraction.relOut = resultSpace.fraction.relOut.sub(fractionsAmountRelative);\n\n        uint256 in2 = resultSpace.fraction.inPool.add(_fractionsAmount);\n        uint256 relIn2 = (resultSpace.fraction.relIn.mul(in2)).div(resultSpace.fraction.inPool);\n\n        /* #Int[] A2 */\n        resultSpace.fraction.inPoolBalances[msg.sender] = relIn2.sub(resultSpace.fraction.relIn);\n        /* #In A2 */\n        resultSpace.fraction.relIn = relIn2;\n        /* In A2 */\n        resultSpace.fraction.inPool = in2;\n\n        return true;\n    }\n\n    /* Event Resolution */\n    function resolveEvent(uint256 _eventId, uint256 _resultId) public onlyOwner returns (bool success) {\n        require(isEventOpen(_eventId));\n        /* Confirm it exists */\n        require((_resultId > 0) && (_resultId < 3));\n        /* Set the result */\n        events[_eventId].result = _resultId;\n        /* Close Event */\n        events[_eventId].isResolved = true;\n        emit CloseEvent(_eventId, _resultId);\n    }\n\n    function withdrawWins(uint256 _eventId, uint256 _resultSpaceId) public returns (bool success) {\n\n        require(isEventClosed(_eventId), \"Event has to be closed\");\n        ResultSpace storage resultSpace = events[_eventId].resultSpaces[_resultSpaceId];\n        require(events[_eventId].result == _resultSpaceId, \"Result Space is not the winner\");\n        require(resultSpace.tookWinnings[msg.sender] == false, \"Winning already taken\");\n\n        /* Get Win Amount */\n        uint256 absoluteFractionsIn = (resultSpace.fraction.inPoolBalances[msg.sender].mul(resultSpace.fraction.inPool)).div(resultSpace.fraction.relIn);\n        uint256 absoluteFractionsOut = (resultSpace.fraction.outPoolBalances[msg.sender].mul(resultSpace.fraction.outPool)).div(resultSpace.fraction.relOut);\n        uint256 winningAmount = ((absoluteFractionsOut.add(absoluteFractionsIn)).mul(resultSpace.fraction.cost).mul(resultSpace.fraction.odd)).div(ODD_DECIMALS.mul(CURRENCY_DECIMALS));\n\n        /* Send Winnings */\n        msg.sender.transfer(winningAmount);\n\n        /* Winnings taken */\n        events[_eventId].resultSpaces[_resultSpaceId].tookWinnings[msg.sender] = true;\n        emit WithdrawEvent(_eventId, winningAmount, msg.sender);\n    }\n\n    /* Get All Events */\n    function getEvents() view public returns (uint256[] memory event_ids) {\n        return eventIds;\n    }\n\n    /* Get Event Date */\n    function getEventData(uint256 _eventId) view public returns (string memory, uint256, string memory, bool) {\n        Event memory _event = events[_eventId];\n        /* Return Event Data */\n        return (_event.name, _event.result, _event.urlOracle, _event.isResolved);\n    }\n\n    /* Get Result Space Date */\n    function getResultSpaceData(uint256 _eventId, uint256 resultSpace_id) view public returns (\n        uint256 _id, uint256 _resultId, uint256 _pool, uint256 _cost, uint256 _odd, \n        uint256 _amount, uint256 _in, uint256 _out, uint256 _fees, uint256 _liqAmount\n    ) {\n        ResultSpace memory resultSpace = events[_eventId].resultSpaces[resultSpace_id];\n\n        return (resultSpace.id, resultSpace.resultId, resultSpace.fraction.pool, resultSpace.fraction.cost,\n        resultSpace.fraction.odd, resultSpace.fraction.amount, resultSpace.fraction.inPool, resultSpace.fraction.outPool,\n        resultSpace.fraction.fees, resultSpace.fraction.liqAmount);\n    }\n\n    /* Get Portfolio of My events based on address */\n    function getMyEvents() view public returns (uint256[] memory){\n        return myEvents[msg.sender];\n    }\n\n    /* Get Portfolio of My Holdings/Liquidity on Event Data based on address (IN / OUT / Liquidity for each type) */\n    function getMyEventHoldings(uint256 _eventId) view public returns (uint256, uint256, uint256, uint256, uint256, uint256){\n        /* TO DO */\n        ResultSpace storage resultSpace = events[_eventId].resultSpaces[1];\n        ResultSpace storage resultSpace_opp = events[_eventId].resultSpaces[2];\n\n        return (\n            resultSpace.fraction.inPoolBalances[msg.sender], resultSpace.fraction.outPoolBalances[msg.sender], resultSpace.fraction.liquidity[msg.sender],\n            resultSpace_opp.fraction.inPoolBalances[msg.sender], resultSpace_opp.fraction.outPoolBalances[msg.sender], resultSpace_opp.fraction.liquidity[msg.sender]\n            );\n    }\n\n   function removeOtherERC20Tokens(address _tokenAddress, address _to) external onlyOwner {\n        ERC20 erc20Token = ERC20(_tokenAddress);\n        erc20Token.transfer(_to, erc20Token.balanceOf(address(this)));\n    } \n}",
  "sourcePath": "/Users/ruipedro/Desktop/projects/Bepro/@bepro-js/contracts/ExchangeMarket.sol",
  "compiler": {
    "name": "solc",
    "version": "0.6.2+commit.bacdbe57.Emscripten.clang"
  },
  "schemaVersion": "3.0.20",
  "updatedAt": "2021-04-03T22:58:02.848Z",
  "devdoc": {
    "methods": {
      "paused()": {
        "details": "Returns true if the contract is paused, and false otherwise."
      },
      "transferOwnership(address)": {
        "details": "Allows the current owner to transfer control of the contract to a newOwner.",
        "params": {
          "newOwner": "The address to transfer ownership to."
        }
      }
    }
  },
  "userdoc": {
    "methods": {}
  }
}