{
  "contractName": "Governed",
  "abi": [
    {
      "inputs": [],
      "stateMutability": "nonpayable",
      "type": "constructor"
    },
    {
      "anonymous": false,
      "inputs": [
        {
          "indexed": true,
          "internalType": "address",
          "name": "previousGovernor",
          "type": "address"
        },
        {
          "indexed": true,
          "internalType": "address",
          "name": "newGovernor",
          "type": "address"
        }
      ],
      "name": "GovernorTransferred",
      "type": "event"
    },
    {
      "inputs": [],
      "name": "_governor",
      "outputs": [
        {
          "internalType": "address",
          "name": "",
          "type": "address"
        }
      ],
      "stateMutability": "view",
      "type": "function"
    },
    {
      "inputs": [
        {
          "internalType": "address",
          "name": "newGovernor",
          "type": "address"
        }
      ],
      "name": "transferGovernor",
      "outputs": [],
      "stateMutability": "nonpayable",
      "type": "function"
    }
  ],
  "bytecode": "0x608060405234801561001057600080fd5b50600080546001600160a01b0319163317905561014e806100326000396000f3fe608060405234801561001057600080fd5b50600436106100365760003560e01c8063952608431461003b578063b8cc9ce61461005f575b600080fd5b610043610087565b604080516001600160a01b039092168252519081900360200190f35b6100856004803603602081101561007557600080fd5b50356001600160a01b0316610096565b005b6000546001600160a01b031681565b6000546001600160a01b031633146100ad57600080fd5b6001600160a01b0381166100c057600080fd5b6040516001600160a01b0382169081907f6fadb1c244276388aee22be93b919985a18748c021e5d48553957a48101a256090600090a3600080546001600160a01b0319166001600160a01b039290921691909117905556fea2646970667358221220ab34c63bb81472070d5ea85bc6d9af9b0ec5913b43a67a858558131dd071d5c764736f6c63430006020033",
  "source": "pragma solidity >=0.6.0;\n\n\n/**\n * @title Governed\n * @dev The Governable contract has an governor smart contract address, and provides basic authorization control\n * functions, this simplifies the implementation of \"gov permissions\".\n */\ncontract Governed {\n    address public _governor;\n    event GovernorTransferred(address indexed previousGovernor, address indexed newGovernor);\n\n\n    /**\n    * @dev The Ownable constructor sets the original `governor` of the contract to the sender\n    * account.\n    */\n    constructor() public {\n        _governor = msg.sender;\n    }\n\n    /**\n    * @dev Throws if called by any account other than the governor.\n    */\n    modifier onlyGovernor() {\n        require(msg.sender == _governor);\n        _;\n    }\n\n    /**\n    * @dev Allows the current governor to transfer control of the contract to a newGovernor.\n    * @param newGovernor The address to transfer governorship to.\n    */\n    function transferGovernor(address newGovernor) public onlyGovernor {\n        require(newGovernor != address(0));\n        emit GovernorTransferred(newGovernor, newGovernor);\n        _governor = newGovernor;\n    }\n \n}\n",
  "sourcePath": "/Users/ruipedro/Desktop/projects/Bepro/@bepro-js/contracts/utils/Governed.sol",
  "compiler": {
    "name": "solc",
    "version": "0.6.2+commit.bacdbe57.Emscripten.clang"
  },
  "schemaVersion": "3.0.20",
  "updatedAt": "2021-06-01T17:14:28.168Z",
  "devdoc": {
    "details": "The Governable contract has an governor smart contract address, and provides basic authorization control functions, this simplifies the implementation of \"gov permissions\".",
    "methods": {
      "constructor": {
        "details": "The Ownable constructor sets the original `governor` of the contract to the sender account."
      },
      "transferGovernor(address)": {
        "details": "Allows the current governor to transfer control of the contract to a newGovernor.",
        "params": {
          "newGovernor": "The address to transfer governorship to."
        }
      }
    },
    "title": "Governed"
  },
  "userdoc": {
    "methods": {}
  }
}