{
  "contractName": "MarketplaceRealFvr",
  "abi": [
    {
      "inputs": [
        {
          "internalType": "contract ERC20",
          "name": "_erc20Address",
          "type": "address"
        },
        {
          "internalType": "contract OpenerRealFvr",
          "name": "_erc721Address",
          "type": "address"
        }
      ],
      "stateMutability": "nonpayable",
      "type": "constructor"
    },
    {
      "anonymous": false,
      "inputs": [
        {
          "indexed": true,
          "internalType": "address",
          "name": "previousOwner",
          "type": "address"
        },
        {
          "indexed": true,
          "internalType": "address",
          "name": "newOwner",
          "type": "address"
        }
      ],
      "name": "OwnershipTransferred",
      "type": "event"
    },
    {
      "anonymous": false,
      "inputs": [
        {
          "indexed": true,
          "internalType": "uint256",
          "name": "tokenId",
          "type": "uint256"
        },
        {
          "indexed": true,
          "internalType": "address",
          "name": "creator",
          "type": "address"
        }
      ],
      "name": "SaleCanceled",
      "type": "event"
    },
    {
      "anonymous": false,
      "inputs": [
        {
          "indexed": true,
          "internalType": "uint256",
          "name": "tokenId",
          "type": "uint256"
        },
        {
          "indexed": false,
          "internalType": "uint256",
          "name": "price",
          "type": "uint256"
        },
        {
          "indexed": true,
          "internalType": "address",
          "name": "creator",
          "type": "address"
        }
      ],
      "name": "SaleCreated",
      "type": "event"
    },
    {
      "anonymous": false,
      "inputs": [
        {
          "indexed": true,
          "internalType": "uint256",
          "name": "tokenId",
          "type": "uint256"
        },
        {
          "indexed": true,
          "internalType": "address",
          "name": "buyer",
          "type": "address"
        },
        {
          "indexed": true,
          "internalType": "address",
          "name": "creator",
          "type": "address"
        },
        {
          "indexed": false,
          "internalType": "uint256",
          "name": "price",
          "type": "uint256"
        }
      ],
      "name": "SaleDone",
      "type": "event"
    },
    {
      "inputs": [
        {
          "internalType": "contract ERC20",
          "name": "_erc20Address",
          "type": "address"
        }
      ],
      "name": "changeERC20",
      "outputs": [],
      "stateMutability": "nonpayable",
      "type": "function"
    },
    {
      "inputs": [
        {
          "internalType": "contract IERC721",
          "name": "_erc721Address",
          "type": "address"
        }
      ],
      "name": "changeERC721",
      "outputs": [],
      "stateMutability": "nonpayable",
      "type": "function"
    },
    {
      "inputs": [],
      "name": "erc20Address",
      "outputs": [
        {
          "internalType": "contract ERC20",
          "name": "",
          "type": "address"
        }
      ],
      "stateMutability": "view",
      "type": "function"
    },
    {
      "inputs": [],
      "name": "erc721Address",
      "outputs": [
        {
          "internalType": "contract OpenerRealFvr",
          "name": "",
          "type": "address"
        }
      ],
      "stateMutability": "view",
      "type": "function"
    },
    {
      "inputs": [],
      "name": "feeAddress",
      "outputs": [
        {
          "internalType": "address payable",
          "name": "",
          "type": "address"
        }
      ],
      "stateMutability": "view",
      "type": "function"
    },
    {
      "inputs": [],
      "name": "feePercentage",
      "outputs": [
        {
          "internalType": "uint256",
          "name": "",
          "type": "uint256"
        }
      ],
      "stateMutability": "view",
      "type": "function"
    },
    {
      "inputs": [],
      "name": "isNativeTransaction",
      "outputs": [
        {
          "internalType": "bool",
          "name": "",
          "type": "bool"
        }
      ],
      "stateMutability": "nonpayable",
      "type": "function"
    },
    {
      "inputs": [],
      "name": "owner",
      "outputs": [
        {
          "internalType": "address",
          "name": "",
          "type": "address"
        }
      ],
      "stateMutability": "view",
      "type": "function"
    },
    {
      "inputs": [
        {
          "internalType": "uint256",
          "name": "_tokenId",
          "type": "uint256"
        },
        {
          "internalType": "uint256",
          "name": "_price",
          "type": "uint256"
        }
      ],
      "name": "putERC721OnSale",
      "outputs": [],
      "stateMutability": "nonpayable",
      "type": "function"
    },
    {
      "inputs": [
        {
          "internalType": "uint256",
          "name": "_tokenId",
          "type": "uint256"
        }
      ],
      "name": "removeERC721FromSale",
      "outputs": [],
      "stateMutability": "nonpayable",
      "type": "function"
    },
    {
      "inputs": [],
      "name": "saleIncrementId",
      "outputs": [
        {
          "internalType": "uint256",
          "name": "",
          "type": "uint256"
        }
      ],
      "stateMutability": "view",
      "type": "function"
    },
    {
      "inputs": [
        {
          "internalType": "uint256",
          "name": "",
          "type": "uint256"
        }
      ],
      "name": "sales",
      "outputs": [
        {
          "internalType": "uint256",
          "name": "saleId",
          "type": "uint256"
        },
        {
          "internalType": "uint256",
          "name": "tokenId",
          "type": "uint256"
        },
        {
          "internalType": "uint256",
          "name": "price",
          "type": "uint256"
        },
        {
          "internalType": "address payable",
          "name": "seller",
          "type": "address"
        },
        {
          "internalType": "address",
          "name": "buyer",
          "type": "address"
        },
        {
          "internalType": "uint256",
          "name": "date",
          "type": "uint256"
        },
        {
          "internalType": "bool",
          "name": "canceled",
          "type": "bool"
        },
        {
          "internalType": "bool",
          "name": "sold",
          "type": "bool"
        }
      ],
      "stateMutability": "view",
      "type": "function"
    },
    {
      "inputs": [
        {
          "internalType": "uint256",
          "name": "",
          "type": "uint256"
        }
      ],
      "name": "salesById",
      "outputs": [
        {
          "internalType": "uint256",
          "name": "",
          "type": "uint256"
        }
      ],
      "stateMutability": "view",
      "type": "function"
    },
    {
      "inputs": [
        {
          "internalType": "address payable",
          "name": "_feeAddress",
          "type": "address"
        },
        {
          "internalType": "uint256",
          "name": "_feePercentage",
          "type": "uint256"
        }
      ],
      "name": "setFixedFees",
      "outputs": [],
      "stateMutability": "nonpayable",
      "type": "function"
    },
    {
      "inputs": [
        {
          "internalType": "address",
          "name": "newOwner",
          "type": "address"
        }
      ],
      "name": "transferOwnership",
      "outputs": [],
      "stateMutability": "nonpayable",
      "type": "function"
    },
    {
      "inputs": [
        {
          "internalType": "uint256",
          "name": "_tokenId",
          "type": "uint256"
        }
      ],
      "name": "buyERC721",
      "outputs": [],
      "stateMutability": "payable",
      "type": "function"
    }
  ],
  "bytecode": "0x60806040526000600455600160055534801561001a57600080fd5b506040516117973803806117978339818101604052604081101561003d57600080fd5b508051602090910151600080546001600160a01b03199081163317909155600180546001600160a01b03948516908316179055600280549390921692811683179091556008805490911690911790556116fc8061009b6000396000f3fe6080604052600436106100f35760003560e01c806395fcf58e1161008a578063d265185511610059578063d2651855146102fb578063d6e9d8d11461032e578063f2fde38b14610357578063fd6379751461038a576100f3565b806395fcf58e14610208578063a001ecdd14610241578063b5f522f714610256578063c4c28125146102d1576100f3565b806341275358116100c6578063412753581461019a5780637f09e9af146101af5780638da5cb5b146101d6578063944cce5b146101eb576100f3565b80632352a864146100f8578063276184ae14610129578063332c72631461013e5780633c61c90714610170575b600080fd5b34801561010457600080fd5b5061010d6103bd565b604080516001600160a01b039092168252519081900360200190f35b34801561013557600080fd5b5061010d6103cc565b34801561014a57600080fd5b5061016e6004803603604081101561016157600080fd5b50803590602001356103db565b005b34801561017c57600080fd5b5061016e6004803603602081101561019357600080fd5b5035610785565b3480156101a657600080fd5b5061010d6108fd565b3480156101bb57600080fd5b506101c461090c565b60408051918252519081900360200190f35b3480156101e257600080fd5b5061010d610912565b61016e6004803603602081101561020157600080fd5b5035610921565b34801561021457600080fd5b5061016e6004803603604081101561022b57600080fd5b506001600160a01b03813516906020013561131c565b34801561024d57600080fd5b506101c46113ea565b34801561026257600080fd5b506102806004803603602081101561027957600080fd5b50356113f0565b604080519889526020890197909752878701959095526001600160a01b03938416606088015291909216608086015260a0850191909152151560c0840152151560e083015251908190036101000190f35b3480156102dd57600080fd5b506101c4600480360360208110156102f457600080fd5b5035611447565b34801561030757600080fd5b5061016e6004803603602081101561031e57600080fd5b50356001600160a01b0316611459565b34801561033a57600080fd5b50610343611492565b604080519115158252519081900360200190f35b34801561036357600080fd5b5061016e6004803603602081101561037a57600080fd5b50356001600160a01b03166114a2565b34801561039657600080fd5b5061016e600480360360208110156103ad57600080fd5b50356001600160a01b0316611527565b6008546001600160a01b031681565b6001546001600160a01b031681565b600254604080516331a9108f60e11b815260048101859052905133926001600160a01b031691636352211e916024808301926020929190829003018186803b15801561042657600080fd5b505afa15801561043a573d6000803e3d6000fd5b505050506040513d602081101561045057600080fd5b50516001600160a01b0316146104a4576040805162461bcd60e51b8152602060048201526014602482015273139bdd0813dddb995c881bd9881d1a194813919560621b604482015290519081900360640190fd5b600254604080516323b872dd60e01b81523360048201523060248201526044810185905290516001600160a01b03909216916323b872dd9160648082019260009290919082900301818387803b1580156104fd57600080fd5b505af1158015610511573d6000803e3d6000fd5b5050505061051d611560565b60066000848152602001908152602001600020604051806101000160405290816000820154815260200160018201548152602001600282015481526020016003820160009054906101000a90046001600160a01b03166001600160a01b03166001600160a01b031681526020016004820160009054906101000a90046001600160a01b03166001600160a01b03166001600160a01b03168152602001600582015481526020016006820160009054906101000a900460ff161515151581526020016006820160019054906101000a900460ff161515151581525050905060055481600001818152505082816020018181525050818160400181815250503381606001906001600160a01b031690816001600160a01b031681525050428160a0018181525050806006600085815260200190815260200160002060008201518160000155602082015181600101556040820151816002015560608201518160030160006101000a8154816001600160a01b0302191690836001600160a01b0316021790555060808201518160040160006101000a8154816001600160a01b0302191690836001600160a01b0316021790555060a0820151816005015560c08201518160060160006101000a81548160ff02191690831515021790555060e08201518160060160016101000a81548160ff0219169083151502179055509050508260076000600554815260200190815260200160002081905550336001600160a01b0316837f63ee37b4d42c1356bfc458c2a7f33bc4b37d951b24e3ec0852c981789dfc1e9c846040518082815260200191505060405180910390a3505060058054600101905550565b6000818152600660205260409020600301546001600160a01b031633146107ea576040805162461bcd60e51b8152602060048201526014602482015273139bdd0813dddb995c881bd9881d1a194813919560621b604482015290519081900360640190fd5b6000818152600660205260409020600101548114610844576040805162461bcd60e51b81526020600482015260126024820152714e4654206973206e6f7420696e2073616c6560701b604482015290519081900360640190fd5b6000818152600660208190526040808320909101805460ff1916600117905560025481516323b872dd60e01b81523060048201523360248201526044810185905291516001600160a01b03909116926323b872dd926064808201939182900301818387803b1580156108b557600080fd5b505af11580156108c9573d6000803e3d6000fd5b50506040513392508391507fc17a2000b952093a1b49de547dc3416f2a96f6d78da5b597d5ee0272b6be70e990600090a350565b6003546001600160a01b031681565b60055481565b6000546001600160a01b031681565b600081815260066020526040902060010154811461097b576040805162461bcd60e51b81526020600482015260126024820152714e4654206973206e6f7420696e2073616c6560701b604482015290519081900360640190fd5b60008181526006602081905260409091200154610100900460ff16156109d25760405162461bcd60e51b81526004018080602001828103825260248152602001806115bc6024913960400191505060405180910390fd5b60085460408051636ae171fb60e11b815260048101849052905160609283926001600160a01b039091169163d5c2e3f69160248082019260009290919082900301818387803b158015610a2457600080fd5b505af1158015610a38573d6000803e3d6000fd5b505050506040513d6000823e601f3d908101601f191682016040908152811015610a6157600080fd5b8101908080516040519392919084640100000000821115610a8157600080fd5b908301906020820185811115610a9657600080fd5b8251866020820283011164010000000082111715610ab357600080fd5b82525081516020918201928201910280838360005b83811015610ae0578181015183820152602001610ac8565b5050505090500160405260200180516040519392919084640100000000821115610b0957600080fd5b908301906020820185811115610b1e57600080fd5b8251866020820283011164010000000082111715610b3b57600080fd5b82525081516020918201928201910280838360005b83811015610b68578181015183820152602001610b50565b505050509050016040525050508092508193505050610b85611492565b15610e04576000838152600660205260409020600201543414610bd95760405162461bcd60e51b815260040180806020018281038252602f815260200180611632602f913960400191505060405180910390fd5b6000805b8351811015610cdf5760006001600160a01b0316838281518110610bfd57fe5b60200260200101516001600160a01b031614610cd757828181518110610c1f57fe5b60200260200101516001600160a01b03166108fc60646006600089815260200190815260200160002060020154878581518110610c5857fe5b60200260200101510281610c6857fe5b049081150290604051600060405180830381858888f19350505050610cbe5760405162461bcd60e51b815260040180806020018281038252602b8152602001806115e0602b913960400191505060405180910390fd5b838181518110610cca57fe5b6020026020010151820191505b600101610bdd565b506003546001600160a01b031615610d73576003546000858152600660205260409020600201546004546001600160a01b03909216916108fc9160649102049081150290604051600060405180830381858888f19350505050610d735760405162461bcd60e51b815260040180806020018281038252602b8152602001806115e0602b913960400191505060405180910390fd5b600084815260066020526040902060038101546002909101546004546001600160a01b03909216916108fc91606491820385900302049081150290604051600060405180830381858888f19350505050610dfe5760405162461bcd60e51b81526004018080602001828103825260388152602001806116616038913960400191505060405180910390fd5b50611237565b60015460008481526006602090815260408083206002015481516323b872dd60e01b8152336004820152306024820152604481019190915290516001600160a01b03909416936323b872dd93606480840194938390030190829087803b158015610e6d57600080fd5b505af1158015610e81573d6000803e3d6000fd5b505050506040513d6020811015610e9757600080fd5b5051610ed45760405162461bcd60e51b815260040180806020018281038252602b8152602001806115e0602b913960400191505060405180910390fd5b6000805b83518110156110465760006001600160a01b0316838281518110610ef857fe5b60200260200101516001600160a01b03161461103e5760015483516001600160a01b039091169063a9059cbb90859084908110610f3157fe5b60200260200101516064600660008a815260200190815260200160002060020154888681518110610f5e57fe5b60200260200101510281610f6e57fe5b046040518363ffffffff1660e01b815260040180836001600160a01b03166001600160a01b0316815260200182815260200192505050602060405180830381600087803b158015610fbe57600080fd5b505af1158015610fd2573d6000803e3d6000fd5b505050506040513d6020811015610fe857600080fd5b50516110255760405162461bcd60e51b815260040180806020018281038252602b8152602001806115e0602b913960400191505060405180910390fd5b83818151811061103157fe5b6020026020010151820191505b600101610ed8565b506003546001600160a01b031615611142576001546003546000868152600660205260409020600201546004546001600160a01b039384169363a9059cbb93169160649102046040518363ffffffff1660e01b815260040180836001600160a01b03166001600160a01b0316815260200182815260200192505050602060405180830381600087803b1580156110db57600080fd5b505af11580156110ef573d6000803e3d6000fd5b505050506040513d602081101561110557600080fd5b50516111425760405162461bcd60e51b815260040180806020018281038252602b8152602001806115e0602b913960400191505060405180910390fd5b600154600085815260066020526040902060038101546002909101546004546001600160a01b039384169363a9059cbb931691606491820386900302046040518363ffffffff1660e01b815260040180836001600160a01b03166001600160a01b0316815260200182815260200192505050602060405180830381600087803b1580156111ce57600080fd5b505af11580156111e2573d6000803e3d6000fd5b505050506040513d60208110156111f857600080fd5b50516112355760405162461bcd60e51b815260040180806020018281038252602e815260200180611699602e913960400191505060405180910390fd5b505b600854604080516323b872dd60e01b81523060048201523360248201526044810186905290516001600160a01b03909216916323b872dd9160648082019260009290919082900301818387803b15801561129057600080fd5b505af11580156112a4573d6000803e3d6000fd5b505050600084815260066020818152604092839020918201805461ff0019166101001790556003820154600290920154835190815292516001600160a01b039092169350339287927ff987d279e153abdd99199c514bc50631e79d5e1f82343a733d9fcd149cff97ff929181900390910190a4505050565b6000546001600160a01b0316331461133357600080fd5b6001600160a01b038216611385576040805162461bcd60e51b81526020600482015260146024820152731059191c995cdcc818d85b9d081899481b9d5b1b60621b604482015290519081900360640190fd5b606481106113c45760405162461bcd60e51b815260040180806020018281038252602781526020018061160b6027913960400191505060405180910390fd5b600380546001600160a01b0319166001600160a01b039390931692909217909155600455565b60045481565b600660208190526000918252604090912080546001820154600283015460038401546004850154600586015495909601549395929491936001600160a01b0391821693909116919060ff8082169161010090041688565b60076020526000908152604090205481565b6000546001600160a01b0316331461147057600080fd5b600180546001600160a01b0319166001600160a01b0392909216919091179055565b6001546001600160a01b03161590565b6000546001600160a01b031633146114b957600080fd5b6001600160a01b0381166114cc57600080fd5b600080546040516001600160a01b03808516939216917f8be0079c531659141344cd1fd0a4f28419497f9722a3daafe3b4186f6b6457e091a3600080546001600160a01b0319166001600160a01b0392909216919091179055565b6000546001600160a01b0316331461153e57600080fd5b600280546001600160a01b0319166001600160a01b0392909216919091179055565b60405180610100016040528060008152602001600081526020016000815260200160006001600160a01b0316815260200160006001600160a01b0316815260200160008152602001600015158152602001600015158152509056fe4e46542068617320746f20626520617661696c61626c6520666f72207075726368617365436f6e747261637420776173206e6f7420616c6c6f77656420746f20646f20746865207472616e736665724665652050657263656e746167652068617320746f206265206c6f776572207468616e203130305265717569726520416d6f756e74206f66204e61746976652043757272656e637920746f20626520636f72726563745761736e742061626c6520746f207472616e7366657220746865204e61746976652043757272656e637920746f207468652073656c6c65725761736e742061626c6520746f207472616e736665722074686520455243323020746f207468652073656c6c6572a2646970667358221220cfbe41ea77f05dcdd4376b09113cdb88005e9544e35802463dfb40f459cb235d64736f6c63430006020033",
  "source": "pragma solidity >=0.6.0;\n\nimport \"@openzeppelin/contracts/token/ERC721/ERC721.sol\";\nimport \"@openzeppelin/contracts/token/ERC20/ERC20.sol\";\nimport \"../ERC721Marketplace.sol\";\n\n\ninterface OpenerRealFvr is IERC721 {\n    function getMarketplaceDistributionForERC721(uint256 tokenId) external returns(uint256[] memory, address[] memory);\n}\n\ncontract MarketplaceRealFvr is ERC721Marketplace {\n    \n    OpenerRealFvr public erc721Address;\n\n    constructor(ERC20 _erc20Address, \n        OpenerRealFvr _erc721Address) \n    public ERC721Marketplace(_erc20Address, _erc721Address) {\n        erc721Address = _erc721Address;\n    }\n\n    function buyERC721(uint256 _tokenId) payable public virtual override {\n        require(sales[_tokenId].tokenId == _tokenId, \"NFT is not in sale\");\n        require(!sales[_tokenId].sold, \"NFT has to be available for purchase\" );\n\n        //Get Marketplace Sale Distibutions on the Smart Contract\n        uint256[] memory distributionAmounts;\n        address[] memory distributionAddresses;\n\n        (distributionAmounts, distributionAddresses) = erc721Address.getMarketplaceDistributionForERC721(_tokenId);\n\n        if(isNativeTransaction()){\n            //Transfer Native ETH to contract\n            require(sales[_tokenId].price == msg.value, \"Require Amount of Native Currency to be correct\");   \n            \n            uint256 totalFee = 0;\n            for(uint i = 0; i < distributionAmounts.length; i++){\n                if(distributionAddresses[i] != address(0)){\n                    // Transfer fee to fee address\n                    require(payable(distributionAddresses[i]).send(\n                            (distributionAmounts[i] * sales[_tokenId].price) / 100\n                    ), \"Contract was not allowed to do the transfer\");\n                    totalFee = totalFee + distributionAmounts[i];\n                }\n            }\n\n            if(feeAddress != address(0)){\n                // Transfer fee to fee address\n                require(feeAddress.send(\n                        (feePercentage * sales[_tokenId].price) / 100\n                ), \"Contract was not allowed to do the transfer\");\n            }\n        \n            //Transfer Native Currency to seller\n            require(sales[_tokenId].seller.send(((100-feePercentage-totalFee) * sales[_tokenId].price) / 100), \"Wasnt able to transfer the Native Currency to the seller\");\n        \n        }else{\n            //Transfer ERC20 to contract\n            require(erc20Address.transferFrom(msg.sender, address(this), sales[_tokenId].price), \"Contract was not allowed to do the transfer\");\n\n            uint256 totalFee = 0;\n            for(uint i = 0; i < distributionAmounts.length; i++){\n                if(distributionAddresses[i] != address(0)){\n                    // Transfer fee to fee address\n                    require(erc20Address.transfer(\n                            distributionAddresses[i],\n                            (distributionAmounts[i] * sales[_tokenId].price) / 100\n                    ), \"Contract was not allowed to do the transfer\");\n                    totalFee = totalFee + distributionAmounts[i];\n                }\n            }\n\n            if(feeAddress != address(0)){\n                // Transfer fee to fee address\n                require(erc20Address.transfer(\n                        feeAddress,\n                        (feePercentage * sales[_tokenId].price) / 100\n                ), \"Contract was not allowed to do the transfer\");\n            }\n        \n            //Transfer ERC20 to seller\n            require(erc20Address.transfer(sales[_tokenId].seller, ((100-feePercentage-totalFee) * sales[_tokenId].price) / 100), \"Wasnt able to transfer the ERC20 to the seller\");\n        }\n        \n        //Transfer ERC721 to buyer\n        erc721Address.transferFrom(address(this), msg.sender, _tokenId);\n\n        sales[_tokenId].sold = true;\n        emit SaleDone(_tokenId, msg.sender, sales[_tokenId].seller, sales[_tokenId].price);\n    }\n\n}",
  "sourcePath": "/Users/ruipedro/Desktop/projects/Bepro/@bepro-js/contracts/custom/MarketplaceRealFvr.sol",
  "compiler": {
    "name": "solc",
    "version": "0.6.2+commit.bacdbe57.Emscripten.clang"
  },
  "schemaVersion": "3.0.20",
  "updatedAt": "2021-07-13T19:06:41.771Z",
  "devdoc": {
    "methods": {
      "transferOwnership(address)": {
        "details": "Allows the current owner to transfer control of the contract to a newOwner.",
        "params": {
          "newOwner": "The address to transfer ownership to."
        }
      }
    }
  },
  "userdoc": {
    "methods": {}
  }
}