{
  "contractName": "MarketplaceRealFvr",
  "abi": [
    {
      "inputs": [
        {
          "internalType": "contract ERC20",
          "name": "_erc20Address",
          "type": "address"
        },
        {
          "internalType": "contract OpenerRealFvr",
          "name": "_erc721Address",
          "type": "address"
        }
      ],
      "stateMutability": "nonpayable",
      "type": "constructor"
    },
    {
      "anonymous": false,
      "inputs": [
        {
          "indexed": true,
          "internalType": "address",
          "name": "previousOwner",
          "type": "address"
        },
        {
          "indexed": true,
          "internalType": "address",
          "name": "newOwner",
          "type": "address"
        }
      ],
      "name": "OwnershipTransferred",
      "type": "event"
    },
    {
      "anonymous": false,
      "inputs": [
        {
          "indexed": true,
          "internalType": "uint256",
          "name": "tokenId",
          "type": "uint256"
        },
        {
          "indexed": true,
          "internalType": "address",
          "name": "creator",
          "type": "address"
        }
      ],
      "name": "SaleCanceled",
      "type": "event"
    },
    {
      "anonymous": false,
      "inputs": [
        {
          "indexed": true,
          "internalType": "uint256",
          "name": "tokenId",
          "type": "uint256"
        },
        {
          "indexed": false,
          "internalType": "uint256",
          "name": "price",
          "type": "uint256"
        },
        {
          "indexed": true,
          "internalType": "address",
          "name": "creator",
          "type": "address"
        }
      ],
      "name": "SaleCreated",
      "type": "event"
    },
    {
      "anonymous": false,
      "inputs": [
        {
          "indexed": true,
          "internalType": "uint256",
          "name": "tokenId",
          "type": "uint256"
        },
        {
          "indexed": true,
          "internalType": "address",
          "name": "buyer",
          "type": "address"
        },
        {
          "indexed": true,
          "internalType": "address",
          "name": "creator",
          "type": "address"
        },
        {
          "indexed": false,
          "internalType": "uint256",
          "name": "price",
          "type": "uint256"
        }
      ],
      "name": "SaleDone",
      "type": "event"
    },
    {
      "inputs": [
        {
          "internalType": "contract ERC20",
          "name": "_erc20Address",
          "type": "address"
        }
      ],
      "name": "changeERC20",
      "outputs": [],
      "stateMutability": "nonpayable",
      "type": "function"
    },
    {
      "inputs": [
        {
          "internalType": "contract IERC721",
          "name": "_erc721Address",
          "type": "address"
        }
      ],
      "name": "changeERC721",
      "outputs": [],
      "stateMutability": "nonpayable",
      "type": "function"
    },
    {
      "inputs": [],
      "name": "erc20Address",
      "outputs": [
        {
          "internalType": "contract ERC20",
          "name": "",
          "type": "address"
        }
      ],
      "stateMutability": "view",
      "type": "function"
    },
    {
      "inputs": [],
      "name": "erc721Address",
      "outputs": [
        {
          "internalType": "contract OpenerRealFvr",
          "name": "",
          "type": "address"
        }
      ],
      "stateMutability": "view",
      "type": "function"
    },
    {
      "inputs": [],
      "name": "feeAddress",
      "outputs": [
        {
          "internalType": "address payable",
          "name": "",
          "type": "address"
        }
      ],
      "stateMutability": "view",
      "type": "function"
    },
    {
      "inputs": [],
      "name": "feePercentage",
      "outputs": [
        {
          "internalType": "uint256",
          "name": "",
          "type": "uint256"
        }
      ],
      "stateMutability": "view",
      "type": "function"
    },
    {
      "inputs": [],
      "name": "isNativeTransaction",
      "outputs": [
        {
          "internalType": "bool",
          "name": "",
          "type": "bool"
        }
      ],
      "stateMutability": "nonpayable",
      "type": "function"
    },
    {
      "inputs": [],
      "name": "owner",
      "outputs": [
        {
          "internalType": "address",
          "name": "",
          "type": "address"
        }
      ],
      "stateMutability": "view",
      "type": "function"
    },
    {
      "inputs": [
        {
          "internalType": "uint256",
          "name": "_tokenId",
          "type": "uint256"
        },
        {
          "internalType": "uint256",
          "name": "_price",
          "type": "uint256"
        }
      ],
      "name": "putERC721OnSale",
      "outputs": [],
      "stateMutability": "nonpayable",
      "type": "function"
    },
    {
      "inputs": [
        {
          "internalType": "uint256",
          "name": "_tokenId",
          "type": "uint256"
        }
      ],
      "name": "removeERC721FromSale",
      "outputs": [],
      "stateMutability": "nonpayable",
      "type": "function"
    },
    {
      "inputs": [],
      "name": "saleIncrementId",
      "outputs": [
        {
          "internalType": "uint256",
          "name": "",
          "type": "uint256"
        }
      ],
      "stateMutability": "view",
      "type": "function"
    },
    {
      "inputs": [
        {
          "internalType": "uint256",
          "name": "",
          "type": "uint256"
        }
      ],
      "name": "sales",
      "outputs": [
        {
          "internalType": "uint256",
          "name": "saleId",
          "type": "uint256"
        },
        {
          "internalType": "uint256",
          "name": "tokenId",
          "type": "uint256"
        },
        {
          "internalType": "uint256",
          "name": "timesSold",
          "type": "uint256"
        },
        {
          "internalType": "uint256",
          "name": "price",
          "type": "uint256"
        },
        {
          "internalType": "address payable",
          "name": "seller",
          "type": "address"
        },
        {
          "internalType": "address",
          "name": "buyer",
          "type": "address"
        },
        {
          "internalType": "uint256",
          "name": "date",
          "type": "uint256"
        },
        {
          "internalType": "bool",
          "name": "canceled",
          "type": "bool"
        },
        {
          "internalType": "bool",
          "name": "sold",
          "type": "bool"
        }
      ],
      "stateMutability": "view",
      "type": "function"
    },
    {
      "inputs": [
        {
          "internalType": "uint256",
          "name": "",
          "type": "uint256"
        }
      ],
      "name": "salesById",
      "outputs": [
        {
          "internalType": "uint256",
          "name": "",
          "type": "uint256"
        }
      ],
      "stateMutability": "view",
      "type": "function"
    },
    {
      "inputs": [
        {
          "internalType": "address payable",
          "name": "_feeAddress",
          "type": "address"
        },
        {
          "internalType": "uint256",
          "name": "_feePercentage",
          "type": "uint256"
        }
      ],
      "name": "setFixedFees",
      "outputs": [],
      "stateMutability": "nonpayable",
      "type": "function"
    },
    {
      "inputs": [
        {
          "internalType": "address",
          "name": "newOwner",
          "type": "address"
        }
      ],
      "name": "transferOwnership",
      "outputs": [],
      "stateMutability": "nonpayable",
      "type": "function"
    },
    {
      "inputs": [
        {
          "internalType": "uint256",
          "name": "_tokenId",
          "type": "uint256"
        }
      ],
      "name": "buyERC721",
      "outputs": [],
      "stateMutability": "payable",
      "type": "function"
    }
  ],
  "bytecode": "0x60806040526000600455600160055534801561001a57600080fd5b506040516117fb3803806117fb8339818101604052604081101561003d57600080fd5b508051602090910151600080546001600160a01b03199081163317909155600180546001600160a01b03948516908316179055600280549390921692811683179091556008805490911690911790556117608061009b6000396000f3fe6080604052600436106100f35760003560e01c806395fcf58e1161008a578063d265185511610059578063d2651855146102ff578063d6e9d8d114610332578063f2fde38b1461035b578063fd6379751461038e576100f3565b806395fcf58e14610208578063a001ecdd14610241578063b5f522f714610256578063c4c28125146102d5576100f3565b806341275358116100c6578063412753581461019a5780637f09e9af146101af5780638da5cb5b146101d6578063944cce5b146101eb576100f3565b80632352a864146100f8578063276184ae14610129578063332c72631461013e5780633c61c90714610170575b600080fd5b34801561010457600080fd5b5061010d6103c1565b604080516001600160a01b039092168252519081900360200190f35b34801561013557600080fd5b5061010d6103d0565b34801561014a57600080fd5b5061016e6004803603604081101561016157600080fd5b50803590602001356103df565b005b34801561017c57600080fd5b5061016e6004803603602081101561019357600080fd5b503561079e565b3480156101a657600080fd5b5061010d61096e565b3480156101bb57600080fd5b506101c461097d565b60408051918252519081900360200190f35b3480156101e257600080fd5b5061010d610983565b61016e6004803603602081101561020157600080fd5b5035610992565b34801561021457600080fd5b5061016e6004803603604081101561022b57600080fd5b506001600160a01b038135169060200135611374565b34801561024d57600080fd5b506101c4611442565b34801561026257600080fd5b506102806004803603602081101561027957600080fd5b5035611448565b60408051998a5260208a01989098528888019690965260608801949094526001600160a01b039283166080880152911660a086015260c0850152151560e0840152151561010083015251908190036101200190f35b3480156102e157600080fd5b506101c4600480360360208110156102f857600080fd5b50356114a4565b34801561030b57600080fd5b5061016e6004803603602081101561032257600080fd5b50356001600160a01b03166114b6565b34801561033e57600080fd5b506103476114ef565b604080519115158252519081900360200190f35b34801561036757600080fd5b5061016e6004803603602081101561037e57600080fd5b50356001600160a01b03166114ff565b34801561039a57600080fd5b5061016e600480360360208110156103b157600080fd5b50356001600160a01b0316611584565b6008546001600160a01b031681565b6001546001600160a01b031681565b600254604080516331a9108f60e11b815260048101859052905133926001600160a01b031691636352211e916024808301926020929190829003018186803b15801561042a57600080fd5b505afa15801561043e573d6000803e3d6000fd5b505050506040513d602081101561045457600080fd5b50516001600160a01b0316146104a8576040805162461bcd60e51b8152602060048201526014602482015273139bdd0813dddb995c881bd9881d1a194813919560621b604482015290519081900360640190fd5b600254604080516323b872dd60e01b81523360048201523060248201526044810185905290516001600160a01b03909216916323b872dd9160648082019260009290919082900301818387803b15801561050157600080fd5b505af1158015610515573d6000803e3d6000fd5b505050506105216115bd565b6006600084815260200190815260200160002060405180610120016040529081600082015481526020016001820154815260200160028201548152602001600382015481526020016004820160009054906101000a90046001600160a01b03166001600160a01b03166001600160a01b031681526020016005820160009054906101000a90046001600160a01b03166001600160a01b03166001600160a01b03168152602001600682015481526020016007820160009054906101000a900460ff161515151581526020016007820160019054906101000a900460ff161515151581525050905060055481600001818152505082816020018181525050818160600181815250503381608001906001600160a01b031690816001600160a01b031681525050428160c001818152505080600660008581526020019081526020016000206000820151816000015560208201518160010155604082015181600201556060820151816003015560808201518160040160006101000a8154816001600160a01b0302191690836001600160a01b0316021790555060a08201518160050160006101000a8154816001600160a01b0302191690836001600160a01b0316021790555060c0820151816006015560e08201518160070160006101000a81548160ff0219169083151502179055506101008201518160070160016101000a81548160ff0219169083151502179055509050508260076000600554815260200190815260200160002081905550336001600160a01b0316837f63ee37b4d42c1356bfc458c2a7f33bc4b37d951b24e3ec0852c981789dfc1e9c846040518082815260200191505060405180910390a3505060058054600101905550565b6000818152600660205260409020600401546001600160a01b03163314610803576040805162461bcd60e51b8152602060048201526014602482015273139bdd0813dddb995c881bd9881d1a194813919560621b604482015290519081900360640190fd5b600081815260066020526040902060010154811461085d576040805162461bcd60e51b81526020600482015260126024820152714e4654206973206e6f7420696e2073616c6560701b604482015290519081900360640190fd5b600081815260066020526040808220600701805460ff1916600117905560025481516323b872dd60e01b81523060048201523360248201526044810185905291516001600160a01b03909116926323b872dd926064808201939182900301818387803b1580156108cc57600080fd5b505af11580156108e0573d6000803e3d6000fd5b50506040513392508391507fc17a2000b952093a1b49de547dc3416f2a96f6d78da5b597d5ee0272b6be70e990600090a3600090815260066020819052604082208281556001810183905560028101839055600381018390556004810180546001600160a01b0319908116909155600582018054909116905590810191909155600701805461ffff19169055565b6003546001600160a01b031681565b60055481565b6000546001600160a01b031681565b60008181526006602052604090206001015481146109ec576040805162461bcd60e51b81526020600482015260126024820152714e4654206973206e6f7420696e2073616c6560701b604482015290519081900360640190fd5b600081815260066020526040902060070154610100900460ff1615610a425760405162461bcd60e51b81526004018080602001828103825260248152602001806116206024913960400191505060405180910390fd5b60085460408051636ae171fb60e11b815260048101849052905160609283926001600160a01b039091169163d5c2e3f69160248082019260009290919082900301818387803b158015610a9457600080fd5b505af1158015610aa8573d6000803e3d6000fd5b505050506040513d6000823e601f3d908101601f191682016040908152811015610ad157600080fd5b8101908080516040519392919084640100000000821115610af157600080fd5b908301906020820185811115610b0657600080fd5b8251866020820283011164010000000082111715610b2357600080fd5b82525081516020918201928201910280838360005b83811015610b50578181015183820152602001610b38565b5050505090500160405260200180516040519392919084640100000000821115610b7957600080fd5b908301906020820185811115610b8e57600080fd5b8251866020820283011164010000000082111715610bab57600080fd5b82525081516020918201928201910280838360005b83811015610bd8578181015183820152602001610bc0565b505050509050016040525050508092508193505050610bf56114ef565b15610e6f576000838152600660205260409020600301543414610c495760405162461bcd60e51b815260040180806020018281038252602f815260200180611696602f913960400191505060405180910390fd5b6000805b8351811015610d4f5760006001600160a01b0316838281518110610c6d57fe5b60200260200101516001600160a01b031614610d4757828181518110610c8f57fe5b60200260200101516001600160a01b03166108fc60646006600089815260200190815260200160002060030154878581518110610cc857fe5b60200260200101510281610cd857fe5b049081150290604051600060405180830381858888f19350505050610d2e5760405162461bcd60e51b815260040180806020018281038252602b815260200180611644602b913960400191505060405180910390fd5b838181518110610d3a57fe5b6020026020010151820191505b600101610c4d565b506003546001600160a01b031615610dde57600380546000868152600660205260408082209093015460045493516001600160a01b0390931693606491020480156108fc02929091818181858888f19350505050610dde5760405162461bcd60e51b815260040180806020018281038252602b815260200180611644602b913960400191505060405180910390fd5b600084815260066020526040902060048082015460039092015490546001600160a01b03909216916108fc91606491820385900302049081150290604051600060405180830381858888f19350505050610e695760405162461bcd60e51b81526004018080602001828103825260388152602001806116c56038913960400191505060405180910390fd5b50611290565b60015460008481526006602090815260408083206003015481516323b872dd60e01b8152336004820152306024820152604481019190915290516001600160a01b03909416936323b872dd93606480840194938390030190829087803b158015610ed857600080fd5b505af1158015610eec573d6000803e3d6000fd5b505050506040513d6020811015610f0257600080fd5b5051610f3f5760405162461bcd60e51b815260040180806020018281038252602b815260200180611644602b913960400191505060405180910390fd5b6000805b83518110156110b15760006001600160a01b0316838281518110610f6357fe5b60200260200101516001600160a01b0316146110a95760015483516001600160a01b039091169063a9059cbb90859084908110610f9c57fe5b60200260200101516064600660008a815260200190815260200160002060030154888681518110610fc957fe5b60200260200101510281610fd957fe5b046040518363ffffffff1660e01b815260040180836001600160a01b03166001600160a01b0316815260200182815260200192505050602060405180830381600087803b15801561102957600080fd5b505af115801561103d573d6000803e3d6000fd5b505050506040513d602081101561105357600080fd5b50516110905760405162461bcd60e51b815260040180806020018281038252602b815260200180611644602b913960400191505060405180910390fd5b83818151811061109c57fe5b6020026020010151820191505b600101610f43565b506003546001600160a01b0316156111ae57600154600380546000878152600660205260409020909101546004546001600160a01b039384169363a9059cbb93169160649102046040518363ffffffff1660e01b815260040180836001600160a01b03166001600160a01b0316815260200182815260200192505050602060405180830381600087803b15801561114757600080fd5b505af115801561115b573d6000803e3d6000fd5b505050506040513d602081101561117157600080fd5b50516111ae5760405162461bcd60e51b815260040180806020018281038252602b815260200180611644602b913960400191505060405180910390fd5b60015460008581526006602090815260408083206004808201546003909201548154845163a9059cbb60e01b81526001600160a01b03948516938101939093526064908103899003909102046024820152915194169363a9059cbb93604480840194938390030190829087803b15801561122757600080fd5b505af115801561123b573d6000803e3d6000fd5b505050506040513d602081101561125157600080fd5b505161128e5760405162461bcd60e51b815260040180806020018281038252602e8152602001806116fd602e913960400191505060405180910390fd5b505b600854604080516323b872dd60e01b81523060048201523360248201526044810186905290516001600160a01b03909216916323b872dd9160648082019260009290919082900301818387803b1580156112e957600080fd5b505af11580156112fd573d6000803e3d6000fd5b50505060008481526006602090815260409182902060078101805461ff0019166101001790556004810154600390910154835190815292516001600160a01b039091169350339287927ff987d279e153abdd99199c514bc50631e79d5e1f82343a733d9fcd149cff97ff92918290030190a4505050565b6000546001600160a01b0316331461138b57600080fd5b6001600160a01b0382166113dd576040805162461bcd60e51b81526020600482015260146024820152731059191c995cdcc818d85b9d081899481b9d5b1b60621b604482015290519081900360640190fd5b6064811061141c5760405162461bcd60e51b815260040180806020018281038252602781526020018061166f6027913960400191505060405180910390fd5b600380546001600160a01b0319166001600160a01b039390931692909217909155600455565b60045481565b60066020819052600091825260409091208054600182015460028301546003840154600485015460058601549686015460079096015494969395929491936001600160a01b039182169391169160ff8082169161010090041689565b60076020526000908152604090205481565b6000546001600160a01b031633146114cd57600080fd5b600180546001600160a01b0319166001600160a01b0392909216919091179055565b6001546001600160a01b03161590565b6000546001600160a01b0316331461151657600080fd5b6001600160a01b03811661152957600080fd5b600080546040516001600160a01b03808516939216917f8be0079c531659141344cd1fd0a4f28419497f9722a3daafe3b4186f6b6457e091a3600080546001600160a01b0319166001600160a01b0392909216919091179055565b6000546001600160a01b0316331461159b57600080fd5b600280546001600160a01b0319166001600160a01b0392909216919091179055565b6040518061012001604052806000815260200160008152602001600081526020016000815260200160006001600160a01b0316815260200160006001600160a01b0316815260200160008152602001600015158152602001600015158152509056fe4e46542068617320746f20626520617661696c61626c6520666f72207075726368617365436f6e747261637420776173206e6f7420616c6c6f77656420746f20646f20746865207472616e736665724665652050657263656e746167652068617320746f206265206c6f776572207468616e203130305265717569726520416d6f756e74206f66204e61746976652043757272656e637920746f20626520636f72726563745761736e742061626c6520746f207472616e7366657220746865204e61746976652043757272656e637920746f207468652073656c6c65725761736e742061626c6520746f207472616e736665722074686520455243323020746f207468652073656c6c6572a2646970667358221220dfe638fe60e4241c6e1b142eb7fa7fa9fbaf950fbb715158416b8f5248e492a964736f6c63430006020033",
  "source": "pragma solidity >=0.6.0;\n\nimport \"@openzeppelin/contracts/token/ERC721/ERC721.sol\";\nimport \"@openzeppelin/contracts/token/ERC20/ERC20.sol\";\nimport \"../ERC721Marketplace.sol\";\n\n\ninterface OpenerRealFvr is IERC721 {\n    function getMarketplaceDistributionForERC721(uint256 tokenId) external returns(uint256[] memory, address[] memory);\n}\n\ncontract MarketplaceRealFvr is ERC721Marketplace {\n    \n    OpenerRealFvr public erc721Address;\n\n    constructor(ERC20 _erc20Address, \n        OpenerRealFvr _erc721Address) \n    public ERC721Marketplace(_erc20Address, _erc721Address) {\n        erc721Address = _erc721Address;\n    }\n\n    function buyERC721(uint256 _tokenId) payable public virtual override {\n        require(sales[_tokenId].tokenId == _tokenId, \"NFT is not in sale\");\n        require(!sales[_tokenId].sold, \"NFT has to be available for purchase\" );\n\n        //Get Marketplace Sale Distibutions on the Smart Contract\n        uint256[] memory distributionAmounts;\n        address[] memory distributionAddresses;\n\n        (distributionAmounts, distributionAddresses) = erc721Address.getMarketplaceDistributionForERC721(_tokenId);\n\n        if(isNativeTransaction()){\n            //Transfer Native ETH to contract\n            require(sales[_tokenId].price == msg.value, \"Require Amount of Native Currency to be correct\");   \n            \n            uint256 totalFee = 0;\n            for(uint i = 0; i < distributionAmounts.length; i++){\n                if(distributionAddresses[i] != address(0)){\n                    // Transfer fee to fee address\n                    require(payable(distributionAddresses[i]).send(\n                            (distributionAmounts[i] * sales[_tokenId].price) / 100\n                    ), \"Contract was not allowed to do the transfer\");\n                    totalFee = totalFee + distributionAmounts[i];\n                }\n            }\n\n            if(feeAddress != address(0)){\n                // Transfer fee to fee address\n                require(feeAddress.send(\n                        (feePercentage * sales[_tokenId].price) / 100\n                ), \"Contract was not allowed to do the transfer\");\n            }\n        \n            //Transfer Native Currency to seller\n            require(sales[_tokenId].seller.send(((100-feePercentage-totalFee) * sales[_tokenId].price) / 100), \"Wasnt able to transfer the Native Currency to the seller\");\n        \n        }else{\n            //Transfer ERC20 to contract\n            require(erc20Address.transferFrom(msg.sender, address(this), sales[_tokenId].price), \"Contract was not allowed to do the transfer\");\n\n            uint256 totalFee = 0;\n            for(uint i = 0; i < distributionAmounts.length; i++){\n                if(distributionAddresses[i] != address(0)){\n                    // Transfer fee to fee address\n                    require(erc20Address.transfer(\n                            distributionAddresses[i],\n                            (distributionAmounts[i] * sales[_tokenId].price) / 100\n                    ), \"Contract was not allowed to do the transfer\");\n                    totalFee = totalFee + distributionAmounts[i];\n                }\n            }\n\n            if(feeAddress != address(0)){\n                // Transfer fee to fee address\n                require(erc20Address.transfer(\n                        feeAddress,\n                        (feePercentage * sales[_tokenId].price) / 100\n                ), \"Contract was not allowed to do the transfer\");\n            }\n        \n            //Transfer ERC20 to seller\n            require(erc20Address.transfer(sales[_tokenId].seller, ((100-feePercentage-totalFee) * sales[_tokenId].price) / 100), \"Wasnt able to transfer the ERC20 to the seller\");\n        }\n        \n        //Transfer ERC721 to buyer\n        erc721Address.transferFrom(address(this), msg.sender, _tokenId);\n\n        sales[_tokenId].sold = true;\n        emit SaleDone(_tokenId, msg.sender, sales[_tokenId].seller, sales[_tokenId].price);\n    }\n\n}",
  "sourcePath": "/Users/ruipedro/Desktop/projects/Bepro/@bepro-js/contracts/custom/MarketplaceRealFvr.sol",
  "compiler": {
    "name": "solc",
    "version": "0.6.2+commit.bacdbe57.Emscripten.clang"
  },
  "schemaVersion": "3.0.20",
  "updatedAt": "2021-08-24T11:40:21.917Z",
  "devdoc": {
    "methods": {
      "transferOwnership(address)": {
        "details": "Allows the current owner to transfer control of the contract to a newOwner.",
        "params": {
          "newOwner": "The address to transfer ownership to."
        }
      }
    }
  },
  "userdoc": {
    "methods": {}
  }
}