{
  "contractName": "MarketplaceRealFvr",
  "abi": [
    {
      "inputs": [
        {
          "internalType": "contract ERC20",
          "name": "_erc20Address",
          "type": "address"
        },
        {
          "internalType": "contract OpenerRealFvr",
          "name": "_erc721Address",
          "type": "address"
        }
      ],
      "stateMutability": "nonpayable",
      "type": "constructor"
    },
    {
      "anonymous": false,
      "inputs": [
        {
          "indexed": true,
          "internalType": "address",
          "name": "previousOwner",
          "type": "address"
        },
        {
          "indexed": true,
          "internalType": "address",
          "name": "newOwner",
          "type": "address"
        }
      ],
      "name": "OwnershipTransferred",
      "type": "event"
    },
    {
      "anonymous": false,
      "inputs": [
        {
          "indexed": true,
          "internalType": "uint256",
          "name": "tokenId",
          "type": "uint256"
        },
        {
          "indexed": true,
          "internalType": "address",
          "name": "creator",
          "type": "address"
        }
      ],
      "name": "SaleCanceled",
      "type": "event"
    },
    {
      "anonymous": false,
      "inputs": [
        {
          "indexed": true,
          "internalType": "uint256",
          "name": "tokenId",
          "type": "uint256"
        },
        {
          "indexed": false,
          "internalType": "uint256",
          "name": "price",
          "type": "uint256"
        },
        {
          "indexed": true,
          "internalType": "address",
          "name": "creator",
          "type": "address"
        }
      ],
      "name": "SaleCreated",
      "type": "event"
    },
    {
      "anonymous": false,
      "inputs": [
        {
          "indexed": true,
          "internalType": "uint256",
          "name": "tokenId",
          "type": "uint256"
        },
        {
          "indexed": true,
          "internalType": "address",
          "name": "buyer",
          "type": "address"
        },
        {
          "indexed": true,
          "internalType": "address",
          "name": "creator",
          "type": "address"
        },
        {
          "indexed": false,
          "internalType": "uint256",
          "name": "price",
          "type": "uint256"
        }
      ],
      "name": "SaleDone",
      "type": "event"
    },
    {
      "inputs": [
        {
          "internalType": "contract ERC20",
          "name": "_erc20Address",
          "type": "address"
        }
      ],
      "name": "changeERC20",
      "outputs": [],
      "stateMutability": "nonpayable",
      "type": "function"
    },
    {
      "inputs": [
        {
          "internalType": "contract IERC721",
          "name": "_erc721Address",
          "type": "address"
        }
      ],
      "name": "changeERC721",
      "outputs": [],
      "stateMutability": "nonpayable",
      "type": "function"
    },
    {
      "inputs": [],
      "name": "erc20Address",
      "outputs": [
        {
          "internalType": "contract ERC20",
          "name": "",
          "type": "address"
        }
      ],
      "stateMutability": "view",
      "type": "function"
    },
    {
      "inputs": [],
      "name": "erc721Address",
      "outputs": [
        {
          "internalType": "contract OpenerRealFvr",
          "name": "",
          "type": "address"
        }
      ],
      "stateMutability": "view",
      "type": "function"
    },
    {
      "inputs": [],
      "name": "feeAddress",
      "outputs": [
        {
          "internalType": "address payable",
          "name": "",
          "type": "address"
        }
      ],
      "stateMutability": "view",
      "type": "function"
    },
    {
      "inputs": [],
      "name": "feePercentage",
      "outputs": [
        {
          "internalType": "uint256",
          "name": "",
          "type": "uint256"
        }
      ],
      "stateMutability": "view",
      "type": "function"
    },
    {
      "inputs": [],
      "name": "isNativeTransaction",
      "outputs": [
        {
          "internalType": "bool",
          "name": "",
          "type": "bool"
        }
      ],
      "stateMutability": "nonpayable",
      "type": "function"
    },
    {
      "inputs": [],
      "name": "owner",
      "outputs": [
        {
          "internalType": "address",
          "name": "",
          "type": "address"
        }
      ],
      "stateMutability": "view",
      "type": "function"
    },
    {
      "inputs": [
        {
          "internalType": "uint256",
          "name": "_tokenId",
          "type": "uint256"
        },
        {
          "internalType": "uint256",
          "name": "_price",
          "type": "uint256"
        }
      ],
      "name": "putERC721OnSale",
      "outputs": [],
      "stateMutability": "nonpayable",
      "type": "function"
    },
    {
      "inputs": [
        {
          "internalType": "uint256",
          "name": "_tokenId",
          "type": "uint256"
        }
      ],
      "name": "removeERC721FromSale",
      "outputs": [],
      "stateMutability": "nonpayable",
      "type": "function"
    },
    {
      "inputs": [],
      "name": "saleIncrementId",
      "outputs": [
        {
          "internalType": "uint256",
          "name": "",
          "type": "uint256"
        }
      ],
      "stateMutability": "view",
      "type": "function"
    },
    {
      "inputs": [
        {
          "internalType": "uint256",
          "name": "",
          "type": "uint256"
        }
      ],
      "name": "sales",
      "outputs": [
        {
          "internalType": "uint256",
          "name": "saleId",
          "type": "uint256"
        },
        {
          "internalType": "uint256",
          "name": "tokenId",
          "type": "uint256"
        },
        {
          "internalType": "uint256",
          "name": "timesSold",
          "type": "uint256"
        },
        {
          "internalType": "uint256",
          "name": "price",
          "type": "uint256"
        },
        {
          "internalType": "address payable",
          "name": "seller",
          "type": "address"
        },
        {
          "internalType": "address",
          "name": "buyer",
          "type": "address"
        },
        {
          "internalType": "uint256",
          "name": "date",
          "type": "uint256"
        },
        {
          "internalType": "bool",
          "name": "canceled",
          "type": "bool"
        },
        {
          "internalType": "bool",
          "name": "sold",
          "type": "bool"
        }
      ],
      "stateMutability": "view",
      "type": "function"
    },
    {
      "inputs": [
        {
          "internalType": "uint256",
          "name": "",
          "type": "uint256"
        }
      ],
      "name": "salesById",
      "outputs": [
        {
          "internalType": "uint256",
          "name": "",
          "type": "uint256"
        }
      ],
      "stateMutability": "view",
      "type": "function"
    },
    {
      "inputs": [
        {
          "internalType": "address payable",
          "name": "_feeAddress",
          "type": "address"
        },
        {
          "internalType": "uint256",
          "name": "_feePercentage",
          "type": "uint256"
        }
      ],
      "name": "setFixedFees",
      "outputs": [],
      "stateMutability": "nonpayable",
      "type": "function"
    },
    {
      "inputs": [
        {
          "internalType": "address",
          "name": "newOwner",
          "type": "address"
        }
      ],
      "name": "transferOwnership",
      "outputs": [],
      "stateMutability": "nonpayable",
      "type": "function"
    },
    {
      "inputs": [
        {
          "internalType": "uint256",
          "name": "_tokenId",
          "type": "uint256"
        }
      ],
      "name": "removeERC721FromSaleAdmin",
      "outputs": [],
      "stateMutability": "nonpayable",
      "type": "function"
    },
    {
      "inputs": [
        {
          "internalType": "uint256",
          "name": "_tokenId",
          "type": "uint256"
        }
      ],
      "name": "buyERC721",
      "outputs": [],
      "stateMutability": "payable",
      "type": "function"
    }
  ],
  "bytecode": "0x60806040526000600455600160055534801561001a57600080fd5b50604051611a2e380380611a2e8339818101604052604081101561003d57600080fd5b508051602090910151600080546001600160a01b03199081163317909155600180546001600160a01b03948516908316179055600280549390921692811683179091556008805490911690911790556119938061009b6000396000f3fe6080604052600436106100fe5760003560e01c8063944cce5b11610095578063c4c2812511610064578063c4c281251461030a578063d265185514610334578063d6e9d8d114610367578063f2fde38b14610390578063fd637975146103c3576100fe565b8063944cce5b1461022057806395fcf58e1461023d578063a001ecdd14610276578063b5f522f71461028b576100fe565b80633c61c907116100d15780633c61c907146101a557806341275358146101cf5780637f09e9af146101e45780638da5cb5b1461020b576100fe565b80631466c31f146101035780632352a8641461012f578063276184ae14610160578063332c726314610175575b600080fd5b34801561010f57600080fd5b5061012d6004803603602081101561012657600080fd5b50356103f6565b005b34801561013b57600080fd5b5061014461059a565b604080516001600160a01b039092168252519081900360200190f35b34801561016c57600080fd5b506101446105a9565b34801561018157600080fd5b5061012d6004803603604081101561019857600080fd5b50803590602001356105b8565b3480156101b157600080fd5b5061012d600480360360208110156101c857600080fd5b5035610977565b3480156101db57600080fd5b50610144610b47565b3480156101f057600080fd5b506101f9610b56565b60408051918252519081900360200190f35b34801561021757600080fd5b50610144610b5c565b61012d6004803603602081101561023657600080fd5b5035610b6b565b34801561024957600080fd5b5061012d6004803603604081101561026057600080fd5b506001600160a01b0381351690602001356115a7565b34801561028257600080fd5b506101f9611675565b34801561029757600080fd5b506102b5600480360360208110156102ae57600080fd5b503561167b565b60408051998a5260208a01989098528888019690965260608801949094526001600160a01b039283166080880152911660a086015260c0850152151560e0840152151561010083015251908190036101200190f35b34801561031657600080fd5b506101f96004803603602081101561032d57600080fd5b50356116d7565b34801561034057600080fd5b5061012d6004803603602081101561035757600080fd5b50356001600160a01b03166116e9565b34801561037357600080fd5b5061037c611722565b604080519115158252519081900360200190f35b34801561039c57600080fd5b5061012d600480360360208110156103b357600080fd5b50356001600160a01b0316611732565b3480156103cf57600080fd5b5061012d600480360360208110156103e657600080fd5b50356001600160a01b03166117b7565b6000546001600160a01b0316331461040d57600080fd5b6000818152600660205260409020600101548114610467576040805162461bcd60e51b81526020600482015260126024820152714e4654206973206e6f7420696e2073616c6560701b604482015290519081900360640190fd5b60008181526006602052604080822060078101805460ff1916600117905560085460049182015483516323b872dd60e01b815230938101939093526001600160a01b0390811660248401526044830186905292519216926323b872dd9260648084019382900301818387803b1580156104df57600080fd5b505af11580156104f3573d6000803e3d6000fd5b5050506000828152600660205260408082206004015490516001600160a01b03909116925083917fc17a2000b952093a1b49de547dc3416f2a96f6d78da5b597d5ee0272b6be70e991a3600090815260066020819052604082208281556001810183905560028101839055600381018390556004810180546001600160a01b0319908116909155600582018054909116905590810191909155600701805461ffff19169055565b6008546001600160a01b031681565b6001546001600160a01b031681565b600254604080516331a9108f60e11b815260048101859052905133926001600160a01b031691636352211e916024808301926020929190829003018186803b15801561060357600080fd5b505afa158015610617573d6000803e3d6000fd5b505050506040513d602081101561062d57600080fd5b50516001600160a01b031614610681576040805162461bcd60e51b8152602060048201526014602482015273139bdd0813dddb995c881bd9881d1a194813919560621b604482015290519081900360640190fd5b600254604080516323b872dd60e01b81523360048201523060248201526044810185905290516001600160a01b03909216916323b872dd9160648082019260009290919082900301818387803b1580156106da57600080fd5b505af11580156106ee573d6000803e3d6000fd5b505050506106fa6117f0565b6006600084815260200190815260200160002060405180610120016040529081600082015481526020016001820154815260200160028201548152602001600382015481526020016004820160009054906101000a90046001600160a01b03166001600160a01b03166001600160a01b031681526020016005820160009054906101000a90046001600160a01b03166001600160a01b03166001600160a01b03168152602001600682015481526020016007820160009054906101000a900460ff161515151581526020016007820160019054906101000a900460ff161515151581525050905060055481600001818152505082816020018181525050818160600181815250503381608001906001600160a01b031690816001600160a01b031681525050428160c001818152505080600660008581526020019081526020016000206000820151816000015560208201518160010155604082015181600201556060820151816003015560808201518160040160006101000a8154816001600160a01b0302191690836001600160a01b0316021790555060a08201518160050160006101000a8154816001600160a01b0302191690836001600160a01b0316021790555060c0820151816006015560e08201518160070160006101000a81548160ff0219169083151502179055506101008201518160070160016101000a81548160ff0219169083151502179055509050508260076000600554815260200190815260200160002081905550336001600160a01b0316837f63ee37b4d42c1356bfc458c2a7f33bc4b37d951b24e3ec0852c981789dfc1e9c846040518082815260200191505060405180910390a3505060058054600101905550565b6000818152600660205260409020600401546001600160a01b031633146109dc576040805162461bcd60e51b8152602060048201526014602482015273139bdd0813dddb995c881bd9881d1a194813919560621b604482015290519081900360640190fd5b6000818152600660205260409020600101548114610a36576040805162461bcd60e51b81526020600482015260126024820152714e4654206973206e6f7420696e2073616c6560701b604482015290519081900360640190fd5b600081815260066020526040808220600701805460ff1916600117905560025481516323b872dd60e01b81523060048201523360248201526044810185905291516001600160a01b03909116926323b872dd926064808201939182900301818387803b158015610aa557600080fd5b505af1158015610ab9573d6000803e3d6000fd5b50506040513392508391507fc17a2000b952093a1b49de547dc3416f2a96f6d78da5b597d5ee0272b6be70e990600090a3600090815260066020819052604082208281556001810183905560028101839055600381018390556004810180546001600160a01b0319908116909155600582018054909116905590810191909155600701805461ffff19169055565b6003546001600160a01b031681565b60055481565b6000546001600160a01b031681565b6000818152600660205260409020600101548114610bc5576040805162461bcd60e51b81526020600482015260126024820152714e4654206973206e6f7420696e2073616c6560701b604482015290519081900360640190fd5b600081815260066020526040902060070154610100900460ff1615610c1b5760405162461bcd60e51b81526004018080602001828103825260248152602001806118536024913960400191505060405180910390fd5b60085460408051636ae171fb60e11b815260048101849052905160609283926001600160a01b039091169163d5c2e3f69160248082019260009290919082900301818387803b158015610c6d57600080fd5b505af1158015610c81573d6000803e3d6000fd5b505050506040513d6000823e601f3d908101601f191682016040908152811015610caa57600080fd5b8101908080516040519392919084640100000000821115610cca57600080fd5b908301906020820185811115610cdf57600080fd5b8251866020820283011164010000000082111715610cfc57600080fd5b82525081516020918201928201910280838360005b83811015610d29578181015183820152602001610d11565b5050505090500160405260200180516040519392919084640100000000821115610d5257600080fd5b908301906020820185811115610d6757600080fd5b8251866020820283011164010000000082111715610d8457600080fd5b82525081516020918201928201910280838360005b83811015610db1578181015183820152602001610d99565b505050509050016040525050508092508193505050610dce611722565b15611048576000838152600660205260409020600301543414610e225760405162461bcd60e51b815260040180806020018281038252602f8152602001806118c9602f913960400191505060405180910390fd5b6000805b8351811015610f285760006001600160a01b0316838281518110610e4657fe5b60200260200101516001600160a01b031614610f2057828181518110610e6857fe5b60200260200101516001600160a01b03166108fc60646006600089815260200190815260200160002060030154878581518110610ea157fe5b60200260200101510281610eb157fe5b049081150290604051600060405180830381858888f19350505050610f075760405162461bcd60e51b815260040180806020018281038252602b815260200180611877602b913960400191505060405180910390fd5b838181518110610f1357fe5b6020026020010151820191505b600101610e26565b506003546001600160a01b031615610fb757600380546000868152600660205260408082209093015460045493516001600160a01b0390931693606491020480156108fc02929091818181858888f19350505050610fb75760405162461bcd60e51b815260040180806020018281038252602b815260200180611877602b913960400191505060405180910390fd5b600084815260066020526040902060048082015460039092015490546001600160a01b03909216916108fc91606491820385900302049081150290604051600060405180830381858888f193505050506110425760405162461bcd60e51b81526004018080602001828103825260388152602001806118f86038913960400191505060405180910390fd5b50611469565b60015460008481526006602090815260408083206003015481516323b872dd60e01b8152336004820152306024820152604481019190915290516001600160a01b03909416936323b872dd93606480840194938390030190829087803b1580156110b157600080fd5b505af11580156110c5573d6000803e3d6000fd5b505050506040513d60208110156110db57600080fd5b50516111185760405162461bcd60e51b815260040180806020018281038252602b815260200180611877602b913960400191505060405180910390fd5b6000805b835181101561128a5760006001600160a01b031683828151811061113c57fe5b60200260200101516001600160a01b0316146112825760015483516001600160a01b039091169063a9059cbb9085908490811061117557fe5b60200260200101516064600660008a8152602001908152602001600020600301548886815181106111a257fe5b602002602001015102816111b257fe5b046040518363ffffffff1660e01b815260040180836001600160a01b03166001600160a01b0316815260200182815260200192505050602060405180830381600087803b15801561120257600080fd5b505af1158015611216573d6000803e3d6000fd5b505050506040513d602081101561122c57600080fd5b50516112695760405162461bcd60e51b815260040180806020018281038252602b815260200180611877602b913960400191505060405180910390fd5b83818151811061127557fe5b6020026020010151820191505b60010161111c565b506003546001600160a01b03161561138757600154600380546000878152600660205260409020909101546004546001600160a01b039384169363a9059cbb93169160649102046040518363ffffffff1660e01b815260040180836001600160a01b03166001600160a01b0316815260200182815260200192505050602060405180830381600087803b15801561132057600080fd5b505af1158015611334573d6000803e3d6000fd5b505050506040513d602081101561134a57600080fd5b50516113875760405162461bcd60e51b815260040180806020018281038252602b815260200180611877602b913960400191505060405180910390fd5b60015460008581526006602090815260408083206004808201546003909201548154845163a9059cbb60e01b81526001600160a01b03948516938101939093526064908103899003909102046024820152915194169363a9059cbb93604480840194938390030190829087803b15801561140057600080fd5b505af1158015611414573d6000803e3d6000fd5b505050506040513d602081101561142a57600080fd5b50516114675760405162461bcd60e51b815260040180806020018281038252602e815260200180611930602e913960400191505060405180910390fd5b505b600854604080516323b872dd60e01b81523060048201523360248201526044810186905290516001600160a01b03909216916323b872dd9160648082019260009290919082900301818387803b1580156114c257600080fd5b505af11580156114d6573d6000803e3d6000fd5b50505060008481526006602090815260409182902060078101805461ff0019166101001790556004810154600390910154835190815292516001600160a01b039091169350339287927ff987d279e153abdd99199c514bc50631e79d5e1f82343a733d9fcd149cff97ff92918290030190a45050600090815260066020819052604082208281556001810183905560028101839055600381018390556004810180546001600160a01b0319908116909155600582018054909116905590810191909155600701805461ffff19169055565b6000546001600160a01b031633146115be57600080fd5b6001600160a01b038216611610576040805162461bcd60e51b81526020600482015260146024820152731059191c995cdcc818d85b9d081899481b9d5b1b60621b604482015290519081900360640190fd5b6064811061164f5760405162461bcd60e51b81526004018080602001828103825260278152602001806118a26027913960400191505060405180910390fd5b600380546001600160a01b0319166001600160a01b039390931692909217909155600455565b60045481565b60066020819052600091825260409091208054600182015460028301546003840154600485015460058601549686015460079096015494969395929491936001600160a01b039182169391169160ff8082169161010090041689565b60076020526000908152604090205481565b6000546001600160a01b0316331461170057600080fd5b600180546001600160a01b0319166001600160a01b0392909216919091179055565b6001546001600160a01b03161590565b6000546001600160a01b0316331461174957600080fd5b6001600160a01b03811661175c57600080fd5b600080546040516001600160a01b03808516939216917f8be0079c531659141344cd1fd0a4f28419497f9722a3daafe3b4186f6b6457e091a3600080546001600160a01b0319166001600160a01b0392909216919091179055565b6000546001600160a01b031633146117ce57600080fd5b600280546001600160a01b0319166001600160a01b0392909216919091179055565b6040518061012001604052806000815260200160008152602001600081526020016000815260200160006001600160a01b0316815260200160006001600160a01b0316815260200160008152602001600015158152602001600015158152509056fe4e46542068617320746f20626520617661696c61626c6520666f72207075726368617365436f6e747261637420776173206e6f7420616c6c6f77656420746f20646f20746865207472616e736665724665652050657263656e746167652068617320746f206265206c6f776572207468616e203130305265717569726520416d6f756e74206f66204e61746976652043757272656e637920746f20626520636f72726563745761736e742061626c6520746f207472616e7366657220746865204e61746976652043757272656e637920746f207468652073656c6c65725761736e742061626c6520746f207472616e736665722074686520455243323020746f207468652073656c6c6572a26469706673582212209fae6bf4d776a7e82da26fc088e459ae3aa956f3f4c4b777b49e48de04a741b964736f6c63430006020033",
  "source": "pragma solidity >=0.6.0;\n\nimport \"@openzeppelin/contracts/token/ERC721/ERC721.sol\";\nimport \"@openzeppelin/contracts/token/ERC20/ERC20.sol\";\nimport \"../ERC721Marketplace.sol\";\n\n\ninterface OpenerRealFvr is IERC721 {\n    function getMarketplaceDistributionForERC721(uint256 tokenId) external returns(uint256[] memory, address[] memory);\n}\n\ncontract MarketplaceRealFvr is ERC721Marketplace {\n    \n    OpenerRealFvr public erc721Address;\n\n    constructor(ERC20 _erc20Address, \n        OpenerRealFvr _erc721Address) \n    public ERC721Marketplace(_erc20Address, _erc721Address) {\n        erc721Address = _erc721Address;\n    }\n\n    function removeERC721FromSaleAdmin(uint256 _tokenId) public onlyOwner {\n        require(sales[_tokenId].tokenId == _tokenId, \"NFT is not in sale\");\n        sales[_tokenId].canceled = true;\n        erc721Address.transferFrom(address(this), sales[_tokenId].seller, _tokenId);\n        emit SaleCanceled(_tokenId, sales[_tokenId].seller);\n        delete sales[_tokenId];\n    }\n\n    function buyERC721(uint256 _tokenId) payable public virtual override {\n        require(sales[_tokenId].tokenId == _tokenId, \"NFT is not in sale\");\n        require(!sales[_tokenId].sold, \"NFT has to be available for purchase\" );\n\n        //Get Marketplace Sale Distibutions on the Smart Contract\n        uint256[] memory distributionAmounts;\n        address[] memory distributionAddresses;\n\n        (distributionAmounts, distributionAddresses) = erc721Address.getMarketplaceDistributionForERC721(_tokenId);\n\n        if(isNativeTransaction()){\n            //Transfer Native ETH to contract\n            require(sales[_tokenId].price == msg.value, \"Require Amount of Native Currency to be correct\");   \n            \n            uint256 totalFee = 0;\n            for(uint i = 0; i < distributionAmounts.length; i++){\n                if(distributionAddresses[i] != address(0)){\n                    // Transfer fee to fee address\n                    require(payable(distributionAddresses[i]).send(\n                            (distributionAmounts[i] * sales[_tokenId].price) / 100\n                    ), \"Contract was not allowed to do the transfer\");\n                    totalFee = totalFee + distributionAmounts[i];\n                }\n            }\n\n            if(feeAddress != address(0)){\n                // Transfer fee to fee address\n                require(feeAddress.send(\n                        (feePercentage * sales[_tokenId].price) / 100\n                ), \"Contract was not allowed to do the transfer\");\n            }\n        \n            //Transfer Native Currency to seller\n            require(sales[_tokenId].seller.send(((100-feePercentage-totalFee) * sales[_tokenId].price) / 100), \"Wasnt able to transfer the Native Currency to the seller\");\n        \n        }else{\n            //Transfer ERC20 to contract\n            require(erc20Address.transferFrom(msg.sender, address(this), sales[_tokenId].price), \"Contract was not allowed to do the transfer\");\n\n            uint256 totalFee = 0;\n            for(uint i = 0; i < distributionAmounts.length; i++){\n                if(distributionAddresses[i] != address(0)){\n                    // Transfer fee to fee address\n                    require(erc20Address.transfer(\n                            distributionAddresses[i],\n                            (distributionAmounts[i] * sales[_tokenId].price) / 100\n                    ), \"Contract was not allowed to do the transfer\");\n                    totalFee = totalFee + distributionAmounts[i];\n                }\n            }\n\n            if(feeAddress != address(0)){\n                // Transfer fee to fee address\n                require(erc20Address.transfer(\n                        feeAddress,\n                        (feePercentage * sales[_tokenId].price) / 100\n                ), \"Contract was not allowed to do the transfer\");\n            }\n        \n            //Transfer ERC20 to seller\n            require(erc20Address.transfer(sales[_tokenId].seller, ((100-feePercentage-totalFee) * sales[_tokenId].price) / 100), \"Wasnt able to transfer the ERC20 to the seller\");\n        }\n        \n        //Transfer ERC721 to buyer\n        erc721Address.transferFrom(address(this), msg.sender, _tokenId);\n\n        sales[_tokenId].sold = true;\n        emit SaleDone(_tokenId, msg.sender, sales[_tokenId].seller, sales[_tokenId].price);\n        delete sales[_tokenId];\n    }\n\n}",
  "sourcePath": "/Users/ruipedro/Desktop/projects/Bepro/@bepro-js/contracts/custom/MarketplaceRealFvr.sol",
  "compiler": {
    "name": "solc",
    "version": "0.6.2+commit.bacdbe57.Emscripten.clang"
  },
  "schemaVersion": "3.0.20",
  "updatedAt": "2021-08-24T13:36:11.896Z",
  "devdoc": {
    "methods": {
      "transferOwnership(address)": {
        "details": "Allows the current owner to transfer control of the contract to a newOwner.",
        "params": {
          "newOwner": "The address to transfer ownership to."
        }
      }
    }
  },
  "userdoc": {
    "methods": {}
  }
}