{
  "contractName": "Network",
  "abi": [
    {
      "inputs": [],
      "stateMutability": "nonpayable",
      "type": "constructor"
    },
    {
      "anonymous": false,
      "inputs": [
        {
          "indexed": true,
          "internalType": "address",
          "name": "previousOwner",
          "type": "address"
        },
        {
          "indexed": true,
          "internalType": "address",
          "name": "newOwner",
          "type": "address"
        }
      ],
      "name": "OwnershipTransferred",
      "type": "event"
    },
    {
      "anonymous": false,
      "inputs": [
        {
          "indexed": false,
          "internalType": "address",
          "name": "account",
          "type": "address"
        }
      ],
      "name": "Paused",
      "type": "event"
    },
    {
      "anonymous": false,
      "inputs": [
        {
          "indexed": false,
          "internalType": "address",
          "name": "account",
          "type": "address"
        }
      ],
      "name": "Unpaused",
      "type": "event"
    },
    {
      "inputs": [],
      "name": "beproReputationToken",
      "outputs": [
        {
          "internalType": "contract _IERC20",
          "name": "",
          "type": "address"
        }
      ],
      "stateMutability": "view",
      "type": "function"
    },
    {
      "inputs": [],
      "name": "beproTicketToken",
      "outputs": [
        {
          "internalType": "contract _IERC20",
          "name": "",
          "type": "address"
        }
      ],
      "stateMutability": "view",
      "type": "function"
    },
    {
      "inputs": [],
      "name": "beproToken",
      "outputs": [
        {
          "internalType": "contract _IERC20",
          "name": "",
          "type": "address"
        }
      ],
      "stateMutability": "view",
      "type": "function"
    },
    {
      "inputs": [],
      "name": "incrementID",
      "outputs": [
        {
          "internalType": "uint256",
          "name": "",
          "type": "uint256"
        }
      ],
      "stateMutability": "view",
      "type": "function"
    },
    {
      "inputs": [],
      "name": "incrementIssueID",
      "outputs": [
        {
          "internalType": "uint256",
          "name": "",
          "type": "uint256"
        }
      ],
      "stateMutability": "view",
      "type": "function"
    },
    {
      "inputs": [
        {
          "internalType": "uint256",
          "name": "",
          "type": "uint256"
        }
      ],
      "name": "issues",
      "outputs": [
        {
          "internalType": "uint256",
          "name": "_id",
          "type": "uint256"
        },
        {
          "internalType": "uint256",
          "name": "ticketsStaked",
          "type": "uint256"
        },
        {
          "internalType": "address",
          "name": "issueGenerator",
          "type": "address"
        },
        {
          "internalType": "bool",
          "name": "finalized",
          "type": "bool"
        },
        {
          "internalType": "address",
          "name": "rewardedAddress",
          "type": "address"
        }
      ],
      "stateMutability": "view",
      "type": "function"
    },
    {
      "inputs": [
        {
          "internalType": "address",
          "name": "",
          "type": "address"
        },
        {
          "internalType": "uint256",
          "name": "",
          "type": "uint256"
        }
      ],
      "name": "myIssues",
      "outputs": [
        {
          "internalType": "uint256",
          "name": "",
          "type": "uint256"
        }
      ],
      "stateMutability": "view",
      "type": "function"
    },
    {
      "inputs": [
        {
          "internalType": "address",
          "name": "",
          "type": "address"
        }
      ],
      "name": "mySubscription",
      "outputs": [
        {
          "internalType": "uint256",
          "name": "",
          "type": "uint256"
        }
      ],
      "stateMutability": "view",
      "type": "function"
    },
    {
      "inputs": [],
      "name": "owner",
      "outputs": [
        {
          "internalType": "address",
          "name": "",
          "type": "address"
        }
      ],
      "stateMutability": "view",
      "type": "function"
    },
    {
      "inputs": [],
      "name": "paused",
      "outputs": [
        {
          "internalType": "bool",
          "name": "",
          "type": "bool"
        }
      ],
      "stateMutability": "view",
      "type": "function"
    },
    {
      "inputs": [
        {
          "internalType": "uint256",
          "name": "",
          "type": "uint256"
        }
      ],
      "name": "subscriptions",
      "outputs": [
        {
          "internalType": "uint256",
          "name": "_id",
          "type": "uint256"
        },
        {
          "internalType": "uint256",
          "name": "startDate",
          "type": "uint256"
        },
        {
          "internalType": "uint256",
          "name": "amount",
          "type": "uint256"
        },
        {
          "internalType": "uint256",
          "name": "ticketsAccumulatedNotClaimed",
          "type": "uint256"
        },
        {
          "internalType": "uint256",
          "name": "lastUpdateDate",
          "type": "uint256"
        },
        {
          "internalType": "address",
          "name": "subscriberAddress",
          "type": "address"
        }
      ],
      "stateMutability": "view",
      "type": "function"
    },
    {
      "inputs": [],
      "name": "ticketGenAPR",
      "outputs": [
        {
          "internalType": "uint256",
          "name": "",
          "type": "uint256"
        }
      ],
      "stateMutability": "view",
      "type": "function"
    },
    {
      "inputs": [],
      "name": "ticketToReputationTrade",
      "outputs": [
        {
          "internalType": "uint256",
          "name": "",
          "type": "uint256"
        }
      ],
      "stateMutability": "view",
      "type": "function"
    },
    {
      "inputs": [],
      "name": "totalStaked",
      "outputs": [
        {
          "internalType": "uint256",
          "name": "",
          "type": "uint256"
        }
      ],
      "stateMutability": "view",
      "type": "function"
    },
    {
      "inputs": [],
      "name": "totalTicketsStaked",
      "outputs": [
        {
          "internalType": "uint256",
          "name": "",
          "type": "uint256"
        }
      ],
      "stateMutability": "view",
      "type": "function"
    },
    {
      "inputs": [
        {
          "internalType": "address",
          "name": "newOwner",
          "type": "address"
        }
      ],
      "name": "transferOwnership",
      "outputs": [],
      "stateMutability": "nonpayable",
      "type": "function"
    },
    {
      "inputs": [
        {
          "internalType": "uint256",
          "name": "_amount",
          "type": "uint256"
        }
      ],
      "name": "stake",
      "outputs": [],
      "stateMutability": "nonpayable",
      "type": "function"
    },
    {
      "inputs": [
        {
          "internalType": "uint256",
          "name": "_amount",
          "type": "uint256"
        }
      ],
      "name": "unstake",
      "outputs": [],
      "stateMutability": "nonpayable",
      "type": "function"
    },
    {
      "inputs": [
        {
          "internalType": "uint256",
          "name": "_ticketsAmount",
          "type": "uint256"
        }
      ],
      "name": "openIssue",
      "outputs": [],
      "stateMutability": "nonpayable",
      "type": "function"
    },
    {
      "inputs": [
        {
          "internalType": "uint256",
          "name": "_issueID",
          "type": "uint256"
        },
        {
          "internalType": "address",
          "name": "_rewardedAddress",
          "type": "address"
        }
      ],
      "name": "closeIssue",
      "outputs": [],
      "stateMutability": "nonpayable",
      "type": "function"
    },
    {
      "inputs": [],
      "name": "claimTickets",
      "outputs": [],
      "stateMutability": "nonpayable",
      "type": "function"
    },
    {
      "inputs": [
        {
          "internalType": "uint256",
          "name": "_startDate",
          "type": "uint256"
        },
        {
          "internalType": "uint256",
          "name": "_endDate",
          "type": "uint256"
        },
        {
          "internalType": "uint256",
          "name": "_amount",
          "type": "uint256"
        }
      ],
      "name": "getTicketAPRAmount",
      "outputs": [
        {
          "internalType": "uint256",
          "name": "",
          "type": "uint256"
        }
      ],
      "stateMutability": "nonpayable",
      "type": "function"
    },
    {
      "inputs": [
        {
          "internalType": "address",
          "name": "_newAddress",
          "type": "address"
        }
      ],
      "name": "changeBEPROAddress",
      "outputs": [],
      "stateMutability": "nonpayable",
      "type": "function"
    },
    {
      "inputs": [
        {
          "internalType": "address",
          "name": "_newAddress",
          "type": "address"
        }
      ],
      "name": "setBeproReputationToken",
      "outputs": [],
      "stateMutability": "nonpayable",
      "type": "function"
    },
    {
      "inputs": [
        {
          "internalType": "address",
          "name": "_newAddress",
          "type": "address"
        }
      ],
      "name": "setBeproTicketToken",
      "outputs": [],
      "stateMutability": "nonpayable",
      "type": "function"
    },
    {
      "inputs": [
        {
          "internalType": "uint256",
          "name": "_ticketGenAPR",
          "type": "uint256"
        }
      ],
      "name": "editTicketGenAPR",
      "outputs": [],
      "stateMutability": "nonpayable",
      "type": "function"
    },
    {
      "inputs": [
        {
          "internalType": "uint256",
          "name": "_ticketToReputationTrade",
          "type": "uint256"
        }
      ],
      "name": "editTicketToReputationTrade",
      "outputs": [],
      "stateMutability": "nonpayable",
      "type": "function"
    },
    {
      "inputs": [
        {
          "internalType": "address",
          "name": "_newContract",
          "type": "address"
        }
      ],
      "name": "upgradeContract",
      "outputs": [],
      "stateMutability": "nonpayable",
      "type": "function"
    },
    {
      "inputs": [],
      "name": "getSubscriptionID",
      "outputs": [
        {
          "internalType": "uint256",
          "name": "",
          "type": "uint256"
        }
      ],
      "stateMutability": "nonpayable",
      "type": "function"
    }
  ],
  "bytecode": "0x608060405273cf3c8be2e2c42331da80ef210e9b1b307c03d36a600160006101000a81548173ffffffffffffffffffffffffffffffffffffffff021916908373ffffffffffffffffffffffffffffffffffffffff16021790555060016004556001600555620f4240600655600a6007556000600855600060095534801561008557600080fd5b5060008060006101000a81548160ff02191690831515021790555033600060016101000a81548173ffffffffffffffffffffffffffffffffffffffff021916908373ffffffffffffffffffffffffffffffffffffffff16021790555061250f806100f06000396000f3fe608060405234801561001057600080fd5b50600436106101ec576000357c0100000000000000000000000000000000000000000000000000000000900480638440bd7a11610121578063b4843b6b116100bf578063e0205b8b1161008e578063e0205b8b1461080a578063e113e45214610828578063eb2c022314610872578063f2fde38b146108b6576101ec565b8063b4843b6b14610706578063c502380b14610754578063d68c958b14610798578063daf828e8146107dc576101ec565b806395d7427a116100fb57806395d7427a14610642578063a039139e14610660578063a694fc3a146106aa578063b2bb95f5146106d8576101ec565b80638440bd7a146105ac5780638da5cb5b146105ca5780638e2a603614610614576101ec565b80635ac203cf1161018e5780636a2eba91116101685780636a2eba9114610510578063729911a814610566578063817b1cd21461058457806381fe4c61146105a2576101ec565b80635ac203cf1461048c5780635bc31ff4146104d05780635c975abb146104ee576101ec565b80632d5bbf60116101ca5780632d5bbf60146103575780632e17de78146103e857806330ff19ac14610416578063451a80221461046e576101ec565b806304e15de5146101f15780630db16900146102ab5780631ac63d92146102f5575b600080fd5b61021d6004803603602081101561020757600080fd5b81019080803590602001909291905050506108fa565b604051808681526020018581526020018473ffffffffffffffffffffffffffffffffffffffff1673ffffffffffffffffffffffffffffffffffffffff168152602001831515151581526020018273ffffffffffffffffffffffffffffffffffffffff1673ffffffffffffffffffffffffffffffffffffffff1681526020019550505050505060405180910390f35b6102b361097d565b604051808273ffffffffffffffffffffffffffffffffffffffff1673ffffffffffffffffffffffffffffffffffffffff16815260200191505060405180910390f35b6103416004803603604081101561030b57600080fd5b81019080803573ffffffffffffffffffffffffffffffffffffffff169060200190929190803590602001909291905050506109a3565b6040518082815260200191505060405180910390f35b6103836004803603602081101561036d57600080fd5b81019080803590602001909291905050506109d1565b604051808781526020018681526020018581526020018481526020018381526020018273ffffffffffffffffffffffffffffffffffffffff1673ffffffffffffffffffffffffffffffffffffffff168152602001965050505050505060405180910390f35b610414600480360360208110156103fe57600080fd5b8101908080359060200190929190505050610a2d565b005b6104586004803603602081101561042c57600080fd5b81019080803573ffffffffffffffffffffffffffffffffffffffff169060200190929190505050610b94565b6040518082815260200191505060405180910390f35b610476610bac565b6040518082815260200191505060405180910390f35b6104ce600480360360208110156104a257600080fd5b81019080803573ffffffffffffffffffffffffffffffffffffffff169060200190929190505050610bb2565b005b6104d8610c50565b6040518082815260200191505060405180910390f35b6104f6610c56565b604051808215151515815260200191505060405180910390f35b6105506004803603606081101561052657600080fd5b81019080803590602001909291908035906020019092919080359060200190929190505050610c6c565b6040518082815260200191505060405180910390f35b61056e610cd9565b6040518082815260200191505060405180910390f35b61058c610cdf565b6040518082815260200191505060405180910390f35b6105aa610ce5565b005b6105b4610e8d565b6040518082815260200191505060405180910390f35b6105d2610e93565b604051808273ffffffffffffffffffffffffffffffffffffffff1673ffffffffffffffffffffffffffffffffffffffff16815260200191505060405180910390f35b6106406004803603602081101561062a57600080fd5b8101908080359060200190929190505050610eb9565b005b61064a610f1d565b6040518082815260200191505060405180910390f35b610668610fdf565b604051808273ffffffffffffffffffffffffffffffffffffffff1673ffffffffffffffffffffffffffffffffffffffff16815260200191505060405180910390f35b6106d6600480360360208110156106c057600080fd5b8101908080359060200190929190505050611005565b005b610704600480360360208110156106ee57600080fd5b8101908080359060200190929190505050611418565b005b6107526004803603604081101561071c57600080fd5b8101908080359060200190929190803573ffffffffffffffffffffffffffffffffffffffff1690602001909291905050506117a2565b005b6107966004803603602081101561076a57600080fd5b81019080803573ffffffffffffffffffffffffffffffffffffffff169060200190929190505050611c94565b005b6107da600480360360208110156107ae57600080fd5b81019080803573ffffffffffffffffffffffffffffffffffffffff169060200190929190505050611d32565b005b610808600480360360208110156107f257600080fd5b8101908080359060200190929190505050611dd0565b005b610812611e34565b6040518082815260200191505060405180910390f35b610830611e3a565b604051808273ffffffffffffffffffffffffffffffffffffffff1673ffffffffffffffffffffffffffffffffffffffff16815260200191505060405180910390f35b6108b46004803603602081101561088857600080fd5b81019080803573ffffffffffffffffffffffffffffffffffffffff169060200190929190505050611e60565b005b6108f8600480360360208110156108cc57600080fd5b81019080803573ffffffffffffffffffffffffffffffffffffffff169060200190929190505050611f37565b005b600a6020528060005260406000206000915090508060000154908060010154908060020160009054906101000a900473ffffffffffffffffffffffffffffffffffffffff16908060020160149054906101000a900460ff16908060030160009054906101000a900473ffffffffffffffffffffffffffffffffffffffff16905085565b600260009054906101000a900473ffffffffffffffffffffffffffffffffffffffff1681565b600d60205281600052604060002081815481106109bc57fe5b90600052602060002001600091509150505481565b600b6020528060005260406000206000915090508060000154908060010154908060020154908060030154908060040154908060050160009054906101000a900473ffffffffffffffffffffffffffffffffffffffff16905086565b610a35610c56565b15610aa8576040517f08c379a00000000000000000000000000000000000000000000000000000000081526004018080602001828103825260108152602001807f5061757361626c653a207061757365640000000000000000000000000000000081525060200191505060405180910390fd5b6000610ab2610f1d565b905081600b6000838152602001908152602001600020600201541015610b23576040517f08c379a00000000000000000000000000000000000000000000000000000000081526004018080602001828103825260348152602001806124856034913960400191505060405180910390fd5b6000610b4e83600b60008581526020019081526020016000206002015461208b90919063ffffffff16565b905080600b600084815260200190815260200160002060020181905550610b748261210e565b610b898360085461208b90919063ffffffff16565b600881905550505050565b600c6020528060005260406000206000915090505481565b60075481565b600060019054906101000a900473ffffffffffffffffffffffffffffffffffffffff1673ffffffffffffffffffffffffffffffffffffffff163373ffffffffffffffffffffffffffffffffffffffff1614610c0c57600080fd5b80600160006101000a81548173ffffffffffffffffffffffffffffffffffffffff021916908373ffffffffffffffffffffffffffffffffffffffff16021790555050565b60065481565b60008060009054906101000a900460ff16905090565b6000610cd0610c8960646301e1338061222090919063ffffffff16565b610cc284610cb4600654610ca68a8a61208b90919063ffffffff16565b61222090919063ffffffff16565b61222090919063ffffffff16565b6122a690919063ffffffff16565b90509392505050565b60055481565b60085481565b610ced610c56565b15610d60576040517f08c379a00000000000000000000000000000000000000000000000000000000081526004018080602001828103825260108152602001807f5061757361626c653a207061757365640000000000000000000000000000000081525060200191505060405180910390fd5b6000610d6a610f1d565b9050610d758161210e565b6000600b60008381526020019081526020016000206003015490506000600b600084815260200190815260200160002060030181905550600360009054906101000a900473ffffffffffffffffffffffffffffffffffffffff1673ffffffffffffffffffffffffffffffffffffffff166340c10f1933836040518363ffffffff167c0100000000000000000000000000000000000000000000000000000000028152600401808373ffffffffffffffffffffffffffffffffffffffff1673ffffffffffffffffffffffffffffffffffffffff16815260200182815260200192505050600060405180830381600087803b158015610e7157600080fd5b505af1158015610e85573d6000803e3d6000fd5b505050505050565b60095481565b600060019054906101000a900473ffffffffffffffffffffffffffffffffffffffff1681565b600060019054906101000a900473ffffffffffffffffffffffffffffffffffffffff1673ffffffffffffffffffffffffffffffffffffffff163373ffffffffffffffffffffffffffffffffffffffff1614610f1357600080fd5b8060068190555050565b600080600c60003373ffffffffffffffffffffffffffffffffffffffff1673ffffffffffffffffffffffffffffffffffffffff16815260200190815260200160002054905060008111610fd8576040517f08c379a00000000000000000000000000000000000000000000000000000000081526004018080602001828103825260148152602001807f4e6f206f70656e20737562736372697074696f6e00000000000000000000000081525060200191505060405180910390fd5b8091505090565b600360009054906101000a900473ffffffffffffffffffffffffffffffffffffffff1681565b61100d610c56565b15611080576040517f08c379a00000000000000000000000000000000000000000000000000000000081526004018080602001828103825260108152602001807f5061757361626c653a207061757365640000000000000000000000000000000081525060200191505060405180910390fd5b6000600c60003373ffffffffffffffffffffffffffffffffffffffff1673ffffffffffffffffffffffffffffffffffffffff1681526020019081526020016000205490506000811115611115576110f682600b60008481526020019081526020016000206002015461232f90919063ffffffff16565b600b60008381526020019081526020016000206002018190555061123e565b60045490506111226123b7565b6040518060c00160405280838152602001428152602001848152602001600081526020014281526020013373ffffffffffffffffffffffffffffffffffffffff16815250905080600b6000848152602001908152602001600020600082015181600001556020820151816001015560408201518160020155606082015181600301556080820151816004015560a08201518160050160006101000a81548173ffffffffffffffffffffffffffffffffffffffff021916908373ffffffffffffffffffffffffffffffffffffffff16021790555090505081600c60003373ffffffffffffffffffffffffffffffffffffffff1673ffffffffffffffffffffffffffffffffffffffff16815260200190815260200160002081905550505b600160009054906101000a900473ffffffffffffffffffffffffffffffffffffffff1673ffffffffffffffffffffffffffffffffffffffff166323b872dd3330856040518463ffffffff167c0100000000000000000000000000000000000000000000000000000000028152600401808473ffffffffffffffffffffffffffffffffffffffff1673ffffffffffffffffffffffffffffffffffffffff1681526020018373ffffffffffffffffffffffffffffffffffffffff1673ffffffffffffffffffffffffffffffffffffffff1681526020018281526020019350505050602060405180830381600087803b15801561133757600080fd5b505af115801561134b573d6000803e3d6000fd5b505050506040513d602081101561136157600080fd5b81019080805190602001909291905050506113e4576040517f08c379a000000000000000000000000000000000000000000000000000000000815260040180806020018281038252600f8152602001807f4e6565647320416c6c6f77616e6365000000000000000000000000000000000081525060200191505060405180910390fd5b6113ed8161210e565b6114028260085461232f90919063ffffffff16565b6008819055506001600454016004819055505050565b611420610c56565b15611493576040517f08c379a00000000000000000000000000000000000000000000000000000000081526004018080602001828103825260108152602001807f5061757361626c653a207061757365640000000000000000000000000000000081525060200191505060405180910390fd5b61149b612403565b6040518060a0016040528060055481526020018381526020013373ffffffffffffffffffffffffffffffffffffffff168152602001600015158152602001600073ffffffffffffffffffffffffffffffffffffffff16815250905080600a60006005548152602001908152602001600020600082015181600001556020820151816001015560408201518160020160006101000a81548173ffffffffffffffffffffffffffffffffffffffff021916908373ffffffffffffffffffffffffffffffffffffffff16021790555060608201518160020160146101000a81548160ff02191690831515021790555060808201518160030160006101000a81548173ffffffffffffffffffffffffffffffffffffffff021916908373ffffffffffffffffffffffffffffffffffffffff160217905550905050600360009054906101000a900473ffffffffffffffffffffffffffffffffffffffff1673ffffffffffffffffffffffffffffffffffffffff166323b872dd3330856040518463ffffffff167c0100000000000000000000000000000000000000000000000000000000028152600401808473ffffffffffffffffffffffffffffffffffffffff1673ffffffffffffffffffffffffffffffffffffffff1681526020018373ffffffffffffffffffffffffffffffffffffffff1673ffffffffffffffffffffffffffffffffffffffff1681526020018281526020019350505050602060405180830381600087803b1580156116ca57600080fd5b505af11580156116de573d6000803e3d6000fd5b505050506040513d60208110156116f457600080fd5b8101908080519060200190929190505050611777576040517f08c379a000000000000000000000000000000000000000000000000000000000815260040180806020018281038252600f8152602001807f4e6565647320416c6c6f77616e6365000000000000000000000000000000000081525060200191505060405180910390fd5b61178c8260095461208b90919063ffffffff16565b6009819055506001600554016005819055505050565b600060019054906101000a900473ffffffffffffffffffffffffffffffffffffffff1673ffffffffffffffffffffffffffffffffffffffff163373ffffffffffffffffffffffffffffffffffffffff16146117fc57600080fd5b600073ffffffffffffffffffffffffffffffffffffffff168173ffffffffffffffffffffffffffffffffffffffff161415611882576040517f08c379a00000000000000000000000000000000000000000000000000000000081526004018080602001828103825260248152602001806124616024913960400191505060405180910390fd5b6000600a600084815260200190815260200160002060000154141561190f576040517f08c379a00000000000000000000000000000000000000000000000000000000081526004018080602001828103825260128152602001807f49737375652068617320746f206578697374000000000000000000000000000081525060200191505060405180910390fd5b60001515600a600084815260200190815260200160002060020160149054906101000a900460ff161515146119ac576040517f08c379a00000000000000000000000000000000000000000000000000000000081526004018080602001828103825260168152602001807f49737375652068617320746f206265206f70656e65640000000000000000000081525060200191505060405180910390fd5b6001600a600084815260200190815260200160002060020160146101000a81548160ff02191690831515021790555080600a600084815260200190815260200160002060030160006101000a81548173ffffffffffffffffffffffffffffffffffffffff021916908373ffffffffffffffffffffffffffffffffffffffff160217905550600d60008273ffffffffffffffffffffffffffffffffffffffff1673ffffffffffffffffffffffffffffffffffffffff168152602001908152602001600020829080600181540180825580915050600190039060005260206000200160009091909190915055600260009054906101000a900473ffffffffffffffffffffffffffffffffffffffff1673ffffffffffffffffffffffffffffffffffffffff166340c10f1982611b00600754600a60008881526020019081526020016000206001015461222090919063ffffffff16565b6040518363ffffffff167c0100000000000000000000000000000000000000000000000000000000028152600401808373ffffffffffffffffffffffffffffffffffffffff1673ffffffffffffffffffffffffffffffffffffffff16815260200182815260200192505050600060405180830381600087803b158015611b8557600080fd5b505af1158015611b99573d6000803e3d6000fd5b50505050600360009054906101000a900473ffffffffffffffffffffffffffffffffffffffff1673ffffffffffffffffffffffffffffffffffffffff16639dc29fac30600a6000868152602001908152602001600020600101546040518363ffffffff167c0100000000000000000000000000000000000000000000000000000000028152600401808373ffffffffffffffffffffffffffffffffffffffff1673ffffffffffffffffffffffffffffffffffffffff16815260200182815260200192505050600060405180830381600087803b158015611c7857600080fd5b505af1158015611c8c573d6000803e3d6000fd5b505050505050565b600060019054906101000a900473ffffffffffffffffffffffffffffffffffffffff1673ffffffffffffffffffffffffffffffffffffffff163373ffffffffffffffffffffffffffffffffffffffff1614611cee57600080fd5b80600260006101000a81548173ffffffffffffffffffffffffffffffffffffffff021916908373ffffffffffffffffffffffffffffffffffffffff16021790555050565b600060019054906101000a900473ffffffffffffffffffffffffffffffffffffffff1673ffffffffffffffffffffffffffffffffffffffff163373ffffffffffffffffffffffffffffffffffffffff1614611d8c57600080fd5b80600360006101000a81548173ffffffffffffffffffffffffffffffffffffffff021916908373ffffffffffffffffffffffffffffffffffffffff16021790555050565b600060019054906101000a900473ffffffffffffffffffffffffffffffffffffffff1673ffffffffffffffffffffffffffffffffffffffff163373ffffffffffffffffffffffffffffffffffffffff1614611e2a57600080fd5b8060078190555050565b60045481565b600160009054906101000a900473ffffffffffffffffffffffffffffffffffffffff1681565b600060019054906101000a900473ffffffffffffffffffffffffffffffffffffffff1673ffffffffffffffffffffffffffffffffffffffff163373ffffffffffffffffffffffffffffffffffffffff1614611eba57600080fd5b611ec2610c56565b611f34576040517f08c379a00000000000000000000000000000000000000000000000000000000081526004018080602001828103825260148152602001807f5061757361626c653a206e6f742070617573656400000000000000000000000081525060200191505060405180910390fd5b50565b600060019054906101000a900473ffffffffffffffffffffffffffffffffffffffff1673ffffffffffffffffffffffffffffffffffffffff163373ffffffffffffffffffffffffffffffffffffffff1614611f9157600080fd5b600073ffffffffffffffffffffffffffffffffffffffff168173ffffffffffffffffffffffffffffffffffffffff161415611fcb57600080fd5b8073ffffffffffffffffffffffffffffffffffffffff16600060019054906101000a900473ffffffffffffffffffffffffffffffffffffffff1673ffffffffffffffffffffffffffffffffffffffff167f8be0079c531659141344cd1fd0a4f28419497f9722a3daafe3b4186f6b6457e060405160405180910390a380600060016101000a81548173ffffffffffffffffffffffffffffffffffffffff021916908373ffffffffffffffffffffffffffffffffffffffff16021790555050565b600082821115612103576040517f08c379a000000000000000000000000000000000000000000000000000000000815260040180806020018281038252601e8152602001807f536166654d6174683a207375627472616374696f6e206f766572666c6f77000081525060200191505060405180910390fd5b818303905092915050565b612116610c56565b15612189576040517f08c379a00000000000000000000000000000000000000000000000000000000081526004018080602001828103825260108152602001807f5061757361626c653a207061757365640000000000000000000000000000000081525060200191505060405180910390fd5b6121e86121c3600b60008481526020019081526020016000206004015442600b600086815260200190815260200160002060020154610c6c565b600b60008481526020019081526020016000206003015461232f90919063ffffffff16565b600b60008381526020019081526020016000206003018190555042600b60008381526020019081526020016000206004018190555050565b60008083141561223357600090506122a0565b600082840290508284828161224457fe5b041461229b576040517f08c379a00000000000000000000000000000000000000000000000000000000081526004018080602001828103825260218152602001806124b96021913960400191505060405180910390fd5b809150505b92915050565b600080821161231d576040517f08c379a000000000000000000000000000000000000000000000000000000000815260040180806020018281038252601a8152602001807f536166654d6174683a206469766973696f6e206279207a65726f00000000000081525060200191505060405180910390fd5b81838161232657fe5b04905092915050565b6000808284019050838110156123ad576040517f08c379a000000000000000000000000000000000000000000000000000000000815260040180806020018281038252601b8152602001807f536166654d6174683a206164646974696f6e206f766572666c6f77000000000081525060200191505060405180910390fd5b8091505092915050565b6040518060c001604052806000815260200160008152602001600081526020016000815260200160008152602001600073ffffffffffffffffffffffffffffffffffffffff1681525090565b6040518060a001604052806000815260200160008152602001600073ffffffffffffffffffffffffffffffffffffffff168152602001600015158152602001600073ffffffffffffffffffffffffffffffffffffffff168152509056fe52657761726420416464726573732068617320746f2062652064696666207468616e2030416d6f756e7420746f20756e7374616b652068617320746f20626520657175616c206f72206c65737320746f2063757272656e74536166654d6174683a206d756c7469706c69636174696f6e206f766572666c6f77a2646970667358221220e0c3c62a5c3a1cbd1ae6c49e697ae14ecde3e2f53bec617ec3ece9f649dcbf1f64736f6c63430006020033",
  "source": "pragma solidity >=0.6.0;\n\nimport \"@openzeppelin/contracts/token/ERC20/ERC20.sol\";\nimport \"@openzeppelin/contracts/utils/Pausable.sol\";\nimport \"../utils/Ownable.sol\";\n\n\n/**\n * @dev Interface of the ERC20 standard + mint & burn\n */\ninterface _IERC20 is IERC20  {\n\n    /**\n    * @dev Mint Function\n    */\n    function mint(address account, uint256 amount) external;\n\n    /**\n    * @dev Burn Function\n    */\n    function burn(address account, uint256 amount) external;\n\n}\n\n/**\n * @title Network Contract\n */\ncontract Network is Pausable, Ownable{\n    using SafeMath for uint256;\n\n    _IERC20 public beproToken = _IERC20(0xCF3C8Be2e2C42331Da80EF210e9B1b307C03d36A);\n    _IERC20 public beproReputationToken;\n    _IERC20 public beproTicketToken;\n\n    uint256 constant private year = 365 days;\n    uint256 public incrementID = 1;\n    uint256 public incrementIssueID = 1;\n    uint256 public ticketGenAPR = 1000000; // 1 Ticket = 1M BEPRO Staked per Week (Operator)\n    uint256 public ticketToReputationTrade = 10; // 1 Ticket = 10 Reputation\n    uint256 public totalStaked = 0;\n    uint256 public totalTicketsStaked = 0;\n    mapping(uint256 => Issue) public issues; /* Distribution object */\n    mapping(uint256 => Subscription) public subscriptions; /* Distribution object */\n    mapping(address => uint256) public mySubscription; /* Address Based Subcription */\n    mapping(address => uint256[]) public myIssues; /* Address Based Subcription */\n\n    struct Subscription {\n        uint256 _id;\n        uint256 startDate;\n        uint256 amount;\n        uint256 ticketsAccumulatedNotClaimed;\n        uint256 lastUpdateDate;\n        address subscriberAddress;\n    }\n\n     struct Issue {\n        uint256 _id;\n        uint256 ticketsStaked;\n        address issueGenerator;\n        bool finalized;\n        address rewardedAddress;\n    }\n\n    constructor() public {}\n\n\n    function _updateTicketsAcumulated(uint256 _id) internal whenNotPaused {\n        subscriptions[_id].ticketsAccumulatedNotClaimed = subscriptions[_id].ticketsAccumulatedNotClaimed.add(getTicketAPRAmount(\n            subscriptions[_id].lastUpdateDate,\n            block.timestamp,\n            subscriptions[_id].amount\n        ));\n\n        subscriptions[_id].lastUpdateDate = block.timestamp;\n    }\n\n    /**\n     * @dev Stakes an Amount of tokens to generate tickets     \n    */\n    function stake(uint256 _amount) public whenNotPaused {\n\n        uint256 id = mySubscription[msg.sender];\n        if(id > 0){\n            // has stake already\n            subscriptions[id].amount = subscriptions[id].amount.add(_amount);\n        }else{\n            id = incrementID;\n            // new stake\n            Subscription memory subscription = Subscription(id, block.timestamp, _amount, 0, block.timestamp, msg.sender);\n            subscriptions[id] = subscription;\n            mySubscription[msg.sender] = id;\n        }\n\n        require(beproToken.transferFrom(msg.sender, address(this), _amount), \"Needs Allowance\");\n        _updateTicketsAcumulated(id);\n        totalStaked = totalStaked.add(_amount);\n        incrementID = incrementID+1;\n    }\n       \n    /**\n     * @dev Unstakes an Amount of tokens to generate tickets\n     */\n    function unstake(uint256 _amount) public whenNotPaused {\n        uint256 id = getSubscriptionID();\n        require(subscriptions[id].amount >=_amount, \"Amount to unstake has to be equal or less to current\");\n        uint256 newAmount = subscriptions[id].amount.sub(_amount);\n        subscriptions[id].amount = newAmount;\n        // Accumulated Tickets\n        _updateTicketsAcumulated(id);\n        // has stake already\n        totalStaked = totalStaked.sub(_amount);\n    }\n\n   \n    /**\n     * @dev open an Issue with tickets owned\n     */\n    function openIssue(uint256 _ticketsAmount) public whenNotPaused {\n\n        // Open Issue\n        Issue memory issue = Issue(incrementIssueID, _ticketsAmount, msg.sender, false, address(0));\n        issues[incrementIssueID] = issue;\n        // Stake tickets\n        require(beproTicketToken.transferFrom(msg.sender, address(this), _ticketsAmount), \"Needs Allowance\");\n        totalTicketsStaked = totalTicketsStaked.sub(_ticketsAmount);\n        incrementIssueID = incrementIssueID + 1;\n    }\n\n    /**\n     * @dev Owner finalizes the issue and distributes the reputation or rejects the PR\n     * @param _issueID issue id (mapping with github)\n     * @param _rewardedAddress Rewarded Address\n     */\n    function closeIssue(uint256 _issueID, address _rewardedAddress) public onlyOwner {\n        require(_rewardedAddress != address(0), \"Reward Address has to be diff than 0\");\n        require(issues[_issueID]._id != 0 , \"Issue has to exist\");\n        require(issues[_issueID].finalized == false, \"Issue has to be opened\");\n\n        // Closes the issue\n        issues[_issueID].finalized = true;\n        issues[_issueID].rewardedAddress = _rewardedAddress;\n        myIssues[_rewardedAddress].push(_issueID);\n\n        // Generate Reputation Tokens\n        beproReputationToken.mint(_rewardedAddress, issues[_issueID].ticketsStaked.mul(ticketToReputationTrade));\n        // Burn Tickets\n        beproTicketToken.burn(address(this), issues[_issueID].ticketsStaked);\n    }\n\n     /**\n     * @dev Claims Tickets generated by Staking BEPRO \n     */\n    function claimTickets() public whenNotPaused {\n        uint256 id = getSubscriptionID();\n        _updateTicketsAcumulated(id);\n        uint256 availableTickets = subscriptions[id].ticketsAccumulatedNotClaimed;\n        // update subscription\n        subscriptions[id].ticketsAccumulatedNotClaimed = 0;\n        // mint tickets\n        beproTicketToken.mint(msg.sender, availableTickets);\n    }\n\n    /**\n     * @dev Get Calculation of Amount of Tickets Available to Claim at any moment\n     */\n    function getTicketAPRAmount(uint256 _startDate, uint256 _endDate, uint256 _amount) public returns(uint256) {\n        return ((_endDate.sub(_startDate)).mul(ticketGenAPR).mul(_amount)).div(year.mul(100));\n    }\n\n\n    /**\n     * @dev Change BEPRO Token Address (Upgrade)\n     */\n    function changeBEPROAddress(address _newAddress) public onlyOwner {\n        beproToken = _IERC20(_newAddress);\n    }\n    \n    /**\n     * @dev Change BEPRO Reputation Address (Upgrade)\n     */\n    function setBeproReputationToken(address _newAddress) public onlyOwner {\n        beproReputationToken = _IERC20(_newAddress);\n    }\n\n    /**\n     * @dev Change BEPRO Ticket Address (Upgrade)\n     */\n    function setBeproTicketToken(address _newAddress) public onlyOwner {\n        beproTicketToken = _IERC20(_newAddress);\n    }\n\n    /**\n     * @dev Change BEPRO Ticket Generation APR based on BEPRO Staked (Upgrade)\n     */\n    function editTicketGenAPR(uint256 _ticketGenAPR) public onlyOwner {\n        ticketGenAPR = _ticketGenAPR;\n    }\n\n    /**\n     * @dev Change BEPRO Ticket - BEPRO Reputation conversion amount (Upgrade)\n     */\n    function editTicketToReputationTrade(uint256 _ticketToReputationTrade) public onlyOwner {\n        ticketToReputationTrade = _ticketToReputationTrade;\n    }\n\n    /**\n     * @dev Upgrade Contract Version\n     */\n    function upgradeContract(address _newContract) public onlyOwner whenPaused {\n        //To be done\n    }\n\n\n    function getSubscriptionID() public returns (uint256) {\n        uint256 id = mySubscription[msg.sender];\n        require(id > 0, \"No open subscription\");\n        return id;\n    }\n\n}\n",
  "sourcePath": "/Users/ruipedro/Desktop/projects/Bepro/@bepro-js/contracts/bepro/Network.sol",
  "compiler": {
    "name": "solc",
    "version": "0.6.2+commit.bacdbe57.Emscripten.clang"
  },
  "schemaVersion": "3.0.20",
  "updatedAt": "2021-04-17T16:56:38.268Z",
  "devdoc": {
    "methods": {
      "changeBEPROAddress(address)": {
        "details": "Change BEPRO Token Address (Upgrade)"
      },
      "claimTickets()": {
        "details": "Claims Tickets generated by Staking BEPRO "
      },
      "closeIssue(uint256,address)": {
        "details": "Owner finalizes the issue and distributes the reputation or rejects the PR",
        "params": {
          "_issueID": "issue id (mapping with github)",
          "_rewardedAddress": "Rewarded Address"
        }
      },
      "editTicketGenAPR(uint256)": {
        "details": "Change BEPRO Ticket Generation APR based on BEPRO Staked (Upgrade)"
      },
      "editTicketToReputationTrade(uint256)": {
        "details": "Change BEPRO Ticket - BEPRO Reputation conversion amount (Upgrade)"
      },
      "getTicketAPRAmount(uint256,uint256,uint256)": {
        "details": "Get Calculation of Amount of Tickets Available to Claim at any moment"
      },
      "openIssue(uint256)": {
        "details": "open an Issue with tickets owned"
      },
      "paused()": {
        "details": "Returns true if the contract is paused, and false otherwise."
      },
      "setBeproReputationToken(address)": {
        "details": "Change BEPRO Reputation Address (Upgrade)"
      },
      "setBeproTicketToken(address)": {
        "details": "Change BEPRO Ticket Address (Upgrade)"
      },
      "stake(uint256)": {
        "details": "Stakes an Amount of tokens to generate tickets     "
      },
      "transferOwnership(address)": {
        "details": "Allows the current owner to transfer control of the contract to a newOwner.",
        "params": {
          "newOwner": "The address to transfer ownership to."
        }
      },
      "unstake(uint256)": {
        "details": "Unstakes an Amount of tokens to generate tickets"
      },
      "upgradeContract(address)": {
        "details": "Upgrade Contract Version"
      }
    },
    "title": "Network Contract"
  },
  "userdoc": {
    "methods": {}
  }
}