{
  "contractName": "Network",
  "abi": [
    {
      "inputs": [
        {
          "internalType": "address",
          "name": "_settlerToken",
          "type": "address"
        },
        {
          "internalType": "address",
          "name": "_transactionToken",
          "type": "address"
        },
        {
          "internalType": "address",
          "name": "_governor",
          "type": "address"
        }
      ],
      "stateMutability": "nonpayable",
      "type": "constructor"
    },
    {
      "anonymous": false,
      "inputs": [
        {
          "indexed": true,
          "internalType": "uint256",
          "name": "id",
          "type": "uint256"
        },
        {
          "indexed": true,
          "internalType": "uint256",
          "name": "votes",
          "type": "uint256"
        },
        {
          "indexed": true,
          "internalType": "address",
          "name": "approver",
          "type": "address"
        }
      ],
      "name": "ApproveIssue",
      "type": "event"
    },
    {
      "anonymous": false,
      "inputs": [
        {
          "indexed": true,
          "internalType": "uint256",
          "name": "id",
          "type": "uint256"
        },
        {
          "indexed": true,
          "internalType": "uint256",
          "name": "mergeID",
          "type": "uint256"
        },
        {
          "indexed": false,
          "internalType": "uint256",
          "name": "votes",
          "type": "uint256"
        },
        {
          "indexed": true,
          "internalType": "address",
          "name": "approver",
          "type": "address"
        }
      ],
      "name": "ApproveMerge",
      "type": "event"
    },
    {
      "anonymous": false,
      "inputs": [
        {
          "indexed": true,
          "internalType": "uint256",
          "name": "id",
          "type": "uint256"
        },
        {
          "indexed": true,
          "internalType": "uint256",
          "name": "mergeID",
          "type": "uint256"
        },
        {
          "indexed": true,
          "internalType": "address[]",
          "name": "addresses",
          "type": "address[]"
        }
      ],
      "name": "CloseIssue",
      "type": "event"
    },
    {
      "anonymous": false,
      "inputs": [
        {
          "indexed": true,
          "internalType": "uint256",
          "name": "id",
          "type": "uint256"
        },
        {
          "indexed": true,
          "internalType": "uint256",
          "name": "mergeID",
          "type": "uint256"
        },
        {
          "indexed": false,
          "internalType": "uint256",
          "name": "votes",
          "type": "uint256"
        },
        {
          "indexed": true,
          "internalType": "address",
          "name": "disputer",
          "type": "address"
        }
      ],
      "name": "DisputeMerge",
      "type": "event"
    },
    {
      "anonymous": false,
      "inputs": [
        {
          "indexed": true,
          "internalType": "address",
          "name": "previousGovernor",
          "type": "address"
        },
        {
          "indexed": true,
          "internalType": "address",
          "name": "newGovernor",
          "type": "address"
        }
      ],
      "name": "GovernorTransferred",
      "type": "event"
    },
    {
      "anonymous": false,
      "inputs": [
        {
          "indexed": true,
          "internalType": "uint256",
          "name": "id",
          "type": "uint256"
        },
        {
          "indexed": true,
          "internalType": "uint256",
          "name": "mergeID",
          "type": "uint256"
        },
        {
          "indexed": true,
          "internalType": "address",
          "name": "creator",
          "type": "address"
        }
      ],
      "name": "MergeProposalCreated",
      "type": "event"
    },
    {
      "anonymous": false,
      "inputs": [
        {
          "indexed": true,
          "internalType": "uint256",
          "name": "id",
          "type": "uint256"
        },
        {
          "indexed": true,
          "internalType": "address",
          "name": "opener",
          "type": "address"
        },
        {
          "indexed": true,
          "internalType": "uint256",
          "name": "amount",
          "type": "uint256"
        }
      ],
      "name": "OpenIssue",
      "type": "event"
    },
    {
      "anonymous": false,
      "inputs": [
        {
          "indexed": false,
          "internalType": "address",
          "name": "account",
          "type": "address"
        }
      ],
      "name": "Paused",
      "type": "event"
    },
    {
      "anonymous": false,
      "inputs": [
        {
          "indexed": false,
          "internalType": "address",
          "name": "account",
          "type": "address"
        }
      ],
      "name": "Unpaused",
      "type": "event"
    },
    {
      "inputs": [],
      "name": "COUNCIL_AMOUNT",
      "outputs": [
        {
          "internalType": "uint256",
          "name": "",
          "type": "uint256"
        }
      ],
      "stateMutability": "view",
      "type": "function"
    },
    {
      "inputs": [],
      "name": "_governor",
      "outputs": [
        {
          "internalType": "address",
          "name": "",
          "type": "address"
        }
      ],
      "stateMutability": "view",
      "type": "function"
    },
    {
      "inputs": [],
      "name": "closedIdsCount",
      "outputs": [
        {
          "internalType": "uint256",
          "name": "",
          "type": "uint256"
        }
      ],
      "stateMutability": "view",
      "type": "function"
    },
    {
      "inputs": [],
      "name": "incrementIssueID",
      "outputs": [
        {
          "internalType": "uint256",
          "name": "",
          "type": "uint256"
        }
      ],
      "stateMutability": "view",
      "type": "function"
    },
    {
      "inputs": [
        {
          "internalType": "uint256",
          "name": "",
          "type": "uint256"
        }
      ],
      "name": "issues",
      "outputs": [
        {
          "internalType": "uint256",
          "name": "_id",
          "type": "uint256"
        },
        {
          "internalType": "string",
          "name": "cid",
          "type": "string"
        },
        {
          "internalType": "uint256",
          "name": "creationDate",
          "type": "uint256"
        },
        {
          "internalType": "uint256",
          "name": "tokensStaked",
          "type": "uint256"
        },
        {
          "internalType": "address",
          "name": "issueGenerator",
          "type": "address"
        },
        {
          "internalType": "uint256",
          "name": "votesForApprove",
          "type": "uint256"
        },
        {
          "internalType": "uint256",
          "name": "mergeIDIncrement",
          "type": "uint256"
        },
        {
          "internalType": "bool",
          "name": "finalized",
          "type": "bool"
        },
        {
          "internalType": "bool",
          "name": "canceled",
          "type": "bool"
        }
      ],
      "stateMutability": "view",
      "type": "function"
    },
    {
      "inputs": [],
      "name": "mergeCreatorFeeShare",
      "outputs": [
        {
          "internalType": "uint256",
          "name": "",
          "type": "uint256"
        }
      ],
      "stateMutability": "view",
      "type": "function"
    },
    {
      "inputs": [
        {
          "internalType": "address",
          "name": "",
          "type": "address"
        },
        {
          "internalType": "uint256",
          "name": "",
          "type": "uint256"
        }
      ],
      "name": "myIssues",
      "outputs": [
        {
          "internalType": "uint256",
          "name": "",
          "type": "uint256"
        }
      ],
      "stateMutability": "view",
      "type": "function"
    },
    {
      "inputs": [],
      "name": "paused",
      "outputs": [
        {
          "internalType": "bool",
          "name": "",
          "type": "bool"
        }
      ],
      "stateMutability": "view",
      "type": "function"
    },
    {
      "inputs": [],
      "name": "percentageNeededForApprove",
      "outputs": [
        {
          "internalType": "uint256",
          "name": "",
          "type": "uint256"
        }
      ],
      "stateMutability": "view",
      "type": "function"
    },
    {
      "inputs": [],
      "name": "percentageNeededForDispute",
      "outputs": [
        {
          "internalType": "uint256",
          "name": "",
          "type": "uint256"
        }
      ],
      "stateMutability": "view",
      "type": "function"
    },
    {
      "inputs": [],
      "name": "percentageNeededForMerge",
      "outputs": [
        {
          "internalType": "uint256",
          "name": "",
          "type": "uint256"
        }
      ],
      "stateMutability": "view",
      "type": "function"
    },
    {
      "inputs": [],
      "name": "settlerToken",
      "outputs": [
        {
          "internalType": "contract _IERC20",
          "name": "",
          "type": "address"
        }
      ],
      "stateMutability": "view",
      "type": "function"
    },
    {
      "inputs": [],
      "name": "timeOpenForIssueApprove",
      "outputs": [
        {
          "internalType": "uint256",
          "name": "",
          "type": "uint256"
        }
      ],
      "stateMutability": "view",
      "type": "function"
    },
    {
      "inputs": [],
      "name": "totalStaked",
      "outputs": [
        {
          "internalType": "uint256",
          "name": "",
          "type": "uint256"
        }
      ],
      "stateMutability": "view",
      "type": "function"
    },
    {
      "inputs": [],
      "name": "transactionToken",
      "outputs": [
        {
          "internalType": "contract _IERC20",
          "name": "",
          "type": "address"
        }
      ],
      "stateMutability": "view",
      "type": "function"
    },
    {
      "inputs": [
        {
          "internalType": "address",
          "name": "newGovernor",
          "type": "address"
        }
      ],
      "name": "transferGovernor",
      "outputs": [],
      "stateMutability": "nonpayable",
      "type": "function"
    },
    {
      "inputs": [
        {
          "internalType": "address",
          "name": "",
          "type": "address"
        }
      ],
      "name": "voters",
      "outputs": [
        {
          "internalType": "uint256",
          "name": "votesDelegatedByOthers",
          "type": "uint256"
        },
        {
          "internalType": "uint256",
          "name": "tokensLocked",
          "type": "uint256"
        }
      ],
      "stateMutability": "view",
      "type": "function"
    },
    {
      "inputs": [
        {
          "internalType": "uint256",
          "name": "",
          "type": "uint256"
        }
      ],
      "name": "votersArray",
      "outputs": [
        {
          "internalType": "address",
          "name": "",
          "type": "address"
        }
      ],
      "stateMutability": "view",
      "type": "function"
    },
    {
      "inputs": [],
      "name": "votesStaked",
      "outputs": [
        {
          "internalType": "uint256",
          "name": "",
          "type": "uint256"
        }
      ],
      "stateMutability": "view",
      "type": "function"
    },
    {
      "inputs": [
        {
          "internalType": "uint256",
          "name": "_tokenAmount",
          "type": "uint256"
        }
      ],
      "name": "lock",
      "outputs": [],
      "stateMutability": "nonpayable",
      "type": "function"
    },
    {
      "inputs": [
        {
          "internalType": "uint256",
          "name": "_tokenAmount",
          "type": "uint256"
        },
        {
          "internalType": "address",
          "name": "_from",
          "type": "address"
        }
      ],
      "name": "unlock",
      "outputs": [],
      "stateMutability": "nonpayable",
      "type": "function"
    },
    {
      "inputs": [
        {
          "internalType": "uint256",
          "name": "_issueID",
          "type": "uint256"
        }
      ],
      "name": "approveIssue",
      "outputs": [],
      "stateMutability": "nonpayable",
      "type": "function"
    },
    {
      "inputs": [
        {
          "internalType": "uint256",
          "name": "_issueID",
          "type": "uint256"
        },
        {
          "internalType": "uint256",
          "name": "_mergeID",
          "type": "uint256"
        }
      ],
      "name": "approveMerge",
      "outputs": [],
      "stateMutability": "nonpayable",
      "type": "function"
    },
    {
      "inputs": [
        {
          "internalType": "uint256",
          "name": "_issueID",
          "type": "uint256"
        },
        {
          "internalType": "uint256",
          "name": "_mergeID",
          "type": "uint256"
        }
      ],
      "name": "disputeMerge",
      "outputs": [],
      "stateMutability": "nonpayable",
      "type": "function"
    },
    {
      "inputs": [
        {
          "internalType": "uint256",
          "name": "_issueID",
          "type": "uint256"
        }
      ],
      "name": "isIssueApprovable",
      "outputs": [
        {
          "internalType": "bool",
          "name": "",
          "type": "bool"
        }
      ],
      "stateMutability": "nonpayable",
      "type": "function"
    },
    {
      "inputs": [
        {
          "internalType": "uint256",
          "name": "_issueID",
          "type": "uint256"
        }
      ],
      "name": "isIssueApproved",
      "outputs": [
        {
          "internalType": "bool",
          "name": "",
          "type": "bool"
        }
      ],
      "stateMutability": "nonpayable",
      "type": "function"
    },
    {
      "inputs": [
        {
          "internalType": "uint256",
          "name": "_issueID",
          "type": "uint256"
        },
        {
          "internalType": "uint256",
          "name": "_mergeID",
          "type": "uint256"
        }
      ],
      "name": "isMergeDisputed",
      "outputs": [
        {
          "internalType": "bool",
          "name": "",
          "type": "bool"
        }
      ],
      "stateMutability": "nonpayable",
      "type": "function"
    },
    {
      "inputs": [
        {
          "internalType": "uint256",
          "name": "_issueID",
          "type": "uint256"
        },
        {
          "internalType": "uint256",
          "name": "_mergeID",
          "type": "uint256"
        }
      ],
      "name": "isMergeApproved",
      "outputs": [
        {
          "internalType": "bool",
          "name": "",
          "type": "bool"
        }
      ],
      "stateMutability": "nonpayable",
      "type": "function"
    },
    {
      "inputs": [
        {
          "internalType": "uint256",
          "name": "_issueID",
          "type": "uint256"
        },
        {
          "internalType": "uint256",
          "name": "_mergeID",
          "type": "uint256"
        }
      ],
      "name": "isMergeTheOneWithMoreVotes",
      "outputs": [
        {
          "internalType": "bool",
          "name": "",
          "type": "bool"
        }
      ],
      "stateMutability": "nonpayable",
      "type": "function"
    },
    {
      "inputs": [
        {
          "internalType": "string",
          "name": "_cid",
          "type": "string"
        },
        {
          "internalType": "uint256",
          "name": "_tokenAmount",
          "type": "uint256"
        }
      ],
      "name": "openIssue",
      "outputs": [],
      "stateMutability": "nonpayable",
      "type": "function"
    },
    {
      "inputs": [
        {
          "internalType": "uint256",
          "name": "_issueId",
          "type": "uint256"
        }
      ],
      "name": "redeemIssue",
      "outputs": [],
      "stateMutability": "nonpayable",
      "type": "function"
    },
    {
      "inputs": [
        {
          "internalType": "uint256",
          "name": "_issueId",
          "type": "uint256"
        },
        {
          "internalType": "uint256",
          "name": "_newTokenAmount",
          "type": "uint256"
        }
      ],
      "name": "updateIssue",
      "outputs": [],
      "stateMutability": "nonpayable",
      "type": "function"
    },
    {
      "inputs": [
        {
          "internalType": "uint256",
          "name": "_issueID",
          "type": "uint256"
        },
        {
          "internalType": "address[]",
          "name": "_prAddresses",
          "type": "address[]"
        },
        {
          "internalType": "uint256[]",
          "name": "_prAmounts",
          "type": "uint256[]"
        }
      ],
      "name": "proposeIssueMerge",
      "outputs": [],
      "stateMutability": "nonpayable",
      "type": "function"
    },
    {
      "inputs": [
        {
          "internalType": "uint256",
          "name": "_issueID",
          "type": "uint256"
        },
        {
          "internalType": "uint256",
          "name": "_mergeID",
          "type": "uint256"
        }
      ],
      "name": "closeIssue",
      "outputs": [],
      "stateMutability": "nonpayable",
      "type": "function"
    },
    {
      "inputs": [
        {
          "internalType": "address",
          "name": "_address",
          "type": "address"
        }
      ],
      "name": "getIssuesByAddress",
      "outputs": [
        {
          "internalType": "uint256[]",
          "name": "",
          "type": "uint256[]"
        }
      ],
      "stateMutability": "nonpayable",
      "type": "function"
    },
    {
      "inputs": [
        {
          "internalType": "address",
          "name": "_address",
          "type": "address"
        }
      ],
      "name": "getVotesByAddress",
      "outputs": [
        {
          "internalType": "uint256",
          "name": "",
          "type": "uint256"
        }
      ],
      "stateMutability": "nonpayable",
      "type": "function"
    },
    {
      "inputs": [
        {
          "internalType": "uint256",
          "name": "_issueID",
          "type": "uint256"
        }
      ],
      "name": "getIssueById",
      "outputs": [
        {
          "internalType": "uint256",
          "name": "",
          "type": "uint256"
        },
        {
          "internalType": "string",
          "name": "",
          "type": "string"
        },
        {
          "internalType": "uint256",
          "name": "",
          "type": "uint256"
        },
        {
          "internalType": "uint256",
          "name": "",
          "type": "uint256"
        },
        {
          "internalType": "address",
          "name": "",
          "type": "address"
        },
        {
          "internalType": "uint256",
          "name": "",
          "type": "uint256"
        },
        {
          "internalType": "uint256",
          "name": "",
          "type": "uint256"
        },
        {
          "internalType": "bool",
          "name": "",
          "type": "bool"
        },
        {
          "internalType": "bool",
          "name": "",
          "type": "bool"
        }
      ],
      "stateMutability": "nonpayable",
      "type": "function"
    },
    {
      "inputs": [
        {
          "internalType": "uint256",
          "name": "_issueID",
          "type": "uint256"
        },
        {
          "internalType": "uint256",
          "name": "_mergeId",
          "type": "uint256"
        }
      ],
      "name": "getMergeById",
      "outputs": [
        {
          "internalType": "uint256",
          "name": "",
          "type": "uint256"
        },
        {
          "internalType": "uint256",
          "name": "",
          "type": "uint256"
        },
        {
          "internalType": "uint256",
          "name": "",
          "type": "uint256"
        },
        {
          "internalType": "address[]",
          "name": "",
          "type": "address[]"
        },
        {
          "internalType": "uint256[]",
          "name": "",
          "type": "uint256[]"
        },
        {
          "internalType": "address",
          "name": "",
          "type": "address"
        }
      ],
      "stateMutability": "nonpayable",
      "type": "function"
    },
    {
      "inputs": [
        {
          "internalType": "address",
          "name": "_newToken",
          "type": "address"
        }
      ],
      "name": "changeTransactionToken",
      "outputs": [],
      "stateMutability": "nonpayable",
      "type": "function"
    },
    {
      "inputs": [
        {
          "internalType": "uint256",
          "name": "_mergeCreatorFeeShare",
          "type": "uint256"
        }
      ],
      "name": "changeMergeCreatorFeeShare",
      "outputs": [],
      "stateMutability": "nonpayable",
      "type": "function"
    },
    {
      "inputs": [
        {
          "internalType": "uint256",
          "name": "_percentageNeededForApprove",
          "type": "uint256"
        }
      ],
      "name": "changePercentageNeededForApprove",
      "outputs": [],
      "stateMutability": "nonpayable",
      "type": "function"
    },
    {
      "inputs": [
        {
          "internalType": "uint256",
          "name": "_percentageNeededForDispute",
          "type": "uint256"
        }
      ],
      "name": "changePercentageNeededForDispute",
      "outputs": [],
      "stateMutability": "nonpayable",
      "type": "function"
    },
    {
      "inputs": [
        {
          "internalType": "uint256",
          "name": "_percentageNeededForMerge",
          "type": "uint256"
        }
      ],
      "name": "changePercentageNeededForMerge",
      "outputs": [],
      "stateMutability": "nonpayable",
      "type": "function"
    },
    {
      "inputs": [
        {
          "internalType": "uint256",
          "name": "_timeOpenForIssueApprove",
          "type": "uint256"
        }
      ],
      "name": "changeTimeOpenForIssueApprove",
      "outputs": [],
      "stateMutability": "nonpayable",
      "type": "function"
    },
    {
      "inputs": [
        {
          "internalType": "uint256",
          "name": "_COUNCIL_AMOUNT",
          "type": "uint256"
        }
      ],
      "name": "changeCOUNCIL_AMOUNT",
      "outputs": [],
      "stateMutability": "nonpayable",
      "type": "function"
    }
  ],
  "bytecode": "0x60806040526001600355600060045560006005556001600655600a60075560036008556203f4806009556014600a556000600b5563017d7840600c5534801561004757600080fd5b50604051613ffd380380613ffd8339818101604052606081101561006a57600080fd5b5080516020909101516000805433610100026001600160a81b0319909116179055600180546001600160a01b039384166001600160a01b03199182161790915560028054939092169216919091179055613f34806100c96000396000f3fe608060405234801561001057600080fd5b506004361061027f5760003560e01c8063839408a51161015c578063b8cc9ce6116100ce578063e2b6b3d911610087578063e2b6b3d914610a1c578063eef432a514610a24578063f1d2ec1d14610a4a578063f29b425014610a76578063f784804914610a99578063f87be2d414610aa15761027f565b8063b8cc9ce614610863578063c576315514610889578063c881bbe8146109b7578063c98244d0146109bf578063ce13eae6146109dc578063dd467064146109ff5761027f565b806395d9c4241161012057806395d9c424146107a857806396983822146107c55780639d0d6610146107e2578063a3ec138d146107ff578063a745314f1461083e578063b4f42601146108465761027f565b8063839408a51461069557806393b24154146106b8578063948545c3146106d5578063952608431461077d578063953030c5146107855761027f565b806353da4247116101f55780636931e725116101b95780636931e725146106205780636ba7fa82146106435780636dc6803f1461064b578063729911a81461066857806377f2547814610670578063817b1cd21461068d5761027f565b806353da42471461047e578063560365431461049b5780635c975abb146104b85780635d795bd2146104c05780636106e4eb146105365761027f565b8063202996fb11610247578063202996fb146103f45780632307debc146104115780633d734948146104195780634820c4631461044a5780634ca8b9eb14610452578063504dec051461045a5761027f565b806302ef0db11461028457806304e15de51461029e578063055633091461037d5780631ac63d92146103a25780631e63c0a5146103ce575b600080fd5b61028c610ac4565b60408051918252519081900360200190f35b6102bb600480360360208110156102b457600080fd5b5035610aca565b604080518a8152908101889052606081018790526001600160a01b038616608082015260a0810185905260c0810184905282151560e082015281151561010082015261012060208083018281528b51928401929092528a516101408401918c019080838360005b8381101561033a578181015183820152602001610322565b50505050905090810190601f1680156103675780820380516001836020036101000a031916815260200191505b509a505050505050505050505060405180910390f35b6103a06004803603604081101561039357600080fd5b5080359060200135610bae565b005b61028c600480360360408110156103b857600080fd5b506001600160a01b038135169060200135610f71565b61028c600480360360208110156103e457600080fd5b50356001600160a01b0316610f9f565b6103a06004803603602081101561040a57600080fd5b5035610fdc565b61028c611232565b6104366004803603602081101561042f57600080fd5b5035611238565b604080519115158252519081900360200190f35b61028c61127d565b61028c611283565b610462611289565b604080516001600160a01b039092168252519081900360200190f35b6104626004803603602081101561049457600080fd5b5035611298565b6103a0600480360360208110156104b157600080fd5b50356112bf565b6104366115cd565b6104e6600480360360208110156104d657600080fd5b50356001600160a01b03166115d7565b60408051602080825283518183015283519192839290830191858101910280838360005b8381101561052257818101518382015260200161050a565b505050509050019250505060405180910390f35b6105596004803603604081101561054c57600080fd5b5080359060200135611643565b604051808781526020018681526020018581526020018060200180602001846001600160a01b03166001600160a01b03168152602001838103835286818151815260200191508051906020019060200280838360005b838110156105c75781810151838201526020016105af565b50505050905001838103825285818151815260200191508051906020019060200280838360005b838110156106065781810151838201526020016105ee565b505050509050019850505050505050505060405180910390f35b6103a06004803603604081101561063657600080fd5b5080359060200135611790565b61028c611f25565b6103a06004803603602081101561066157600080fd5b5035611f2b565b61028c611f8b565b6103a06004803603602081101561068657600080fd5b5035611f91565b61028c611ff1565b610436600480360360408110156106ab57600080fd5b5080359060200135611ff7565b6103a0600480360360208110156106ce57600080fd5b503561207f565b6103a0600480360360408110156106eb57600080fd5b81019060208101813564010000000081111561070657600080fd5b82018360208201111561071857600080fd5b8035906020019184600183028401116401000000008311171561073a57600080fd5b91908080601f01602080910402602001604051908101604052809392919081815260200183838082843760009201919091525092955050913592506120df915050565b610462612347565b6103a06004803603604081101561079b57600080fd5b508035906020013561235b565b6103a0600480360360208110156107be57600080fd5b50356126d1565b610436600480360360208110156107db57600080fd5b5035612773565b6103a0600480360360208110156107f857600080fd5b50356127a2565b6108256004803603602081101561081557600080fd5b50356001600160a01b0316612802565b6040805192835260208301919091528051918290030190f35b61046261281b565b6103a06004803603602081101561085c57600080fd5b503561282a565b6103a06004803603602081101561087957600080fd5b50356001600160a01b03166128dc565b6103a06004803603606081101561089f57600080fd5b813591908101906040810160208201356401000000008111156108c157600080fd5b8201836020820111156108d357600080fd5b803590602001918460208302840111640100000000831117156108f557600080fd5b919080806020026020016040519081016040528093929190818152602001838360200280828437600092019190915250929594936020810193503591505064010000000081111561094557600080fd5b82018360208201111561095757600080fd5b8035906020019184602083028401116401000000008311171561097957600080fd5b919080806020026020016040519081016040528093929190818152602001838360200280828437600092019190915250929550612969945050505050565b61028c612e4c565b6102bb600480360360208110156109d557600080fd5b5035612e52565b610436600480360360408110156109f257600080fd5b5080359060200135613014565b6103a060048036036020811015610a1557600080fd5b503561305c565b61028c613282565b6103a060048036036020811015610a3a57600080fd5b50356001600160a01b0316613288565b6103a060048036036040811015610a6057600080fd5b50803590602001356001600160a01b03166132c6565b61043660048036036040811015610a8c57600080fd5b508035906020013561352f565b61028c613577565b6103a060048036036040811015610ab757600080fd5b508035906020013561357d565b600c5481565b600d602090815260009182526040918290208054600180830180548651600293821615610100026000190190911692909204601f810186900486028301860190965285825291949293909290830182828015610b675780601f10610b3c57610100808354040283529160200191610b67565b820191906000526020600020905b815481529060010190602001808311610b4a57829003601f168201915b50505060028401546003850154600486015460068701546008880154600990980154969793969295506001600160a01b039091169350919060ff8082169161010090041689565b610bb66115cd565b15610bfb576040805162461bcd60e51b815260206004820152601060248201526f14185d5cd8589b194e881c185d5cd95960821b604482015290519081900360640190fd5b6000828152600d6020526040902060030154610c53576040805162461bcd60e51b8152602060048201526012602482015271125cdcdd59481a185cc81d1bc8195e1a5cdd60721b604482015290519081900360640190fd5b6000828152600d60205260409020600401546001600160a01b03163314610cc1576040805162461bcd60e51b815260206004820152601b60248201527f48617320746f206265207468652069737375652063726561746f720000000000604482015290519081900360640190fd5b610cca82611238565b15610d1c576040805162461bcd60e51b815260206004820152601960248201527f497373756520697320616c726561647920417070726f76656400000000000000604482015290519081900360640190fd5b6000828152600d6020526040902060030180549082905580821115610e5f576002546001600160a01b03166323b872dd3330610d5e868663ffffffff6138f316565b6040518463ffffffff1660e01b815260040180846001600160a01b03166001600160a01b03168152602001836001600160a01b03166001600160a01b031681526020018281526020019350505050602060405180830381600087803b158015610dc657600080fd5b505af1158015610dda573d6000803e3d6000fd5b505050506040513d6020811015610df057600080fd5b5051610e35576040805162461bcd60e51b815260206004820152600f60248201526e4e6565647320416c6c6f77616e636560881b604482015290519081900360640190fd5b610e57610e48838363ffffffff6138f316565b6005549063ffffffff61395016565b600555610f6c565b6002546001600160a01b031663a9059cbb33610e81848663ffffffff6138f316565b6040518363ffffffff1660e01b815260040180836001600160a01b03166001600160a01b0316815260200182815260200192505050602060405180830381600087803b158015610ed057600080fd5b505af1158015610ee4573d6000803e3d6000fd5b505050506040513d6020811015610efa57600080fd5b5051610f46576040805162461bcd60e51b8152602060048201526016602482015275151c985b9cd9995c881b9bdd081cdd58d95cdcd99d5b60521b604482015290519081900360640190fd5b610f68610f59828463ffffffff6138f316565b6005549063ffffffff6138f316565b6005555b505050565b600e6020528160005260406000208181548110610f8a57fe5b90600052602060002001600091509150505481565b6001600160a01b0381166000908152600f60209081526040808320600181019092528220548154610fd59163ffffffff61395016565b9392505050565b610fe46115cd565b15611029576040805162461bcd60e51b815260206004820152601060248201526f14185d5cd8589b194e881c185d5cd95960821b604482015290519081900360640190fd5b6000818152600d60205260409020600401546001600160a01b03163314611097576040805162461bcd60e51b815260206004820152601b60248201527f48617320746f206265207468652069737375652063726561746f720000000000604482015290519081900360640190fd5b6110a081611238565b156110f2576040805162461bcd60e51b815260206004820152601c60248201527f49737375652068617320746f206e6f7420626520617070726f76656400000000604482015290519081900360640190fd5b6110fb81612773565b156111375760405162461bcd60e51b815260040180806020018281038252602b815260200180613ddc602b913960400191505060405180910390fd5b6000818152600d6020908152604080832060098101805461ff001960ff1990911660011716610100179055600254600390910154825163a9059cbb60e01b8152336004820152602481019190915291516001600160a01b039091169363a9059cbb93604480850194919392918390030190829087803b1580156111b957600080fd5b505af11580156111cd573d6000803e3d6000fd5b505050506040513d60208110156111e357600080fd5b505161122f576040805162461bcd60e51b8152602060048201526016602482015275151c985b9cd9995c881b9bdd081cdd58d95cdcd99d5b60521b604482015290519081900360640190fd5b50565b60095481565b60006112626064611256600754600b546139aa90919063ffffffff16565b9063ffffffff613a0316565b6000838152600d602052604090206006015410159050919050565b600b5481565b600a5481565b6001546001600160a01b031681565b601081815481106112a557fe5b6000918252602090912001546001600160a01b0316905081565b6112c7613a6a565b336000908152600f60209081526040918290208251606081018452815481526002820180548551818602810186019096528086529194929385810193929083018282801561133e57602002820191906000526020600020905b81546001600160a01b03168152600190910190602001808311611320575b50505050508152602001600382015481525050905061135b613a8b565b600d60008481526020019081526020016000206040518061012001604052908160008201548152602001600182018054600181600116156101000203166002900480601f01602080910402602001604051908101604052809291908181526020018280546001816001161561010002031660029004801561141d5780601f106113f25761010080835404028352916020019161141d565b820191906000526020600020905b81548152906001019060200180831161140057829003601f168201915b5050509183525050600282015460208201526003820154604082015260048201546001600160a01b0316606082015260068201546080820152600882015460a082015260099091015460ff808216151560c084015261010090910416151560e09091015280519091506114ce576040805162461bcd60e51b8152602060048201526014602482015273125cdcdd5948191bd95cc81b9bdd08195e1a5cdd60621b604482015290519081900360640190fd5b6114d783612773565b6114e057600080fd5b6000838152600d6020908152604080832033845260050190915290205415611543576040805162461bcd60e51b815260206004820152601160248201527012185cc8185b1c9958591e481d9bdd1959607a1b604482015290519081900360640190fd5b600061154e33610f9f565b6000858152600d6020526040902060060154909150611573908263ffffffff61395016565b6000858152600d60209081526040808320600681019490945533808452600590940190915280822084905551839187917f874c2861194fad2379fb15b08319bf4f3ec0c9f22bfd1ed18435ac4600abb0a09190a450505050565b60005460ff165b90565b6001600160a01b0381166000908152600e602090815260409182902080548351818402810184019094528084526060939283018282801561163757602002820191906000526020600020905b815481526020019060010190808311611623575b50505050509050919050565b60008060006060806000611655613ae4565b6000898152600d602090815260408083208b8452600701825291829020825160c0810184528154815260038201548184015260048201548185015260058201805485518186028101860190965280865291949293606086019392908301828280156116e957602002820191906000526020600020905b81546001600160a01b031681526001909101906020018083116116cb575b505050505081526020016006820180548060200260200160405190810160405280929190818152602001828054801561174157602002820191906000526020600020905b81548152602001906001019080831161172d575b5050509183525050600791909101546001600160a01b031660209182015281519082015160408301516060840151608085015160a090950151939e929d50909b50995091975095509350505050565b6117986115cd565b156117dd576040805162461bcd60e51b815260206004820152601060248201526f14185d5cd8589b194e881c185d5cd95960821b604482015290519081900360640190fd5b6117e5613a8b565b600d60008481526020019081526020016000206040518061012001604052908160008201548152602001600182018054600181600116156101000203166002900480601f0160208091040260200160405190810160405280929190818152602001828054600181600116156101000203166002900480156118a75780601f1061187c576101008083540402835291602001916118a7565b820191906000526020600020905b81548152906001019060200180831161188a57829003601f168201915b5050509183525050600282015460208201526003820154604082015260048201546001600160a01b0316606082015260068201546080820152600882015460a082015260099091015460ff808216151560c084015261010090910416151560e0909101528051909150611956576040805162461bcd60e51b8152602060048201526012602482015271125cdcdd59481a185cc81d1bc8195e1a5cdd60721b604482015290519081900360640190fd5b60e0810151156119a6576040805162461bcd60e51b8152602060048201526016602482015275125cdcdd59481a185cc81d1bc81899481bdc195b995960521b604482015290519081900360640190fd5b818160c00151116119fe576040805162461bcd60e51b815260206004820152601d60248201527f4d657267652050726f706f73616c20646f6573206e6f74206578697374000000604482015290519081900360640190fd5b611a088383613014565b611a59576040805162461bcd60e51b815260206004820152601f60248201527f49737375652068617320746f20686176652070617373656420766f74696e6700604482015290519081900360640190fd5b611a63838361352f565b15611ab5576040805162461bcd60e51b815260206004820152601760248201527f4d6572676520686173206265656e206469737075746564000000000000000000604482015290519081900360640190fd5b611abf8383611ff7565b611afa5760405162461bcd60e51b8152600401808060200182810382526029815260200180613ead6029913960400191505060405180910390fd5b6000838152600d60205260409020600901805460ff19166001179055611b1e613ae4565b6000848152600d60209081526040808320868452600701825291829020825160c081018452815481526003820154818401526004820154818501526005820180548551818602810186019096528086529194929360608601939290830182828015611bb257602002820191906000526020600020905b81546001600160a01b03168152600190910190602001808311611b94575b5050505050815260200160068201805480602002602001604051908101604052809291908181526020018280548015611c0a57602002820191906000526020600020905b815481526020019060010190808311611bf6575b5050509183525050600791909101546001600160a01b0390811660209283015260025460a084015160065460008a8152600d8652604080822060030154815163a9059cbb60e01b81529487166004860152606493029290920460248401529051959650919092169363a9059cbb936044808501949193918390030190829087803b158015611c9757600080fd5b505af1158015611cab573d6000803e3d6000fd5b505050506040513d6020811015611cc157600080fd5b5051611d06576040805162461bcd60e51b815260206004820152600f60248201526e2430b9903a37903a3930b739b332b960891b604482015290519081900360640190fd5b60005b816060015151811015611e7c57600e600083606001518381518110611d2a57fe5b6020908102919091018101516001600160a01b039081168352828201939093526040909101600090812080546001810182559082529190200186905560025460608401518051919092169163a9059cbb9184908110611d8557fe5b6020026020010151606460065460640386608001518681518110611da557fe5b60200260200101510281611db557fe5b046040518363ffffffff1660e01b815260040180836001600160a01b03166001600160a01b0316815260200182815260200192505050602060405180830381600087803b158015611e0557600080fd5b505af1158015611e19573d6000803e3d6000fd5b505050506040513d6020811015611e2f57600080fd5b5051611e74576040805162461bcd60e51b815260206004820152600f60248201526e2430b9903a37903a3930b739b332b960891b604482015290519081900360640190fd5b600101611d09565b50600454611e9190600163ffffffff61395016565b6004556060820151600554611eab9163ffffffff6138f316565b6005556060810151604051815181906020808501910280838360005b83811015611edf578181015183820152602001611ec7565b50505050905001915050604051809103902083857f2764a4973e9de159354a809146f484fb4f13f7f8d108a4cbce66127098b8769660405160405180910390a450505050565b60045481565b60005461010090046001600160a01b03163314611f4757600080fd5b60148110611f865760405162461bcd60e51b8152600401808060200182810382526024815260200180613c7b6024913960400191505060405180910390fd5b600655565b60035481565b60005461010090046001600160a01b03163314611fad57600080fd5b60508110611fec5760405162461bcd60e51b8152600401808060200182810382526029815260200180613ed66029913960400191505060405180910390fd5b600755565b60055481565b6000828152600d60209081526040808320848452600701909152812060030154815b6000858152600d602052604090206008015460ff82161015612072576000858152600d6020908152604080832060ff8516845260070190915290206003015482101561206a57600092505050612079565b600101612019565b5060019150505b92915050565b60005461010090046001600160a01b0316331461209b57600080fd5b605081106120da5760405162461bcd60e51b8152600401808060200182810382526033815260200180613d806033913960400191505060405180910390fd5b600a55565b6120e76115cd565b1561212c576040805162461bcd60e51b815260206004820152601060248201526f14185d5cd8589b194e881c185d5cd95960821b604482015290519081900360640190fd5b612134613a8b565b60035480825260208083018581526060840185905233608085015242604080860191909152600060e08601819052938452600d83529092208351815591518051849392612188926001850192910190613b23565b5060408281015160028381019190915560608401516003808501919091556080850151600480860180546001600160a01b0319166001600160a01b0393841617905560a0870151600687015560c0870151600887015560e0870151600990960180546101009889015160ff199091169715159790971761ff00191696151590970295909517909555336000818152600e60209081528582209354845460018101865594835281832090940193909355925484516323b872dd60e01b81529586019190915230602486015260448501889052925192909416936323b872dd936064808201949293918390030190829087803b15801561228557600080fd5b505af1158015612299573d6000803e3d6000fd5b505050506040513d60208110156122af57600080fd5b50516122f4576040805162461bcd60e51b815260206004820152600f60248201526e4e6565647320416c6c6f77616e636560881b604482015290519081900360640190fd5b600554612307908363ffffffff61395016565b6005556003805460010190819055604051839133917f6aecdf6df15bd1371e1740df5f88ad1066c22c0506751320acc231234f2c26c590600090a4505050565b60005461010090046001600160a01b031681565b612363613a6a565b336000908152600f6020908152604091829020825160608101845281548152600282018054855181860281018601909652808652919492938581019392908301828280156123da57602002820191906000526020600020905b81546001600160a01b031681526001909101906020018083116123bc575b5050505050815260200160038201548152505090506123f7613a8b565b600d60008581526020019081526020016000206040518061012001604052908160008201548152602001600182018054600181600116156101000203166002900480601f0160208091040260200160405190810160405280929190818152602001828054600181600116156101000203166002900480156124b95780601f1061248e576101008083540402835291602001916124b9565b820191906000526020600020905b81548152906001019060200180831161249c57829003601f168201915b50505091835250506002820154602080830191909152600383015460408084019190915260048401546001600160a01b0316606084015260068401546080840152600884015460a084015260099093015460ff808216151560c085015261010090910416151560e0909201919091526000878152600d82528281208782526007019091522081519192509061258c576040805162461bcd60e51b8152602060048201526014602482015273125cdcdd5948191bd95cc81b9bdd08195e1a5cdd60621b604482015290519081900360640190fd5b838260c00151116125e4576040805162461bcd60e51b815260206004820152601d60248201527f4d657267652050726f706f73616c20646f6573206e6f74206578697374000000604482015290519081900360640190fd5b3360009081526001820160205260409020541561263c576040805162461bcd60e51b815260206004820152601160248201527012185cc8185b1c9958591e481d9bdd1959607a1b604482015290519081900360640190fd5b600061264733610f9f565b600383015490915061265f908263ffffffff61395016565b6000878152600d60209081526040808320898452600701825280832060038101949094553380845260019094018252918290208490558151848152915188928a927ffd3b653bc5d01de8ac8bc3857b862274c9914a8820abb138052a747aab3d5dde92918290030190a4505050505050565b60005461010090046001600160a01b031633146126ed57600080fd5b621a5e00811061272e5760405162461bcd60e51b815260040180806020018281038252603c815260200180613e28603c913960400191505060405180910390fd5b603c81101561276e5760405162461bcd60e51b8152600401808060200182810382526033815260200180613ce66033913960400191505060405180910390fd5b600955565b6009546000828152600d60205260408120600201549091429161279b9163ffffffff61395016565b1092915050565b60005461010090046001600160a01b031633146127be57600080fd5b600f81106127fd5760405162461bcd60e51b8152600401808060200182810382526029815260200180613db36029913960400191505060405180910390fd5b600855565b600f602052600090815260409020805460039091015482565b6002546001600160a01b031681565b60005461010090046001600160a01b0316331461284657600080fd5b69152d02c7e14af6800000811161288e5760405162461bcd60e51b8152600401808060200182810382526026815260200180613c9f6026913960400191505060405180910390fd5b6a52b7d2dcc80cd2e400000081106128d75760405162461bcd60e51b8152600401808060200182810382526024815260200180613e646024913960400191505060405180910390fd5b600c55565b60005461010090046001600160a01b031633146128f857600080fd5b6001600160a01b03811661290b57600080fd5b6040516001600160a01b0382169081907f6fadb1c244276388aee22be93b919985a18748c021e5d48553957a48101a256090600090a3600080546001600160a01b0390921661010002610100600160a81b0319909216919091179055565b6129716115cd565b156129b6576040805162461bcd60e51b815260206004820152601060248201526f14185d5cd8589b194e881c185d5cd95960821b604482015290519081900360640190fd5b6129be613a8b565b600d60008581526020019081526020016000206040518061012001604052908160008201548152602001600182018054600181600116156101000203166002900480601f016020809104026020016040519081016040528092919081815260200182805460018160011615610100020316600290048015612a805780601f10612a5557610100808354040283529160200191612a80565b820191906000526020600020905b815481529060010190602001808311612a6357829003601f168201915b5050509183525050600282015460208201526003820154604082015260048201546001600160a01b0316606082015260068201546080820152600882015460a082015260099091015460ff808216151560c084015261010090910416151560e0909101528051909150612b2f576040805162461bcd60e51b8152602060048201526012602482015271125cdcdd59481a185cc81d1bc8195e1a5cdd60721b604482015290519081900360640190fd5b60e081015115612b7f576040805162461bcd60e51b8152602060048201526016602482015275125cdcdd59481a185cc81d1bc81899481bdc195b995960521b604482015290519081900360640190fd5b8251825114612bbf5760405162461bcd60e51b8152600401808060200182810382526025815260200180613e886025913960400191505060405180910390fd5b600c54600254604080516370a0823160e01b81523360048201529051670de0b6b3a7640000909302926001600160a01b03909216916370a0823191602480820192602092909190829003018186803b158015612c1a57600080fd5b505afa158015612c2e573d6000803e3d6000fd5b505050506040513d6020811015612c4457600080fd5b505111612c825760405162461bcd60e51b8152600401808060200182810382526043815260200180613d3d6043913960600191505060405180910390fd5b612c8a613ae4565b60c0820151815260808101839052606081018490523360a08201526006546000868152600d60205260408120600301546064920291909104905b8551811015612d0d57612d036064600654606403878481518110612ce457fe5b60200260200101510281612cf457fe5b8491900463ffffffff61395016565b9150600101612cc4565b506000868152600d60205260409020600301548114612d67576040805162461bcd60e51b81526020600482015260116024820152700a8dee8c2d8e640c8dedce840dac2e8c6d607b1b604482015290519081900360640190fd5b6000868152600d6020908152604080832060c087015184526007018252918290208451815581850151600382015591840151600483015560608401518051859392612db9926005850192910190613ba1565b5060808201518051612dd5916006840191602090910190613c02565b5060a09190910151600790910180546001600160a01b0319166001600160a01b039092169190911790556000868152600d60205260408082206008018054600101905583519051339289917f3a9041e1cf9ad999ea58090279700f3cb926fbf3c58ecea9897a40540c02581c9190a4505050505050565b60065481565b600060606000806000806000806000612e69613a8b565b600d60008c81526020019081526020016000206040518061012001604052908160008201548152602001600182018054600181600116156101000203166002900480601f016020809104026020016040519081016040528092919081815260200182805460018160011615610100020316600290048015612f2b5780601f10612f0057610100808354040283529160200191612f2b565b820191906000526020600020905b815481529060010190602001808311612f0e57829003601f168201915b5050505050815260200160028201548152602001600382015481526020016004820160009054906101000a90046001600160a01b03166001600160a01b03166001600160a01b0316815260200160068201548152602001600882015481526020016009820160009054906101000a900460ff161515151581526020016009820160019054906101000a900460ff1615151515815250509050806000015181602001518260600151836040015184608001518560a001518660c001518760e00151886101000151879750995099509950995099509950995099509950509193959799909294969850565b60006130326064611256600a54600b546139aa90919063ffffffff16565b6000848152600d602090815260408083208684526007019091529020600301541015905092915050565b6000811161309b5760405162461bcd60e51b8152600401808060200182810382526024815260200180613d196024913960400191505060405180910390fd5b600154604080516323b872dd60e01b81523360048201523060248201526044810184905290516001600160a01b03909216916323b872dd916064808201926020929091908290030181600087803b1580156130f557600080fd5b505af1158015613109573d6000803e3d6000fd5b505050506040513d602081101561311f57600080fd5b5051613164576040805162461bcd60e51b815260206004820152600f60248201526e4e6565647320416c6c6f77616e636560881b604482015290519081900360640190fd5b336000908152600f6020526040902060030154156131f457336000908152600f602090815260408083206001019091529020546131a7908263ffffffff61395016565b336000908152600f60208181526040808420600181018352932093909355909152600301546131dc908263ffffffff61395016565b336000908152600f602052604090206003015561122f565b336000818152600f60209081526040918290206003810185905582519182019092529182529061322a9060028301906001613ba1565b50336000818152600192830160205260408120939093556010805492830181559092527f1b6847dc741a1b0cd08d278845f9d819d87b734759afb55fe2de5cb82a9ae6720180546001600160a01b0319169091179055565b60075481565b60005461010090046001600160a01b031633146132a457600080fd5b600280546001600160a01b0319166001600160a01b0392909216919091179055565b336000908152600f60205260409020600381015483111561332e576040805162461bcd60e51b815260206004820152601c60248201527f48617320746f206861766520746f6b656e7320746f20756e6c6f636b00000000604482015290519081900360640190fd5b6001600160a01b03821660009081526001820160205260409020548311156133875760405162461bcd60e51b8152600401808060200182810382526021815260200180613cc56021913960400191505060405180910390fd5b600381015461339c908463ffffffff6138f316565b336000908152600f60209081526040808320600301939093556001600160a01b038516825260018401905220546133d9908463ffffffff6138f316565b336000818152600f602090815260408083206001600160a01b0388168085526001909101909252909120929092551461344f576001600160a01b0382166000908152600f6020526040902054613435908463ffffffff6138f316565b6001600160a01b0383166000908152600f60205260409020555b6001546040805163a9059cbb60e01b81523360048201526024810186905290516001600160a01b039092169163a9059cbb916044808201926020929091908290030181600087803b1580156134a357600080fd5b505af11580156134b7573d6000803e3d6000fd5b505050506040513d60208110156134cd57600080fd5b5051613516576040805162461bcd60e51b81526020600482015260136024820152725472616e73666572206469646e7420776f726b60681b604482015290519081900360640190fd5b600b54613529908463ffffffff6138f316565b50505050565b600061354d6064611256600854600b546139aa90919063ffffffff16565b6000848152600d602090815260408083208684526007019091529020600401541015905092915050565b60085481565b613585613a6a565b336000908152600f6020908152604091829020825160608101845281548152600282018054855181860281018601909652808652919492938581019392908301828280156135fc57602002820191906000526020600020905b81546001600160a01b031681526001909101906020018083116135de575b505050505081526020016003820154815250509050613619613a8b565b600d60008581526020019081526020016000206040518061012001604052908160008201548152602001600182018054600181600116156101000203166002900480601f0160208091040260200160405190810160405280929190818152602001828054600181600116156101000203166002900480156136db5780601f106136b0576101008083540402835291602001916136db565b820191906000526020600020905b8154815290600101906020018083116136be57829003601f168201915b50505091835250506002820154602080830191909152600383015460408084019190915260048401546001600160a01b0316606084015260068401546080840152600884015460a084015260099093015460ff808216151560c085015261010090910416151560e0909201919091526000878152600d8252828120878252600701909152208151919250906137ae576040805162461bcd60e51b8152602060048201526014602482015273125cdcdd5948191bd95cc81b9bdd08195e1a5cdd60621b604482015290519081900360640190fd5b838260c0015111613806576040805162461bcd60e51b815260206004820152601d60248201527f4d657267652050726f706f73616c20646f6573206e6f74206578697374000000604482015290519081900360640190fd5b3360009081526002820160205260409020541561385e576040805162461bcd60e51b815260206004820152601160248201527012185cc8185b1c9958591e481d9bdd1959607a1b604482015290519081900360640190fd5b600061386933610f9f565b6004830154909150613881908263ffffffff61395016565b6000878152600d60209081526040808320898452600701825280832060048101949094553380845260029094018252918290208490558151848152915188928a927fca6ae470609db3acf375ecc9883dfc54b3f4693d078dd882713eee7ba5d9b69392918290030190a4505050505050565b60008282111561394a576040805162461bcd60e51b815260206004820152601e60248201527f536166654d6174683a207375627472616374696f6e206f766572666c6f770000604482015290519081900360640190fd5b50900390565b600082820183811015610fd5576040805162461bcd60e51b815260206004820152601b60248201527f536166654d6174683a206164646974696f6e206f766572666c6f770000000000604482015290519081900360640190fd5b6000826139b957506000612079565b828202828482816139c657fe5b0414610fd55760405162461bcd60e51b8152600401808060200182810382526021815260200180613e076021913960400191505060405180910390fd5b6000808211613a59576040805162461bcd60e51b815260206004820152601a60248201527f536166654d6174683a206469766973696f6e206279207a65726f000000000000604482015290519081900360640190fd5b818381613a6257fe5b049392505050565b60405180606001604052806000815260200160608152602001600081525090565b6040518061012001604052806000815260200160608152602001600081526020016000815260200160006001600160a01b0316815260200160008152602001600081526020016000151581526020016000151581525090565b6040518060c00160405280600081526020016000815260200160008152602001606081526020016060815260200160006001600160a01b031681525090565b828054600181600116156101000203166002900490600052602060002090601f016020900481019282601f10613b6457805160ff1916838001178555613b91565b82800160010185558215613b91579182015b82811115613b91578251825591602001919060010190613b76565b50613b9d929150613c3c565b5090565b828054828255906000526020600020908101928215613bf6579160200282015b82811115613bf657825182546001600160a01b0319166001600160a01b03909116178255602090920191600190910190613bc1565b50613b9d929150613c56565b828054828255906000526020600020908101928215613b915791602002820182811115613b91578251825591602001919060010190613b76565b6115d491905b80821115613b9d5760008155600101613c42565b6115d491905b80821115613b9d5780546001600160a01b0319168155600101613c5c56fe4d657267652053686172652063616ec2b47420626520686967686572207468616e203230436f756e63696c20416d6f756e742068617320746f20686967686572207468616e203130306b46726f6d2068617320746f206861766520746f6b656e7320746f20756e6c6f636b54696d65206f70656e20666f722069737375652068617320746f20626520686967686572207468616e2031206d696e75746573546f6b656e20416d6f756e742068617320746f20626520686967686572207468616e2030546f2070726f706f7365206d6572676573207468652070726f706f7365722068617320746f206265206120436f756e63696c2028434f554e43494c5f414d4f554e5429417070726f766520666f72204d657267652025204e65656465642063616ec2b47420626520686967686572207468616e203830446973707574652025204e65656465642063616ec2b47420626520686967686572207468616e20313554696d6520666f7220617070726f76696e672068617320746f20626520616c726561647920706173736564536166654d6174683a206d756c7469706c69636174696f6e206f766572666c6f7754696d65206f70656e20666f722069737375652068617320746f20626520686967686572207468616e206c6f776572207468616e2032302064617973436f756e63696c20416d6f756e742068617320746f206c6f776572207468616e2035304d416d6f756e74732068617320746f20657175616c20616464726573736573206c656e67746854686572652069732061206d657267652070726f706f73616c2077697468206d6f726520766f746573417070726f76652025204e65656465642063616ec2b47420626520686967686572207468616e203830a2646970667358221220598836b8b048b24ccdf820b9443f8e4c4e7f2a7c6eb2e8448b72d4006388224964736f6c63430006020033",
  "source": "pragma solidity >=0.6.0;\n\nimport \"@openzeppelin/contracts/token/ERC20/ERC20.sol\";\nimport \"@openzeppelin/contracts/utils/Pausable.sol\";\nimport \"../utils/Governed.sol\";\n\n\n/**\n * @dev Interface of the ERC20 standard + mint & burn\n */\ninterface _IERC20 is IERC20  {\n\n    /**\n    * @dev Mint Function\n    */\n    function mint(address account, uint256 amount) external;\n\n    /**\n    * @dev Burn Function\n    */\n    function burn(address account, uint256 amount) external;\n\n}\n\n\n/**\n * @title Development Network Contract Autonomous Use\n */\ncontract Network is Pausable, Governed{\n    using SafeMath for uint256;\n\n    _IERC20 public settlerToken;\n    _IERC20 public transactionToken;\n\n    uint256 constant private year = 365 days;\n    uint256 public incrementIssueID = 1;\n    uint256 public closedIdsCount = 0;\n    uint256 public totalStaked = 0;\n    uint256 public mergeCreatorFeeShare = 1; // (%) - Share to go to the merge proposal creator\n    uint256 public percentageNeededForApprove = 10; // (%) - Amount needed to approve a PR and distribute the rewards\n    uint256 public percentageNeededForDispute = 3; // (%) - Amount needed to approve a PR and distribute the rewards\n    uint256 public timeOpenForIssueApprove = 3 days;\n    uint256 public percentageNeededForMerge = 20; // (%) - Amount needed to approve a PR and distribute the rewards\n    uint256 public votesStaked = 0;\n\n    uint256 public COUNCIL_AMOUNT = 25000000; // 25M\n\n    mapping(uint256 => Issue) public issues; /* Distribution object */\n    mapping(address => uint256[]) public myIssues; /* Address Based Subcription */\n\n    mapping(address => Voter) public voters; \n    address[] public votersArray; \n\n\n    struct MergeProposal {\n        uint256 _id;\n        mapping(address => uint256) votesForMergeByAddress; // Address -> Votes for that merge\n        mapping(address => uint256) disputesForMergeByAddress; // Address -> Votes for that merge\n        uint256 votes; // Amount of votes set\n        uint256 disputes; // Amount of votes set\n        address[] prAddresses;\n        uint256[] prAmounts;\n        address proposalAddress;\n    }\n\n    struct Issue {\n        uint256 _id;\n        string cid;\n        uint256 creationDate;\n        uint256 tokensStaked;\n        address issueGenerator;\n        mapping(address => uint256) votesForApproveByAddress;\n        uint256 votesForApprove;\n        mapping(uint256 => MergeProposal) mergeProposals; // Id -> Merge Proposal\n        uint256 mergeIDIncrement;\n        bool finalized;\n        bool canceled;\n    }\n\n    struct Voter {\n        uint256 votesDelegatedByOthers;\n        mapping(address => uint256) votesDelegated;\n        address[] delegatedVotesAddresses;\n        uint256 tokensLocked;\n    }\n\n    event OpenIssue(uint256 indexed id, address indexed opener, uint256 indexed amount);\n    event ApproveIssue(uint256 indexed id, uint256 indexed votes, address indexed approver);\n    event MergeProposalCreated(uint256 indexed id, uint256 indexed mergeID, address indexed creator);\n    event DisputeMerge(uint256 indexed id, uint256 indexed mergeID, uint256 votes, address indexed disputer);\n    event ApproveMerge(uint256 indexed id, uint256 indexed mergeID, uint256 votes, address indexed approver);\n    event CloseIssue(uint256 indexed id, uint256 indexed mergeID, address[] indexed addresses);\n\n    constructor(address _settlerToken, address _transactionToken, address _governor) public { \n        settlerToken = _IERC20(_settlerToken);\n        transactionToken = _IERC20(_transactionToken);\n        _governor = _governor;\n    }\n\n    function lock(uint256 _tokenAmount) public {\n        require(_tokenAmount > 0, \"Token Amount has to be higher than 0\");\n        require(settlerToken.transferFrom(msg.sender, address(this), _tokenAmount), \"Needs Allowance\");\n\n        if(voters[msg.sender].tokensLocked != 0){\n            // Exists\n            voters[msg.sender].votesDelegated[msg.sender] = voters[msg.sender].votesDelegated[msg.sender].add(_tokenAmount);\n            voters[msg.sender].tokensLocked = voters[msg.sender].tokensLocked.add(_tokenAmount);\n        }else{\n            // Does not exist\n            Voter storage voter = voters[msg.sender];\n            voter.tokensLocked = _tokenAmount;\n            voter.delegatedVotesAddresses = [msg.sender];\n            voter.votesDelegated[msg.sender] = _tokenAmount;\n            votersArray.push(msg.sender);\n        }\n    }\n\n    function unlock(uint256 _tokenAmount, address _from) public {\n        Voter storage voter = voters[msg.sender];\n        require(voter.tokensLocked >= _tokenAmount, \"Has to have tokens to unlock\");\n        require(voter.votesDelegated[_from] >= _tokenAmount, \"From has to have tokens to unlock\");\n\n        voters[msg.sender].tokensLocked = voter.tokensLocked.sub(_tokenAmount);\n        voters[msg.sender].votesDelegated[_from] = voter.votesDelegated[_from].sub(_tokenAmount);\n        if(msg.sender != _from){\n            voters[_from].votesDelegatedByOthers = voters[_from].votesDelegatedByOthers.sub(_tokenAmount);\n        }\n\n        require(settlerToken.transfer(msg.sender, _tokenAmount), \"Transfer didnt work\");\n        votesStaked.sub(_tokenAmount);\n    }\n\n    function delegateOracles(uint256 _tokenAmount, address _delegatedTo) internal {\n        Voter storage voter = voters[msg.sender];\n\n        require(_delegatedTo != address(0), \"Cannot transfer to the zero address\");\n        require(_delegatedTo != msg.sender, \"Cannot transfer to itself\");\n\n        require(voter.tokensLocked >= _tokenAmount, \"Has to have tokens to unlock\");\n        require(voter.votesDelegated[msg.sender] >= _tokenAmount, \"From has to have tokens to unlock\");\n\n        voters[msg.sender].votesDelegated[msg.sender] = voter.votesDelegated[msg.sender].sub(_tokenAmount);\n        voters[msg.sender].votesDelegated[_delegatedTo] = voter.votesDelegated[_delegatedTo].add(_tokenAmount);\n\n        require(voters[_delegatedTo].tokensLocked != uint256(0), \"Delegated to has to have voted already\");\n        voters[_delegatedTo].votesDelegatedByOthers = voters[_delegatedTo].votesDelegatedByOthers.add(_tokenAmount);\n    }\n\n    function approveIssue(uint256 _issueID) public {\n        Voter memory voter = voters[msg.sender];\n        Issue memory issue = issues[_issueID];\n        require(issue._id != 0, \"Issue does not exist\");\n        require(isIssueApprovable(_issueID));\n        require(issues[_issueID].votesForApproveByAddress[msg.sender] == 0, \"Has already voted\");\n\n        uint256 votesToAdd = getVotesByAddress(msg.sender);\n        issues[_issueID].votesForApprove = issues[_issueID].votesForApprove.add(votesToAdd);\n        issues[_issueID].votesForApproveByAddress[msg.sender] = votesToAdd;\n\n        emit ApproveIssue(_issueID, votesToAdd, msg.sender);\n    }\n\n    function approveMerge(uint256 _issueID, uint256 _mergeID) public {\n        Voter memory voter = voters[msg.sender];\n        Issue memory issue = issues[_issueID];\n        MergeProposal storage merge = issues[_issueID].mergeProposals[_mergeID];\n        require(issue._id != 0, \"Issue does not exist\");\n        require(issue.mergeIDIncrement >  _mergeID, \"Merge Proposal does not exist\");\n        require(merge.votesForMergeByAddress[msg.sender] == 0, \"Has already voted\");\n\n        uint256 votesToAdd = getVotesByAddress(msg.sender);\n        \n        issues[_issueID].mergeProposals[_mergeID].votes = merge.votes.add(votesToAdd);\n        issues[_issueID].mergeProposals[_mergeID].votesForMergeByAddress[msg.sender] = votesToAdd;\n        \n        emit ApproveMerge(_issueID, _mergeID, votesToAdd, msg.sender);\n    }\n\n    function disputeMerge(uint256 _issueID, uint256 _mergeID) public {\n        Voter memory voter = voters[msg.sender];\n        Issue memory issue = issues[_issueID];\n        MergeProposal storage merge = issues[_issueID].mergeProposals[_mergeID];\n        require(issue._id != 0, \"Issue does not exist\");\n        require(issue.mergeIDIncrement >  _mergeID, \"Merge Proposal does not exist\");\n        require(merge.disputesForMergeByAddress[msg.sender] == 0, \"Has already voted\");\n\n        uint256 votesToAdd = getVotesByAddress(msg.sender);\n        \n        issues[_issueID].mergeProposals[_mergeID].disputes = merge.disputes.add(votesToAdd);\n        issues[_issueID].mergeProposals[_mergeID].disputesForMergeByAddress[msg.sender] = votesToAdd;\n        \n        emit DisputeMerge(_issueID, _mergeID, votesToAdd, msg.sender);\n    }\n\n    function isIssueApprovable(uint256 _issueID) public returns (bool){\n        // Only if in the open window\n        return (issues[_issueID].creationDate.add(timeOpenForIssueApprove) < block.timestamp);\n    }\n\n    function isIssueApproved(uint256 _issueID) public returns (bool) {\n        return (issues[_issueID].votesForApprove >= votesStaked.mul(percentageNeededForApprove).div(100));\n    }\n\n    function isMergeDisputed(uint256 _issueID, uint256 _mergeID) public returns (bool) {\n        return (issues[_issueID].mergeProposals[_mergeID].disputes >= votesStaked.mul(percentageNeededForDispute).div(100));\n    }\n\n    function isMergeApproved(uint256 _issueID, uint256 _mergeID) public returns (bool) {\n        return (issues[_issueID].mergeProposals[_mergeID].votes >= votesStaked.mul(percentageNeededForMerge).div(100));\n    }\n    \n    function isMergeTheOneWithMoreVotes(uint256 _issueID, uint256 _mergeID) public returns (bool) {\n        uint256 thisMergeVotes = issues[_issueID].mergeProposals[_mergeID].votes;\n        for(uint8 i = 0; i < issues[_issueID].mergeIDIncrement; i++){\n            if(issues[_issueID].mergeProposals[i].votes > thisMergeVotes){\n                return false;\n            }\n        }\n        return true;\n    }\n\n    /**\n     * @dev open an Issue with transaction Tokens owned\n     * 1st step\n     */\n    function openIssue(string memory _cid, uint256 _tokenAmount) public whenNotPaused {\n        // Open Issue\n        Issue memory issue;\n        issue._id = incrementIssueID;\n        issue.cid = _cid;\n        issue.tokensStaked = _tokenAmount;\n        issue.issueGenerator = msg.sender;\n        issue.creationDate = block.timestamp;\n        issue.finalized = false;\n        issues[incrementIssueID] = issue;\n        myIssues[msg.sender].push(incrementIssueID);\n        // Transfer Transaction Token\n        require(transactionToken.transferFrom(msg.sender, address(this), _tokenAmount), \"Needs Allowance\");\n        totalStaked = totalStaked.add(_tokenAmount);\n        incrementIssueID = incrementIssueID + 1;\n        emit OpenIssue(incrementIssueID, msg.sender, _tokenAmount);\n    }\n\n    function redeemIssue(uint256 _issueId) public whenNotPaused {\n        require(issues[_issueId].issueGenerator == msg.sender, \"Has to be the issue creator\");\n        require(!isIssueApproved(_issueId), \"Issue has to not be approved\");\n        require(!isIssueApprovable(_issueId), \"Time for approving has to be already passed\");\n        issues[_issueId].finalized = true;\n        issues[_issueId].canceled = true;\n        require(transactionToken.transfer(msg.sender, issues[_issueId].tokensStaked), \"Transfer not sucessful\");\n    }\n\n    /**\n     * @dev update an Issue with transaction tokens owned\n     * 2nd step  (optional)\n     */\n    function updateIssue(uint256 _issueId, uint256 _newTokenAmount) public whenNotPaused {\n        require(issues[_issueId].tokensStaked != 0, \"Issue has to exist\");\n        require(issues[_issueId].issueGenerator == msg.sender, \"Has to be the issue creator\");\n        require(!isIssueApproved(_issueId), \"Issue is already Approved\");\n\n        uint256 previousAmount = issues[_issueId].tokensStaked;\n        // Update Issue\n        issues[_issueId].tokensStaked = _newTokenAmount;\n        // Lock Transaction Tokens\n        if(_newTokenAmount > previousAmount){\n            require(transactionToken.transferFrom(msg.sender, address(this), _newTokenAmount.sub(previousAmount)), \"Needs Allowance\");\n            totalStaked = totalStaked.add(_newTokenAmount.sub(previousAmount));\n        }else{\n            require(transactionToken.transfer(msg.sender, previousAmount.sub(_newTokenAmount)), \"Transfer not sucessful\");\n            totalStaked = totalStaked.sub(previousAmount.sub(_newTokenAmount));\n        }\n    }\n\n   /**\n     * @dev Owner finalizes the issue and distributes the transaction tokens or rejects the PR\n     * @param _issueID issue id (mapping with github)\n     * @param _prAddresses PR Address\n     * @param _prAmounts PR Amounts\n     */\n    function proposeIssueMerge(uint256 _issueID, address[] memory _prAddresses, uint256[] memory _prAmounts) public whenNotPaused {\n        \n        Issue memory issue = issues[_issueID];\n        require(issue._id != 0 , \"Issue has to exist\");\n        require(issue.finalized == false, \"Issue has to be opened\");\n        require(_prAmounts.length == _prAddresses.length, \"Amounts has to equal addresses length\");\n        require(transactionToken.balanceOf(msg.sender) > COUNCIL_AMOUNT*10**18, \"To propose merges the proposer has to be a Council (COUNCIL_AMOUNT)\");\n\n        MergeProposal memory mergeProposal;\n        mergeProposal._id = issue.mergeIDIncrement;\n        mergeProposal.prAmounts = _prAmounts;\n        mergeProposal.prAddresses = _prAddresses;\n        mergeProposal.proposalAddress = msg.sender;\n\n        uint256 total = ((issues[_issueID].tokensStaked * (mergeCreatorFeeShare)) / 100); // Fee + Merge Creator Fee + 0\n\n        for(uint i = 0; i < _prAddresses.length; i++){\n            total = total.add((_prAmounts[i] * (100-mergeCreatorFeeShare)) / 100);\n        }\n\n        require(total == issues[_issueID].tokensStaked, \"Totals dont match\");\n\n        issues[_issueID].mergeProposals[issue.mergeIDIncrement] = mergeProposal;\n        issues[_issueID].mergeIDIncrement = issues[_issueID].mergeIDIncrement + 1;\n        emit MergeProposalCreated(_issueID, mergeProposal._id, msg.sender);\n    }\n\n\n\n    /**\n     * @dev Owner finalizes the issue and distributes the transaction tokens or rejects the PR\n     * @param _issueID issue id (mapping with github)\n     * @param _mergeID merge id \n     */\n    function closeIssue(uint256 _issueID, uint256 _mergeID) public whenNotPaused {\n        Issue memory issue = issues[_issueID];\n        require(issue._id != 0 , \"Issue has to exist\");\n        require(issue.finalized == false, \"Issue has to be opened\");\n        require(issue.mergeIDIncrement >  _mergeID, \"Merge Proposal does not exist\");\n        require(isMergeApproved(_issueID, _mergeID), \"Issue has to have passed voting\");\n        require(!isMergeDisputed(_issueID, _mergeID), \"Merge has been disputed\");\n        require(isMergeTheOneWithMoreVotes(_issueID, _mergeID), \"There is a merge proposal with more votes\");\n\n        // Closes the issue\n        issues[_issueID].finalized = true;\n        MergeProposal memory merge = issues[_issueID].mergeProposals[_mergeID];\n\n        // Merge Creator Transfer\n        require(transactionToken.transfer(merge.proposalAddress, (issues[_issueID].tokensStaked * mergeCreatorFeeShare) / 100), \"Has to transfer\");\n        \n        // Generate Transaction Tokens\n        for(uint i = 0; i < merge.prAddresses.length; i++){\n            myIssues[merge.prAddresses[i]].push(_issueID);\n            require(transactionToken.transfer(merge.prAddresses[i], (merge.prAmounts[i] * (100-mergeCreatorFeeShare)) / 100), \"Has to transfer\");\n        }\n\n        closedIdsCount = closedIdsCount.add(1);\n        totalStaked = totalStaked.sub(issue.tokensStaked);\n        emit CloseIssue(_issueID, _mergeID, merge.prAddresses);\n    }\n\n    function getIssuesByAddress(address _address) public returns (uint256[] memory){\n        return myIssues[_address];\n    }\n\n    function getVotesByAddress(address _address) public returns (uint256){\n        Voter storage voter = voters[_address];\n        return voter.votesDelegatedByOthers.add(voter.votesDelegated[_address]);\n    }\n    \n    function getIssueById(uint256 _issueID) public returns (uint256, string memory, uint256, uint256, address, uint256, uint256, bool, bool){\n        Issue memory issue = issues[_issueID];\n        return (issue._id, issue.cid, issue.tokensStaked, issue.creationDate, issue.issueGenerator, issue.votesForApprove, issue.mergeIDIncrement, issue.finalized, issue.canceled);\n    }\n\n    function getMergeById(uint256 _issueID, uint256 _mergeId) public returns (uint256, uint256, uint256, address[] memory, uint256[] memory, address){\n        MergeProposal memory merge = issues[_issueID].mergeProposals[_mergeId];\n        return (merge._id, merge.votes, merge.disputes, merge.prAddresses, merge.prAmounts, merge.proposalAddress);\n    }\n\n    /**\n     * @dev Change Transaction Token Address (Upgrade)\n     */\n    function changeTransactionToken(address _newToken) public onlyGovernor {\n        transactionToken = _IERC20(_newToken);\n    }\n\n    /**\n     * @dev Change Merge Creator FeeShare\n     */\n    function changeMergeCreatorFeeShare(uint256 _mergeCreatorFeeShare) public onlyGovernor {\n        require(_mergeCreatorFeeShare < 20, \"Merge Share cant be higher than 20\");\n        mergeCreatorFeeShare = _mergeCreatorFeeShare;\n    }\n\n       /**\n     * @dev changePercentageNeededForApprove\n    */\n    function changePercentageNeededForApprove(uint256 _percentageNeededForApprove) public onlyGovernor {\n        require(_percentageNeededForApprove < 80, \"Approve % Needed cant be higher than 80\");\n        percentageNeededForApprove = _percentageNeededForApprove;\n    }\n\n    /**\n     * @dev changePercentageNeededForDispute\n     */\n    function changePercentageNeededForDispute(uint256 _percentageNeededForDispute) public onlyGovernor {\n        require(_percentageNeededForDispute < 15, \"Dispute % Needed cant be higher than 15\");\n        percentageNeededForDispute = _percentageNeededForDispute;\n    }\n\n    /**\n     * @dev changePercentageNeededForMerge\n     */\n    function changePercentageNeededForMerge(uint256 _percentageNeededForMerge) public onlyGovernor {\n        require(_percentageNeededForMerge < 80, \"Approve for Merge % Needed cant be higher than 80\");\n        percentageNeededForMerge = _percentageNeededForMerge;\n    }\n\n     /**\n     * @dev changeTimeOpenForIssueApprove\n     */\n    function changeTimeOpenForIssueApprove(uint256 _timeOpenForIssueApprove) public onlyGovernor {\n        require(_timeOpenForIssueApprove < 20 days, \"Time open for issue has to be higher than lower than 20 days\");\n        require(_timeOpenForIssueApprove >= 1 minutes, \"Time open for issue has to be higher than 1 minutes\");\n        timeOpenForIssueApprove = _timeOpenForIssueApprove;\n    }\n\n    /**\n     * @dev changeTimeOpenForIssueApprove\n    */\n    function changeCOUNCIL_AMOUNT(uint256 _COUNCIL_AMOUNT) public onlyGovernor {\n        require(_COUNCIL_AMOUNT > 100000*10**18, \"Council Amount has to higher than 100k\");\n        require(_COUNCIL_AMOUNT < 100000000*10**18, \"Council Amount has to lower than 50M\");\n        COUNCIL_AMOUNT = _COUNCIL_AMOUNT;\n    }\n\n \n}\n",
  "sourcePath": "/Users/ruipedro/Desktop/projects/Bepro/@bepro-js/contracts/bepro/Network.sol",
  "compiler": {
    "name": "solc",
    "version": "0.6.2+commit.bacdbe57.Emscripten.clang"
  },
  "schemaVersion": "3.0.20",
  "updatedAt": "2021-06-01T19:21:38.615Z",
  "devdoc": {
    "methods": {
      "changeCOUNCIL_AMOUNT(uint256)": {
        "details": "changeTimeOpenForIssueApprove"
      },
      "changeMergeCreatorFeeShare(uint256)": {
        "details": "Change Merge Creator FeeShare"
      },
      "changePercentageNeededForApprove(uint256)": {
        "details": "changePercentageNeededForApprove"
      },
      "changePercentageNeededForDispute(uint256)": {
        "details": "changePercentageNeededForDispute"
      },
      "changePercentageNeededForMerge(uint256)": {
        "details": "changePercentageNeededForMerge"
      },
      "changeTimeOpenForIssueApprove(uint256)": {
        "details": "changeTimeOpenForIssueApprove"
      },
      "changeTransactionToken(address)": {
        "details": "Change Transaction Token Address (Upgrade)"
      },
      "closeIssue(uint256,uint256)": {
        "details": "Owner finalizes the issue and distributes the transaction tokens or rejects the PR",
        "params": {
          "_issueID": "issue id (mapping with github)",
          "_mergeID": "merge id "
        }
      },
      "openIssue(string,uint256)": {
        "details": "open an Issue with transaction Tokens owned 1st step"
      },
      "paused()": {
        "details": "Returns true if the contract is paused, and false otherwise."
      },
      "proposeIssueMerge(uint256,address[],uint256[])": {
        "details": "Owner finalizes the issue and distributes the transaction tokens or rejects the PR",
        "params": {
          "_issueID": "issue id (mapping with github)",
          "_prAddresses": "PR Address",
          "_prAmounts": "PR Amounts"
        }
      },
      "transferGovernor(address)": {
        "details": "Allows the current governor to transfer control of the contract to a newGovernor.",
        "params": {
          "newGovernor": "The address to transfer governorship to."
        }
      },
      "updateIssue(uint256,uint256)": {
        "details": "update an Issue with transaction tokens owned 2nd step  (optional)"
      }
    },
    "title": "Development Network Contract Autonomous Use"
  },
  "userdoc": {
    "methods": {}
  }
}