{
  "contractName": "OpenerRealFvr",
  "abi": [
    {
      "inputs": [
        {
          "internalType": "string",
          "name": "name",
          "type": "string"
        },
        {
          "internalType": "string",
          "name": "symbol",
          "type": "string"
        },
        {
          "internalType": "contract ERC20",
          "name": "_purchaseToken",
          "type": "address"
        }
      ],
      "stateMutability": "nonpayable",
      "type": "constructor"
    },
    {
      "anonymous": false,
      "inputs": [
        {
          "indexed": true,
          "internalType": "address",
          "name": "owner",
          "type": "address"
        },
        {
          "indexed": true,
          "internalType": "address",
          "name": "approved",
          "type": "address"
        },
        {
          "indexed": true,
          "internalType": "uint256",
          "name": "tokenId",
          "type": "uint256"
        }
      ],
      "name": "Approval",
      "type": "event"
    },
    {
      "anonymous": false,
      "inputs": [
        {
          "indexed": true,
          "internalType": "address",
          "name": "owner",
          "type": "address"
        },
        {
          "indexed": true,
          "internalType": "address",
          "name": "operator",
          "type": "address"
        },
        {
          "indexed": false,
          "internalType": "bool",
          "name": "approved",
          "type": "bool"
        }
      ],
      "name": "ApprovalForAll",
      "type": "event"
    },
    {
      "anonymous": false,
      "inputs": [
        {
          "indexed": true,
          "internalType": "uint256",
          "name": "nftId",
          "type": "uint256"
        }
      ],
      "name": "NftMinted",
      "type": "event"
    },
    {
      "anonymous": false,
      "inputs": [
        {
          "indexed": true,
          "internalType": "address",
          "name": "previousOwner",
          "type": "address"
        },
        {
          "indexed": true,
          "internalType": "address",
          "name": "newOwner",
          "type": "address"
        }
      ],
      "name": "OwnershipTransferred",
      "type": "event"
    },
    {
      "anonymous": false,
      "inputs": [
        {
          "indexed": true,
          "internalType": "address",
          "name": "by",
          "type": "address"
        },
        {
          "indexed": true,
          "internalType": "uint256",
          "name": "packId",
          "type": "uint256"
        }
      ],
      "name": "PackBought",
      "type": "event"
    },
    {
      "anonymous": false,
      "inputs": [
        {
          "indexed": false,
          "internalType": "uint256",
          "name": "packId",
          "type": "uint256"
        },
        {
          "indexed": true,
          "internalType": "string",
          "name": "serie",
          "type": "string"
        },
        {
          "indexed": true,
          "internalType": "string",
          "name": "packType",
          "type": "string"
        },
        {
          "indexed": true,
          "internalType": "string",
          "name": "drop",
          "type": "string"
        }
      ],
      "name": "PackCreated",
      "type": "event"
    },
    {
      "anonymous": false,
      "inputs": [
        {
          "indexed": true,
          "internalType": "uint256",
          "name": "packId",
          "type": "uint256"
        }
      ],
      "name": "PackDelete",
      "type": "event"
    },
    {
      "anonymous": false,
      "inputs": [
        {
          "indexed": true,
          "internalType": "address",
          "name": "by",
          "type": "address"
        },
        {
          "indexed": true,
          "internalType": "uint256",
          "name": "packId",
          "type": "uint256"
        }
      ],
      "name": "PackOpened",
      "type": "event"
    },
    {
      "anonymous": false,
      "inputs": [
        {
          "indexed": true,
          "internalType": "address",
          "name": "from",
          "type": "address"
        },
        {
          "indexed": true,
          "internalType": "address",
          "name": "to",
          "type": "address"
        },
        {
          "indexed": true,
          "internalType": "uint256",
          "name": "tokenId",
          "type": "uint256"
        }
      ],
      "name": "Transfer",
      "type": "event"
    },
    {
      "inputs": [],
      "name": "_closed",
      "outputs": [
        {
          "internalType": "bool",
          "name": "",
          "type": "bool"
        }
      ],
      "stateMutability": "view",
      "type": "function"
    },
    {
      "inputs": [],
      "name": "_openedPacks",
      "outputs": [
        {
          "internalType": "uint256",
          "name": "",
          "type": "uint256"
        }
      ],
      "stateMutability": "view",
      "type": "function"
    },
    {
      "inputs": [],
      "name": "_purchaseToken",
      "outputs": [
        {
          "internalType": "contract ERC20",
          "name": "",
          "type": "address"
        }
      ],
      "stateMutability": "view",
      "type": "function"
    },
    {
      "inputs": [],
      "name": "_realFvrTokenPriceUSD",
      "outputs": [
        {
          "internalType": "uint256",
          "name": "",
          "type": "uint256"
        }
      ],
      "stateMutability": "view",
      "type": "function"
    },
    {
      "inputs": [
        {
          "internalType": "uint256",
          "name": "",
          "type": "uint256"
        }
      ],
      "name": "alreadyMinted",
      "outputs": [
        {
          "internalType": "bool",
          "name": "",
          "type": "bool"
        }
      ],
      "stateMutability": "view",
      "type": "function"
    },
    {
      "inputs": [
        {
          "internalType": "address",
          "name": "to",
          "type": "address"
        },
        {
          "internalType": "uint256",
          "name": "tokenId",
          "type": "uint256"
        }
      ],
      "name": "approve",
      "outputs": [],
      "stateMutability": "nonpayable",
      "type": "function"
    },
    {
      "inputs": [
        {
          "internalType": "address",
          "name": "owner",
          "type": "address"
        }
      ],
      "name": "balanceOf",
      "outputs": [
        {
          "internalType": "uint256",
          "name": "",
          "type": "uint256"
        }
      ],
      "stateMutability": "view",
      "type": "function"
    },
    {
      "inputs": [],
      "name": "baseURI",
      "outputs": [
        {
          "internalType": "string",
          "name": "",
          "type": "string"
        }
      ],
      "stateMutability": "view",
      "type": "function"
    },
    {
      "inputs": [
        {
          "internalType": "uint256",
          "name": "tokenId",
          "type": "uint256"
        }
      ],
      "name": "getApproved",
      "outputs": [
        {
          "internalType": "address",
          "name": "",
          "type": "address"
        }
      ],
      "stateMutability": "view",
      "type": "function"
    },
    {
      "inputs": [
        {
          "internalType": "address",
          "name": "owner",
          "type": "address"
        },
        {
          "internalType": "address",
          "name": "operator",
          "type": "address"
        }
      ],
      "name": "isApprovedForAll",
      "outputs": [
        {
          "internalType": "bool",
          "name": "",
          "type": "bool"
        }
      ],
      "stateMutability": "view",
      "type": "function"
    },
    {
      "inputs": [],
      "name": "lastNFTID",
      "outputs": [
        {
          "internalType": "uint256",
          "name": "",
          "type": "uint256"
        }
      ],
      "stateMutability": "view",
      "type": "function"
    },
    {
      "inputs": [],
      "name": "name",
      "outputs": [
        {
          "internalType": "string",
          "name": "",
          "type": "string"
        }
      ],
      "stateMutability": "view",
      "type": "function"
    },
    {
      "inputs": [],
      "name": "owner",
      "outputs": [
        {
          "internalType": "address",
          "name": "",
          "type": "address"
        }
      ],
      "stateMutability": "view",
      "type": "function"
    },
    {
      "inputs": [
        {
          "internalType": "uint256",
          "name": "tokenId",
          "type": "uint256"
        }
      ],
      "name": "ownerOf",
      "outputs": [
        {
          "internalType": "address",
          "name": "",
          "type": "address"
        }
      ],
      "stateMutability": "view",
      "type": "function"
    },
    {
      "inputs": [],
      "name": "packIncrementId",
      "outputs": [
        {
          "internalType": "uint256",
          "name": "",
          "type": "uint256"
        }
      ],
      "stateMutability": "view",
      "type": "function"
    },
    {
      "inputs": [
        {
          "internalType": "uint256",
          "name": "",
          "type": "uint256"
        }
      ],
      "name": "packs",
      "outputs": [
        {
          "internalType": "uint256",
          "name": "packId",
          "type": "uint256"
        },
        {
          "internalType": "uint256",
          "name": "nftAmount",
          "type": "uint256"
        },
        {
          "internalType": "uint256",
          "name": "initialNFTId",
          "type": "uint256"
        },
        {
          "internalType": "uint256",
          "name": "saleStart",
          "type": "uint256"
        },
        {
          "internalType": "uint256",
          "name": "price",
          "type": "uint256"
        },
        {
          "internalType": "string",
          "name": "serie",
          "type": "string"
        },
        {
          "internalType": "string",
          "name": "drop",
          "type": "string"
        },
        {
          "internalType": "string",
          "name": "packType",
          "type": "string"
        },
        {
          "internalType": "bool",
          "name": "opened",
          "type": "bool"
        },
        {
          "internalType": "address",
          "name": "buyer",
          "type": "address"
        }
      ],
      "stateMutability": "view",
      "type": "function"
    },
    {
      "inputs": [
        {
          "internalType": "address",
          "name": "",
          "type": "address"
        },
        {
          "internalType": "uint256",
          "name": "",
          "type": "uint256"
        }
      ],
      "name": "registeredIDs",
      "outputs": [
        {
          "internalType": "bool",
          "name": "",
          "type": "bool"
        }
      ],
      "stateMutability": "view",
      "type": "function"
    },
    {
      "inputs": [
        {
          "internalType": "address",
          "name": "",
          "type": "address"
        },
        {
          "internalType": "uint256",
          "name": "",
          "type": "uint256"
        }
      ],
      "name": "registeredIDsArray",
      "outputs": [
        {
          "internalType": "uint256",
          "name": "",
          "type": "uint256"
        }
      ],
      "stateMutability": "view",
      "type": "function"
    },
    {
      "inputs": [
        {
          "internalType": "address",
          "name": "from",
          "type": "address"
        },
        {
          "internalType": "address",
          "name": "to",
          "type": "address"
        },
        {
          "internalType": "uint256",
          "name": "tokenId",
          "type": "uint256"
        }
      ],
      "name": "safeTransferFrom",
      "outputs": [],
      "stateMutability": "nonpayable",
      "type": "function"
    },
    {
      "inputs": [
        {
          "internalType": "address",
          "name": "from",
          "type": "address"
        },
        {
          "internalType": "address",
          "name": "to",
          "type": "address"
        },
        {
          "internalType": "uint256",
          "name": "tokenId",
          "type": "uint256"
        },
        {
          "internalType": "bytes",
          "name": "_data",
          "type": "bytes"
        }
      ],
      "name": "safeTransferFrom",
      "outputs": [],
      "stateMutability": "nonpayable",
      "type": "function"
    },
    {
      "inputs": [
        {
          "internalType": "address",
          "name": "operator",
          "type": "address"
        },
        {
          "internalType": "bool",
          "name": "approved",
          "type": "bool"
        }
      ],
      "name": "setApprovalForAll",
      "outputs": [],
      "stateMutability": "nonpayable",
      "type": "function"
    },
    {
      "inputs": [
        {
          "internalType": "bytes4",
          "name": "interfaceId",
          "type": "bytes4"
        }
      ],
      "name": "supportsInterface",
      "outputs": [
        {
          "internalType": "bool",
          "name": "",
          "type": "bool"
        }
      ],
      "stateMutability": "view",
      "type": "function"
    },
    {
      "inputs": [],
      "name": "symbol",
      "outputs": [
        {
          "internalType": "string",
          "name": "",
          "type": "string"
        }
      ],
      "stateMutability": "view",
      "type": "function"
    },
    {
      "inputs": [
        {
          "internalType": "uint256",
          "name": "index",
          "type": "uint256"
        }
      ],
      "name": "tokenByIndex",
      "outputs": [
        {
          "internalType": "uint256",
          "name": "",
          "type": "uint256"
        }
      ],
      "stateMutability": "view",
      "type": "function"
    },
    {
      "inputs": [
        {
          "internalType": "address",
          "name": "owner",
          "type": "address"
        },
        {
          "internalType": "uint256",
          "name": "index",
          "type": "uint256"
        }
      ],
      "name": "tokenOfOwnerByIndex",
      "outputs": [
        {
          "internalType": "uint256",
          "name": "",
          "type": "uint256"
        }
      ],
      "stateMutability": "view",
      "type": "function"
    },
    {
      "inputs": [
        {
          "internalType": "uint256",
          "name": "tokenId",
          "type": "uint256"
        }
      ],
      "name": "tokenURI",
      "outputs": [
        {
          "internalType": "string",
          "name": "",
          "type": "string"
        }
      ],
      "stateMutability": "view",
      "type": "function"
    },
    {
      "inputs": [],
      "name": "totalSupply",
      "outputs": [
        {
          "internalType": "uint256",
          "name": "",
          "type": "uint256"
        }
      ],
      "stateMutability": "view",
      "type": "function"
    },
    {
      "inputs": [
        {
          "internalType": "address",
          "name": "from",
          "type": "address"
        },
        {
          "internalType": "address",
          "name": "to",
          "type": "address"
        },
        {
          "internalType": "uint256",
          "name": "tokenId",
          "type": "uint256"
        }
      ],
      "name": "transferFrom",
      "outputs": [],
      "stateMutability": "nonpayable",
      "type": "function"
    },
    {
      "inputs": [
        {
          "internalType": "address",
          "name": "newOwner",
          "type": "address"
        }
      ],
      "name": "transferOwnership",
      "outputs": [],
      "stateMutability": "nonpayable",
      "type": "function"
    },
    {
      "inputs": [
        {
          "internalType": "uint256",
          "name": "tokenId",
          "type": "uint256"
        },
        {
          "internalType": "string",
          "name": "uri",
          "type": "string"
        }
      ],
      "name": "setTokenURI",
      "outputs": [],
      "stateMutability": "nonpayable",
      "type": "function"
    },
    {
      "inputs": [
        {
          "internalType": "string",
          "name": "baseURI",
          "type": "string"
        }
      ],
      "name": "setBaseURI",
      "outputs": [],
      "stateMutability": "nonpayable",
      "type": "function"
    },
    {
      "inputs": [
        {
          "internalType": "uint256",
          "name": "tokenId",
          "type": "uint256"
        }
      ],
      "name": "exists",
      "outputs": [
        {
          "internalType": "bool",
          "name": "",
          "type": "bool"
        }
      ],
      "stateMutability": "view",
      "type": "function"
    },
    {
      "inputs": [
        {
          "internalType": "address",
          "name": "_address",
          "type": "address"
        }
      ],
      "name": "getRegisteredIDs",
      "outputs": [
        {
          "internalType": "uint256[]",
          "name": "",
          "type": "uint256[]"
        }
      ],
      "stateMutability": "view",
      "type": "function"
    },
    {
      "inputs": [
        {
          "internalType": "uint256",
          "name": "_packId",
          "type": "uint256"
        }
      ],
      "name": "getPackbyId",
      "outputs": [
        {
          "internalType": "uint256",
          "name": "",
          "type": "uint256"
        },
        {
          "internalType": "uint256",
          "name": "",
          "type": "uint256"
        },
        {
          "internalType": "uint256",
          "name": "",
          "type": "uint256"
        },
        {
          "internalType": "string",
          "name": "",
          "type": "string"
        },
        {
          "internalType": "string",
          "name": "",
          "type": "string"
        },
        {
          "internalType": "string",
          "name": "",
          "type": "string"
        },
        {
          "internalType": "address",
          "name": "",
          "type": "address"
        },
        {
          "internalType": "address[]",
          "name": "",
          "type": "address[]"
        },
        {
          "internalType": "uint256[]",
          "name": "",
          "type": "uint256[]"
        },
        {
          "internalType": "bool",
          "name": "",
          "type": "bool"
        }
      ],
      "stateMutability": "nonpayable",
      "type": "function"
    },
    {
      "inputs": [
        {
          "internalType": "uint256",
          "name": "_tokenId",
          "type": "uint256"
        }
      ],
      "name": "getMarketplaceDistributionForERC721",
      "outputs": [
        {
          "internalType": "uint256[]",
          "name": "",
          "type": "uint256[]"
        },
        {
          "internalType": "address[]",
          "name": "",
          "type": "address[]"
        }
      ],
      "stateMutability": "view",
      "type": "function"
    },
    {
      "inputs": [
        {
          "internalType": "uint256",
          "name": "packId",
          "type": "uint256"
        }
      ],
      "name": "getPackPriceInFVR",
      "outputs": [
        {
          "internalType": "uint256",
          "name": "",
          "type": "uint256"
        }
      ],
      "stateMutability": "nonpayable",
      "type": "function"
    },
    {
      "inputs": [
        {
          "internalType": "uint256",
          "name": "packId",
          "type": "uint256"
        }
      ],
      "name": "buyPack",
      "outputs": [],
      "stateMutability": "nonpayable",
      "type": "function"
    },
    {
      "inputs": [
        {
          "internalType": "uint256[]",
          "name": "packIds",
          "type": "uint256[]"
        }
      ],
      "name": "buyPacks",
      "outputs": [],
      "stateMutability": "nonpayable",
      "type": "function"
    },
    {
      "inputs": [
        {
          "internalType": "uint256",
          "name": "packId",
          "type": "uint256"
        }
      ],
      "name": "openPack",
      "outputs": [],
      "stateMutability": "nonpayable",
      "type": "function"
    },
    {
      "inputs": [
        {
          "internalType": "uint256[]",
          "name": "packIds",
          "type": "uint256[]"
        }
      ],
      "name": "openPacks",
      "outputs": [],
      "stateMutability": "nonpayable",
      "type": "function"
    },
    {
      "inputs": [
        {
          "internalType": "uint256",
          "name": "nftAmount",
          "type": "uint256"
        },
        {
          "internalType": "uint256",
          "name": "price",
          "type": "uint256"
        },
        {
          "internalType": "string",
          "name": "serie",
          "type": "string"
        },
        {
          "internalType": "string",
          "name": "packType",
          "type": "string"
        },
        {
          "internalType": "string",
          "name": "drop",
          "type": "string"
        },
        {
          "internalType": "uint256",
          "name": "saleStart",
          "type": "uint256"
        },
        {
          "internalType": "address[]",
          "name": "saleDistributionAddresses",
          "type": "address[]"
        },
        {
          "internalType": "uint256[]",
          "name": "saleDistributionAmounts",
          "type": "uint256[]"
        },
        {
          "internalType": "address[]",
          "name": "marketplaceDistributionAddresses",
          "type": "address[]"
        },
        {
          "internalType": "uint256[]",
          "name": "marketplaceDistributionAmounts",
          "type": "uint256[]"
        }
      ],
      "name": "createPack",
      "outputs": [],
      "stateMutability": "nonpayable",
      "type": "function"
    },
    {
      "inputs": [
        {
          "internalType": "uint256",
          "name": "packId",
          "type": "uint256"
        },
        {
          "internalType": "address",
          "name": "receivingAddress",
          "type": "address"
        }
      ],
      "name": "offerPack",
      "outputs": [],
      "stateMutability": "nonpayable",
      "type": "function"
    },
    {
      "inputs": [
        {
          "internalType": "uint256",
          "name": "_packId",
          "type": "uint256"
        },
        {
          "internalType": "uint256",
          "name": "_saleStart",
          "type": "uint256"
        },
        {
          "internalType": "string",
          "name": "serie",
          "type": "string"
        },
        {
          "internalType": "string",
          "name": "packType",
          "type": "string"
        },
        {
          "internalType": "string",
          "name": "drop",
          "type": "string"
        },
        {
          "internalType": "uint256",
          "name": "price",
          "type": "uint256"
        }
      ],
      "name": "editPackInfo",
      "outputs": [],
      "stateMutability": "nonpayable",
      "type": "function"
    },
    {
      "inputs": [
        {
          "internalType": "uint256",
          "name": "packId",
          "type": "uint256"
        }
      ],
      "name": "deletePackById",
      "outputs": [],
      "stateMutability": "nonpayable",
      "type": "function"
    },
    {
      "inputs": [
        {
          "internalType": "uint256",
          "name": "tokenIdToMint",
          "type": "uint256"
        }
      ],
      "name": "mint",
      "outputs": [],
      "stateMutability": "nonpayable",
      "type": "function"
    },
    {
      "inputs": [
        {
          "internalType": "contract ERC20",
          "name": "purchaseToken",
          "type": "address"
        }
      ],
      "name": "setPurchaseTokenAddress",
      "outputs": [],
      "stateMutability": "nonpayable",
      "type": "function"
    },
    {
      "inputs": [
        {
          "internalType": "uint256",
          "name": "newPrice",
          "type": "uint256"
        }
      ],
      "name": "setTokenPriceInUSD",
      "outputs": [],
      "stateMutability": "nonpayable",
      "type": "function"
    },
    {
      "inputs": [],
      "name": "lock",
      "outputs": [],
      "stateMutability": "nonpayable",
      "type": "function"
    },
    {
      "inputs": [],
      "name": "unlock",
      "outputs": [],
      "stateMutability": "nonpayable",
      "type": "function"
    }
  ],
  "bytecode": "0x608060405260016011819055601255600060138190556014805460ff191690556015553480156200002f57600080fd5b50604051620052c1380380620052c1833981810160405260608110156200005557600080fd5b81019080805160405193929190846401000000008211156200007657600080fd5b9083019060208201858111156200008c57600080fd5b8251640100000000811182820188101715620000a757600080fd5b82525081516020918201929091019080838360005b83811015620000d6578181015183820152602001620000bc565b50505050905090810190601f168015620001045780820380516001836020036101000a031916815260200191505b50604052602001805160405193929190846401000000008211156200012857600080fd5b9083019060208201858111156200013e57600080fd5b82516401000000008111828201881017156200015957600080fd5b82525081516020918201929091019080838360005b83811015620001885781810151838201526020016200016e565b50505050905090810190601f168015620001b65780820380516001836020036101000a031916815260200191505b5060405260200151600080546001600160a01b03191633179055915083905082620001f16301ffc9a760e01b6001600160e01b036200027916565b81516200020690600790602085019062000301565b5080516200021c90600890602084019062000301565b50620002386380ac58cd60e01b6001600160e01b036200027916565b62000253635b5e139f60e01b6001600160e01b036200027916565b6200026e63780e9d6360e01b6001600160e01b036200027916565b5050505050620003a6565b6001600160e01b03198082161415620002d9576040805162461bcd60e51b815260206004820152601c60248201527f4552433136353a20696e76616c696420696e7465726661636520696400000000604482015290519081900360640190fd5b6001600160e01b0319166000908152600160208190526040909120805460ff19169091179055565b828054600181600116156101000203166002900490600052602060002090601f016020900481019282601f106200034457805160ff191683800117855562000374565b8280016001018555821562000374579182015b828111156200037457825182559160200191906001019062000357565b506200038292915062000386565b5090565b620003a391905b808211156200038257600081556001016200038d565b90565b614f0b80620003b66000396000f3fe608060405234801561001057600080fd5b50600436106102bb5760003560e01c806369c7d8a311610182578063b88d4fde116100e9578063e6416503116100a2578063ec6923a11161007c578063ec6923a1146114d3578063ec90a293146114ff578063f2fde38b1461151c578063f83d08ba14611542576102bb565b8063e641650314611495578063e985e9c51461149d578063eb8800d0146114cb576102bb565b8063b88d4fde14611238578063c87b56dd146112fc578063d3a4ff4f14611319578063d5c2e3f6146113ba578063dc45bfb314611470578063dd7c5e541461148d576102bb565b806395d89b411161013b57806395d89b4114611018578063a0712d6814611020578063a22cb4651461103d578063a69df4b51461106b578063b7365f1f14611073578063b84c139214611090576102bb565b806369c7d8a314610fb55780636c0360eb14610fbd5780636fcbc6ed14610fc557806370a0823114610fcd57806384a5027014610ff35780638da5cb5b14611010576102bb565b8063298489d2116102265780634f558e79116101df5780634f558e7914610e805780634f6ccce714610e9d57806350a88c7e14610eba57806355f804b314610ed75780635eeb57c014610f7b5780636352211e14610f98576102bb565b8063298489d2146107fb5780632c686030146108215780632f745c59146108975780633a307f61146108c35780633c995e7114610a7f57806342842e0e14610e4a576102bb565b806315424e6e1161027857806315424e6e146104be578063162094c4146106de57806318160ddd146107895780631e14a533146107915780631eae8636146107bd57806323b872dd146107c5576102bb565b806301d243a6146102c057806301ffc9a7146102fe57806306fdde0314610339578063078ab8be146103b6578063081812fc14610459578063095ea7b314610492575b600080fd5b6102ec600480360360408110156102d657600080fd5b506001600160a01b03813516906020013561154a565b60408051918252519081900360200190f35b6103256004803603602081101561031457600080fd5b50356001600160e01b031916611578565b604080519115158252519081900360200190f35b61034161159b565b6040805160208082528351818301528351919283929083019185019080838360005b8381101561037b578181015183820152602001610363565b50505050905090810190601f1680156103a85780820380516001836020036101000a031916815260200191505b509250505060405180910390f35b610457600480360360208110156103cc57600080fd5b810190602081018135600160201b8111156103e657600080fd5b8201836020820111156103f857600080fd5b803590602001918460208302840111600160201b8311171561041957600080fd5b919080806020026020016040519081016040528093929190818152602001838360200280828437600092019190915250929550611632945050505050565b005b6104766004803603602081101561046f57600080fd5b5035611666565b604080516001600160a01b039092168252519081900360200190f35b610457600480360360408110156104a857600080fd5b506001600160a01b0381351690602001356116c8565b6104db600480360360208110156104d457600080fd5b50356117a3565b604051808b81526020018a8152602001898152602001806020018060200180602001886001600160a01b03166001600160a01b0316815260200180602001806020018715151515815260200186810386528d818151815260200191508051906020019080838360005b8381101561055c578181015183820152602001610544565b50505050905090810190601f1680156105895780820380516001836020036101000a031916815260200191505b5086810385528c5181528c516020918201918e019080838360005b838110156105bc5781810151838201526020016105a4565b50505050905090810190601f1680156105e95780820380516001836020036101000a031916815260200191505b5086810384528b5181528b516020918201918d019080838360005b8381101561061c578181015183820152602001610604565b50505050905090810190601f1680156106495780820380516001836020036101000a031916815260200191505b508681038352895181528951602091820191808c01910280838360005b8381101561067e578181015183820152602001610666565b50505050905001868103825288818151815260200191508051906020019060200280838360005b838110156106bd5781810151838201526020016106a5565b505050509050019f5050505050505050505050505050505060405180910390f35b610457600480360360408110156106f457600080fd5b81359190810190604081016020820135600160201b81111561071557600080fd5b82018360208201111561072757600080fd5b803590602001918460018302840111600160201b8311171561074857600080fd5b91908080601f016020809104026020016040519081016040528093929190818152602001838380828437600092019190915250929550611b2a945050505050565b6102ec611b4b565b610325600480360360408110156107a757600080fd5b506001600160a01b038135169060200135611b5c565b6102ec611b7c565b610457600480360360608110156107db57600080fd5b506001600160a01b03813581169160208101359091169060400135611b82565b6104576004803603602081101561081157600080fd5b50356001600160a01b0316611bd9565b6108476004803603602081101561083757600080fd5b50356001600160a01b0316611c12565b60408051602080825283518183015283519192839290830191858101910280838360005b8381101561088357818101518382015260200161086b565b505050509050019250505060405180910390f35b6102ec600480360360408110156108ad57600080fd5b506001600160a01b038135169060200135611c7e565b610457600480360360c08110156108d957600080fd5b813591602081013591810190606081016040820135600160201b8111156108ff57600080fd5b82018360208201111561091157600080fd5b803590602001918460018302840111600160201b8311171561093257600080fd5b91908080601f0160208091040260200160405190810160405280939291908181526020018383808284376000920191909152509295949360208101935035915050600160201b81111561098457600080fd5b82018360208201111561099657600080fd5b803590602001918460018302840111600160201b831117156109b757600080fd5b91908080601f0160208091040260200160405190810160405280939291908181526020018383808284376000920191909152509295949360208101935035915050600160201b811115610a0957600080fd5b820183602082011115610a1b57600080fd5b803590602001918460018302840111600160201b83111715610a3c57600080fd5b91908080601f0160208091040260200160405190810160405280939291908181526020018383808284376000920191909152509295505091359250611caf915050565b6104576004803603610140811015610a9657600080fd5b813591602081013591810190606081016040820135600160201b811115610abc57600080fd5b820183602082011115610ace57600080fd5b803590602001918460018302840111600160201b83111715610aef57600080fd5b91908080601f0160208091040260200160405190810160405280939291908181526020018383808284376000920191909152509295949360208101935035915050600160201b811115610b4157600080fd5b820183602082011115610b5357600080fd5b803590602001918460018302840111600160201b83111715610b7457600080fd5b91908080601f0160208091040260200160405190810160405280939291908181526020018383808284376000920191909152509295949360208101935035915050600160201b811115610bc657600080fd5b820183602082011115610bd857600080fd5b803590602001918460018302840111600160201b83111715610bf957600080fd5b91908080601f01602080910402602001604051908101604052809392919081815260200183838082843760009201919091525092958435959094909350604081019250602001359050600160201b811115610c5357600080fd5b820183602082011115610c6557600080fd5b803590602001918460208302840111600160201b83111715610c8657600080fd5b9190808060200260200160405190810160405280939291908181526020018383602002808284376000920191909152509295949360208101935035915050600160201b811115610cd557600080fd5b820183602082011115610ce757600080fd5b803590602001918460208302840111600160201b83111715610d0857600080fd5b9190808060200260200160405190810160405280939291908181526020018383602002808284376000920191909152509295949360208101935035915050600160201b811115610d5757600080fd5b820183602082011115610d6957600080fd5b803590602001918460208302840111600160201b83111715610d8a57600080fd5b9190808060200260200160405190810160405280939291908181526020018383602002808284376000920191909152509295949360208101935035915050600160201b811115610dd957600080fd5b820183602082011115610deb57600080fd5b803590602001918460208302840111600160201b83111715610e0c57600080fd5b919080806020026020016040519081016040528093929190818152602001838360200280828437600092019190915250929550611db7945050505050565b61045760048036036060811015610e6057600080fd5b506001600160a01b03813581169160208101359091169060400135612221565b61032560048036036020811015610e9657600080fd5b503561223c565b6102ec60048036036020811015610eb357600080fd5b5035612247565b61045760048036036020811015610ed057600080fd5b5035612263565b61045760048036036020811015610eed57600080fd5b810190602081018135600160201b811115610f0757600080fd5b820183602082011115610f1957600080fd5b803590602001918460018302840111600160201b83111715610f3a57600080fd5b91908080601f016020809104026020016040519081016040528093929190818152602001838380828437600092019190915250929550612429945050505050565b61045760048036036020811015610f9157600080fd5b503561244c565b61047660048036036020811015610fae57600080fd5b50356124ba565b6104766124e8565b6103416124f7565b6102ec612558565b6102ec60048036036020811015610fe357600080fd5b50356001600160a01b031661255e565b6102ec6004803603602081101561100957600080fd5b50356125c6565b610476612601565b610341612610565b6104576004803603602081101561103657600080fd5b5035612671565b6104576004803603604081101561105357600080fd5b506001600160a01b0381351690602001351515612770565b610457612875565b6103256004803603602081101561108957600080fd5b5035612898565b6110ad600480360360208110156110a657600080fd5b50356128ad565b604051808b81526020018a815260200189815260200188815260200187815260200180602001806020018060200186151515158152602001856001600160a01b03166001600160a01b03168152602001848103845289818151815260200191508051906020019080838360005b8381101561113257818101518382015260200161111a565b50505050905090810190601f16801561115f5780820380516001836020036101000a031916815260200191505b5084810383528851815288516020918201918a019080838360005b8381101561119257818101518382015260200161117a565b50505050905090810190601f1680156111bf5780820380516001836020036101000a031916815260200191505b50848103825287518152875160209182019189019080838360005b838110156111f25781810151838201526020016111da565b50505050905090810190601f16801561121f5780820380516001836020036101000a031916815260200191505b509d505050505050505050505050505060405180910390f35b6104576004803603608081101561124e57600080fd5b6001600160a01b03823581169260208101359091169160408201359190810190608081016060820135600160201b81111561128857600080fd5b82018360208201111561129a57600080fd5b803590602001918460018302840111600160201b831117156112bb57600080fd5b91908080601f016020809104026020016040519081016040528093929190818152602001838380828437600092019190915250929550612abb945050505050565b6103416004803603602081101561131257600080fd5b5035612b19565b6104576004803603602081101561132f57600080fd5b810190602081018135600160201b81111561134957600080fd5b82018360208201111561135b57600080fd5b803590602001918460208302840111600160201b8311171561137c57600080fd5b919080806020026020016040519081016040528093929190818152602001838360200280828437600092019190915250929550612d9c945050505050565b6113d7600480360360208110156113d057600080fd5b5035612dcc565b604051808060200180602001838103835285818151815260200191508051906020019060200280838360005b8381101561141b578181015183820152602001611403565b50505050905001838103825284818151815260200191508051906020019060200280838360005b8381101561145a578181015183820152602001611442565b5050505090500194505050505060405180910390f35b6104576004803603602081101561148657600080fd5b5035612e96565b61032561315e565b6102ec613167565b610325600480360360408110156114b357600080fd5b506001600160a01b038135811691602001351661316d565b6102ec61319b565b610457600480360360408110156114e957600080fd5b50803590602001356001600160a01b03166131a1565b6104576004803603602081101561151557600080fd5b50356135e9565b6104576004803603602081101561153257600080fd5b50356001600160a01b0316613712565b610457613797565b600d602052816000526040600020818154811061156357fe5b90600052602060002001600091509150505481565b6001600160e01b0319811660009081526001602052604090205460ff165b919050565b60078054604080516020601f60026000196101006001881615020190951694909404938401819004810282018101909252828152606093909290918301828280156116275780601f106115fc57610100808354040283529160200191611627565b820191906000526020600020905b81548152906001019060200180831161160a57829003601f168201915b505050505090505b90565b60005b81518110156116625761165a82828151811061164d57fe5b6020026020010151612263565b600101611635565b5050565b6000611671826137bd565b6116ac5760405162461bcd60e51b815260040180806020018281038252602c815260200180614d56602c913960400191505060405180910390fd5b506000908152600560205260409020546001600160a01b031690565b60006116d3826124ba565b9050806001600160a01b0316836001600160a01b031614156117265760405162461bcd60e51b8152600401808060200182810382526021815260200180614e386021913960400191505060405180910390fd5b806001600160a01b03166117386137d0565b6001600160a01b031614806117595750611759816117546137d0565b61316d565b6117945760405162461bcd60e51b8152600401808060200182810382526038815260200180614c886038913960400191505060405180910390fd5b61179e83836137d4565b505050565b60008060006060806060600060608060006117bc614929565b60008c8152600f60209081526040918290208251610180810184528154815260018201548184015260028201548185015260038201546060820152600482018054855181860281018601909652808652919492936080860193929083018282801561184657602002820191906000526020600020905b815481526020019060010190808311611832575b50505050508152602001600582018054806020026020016040519081016040528092919081815260200182805480156118a857602002820191906000526020600020905b81546001600160a01b0316815260019091019060200180831161188a575b5050509183525050600682015460208083019190915260078301805460408051601f600260001961010060018716150201909416939093049283018590048502810185018252828152940193928301828280156119465780601f1061191b57610100808354040283529160200191611946565b820191906000526020600020905b81548152906001019060200180831161192957829003601f168201915b505050918352505060088201805460408051602060026001851615610100026000190190941693909304601f81018490048402820184019092528181529382019392918301828280156119da5780601f106119af576101008083540402835291602001916119da565b820191906000526020600020905b8154815290600101906020018083116119bd57829003601f168201915b505050918352505060098201805460408051602060026001851615610100026000190190941693909304601f8101849004840282018401909252818152938201939291830182828015611a6e5780601f10611a4357610100808354040283529160200191611a6e565b820191906000526020600020905b815481529060010190602001808311611a5157829003601f168201915b50505050508152602001600a820160009054906101000a900460ff16151515158152602001600a820160019054906101000a90046001600160a01b03166001600160a01b03166001600160a01b0316815250509050806000015181604001518260c001518360e001518461010001518561012001518661016001518760a0015188608001518961014001518696508595508494508292508191509a509a509a509a509a509a509a509a509a509a50509193959799509193959799565b6000546001600160a01b03163314611b4157600080fd5b6116628282613842565b6000611b5760036138a5565b905090565b600c60209081526000928352604080842090915290825290205460ff1681565b60135481565b611b93611b8d6137d0565b826138b0565b611bce5760405162461bcd60e51b8152600401808060200182810382526031815260200180614e596031913960400191505060405180910390fd5b61179e838383613954565b6000546001600160a01b03163314611bf057600080fd5b600b80546001600160a01b0319166001600160a01b0392909216919091179055565b6001600160a01b0381166000908152600d6020908152604091829020805483518184028101840190945280845260609392830182828015611c7257602002820191906000526020600020905b815481526020019060010190808311611c5e575b50505050509050919050565b6001600160a01b0382166000908152600260205260408120611ca6908363ffffffff613ab216565b90505b92915050565b6000546001600160a01b03163314611cc657600080fd5b6000868152600f60205260409020600301544210611d22576040805162461bcd60e51b815260206004820152601460248201527353616c6520697320616c7265616479206c69766560601b604482015290519081900360640190fd5b6000868152600f60209081526040909120600381018790558551611d4e92600790920191870190614995565b506000868152600f602090815260409091208451611d7492600990920191860190614995565b506000868152600f602090815260409091208351611d9a92600890920191850190614995565b506000958652600f60205260409095206006019490945550505050565b6000546001600160a01b03163314611dce57600080fd5b8351835114611e0e5760405162461bcd60e51b8152600401808060200182810382526029815260200180614ead6029913960400191505060405180910390fd5b6000805b8551811015611e4057848181518110611e2757fe5b6020026020010151820191508080600101915050611e12565b5080606414611e805760405162461bcd60e51b8152600401808060200182810382526023815260200180614e8a6023913960400191505060405180910390fd5b8151835114611ec05760405162461bcd60e51b8152600401808060200182810382526030815260200180614c2c6030913960400191505060405180910390fd5b611ec8614929565b6011548160000181815250508b816020018181525050868160600181815250506012548160400181815250508a8160c0018181525050898160e0018190525087816101000181905250858160a001819052508481608001819052508881610120018190525080600f60006011548152602001908152602001600020600082015181600001556020820151816001015560408201518160020155606082015181600301556080820151816004019080519060200190611f87929190614a13565b5060a08201518051611fa3916005840191602090910190614a4d565b5060c0820151600682015560e08201518051611fc9916007840191602090910190614995565b506101008201518051611fe6916008840191602090910190614995565b506101208201518051612003916009840191602090910190614995565b50610140820151600a9091018054610160909301516001600160a01b031661010002610100600160a81b031992151560ff19909416939093179190911691909117905560015b8c81116120bd57612058614aae565b50604080518082018252858152602080820188905260125484016000908152601082529290922081518051929384936120949284920190614a13565b5060208281015180516120ad9260018501920190614a4d565b5050600190920191506120499050565b50876040518082805190602001908083835b602083106120ee5780518252601f1990920191602091820191016120cf565b51815160209384036101000a60001901801990921691161790526040519190930181900381208e519095508e945090928392508401908083835b602083106121475780518252601f199092019160209182019101612128565b6001836020036101000a03801982511681845116808217855250505050505090500191505060405180910390208b6040518082805190602001908083835b602083106121a45780518252601f199092019160209182019101612185565b51815160209384036101000a600019018019909216911617905260408051929094018290038220601154835293519395507f8a3c49c707ce21410593d8a8b6b8bc88cb83c6f4aa55ce4683eabd62e0d2636594509083900301919050a4505060128054909a01909955505060118054600101905550505050505050565b61179e83838360405180602001604052806000815250612abb565b6000611ca9826137bd565b60008061225b60038463ffffffff613abe16565b509392505050565b60145460ff16156122ae576040805162461bcd60e51b815260206004820152601060248201526f13dc195b995c881a5cc81b1bd8dad95960821b604482015290519081900360640190fd5b6000818152600f60205260409020600a015460ff1615612306576040805162461bcd60e51b815260206004820152600e60248201526d4f70656e656420416c726561647960901b604482015290519081900360640190fd5b6000818152600f60205260409020600a015461010090046001600160a01b031661236d576040805162461bcd60e51b8152602060048201526013602482015272141858dac81dd85cc81b9bdd08189bdd59da1d606a1b604482015290519081900360640190fd5b6000818152600f60205260409020600a015461010090046001600160a01b031633146123e0576040805162461bcd60e51b815260206004820152601b60248201527f596f752077657265206e6f7420746865207061636b2062757965720000000000604482015290519081900360640190fd5b6000818152600f6020526040808220600a01805460ff1916600117905551829133917f459bdaa71b6c253b49d34a7622dc4c6c1c416c0567571c068b392ba7172ddd4c9190a350565b6000546001600160a01b0316331461244057600080fd5b61244981613ada565b50565b6000546001600160a01b0316331461246357600080fd5b806124b5576040805162461bcd60e51b815260206004820152601d60248201527f6e657750726963652068617320746f20686967686572207468616e2030000000604482015290519081900360640190fd5b601355565b6000611ca982604051806060016040528060298152602001614cea602991396003919063ffffffff613aed16565b600b546001600160a01b031681565b600a8054604080516020601f60026000196101006001881615020190951694909404938401819004810282018101909252828152606093909290918301828280156116275780601f106115fc57610100808354040283529160200191611627565b60115481565b60006001600160a01b0382166125a55760405162461bcd60e51b815260040180806020018281038252602a815260200180614cc0602a913960400191505060405180910390fd5b6001600160a01b0382166000908152600260205260409020611ca9906138a5565b6013546000828152600f60205260408120600601549091611ca9916103e8916125f5919063ffffffff613b0416565b9063ffffffff613b5d16565b6000546001600160a01b031681565b60088054604080516020601f60026000196101006001881615020190951694909404938401819004810282018101909252828152606093909290918301828280156116275780601f106115fc57610100808354040283529160200191611627565b336000908152600c6020908152604080832084845290915290205460ff166126ca5760405162461bcd60e51b8152600401808060200182810382526032815260200180614dae6032913960400191505060405180910390fd5b6000818152600e602052604090205460ff161561271f576040805162461bcd60e51b815260206004820152600e60248201526d105b1c9958591e481b5a5b9d195960921b604482015290519081900360640190fd5b6000818152600e60205260409020805460ff191660011790556127423382613bc4565b60405181907f7f8949b6eca2b14d0feb1af0844a112998e467a4f88b8683301f3a6e409f32ae90600090a250565b6127786137d0565b6001600160a01b0316826001600160a01b031614156127de576040805162461bcd60e51b815260206004820152601960248201527f4552433732313a20617070726f766520746f2063616c6c657200000000000000604482015290519081900360640190fd5b80600660006127eb6137d0565b6001600160a01b03908116825260208083019390935260409182016000908120918716808252919093529120805460ff19169215159290921790915561282f6137d0565b60408051841515815290516001600160a01b0392909216917f17307eab39ab6107e8899845ad3d59bd9653f200f220920489ca2b5937696c319181900360200190a35050565b6000546001600160a01b0316331461288c57600080fd5b6014805460ff19169055565b600e6020526000908152604090205460ff1681565b600f602052806000526040600020600091509050806000015490806001015490806002015490806003015490806006015490806007018054600181600116156101000203166002900480601f0160208091040260200160405190810160405280929190818152602001828054600181600116156101000203166002900480156129775780601f1061294c57610100808354040283529160200191612977565b820191906000526020600020905b81548152906001019060200180831161295a57829003601f168201915b5050505060088301805460408051602060026001851615610100026000190190941693909304601f8101849004840282018401909252818152949594935090830182828015612a075780601f106129dc57610100808354040283529160200191612a07565b820191906000526020600020905b8154815290600101906020018083116129ea57829003601f168201915b5050505060098301805460408051602060026001851615610100026000190190941693909304601f8101849004840282018401909252818152949594935090830182828015612a975780601f10612a6c57610100808354040283529160200191612a97565b820191906000526020600020905b815481529060010190602001808311612a7a57829003601f168201915b505050600a909301549192505060ff8116906001600160a01b03610100909104168a565b612acc612ac66137d0565b836138b0565b612b075760405162461bcd60e51b8152600401808060200182810382526031815260200180614e596031913960400191505060405180910390fd5b612b1384848484613bde565b50505050565b6060612b24826137bd565b612b5f5760405162461bcd60e51b815260040180806020018281038252602f815260200180614e09602f913960400191505060405180910390fd5b60008281526009602090815260409182902080548351601f6002600019610100600186161502019093169290920491820184900484028101840190945280845260609392830182828015612bf45780601f10612bc957610100808354040283529160200191612bf4565b820191906000526020600020905b815481529060010190602001808311612bd757829003601f168201915b505050505090506060612c056124f7565b9050805160001415612c1957509050611596565b815115612cda5780826040516020018083805190602001908083835b60208310612c545780518252601f199092019160209182019101612c35565b51815160209384036101000a600019018019909216911617905285519190930192850191508083835b60208310612c9c5780518252601f199092019160209182019101612c7d565b6001836020036101000a0380198251168184511680821785525050505050509050019250505060405160208183030381529060405292505050611596565b80612ce485613c30565b6040516020018083805190602001908083835b60208310612d165780518252601f199092019160209182019101612cf7565b51815160209384036101000a600019018019909216911617905285519190930192850191508083835b60208310612d5e5780518252601f199092019160209182019101612d3f565b6001836020036101000a0380198251168184511680821785525050505050509050019250505060405160208183030381529060405292505050919050565b60005b815181101561166257612dc4828281518110612db757fe5b6020026020010151612e96565b600101612d9f565b6000818152601060209081526040918290208054835181840281018401909452808452606093849360018401928491830182828015612e2a57602002820191906000526020600020905b815481526020019060010190808311612e16575b5050505050915080805480602002602001604051908101604052809291908181526020018280548015612e8657602002820191906000526020600020905b81546001600160a01b03168152600190910190602001808311612e68575b5050505050905091509150915091565b60145460ff1615612ee1576040805162461bcd60e51b815260206004820152601060248201526f13dc195b995c881a5cc81b1bd8dad95960821b604482015290519081900360640190fd5b6000818152600f60205260409020600a015461010090046001600160a01b031615612f53576040805162461bcd60e51b815260206004820152601760248201527f5061636b2077617320616c726561647920626f75676874000000000000000000604482015290519081900360640190fd5b6000818152600f6020526040902060060154612faa576040805162461bcd60e51b8152602060048201526011602482015270141858dac81a185cc81d1bc8195e1a5cdd607a1b604482015290519081900360640190fd5b6000612fb5826125c6565b600b5460408051636eb1769f60e11b8152336004820152306024820152905192935083926001600160a01b039092169163dd62ed3e91604480820192602092909190829003018186803b15801561300b57600080fd5b505afa15801561301f573d6000803e3d6000fd5b505050506040513d602081101561303557600080fd5b505110156130745760405162461bcd60e51b815260040180806020018281038252604f815260200180614b65604f913960600191505060405180910390fd5b33613080818484613cf4565b60158054600101905560005b6000848152600f60205260409020600101548110156130fb57336000818152600c60209081526040808320888452600f835281842060020154860184528252808320805460ff19166001908117909155938352600d82528220805480850182559083529120018290550161308c565b506000838152600f6020526040808220600a018054610100600160a81b0319166101006001600160a01b03861690810291909117909155905185927f0c858281857728a99873d7eecba476650fcec02213b05ffc7b6205e05b45b0ff91a3505050565b60145460ff1681565b60125481565b6001600160a01b03918216600090815260066020908152604080832093909416825291909152205460ff1690565b60155481565b6000546001600160a01b031633146131b857600080fd5b6000828152600f60205260409020548214613210576040805162461bcd60e51b8152602060048201526013602482015272141858dac8191bd95cc81b9bdd08195e1a5cdd606a1b604482015290519081900360640190fd5b613218614929565b6000838152600f6020908152604091829020825161018081018452815481526001820154818401526002820154818501526003820154606082015260048201805485518186028101860190965280865291949293608086019392908301828280156132a257602002820191906000526020600020905b81548152602001906001019080831161328e575b505050505081526020016005820180548060200260200160405190810160405280929190818152602001828054801561330457602002820191906000526020600020905b81546001600160a01b031681526001909101906020018083116132e6575b5050509183525050600682015460208083019190915260078301805460408051601f600260001961010060018716150201909416939093049283018590048502810185018252828152940193928301828280156133a25780601f10613377576101008083540402835291602001916133a2565b820191906000526020600020905b81548152906001019060200180831161338557829003601f168201915b505050918352505060088201805460408051602060026001851615610100026000190190941693909304601f81018490048402820184019092528181529382019392918301828280156134365780601f1061340b57610100808354040283529160200191613436565b820191906000526020600020905b81548152906001019060200180831161341957829003601f168201915b505050918352505060098201805460408051602060026001851615610100026000190190941693909304601f81018490048402820184019092528181529382019392918301828280156134ca5780601f1061349f576101008083540402835291602001916134ca565b820191906000526020600020905b8154815290600101906020018083116134ad57829003601f168201915b5050509183525050600a9182015460ff81161515602080840191909152610100918290046001600160a01b039081166040948501526000898152600f9092529281209093018054610100600160a81b0319169287169091029190911790556015805460010190559091505b6000848152600f60205260409020600101548110156135ad576001600160a01b0383166000818152600c60209081526040808320888452600f835281842060020154860184528252808320805460ff19166001908117909155938352600d825282208054808501825590835291200182905501613535565b5060405183906001600160a01b038416907f0c858281857728a99873d7eecba476650fcec02213b05ffc7b6205e05b45b0ff90600090a3505050565b6000546001600160a01b0316331461360057600080fd5b6000818152600f6020526040902060030154421061365c576040805162461bcd60e51b815260206004820152601460248201527353616c6520697320616c7265616479206c69766560601b604482015290519081900360640190fd5b6000818152600f60205260408120818155600181018290556002810182905560038101829055906136906004830182614ac8565b61369e600583016000614ac8565b60068201600090556007820160006136b69190614ae6565b6136c4600883016000614ae6565b6136d2600983016000614ae6565b50600a0180546001600160a81b031916905560405181907fc02722c9e8790b48040a1db93c8b8e288fa395ffeed86c32215412ec047fd89290600090a250565b6000546001600160a01b0316331461372957600080fd5b6001600160a01b03811661373c57600080fd5b600080546040516001600160a01b03808516939216917f8be0079c531659141344cd1fd0a4f28419497f9722a3daafe3b4186f6b6457e091a3600080546001600160a01b0319166001600160a01b0392909216919091179055565b6000546001600160a01b031633146137ae57600080fd5b6014805460ff19166001179055565b6000611ca960038363ffffffff6140e516565b3390565b600081815260056020526040902080546001600160a01b0319166001600160a01b0384169081179091558190613809826124ba565b6001600160a01b03167f8c5be1e5ebec7d5bd14f71427d1e84f3dd0314c0f7b2291e5b200ac8c7c3b92560405160405180910390a45050565b61384b826137bd565b6138865760405162461bcd60e51b815260040180806020018281038252602c815260200180614d82602c913960400191505060405180910390fd5b6000828152600960209081526040909120825161179e92840190614995565b6000611ca9826140f1565b60006138bb826137bd565b6138f65760405162461bcd60e51b815260040180806020018281038252602c815260200180614c5c602c913960400191505060405180910390fd5b6000613901836124ba565b9050806001600160a01b0316846001600160a01b0316148061393c5750836001600160a01b031661393184611666565b6001600160a01b0316145b8061394c575061394c818561316d565b949350505050565b826001600160a01b0316613967826124ba565b6001600160a01b0316146139ac5760405162461bcd60e51b8152600401808060200182810382526029815260200180614de06029913960400191505060405180910390fd5b6001600160a01b0382166139f15760405162461bcd60e51b8152600401808060200182810382526024815260200180614c086024913960400191505060405180910390fd5b6139fc83838361179e565b613a076000826137d4565b6001600160a01b0383166000908152600260205260409020613a2f908263ffffffff6140f516565b506001600160a01b0382166000908152600260205260409020613a58908263ffffffff61410116565b50613a6b6003828463ffffffff61410d16565b5080826001600160a01b0316846001600160a01b03167fddf252ad1be2c89b69c2b068fc378daa952ba7f163c4a11628f55a4df523b3ef60405160405180910390a4505050565b6000611ca68383614123565b6000808080613acd8686614187565b9097909650945050505050565b805161166290600a906020840190614995565b6000613afa848484614202565b90505b9392505050565b600082613b1357506000611ca9565b82820282848281613b2057fe5b0414611ca65760405162461bcd60e51b8152600401808060200182810382526021815260200180614d356021913960400191505060405180910390fd5b6000808211613bb3576040805162461bcd60e51b815260206004820152601a60248201527f536166654d6174683a206469766973696f6e206279207a65726f000000000000604482015290519081900360640190fd5b818381613bbc57fe5b049392505050565b6116628282604051806020016040528060008152506142cc565b613be9848484613954565b613bf58484848461431e565b612b135760405162461bcd60e51b8152600401808060200182810382526032815260200180614bd66032913960400191505060405180910390fd5b606081613c5557506040805180820190915260018152600360fc1b6020820152611596565b8160005b8115613c6d57600101600a82049150613c59565b6060816040519080825280601f01601f191660200182016040528015613c9a576020820181803883390190505b50859350905060001982015b8315613ceb57600a840660300160f81b82828060019003935081518110613cc957fe5b60200101906001600160f81b031916908160001a905350600a84049350613ca6565b50949350505050565b613cfc614929565b6000838152600f602090815260409182902082516101808101845281548152600182015481840152600282015481850152600382015460608201526004820180548551818602810186019096528086529194929360808601939290830182828015613d8657602002820191906000526020600020905b815481526020019060010190808311613d72575b5050505050815260200160058201805480602002602001604051908101604052809291908181526020018280548015613de857602002820191906000526020600020905b81546001600160a01b03168152600190910190602001808311613dca575b5050509183525050600682015460208083019190915260078301805460408051601f60026000196101006001871615020190941693909304928301859004850281018501825282815294019392830182828015613e865780601f10613e5b57610100808354040283529160200191613e86565b820191906000526020600020905b815481529060010190602001808311613e6957829003601f168201915b505050918352505060088201805460408051602060026001851615610100026000190190941693909304601f8101849004840282018401909252818152938201939291830182828015613f1a5780601f10613eef57610100808354040283529160200191613f1a565b820191906000526020600020905b815481529060010190602001808311613efd57829003601f168201915b505050918352505060098201805460408051602060026001851615610100026000190190941693909304601f8101849004840282018401909252818152938201939291830182828015613fae5780601f10613f8357610100808354040283529160200191613fae565b820191906000526020600020905b815481529060010190602001808311613f9157829003601f168201915b5050509183525050600a919091015460ff81161515602083015261010090046001600160a01b0316604090910152905060005b8160a00151518110156140de57600b5460a083015180516001600160a01b03909216916323b872dd9188918590811061401657fe5b60200260200101516064878760800151878151811061403157fe5b6020026020010151028161404157fe5b046040518463ffffffff1660e01b815260040180846001600160a01b03166001600160a01b03168152602001836001600160a01b03166001600160a01b031681526020018281526020019350505050602060405180830381600087803b1580156140aa57600080fd5b505af11580156140be573d6000803e3d6000fd5b505050506040513d60208110156140d457600080fd5b5050600101613fe1565b5050505050565b6000611ca6838361449e565b5490565b6000611ca683836144b6565b6000611ca6838361457c565b6000613afa84846001600160a01b0385166145c6565b815460009082106141655760405162461bcd60e51b8152600401808060200182810382526022815260200180614bb46022913960400191505060405180910390fd5b82600001828154811061417457fe5b9060005260206000200154905092915050565b8154600090819083106141cb5760405162461bcd60e51b8152600401808060200182810382526022815260200180614d136022913960400191505060405180910390fd5b60008460000184815481106141dc57fe5b906000526020600020906002020190508060000154816001015492509250509250929050565b6000828152600184016020526040812054828161429d5760405162461bcd60e51b81526004018080602001828103825283818151815260200191508051906020019080838360005b8381101561426257818101518382015260200161424a565b50505050905090810190601f16801561428f5780820380516001836020036101000a031916815260200191505b509250505060405180910390fd5b508460000160018203815481106142b057fe5b9060005260206000209060020201600101549150509392505050565b6142d6838361465d565b6142e3600084848461431e565b61179e5760405162461bcd60e51b8152600401808060200182810382526032815260200180614bd66032913960400191505060405180910390fd5b6000614332846001600160a01b0316614797565b61433e5750600161394c565b6060614464630a85bd0160e11b6143536137d0565b88878760405160240180856001600160a01b03166001600160a01b03168152602001846001600160a01b03166001600160a01b0316815260200183815260200180602001828103825283818151815260200191508051906020019080838360005b838110156143cc5781810151838201526020016143b4565b50505050905090810190601f1680156143f95780820380516001836020036101000a031916815260200191505b5095505050505050604051602081830303815290604052906001600160e01b0319166020820180516001600160e01b038381831617835250505050604051806060016040528060328152602001614bd6603291396001600160a01b038816919063ffffffff61479d16565b9050600081806020019051602081101561447d57600080fd5b50516001600160e01b031916630a85bd0160e11b1492505050949350505050565b60009081526001919091016020526040902054151590565b6000818152600183016020526040812054801561457257835460001980830191908101906000908790839081106144e957fe5b906000526020600020015490508087600001848154811061450657fe5b60009182526020808320909101929092558281526001898101909252604090209084019055865487908061453657fe5b60019003818190600052602060002001600090559055866001016000878152602001908152602001600020600090556001945050505050611ca9565b6000915050611ca9565b6000614588838361449e565b6145be57508154600181810184556000848152602080822090930184905584548482528286019093526040902091909155611ca9565b506000611ca9565b60008281526001840160205260408120548061462b575050604080518082018252838152602080820184815286546001818101895560008981528481209551600290930290950191825591519082015586548684528188019092529290912055613afd565b8285600001600183038154811061463e57fe5b9060005260206000209060020201600101819055506000915050613afd565b6001600160a01b0382166146b8576040805162461bcd60e51b815260206004820181905260248201527f4552433732313a206d696e7420746f20746865207a65726f2061646472657373604482015290519081900360640190fd5b6146c1816137bd565b15614713576040805162461bcd60e51b815260206004820152601c60248201527f4552433732313a20746f6b656e20616c7265616479206d696e74656400000000604482015290519081900360640190fd5b61471f6000838361179e565b6001600160a01b0382166000908152600260205260409020614747908263ffffffff61410116565b5061475a6003828463ffffffff61410d16565b5060405181906001600160a01b038416906000907fddf252ad1be2c89b69c2b068fc378daa952ba7f163c4a11628f55a4df523b3ef908290a45050565b3b151590565b6060613afa8484600085856147b185614797565b614802576040805162461bcd60e51b815260206004820152601d60248201527f416464726573733a2063616c6c20746f206e6f6e2d636f6e7472616374000000604482015290519081900360640190fd5b60006060866001600160a01b031685876040518082805190602001908083835b602083106148415780518252601f199092019160209182019101614822565b6001836020036101000a03801982511681845116808217855250505050505090500191505060006040518083038185875af1925050503d80600081146148a3576040519150601f19603f3d011682016040523d82523d6000602084013e6148a8565b606091505b50915091506148b88282866148c3565b979650505050505050565b606083156148d2575081613afd565b8251156148e25782518084602001fd5b60405162461bcd60e51b815260206004820181815284516024840152845185939192839260440191908501908083836000831561426257818101518382015260200161424a565b6040518061018001604052806000815260200160008152602001600081526020016000815260200160608152602001606081526020016000815260200160608152602001606081526020016060815260200160001515815260200160006001600160a01b031681525090565b828054600181600116156101000203166002900490600052602060002090601f016020900481019282601f106149d657805160ff1916838001178555614a03565b82800160010185558215614a03579182015b82811115614a035782518255916020019190600101906149e8565b50614a0f929150614b26565b5090565b828054828255906000526020600020908101928215614a035791602002820182811115614a035782518255916020019190600101906149e8565b828054828255906000526020600020908101928215614aa2579160200282015b82811115614aa257825182546001600160a01b0319166001600160a01b03909116178255602090920191600190910190614a6d565b50614a0f929150614b40565b604051806040016040528060608152602001606081525090565b50805460008255906000526020600020908101906124499190614b26565b50805460018160011615610100020316600290046000825580601f10614b0c5750612449565b601f01602090049060005260206000209081019061244991905b61162f91905b80821115614a0f5760008155600101614b2c565b61162f91905b80821115614a0f5780546001600160a01b0319168155600101614b4656fe466972737420796f75206861766520746f20616c6c6f772074686520757365206f662074686520746f6b656e7320627920746865204f70656e65722c2075736520616c6c6f772066756e6374696f6e456e756d657261626c655365743a20696e646578206f7574206f6620626f756e64734552433732313a207472616e7366657220746f206e6f6e20455243373231526563656976657220696d706c656d656e7465724552433732313a207472616e7366657220746f20746865207a65726f20616464726573736d61726b6574706c616365446973747269627574696f6e204c656e6768747320617265206e6f74207468652073616d654552433732313a206f70657261746f7220717565727920666f72206e6f6e6578697374656e7420746f6b656e4552433732313a20617070726f76652063616c6c6572206973206e6f74206f776e6572206e6f7220617070726f76656420666f7220616c6c4552433732313a2062616c616e636520717565727920666f7220746865207a65726f20616464726573734552433732313a206f776e657220717565727920666f72206e6f6e6578697374656e7420746f6b656e456e756d657261626c654d61703a20696e646578206f7574206f6620626f756e6473536166654d6174683a206d756c7469706c69636174696f6e206f766572666c6f774552433732313a20617070726f76656420717565727920666f72206e6f6e6578697374656e7420746f6b656e4552433732314d657461646174613a2055524920736574206f66206e6f6e6578697374656e7420746f6b656e546f6b656e20776173206e6f742072656769737465726564206f72206e6f742074686520726967687466756c206f776e65724552433732313a207472616e73666572206f6620746f6b656e2074686174206973206e6f74206f776e4552433732314d657461646174613a2055524920717565727920666f72206e6f6e6578697374656e7420746f6b656e4552433732313a20617070726f76616c20746f2063757272656e74206f776e65724552433732313a207472616e736665722063616c6c6572206973206e6f74206f776e6572206e6f7220617070726f76656453756d206f6620616c6c20616d6f756e74732068617320746f20657175616c2031303073616c65446973747269627574696f6e204c656e6768747320617265206e6f74207468652073616d65a2646970667358221220ed4cc682495000c69bea0573cbe730b59f1a16c862b9bb0abd7d5912bdc38b9e64736f6c63430006020033",
  "source": "// SPDX-License-Identifier: MIT\n\npragma solidity >=0.6.0;\n\nimport \"@openzeppelin/contracts/token/ERC721/ERC721.sol\";\nimport \"@openzeppelin/contracts/token/ERC20/ERC20.sol\";\nimport \"../utils/Ownable.sol\";\n\ncontract OpenerRealFvr is  Ownable, ERC721 {\n\n    using SafeMath for uint256;\n\n    ERC20 public _purchaseToken;\n    // Mapping from address to bool, if egg was already claimed\n    // The hash is about the userId and the nftIds array\n    mapping(address => mapping(uint256 => bool)) public registeredIDs;\n    mapping(address => uint256[]) public registeredIDsArray;\n    mapping(uint256 => bool) public alreadyMinted;\n    \n    mapping(uint256 => Pack) public packs;\n    mapping(uint256 => MarketplaceDistribution) private marketplaceDistributions;\n\n    uint256 public packIncrementId = 1;\n    uint256 public lastNFTID = 1;\n\n    event PackCreated(uint256 packId, string indexed serie, string indexed packType, string indexed drop);\n    event PackBought(address indexed by, uint256 indexed packId);\n    event PackOpened(address indexed by, uint256 indexed packId);\n    event PackDelete(uint256 indexed packId);\n    event NftMinted(uint256 indexed nftId);\n\n    uint256 public _realFvrTokenPriceUSD = 0;\n\n    bool public _closed = false;\n    uint256 public _openedPacks = 0;\n\n    struct Pack {\n        uint256 packId;\n        uint256 nftAmount;\n        uint256 initialNFTId;\n        uint256 saleStart;\n        uint256[] saleDistributionAmounts;\n        address[] saleDistributionAddresses;\n        // Marketplace\n        // Catalog info\n        uint256 price; // in usd (1 = $0.000001)\n        string serie;\n        string drop;\n        string packType;\n        bool opened;\n        //external info\n        address buyer;\n    }\n\n    struct MarketplaceDistribution {\n        uint256[] marketplaceDistributionAmounts;\n        address[] marketplaceDistributionAddresses;\n    }\n  \n    constructor (string memory name, string memory symbol, ERC20 _purchaseToken) public ERC721(name, symbol) {}\n\n    function _distributePackShares(address from, uint256 packId, uint256 amount) internal {\n        //transfer of fee share\n        Pack memory pack = packs[packId];\n\n        for(uint i = 0; i < pack.saleDistributionAddresses.length; i++){\n            //transfer of stake share\n            _purchaseToken.transferFrom(\n                from,\n                pack.saleDistributionAddresses[i],\n                (pack.saleDistributionAmounts[i] * amount) / 100\n            );\n        }\n    }\n\n    function setTokenURI(uint256 tokenId, string memory uri) public onlyOwner {\n        _setTokenURI(tokenId, uri);\n    }\n\n    function setBaseURI(string memory baseURI) public onlyOwner {\n        _setBaseURI(baseURI);\n    }\n\n\n    function exists(uint256 tokenId) public view returns (bool) {\n        return _exists(tokenId);\n    }\n    \n    function getRegisteredIDs(address _address) public view returns(uint256[] memory) {\n        return registeredIDsArray[_address];\n    }\n\n    function getPackbyId(uint256 _packId) public returns (uint256,  uint256, uint256, string memory, string memory, string memory, address, \n        address[] memory, uint256[] memory, bool)  {\n        Pack memory pack = packs[_packId];\n        return (\n            pack.packId, pack.initialNFTId, pack.price, pack.serie, pack.drop, pack.packType, pack.buyer,\n            pack.saleDistributionAddresses, pack.saleDistributionAmounts, pack.opened);\n    }\n\n    function getMarketplaceDistributionForERC721(uint256 _tokenId) public view returns(uint256[] memory, address[] memory) {\n        return (marketplaceDistributions[_tokenId].marketplaceDistributionAmounts, marketplaceDistributions[_tokenId].marketplaceDistributionAddresses);\n    }\n\n    function getPackPriceInFVR(uint256 packId) public returns (uint256) {\n        return packs[packId].price.mul(_realFvrTokenPriceUSD).div(10**3);\n    }\n\n    function buyPack(uint256 packId) public {\n        require(!_closed, \"Opener is locked\");\n        require(packs[packId].buyer == address(0), \"Pack was already bought\");\n        require(packs[packId].price != 0, \"Pack has to exist\");\n\n        uint256 price = getPackPriceInFVR(packId);\n\n        require(_purchaseToken.allowance(msg.sender, address(this)) >= price, \"First you have to allow the use of the tokens by the Opener, use allow function\");\n\n        address from = msg.sender;\n\n        _distributePackShares(from, packId, price);\n\n        _openedPacks += 1;\n\n        for(uint i = 0; i < packs[packId].nftAmount; i++){\n            registeredIDs[msg.sender][packs[packId].initialNFTId+i] = true;\n            registeredIDsArray[msg.sender].push(i);\n        }\n\n        packs[packId].buyer = from;\n\n        emit PackBought(from, packId);\n    }\n\n    function buyPacks(uint256[] memory packIds) public {\n        for(uint i = 0; i < packIds.length; i++){\n            buyPack(packIds[i]);\n        } \n    }\n\n    function openPack(uint256 packId) public {\n        require(!_closed, \"Opener is locked\");\n        require(!packs[packId].opened, \"Opened Already\");\n        require(packs[packId].buyer != address(0), \"Pack was not bought\");\n        require(packs[packId].buyer == msg.sender, \"You were not the pack buyer\");\n\n        packs[packId].opened = true;\n        \n        emit PackOpened(msg.sender, packId);\n    }\n\n    function openPacks(uint256[] memory packIds) public {\n        for(uint i = 0; i < packIds.length; i++){\n            openPack(packIds[i]);\n        } \n    }\n\n    function createPack(uint256 nftAmount, uint256 price /* 1 = ($1) */, \n        string memory serie, string memory packType, string memory drop, uint256 saleStart,\n        address[] memory saleDistributionAddresses,  uint256[] memory saleDistributionAmounts, /* [1;98;1]*/\n        address[] memory marketplaceDistributionAddresses,  uint256[] memory marketplaceDistributionAmounts /* [1;98;1]*/\n    ) public onlyOwner {\n\n        require(saleDistributionAmounts.length == saleDistributionAddresses.length, \"saleDistribution Lenghts are not the same\");\n        uint256 totalFees = 0;\n        for(uint i = 0; i < saleDistributionAddresses.length; i++){\n            totalFees += saleDistributionAmounts[i];\n        }\n        require(totalFees == 100, \"Sum of all amounts has to equal 100\");\n\n\n        require(marketplaceDistributionAddresses.length == marketplaceDistributionAmounts.length, \"marketplaceDistribution Lenghts are not the same\");\n\n        Pack memory pack;\n        pack.packId = packIncrementId;\n        pack.nftAmount = nftAmount;\n        pack.saleStart = saleStart;\n        pack.initialNFTId = lastNFTID;\n        pack.price = price;\n        pack.serie = serie;\n        pack.drop = drop;\n        pack.saleDistributionAddresses = saleDistributionAddresses;\n        pack.saleDistributionAmounts = saleDistributionAmounts;\n        pack.packType = packType;\n        packs[packIncrementId] = pack;\n\n        \n        for(uint j = 1; j <= nftAmount; j++){\n            // Marketplace Distributions\n            MarketplaceDistribution memory marketplaceDistribution = MarketplaceDistribution(marketplaceDistributionAmounts, marketplaceDistributionAddresses);\n            marketplaceDistributions[lastNFTID+j] = marketplaceDistribution;\n        }\n\n        emit PackCreated(packIncrementId, serie, packType, drop);\n        lastNFTID = lastNFTID + nftAmount;\n        packIncrementId = packIncrementId+1;\n    }\n\n     function offerPack(uint256 packId, address receivingAddress) public onlyOwner {\n        require(packs[packId].packId == packId, \"Pack does not exist\");\n        Pack memory pack = packs[packId];\n        packs[packId].buyer = receivingAddress;\n\n        _openedPacks += 1;\n\n        for(uint i = 0; i < packs[packId].nftAmount; i++){\n            registeredIDs[receivingAddress][packs[packId].initialNFTId+i] = true;\n            registeredIDsArray[receivingAddress].push(i);\n        }\n        emit PackBought(receivingAddress, packId);\n    }\n\n    function editPackInfo(uint256 _packId, uint256 _saleStart, string memory serie, string memory packType, string memory drop, uint256 price) public onlyOwner {\n        require(block.timestamp < packs[_packId].saleStart, \"Sale is already live\");\n        packs[_packId].saleStart = _saleStart;\n        packs[_packId].serie = serie;\n        packs[_packId].packType = packType;\n        packs[_packId].drop = drop;\n        packs[_packId].price = price;\n    }\n\n    function deletePackById(uint256 packId) public onlyOwner {\n        require(block.timestamp < packs[packId].saleStart, \"Sale is already live\");\n        delete packs[packId];\n        emit PackDelete(packId);\n    }\n\n    function mint(uint256 tokenIdToMint) public {\n        require(registeredIDs[msg.sender][tokenIdToMint], \"Token was not registered or not the rightful owner\");\n        require(!alreadyMinted[tokenIdToMint], \"Already minted\");\n\n        alreadyMinted[tokenIdToMint] = true;\n        _safeMint(msg.sender, tokenIdToMint);\n        emit NftMinted(tokenIdToMint);\n    }\n\n    function setPurchaseTokenAddress(ERC20 purchaseToken) public onlyOwner {\n        _purchaseToken = purchaseToken;\n    }\n\n    function setTokenPriceInUSD(uint256 newPrice /* 1*10e18 -> 1 FVR = $1; 1*10e17 -> 0.1 FVR = $1  */) public onlyOwner {\n        require(newPrice != 0, \"newPrice has to higher than 0\");\n        _realFvrTokenPriceUSD = newPrice;\n    }\n\n    function lock() public onlyOwner {\n        _closed = true;\n    }\n\n    function unlock() public onlyOwner {\n        _closed = false;\n    }\n}\n",
  "sourcePath": "/Users/ruipedro/Desktop/projects/Bepro/@bepro-js/contracts/custom/OpenerRealFvr.sol",
  "compiler": {
    "name": "solc",
    "version": "0.6.2+commit.bacdbe57.Emscripten.clang"
  },
  "schemaVersion": "3.0.20",
  "updatedAt": "2021-08-24T11:40:26.143Z",
  "devdoc": {
    "methods": {
      "approve(address,uint256)": {
        "details": "See {IERC721-approve}."
      },
      "balanceOf(address)": {
        "details": "See {IERC721-balanceOf}."
      },
      "baseURI()": {
        "details": "Returns the base URI set via {_setBaseURI}. This will be automatically added as a prefix in {tokenURI} to each token's URI, or to the token ID if no specific URI is set for that token ID."
      },
      "getApproved(uint256)": {
        "details": "See {IERC721-getApproved}."
      },
      "isApprovedForAll(address,address)": {
        "details": "See {IERC721-isApprovedForAll}."
      },
      "name()": {
        "details": "See {IERC721Metadata-name}."
      },
      "ownerOf(uint256)": {
        "details": "See {IERC721-ownerOf}."
      },
      "safeTransferFrom(address,address,uint256)": {
        "details": "See {IERC721-safeTransferFrom}."
      },
      "safeTransferFrom(address,address,uint256,bytes)": {
        "details": "See {IERC721-safeTransferFrom}."
      },
      "setApprovalForAll(address,bool)": {
        "details": "See {IERC721-setApprovalForAll}."
      },
      "supportsInterface(bytes4)": {
        "details": "See {IERC165-supportsInterface}.     * Time complexity O(1), guaranteed to always use less than 30 000 gas."
      },
      "symbol()": {
        "details": "See {IERC721Metadata-symbol}."
      },
      "tokenByIndex(uint256)": {
        "details": "See {IERC721Enumerable-tokenByIndex}."
      },
      "tokenOfOwnerByIndex(address,uint256)": {
        "details": "See {IERC721Enumerable-tokenOfOwnerByIndex}."
      },
      "tokenURI(uint256)": {
        "details": "See {IERC721Metadata-tokenURI}."
      },
      "totalSupply()": {
        "details": "See {IERC721Enumerable-totalSupply}."
      },
      "transferFrom(address,address,uint256)": {
        "details": "See {IERC721-transferFrom}."
      },
      "transferOwnership(address)": {
        "details": "Allows the current owner to transfer control of the contract to a newOwner.",
        "params": {
          "newOwner": "The address to transfer ownership to."
        }
      }
    }
  },
  "userdoc": {
    "methods": {}
  }
}