{
  "contractName": "Opener",
  "abi": [
    {
      "inputs": [
        {
          "internalType": "contract ERC20",
          "name": "purchaseToken",
          "type": "address"
        },
        {
          "internalType": "address",
          "name": "baseFeeAddress",
          "type": "address"
        },
        {
          "internalType": "address",
          "name": "feeAddress",
          "type": "address"
        },
        {
          "internalType": "address",
          "name": "otherAddress",
          "type": "address"
        },
        {
          "internalType": "uint256",
          "name": "limitedAmount",
          "type": "uint256"
        }
      ],
      "stateMutability": "nonpayable",
      "type": "constructor"
    },
    {
      "anonymous": false,
      "inputs": [
        {
          "indexed": true,
          "internalType": "address",
          "name": "from",
          "type": "address"
        },
        {
          "indexed": false,
          "internalType": "uint256",
          "name": "amount",
          "type": "uint256"
        },
        {
          "indexed": false,
          "internalType": "uint256",
          "name": "openedPacks",
          "type": "uint256"
        }
      ],
      "name": "Opening",
      "type": "event"
    },
    {
      "anonymous": false,
      "inputs": [
        {
          "indexed": true,
          "internalType": "address",
          "name": "previousOwner",
          "type": "address"
        },
        {
          "indexed": true,
          "internalType": "address",
          "name": "newOwner",
          "type": "address"
        }
      ],
      "name": "OwnershipTransferred",
      "type": "event"
    },
    {
      "inputs": [],
      "name": "MAX_PURCHASE",
      "outputs": [
        {
          "internalType": "uint256",
          "name": "",
          "type": "uint256"
        }
      ],
      "stateMutability": "view",
      "type": "function"
    },
    {
      "inputs": [],
      "name": "_baseFeeAddress",
      "outputs": [
        {
          "internalType": "address",
          "name": "",
          "type": "address"
        }
      ],
      "stateMutability": "view",
      "type": "function"
    },
    {
      "inputs": [],
      "name": "_baseFeeShare",
      "outputs": [
        {
          "internalType": "uint256",
          "name": "",
          "type": "uint256"
        }
      ],
      "stateMutability": "view",
      "type": "function"
    },
    {
      "inputs": [],
      "name": "_closed",
      "outputs": [
        {
          "internalType": "bool",
          "name": "",
          "type": "bool"
        }
      ],
      "stateMutability": "view",
      "type": "function"
    },
    {
      "inputs": [],
      "name": "_currentTokenId",
      "outputs": [
        {
          "internalType": "uint256",
          "name": "",
          "type": "uint256"
        }
      ],
      "stateMutability": "view",
      "type": "function"
    },
    {
      "inputs": [],
      "name": "_feeAddress",
      "outputs": [
        {
          "internalType": "address",
          "name": "",
          "type": "address"
        }
      ],
      "stateMutability": "view",
      "type": "function"
    },
    {
      "inputs": [],
      "name": "_feeShare",
      "outputs": [
        {
          "internalType": "uint256",
          "name": "",
          "type": "uint256"
        }
      ],
      "stateMutability": "view",
      "type": "function"
    },
    {
      "inputs": [],
      "name": "_isLimited",
      "outputs": [
        {
          "internalType": "bool",
          "name": "",
          "type": "bool"
        }
      ],
      "stateMutability": "view",
      "type": "function"
    },
    {
      "inputs": [],
      "name": "_limitedAmount",
      "outputs": [
        {
          "internalType": "uint256",
          "name": "",
          "type": "uint256"
        }
      ],
      "stateMutability": "view",
      "type": "function"
    },
    {
      "inputs": [],
      "name": "_openedPacks",
      "outputs": [
        {
          "internalType": "uint256",
          "name": "",
          "type": "uint256"
        }
      ],
      "stateMutability": "view",
      "type": "function"
    },
    {
      "inputs": [],
      "name": "_otherAddress",
      "outputs": [
        {
          "internalType": "address",
          "name": "",
          "type": "address"
        }
      ],
      "stateMutability": "view",
      "type": "function"
    },
    {
      "inputs": [],
      "name": "_otherShare",
      "outputs": [
        {
          "internalType": "uint256",
          "name": "",
          "type": "uint256"
        }
      ],
      "stateMutability": "view",
      "type": "function"
    },
    {
      "inputs": [],
      "name": "_pricePerPack",
      "outputs": [
        {
          "internalType": "uint256",
          "name": "",
          "type": "uint256"
        }
      ],
      "stateMutability": "view",
      "type": "function"
    },
    {
      "inputs": [],
      "name": "_purchaseToken",
      "outputs": [
        {
          "internalType": "contract ERC20",
          "name": "",
          "type": "address"
        }
      ],
      "stateMutability": "view",
      "type": "function"
    },
    {
      "inputs": [
        {
          "internalType": "uint256",
          "name": "",
          "type": "uint256"
        }
      ],
      "name": "alreadyMinted",
      "outputs": [
        {
          "internalType": "bool",
          "name": "",
          "type": "bool"
        }
      ],
      "stateMutability": "view",
      "type": "function"
    },
    {
      "inputs": [],
      "name": "owner",
      "outputs": [
        {
          "internalType": "address",
          "name": "",
          "type": "address"
        }
      ],
      "stateMutability": "view",
      "type": "function"
    },
    {
      "inputs": [
        {
          "internalType": "address",
          "name": "",
          "type": "address"
        },
        {
          "internalType": "uint256",
          "name": "",
          "type": "uint256"
        }
      ],
      "name": "registeredIDs",
      "outputs": [
        {
          "internalType": "bool",
          "name": "",
          "type": "bool"
        }
      ],
      "stateMutability": "view",
      "type": "function"
    },
    {
      "inputs": [
        {
          "internalType": "address",
          "name": "",
          "type": "address"
        },
        {
          "internalType": "uint256",
          "name": "",
          "type": "uint256"
        }
      ],
      "name": "registeredIDsArray",
      "outputs": [
        {
          "internalType": "uint256",
          "name": "",
          "type": "uint256"
        }
      ],
      "stateMutability": "view",
      "type": "function"
    },
    {
      "inputs": [
        {
          "internalType": "address",
          "name": "newOwner",
          "type": "address"
        }
      ],
      "name": "transferOwnership",
      "outputs": [],
      "stateMutability": "nonpayable",
      "type": "function"
    },
    {
      "inputs": [
        {
          "internalType": "uint256",
          "name": "feeShare",
          "type": "uint256"
        },
        {
          "internalType": "uint256",
          "name": "otherShare",
          "type": "uint256"
        }
      ],
      "name": "setShares",
      "outputs": [],
      "stateMutability": "nonpayable",
      "type": "function"
    },
    {
      "inputs": [
        {
          "internalType": "contract ERC20",
          "name": "purchaseToken",
          "type": "address"
        }
      ],
      "name": "setPurchaseTokenAddress",
      "outputs": [],
      "stateMutability": "nonpayable",
      "type": "function"
    },
    {
      "inputs": [
        {
          "internalType": "uint256",
          "name": "newPrice",
          "type": "uint256"
        }
      ],
      "name": "setPricePerPack",
      "outputs": [],
      "stateMutability": "nonpayable",
      "type": "function"
    },
    {
      "inputs": [
        {
          "internalType": "address",
          "name": "feeAddress",
          "type": "address"
        }
      ],
      "name": "setFeeAddress",
      "outputs": [],
      "stateMutability": "nonpayable",
      "type": "function"
    },
    {
      "inputs": [
        {
          "internalType": "address",
          "name": "otherAddress",
          "type": "address"
        }
      ],
      "name": "setOtherAddress",
      "outputs": [],
      "stateMutability": "nonpayable",
      "type": "function"
    },
    {
      "inputs": [],
      "name": "lock",
      "outputs": [],
      "stateMutability": "nonpayable",
      "type": "function"
    },
    {
      "inputs": [],
      "name": "unlock",
      "outputs": [],
      "stateMutability": "nonpayable",
      "type": "function"
    }
  ],
  "bytecode": "0x60806040526000600460146101000a81548160ff0219169083151502179055506103e8600555670de0b6b3a76400006007556001600b556063600c556000600d55600a600e556000600f60006101000a81548160ff021916908315150217905550600060105534801561007157600080fd5b50604051611062380380611062833981810160405260a081101561009457600080fd5b810190808051906020019092919080519060200190929190805190602001909291908051906020019092919080519060200190929190505050336000806101000a81548173ffffffffffffffffffffffffffffffffffffffff021916908373ffffffffffffffffffffffffffffffffffffffff16021790555084600160006101000a81548173ffffffffffffffffffffffffffffffffffffffff021916908373ffffffffffffffffffffffffffffffffffffffff16021790555083600260006101000a81548173ffffffffffffffffffffffffffffffffffffffff021916908373ffffffffffffffffffffffffffffffffffffffff16021790555082600360006101000a81548173ffffffffffffffffffffffffffffffffffffffff021916908373ffffffffffffffffffffffffffffffffffffffff16021790555081600460006101000a81548173ffffffffffffffffffffffffffffffffffffffff021916908373ffffffffffffffffffffffffffffffffffffffff16021790555060008114610235576001600460146101000a81548160ff0219169083151502179055505b806006819055505050505050610e12806102506000396000f3fe608060405234801561001057600080fd5b50600436106101ab576000357c0100000000000000000000000000000000000000000000000000000000900480638da5cb5b116100fb578063c963483c116100b4578063f24a9e4e1161008e578063f24a9e4e1461063e578063f2fde38b1461065c578063f4d36986146106a0578063f83d08ba146106e4576101ab565b8063c963483c146105e0578063dd7c5e54146105fe578063eb8800d014610620576101ab565b80638da5cb5b146104b05780639456b232146104fa57806398bdd80314610544578063a69df4b514610572578063b7365f1f1461057c578063c3a9896d146105c2576101ab565b80632f80f750116101685780637146bd08116101425780637146bd0814610412578063759b2b3c14610430578063790411be1461044e5780638705fcd41461046c576101ab565b80632f80f7501461036057806353facd01146103aa57806369c7d8a3146103c8576101ab565b80630119b740146101b05780630135f740146101d257806301d243a61461021c5780631e14a5331461027e578063298489d2146102e45780632aca3e7d14610328575b600080fd5b6101b86106ee565b604051808215151515815260200191505060405180910390f35b6101da610701565b604051808273ffffffffffffffffffffffffffffffffffffffff1673ffffffffffffffffffffffffffffffffffffffff16815260200191505060405180910390f35b6102686004803603604081101561023257600080fd5b81019080803573ffffffffffffffffffffffffffffffffffffffff16906020019092919080359060200190929190505050610727565b6040518082815260200191505060405180910390f35b6102ca6004803603604081101561029457600080fd5b81019080803573ffffffffffffffffffffffffffffffffffffffff16906020019092919080359060200190929190505050610755565b604051808215151515815260200191505060405180910390f35b610326600480360360208110156102fa57600080fd5b81019080803573ffffffffffffffffffffffffffffffffffffffff169060200190929190505050610784565b005b61035e6004803603604081101561033e57600080fd5b810190808035906020019092919080359060200190929190505050610821565b005b610368610908565b604051808273ffffffffffffffffffffffffffffffffffffffff1673ffffffffffffffffffffffffffffffffffffffff16815260200191505060405180910390f35b6103b261092e565b6040518082815260200191505060405180910390f35b6103d0610934565b604051808273ffffffffffffffffffffffffffffffffffffffff1673ffffffffffffffffffffffffffffffffffffffff16815260200191505060405180910390f35b61041a61095a565b6040518082815260200191505060405180910390f35b610438610960565b6040518082815260200191505060405180910390f35b610456610966565b6040518082815260200191505060405180910390f35b6104ae6004803603602081101561048257600080fd5b81019080803573ffffffffffffffffffffffffffffffffffffffff16906020019092919050505061096c565b005b6104b8610a09565b604051808273ffffffffffffffffffffffffffffffffffffffff1673ffffffffffffffffffffffffffffffffffffffff16815260200191505060405180910390f35b610502610a2e565b604051808273ffffffffffffffffffffffffffffffffffffffff1673ffffffffffffffffffffffffffffffffffffffff16815260200191505060405180910390f35b6105706004803603602081101561055a57600080fd5b8101908080359060200190929190505050610a54565b005b61057a610ab7565b005b6105a86004803603602081101561059257600080fd5b8101908080359060200190929190505050610b2d565b604051808215151515815260200191505060405180910390f35b6105ca610b4d565b6040518082815260200191505060405180910390f35b6105e8610b53565b6040518082815260200191505060405180910390f35b610606610b59565b604051808215151515815260200191505060405180910390f35b610628610b6c565b6040518082815260200191505060405180910390f35b610646610b72565b6040518082815260200191505060405180910390f35b61069e6004803603602081101561067257600080fd5b81019080803573ffffffffffffffffffffffffffffffffffffffff169060200190929190505050610b78565b005b6106e2600480360360208110156106b657600080fd5b81019080803573ffffffffffffffffffffffffffffffffffffffff169060200190929190505050610cc9565b005b6106ec610d66565b005b600460149054906101000a900460ff1681565b600360009054906101000a900473ffffffffffffffffffffffffffffffffffffffff1681565b6009602052816000526040600020818154811061074057fe5b90600052602060002001600091509150505481565b60086020528160005260406000206020528060005260406000206000915091509054906101000a900460ff1681565b6000809054906101000a900473ffffffffffffffffffffffffffffffffffffffff1673ffffffffffffffffffffffffffffffffffffffff163373ffffffffffffffffffffffffffffffffffffffff16146107dd57600080fd5b80600160006101000a81548173ffffffffffffffffffffffffffffffffffffffff021916908373ffffffffffffffffffffffffffffffffffffffff16021790555050565b6000809054906101000a900473ffffffffffffffffffffffffffffffffffffffff1673ffffffffffffffffffffffffffffffffffffffff163373ffffffffffffffffffffffffffffffffffffffff161461087a57600080fd5b6064600b5483830101146108f6576040517f08c379a00000000000000000000000000000000000000000000000000000000081526004018080602001828103825260158152602001807f446f65736e27742061646420757020746f20313030000000000000000000000081525060200191505060405180910390fd5b80600d8190555081600c819055505050565b600460009054906101000a900473ffffffffffffffffffffffffffffffffffffffff1681565b600b5481565b600160009054906101000a900473ffffffffffffffffffffffffffffffffffffffff1681565b600e5481565b60065481565b60075481565b6000809054906101000a900473ffffffffffffffffffffffffffffffffffffffff1673ffffffffffffffffffffffffffffffffffffffff163373ffffffffffffffffffffffffffffffffffffffff16146109c557600080fd5b80600360006101000a81548173ffffffffffffffffffffffffffffffffffffffff021916908373ffffffffffffffffffffffffffffffffffffffff16021790555050565b6000809054906101000a900473ffffffffffffffffffffffffffffffffffffffff1681565b600260009054906101000a900473ffffffffffffffffffffffffffffffffffffffff1681565b6000809054906101000a900473ffffffffffffffffffffffffffffffffffffffff1673ffffffffffffffffffffffffffffffffffffffff163373ffffffffffffffffffffffffffffffffffffffff1614610aad57600080fd5b8060078190555050565b6000809054906101000a900473ffffffffffffffffffffffffffffffffffffffff1673ffffffffffffffffffffffffffffffffffffffff163373ffffffffffffffffffffffffffffffffffffffff1614610b1057600080fd5b6000600f60006101000a81548160ff021916908315150217905550565b600a6020528060005260406000206000915054906101000a900460ff1681565b600c5481565b60055481565b600f60009054906101000a900460ff1681565b60105481565b600d5481565b6000809054906101000a900473ffffffffffffffffffffffffffffffffffffffff1673ffffffffffffffffffffffffffffffffffffffff163373ffffffffffffffffffffffffffffffffffffffff1614610bd157600080fd5b600073ffffffffffffffffffffffffffffffffffffffff168173ffffffffffffffffffffffffffffffffffffffff161415610c0b57600080fd5b8073ffffffffffffffffffffffffffffffffffffffff166000809054906101000a900473ffffffffffffffffffffffffffffffffffffffff1673ffffffffffffffffffffffffffffffffffffffff167f8be0079c531659141344cd1fd0a4f28419497f9722a3daafe3b4186f6b6457e060405160405180910390a3806000806101000a81548173ffffffffffffffffffffffffffffffffffffffff021916908373ffffffffffffffffffffffffffffffffffffffff16021790555050565b6000809054906101000a900473ffffffffffffffffffffffffffffffffffffffff1673ffffffffffffffffffffffffffffffffffffffff163373ffffffffffffffffffffffffffffffffffffffff1614610d2257600080fd5b80600460006101000a81548173ffffffffffffffffffffffffffffffffffffffff021916908373ffffffffffffffffffffffffffffffffffffffff16021790555050565b6000809054906101000a900473ffffffffffffffffffffffffffffffffffffffff1673ffffffffffffffffffffffffffffffffffffffff163373ffffffffffffffffffffffffffffffffffffffff1614610dbf57600080fd5b6001600f60006101000a81548160ff02191690831515021790555056fea2646970667358221220530d6517eff296657c7a0a5c99cdebecc9bc07ef0ff32d73f26b644558b0130f64736f6c63430006020033",
  "source": "// SPDX-License-Identifier: MIT\n\npragma solidity >=0.6.0;\n\nimport \"@openzeppelin/contracts/token/ERC721/ERC721.sol\";\nimport \"@openzeppelin/contracts/token/ERC20/ERC20.sol\";\nimport \"./utils/Ownable.sol\";\n\ncontract Opener is  Ownable {\n    using SafeMath for uint256;\n\n    ERC20 public _purchaseToken;\n    address public _baseFeeAddress;\n    address public _feeAddress;\n    address public _otherAddress;\n    bool public _isLimited = false;\n    uint256 public _currentTokenId = 1000;\n    uint256 public _limitedAmount;\n    uint256 public _pricePerPack = 1*10**18;\n\n    // Mapping from address to bool, if egg was already claimed\n    // The hash is about the userId and the nftIds array\n    mapping(address => mapping(uint256 => bool)) public registeredIDs;\n    mapping(address => uint256[]) public registeredIDsArray;\n    mapping(uint256 => bool) public alreadyMinted;\n\n    event Opening(address indexed from, uint256 amount, uint256 openedPacks);\n\n    uint256 public _baseFeeShare = 1;\n    uint256 public _feeShare = 99;\n    uint256 public _otherShare = 0;\n    uint256 public MAX_PURCHASE = 10;\n\n    bool public _closed = false;\n    uint256 public _openedPacks = 0;\n\n    constructor(\n        ERC20 purchaseToken,\n        address baseFeeAddress,\n        address feeAddress,\n        address otherAddress,\n        uint256 limitedAmount\n    ) public {\n        _purchaseToken = purchaseToken;\n        _baseFeeAddress = baseFeeAddress;\n        _feeAddress = feeAddress;\n        _otherAddress = otherAddress;\n        if(limitedAmount != 0){\n            _isLimited = true;\n        }\n        _limitedAmount = limitedAmount;\n    }\n\n    function _openPack(uint256 amount) internal {\n        require(!_closed, \"Opener is locked\");\n        uint256 totalPrice = _pricePerPack.mul(amount);\n\n        require(_purchaseToken.allowance(msg.sender, address(this)) >= totalPrice, \"Not enough money per pack\");\n\n        address from = msg.sender;\n\n        require(amount <= MAX_PURCHASE, \"Max purchase per tx reached\");\n\n        if(_isLimited){\n            require(_limitedAmount >= _openedPacks.add(amount), \"Amount of packs not available\");\n        }\n\n        _distributePackShares(from, totalPrice);\n\n        emit Opening(from, amount, _openedPacks);\n        _openedPacks += amount;\n\n        for(uint i = _currentTokenId; i < _currentTokenId.add(amount); i++){\n            registeredIDs[msg.sender][i] = true;\n            registeredIDsArray[msg.sender].push(i);\n        }\n\n        _currentTokenId += amount;\n        _pricePerPack = _pricePerPack*109/100;\n    }\n\n    function _distributePackShares(address from, uint256 amount) internal {\n        //transfer of fee share\n        _purchaseToken.transferFrom(from, _baseFeeAddress, (amount * _baseFeeShare) / 100);\n\n        if(address(_feeShare) != address(0)){\n            //transfer of stake share\n            _purchaseToken.transferFrom(\n                from,\n                _feeAddress,\n                (amount * _feeShare) / 100\n            );\n        }\n\n        if(address(_otherAddress) != address(0)){\n            //transfer of stake share\n            _purchaseToken.transferFrom(\n                from,\n                _otherAddress,\n                (amount * _otherShare) / 100\n            );\n        }\n    }\n\n    function setShares(\n        uint256 feeShare,\n        uint256 otherShare\n    ) public onlyOwner {\n        require(\n            otherShare + feeShare + _baseFeeShare == 100,\n            \"Doesn't add up to 100\"\n        );\n\n        _otherShare = otherShare;\n        _feeShare = feeShare;\n    }\n\n\n    function setPurchaseTokenAddress(ERC20 purchaseToken) public onlyOwner {\n        _purchaseToken = purchaseToken;\n    }\n\n    function setPricePerPack(uint256 newPrice) public onlyOwner {\n        _pricePerPack = newPrice;\n    }\n\n    function setFeeAddress(address feeAddress) public onlyOwner {\n        _feeAddress = feeAddress;\n    }\n\n    function setOtherAddress(address otherAddress) public onlyOwner {\n        _otherAddress = otherAddress;\n    }\n\n    function lock() public onlyOwner {\n        _closed = true;\n    }\n\n    function unlock() public onlyOwner {\n        _closed = false;\n    }\n}\n\n// ERC721Standard made for a simple structure, owner generates himself the NFT he wants (direct minting)\ncontract ERC721Standard is ERC721, Ownable {\n\n    constructor (string memory name, string memory symbol) public ERC721(name, symbol) { }\n\n    function exists(uint256 tokenId) public view returns (bool) {\n        return _exists(tokenId);\n    }\n\n    function setTokenURI(uint256 tokenId, string memory uri) public onlyOwner {\n        _setTokenURI(tokenId, uri);\n    }\n\n    function setBaseURI(string memory baseURI) public onlyOwner {\n        _setBaseURI(baseURI);\n    }\n\n    function mint(address to, uint256 tokenId) public onlyOwner {\n        _safeMint(to, tokenId);\n    }\n\n    function mint(address to, uint256 tokenId, bytes memory _data) public onlyOwner {\n        _safeMint(to, tokenId, _data);\n    }\n}\n\n// ERC721Colectibles made for a Cryptokitties/Polkamon like structure, where an hash is given by the owner based on a purchase of a package\n// Can be limited or unlimited\ncontract ERC721Colectibles is Opener, ERC721 {\n\n    constructor (\n        string memory name, string memory symbol,\n        uint256 limitedAmount,\n        ERC20 _purchaseToken,\n        address baseFeeAddress,\n        address feeAddress,\n        address otherAddress) public ERC721(name, symbol) \n        Opener(_purchaseToken, baseFeeAddress, feeAddress, otherAddress, limitedAmount)\n    {\n    }\n\n    function exists(uint256 tokenId) public view returns (bool) {\n        return _exists(tokenId);\n    }\n\n    function setTokenURI(uint256 tokenId, string memory uri) public onlyOwner {\n        _setTokenURI(tokenId, uri);\n    }\n\n    function setBaseURI(string memory baseURI) public onlyOwner {\n        _setBaseURI(baseURI);\n    }\n\n    function mint(uint256 tokenIdToMint) public {\n        require(\n            tokenIdToMint <= _currentTokenId, \n            \"Token Id not registered\"\n        );\n\n        require(registeredIDs[msg.sender][tokenIdToMint], \"Token was not registered or not the rightful owner\");\n        require(!alreadyMinted[tokenIdToMint], \"Already minted\");\n\n        alreadyMinted[tokenIdToMint] = true;\n        _safeMint(msg.sender, tokenIdToMint);\n    }\n\n    function openPack(uint256 amount) public {\n        _openPack(amount);\n    }\n\n    function getRegisteredIDs(address _address) public view returns(uint256[] memory) {\n        return registeredIDsArray[_address];\n    }\n}",
  "sourcePath": "/Users/ruipedro/Desktop/projects/Bepro/@bepro-js/contracts/ERC721Factory.sol",
  "compiler": {
    "name": "solc",
    "version": "0.6.2+commit.bacdbe57.Emscripten.clang"
  },
  "schemaVersion": "3.0.20",
  "updatedAt": "2021-04-06T23:00:42.392Z",
  "devdoc": {
    "methods": {
      "transferOwnership(address)": {
        "details": "Allows the current owner to transfer control of the contract to a newOwner.",
        "params": {
          "newOwner": "The address to transfer ownership to."
        }
      }
    }
  },
  "userdoc": {
    "methods": {}
  }
}