{
  "contractName": "Opener",
  "abi": [
    {
      "inputs": [
        {
          "internalType": "contract ERC20",
          "name": "purchaseToken",
          "type": "address"
        },
        {
          "internalType": "address",
          "name": "baseFeeAddress",
          "type": "address"
        },
        {
          "internalType": "address",
          "name": "feeAddress",
          "type": "address"
        },
        {
          "internalType": "address",
          "name": "otherAddress",
          "type": "address"
        },
        {
          "internalType": "uint256",
          "name": "limitedAmount",
          "type": "uint256"
        }
      ],
      "stateMutability": "nonpayable",
      "type": "constructor"
    },
    {
      "anonymous": false,
      "inputs": [
        {
          "indexed": true,
          "internalType": "address",
          "name": "from",
          "type": "address"
        },
        {
          "indexed": false,
          "internalType": "uint256",
          "name": "amount",
          "type": "uint256"
        },
        {
          "indexed": false,
          "internalType": "uint256",
          "name": "openedPacks",
          "type": "uint256"
        }
      ],
      "name": "Opening",
      "type": "event"
    },
    {
      "anonymous": false,
      "inputs": [
        {
          "indexed": true,
          "internalType": "address",
          "name": "previousOwner",
          "type": "address"
        },
        {
          "indexed": true,
          "internalType": "address",
          "name": "newOwner",
          "type": "address"
        }
      ],
      "name": "OwnershipTransferred",
      "type": "event"
    },
    {
      "inputs": [],
      "name": "MAX_PURCHASE",
      "outputs": [
        {
          "internalType": "uint256",
          "name": "",
          "type": "uint256"
        }
      ],
      "stateMutability": "view",
      "type": "function"
    },
    {
      "inputs": [],
      "name": "_baseFeeAddress",
      "outputs": [
        {
          "internalType": "address",
          "name": "",
          "type": "address"
        }
      ],
      "stateMutability": "view",
      "type": "function"
    },
    {
      "inputs": [],
      "name": "_baseFeeShare",
      "outputs": [
        {
          "internalType": "uint256",
          "name": "",
          "type": "uint256"
        }
      ],
      "stateMutability": "view",
      "type": "function"
    },
    {
      "inputs": [],
      "name": "_closed",
      "outputs": [
        {
          "internalType": "bool",
          "name": "",
          "type": "bool"
        }
      ],
      "stateMutability": "view",
      "type": "function"
    },
    {
      "inputs": [],
      "name": "_currentTokenId",
      "outputs": [
        {
          "internalType": "uint256",
          "name": "",
          "type": "uint256"
        }
      ],
      "stateMutability": "view",
      "type": "function"
    },
    {
      "inputs": [],
      "name": "_feeAddress",
      "outputs": [
        {
          "internalType": "address",
          "name": "",
          "type": "address"
        }
      ],
      "stateMutability": "view",
      "type": "function"
    },
    {
      "inputs": [],
      "name": "_feeShare",
      "outputs": [
        {
          "internalType": "uint256",
          "name": "",
          "type": "uint256"
        }
      ],
      "stateMutability": "view",
      "type": "function"
    },
    {
      "inputs": [],
      "name": "_isLimited",
      "outputs": [
        {
          "internalType": "bool",
          "name": "",
          "type": "bool"
        }
      ],
      "stateMutability": "view",
      "type": "function"
    },
    {
      "inputs": [],
      "name": "_limitedAmount",
      "outputs": [
        {
          "internalType": "uint256",
          "name": "",
          "type": "uint256"
        }
      ],
      "stateMutability": "view",
      "type": "function"
    },
    {
      "inputs": [],
      "name": "_openedPacks",
      "outputs": [
        {
          "internalType": "uint256",
          "name": "",
          "type": "uint256"
        }
      ],
      "stateMutability": "view",
      "type": "function"
    },
    {
      "inputs": [],
      "name": "_otherAddress",
      "outputs": [
        {
          "internalType": "address",
          "name": "",
          "type": "address"
        }
      ],
      "stateMutability": "view",
      "type": "function"
    },
    {
      "inputs": [],
      "name": "_otherShare",
      "outputs": [
        {
          "internalType": "uint256",
          "name": "",
          "type": "uint256"
        }
      ],
      "stateMutability": "view",
      "type": "function"
    },
    {
      "inputs": [],
      "name": "_pricePerPack",
      "outputs": [
        {
          "internalType": "uint256",
          "name": "",
          "type": "uint256"
        }
      ],
      "stateMutability": "view",
      "type": "function"
    },
    {
      "inputs": [],
      "name": "_purchaseToken",
      "outputs": [
        {
          "internalType": "contract ERC20",
          "name": "",
          "type": "address"
        }
      ],
      "stateMutability": "view",
      "type": "function"
    },
    {
      "inputs": [
        {
          "internalType": "uint256",
          "name": "",
          "type": "uint256"
        }
      ],
      "name": "alreadyMinted",
      "outputs": [
        {
          "internalType": "bool",
          "name": "",
          "type": "bool"
        }
      ],
      "stateMutability": "view",
      "type": "function"
    },
    {
      "inputs": [],
      "name": "owner",
      "outputs": [
        {
          "internalType": "address",
          "name": "",
          "type": "address"
        }
      ],
      "stateMutability": "view",
      "type": "function"
    },
    {
      "inputs": [
        {
          "internalType": "address",
          "name": "",
          "type": "address"
        },
        {
          "internalType": "uint256",
          "name": "",
          "type": "uint256"
        }
      ],
      "name": "registeredIDs",
      "outputs": [
        {
          "internalType": "bool",
          "name": "",
          "type": "bool"
        }
      ],
      "stateMutability": "view",
      "type": "function"
    },
    {
      "inputs": [
        {
          "internalType": "address",
          "name": "",
          "type": "address"
        },
        {
          "internalType": "uint256",
          "name": "",
          "type": "uint256"
        }
      ],
      "name": "registeredIDsArray",
      "outputs": [
        {
          "internalType": "uint256",
          "name": "",
          "type": "uint256"
        }
      ],
      "stateMutability": "view",
      "type": "function"
    },
    {
      "inputs": [
        {
          "internalType": "address",
          "name": "newOwner",
          "type": "address"
        }
      ],
      "name": "transferOwnership",
      "outputs": [],
      "stateMutability": "nonpayable",
      "type": "function"
    },
    {
      "inputs": [
        {
          "internalType": "uint256",
          "name": "feeShare",
          "type": "uint256"
        },
        {
          "internalType": "uint256",
          "name": "otherShare",
          "type": "uint256"
        }
      ],
      "name": "setShares",
      "outputs": [],
      "stateMutability": "nonpayable",
      "type": "function"
    },
    {
      "inputs": [
        {
          "internalType": "contract ERC20",
          "name": "purchaseToken",
          "type": "address"
        }
      ],
      "name": "setPurchaseTokenAddress",
      "outputs": [],
      "stateMutability": "nonpayable",
      "type": "function"
    },
    {
      "inputs": [
        {
          "internalType": "uint256",
          "name": "newPrice",
          "type": "uint256"
        }
      ],
      "name": "setPricePerPack",
      "outputs": [],
      "stateMutability": "nonpayable",
      "type": "function"
    },
    {
      "inputs": [
        {
          "internalType": "address",
          "name": "feeAddress",
          "type": "address"
        }
      ],
      "name": "setFeeAddress",
      "outputs": [],
      "stateMutability": "nonpayable",
      "type": "function"
    },
    {
      "inputs": [
        {
          "internalType": "address",
          "name": "otherAddress",
          "type": "address"
        }
      ],
      "name": "setOtherAddress",
      "outputs": [],
      "stateMutability": "nonpayable",
      "type": "function"
    },
    {
      "inputs": [],
      "name": "lock",
      "outputs": [],
      "stateMutability": "nonpayable",
      "type": "function"
    },
    {
      "inputs": [],
      "name": "unlock",
      "outputs": [],
      "stateMutability": "nonpayable",
      "type": "function"
    }
  ],
  "bytecode": "0x60806040526004805460ff60a01b191690556103e8600555670de0b6b3a76400006007556001600b556063600c556000600d819055600a600e55600f805460ff1916905560105534801561005257600080fd5b506040516107f63803806107f6833981810160405260a081101561007557600080fd5b50805160208201516040830151606084015160809094015160008054336001600160a01b0319918216179091556001805482166001600160a01b038088169190911790915560028054831682871617905560038054831682861617905560048054909216908716179055929391929091908015610100576004805460ff60a01b1916600160a01b1790555b600655505050506106e0806101166000396000f3fe608060405234801561001057600080fd5b506004361061018e5760003560e01c80638da5cb5b116100de578063c963483c11610097578063f24a9e4e11610071578063f24a9e4e14610350578063f2fde38b14610358578063f4d369861461037e578063f83d08ba146103a45761018e565b8063c963483c14610338578063dd7c5e5414610340578063eb8800d0146103485761018e565b80638da5cb5b146102de5780639456b232146102e657806398bdd803146102ee578063a69df4b51461030b578063b7365f1f14610313578063c3a9896d146103305761018e565b80632f80f7501161014b5780637146bd08116101255780637146bd08146102a0578063759b2b3c146102a8578063790411be146102b05780638705fcd4146102b85761018e565b80632f80f7501461028857806353facd011461029057806369c7d8a3146102985761018e565b80630119b740146101935780630135f740146101af57806301d243a6146101d35780631e14a53314610211578063298489d21461023d5780632aca3e7d14610265575b600080fd5b61019b6103ac565b604080519115158252519081900360200190f35b6101b76103bc565b604080516001600160a01b039092168252519081900360200190f35b6101ff600480360360408110156101e957600080fd5b506001600160a01b0381351690602001356103cb565b60408051918252519081900360200190f35b61019b6004803603604081101561022757600080fd5b506001600160a01b0381351690602001356103f9565b6102636004803603602081101561025357600080fd5b50356001600160a01b0316610419565b005b6102636004803603604081101561027b57600080fd5b5080359060200135610452565b6101b76104c4565b6101ff6104d3565b6101b76104d9565b6101ff6104e8565b6101ff6104ee565b6101ff6104f4565b610263600480360360208110156102ce57600080fd5b50356001600160a01b03166104fa565b6101b7610533565b6101b7610542565b6102636004803603602081101561030457600080fd5b5035610551565b61026361056d565b61019b6004803603602081101561032957600080fd5b5035610590565b6101ff6105a5565b6101ff6105ab565b61019b6105b1565b6101ff6105ba565b6101ff6105c0565b6102636004803603602081101561036e57600080fd5b50356001600160a01b03166105c6565b6102636004803603602081101561039457600080fd5b50356001600160a01b031661064b565b610263610684565b600454600160a01b900460ff1681565b6003546001600160a01b031681565b600960205281600052604060002081815481106103e457fe5b90600052602060002001600091509150505481565b600860209081526000928352604080842090915290825290205460ff1681565b6000546001600160a01b0316331461043057600080fd5b600180546001600160a01b0319166001600160a01b0392909216919091179055565b6000546001600160a01b0316331461046957600080fd5b600b54828201016064146104bc576040805162461bcd60e51b81526020600482015260156024820152740446f65736e27742061646420757020746f2031303605c1b604482015290519081900360640190fd5b600d55600c55565b6004546001600160a01b031681565b600b5481565b6001546001600160a01b031681565b600e5481565b60065481565b60075481565b6000546001600160a01b0316331461051157600080fd5b600380546001600160a01b0319166001600160a01b0392909216919091179055565b6000546001600160a01b031681565b6002546001600160a01b031681565b6000546001600160a01b0316331461056857600080fd5b600755565b6000546001600160a01b0316331461058457600080fd5b600f805460ff19169055565b600a6020526000908152604090205460ff1681565b600c5481565b60055481565b600f5460ff1681565b60105481565b600d5481565b6000546001600160a01b031633146105dd57600080fd5b6001600160a01b0381166105f057600080fd5b600080546040516001600160a01b03808516939216917f8be0079c531659141344cd1fd0a4f28419497f9722a3daafe3b4186f6b6457e091a3600080546001600160a01b0319166001600160a01b0392909216919091179055565b6000546001600160a01b0316331461066257600080fd5b600480546001600160a01b0319166001600160a01b0392909216919091179055565b6000546001600160a01b0316331461069b57600080fd5b600f805460ff1916600117905556fea2646970667358221220c520eca5b892ad5dbdf91734a5b8f4abb19bfe5a26dcbdfc3c7fc777db0017dd64736f6c63430006020033",
  "source": "// SPDX-License-Identifier: MIT\r\n\r\npragma solidity >=0.6.0;\r\n\r\nimport \"@openzeppelin/contracts/token/ERC721/ERC721.sol\";\r\nimport \"@openzeppelin/contracts/token/ERC20/ERC20.sol\";\r\nimport \"./utils/Ownable.sol\";\r\n\r\ncontract Opener is  Ownable {\r\n    using SafeMath for uint256;\r\n\r\n    ERC20 public _purchaseToken;\r\n    address public _baseFeeAddress;\r\n    address public _feeAddress;\r\n    address public _otherAddress;\r\n    bool public _isLimited = false;\r\n    uint256 public _currentTokenId = 1000;\r\n    uint256 public _limitedAmount;\r\n    uint256 public _pricePerPack = 1*10**18;\r\n\r\n    // Mapping from address to bool, if egg was already claimed\r\n    // The hash is about the userId and the nftIds array\r\n    mapping(address => mapping(uint256 => bool)) public registeredIDs;\r\n    mapping(address => uint256[]) public registeredIDsArray;\r\n    mapping(uint256 => bool) public alreadyMinted;\r\n\r\n    event Opening(address indexed from, uint256 amount, uint256 openedPacks);\r\n\r\n    uint256 public _baseFeeShare = 1;\r\n    uint256 public _feeShare = 99;\r\n    uint256 public _otherShare = 0;\r\n    uint256 public MAX_PURCHASE = 10;\r\n\r\n    bool public _closed = false;\r\n    uint256 public _openedPacks = 0;\r\n\r\n    constructor(\r\n        ERC20 purchaseToken,\r\n        address baseFeeAddress,\r\n        address feeAddress,\r\n        address otherAddress,\r\n        uint256 limitedAmount\r\n    ) public {\r\n        _purchaseToken = purchaseToken;\r\n        _baseFeeAddress = baseFeeAddress;\r\n        _feeAddress = feeAddress;\r\n        _otherAddress = otherAddress;\r\n        if(limitedAmount != 0){\r\n            _isLimited = true;\r\n        }\r\n        _limitedAmount = limitedAmount;\r\n    }\r\n\r\n    function _openPack(uint256 amount) internal {\r\n        require(!_closed, \"Opener is locked\");\r\n        uint256 totalPrice = _pricePerPack.mul(amount);\r\n\r\n        require(_purchaseToken.allowance(msg.sender, address(this)) >= totalPrice, \"Not enough money per pack\");\r\n\r\n        address from = msg.sender;\r\n\r\n        require(amount <= MAX_PURCHASE, \"Max purchase per tx reached\");\r\n\r\n        if(_isLimited){\r\n            require(_limitedAmount >= _openedPacks.add(amount), \"Amount of packs not available\");\r\n        }\r\n\r\n        _distributePackShares(from, totalPrice);\r\n\r\n        emit Opening(from, amount, _openedPacks);\r\n        _openedPacks += amount;\r\n\r\n        for(uint i = _currentTokenId; i < _currentTokenId.add(amount); i++){\r\n            registeredIDs[msg.sender][i] = true;\r\n            registeredIDsArray[msg.sender].push(i);\r\n        }\r\n\r\n        _currentTokenId += amount;\r\n        _pricePerPack = _pricePerPack*109/100;\r\n    }\r\n\r\n    function _distributePackShares(address from, uint256 amount) internal {\r\n        //transfer of fee share\r\n        _purchaseToken.transferFrom(from, _baseFeeAddress, (amount * _baseFeeShare) / 100);\r\n\r\n        if(address(_feeShare) != address(0)){\r\n            //transfer of stake share\r\n            _purchaseToken.transferFrom(\r\n                from,\r\n                _feeAddress,\r\n                (amount * _feeShare) / 100\r\n            );\r\n        }\r\n\r\n        if(address(_otherAddress) != address(0)){\r\n            //transfer of stake share\r\n            _purchaseToken.transferFrom(\r\n                from,\r\n                _otherAddress,\r\n                (amount * _otherShare) / 100\r\n            );\r\n        }\r\n    }\r\n\r\n    function setShares(\r\n        uint256 feeShare,\r\n        uint256 otherShare\r\n    ) public onlyOwner {\r\n        require(\r\n            otherShare + feeShare + _baseFeeShare == 100,\r\n            \"Doesn't add up to 100\"\r\n        );\r\n\r\n        _otherShare = otherShare;\r\n        _feeShare = feeShare;\r\n    }\r\n\r\n\r\n    function setPurchaseTokenAddress(ERC20 purchaseToken) public onlyOwner {\r\n        _purchaseToken = purchaseToken;\r\n    }\r\n\r\n    function setPricePerPack(uint256 newPrice) public onlyOwner {\r\n        _pricePerPack = newPrice;\r\n    }\r\n\r\n    function setFeeAddress(address feeAddress) public onlyOwner {\r\n        _feeAddress = feeAddress;\r\n    }\r\n\r\n    function setOtherAddress(address otherAddress) public onlyOwner {\r\n        _otherAddress = otherAddress;\r\n    }\r\n\r\n    function lock() public onlyOwner {\r\n        _closed = true;\r\n    }\r\n\r\n    function unlock() public onlyOwner {\r\n        _closed = false;\r\n    }\r\n}\r\n\r\n// ERC721Standard made for a simple structure, owner generates himself the NFT he wants (direct minting)\r\ncontract ERC721Standard is ERC721, Ownable {\r\n\r\n    constructor (string memory name, string memory symbol) public ERC721(name, symbol) { }\r\n\r\n    function exists(uint256 tokenId) public view returns (bool) {\r\n        return _exists(tokenId);\r\n    }\r\n\r\n    function setTokenURI(uint256 tokenId, string memory uri) public onlyOwner {\r\n        _setTokenURI(tokenId, uri);\r\n    }\r\n\r\n    function setBaseURI(string memory baseURI) public onlyOwner {\r\n        _setBaseURI(baseURI);\r\n    }\r\n\r\n    function mint(address to, uint256 tokenId) public onlyOwner {\r\n        _safeMint(to, tokenId);\r\n    }\r\n\r\n    function mint(address to, uint256 tokenId, bytes memory _data) public onlyOwner {\r\n        _safeMint(to, tokenId, _data);\r\n    }\r\n}\r\n\r\n// ERC721Colectibles made for a Cryptokitties/Polkamon like structure, where an hash is given by the owner based on a purchase of a package\r\n// Can be limited or unlimited\r\ncontract ERC721Colectibles is Opener, ERC721 {\r\n\r\n    constructor (\r\n        string memory name, string memory symbol,\r\n        uint256 limitedAmount,\r\n        ERC20 _purchaseToken,\r\n        address baseFeeAddress,\r\n        address feeAddress,\r\n        address otherAddress) public ERC721(name, symbol) \r\n        Opener(_purchaseToken, baseFeeAddress, feeAddress, otherAddress, limitedAmount)\r\n    {\r\n    }\r\n\r\n    function exists(uint256 tokenId) public view returns (bool) {\r\n        return _exists(tokenId);\r\n    }\r\n\r\n    function setTokenURI(uint256 tokenId, string memory uri) public onlyOwner {\r\n        _setTokenURI(tokenId, uri);\r\n    }\r\n\r\n    function setBaseURI(string memory baseURI) public onlyOwner {\r\n        _setBaseURI(baseURI);\r\n    }\r\n\r\n    function mint(uint256 tokenIdToMint) public {\r\n        require(\r\n            tokenIdToMint <= _currentTokenId, \r\n            \"Token Id not registered\"\r\n        );\r\n\r\n        require(registeredIDs[msg.sender][tokenIdToMint], \"Token was not registered or not the rightful owner\");\r\n        require(!alreadyMinted[tokenIdToMint], \"Already minted\");\r\n\r\n        alreadyMinted[tokenIdToMint] = true;\r\n        _safeMint(msg.sender, tokenIdToMint);\r\n    }\r\n\r\n    function openPack(uint256 amount) public {\r\n        _openPack(amount);\r\n    }\r\n\r\n    function getRegisteredIDs(address _address) public view returns(uint256[] memory) {\r\n        return registeredIDsArray[_address];\r\n    }\r\n}",
  "sourcePath": "C:/Users/user/Desktop/sgoia.bepronetwork.bepro-js/contracts/ERC721Factory.sol",
  "compiler": {
    "name": "solc",
    "version": "0.6.2+commit.bacdbe57.Emscripten.clang"
  },
  "schemaVersion": "3.0.20",
  "updatedAt": "2021-05-25T23:28:00.870Z",
  "devdoc": {
    "methods": {
      "transferOwnership(address)": {
        "details": "Allows the current owner to transfer control of the contract to a newOwner.",
        "params": {
          "newOwner": "The address to transfer ownership to."
        }
      }
    }
  },
  "userdoc": {
    "methods": {}
  }
}