{
  "contractName": "Opener",
  "abi": [
    {
      "inputs": [
        {
          "internalType": "contract ERC20",
          "name": "purchaseToken",
          "type": "address"
        }
      ],
      "stateMutability": "nonpayable",
      "type": "constructor"
    },
    {
      "anonymous": false,
      "inputs": [
        {
          "indexed": true,
          "internalType": "address",
          "name": "previousOwner",
          "type": "address"
        },
        {
          "indexed": true,
          "internalType": "address",
          "name": "newOwner",
          "type": "address"
        }
      ],
      "name": "OwnershipTransferred",
      "type": "event"
    },
    {
      "anonymous": false,
      "inputs": [
        {
          "indexed": false,
          "internalType": "uint256",
          "name": "packId",
          "type": "uint256"
        },
        {
          "indexed": false,
          "internalType": "uint256",
          "name": "nftsAmount",
          "type": "uint256"
        },
        {
          "indexed": true,
          "internalType": "string",
          "name": "serie",
          "type": "string"
        },
        {
          "indexed": true,
          "internalType": "string",
          "name": "packType",
          "type": "string"
        },
        {
          "indexed": true,
          "internalType": "string",
          "name": "drop",
          "type": "string"
        }
      ],
      "name": "PackCreated",
      "type": "event"
    },
    {
      "anonymous": false,
      "inputs": [
        {
          "indexed": true,
          "internalType": "uint256",
          "name": "packId",
          "type": "uint256"
        }
      ],
      "name": "PackDelete",
      "type": "event"
    },
    {
      "anonymous": false,
      "inputs": [
        {
          "indexed": true,
          "internalType": "address",
          "name": "by",
          "type": "address"
        },
        {
          "indexed": true,
          "internalType": "uint256",
          "name": "packId",
          "type": "uint256"
        }
      ],
      "name": "PackOpened",
      "type": "event"
    },
    {
      "inputs": [],
      "name": "_closed",
      "outputs": [
        {
          "internalType": "bool",
          "name": "",
          "type": "bool"
        }
      ],
      "stateMutability": "view",
      "type": "function"
    },
    {
      "inputs": [],
      "name": "_openedPacks",
      "outputs": [
        {
          "internalType": "uint256",
          "name": "",
          "type": "uint256"
        }
      ],
      "stateMutability": "view",
      "type": "function"
    },
    {
      "inputs": [],
      "name": "_purchaseToken",
      "outputs": [
        {
          "internalType": "contract ERC20",
          "name": "",
          "type": "address"
        }
      ],
      "stateMutability": "view",
      "type": "function"
    },
    {
      "inputs": [],
      "name": "_realFvrTokenPriceUSD",
      "outputs": [
        {
          "internalType": "uint256",
          "name": "",
          "type": "uint256"
        }
      ],
      "stateMutability": "view",
      "type": "function"
    },
    {
      "inputs": [
        {
          "internalType": "uint256",
          "name": "",
          "type": "uint256"
        }
      ],
      "name": "alreadyMinted",
      "outputs": [
        {
          "internalType": "bool",
          "name": "",
          "type": "bool"
        }
      ],
      "stateMutability": "view",
      "type": "function"
    },
    {
      "inputs": [],
      "name": "lastNFTID",
      "outputs": [
        {
          "internalType": "uint256",
          "name": "",
          "type": "uint256"
        }
      ],
      "stateMutability": "view",
      "type": "function"
    },
    {
      "inputs": [],
      "name": "owner",
      "outputs": [
        {
          "internalType": "address",
          "name": "",
          "type": "address"
        }
      ],
      "stateMutability": "view",
      "type": "function"
    },
    {
      "inputs": [],
      "name": "packIncrementId",
      "outputs": [
        {
          "internalType": "uint256",
          "name": "",
          "type": "uint256"
        }
      ],
      "stateMutability": "view",
      "type": "function"
    },
    {
      "inputs": [
        {
          "internalType": "uint256",
          "name": "",
          "type": "uint256"
        }
      ],
      "name": "packs",
      "outputs": [
        {
          "internalType": "uint256",
          "name": "packId",
          "type": "uint256"
        },
        {
          "internalType": "uint256",
          "name": "nftAmount",
          "type": "uint256"
        },
        {
          "internalType": "uint256",
          "name": "packNumber",
          "type": "uint256"
        },
        {
          "internalType": "uint256",
          "name": "initialNFTId",
          "type": "uint256"
        },
        {
          "internalType": "uint256",
          "name": "saleStart",
          "type": "uint256"
        },
        {
          "internalType": "uint256",
          "name": "price",
          "type": "uint256"
        },
        {
          "internalType": "string",
          "name": "serie",
          "type": "string"
        },
        {
          "internalType": "string",
          "name": "drop",
          "type": "string"
        },
        {
          "internalType": "string",
          "name": "packType",
          "type": "string"
        },
        {
          "internalType": "address",
          "name": "buyer",
          "type": "address"
        }
      ],
      "stateMutability": "view",
      "type": "function"
    },
    {
      "inputs": [
        {
          "internalType": "address",
          "name": "",
          "type": "address"
        },
        {
          "internalType": "uint256",
          "name": "",
          "type": "uint256"
        }
      ],
      "name": "registeredIDs",
      "outputs": [
        {
          "internalType": "bool",
          "name": "",
          "type": "bool"
        }
      ],
      "stateMutability": "view",
      "type": "function"
    },
    {
      "inputs": [
        {
          "internalType": "address",
          "name": "",
          "type": "address"
        },
        {
          "internalType": "uint256",
          "name": "",
          "type": "uint256"
        }
      ],
      "name": "registeredIDsArray",
      "outputs": [
        {
          "internalType": "uint256",
          "name": "",
          "type": "uint256"
        }
      ],
      "stateMutability": "view",
      "type": "function"
    },
    {
      "inputs": [
        {
          "internalType": "address",
          "name": "newOwner",
          "type": "address"
        }
      ],
      "name": "transferOwnership",
      "outputs": [],
      "stateMutability": "nonpayable",
      "type": "function"
    },
    {
      "inputs": [
        {
          "internalType": "uint256",
          "name": "packId",
          "type": "uint256"
        }
      ],
      "name": "buyPack",
      "outputs": [],
      "stateMutability": "nonpayable",
      "type": "function"
    },
    {
      "inputs": [
        {
          "internalType": "uint256",
          "name": "packNumber",
          "type": "uint256"
        },
        {
          "internalType": "uint256",
          "name": "nftAmount",
          "type": "uint256"
        },
        {
          "internalType": "uint256",
          "name": "price",
          "type": "uint256"
        },
        {
          "internalType": "string",
          "name": "serie",
          "type": "string"
        },
        {
          "internalType": "string",
          "name": "packType",
          "type": "string"
        },
        {
          "internalType": "string",
          "name": "drop",
          "type": "string"
        },
        {
          "internalType": "uint256",
          "name": "saleStart",
          "type": "uint256"
        },
        {
          "internalType": "address[]",
          "name": "saleDistributionAddresses",
          "type": "address[]"
        },
        {
          "internalType": "uint256[]",
          "name": "saleDistributionAmounts",
          "type": "uint256[]"
        }
      ],
      "name": "createPack",
      "outputs": [],
      "stateMutability": "nonpayable",
      "type": "function"
    },
    {
      "inputs": [
        {
          "internalType": "uint256",
          "name": "packId",
          "type": "uint256"
        },
        {
          "internalType": "address",
          "name": "receivingAddress",
          "type": "address"
        }
      ],
      "name": "offerPack",
      "outputs": [],
      "stateMutability": "nonpayable",
      "type": "function"
    },
    {
      "inputs": [
        {
          "internalType": "uint256",
          "name": "_packId",
          "type": "uint256"
        },
        {
          "internalType": "uint256",
          "name": "_saleStart",
          "type": "uint256"
        },
        {
          "internalType": "string",
          "name": "serie",
          "type": "string"
        },
        {
          "internalType": "string",
          "name": "packType",
          "type": "string"
        },
        {
          "internalType": "string",
          "name": "drop",
          "type": "string"
        },
        {
          "internalType": "uint256",
          "name": "price",
          "type": "uint256"
        }
      ],
      "name": "editPackInfo",
      "outputs": [],
      "stateMutability": "nonpayable",
      "type": "function"
    },
    {
      "inputs": [
        {
          "internalType": "uint256",
          "name": "packId",
          "type": "uint256"
        }
      ],
      "name": "deletePackById",
      "outputs": [],
      "stateMutability": "nonpayable",
      "type": "function"
    },
    {
      "inputs": [
        {
          "internalType": "uint256",
          "name": "_packId",
          "type": "uint256"
        }
      ],
      "name": "getPackbyId",
      "outputs": [
        {
          "internalType": "uint256",
          "name": "",
          "type": "uint256"
        },
        {
          "internalType": "uint256",
          "name": "",
          "type": "uint256"
        },
        {
          "internalType": "uint256",
          "name": "",
          "type": "uint256"
        },
        {
          "internalType": "uint256",
          "name": "",
          "type": "uint256"
        },
        {
          "internalType": "string",
          "name": "",
          "type": "string"
        },
        {
          "internalType": "string",
          "name": "",
          "type": "string"
        },
        {
          "internalType": "string",
          "name": "",
          "type": "string"
        },
        {
          "internalType": "address",
          "name": "",
          "type": "address"
        },
        {
          "internalType": "address[]",
          "name": "",
          "type": "address[]"
        },
        {
          "internalType": "uint256[]",
          "name": "",
          "type": "uint256[]"
        }
      ],
      "stateMutability": "nonpayable",
      "type": "function"
    },
    {
      "inputs": [
        {
          "internalType": "uint256",
          "name": "packId",
          "type": "uint256"
        }
      ],
      "name": "getPackPriceInFVR",
      "outputs": [
        {
          "internalType": "uint256",
          "name": "",
          "type": "uint256"
        }
      ],
      "stateMutability": "nonpayable",
      "type": "function"
    },
    {
      "inputs": [
        {
          "internalType": "contract ERC20",
          "name": "purchaseToken",
          "type": "address"
        }
      ],
      "name": "setPurchaseTokenAddress",
      "outputs": [],
      "stateMutability": "nonpayable",
      "type": "function"
    },
    {
      "inputs": [
        {
          "internalType": "uint256",
          "name": "newPrice",
          "type": "uint256"
        }
      ],
      "name": "setTokenPriceInUSD",
      "outputs": [],
      "stateMutability": "nonpayable",
      "type": "function"
    },
    {
      "inputs": [],
      "name": "lock",
      "outputs": [],
      "stateMutability": "nonpayable",
      "type": "function"
    },
    {
      "inputs": [],
      "name": "unlock",
      "outputs": [],
      "stateMutability": "nonpayable",
      "type": "function"
    }
  ],
  "bytecode": "0x60806040526000600655600060075560006008556000600960006101000a81548160ff0219169083151502179055506000600a5534801561003f57600080fd5b50604051613aae380380613aae8339818101604052602081101561006257600080fd5b8101908080519060200190929190505050336000806101000a81548173ffffffffffffffffffffffffffffffffffffffff021916908373ffffffffffffffffffffffffffffffffffffffff16021790555080600160006101000a81548173ffffffffffffffffffffffffffffffffffffffff021916908373ffffffffffffffffffffffffffffffffffffffff160217905550506139aa806101046000396000f3fe608060405234801561001057600080fd5b506004361061016a576000357c0100000000000000000000000000000000000000000000000000000000900480638da5cb5b116100e0578063e641650311610099578063e641650314610dd6578063eb8800d014610df4578063ec6923a114610e12578063ec90a29314610e60578063f2fde38b14610e8e578063f83d08ba14610ed25761016a565b80638da5cb5b14610b10578063a69df4b514610b5a578063b7365f1f14610b64578063b84c139214610baa578063dc45bfb314610d86578063dd7c5e5414610db45761016a565b8063298489d211610132578063298489d2146107ed5780633a307f61146108315780635eeb57c014610a3857806369c7d8a314610a665780636fcbc6ed14610ab057806384a5027014610ace5761016a565b806301d243a61461016f57806315424e6e146101d15780631a27a3381461042f5780631e14a533146107695780631eae8636146107cf575b600080fd5b6101bb6004803603604081101561018557600080fd5b81019080803573ffffffffffffffffffffffffffffffffffffffff16906020019092919080359060200190929190505050610edc565b6040518082815260200191505060405180910390f35b6101fd600480360360208110156101e757600080fd5b8101908080359060200190929190505050610f0a565b604051808b81526020018a81526020018981526020018881526020018060200180602001806020018773ffffffffffffffffffffffffffffffffffffffff1673ffffffffffffffffffffffffffffffffffffffff168152602001806020018060200186810386528c818151815260200191508051906020019080838360005b8381101561029757808201518184015260208101905061027c565b50505050905090810190601f1680156102c45780820380516001836020036101000a031916815260200191505b5086810385528b818151815260200191508051906020019080838360005b838110156102fd5780820151818401526020810190506102e2565b50505050905090810190601f16801561032a5780820380516001836020036101000a031916815260200191505b5086810384528a818151815260200191508051906020019080838360005b83811015610363578082015181840152602081019050610348565b50505050905090810190601f1680156103905780820380516001836020036101000a031916815260200191505b50868103835288818151815260200191508051906020019060200280838360005b838110156103cc5780820151818401526020810190506103b1565b50505050905001868103825287818151815260200191508051906020019060200280838360005b8381101561040e5780820151818401526020810190506103f3565b505050509050019f5050505050505050505050505050505060405180910390f35b610767600480360361012081101561044657600080fd5b810190808035906020019092919080359060200190929190803590602001909291908035906020019064010000000081111561048157600080fd5b82018360208201111561049357600080fd5b803590602001918460018302840111640100000000831117156104b557600080fd5b91908080601f016020809104026020016040519081016040528093929190818152602001838380828437600081840152601f19601f8201169050808301925050505050505091929192908035906020019064010000000081111561051857600080fd5b82018360208201111561052a57600080fd5b8035906020019184600183028401116401000000008311171561054c57600080fd5b91908080601f016020809104026020016040519081016040528093929190818152602001838380828437600081840152601f19601f820116905080830192505050505050509192919290803590602001906401000000008111156105af57600080fd5b8201836020820111156105c157600080fd5b803590602001918460018302840111640100000000831117156105e357600080fd5b91908080601f016020809104026020016040519081016040528093929190818152602001838380828437600081840152601f19601f820116905080830192505050505050509192919290803590602001909291908035906020019064010000000081111561065057600080fd5b82018360208201111561066257600080fd5b8035906020019184602083028401116401000000008311171561068457600080fd5b919080806020026020016040519081016040528093929190818152602001838360200280828437600081840152601f19601f820116905080830192505050505050509192919290803590602001906401000000008111156106e457600080fd5b8201836020820111156106f657600080fd5b8035906020019184602083028401116401000000008311171561071857600080fd5b919080806020026020016040519081016040528093929190818152602001838360200280828437600081840152601f19601f820116905080830192505050505050509192919290505050611361565b005b6107b56004803603604081101561077f57600080fd5b81019080803573ffffffffffffffffffffffffffffffffffffffff16906020019092919080359060200190929190505050611a28565b604051808215151515815260200191505060405180910390f35b6107d7611a57565b6040518082815260200191505060405180910390f35b61082f6004803603602081101561080357600080fd5b81019080803573ffffffffffffffffffffffffffffffffffffffff169060200190929190505050611a5d565b005b610a36600480360360c081101561084757600080fd5b8101908080359060200190929190803590602001909291908035906020019064010000000081111561087857600080fd5b82018360208201111561088a57600080fd5b803590602001918460018302840111640100000000831117156108ac57600080fd5b91908080601f016020809104026020016040519081016040528093929190818152602001838380828437600081840152601f19601f8201169050808301925050505050505091929192908035906020019064010000000081111561090f57600080fd5b82018360208201111561092157600080fd5b8035906020019184600183028401116401000000008311171561094357600080fd5b91908080601f016020809104026020016040519081016040528093929190818152602001838380828437600081840152601f19601f820116905080830192505050505050509192919290803590602001906401000000008111156109a657600080fd5b8201836020820111156109b857600080fd5b803590602001918460018302840111640100000000831117156109da57600080fd5b91908080601f016020809104026020016040519081016040528093929190818152602001838380828437600081840152601f19601f82011690508083019250505050505050919291929080359060200190929190505050611afa565b005b610a6460048036036020811015610a4e57600080fd5b8101908080359060200190929190505050611c9d565b005b610a6e611d00565b604051808273ffffffffffffffffffffffffffffffffffffffff1673ffffffffffffffffffffffffffffffffffffffff16815260200191505060405180910390f35b610ab8611d26565b6040518082815260200191505060405180910390f35b610afa60048036036020811015610ae457600080fd5b8101908080359060200190929190505050611d2c565b6040518082815260200191505060405180910390f35b610b18611e39565b604051808273ffffffffffffffffffffffffffffffffffffffff1673ffffffffffffffffffffffffffffffffffffffff16815260200191505060405180910390f35b610b62611e5e565b005b610b9060048036036020811015610b7a57600080fd5b8101908080359060200190929190505050611ed4565b604051808215151515815260200191505060405180910390f35b610bd660048036036020811015610bc057600080fd5b8101908080359060200190929190505050611ef4565b604051808b81526020018a81526020018981526020018881526020018781526020018681526020018060200180602001806020018573ffffffffffffffffffffffffffffffffffffffff1673ffffffffffffffffffffffffffffffffffffffff168152602001848103845288818151815260200191508051906020019080838360005b83811015610c74578082015181840152602081019050610c59565b50505050905090810190601f168015610ca15780820380516001836020036101000a031916815260200191505b50848103835287818151815260200191508051906020019080838360005b83811015610cda578082015181840152602081019050610cbf565b50505050905090810190601f168015610d075780820380516001836020036101000a031916815260200191505b50848103825286818151815260200191508051906020019080838360005b83811015610d40578082015181840152602081019050610d25565b50505050905090810190601f168015610d6d5780820380516001836020036101000a031916815260200191505b509d505050505050505050505050505060405180910390f35b610db260048036036020811015610d9c57600080fd5b8101908080359060200190929190505050612130565b005b610dbc61270e565b604051808215151515815260200191505060405180910390f35b610dde612721565b6040518082815260200191505060405180910390f35b610dfc612727565b6040518082815260200191505060405180910390f35b610e5e60048036036040811015610e2857600080fd5b8101908080359060200190929190803573ffffffffffffffffffffffffffffffffffffffff16906020019092919050505061272d565b005b610e8c60048036036020811015610e7657600080fd5b8101908080359060200190929190505050612d60565b005b610ed060048036036020811015610ea457600080fd5b81019080803573ffffffffffffffffffffffffffffffffffffffff169060200190929190505050612f31565b005b610eda613082565b005b60036020528160005260406000208181548110610ef557fe5b90600052602060002001600091509150505481565b600080600080606080606060006060806000809054906101000a900473ffffffffffffffffffffffffffffffffffffffff1673ffffffffffffffffffffffffffffffffffffffff163373ffffffffffffffffffffffffffffffffffffffff1614610f7357600080fd5b610f7b613724565b600560008d81526020019081526020016000206040518061018001604052908160008201548152602001600182015481526020016002820154815260200160038201548152602001600482015481526020016005820180548060200260200160405190810160405280929190818152602001828054801561101b57602002820191906000526020600020905b815481526020019060010190808311611007575b50505050508152602001600682018054806020026020016040519081016040528092919081815260200182805480156110a957602002820191906000526020600020905b8160009054906101000a900473ffffffffffffffffffffffffffffffffffffffff1673ffffffffffffffffffffffffffffffffffffffff168152602001906001019080831161105f575b5050505050815260200160078201548152602001600882018054600181600116156101000203166002900480601f0160208091040260200160405190810160405280929190818152602001828054600181600116156101000203166002900480156111555780601f1061112a57610100808354040283529160200191611155565b820191906000526020600020905b81548152906001019060200180831161113857829003601f168201915b50505050508152602001600982018054600181600116156101000203166002900480601f0160208091040260200160405190810160405280929190818152602001828054600181600116156101000203166002900480156111f75780601f106111cc576101008083540402835291602001916111f7565b820191906000526020600020905b8154815290600101906020018083116111da57829003601f168201915b50505050508152602001600a82018054600181600116156101000203166002900480601f0160208091040260200160405190810160405280929190818152602001828054600181600116156101000203166002900480156112995780601f1061126e57610100808354040283529160200191611299565b820191906000526020600020905b81548152906001019060200180831161127c57829003601f168201915b50505050508152602001600b820160009054906101000a900473ffffffffffffffffffffffffffffffffffffffff1673ffffffffffffffffffffffffffffffffffffffff1673ffffffffffffffffffffffffffffffffffffffff168152505090508060000151816040015182606001518360e001518461010001518561012001518661014001518761016001518860c001518960a001518595508494508393508191508090509a509a509a509a509a509a509a509a509a509a50509193959799509193959799565b6000809054906101000a900473ffffffffffffffffffffffffffffffffffffffff1673ffffffffffffffffffffffffffffffffffffffff163373ffffffffffffffffffffffffffffffffffffffff16146113ba57600080fd5b8151815114611414576040517f08c379a000000000000000000000000000000000000000000000000000000000815260040180806020018281038252602981526020018061394c6029913960400191505060405180910390fd5b600080905060008090505b835181101561144d5782818151811061143457fe5b602002602001015182019150808060010191505061141f565b50606481146114a7576040517f08c379a00000000000000000000000000000000000000000000000000000000081526004018080602001828103825260238152602001806139296023913960400191505060405180910390fd5b6114af613724565b6005600060065481526020019081526020016000206040518061018001604052908160008201548152602001600182015481526020016002820154815260200160038201548152602001600482015481526020016005820180548060200260200160405190810160405280929190818152602001828054801561155157602002820191906000526020600020905b81548152602001906001019080831161153d575b50505050508152602001600682018054806020026020016040519081016040528092919081815260200182805480156115df57602002820191906000526020600020905b8160009054906101000a900473ffffffffffffffffffffffffffffffffffffffff1673ffffffffffffffffffffffffffffffffffffffff1681526020019060010190808311611595575b5050505050815260200160078201548152602001600882018054600181600116156101000203166002900480601f01602080910402602001604051908101604052809291908181526020018280546001816001161561010002031660029004801561168b5780601f106116605761010080835404028352916020019161168b565b820191906000526020600020905b81548152906001019060200180831161166e57829003601f168201915b50505050508152602001600982018054600181600116156101000203166002900480601f01602080910402602001604051908101604052809291908181526020018280546001816001161561010002031660029004801561172d5780601f106117025761010080835404028352916020019161172d565b820191906000526020600020905b81548152906001019060200180831161171057829003601f168201915b50505050508152602001600a82018054600181600116156101000203166002900480601f0160208091040260200160405190810160405280929190818152602001828054600181600116156101000203166002900480156117cf5780601f106117a4576101008083540402835291602001916117cf565b820191906000526020600020905b8154815290600101906020018083116117b257829003601f168201915b50505050508152602001600b820160009054906101000a900473ffffffffffffffffffffffffffffffffffffffff1673ffffffffffffffffffffffffffffffffffffffff1673ffffffffffffffffffffffffffffffffffffffff168152505090506006548160000181815250508a8160400181815250508981602001818152505084816080018181525050600754816060018181525050888160e00181815250508781610100018190525085816101200181905250838160c00181905250828160a0018190525086816101400181905250856040518082805190602001908083835b602083106118d457805182526020820191506020810190506020830392506118b1565b6001836020036101000a0380198251168184511680821785525050505050509050019150506040518091039020876040518082805190602001908083835b602083106119355780518252602082019150602081019050602083039250611912565b6001836020036101000a0380198251168184511680821785525050505050509050019150506040518091039020896040518082805190602001908083835b602083106119965780518252602082019150602081019050602083039250611973565b6001836020036101000a03801982511681845116808217855250505050505090500191505060405180910390207fc7128ef83e27b770c32cee39d6f6ba01ee93bc0c4f4f82cc28499d258eac3f5f6006548e604051808381526020018281526020019250505060405180910390a489600754016007819055506001600654016006819055505050505050505050505050565b60026020528160005260406000206020528060005260406000206000915091509054906101000a900460ff1681565b60085481565b6000809054906101000a900473ffffffffffffffffffffffffffffffffffffffff1673ffffffffffffffffffffffffffffffffffffffff163373ffffffffffffffffffffffffffffffffffffffff1614611ab657600080fd5b80600160006101000a81548173ffffffffffffffffffffffffffffffffffffffff021916908373ffffffffffffffffffffffffffffffffffffffff16021790555050565b6000809054906101000a900473ffffffffffffffffffffffffffffffffffffffff1673ffffffffffffffffffffffffffffffffffffffff163373ffffffffffffffffffffffffffffffffffffffff1614611b5357600080fd5b60056000878152602001908152602001600020600401544210611bde576040517f08c379a00000000000000000000000000000000000000000000000000000000081526004018080602001828103825260148152602001807f53616c6520697320616c7265616479206c69766500000000000000000000000081525060200191505060405180910390fd5b84600560008881526020019081526020016000206004018190555083600560008881526020019081526020016000206008019080519060200190611c2392919061379b565b508260056000888152602001908152602001600020600a019080519060200190611c4e92919061379b565b5081600560008881526020019081526020016000206009019080519060200190611c7992919061379b565b50806005600088815260200190815260200160002060070181905550505050505050565b6000809054906101000a900473ffffffffffffffffffffffffffffffffffffffff1673ffffffffffffffffffffffffffffffffffffffff163373ffffffffffffffffffffffffffffffffffffffff1614611cf657600080fd5b8060088190555050565b600160009054906101000a900473ffffffffffffffffffffffffffffffffffffffff1681565b60065481565b6000611e32600854611e24600160009054906101000a900473ffffffffffffffffffffffffffffffffffffffff1673ffffffffffffffffffffffffffffffffffffffff1663313ce5676040518163ffffffff167c010000000000000000000000000000000000000000000000000000000002815260040160206040518083038186803b158015611dbb57600080fd5b505afa158015611dcf573d6000803e3d6000fd5b505050506040513d6020811015611de557600080fd5b810190808051906020019092919050505060ff16600a0a60ff1660056000878152602001908152602001600020600701546130f890919063ffffffff16565b61317e90919063ffffffff16565b9050919050565b6000809054906101000a900473ffffffffffffffffffffffffffffffffffffffff1681565b6000809054906101000a900473ffffffffffffffffffffffffffffffffffffffff1673ffffffffffffffffffffffffffffffffffffffff163373ffffffffffffffffffffffffffffffffffffffff1614611eb757600080fd5b6000600960006101000a81548160ff021916908315150217905550565b60046020528060005260406000206000915054906101000a900460ff1681565b6005602052806000526040600020600091509050806000015490806001015490806002015490806003015490806004015490806007015490806008018054600181600116156101000203166002900480601f016020809104026020016040519081016040528092919081815260200182805460018160011615610100020316600290048015611fc45780601f10611f9957610100808354040283529160200191611fc4565b820191906000526020600020905b815481529060010190602001808311611fa757829003601f168201915b505050505090806009018054600181600116156101000203166002900480601f0160208091040260200160405190810160405280929190818152602001828054600181600116156101000203166002900480156120625780601f1061203757610100808354040283529160200191612062565b820191906000526020600020905b81548152906001019060200180831161204557829003601f168201915b50505050509080600a018054600181600116156101000203166002900480601f0160208091040260200160405190810160405280929190818152602001828054600181600116156101000203166002900480156121005780601f106120d557610100808354040283529160200191612100565b820191906000526020600020905b8154815290600101906020018083116120e357829003601f168201915b50505050509080600b0160009054906101000a900473ffffffffffffffffffffffffffffffffffffffff1690508a565b600960009054906101000a900460ff16156121b3576040517f08c379a00000000000000000000000000000000000000000000000000000000081526004018080602001828103825260108152602001807f4f70656e6572206973206c6f636b65640000000000000000000000000000000081525060200191505060405180910390fd5b600073ffffffffffffffffffffffffffffffffffffffff1660056000838152602001908152602001600020600b0160009054906101000a900473ffffffffffffffffffffffffffffffffffffffff1673ffffffffffffffffffffffffffffffffffffffff16141561228c576040517f08c379a00000000000000000000000000000000000000000000000000000000081526004018080602001828103825260178152602001807f5061636b2077617320616c726561647920626f7567687400000000000000000081525060200191505060405180910390fd5b600060056000838152602001908152602001600020600701541415612319576040517f08c379a00000000000000000000000000000000000000000000000000000000081526004018080602001828103825260118152602001807f5061636b2068617320746f20657869737400000000000000000000000000000081525060200191505060405180910390fd5b6008546005600083815260200190815260200160002060070154101561238a576040517f08c379a000000000000000000000000000000000000000000000000000000000815260040180806020018281038252603d8152602001806138ec603d913960400191505060405180910390fd5b600061239582611d2c565b905080600160009054906101000a900473ffffffffffffffffffffffffffffffffffffffff1673ffffffffffffffffffffffffffffffffffffffff1663dd62ed3e33306040518363ffffffff167c0100000000000000000000000000000000000000000000000000000000028152600401808373ffffffffffffffffffffffffffffffffffffffff1673ffffffffffffffffffffffffffffffffffffffff1681526020018273ffffffffffffffffffffffffffffffffffffffff1673ffffffffffffffffffffffffffffffffffffffff1681526020019250505060206040518083038186803b15801561248757600080fd5b505afa15801561249b573d6000803e3d6000fd5b505050506040513d60208110156124b157600080fd5b81019080805190602001909291905050501015612536576040517f08c379a00000000000000000000000000000000000000000000000000000000081526004018080602001828103825260198152602001807f4e6f7420656e6f756768206d6f6e657920706572207061636b0000000000000081525060200191505060405180910390fd5b6000339050612546818484613207565b6001600a6000828254019250508190555060008090505b600560008581526020019081526020016000206001015481101561266f576001600260003373ffffffffffffffffffffffffffffffffffffffff1673ffffffffffffffffffffffffffffffffffffffff168152602001908152602001600020600083600560008981526020019081526020016000206003015401815260200190815260200160002060006101000a81548160ff021916908315150217905550600360003373ffffffffffffffffffffffffffffffffffffffff1673ffffffffffffffffffffffffffffffffffffffff168152602001908152602001600020819080600181540180825580915050600190039060005260206000200160009091909190915055808060010191505061255d565b508060056000858152602001908152602001600020600b0160006101000a81548173ffffffffffffffffffffffffffffffffffffffff021916908373ffffffffffffffffffffffffffffffffffffffff160217905550828173ffffffffffffffffffffffffffffffffffffffff167f459bdaa71b6c253b49d34a7622dc4c6c1c416c0567571c068b392ba7172ddd4c60405160405180910390a3505050565b600960009054906101000a900460ff1681565b60075481565b600a5481565b6000809054906101000a900473ffffffffffffffffffffffffffffffffffffffff1673ffffffffffffffffffffffffffffffffffffffff163373ffffffffffffffffffffffffffffffffffffffff161461278657600080fd5b81600560008481526020019081526020016000206000015414612811576040517f08c379a00000000000000000000000000000000000000000000000000000000081526004018080602001828103825260138152602001807f5061636b20646f6573206e6f742065786973740000000000000000000000000081525060200191505060405180910390fd5b612819613724565b60056000848152602001908152602001600020604051806101800160405290816000820154815260200160018201548152602001600282015481526020016003820154815260200160048201548152602001600582018054806020026020016040519081016040528092919081815260200182805480156128b957602002820191906000526020600020905b8154815260200190600101908083116128a5575b505050505081526020016006820180548060200260200160405190810160405280929190818152602001828054801561294757602002820191906000526020600020905b8160009054906101000a900473ffffffffffffffffffffffffffffffffffffffff1673ffffffffffffffffffffffffffffffffffffffff16815260200190600101908083116128fd575b5050505050815260200160078201548152602001600882018054600181600116156101000203166002900480601f0160208091040260200160405190810160405280929190818152602001828054600181600116156101000203166002900480156129f35780601f106129c8576101008083540402835291602001916129f3565b820191906000526020600020905b8154815290600101906020018083116129d657829003601f168201915b50505050508152602001600982018054600181600116156101000203166002900480601f016020809104026020016040519081016040528092919081815260200182805460018160011615610100020316600290048015612a955780601f10612a6a57610100808354040283529160200191612a95565b820191906000526020600020905b815481529060010190602001808311612a7857829003601f168201915b50505050508152602001600a82018054600181600116156101000203166002900480601f016020809104026020016040519081016040528092919081815260200182805460018160011615610100020316600290048015612b375780601f10612b0c57610100808354040283529160200191612b37565b820191906000526020600020905b815481529060010190602001808311612b1a57829003601f168201915b50505050508152602001600b820160009054906101000a900473ffffffffffffffffffffffffffffffffffffffff1673ffffffffffffffffffffffffffffffffffffffff1673ffffffffffffffffffffffffffffffffffffffff168152505090508160056000858152602001908152602001600020600b0160006101000a81548173ffffffffffffffffffffffffffffffffffffffff021916908373ffffffffffffffffffffffffffffffffffffffff1602179055506001600a6000828254019250508190555060008090505b6005600085815260200190815260200160002060010154811015612d16576001600260008573ffffffffffffffffffffffffffffffffffffffff1673ffffffffffffffffffffffffffffffffffffffff168152602001908152602001600020600083600560008981526020019081526020016000206003015401815260200190815260200160002060006101000a81548160ff021916908315150217905550600360008473ffffffffffffffffffffffffffffffffffffffff1673ffffffffffffffffffffffffffffffffffffffff1681526020019081526020016000208190806001815401808255809150506001900390600052602060002001600090919091909150558080600101915050612c04565b50828273ffffffffffffffffffffffffffffffffffffffff167f459bdaa71b6c253b49d34a7622dc4c6c1c416c0567571c068b392ba7172ddd4c60405160405180910390a3505050565b6000809054906101000a900473ffffffffffffffffffffffffffffffffffffffff1673ffffffffffffffffffffffffffffffffffffffff163373ffffffffffffffffffffffffffffffffffffffff1614612db957600080fd5b60056000828152602001908152602001600020600401544210612e44576040517f08c379a00000000000000000000000000000000000000000000000000000000081526004018080602001828103825260148152602001807f53616c6520697320616c7265616479206c69766500000000000000000000000081525060200191505060405180910390fd5b600560008281526020019081526020016000206000808201600090556001820160009055600282016000905560038201600090556004820160009055600582016000612e90919061381b565b600682016000612ea0919061383c565b6007820160009055600882016000612eb8919061385d565b600982016000612ec8919061385d565b600a82016000612ed8919061385d565b600b820160006101000a81549073ffffffffffffffffffffffffffffffffffffffff02191690555050807fc02722c9e8790b48040a1db93c8b8e288fa395ffeed86c32215412ec047fd89260405160405180910390a250565b6000809054906101000a900473ffffffffffffffffffffffffffffffffffffffff1673ffffffffffffffffffffffffffffffffffffffff163373ffffffffffffffffffffffffffffffffffffffff1614612f8a57600080fd5b600073ffffffffffffffffffffffffffffffffffffffff168173ffffffffffffffffffffffffffffffffffffffff161415612fc457600080fd5b8073ffffffffffffffffffffffffffffffffffffffff166000809054906101000a900473ffffffffffffffffffffffffffffffffffffffff1673ffffffffffffffffffffffffffffffffffffffff167f8be0079c531659141344cd1fd0a4f28419497f9722a3daafe3b4186f6b6457e060405160405180910390a3806000806101000a81548173ffffffffffffffffffffffffffffffffffffffff021916908373ffffffffffffffffffffffffffffffffffffffff16021790555050565b6000809054906101000a900473ffffffffffffffffffffffffffffffffffffffff1673ffffffffffffffffffffffffffffffffffffffff163373ffffffffffffffffffffffffffffffffffffffff16146130db57600080fd5b6001600960006101000a81548160ff021916908315150217905550565b60008083141561310b5760009050613178565b600082840290508284828161311c57fe5b0414613173576040517f08c379a00000000000000000000000000000000000000000000000000000000081526004018080602001828103825260218152602001806138cb6021913960400191505060405180910390fd5b809150505b92915050565b60008082116131f5576040517f08c379a000000000000000000000000000000000000000000000000000000000815260040180806020018281038252601a8152602001807f536166654d6174683a206469766973696f6e206279207a65726f00000000000081525060200191505060405180910390fd5b8183816131fe57fe5b04905092915050565b61320f613724565b60056000848152602001908152602001600020604051806101800160405290816000820154815260200160018201548152602001600282015481526020016003820154815260200160048201548152602001600582018054806020026020016040519081016040528092919081815260200182805480156132af57602002820191906000526020600020905b81548152602001906001019080831161329b575b505050505081526020016006820180548060200260200160405190810160405280929190818152602001828054801561333d57602002820191906000526020600020905b8160009054906101000a900473ffffffffffffffffffffffffffffffffffffffff1673ffffffffffffffffffffffffffffffffffffffff16815260200190600101908083116132f3575b5050505050815260200160078201548152602001600882018054600181600116156101000203166002900480601f0160208091040260200160405190810160405280929190818152602001828054600181600116156101000203166002900480156133e95780601f106133be576101008083540402835291602001916133e9565b820191906000526020600020905b8154815290600101906020018083116133cc57829003601f168201915b50505050508152602001600982018054600181600116156101000203166002900480601f01602080910402602001604051908101604052809291908181526020018280546001816001161561010002031660029004801561348b5780601f106134605761010080835404028352916020019161348b565b820191906000526020600020905b81548152906001019060200180831161346e57829003601f168201915b50505050508152602001600a82018054600181600116156101000203166002900480601f01602080910402602001604051908101604052809291908181526020018280546001816001161561010002031660029004801561352d5780601f106135025761010080835404028352916020019161352d565b820191906000526020600020905b81548152906001019060200180831161351057829003601f168201915b50505050508152602001600b820160009054906101000a900473ffffffffffffffffffffffffffffffffffffffff1673ffffffffffffffffffffffffffffffffffffffff1673ffffffffffffffffffffffffffffffffffffffff1681525050905060008090505b8160c001515181101561371d57600160009054906101000a900473ffffffffffffffffffffffffffffffffffffffff1673ffffffffffffffffffffffffffffffffffffffff166323b872dd868460c0015184815181106135f057fe5b60200260200101516064878760a00151878151811061360b57fe5b6020026020010151028161361b57fe5b046040518463ffffffff167c0100000000000000000000000000000000000000000000000000000000028152600401808473ffffffffffffffffffffffffffffffffffffffff1673ffffffffffffffffffffffffffffffffffffffff1681526020018373ffffffffffffffffffffffffffffffffffffffff1673ffffffffffffffffffffffffffffffffffffffff1681526020018281526020019350505050602060405180830381600087803b1580156136d457600080fd5b505af11580156136e8573d6000803e3d6000fd5b505050506040513d60208110156136fe57600080fd5b8101908080519060200190929190505050508080600101915050613594565b5050505050565b6040518061018001604052806000815260200160008152602001600081526020016000815260200160008152602001606081526020016060815260200160008152602001606081526020016060815260200160608152602001600073ffffffffffffffffffffffffffffffffffffffff1681525090565b828054600181600116156101000203166002900490600052602060002090601f016020900481019282601f106137dc57805160ff191683800117855561380a565b8280016001018555821561380a579182015b828111156138095782518255916020019190600101906137ee565b5b50905061381791906138a5565b5090565b508054600082559060005260206000209081019061383991906138a5565b50565b508054600082559060005260206000209081019061385a91906138a5565b50565b50805460018160011615610100020316600290046000825580601f1061388357506138a2565b601f0160209004906000526020600020908101906138a191906138a5565b5b50565b6138c791905b808211156138c35760008160009055506001016138ab565b5090565b9056fe536166654d6174683a206d756c7469706c69636174696f6e206f766572666c6f77507269636520696e207265616c4676722068617320746f20626520686967686572207468616e20756e6974207072696365206f6620746865207061636b53756d206f6620616c6c20616d6f756e74732068617320746f20657175616c2031303073616c65446973747269627574696f6e204c656e6768747320617265206e6f74207468652073616d65a2646970667358221220c5a7439168bb50ee09c6c1bc1b960ca5570fa981f3f4e7e9873fe2a7c999f79164736f6c63430006020033",
  "source": "// SPDX-License-Identifier: MIT\n\npragma solidity >=0.6.0;\n\nimport \"@openzeppelin/contracts/token/ERC721/ERC721.sol\";\nimport \"@openzeppelin/contracts/token/ERC20/ERC20.sol\";\nimport \"../utils/Ownable.sol\";\n\ncontract Opener is  Ownable {\n    using SafeMath for uint256;\n\n    ERC20 public _purchaseToken;\n    // Mapping from address to bool, if egg was already claimed\n    // The hash is about the userId and the nftIds array\n    mapping(address => mapping(uint256 => bool)) public registeredIDs;\n    mapping(address => uint256[]) public registeredIDsArray;\n    mapping(uint256 => bool) public alreadyMinted;\n    mapping(uint256 => Pack) public packs;\n    uint256 public packIncrementId = 0;\n    uint256 public lastNFTID = 0;\n\n    event PackCreated(uint256 packId, uint256  nftsAmount, string indexed serie, string indexed packType, string indexed drop);\n    event PackOpened(address indexed by, uint256 indexed packId);\n    event PackDelete(uint256 indexed packId);\n\n    uint256 public _realFvrTokenPriceUSD = 0;\n\n    bool public _closed = false;\n    uint256 public _openedPacks = 0;\n\n    struct Pack {\n        uint256 packId;\n        uint256 nftAmount;\n        uint256 packNumber;\n        uint256 initialNFTId;\n        uint256 saleStart;\n        uint256[] saleDistributionAmounts;\n        address[] saleDistributionAddresses;\n        // Catalog info\n        uint256 price; // in usd (1 = $0.000001)\n        string serie;\n        string drop;\n        string packType;\n        //external info\n        address buyer;\n    }\n\n    constructor(\n        ERC20 purchaseToken\n    ) public {\n        _purchaseToken = purchaseToken;\n    }\n\n    function buyPack(uint256 packId) public {\n        require(!_closed, \"Opener is locked\");\n        require(packs[packId].buyer != address(0), \"Pack was already bought\");\n        require(packs[packId].price != 0, \"Pack has to exist\");\n        require(packs[packId].price >= _realFvrTokenPriceUSD, \"Price in realFvr has to be higher than unit price of the pack\");\n\n        uint256 price = getPackPriceInFVR(packId);\n\n        require(_purchaseToken.allowance(msg.sender, address(this)) >= price, \"Not enough money per pack\");\n\n        address from = msg.sender;\n\n        _distributePackShares(from, packId, price);\n\n        _openedPacks += 1;\n\n        for(uint i = 0; i < packs[packId].nftAmount; i++){\n            registeredIDs[msg.sender][packs[packId].initialNFTId+i] = true;\n            registeredIDsArray[msg.sender].push(i);\n        }\n\n        packs[packId].buyer = from;\n\n        emit PackOpened(from, packId);\n\n    }\n\n    function _distributePackShares(address from, uint256 packId, uint256 amount) internal {\n        //transfer of fee share\n        Pack memory pack = packs[packId];\n\n        for(uint i = 0; i < pack.saleDistributionAddresses.length; i++){\n            //transfer of stake share\n            _purchaseToken.transferFrom(\n                from,\n                pack.saleDistributionAddresses[i],\n                (pack.saleDistributionAmounts[i] * amount) / 100\n            );\n        }\n    }\n\n    function createPack(uint256 packNumber, uint256 nftAmount, uint256 price /* 1 = ($0.000001) */, \n        string memory serie, string memory packType, string memory drop, uint256 saleStart,\n        address[] memory saleDistributionAddresses,  uint256[] memory saleDistributionAmounts /* [1;98;1]*/\n    ) public onlyOwner {\n\n        require(saleDistributionAmounts.length == saleDistributionAddresses.length, \"saleDistribution Lenghts are not the same\");\n        uint256 totalFees = 0;\n        for(uint i = 0; i < saleDistributionAddresses.length; i++){\n            totalFees += saleDistributionAmounts[i];\n        }\n        require(totalFees == 100, \"Sum of all amounts has to equal 100\");\n\n        Pack memory pack = packs[packIncrementId];\n        pack.packId = packIncrementId;\n        pack.packNumber = packNumber;\n        pack.nftAmount = nftAmount;\n        pack.saleStart = saleStart;\n        pack.initialNFTId = lastNFTID;\n        pack.price = price;\n        pack.serie = serie;\n        pack.drop = drop;\n        pack.saleDistributionAddresses = saleDistributionAddresses;\n        pack.saleDistributionAmounts = saleDistributionAmounts;\n        pack.packType = packType;\n\n        emit PackCreated(packIncrementId, nftAmount, serie, packType, drop);\n        lastNFTID = lastNFTID + nftAmount;\n        packIncrementId = packIncrementId+1;\n    }\n\n     function offerPack(uint256 packId, address receivingAddress) public onlyOwner {\n        require(packs[packId].packId == packId, \"Pack does not exist\");\n        Pack memory pack = packs[packId];\n        packs[packId].buyer = receivingAddress;\n\n        _openedPacks += 1;\n\n        for(uint i = 0; i < packs[packId].nftAmount; i++){\n            registeredIDs[receivingAddress][packs[packId].initialNFTId+i] = true;\n            registeredIDsArray[receivingAddress].push(i);\n        }\n\n        emit PackOpened(receivingAddress, packId);\n    }\n\n    function editPackInfo(uint256 _packId, uint256 _saleStart, string memory serie, string memory packType, string memory drop, uint256 price) public onlyOwner {\n        require(block.timestamp < packs[_packId].saleStart, \"Sale is already live\");\n        packs[_packId].saleStart = _saleStart;\n        packs[_packId].serie = serie;\n        packs[_packId].packType = packType;\n        packs[_packId].drop = drop;\n        packs[_packId].price = price;\n    }\n\n    function deletePackById(uint256 packId) public onlyOwner {\n        require(block.timestamp < packs[packId].saleStart, \"Sale is already live\");\n        delete packs[packId];\n        emit PackDelete(packId);\n    }\n\n    function getPackbyId(uint256 _packId) public onlyOwner returns (uint256, uint256, uint256, uint256, string memory, string memory, string memory, address, \n        address[] memory, uint256[] memory)  {\n        Pack memory pack = packs[_packId];\n        return (\n            pack.packId, pack.packNumber, pack.initialNFTId, pack.price, pack.serie, pack.drop, pack.packType, pack.buyer,\n            pack.saleDistributionAddresses, pack.saleDistributionAmounts);\n    }\n\n    function getPackPriceInFVR(uint256 packId) public returns (uint256) {\n        return packs[packId].price.mul(10**_purchaseToken.decimals()).div(_realFvrTokenPriceUSD);\n    }\n\n    function setPurchaseTokenAddress(ERC20 purchaseToken) public onlyOwner {\n        _purchaseToken = purchaseToken;\n    }\n\n    function setTokenPriceInUSD(uint256 newPrice /* 1 = $0.000001 */) public onlyOwner {\n        _realFvrTokenPriceUSD = newPrice; // 1/10**18 Real Fvr ( 0.00(16)1 FVR) = 1000000 ($1)\n    }\n\n    function lock() public onlyOwner {\n        _closed = true;\n    }\n\n    function unlock() public onlyOwner {\n        _closed = false;\n    }\n}\n\n// ERC721Standard made for a simple structure, owner generates himself the NFT he wants (direct minting)\ncontract ERC721Standard is ERC721, Ownable {\n\n    constructor (string memory name, string memory symbol) public ERC721(name, symbol) { }\n\n    function exists(uint256 tokenId) public view returns (bool) {\n        return _exists(tokenId);\n    }\n\n    function setTokenURI(uint256 tokenId, string memory uri) public onlyOwner {\n        _setTokenURI(tokenId, uri);\n    }\n\n    function setBaseURI(string memory baseURI) public onlyOwner {\n        _setBaseURI(baseURI);\n    }\n\n    function mint(address to, uint256 tokenId) public onlyOwner {\n        _safeMint(to, tokenId);\n    }\n\n    function mint(address to, uint256 tokenId, bytes memory _data) public onlyOwner {\n        _safeMint(to, tokenId, _data);\n    }\n}\n\n// ERC721Colectibles made for a Cryptokitties/Polkamon like structure, where an hash is given by the owner based on a purchase of a package\n// Can be limited or unlimited\ncontract ERC721Colectibles is Opener, ERC721 {\n\n    constructor (\n        string memory name, string memory symbol,\n        ERC20 _purchaseToken) public ERC721(name, symbol) \n        Opener(_purchaseToken)\n    {\n    }\n\n    function exists(uint256 tokenId) public view returns (bool) {\n        return _exists(tokenId);\n    }\n\n    function setTokenURI(uint256 tokenId, string memory uri) public onlyOwner {\n        _setTokenURI(tokenId, uri);\n    }\n\n    function setBaseURI(string memory baseURI) public onlyOwner {\n        _setBaseURI(baseURI);\n    }\n\n    function mint(uint256 tokenIdToMint) public {\n        require(registeredIDs[msg.sender][tokenIdToMint], \"Token was not registered or not the rightful owner\");\n        require(!alreadyMinted[tokenIdToMint], \"Already minted\");\n\n        alreadyMinted[tokenIdToMint] = true;\n        _safeMint(msg.sender, tokenIdToMint);\n    }\n\n    function getRegisteredIDs(address _address) public view returns(uint256[] memory) {\n        return registeredIDsArray[_address];\n    }\n}",
  "sourcePath": "/Users/ruipedro/Desktop/projects/Bepro/@bepro-js/contracts/custom/ERC721RealFvr.sol",
  "compiler": {
    "name": "solc",
    "version": "0.6.2+commit.bacdbe57.Emscripten.clang"
  },
  "schemaVersion": "3.0.20",
  "updatedAt": "2021-05-05T23:16:42.542Z",
  "devdoc": {
    "methods": {
      "transferOwnership(address)": {
        "details": "Allows the current owner to transfer control of the contract to a newOwner.",
        "params": {
          "newOwner": "The address to transfer ownership to."
        }
      }
    }
  },
  "userdoc": {
    "methods": {}
  }
}