{
  "contractName": "OpenerRealFvr",
  "abi": [
    {
      "inputs": [
        {
          "internalType": "string",
          "name": "name",
          "type": "string"
        },
        {
          "internalType": "string",
          "name": "symbol",
          "type": "string"
        },
        {
          "internalType": "contract ERC20",
          "name": "_purchaseToken",
          "type": "address"
        }
      ],
      "stateMutability": "nonpayable",
      "type": "constructor"
    },
    {
      "anonymous": false,
      "inputs": [
        {
          "indexed": true,
          "internalType": "address",
          "name": "owner",
          "type": "address"
        },
        {
          "indexed": true,
          "internalType": "address",
          "name": "approved",
          "type": "address"
        },
        {
          "indexed": true,
          "internalType": "uint256",
          "name": "tokenId",
          "type": "uint256"
        }
      ],
      "name": "Approval",
      "type": "event"
    },
    {
      "anonymous": false,
      "inputs": [
        {
          "indexed": true,
          "internalType": "address",
          "name": "owner",
          "type": "address"
        },
        {
          "indexed": true,
          "internalType": "address",
          "name": "operator",
          "type": "address"
        },
        {
          "indexed": false,
          "internalType": "bool",
          "name": "approved",
          "type": "bool"
        }
      ],
      "name": "ApprovalForAll",
      "type": "event"
    },
    {
      "anonymous": false,
      "inputs": [
        {
          "indexed": true,
          "internalType": "uint256",
          "name": "nftId",
          "type": "uint256"
        }
      ],
      "name": "NftMinted",
      "type": "event"
    },
    {
      "anonymous": false,
      "inputs": [
        {
          "indexed": true,
          "internalType": "address",
          "name": "previousOwner",
          "type": "address"
        },
        {
          "indexed": true,
          "internalType": "address",
          "name": "newOwner",
          "type": "address"
        }
      ],
      "name": "OwnershipTransferred",
      "type": "event"
    },
    {
      "anonymous": false,
      "inputs": [
        {
          "indexed": true,
          "internalType": "address",
          "name": "by",
          "type": "address"
        },
        {
          "indexed": true,
          "internalType": "uint256",
          "name": "packId",
          "type": "uint256"
        }
      ],
      "name": "PackBought",
      "type": "event"
    },
    {
      "anonymous": false,
      "inputs": [
        {
          "indexed": false,
          "internalType": "uint256",
          "name": "packId",
          "type": "uint256"
        },
        {
          "indexed": false,
          "internalType": "uint256",
          "name": "nftsAmount",
          "type": "uint256"
        },
        {
          "indexed": true,
          "internalType": "string",
          "name": "serie",
          "type": "string"
        },
        {
          "indexed": true,
          "internalType": "string",
          "name": "packType",
          "type": "string"
        },
        {
          "indexed": true,
          "internalType": "string",
          "name": "drop",
          "type": "string"
        }
      ],
      "name": "PackCreated",
      "type": "event"
    },
    {
      "anonymous": false,
      "inputs": [
        {
          "indexed": true,
          "internalType": "uint256",
          "name": "packId",
          "type": "uint256"
        }
      ],
      "name": "PackDelete",
      "type": "event"
    },
    {
      "anonymous": false,
      "inputs": [
        {
          "indexed": true,
          "internalType": "address",
          "name": "by",
          "type": "address"
        },
        {
          "indexed": true,
          "internalType": "uint256",
          "name": "packId",
          "type": "uint256"
        }
      ],
      "name": "PackOpened",
      "type": "event"
    },
    {
      "anonymous": false,
      "inputs": [
        {
          "indexed": true,
          "internalType": "address",
          "name": "from",
          "type": "address"
        },
        {
          "indexed": true,
          "internalType": "address",
          "name": "to",
          "type": "address"
        },
        {
          "indexed": true,
          "internalType": "uint256",
          "name": "tokenId",
          "type": "uint256"
        }
      ],
      "name": "Transfer",
      "type": "event"
    },
    {
      "inputs": [],
      "name": "_closed",
      "outputs": [
        {
          "internalType": "bool",
          "name": "",
          "type": "bool"
        }
      ],
      "stateMutability": "view",
      "type": "function"
    },
    {
      "inputs": [],
      "name": "_openedPacks",
      "outputs": [
        {
          "internalType": "uint256",
          "name": "",
          "type": "uint256"
        }
      ],
      "stateMutability": "view",
      "type": "function"
    },
    {
      "inputs": [],
      "name": "_purchaseToken",
      "outputs": [
        {
          "internalType": "contract ERC20",
          "name": "",
          "type": "address"
        }
      ],
      "stateMutability": "view",
      "type": "function"
    },
    {
      "inputs": [],
      "name": "_realFvrTokenPriceUSD",
      "outputs": [
        {
          "internalType": "uint256",
          "name": "",
          "type": "uint256"
        }
      ],
      "stateMutability": "view",
      "type": "function"
    },
    {
      "inputs": [
        {
          "internalType": "uint256",
          "name": "",
          "type": "uint256"
        }
      ],
      "name": "alreadyMinted",
      "outputs": [
        {
          "internalType": "bool",
          "name": "",
          "type": "bool"
        }
      ],
      "stateMutability": "view",
      "type": "function"
    },
    {
      "inputs": [
        {
          "internalType": "address",
          "name": "to",
          "type": "address"
        },
        {
          "internalType": "uint256",
          "name": "tokenId",
          "type": "uint256"
        }
      ],
      "name": "approve",
      "outputs": [],
      "stateMutability": "nonpayable",
      "type": "function"
    },
    {
      "inputs": [
        {
          "internalType": "address",
          "name": "owner",
          "type": "address"
        }
      ],
      "name": "balanceOf",
      "outputs": [
        {
          "internalType": "uint256",
          "name": "",
          "type": "uint256"
        }
      ],
      "stateMutability": "view",
      "type": "function"
    },
    {
      "inputs": [],
      "name": "baseURI",
      "outputs": [
        {
          "internalType": "string",
          "name": "",
          "type": "string"
        }
      ],
      "stateMutability": "view",
      "type": "function"
    },
    {
      "inputs": [
        {
          "internalType": "uint256",
          "name": "tokenId",
          "type": "uint256"
        }
      ],
      "name": "getApproved",
      "outputs": [
        {
          "internalType": "address",
          "name": "",
          "type": "address"
        }
      ],
      "stateMutability": "view",
      "type": "function"
    },
    {
      "inputs": [
        {
          "internalType": "address",
          "name": "owner",
          "type": "address"
        },
        {
          "internalType": "address",
          "name": "operator",
          "type": "address"
        }
      ],
      "name": "isApprovedForAll",
      "outputs": [
        {
          "internalType": "bool",
          "name": "",
          "type": "bool"
        }
      ],
      "stateMutability": "view",
      "type": "function"
    },
    {
      "inputs": [],
      "name": "lastNFTID",
      "outputs": [
        {
          "internalType": "uint256",
          "name": "",
          "type": "uint256"
        }
      ],
      "stateMutability": "view",
      "type": "function"
    },
    {
      "inputs": [],
      "name": "name",
      "outputs": [
        {
          "internalType": "string",
          "name": "",
          "type": "string"
        }
      ],
      "stateMutability": "view",
      "type": "function"
    },
    {
      "inputs": [],
      "name": "owner",
      "outputs": [
        {
          "internalType": "address",
          "name": "",
          "type": "address"
        }
      ],
      "stateMutability": "view",
      "type": "function"
    },
    {
      "inputs": [
        {
          "internalType": "uint256",
          "name": "tokenId",
          "type": "uint256"
        }
      ],
      "name": "ownerOf",
      "outputs": [
        {
          "internalType": "address",
          "name": "",
          "type": "address"
        }
      ],
      "stateMutability": "view",
      "type": "function"
    },
    {
      "inputs": [],
      "name": "packIncrementId",
      "outputs": [
        {
          "internalType": "uint256",
          "name": "",
          "type": "uint256"
        }
      ],
      "stateMutability": "view",
      "type": "function"
    },
    {
      "inputs": [
        {
          "internalType": "uint256",
          "name": "",
          "type": "uint256"
        }
      ],
      "name": "packs",
      "outputs": [
        {
          "internalType": "uint256",
          "name": "packId",
          "type": "uint256"
        },
        {
          "internalType": "uint256",
          "name": "nftAmount",
          "type": "uint256"
        },
        {
          "internalType": "uint256",
          "name": "initialNFTId",
          "type": "uint256"
        },
        {
          "internalType": "uint256",
          "name": "saleStart",
          "type": "uint256"
        },
        {
          "internalType": "uint256",
          "name": "price",
          "type": "uint256"
        },
        {
          "internalType": "string",
          "name": "serie",
          "type": "string"
        },
        {
          "internalType": "string",
          "name": "drop",
          "type": "string"
        },
        {
          "internalType": "string",
          "name": "packType",
          "type": "string"
        },
        {
          "internalType": "bool",
          "name": "opened",
          "type": "bool"
        },
        {
          "internalType": "address",
          "name": "buyer",
          "type": "address"
        }
      ],
      "stateMutability": "view",
      "type": "function"
    },
    {
      "inputs": [
        {
          "internalType": "address",
          "name": "",
          "type": "address"
        },
        {
          "internalType": "uint256",
          "name": "",
          "type": "uint256"
        }
      ],
      "name": "registeredIDs",
      "outputs": [
        {
          "internalType": "bool",
          "name": "",
          "type": "bool"
        }
      ],
      "stateMutability": "view",
      "type": "function"
    },
    {
      "inputs": [
        {
          "internalType": "address",
          "name": "",
          "type": "address"
        },
        {
          "internalType": "uint256",
          "name": "",
          "type": "uint256"
        }
      ],
      "name": "registeredIDsArray",
      "outputs": [
        {
          "internalType": "uint256",
          "name": "",
          "type": "uint256"
        }
      ],
      "stateMutability": "view",
      "type": "function"
    },
    {
      "inputs": [
        {
          "internalType": "address",
          "name": "from",
          "type": "address"
        },
        {
          "internalType": "address",
          "name": "to",
          "type": "address"
        },
        {
          "internalType": "uint256",
          "name": "tokenId",
          "type": "uint256"
        }
      ],
      "name": "safeTransferFrom",
      "outputs": [],
      "stateMutability": "nonpayable",
      "type": "function"
    },
    {
      "inputs": [
        {
          "internalType": "address",
          "name": "from",
          "type": "address"
        },
        {
          "internalType": "address",
          "name": "to",
          "type": "address"
        },
        {
          "internalType": "uint256",
          "name": "tokenId",
          "type": "uint256"
        },
        {
          "internalType": "bytes",
          "name": "_data",
          "type": "bytes"
        }
      ],
      "name": "safeTransferFrom",
      "outputs": [],
      "stateMutability": "nonpayable",
      "type": "function"
    },
    {
      "inputs": [
        {
          "internalType": "address",
          "name": "operator",
          "type": "address"
        },
        {
          "internalType": "bool",
          "name": "approved",
          "type": "bool"
        }
      ],
      "name": "setApprovalForAll",
      "outputs": [],
      "stateMutability": "nonpayable",
      "type": "function"
    },
    {
      "inputs": [
        {
          "internalType": "bytes4",
          "name": "interfaceId",
          "type": "bytes4"
        }
      ],
      "name": "supportsInterface",
      "outputs": [
        {
          "internalType": "bool",
          "name": "",
          "type": "bool"
        }
      ],
      "stateMutability": "view",
      "type": "function"
    },
    {
      "inputs": [],
      "name": "symbol",
      "outputs": [
        {
          "internalType": "string",
          "name": "",
          "type": "string"
        }
      ],
      "stateMutability": "view",
      "type": "function"
    },
    {
      "inputs": [
        {
          "internalType": "uint256",
          "name": "index",
          "type": "uint256"
        }
      ],
      "name": "tokenByIndex",
      "outputs": [
        {
          "internalType": "uint256",
          "name": "",
          "type": "uint256"
        }
      ],
      "stateMutability": "view",
      "type": "function"
    },
    {
      "inputs": [
        {
          "internalType": "address",
          "name": "owner",
          "type": "address"
        },
        {
          "internalType": "uint256",
          "name": "index",
          "type": "uint256"
        }
      ],
      "name": "tokenOfOwnerByIndex",
      "outputs": [
        {
          "internalType": "uint256",
          "name": "",
          "type": "uint256"
        }
      ],
      "stateMutability": "view",
      "type": "function"
    },
    {
      "inputs": [
        {
          "internalType": "uint256",
          "name": "tokenId",
          "type": "uint256"
        }
      ],
      "name": "tokenURI",
      "outputs": [
        {
          "internalType": "string",
          "name": "",
          "type": "string"
        }
      ],
      "stateMutability": "view",
      "type": "function"
    },
    {
      "inputs": [],
      "name": "totalSupply",
      "outputs": [
        {
          "internalType": "uint256",
          "name": "",
          "type": "uint256"
        }
      ],
      "stateMutability": "view",
      "type": "function"
    },
    {
      "inputs": [
        {
          "internalType": "address",
          "name": "from",
          "type": "address"
        },
        {
          "internalType": "address",
          "name": "to",
          "type": "address"
        },
        {
          "internalType": "uint256",
          "name": "tokenId",
          "type": "uint256"
        }
      ],
      "name": "transferFrom",
      "outputs": [],
      "stateMutability": "nonpayable",
      "type": "function"
    },
    {
      "inputs": [
        {
          "internalType": "address",
          "name": "newOwner",
          "type": "address"
        }
      ],
      "name": "transferOwnership",
      "outputs": [],
      "stateMutability": "nonpayable",
      "type": "function"
    },
    {
      "inputs": [
        {
          "internalType": "uint256",
          "name": "tokenId",
          "type": "uint256"
        },
        {
          "internalType": "string",
          "name": "uri",
          "type": "string"
        }
      ],
      "name": "setTokenURI",
      "outputs": [],
      "stateMutability": "nonpayable",
      "type": "function"
    },
    {
      "inputs": [
        {
          "internalType": "string",
          "name": "baseURI",
          "type": "string"
        }
      ],
      "name": "setBaseURI",
      "outputs": [],
      "stateMutability": "nonpayable",
      "type": "function"
    },
    {
      "inputs": [
        {
          "internalType": "uint256",
          "name": "tokenId",
          "type": "uint256"
        }
      ],
      "name": "exists",
      "outputs": [
        {
          "internalType": "bool",
          "name": "",
          "type": "bool"
        }
      ],
      "stateMutability": "view",
      "type": "function"
    },
    {
      "inputs": [
        {
          "internalType": "address",
          "name": "_address",
          "type": "address"
        }
      ],
      "name": "getRegisteredIDs",
      "outputs": [
        {
          "internalType": "uint256[]",
          "name": "",
          "type": "uint256[]"
        }
      ],
      "stateMutability": "view",
      "type": "function"
    },
    {
      "inputs": [
        {
          "internalType": "uint256",
          "name": "_packId",
          "type": "uint256"
        }
      ],
      "name": "getPackbyId",
      "outputs": [
        {
          "internalType": "uint256",
          "name": "",
          "type": "uint256"
        },
        {
          "internalType": "uint256",
          "name": "",
          "type": "uint256"
        },
        {
          "internalType": "uint256",
          "name": "",
          "type": "uint256"
        },
        {
          "internalType": "string",
          "name": "",
          "type": "string"
        },
        {
          "internalType": "string",
          "name": "",
          "type": "string"
        },
        {
          "internalType": "string",
          "name": "",
          "type": "string"
        },
        {
          "internalType": "address",
          "name": "",
          "type": "address"
        },
        {
          "internalType": "address[]",
          "name": "",
          "type": "address[]"
        },
        {
          "internalType": "uint256[]",
          "name": "",
          "type": "uint256[]"
        },
        {
          "internalType": "bool",
          "name": "",
          "type": "bool"
        }
      ],
      "stateMutability": "nonpayable",
      "type": "function"
    },
    {
      "inputs": [
        {
          "internalType": "uint256",
          "name": "packId",
          "type": "uint256"
        }
      ],
      "name": "getPackPriceInFVR",
      "outputs": [
        {
          "internalType": "uint256",
          "name": "",
          "type": "uint256"
        }
      ],
      "stateMutability": "nonpayable",
      "type": "function"
    },
    {
      "inputs": [
        {
          "internalType": "uint256",
          "name": "packId",
          "type": "uint256"
        }
      ],
      "name": "buyPack",
      "outputs": [],
      "stateMutability": "nonpayable",
      "type": "function"
    },
    {
      "inputs": [
        {
          "internalType": "uint256",
          "name": "packId",
          "type": "uint256"
        }
      ],
      "name": "openPack",
      "outputs": [],
      "stateMutability": "nonpayable",
      "type": "function"
    },
    {
      "inputs": [
        {
          "internalType": "uint256",
          "name": "nftAmount",
          "type": "uint256"
        },
        {
          "internalType": "uint256",
          "name": "price",
          "type": "uint256"
        },
        {
          "internalType": "string",
          "name": "serie",
          "type": "string"
        },
        {
          "internalType": "string",
          "name": "packType",
          "type": "string"
        },
        {
          "internalType": "string",
          "name": "drop",
          "type": "string"
        },
        {
          "internalType": "uint256",
          "name": "saleStart",
          "type": "uint256"
        },
        {
          "internalType": "address[]",
          "name": "saleDistributionAddresses",
          "type": "address[]"
        },
        {
          "internalType": "uint256[]",
          "name": "saleDistributionAmounts",
          "type": "uint256[]"
        }
      ],
      "name": "createPack",
      "outputs": [],
      "stateMutability": "nonpayable",
      "type": "function"
    },
    {
      "inputs": [
        {
          "internalType": "uint256",
          "name": "packId",
          "type": "uint256"
        },
        {
          "internalType": "address",
          "name": "receivingAddress",
          "type": "address"
        }
      ],
      "name": "offerPack",
      "outputs": [],
      "stateMutability": "nonpayable",
      "type": "function"
    },
    {
      "inputs": [
        {
          "internalType": "uint256",
          "name": "_packId",
          "type": "uint256"
        },
        {
          "internalType": "uint256",
          "name": "_saleStart",
          "type": "uint256"
        },
        {
          "internalType": "string",
          "name": "serie",
          "type": "string"
        },
        {
          "internalType": "string",
          "name": "packType",
          "type": "string"
        },
        {
          "internalType": "string",
          "name": "drop",
          "type": "string"
        },
        {
          "internalType": "uint256",
          "name": "price",
          "type": "uint256"
        }
      ],
      "name": "editPackInfo",
      "outputs": [],
      "stateMutability": "nonpayable",
      "type": "function"
    },
    {
      "inputs": [
        {
          "internalType": "uint256",
          "name": "packId",
          "type": "uint256"
        }
      ],
      "name": "deletePackById",
      "outputs": [],
      "stateMutability": "nonpayable",
      "type": "function"
    },
    {
      "inputs": [
        {
          "internalType": "uint256",
          "name": "tokenIdToMint",
          "type": "uint256"
        }
      ],
      "name": "mint",
      "outputs": [],
      "stateMutability": "nonpayable",
      "type": "function"
    },
    {
      "inputs": [
        {
          "internalType": "contract ERC20",
          "name": "purchaseToken",
          "type": "address"
        }
      ],
      "name": "setPurchaseTokenAddress",
      "outputs": [],
      "stateMutability": "nonpayable",
      "type": "function"
    },
    {
      "inputs": [
        {
          "internalType": "uint256",
          "name": "newPrice",
          "type": "uint256"
        }
      ],
      "name": "setTokenPriceInUSD",
      "outputs": [],
      "stateMutability": "nonpayable",
      "type": "function"
    },
    {
      "inputs": [],
      "name": "lock",
      "outputs": [],
      "stateMutability": "nonpayable",
      "type": "function"
    },
    {
      "inputs": [],
      "name": "unlock",
      "outputs": [],
      "stateMutability": "nonpayable",
      "type": "function"
    }
  ],
  "bytecode": "0x608060405260016010819055601155600060128190556013805460ff191690556014553480156200002f57600080fd5b506040516200508a3803806200508a833981810160405260608110156200005557600080fd5b81019080805160405193929190846401000000008211156200007657600080fd5b9083019060208201858111156200008c57600080fd5b8251640100000000811182820188101715620000a757600080fd5b82525081516020918201929091019080838360005b83811015620000d6578181015183820152602001620000bc565b50505050905090810190601f168015620001045780820380516001836020036101000a031916815260200191505b50604052602001805160405193929190846401000000008211156200012857600080fd5b9083019060208201858111156200013e57600080fd5b82516401000000008111828201881017156200015957600080fd5b82525081516020918201929091019080838360005b83811015620001885781810151838201526020016200016e565b50505050905090810190601f168015620001b65780820380516001836020036101000a031916815260200191505b5060405260200151600080546001600160a01b03191633179055915083905082620001f16301ffc9a760e01b6001600160e01b036200027916565b81516200020690600790602085019062000301565b5080516200021c90600890602084019062000301565b50620002386380ac58cd60e01b6001600160e01b036200027916565b62000253635b5e139f60e01b6001600160e01b036200027916565b6200026e63780e9d6360e01b6001600160e01b036200027916565b5050505050620003a6565b6001600160e01b03198082161415620002d9576040805162461bcd60e51b815260206004820152601c60248201527f4552433136353a20696e76616c696420696e7465726661636520696400000000604482015290519081900360640190fd5b6001600160e01b0319166000908152600160208190526040909120805460ff19169091179055565b828054600181600116156101000203166002900490600052602060002090601f016020900481019282601f106200034457805160ff191683800117855562000374565b8280016001018555821562000374579182015b828111156200037457825182559160200191906001019062000357565b506200038292915062000386565b5090565b620003a391905b808211156200038257600081556001016200038d565b90565b614cd480620003b66000396000f3fe608060405234801561001057600080fd5b506004361061028a5760003560e01c80636c0360eb1161015c578063b84c1392116100ce578063e985e9c511610087578063e985e9c514611170578063eb8800d01461119e578063ec6923a1146111a6578063ec90a293146111d2578063f2fde38b146111ef578063f83d08ba146112155761028a565b8063b84c139214610eba578063b88d4fde14611062578063c87b56dd14611126578063dc45bfb314611143578063dd7c5e5414611160578063e6416503146111685761028a565b80638da5cb5b116101205780638da5cb5b14610e3a57806395d89b4114610e42578063a0712d6814610e4a578063a22cb46514610e67578063a69df4b514610e95578063b7365f1f14610e9d5761028a565b80636c0360eb14610b205780636fcbc6ed14610b2857806370a0823114610b3057806384657d7614610b5657806384a5027014610e1d5761028a565b8063298489d2116102005780634f6ccce7116101b95780634f6ccce714610a0057806350a88c7e14610a1d57806355f804b314610a3a5780635eeb57c014610ade5780636352211e14610afb57806369c7d8a314610b185761028a565b8063298489d2146107295780632c6860301461074f5780632f745c59146107c55780633a307f61146107f157806342842e0e146109ad5780634f558e79146109e35761028a565b806315424e6e1161025257806315424e6e146103ec578063162094c41461060c57806318160ddd146106b75780631e14a533146106bf5780631eae8636146106eb57806323b872dd146106f35761028a565b806301d243a61461028f57806301ffc9a7146102cd57806306fdde0314610308578063081812fc14610385578063095ea7b3146103be575b600080fd5b6102bb600480360360408110156102a557600080fd5b506001600160a01b03813516906020013561121d565b60408051918252519081900360200190f35b6102f4600480360360208110156102e357600080fd5b50356001600160e01b03191661124b565b604080519115158252519081900360200190f35b61031061126e565b6040805160208082528351818301528351919283929083019185019080838360005b8381101561034a578181015183820152602001610332565b50505050905090810190601f1680156103775780820380516001836020036101000a031916815260200191505b509250505060405180910390f35b6103a26004803603602081101561039b57600080fd5b5035611305565b604080516001600160a01b039092168252519081900360200190f35b6103ea600480360360408110156103d457600080fd5b506001600160a01b038135169060200135611367565b005b6104096004803603602081101561040257600080fd5b5035611442565b604051808b81526020018a8152602001898152602001806020018060200180602001886001600160a01b03166001600160a01b0316815260200180602001806020018715151515815260200186810386528d818151815260200191508051906020019080838360005b8381101561048a578181015183820152602001610472565b50505050905090810190601f1680156104b75780820380516001836020036101000a031916815260200191505b5086810385528c5181528c516020918201918e019080838360005b838110156104ea5781810151838201526020016104d2565b50505050905090810190601f1680156105175780820380516001836020036101000a031916815260200191505b5086810384528b5181528b516020918201918d019080838360005b8381101561054a578181015183820152602001610532565b50505050905090810190601f1680156105775780820380516001836020036101000a031916815260200191505b508681038352895181528951602091820191808c01910280838360005b838110156105ac578181015183820152602001610594565b50505050905001868103825288818151815260200191508051906020019060200280838360005b838110156105eb5781810151838201526020016105d3565b505050509050019f5050505050505050505050505050505060405180910390f35b6103ea6004803603604081101561062257600080fd5b81359190810190604081016020820135600160201b81111561064357600080fd5b82018360208201111561065557600080fd5b803590602001918460018302840111600160201b8311171561067657600080fd5b91908080601f0160208091040260200160405190810160405280939291908181526020018383808284376000920191909152509295506117c9945050505050565b6102bb6117ee565b6102f4600480360360408110156106d557600080fd5b506001600160a01b0381351690602001356117ff565b6102bb61181f565b6103ea6004803603606081101561070957600080fd5b506001600160a01b03813581169160208101359091169060400135611825565b6103ea6004803603602081101561073f57600080fd5b50356001600160a01b031661187c565b6107756004803603602081101561076557600080fd5b50356001600160a01b03166118b5565b60408051602080825283518183015283519192839290830191858101910280838360005b838110156107b1578181015183820152602001610799565b505050509050019250505060405180910390f35b6102bb600480360360408110156107db57600080fd5b506001600160a01b038135169060200135611921565b6103ea600480360360c081101561080757600080fd5b813591602081013591810190606081016040820135600160201b81111561082d57600080fd5b82018360208201111561083f57600080fd5b803590602001918460018302840111600160201b8311171561086057600080fd5b91908080601f0160208091040260200160405190810160405280939291908181526020018383808284376000920191909152509295949360208101935035915050600160201b8111156108b257600080fd5b8201836020820111156108c457600080fd5b803590602001918460018302840111600160201b831117156108e557600080fd5b91908080601f0160208091040260200160405190810160405280939291908181526020018383808284376000920191909152509295949360208101935035915050600160201b81111561093757600080fd5b82018360208201111561094957600080fd5b803590602001918460018302840111600160201b8311171561096a57600080fd5b91908080601f0160208091040260200160405190810160405280939291908181526020018383808284376000920191909152509295505091359250611952915050565b6103ea600480360360608110156109c357600080fd5b506001600160a01b03813581169160208101359091169060400135611a5a565b6102f4600480360360208110156109f957600080fd5b5035611a75565b6102bb60048036036020811015610a1657600080fd5b5035611a80565b6103ea60048036036020811015610a3357600080fd5b5035611a9c565b6103ea60048036036020811015610a5057600080fd5b810190602081018135600160201b811115610a6a57600080fd5b820183602082011115610a7c57600080fd5b803590602001918460018302840111600160201b83111715610a9d57600080fd5b91908080601f016020809104026020016040519081016040528093929190818152602001838380828437600092019190915250929550611c62945050505050565b6103ea60048036036020811015610af457600080fd5b5035611c85565b6103a260048036036020811015610b1157600080fd5b5035611cf3565b6103a2611d21565b610310611d30565b6102bb611d91565b6102bb60048036036020811015610b4657600080fd5b50356001600160a01b0316611d97565b6103ea6004803603610100811015610b6d57600080fd5b813591602081013591810190606081016040820135600160201b811115610b9357600080fd5b820183602082011115610ba557600080fd5b803590602001918460018302840111600160201b83111715610bc657600080fd5b91908080601f0160208091040260200160405190810160405280939291908181526020018383808284376000920191909152509295949360208101935035915050600160201b811115610c1857600080fd5b820183602082011115610c2a57600080fd5b803590602001918460018302840111600160201b83111715610c4b57600080fd5b91908080601f0160208091040260200160405190810160405280939291908181526020018383808284376000920191909152509295949360208101935035915050600160201b811115610c9d57600080fd5b820183602082011115610caf57600080fd5b803590602001918460018302840111600160201b83111715610cd057600080fd5b91908080601f01602080910402602001604051908101604052809392919081815260200183838082843760009201919091525092958435959094909350604081019250602001359050600160201b811115610d2a57600080fd5b820183602082011115610d3c57600080fd5b803590602001918460208302840111600160201b83111715610d5d57600080fd5b9190808060200260200160405190810160405280939291908181526020018383602002808284376000920191909152509295949360208101935035915050600160201b811115610dac57600080fd5b820183602082011115610dbe57600080fd5b803590602001918460208302840111600160201b83111715610ddf57600080fd5b919080806020026020016040519081016040528093929190818152602001838360200280828437600092019190915250929550611dff945050505050565b6102bb60048036036020811015610e3357600080fd5b50356124d3565b6103a261250e565b61031061251d565b6103ea60048036036020811015610e6057600080fd5b503561257e565b6103ea60048036036040811015610e7d57600080fd5b506001600160a01b038135169060200135151561267d565b6103ea612782565b6102f460048036036020811015610eb357600080fd5b50356127a5565b610ed760048036036020811015610ed057600080fd5b50356127ba565b604051808b81526020018a815260200189815260200188815260200187815260200180602001806020018060200186151515158152602001856001600160a01b03166001600160a01b03168152602001848103845289818151815260200191508051906020019080838360005b83811015610f5c578181015183820152602001610f44565b50505050905090810190601f168015610f895780820380516001836020036101000a031916815260200191505b5084810383528851815288516020918201918a019080838360005b83811015610fbc578181015183820152602001610fa4565b50505050905090810190601f168015610fe95780820380516001836020036101000a031916815260200191505b50848103825287518152875160209182019189019080838360005b8381101561101c578181015183820152602001611004565b50505050905090810190601f1680156110495780820380516001836020036101000a031916815260200191505b509d505050505050505050505050505060405180910390f35b6103ea6004803603608081101561107857600080fd5b6001600160a01b03823581169260208101359091169160408201359190810190608081016060820135600160201b8111156110b257600080fd5b8201836020820111156110c457600080fd5b803590602001918460018302840111600160201b831117156110e557600080fd5b91908080601f0160208091040260200160405190810160405280939291908181526020018383808284376000920191909152509295506129c8945050505050565b6103106004803603602081101561113c57600080fd5b5035612a26565b6103ea6004803603602081101561115957600080fd5b5035612ca9565b6102f4612f71565b6102bb612f7a565b6102f46004803603604081101561118657600080fd5b506001600160a01b0381358116916020013516612f80565b6102bb612fae565b6103ea600480360360408110156111bc57600080fd5b50803590602001356001600160a01b0316612fb4565b6103ea600480360360208110156111e857600080fd5b50356133fc565b6103ea6004803603602081101561120557600080fd5b50356001600160a01b0316613525565b6103ea6135aa565b600d602052816000526040600020818154811061123657fe5b90600052602060002001600091509150505481565b6001600160e01b0319811660009081526001602052604090205460ff165b919050565b60078054604080516020601f60026000196101006001881615020190951694909404938401819004810282018101909252828152606093909290918301828280156112fa5780601f106112cf576101008083540402835291602001916112fa565b820191906000526020600020905b8154815290600101906020018083116112dd57829003601f168201915b505050505090505b90565b6000611310826135d0565b61134b5760405162461bcd60e51b815260040180806020018281038252602c815260200180614b1f602c913960400191505060405180910390fd5b506000908152600560205260409020546001600160a01b031690565b600061137282611cf3565b9050806001600160a01b0316836001600160a01b031614156113c55760405162461bcd60e51b8152600401808060200182810382526021815260200180614c016021913960400191505060405180910390fd5b806001600160a01b03166113d76135e3565b6001600160a01b031614806113f857506113f8816113f36135e3565b612f80565b6114335760405162461bcd60e51b8152600401808060200182810382526038815260200180614a516038913960400191505060405180910390fd5b61143d83836135e7565b505050565b600080600060608060606000606080600061145b61473c565b60008c8152600f6020908152604091829020825161018081018452815481526001820154818401526002820154818501526003820154606082015260048201805485518186028101860190965280865291949293608086019392908301828280156114e557602002820191906000526020600020905b8154815260200190600101908083116114d1575b505050505081526020016005820180548060200260200160405190810160405280929190818152602001828054801561154757602002820191906000526020600020905b81546001600160a01b03168152600190910190602001808311611529575b5050509183525050600682015460208083019190915260078301805460408051601f600260001961010060018716150201909416939093049283018590048502810185018252828152940193928301828280156115e55780601f106115ba576101008083540402835291602001916115e5565b820191906000526020600020905b8154815290600101906020018083116115c857829003601f168201915b505050918352505060088201805460408051602060026001851615610100026000190190941693909304601f81018490048402820184019092528181529382019392918301828280156116795780601f1061164e57610100808354040283529160200191611679565b820191906000526020600020905b81548152906001019060200180831161165c57829003601f168201915b505050918352505060098201805460408051602060026001851615610100026000190190941693909304601f810184900484028201840190925281815293820193929183018282801561170d5780601f106116e25761010080835404028352916020019161170d565b820191906000526020600020905b8154815290600101906020018083116116f057829003601f168201915b50505050508152602001600a820160009054906101000a900460ff16151515158152602001600a820160019054906101000a90046001600160a01b03166001600160a01b03166001600160a01b0316815250509050806000015181604001518260c001518360e001518461010001518561012001518661016001518760a0015188608001518961014001518696508595508494508292508191509a509a509a509a509a509a509a509a509a509a50509193959799509193959799565b6000546001600160a01b031633146117e057600080fd5b6117ea8282613655565b5050565b60006117fa60036136b8565b905090565b600c60209081526000928352604080842090915290825290205460ff1681565b60125481565b6118366118306135e3565b826136c3565b6118715760405162461bcd60e51b8152600401808060200182810382526031815260200180614c226031913960400191505060405180910390fd5b61143d838383613767565b6000546001600160a01b0316331461189357600080fd5b600b80546001600160a01b0319166001600160a01b0392909216919091179055565b6001600160a01b0381166000908152600d602090815260409182902080548351818402810184019094528084526060939283018282801561191557602002820191906000526020600020905b815481526020019060010190808311611901575b50505050509050919050565b6001600160a01b0382166000908152600260205260408120611949908363ffffffff6138c516565b90505b92915050565b6000546001600160a01b0316331461196957600080fd5b6000868152600f602052604090206003015442106119c5576040805162461bcd60e51b815260206004820152601460248201527353616c6520697320616c7265616479206c69766560601b604482015290519081900360640190fd5b6000868152600f602090815260409091206003810187905585516119f1926007909201918701906147a8565b506000868152600f602090815260409091208451611a17926009909201918601906147a8565b506000868152600f602090815260409091208351611a3d926008909201918501906147a8565b506000958652600f60205260409095206006019490945550505050565b61143d838383604051806020016040528060008152506129c8565b600061194c826135d0565b600080611a9460038463ffffffff6138d116565b509392505050565b60135460ff1615611ae7576040805162461bcd60e51b815260206004820152601060248201526f13dc195b995c881a5cc81b1bd8dad95960821b604482015290519081900360640190fd5b6000818152600f60205260409020600a015460ff1615611b3f576040805162461bcd60e51b815260206004820152600e60248201526d4f70656e656420416c726561647960901b604482015290519081900360640190fd5b6000818152600f60205260409020600a015461010090046001600160a01b0316611ba6576040805162461bcd60e51b8152602060048201526013602482015272141858dac81dd85cc81b9bdd08189bdd59da1d606a1b604482015290519081900360640190fd5b6000818152600f60205260409020600a015461010090046001600160a01b03163314611c19576040805162461bcd60e51b815260206004820152601b60248201527f596f752077657265206e6f7420746865207061636b2062757965720000000000604482015290519081900360640190fd5b6000818152600f6020526040808220600a01805460ff1916600117905551829133917f459bdaa71b6c253b49d34a7622dc4c6c1c416c0567571c068b392ba7172ddd4c9190a350565b6000546001600160a01b03163314611c7957600080fd5b611c82816138ed565b50565b6000546001600160a01b03163314611c9c57600080fd5b80611cee576040805162461bcd60e51b815260206004820152601d60248201527f6e657750726963652068617320746f20686967686572207468616e2030000000604482015290519081900360640190fd5b601255565b600061194c82604051806060016040528060298152602001614ab3602991396003919063ffffffff61390016565b600b546001600160a01b031681565b600a8054604080516020601f60026000196101006001881615020190951694909404938401819004810282018101909252828152606093909290918301828280156112fa5780601f106112cf576101008083540402835291602001916112fa565b60105481565b60006001600160a01b038216611dde5760405162461bcd60e51b815260040180806020018281038252602a815260200180614a89602a913960400191505060405180910390fd5b6001600160a01b038216600090815260026020526040902061194c906136b8565b6000546001600160a01b03163314611e1657600080fd5b8151815114611e565760405162461bcd60e51b8152600401808060200182810382526029815260200180614c766029913960400191505060405180910390fd5b6000805b8351811015611e8857828181518110611e6f57fe5b6020026020010151820191508080600101915050611e5a565b5080606414611ec85760405162461bcd60e51b8152600401808060200182810382526023815260200180614c536023913960400191505060405180910390fd5b611ed061473c565b600f60006010548152602001908152602001600020604051806101800160405290816000820154815260200160018201548152602001600282015481526020016003820154815260200160048201805480602002602001604051908101604052809291908181526020018280548015611f6857602002820191906000526020600020905b815481526020019060010190808311611f54575b5050505050815260200160058201805480602002602001604051908101604052809291908181526020018280548015611fca57602002820191906000526020600020905b81546001600160a01b03168152600190910190602001808311611fac575b5050509183525050600682015460208083019190915260078301805460408051601f600260001961010060018716150201909416939093049283018590048502810185018252828152940193928301828280156120685780601f1061203d57610100808354040283529160200191612068565b820191906000526020600020905b81548152906001019060200180831161204b57829003601f168201915b505050918352505060088201805460408051602060026001851615610100026000190190941693909304601f81018490048402820184019092528181529382019392918301828280156120fc5780601f106120d1576101008083540402835291602001916120fc565b820191906000526020600020905b8154815290600101906020018083116120df57829003601f168201915b505050918352505060098201805460408051602060026001851615610100026000190190941693909304601f81018490048402820184019092528181529382019392918301828280156121905780601f1061216557610100808354040283529160200191612190565b820191906000526020600020905b81548152906001019060200180831161217357829003601f168201915b50505050508152602001600a820160009054906101000a900460ff16151515158152602001600a820160019054906101000a90046001600160a01b03166001600160a01b03166001600160a01b03168152505090506010548160000181815250508981602001818152505084816060018181525050601154816040018181525050888160c0018181525050878160e0018190525085816101000181905250838160a001819052508281608001819052508681610120018190525080600f600060105481526020019081526020016000206000820151816000015560208201518160010155604082015181600201556060820151816003015560808201518160040190805190602001906122a4929190614826565b5060a082015180516122c0916005840191602090910190614860565b5060c0820151600682015560e082015180516122e69160078401916020909101906147a8565b5061010082015180516123039160088401916020909101906147a8565b5061012082015180516123209160098401916020909101906147a8565b50610140820151600a9091018054610160909301516001600160a01b031661010002610100600160a81b031992151560ff1990941693909317919091169190911790556040518651879190819060208401908083835b602083106123955780518252601f199092019160209182019101612376565b51815160209384036101000a60001901801990921691161790526040519190930181900381208c519095508c945090928392508401908083835b602083106123ee5780518252601f1990920191602091820191016123cf565b51815160209384036101000a60001901801990921691161790526040519190930181900381208e519095508e945090928392508401908083835b602083106124475780518252601f199092019160209182019101612428565b6001836020036101000a03801982511681845116808217855250505050505090500191505060405180910390207fc7128ef83e27b770c32cee39d6f6ba01ee93bc0c4f4f82cc28499d258eac3f5f6010548e604051808381526020018281526020019250505060405180910390a450506011805490980190975550506010805460010190555050505050565b6012546000828152600f6020526040812060060154909161194c916103e891612502919063ffffffff61391716565b9063ffffffff61397016565b6000546001600160a01b031681565b60088054604080516020601f60026000196101006001881615020190951694909404938401819004810282018101909252828152606093909290918301828280156112fa5780601f106112cf576101008083540402835291602001916112fa565b336000908152600c6020908152604080832084845290915290205460ff166125d75760405162461bcd60e51b8152600401808060200182810382526032815260200180614b776032913960400191505060405180910390fd5b6000818152600e602052604090205460ff161561262c576040805162461bcd60e51b815260206004820152600e60248201526d105b1c9958591e481b5a5b9d195960921b604482015290519081900360640190fd5b6000818152600e60205260409020805460ff1916600117905561264f33826139d7565b60405181907f7f8949b6eca2b14d0feb1af0844a112998e467a4f88b8683301f3a6e409f32ae90600090a250565b6126856135e3565b6001600160a01b0316826001600160a01b031614156126eb576040805162461bcd60e51b815260206004820152601960248201527f4552433732313a20617070726f766520746f2063616c6c657200000000000000604482015290519081900360640190fd5b80600660006126f86135e3565b6001600160a01b03908116825260208083019390935260409182016000908120918716808252919093529120805460ff19169215159290921790915561273c6135e3565b60408051841515815290516001600160a01b0392909216917f17307eab39ab6107e8899845ad3d59bd9653f200f220920489ca2b5937696c319181900360200190a35050565b6000546001600160a01b0316331461279957600080fd5b6013805460ff19169055565b600e6020526000908152604090205460ff1681565b600f602052806000526040600020600091509050806000015490806001015490806002015490806003015490806006015490806007018054600181600116156101000203166002900480601f0160208091040260200160405190810160405280929190818152602001828054600181600116156101000203166002900480156128845780601f1061285957610100808354040283529160200191612884565b820191906000526020600020905b81548152906001019060200180831161286757829003601f168201915b5050505060088301805460408051602060026001851615610100026000190190941693909304601f81018490048402820184019092528181529495949350908301828280156129145780601f106128e957610100808354040283529160200191612914565b820191906000526020600020905b8154815290600101906020018083116128f757829003601f168201915b5050505060098301805460408051602060026001851615610100026000190190941693909304601f81018490048402820184019092528181529495949350908301828280156129a45780601f10612979576101008083540402835291602001916129a4565b820191906000526020600020905b81548152906001019060200180831161298757829003601f168201915b505050600a909301549192505060ff8116906001600160a01b03610100909104168a565b6129d96129d36135e3565b836136c3565b612a145760405162461bcd60e51b8152600401808060200182810382526031815260200180614c226031913960400191505060405180910390fd5b612a20848484846139f1565b50505050565b6060612a31826135d0565b612a6c5760405162461bcd60e51b815260040180806020018281038252602f815260200180614bd2602f913960400191505060405180910390fd5b60008281526009602090815260409182902080548351601f6002600019610100600186161502019093169290920491820184900484028101840190945280845260609392830182828015612b015780601f10612ad657610100808354040283529160200191612b01565b820191906000526020600020905b815481529060010190602001808311612ae457829003601f168201915b505050505090506060612b12611d30565b9050805160001415612b2657509050611269565b815115612be75780826040516020018083805190602001908083835b60208310612b615780518252601f199092019160209182019101612b42565b51815160209384036101000a600019018019909216911617905285519190930192850191508083835b60208310612ba95780518252601f199092019160209182019101612b8a565b6001836020036101000a0380198251168184511680821785525050505050509050019250505060405160208183030381529060405292505050611269565b80612bf185613a43565b6040516020018083805190602001908083835b60208310612c235780518252601f199092019160209182019101612c04565b51815160209384036101000a600019018019909216911617905285519190930192850191508083835b60208310612c6b5780518252601f199092019160209182019101612c4c565b6001836020036101000a0380198251168184511680821785525050505050509050019250505060405160208183030381529060405292505050919050565b60135460ff1615612cf4576040805162461bcd60e51b815260206004820152601060248201526f13dc195b995c881a5cc81b1bd8dad95960821b604482015290519081900360640190fd5b6000818152600f60205260409020600a015461010090046001600160a01b031615612d66576040805162461bcd60e51b815260206004820152601760248201527f5061636b2077617320616c726561647920626f75676874000000000000000000604482015290519081900360640190fd5b6000818152600f6020526040902060060154612dbd576040805162461bcd60e51b8152602060048201526011602482015270141858dac81a185cc81d1bc8195e1a5cdd607a1b604482015290519081900360640190fd5b6000612dc8826124d3565b600b5460408051636eb1769f60e11b8152336004820152306024820152905192935083926001600160a01b039092169163dd62ed3e91604480820192602092909190829003018186803b158015612e1e57600080fd5b505afa158015612e32573d6000803e3d6000fd5b505050506040513d6020811015612e4857600080fd5b50511015612e875760405162461bcd60e51b815260040180806020018281038252604f81526020018061495e604f913960600191505060405180910390fd5b33612e93818484613b07565b60148054600101905560005b6000848152600f6020526040902060010154811015612f0e57336000818152600c60209081526040808320888452600f835281842060020154860184528252808320805460ff19166001908117909155938352600d825282208054808501825590835291200182905501612e9f565b506000838152600f6020526040808220600a018054610100600160a81b0319166101006001600160a01b03861690810291909117909155905185927f0c858281857728a99873d7eecba476650fcec02213b05ffc7b6205e05b45b0ff91a3505050565b60135460ff1681565b60115481565b6001600160a01b03918216600090815260066020908152604080832093909416825291909152205460ff1690565b60145481565b6000546001600160a01b03163314612fcb57600080fd5b6000828152600f60205260409020548214613023576040805162461bcd60e51b8152602060048201526013602482015272141858dac8191bd95cc81b9bdd08195e1a5cdd606a1b604482015290519081900360640190fd5b61302b61473c565b6000838152600f6020908152604091829020825161018081018452815481526001820154818401526002820154818501526003820154606082015260048201805485518186028101860190965280865291949293608086019392908301828280156130b557602002820191906000526020600020905b8154815260200190600101908083116130a1575b505050505081526020016005820180548060200260200160405190810160405280929190818152602001828054801561311757602002820191906000526020600020905b81546001600160a01b031681526001909101906020018083116130f9575b5050509183525050600682015460208083019190915260078301805460408051601f600260001961010060018716150201909416939093049283018590048502810185018252828152940193928301828280156131b55780601f1061318a576101008083540402835291602001916131b5565b820191906000526020600020905b81548152906001019060200180831161319857829003601f168201915b505050918352505060088201805460408051602060026001851615610100026000190190941693909304601f81018490048402820184019092528181529382019392918301828280156132495780601f1061321e57610100808354040283529160200191613249565b820191906000526020600020905b81548152906001019060200180831161322c57829003601f168201915b505050918352505060098201805460408051602060026001851615610100026000190190941693909304601f81018490048402820184019092528181529382019392918301828280156132dd5780601f106132b2576101008083540402835291602001916132dd565b820191906000526020600020905b8154815290600101906020018083116132c057829003601f168201915b5050509183525050600a9182015460ff81161515602080840191909152610100918290046001600160a01b039081166040948501526000898152600f9092529281209093018054610100600160a81b0319169287169091029190911790556014805460010190559091505b6000848152600f60205260409020600101548110156133c0576001600160a01b0383166000818152600c60209081526040808320888452600f835281842060020154860184528252808320805460ff19166001908117909155938352600d825282208054808501825590835291200182905501613348565b5060405183906001600160a01b038416907f0c858281857728a99873d7eecba476650fcec02213b05ffc7b6205e05b45b0ff90600090a3505050565b6000546001600160a01b0316331461341357600080fd5b6000818152600f6020526040902060030154421061346f576040805162461bcd60e51b815260206004820152601460248201527353616c6520697320616c7265616479206c69766560601b604482015290519081900360640190fd5b6000818152600f60205260408120818155600181018290556002810182905560038101829055906134a360048301826148c1565b6134b16005830160006148c1565b60068201600090556007820160006134c991906148df565b6134d76008830160006148df565b6134e56009830160006148df565b50600a0180546001600160a81b031916905560405181907fc02722c9e8790b48040a1db93c8b8e288fa395ffeed86c32215412ec047fd89290600090a250565b6000546001600160a01b0316331461353c57600080fd5b6001600160a01b03811661354f57600080fd5b600080546040516001600160a01b03808516939216917f8be0079c531659141344cd1fd0a4f28419497f9722a3daafe3b4186f6b6457e091a3600080546001600160a01b0319166001600160a01b0392909216919091179055565b6000546001600160a01b031633146135c157600080fd5b6013805460ff19166001179055565b600061194c60038363ffffffff613ef816565b3390565b600081815260056020526040902080546001600160a01b0319166001600160a01b038416908117909155819061361c82611cf3565b6001600160a01b03167f8c5be1e5ebec7d5bd14f71427d1e84f3dd0314c0f7b2291e5b200ac8c7c3b92560405160405180910390a45050565b61365e826135d0565b6136995760405162461bcd60e51b815260040180806020018281038252602c815260200180614b4b602c913960400191505060405180910390fd5b6000828152600960209081526040909120825161143d928401906147a8565b600061194c82613f04565b60006136ce826135d0565b6137095760405162461bcd60e51b815260040180806020018281038252602c815260200180614a25602c913960400191505060405180910390fd5b600061371483611cf3565b9050806001600160a01b0316846001600160a01b0316148061374f5750836001600160a01b031661374484611305565b6001600160a01b0316145b8061375f575061375f8185612f80565b949350505050565b826001600160a01b031661377a82611cf3565b6001600160a01b0316146137bf5760405162461bcd60e51b8152600401808060200182810382526029815260200180614ba96029913960400191505060405180910390fd5b6001600160a01b0382166138045760405162461bcd60e51b8152600401808060200182810382526024815260200180614a016024913960400191505060405180910390fd5b61380f83838361143d565b61381a6000826135e7565b6001600160a01b0383166000908152600260205260409020613842908263ffffffff613f0816565b506001600160a01b038216600090815260026020526040902061386b908263ffffffff613f1416565b5061387e6003828463ffffffff613f2016565b5080826001600160a01b0316846001600160a01b03167fddf252ad1be2c89b69c2b068fc378daa952ba7f163c4a11628f55a4df523b3ef60405160405180910390a4505050565b60006119498383613f36565b60008080806138e08686613f9a565b9097909650945050505050565b80516117ea90600a9060208401906147a8565b600061390d848484614015565b90505b9392505050565b6000826139265750600061194c565b8282028284828161393357fe5b04146119495760405162461bcd60e51b8152600401808060200182810382526021815260200180614afe6021913960400191505060405180910390fd5b60008082116139c6576040805162461bcd60e51b815260206004820152601a60248201527f536166654d6174683a206469766973696f6e206279207a65726f000000000000604482015290519081900360640190fd5b8183816139cf57fe5b049392505050565b6117ea8282604051806020016040528060008152506140df565b6139fc848484613767565b613a0884848484614131565b612a205760405162461bcd60e51b81526004018080602001828103825260328152602001806149cf6032913960400191505060405180910390fd5b606081613a6857506040805180820190915260018152600360fc1b6020820152611269565b8160005b8115613a8057600101600a82049150613a6c565b6060816040519080825280601f01601f191660200182016040528015613aad576020820181803883390190505b50859350905060001982015b8315613afe57600a840660300160f81b82828060019003935081518110613adc57fe5b60200101906001600160f81b031916908160001a905350600a84049350613ab9565b50949350505050565b613b0f61473c565b6000838152600f602090815260409182902082516101808101845281548152600182015481840152600282015481850152600382015460608201526004820180548551818602810186019096528086529194929360808601939290830182828015613b9957602002820191906000526020600020905b815481526020019060010190808311613b85575b5050505050815260200160058201805480602002602001604051908101604052809291908181526020018280548015613bfb57602002820191906000526020600020905b81546001600160a01b03168152600190910190602001808311613bdd575b5050509183525050600682015460208083019190915260078301805460408051601f60026000196101006001871615020190941693909304928301859004850281018501825282815294019392830182828015613c995780601f10613c6e57610100808354040283529160200191613c99565b820191906000526020600020905b815481529060010190602001808311613c7c57829003601f168201915b505050918352505060088201805460408051602060026001851615610100026000190190941693909304601f8101849004840282018401909252818152938201939291830182828015613d2d5780601f10613d0257610100808354040283529160200191613d2d565b820191906000526020600020905b815481529060010190602001808311613d1057829003601f168201915b505050918352505060098201805460408051602060026001851615610100026000190190941693909304601f8101849004840282018401909252818152938201939291830182828015613dc15780601f10613d9657610100808354040283529160200191613dc1565b820191906000526020600020905b815481529060010190602001808311613da457829003601f168201915b5050509183525050600a919091015460ff81161515602083015261010090046001600160a01b0316604090910152905060005b8160a0015151811015613ef157600b5460a083015180516001600160a01b03909216916323b872dd91889185908110613e2957fe5b602002602001015160648787608001518781518110613e4457fe5b60200260200101510281613e5457fe5b046040518463ffffffff1660e01b815260040180846001600160a01b03166001600160a01b03168152602001836001600160a01b03166001600160a01b031681526020018281526020019350505050602060405180830381600087803b158015613ebd57600080fd5b505af1158015613ed1573d6000803e3d6000fd5b505050506040513d6020811015613ee757600080fd5b5050600101613df4565b5050505050565b600061194983836142b1565b5490565b600061194983836142c9565b6000611949838361438f565b600061390d84846001600160a01b0385166143d9565b81546000908210613f785760405162461bcd60e51b81526004018080602001828103825260228152602001806149ad6022913960400191505060405180910390fd5b826000018281548110613f8757fe5b9060005260206000200154905092915050565b815460009081908310613fde5760405162461bcd60e51b8152600401808060200182810382526022815260200180614adc6022913960400191505060405180910390fd5b6000846000018481548110613fef57fe5b906000526020600020906002020190508060000154816001015492509250509250929050565b600082815260018401602052604081205482816140b05760405162461bcd60e51b81526004018080602001828103825283818151815260200191508051906020019080838360005b8381101561407557818101518382015260200161405d565b50505050905090810190601f1680156140a25780820380516001836020036101000a031916815260200191505b509250505060405180910390fd5b508460000160018203815481106140c357fe5b9060005260206000209060020201600101549150509392505050565b6140e98383614470565b6140f66000848484614131565b61143d5760405162461bcd60e51b81526004018080602001828103825260328152602001806149cf6032913960400191505060405180910390fd5b6000614145846001600160a01b03166145aa565b6141515750600161375f565b6060614277630a85bd0160e11b6141666135e3565b88878760405160240180856001600160a01b03166001600160a01b03168152602001846001600160a01b03166001600160a01b0316815260200183815260200180602001828103825283818151815260200191508051906020019080838360005b838110156141df5781810151838201526020016141c7565b50505050905090810190601f16801561420c5780820380516001836020036101000a031916815260200191505b5095505050505050604051602081830303815290604052906001600160e01b0319166020820180516001600160e01b0383818316178352505050506040518060600160405280603281526020016149cf603291396001600160a01b038816919063ffffffff6145b016565b9050600081806020019051602081101561429057600080fd5b50516001600160e01b031916630a85bd0160e11b1492505050949350505050565b60009081526001919091016020526040902054151590565b6000818152600183016020526040812054801561438557835460001980830191908101906000908790839081106142fc57fe5b906000526020600020015490508087600001848154811061431957fe5b60009182526020808320909101929092558281526001898101909252604090209084019055865487908061434957fe5b6001900381819060005260206000200160009055905586600101600087815260200190815260200160002060009055600194505050505061194c565b600091505061194c565b600061439b83836142b1565b6143d15750815460018181018455600084815260208082209093018490558454848252828601909352604090209190915561194c565b50600061194c565b60008281526001840160205260408120548061443e575050604080518082018252838152602080820184815286546001818101895560008981528481209551600290930290950191825591519082015586548684528188019092529290912055613910565b8285600001600183038154811061445157fe5b9060005260206000209060020201600101819055506000915050613910565b6001600160a01b0382166144cb576040805162461bcd60e51b815260206004820181905260248201527f4552433732313a206d696e7420746f20746865207a65726f2061646472657373604482015290519081900360640190fd5b6144d4816135d0565b15614526576040805162461bcd60e51b815260206004820152601c60248201527f4552433732313a20746f6b656e20616c7265616479206d696e74656400000000604482015290519081900360640190fd5b6145326000838361143d565b6001600160a01b038216600090815260026020526040902061455a908263ffffffff613f1416565b5061456d6003828463ffffffff613f2016565b5060405181906001600160a01b038416906000907fddf252ad1be2c89b69c2b068fc378daa952ba7f163c4a11628f55a4df523b3ef908290a45050565b3b151590565b606061390d8484600085856145c4856145aa565b614615576040805162461bcd60e51b815260206004820152601d60248201527f416464726573733a2063616c6c20746f206e6f6e2d636f6e7472616374000000604482015290519081900360640190fd5b60006060866001600160a01b031685876040518082805190602001908083835b602083106146545780518252601f199092019160209182019101614635565b6001836020036101000a03801982511681845116808217855250505050505090500191505060006040518083038185875af1925050503d80600081146146b6576040519150601f19603f3d011682016040523d82523d6000602084013e6146bb565b606091505b50915091506146cb8282866146d6565b979650505050505050565b606083156146e5575081613910565b8251156146f55782518084602001fd5b60405162461bcd60e51b815260206004820181815284516024840152845185939192839260440191908501908083836000831561407557818101518382015260200161405d565b6040518061018001604052806000815260200160008152602001600081526020016000815260200160608152602001606081526020016000815260200160608152602001606081526020016060815260200160001515815260200160006001600160a01b031681525090565b828054600181600116156101000203166002900490600052602060002090601f016020900481019282601f106147e957805160ff1916838001178555614816565b82800160010185558215614816579182015b828111156148165782518255916020019190600101906147fb565b5061482292915061491f565b5090565b82805482825590600052602060002090810192821561481657916020028201828111156148165782518255916020019190600101906147fb565b8280548282559060005260206000209081019282156148b5579160200282015b828111156148b557825182546001600160a01b0319166001600160a01b03909116178255602090920191600190910190614880565b50614822929150614939565b5080546000825590600052602060002090810190611c82919061491f565b50805460018160011615610100020316600290046000825580601f106149055750611c82565b601f016020900490600052602060002090810190611c8291905b61130291905b808211156148225760008155600101614925565b61130291905b808211156148225780546001600160a01b031916815560010161493f56fe466972737420796f75206861766520746f20616c6c6f772074686520757365206f662074686520746f6b656e7320627920746865204f70656e65722c2075736520616c6c6f772066756e6374696f6e456e756d657261626c655365743a20696e646578206f7574206f6620626f756e64734552433732313a207472616e7366657220746f206e6f6e20455243373231526563656976657220696d706c656d656e7465724552433732313a207472616e7366657220746f20746865207a65726f20616464726573734552433732313a206f70657261746f7220717565727920666f72206e6f6e6578697374656e7420746f6b656e4552433732313a20617070726f76652063616c6c6572206973206e6f74206f776e6572206e6f7220617070726f76656420666f7220616c6c4552433732313a2062616c616e636520717565727920666f7220746865207a65726f20616464726573734552433732313a206f776e657220717565727920666f72206e6f6e6578697374656e7420746f6b656e456e756d657261626c654d61703a20696e646578206f7574206f6620626f756e6473536166654d6174683a206d756c7469706c69636174696f6e206f766572666c6f774552433732313a20617070726f76656420717565727920666f72206e6f6e6578697374656e7420746f6b656e4552433732314d657461646174613a2055524920736574206f66206e6f6e6578697374656e7420746f6b656e546f6b656e20776173206e6f742072656769737465726564206f72206e6f742074686520726967687466756c206f776e65724552433732313a207472616e73666572206f6620746f6b656e2074686174206973206e6f74206f776e4552433732314d657461646174613a2055524920717565727920666f72206e6f6e6578697374656e7420746f6b656e4552433732313a20617070726f76616c20746f2063757272656e74206f776e65724552433732313a207472616e736665722063616c6c6572206973206e6f74206f776e6572206e6f7220617070726f76656453756d206f6620616c6c20616d6f756e74732068617320746f20657175616c2031303073616c65446973747269627574696f6e204c656e6768747320617265206e6f74207468652073616d65a26469706673582212202091f6cf5a6fb49e2350b5db8492fb78d04e783c5c2d69c7ef01d83187018f3164736f6c63430006020033",
  "source": "// SPDX-License-Identifier: MIT\n\npragma solidity >=0.6.0;\n\nimport \"@openzeppelin/contracts/token/ERC721/ERC721.sol\";\nimport \"@openzeppelin/contracts/token/ERC20/ERC20.sol\";\nimport \"../utils/Ownable.sol\";\n\ncontract OpenerRealFvr is  Ownable, ERC721 {\n\n    using SafeMath for uint256;\n\n    ERC20 public _purchaseToken;\n    // Mapping from address to bool, if egg was already claimed\n    // The hash is about the userId and the nftIds array\n    mapping(address => mapping(uint256 => bool)) public registeredIDs;\n    mapping(address => uint256[]) public registeredIDsArray;\n    mapping(uint256 => bool) public alreadyMinted;\n    mapping(uint256 => Pack) public packs;\n    uint256 public packIncrementId = 1;\n    uint256 public lastNFTID = 1;\n\n    event PackCreated(uint256 packId, uint256  nftsAmount, string indexed serie, string indexed packType, string indexed drop);\n    event PackBought(address indexed by, uint256 indexed packId);\n    event PackOpened(address indexed by, uint256 indexed packId);\n    event PackDelete(uint256 indexed packId);\n    event NftMinted(uint256 indexed nftId);\n\n    uint256 public _realFvrTokenPriceUSD = 0;\n\n    bool public _closed = false;\n    uint256 public _openedPacks = 0;\n\n    struct Pack {\n        uint256 packId;\n        uint256 nftAmount;\n        uint256 initialNFTId;\n        uint256 saleStart;\n        uint256[] saleDistributionAmounts;\n        address[] saleDistributionAddresses;\n        // Marketplace\n        // Catalog info\n        uint256 price; // in usd (1 = $0.000001)\n        string serie;\n        string drop;\n        string packType;\n        bool opened;\n        //external info\n        address buyer;\n    }\n  \n    constructor (string memory name, string memory symbol, ERC20 _purchaseToken) public ERC721(name, symbol) {}\n\n    function _distributePackShares(address from, uint256 packId, uint256 amount) internal {\n        //transfer of fee share\n        Pack memory pack = packs[packId];\n\n        for(uint i = 0; i < pack.saleDistributionAddresses.length; i++){\n            //transfer of stake share\n            _purchaseToken.transferFrom(\n                from,\n                pack.saleDistributionAddresses[i],\n                (pack.saleDistributionAmounts[i] * amount) / 100\n            );\n        }\n    }\n\n    function setTokenURI(uint256 tokenId, string memory uri) public onlyOwner {\n        _setTokenURI(tokenId, uri);\n    }\n\n    function setBaseURI(string memory baseURI) public onlyOwner {\n        _setBaseURI(baseURI);\n    }\n\n\n    function exists(uint256 tokenId) public view returns (bool) {\n        return _exists(tokenId);\n    }\n    \n    function getRegisteredIDs(address _address) public view returns(uint256[] memory) {\n        return registeredIDsArray[_address];\n    }\n\n    function getPackbyId(uint256 _packId) public returns (uint256,  uint256, uint256, string memory, string memory, string memory, address, \n        address[] memory, uint256[] memory, bool)  {\n        Pack memory pack = packs[_packId];\n        return (\n            pack.packId, pack.initialNFTId, pack.price, pack.serie, pack.drop, pack.packType, pack.buyer,\n            pack.saleDistributionAddresses, pack.saleDistributionAmounts, pack.opened);\n    }\n\n    function getPackPriceInFVR(uint256 packId) public returns (uint256) {\n        return packs[packId].price.mul(_realFvrTokenPriceUSD).div(10**3);\n    }\n\n    function buyPack(uint256 packId) public {\n        require(!_closed, \"Opener is locked\");\n        require(packs[packId].buyer == address(0), \"Pack was already bought\");\n        require(packs[packId].price != 0, \"Pack has to exist\");\n\n        uint256 price = getPackPriceInFVR(packId);\n\n        require(_purchaseToken.allowance(msg.sender, address(this)) >= price, \"First you have to allow the use of the tokens by the Opener, use allow function\");\n\n        address from = msg.sender;\n\n        _distributePackShares(from, packId, price);\n\n        _openedPacks += 1;\n\n        for(uint i = 0; i < packs[packId].nftAmount; i++){\n            registeredIDs[msg.sender][packs[packId].initialNFTId+i] = true;\n            registeredIDsArray[msg.sender].push(i);\n        }\n\n        packs[packId].buyer = from;\n\n        emit PackBought(from, packId);\n    }\n\n    function openPack(uint256 packId) public {\n        require(!_closed, \"Opener is locked\");\n        require(!packs[packId].opened, \"Opened Already\");\n        require(packs[packId].buyer != address(0), \"Pack was not bought\");\n        require(packs[packId].buyer == msg.sender, \"You were not the pack buyer\");\n\n        packs[packId].opened = true;\n        \n        emit PackOpened(msg.sender, packId);\n    }\n\n\n    function createPack(uint256 nftAmount, uint256 price /* 1 = ($1) */, \n        string memory serie, string memory packType, string memory drop, uint256 saleStart,\n        address[] memory saleDistributionAddresses,  uint256[] memory saleDistributionAmounts /* [1;98;1]*/\n    ) public onlyOwner {\n\n        require(saleDistributionAmounts.length == saleDistributionAddresses.length, \"saleDistribution Lenghts are not the same\");\n        uint256 totalFees = 0;\n        for(uint i = 0; i < saleDistributionAddresses.length; i++){\n            totalFees += saleDistributionAmounts[i];\n        }\n        require(totalFees == 100, \"Sum of all amounts has to equal 100\");\n\n        Pack memory pack = packs[packIncrementId];\n        pack.packId = packIncrementId;\n        pack.nftAmount = nftAmount;\n        pack.saleStart = saleStart;\n        pack.initialNFTId = lastNFTID;\n        pack.price = price;\n        pack.serie = serie;\n        pack.drop = drop;\n        pack.saleDistributionAddresses = saleDistributionAddresses;\n        pack.saleDistributionAmounts = saleDistributionAmounts;\n        pack.packType = packType;\n        packs[packIncrementId] = pack;\n\n        emit PackCreated(packIncrementId, nftAmount, serie, packType, drop);\n        lastNFTID = lastNFTID + nftAmount;\n        packIncrementId = packIncrementId+1;\n    }\n\n     function offerPack(uint256 packId, address receivingAddress) public onlyOwner {\n        require(packs[packId].packId == packId, \"Pack does not exist\");\n        Pack memory pack = packs[packId];\n        packs[packId].buyer = receivingAddress;\n\n        _openedPacks += 1;\n\n        for(uint i = 0; i < packs[packId].nftAmount; i++){\n            registeredIDs[receivingAddress][packs[packId].initialNFTId+i] = true;\n            registeredIDsArray[receivingAddress].push(i);\n        }\n        emit PackBought(receivingAddress, packId);\n    }\n\n    function editPackInfo(uint256 _packId, uint256 _saleStart, string memory serie, string memory packType, string memory drop, uint256 price) public onlyOwner {\n        require(block.timestamp < packs[_packId].saleStart, \"Sale is already live\");\n        packs[_packId].saleStart = _saleStart;\n        packs[_packId].serie = serie;\n        packs[_packId].packType = packType;\n        packs[_packId].drop = drop;\n        packs[_packId].price = price;\n    }\n\n    function deletePackById(uint256 packId) public onlyOwner {\n        require(block.timestamp < packs[packId].saleStart, \"Sale is already live\");\n        delete packs[packId];\n        emit PackDelete(packId);\n    }\n\n    function mint(uint256 tokenIdToMint) public {\n        require(registeredIDs[msg.sender][tokenIdToMint], \"Token was not registered or not the rightful owner\");\n        require(!alreadyMinted[tokenIdToMint], \"Already minted\");\n\n        alreadyMinted[tokenIdToMint] = true;\n        _safeMint(msg.sender, tokenIdToMint);\n        emit NftMinted(tokenIdToMint);\n    }\n\n    function setPurchaseTokenAddress(ERC20 purchaseToken) public onlyOwner {\n        _purchaseToken = purchaseToken;\n    }\n\n    function setTokenPriceInUSD(uint256 newPrice /* 1*10e18 -> 1 FVR = $1; 1*10e17 -> 0.1 FVR = $1  */) public onlyOwner {\n        require(newPrice != 0, \"newPrice has to higher than 0\");\n        _realFvrTokenPriceUSD = newPrice;\n    }\n\n    function lock() public onlyOwner {\n        _closed = true;\n    }\n\n    function unlock() public onlyOwner {\n        _closed = false;\n    }\n}\n",
  "sourcePath": "/Users/ruipedro/Desktop/projects/Bepro/@bepro-js/contracts/custom/OpenerRealFvr.sol",
  "compiler": {
    "name": "solc",
    "version": "0.6.2+commit.bacdbe57.Emscripten.clang"
  },
  "schemaVersion": "3.0.20",
  "updatedAt": "2021-06-08T12:27:08.841Z",
  "devdoc": {
    "methods": {
      "approve(address,uint256)": {
        "details": "See {IERC721-approve}."
      },
      "balanceOf(address)": {
        "details": "See {IERC721-balanceOf}."
      },
      "baseURI()": {
        "details": "Returns the base URI set via {_setBaseURI}. This will be automatically added as a prefix in {tokenURI} to each token's URI, or to the token ID if no specific URI is set for that token ID."
      },
      "getApproved(uint256)": {
        "details": "See {IERC721-getApproved}."
      },
      "isApprovedForAll(address,address)": {
        "details": "See {IERC721-isApprovedForAll}."
      },
      "name()": {
        "details": "See {IERC721Metadata-name}."
      },
      "ownerOf(uint256)": {
        "details": "See {IERC721-ownerOf}."
      },
      "safeTransferFrom(address,address,uint256)": {
        "details": "See {IERC721-safeTransferFrom}."
      },
      "safeTransferFrom(address,address,uint256,bytes)": {
        "details": "See {IERC721-safeTransferFrom}."
      },
      "setApprovalForAll(address,bool)": {
        "details": "See {IERC721-setApprovalForAll}."
      },
      "supportsInterface(bytes4)": {
        "details": "See {IERC165-supportsInterface}.     * Time complexity O(1), guaranteed to always use less than 30 000 gas."
      },
      "symbol()": {
        "details": "See {IERC721Metadata-symbol}."
      },
      "tokenByIndex(uint256)": {
        "details": "See {IERC721Enumerable-tokenByIndex}."
      },
      "tokenOfOwnerByIndex(address,uint256)": {
        "details": "See {IERC721Enumerable-tokenOfOwnerByIndex}."
      },
      "tokenURI(uint256)": {
        "details": "See {IERC721Metadata-tokenURI}."
      },
      "totalSupply()": {
        "details": "See {IERC721Enumerable-totalSupply}."
      },
      "transferFrom(address,address,uint256)": {
        "details": "See {IERC721-transferFrom}."
      },
      "transferOwnership(address)": {
        "details": "Allows the current owner to transfer control of the contract to a newOwner.",
        "params": {
          "newOwner": "The address to transfer ownership to."
        }
      }
    }
  },
  "userdoc": {
    "methods": {}
  }
}