{
  "contractName": "Ownable",
  "abi": [
    {
      "constant": true,
      "inputs": [],
      "name": "owner",
      "outputs": [
        {
          "name": "",
          "type": "address"
        }
      ],
      "payable": false,
      "stateMutability": "view",
      "type": "function"
    },
    {
      "inputs": [],
      "payable": false,
      "stateMutability": "nonpayable",
      "type": "constructor"
    },
    {
      "anonymous": false,
      "inputs": [
        {
          "indexed": true,
          "name": "previousOwner",
          "type": "address"
        },
        {
          "indexed": true,
          "name": "newOwner",
          "type": "address"
        }
      ],
      "name": "OwnershipTransferred",
      "type": "event"
    },
    {
      "constant": false,
      "inputs": [
        {
          "name": "newOwner",
          "type": "address"
        }
      ],
      "name": "transferOwnership",
      "outputs": [],
      "payable": false,
      "stateMutability": "nonpayable",
      "type": "function"
    }
  ],
  "bytecode": "0x608060405234801561001057600080fd5b50336000806101000a81548173ffffffffffffffffffffffffffffffffffffffff021916908373ffffffffffffffffffffffffffffffffffffffff16021790555061026b806100606000396000f3fe608060405234801561001057600080fd5b50600436106100365760003560e01c80638da5cb5b1461003b578063f2fde38b14610085575b600080fd5b6100436100c9565b604051808273ffffffffffffffffffffffffffffffffffffffff1673ffffffffffffffffffffffffffffffffffffffff16815260200191505060405180910390f35b6100c76004803603602081101561009b57600080fd5b81019080803573ffffffffffffffffffffffffffffffffffffffff1690602001909291905050506100ee565b005b6000809054906101000a900473ffffffffffffffffffffffffffffffffffffffff1681565b6000809054906101000a900473ffffffffffffffffffffffffffffffffffffffff1673ffffffffffffffffffffffffffffffffffffffff163373ffffffffffffffffffffffffffffffffffffffff161461014757600080fd5b600073ffffffffffffffffffffffffffffffffffffffff168173ffffffffffffffffffffffffffffffffffffffff16141561018157600080fd5b8073ffffffffffffffffffffffffffffffffffffffff166000809054906101000a900473ffffffffffffffffffffffffffffffffffffffff1673ffffffffffffffffffffffffffffffffffffffff167f8be0079c531659141344cd1fd0a4f28419497f9722a3daafe3b4186f6b6457e060405160405180910390a3806000806101000a81548173ffffffffffffffffffffffffffffffffffffffff021916908373ffffffffffffffffffffffffffffffffffffffff1602179055505056fea165627a7a72305820f3190055cfe025f80b109426d4359d2b1624d3dff4fbf00b0095b061692497120029",
  "source": "pragma solidity 0.5.8; \n\n/**\n * @title ERC20Basic\n * @dev Simpler version of ERC20 interface\n * @dev see https://github.com/ethereum/EIPs/issues/179\n */\ncontract ERC20Basic {\n    function totalSupply() public view returns (uint256);\n    function balanceOf(address who) public view returns (uint256);\n    function transfer(address to, uint256 value) public returns (bool);\n    event Transfer(address indexed from, address indexed to, uint256 value);\n}\n\n/**\n * @dev Wrappers over Solidity's arithmetic operations with added overflow\n * checks.\n *\n * Arithmetic operations in Solidity wrap on overflow. This can easily result\n * in bugs, because programmers usually assume that an overflow raises an\n * error, which is the standard behavior in high level programming languages.\n * `SafeMath` restores this intuition by reverting the transaction when an\n * operation overflows.\n *\n * Using this library instead of the unchecked operations eliminates an entire\n * class of bugs, so it's recommended to use it always.\n */\nlibrary SafeMath {\n    /**\n     * @dev Returns the addition of two unsigned integers, reverting on\n     * overflow.\n     *\n     * Counterpart to Solidity's `+` operator.\n     *\n     * Requirements:\n     * - Addition cannot overflow.\n     */\n    function add(uint256 a, uint256 b) internal pure returns (uint256) {\n        uint256 c = a + b;\n        require(c >= a, \"SafeMath: addition overflow\");\n\n        return c;\n    }\n\n    /**\n     * @dev Returns the subtraction of two unsigned integers, reverting on\n     * overflow (when the result is negative).\n     *\n     * Counterpart to Solidity's `-` operator.\n     *\n     * Requirements:\n     * - Subtraction cannot overflow.\n     */\n    function sub(uint256 a, uint256 b) internal pure returns (uint256) {\n        return sub(a, b, \"SafeMath: subtraction overflow\");\n    }\n\n    /**\n     * @dev Returns the subtraction of two unsigned integers, reverting with custom message on\n     * overflow (when the result is negative).\n     *\n     * Counterpart to Solidity's `-` operator.\n     *\n     * Requirements:\n     * - Subtraction cannot overflow.\n     *\n     * _Available since v2.4.0._\n     */\n    function sub(uint256 a, uint256 b, string memory errorMessage) internal pure returns (uint256) {\n        require(b <= a, errorMessage);\n        uint256 c = a - b;\n\n        return c;\n    }\n\n    /**\n     * @dev Returns the multiplication of two unsigned integers, reverting on\n     * overflow.\n     *\n     * Counterpart to Solidity's `*` operator.\n     *\n     * Requirements:\n     * - Multiplication cannot overflow.\n     */\n    function mul(uint256 a, uint256 b) internal pure returns (uint256) {\n        // Gas optimization: this is cheaper than requiring 'a' not being zero, but the\n        // benefit is lost if 'b' is also tested.\n        // See: https://github.com/OpenZeppelin/openzeppelin-contracts/pull/522\n        if (a == 0) {\n            return 0;\n        }\n\n        uint256 c = a * b;\n        require(c / a == b, \"SafeMath: multiplication overflow\");\n\n        return c;\n    }\n\n    /**\n     * @dev Returns the integer division of two unsigned integers. Reverts on\n     * division by zero. The result is rounded towards zero.\n     *\n     * Counterpart to Solidity's `/` operator. Note: this function uses a\n     * `revert` opcode (which leaves remaining gas untouched) while Solidity\n     * uses an invalid opcode to revert (consuming all remaining gas).\n     *\n     * Requirements:\n     * - The divisor cannot be zero.\n     */\n    function div(uint256 a, uint256 b) internal pure returns (uint256) {\n        return div(a, b, \"SafeMath: division by zero\");\n    }\n\n    /**\n     * @dev Returns the integer division of two unsigned integers. Reverts with custom message on\n     * division by zero. The result is rounded towards zero.\n     *\n     * Counterpart to Solidity's `/` operator. Note: this function uses a\n     * `revert` opcode (which leaves remaining gas untouched) while Solidity\n     * uses an invalid opcode to revert (consuming all remaining gas).\n     *\n     * Requirements:\n     * - The divisor cannot be zero.\n     *\n     * _Available since v2.4.0._\n     */\n    function div(uint256 a, uint256 b, string memory errorMessage) internal pure returns (uint256) {\n        // Solidity only automatically asserts when dividing by 0\n        require(b > 0, errorMessage);\n        uint256 c = a / b;\n        // assert(a == b * c + a % b); // There is no case in which this doesn't hold\n\n        return c;\n    }\n\n    /**\n     * @dev Returns the remainder of dividing two unsigned integers. (unsigned integer modulo),\n     * Reverts when dividing by zero.\n     *\n     * Counterpart to Solidity's `%` operator. This function uses a `revert`\n     * opcode (which leaves remaining gas untouched) while Solidity uses an\n     * invalid opcode to revert (consuming all remaining gas).\n     *\n     * Requirements:\n     * - The divisor cannot be zero.\n     */\n    function mod(uint256 a, uint256 b) internal pure returns (uint256) {\n        return mod(a, b, \"SafeMath: modulo by zero\");\n    }\n\n    /**\n     * @dev Returns the remainder of dividing two unsigned integers. (unsigned integer modulo),\n     * Reverts with custom message when dividing by zero.\n     *\n     * Counterpart to Solidity's `%` operator. This function uses a `revert`\n     * opcode (which leaves remaining gas untouched) while Solidity uses an\n     * invalid opcode to revert (consuming all remaining gas).\n     *\n     * Requirements:\n     * - The divisor cannot be zero.\n     *\n     * _Available since v2.4.0._\n     */\n    function mod(uint256 a, uint256 b, string memory errorMessage) internal pure returns (uint256) {\n        require(b != 0, errorMessage);\n        return a % b;\n    }\n}\n\n// File: openzeppelin-solidity/contracts/token/ERC20/ERC20.sol\n\n/**\n * @title ERC20 interface\n * @dev see https://github.com/ethereum/EIPs/issues/20\n */\ncontract ERC20 is ERC20Basic {\n  function allowance(address owner, address spender) public view returns (uint256);\n  function transferFrom(address from, address to, uint256 value) public returns (bool);\n  function approve(address spender, uint256 value) public returns (bool);\n  event Approval(address indexed owner, address indexed spender, uint256 value);\n}\n\n// File: openzeppelin-solidity/contracts/ownership/Ownable.sol\n\n/**\n * @title Ownable\n * @dev The Ownable contract has an owner address, and provides basic authorization control\n * functions, this simplifies the implementation of \"user permissions\".\n */\ncontract Ownable {\n    address public owner;\n    event OwnershipTransferred(address indexed previousOwner, address indexed newOwner);\n\n\n    /**\n    * @dev The Ownable constructor sets the original `owner` of the contract to the sender\n    * account.\n    */\n    constructor() public {\n        owner = msg.sender;\n    }\n\n    /**\n    * @dev Throws if called by any account other than the owner.\n    */\n    modifier onlyOwner() {\n        require(msg.sender == owner);\n        _;\n    }\n\n    /**\n    * @dev Allows the current owner to transfer control of the contract to a newOwner.\n    * @param newOwner The address to transfer ownership to.\n    */\n    function transferOwnership(address newOwner) public onlyOwner {\n        require(newOwner != address(0));\n        emit OwnershipTransferred(owner, newOwner);\n        owner = newOwner;\n    }\n}\n\n// File: openzeppelin-solidity/contracts/lifecycle/Pausable.sol\n\n/**\n * @title Pausable\n * @dev Base contract which allows children to implement an emergency stop mechanism.\n */\ncontract Pausable is Ownable {\n    event Pause();\n    event Unpause();\n\n    bool public paused = false;\n\n\n    /**\n    * @dev Modifier to make a function callable only when the contract is not paused.\n    */\n    modifier whenNotPaused() {\n        require(!paused);\n        _;\n    }\n\n    /**\n    * @dev Modifier to make a function callable only when the contract is paused.\n    */\n    modifier whenPaused() {\n        require(paused);\n        _;\n    }\n\n    /**\n    * @dev called by the owner to pause, triggers stopped state\n    */\n    function pause() onlyOwner whenNotPaused public {\n        paused = true;\n        emit Pause();\n    }\n\n    /**\n    * @dev called by the owner to unpause, returns to normal state\n    */\n    function unpause() onlyOwner whenPaused public {\n        paused = false;\n        emit Unpause();\n    }\n}\n\ncontract StakingContract is Pausable {\n    using SafeMath for uint256;\n\n    mapping(uint256 => ProductAPR) public products; /* Available Products */\n    uint256[] public productIds; /* Available Product Ids*/\n    mapping(address => uint256[]) public mySubscriptions; /* Address Based Subcriptions */\n    uint256 incrementId = 0;\n    uint256 lockedTokens = 0;\n\n    uint256 constant private year = 365 days;\n    \n    ERC20 public erc20;\n\n    struct SubscriptionAPR {\n        uint256 _id;\n        uint256 productId;\n        uint256 startDate;\n        uint256 endDate;\n        uint256 amount;\n        address subscriberAddress;\n        uint256 APR; /* APR for this product */\n        bool finalized;\n        uint256 withdrawAmount;\n    }\n\n    struct ProductAPR {\n        uint256 createdAt;\n        uint256 startDate;\n        uint256 endDate;\n        uint256 totalMaxAmount;\n        uint256 individualMinimumAmount;\n        uint256 APR; /* APR for this product */\n        uint256 currentAmount;\n        bool lockedUntilFinalization; /* Product can only be withdrawn when finalized */\n        address[] subscribers;\n        uint256[] subscriptionIds;\n        mapping(uint256 => SubscriptionAPR) subscriptions; /* Distribution object */\n    }\n    \n    constructor(address _tokenAddress) public {\n        erc20 = ERC20(_tokenAddress);\n    }\n\n    function random() private view returns (uint) {\n        return uint(keccak256(abi.encode(block.difficulty, now)));\n    } \n    \n    /* Current Held Tokens */\n    function heldTokens() public view returns (uint256) {\n        return erc20.balanceOf(address(this));\n    }\n\n    /* Locked Tokens for the APR */\n    function futureLockedTokens() public view returns (uint256) {\n        return lockedTokens;\n    }\n\n    /* Available Tokens to he APRed by future subscribers */\n    function availableTokens() public view returns (uint256) {\n        return heldTokens().sub(futureLockedTokens());\n    }\n\n    function subscribeProduct(uint256 _product_id, uint256 _amount) external whenNotPaused {\n\n        uint256 time = block.timestamp;\n        /* Confirm Amount is positive */\n        require(_amount > 0);\n     \n        /* Confirm product still exists */\n        require(block.timestamp < products[_product_id].endDate);\n\n        /* Confirm Subscription prior to opening */\n        if(block.timestamp < products[_product_id].startDate){\n            time = products[_product_id].startDate;\n        }\n        \n        /* Confirm Max Amount was not hit already */\n        require(products[_product_id].totalMaxAmount > (products[_product_id].currentAmount + _amount));\n\n        /* Confirm Amount is bigger than minimum Amount */\n        require(_amount >= products[_product_id].individualMinimumAmount);\n        \n        uint256 futureAPRAmount = getAPRAmount(products[_product_id].APR, time, products[_product_id].endDate, _amount);\n\n        /* Confirm the current funds can assure the user the APR is valid */\n        require(availableTokens() >= futureAPRAmount);\n\n        /* Confirm the user has funds for the transfer */\n        require(erc20.transferFrom(msg.sender, address(this), _amount));\n\n        /* Add to LockedTokens */\n        lockedTokens = lockedTokens.add(_amount.add(futureAPRAmount));\n\n        uint256 subscription_id = random().add(incrementId);\n        incrementId = incrementId + 1;\n\n        /* Create SubscriptionAPR Object */\n        SubscriptionAPR memory subscriptionAPR = SubscriptionAPR(subscription_id, _product_id, time, products[_product_id].endDate, _amount, \n        msg.sender, products[_product_id].APR, false, 0);\n\n        /* Create new subscription */\n        mySubscriptions[msg.sender].push(subscription_id);\n        products[_product_id].subscriptionIds.push(subscription_id);\n        products[_product_id].subscriptions[subscription_id] = subscriptionAPR;\n        products[_product_id].currentAmount = products[_product_id].currentAmount + _amount;\n        products[_product_id].subscribers.push(msg.sender);\n    }\n\n    function createProduct(uint256 _startDate, uint256 _endDate, uint256 _totalMaxAmount, uint256 _individualMinimumAmount, uint256 _APR, bool _lockedUntilFinalization) external whenNotPaused onlyOwner {\n\n        /* Confirmations */\n        require(block.timestamp < _endDate);\n        require(block.timestamp <= _startDate);\n        require(_startDate < _endDate);\n        require(_totalMaxAmount > 0);\n        require(_individualMinimumAmount > 0);\n        require(_totalMaxAmount > _individualMinimumAmount);\n        require(_APR > 0);\n\n        address[] memory addressesI;\n        uint256[] memory subscriptionsI;\n        \n        /* Create ProductAPR Object */\n        ProductAPR memory productAPR = ProductAPR(block.timestamp, _startDate, _endDate, _totalMaxAmount, _individualMinimumAmount, _APR, 0, _lockedUntilFinalization,\n            addressesI, subscriptionsI);\n\n        uint256 product_id = productIds.length + 1;\n\n        /* Add Product to System */\n        productIds.push(product_id);\n        products[product_id] = productAPR;\n    }\n\n\n    function getAPRAmount(uint256 _APR, uint256 _startDate, uint256 _endDate, uint256 _amount) public pure returns(uint256) {\n        return ((_endDate.sub(_startDate)).mul(_APR).mul(_amount)).div(year.mul(100));\n    }\n\n    function getProductIds() public view returns(uint256[] memory) {\n        return productIds;\n    }\n\n    function getMySubscriptions(address _address) public view returns(uint256[] memory) {\n        return mySubscriptions[_address];\n    }\n\n    function withdrawSubscription(uint256 _product_id, uint256 _subscription_id) external whenNotPaused {\n\n        /* Confirm Product exists */\n        require(products[_product_id].endDate != 0, \"Product has expired\");\n\n        /* Confirm Subscription exists */\n        require(products[_product_id].subscriptions[_subscription_id].endDate != 0, \"Product does not exist\");\n\n        /* Confirm Subscription is not finalized */\n        require(products[_product_id].subscriptions[_subscription_id].finalized == false, \"Subscription was finalized already\");\n\n        /* Confirm Subscriptor is the sender */\n        require(products[_product_id].subscriptions[_subscription_id].subscriberAddress == msg.sender, \"Not the subscription owner\");\n\n        SubscriptionAPR memory subscription = products[_product_id].subscriptions[_subscription_id];\n\n        /* Confirm start date has already passed */\n        require(block.timestamp < subscription.startDate, \"Now is below the start date\");\n\n        /* Confirm end date for APR */\n        uint256 finishDate = block.timestamp;\n\n        /* Verify if date has passed the end date */\n        if(block.timestamp >= products[_product_id].endDate){\n            finishDate = products[_product_id].endDate;\n        }else{\n            /* Confirm the Product can be withdrawn at any time */\n            require(products[_product_id].lockedUntilFinalization == false, \"Product has to close to be withdrawned\");\n        }\n\n        uint256 APRedAmount = getAPRAmount(subscription.APR, subscription.startDate, finishDate, subscription.amount);\n        require(APRedAmount > 0, \"APR amount has to be bigger than 0\");\n        uint256 totalAmount = subscription.amount.add(APRedAmount);\n\n        /* Update Subscription */\n        products[_product_id].subscriptions[_subscription_id].finalized = true;\n        products[_product_id].subscriptions[_subscription_id].endDate = finishDate;\n        products[_product_id].subscriptions[_subscription_id].withdrawAmount = totalAmount;\n\n        /* Transfer funds to the subscriber address */\n        require(erc20.transfer(subscription.subscriberAddress, totalAmount), \"Transfer has failed\");\n\n        /* Sub to LockedTokens */\n        lockedTokens = lockedTokens.sub(totalAmount);\n    }   \n\n    function getSubscription(uint256 _subscription_id, uint256 _product_id) external view returns (uint256, uint256, uint256, uint256, uint256, address, uint256, bool, uint256){\n\n        SubscriptionAPR memory subscription = products[_product_id].subscriptions[_subscription_id];\n\n        return (subscription._id, subscription.productId, subscription.startDate, subscription.endDate, \n            subscription.amount, subscription.subscriberAddress, subscription.APR, subscription.finalized, subscription.withdrawAmount);\n    }\n    \n    function getProduct(uint256 _product_id) external view returns (uint256, uint256, uint256, uint256, uint256, uint256, uint256, bool, address[] memory, uint256[] memory){\n\n        ProductAPR memory product = products[_product_id];\n\n        return (product.createdAt, product.startDate, product.endDate, product.totalMaxAmount, \n            product.individualMinimumAmount, product.APR, product.currentAmount, product.lockedUntilFinalization,\n            product.subscribers, product.subscriptionIds\n        );\n    }\n    \n    function safeGuardAllTokens(address _address) external onlyOwner whenPaused  { /* In case of needed urgency for the sake of contract bug */\n        require(erc20.transfer(_address, erc20.balanceOf(address(this))));\n    }\n\n    function changeTokenAddress(address _tokenAddress) external onlyOwner whenPaused  {\n        /* If Needed to Update the Token Address (ex : token swap) */\n        erc20 = ERC20(_tokenAddress);\n    }\n}",
  "sourcePath": "/Users/ruipedro/Desktop/projects/Bepro/@bepro-js/contracts/StakingContract.sol",
  "compiler": {
    "name": "solc",
    "version": "0.5.8+commit.23d335f2.Emscripten.clang"
  },
  "schemaVersion": "3.0.20",
  "updatedAt": "2021-01-20T13:56:25.024Z",
  "devdoc": {
    "details": "The Ownable contract has an owner address, and provides basic authorization control functions, this simplifies the implementation of \"user permissions\".",
    "methods": {
      "constructor": {
        "details": "The Ownable constructor sets the original `owner` of the contract to the sender account."
      },
      "transferOwnership(address)": {
        "details": "Allows the current owner to transfer control of the contract to a newOwner.",
        "params": {
          "newOwner": "The address to transfer ownership to."
        }
      }
    },
    "title": "Ownable"
  },
  "userdoc": {
    "methods": {}
  }
}