{
  "contractName": "PredictionMarket",
  "abi": [
    {
      "anonymous": false,
      "inputs": [
        {
          "indexed": true,
          "internalType": "address",
          "name": "user",
          "type": "address"
        },
        {
          "indexed": true,
          "internalType": "enum PredictionMarket.MarketAction",
          "name": "action",
          "type": "uint8"
        },
        {
          "indexed": true,
          "internalType": "uint256",
          "name": "marketId",
          "type": "uint256"
        },
        {
          "indexed": false,
          "internalType": "uint256",
          "name": "outcomeId",
          "type": "uint256"
        },
        {
          "indexed": false,
          "internalType": "uint256",
          "name": "shares",
          "type": "uint256"
        },
        {
          "indexed": false,
          "internalType": "uint256",
          "name": "value",
          "type": "uint256"
        },
        {
          "indexed": false,
          "internalType": "uint256",
          "name": "timestamp",
          "type": "uint256"
        }
      ],
      "name": "MarketActionTx",
      "type": "event"
    },
    {
      "anonymous": false,
      "inputs": [
        {
          "indexed": true,
          "internalType": "address",
          "name": "user",
          "type": "address"
        },
        {
          "indexed": true,
          "internalType": "uint256",
          "name": "marketId",
          "type": "uint256"
        },
        {
          "indexed": false,
          "internalType": "uint256",
          "name": "outcomes",
          "type": "uint256"
        },
        {
          "indexed": false,
          "internalType": "string",
          "name": "question",
          "type": "string"
        },
        {
          "indexed": false,
          "internalType": "string",
          "name": "image",
          "type": "string"
        }
      ],
      "name": "MarketCreated",
      "type": "event"
    },
    {
      "anonymous": false,
      "inputs": [
        {
          "indexed": true,
          "internalType": "uint256",
          "name": "marketId",
          "type": "uint256"
        },
        {
          "indexed": false,
          "internalType": "uint256",
          "name": "value",
          "type": "uint256"
        },
        {
          "indexed": false,
          "internalType": "uint256",
          "name": "price",
          "type": "uint256"
        },
        {
          "indexed": false,
          "internalType": "uint256",
          "name": "timestamp",
          "type": "uint256"
        }
      ],
      "name": "MarketLiquidity",
      "type": "event"
    },
    {
      "anonymous": false,
      "inputs": [
        {
          "indexed": true,
          "internalType": "uint256",
          "name": "marketId",
          "type": "uint256"
        },
        {
          "indexed": true,
          "internalType": "uint256",
          "name": "outcomeId",
          "type": "uint256"
        },
        {
          "indexed": false,
          "internalType": "uint256",
          "name": "value",
          "type": "uint256"
        },
        {
          "indexed": false,
          "internalType": "uint256",
          "name": "timestamp",
          "type": "uint256"
        }
      ],
      "name": "MarketOutcomePrice",
      "type": "event"
    },
    {
      "anonymous": false,
      "inputs": [
        {
          "indexed": true,
          "internalType": "address",
          "name": "user",
          "type": "address"
        },
        {
          "indexed": true,
          "internalType": "uint256",
          "name": "marketId",
          "type": "uint256"
        },
        {
          "indexed": false,
          "internalType": "uint256",
          "name": "outcomeId",
          "type": "uint256"
        },
        {
          "indexed": false,
          "internalType": "uint256",
          "name": "timestamp",
          "type": "uint256"
        }
      ],
      "name": "MarketResolved",
      "type": "event"
    },
    {
      "anonymous": false,
      "inputs": [
        {
          "indexed": true,
          "internalType": "address",
          "name": "previousOwner",
          "type": "address"
        },
        {
          "indexed": true,
          "internalType": "address",
          "name": "newOwner",
          "type": "address"
        }
      ],
      "name": "OwnershipTransferred",
      "type": "event"
    },
    {
      "inputs": [],
      "name": "MAX_UINT_256",
      "outputs": [
        {
          "internalType": "uint256",
          "name": "",
          "type": "uint256"
        }
      ],
      "stateMutability": "view",
      "type": "function",
      "constant": true
    },
    {
      "inputs": [],
      "name": "ONE",
      "outputs": [
        {
          "internalType": "uint256",
          "name": "",
          "type": "uint256"
        }
      ],
      "stateMutability": "view",
      "type": "function",
      "constant": true
    },
    {
      "inputs": [],
      "name": "fee",
      "outputs": [
        {
          "internalType": "uint256",
          "name": "",
          "type": "uint256"
        }
      ],
      "stateMutability": "view",
      "type": "function",
      "constant": true
    },
    {
      "inputs": [],
      "name": "marketIndex",
      "outputs": [
        {
          "internalType": "uint256",
          "name": "",
          "type": "uint256"
        }
      ],
      "stateMutability": "view",
      "type": "function",
      "constant": true
    },
    {
      "inputs": [],
      "name": "owner",
      "outputs": [
        {
          "internalType": "address",
          "name": "",
          "type": "address"
        }
      ],
      "stateMutability": "view",
      "type": "function",
      "constant": true
    },
    {
      "inputs": [],
      "name": "realitioAddress",
      "outputs": [
        {
          "internalType": "address",
          "name": "",
          "type": "address"
        }
      ],
      "stateMutability": "view",
      "type": "function",
      "constant": true
    },
    {
      "inputs": [],
      "name": "realitioTimeout",
      "outputs": [
        {
          "internalType": "uint256",
          "name": "",
          "type": "uint256"
        }
      ],
      "stateMutability": "view",
      "type": "function",
      "constant": true
    },
    {
      "inputs": [],
      "name": "renounceOwnership",
      "outputs": [],
      "stateMutability": "nonpayable",
      "type": "function"
    },
    {
      "inputs": [],
      "name": "requiredBalance",
      "outputs": [
        {
          "internalType": "uint256",
          "name": "",
          "type": "uint256"
        }
      ],
      "stateMutability": "view",
      "type": "function",
      "constant": true
    },
    {
      "inputs": [],
      "name": "token",
      "outputs": [
        {
          "internalType": "contract IERC20",
          "name": "",
          "type": "address"
        }
      ],
      "stateMutability": "view",
      "type": "function",
      "constant": true
    },
    {
      "inputs": [
        {
          "internalType": "address",
          "name": "newOwner",
          "type": "address"
        }
      ],
      "name": "transferOwnership",
      "outputs": [],
      "stateMutability": "nonpayable",
      "type": "function"
    },
    {
      "inputs": [],
      "name": "initialize",
      "outputs": [],
      "stateMutability": "nonpayable",
      "type": "function"
    },
    {
      "inputs": [
        {
          "internalType": "string",
          "name": "question",
          "type": "string"
        },
        {
          "internalType": "string",
          "name": "image",
          "type": "string"
        },
        {
          "internalType": "uint256",
          "name": "closesAt",
          "type": "uint256"
        },
        {
          "internalType": "address",
          "name": "arbitrator",
          "type": "address"
        },
        {
          "internalType": "uint256",
          "name": "outcomes",
          "type": "uint256"
        }
      ],
      "name": "createMarket",
      "outputs": [
        {
          "internalType": "uint256",
          "name": "",
          "type": "uint256"
        }
      ],
      "stateMutability": "payable",
      "type": "function",
      "payable": true
    },
    {
      "inputs": [
        {
          "internalType": "uint256",
          "name": "amount",
          "type": "uint256"
        },
        {
          "internalType": "uint256",
          "name": "marketId",
          "type": "uint256"
        },
        {
          "internalType": "uint256",
          "name": "outcomeId",
          "type": "uint256"
        }
      ],
      "name": "calcBuyAmount",
      "outputs": [
        {
          "internalType": "uint256",
          "name": "",
          "type": "uint256"
        }
      ],
      "stateMutability": "view",
      "type": "function",
      "constant": true
    },
    {
      "inputs": [
        {
          "internalType": "uint256",
          "name": "amount",
          "type": "uint256"
        },
        {
          "internalType": "uint256",
          "name": "marketId",
          "type": "uint256"
        },
        {
          "internalType": "uint256",
          "name": "outcomeId",
          "type": "uint256"
        }
      ],
      "name": "calcSellAmount",
      "outputs": [
        {
          "internalType": "uint256",
          "name": "outcomeTokenSellAmount",
          "type": "uint256"
        }
      ],
      "stateMutability": "view",
      "type": "function",
      "constant": true
    },
    {
      "inputs": [
        {
          "internalType": "uint256",
          "name": "marketId",
          "type": "uint256"
        },
        {
          "internalType": "uint256",
          "name": "outcomeId",
          "type": "uint256"
        },
        {
          "internalType": "uint256",
          "name": "minOutcomeSharesToBuy",
          "type": "uint256"
        }
      ],
      "name": "buy",
      "outputs": [],
      "stateMutability": "payable",
      "type": "function",
      "payable": true
    },
    {
      "inputs": [
        {
          "internalType": "uint256",
          "name": "marketId",
          "type": "uint256"
        },
        {
          "internalType": "uint256",
          "name": "outcomeId",
          "type": "uint256"
        },
        {
          "internalType": "uint256",
          "name": "value",
          "type": "uint256"
        },
        {
          "internalType": "uint256",
          "name": "maxOutcomeSharesToSell",
          "type": "uint256"
        }
      ],
      "name": "sell",
      "outputs": [],
      "stateMutability": "payable",
      "type": "function",
      "payable": true
    },
    {
      "inputs": [
        {
          "internalType": "uint256",
          "name": "marketId",
          "type": "uint256"
        }
      ],
      "name": "addLiquidity",
      "outputs": [],
      "stateMutability": "payable",
      "type": "function",
      "payable": true
    },
    {
      "inputs": [
        {
          "internalType": "uint256",
          "name": "marketId",
          "type": "uint256"
        },
        {
          "internalType": "uint256",
          "name": "shares",
          "type": "uint256"
        }
      ],
      "name": "removeLiquidity",
      "outputs": [],
      "stateMutability": "payable",
      "type": "function",
      "payable": true
    },
    {
      "inputs": [
        {
          "internalType": "uint256",
          "name": "marketId",
          "type": "uint256"
        }
      ],
      "name": "resolveMarketOutcome",
      "outputs": [
        {
          "internalType": "uint256",
          "name": "",
          "type": "uint256"
        }
      ],
      "stateMutability": "nonpayable",
      "type": "function"
    },
    {
      "inputs": [
        {
          "internalType": "uint256",
          "name": "marketId",
          "type": "uint256"
        }
      ],
      "name": "claimWinnings",
      "outputs": [],
      "stateMutability": "nonpayable",
      "type": "function"
    },
    {
      "inputs": [
        {
          "internalType": "uint256",
          "name": "marketId",
          "type": "uint256"
        }
      ],
      "name": "claimLiquidity",
      "outputs": [],
      "stateMutability": "nonpayable",
      "type": "function"
    },
    {
      "inputs": [
        {
          "internalType": "uint256",
          "name": "marketId",
          "type": "uint256"
        }
      ],
      "name": "claimFees",
      "outputs": [],
      "stateMutability": "payable",
      "type": "function",
      "payable": true
    },
    {
      "inputs": [
        {
          "internalType": "uint256",
          "name": "_fee",
          "type": "uint256"
        }
      ],
      "name": "setFee",
      "outputs": [],
      "stateMutability": "nonpayable",
      "type": "function"
    },
    {
      "inputs": [
        {
          "internalType": "address",
          "name": "_address",
          "type": "address"
        }
      ],
      "name": "setRealitioERC20",
      "outputs": [],
      "stateMutability": "nonpayable",
      "type": "function"
    },
    {
      "inputs": [
        {
          "internalType": "uint256",
          "name": "timeout",
          "type": "uint256"
        }
      ],
      "name": "setRealitioTimeout",
      "outputs": [],
      "stateMutability": "nonpayable",
      "type": "function"
    },
    {
      "inputs": [
        {
          "internalType": "contract IERC20",
          "name": "_token",
          "type": "address"
        }
      ],
      "name": "setToken",
      "outputs": [],
      "stateMutability": "nonpayable",
      "type": "function"
    },
    {
      "inputs": [
        {
          "internalType": "uint256",
          "name": "_requiredBalance",
          "type": "uint256"
        }
      ],
      "name": "setRequiredBalance",
      "outputs": [],
      "stateMutability": "nonpayable",
      "type": "function"
    },
    {
      "inputs": [
        {
          "internalType": "uint256",
          "name": "marketId",
          "type": "uint256"
        },
        {
          "internalType": "address",
          "name": "user",
          "type": "address"
        }
      ],
      "name": "getUserMarketShares",
      "outputs": [
        {
          "internalType": "uint256",
          "name": "",
          "type": "uint256"
        },
        {
          "internalType": "uint256",
          "name": "",
          "type": "uint256"
        },
        {
          "internalType": "uint256",
          "name": "",
          "type": "uint256"
        }
      ],
      "stateMutability": "view",
      "type": "function",
      "constant": true
    },
    {
      "inputs": [
        {
          "internalType": "uint256",
          "name": "marketId",
          "type": "uint256"
        },
        {
          "internalType": "address",
          "name": "user",
          "type": "address"
        }
      ],
      "name": "getUserClaimStatus",
      "outputs": [
        {
          "internalType": "bool",
          "name": "",
          "type": "bool"
        },
        {
          "internalType": "bool",
          "name": "",
          "type": "bool"
        },
        {
          "internalType": "bool",
          "name": "",
          "type": "bool"
        },
        {
          "internalType": "bool",
          "name": "",
          "type": "bool"
        },
        {
          "internalType": "uint256",
          "name": "",
          "type": "uint256"
        }
      ],
      "stateMutability": "view",
      "type": "function",
      "constant": true
    },
    {
      "inputs": [
        {
          "internalType": "uint256",
          "name": "marketId",
          "type": "uint256"
        },
        {
          "internalType": "address",
          "name": "user",
          "type": "address"
        }
      ],
      "name": "getUserLiquidityPoolShare",
      "outputs": [
        {
          "internalType": "uint256",
          "name": "",
          "type": "uint256"
        }
      ],
      "stateMutability": "view",
      "type": "function",
      "constant": true
    },
    {
      "inputs": [
        {
          "internalType": "uint256",
          "name": "marketId",
          "type": "uint256"
        },
        {
          "internalType": "address",
          "name": "user",
          "type": "address"
        }
      ],
      "name": "getUserClaimableFees",
      "outputs": [
        {
          "internalType": "uint256",
          "name": "",
          "type": "uint256"
        }
      ],
      "stateMutability": "view",
      "type": "function",
      "constant": true
    },
    {
      "inputs": [],
      "name": "getMarkets",
      "outputs": [
        {
          "internalType": "uint256[]",
          "name": "",
          "type": "uint256[]"
        }
      ],
      "stateMutability": "view",
      "type": "function",
      "constant": true
    },
    {
      "inputs": [
        {
          "internalType": "uint256",
          "name": "marketId",
          "type": "uint256"
        }
      ],
      "name": "getMarketData",
      "outputs": [
        {
          "internalType": "enum PredictionMarket.MarketState",
          "name": "",
          "type": "uint8"
        },
        {
          "internalType": "uint256",
          "name": "",
          "type": "uint256"
        },
        {
          "internalType": "uint256",
          "name": "",
          "type": "uint256"
        },
        {
          "internalType": "uint256",
          "name": "",
          "type": "uint256"
        },
        {
          "internalType": "uint256",
          "name": "",
          "type": "uint256"
        },
        {
          "internalType": "int256",
          "name": "",
          "type": "int256"
        }
      ],
      "stateMutability": "view",
      "type": "function",
      "constant": true
    },
    {
      "inputs": [
        {
          "internalType": "uint256",
          "name": "marketId",
          "type": "uint256"
        }
      ],
      "name": "getMarketAltData",
      "outputs": [
        {
          "internalType": "uint256",
          "name": "",
          "type": "uint256"
        },
        {
          "internalType": "bytes32",
          "name": "",
          "type": "bytes32"
        },
        {
          "internalType": "uint256",
          "name": "",
          "type": "uint256"
        }
      ],
      "stateMutability": "view",
      "type": "function",
      "constant": true
    },
    {
      "inputs": [
        {
          "internalType": "uint256",
          "name": "marketId",
          "type": "uint256"
        }
      ],
      "name": "getMarketQuestion",
      "outputs": [
        {
          "internalType": "bytes32",
          "name": "",
          "type": "bytes32"
        }
      ],
      "stateMutability": "view",
      "type": "function",
      "constant": true
    },
    {
      "inputs": [
        {
          "internalType": "uint256",
          "name": "marketId",
          "type": "uint256"
        }
      ],
      "name": "getMarketPrices",
      "outputs": [
        {
          "internalType": "uint256",
          "name": "",
          "type": "uint256"
        },
        {
          "internalType": "uint256",
          "name": "",
          "type": "uint256"
        },
        {
          "internalType": "uint256",
          "name": "",
          "type": "uint256"
        }
      ],
      "stateMutability": "view",
      "type": "function",
      "constant": true
    },
    {
      "inputs": [
        {
          "internalType": "uint256",
          "name": "marketId",
          "type": "uint256"
        }
      ],
      "name": "getMarketLiquidityPrice",
      "outputs": [
        {
          "internalType": "uint256",
          "name": "",
          "type": "uint256"
        }
      ],
      "stateMutability": "view",
      "type": "function",
      "constant": true
    },
    {
      "inputs": [
        {
          "internalType": "uint256",
          "name": "marketId",
          "type": "uint256"
        }
      ],
      "name": "getMarketResolvedOutcome",
      "outputs": [
        {
          "internalType": "int256",
          "name": "",
          "type": "int256"
        }
      ],
      "stateMutability": "view",
      "type": "function",
      "constant": true
    },
    {
      "inputs": [
        {
          "internalType": "uint256",
          "name": "marketId",
          "type": "uint256"
        }
      ],
      "name": "getMarketOutcomeIds",
      "outputs": [
        {
          "internalType": "uint256[]",
          "name": "",
          "type": "uint256[]"
        }
      ],
      "stateMutability": "view",
      "type": "function",
      "constant": true
    },
    {
      "inputs": [
        {
          "internalType": "uint256",
          "name": "marketId",
          "type": "uint256"
        },
        {
          "internalType": "uint256",
          "name": "outcomeId",
          "type": "uint256"
        }
      ],
      "name": "getMarketOutcomePrice",
      "outputs": [
        {
          "internalType": "uint256",
          "name": "",
          "type": "uint256"
        }
      ],
      "stateMutability": "view",
      "type": "function",
      "constant": true
    },
    {
      "inputs": [
        {
          "internalType": "uint256",
          "name": "marketId",
          "type": "uint256"
        },
        {
          "internalType": "uint256",
          "name": "outcomeId",
          "type": "uint256"
        }
      ],
      "name": "getMarketOutcomeData",
      "outputs": [
        {
          "internalType": "uint256",
          "name": "",
          "type": "uint256"
        },
        {
          "internalType": "uint256",
          "name": "",
          "type": "uint256"
        },
        {
          "internalType": "uint256",
          "name": "",
          "type": "uint256"
        }
      ],
      "stateMutability": "view",
      "type": "function",
      "constant": true
    }
  ],
  "bytecode": "0x608060405234801561001057600080fd5b506137a1806100206000396000f3fe6080604052600436106101e15760003560e01c806308560ace146101e6578063144fa6d7146102115780631d7920aa1461023357806328747a80146102625780632c2aa24e1461028257806331877a38146102b35780633620875e146102e05780633d41a26b146102f35780633fe45e3b1461030857806340993b261461031d578063429c9dff146103305780634397c4ce1461035057806351c6590a146103705780635e648eff14610383578063677bd9ff146103a357806369fe0e2d146103c35780636f6e9f1e146103e3578063715018a6146104035780637b34e6e0146104185780638129fc1c1461043a57806385b91d8e1461044f5780638c7adc151461046f5780638cd41552146104845780638da5cb5b146104a45780639d7de6b3146104b9578063aa22a02e146104cc578063ac68a748146104ec578063b31eb895146104ff578063bf4557211461051f578063bfacba3d1461053f578063c2ee3a0814610571578063c346a9d014610586578063c8f70d01146105a6578063ddca3f43146105c6578063ec2c9016146105db578063ede2e06e146105f0578063efbc47dc14610610578063efce431314610623578063f2fde38b14610643578063fc0c546a14610663578063fdff808514610678578063ffce3d5e14610698575b600080fd5b3480156101f257600080fd5b506101fb6106b8565b6040516102089190613046565b60405180910390f35b34801561021d57600080fd5b5061023161022c366004612e00565b6106be565b005b34801561023f57600080fd5b5061025361024e366004612eb8565b610728565b6040516102089392919061369d565b34801561026e57600080fd5b506101fb61027d366004612eb8565b610747565b34801561028e57600080fd5b506102a261029d366004612ed0565b6108c2565b60405161020895949392919061301f565b3480156102bf57600080fd5b506102d36102ce366004612eb8565b610992565b6040516102089190612fdb565b6102316102ee366004612f4b565b6109fb565b3480156102ff57600080fd5b506101fb610c16565b34801561031457600080fd5b506101fb610c1c565b61023161032b366004612f20565b610c22565b34801561033c57600080fd5b506101fb61034b366004612f20565b610db0565b34801561035c57600080fd5b506101fb61036b366004612eb8565b610f10565b61023161037e366004612eb8565b610f25565b34801561038f57600080fd5b5061023161039e366004612eb8565b610fad565b3480156103af57600080fd5b506102316103be366004612eb8565b61116f565b3480156103cf57600080fd5b506102316103de366004612eb8565b6112c7565b3480156103ef57600080fd5b506102316103fe366004612eb8565b61130b565b34801561040f57600080fd5b5061023161134f565b34801561042457600080fd5b5061042d6113c6565b6040516102089190612fc7565b34801561044657600080fd5b506102316113d5565b34801561045b57600080fd5b5061025361046a366004612eb8565b611460565b34801561047b57600080fd5b506101fb611491565b34801561049057600080fd5b506101fb61049f366004612eff565b611497565b3480156104b057600080fd5b5061042d611539565b6102316104c7366004612eff565b611548565b3480156104d857600080fd5b506101fb6104e7366004612ed0565b61193a565b6102316104fa366004612eb8565b61198d565b34801561050b57600080fd5b5061025361051a366004612ed0565b611a56565b34801561052b57600080fd5b506101fb61053a366004612eb8565b611ab4565b34801561054b57600080fd5b5061055f61055a366004612eb8565b611af1565b6040516102089695949392919061304f565b34801561057d57600080fd5b506101fb611b4a565b34801561059257600080fd5b506101fb6105a1366004612f20565b611b56565b3480156105b257600080fd5b506101fb6105c1366004612eb8565b611c86565b3480156105d257600080fd5b506101fb611d27565b3480156105e757600080fd5b506102d3611d2d565b3480156105fc57600080fd5b5061023161060b366004612eb8565b611d85565b6101fb61061e366004612e34565b611dc9565b34801561062f57600080fd5b5061025361063e366004612eff565b612075565b34801561064f57600080fd5b5061023161065e366004612e00565b6120b9565b34801561066f57600080fd5b5061042d612168565b34801561068457600080fd5b506101fb610693366004612ed0565b612177565b3480156106a457600080fd5b506102316106b3366004612e00565b6121f0565b606c5481565b6106c6612251565b6001600160a01b03166106d7611539565b6001600160a01b0316146107065760405162461bcd60e51b81526004016106fd9061345d565b60405180910390fd5b606b80546001600160a01b0319166001600160a01b0392909216919091179055565b6000908152606660205260409020600a81015460099091015490918190565b600081815260666020526040812054829042118015610783575060008181526066602052604081206006015460ff16600281111561078157fe5b145b156107915761079181612255565b8260018060008381526066602052604090206006015460ff1660028111156107b557fe5b146107bf57600080fd5b6000858152606660205260408082206069546009820154925163684e62bf60e11b8152899492936001600160a01b039092169291839163d09cc57e9161080791600401613046565b60206040518083038186803b15801561081f57600080fd5b505afa158015610833573d6000803e3d6000fd5b505050506040513d601f19601f820116820180604052506108579190810190612e1c565b60088401819055604051909150899033907f67a6457c8912ae1b7a9fbdfa311cbd016ba606b548bf06bc80bc751072d91bbc9061089790859042906136e8565b60405180910390a36108a8896122a5565b50506008015494506108b981612255565b50505050919050565b600082815260666020526040812081908190819081906002600682015460ff1660028111156108ed57fe5b14610912576000806000806109028c8c612177565b9550955095509550955050610988565b60088101546000908152600e8201602090815260408083206001600160a01b038b16845260048082018452828520546005808401865284872054928801865284872054908801909552929094205490939115159260ff92831692901515911661097b8d8d612177565b9650965096509650965050505b9295509295909350565b600081815260666020908152604091829020600d8101805484518185028101850190955280855260609492938301828280156109ed57602002820191906000526020600020905b8154815260200190600101908083116109d9575b50505050509150505b919050565b600084815260666020526040902054849042118015610a37575060008181526066602052604081206006015460ff166002811115610a3557fe5b145b15610a4557610a4581612255565b8460008060008381526066602052604090206006015460ff166002811115610a6957fe5b14610a7357600080fd5b6000878152606660209081526040808320898452600e810190925282209091610a9d888b8b611b56565b905086811115610abf5760405162461bcd60e51b81526004016106fd90613667565b336000908152600483016020526040902054811115610af05760405162461bcd60e51b81526004016106fd906135a9565b610afc338b8b84612348565b6000610b1b606854670de0b6b3a76400006123e790919063ffffffff16565b600a850154610b31908b9063ffffffff61240f16565b81610b3857fe5b600b8601549190049150610b52908263ffffffff61244916565b600b8501556000610b698a8363ffffffff61244916565b90508085600101541015610b8f5760405162461bcd60e51b81526004016106fd90613566565b610b998c8261246e565b60405133908b156108fc02908c906000818181858888f19350505050158015610bc6573d6000803e3d6000fd5b508b6001336001600160a01b031660008051602061370c8339815191528e878f42604051610bf79493929190613086565b60405180910390a4610c088c6122a5565b505050505050505050505050565b60001981565b606a5481565b600083815260666020526040902054839042118015610c5e575060008181526066602052604081206006015460ff166002811115610c5c57fe5b145b15610c6c57610c6c81612255565b8360008060008381526066602052604090206006015460ff166002811115610c9057fe5b14610c9a57600080fd5b6000868152606660205260408120903490610cb6828a8a610db0565b905086811015610cd85760405162461bcd60e51b81526004016106fd90613630565b600a830154600090670de0b6b3a764000090610cfb90859063ffffffff61240f16565b81610d0257fe5b600b8601549190049150610d1c908263ffffffff61244916565b600b8501556000610d33848363ffffffff6123e716565b60008b8152600e870160205260409020909150610d508c83612511565b6003810154841115610d745760405162461bcd60e51b81526004016106fd906135ea565b610d80338d8d876125aa565b8b6000336001600160a01b031660008051602061370c8339815191528e888a42604051610bf79493929190613086565b60008281526066602052604081206060610dc985612639565b90506000610e09670de0b6b3a7640000610df385600a01600001548a61240f90919063ffffffff16565b81610dfa57fe5b8991900463ffffffff6123e716565b90506000828681518110610e1957fe5b602002602001015190506000610e40670de0b6b3a76400008361240f90919063ffffffff16565b905060005b8451811015610eab57878114610ea3576000858281518110610e6357fe5b60200260200101519050610e9f610e83868361244990919063ffffffff16565b610e93858463ffffffff61240f16565b9063ffffffff6126cc16565b9250505b600101610e45565b5060008111610ecc5760405162461bcd60e51b81526004016106fd906130f1565b610f03610ee782670de0b6b3a764000063ffffffff6126cc16565b610ef7848663ffffffff61244916565b9063ffffffff6123e716565b9998505050505050505050565b60009081526066602052604090206009015490565b600081815260666020526040902054819042118015610f61575060008181526066602052604081206006015460ff166002811115610f5f57fe5b145b15610f6f57610f6f81612255565b8160008060008381526066602052604090206006015460ff166002811115610f9357fe5b14610f9d57600080fd5b610fa784346126fc565b50505050565b8060028060008381526066602052604090206006015460ff166002811115610fd157fe5b14610fdb57600080fd5b600083815260666020908152604080832060088101548452600e81019092529091206110068561198d565b3360009081526004830160205260409020546110345760405162461bcd60e51b81526004016106fd90613523565b33600090815260058301602052604090205460ff16156110665760405162461bcd60e51b81526004016106fd906134dc565b600061109e670de0b6b3a7640000611092611081893361193a565b60038601549063ffffffff61240f16565b9063ffffffff612a9416565b905080836001015410156110c45760405162461bcd60e51b81526004016106fd906132bf565b60018301546110d9908263ffffffff6123e716565b600184810191909155336000818152600580870160209081526040808420805460ff19169096179095556004880190528382205493518a9491939260008051602061370c833981519152926111319288904290613086565b60405180910390a4604051339082156108fc029083906000818181858888f19350505050158015611166573d6000803e3d6000fd5b50505050505050565b8060028060008381526066602052604090206006015460ff16600281111561119357fe5b1461119d57600080fd5b600083815260666020908152604080832060088101548452600e81018352818420338552600481019093529220546111e75760405162461bcd60e51b81526004016106fd906131d0565b33600090815260058201602052604090205460ff16156112195760405162461bcd60e51b81526004016106fd90613380565b336000908152600482016020526040902054600183015481111561124f5760405162461bcd60e51b81526004016106fd906132bf565b6001830154611264908263ffffffff6123e716565b6001808501919091553360009081526005840160205260409020805460ff19169091179055856004600885015433600081815260048701602052604090819020549051919260008051602061370c83398151915292611131929088904290613086565b6112cf612251565b6001600160a01b03166112e0611539565b6001600160a01b0316146113065760405162461bcd60e51b81526004016106fd9061345d565b606855565b611313612251565b6001600160a01b0316611324611539565b6001600160a01b03161461134a5760405162461bcd60e51b81526004016106fd9061345d565b606c55565b611357612251565b6001600160a01b0316611368611539565b6001600160a01b03161461138e5760405162461bcd60e51b81526004016106fd9061345d565b6033546040516000916001600160a01b03169060008051602061374c833981519152908390a3603380546001600160a01b0319169055565b6069546001600160a01b031681565b600054610100900460ff16806113ee57506113ee612ab5565b806113fc575060005460ff16155b6114185760405162461bcd60e51b81526004016106fd906133ce565b600054610100900460ff16158015611443576000805460ff1961ff0019909116610100171660011790555b61144b612ac6565b801561145d576000805461ff00191690555b50565b600080600061146e84611c86565b611479856000611497565b611484866001611497565b9250925092509193909250565b60675481565b6000828152606660209081526040808320848452600e810190925282206002600683015460ff1660028111156114c957fe5b14156114f457600882015484146114e15760006114eb565b670de0b6b3a76400005b92505050611533565b6003808301549082015461152e919061109290670de0b6b3a76400009061152290849063ffffffff6123e716565b9063ffffffff61240f16565b925050505b92915050565b6033546001600160a01b031690565b600082815260666020526040902054829042118015611584575060008181526066602052604081206006015460ff16600281111561158257fe5b145b156115925761159281612255565b8260008060008381526066602052604090206006015460ff1660028111156115b657fe5b146115c057600080fd5b600085815260666020908152604080832033845260048101909252909120548511156115fe5760405162461bcd60e51b81526004016106fd906135a9565b6116078661198d565b61161386866003612b44565b50606061161f87612639565b90506060815160405190808252806020026020018201604052801561164e578160200160208202803883390190505b50905060001960005b835181101561168d57600084828151811061166e57fe5b6020026020010151905080831115611684578092505b50600101611657565b5060028401546000906116aa906110928b8563ffffffff61240f16565b905060005b84518110156117485785600201546116e38b8784815181106116cd57fe5b602002602001015161240f90919063ffffffff16565b816116ea57fe5b048482815181106116f757fe5b6020026020010181815250506117298285838151811061171357fe5b60200260200101516123e790919063ffffffff16565b84828151811061173557fe5b60209081029190910101526001016116af565b506117538a8261246e565b6002850154611768908a63ffffffff6123e716565b600286015533600090815260048601602052604090205461178f908a63ffffffff6123e716565b3360009081526004870160205260408120919091555b84518110156118905760008482815181106117bc57fe5b60200260200101511115611888576003808701546000838152600e8901602052604090209091015485516118099033908f9086908a90829081106117fc57fe5b60200260200101516125aa565b8c6000336001600160a01b031660008051602061370c833981519152868a888151811061183257fe5b602002602001015161186c8e600301546110928e8c8151811061185157fe5b60200260200101516115228b8d6123e790919063ffffffff16565b4260405161187d9493929190613086565b60405180910390a450505b6001016117a5565b50604051339082156108fc029083906000818181858888f193505050501580156118be573d6000803e3d6000fd5b50896003336001600160a01b031660008051602061370c83398151915260008d86426040516118f09493929190613086565b60405180910390a48960008051602061372c83398151915286600201546119168d611c86565b426040516119269392919061369d565b60405180910390a250505050505050505050565b600082815260666020908152604080832060028101546001600160a01b0386168552600482019093529083205490916119859161109290670de0b6b3a764000063ffffffff61240f16565b949350505050565b6000818152606660205260408120906119a68333612177565b90508015611a1257336000908152600c830160205260409020546119d0908263ffffffff61244916565b336000818152600c85016020526040808220939093559151909183156108fc02918491818181858888f19350505050158015611a10573d6000803e3d6000fd5b505b82600633600081815260048601602052604080822054905160008051602061370c83398151915292611a4992909188904290613086565b60405180910390a4505050565b60008281526066602090815260408083206001600160a01b0385168085526004808301855283862054868052600e90930180865284872083885282018652848720546001885290865284872092875291019093529220549250925092565b60008181526066602052604081206002600682015460ff166002811115611ad757fe5b14611ae7576000199150506109f6565b6008015492915050565b60008181526066602052604081206006810154815460028301546001840154600385015486958695869586958695939460ff909316939192909190611b358d611ab4565b949d939c50919a509850965090945092505050565b670de0b6b3a764000081565b60008281526066602052604081206060611b6f85612639565b600a830154909150600090611b9390670de0b6b3a76400009063ffffffff6123e716565b611bab88670de0b6b3a764000063ffffffff61240f16565b81611bb257fe5b0490506000828681518110611bc357fe5b602002602001015190506000611bea670de0b6b3a76400008361240f90919063ffffffff16565b905060005b8451811015611c3957878114611c31576000858281518110611c0d57fe5b60200260200101519050611c2d610e8386836123e790919063ffffffff16565b9250505b600101611bef565b5060008111611c5a5760405162461bcd60e51b81526004016106fd906130f1565b610f0382610ef7611c7984670de0b6b3a764000063ffffffff6126cc16565b869063ffffffff61244916565b60008181526066602052604081206002600682015460ff166002811115611ca957fe5b1415611cf257600281015460088201546000908152600e83016020526040902060030154611cea919061109290670de0b6b3a764000063ffffffff61240f16565b9150506109f6565b6003810154600d8201546002830154611d2092916110929190670de0b6b3a76400000263ffffffff61240f16565b9392505050565b60685481565b60606065805480602002602001604051908101604052809291908181526020018280548015611d7b57602002820191906000526020600020905b815481526020019060010190808311611d67575b5050505050905090565b611d8d612251565b6001600160a01b0316611d9e611539565b6001600160a01b031614611dc45760405162461bcd60e51b81526004016106fd9061345d565b606a55565b606c54606b546040516370a0823160e01b8152600092916001600160a01b0316906370a0823190611dfe903390600401612fc7565b60206040518083038186803b158015611e1657600080fd5b505afa158015611e2a573d6000803e3d6000fd5b505050506040513d601f19601f82011682018060405250611e4e9190810190612e1c565b1015611e6c5760405162461bcd60e51b81526004016106fd90613336565b60675460658054600181019091557f8ff97419363ffd7000167f130ef7168fbea05faf9251824ca5043f113cc6a7c701819055600081815260666020526040902034611eca5760405162461bcd60e51b81526004016106fd9061316c565b42861015611eea5760405162461bcd60e51b81526004016106fd90613492565b83600214611f0a5760405162461bcd60e51b81526004016106fd9061321a565b85815560068101805460ff19169055606854600a820155600019600882015560005b84811015611f6e57600d820180546001818101835560009283526020808420909201849055838352600e85019091526040909120848155810182905501611f2c565b50606954606a5460405163d4876b9f60e01b81526001600160a01b0390921691829163d4876b9f91611fb0916002918e918c918e9060009081906004016130a1565b602060405180830381600087803b158015611fca57600080fd5b505af1158015611fde573d6000803e3d6000fd5b505050506040513d601f19601f820116820180604052506120029190810190612e1c565b600983015561201183346126fc565b61201a836122a5565b82336001600160a01b03167f928446b14f4c661d8499681f1d2eb118eb6e89066877a7d43e0672a27cc63a32878c8c604051612058939291906136b3565b60405180910390a350506067805460010190559695505050505050565b6000828152606660209081526040808320848452600e81019092528220829182916120a08787611497565b6003820154600290920154909891975095509350505050565b6120c1612251565b6001600160a01b03166120d2611539565b6001600160a01b0316146120f85760405162461bcd60e51b81526004016106fd9061345d565b6001600160a01b03811661211e5760405162461bcd60e51b81526004016106fd90613126565b6033546040516001600160a01b0380841692169060008051602061374c83398151915290600090a3603380546001600160a01b0319166001600160a01b0392909216919091179055565b606b546001600160a01b031681565b600082815260666020908152604080832060028101546001600160a01b03861685526004820190935290832054600b820154919284926121c192611092919063ffffffff61240f16565b6001600160a01b0385166000908152600c8401602052604090205490915061152e90829063ffffffff6123e716565b6121f8612251565b6001600160a01b0316612209611539565b6001600160a01b03161461222f5760405162461bcd60e51b81526004016106fd9061345d565b606980546001600160a01b0319166001600160a01b0392909216919091179055565b3390565b6000818152606660205260409020600681015460ff16600281111561227657fe5b600101600281111561228457fe5b60068201805460ff1916600183600281111561229c57fe5b02179055505050565b6000818152606660205260408120905b600d82015481101561230d5780837f8270f0a0534b13b7f92d1dbd58aa75c5207b40c55fefa7a17110c6136ad7270b6122ee8685611497565b426040516122fd9291906136e8565b60405180910390a36001016122b5565b508160008051602061372c833981519152826002015461232c85611c86565b4260405161233c9392919061369d565b60405180910390a25050565b6000838152606660209081526040808320858452600e810183528184206001600160a01b03891685526004810190935292205461238b908463ffffffff6123e716565b6001600160a01b038716600090815260048301602052604090205560038101546123bb908463ffffffff61244916565b6003808301919091558201546123d7908463ffffffff61244916565b8260030181905550505050505050565b6000828211156124095760405162461bcd60e51b81526004016106fd90613288565b50900390565b60008261241e57506000611533565b8282028284828161242b57fe5b0414611d205760405162461bcd60e51b81526004016106fd9061341c565b600082820183811015611d205760405162461bcd60e51b81526004016106fd9061319b565b6000828152606660205260408120905b600d8201548110156124f1576000818152600e83016020526040902060038101546124af908563ffffffff6123e716565b600382015560028101546124c9908563ffffffff6123e716565b600282015560038301546124e3908563ffffffff6123e716565b60038401555060010161247e565b506001810154612507908363ffffffff6123e716565b6001909101555050565b6000828152606660205260408120905b600d820154811015612594576000818152600e8301602052604090206003810154612552908563ffffffff61244916565b6003820155600281015461256c908563ffffffff61244916565b60028201556003830154612586908563ffffffff61244916565b600384015550600101612521565b506001810154612507908363ffffffff61244916565b6000838152606660209081526040808320858452600e810183528184206001600160a01b0389168552600481019093529220546125ed908463ffffffff61244916565b6001600160a01b0387166000908152600483016020526040902055600381015461261d908463ffffffff6123e716565b6003808301919091558201546123d7908463ffffffff6123e716565b600081815260666020908152604091829020600d8101548351818152818402810190930190935260609290918391801561267d578160200160208202803883390190505b50905060005b600d8301548110156126c4576000818152600e8401602052604090206003015482518390839081106126b157fe5b6020908102919091010152600101612683565b509392505050565b600082156126eb578160018403816126e057fe5b046001019050611533565b8183816126f457fe5b049392505050565b600082815260666020526040902054829042118015612738575060008181526066602052604081206006015460ff16600281111561273657fe5b145b156127465761274681612255565b8260008060008381526066602052604090206006015460ff16600281111561276a57fe5b1461277457600080fd5b60008581526066602052604090208461279f5760405162461bcd60e51b81526004016106fd90613251565b600060606127ac88612639565b9050606081516040519080825280602002602001820160405280156127db578160200160208202803883390190505b506002850154909150600090156128ca5760005b835181101561282557600084828151811061280657fe5b602002602001015190508083101561281c578092505b506001016127ef565b5060005b83518110156128955760008261285b86848151811061284457fe5b60200260200101518d61240f90919063ffffffff16565b8161286257fe5b0490506128758b8263ffffffff6123e716565b84838151811061288157fe5b602090810291909101015250600101612829565b50806128ae86600201548b61240f90919063ffffffff16565b816128b557fe5b0493506128c48a856002612b44565b506128ce565b8893505b60028501546128e3908563ffffffff61244916565b600286015533600090815260048601602052604090205461290a908563ffffffff61244916565b3360009081526004870160205260409020556129268a8a612511565b60005b82518110156129ec57600083828151811061294057fe5b602002602001015111156129e4576003808701546000838152600e8901602052604090209091015484516129809033908f9086908990829081106117fc57fe5b8c6000336001600160a01b031660008051602061370c833981519152868988815181106129a957fe5b60200260200101516129c88e600301546110928d8c8151811061185157fe5b426040516129d99493929190613086565b60405180910390a450505b600101612929565b5060006129f88b611c86565b90506000670de0b6b3a7640000612a15838863ffffffff61240f16565b81612a1c57fe5b0490508b6002336001600160a01b031660008051602061370c83398151915260008a8642604051612a509493929190613086565b60405180910390a48b60008051602061372c83398151915288600201548442604051612a7e9392919061369d565b60405180910390a2505050505050505050505050565b60008082116126eb5760405162461bcd60e51b81526004016106fd90613302565b6000612ac030612c34565b15905090565b600054610100900460ff1680612adf5750612adf612ab5565b80612aed575060005460ff16155b612b095760405162461bcd60e51b81526004016106fd906133ce565b600054610100900460ff16158015612b34576000805460ff1961ff0019909116610100171660011790555b612b3c612c3a565b61144b612cbb565b60008381526066602052604081206002810154600b8201548391612b739161109290889063ffffffff61240f16565b90506002846006811115612b8357fe5b1415612bdc57600b820154612b9e908263ffffffff61244916565b600b830155336000908152600c83016020526040902054612bc5908263ffffffff61244916565b336000908152600c84016020526040902055612c2b565b600b820154612bf1908263ffffffff6123e716565b600b830155336000908152600c83016020526040902054612c18908263ffffffff6123e716565b336000908152600c840160205260409020555b50509392505050565b3b151590565b600054610100900460ff1680612c535750612c53612ab5565b80612c61575060005460ff16155b612c7d5760405162461bcd60e51b81526004016106fd906133ce565b600054610100900460ff1615801561144b576000805460ff1961ff001990911661010017166001179055801561145d576000805461ff001916905550565b600054610100900460ff1680612cd45750612cd4612ab5565b80612ce2575060005460ff16155b612cfe5760405162461bcd60e51b81526004016106fd906133ce565b600054610100900460ff16158015612d29576000805460ff1961ff0019909116610100171660011790555b6000612d33612251565b603380546001600160a01b0319166001600160a01b0383169081179091556040519192509060009060008051602061374c833981519152908290a350801561145d576000805461ff001916905550565b600082601f830112612d93578081fd5b81356001600160401b0380821115612da9578283fd5b604051601f8301601f191681016020018281118282101715612dc9578485fd5b604052828152925082848301602001861015612de457600080fd5b8260208601602083013760006020848301015250505092915050565b600060208284031215612e11578081fd5b8135611d20816136f6565b600060208284031215612e2d578081fd5b5051919050565b600080600080600060a08688031215612e4b578081fd5b85356001600160401b0380821115612e61578283fd5b612e6d89838a01612d83565b96506020880135915080821115612e82578283fd5b50612e8f88828901612d83565b945050604086013592506060860135612ea7816136f6565b949793965091946080013592915050565b600060208284031215612ec9578081fd5b5035919050565b60008060408385031215612ee2578182fd5b823591506020830135612ef4816136f6565b809150509250929050565b60008060408385031215612f11578182fd5b50508035926020909101359150565b600080600060608486031215612f34578283fd5b505081359360208301359350604090920135919050565b60008060008060808587031215612f60578384fd5b5050823594602084013594506040840135936060013592509050565b60008151808452815b81811015612fa157602081850181015186830182015201612f85565b81811115612fb25782602083870101525b50601f01601f19169290920160200192915050565b6001600160a01b0391909116815260200190565b6020808252825182820181905260009190848201906040850190845b8181101561301357835183529284019291840191600101612ff7565b50909695505050505050565b94151585529215156020850152901515604084015215156060830152608082015260a00190565b90815260200190565b60c081016003881061305d57fe5b968152602081019590955260408501939093526060840191909152608083015260a09091015290565b93845260208401929092526040830152606082015260800190565b600088825260e060208301526130ba60e0830189612f7c565b6001600160a01b039790971660408301525063ffffffff948516606082015292909316608083015260a082015260c0015292915050565b6020808252601b908201527a6d7573742068617665206e6f6e2d7a65726f2062616c616e63657360281b604082015260600190565b60208082526026908201527f4f776e61626c653a206e6577206f776e657220697320746865207a65726f206160408201526564647265737360d01b606082015260800190565b60208082526015908201527407374616b65206e6565647320746f206265203e203605c1b604082015260600190565b6020808252601b908201527a536166654d6174683a206164646974696f6e206f766572666c6f7760281b604082015260600190565b6020808252602a908201527f7573657220646f6573206e6f7420686f6c64207265736f6c766564206f7574636040820152696f6d652073686172657360b01b606082015260800190565b6020808252601e908201527f6e756d626572206f66206f7574636f6d65732068617320746f20626520320000604082015260600190565b6020808252601f908201527f7374616b652068617320746f2062652067726561746572207468616e20302e00604082015260600190565b6020808252601e908201527f536166654d6174683a207375627472616374696f6e206f766572666c6f770000604082015260600190565b60208082526023908201527f4d61726b657420646f6573206e6f74206861766520656e6f7567682062616c616040820152626e636560e81b606082015260800190565b6020808252601a9082015279536166654d6174683a206469766973696f6e206279207a65726f60301b604082015260600190565b6020808252602a908201527f6d73672e73656e646572206d75737420686f6c64206d696e696d756d2065726360408201526932302062616c616e636560b01b606082015260800190565b6020808252602e908201527f7573657220616c726561647920636c61696d6564207265736f6c766564206f7560408201526d74636f6d652077696e6e696e677360901b606082015260800190565b6020808252602e908201527f496e697469616c697a61626c653a20636f6e747261637420697320616c72656160408201526d191e481a5b9a5d1a585b1a5e995960921b606082015260800190565b60208082526021908201527f536166654d6174683a206d756c7469706c69636174696f6e206f766572666c6f6040820152607760f81b606082015260800190565b6020808252818101527f4f776e61626c653a2063616c6c6572206973206e6f7420746865206f776e6572604082015260600190565b6020808252602a908201527f6d61726b6574206d757374207265736f6c7665206166746572207468652063756040820152697272656e74206461746560b01b606082015260800190565b60208082526027908201527f7573657220616c726561647920636c61696d6564206c69717569646974792077604082015266696e6e696e677360c81b606082015260800190565b60208082526023908201527f7573657220646f6573206e6f7420686f6c64206c69717569646974792073686160408201526272657360e81b606082015260800190565b60208082526023908201527f6d61726b657420646f6573206e6f74206861766520656e6f7567682062616c616040820152626e636560e81b606082015260800190565b60208082526021908201527f7573657220646f6573206e6f74206861766520656e6f7567682062616c616e636040820152606560f81b606082015260800190565b60208082526026908201527f6f7574636f6d652073686172657320706f6f6c2062616c616e636520697320746040820152656f6f206c6f7760d01b606082015260800190565b6020808252601e908201527f6d696e696d756d2062757920616d6f756e74206e6f7420726561636865640000604082015260600190565b6020808252601c908201527b1b585e1a5b5d5b481cd95b1b08185b5bdd5b9d08195e18d95959195960221b604082015260600190565b9283526020830191909152604082015260600190565b6000848252606060208301526136cc6060830185612f7c565b82810360408401526136de8185612f7c565b9695505050505050565b918252602082015260400190565b6001600160a01b038116811461145d57600080fdfe9dcabe311735ed0d65f0c22c5425d1f17331f94c9d0767f59e58473cf95ada611eca98f266e5348ae38d5d057a4d8e451e76672f69ac6ba4b0e3b31ea9c7eb2b8be0079c531659141344cd1fd0a4f28419497f9722a3daafe3b4186f6b6457e0a2646970667358221220e2fb0844553171f9bf73cf8b5ab7ab88983e779ead91829fc48ef0bd42ee1aee64736f6c63430006020033",
  "source": "pragma solidity ^0.6.0;\npragma experimental ABIEncoderV2;\n\nimport \"./RealitioERC20.sol\";\n\n// openzeppelin imports\nimport \"@openzeppelin/contracts/math/SafeMath.sol\";\nimport \"@openzeppelin/contracts-upgradeable/access/OwnableUpgradeable.sol\";\n\nlibrary CeilDiv {\n  // calculates ceil(x/y)\n  function ceildiv(uint256 x, uint256 y) internal pure returns (uint256) {\n    if (x > 0) return ((x - 1) / y) + 1;\n    return x / y;\n  }\n}\n\n/// @title Market Contract Factory\ncontract PredictionMarket is Initializable, OwnableUpgradeable {\n  using SafeMath for uint256;\n  using CeilDiv for uint256;\n\n  // ------ Events ------\n\n  event MarketCreated(address indexed user, uint256 indexed marketId, uint256 outcomes, string question, string image);\n\n  event MarketActionTx(\n    address indexed user,\n    MarketAction indexed action,\n    uint256 indexed marketId,\n    uint256 outcomeId,\n    uint256 shares,\n    uint256 value,\n    uint256 timestamp\n  );\n\n  event MarketOutcomePrice(uint256 indexed marketId, uint256 indexed outcomeId, uint256 value, uint256 timestamp);\n\n  event MarketLiquidity(\n    uint256 indexed marketId,\n    uint256 value, // total liquidity\n    uint256 price, // value of one liquidity share; max: 1 (50-50 situation)\n    uint256 timestamp\n  );\n\n  event MarketResolved(address indexed user, uint256 indexed marketId, uint256 outcomeId, uint256 timestamp);\n\n  // ------ Events End ------\n\n  uint256 public constant MAX_UINT_256 = 115792089237316195423570985008687907853269984665640564039457584007913129639935;\n\n  uint256 public constant ONE = 10**18;\n\n  enum MarketState {\n    open,\n    closed,\n    resolved\n  }\n  enum MarketAction {\n    buy,\n    sell,\n    addLiquidity,\n    removeLiquidity,\n    claimWinnings,\n    claimLiquidity,\n    claimFees\n  }\n\n  struct Market {\n    // market details\n    uint256 closesAtTimestamp;\n    uint256 balance; // total stake\n    uint256 liquidity; // stake held\n    uint256 sharesAvailable; // shares held (all outcomes)\n    mapping(address => uint256) liquidityShares;\n    mapping(address => bool) liquidityClaims; // wether user has claimed liquidity earnings\n    MarketState state; // resolution variables\n    MarketResolution resolution; // fees\n    MarketFees fees;\n    // market outcomes\n    uint256[] outcomeIds;\n    mapping(uint256 => MarketOutcome) outcomes;\n  }\n\n  struct MarketFees {\n    uint256 value; // fee % taken from every transaction\n    uint256 poolWeight; // internal var used to ensure pro-rate fee distribution\n    mapping(address => uint256) claimed;\n  }\n\n  struct MarketResolution {\n    bool resolved;\n    uint256 outcomeId;\n    bytes32 questionId; // realitio questionId\n  }\n\n  struct MarketOutcome {\n    uint256 marketId;\n    uint256 id;\n    Shares shares;\n  }\n\n  struct Shares {\n    uint256 total; // number of shares\n    uint256 available; // available shares\n    mapping(address => uint256) holders;\n    mapping(address => bool) claims; // wether user has claimed winnings\n  }\n\n  uint256[] marketIds;\n  mapping(uint256 => Market) markets;\n  uint256 public marketIndex;\n\n  // governance\n  uint256 public fee; // fee % taken from every transaction, can be updated by contract owner\n  // realitio configs\n  address public realitioAddress;\n  uint256 public realitioTimeout;\n  // market creation\n  IERC20 public token; // token used for rewards / market creation\n  uint256 public requiredBalance; // required balance for market creation\n\n  // ------ Modifiers ------\n\n  modifier isMarket(uint256 marketId) {\n    require(marketId < marketIndex);\n    _;\n  }\n\n  modifier timeTransitions(uint256 marketId) {\n    if (now > markets[marketId].closesAtTimestamp && markets[marketId].state == MarketState.open) {\n      nextState(marketId);\n    }\n    _;\n  }\n\n  modifier atState(uint256 marketId, MarketState state) {\n    require(markets[marketId].state == state);\n    _;\n  }\n\n  modifier notAtState(uint256 marketId, MarketState state) {\n    require(markets[marketId].state != state);\n    _;\n  }\n\n  modifier transitionNext(uint256 marketId) {\n    _;\n    nextState(marketId);\n  }\n\n  modifier mustHoldRequiredBalance() {\n    require(token.balanceOf(msg.sender) >= requiredBalance, \"msg.sender must hold minimum erc20 balance\");\n    _;\n  }\n\n  // ------ Modifiers End ------\n\n  // Initializer function (replaces constructor)\n  function initialize() public initializer {\n    __Ownable_init();\n  }\n\n  // ------ Core Functions ------\n\n  /// @dev Creates a market, initializes the outcome shares pool and submits a question in Realitio\n  function createMarket(\n    string memory question,\n    string memory image,\n    uint256 closesAt,\n    address arbitrator,\n    uint256 outcomes\n  ) public payable mustHoldRequiredBalance() returns (uint256) {\n    uint256 marketId = marketIndex;\n    marketIds.push(marketId);\n\n    Market storage market = markets[marketId];\n\n    require(msg.value > 0, \"stake needs to be > 0\");\n    require(closesAt >= now, \"market must resolve after the current date\");\n    require(arbitrator == address(arbitrator), \"invalid arbitrator address\");\n    // v1 - only binary markets\n    require(outcomes == 2, \"number of outcomes has to be 2\");\n\n    market.closesAtTimestamp = closesAt;\n    market.state = MarketState.open;\n    market.fees.value = fee;\n    // setting intial value to an integer that does not map to any outcomeId\n    market.resolution.outcomeId = MAX_UINT_256;\n\n    // creating market outcomes\n    for (uint256 i = 0; i < outcomes; i++) {\n      market.outcomeIds.push(i);\n      MarketOutcome storage outcome = market.outcomes[i];\n\n      outcome.marketId = marketId;\n      outcome.id = i;\n    }\n\n    // creating question in realitio\n    RealitioERC20 realitio = RealitioERC20(realitioAddress);\n\n    market.resolution.questionId = realitio.askQuestionERC20(\n      2,\n      question,\n      arbitrator,\n      uint32(realitioTimeout),\n      uint32(closesAt),\n      0,\n      0\n    );\n\n    addLiquidity(marketId, msg.value);\n\n    // emiting initial price events\n    emitMarketOutcomePriceEvents(marketId);\n    emit MarketCreated(msg.sender, marketId, outcomes, question, image);\n\n    // incrementing market array index\n    marketIndex = marketIndex + 1;\n\n    return marketId;\n  }\n\n  /// @dev Calculates the number of shares bought with \"amount\" balance\n  function calcBuyAmount(\n    uint256 amount,\n    uint256 marketId,\n    uint256 outcomeId\n  ) public view returns (uint256) {\n    Market storage market = markets[marketId];\n\n    uint256[] memory outcomesShares = getMarketOutcomesShares(marketId);\n    uint256 amountMinusFees = amount.sub(amount.mul(market.fees.value) / ONE);\n    uint256 buyTokenPoolBalance = outcomesShares[outcomeId];\n    uint256 endingOutcomeBalance = buyTokenPoolBalance.mul(ONE);\n    for (uint256 i = 0; i < outcomesShares.length; i++) {\n      if (i != outcomeId) {\n        uint256 outcomeShares = outcomesShares[i];\n        endingOutcomeBalance = endingOutcomeBalance.mul(outcomeShares).ceildiv(outcomeShares.add(amountMinusFees));\n      }\n    }\n    require(endingOutcomeBalance > 0, \"must have non-zero balances\");\n\n    return buyTokenPoolBalance.add(amountMinusFees).sub(endingOutcomeBalance.ceildiv(ONE));\n  }\n\n  /// @dev Calculates the number of shares needed to be sold in order to receive \"amount\" in balance\n  function calcSellAmount(\n    uint256 amount,\n    uint256 marketId,\n    uint256 outcomeId\n  ) public view returns (uint256 outcomeTokenSellAmount) {\n    Market storage market = markets[marketId];\n\n    uint256[] memory outcomesShares = getMarketOutcomesShares(marketId);\n    uint256 amountPlusFees = amount.mul(ONE) / ONE.sub(market.fees.value);\n    uint256 sellTokenPoolBalance = outcomesShares[outcomeId];\n    uint256 endingOutcomeBalance = sellTokenPoolBalance.mul(ONE);\n    for (uint256 i = 0; i < outcomesShares.length; i++) {\n      if (i != outcomeId) {\n        uint256 outcomeShares = outcomesShares[i];\n        endingOutcomeBalance = endingOutcomeBalance.mul(outcomeShares).ceildiv(outcomeShares.sub(amountPlusFees));\n      }\n    }\n    require(endingOutcomeBalance > 0, \"must have non-zero balances\");\n\n    return amountPlusFees.add(endingOutcomeBalance.ceildiv(ONE)).sub(sellTokenPoolBalance);\n  }\n\n  /// @dev Buy shares of a market outcome\n  function buy(\n    uint256 marketId,\n    uint256 outcomeId,\n    uint256 minOutcomeSharesToBuy\n  ) external payable timeTransitions(marketId) atState(marketId, MarketState.open) {\n    Market storage market = markets[marketId];\n\n    uint256 value = msg.value;\n    uint256 shares = calcBuyAmount(value, marketId, outcomeId);\n    require(shares >= minOutcomeSharesToBuy, \"minimum buy amount not reached\");\n\n    // subtracting fee from transaction value\n    uint256 feeAmount = value.mul(market.fees.value) / ONE;\n    market.fees.poolWeight = market.fees.poolWeight.add(feeAmount);\n    uint256 valueMinusFees = value.sub(feeAmount);\n\n    MarketOutcome storage outcome = market.outcomes[outcomeId];\n\n    // Funding market shares with received funds\n    addSharesToMarket(marketId, valueMinusFees);\n\n    require(outcome.shares.available >= shares, \"outcome shares pool balance is too low\");\n\n    transferOutcomeSharesfromPool(msg.sender, marketId, outcomeId, shares);\n\n    emit MarketActionTx(msg.sender, MarketAction.buy, marketId, outcomeId, shares, value, now);\n    emitMarketOutcomePriceEvents(marketId);\n  }\n\n  /// @dev Sell shares of a market outcome\n  function sell(\n    uint256 marketId,\n    uint256 outcomeId,\n    uint256 value,\n    uint256 maxOutcomeSharesToSell\n  ) external payable timeTransitions(marketId) atState(marketId, MarketState.open) {\n    Market storage market = markets[marketId];\n    MarketOutcome storage outcome = market.outcomes[outcomeId];\n\n    uint256 shares = calcSellAmount(value, marketId, outcomeId);\n\n    require(shares <= maxOutcomeSharesToSell, \"maximum sell amount exceeded\");\n    require(outcome.shares.holders[msg.sender] >= shares, \"user does not have enough balance\");\n\n    transferOutcomeSharesToPool(msg.sender, marketId, outcomeId, shares);\n\n    // adding fee to transaction value\n    uint256 feeAmount = value.mul(market.fees.value) / (ONE.sub(fee));\n    market.fees.poolWeight = market.fees.poolWeight.add(feeAmount);\n    uint256 valuePlusFees = value.add(feeAmount);\n\n    require(market.balance >= valuePlusFees, \"market does not have enough balance\");\n\n    // Rebalancing market shares\n    removeSharesFromMarket(marketId, valuePlusFees);\n\n    // Transferring funds to user\n    msg.sender.transfer(value);\n\n    emit MarketActionTx(msg.sender, MarketAction.sell, marketId, outcomeId, shares, value, now);\n    emitMarketOutcomePriceEvents(marketId);\n  }\n\n  /// @dev Adds liquidity to a market - external\n  function addLiquidity(uint256 marketId)\n    external\n    payable\n    timeTransitions(marketId)\n    atState(marketId, MarketState.open)\n  {\n    addLiquidity(marketId, msg.value);\n  }\n\n  /// @dev Private function, used by addLiquidity and CreateMarket\n  function addLiquidity(uint256 marketId, uint256 value)\n    private\n    timeTransitions(marketId)\n    atState(marketId, MarketState.open)\n  {\n    Market storage market = markets[marketId];\n\n    require(value > 0, \"stake has to be greater than 0.\");\n\n    uint256 liquidityAmount;\n\n    uint256[] memory outcomesShares = getMarketOutcomesShares(marketId);\n    uint256[] memory sendBackAmounts = new uint256[](outcomesShares.length);\n    uint256 poolWeight = 0;\n\n    if (market.liquidity > 0) {\n      // part of the liquidity is exchanged for outcome shares if market is not balanced\n      for (uint256 i = 0; i < outcomesShares.length; i++) {\n        uint256 outcomeShares = outcomesShares[i];\n        if (poolWeight < outcomeShares) poolWeight = outcomeShares;\n      }\n\n      for (uint256 i = 0; i < outcomesShares.length; i++) {\n        uint256 remaining = value.mul(outcomesShares[i]) / poolWeight;\n        sendBackAmounts[i] = value.sub(remaining);\n      }\n\n      liquidityAmount = value.mul(market.liquidity) / poolWeight;\n\n      // re-balancing fees pool\n      rebalanceFeesPool(marketId, liquidityAmount, MarketAction.addLiquidity);\n    } else {\n      // funding market with no liquidity\n      liquidityAmount = value;\n    }\n\n    // funding market\n    market.liquidity = market.liquidity.add(liquidityAmount);\n    market.liquidityShares[msg.sender] = market.liquidityShares[msg.sender].add(liquidityAmount);\n\n    addSharesToMarket(marketId, value);\n\n    // transform sendBackAmounts to array of amounts added\n    for (uint256 i = 0; i < sendBackAmounts.length; i++) {\n      if (sendBackAmounts[i] > 0) {\n        uint256 marketShares = market.sharesAvailable;\n        uint256 outcomeShares = market.outcomes[i].shares.available;\n        transferOutcomeSharesfromPool(msg.sender, marketId, i, sendBackAmounts[i]);\n        emit MarketActionTx(\n          msg.sender,\n          MarketAction.buy,\n          marketId,\n          i,\n          sendBackAmounts[i],\n          (marketShares.sub(outcomeShares)).mul(sendBackAmounts[i]).div(market.sharesAvailable), // price * shares\n          now\n        );\n      }\n    }\n\n    uint256 liquidityPrice = getMarketLiquidityPrice(marketId);\n    uint256 liquidityValue = liquidityPrice.mul(liquidityAmount) / ONE;\n    emit MarketActionTx(msg.sender, MarketAction.addLiquidity, marketId, 0, liquidityAmount, liquidityValue, now);\n    emit MarketLiquidity(marketId, market.liquidity, liquidityPrice, now);\n  }\n\n  /// @dev Removes liquidity to a market - external\n  function removeLiquidity(uint256 marketId, uint256 shares)\n    external\n    payable\n    timeTransitions(marketId)\n    atState(marketId, MarketState.open)\n  {\n    Market storage market = markets[marketId];\n\n    require(market.liquidityShares[msg.sender] >= shares, \"user does not have enough balance\");\n    // claiming any pending fees\n    claimFees(marketId);\n\n    // re-balancing fees pool\n    rebalanceFeesPool(marketId, shares, MarketAction.removeLiquidity);\n\n    uint256[] memory outcomesShares = getMarketOutcomesShares(marketId);\n    uint256[] memory sendAmounts = new uint256[](outcomesShares.length);\n    uint256 poolWeight = MAX_UINT_256;\n\n    // part of the liquidity is exchanged for outcome shares if market is not balanced\n    for (uint256 i = 0; i < outcomesShares.length; i++) {\n      uint256 outcomeShares = outcomesShares[i];\n      if (poolWeight > outcomeShares) poolWeight = outcomeShares;\n    }\n\n    uint256 liquidityAmount = shares.mul(poolWeight).div(market.liquidity);\n\n    for (uint256 i = 0; i < outcomesShares.length; i++) {\n      sendAmounts[i] = outcomesShares[i].mul(shares) / market.liquidity;\n      sendAmounts[i] = sendAmounts[i].sub(liquidityAmount);\n    }\n\n    // removing liquidity from market\n    removeSharesFromMarket(marketId, liquidityAmount);\n    market.liquidity = market.liquidity.sub(shares);\n    // removing liquidity tokens from market creator\n    market.liquidityShares[msg.sender] = market.liquidityShares[msg.sender].sub(shares);\n\n    for (uint256 i = 0; i < outcomesShares.length; i++) {\n      if (sendAmounts[i] > 0) {\n        uint256 marketShares = market.sharesAvailable;\n        uint256 outcomeShares = market.outcomes[i].shares.available;\n\n        transferOutcomeSharesfromPool(msg.sender, marketId, i, sendAmounts[i]);\n        emit MarketActionTx(\n          msg.sender,\n          MarketAction.buy,\n          marketId,\n          i,\n          sendAmounts[i],\n          (marketShares.sub(outcomeShares)).mul(sendAmounts[i]).div(market.sharesAvailable), // price * shares\n          now\n        );\n      }\n    }\n\n    // transferring user funds from liquidity removed\n    msg.sender.transfer(liquidityAmount);\n\n    emit MarketActionTx(msg.sender, MarketAction.removeLiquidity, marketId, 0, shares, liquidityAmount, now);\n    emit MarketLiquidity(marketId, market.liquidity, getMarketLiquidityPrice(marketId), now);\n  }\n\n  /// @dev Fetches winning outcome from Realitio and resolves the market\n  function resolveMarketOutcome(uint256 marketId)\n    public\n    timeTransitions(marketId)\n    atState(marketId, MarketState.closed)\n    transitionNext(marketId)\n    returns (uint256)\n  {\n    Market storage market = markets[marketId];\n\n    RealitioERC20 realitio = RealitioERC20(realitioAddress);\n    // will fail if question is not finalized\n    uint256 outcomeId = uint256(realitio.resultFor(market.resolution.questionId));\n\n    market.resolution.outcomeId = outcomeId;\n\n    emit MarketResolved(msg.sender, marketId, outcomeId, now);\n    emitMarketOutcomePriceEvents(marketId);\n\n    return market.resolution.outcomeId;\n  }\n\n  /// @dev Allows holders of resolved outcome shares to claim earnings.\n  function claimWinnings(uint256 marketId) public atState(marketId, MarketState.resolved) {\n    Market storage market = markets[marketId];\n    MarketOutcome storage resolvedOutcome = market.outcomes[market.resolution.outcomeId];\n\n    require(resolvedOutcome.shares.holders[msg.sender] > 0, \"user does not hold resolved outcome shares\");\n    require(resolvedOutcome.shares.claims[msg.sender] == false, \"user already claimed resolved outcome winnings\");\n\n    // 1 share => price = 1\n    uint256 value = resolvedOutcome.shares.holders[msg.sender];\n\n    // assuring market has enough funds\n    require(market.balance >= value, \"Market does not have enough balance\");\n\n    market.balance = market.balance.sub(value);\n    resolvedOutcome.shares.claims[msg.sender] = true;\n\n    emit MarketActionTx(\n      msg.sender,\n      MarketAction.claimWinnings,\n      marketId,\n      market.resolution.outcomeId,\n      resolvedOutcome.shares.holders[msg.sender],\n      value,\n      now\n    );\n\n    msg.sender.transfer(value);\n  }\n\n  /// @dev Allows liquidity providers to claim earnings from liquidity providing.\n  function claimLiquidity(uint256 marketId) public atState(marketId, MarketState.resolved) {\n    Market storage market = markets[marketId];\n    MarketOutcome storage resolvedOutcome = market.outcomes[market.resolution.outcomeId];\n\n    // claiming any pending fees\n    claimFees(marketId);\n\n    require(market.liquidityShares[msg.sender] > 0, \"user does not hold liquidity shares\");\n    require(market.liquidityClaims[msg.sender] == false, \"user already claimed liquidity winnings\");\n\n    // value = total resolved outcome pool shares * pool share (%)\n    uint256 value = resolvedOutcome.shares.available.mul(getUserLiquidityPoolShare(marketId, msg.sender)).div(ONE);\n\n    // assuring market has enough funds\n    require(market.balance >= value, \"Market does not have enough balance\");\n\n    market.balance = market.balance.sub(value);\n    market.liquidityClaims[msg.sender] = true;\n\n    emit MarketActionTx(\n      msg.sender,\n      MarketAction.claimLiquidity,\n      marketId,\n      0,\n      market.liquidityShares[msg.sender],\n      value,\n      now\n    );\n\n    msg.sender.transfer(value);\n  }\n\n  /// @dev Allows liquidity providers to claim their fees share from fees pool\n  function claimFees(uint256 marketId) public payable {\n    Market storage market = markets[marketId];\n\n    uint256 claimableFees = getUserClaimableFees(marketId, msg.sender);\n\n    if (claimableFees > 0) {\n      market.fees.claimed[msg.sender] = market.fees.claimed[msg.sender].add(claimableFees);\n      msg.sender.transfer(claimableFees);\n    }\n\n    emit MarketActionTx(\n      msg.sender,\n      MarketAction.claimFees,\n      marketId,\n      0,\n      market.liquidityShares[msg.sender],\n      claimableFees,\n      now\n    );\n  }\n\n  /// @dev Rebalances the fees pool. Needed in every AddLiquidity / RemoveLiquidity call\n  function rebalanceFeesPool(\n    uint256 marketId,\n    uint256 liquidityShares,\n    MarketAction action\n  ) private returns (uint256) {\n    Market storage market = markets[marketId];\n\n    uint256 poolWeight = liquidityShares.mul(market.fees.poolWeight).div(market.liquidity);\n\n    if (action == MarketAction.addLiquidity) {\n      market.fees.poolWeight = market.fees.poolWeight.add(poolWeight);\n      market.fees.claimed[msg.sender] = market.fees.claimed[msg.sender].add(poolWeight);\n    } else {\n      market.fees.poolWeight = market.fees.poolWeight.sub(poolWeight);\n      market.fees.claimed[msg.sender] = market.fees.claimed[msg.sender].sub(poolWeight);\n    }\n  }\n\n  /// @dev Transitions market to next state\n  function nextState(uint256 marketId) private {\n    Market storage market = markets[marketId];\n    market.state = MarketState(uint256(market.state) + 1);\n  }\n\n  /// @dev Emits a outcome price event for every outcome\n  function emitMarketOutcomePriceEvents(uint256 marketId) private {\n    Market storage market = markets[marketId];\n\n    for (uint256 i = 0; i < market.outcomeIds.length; i++) {\n      emit MarketOutcomePrice(marketId, i, getMarketOutcomePrice(marketId, i), now);\n    }\n\n    // liquidity shares also change value\n    emit MarketLiquidity(marketId, market.liquidity, getMarketLiquidityPrice(marketId), now);\n  }\n\n  /// @dev Adds outcome shares to shares pool\n  function addSharesToMarket(uint256 marketId, uint256 shares) private {\n    Market storage market = markets[marketId];\n\n    for (uint256 i = 0; i < market.outcomeIds.length; i++) {\n      MarketOutcome storage outcome = market.outcomes[i];\n\n      outcome.shares.available = outcome.shares.available.add(shares);\n      outcome.shares.total = outcome.shares.total.add(shares);\n\n      // only adding to market total shares, the available remains\n      market.sharesAvailable = market.sharesAvailable.add(shares);\n    }\n\n    market.balance = market.balance.add(shares);\n  }\n\n  /// @dev Removes outcome shares from shares pool\n  function removeSharesFromMarket(uint256 marketId, uint256 shares) private {\n    Market storage market = markets[marketId];\n\n    for (uint256 i = 0; i < market.outcomeIds.length; i++) {\n      MarketOutcome storage outcome = market.outcomes[i];\n\n      outcome.shares.available = outcome.shares.available.sub(shares);\n      outcome.shares.total = outcome.shares.total.sub(shares);\n\n      // only subtracting from market total shares, the available remains\n      market.sharesAvailable = market.sharesAvailable.sub(shares);\n    }\n\n    market.balance = market.balance.sub(shares);\n  }\n\n  /// @dev Transfer outcome shares from pool to user balance\n  function transferOutcomeSharesfromPool(\n    address user,\n    uint256 marketId,\n    uint256 outcomeId,\n    uint256 shares\n  ) private {\n    Market storage market = markets[marketId];\n    MarketOutcome storage outcome = market.outcomes[outcomeId];\n\n    // transfering shares from shares pool to user\n    outcome.shares.holders[user] = outcome.shares.holders[user].add(shares);\n    outcome.shares.available = outcome.shares.available.sub(shares);\n    market.sharesAvailable = market.sharesAvailable.sub(shares);\n  }\n\n  /// @dev Transfer outcome shares from user balance back to pool\n  function transferOutcomeSharesToPool(\n    address user,\n    uint256 marketId,\n    uint256 outcomeId,\n    uint256 shares\n  ) private {\n    Market storage market = markets[marketId];\n    MarketOutcome storage outcome = market.outcomes[outcomeId];\n\n    // adding shares back to pool\n    outcome.shares.holders[user] = outcome.shares.holders[user].sub(shares);\n    outcome.shares.available = outcome.shares.available.add(shares);\n    market.sharesAvailable = market.sharesAvailable.add(shares);\n  }\n\n  // ------ Core Functions End ------\n\n  // ------ Governance Functions Start ------\n\n  /// @dev Sets fee taken from every buy/sell tx\n  function setFee(uint256 _fee) public onlyOwner() {\n    fee = _fee;\n  }\n\n  /// @dev Sets Realitio smart contract address\n  function setRealitioERC20(address _address) public onlyOwner() {\n    realitioAddress = _address;\n  }\n\n  /// @dev Sets timeout for questions submitted in Realitio\n  function setRealitioTimeout(uint256 timeout) public onlyOwner() {\n    realitioTimeout = timeout;\n  }\n\n  /// @dev Sets ERC20 token needed for markets creation\n  function setToken(IERC20 _token) public onlyOwner() {\n    token = _token;\n  }\n\n  /// @dev Sets needed ERC20 balance to create markets\n  function setRequiredBalance(uint256 _requiredBalance) public onlyOwner() {\n    requiredBalance = _requiredBalance;\n  }\n\n  // ------ Governance Functions End ------\n\n  // ------ Getters ------\n\n  function getUserMarketShares(uint256 marketId, address user)\n    public\n    view\n    returns (\n      uint256,\n      uint256,\n      uint256\n    )\n  {\n    Market storage market = markets[marketId];\n\n    return (\n      market.liquidityShares[user],\n      market.outcomes[0].shares.holders[user],\n      market.outcomes[1].shares.holders[user]\n    );\n  }\n\n  function getUserClaimStatus(uint256 marketId, address user)\n    public\n    view\n    returns (\n      bool,\n      bool,\n      bool,\n      bool,\n      uint256\n    )\n  {\n    Market storage market = markets[marketId];\n\n    // market still not resolved\n    if (market.state != MarketState.resolved) {\n      return (false, false, false, false, getUserClaimableFees(marketId, user));\n    }\n\n    MarketOutcome storage outcome = market.outcomes[market.resolution.outcomeId];\n\n    return (\n      outcome.shares.holders[user] > 0,\n      outcome.shares.claims[user],\n      market.liquidityShares[user] > 0,\n      market.liquidityClaims[user],\n      getUserClaimableFees(marketId, user)\n    );\n  }\n\n  function getUserLiquidityPoolShare(uint256 marketId, address user) public view returns (uint256) {\n    Market storage market = markets[marketId];\n\n    return market.liquidityShares[user].mul(ONE).div(market.liquidity);\n  }\n\n  function getUserClaimableFees(uint256 marketId, address user) public view returns (uint256) {\n    Market storage market = markets[marketId];\n\n    uint256 rawAmount = market.fees.poolWeight.mul(market.liquidityShares[user]).div(market.liquidity);\n    return rawAmount.sub(market.fees.claimed[user]);\n  }\n\n  function getMarkets() public view returns (uint256[] memory) {\n    return marketIds;\n  }\n\n  function getMarketData(uint256 marketId)\n    public\n    view\n    returns (\n      MarketState,\n      uint256,\n      uint256,\n      uint256,\n      uint256,\n      int256\n    )\n  {\n    Market storage market = markets[marketId];\n\n    return (\n      market.state,\n      market.closesAtTimestamp,\n      market.liquidity,\n      market.balance,\n      market.sharesAvailable,\n      getMarketResolvedOutcome(marketId)\n    );\n  }\n\n  function getMarketAltData(uint256 marketId)\n    public\n    view\n    returns (\n      uint256,\n      bytes32,\n      uint256\n    )\n  {\n    Market storage market = markets[marketId];\n\n    return (market.fees.value, market.resolution.questionId, uint256(market.resolution.questionId));\n  }\n\n  function getMarketQuestion(uint256 marketId) public view returns (bytes32) {\n    Market storage market = markets[marketId];\n\n    return (market.resolution.questionId);\n  }\n\n  function getMarketPrices(uint256 marketId)\n    public\n    view\n    returns (\n      uint256,\n      uint256,\n      uint256\n    )\n  {\n    return (getMarketLiquidityPrice(marketId), getMarketOutcomePrice(marketId, 0), getMarketOutcomePrice(marketId, 1));\n  }\n\n  function getMarketLiquidityPrice(uint256 marketId) public view returns (uint256) {\n    Market storage market = markets[marketId];\n\n    if (market.state == MarketState.resolved) {\n      // resolved market, price is either 0 or 1\n      // final liquidity price = outcome shares / liquidity shares\n      return market.outcomes[market.resolution.outcomeId].shares.available.mul(ONE).div(market.liquidity);\n    }\n\n    // liquidity price = # liquidity shares / # outcome shares * # outcomes\n    return market.liquidity.mul(ONE * market.outcomeIds.length).div(market.sharesAvailable);\n  }\n\n  function getMarketResolvedOutcome(uint256 marketId) public view returns (int256) {\n    Market storage market = markets[marketId];\n\n    // returning -1 if market still not resolved\n    if (market.state != MarketState.resolved) {\n      return -1;\n    }\n\n    return int256(market.resolution.outcomeId);\n  }\n\n  // ------ Outcome Getters ------\n\n  function getMarketOutcomeIds(uint256 marketId) public view returns (uint256[] memory) {\n    Market storage market = markets[marketId];\n    return market.outcomeIds;\n  }\n\n  function getMarketOutcomePrice(uint256 marketId, uint256 outcomeId) public view returns (uint256) {\n    Market storage market = markets[marketId];\n    MarketOutcome storage outcome = market.outcomes[outcomeId];\n\n    if (market.state == MarketState.resolved) {\n      // resolved market, price is either 0 or 1\n      return outcomeId == market.resolution.outcomeId ? ONE : 0;\n    }\n\n    return (market.sharesAvailable.sub(outcome.shares.available)).mul(ONE).div(market.sharesAvailable);\n  }\n\n  function getMarketOutcomeData(uint256 marketId, uint256 outcomeId)\n    public\n    view\n    returns (\n      uint256,\n      uint256,\n      uint256\n    )\n  {\n    Market storage market = markets[marketId];\n    MarketOutcome storage outcome = market.outcomes[outcomeId];\n\n    return (getMarketOutcomePrice(marketId, outcomeId), outcome.shares.available, outcome.shares.total);\n  }\n\n  function getMarketOutcomesShares(uint256 marketId) private view returns (uint256[] memory) {\n    Market storage market = markets[marketId];\n\n    uint256[] memory shares = new uint256[](market.outcomeIds.length);\n    for (uint256 i = 0; i < market.outcomeIds.length; i++) {\n      shares[i] = market.outcomes[i].shares.available;\n    }\n\n    return shares;\n  }\n}\n",
  "sourcePath": "/Users/ricardomarques/dev/workspace/polkamarkets/bepro-js/contracts/PredictionMarket.sol",
  "compiler": {
    "name": "solc",
    "version": "0.6.2+commit.bacdbe57.Emscripten.clang"
  },
  "schemaVersion": "3.3.4",
  "updatedAt": "2021-09-14T00:49:36.733Z",
  "networkType": "ethereum",
  "devdoc": {
    "methods": {
      "addLiquidity(uint256)": {
        "details": "Adds liquidity to a market - external"
      },
      "buy(uint256,uint256,uint256)": {
        "details": "Buy shares of a market outcome"
      },
      "calcBuyAmount(uint256,uint256,uint256)": {
        "details": "Calculates the number of shares bought with \"amount\" balance"
      },
      "calcSellAmount(uint256,uint256,uint256)": {
        "details": "Calculates the number of shares needed to be sold in order to receive \"amount\" in balance"
      },
      "claimFees(uint256)": {
        "details": "Allows liquidity providers to claim their fees share from fees pool"
      },
      "claimLiquidity(uint256)": {
        "details": "Allows liquidity providers to claim earnings from liquidity providing."
      },
      "claimWinnings(uint256)": {
        "details": "Allows holders of resolved outcome shares to claim earnings."
      },
      "createMarket(string,string,uint256,address,uint256)": {
        "details": "Creates a market, initializes the outcome shares pool and submits a question in Realitio"
      },
      "owner()": {
        "details": "Returns the address of the current owner."
      },
      "removeLiquidity(uint256,uint256)": {
        "details": "Removes liquidity to a market - external"
      },
      "renounceOwnership()": {
        "details": "Leaves the contract without owner. It will not be possible to call `onlyOwner` functions anymore. Can only be called by the current owner.     * NOTE: Renouncing ownership will leave the contract without an owner, thereby removing any functionality that is only available to the owner."
      },
      "resolveMarketOutcome(uint256)": {
        "details": "Fetches winning outcome from Realitio and resolves the market"
      },
      "sell(uint256,uint256,uint256,uint256)": {
        "details": "Sell shares of a market outcome"
      },
      "setFee(uint256)": {
        "details": "Sets fee taken from every buy/sell tx"
      },
      "setRealitioERC20(address)": {
        "details": "Sets Realitio smart contract address"
      },
      "setRealitioTimeout(uint256)": {
        "details": "Sets timeout for questions submitted in Realitio"
      },
      "setRequiredBalance(uint256)": {
        "details": "Sets needed ERC20 balance to create markets"
      },
      "setToken(address)": {
        "details": "Sets ERC20 token needed for markets creation"
      },
      "transferOwnership(address)": {
        "details": "Transfers ownership of the contract to a new account (`newOwner`). Can only be called by the current owner."
      }
    },
    "title": "Market Contract Factory"
  },
  "userdoc": {
    "methods": {}
  }
}