{
  "contractName": "PredictionMarket",
  "abi": [
    {
      "anonymous": false,
      "inputs": [
        {
          "indexed": true,
          "internalType": "address",
          "name": "participant",
          "type": "address"
        },
        {
          "indexed": true,
          "internalType": "uint256",
          "name": "marketId",
          "type": "uint256"
        },
        {
          "indexed": false,
          "internalType": "uint256",
          "name": "outcomes",
          "type": "uint256"
        },
        {
          "indexed": false,
          "internalType": "string",
          "name": "question",
          "type": "string"
        },
        {
          "indexed": false,
          "internalType": "string",
          "name": "image",
          "type": "string"
        }
      ],
      "name": "MarketCreated",
      "type": "event"
    },
    {
      "anonymous": false,
      "inputs": [
        {
          "indexed": true,
          "internalType": "uint256",
          "name": "marketId",
          "type": "uint256"
        },
        {
          "indexed": false,
          "internalType": "uint256",
          "name": "value",
          "type": "uint256"
        },
        {
          "indexed": false,
          "internalType": "uint256",
          "name": "price",
          "type": "uint256"
        },
        {
          "indexed": false,
          "internalType": "uint256",
          "name": "timestamp",
          "type": "uint256"
        }
      ],
      "name": "MarketLiquidity",
      "type": "event"
    },
    {
      "anonymous": false,
      "inputs": [
        {
          "indexed": true,
          "internalType": "uint256",
          "name": "marketId",
          "type": "uint256"
        },
        {
          "indexed": true,
          "internalType": "uint256",
          "name": "outcomeId",
          "type": "uint256"
        },
        {
          "indexed": false,
          "internalType": "uint256",
          "name": "value",
          "type": "uint256"
        },
        {
          "indexed": false,
          "internalType": "uint256",
          "name": "timestamp",
          "type": "uint256"
        }
      ],
      "name": "MarketOutcomePrice",
      "type": "event"
    },
    {
      "anonymous": false,
      "inputs": [
        {
          "indexed": true,
          "internalType": "address",
          "name": "oracle",
          "type": "address"
        },
        {
          "indexed": true,
          "internalType": "uint256",
          "name": "marketId",
          "type": "uint256"
        },
        {
          "indexed": false,
          "internalType": "uint256",
          "name": "outcomeId",
          "type": "uint256"
        },
        {
          "indexed": false,
          "internalType": "uint256",
          "name": "timestamp",
          "type": "uint256"
        }
      ],
      "name": "MarketResolved",
      "type": "event"
    },
    {
      "anonymous": false,
      "inputs": [
        {
          "indexed": true,
          "internalType": "address",
          "name": "previousOwner",
          "type": "address"
        },
        {
          "indexed": true,
          "internalType": "address",
          "name": "newOwner",
          "type": "address"
        }
      ],
      "name": "OwnershipTransferred",
      "type": "event"
    },
    {
      "anonymous": false,
      "inputs": [
        {
          "indexed": true,
          "internalType": "address",
          "name": "participant",
          "type": "address"
        },
        {
          "indexed": true,
          "internalType": "enum PredictionMarket.MarketAction",
          "name": "action",
          "type": "uint8"
        },
        {
          "indexed": true,
          "internalType": "uint256",
          "name": "marketId",
          "type": "uint256"
        },
        {
          "indexed": false,
          "internalType": "uint256",
          "name": "outcomeId",
          "type": "uint256"
        },
        {
          "indexed": false,
          "internalType": "uint256",
          "name": "shares",
          "type": "uint256"
        },
        {
          "indexed": false,
          "internalType": "uint256",
          "name": "value",
          "type": "uint256"
        },
        {
          "indexed": false,
          "internalType": "uint256",
          "name": "timestamp",
          "type": "uint256"
        }
      ],
      "name": "ParticipantAction",
      "type": "event"
    },
    {
      "inputs": [],
      "name": "MAX_UINT_256",
      "outputs": [
        {
          "internalType": "uint256",
          "name": "",
          "type": "uint256"
        }
      ],
      "stateMutability": "view",
      "type": "function"
    },
    {
      "inputs": [],
      "name": "ONE",
      "outputs": [
        {
          "internalType": "uint256",
          "name": "",
          "type": "uint256"
        }
      ],
      "stateMutability": "view",
      "type": "function"
    },
    {
      "inputs": [],
      "name": "fee",
      "outputs": [
        {
          "internalType": "uint256",
          "name": "",
          "type": "uint256"
        }
      ],
      "stateMutability": "view",
      "type": "function"
    },
    {
      "inputs": [],
      "name": "marketIndex",
      "outputs": [
        {
          "internalType": "uint256",
          "name": "",
          "type": "uint256"
        }
      ],
      "stateMutability": "view",
      "type": "function"
    },
    {
      "inputs": [],
      "name": "owner",
      "outputs": [
        {
          "internalType": "address",
          "name": "",
          "type": "address"
        }
      ],
      "stateMutability": "view",
      "type": "function"
    },
    {
      "inputs": [],
      "name": "realitioAddress",
      "outputs": [
        {
          "internalType": "address",
          "name": "",
          "type": "address"
        }
      ],
      "stateMutability": "view",
      "type": "function"
    },
    {
      "inputs": [],
      "name": "realitioTimeout",
      "outputs": [
        {
          "internalType": "uint256",
          "name": "",
          "type": "uint256"
        }
      ],
      "stateMutability": "view",
      "type": "function"
    },
    {
      "inputs": [],
      "name": "renounceOwnership",
      "outputs": [],
      "stateMutability": "nonpayable",
      "type": "function"
    },
    {
      "inputs": [],
      "name": "requiredBalance",
      "outputs": [
        {
          "internalType": "uint256",
          "name": "",
          "type": "uint256"
        }
      ],
      "stateMutability": "view",
      "type": "function"
    },
    {
      "inputs": [],
      "name": "token",
      "outputs": [
        {
          "internalType": "contract IERC20",
          "name": "",
          "type": "address"
        }
      ],
      "stateMutability": "view",
      "type": "function"
    },
    {
      "inputs": [
        {
          "internalType": "address",
          "name": "newOwner",
          "type": "address"
        }
      ],
      "name": "transferOwnership",
      "outputs": [],
      "stateMutability": "nonpayable",
      "type": "function"
    },
    {
      "inputs": [],
      "name": "initialize",
      "outputs": [],
      "stateMutability": "nonpayable",
      "type": "function"
    },
    {
      "inputs": [
        {
          "internalType": "string",
          "name": "question",
          "type": "string"
        },
        {
          "internalType": "string",
          "name": "image",
          "type": "string"
        },
        {
          "internalType": "uint256",
          "name": "closesAt",
          "type": "uint256"
        },
        {
          "internalType": "address",
          "name": "oracle",
          "type": "address"
        },
        {
          "internalType": "uint256",
          "name": "outcomes",
          "type": "uint256"
        }
      ],
      "name": "createMarket",
      "outputs": [
        {
          "internalType": "uint256",
          "name": "",
          "type": "uint256"
        }
      ],
      "stateMutability": "payable",
      "type": "function"
    },
    {
      "inputs": [
        {
          "internalType": "uint256",
          "name": "amount",
          "type": "uint256"
        },
        {
          "internalType": "uint256",
          "name": "marketId",
          "type": "uint256"
        },
        {
          "internalType": "uint256",
          "name": "outcomeId",
          "type": "uint256"
        }
      ],
      "name": "calcBuyAmount",
      "outputs": [
        {
          "internalType": "uint256",
          "name": "",
          "type": "uint256"
        }
      ],
      "stateMutability": "view",
      "type": "function"
    },
    {
      "inputs": [
        {
          "internalType": "uint256",
          "name": "amount",
          "type": "uint256"
        },
        {
          "internalType": "uint256",
          "name": "marketId",
          "type": "uint256"
        },
        {
          "internalType": "uint256",
          "name": "outcomeId",
          "type": "uint256"
        }
      ],
      "name": "calcSellAmount",
      "outputs": [
        {
          "internalType": "uint256",
          "name": "outcomeTokenSellAmount",
          "type": "uint256"
        }
      ],
      "stateMutability": "view",
      "type": "function"
    },
    {
      "inputs": [
        {
          "internalType": "uint256",
          "name": "marketId",
          "type": "uint256"
        },
        {
          "internalType": "uint256",
          "name": "outcomeId",
          "type": "uint256"
        },
        {
          "internalType": "uint256",
          "name": "minOutcomeSharesToBuy",
          "type": "uint256"
        }
      ],
      "name": "buy",
      "outputs": [],
      "stateMutability": "payable",
      "type": "function"
    },
    {
      "inputs": [
        {
          "internalType": "uint256",
          "name": "marketId",
          "type": "uint256"
        },
        {
          "internalType": "uint256",
          "name": "outcomeId",
          "type": "uint256"
        },
        {
          "internalType": "uint256",
          "name": "value",
          "type": "uint256"
        },
        {
          "internalType": "uint256",
          "name": "maxOutcomeSharesToSell",
          "type": "uint256"
        }
      ],
      "name": "sell",
      "outputs": [],
      "stateMutability": "payable",
      "type": "function"
    },
    {
      "inputs": [
        {
          "internalType": "uint256",
          "name": "marketId",
          "type": "uint256"
        }
      ],
      "name": "addLiquidity",
      "outputs": [],
      "stateMutability": "payable",
      "type": "function"
    },
    {
      "inputs": [
        {
          "internalType": "uint256",
          "name": "marketId",
          "type": "uint256"
        },
        {
          "internalType": "uint256",
          "name": "shares",
          "type": "uint256"
        }
      ],
      "name": "removeLiquidity",
      "outputs": [],
      "stateMutability": "payable",
      "type": "function"
    },
    {
      "inputs": [
        {
          "internalType": "uint256",
          "name": "marketId",
          "type": "uint256"
        }
      ],
      "name": "resolveMarketOutcome",
      "outputs": [
        {
          "internalType": "uint256",
          "name": "",
          "type": "uint256"
        }
      ],
      "stateMutability": "nonpayable",
      "type": "function"
    },
    {
      "inputs": [
        {
          "internalType": "uint256",
          "name": "marketId",
          "type": "uint256"
        }
      ],
      "name": "claimWinnings",
      "outputs": [],
      "stateMutability": "nonpayable",
      "type": "function"
    },
    {
      "inputs": [
        {
          "internalType": "uint256",
          "name": "marketId",
          "type": "uint256"
        }
      ],
      "name": "claimLiquidity",
      "outputs": [],
      "stateMutability": "nonpayable",
      "type": "function"
    },
    {
      "inputs": [
        {
          "internalType": "uint256",
          "name": "marketId",
          "type": "uint256"
        }
      ],
      "name": "claimFees",
      "outputs": [],
      "stateMutability": "payable",
      "type": "function"
    },
    {
      "inputs": [
        {
          "internalType": "uint256",
          "name": "_fee",
          "type": "uint256"
        }
      ],
      "name": "setFee",
      "outputs": [],
      "stateMutability": "nonpayable",
      "type": "function"
    },
    {
      "inputs": [
        {
          "internalType": "address",
          "name": "_address",
          "type": "address"
        }
      ],
      "name": "setRealitioERC20",
      "outputs": [],
      "stateMutability": "nonpayable",
      "type": "function"
    },
    {
      "inputs": [
        {
          "internalType": "uint256",
          "name": "timeout",
          "type": "uint256"
        }
      ],
      "name": "setRealitioTimeout",
      "outputs": [],
      "stateMutability": "nonpayable",
      "type": "function"
    },
    {
      "inputs": [
        {
          "internalType": "contract IERC20",
          "name": "_token",
          "type": "address"
        }
      ],
      "name": "setToken",
      "outputs": [],
      "stateMutability": "nonpayable",
      "type": "function"
    },
    {
      "inputs": [
        {
          "internalType": "uint256",
          "name": "_requiredBalance",
          "type": "uint256"
        }
      ],
      "name": "setRequiredBalance",
      "outputs": [],
      "stateMutability": "nonpayable",
      "type": "function"
    },
    {
      "inputs": [
        {
          "internalType": "uint256",
          "name": "marketId",
          "type": "uint256"
        },
        {
          "internalType": "address",
          "name": "participant",
          "type": "address"
        }
      ],
      "name": "getUserMarketShares",
      "outputs": [
        {
          "internalType": "uint256",
          "name": "",
          "type": "uint256"
        },
        {
          "internalType": "uint256",
          "name": "",
          "type": "uint256"
        },
        {
          "internalType": "uint256",
          "name": "",
          "type": "uint256"
        }
      ],
      "stateMutability": "view",
      "type": "function"
    },
    {
      "inputs": [
        {
          "internalType": "uint256",
          "name": "marketId",
          "type": "uint256"
        },
        {
          "internalType": "address",
          "name": "participant",
          "type": "address"
        }
      ],
      "name": "getUserClaimStatus",
      "outputs": [
        {
          "internalType": "bool",
          "name": "",
          "type": "bool"
        },
        {
          "internalType": "bool",
          "name": "",
          "type": "bool"
        },
        {
          "internalType": "bool",
          "name": "",
          "type": "bool"
        },
        {
          "internalType": "bool",
          "name": "",
          "type": "bool"
        },
        {
          "internalType": "uint256",
          "name": "",
          "type": "uint256"
        }
      ],
      "stateMutability": "view",
      "type": "function"
    },
    {
      "inputs": [
        {
          "internalType": "uint256",
          "name": "marketId",
          "type": "uint256"
        },
        {
          "internalType": "address",
          "name": "participant",
          "type": "address"
        }
      ],
      "name": "getUserLiquidityPoolShare",
      "outputs": [
        {
          "internalType": "uint256",
          "name": "",
          "type": "uint256"
        }
      ],
      "stateMutability": "view",
      "type": "function"
    },
    {
      "inputs": [
        {
          "internalType": "uint256",
          "name": "marketId",
          "type": "uint256"
        },
        {
          "internalType": "address",
          "name": "participant",
          "type": "address"
        }
      ],
      "name": "getUserClaimableFees",
      "outputs": [
        {
          "internalType": "uint256",
          "name": "",
          "type": "uint256"
        }
      ],
      "stateMutability": "view",
      "type": "function"
    },
    {
      "inputs": [],
      "name": "getMarkets",
      "outputs": [
        {
          "internalType": "uint256[]",
          "name": "",
          "type": "uint256[]"
        }
      ],
      "stateMutability": "view",
      "type": "function"
    },
    {
      "inputs": [
        {
          "internalType": "uint256",
          "name": "marketId",
          "type": "uint256"
        }
      ],
      "name": "getMarketData",
      "outputs": [
        {
          "internalType": "string",
          "name": "",
          "type": "string"
        },
        {
          "internalType": "enum PredictionMarket.MarketState",
          "name": "",
          "type": "uint8"
        },
        {
          "internalType": "uint256",
          "name": "",
          "type": "uint256"
        },
        {
          "internalType": "uint256",
          "name": "",
          "type": "uint256"
        },
        {
          "internalType": "uint256",
          "name": "",
          "type": "uint256"
        },
        {
          "internalType": "uint256",
          "name": "",
          "type": "uint256"
        },
        {
          "internalType": "int256",
          "name": "",
          "type": "int256"
        }
      ],
      "stateMutability": "view",
      "type": "function"
    },
    {
      "inputs": [
        {
          "internalType": "uint256",
          "name": "marketId",
          "type": "uint256"
        }
      ],
      "name": "getMarketAltData",
      "outputs": [
        {
          "internalType": "uint256",
          "name": "",
          "type": "uint256"
        },
        {
          "internalType": "bytes32",
          "name": "",
          "type": "bytes32"
        },
        {
          "internalType": "uint256",
          "name": "",
          "type": "uint256"
        }
      ],
      "stateMutability": "view",
      "type": "function"
    },
    {
      "inputs": [
        {
          "internalType": "uint256",
          "name": "marketId",
          "type": "uint256"
        }
      ],
      "name": "getMarketQuestion",
      "outputs": [
        {
          "internalType": "bytes32",
          "name": "",
          "type": "bytes32"
        }
      ],
      "stateMutability": "view",
      "type": "function"
    },
    {
      "inputs": [
        {
          "internalType": "uint256",
          "name": "marketId",
          "type": "uint256"
        }
      ],
      "name": "getMarketPrices",
      "outputs": [
        {
          "internalType": "uint256",
          "name": "",
          "type": "uint256"
        },
        {
          "internalType": "uint256",
          "name": "",
          "type": "uint256"
        },
        {
          "internalType": "uint256",
          "name": "",
          "type": "uint256"
        }
      ],
      "stateMutability": "view",
      "type": "function"
    },
    {
      "inputs": [
        {
          "internalType": "uint256",
          "name": "marketId",
          "type": "uint256"
        }
      ],
      "name": "getMarketLiquidityPrice",
      "outputs": [
        {
          "internalType": "uint256",
          "name": "",
          "type": "uint256"
        }
      ],
      "stateMutability": "view",
      "type": "function"
    },
    {
      "inputs": [
        {
          "internalType": "uint256",
          "name": "marketId",
          "type": "uint256"
        }
      ],
      "name": "getMarketResolvedOutcome",
      "outputs": [
        {
          "internalType": "int256",
          "name": "",
          "type": "int256"
        }
      ],
      "stateMutability": "view",
      "type": "function"
    },
    {
      "inputs": [
        {
          "internalType": "uint256",
          "name": "marketId",
          "type": "uint256"
        }
      ],
      "name": "getMarketOutcomeIds",
      "outputs": [
        {
          "internalType": "uint256[]",
          "name": "",
          "type": "uint256[]"
        }
      ],
      "stateMutability": "view",
      "type": "function"
    },
    {
      "inputs": [
        {
          "internalType": "uint256",
          "name": "marketId",
          "type": "uint256"
        },
        {
          "internalType": "uint256",
          "name": "marketOutcomeId",
          "type": "uint256"
        }
      ],
      "name": "getMarketOutcomePrice",
      "outputs": [
        {
          "internalType": "uint256",
          "name": "",
          "type": "uint256"
        }
      ],
      "stateMutability": "view",
      "type": "function"
    },
    {
      "inputs": [
        {
          "internalType": "uint256",
          "name": "marketId",
          "type": "uint256"
        },
        {
          "internalType": "uint256",
          "name": "marketOutcomeId",
          "type": "uint256"
        }
      ],
      "name": "getMarketOutcomeData",
      "outputs": [
        {
          "internalType": "string",
          "name": "",
          "type": "string"
        },
        {
          "internalType": "uint256",
          "name": "",
          "type": "uint256"
        },
        {
          "internalType": "uint256",
          "name": "",
          "type": "uint256"
        },
        {
          "internalType": "uint256",
          "name": "",
          "type": "uint256"
        }
      ],
      "stateMutability": "view",
      "type": "function"
    }
  ],
  "bytecode": "0x608060405234801561001057600080fd5b50613884806100206000396000f3fe6080604052600436106101e15760003560e01c806308560ace146101e6578063144fa6d7146102115780631d7920aa1461023357806328747a80146102625780632c2aa24e1461028257806331877a38146102b35780633620875e146102e05780633d41a26b146102f35780633fe45e3b1461030857806340993b261461031d578063429c9dff146103305780634397c4ce1461035057806351c6590a146103705780635e648eff14610383578063677bd9ff146103a357806369fe0e2d146103c35780636f6e9f1e146103e3578063715018a6146104035780637b34e6e0146104185780638129fc1c1461043a57806385b91d8e1461044f5780638c7adc151461046f5780638cd41552146104845780638da5cb5b146104a45780639d7de6b3146104b9578063aa22a02e146104cc578063ac68a748146104ec578063b31eb895146104ff578063bf4557211461051f578063bfacba3d1461053f578063c2ee3a0814610572578063c346a9d014610587578063c8f70d01146105a7578063ddca3f43146105c7578063ec2c9016146105dc578063ede2e06e146105f1578063efbc47dc14610611578063efce431314610624578063f2fde38b14610654578063fc0c546a14610674578063fdff808514610689578063ffce3d5e146106a9575b600080fd5b3480156101f257600080fd5b506101fb6106c9565b6040516102089190613050565b60405180910390f35b34801561021d57600080fd5b5061023161022c366004612e0a565b6106cf565b005b34801561023f57600080fd5b5061025361024e366004612ec2565b610739565b60405161020893929190613780565b34801561026e57600080fd5b506101fb61027d366004612ec2565b610758565b34801561028e57600080fd5b506102a261029d366004612eda565b6108d6565b604051610208959493929190613029565b3480156102bf57600080fd5b506102d36102ce366004612ec2565b6109a6565b6040516102089190612fe5565b6102316102ee366004612f55565b610a0f565b3480156102ff57600080fd5b506101fb610c27565b34801561031457600080fd5b506101fb610c2d565b61023161032b366004612f2a565b610c33565b34801561033c57600080fd5b506101fb61034b366004612f2a565b610dc4565b34801561035c57600080fd5b506101fb61036b366004612ec2565b610f24565b61023161037e366004612ec2565b610f39565b34801561038f57600080fd5b5061023161039e366004612ec2565b610fc4565b3480156103af57600080fd5b506102316103be366004612ec2565b611186565b3480156103cf57600080fd5b506102316103de366004612ec2565b6112da565b3480156103ef57600080fd5b506102316103fe366004612ec2565b61131e565b34801561040f57600080fd5b50610231611362565b34801561042457600080fd5b5061042d6113d9565b6040516102089190612fd1565b34801561044657600080fd5b506102316113e8565b34801561045b57600080fd5b5061025361046a366004612ec2565b611473565b34801561047b57600080fd5b506101fb6114a4565b34801561049057600080fd5b506101fb61049f366004612f09565b6114aa565b3480156104b057600080fd5b5061042d6115a4565b6102316104c7366004612f09565b6115b3565b3480156104d857600080fd5b506101fb6104e7366004612eda565b6118e2565b6102316104fa366004612ec2565b611935565b34801561050b57600080fd5b5061025361051a366004612eda565b6119fe565b34801561052b57600080fd5b506101fb61053a366004612ec2565b611a5c565b34801561054b57600080fd5b5061055f61055a366004612ec2565b611a99565b60405161020897969594939291906130c4565b34801561057e57600080fd5b506101fb611b87565b34801561059357600080fd5b506101fb6105a2366004612f2a565b611b93565b3480156105b357600080fd5b506101fb6105c2366004612ec2565b611cc3565b3480156105d357600080fd5b506101fb611d64565b3480156105e857600080fd5b506102d3611d6a565b3480156105fd57600080fd5b5061023161060c366004612ec2565b611dc2565b6101fb61061f366004612e3e565b611e06565b34801561063057600080fd5b5061064461063f366004612f09565b6120d3565b6040516102089493929190613113565b34801561066057600080fd5b5061023161066f366004612e0a565b6121b1565b34801561068057600080fd5b5061042d612260565b34801561069557600080fd5b506101fb6106a4366004612eda565b61226f565b3480156106b557600080fd5b506102316106c4366004612e0a565b6122f1565b606c5481565b6106d7612352565b6001600160a01b03166106e86115a4565b6001600160a01b0316146107175760405162461bcd60e51b815260040161070e90613542565b60405180910390fd5b606b80546001600160a01b0319166001600160a01b0392909216919091179055565b6000908152606660205260409020600b810154600a9091015490918190565b600081815260666020526040812060010154829042118015610797575060008181526066602052604081206007015460ff16600281111561079557fe5b145b156107a5576107a581612356565b8260018060008381526066602052604090206007015460ff1660028111156107c957fe5b146107d357600080fd5b600085815260666020526040808220606954600a820154925163684e62bf60e11b8152899492936001600160a01b039092169291839163d09cc57e9161081b91600401613050565b60206040518083038186803b15801561083357600080fd5b505afa158015610847573d6000803e3d6000fd5b505050506040513d601f19601f8201168201806040525061086b9190810190612e26565b60098401819055604051909150899033907f67a6457c8912ae1b7a9fbdfa311cbd016ba606b548bf06bc80bc751072d91bbc906108ab90859042906137cb565b60405180910390a36108bc896123a6565b50506009015494506108cd81612356565b50505050919050565b600082815260666020526040812081908190819081906002600782015460ff16600281111561090157fe5b14610926576000806000806109168c8c61226f565b955095509550955095505061099c565b60098101546000908152600f8201602090815260408083206001600160a01b038b16845260058082018452828520546006808401865284872054928801865284872054908801909552929094205490939115159260ff92831692901515911661098f8d8d61226f565b9650965096509650965050505b9295509295909350565b600081815260666020908152604091829020600e810180548451818502810185019095528085526060949293830182828015610a0157602002820191906000526020600020905b8154815260200190600101908083116109ed575b50505050509150505b919050565b600084815260666020526040902060010154849042118015610a4e575060008181526066602052604081206007015460ff166002811115610a4c57fe5b145b15610a5c57610a5c81612356565b8460008060008381526066602052604090206007015460ff166002811115610a8057fe5b14610a8a57600080fd5b6000878152606660209081526040808320898452600f810190925282209091610ab4888b8b611b93565b905086811115610ad65760405162461bcd60e51b815260040161070e90613700565b336000908152600583016020526040902054811115610b075760405162461bcd60e51b815260040161070e906135cc565b610b13338b8b84612449565b6000610b32606854670de0b6b3a76400006124e890919063ffffffff16565b600b850154610b48908b9063ffffffff61251016565b81610b4f57fe5b600c8601549190049150610b69908263ffffffff61254a16565b600c8501556000610b808a8363ffffffff61254a16565b905080471015610b8f57600080fd5b8085600201541015610ba057600080fd5b610baa8c8261256f565b60405133908b156108fc02908c906000818181858888f19350505050158015610bd7573d6000803e3d6000fd5b508b6001336001600160a01b031660008051602061382f8339815191528e878f42604051610c089493929190613059565b60405180910390a4610c198c6123a6565b505050505050505050505050565b60001981565b606a5481565b600083815260666020526040902060010154839042118015610c72575060008181526066602052604081206007015460ff166002811115610c7057fe5b145b15610c8057610c8081612356565b8360008060008381526066602052604090206007015460ff166002811115610ca457fe5b14610cae57600080fd5b6000868152606660205260408120903490610cca828a8a610dc4565b905086811015610cec5760405162461bcd60e51b815260040161070e90613653565b600b830154600090670de0b6b3a764000090610d0f90859063ffffffff61251016565b81610d1657fe5b600c8601549190049150610d30908263ffffffff61254a16565b600c8501556000610d47848363ffffffff6124e816565b60008b8152600f870160205260409020909150610d648c83612612565b6004810154841115610d885760405162461bcd60e51b815260040161070e9061360d565b610d94338d8d876126ab565b8b6000336001600160a01b031660008051602061382f8339815191528e888a42604051610c089493929190613059565b60008281526066602052604081206060610ddd8561273a565b90506000610e1d670de0b6b3a7640000610e0785600b01600001548a61251090919063ffffffff16565b81610e0e57fe5b8991900463ffffffff6124e816565b90506000828681518110610e2d57fe5b602002602001015190506000610e54670de0b6b3a76400008361251090919063ffffffff16565b905060005b8451811015610ebf57878114610eb7576000858281518110610e7757fe5b60200260200101519050610eb3610e97868361254a90919063ffffffff16565b610ea7858463ffffffff61251016565b9063ffffffff6127cd16565b9250505b600101610e59565b5060008111610ee05760405162461bcd60e51b815260040161070e90613142565b610f17610efb82670de0b6b3a764000063ffffffff6127cd16565b610f0b848663ffffffff61254a16565b9063ffffffff6124e816565b9998505050505050505050565b6000908152606660205260409020600a015490565b600081815260666020526040902060010154819042118015610f78575060008181526066602052604081206007015460ff166002811115610f7657fe5b145b15610f8657610f8681612356565b8160008060008381526066602052604090206007015460ff166002811115610faa57fe5b14610fb457600080fd5b610fbe84346127fd565b50505050565b8060028060008381526066602052604090206007015460ff166002811115610fe857fe5b14610ff257600080fd5b600083815260666020908152604080832060098101548452600f810190925290912061101d85611935565b33600090815260058301602052604090205461104b5760405162461bcd60e51b815260040161070e90613736565b33600090815260068301602052604090205460ff161561107d5760405162461bcd60e51b815260040161070e90613462565b60006110b5670de0b6b3a76400006110a961109889336118e2565b60048601549063ffffffff61251016565b9063ffffffff612a9e16565b905080836002015410156110db5760405162461bcd60e51b815260040161070e906132c6565b60028301546110f0908263ffffffff6124e816565b60028401553360009081526006840160205260409020805460ff1916600117905585600533600081815260058701602052604080822054905160008051602061382f8339815191529261114892909188904290613059565b60405180910390a4604051339082156108fc029083906000818181858888f1935050505015801561117d573d6000803e3d6000fd5b50505050505050565b8060028060008381526066602052604090206007015460ff1660028111156111aa57fe5b146111b457600080fd5b600083815260666020908152604080832060098101548452600f81018352818420338552600581019093529220546111fe5760405162461bcd60e51b815260040161070e906134b0565b33600090815260068201602052604090205460ff16156112305760405162461bcd60e51b815260040161070e90613577565b33600090815260058201602052604090205460028301548111156112665760405162461bcd60e51b815260040161070e906132c6565b600283015461127b908263ffffffff6124e816565b60028401553360009081526006830160205260409020805460ff19166001179055856004600985015433600081815260058701602052604090819020549051919260008051602061382f83398151915292611148929088904290613059565b6112e2612352565b6001600160a01b03166112f36115a4565b6001600160a01b0316146113195760405162461bcd60e51b815260040161070e90613542565b606855565b611326612352565b6001600160a01b03166113376115a4565b6001600160a01b03161461135d5760405162461bcd60e51b815260040161070e90613542565b606c55565b61136a612352565b6001600160a01b031661137b6115a4565b6001600160a01b0316146113a15760405162461bcd60e51b815260040161070e90613542565b6033546040516000916001600160a01b03169060008051602061380f833981519152908390a3603380546001600160a01b0319169055565b6069546001600160a01b031681565b600054610100900460ff16806114015750611401612abf565b8061140f575060005460ff16155b61142b5760405162461bcd60e51b815260040161070e90613387565b600054610100900460ff16158015611456576000805460ff1961ff0019909116610100171660011790555b61145e612ad0565b8015611470576000805461ff00191690555b50565b600080600061148184611cc3565b61148c8560006114aa565b6114978660016114aa565b9250925092509193909250565b60675481565b6000828152606660209081526040808320848452600f810190925282206002600783015460ff1660028111156114dc57fe5b141561150757600982015484146114f45760006114fe565b670de0b6b3a76400005b9250505061159e565b60048101546003820154101561152f5760405162461bcd60e51b815260040161070e90613233565b6004808201549083015410156115575760405162461bcd60e51b815260040161070e9061368a565b60048082015490830154600091611574919063ffffffff6124e816565b6004840154909150611598906110a983670de0b6b3a764000063ffffffff61251016565b93505050505b92915050565b6033546001600160a01b031690565b6000828152606660205260409020600101548290421180156115f2575060008181526066602052604081206007015460ff1660028111156115f057fe5b145b156116005761160081612356565b8260008060008381526066602052604090206007015460ff16600281111561162457fe5b1461162e57600080fd5b6000858152606660209081526040808320338452600581019092529091205485111561165957600080fd5b61166286611935565b61166e86866003612b4e565b50606061167a8761273a565b9050606081516040519080825280602002602001820160405280156116a9578160200160208202803883390190505b50905060001960005b83518110156116e85760008482815181106116c957fe5b60200260200101519050808311156116df578092505b506001016116b2565b506003840154600090611705906110a98b8563ffffffff61251016565b905060005b84518110156117df57856003015461173e8b87848151811061172857fe5b602002602001015161251090919063ffffffff16565b8161174557fe5b0484828151811061175257fe5b6020026020010181815250506117848285838151811061176e57fe5b60200260200101516124e890919063ffffffff16565b84828151811061179057fe5b60200260200101818152505060008482815181106117aa57fe5b602002602001015111156117d7576117d7338c838785815181106117ca57fe5b60200260200101516126ab565b60010161170a565b506117ea8a8261256f565b60038501546117ff908a63ffffffff6124e816565b6003860155336000908152600586016020526040902054611826908a63ffffffff6124e816565b336000818152600588016020526040808220939093559151909183156108fc02918491818181858888f19350505050158015611866573d6000803e3d6000fd5b50896003336001600160a01b031660008051602061382f83398151915260008d86426040516118989493929190613059565b60405180910390a4896000805160206137ef83398151915286600301546118be8d611cc3565b426040516118ce93929190613780565b60405180910390a250505050505050505050565b600082815260666020908152604080832060038101546001600160a01b03861685526005820190935290832054909161192d916110a990670de0b6b3a764000063ffffffff61251016565b949350505050565b60008181526066602052604081209061194e833361226f565b905080156119ba57336000908152600d83016020526040902054611978908263ffffffff61254a16565b336000818152600d85016020526040808220939093559151909183156108fc02918491818181858888f193505050501580156119b8573d6000803e3d6000fd5b505b82600633600081815260058601602052604080822054905160008051602061382f833981519152926119f192909188904290613059565b60405180910390a4505050565b60008281526066602090815260408083206001600160a01b0385168085526005808301855283862054868052600f90930180865284872083885282018652848720546001885290865284872092875291019093529220549250925092565b60008181526066602052604081206002600782015460ff166002811115611a7f57fe5b14611a8f57600019915050610a0a565b6009015492915050565b6000818152606660205260408120600781015460018201546003830154600284015460048501546060969586958695869586958695859460ff1693929190611ae08f611a5c565b8654604080516020601f60026000196101006001881615020190951694909404938401819004810282018101909252828152918991830182828015611b665780601f10611b3b57610100808354040283529160200191611b66565b820191906000526020600020905b815481529060010190602001808311611b4957829003601f168201915b50505050509650975097509750975097509750975050919395979092949650565b670de0b6b3a764000081565b60008281526066602052604081206060611bac8561273a565b600b830154909150600090611bd090670de0b6b3a76400009063ffffffff6124e816565b611be888670de0b6b3a764000063ffffffff61251016565b81611bef57fe5b0490506000828681518110611c0057fe5b602002602001015190506000611c27670de0b6b3a76400008361251090919063ffffffff16565b905060005b8451811015611c7657878114611c6e576000858281518110611c4a57fe5b60200260200101519050611c6a610e9786836124e890919063ffffffff16565b9250505b600101611c2c565b5060008111611c975760405162461bcd60e51b815260040161070e90613142565b610f1782610f0b611cb684670de0b6b3a764000063ffffffff6127cd16565b869063ffffffff61254a16565b60008181526066602052604081206002600782015460ff166002811115611ce657fe5b1415611d2f57600381015460098201546000908152600f83016020526040902060040154611d2791906110a990670de0b6b3a764000063ffffffff61251016565b915050610a0a565b6004810154600e8201546003830154611d5d92916110a99190670de0b6b3a76400000263ffffffff61251016565b9392505050565b60685481565b60606065805480602002602001604051908101604052809291908181526020018280548015611db857602002820191906000526020600020905b815481526020019060010190808311611da4575b5050505050905090565b611dca612352565b6001600160a01b0316611ddb6115a4565b6001600160a01b031614611e015760405162461bcd60e51b815260040161070e90613542565b606a55565b606c54606b546040516370a0823160e01b8152600092916001600160a01b0316906370a0823190611e3b903390600401612fd1565b60206040518083038186803b158015611e5357600080fd5b505afa158015611e67573d6000803e3d6000fd5b505050506040513d601f19601f82011682018060405250611e8b9190810190612e26565b1015611ea95760405162461bcd60e51b815260040161070e9061333d565b60675460658054600181019091557f8ff97419363ffd7000167f130ef7168fbea05faf9251824ca5043f113cc6a7c701819055600081815260666020526040902034611f075760405162461bcd60e51b815260040161070e9061341f565b42861015611f275760405162461bcd60e51b815260040161070e906133d5565b83600214611f475760405162461bcd60e51b815260040161070e90613177565b6001810186905560078101805460ff191690556008810180546001600160a01b0319166001600160a01b038716179055606854600b820155600019600982015560005b84811015611fcc57600e820180546001818101835560009283526020808420909201849055838352600f85019091526040909120848155810182905501611f8a565b50606954606a5460405163d4876b9f60e01b81526001600160a01b0390921691829163d4876b9f9161200e916002918e918c918e906000908190600401613074565b602060405180830381600087803b15801561202857600080fd5b505af115801561203c573d6000803e3d6000fd5b505050506040513d601f19601f820116820180604052506120609190810190612e26565b600a83015561206f83346127fd565b612078836123a6565b82336001600160a01b03167f928446b14f4c661d8499681f1d2eb118eb6e89066877a7d43e0672a27cc63a32878c8c6040516120b693929190613796565b60405180910390a350506067805460010190559695505050505050565b6000828152606660209081526040808320848452600f810190925282206060929182918291906002810161210789896114aa565b600483015460038401548354604080516020601f600260001961010060018816150201909516949094049384018190048102820181019092528281529186918301828280156121975780601f1061216c57610100808354040283529160200191612197565b820191906000526020600020905b81548152906001019060200180831161217a57829003601f168201915b505050505093509550955095509550505092959194509250565b6121b9612352565b6001600160a01b03166121ca6115a4565b6001600160a01b0316146121f05760405162461bcd60e51b815260040161070e90613542565b6001600160a01b0381166122165760405162461bcd60e51b815260040161070e906131b8565b6033546040516001600160a01b0380841692169060008051602061380f83398151915290600090a3603380546001600160a01b0319166001600160a01b0392909216919091179055565b606b546001600160a01b031681565b600082815260666020908152604080832060038101546001600160a01b03861685526005820190935290832054600c820154919284926122b9926110a9919063ffffffff61251016565b6001600160a01b0385166000908152600d840160205260409020549091506122e890829063ffffffff6124e816565b95945050505050565b6122f9612352565b6001600160a01b031661230a6115a4565b6001600160a01b0316146123305760405162461bcd60e51b815260040161070e90613542565b606980546001600160a01b0319166001600160a01b0392909216919091179055565b3390565b6000818152606660205260409020600781015460ff16600281111561237757fe5b600101600281111561238557fe5b60078201805460ff1916600183600281111561239d57fe5b02179055505050565b6000818152606660205260408120905b600e82015481101561240e5780837f8270f0a0534b13b7f92d1dbd58aa75c5207b40c55fefa7a17110c6136ad7270b6123ef86856114aa565b426040516123fe9291906137cb565b60405180910390a36001016123b6565b50816000805160206137ef833981519152826003015461242d85611cc3565b4260405161243d93929190613780565b60405180910390a25050565b6000838152606660209081526040808320858452600f810183528184206001600160a01b03891685526005810190935292205461248c908463ffffffff6124e816565b6001600160a01b038716600090815260058301602052604090205560048101546124bc908463ffffffff61254a16565b6004808301919091558201546124d8908463ffffffff61254a16565b8260040181905550505050505050565b60008282111561250a5760405162461bcd60e51b815260040161070e9061328f565b50900390565b60008261251f5750600061159e565b8282028284828161252c57fe5b0414611d5d5760405162461bcd60e51b815260040161070e90613501565b600082820183811015611d5d5760405162461bcd60e51b815260040161070e906131fe565b6000828152606660205260408120905b600e8201548110156125f2576000818152600f83016020526040902060048101546125b0908563ffffffff6124e816565b600482015560038101546125ca908563ffffffff6124e816565b600382015560048301546125e4908563ffffffff6124e816565b60048401555060010161257f565b506002810154612608908363ffffffff6124e816565b6002909101555050565b6000828152606660205260408120905b600e820154811015612695576000818152600f8301602052604090206004810154612653908563ffffffff61254a16565b6004820155600381015461266d908563ffffffff61254a16565b60038201556004830154612687908563ffffffff61254a16565b600484015550600101612622565b506002810154612608908363ffffffff61254a16565b6000838152606660209081526040808320858452600f810183528184206001600160a01b0389168552600581019093529220546126ee908463ffffffff61254a16565b6001600160a01b0387166000908152600583016020526040902055600481015461271e908463ffffffff6124e816565b6004808301919091558201546124d8908463ffffffff6124e816565b600081815260666020908152604091829020600e8101548351818152818402810190930190935260609290918391801561277e578160200160208202803883390190505b50905060005b600e8301548110156127c5576000818152600f8401602052604090206004015482518390839081106127b257fe5b6020908102919091010152600101612784565b509392505050565b600082156127ec578160018403816127e157fe5b04600101905061159e565b8183816127f557fe5b049392505050565b60008281526066602052604090206001015482904211801561283c575060008181526066602052604081206007015460ff16600281111561283a57fe5b145b1561284a5761284a81612356565b8260008060008381526066602052604090206007015460ff16600281111561286e57fe5b1461287857600080fd5b6000858152606660205260409020846128a35760405162461bcd60e51b815260040161070e9061341f565b600060606128b08861273a565b9050606081516040519080825280602002602001820160405280156128df578160200160208202803883390190505b506003850154909150600090156129ce5760005b835181101561292957600084828151811061290a57fe5b6020026020010151905080831015612920578092505b506001016128f3565b5060005b83518110156129995760008261295f86848151811061294857fe5b60200260200101518d61251090919063ffffffff16565b8161296657fe5b0490506129798b8263ffffffff6124e816565b84838151811061298557fe5b60209081029190910101525060010161292d565b50806129b286600301548b61251090919063ffffffff16565b816129b957fe5b0493506129c88a856002612b4e565b506129d2565b8893505b60038501546129e7908563ffffffff61254a16565b6003860155336000908152600586016020526040902054612a0e908563ffffffff61254a16565b336000908152600587016020526040902055612a2a8a8a612612565b60005b8251811015612a6c576000838281518110612a4457fe5b60200260200101511115612a6457612a64338c838685815181106117ca57fe5b600101612a2d565b50896002336001600160a01b031660008051602061382f8339815191526000888e426040516118989493929190613059565b60008082116127ec5760405162461bcd60e51b815260040161070e90613309565b6000612aca30612c3e565b15905090565b600054610100900460ff1680612ae95750612ae9612abf565b80612af7575060005460ff16155b612b135760405162461bcd60e51b815260040161070e90613387565b600054610100900460ff16158015612b3e576000805460ff1961ff0019909116610100171660011790555b612b46612c44565b61145e612cc5565b60008381526066602052604081206003810154600c8201548391612b7d916110a990889063ffffffff61251016565b90506002846006811115612b8d57fe5b1415612be657600c820154612ba8908263ffffffff61254a16565b600c830155336000908152600d83016020526040902054612bcf908263ffffffff61254a16565b336000908152600d84016020526040902055612c35565b600c820154612bfb908263ffffffff6124e816565b600c830155336000908152600d83016020526040902054612c22908263ffffffff6124e816565b336000908152600d840160205260409020555b50509392505050565b3b151590565b600054610100900460ff1680612c5d5750612c5d612abf565b80612c6b575060005460ff16155b612c875760405162461bcd60e51b815260040161070e90613387565b600054610100900460ff1615801561145e576000805460ff1961ff0019909116610100171660011790558015611470576000805461ff001916905550565b600054610100900460ff1680612cde5750612cde612abf565b80612cec575060005460ff16155b612d085760405162461bcd60e51b815260040161070e90613387565b600054610100900460ff16158015612d33576000805460ff1961ff0019909116610100171660011790555b6000612d3d612352565b603380546001600160a01b0319166001600160a01b0383169081179091556040519192509060009060008051602061380f833981519152908290a3508015611470576000805461ff001916905550565b600082601f830112612d9d578081fd5b81356001600160401b0380821115612db3578283fd5b604051601f8301601f191681016020018281118282101715612dd3578485fd5b604052828152925082848301602001861015612dee57600080fd5b8260208601602083013760006020848301015250505092915050565b600060208284031215612e1b578081fd5b8135611d5d816137d9565b600060208284031215612e37578081fd5b5051919050565b600080600080600060a08688031215612e55578081fd5b85356001600160401b0380821115612e6b578283fd5b612e7789838a01612d8d565b96506020880135915080821115612e8c578283fd5b50612e9988828901612d8d565b945050604086013592506060860135612eb1816137d9565b949793965091946080013592915050565b600060208284031215612ed3578081fd5b5035919050565b60008060408385031215612eec578182fd5b823591506020830135612efe816137d9565b809150509250929050565b60008060408385031215612f1b578182fd5b50508035926020909101359150565b600080600060608486031215612f3e578283fd5b505081359360208301359350604090920135919050565b60008060008060808587031215612f6a578384fd5b5050823594602084013594506040840135936060013592509050565b60008151808452815b81811015612fab57602081850181015186830182015201612f8f565b81811115612fbc5782602083870101525b50601f01601f19169290920160200192915050565b6001600160a01b0391909116815260200190565b6020808252825182820181905260009190848201906040850190845b8181101561301d57835183529284019291840191600101613001565b50909695505050505050565b94151585529215156020850152901515604084015215156060830152608082015260a00190565b90815260200190565b93845260208401929092526040830152606082015260800190565b600088825260e0602083015261308d60e0830189612f86565b6001600160a01b039790971660408301525063ffffffff948516606082015292909316608083015260a082015260c0015292915050565b600060e082526130d760e083018a612f86565b9050600388106130e357fe5b8760208301528660408301528560608301528460808301528360a08301528260c083015298975050505050505050565b6000608082526131266080830187612f86565b6020830195909552506040810192909252606090910152919050565b6020808252601b908201527a6d7573742068617665206e6f6e2d7a65726f2062616c616e63657360281b604082015260600190565b60208082526021908201527f4e756d626572206d61726b6574206f7574636f6d652068617320746f206265206040820152601960f91b606082015260800190565b60208082526026908201527f4f776e61626c653a206e6577206f776e657220697320746865207a65726f206160408201526564647265737360d01b606082015260800190565b6020808252601b908201527a536166654d6174683a206164646974696f6e206f766572666c6f7760281b604082015260600190565b6020808252603c908201527f546f74616c207368617265732068617320746f20626520657175616c206f722060408201527b686967686572207468616e20617661696c61626c652073686172657360201b606082015260800190565b6020808252601e908201527f536166654d6174683a207375627472616374696f6e206f766572666c6f770000604082015260600190565b60208082526023908201527f4d61726b657420646f6573206e6f74206861766520656e6f7567682062616c616040820152626e636560e81b606082015260800190565b6020808252601a9082015279536166654d6174683a206469766973696f6e206279207a65726f60301b604082015260600190565b6020808252602a908201527f6d73672e73656e646572206d75737420686f6c64206d696e696d756d2065726360408201526932302062616c616e636560b01b606082015260800190565b6020808252602e908201527f496e697469616c697a61626c653a20636f6e747261637420697320616c72656160408201526d191e481a5b9a5d1a585b1a5e995960921b606082015260800190565b6020808252602a908201527f4d61726b65742068617320746f20636c6f7365206166746572207468652063756040820152697272656e74206461746560b01b606082015260800190565b60208082526023908201527f546865207374616b652068617320746f2062652067726561746572207468616e60408201526210181760e91b606082015260800190565b6020808252602e908201527f5061727469636970616e7420616c726561647920636c61696d6564206c69717560408201526d69646974792077696e6e696e677360901b606082015260800190565b60208082526031908201527f5061727469636970616e7420646f6573206e6f7420686f6c64207265736f6c766040820152706564206f7574636f6d652073686172657360781b606082015260800190565b60208082526021908201527f536166654d6174683a206d756c7469706c69636174696f6e206f766572666c6f6040820152607760f81b606082015260800190565b6020808252818101527f4f776e61626c653a2063616c6c6572206973206e6f7420746865206f776e6572604082015260600190565b60208082526035908201527f5061727469636970616e7420616c726561647920636c61696d6564207265736f6040820152746c766564206f7574636f6d652077696e6e696e677360581b606082015260800190565b60208082526021908201527f7573657220646f6573206e6f74206861766520656e6f7567682062616c616e636040820152606560f81b606082015260800190565b60208082526026908201527f6f7574636f6d652073686172657320706f6f6c2062616c616e636520697320746040820152656f6f206c6f7760d01b606082015260800190565b6020808252601e908201527f6d696e696d756d2062757920616d6f756e74206e6f7420726561636865640000604082015260600190565b60208082526050908201527f546f74616c202320617661696c61626c65207368617265732068617320746f2060408201527f626520657175616c206f7220686967686572207468616e206f7574636f6d652060608201526f617661696c61626c652073686172657360801b608082015260a00190565b6020808252601c908201527b1b585e1a5b5d5b481cd95b1b08185b5bdd5b9d08195e18d95959195960221b604082015260600190565b6020808252602a908201527f5061727469636970616e7420646f6573206e6f7420686f6c64206c69717569646040820152696974792073686172657360b01b606082015260800190565b9283526020830191909152604082015260600190565b6000848252606060208301526137af6060830185612f86565b82810360408401526137c18185612f86565b9695505050505050565b918252602082015260400190565b6001600160a01b038116811461147057600080fdfe1eca98f266e5348ae38d5d057a4d8e451e76672f69ac6ba4b0e3b31ea9c7eb2b8be0079c531659141344cd1fd0a4f28419497f9722a3daafe3b4186f6b6457e0f234ce8a0f255434ef7d62a699a746ee45ac4452531081e609f1556d27faf12ca26469706673582212206f4a71dd827e266e9c5a1d2656adde241b5ebca171270ad5e340c0e53d1c20aa64736f6c63430006020033",
  "source": "pragma solidity ^0.6.0;\npragma experimental ABIEncoderV2;\n\nimport \"./RealitioERC20.sol\";\n\n// openzeppelin imports\nimport \"@openzeppelin/contracts/math/SafeMath.sol\";\nimport \"@openzeppelin/contracts-upgradeable/access/OwnableUpgradeable.sol\";\n\nlibrary CeilDiv {\n  // calculates ceil(x/y)\n  function ceildiv(uint256 x, uint256 y) internal pure returns (uint256) {\n    if (x > 0) return ((x - 1) / y) + 1;\n    return x / y;\n  }\n}\n\n/// @title Market Contract Factory\ncontract PredictionMarket is Initializable, OwnableUpgradeable {\n  using SafeMath for uint256;\n  using CeilDiv for uint256;\n\n  // ------ Events ------\n\n  event MarketCreated(\n    address indexed participant,\n    uint256 indexed marketId,\n    uint256 outcomes,\n    string question,\n    string image\n  );\n\n  event ParticipantAction(\n    address indexed participant,\n    MarketAction indexed action,\n    uint256 indexed marketId,\n    uint256 outcomeId,\n    uint256 shares,\n    uint256 value,\n    uint256 timestamp\n  );\n\n  event MarketOutcomePrice(uint256 indexed marketId, uint256 indexed outcomeId, uint256 value, uint256 timestamp);\n\n  event MarketLiquidity(\n    uint256 indexed marketId,\n    uint256 value, // total liquidity\n    uint256 price, // value of one liquidity share; max: 1 (50-50 situation)\n    uint256 timestamp\n  );\n\n  event MarketResolved(address indexed oracle, uint256 indexed marketId, uint256 outcomeId, uint256 timestamp);\n\n  // ------ Events End ------\n\n  uint256 public constant MAX_UINT_256 = 115792089237316195423570985008687907853269984665640564039457584007913129639935;\n\n  uint256 public constant ONE = 10**18;\n\n  enum MarketState {\n    open,\n    closed,\n    resolved\n  }\n  enum MarketAction {\n    buy,\n    sell,\n    addLiquidity,\n    removeLiquidity,\n    claimWinnings,\n    claimLiquidity,\n    claimFees\n  }\n\n  struct Market {\n    // market details\n    string name; // TODO remove: deprecated;\n    uint256 closedDateTime;\n    uint256 balance; // total stake\n    uint256 liquidity; // stake held\n    uint256 sharesAvailable; // shares held (all outcomes)\n    mapping(address => uint256) liquidityShares;\n    mapping(address => bool) liquidityClaims; // wether participant has claimed liquidity winnings\n    MarketState state; // resolution variables\n    MarketResolution resolution; // fees\n    MarketFees fees;\n    // market outcomes\n    uint256[] outcomeIds;\n    mapping(uint256 => MarketOutcome) outcomes;\n  }\n\n  struct MarketFees {\n    uint256 value; // fee % taken from every transaction\n    uint256 poolWeight; // internal var used to ensure pro-rate fee distribution\n    mapping(address => uint256) claimed;\n  }\n\n  struct MarketResolution {\n    address oracle; // TODO remove: deprecated;\n    bool resolved;\n    uint256 outcomeId;\n    bytes32 questionId; // realitio questionId\n  }\n\n  struct MarketOutcome {\n    uint256 marketId;\n    uint256 id;\n    string name; // TODO remove: deprecated;\n    Shares shares;\n  }\n\n  struct Shares {\n    uint256 total; // number of shares\n    uint256 available; // available shares\n    mapping(address => uint256) holders;\n    mapping(address => bool) claims; // wether participant has claimed winnings\n  }\n\n  uint256[] marketIds;\n  mapping(uint256 => Market) markets;\n  uint256 public marketIndex;\n\n  // governance\n  uint256 public fee; // fee % taken from every transaction, can be updated by contract owner\n  // realitio configs\n  address public realitioAddress;\n  uint256 public realitioTimeout;\n  // market creation\n  IERC20 public token; // token used for rewards / market creation\n  uint256 public requiredBalance; // required balance for market creation\n\n  // ------ Modifiers ------\n\n  modifier isMarket(uint256 marketId) {\n    require(marketId < marketIndex);\n    _;\n  }\n\n  modifier timeTransitions(uint256 marketId) {\n    if (now > markets[marketId].closedDateTime && markets[marketId].state == MarketState.open) {\n      nextState(marketId);\n    }\n    _;\n  }\n\n  modifier atState(uint256 marketId, MarketState state) {\n    require(markets[marketId].state == state);\n    _;\n  }\n\n  modifier notAtState(uint256 marketId, MarketState state) {\n    require(markets[marketId].state != state);\n    _;\n  }\n\n  modifier transitionNext(uint256 marketId) {\n    _;\n    nextState(marketId);\n  }\n\n  modifier mustHoldRequiredBalance() {\n    require(token.balanceOf(msg.sender) >= requiredBalance, \"msg.sender must hold minimum erc20 balance\");\n    _;\n  }\n\n  // ------ Modifiers End ------\n\n  // Initializer function (replaces constructor)\n  function initialize() public initializer {\n    __Ownable_init();\n  }\n\n  // ------ Core Functions ------\n\n  /// Create a new Market contract\n  /// @dev The new Market contract is then saved in the array of this contract for future reference.\n  /// @param question - Market details: https://reality.eth.link/app/docs/html/contracts.html#how-questions-are-structured\n  /// @param image - image ipfs hash\n  /// @param closesAt - Timestamp of market expiration\n  /// @param oracle - Artbitrator address\n  /// @param outcomes - Number of outcomes\n  function createMarket(\n    string memory question,\n    string memory image,\n    uint256 closesAt,\n    address oracle,\n    uint256 outcomes\n  ) public payable mustHoldRequiredBalance() returns (uint256) {\n    uint256 marketId = marketIndex;\n    marketIds.push(marketId);\n\n    Market storage market = markets[marketId];\n\n    require(msg.value > 0, \"The stake has to be greater than 0.\");\n    require(closesAt >= now, \"Market has to close after the current date\");\n    require(oracle == address(oracle), \"Invalid oracle address\");\n    // starting with secondary markets\n    require(outcomes == 2, \"Number market outcome has to be 2\");\n\n    market.closedDateTime = closesAt;\n    market.state = MarketState.open;\n    market.resolution.oracle = oracle;\n    market.fees.value = fee;\n    // setting intial value to an integer that does not map to any outcomeId\n    market.resolution.outcomeId = MAX_UINT_256;\n\n    // creating market outcomes\n    for (uint256 i = 0; i < outcomes; i++) {\n      market.outcomeIds.push(i);\n      MarketOutcome storage outcome = market.outcomes[i];\n\n      outcome.marketId = marketId;\n      outcome.id = i;\n    }\n\n    // creating question in realitio\n    RealitioERC20 realitio = RealitioERC20(realitioAddress);\n\n    market.resolution.questionId = realitio.askQuestionERC20(\n      2,\n      question,\n      oracle,\n      uint32(realitioTimeout),\n      uint32(closesAt),\n      0,\n      0\n    );\n\n    // TODO: allow unbalanced (!50-50) start\n    addLiquidity(marketId, msg.value);\n\n    // emiting initial price events\n    emitMarketOutcomePriceEvents(marketId);\n    emit MarketCreated(msg.sender, marketId, outcomes, question, image);\n\n    // incrementing market array index\n    marketIndex = marketIndex + 1;\n\n    return marketId;\n  }\n\n  function calcBuyAmount(\n    uint256 amount,\n    uint256 marketId,\n    uint256 outcomeId\n  ) public view returns (uint256) {\n    Market storage market = markets[marketId];\n\n    uint256[] memory outcomesShares = getMarketOutcomesShares(marketId);\n    uint256 amountMinusFees = amount.sub(amount.mul(market.fees.value) / ONE);\n    uint256 buyTokenPoolBalance = outcomesShares[outcomeId];\n    uint256 endingOutcomeBalance = buyTokenPoolBalance.mul(ONE);\n    for (uint256 i = 0; i < outcomesShares.length; i++) {\n      if (i != outcomeId) {\n        uint256 outcomeShares = outcomesShares[i];\n        endingOutcomeBalance = endingOutcomeBalance.mul(outcomeShares).ceildiv(outcomeShares.add(amountMinusFees));\n      }\n    }\n    require(endingOutcomeBalance > 0, \"must have non-zero balances\");\n\n    return buyTokenPoolBalance.add(amountMinusFees).sub(endingOutcomeBalance.ceildiv(ONE));\n  }\n\n  function calcSellAmount(\n    uint256 amount,\n    uint256 marketId,\n    uint256 outcomeId\n  ) public view returns (uint256 outcomeTokenSellAmount) {\n    Market storage market = markets[marketId];\n\n    uint256[] memory outcomesShares = getMarketOutcomesShares(marketId);\n    uint256 amountPlusFees = amount.mul(ONE) / ONE.sub(market.fees.value);\n    uint256 sellTokenPoolBalance = outcomesShares[outcomeId];\n    uint256 endingOutcomeBalance = sellTokenPoolBalance.mul(ONE);\n    for (uint256 i = 0; i < outcomesShares.length; i++) {\n      if (i != outcomeId) {\n        uint256 outcomeShares = outcomesShares[i];\n        endingOutcomeBalance = endingOutcomeBalance.mul(outcomeShares).ceildiv(outcomeShares.sub(amountPlusFees));\n      }\n    }\n    require(endingOutcomeBalance > 0, \"must have non-zero balances\");\n\n    return amountPlusFees.add(endingOutcomeBalance.ceildiv(ONE)).sub(sellTokenPoolBalance);\n  }\n\n  /// Buy shares of a market outcome\n  function buy(uint256 marketId, uint256 outcomeId, uint256 minOutcomeSharesToBuy)\n    external\n    payable\n    timeTransitions(marketId)\n    atState(marketId, MarketState.open)\n  {\n    Market storage market = markets[marketId];\n\n    uint256 value = msg.value;\n    uint256 shares = calcBuyAmount(value, marketId, outcomeId);\n    require(shares >= minOutcomeSharesToBuy, \"minimum buy amount not reached\");\n\n    // subtracting fee from transaction value\n    uint256 feeAmount = value.mul(market.fees.value) / ONE;\n    market.fees.poolWeight = market.fees.poolWeight.add(feeAmount);\n    uint256 valueMinusFees = value.sub(feeAmount);\n\n    MarketOutcome storage outcome = market.outcomes[outcomeId];\n\n    // Funding market shares with received funds\n    addSharesToMarket(marketId, valueMinusFees);\n\n    require(outcome.shares.available >= shares, \"outcome shares pool balance is too low\");\n\n    transferOutcomeSharesfromPool(msg.sender, marketId, outcomeId, shares);\n\n    emit ParticipantAction(msg.sender, MarketAction.buy, marketId, outcomeId, shares, value, now);\n    emitMarketOutcomePriceEvents(marketId);\n  }\n\n  /// Sell shares of a market outcome\n  function sell(\n    uint256 marketId,\n    uint256 outcomeId,\n    uint256 value,\n    uint256 maxOutcomeSharesToSell\n  ) external payable timeTransitions(marketId) atState(marketId, MarketState.open) {\n    Market storage market = markets[marketId];\n    MarketOutcome storage outcome = market.outcomes[outcomeId];\n\n    uint256 shares = calcSellAmount(value, marketId, outcomeId);\n\n    require(shares <= maxOutcomeSharesToSell, \"maximum sell amount exceeded\");\n    require(outcome.shares.holders[msg.sender] >= shares, \"user does not have enough balance\");\n\n    transferOutcomeSharesToPool(msg.sender, marketId, outcomeId, shares);\n\n    // adding fee to transaction value\n    uint256 feeAmount = value.mul(market.fees.value) / (ONE.sub(fee));\n    market.fees.poolWeight = market.fees.poolWeight.add(feeAmount);\n    uint256 valuePlusFees = value.add(feeAmount);\n\n    // Invariant check: make sure the contract has enough balance to be withdrawn from.\n    require(address(this).balance >= valuePlusFees);\n    require(market.balance >= valuePlusFees);\n\n    // Rebalancing market shares\n    removeSharesFromMarket(marketId, valuePlusFees);\n\n    // Transferring funds to user\n    msg.sender.transfer(value);\n\n    emit ParticipantAction(msg.sender, MarketAction.sell, marketId, outcomeId, shares, value, now);\n    emitMarketOutcomePriceEvents(marketId);\n  }\n\n  function addLiquidity(uint256 marketId)\n    external\n    payable\n    timeTransitions(marketId)\n    atState(marketId, MarketState.open)\n  {\n    addLiquidity(marketId, msg.value);\n  }\n\n  function addLiquidity(uint256 marketId, uint256 value)\n    private\n    timeTransitions(marketId)\n    atState(marketId, MarketState.open)\n  {\n    Market storage market = markets[marketId];\n\n    require(value > 0, \"The stake has to be greater than 0.\");\n\n    uint256 liquidityAmount;\n\n    uint256[] memory outcomesShares = getMarketOutcomesShares(marketId);\n    uint256[] memory sendBackAmounts = new uint256[](outcomesShares.length);\n    uint256 poolWeight = 0;\n\n    if (market.liquidity > 0) {\n      // part of the liquidity is exchanged for outcome shares if market is not balanced\n      for (uint256 i = 0; i < outcomesShares.length; i++) {\n        uint256 outcomeShares = outcomesShares[i];\n        if (poolWeight < outcomeShares) poolWeight = outcomeShares;\n      }\n\n      for (uint256 i = 0; i < outcomesShares.length; i++) {\n        uint256 remaining = value.mul(outcomesShares[i]) / poolWeight;\n        sendBackAmounts[i] = value.sub(remaining);\n      }\n\n      liquidityAmount = value.mul(market.liquidity) / poolWeight;\n\n      // re-balancing fees pool\n      rebalanceFeesPool(marketId, liquidityAmount, MarketAction.addLiquidity);\n    } else {\n      // funding market with no liquidity\n      liquidityAmount = value;\n\n      // TODO: allow unbalanced (!50-50) start\n    }\n\n    // funding market\n    market.liquidity = market.liquidity.add(liquidityAmount);\n    market.liquidityShares[msg.sender] = market.liquidityShares[msg.sender].add(liquidityAmount);\n\n    addSharesToMarket(marketId, value);\n\n    // transform sendBackAmounts to array of amounts added\n    for (uint256 i = 0; i < sendBackAmounts.length; i++) {\n      if (sendBackAmounts[i] > 0) {\n        transferOutcomeSharesfromPool(msg.sender, marketId, i, sendBackAmounts[i]);\n        // TODO: buy event\n      }\n    }\n\n    emit ParticipantAction(msg.sender, MarketAction.addLiquidity, marketId, 0, liquidityAmount, value, now);\n    emit MarketLiquidity(marketId, market.liquidity, getMarketLiquidityPrice(marketId), now);\n  }\n\n  function removeLiquidity(uint256 marketId, uint256 shares)\n    external\n    payable\n    timeTransitions(marketId)\n    atState(marketId, MarketState.open)\n  {\n    Market storage market = markets[marketId];\n\n    // Invariant check: make sure the stake is <= than user's stake\n    require(market.liquidityShares[msg.sender] >= shares);\n    // claiming any pending fees\n    claimFees(marketId);\n\n    // re-balancing fees pool\n    rebalanceFeesPool(marketId, shares, MarketAction.removeLiquidity);\n\n    uint256[] memory outcomesShares = getMarketOutcomesShares(marketId);\n    uint256[] memory sendAmounts = new uint256[](outcomesShares.length);\n    uint256 poolWeight = MAX_UINT_256;\n\n    // part of the liquidity is exchanged for outcome shares if market is not balanced\n    for (uint256 i = 0; i < outcomesShares.length; i++) {\n      uint256 outcomeShares = outcomesShares[i];\n      if (poolWeight > outcomeShares) poolWeight = outcomeShares;\n    }\n\n    uint256 liquidityAmount = shares.mul(poolWeight).div(market.liquidity);\n\n    for (uint256 i = 0; i < outcomesShares.length; i++) {\n      sendAmounts[i] = outcomesShares[i].mul(shares) / market.liquidity;\n      sendAmounts[i] = sendAmounts[i].sub(liquidityAmount);\n\n      if (sendAmounts[i] > 0) {\n        transferOutcomeSharesfromPool(msg.sender, marketId, i, sendAmounts[i]);\n        // TODO: buy event\n      }\n    }\n\n    // removing liquidity from market\n    removeSharesFromMarket(marketId, liquidityAmount);\n    market.liquidity = market.liquidity.sub(shares);\n    // removing liquidity tokens from market creator\n    market.liquidityShares[msg.sender] = market.liquidityShares[msg.sender].sub(shares);\n\n    // transferring user funds from liquidity removed\n    msg.sender.transfer(liquidityAmount);\n\n    emit ParticipantAction(msg.sender, MarketAction.removeLiquidity, marketId, 0, shares, liquidityAmount, now);\n    emit MarketLiquidity(marketId, market.liquidity, getMarketLiquidityPrice(marketId), now);\n  }\n\n  /// Determine the result of the market\n  /// @dev Only allowed by oracle\n  /// @return Id of the outcome\n  function resolveMarketOutcome(uint256 marketId)\n    public\n    timeTransitions(marketId)\n    atState(marketId, MarketState.closed)\n    transitionNext(marketId)\n    returns (uint256)\n  {\n    Market storage market = markets[marketId];\n\n    RealitioERC20 realitio = RealitioERC20(realitioAddress);\n    // will throw an error if question is not finalized\n    uint256 outcomeId = uint256(realitio.resultFor(market.resolution.questionId));\n\n    market.resolution.outcomeId = outcomeId;\n\n    emit MarketResolved(msg.sender, marketId, outcomeId, now);\n    emitMarketOutcomePriceEvents(marketId);\n\n    return market.resolution.outcomeId;\n  }\n\n  /// Allowing holders of resolved outcome shares to claim earnings.\n  function claimWinnings(uint256 marketId) public atState(marketId, MarketState.resolved) {\n    Market storage market = markets[marketId];\n    MarketOutcome storage resolvedOutcome = market.outcomes[market.resolution.outcomeId];\n\n    require(resolvedOutcome.shares.holders[msg.sender] > 0, \"Participant does not hold resolved outcome shares\");\n    require(\n      resolvedOutcome.shares.claims[msg.sender] == false,\n      \"Participant already claimed resolved outcome winnings\"\n    );\n\n    // 1 share => price = 1\n    uint256 value = resolvedOutcome.shares.holders[msg.sender];\n\n    // assuring market has enough funds\n    require(market.balance >= value, \"Market does not have enough balance\");\n\n    market.balance = market.balance.sub(value);\n    resolvedOutcome.shares.claims[msg.sender] = true;\n\n    emit ParticipantAction(\n      msg.sender,\n      MarketAction.claimWinnings,\n      marketId,\n      market.resolution.outcomeId,\n      resolvedOutcome.shares.holders[msg.sender],\n      value,\n      now\n    );\n\n    msg.sender.transfer(value);\n  }\n\n  /// Allowing liquidity providers to claim earnings from liquidity providing.\n  function claimLiquidity(uint256 marketId) public atState(marketId, MarketState.resolved) {\n    Market storage market = markets[marketId];\n    MarketOutcome storage resolvedOutcome = market.outcomes[market.resolution.outcomeId];\n\n    // claiming any pending fees\n    claimFees(marketId);\n\n    require(market.liquidityShares[msg.sender] > 0, \"Participant does not hold liquidity shares\");\n    require(market.liquidityClaims[msg.sender] == false, \"Participant already claimed liquidity winnings\");\n\n    // value = total resolved outcome pool shares * pool share (%)\n    uint256 value = resolvedOutcome.shares.available.mul(getUserLiquidityPoolShare(marketId, msg.sender)).div(ONE);\n\n    // assuring market has enough funds\n    require(market.balance >= value, \"Market does not have enough balance\");\n\n    market.balance = market.balance.sub(value);\n    market.liquidityClaims[msg.sender] = true;\n\n    emit ParticipantAction(\n      msg.sender,\n      MarketAction.claimLiquidity,\n      marketId,\n      0,\n      market.liquidityShares[msg.sender],\n      value,\n      now\n    );\n\n    msg.sender.transfer(value);\n  }\n\n  function claimFees(uint256 marketId) public payable {\n    Market storage market = markets[marketId];\n\n    uint256 claimableFees = getUserClaimableFees(marketId, msg.sender);\n\n    if (claimableFees > 0) {\n      market.fees.claimed[msg.sender] = market.fees.claimed[msg.sender].add(claimableFees);\n      msg.sender.transfer(claimableFees);\n    }\n\n    emit ParticipantAction(\n      msg.sender,\n      MarketAction.claimFees,\n      marketId,\n      0,\n      market.liquidityShares[msg.sender],\n      claimableFees,\n      now\n    );\n  }\n\n  function rebalanceFeesPool(\n    uint256 marketId,\n    uint256 liquidityShares,\n    MarketAction action\n  ) private returns (uint256) {\n    Market storage market = markets[marketId];\n\n    uint256 poolWeight = liquidityShares.mul(market.fees.poolWeight).div(market.liquidity);\n\n    if (action == MarketAction.addLiquidity) {\n      market.fees.poolWeight = market.fees.poolWeight.add(poolWeight);\n      market.fees.claimed[msg.sender] = market.fees.claimed[msg.sender].add(poolWeight);\n    } else {\n      market.fees.poolWeight = market.fees.poolWeight.sub(poolWeight);\n      market.fees.claimed[msg.sender] = market.fees.claimed[msg.sender].sub(poolWeight);\n    }\n  }\n\n  /// Internal function for advancing the market state.\n  function nextState(uint256 marketId) private {\n    Market storage market = markets[marketId];\n    market.state = MarketState(uint256(market.state) + 1);\n  }\n\n  function emitMarketOutcomePriceEvents(uint256 marketId) private {\n    Market storage market = markets[marketId];\n\n    for (uint256 i = 0; i < market.outcomeIds.length; i++) {\n      emit MarketOutcomePrice(marketId, i, getMarketOutcomePrice(marketId, i), now);\n    }\n\n    // liquidity shares also change value\n    emit MarketLiquidity(marketId, market.liquidity, getMarketLiquidityPrice(marketId), now);\n  }\n\n  function addSharesToMarket(uint256 marketId, uint256 shares) private {\n    Market storage market = markets[marketId];\n\n    for (uint256 i = 0; i < market.outcomeIds.length; i++) {\n      MarketOutcome storage outcome = market.outcomes[i];\n\n      outcome.shares.available = outcome.shares.available.add(shares);\n      outcome.shares.total = outcome.shares.total.add(shares);\n\n      // only adding to market total shares, the available remains\n      market.sharesAvailable = market.sharesAvailable.add(shares);\n    }\n\n    market.balance = market.balance.add(shares);\n  }\n\n  function removeSharesFromMarket(uint256 marketId, uint256 shares) private {\n    Market storage market = markets[marketId];\n\n    for (uint256 i = 0; i < market.outcomeIds.length; i++) {\n      MarketOutcome storage outcome = market.outcomes[i];\n\n      outcome.shares.available = outcome.shares.available.sub(shares);\n      outcome.shares.total = outcome.shares.total.sub(shares);\n\n      // only subtracting from market total shares, the available remains\n      market.sharesAvailable = market.sharesAvailable.sub(shares);\n    }\n\n    market.balance = market.balance.sub(shares);\n  }\n\n  function transferOutcomeSharesfromPool(\n    address user,\n    uint256 marketId,\n    uint256 outcomeId,\n    uint256 shares\n  ) private {\n    Market storage market = markets[marketId];\n    MarketOutcome storage outcome = market.outcomes[outcomeId];\n\n    // transfering shares from shares pool to user\n    outcome.shares.holders[user] = outcome.shares.holders[user].add(shares);\n    outcome.shares.available = outcome.shares.available.sub(shares);\n    market.sharesAvailable = market.sharesAvailable.sub(shares);\n  }\n\n  function transferOutcomeSharesToPool(\n    address user,\n    uint256 marketId,\n    uint256 outcomeId,\n    uint256 shares\n  ) private {\n    Market storage market = markets[marketId];\n    MarketOutcome storage outcome = market.outcomes[outcomeId];\n\n    // adding shares back to pool\n    outcome.shares.holders[user] = outcome.shares.holders[user].sub(shares);\n    outcome.shares.available = outcome.shares.available.add(shares);\n    market.sharesAvailable = market.sharesAvailable.add(shares);\n  }\n\n  // ------ Core Functions End ------\n\n  // ------ Governance Functions Start ------\n\n  function setFee(uint256 _fee) public onlyOwner() {\n    fee = _fee;\n  }\n\n  function setRealitioERC20(address _address) public onlyOwner() {\n    realitioAddress = _address;\n  }\n\n  function setRealitioTimeout(uint256 timeout) public onlyOwner() {\n    realitioTimeout = timeout;\n  }\n\n  function setToken(IERC20 _token) public onlyOwner() {\n    token = _token;\n  }\n\n  function setRequiredBalance(uint256 _requiredBalance) public onlyOwner() {\n    requiredBalance = _requiredBalance;\n  }\n\n  // ------ Governance Functions End ------\n\n  // ------ Getters ------\n\n  function getUserMarketShares(uint256 marketId, address participant)\n    public\n    view\n    returns (\n      uint256,\n      uint256,\n      uint256\n    )\n  {\n    Market storage market = markets[marketId];\n\n    return (\n      market.liquidityShares[participant],\n      market.outcomes[0].shares.holders[participant],\n      market.outcomes[1].shares.holders[participant]\n    );\n  }\n\n  function getUserClaimStatus(uint256 marketId, address participant)\n    public\n    view\n    returns (\n      bool,\n      bool,\n      bool,\n      bool,\n      uint256\n    )\n  {\n    Market storage market = markets[marketId];\n\n    // market still not resolved\n    if (market.state != MarketState.resolved) {\n      return (false, false, false, false, getUserClaimableFees(marketId, participant));\n    }\n\n    MarketOutcome storage outcome = market.outcomes[market.resolution.outcomeId];\n\n    return (\n      outcome.shares.holders[participant] > 0,\n      outcome.shares.claims[participant],\n      market.liquidityShares[participant] > 0,\n      market.liquidityClaims[participant],\n      getUserClaimableFees(marketId, participant)\n    );\n  }\n\n  // @return % of liquidity pool stake\n  function getUserLiquidityPoolShare(uint256 marketId, address participant) public view returns (uint256) {\n    Market storage market = markets[marketId];\n\n    return market.liquidityShares[participant].mul(ONE).div(market.liquidity);\n  }\n\n  function getUserClaimableFees(uint256 marketId, address participant) public view returns (uint256) {\n    Market storage market = markets[marketId];\n\n    uint256 rawAmount = market.fees.poolWeight.mul(market.liquidityShares[participant]).div(market.liquidity);\n    return rawAmount.sub(market.fees.claimed[participant]);\n  }\n\n  /// Allow retrieving the the array of created contracts\n  /// @return An array of all created Market contracts\n  function getMarkets() public view returns (uint256[] memory) {\n    return marketIds;\n  }\n\n  function getMarketData(uint256 marketId)\n    public\n    view\n    returns (\n      string memory,\n      MarketState,\n      uint256,\n      uint256,\n      uint256,\n      uint256,\n      int256\n    )\n  {\n    Market storage market = markets[marketId];\n\n    return (\n      market.name,\n      market.state,\n      market.closedDateTime,\n      market.liquidity,\n      market.balance,\n      market.sharesAvailable,\n      getMarketResolvedOutcome(marketId)\n    );\n  }\n\n  function getMarketAltData(uint256 marketId)\n    public\n    view\n    returns (\n      uint256,\n      bytes32,\n      uint256\n    )\n  {\n    Market storage market = markets[marketId];\n\n    return (market.fees.value, market.resolution.questionId, uint256(market.resolution.questionId));\n  }\n\n  function getMarketQuestion(uint256 marketId) public view returns (bytes32) {\n    Market storage market = markets[marketId];\n\n    return (market.resolution.questionId);\n  }\n\n  function getMarketPrices(uint256 marketId)\n    public\n    view\n    returns (\n      uint256,\n      uint256,\n      uint256\n    )\n  {\n    return (getMarketLiquidityPrice(marketId), getMarketOutcomePrice(marketId, 0), getMarketOutcomePrice(marketId, 1));\n  }\n\n  function getMarketLiquidityPrice(uint256 marketId) public view returns (uint256) {\n    Market storage market = markets[marketId];\n\n    if (market.state == MarketState.resolved) {\n      // resolved market, price is either 0 or 1\n      // final liquidity price = outcome shares / liquidity shares\n      return market.outcomes[market.resolution.outcomeId].shares.available.mul(ONE).div(market.liquidity);\n    }\n\n    // liquidity price = # liquidity shares / # outcome shares * # outcomes\n    return market.liquidity.mul(ONE * market.outcomeIds.length).div(market.sharesAvailable);\n  }\n\n  function getMarketResolvedOutcome(uint256 marketId) public view returns (int256) {\n    Market storage market = markets[marketId];\n\n    // returning -1 if market still not resolved\n    if (market.state != MarketState.resolved) {\n      return -1;\n    }\n\n    return int256(market.resolution.outcomeId);\n  }\n\n  // ------ Outcome Getters ------\n\n  function getMarketOutcomeIds(uint256 marketId) public view returns (uint256[] memory) {\n    Market storage market = markets[marketId];\n    return market.outcomeIds;\n  }\n\n  function getMarketOutcomePrice(uint256 marketId, uint256 marketOutcomeId) public view returns (uint256) {\n    Market storage market = markets[marketId];\n    MarketOutcome storage outcome = market.outcomes[marketOutcomeId];\n\n    if (market.state == MarketState.resolved) {\n      // resolved market, price is either 0 or 1\n      return marketOutcomeId == market.resolution.outcomeId ? ONE : 0;\n    }\n\n    require(\n      outcome.shares.total >= outcome.shares.available,\n      \"Total shares has to be equal or higher than available shares\"\n    );\n    require(\n      market.sharesAvailable >= outcome.shares.available,\n      \"Total # available shares has to be equal or higher than outcome available shares\"\n    );\n\n    uint256 holders = market.sharesAvailable.sub(outcome.shares.available);\n\n    return holders.mul(ONE).div(market.sharesAvailable);\n  }\n\n  function getMarketOutcomeData(uint256 marketId, uint256 marketOutcomeId)\n    public\n    view\n    returns (\n      string memory,\n      uint256,\n      uint256,\n      uint256\n    )\n  {\n    Market storage market = markets[marketId];\n    MarketOutcome storage outcome = market.outcomes[marketOutcomeId];\n\n    return (\n      outcome.name,\n      getMarketOutcomePrice(marketId, marketOutcomeId),\n      outcome.shares.available,\n      outcome.shares.total\n    );\n  }\n\n  function getMarketOutcomesShares(uint256 marketId) private view returns (uint256[] memory) {\n    Market storage market = markets[marketId];\n\n    uint256[] memory shares = new uint256[](market.outcomeIds.length);\n    for (uint256 i = 0; i < market.outcomeIds.length; i++) {\n      shares[i] = market.outcomes[i].shares.available;\n    }\n\n    return shares;\n  }\n}\n",
  "sourcePath": "/Users/ricardomarques/dev/workspace/polkamarkets/bepro-js/contracts/PredictionMarket.sol",
  "compiler": {
    "name": "solc",
    "version": "0.6.2+commit.bacdbe57.Emscripten.clang"
  },
  "schemaVersion": "3.3.4",
  "updatedAt": "2021-09-09T16:59:55.130Z",
  "devdoc": {
    "methods": {
      "createMarket(string,string,uint256,address,uint256)": {
        "details": "The new Market contract is then saved in the array of this contract for future reference.",
        "params": {
          "closesAt": "- Timestamp of market expiration",
          "image": "- image ipfs hash",
          "oracle": "- Artbitrator address",
          "outcomes": "- Number of outcomes",
          "question": "- Market details: https://reality.eth.link/app/docs/html/contracts.html#how-questions-are-structured"
        }
      },
      "owner()": {
        "details": "Returns the address of the current owner."
      },
      "renounceOwnership()": {
        "details": "Leaves the contract without owner. It will not be possible to call `onlyOwner` functions anymore. Can only be called by the current owner.     * NOTE: Renouncing ownership will leave the contract without an owner, thereby removing any functionality that is only available to the owner."
      },
      "resolveMarketOutcome(uint256)": {
        "details": "Only allowed by oracle",
        "returns": {
          "_0": "Id of the outcome"
        }
      },
      "transferOwnership(address)": {
        "details": "Transfers ownership of the contract to a new account (`newOwner`). Can only be called by the current owner."
      }
    },
    "title": "Market Contract Factory"
  },
  "userdoc": {
    "methods": {
      "buy(uint256,uint256,uint256)": {
        "notice": "Buy shares of a market outcome"
      },
      "claimLiquidity(uint256)": {
        "notice": "Allowing liquidity providers to claim earnings from liquidity providing."
      },
      "claimWinnings(uint256)": {
        "notice": "Allowing holders of resolved outcome shares to claim earnings."
      },
      "createMarket(string,string,uint256,address,uint256)": {
        "notice": "Create a new Market contract"
      },
      "getMarkets()": {
        "notice": "Allow retrieving the the array of created contracts"
      },
      "resolveMarketOutcome(uint256)": {
        "notice": "Determine the result of the market"
      },
      "sell(uint256,uint256,uint256,uint256)": {
        "notice": "Sell shares of a market outcome"
      }
    }
  }
}