{
  "contractName": "PredictionMarket",
  "abi": [
    {
      "inputs": [
        {
          "internalType": "uint256",
          "name": "_fee",
          "type": "uint256"
        },
        {
          "internalType": "contract IERC20",
          "name": "_token",
          "type": "address"
        },
        {
          "internalType": "uint256",
          "name": "_requiredBalance",
          "type": "uint256"
        },
        {
          "internalType": "address",
          "name": "_realitioAddress",
          "type": "address"
        },
        {
          "internalType": "uint256",
          "name": "_realitioTimeout",
          "type": "uint256"
        }
      ],
      "stateMutability": "nonpayable",
      "type": "constructor"
    },
    {
      "anonymous": false,
      "inputs": [
        {
          "indexed": true,
          "internalType": "address",
          "name": "user",
          "type": "address"
        },
        {
          "indexed": true,
          "internalType": "enum PredictionMarket.MarketAction",
          "name": "action",
          "type": "uint8"
        },
        {
          "indexed": true,
          "internalType": "uint256",
          "name": "marketId",
          "type": "uint256"
        },
        {
          "indexed": false,
          "internalType": "uint256",
          "name": "outcomeId",
          "type": "uint256"
        },
        {
          "indexed": false,
          "internalType": "uint256",
          "name": "shares",
          "type": "uint256"
        },
        {
          "indexed": false,
          "internalType": "uint256",
          "name": "value",
          "type": "uint256"
        },
        {
          "indexed": false,
          "internalType": "uint256",
          "name": "timestamp",
          "type": "uint256"
        }
      ],
      "name": "MarketActionTx",
      "type": "event"
    },
    {
      "anonymous": false,
      "inputs": [
        {
          "indexed": true,
          "internalType": "address",
          "name": "user",
          "type": "address"
        },
        {
          "indexed": true,
          "internalType": "uint256",
          "name": "marketId",
          "type": "uint256"
        },
        {
          "indexed": false,
          "internalType": "uint256",
          "name": "outcomes",
          "type": "uint256"
        },
        {
          "indexed": false,
          "internalType": "string",
          "name": "question",
          "type": "string"
        },
        {
          "indexed": false,
          "internalType": "string",
          "name": "image",
          "type": "string"
        }
      ],
      "name": "MarketCreated",
      "type": "event"
    },
    {
      "anonymous": false,
      "inputs": [
        {
          "indexed": true,
          "internalType": "uint256",
          "name": "marketId",
          "type": "uint256"
        },
        {
          "indexed": false,
          "internalType": "uint256",
          "name": "value",
          "type": "uint256"
        },
        {
          "indexed": false,
          "internalType": "uint256",
          "name": "price",
          "type": "uint256"
        },
        {
          "indexed": false,
          "internalType": "uint256",
          "name": "timestamp",
          "type": "uint256"
        }
      ],
      "name": "MarketLiquidity",
      "type": "event"
    },
    {
      "anonymous": false,
      "inputs": [
        {
          "indexed": true,
          "internalType": "uint256",
          "name": "marketId",
          "type": "uint256"
        },
        {
          "indexed": true,
          "internalType": "uint256",
          "name": "outcomeId",
          "type": "uint256"
        },
        {
          "indexed": false,
          "internalType": "uint256",
          "name": "value",
          "type": "uint256"
        },
        {
          "indexed": false,
          "internalType": "uint256",
          "name": "timestamp",
          "type": "uint256"
        }
      ],
      "name": "MarketOutcomePrice",
      "type": "event"
    },
    {
      "anonymous": false,
      "inputs": [
        {
          "indexed": true,
          "internalType": "address",
          "name": "user",
          "type": "address"
        },
        {
          "indexed": true,
          "internalType": "uint256",
          "name": "marketId",
          "type": "uint256"
        },
        {
          "indexed": false,
          "internalType": "uint256",
          "name": "outcomeId",
          "type": "uint256"
        },
        {
          "indexed": false,
          "internalType": "uint256",
          "name": "timestamp",
          "type": "uint256"
        }
      ],
      "name": "MarketResolved",
      "type": "event"
    },
    {
      "inputs": [],
      "name": "MAX_UINT_256",
      "outputs": [
        {
          "internalType": "uint256",
          "name": "",
          "type": "uint256"
        }
      ],
      "stateMutability": "view",
      "type": "function"
    },
    {
      "inputs": [],
      "name": "ONE",
      "outputs": [
        {
          "internalType": "uint256",
          "name": "",
          "type": "uint256"
        }
      ],
      "stateMutability": "view",
      "type": "function"
    },
    {
      "inputs": [],
      "name": "fee",
      "outputs": [
        {
          "internalType": "uint256",
          "name": "",
          "type": "uint256"
        }
      ],
      "stateMutability": "view",
      "type": "function"
    },
    {
      "inputs": [],
      "name": "marketIndex",
      "outputs": [
        {
          "internalType": "uint256",
          "name": "",
          "type": "uint256"
        }
      ],
      "stateMutability": "view",
      "type": "function"
    },
    {
      "inputs": [],
      "name": "realitioAddress",
      "outputs": [
        {
          "internalType": "address",
          "name": "",
          "type": "address"
        }
      ],
      "stateMutability": "view",
      "type": "function"
    },
    {
      "inputs": [],
      "name": "realitioTimeout",
      "outputs": [
        {
          "internalType": "uint256",
          "name": "",
          "type": "uint256"
        }
      ],
      "stateMutability": "view",
      "type": "function"
    },
    {
      "inputs": [],
      "name": "requiredBalance",
      "outputs": [
        {
          "internalType": "uint256",
          "name": "",
          "type": "uint256"
        }
      ],
      "stateMutability": "view",
      "type": "function"
    },
    {
      "inputs": [],
      "name": "token",
      "outputs": [
        {
          "internalType": "contract IERC20",
          "name": "",
          "type": "address"
        }
      ],
      "stateMutability": "view",
      "type": "function"
    },
    {
      "inputs": [
        {
          "internalType": "string",
          "name": "question",
          "type": "string"
        },
        {
          "internalType": "string",
          "name": "image",
          "type": "string"
        },
        {
          "internalType": "uint256",
          "name": "closesAt",
          "type": "uint256"
        },
        {
          "internalType": "address",
          "name": "arbitrator",
          "type": "address"
        },
        {
          "internalType": "uint256",
          "name": "outcomes",
          "type": "uint256"
        }
      ],
      "name": "createMarket",
      "outputs": [
        {
          "internalType": "uint256",
          "name": "",
          "type": "uint256"
        }
      ],
      "stateMutability": "payable",
      "type": "function"
    },
    {
      "inputs": [
        {
          "internalType": "uint256",
          "name": "amount",
          "type": "uint256"
        },
        {
          "internalType": "uint256",
          "name": "marketId",
          "type": "uint256"
        },
        {
          "internalType": "uint256",
          "name": "outcomeId",
          "type": "uint256"
        }
      ],
      "name": "calcBuyAmount",
      "outputs": [
        {
          "internalType": "uint256",
          "name": "",
          "type": "uint256"
        }
      ],
      "stateMutability": "view",
      "type": "function"
    },
    {
      "inputs": [
        {
          "internalType": "uint256",
          "name": "amount",
          "type": "uint256"
        },
        {
          "internalType": "uint256",
          "name": "marketId",
          "type": "uint256"
        },
        {
          "internalType": "uint256",
          "name": "outcomeId",
          "type": "uint256"
        }
      ],
      "name": "calcSellAmount",
      "outputs": [
        {
          "internalType": "uint256",
          "name": "outcomeTokenSellAmount",
          "type": "uint256"
        }
      ],
      "stateMutability": "view",
      "type": "function"
    },
    {
      "inputs": [
        {
          "internalType": "uint256",
          "name": "marketId",
          "type": "uint256"
        },
        {
          "internalType": "uint256",
          "name": "outcomeId",
          "type": "uint256"
        },
        {
          "internalType": "uint256",
          "name": "minOutcomeSharesToBuy",
          "type": "uint256"
        }
      ],
      "name": "buy",
      "outputs": [],
      "stateMutability": "payable",
      "type": "function"
    },
    {
      "inputs": [
        {
          "internalType": "uint256",
          "name": "marketId",
          "type": "uint256"
        },
        {
          "internalType": "uint256",
          "name": "outcomeId",
          "type": "uint256"
        },
        {
          "internalType": "uint256",
          "name": "value",
          "type": "uint256"
        },
        {
          "internalType": "uint256",
          "name": "maxOutcomeSharesToSell",
          "type": "uint256"
        }
      ],
      "name": "sell",
      "outputs": [],
      "stateMutability": "payable",
      "type": "function"
    },
    {
      "inputs": [
        {
          "internalType": "uint256",
          "name": "marketId",
          "type": "uint256"
        }
      ],
      "name": "addLiquidity",
      "outputs": [],
      "stateMutability": "payable",
      "type": "function"
    },
    {
      "inputs": [
        {
          "internalType": "uint256",
          "name": "marketId",
          "type": "uint256"
        },
        {
          "internalType": "uint256",
          "name": "shares",
          "type": "uint256"
        }
      ],
      "name": "removeLiquidity",
      "outputs": [],
      "stateMutability": "payable",
      "type": "function"
    },
    {
      "inputs": [
        {
          "internalType": "uint256",
          "name": "marketId",
          "type": "uint256"
        }
      ],
      "name": "resolveMarketOutcome",
      "outputs": [
        {
          "internalType": "uint256",
          "name": "",
          "type": "uint256"
        }
      ],
      "stateMutability": "nonpayable",
      "type": "function"
    },
    {
      "inputs": [
        {
          "internalType": "uint256",
          "name": "marketId",
          "type": "uint256"
        }
      ],
      "name": "claimWinnings",
      "outputs": [],
      "stateMutability": "nonpayable",
      "type": "function"
    },
    {
      "inputs": [
        {
          "internalType": "uint256",
          "name": "marketId",
          "type": "uint256"
        },
        {
          "internalType": "uint256",
          "name": "outcomeId",
          "type": "uint256"
        }
      ],
      "name": "claimVoidedOutcomeShares",
      "outputs": [],
      "stateMutability": "nonpayable",
      "type": "function"
    },
    {
      "inputs": [
        {
          "internalType": "uint256",
          "name": "marketId",
          "type": "uint256"
        }
      ],
      "name": "claimLiquidity",
      "outputs": [],
      "stateMutability": "nonpayable",
      "type": "function"
    },
    {
      "inputs": [
        {
          "internalType": "uint256",
          "name": "marketId",
          "type": "uint256"
        }
      ],
      "name": "claimFees",
      "outputs": [],
      "stateMutability": "payable",
      "type": "function"
    },
    {
      "inputs": [
        {
          "internalType": "uint256",
          "name": "marketId",
          "type": "uint256"
        },
        {
          "internalType": "address",
          "name": "user",
          "type": "address"
        }
      ],
      "name": "getUserMarketShares",
      "outputs": [
        {
          "internalType": "uint256",
          "name": "",
          "type": "uint256"
        },
        {
          "internalType": "uint256",
          "name": "",
          "type": "uint256"
        },
        {
          "internalType": "uint256",
          "name": "",
          "type": "uint256"
        }
      ],
      "stateMutability": "view",
      "type": "function"
    },
    {
      "inputs": [
        {
          "internalType": "uint256",
          "name": "marketId",
          "type": "uint256"
        },
        {
          "internalType": "address",
          "name": "user",
          "type": "address"
        }
      ],
      "name": "getUserClaimStatus",
      "outputs": [
        {
          "internalType": "bool",
          "name": "",
          "type": "bool"
        },
        {
          "internalType": "bool",
          "name": "",
          "type": "bool"
        },
        {
          "internalType": "bool",
          "name": "",
          "type": "bool"
        },
        {
          "internalType": "bool",
          "name": "",
          "type": "bool"
        },
        {
          "internalType": "uint256",
          "name": "",
          "type": "uint256"
        }
      ],
      "stateMutability": "view",
      "type": "function"
    },
    {
      "inputs": [
        {
          "internalType": "uint256",
          "name": "marketId",
          "type": "uint256"
        },
        {
          "internalType": "address",
          "name": "user",
          "type": "address"
        }
      ],
      "name": "getUserLiquidityPoolShare",
      "outputs": [
        {
          "internalType": "uint256",
          "name": "",
          "type": "uint256"
        }
      ],
      "stateMutability": "view",
      "type": "function"
    },
    {
      "inputs": [
        {
          "internalType": "uint256",
          "name": "marketId",
          "type": "uint256"
        },
        {
          "internalType": "address",
          "name": "user",
          "type": "address"
        }
      ],
      "name": "getUserClaimableFees",
      "outputs": [
        {
          "internalType": "uint256",
          "name": "",
          "type": "uint256"
        }
      ],
      "stateMutability": "view",
      "type": "function"
    },
    {
      "inputs": [],
      "name": "getMarkets",
      "outputs": [
        {
          "internalType": "uint256[]",
          "name": "",
          "type": "uint256[]"
        }
      ],
      "stateMutability": "view",
      "type": "function"
    },
    {
      "inputs": [
        {
          "internalType": "uint256",
          "name": "marketId",
          "type": "uint256"
        }
      ],
      "name": "getMarketData",
      "outputs": [
        {
          "internalType": "enum PredictionMarket.MarketState",
          "name": "",
          "type": "uint8"
        },
        {
          "internalType": "uint256",
          "name": "",
          "type": "uint256"
        },
        {
          "internalType": "uint256",
          "name": "",
          "type": "uint256"
        },
        {
          "internalType": "uint256",
          "name": "",
          "type": "uint256"
        },
        {
          "internalType": "uint256",
          "name": "",
          "type": "uint256"
        },
        {
          "internalType": "int256",
          "name": "",
          "type": "int256"
        }
      ],
      "stateMutability": "view",
      "type": "function"
    },
    {
      "inputs": [
        {
          "internalType": "uint256",
          "name": "marketId",
          "type": "uint256"
        }
      ],
      "name": "getMarketAltData",
      "outputs": [
        {
          "internalType": "uint256",
          "name": "",
          "type": "uint256"
        },
        {
          "internalType": "bytes32",
          "name": "",
          "type": "bytes32"
        },
        {
          "internalType": "uint256",
          "name": "",
          "type": "uint256"
        }
      ],
      "stateMutability": "view",
      "type": "function"
    },
    {
      "inputs": [
        {
          "internalType": "uint256",
          "name": "marketId",
          "type": "uint256"
        }
      ],
      "name": "getMarketQuestion",
      "outputs": [
        {
          "internalType": "bytes32",
          "name": "",
          "type": "bytes32"
        }
      ],
      "stateMutability": "view",
      "type": "function"
    },
    {
      "inputs": [
        {
          "internalType": "uint256",
          "name": "marketId",
          "type": "uint256"
        }
      ],
      "name": "getMarketPrices",
      "outputs": [
        {
          "internalType": "uint256",
          "name": "",
          "type": "uint256"
        },
        {
          "internalType": "uint256",
          "name": "",
          "type": "uint256"
        },
        {
          "internalType": "uint256",
          "name": "",
          "type": "uint256"
        }
      ],
      "stateMutability": "view",
      "type": "function"
    },
    {
      "inputs": [
        {
          "internalType": "uint256",
          "name": "marketId",
          "type": "uint256"
        }
      ],
      "name": "getMarketLiquidityPrice",
      "outputs": [
        {
          "internalType": "uint256",
          "name": "",
          "type": "uint256"
        }
      ],
      "stateMutability": "view",
      "type": "function"
    },
    {
      "inputs": [
        {
          "internalType": "uint256",
          "name": "marketId",
          "type": "uint256"
        }
      ],
      "name": "getMarketResolvedOutcome",
      "outputs": [
        {
          "internalType": "int256",
          "name": "",
          "type": "int256"
        }
      ],
      "stateMutability": "view",
      "type": "function"
    },
    {
      "inputs": [
        {
          "internalType": "uint256",
          "name": "marketId",
          "type": "uint256"
        }
      ],
      "name": "isMarketVoided",
      "outputs": [
        {
          "internalType": "bool",
          "name": "",
          "type": "bool"
        }
      ],
      "stateMutability": "view",
      "type": "function"
    },
    {
      "inputs": [
        {
          "internalType": "uint256",
          "name": "marketId",
          "type": "uint256"
        }
      ],
      "name": "getMarketOutcomeIds",
      "outputs": [
        {
          "internalType": "uint256[]",
          "name": "",
          "type": "uint256[]"
        }
      ],
      "stateMutability": "view",
      "type": "function"
    },
    {
      "inputs": [
        {
          "internalType": "uint256",
          "name": "marketId",
          "type": "uint256"
        },
        {
          "internalType": "uint256",
          "name": "outcomeId",
          "type": "uint256"
        }
      ],
      "name": "getMarketOutcomePrice",
      "outputs": [
        {
          "internalType": "uint256",
          "name": "",
          "type": "uint256"
        }
      ],
      "stateMutability": "view",
      "type": "function"
    },
    {
      "inputs": [
        {
          "internalType": "uint256",
          "name": "marketId",
          "type": "uint256"
        },
        {
          "internalType": "uint256",
          "name": "outcomeId",
          "type": "uint256"
        }
      ],
      "name": "getMarketOutcomeData",
      "outputs": [
        {
          "internalType": "uint256",
          "name": "",
          "type": "uint256"
        },
        {
          "internalType": "uint256",
          "name": "",
          "type": "uint256"
        },
        {
          "internalType": "uint256",
          "name": "",
          "type": "uint256"
        }
      ],
      "stateMutability": "view",
      "type": "function"
    }
  ],
  "bytecode": "0x60806040523480156200001157600080fd5b50604051620036d4380380620036d48339810160408190526200003491620000ca565b6001600160a01b038216620000665760405162461bcd60e51b81526004016200005d9062000125565b60405180910390fd5b60008111620000895760405162461bcd60e51b81526004016200005d906200015c565b600394909455600680546001600160a01b039485166001600160a01b03199182161790915560079290925560048054919093169116179055600555620001ac565b600080600080600060a08688031215620000e2578081fd5b855194506020860151620000f68162000193565b604087015160608801519195509350620001108162000193565b80925050608086015190509295509295909350565b6020808252601d908201527f5f7265616c6974696f4164647265737320697320616464726573732030000000604082015260600190565b60208082526018908201527f74696d656f7574206d75737420626520706f7369746976650000000000000000604082015260600190565b6001600160a01b0381168114620001a957600080fd5b50565b61351880620001bc6000396000f3fe6080604052600436106101945760003560e01c806308560ace146101995780631d7920aa146101c457806328747a80146101f35780632c2aa24e1461021357806331877a38146102445780633620875e146102715780633d41a26b146102865780633fe45e3b1461029b57806340993b26146102b0578063429c9dff146102c35780634397c4ce146102e3578063441cf65e1461030357806351c6590a146103305780635e648eff14610343578063677bd9ff146103635780637b34e6e01461038357806385b91d8e146103a55780638c7adc15146103c55780638cd41552146103da5780639d7de6b3146103fa578063aa22a02e1461040d578063ac68a7481461042d578063b31eb89514610440578063bf45572114610460578063bfacba3d14610480578063c2ee3a08146104b2578063c346a9d0146104c7578063c8f70d01146104e7578063ddca3f4314610507578063ec2c90161461051c578063ec93f0f514610531578063efbc47dc14610551578063efce431314610564578063fc0c546a14610584578063fdff808514610599575b600080fd5b3480156101a557600080fd5b506101ae6105b9565b6040516101bb9190612d70565b60405180910390f35b3480156101d057600080fd5b506101e46101df366004612bfb565b6105bf565b6040516101bb93929190613445565b3480156101ff57600080fd5b506101ae61020e366004612bfb565b6105de565b34801561021f57600080fd5b5061023361022e366004612c13565b610774565b6040516101bb959493929190612d49565b34801561025057600080fd5b5061026461025f366004612bfb565b610844565b6040516101bb9190612cfa565b61028461027f366004612c8b565b6108ad565b005b34801561029257600080fd5b506101ae610afb565b3480156102a757600080fd5b506101ae610b01565b6102846102be366004612c60565b610b07565b3480156102cf57600080fd5b506101ae6102de366004612c60565b610cc8565b3480156102ef57600080fd5b506101ae6102fe366004612bfb565b610e28565b34801561030f57600080fd5b5061032361031e366004612bfb565b610e3d565b6040516101bb9190612d3e565b61028461033e366004612bfb565b610e82565b34801561034f57600080fd5b5061028461035e366004612bfb565b610f1d565b34801561036f57600080fd5b5061028461037e366004612bfb565b6110ea565b34801561038f57600080fd5b50610398611255565b6040516101bb9190612ce6565b3480156103b157600080fd5b506101e46103c0366004612bfb565b611264565b3480156103d157600080fd5b506101ae611295565b3480156103e657600080fd5b506101ae6103f5366004612c3f565b61129b565b610284610408366004612c3f565b61135b565b34801561041957600080fd5b506101ae610428366004612c13565b611760565b61028461043b366004612bfb565b6117b3565b34801561044c57600080fd5b506101e461045b366004612c13565b61187c565b34801561046c57600080fd5b506101ae61047b366004612bfb565b6118d7565b34801561048c57600080fd5b506104a061049b366004612bfb565b611914565b6040516101bb96959493929190612d79565b3480156104be57600080fd5b506101ae61196d565b3480156104d357600080fd5b506101ae6104e2366004612c60565b611979565b3480156104f357600080fd5b506101ae610502366004612bfb565b611aa9565b34801561051357600080fd5b506101ae611b5c565b34801561052857600080fd5b50610264611b62565b34801561053d57600080fd5b5061028461054c366004612c3f565b611bba565b6101ae61055f366004612b6b565b611d8d565b34801561057057600080fd5b506101e461057f366004612c3f565b612079565b34801561059057600080fd5b506103986120bd565b3480156105a557600080fd5b506101ae6105b4366004612c13565b6120cc565b60075481565b6000908152600160205260409020600a81015460099091015490918190565b60008181526001602052604081205482904211801561061a575060008181526001602052604081206006015460ff16600281111561061857fe5b145b156106285761062881612172565b8260018060008381526001602052604090206006015460ff16600281111561064c57fe5b146106725760405162461bcd60e51b8152600401610669906132ba565b60405180910390fd5b600085815260016020526040808220600480546009830154935163684e62bf60e11b81528a9593946001600160a01b039092169392849263d09cc57e926106b99201612d70565b60206040518083038186803b1580156106d157600080fd5b505afa1580156106e5573d6000803e3d6000fd5b505050506040513d601f19601f820116820180604052506107099190810190612b53565b60088401819055604051909150899033907f67a6457c8912ae1b7a9fbdfa311cbd016ba606b548bf06bc80bc751072d91bbc906107499085904290613494565b60405180910390a361075a896121e3565b505060080154945061076b81612172565b50505050919050565b600082815260016020526040812081908190819081906002600682015460ff16600281111561079f57fe5b146107c4576000806000806107b48c8c6120cc565b955095509550955095505061083a565b60088101546000908152600e8201602090815260408083206001600160a01b038b16845260048082018452828520546005808401865284872054928801865284872054908801909552929094205490939115159260ff92831692901515911661082d8d8d6120cc565b9650965096509650965050505b9295509295909350565b600081815260016020908152604091829020600d81018054845181850281018501909552808552606094929383018282801561089f57602002820191906000526020600020905b81548152602001906001019080831161088b575b50505050509150505b919050565b6000848152600160205260409020548490421180156108e9575060008181526001602052604081206006015460ff1660028111156108e757fe5b145b156108f7576108f781612172565b8460008060008381526001602052604090206006015460ff16600281111561091b57fe5b146109385760405162461bcd60e51b8152600401610669906132ba565b6000878152600160209081526040808320898452600e810190925282209091610962888b8b611979565b9050868111156109845760405162461bcd60e51b81526004016106699061339e565b600081116109a45760405162461bcd60e51b815260040161066990612ef7565b3360009081526004830160205260409020548111156109d55760405162461bcd60e51b815260040161066990613279565b6109e1338b8b84612286565b6000610a00600354670de0b6b3a764000061232590919063ffffffff16565b600a850154610a16908b9063ffffffff61234d16565b81610a1d57fe5b600b8601549190049150610a37908263ffffffff61238716565b600b8501556000610a4e8a8363ffffffff61238716565b90508085600101541015610a745760405162461bcd60e51b815260040161066990613236565b610a7e8c826123ac565b60405133908b156108fc02908c906000818181858888f19350505050158015610aab573d6000803e3d6000fd5b508b6001336001600160a01b03166000805160206134a38339815191528e878f42604051610adc9493929190612db0565b60405180910390a4610aed8c6121e3565b505050505050505050505050565b60001981565b60055481565b600083815260016020526040902054839042118015610b43575060008181526001602052604081206006015460ff166002811115610b4157fe5b145b15610b5157610b5181612172565b8360008060008381526001602052604090206006015460ff166002811115610b7557fe5b14610b925760405162461bcd60e51b8152600401610669906132ba565b6000868152600160205260408120903490610bae828a8a610cc8565b905086811015610bd05760405162461bcd60e51b815260040161066990613367565b60008111610bf05760405162461bcd60e51b815260040161066990612ef7565b600a830154600090670de0b6b3a764000090610c1390859063ffffffff61234d16565b81610c1a57fe5b600b8601549190049150610c34908263ffffffff61238716565b600b8501556000610c4b848363ffffffff61232516565b60008b8152600e870160205260409020909150610c688c8361244f565b6003810154841115610c8c5760405162461bcd60e51b8152600401610669906132ed565b610c98338d8d876124e8565b8b6000336001600160a01b03166000805160206134a38339815191528e888a42604051610adc9493929190612db0565b60008281526001602052604081206060610ce185612577565b90506000610d21670de0b6b3a7640000610d0b85600a01600001548a61234d90919063ffffffff16565b81610d1257fe5b8991900463ffffffff61232516565b90506000828681518110610d3157fe5b602002602001015190506000610d58670de0b6b3a76400008361234d90919063ffffffff16565b905060005b8451811015610dc357878114610dbb576000858281518110610d7b57fe5b60200260200101519050610db7610d9b868361238790919063ffffffff16565b610dab858463ffffffff61234d16565b9063ffffffff61260a16565b9250505b600101610d5d565b5060008111610de45760405162461bcd60e51b815260040161066990612e1d565b610e1b610dff82670de0b6b3a764000063ffffffff61260a16565b610e0f848663ffffffff61238716565b9063ffffffff61232516565b9998505050505050505050565b60009081526001602052604090206009015490565b60008181526001602052604081206002600682015460ff166002811115610e6057fe5b14610e6f5760009150506108a8565b600d810154600890910154101592915050565b600081815260016020526040902054819042118015610ebe575060008181526001602052604081206006015460ff166002811115610ebc57fe5b145b15610ecc57610ecc81612172565b8160008060008381526001602052604090206006015460ff166002811115610ef057fe5b14610f0d5760405162461bcd60e51b8152600401610669906132ba565b610f17843461263a565b50505050565b8060028060008381526001602052604090206006015460ff166002811115610f4157fe5b14610f5e5760405162461bcd60e51b8152600401610669906132ba565b6000838152600160205260409020610f75846117b3565b336000908152600482016020526040902054610fa35760405162461bcd60e51b8152600401610669906131f3565b33600090815260058201602052604090205460ff1615610fd55760405162461bcd60e51b8152600401610669906131ac565b6000610fe085611aa9565b33600090815260048401602052604081205491925090670de0b6b3a76400009061101190849063ffffffff61234d16565b8161101857fe5b049050808360010154101561103f5760405162461bcd60e51b815260040161066990613012565b6001830154611054908263ffffffff61232516565b600184810191909155336000818152600580870160209081526040808420805460ff19169096179095556004880190528382205493518a949193926000805160206134a3833981519152926110ac9288904290612db0565b60405180910390a4604051339082156108fc029083906000818181858888f193505050501580156110e1573d6000803e3d6000fd5b50505050505050565b8060028060008381526001602052604090206006015460ff16600281111561110e57fe5b1461112b5760405162461bcd60e51b8152600401610669906132ba565b600083815260016020908152604080832060088101548452600e81018352818420338552600481019093529220546111755760405162461bcd60e51b815260040161066990612f23565b33600090815260058201602052604090205460ff16156111a75760405162461bcd60e51b8152600401610669906130d3565b33600090815260048201602052604090205460018301548111156111dd5760405162461bcd60e51b815260040161066990613012565b60018301546111f2908263ffffffff61232516565b6001808501919091553360009081526005840160205260409020805460ff1916909117905585600460088501543360008181526004870160205260409081902054905191926000805160206134a3833981519152926110ac929088904290612db0565b6004546001600160a01b031681565b600080600061127284611aa9565b61127d85600061129b565b61128886600161129b565b9250925092509193909250565b60025481565b6000828152600160209081526040808320848452600e810190925282206002600683015460ff1660028111156112cd57fe5b1480156112e057506112de85610e3d565b155b1561130a57600882015484146112f7576000611301565b670de0b6b3a76400005b92505050611355565b60038083015490820154611350919061134490670de0b6b3a76400009061133890849063ffffffff61232516565b9063ffffffff61234d16565b9063ffffffff6129e516565b925050505b92915050565b600082815260016020526040902054829042118015611397575060008181526001602052604081206006015460ff16600281111561139557fe5b145b156113a5576113a581612172565b8260008060008381526001602052604090206006015460ff1660028111156113c957fe5b146113e65760405162461bcd60e51b8152600401610669906132ba565b600085815260016020908152604080832033845260048101909252909120548511156114245760405162461bcd60e51b815260040161066990613279565b61142d866117b3565b61143986866003612a06565b50606061144587612577565b905060608151604051908082528060200260200182016040528015611474578160200160208202803883390190505b50905060001960005b83518110156114b357600084828151811061149457fe5b60200260200101519050808311156114aa578092505b5060010161147d565b5060028401546000906114d0906113448b8563ffffffff61234d16565b905060005b845181101561156e5785600201546115098b8784815181106114f357fe5b602002602001015161234d90919063ffffffff16565b8161151057fe5b0484828151811061151d57fe5b60200260200101818152505061154f8285838151811061153957fe5b602002602001015161232590919063ffffffff16565b84828151811061155b57fe5b60209081029190910101526001016114d5565b506115798a826123ac565b600285015461158e908a63ffffffff61232516565b60028601553360009081526004860160205260409020546115b5908a63ffffffff61232516565b3360009081526004870160205260408120919091555b84518110156116b65760008482815181106115e257fe5b602002602001015111156116ae576003808701546000838152600e89016020526040902090910154855161162f9033908f9086908a908290811061162257fe5b60200260200101516124e8565b8c6000336001600160a01b03166000805160206134a3833981519152868a888151811061165857fe5b60200260200101516116928e600301546113448e8c8151811061167757fe5b60200260200101516113388b8d61232590919063ffffffff16565b426040516116a39493929190612db0565b60405180910390a450505b6001016115cb565b50604051339082156108fc029083906000818181858888f193505050501580156116e4573d6000803e3d6000fd5b50896003336001600160a01b03166000805160206134a383398151915260008d86426040516117169493929190612db0565b60405180910390a4896000805160206134c3833981519152866002015461173c8d611aa9565b4260405161174c93929190613445565b60405180910390a250505050505050505050565b600082815260016020908152604080832060028101546001600160a01b0386168552600482019093529083205490916117ab9161134490670de0b6b3a764000063ffffffff61234d16565b949350505050565b6000818152600160205260408120906117cc83336120cc565b9050801561183857336000908152600c830160205260409020546117f6908263ffffffff61238716565b336000818152600c85016020526040808220939093559151909183156108fc02918491818181858888f19350505050158015611836573d6000803e3d6000fd5b505b8260063360008181526004860160205260408082205490516000805160206134a38339815191529261186f92909188904290612db0565b60405180910390a4505050565b60009182526001602081815260408085206001600160a01b03949094168086526004808601845282872054878052600e9096018085528388208389528201855283882054958852845282872091875201909152909220549092565b60008181526001602052604081206002600682015460ff1660028111156118fa57fe5b1461190a576000199150506108a8565b6008015492915050565b6000818152600160208190526040822060068101548154600283015493830154600384015486958695869586958695929460ff90921693909290916119588d6118d7565b949d939c50919a509850965090945092505050565b670de0b6b3a764000081565b6000828152600160205260408120606061199285612577565b600a8301549091506000906119b690670de0b6b3a76400009063ffffffff61232516565b6119ce88670de0b6b3a764000063ffffffff61234d16565b816119d557fe5b04905060008286815181106119e657fe5b602002602001015190506000611a0d670de0b6b3a76400008361234d90919063ffffffff16565b905060005b8451811015611a5c57878114611a54576000858281518110611a3057fe5b60200260200101519050611a50610d9b868361232590919063ffffffff16565b9250505b600101611a12565b5060008111611a7d5760405162461bcd60e51b815260040161066990612e1d565b610e1b82610e0f611a9c84670de0b6b3a764000063ffffffff61260a16565b869063ffffffff61238716565b60008181526001602052604081206002600682015460ff166002811115611acc57fe5b148015611adf5750611add83610e3d565b155b15611b2757600281015460088201546000908152600e83016020526040902060030154611b1f919061134490670de0b6b3a764000063ffffffff61234d16565b9150506108a8565b6003810154600d8201546002830154611b5592916113449190670de0b6b3a76400000263ffffffff61234d16565b9392505050565b60035481565b60606000805480602002602001604051908101604052809291908181526020018280548015611bb057602002820191906000526020600020905b815481526020019060010190808311611b9c575b5050505050905090565b8160028060008381526001602052604090206006015460ff166002811115611bde57fe5b14611bfb5760405162461bcd60e51b8152600401610669906132ba565b6000848152600160209081526040808320868452600e8101835281842033855260048101909352922054611c415760405162461bcd60e51b815260040161066990612e81565b33600090815260068201602052604090205460ff1615611c735760405162461bcd60e51b8152600401610669906133d4565b6000611c7f878761129b565b33600090815260048401602052604081205491925090611cb490670de0b6b3a76400009061134490859063ffffffff61234d16565b90508084600101541015611cda5760405162461bcd60e51b815260040161066990613012565b6001840154611cef908263ffffffff61232516565b6001808601919091553360009081526006850160205260409020805460ff19169091179055876007336000818152600487016020526040908190205490516000805160206134a383398151915291611d4d918d919088904290612db0565b60405180910390a4604051339082156108fc029083906000818181858888f19350505050158015611d82573d6000803e3d6000fd5b505050505050505050565b6007546006546040516370a0823160e01b8152600092916001600160a01b0316906370a0823190611dc2903390600401612ce6565b60206040518083038186803b158015611dda57600080fd5b505afa158015611dee573d6000803e3d6000fd5b505050506040513d601f19601f82011682018060405250611e129190810190612b53565b1015611e305760405162461bcd60e51b815260040161066990613089565b60025460008054600181810183557f290decd9548b62a8d60345a988386fc84ba6bc95484008f6362f93160ef3e5639091018390558282526020526040902034611e8c5760405162461bcd60e51b815260040161066990612e52565b428611611eab5760405162461bcd60e51b815260040161066990613162565b6001600160a01b038516611ed15760405162461bcd60e51b815260040161066990613333565b83600214611ef15760405162461bcd60e51b815260040161066990612f6d565b85815560068101805460ff19169055600354600a820155600019600882015560005b84811015611f5557600d820180546001818101835560009283526020808420909201849055838352600e85019091526040909120848155810182905501611f13565b506000600460009054906101000a90046001600160a01b03169050806001600160a01b031663d4876b9f60028d8d8a6005548d6000806040518963ffffffff1660e01b8152600401611fae989796959493929190612dcb565b602060405180830381600087803b158015611fc857600080fd5b505af1158015611fdc573d6000803e3d6000fd5b505050506040513d601f19601f820116820180604052506120009190810190612b53565b600983015561200f833461263a565b612018836121e3565b82336001600160a01b03167f928446b14f4c661d8499681f1d2eb118eb6e89066877a7d43e0672a27cc63a32878e8e8e8e60405161205a95949392919061345b565b60405180910390a3505060028054600101905598975050505050505050565b6000828152600160209081526040808320848452600e81019092528220829182916120a4878761129b565b6003820154600290920154909891975095509350505050565b6006546001600160a01b031681565b600082815260016020908152604080832060028101546001600160a01b03861685526004820190935290832054600b8201549192849261211692611344919063ffffffff61234d16565b6001600160a01b0385166000908152600c8401602052604090205490915081101561214657600092505050611355565b6001600160a01b0384166000908152600c8301602052604090205461135090829063ffffffff61232516565b6000818152600160205260409020600681015460ff16600281111561219357fe5b60010160028111156121a157fe5b60068201805460ff191660018360028111156121b957fe5b021790555060028211156121df5760405162461bcd60e51b815260040161066990613417565b5050565b6000818152600160205260408120905b600d82015481101561224b5780837f8270f0a0534b13b7f92d1dbd58aa75c5207b40c55fefa7a17110c6136ad7270b61222c868561129b565b4260405161223b929190613494565b60405180910390a36001016121f3565b50816000805160206134c3833981519152826002015461226a85611aa9565b4260405161227a93929190613445565b60405180910390a25050565b6000838152600160209081526040808320858452600e810183528184206001600160a01b0389168552600481019093529220546122c9908463ffffffff61232516565b6001600160a01b038716600090815260048301602052604090205560038101546122f9908463ffffffff61238716565b600380830191909155820154612315908463ffffffff61238716565b8260030181905550505050505050565b6000828211156123475760405162461bcd60e51b815260040161066990612fdb565b50900390565b60008261235c57506000611355565b8282028284828161236957fe5b0414611b555760405162461bcd60e51b815260040161066990613121565b600082820183811015611b555760405162461bcd60e51b815260040161066990612ec2565b6000828152600160205260408120905b600d82015481101561242f576000818152600e83016020526040902060038101546123ed908563ffffffff61232516565b60038201556002810154612407908563ffffffff61232516565b60028201556003830154612421908563ffffffff61232516565b6003840155506001016123bc565b506001810154612445908363ffffffff61232516565b6001909101555050565b6000828152600160205260408120905b600d8201548110156124d2576000818152600e8301602052604090206003810154612490908563ffffffff61238716565b600382015560028101546124aa908563ffffffff61238716565b600282015560038301546124c4908563ffffffff61238716565b60038401555060010161245f565b506001810154612445908363ffffffff61238716565b6000838152600160209081526040808320858452600e810183528184206001600160a01b03891685526004810190935292205461252b908463ffffffff61238716565b6001600160a01b0387166000908152600483016020526040902055600381015461255b908463ffffffff61232516565b600380830191909155820154612315908463ffffffff61232516565b600081815260016020908152604091829020600d810154835181815281840281019093019093526060929091839180156125bb578160200160208202803883390190505b50905060005b600d830154811015612602576000818152600e8401602052604090206003015482518390839081106125ef57fe5b60209081029190910101526001016125c1565b509392505050565b600082156126295781600184038161261e57fe5b046001019050611355565b81838161263257fe5b049392505050565b600082815260016020526040902054829042118015612676575060008181526001602052604081206006015460ff16600281111561267457fe5b145b156126845761268481612172565b8260008060008381526001602052604090206006015460ff1660028111156126a857fe5b146126c55760405162461bcd60e51b8152600401610669906132ba565b6000858152600160205260409020846126f05760405162461bcd60e51b815260040161066990612fa4565b600060606126fd88612577565b90506060815160405190808252806020026020018201604052801561272c578160200160208202803883390190505b5060028501549091506000901561281b5760005b835181101561277657600084828151811061275757fe5b602002602001015190508083101561276d578092505b50600101612740565b5060005b83518110156127e6576000826127ac86848151811061279557fe5b60200260200101518d61234d90919063ffffffff16565b816127b357fe5b0490506127c68b8263ffffffff61232516565b8483815181106127d257fe5b60209081029190910101525060010161277a565b50806127ff86600201548b61234d90919063ffffffff16565b8161280657fe5b0493506128158a856002612a06565b5061281f565b8893505b6002850154612834908563ffffffff61238716565b600286015533600090815260048601602052604090205461285b908563ffffffff61238716565b3360009081526004870160205260409020556128778a8a61244f565b60005b825181101561293d57600083828151811061289157fe5b60200260200101511115612935576003808701546000838152600e8901602052604090209091015484516128d19033908f90869089908290811061162257fe5b8c6000336001600160a01b03166000805160206134a3833981519152868988815181106128fa57fe5b60200260200101516129198e600301546113448d8c8151811061167757fe5b4260405161292a9493929190612db0565b60405180910390a450505b60010161287a565b5060006129498b611aa9565b90506000670de0b6b3a7640000612966838863ffffffff61234d16565b8161296d57fe5b0490508b6002336001600160a01b03166000805160206134a383398151915260008a86426040516129a19493929190612db0565b60405180910390a48b6000805160206134c3833981519152886002015484426040516129cf93929190613445565b60405180910390a2505050505050505050505050565b60008082116126295760405162461bcd60e51b815260040161066990613055565b60008381526001602052604081206002810154600b8201548391612a359161134490889063ffffffff61234d16565b90506002846007811115612a4557fe5b1415612a9e57600b820154612a60908263ffffffff61238716565b600b830155336000908152600c83016020526040902054612a87908263ffffffff61238716565b336000908152600c84016020526040902055612aed565b600b820154612ab3908263ffffffff61232516565b600b830155336000908152600c83016020526040902054612ada908263ffffffff61232516565b336000908152600c840160205260409020555b50509392505050565b80356001600160a01b038116811461135557600080fd5b60008083601f840112612b1e578182fd5b5081356001600160401b03811115612b34578182fd5b602083019150836020828501011115612b4c57600080fd5b9250929050565b600060208284031215612b64578081fd5b5051919050565b600080600080600080600060a0888a031215612b85578283fd5b87356001600160401b0380821115612b9b578485fd5b612ba78b838c01612b0d565b909950975060208a0135915080821115612bbf578485fd5b50612bcc8a828b01612b0d565b90965094505060408801359250612be68960608a01612af6565b91506080880135905092959891949750929550565b600060208284031215612c0c578081fd5b5035919050565b60008060408385031215612c25578182fd5b82359150612c368460208501612af6565b90509250929050565b60008060408385031215612c51578182fd5b50508035926020909101359150565b600080600060608486031215612c74578283fd5b505081359360208301359350604090920135919050565b60008060008060808587031215612ca0578384fd5b5050823594602084013594506040840135936060013592509050565b60008284528282602086013780602084860101526020601f19601f85011685010190509392505050565b6001600160a01b0391909116815260200190565b6020808252825182820181905260009190848201906040850190845b81811015612d3257835183529284019291840191600101612d16565b50909695505050505050565b901515815260200190565b94151585529215156020850152901515604084015215156060830152608082015260a00190565b90815260200190565b60c0810160038810612d8757fe5b968152602081019590955260408501939093526060840191909152608083015260a09091015290565b93845260208401929092526040830152606082015260800190565b600089825260e06020830152612de560e08301898b612cbc565b6001600160a01b039790971660408301525063ffffffff948516606082015292909316608083015260a082015260c001529392505050565b6020808252601b908201527a6d7573742068617665206e6f6e2d7a65726f2062616c616e63657360281b604082015260600190565b60208082526015908201527407374616b65206e6565647320746f206265203e203605c1b604082015260600190565b60208082526021908201527f7573657220646f6573206e6f7420686f6c64206f7574636f6d652073686172656040820152607360f81b606082015260800190565b6020808252601b908201527a536166654d6174683a206164646974696f6e206f766572666c6f7760281b604082015260600190565b602080825260129082015271073686172657320616d6f756e7420697320360741b604082015260600190565b6020808252602a908201527f7573657220646f6573206e6f7420686f6c64207265736f6c766564206f7574636040820152696f6d652073686172657360b01b606082015260800190565b6020808252601e908201527f6e756d626572206f66206f7574636f6d65732068617320746f20626520320000604082015260600190565b6020808252601f908201527f7374616b652068617320746f2062652067726561746572207468616e20302e00604082015260600190565b6020808252601e908201527f536166654d6174683a207375627472616374696f6e206f766572666c6f770000604082015260600190565b60208082526023908201527f4d61726b657420646f6573206e6f74206861766520656e6f7567682062616c616040820152626e636560e81b606082015260800190565b6020808252601a9082015279536166654d6174683a206469766973696f6e206279207a65726f60301b604082015260600190565b6020808252602a908201527f6d73672e73656e646572206d75737420686f6c64206d696e696d756d2065726360408201526932302062616c616e636560b01b606082015260800190565b6020808252602e908201527f7573657220616c726561647920636c61696d6564207265736f6c766564206f7560408201526d74636f6d652077696e6e696e677360901b606082015260800190565b60208082526021908201527f536166654d6174683a206d756c7469706c69636174696f6e206f766572666c6f6040820152607760f81b606082015260800190565b6020808252602a908201527f6d61726b6574206d757374207265736f6c7665206166746572207468652063756040820152697272656e74206461746560b01b606082015260800190565b60208082526027908201527f7573657220616c726561647920636c61696d6564206c69717569646974792077604082015266696e6e696e677360c81b606082015260800190565b60208082526023908201527f7573657220646f6573206e6f7420686f6c64206c69717569646974792073686160408201526272657360e81b606082015260800190565b60208082526023908201527f6d61726b657420646f6573206e6f74206861766520656e6f7567682062616c616040820152626e636560e81b606082015260800190565b60208082526021908201527f7573657220646f6573206e6f74206861766520656e6f7567682062616c616e636040820152606560f81b606082015260800190565b6020808252601990820152784d61726b657420696e20696e636f727265637420737461746560381b604082015260600190565b60208082526026908201527f6f7574636f6d652073686172657320706f6f6c2062616c616e636520697320746040820152656f6f206c6f7760d01b606082015260800190565b6020808252601a9082015279696e76616c69642061726269747261746f72206164647265737360301b604082015260600190565b6020808252601e908201527f6d696e696d756d2062757920616d6f756e74206e6f7420726561636865640000604082015260600190565b6020808252601c908201527b1b585e1a5b5d5b481cd95b1b08185b5bdd5b9d08195e18d95959195960221b604082015260600190565b60208082526023908201527f7573657220616c726561647920636c61696d6564206f7574636f6d652073686160408201526272657360e81b606082015260800190565b602080825260149082015273496e76616c6964206d61726b657420737461746560601b604082015260600190565b9283526020830191909152604082015260600190565b600086825260606020830152613475606083018688612cbc565b8281036040840152613488818587612cbc565b98975050505050505050565b91825260208201526040019056fe9dcabe311735ed0d65f0c22c5425d1f17331f94c9d0767f59e58473cf95ada611eca98f266e5348ae38d5d057a4d8e451e76672f69ac6ba4b0e3b31ea9c7eb2ba2646970667358221220c4ced5f5f04b5fb058ab26cb5058013663aae5026b8d50b7c3c073843054ee4964736f6c63430006020033",
  "source": "pragma solidity ^0.6.0;\npragma experimental ABIEncoderV2;\n\nimport \"./RealitioERC20.sol\";\n\n// openzeppelin imports\nimport \"@openzeppelin/contracts/math/SafeMath.sol\";\n\nlibrary CeilDiv {\n  // calculates ceil(x/y)\n  function ceildiv(uint256 x, uint256 y) internal pure returns (uint256) {\n    if (x > 0) return ((x - 1) / y) + 1;\n    return x / y;\n  }\n}\n\n/// @title Market Contract Factory\ncontract PredictionMarket {\n  using SafeMath for uint256;\n  using CeilDiv for uint256;\n\n  // ------ Events ------\n\n  event MarketCreated(address indexed user, uint256 indexed marketId, uint256 outcomes, string question, string image);\n\n  event MarketActionTx(\n    address indexed user,\n    MarketAction indexed action,\n    uint256 indexed marketId,\n    uint256 outcomeId,\n    uint256 shares,\n    uint256 value,\n    uint256 timestamp\n  );\n\n  event MarketOutcomePrice(uint256 indexed marketId, uint256 indexed outcomeId, uint256 value, uint256 timestamp);\n\n  event MarketLiquidity(\n    uint256 indexed marketId,\n    uint256 value, // total liquidity\n    uint256 price, // value of one liquidity share; max: 1 (50-50 situation)\n    uint256 timestamp\n  );\n\n  event MarketResolved(address indexed user, uint256 indexed marketId, uint256 outcomeId, uint256 timestamp);\n\n  // ------ Events End ------\n\n  uint256 public constant MAX_UINT_256 = 115792089237316195423570985008687907853269984665640564039457584007913129639935;\n\n  uint256 public constant ONE = 10**18;\n\n  enum MarketState {\n    open,\n    closed,\n    resolved\n  }\n  enum MarketAction {\n    buy,\n    sell,\n    addLiquidity,\n    removeLiquidity,\n    claimWinnings,\n    claimLiquidity,\n    claimFees,\n    claimVoided\n  }\n\n  struct Market {\n    // market details\n    uint256 closesAtTimestamp;\n    uint256 balance; // total stake\n    uint256 liquidity; // stake held\n    uint256 sharesAvailable; // shares held (all outcomes)\n    mapping(address => uint256) liquidityShares;\n    mapping(address => bool) liquidityClaims; // wether user has claimed liquidity earnings\n    MarketState state; // resolution variables\n    MarketResolution resolution; // fees\n    MarketFees fees;\n    // market outcomes\n    uint256[] outcomeIds;\n    mapping(uint256 => MarketOutcome) outcomes;\n  }\n\n  struct MarketFees {\n    uint256 value; // fee % taken from every transaction\n    uint256 poolWeight; // internal var used to ensure pro-rate fee distribution\n    mapping(address => uint256) claimed;\n  }\n\n  struct MarketResolution {\n    bool resolved;\n    uint256 outcomeId;\n    bytes32 questionId; // realitio questionId\n  }\n\n  struct MarketOutcome {\n    uint256 marketId;\n    uint256 id;\n    Shares shares;\n  }\n\n  struct Shares {\n    uint256 total; // number of shares\n    uint256 available; // available shares\n    mapping(address => uint256) holders;\n    mapping(address => bool) claims; // wether user has claimed winnings\n    mapping(address => bool) voidedClaims; // wether user has claimed voided market shares\n  }\n\n  uint256[] marketIds;\n  mapping(uint256 => Market) markets;\n  uint256 public marketIndex;\n\n  // governance\n  uint256 public fee; // fee % taken from every transaction\n  // realitio configs\n  address public realitioAddress;\n  uint256 public realitioTimeout;\n  // market creation\n  IERC20 public token; // token used for rewards / market creation\n  uint256 public requiredBalance; // required balance for market creation\n\n  // ------ Modifiers ------\n\n  modifier isMarket(uint256 marketId) {\n    require(marketId < marketIndex, \"Market not found\");\n    _;\n  }\n\n  modifier timeTransitions(uint256 marketId) {\n    if (now > markets[marketId].closesAtTimestamp && markets[marketId].state == MarketState.open) {\n      nextState(marketId);\n    }\n    _;\n  }\n\n  modifier atState(uint256 marketId, MarketState state) {\n    require(markets[marketId].state == state, \"Market in incorrect state\");\n    _;\n  }\n\n  modifier notAtState(uint256 marketId, MarketState state) {\n    require(markets[marketId].state != state, \"Market in incorrect state\");\n    _;\n  }\n\n  modifier transitionNext(uint256 marketId) {\n    _;\n    nextState(marketId);\n  }\n\n  modifier mustHoldRequiredBalance() {\n    require(token.balanceOf(msg.sender) >= requiredBalance, \"msg.sender must hold minimum erc20 balance\");\n    _;\n  }\n\n  // ------ Modifiers End ------\n\n  /// @dev protocol is immutable and has no ownership\n  constructor(\n    uint256 _fee,\n    IERC20 _token,\n    uint256 _requiredBalance,\n    address _realitioAddress,\n    uint256 _realitioTimeout\n  ) public {\n    require(_realitioAddress != address(0), \"_realitioAddress is address 0\");\n    require(_realitioTimeout > 0, \"timeout must be positive\");\n\n    fee = _fee;\n    token = _token;\n    requiredBalance = _requiredBalance;\n    realitioAddress = _realitioAddress;\n    realitioTimeout = _realitioTimeout;\n  }\n\n  // ------ Core Functions ------\n\n  /// @dev Creates a market, initializes the outcome shares pool and submits a question in Realitio\n  function createMarket(\n    string calldata question,\n    string calldata image,\n    uint256 closesAt,\n    address arbitrator,\n    uint256 outcomes\n  ) external payable mustHoldRequiredBalance() returns (uint256) {\n    uint256 marketId = marketIndex;\n    marketIds.push(marketId);\n\n    Market storage market = markets[marketId];\n\n    require(msg.value > 0, \"stake needs to be > 0\");\n    require(closesAt > now, \"market must resolve after the current date\");\n    require(arbitrator != address(0), \"invalid arbitrator address\");\n    // v1 - only binary markets\n    require(outcomes == 2, \"number of outcomes has to be 2\");\n\n    market.closesAtTimestamp = closesAt;\n    market.state = MarketState.open;\n    market.fees.value = fee;\n    // setting intial value to an integer that does not map to any outcomeId\n    market.resolution.outcomeId = MAX_UINT_256;\n\n    // creating market outcomes\n    for (uint256 i = 0; i < outcomes; i++) {\n      market.outcomeIds.push(i);\n      MarketOutcome storage outcome = market.outcomes[i];\n\n      outcome.marketId = marketId;\n      outcome.id = i;\n    }\n\n    // creating question in realitio\n    RealitioERC20 realitio = RealitioERC20(realitioAddress);\n\n    market.resolution.questionId = realitio.askQuestionERC20(\n      2,\n      question,\n      arbitrator,\n      uint32(realitioTimeout),\n      uint32(closesAt),\n      0,\n      0\n    );\n\n    addLiquidity(marketId, msg.value);\n\n    // emiting initial price events\n    emitMarketOutcomePriceEvents(marketId);\n    emit MarketCreated(msg.sender, marketId, outcomes, question, image);\n\n    // incrementing market array index\n    marketIndex = marketIndex + 1;\n\n    return marketId;\n  }\n\n  /// @dev Calculates the number of shares bought with \"amount\" balance\n  function calcBuyAmount(\n    uint256 amount,\n    uint256 marketId,\n    uint256 outcomeId\n  ) public view returns (uint256) {\n    Market storage market = markets[marketId];\n\n    uint256[] memory outcomesShares = getMarketOutcomesShares(marketId);\n    uint256 amountMinusFees = amount.sub(amount.mul(market.fees.value) / ONE);\n    uint256 buyTokenPoolBalance = outcomesShares[outcomeId];\n    uint256 endingOutcomeBalance = buyTokenPoolBalance.mul(ONE);\n    for (uint256 i = 0; i < outcomesShares.length; i++) {\n      if (i != outcomeId) {\n        uint256 outcomeShares = outcomesShares[i];\n        endingOutcomeBalance = endingOutcomeBalance.mul(outcomeShares).ceildiv(outcomeShares.add(amountMinusFees));\n      }\n    }\n    require(endingOutcomeBalance > 0, \"must have non-zero balances\");\n\n    return buyTokenPoolBalance.add(amountMinusFees).sub(endingOutcomeBalance.ceildiv(ONE));\n  }\n\n  /// @dev Calculates the number of shares needed to be sold in order to receive \"amount\" in balance\n  function calcSellAmount(\n    uint256 amount,\n    uint256 marketId,\n    uint256 outcomeId\n  ) public view returns (uint256 outcomeTokenSellAmount) {\n    Market storage market = markets[marketId];\n\n    uint256[] memory outcomesShares = getMarketOutcomesShares(marketId);\n    uint256 amountPlusFees = amount.mul(ONE) / ONE.sub(market.fees.value);\n    uint256 sellTokenPoolBalance = outcomesShares[outcomeId];\n    uint256 endingOutcomeBalance = sellTokenPoolBalance.mul(ONE);\n    for (uint256 i = 0; i < outcomesShares.length; i++) {\n      if (i != outcomeId) {\n        uint256 outcomeShares = outcomesShares[i];\n        endingOutcomeBalance = endingOutcomeBalance.mul(outcomeShares).ceildiv(outcomeShares.sub(amountPlusFees));\n      }\n    }\n    require(endingOutcomeBalance > 0, \"must have non-zero balances\");\n\n    return amountPlusFees.add(endingOutcomeBalance.ceildiv(ONE)).sub(sellTokenPoolBalance);\n  }\n\n  /// @dev Buy shares of a market outcome\n  function buy(\n    uint256 marketId,\n    uint256 outcomeId,\n    uint256 minOutcomeSharesToBuy\n  ) external payable timeTransitions(marketId) atState(marketId, MarketState.open) {\n    Market storage market = markets[marketId];\n\n    uint256 value = msg.value;\n    uint256 shares = calcBuyAmount(value, marketId, outcomeId);\n    require(shares >= minOutcomeSharesToBuy, \"minimum buy amount not reached\");\n    require(shares > 0, \"shares amount is 0\");\n\n    // subtracting fee from transaction value\n    uint256 feeAmount = value.mul(market.fees.value) / ONE;\n    market.fees.poolWeight = market.fees.poolWeight.add(feeAmount);\n    uint256 valueMinusFees = value.sub(feeAmount);\n\n    MarketOutcome storage outcome = market.outcomes[outcomeId];\n\n    // Funding market shares with received funds\n    addSharesToMarket(marketId, valueMinusFees);\n\n    require(outcome.shares.available >= shares, \"outcome shares pool balance is too low\");\n\n    transferOutcomeSharesfromPool(msg.sender, marketId, outcomeId, shares);\n\n    emit MarketActionTx(msg.sender, MarketAction.buy, marketId, outcomeId, shares, value, now);\n    emitMarketOutcomePriceEvents(marketId);\n  }\n\n  /// @dev Sell shares of a market outcome\n  function sell(\n    uint256 marketId,\n    uint256 outcomeId,\n    uint256 value,\n    uint256 maxOutcomeSharesToSell\n  ) external payable timeTransitions(marketId) atState(marketId, MarketState.open) {\n    Market storage market = markets[marketId];\n    MarketOutcome storage outcome = market.outcomes[outcomeId];\n\n    uint256 shares = calcSellAmount(value, marketId, outcomeId);\n\n    require(shares <= maxOutcomeSharesToSell, \"maximum sell amount exceeded\");\n    require(shares > 0, \"shares amount is 0\");\n    require(outcome.shares.holders[msg.sender] >= shares, \"user does not have enough balance\");\n\n    transferOutcomeSharesToPool(msg.sender, marketId, outcomeId, shares);\n\n    // adding fee to transaction value\n    uint256 feeAmount = value.mul(market.fees.value) / (ONE.sub(fee));\n    market.fees.poolWeight = market.fees.poolWeight.add(feeAmount);\n    uint256 valuePlusFees = value.add(feeAmount);\n\n    require(market.balance >= valuePlusFees, \"market does not have enough balance\");\n\n    // Rebalancing market shares\n    removeSharesFromMarket(marketId, valuePlusFees);\n\n    // Transferring funds to user\n    msg.sender.transfer(value);\n\n    emit MarketActionTx(msg.sender, MarketAction.sell, marketId, outcomeId, shares, value, now);\n    emitMarketOutcomePriceEvents(marketId);\n  }\n\n  /// @dev Adds liquidity to a market - external\n  function addLiquidity(uint256 marketId)\n    external\n    payable\n    timeTransitions(marketId)\n    atState(marketId, MarketState.open)\n  {\n    addLiquidity(marketId, msg.value);\n  }\n\n  /// @dev Private function, used by addLiquidity and CreateMarket\n  function addLiquidity(uint256 marketId, uint256 value)\n    private\n    timeTransitions(marketId)\n    atState(marketId, MarketState.open)\n  {\n    Market storage market = markets[marketId];\n\n    require(value > 0, \"stake has to be greater than 0.\");\n\n    uint256 liquidityAmount;\n\n    uint256[] memory outcomesShares = getMarketOutcomesShares(marketId);\n    uint256[] memory sendBackAmounts = new uint256[](outcomesShares.length);\n    uint256 poolWeight = 0;\n\n    if (market.liquidity > 0) {\n      // part of the liquidity is exchanged for outcome shares if market is not balanced\n      for (uint256 i = 0; i < outcomesShares.length; i++) {\n        uint256 outcomeShares = outcomesShares[i];\n        if (poolWeight < outcomeShares) poolWeight = outcomeShares;\n      }\n\n      for (uint256 i = 0; i < outcomesShares.length; i++) {\n        uint256 remaining = value.mul(outcomesShares[i]) / poolWeight;\n        sendBackAmounts[i] = value.sub(remaining);\n      }\n\n      liquidityAmount = value.mul(market.liquidity) / poolWeight;\n\n      // re-balancing fees pool\n      rebalanceFeesPool(marketId, liquidityAmount, MarketAction.addLiquidity);\n    } else {\n      // funding market with no liquidity\n      liquidityAmount = value;\n    }\n\n    // funding market\n    market.liquidity = market.liquidity.add(liquidityAmount);\n    market.liquidityShares[msg.sender] = market.liquidityShares[msg.sender].add(liquidityAmount);\n\n    addSharesToMarket(marketId, value);\n\n    // transform sendBackAmounts to array of amounts added\n    for (uint256 i = 0; i < sendBackAmounts.length; i++) {\n      if (sendBackAmounts[i] > 0) {\n        uint256 marketShares = market.sharesAvailable;\n        uint256 outcomeShares = market.outcomes[i].shares.available;\n        transferOutcomeSharesfromPool(msg.sender, marketId, i, sendBackAmounts[i]);\n        emit MarketActionTx(\n          msg.sender,\n          MarketAction.buy,\n          marketId,\n          i,\n          sendBackAmounts[i],\n          (marketShares.sub(outcomeShares)).mul(sendBackAmounts[i]).div(market.sharesAvailable), // price * shares\n          now\n        );\n      }\n    }\n\n    uint256 liquidityPrice = getMarketLiquidityPrice(marketId);\n    uint256 liquidityValue = liquidityPrice.mul(liquidityAmount) / ONE;\n    emit MarketActionTx(msg.sender, MarketAction.addLiquidity, marketId, 0, liquidityAmount, liquidityValue, now);\n    emit MarketLiquidity(marketId, market.liquidity, liquidityPrice, now);\n  }\n\n  /// @dev Removes liquidity to a market - external\n  function removeLiquidity(uint256 marketId, uint256 shares)\n    external\n    payable\n    timeTransitions(marketId)\n    atState(marketId, MarketState.open)\n  {\n    Market storage market = markets[marketId];\n\n    require(market.liquidityShares[msg.sender] >= shares, \"user does not have enough balance\");\n    // claiming any pending fees\n    claimFees(marketId);\n\n    // re-balancing fees pool\n    rebalanceFeesPool(marketId, shares, MarketAction.removeLiquidity);\n\n    uint256[] memory outcomesShares = getMarketOutcomesShares(marketId);\n    uint256[] memory sendAmounts = new uint256[](outcomesShares.length);\n    uint256 poolWeight = MAX_UINT_256;\n\n    // part of the liquidity is exchanged for outcome shares if market is not balanced\n    for (uint256 i = 0; i < outcomesShares.length; i++) {\n      uint256 outcomeShares = outcomesShares[i];\n      if (poolWeight > outcomeShares) poolWeight = outcomeShares;\n    }\n\n    uint256 liquidityAmount = shares.mul(poolWeight).div(market.liquidity);\n\n    for (uint256 i = 0; i < outcomesShares.length; i++) {\n      sendAmounts[i] = outcomesShares[i].mul(shares) / market.liquidity;\n      sendAmounts[i] = sendAmounts[i].sub(liquidityAmount);\n    }\n\n    // removing liquidity from market\n    removeSharesFromMarket(marketId, liquidityAmount);\n    market.liquidity = market.liquidity.sub(shares);\n    // removing liquidity tokens from market creator\n    market.liquidityShares[msg.sender] = market.liquidityShares[msg.sender].sub(shares);\n\n    for (uint256 i = 0; i < outcomesShares.length; i++) {\n      if (sendAmounts[i] > 0) {\n        uint256 marketShares = market.sharesAvailable;\n        uint256 outcomeShares = market.outcomes[i].shares.available;\n\n        transferOutcomeSharesfromPool(msg.sender, marketId, i, sendAmounts[i]);\n        emit MarketActionTx(\n          msg.sender,\n          MarketAction.buy,\n          marketId,\n          i,\n          sendAmounts[i],\n          (marketShares.sub(outcomeShares)).mul(sendAmounts[i]).div(market.sharesAvailable), // price * shares\n          now\n        );\n      }\n    }\n\n    // transferring user funds from liquidity removed\n    msg.sender.transfer(liquidityAmount);\n\n    emit MarketActionTx(msg.sender, MarketAction.removeLiquidity, marketId, 0, shares, liquidityAmount, now);\n    emit MarketLiquidity(marketId, market.liquidity, getMarketLiquidityPrice(marketId), now);\n  }\n\n  /// @dev Fetches winning outcome from Realitio and resolves the market\n  function resolveMarketOutcome(uint256 marketId)\n    external\n    timeTransitions(marketId)\n    atState(marketId, MarketState.closed)\n    transitionNext(marketId)\n    returns (uint256)\n  {\n    Market storage market = markets[marketId];\n\n    RealitioERC20 realitio = RealitioERC20(realitioAddress);\n    // will fail if question is not finalized\n    uint256 outcomeId = uint256(realitio.resultFor(market.resolution.questionId));\n\n    market.resolution.outcomeId = outcomeId;\n\n    emit MarketResolved(msg.sender, marketId, outcomeId, now);\n    emitMarketOutcomePriceEvents(marketId);\n\n    return market.resolution.outcomeId;\n  }\n\n  /// @dev Allows holders of resolved outcome shares to claim earnings.\n  function claimWinnings(uint256 marketId) external atState(marketId, MarketState.resolved) {\n    Market storage market = markets[marketId];\n    MarketOutcome storage resolvedOutcome = market.outcomes[market.resolution.outcomeId];\n\n    require(resolvedOutcome.shares.holders[msg.sender] > 0, \"user does not hold resolved outcome shares\");\n    require(resolvedOutcome.shares.claims[msg.sender] == false, \"user already claimed resolved outcome winnings\");\n\n    // 1 share => price = 1\n    uint256 value = resolvedOutcome.shares.holders[msg.sender];\n\n    // assuring market has enough funds\n    require(market.balance >= value, \"Market does not have enough balance\");\n\n    market.balance = market.balance.sub(value);\n    resolvedOutcome.shares.claims[msg.sender] = true;\n\n    emit MarketActionTx(\n      msg.sender,\n      MarketAction.claimWinnings,\n      marketId,\n      market.resolution.outcomeId,\n      resolvedOutcome.shares.holders[msg.sender],\n      value,\n      now\n    );\n\n    msg.sender.transfer(value);\n  }\n\n  /// @dev Allows holders of voided outcome shares to claim balance back.\n  function claimVoidedOutcomeShares(uint256 marketId, uint256 outcomeId)\n    external\n    atState(marketId, MarketState.resolved)\n  {\n    Market storage market = markets[marketId];\n    MarketOutcome storage outcome = market.outcomes[outcomeId];\n\n    require(outcome.shares.holders[msg.sender] > 0, \"user does not hold outcome shares\");\n    require(outcome.shares.voidedClaims[msg.sender] == false, \"user already claimed outcome shares\");\n\n    // voided market - shares are valued at last market price\n    uint256 price = getMarketOutcomePrice(marketId, outcomeId);\n    uint256 value = price.mul(outcome.shares.holders[msg.sender]).div(ONE);\n\n    // assuring market has enough funds\n    require(market.balance >= value, \"Market does not have enough balance\");\n\n    market.balance = market.balance.sub(value);\n    outcome.shares.voidedClaims[msg.sender] = true;\n\n    emit MarketActionTx(\n      msg.sender,\n      MarketAction.claimVoided,\n      marketId,\n      outcomeId,\n      outcome.shares.holders[msg.sender],\n      value,\n      now\n    );\n\n    msg.sender.transfer(value);\n  }\n\n  /// @dev Allows liquidity providers to claim earnings from liquidity providing.\n  function claimLiquidity(uint256 marketId) external atState(marketId, MarketState.resolved) {\n    Market storage market = markets[marketId];\n\n    // claiming any pending fees\n    claimFees(marketId);\n\n    require(market.liquidityShares[msg.sender] > 0, \"user does not hold liquidity shares\");\n    require(market.liquidityClaims[msg.sender] == false, \"user already claimed liquidity winnings\");\n\n    // value = total resolved outcome pool shares * pool share (%)\n    uint256 liquidityPrice = getMarketLiquidityPrice(marketId);\n    uint256 value = liquidityPrice.mul(market.liquidityShares[msg.sender]) / ONE;\n\n    // assuring market has enough funds\n    require(market.balance >= value, \"Market does not have enough balance\");\n\n    market.balance = market.balance.sub(value);\n    market.liquidityClaims[msg.sender] = true;\n\n    emit MarketActionTx(\n      msg.sender,\n      MarketAction.claimLiquidity,\n      marketId,\n      0,\n      market.liquidityShares[msg.sender],\n      value,\n      now\n    );\n\n    msg.sender.transfer(value);\n  }\n\n  /// @dev Allows liquidity providers to claim their fees share from fees pool\n  function claimFees(uint256 marketId) public payable {\n    Market storage market = markets[marketId];\n\n    uint256 claimableFees = getUserClaimableFees(marketId, msg.sender);\n\n    if (claimableFees > 0) {\n      market.fees.claimed[msg.sender] = market.fees.claimed[msg.sender].add(claimableFees);\n      msg.sender.transfer(claimableFees);\n    }\n\n    emit MarketActionTx(\n      msg.sender,\n      MarketAction.claimFees,\n      marketId,\n      0,\n      market.liquidityShares[msg.sender],\n      claimableFees,\n      now\n    );\n  }\n\n  /// @dev Rebalances the fees pool. Needed in every AddLiquidity / RemoveLiquidity call\n  function rebalanceFeesPool(\n    uint256 marketId,\n    uint256 liquidityShares,\n    MarketAction action\n  ) private returns (uint256) {\n    Market storage market = markets[marketId];\n\n    uint256 poolWeight = liquidityShares.mul(market.fees.poolWeight).div(market.liquidity);\n\n    if (action == MarketAction.addLiquidity) {\n      market.fees.poolWeight = market.fees.poolWeight.add(poolWeight);\n      market.fees.claimed[msg.sender] = market.fees.claimed[msg.sender].add(poolWeight);\n    } else {\n      market.fees.poolWeight = market.fees.poolWeight.sub(poolWeight);\n      market.fees.claimed[msg.sender] = market.fees.claimed[msg.sender].sub(poolWeight);\n    }\n  }\n\n  /// @dev Transitions market to next state\n  function nextState(uint256 marketId) private {\n    Market storage market = markets[marketId];\n    market.state = MarketState(uint256(market.state) + 1);\n    require(marketId <= 2, \"Invalid market state\");\n  }\n\n  /// @dev Emits a outcome price event for every outcome\n  function emitMarketOutcomePriceEvents(uint256 marketId) private {\n    Market storage market = markets[marketId];\n\n    for (uint256 i = 0; i < market.outcomeIds.length; i++) {\n      emit MarketOutcomePrice(marketId, i, getMarketOutcomePrice(marketId, i), now);\n    }\n\n    // liquidity shares also change value\n    emit MarketLiquidity(marketId, market.liquidity, getMarketLiquidityPrice(marketId), now);\n  }\n\n  /// @dev Adds outcome shares to shares pool\n  function addSharesToMarket(uint256 marketId, uint256 shares) private {\n    Market storage market = markets[marketId];\n\n    for (uint256 i = 0; i < market.outcomeIds.length; i++) {\n      MarketOutcome storage outcome = market.outcomes[i];\n\n      outcome.shares.available = outcome.shares.available.add(shares);\n      outcome.shares.total = outcome.shares.total.add(shares);\n\n      // only adding to market total shares, the available remains\n      market.sharesAvailable = market.sharesAvailable.add(shares);\n    }\n\n    market.balance = market.balance.add(shares);\n  }\n\n  /// @dev Removes outcome shares from shares pool\n  function removeSharesFromMarket(uint256 marketId, uint256 shares) private {\n    Market storage market = markets[marketId];\n\n    for (uint256 i = 0; i < market.outcomeIds.length; i++) {\n      MarketOutcome storage outcome = market.outcomes[i];\n\n      outcome.shares.available = outcome.shares.available.sub(shares);\n      outcome.shares.total = outcome.shares.total.sub(shares);\n\n      // only subtracting from market total shares, the available remains\n      market.sharesAvailable = market.sharesAvailable.sub(shares);\n    }\n\n    market.balance = market.balance.sub(shares);\n  }\n\n  /// @dev Transfer outcome shares from pool to user balance\n  function transferOutcomeSharesfromPool(\n    address user,\n    uint256 marketId,\n    uint256 outcomeId,\n    uint256 shares\n  ) private {\n    Market storage market = markets[marketId];\n    MarketOutcome storage outcome = market.outcomes[outcomeId];\n\n    // transfering shares from shares pool to user\n    outcome.shares.holders[user] = outcome.shares.holders[user].add(shares);\n    outcome.shares.available = outcome.shares.available.sub(shares);\n    market.sharesAvailable = market.sharesAvailable.sub(shares);\n  }\n\n  /// @dev Transfer outcome shares from user balance back to pool\n  function transferOutcomeSharesToPool(\n    address user,\n    uint256 marketId,\n    uint256 outcomeId,\n    uint256 shares\n  ) private {\n    Market storage market = markets[marketId];\n    MarketOutcome storage outcome = market.outcomes[outcomeId];\n\n    // adding shares back to pool\n    outcome.shares.holders[user] = outcome.shares.holders[user].sub(shares);\n    outcome.shares.available = outcome.shares.available.add(shares);\n    market.sharesAvailable = market.sharesAvailable.add(shares);\n  }\n\n  // ------ Core Functions End ------\n\n  // ------ Getters ------\n\n  function getUserMarketShares(uint256 marketId, address user)\n    external\n    view\n    returns (\n      uint256,\n      uint256,\n      uint256\n    )\n  {\n    Market storage market = markets[marketId];\n\n    return (\n      market.liquidityShares[user],\n      market.outcomes[0].shares.holders[user],\n      market.outcomes[1].shares.holders[user]\n    );\n  }\n\n  function getUserClaimStatus(uint256 marketId, address user)\n    external\n    view\n    returns (\n      bool,\n      bool,\n      bool,\n      bool,\n      uint256\n    )\n  {\n    Market storage market = markets[marketId];\n\n    // market still not resolved\n    if (market.state != MarketState.resolved) {\n      return (false, false, false, false, getUserClaimableFees(marketId, user));\n    }\n\n    MarketOutcome storage outcome = market.outcomes[market.resolution.outcomeId];\n\n    return (\n      outcome.shares.holders[user] > 0,\n      outcome.shares.claims[user],\n      market.liquidityShares[user] > 0,\n      market.liquidityClaims[user],\n      getUserClaimableFees(marketId, user)\n    );\n  }\n\n  function getUserLiquidityPoolShare(uint256 marketId, address user) external view returns (uint256) {\n    Market storage market = markets[marketId];\n\n    return market.liquidityShares[user].mul(ONE).div(market.liquidity);\n  }\n\n  function getUserClaimableFees(uint256 marketId, address user) public view returns (uint256) {\n    Market storage market = markets[marketId];\n\n    uint256 rawAmount = market.fees.poolWeight.mul(market.liquidityShares[user]).div(market.liquidity);\n\n    // No fees left to claim\n    if (market.fees.claimed[user] > rawAmount) return 0;\n\n    return rawAmount.sub(market.fees.claimed[user]);\n  }\n\n  function getMarkets() external view returns (uint256[] memory) {\n    return marketIds;\n  }\n\n  function getMarketData(uint256 marketId)\n    external\n    view\n    returns (\n      MarketState,\n      uint256,\n      uint256,\n      uint256,\n      uint256,\n      int256\n    )\n  {\n    Market storage market = markets[marketId];\n\n    return (\n      market.state,\n      market.closesAtTimestamp,\n      market.liquidity,\n      market.balance,\n      market.sharesAvailable,\n      getMarketResolvedOutcome(marketId)\n    );\n  }\n\n  function getMarketAltData(uint256 marketId)\n    external\n    view\n    returns (\n      uint256,\n      bytes32,\n      uint256\n    )\n  {\n    Market storage market = markets[marketId];\n\n    return (market.fees.value, market.resolution.questionId, uint256(market.resolution.questionId));\n  }\n\n  function getMarketQuestion(uint256 marketId) external view returns (bytes32) {\n    Market storage market = markets[marketId];\n\n    return (market.resolution.questionId);\n  }\n\n  function getMarketPrices(uint256 marketId)\n    external\n    view\n    returns (\n      uint256,\n      uint256,\n      uint256\n    )\n  {\n    return (getMarketLiquidityPrice(marketId), getMarketOutcomePrice(marketId, 0), getMarketOutcomePrice(marketId, 1));\n  }\n\n  function getMarketLiquidityPrice(uint256 marketId) public view returns (uint256) {\n    Market storage market = markets[marketId];\n\n    if (market.state == MarketState.resolved && !isMarketVoided(marketId)) {\n      // resolved market, price is either 0 or 1\n      // final liquidity price = outcome shares / liquidity shares\n      return market.outcomes[market.resolution.outcomeId].shares.available.mul(ONE).div(market.liquidity);\n    }\n\n    // liquidity price = # liquidity shares / # outcome shares * # outcomes\n    return market.liquidity.mul(ONE * market.outcomeIds.length).div(market.sharesAvailable);\n  }\n\n  function getMarketResolvedOutcome(uint256 marketId) public view returns (int256) {\n    Market storage market = markets[marketId];\n\n    // returning -1 if market still not resolved\n    if (market.state != MarketState.resolved) {\n      return -1;\n    }\n\n    return int256(market.resolution.outcomeId);\n  }\n\n  function isMarketVoided(uint256 marketId) public view returns (bool) {\n    Market storage market = markets[marketId];\n\n    // market still not resolved, still in valid state\n    if (market.state != MarketState.resolved) {\n      return false;\n    }\n\n    // resolved market id does not match any of the market ids\n    return market.resolution.outcomeId >= market.outcomeIds.length;\n  }\n\n  // ------ Outcome Getters ------\n\n  function getMarketOutcomeIds(uint256 marketId) external view returns (uint256[] memory) {\n    Market storage market = markets[marketId];\n    return market.outcomeIds;\n  }\n\n  function getMarketOutcomePrice(uint256 marketId, uint256 outcomeId) public view returns (uint256) {\n    Market storage market = markets[marketId];\n    MarketOutcome storage outcome = market.outcomes[outcomeId];\n\n    if (market.state == MarketState.resolved && !isMarketVoided(marketId)) {\n      // resolved market, price is either 0 or 1\n      return outcomeId == market.resolution.outcomeId ? ONE : 0;\n    }\n\n    return (market.sharesAvailable.sub(outcome.shares.available)).mul(ONE).div(market.sharesAvailable);\n  }\n\n  function getMarketOutcomeData(uint256 marketId, uint256 outcomeId)\n    external\n    view\n    returns (\n      uint256,\n      uint256,\n      uint256\n    )\n  {\n    Market storage market = markets[marketId];\n    MarketOutcome storage outcome = market.outcomes[outcomeId];\n\n    return (getMarketOutcomePrice(marketId, outcomeId), outcome.shares.available, outcome.shares.total);\n  }\n\n  function getMarketOutcomesShares(uint256 marketId) private view returns (uint256[] memory) {\n    Market storage market = markets[marketId];\n\n    uint256[] memory shares = new uint256[](market.outcomeIds.length);\n    for (uint256 i = 0; i < market.outcomeIds.length; i++) {\n      shares[i] = market.outcomes[i].shares.available;\n    }\n\n    return shares;\n  }\n}\n",
  "sourcePath": "/Users/ricardomarques/dev/workspace/polkamarkets/bepro-js/contracts/PredictionMarket.sol",
  "compiler": {
    "name": "solc",
    "version": "0.6.2+commit.bacdbe57.Emscripten.clang"
  },
  "schemaVersion": "3.3.4",
  "updatedAt": "2022-01-14T07:46:10.287Z",
  "devdoc": {
    "methods": {
      "addLiquidity(uint256)": {
        "details": "Adds liquidity to a market - external"
      },
      "buy(uint256,uint256,uint256)": {
        "details": "Buy shares of a market outcome"
      },
      "calcBuyAmount(uint256,uint256,uint256)": {
        "details": "Calculates the number of shares bought with \"amount\" balance"
      },
      "calcSellAmount(uint256,uint256,uint256)": {
        "details": "Calculates the number of shares needed to be sold in order to receive \"amount\" in balance"
      },
      "claimFees(uint256)": {
        "details": "Allows liquidity providers to claim their fees share from fees pool"
      },
      "claimLiquidity(uint256)": {
        "details": "Allows liquidity providers to claim earnings from liquidity providing."
      },
      "claimVoidedOutcomeShares(uint256,uint256)": {
        "details": "Allows holders of voided outcome shares to claim balance back."
      },
      "claimWinnings(uint256)": {
        "details": "Allows holders of resolved outcome shares to claim earnings."
      },
      "constructor": {
        "details": "protocol is immutable and has no ownership"
      },
      "createMarket(string,string,uint256,address,uint256)": {
        "details": "Creates a market, initializes the outcome shares pool and submits a question in Realitio"
      },
      "removeLiquidity(uint256,uint256)": {
        "details": "Removes liquidity to a market - external"
      },
      "resolveMarketOutcome(uint256)": {
        "details": "Fetches winning outcome from Realitio and resolves the market"
      },
      "sell(uint256,uint256,uint256,uint256)": {
        "details": "Sell shares of a market outcome"
      }
    },
    "title": "Market Contract Factory"
  },
  "userdoc": {
    "methods": {}
  }
}