{
  "contractName": "PredictionMarket",
  "abi": [
    {
      "constant": true,
      "inputs": [],
      "name": "MAX_UINT_256",
      "outputs": [
        {
          "name": "",
          "type": "uint256"
        }
      ],
      "payable": false,
      "stateMutability": "view",
      "type": "function"
    },
    {
      "constant": true,
      "inputs": [],
      "name": "marketIndex",
      "outputs": [
        {
          "name": "",
          "type": "uint256"
        }
      ],
      "payable": false,
      "stateMutability": "view",
      "type": "function"
    },
    {
      "constant": true,
      "inputs": [],
      "name": "owner",
      "outputs": [
        {
          "name": "",
          "type": "address"
        }
      ],
      "payable": false,
      "stateMutability": "view",
      "type": "function"
    },
    {
      "constant": true,
      "inputs": [
        {
          "name": "",
          "type": "uint256"
        }
      ],
      "name": "markets",
      "outputs": [
        {
          "name": "name",
          "type": "string"
        },
        {
          "name": "closedDateTime",
          "type": "uint256"
        },
        {
          "name": "liquidityTotal",
          "type": "uint256"
        },
        {
          "name": "liquidityAvailable",
          "type": "uint256"
        },
        {
          "name": "sharesTotal",
          "type": "uint256"
        },
        {
          "name": "sharesAvailable",
          "type": "uint256"
        },
        {
          "name": "state",
          "type": "uint8"
        },
        {
          "name": "oracle",
          "type": "address"
        },
        {
          "name": "winner",
          "type": "address"
        }
      ],
      "payable": false,
      "stateMutability": "view",
      "type": "function"
    },
    {
      "constant": false,
      "inputs": [
        {
          "name": "newOwner",
          "type": "address"
        }
      ],
      "name": "transferOwnership",
      "outputs": [],
      "payable": false,
      "stateMutability": "nonpayable",
      "type": "function"
    },
    {
      "inputs": [],
      "payable": false,
      "stateMutability": "nonpayable",
      "type": "constructor"
    },
    {
      "payable": true,
      "stateMutability": "payable",
      "type": "fallback"
    },
    {
      "anonymous": false,
      "inputs": [
        {
          "indexed": true,
          "name": "previousOwner",
          "type": "address"
        },
        {
          "indexed": true,
          "name": "newOwner",
          "type": "address"
        }
      ],
      "name": "OwnershipTransferred",
      "type": "event"
    },
    {
      "constant": false,
      "inputs": [
        {
          "name": "name",
          "type": "string"
        },
        {
          "name": "duration",
          "type": "uint256"
        },
        {
          "name": "oracle",
          "type": "address"
        },
        {
          "name": "outcome1",
          "type": "string"
        },
        {
          "name": "outcome2",
          "type": "string"
        }
      ],
      "name": "createMarket",
      "outputs": [],
      "payable": true,
      "stateMutability": "payable",
      "type": "function"
    },
    {
      "constant": false,
      "inputs": [
        {
          "name": "marketId",
          "type": "uint256"
        },
        {
          "name": "outcomeId",
          "type": "uint256"
        }
      ],
      "name": "buy",
      "outputs": [],
      "payable": true,
      "stateMutability": "payable",
      "type": "function"
    },
    {
      "constant": false,
      "inputs": [
        {
          "name": "marketId",
          "type": "uint256"
        },
        {
          "name": "outcomeId",
          "type": "uint256"
        },
        {
          "name": "shares",
          "type": "uint256"
        }
      ],
      "name": "sell",
      "outputs": [],
      "payable": true,
      "stateMutability": "payable",
      "type": "function"
    },
    {
      "constant": false,
      "inputs": [
        {
          "name": "marketId",
          "type": "uint256"
        }
      ],
      "name": "addLiquidity",
      "outputs": [],
      "payable": true,
      "stateMutability": "payable",
      "type": "function"
    },
    {
      "constant": false,
      "inputs": [
        {
          "name": "marketId",
          "type": "uint256"
        },
        {
          "name": "shares",
          "type": "uint256"
        }
      ],
      "name": "removeLiquidity",
      "outputs": [],
      "payable": true,
      "stateMutability": "payable",
      "type": "function"
    },
    {
      "constant": false,
      "inputs": [
        {
          "name": "marketId",
          "type": "uint256"
        },
        {
          "name": "outcomeId",
          "type": "uint256"
        }
      ],
      "name": "resolveMarketOutcome",
      "outputs": [
        {
          "name": "",
          "type": "address"
        }
      ],
      "payable": false,
      "stateMutability": "nonpayable",
      "type": "function"
    },
    {
      "constant": false,
      "inputs": [
        {
          "name": "marketId",
          "type": "uint256"
        }
      ],
      "name": "winnerWithdraw",
      "outputs": [],
      "payable": false,
      "stateMutability": "nonpayable",
      "type": "function"
    },
    {
      "constant": true,
      "inputs": [
        {
          "name": "marketId",
          "type": "uint256"
        },
        {
          "name": "outcomeId",
          "type": "uint256"
        }
      ],
      "name": "myShares",
      "outputs": [
        {
          "name": "",
          "type": "uint256"
        }
      ],
      "payable": false,
      "stateMutability": "view",
      "type": "function"
    },
    {
      "constant": true,
      "inputs": [
        {
          "name": "marketId",
          "type": "uint256"
        }
      ],
      "name": "myLiquidityShares",
      "outputs": [
        {
          "name": "",
          "type": "uint256"
        }
      ],
      "payable": false,
      "stateMutability": "view",
      "type": "function"
    },
    {
      "constant": true,
      "inputs": [],
      "name": "getMarkets",
      "outputs": [
        {
          "name": "",
          "type": "uint256[]"
        }
      ],
      "payable": false,
      "stateMutability": "view",
      "type": "function"
    },
    {
      "constant": true,
      "inputs": [
        {
          "name": "marketId",
          "type": "uint256"
        }
      ],
      "name": "getMarketName",
      "outputs": [
        {
          "name": "",
          "type": "string"
        }
      ],
      "payable": false,
      "stateMutability": "view",
      "type": "function"
    },
    {
      "constant": true,
      "inputs": [
        {
          "name": "marketId",
          "type": "uint256"
        }
      ],
      "name": "getMarketClosedDateTime",
      "outputs": [
        {
          "name": "",
          "type": "uint256"
        }
      ],
      "payable": false,
      "stateMutability": "view",
      "type": "function"
    },
    {
      "constant": true,
      "inputs": [
        {
          "name": "marketId",
          "type": "uint256"
        }
      ],
      "name": "getMarketState",
      "outputs": [
        {
          "name": "",
          "type": "uint8"
        }
      ],
      "payable": false,
      "stateMutability": "view",
      "type": "function"
    },
    {
      "constant": true,
      "inputs": [
        {
          "name": "marketId",
          "type": "uint256"
        }
      ],
      "name": "getMarketWinner",
      "outputs": [
        {
          "name": "",
          "type": "address"
        }
      ],
      "payable": false,
      "stateMutability": "view",
      "type": "function"
    },
    {
      "constant": true,
      "inputs": [
        {
          "name": "marketId",
          "type": "uint256"
        }
      ],
      "name": "getMarketOracle",
      "outputs": [
        {
          "name": "",
          "type": "address"
        }
      ],
      "payable": false,
      "stateMutability": "view",
      "type": "function"
    },
    {
      "constant": true,
      "inputs": [
        {
          "name": "marketId",
          "type": "uint256"
        }
      ],
      "name": "getMarketAvailableLiquidity",
      "outputs": [
        {
          "name": "",
          "type": "uint256"
        }
      ],
      "payable": false,
      "stateMutability": "view",
      "type": "function"
    },
    {
      "constant": true,
      "inputs": [
        {
          "name": "marketId",
          "type": "uint256"
        }
      ],
      "name": "getMarketTotalLiquidity",
      "outputs": [
        {
          "name": "",
          "type": "uint256"
        }
      ],
      "payable": false,
      "stateMutability": "view",
      "type": "function"
    },
    {
      "constant": true,
      "inputs": [
        {
          "name": "marketId",
          "type": "uint256"
        }
      ],
      "name": "getMarketTotalShares",
      "outputs": [
        {
          "name": "",
          "type": "uint256"
        }
      ],
      "payable": false,
      "stateMutability": "view",
      "type": "function"
    },
    {
      "constant": true,
      "inputs": [
        {
          "name": "marketId",
          "type": "uint256"
        }
      ],
      "name": "getMarketAvailableShares",
      "outputs": [
        {
          "name": "",
          "type": "uint256"
        }
      ],
      "payable": false,
      "stateMutability": "view",
      "type": "function"
    },
    {
      "constant": true,
      "inputs": [
        {
          "name": "marketId",
          "type": "uint256"
        }
      ],
      "name": "getMarketOutcomeIds",
      "outputs": [
        {
          "name": "",
          "type": "uint256[]"
        }
      ],
      "payable": false,
      "stateMutability": "view",
      "type": "function"
    },
    {
      "constant": true,
      "inputs": [
        {
          "name": "marketId",
          "type": "uint256"
        },
        {
          "name": "marketOutcomeId",
          "type": "uint256"
        }
      ],
      "name": "getMarketOutcomeName",
      "outputs": [
        {
          "name": "",
          "type": "string"
        }
      ],
      "payable": false,
      "stateMutability": "view",
      "type": "function"
    },
    {
      "constant": true,
      "inputs": [
        {
          "name": "marketId",
          "type": "uint256"
        },
        {
          "name": "marketOutcomeId",
          "type": "uint256"
        }
      ],
      "name": "getMarketOutcomePrice",
      "outputs": [
        {
          "name": "",
          "type": "uint256"
        }
      ],
      "payable": false,
      "stateMutability": "view",
      "type": "function"
    },
    {
      "constant": true,
      "inputs": [
        {
          "name": "marketId",
          "type": "uint256"
        },
        {
          "name": "marketOutcomeId",
          "type": "uint256"
        }
      ],
      "name": "getMarketOutcomeAvailableShares",
      "outputs": [
        {
          "name": "",
          "type": "uint256"
        }
      ],
      "payable": false,
      "stateMutability": "view",
      "type": "function"
    },
    {
      "constant": true,
      "inputs": [
        {
          "name": "marketId",
          "type": "uint256"
        },
        {
          "name": "marketOutcomeId",
          "type": "uint256"
        }
      ],
      "name": "getMarketOutcomeTotalShares",
      "outputs": [
        {
          "name": "",
          "type": "uint256"
        }
      ],
      "payable": false,
      "stateMutability": "view",
      "type": "function"
    }
  ],
  "bytecode": "0x6080604052600060035534801561001557600080fd5b50336000806101000a81548173ffffffffffffffffffffffffffffffffffffffff021916908373ffffffffffffffffffffffffffffffffffffffff160217905550613dfa806100656000396000f3fe6080604052600436106101c25760003560e01c80638c8d12af116100f7578063b1bbd45311610095578063d3c9727c11610064578063d3c9727c14610d8f578063d6febde814610dd1578063ec2c901614610e09578063f2fde38b14610e75576101c2565b8063b1bbd45314610c49578063b56e98b114610c84578063cc38d72514610cdd578063cef81bc514610d36576101c2565b80639d7de6b3116100d15780639d7de6b314610a21578063a9bcea8314610a59578063acad4fed14610aa8578063b1283e7714610af7576101c2565b80638c8d12af146109225780638cd41552146109715780638da5cb5b146109ca576101c2565b8063660540381161016457806388b1f1c31161013e57806388b1f1c31461072857806388fd5e30146107855780638b8ea480146108435780638c7adc15146108f7576101c2565b806366054038146105e357806367e37c0f1461065e5780636a69f54c146106ad576101c2565b80633d41a26b116101a05780633d41a26b146104ec57806349aa23901461051757806351c6590a14610566578063568fe54d14610594576101c2565b80632855482e146101c45780632bd81c2a1461024957806331877a381461045c575b005b3480156101d057600080fd5b50610207600480360360408110156101e757600080fd5b810190808035906020019092919080359060200190929190505050610ec6565b604051808273ffffffffffffffffffffffffffffffffffffffff1673ffffffffffffffffffffffffffffffffffffffff16815260200191505060405180910390f35b61045a600480360360a081101561025f57600080fd5b810190808035906020019064010000000081111561027c57600080fd5b82018360208201111561028e57600080fd5b803590602001918460018302840111640100000000831117156102b057600080fd5b91908080601f016020809104026020016040519081016040528093929190818152602001838380828437600081840152601f19601f82011690508083019250505050505050919291929080359060200190929190803573ffffffffffffffffffffffffffffffffffffffff1690602001909291908035906020019064010000000081111561033d57600080fd5b82018360208201111561034f57600080fd5b8035906020019184600183028401116401000000008311171561037157600080fd5b91908080601f016020809104026020016040519081016040528093929190818152602001838380828437600081840152601f19601f820116905080830192505050505050509192919290803590602001906401000000008111156103d457600080fd5b8201836020820111156103e657600080fd5b8035906020019184600183028401116401000000008311171561040857600080fd5b91908080601f016020809104026020016040519081016040528093929190818152602001838380828437600081840152601f19601f820116905080830192505050505050509192919290505050610f87565b005b34801561046857600080fd5b506104956004803603602081101561047f57600080fd5b81019080803590602001909291905050506114af565b6040518080602001828103825283818151815260200191508051906020019060200280838360005b838110156104d85780820151818401526020810190506104bd565b505050509050019250505060405180910390f35b3480156104f857600080fd5b50610501611523565b6040518082815260200191505060405180910390f35b34801561052357600080fd5b506105506004803603602081101561053a57600080fd5b8101908080359060200190929190505050611547565b6040518082815260200191505060405180910390f35b6105926004803603602081101561057c57600080fd5b810190808035906020019092919050505061156c565b005b3480156105a057600080fd5b506105cd600480360360208110156105b757600080fd5b8101908080359060200190929190505050611989565b6040518082815260200191505060405180910390f35b3480156105ef57600080fd5b5061061c6004803603602081101561060657600080fd5b81019080803590602001909291905050506119ae565b604051808273ffffffffffffffffffffffffffffffffffffffff1673ffffffffffffffffffffffffffffffffffffffff16815260200191505060405180910390f35b34801561066a57600080fd5b506106976004803603602081101561068157600080fd5b81019080803590602001909291905050506119f3565b6040518082815260200191505060405180910390f35b3480156106b957600080fd5b506106e6600480360360208110156106d057600080fd5b8101908080359060200190929190505050611a18565b604051808273ffffffffffffffffffffffffffffffffffffffff1673ffffffffffffffffffffffffffffffffffffffff16815260200191505060405180910390f35b34801561073457600080fd5b506107616004803603602081101561074b57600080fd5b8101908080359060200190929190505050611a5d565b6040518082600181111561077157fe5b60ff16815260200191505060405180910390f35b34801561079157600080fd5b506107c8600480360360408110156107a857600080fd5b810190808035906020019092919080359060200190929190505050611a8f565b6040518080602001828103825283818151815260200191508051906020019080838360005b838110156108085780820151818401526020810190506107ed565b50505050905090810190601f1680156108355780820380516001836020036101000a031916815260200191505b509250505060405180910390f35b34801561084f57600080fd5b5061087c6004803603602081101561086657600080fd5b8101908080359060200190929190505050611b68565b6040518080602001828103825283818151815260200191508051906020019080838360005b838110156108bc5780820151818401526020810190506108a1565b50505050905090810190601f1680156108e95780820380516001836020036101000a031916815260200191505b509250505060405180910390f35b34801561090357600080fd5b5061090c611c26565b6040518082815260200191505060405180910390f35b34801561092e57600080fd5b5061095b6004803603602081101561094557600080fd5b8101908080359060200190929190505050611c2c565b6040518082815260200191505060405180910390f35b34801561097d57600080fd5b506109b46004803603604081101561099457600080fd5b810190808035906020019092919080359060200190929190505050611c8e565b6040518082815260200191505060405180910390f35b3480156109d657600080fd5b506109df611de8565b604051808273ffffffffffffffffffffffffffffffffffffffff1673ffffffffffffffffffffffffffffffffffffffff16815260200191505060405180910390f35b610a5760048036036040811015610a3757600080fd5b810190808035906020019092919080359060200190929190505050611e0d565b005b348015610a6557600080fd5b50610a9260048036036020811015610a7c57600080fd5b8101908080359060200190929190505050612307565b6040518082815260200191505060405180910390f35b348015610ab457600080fd5b50610ae160048036036020811015610acb57600080fd5b810190808035906020019092919050505061232c565b6040518082815260200191505060405180910390f35b348015610b0357600080fd5b50610b3060048036036020811015610b1a57600080fd5b8101908080359060200190929190505050612351565b60405180806020018a8152602001898152602001888152602001878152602001868152602001856001811115610b6257fe5b60ff1681526020018473ffffffffffffffffffffffffffffffffffffffff1673ffffffffffffffffffffffffffffffffffffffff1681526020018373ffffffffffffffffffffffffffffffffffffffff1673ffffffffffffffffffffffffffffffffffffffff16815260200182810382528b818151815260200191508051906020019080838360005b83811015610c06578082015181840152602081019050610beb565b50505050905090810190601f168015610c335780820380516001836020036101000a031916815260200191505b509a505050505050505050505060405180910390f35b348015610c5557600080fd5b50610c8260048036036020811015610c6c57600080fd5b8101908080359060200190929190505050612484565b005b348015610c9057600080fd5b50610cc760048036036040811015610ca757600080fd5b8101908080359060200190929190803590602001909291905050506124d1565b6040518082815260200191505060405180910390f35b348015610ce957600080fd5b50610d2060048036036040811015610d0057600080fd5b810190808035906020019092919080359060200190929190505050612551565b6040518082815260200191505060405180910390f35b348015610d4257600080fd5b50610d7960048036036040811015610d5957600080fd5b810190808035906020019092919080359060200190929190505050612594565b6040518082815260200191505060405180910390f35b610dcf60048036036060811015610da557600080fd5b810190808035906020019092919080359060200190929190803590602001909291905050506125d7565b005b610e0760048036036040811015610de757600080fd5b810190808035906020019092919080359060200190929190505050612ea8565b005b348015610e1557600080fd5b50610e1e612eb9565b6040518080602001828103825283818151815260200191508051906020019060200280838360005b83811015610e61578082015181840152602081019050610e46565b505050509050019250505060405180910390f35b348015610e8157600080fd5b50610ec460048036036020811015610e9857600080fd5b81019080803573ffffffffffffffffffffffffffffffffffffffff169060200190929190505050612f11565b005b600082600260008281526020019081526020016000206001015442118015610f27575060006001811115610ef657fe5b6002600083815260200190815260200160002060060160009054906101000a900460ff166001811115610f2557fe5b145b15610f3657610f3581613062565b5b836001806001811115610f4557fe5b6002600084815260200190815260200160002060060160009054906101000a900460ff166001811115610f7457fe5b14610f7e57600080fd5b50505092915050565b6001600354908060018154018082558091505090600182039060005260206000200160009091929091909150555060006002600060035481526020019081526020016000209050610fd6613bb8565b604051806040016040528085815260200184815250905060003411611046576040517f08c379a0000000000000000000000000000000000000000000000000000000008152600401808060200182810382526023815260200180613d3b6023913960400191505060405180910390fd5b601e86101561105457600080fd5b8473ffffffffffffffffffffffffffffffffffffffff168573ffffffffffffffffffffffffffffffffffffffff16146110f5576040517f08c379a00000000000000000000000000000000000000000000000000000000081526004018080602001828103825260168152602001807f496e76616c6964206f7261636c6520616464726573730000000000000000000081525060200191505060405180910390fd5b6002801461114e576040517f08c379a0000000000000000000000000000000000000000000000000000000008152600401808060200182810382526021815260200180613cb16021913960400191505060405180910390fd5b86826000019080519060200190611166929190613bdf565b5061117a86426130cc90919063ffffffff16565b826001018190555060008260060160006101000a81548160ff021916908360018111156111a357fe5b0217905550848260060160016101000a81548173ffffffffffffffffffffffffffffffffffffffff021916908373ffffffffffffffffffffffffffffffffffffffff160217905550348260020181905550348260030181905550600082600c0160003373ffffffffffffffffffffffffffffffffffffffff1673ffffffffffffffffffffffffffffffffffffffff1681526020019081526020016000205414156113005781600d013390806001815401808255809150509060018203906000526020600020016000909192909190916101000a81548173ffffffffffffffffffffffffffffffffffffffff021916908373ffffffffffffffffffffffffffffffffffffffff16021790555050600182600d01805490500382600b0160003373ffffffffffffffffffffffffffffffffffffffff1673ffffffffffffffffffffffffffffffffffffffff168152602001908152602001600020819055505b6113543483600c0160003373ffffffffffffffffffffffffffffffffffffffff1673ffffffffffffffffffffffffffffffffffffffff168152602001908152602001600020546130cc90919063ffffffff16565b82600c0160003373ffffffffffffffffffffffffffffffffffffffff1673ffffffffffffffffffffffffffffffffffffffff1681526020019081526020016000208190555060008090505b60028110156114995782600e01819080600181540180825580915050906001820390600052602060002001600090919290919091505550600083600f0160008381526020019081526020016000209050600354816000018190555081816001018190555081816002018190555082826002811061141857fe5b6020020151816003019080519060200190611434929190613bdf565b503481600401600101819055503481600401600001819055506114643485600401546130cc90919063ffffffff16565b84600401819055506114833485600501546130cc90919063ffffffff16565b846005018190555050808060010191505061139f565b5060016003540160038190555050505050505050565b6060600060026000848152602001908152602001600020905080600e0180548060200260200160405190810160405280929190818152602001828054801561151657602002820191906000526020600020905b815481526020019060010190808311611502575b5050505050915050919050565b7fffffffffffffffffffffffffffffffffffffffffffffffffffffffffffffffff81565b6000806002600084815260200190815260200160002090508060050154915050919050565b6000600260008381526020019081526020016000209050600034116115dc576040517f08c379a0000000000000000000000000000000000000000000000000000000008152600401808060200182810382526023815260200180613d3b6023913960400191505060405180910390fd5b60007fffffffffffffffffffffffffffffffffffffffffffffffffffffffffffffffff9050600080600090505b83600e018054905081101561167b57600084600e01828154811061162957fe5b90600052602060002001549050600085600f0160008381526020019081526020016000209050848160040160010154101561166c57806004016001015494508193505b50508080600101915050611609565b5060006116a78460030154611699348661315490919063ffffffff16565b6131da90919063ffffffff16565b90506116c08185600301546130cc90919063ffffffff16565b8460030181905550600084600c0160003373ffffffffffffffffffffffffffffffffffffffff1673ffffffffffffffffffffffffffffffffffffffff1681526020019081526020016000205414156117cb5783600d013390806001815401808255809150509060018203906000526020600020016000909192909190916101000a81548173ffffffffffffffffffffffffffffffffffffffff021916908373ffffffffffffffffffffffffffffffffffffffff16021790555050600184600d01805490500384600b0160003373ffffffffffffffffffffffffffffffffffffffff1673ffffffffffffffffffffffffffffffffffffffff168152602001908152602001600020819055505b61181f8185600c0160003373ffffffffffffffffffffffffffffffffffffffff1673ffffffffffffffffffffffffffffffffffffffff168152602001908152602001600020546130cc90919063ffffffff16565b84600c0160003373ffffffffffffffffffffffffffffffffffffffff1673ffffffffffffffffffffffffffffffffffffffff1681526020019081526020016000208190555034811415611974576118838185600201546130cc90919063ffffffff16565b846002018190555060008090505b84600e018054905081101561196e57600085600e0182815481106118b157fe5b90600052602060002001549050600086600f01600083815260200190815260200160002090506118f18482600401600101546130cc90919063ffffffff16565b81600401600101819055506119168482600401600001546130cc90919063ffffffff16565b81600401600001819055506119388488600401546130cc90919063ffffffff16565b87600401819055506119578488600501546130cc90919063ffffffff16565b876005018190555050508080600101915050611891565b50611982565b6119818583346000613224565b5b5050505050565b6000806002600084815260200190815260200160002090508060030154915050919050565b6000806002600084815260200190815260200160002090508060070160009054906101000a900473ffffffffffffffffffffffffffffffffffffffff16915050919050565b6000806002600084815260200190815260200160002090508060020154915050919050565b6000806002600084815260200190815260200160002090508060060160019054906101000a900473ffffffffffffffffffffffffffffffffffffffff16915050919050565b6000806002600084815260200190815260200160002090508060060160009054906101000a900460ff16915050919050565b60606000600260008581526020019081526020016000209050600081600f0160008581526020019081526020016000209050806003018054600181600116156101000203166002900480601f016020809104026020016040519081016040528092919081815260200182805460018160011615610100020316600290048015611b595780601f10611b2e57610100808354040283529160200191611b59565b820191906000526020600020905b815481529060010190602001808311611b3c57829003601f168201915b50505050509250505092915050565b60606000600260008481526020019081526020016000209050806000018054600181600116156101000203166002900480601f016020809104026020016040519081016040528092919081815260200182805460018160011615610100020316600290048015611c195780601f10611bee57610100808354040283529160200191611c19565b820191906000526020600020905b815481529060010190602001808311611bfc57829003601f168201915b5050505050915050919050565b60035481565b60008060026000848152602001908152602001600020905080600c0160003373ffffffffffffffffffffffffffffffffffffffff1673ffffffffffffffffffffffffffffffffffffffff16815260200190815260200160002054915050919050565b600080600260008581526020019081526020016000209050600081600f0160008581526020019081526020016000209050806004016001015481600401600001541015611d26576040517f08c379a000000000000000000000000000000000000000000000000000000000815260040180806020018281038252603c815260200180613cd2603c913960400191505060405180910390fd5b806004016001015482600501541015611d8a576040517f08c379a0000000000000000000000000000000000000000000000000000000008152600401808060200182810382526050815260200180613d7f6050913960600191505060405180910390fd5b6000611daa8260040160010154846005015461398690919063ffffffff16565b9050611ddd8360050154611dcf670de0b6b3a76400008461315490919063ffffffff16565b6131da90919063ffffffff16565b935050505092915050565b6000809054906101000a900473ffffffffffffffffffffffffffffffffffffffff1681565b600060026000848152602001908152602001600020905081611e2e84611c2c565b1015611e3957600080fd5b6000611e8f8383600c0160003373ffffffffffffffffffffffffffffffffffffffff1673ffffffffffffffffffffffffffffffffffffffff1681526020019081526020016000205461398690919063ffffffff16565b82600c0160003373ffffffffffffffffffffffffffffffffffffffff1673ffffffffffffffffffffffffffffffffffffffff16815260200190815260200160002081905550600082600c0160003373ffffffffffffffffffffffffffffffffffffffff1673ffffffffffffffffffffffffffffffffffffffff16815260200190815260200160002054141561202c57600082600b0160003373ffffffffffffffffffffffffffffffffffffffff1673ffffffffffffffffffffffffffffffffffffffff16815260200190815260200160002054905082600d01805490508110611f7757600080fd5b82600d01600184600d01805490500381548110611f9057fe5b9060005260206000200160009054906101000a900473ffffffffffffffffffffffffffffffffffffffff1683600d018281548110611fca57fe5b9060005260206000200160006101000a81548173ffffffffffffffffffffffffffffffffffffffff021916908373ffffffffffffffffffffffffffffffffffffffff16021790555082600d018054809190600190036120299190613c5f565b50505b60007fffffffffffffffffffffffffffffffffffffffffffffffffffffffffffffffff9050600080600090505b84600e01805490508110156120cb57600085600e01828154811061207957fe5b90600052602060002001549050600086600f016000838152602001908152602001600020905084816004016001015410156120bc57806004016001015494508193505b50508080600101915050612059565b5060006120f785600301546120e9888661315490919063ffffffff16565b6131da90919063ffffffff16565b90508581141561222b5761211881866002015461398690919063ffffffff16565b856002018190555061213781866003015461398690919063ffffffff16565b856003018190555060008090505b85600e018054905081101561222257600086600e01828154811061216557fe5b90600052602060002001549050600087600f01600083815260200190815260200160002090506121a584826004016001015461398690919063ffffffff16565b81600401600101819055506121ca84826004016000015461398690919063ffffffff16565b81600401600001819055506121ec84896004015461398690919063ffffffff16565b886004018190555061220b84896005015461398690919063ffffffff16565b886005018190555050508080600101915050612145565b508593506122b7565b600080831461223b57600061223e565b60015b60ff16905061228786600f0160008381526020019081526020016000206004016001015461227989896003015461315490919063ffffffff16565b6131da90919063ffffffff16565b94506122a087876003015461398690919063ffffffff16565b86600301819055506122b58882876001613224565b505b3373ffffffffffffffffffffffffffffffffffffffff166108fc859081150290604051600060405180830381858888f193505050501580156122fd573d6000803e3d6000fd5b5050505050505050565b6000806002600084815260200190815260200160002090508060040154915050919050565b6000806002600084815260200190815260200160002090508060010154915050919050565b6002602052806000526040600020600091509050806000018054600181600116156101000203166002900480601f0160208091040260200160405190810160405280929190818152602001828054600181600116156101000203166002900480156123fd5780601f106123d2576101008083540402835291602001916123fd565b820191906000526020600020905b8154815290600101906020018083116123e057829003601f168201915b5050505050908060010154908060020154908060030154908060040154908060050154908060060160009054906101000a900460ff16908060060160019054906101000a900473ffffffffffffffffffffffffffffffffffffffff16908060070160009054906101000a900473ffffffffffffffffffffffffffffffffffffffff16905089565b80600180600181111561249357fe5b6002600084815260200190815260200160002060060160009054906101000a900460ff1660018111156124c257fe5b146124cc57600080fd5b505050565b600080600260008581526020019081526020016000209050600081600f01600085815260200190815260200160002090508060040160020160003373ffffffffffffffffffffffffffffffffffffffff1673ffffffffffffffffffffffffffffffffffffffff168152602001908152602001600020549250505092915050565b600080600260008581526020019081526020016000209050600081600f016000858152602001908152602001600020905080600401600101549250505092915050565b600080600260008581526020019081526020016000209050600081600f016000858152602001908152602001600020905080600401600001549250505092915050565b8260026000828152602001908152602001600020600101544211801561263657506000600181111561260557fe5b6002600083815260200190815260200160002060060160009054906101000a900460ff16600181111561263457fe5b145b156126455761264481613062565b5b83600080600181111561265457fe5b6002600084815260200190815260200160002060060160009054906101000a900460ff16600181111561268357fe5b1461268d57600080fd5b858533600060026000858152602001908152602001600020600f01600084815260200190815260200160002060040160020160008373ffffffffffffffffffffffffffffffffffffffff1673ffffffffffffffffffffffffffffffffffffffff168152602001908152602001600020541161270757600080fd5b6000600260008b81526020019081526020016000209050600081600f0160008b81526020019081526020016000209050886127428c8c6124d1565b101561274d57600080fd5b6000816004016001015482600401600001540390508981101561276f57600080fd5b6127c68a8360040160020160003373ffffffffffffffffffffffffffffffffffffffff1673ffffffffffffffffffffffffffffffffffffffff1681526020019081526020016000205461398690919063ffffffff16565b8260040160020160003373ffffffffffffffffffffffffffffffffffffffff1673ffffffffffffffffffffffffffffffffffffffff168152602001908152602001600020819055506128628a8460090160003373ffffffffffffffffffffffffffffffffffffffff1673ffffffffffffffffffffffffffffffffffffffff1681526020019081526020016000205461398690919063ffffffff16565b8360090160003373ffffffffffffffffffffffffffffffffffffffff1673ffffffffffffffffffffffffffffffffffffffff1681526020019081526020016000208190555060008360090160003373ffffffffffffffffffffffffffffffffffffffff1673ffffffffffffffffffffffffffffffffffffffff1681526020019081526020016000205414156129ff5760008360080160003373ffffffffffffffffffffffffffffffffffffffff1673ffffffffffffffffffffffffffffffffffffffff16815260200190815260200160002054905083600a0180549050811061294a57600080fd5b83600a01600185600a0180549050038154811061296357fe5b9060005260206000200160009054906101000a900473ffffffffffffffffffffffffffffffffffffffff1684600a01828154811061299d57fe5b9060005260206000200160006101000a81548173ffffffffffffffffffffffffffffffffffffffff021916908373ffffffffffffffffffffffffffffffffffffffff16021790555083600a018054809190600190036129fc9190613c5f565b50505b60008260040160020160003373ffffffffffffffffffffffffffffffffffffffff1673ffffffffffffffffffffffffffffffffffffffff168152602001908152602001600020541415612b6c5760008260040160030160003373ffffffffffffffffffffffffffffffffffffffff1673ffffffffffffffffffffffffffffffffffffffff16815260200190815260200160002054905082600401600401805490508110612aab57600080fd5b82600401600401600184600401600401805490500381548110612aca57fe5b9060005260206000200160009054906101000a900473ffffffffffffffffffffffffffffffffffffffff16836004016004018281548110612b0757fe5b9060005260206000200160006101000a81548173ffffffffffffffffffffffffffffffffffffffff021916908373ffffffffffffffffffffffffffffffffffffffff16021790555082600401600401805480919060019003612b699190613c5f565b50505b612b868a83600401600101546130cc90919063ffffffff16565b8260040160010181905550612ba88a84600501546130cc90919063ffffffff16565b83600501819055506000612bd08360040160010154856005015461398690919063ffffffff16565b9050600084600e018054905085600301540a90506000612c0f612bfd60048461315490919063ffffffff16565b6002850a6130cc90919063ffffffff16565b9050612c2e600286600401600101540a826130cc90919063ffffffff16565b9050612c6f612c608660040160010154612c5260028761315490919063ffffffff16565b61315490919063ffffffff16565b8261398690919063ffffffff16565b9050612c7a816139d0565b9050612ca881612c9a8760040160010154866130cc90919063ffffffff16565b61398690919063ffffffff16565b9050612cbe6002826131da90919063ffffffff16565b90506000811015612d37576040517f08c379a00000000000000000000000000000000000000000000000000000000081526004018080602001828103825260178152602001807f4554482076616c75652068617320746f206265203e203000000000000000000081525060200191505060405180910390fd5b803073ffffffffffffffffffffffffffffffffffffffff16311015612d5b57600080fd5b8086600201541015612d6c57600080fd5b60008090505b86600e0180549050811015612e3057600087600f0160008381526020019081526020016000209050612db483826004016001015461398690919063ffffffff16565b8160040160010181905550612dd983826004016000015461398690919063ffffffff16565b8160040160000181905550612dfb83896004015461398690919063ffffffff16565b8860040181905550612e1a83896005015461398690919063ffffffff16565b8860050181905550508080600101915050612d72565b50612e4881876002015461398690919063ffffffff16565b86600201819055503373ffffffffffffffffffffffffffffffffffffffff166108fc829081150290604051600060405180830381858888f19350505050158015612e96573d6000803e3d6000fd5b50505050505050505050505050505050565b612eb58282346000613224565b5050565b60606001805480602002602001604051908101604052809291908181526020018280548015612f0757602002820191906000526020600020905b815481526020019060010190808311612ef3575b5050505050905090565b6000809054906101000a900473ffffffffffffffffffffffffffffffffffffffff1673ffffffffffffffffffffffffffffffffffffffff163373ffffffffffffffffffffffffffffffffffffffff1614612f6a57600080fd5b600073ffffffffffffffffffffffffffffffffffffffff168173ffffffffffffffffffffffffffffffffffffffff161415612fa457600080fd5b8073ffffffffffffffffffffffffffffffffffffffff166000809054906101000a900473ffffffffffffffffffffffffffffffffffffffff1673ffffffffffffffffffffffffffffffffffffffff167f8be0079c531659141344cd1fd0a4f28419497f9722a3daafe3b4186f6b6457e060405160405180910390a3806000806101000a81548173ffffffffffffffffffffffffffffffffffffffff021916908373ffffffffffffffffffffffffffffffffffffffff16021790555050565b600060026000838152602001908152602001600020905060018160060160009054906101000a900460ff16600181111561309857fe5b0160018111156130a457fe5b8160060160006101000a81548160ff021916908360018111156130c357fe5b02179055505050565b60008082840190508381101561314a576040517f08c379a000000000000000000000000000000000000000000000000000000000815260040180806020018281038252601b8152602001807f536166654d6174683a206164646974696f6e206f766572666c6f77000000000081525060200191505060405180910390fd5b8091505092915050565b60008083141561316757600090506131d4565b600082840290508284828161317857fe5b04146131cf576040517f08c379a0000000000000000000000000000000000000000000000000000000008152600401808060200182810382526021815260200180613d5e6021913960400191505060405180910390fd5b809150505b92915050565b600061321c83836040518060400160405280601a81526020017f536166654d6174683a206469766973696f6e206279207a65726f000000000000815250613a32565b905092915050565b8360026000828152602001908152602001600020600101544211801561328357506000600181111561325257fe5b6002600083815260200190815260200160002060060160009054906101000a900460ff16600181111561328157fe5b145b156132925761329181613062565b5b8460008060018111156132a157fe5b6002600084815260200190815260200160002060060160009054906101000a900460ff1660018111156132d057fe5b146132da57600080fd5b60003390506000600260008a81526020019081526020016000209050600081600f0160008a81526020019081526020016000209050866133305761332b8883600201546130cc90919063ffffffff16565b613348565b61334788836002015461398690919063ffffffff16565b5b8260020181905550600082600e018054905083600301540a905060006001905060008090505b84600e01805490508110156134d657600085600f01600083815260200190815260200160002090508a6133ba576133b58c82600401600101546130cc90919063ffffffff16565b6133d5565b6133d48c826004016001015461398690919063ffffffff16565b5b81600401600101819055508a613404576133ff8c82600401600001546130cc90919063ffffffff16565b61341f565b61341e8c826004016000015461398690919063ffffffff16565b5b816004016000018190555061344481600401600101548461315490919063ffffffff16565b92508a613467576134628c87600401546130cc90919063ffffffff16565b61347f565b61347e8c876004015461398690919063ffffffff16565b5b86600401819055508a6134a8576134a38c87600501546130cc90919063ffffffff16565b6134c0565b6134bf8c876005015461398690919063ffffffff16565b5b866005018190555050808060010191505061336e565b506000613505826134f785876004016001015461315490919063ffffffff16565b6131da90919063ffffffff16565b905060008185600401600101540390506000811161358b576040517f08c379a000000000000000000000000000000000000000000000000000000000815260040180806020018281038252600a8152602001807f43616e277420626520300000000000000000000000000000000000000000000081525060200191505060405180910390fd5b80856004016001015410156135eb576040517f08c379a000000000000000000000000000000000000000000000000000000000815260040180806020018281038252602d815260200180613d0e602d913960400191505060405180910390fd5b60008660090160008973ffffffffffffffffffffffffffffffffffffffff1673ffffffffffffffffffffffffffffffffffffffff1681526020019081526020016000205414156136ee5785600a018790806001815401808255809150509060018203906000526020600020016000909192909190916101000a81548173ffffffffffffffffffffffffffffffffffffffff021916908373ffffffffffffffffffffffffffffffffffffffff16021790555050600186600a0180549050038660080160008973ffffffffffffffffffffffffffffffffffffffff1673ffffffffffffffffffffffffffffffffffffffff168152602001908152602001600020819055505b60008560040160020160008973ffffffffffffffffffffffffffffffffffffffff1673ffffffffffffffffffffffffffffffffffffffff1681526020019081526020016000205414156137fa57846004016004018790806001815401808255809150509060018203906000526020600020016000909192909190916101000a81548173ffffffffffffffffffffffffffffffffffffffff021916908373ffffffffffffffffffffffffffffffffffffffff16021790555050600186600a0180549050038560040160030160008973ffffffffffffffffffffffffffffffffffffffff1673ffffffffffffffffffffffffffffffffffffffff168152602001908152602001600020819055505b613851818660040160020160008a73ffffffffffffffffffffffffffffffffffffffff1673ffffffffffffffffffffffffffffffffffffffff168152602001908152602001600020546130cc90919063ffffffff16565b8560040160020160008973ffffffffffffffffffffffffffffffffffffffff1673ffffffffffffffffffffffffffffffffffffffff168152602001908152602001600020819055506138ed818760090160008a73ffffffffffffffffffffffffffffffffffffffff1673ffffffffffffffffffffffffffffffffffffffff168152602001908152602001600020546130cc90919063ffffffff16565b8660090160008973ffffffffffffffffffffffffffffffffffffffff1673ffffffffffffffffffffffffffffffffffffffff1681526020019081526020016000208190555061394c81866004016001015461398690919063ffffffff16565b856004016001018190555061396e81876005015461398690919063ffffffff16565b86600501819055505050505050505050505050505050565b60006139c883836040518060400160405280601e81526020017f536166654d6174683a207375627472616374696f6e206f766572666c6f770000815250613af8565b905092915050565b60006003821115613a1f5781905060006001600284816139ec57fe5b040190505b81811015613a1957809150600281828581613a0857fe5b040181613a1157fe5b0490506139f1565b50613a2d565b60008214613a2c57600190505b5b919050565b60008083118290613ade576040517f08c379a00000000000000000000000000000000000000000000000000000000081526004018080602001828103825283818151815260200191508051906020019080838360005b83811015613aa3578082015181840152602081019050613a88565b50505050905090810190601f168015613ad05780820380516001836020036101000a031916815260200191505b509250505060405180910390fd5b506000838581613aea57fe5b049050809150509392505050565b6000838311158290613ba5576040517f08c379a00000000000000000000000000000000000000000000000000000000081526004018080602001828103825283818151815260200191508051906020019080838360005b83811015613b6a578082015181840152602081019050613b4f565b50505050905090810190601f168015613b975780820380516001836020036101000a031916815260200191505b509250505060405180910390fd5b5060008385039050809150509392505050565b60405180604001604052806002905b6060815260200190600190039081613bc75790505090565b828054600181600116156101000203166002900490600052602060002090601f016020900481019282601f10613c2057805160ff1916838001178555613c4e565b82800160010185558215613c4e579182015b82811115613c4d578251825591602001919060010190613c32565b5b509050613c5b9190613c8b565b5090565b815481835581811115613c8657818360005260206000209182019101613c859190613c8b565b5b505050565b613cad91905b80821115613ca9576000816000905550600101613c91565b5090565b9056fe4e756d626572206d61726b6574206f7574636f6d652068617320746f2062652032546f74616c207368617265732068617320746f20626520657175616c206f7220686967686572207468616e20617661696c61626c652073686172657343616e277420627579206d6f726520736861726573207468616e20746865206f6e657320617661696c61626c65546865207374616b652068617320746f2062652067726561746572207468616e20302e536166654d6174683a206d756c7469706c69636174696f6e206f766572666c6f77546f74616c202320617661696c61626c65207368617265732068617320746f20626520657175616c206f7220686967686572207468616e206f7574636f6d6520617661696c61626c6520736861726573a165627a7a72305820fc175905f5ce22a53a115233456af3e7f518f52837db60a6bfddd2191f105efc0029",
  "source": "pragma solidity 0.5.8;\n\n// File: openzeppelin-solidity/contracts/ownership/Ownable.sol\n\n/**\n * @title Ownable\n * @dev The Ownable contract has an owner address, and provides basic authorization control\n * functions, this simplifies the implementation of \"user permissions\".\n */\ncontract Ownable {\n    address public owner;\n    event OwnershipTransferred(address indexed previousOwner, address indexed newOwner);\n\n\n    /**\n    * @dev The Ownable constructor sets the original `owner` of the contract to the sender\n    * account.\n    */\n    constructor() public {\n        owner = msg.sender;\n    }\n\n    /**\n    * @dev Throws if called by any account other than the owner.\n    */\n    modifier onlyOwner() {\n        require(msg.sender == owner);\n        _;\n    }\n\n    /**\n    * @dev Allows the current owner to transfer control of the contract to a newOwner.\n    * @param newOwner The address to transfer ownership to.\n    */\n    function transferOwnership(address newOwner) public onlyOwner {\n        require(newOwner != address(0));\n        emit OwnershipTransferred(owner, newOwner);\n        owner = newOwner;\n    }\n}\n\n// File: openzeppelin-solidity/contracts/math/SafeMath.sol\";\n\n/**\n * @dev Wrappers over Solidity's arithmetic operations with added overflow\n * checks.\n *\n * Arithmetic operations in Solidity wrap on overflow. This can easily result\n * in bugs, because programmers usually assume that an overflow raises an\n * error, which is the standard behavior in high level programming languages.\n * `SafeMath` restores this intuition by reverting the transaction when an\n * operation overflows.\n *\n * Using this library instead of the unchecked operations eliminates an entire\n * class of bugs, so it's recommended to use it always.\n */\nlibrary SafeMath {\n    /**\n     * @dev Returns the addition of two unsigned integers, reverting on\n     * overflow.\n     *\n     * Counterpart to Solidity's `+` operator.\n     *\n     * Requirements:\n     * - Addition cannot overflow.\n     */\n    function add(uint256 a, uint256 b) internal pure returns (uint256) {\n        uint256 c = a + b;\n        require(c >= a, \"SafeMath: addition overflow\");\n\n        return c;\n    }\n\n    /**\n     * @dev Returns the subtraction of two unsigned integers, reverting on\n     * overflow (when the result is negative).\n     *\n     * Counterpart to Solidity's `-` operator.\n     *\n     * Requirements:\n     * - Subtraction cannot overflow.\n     */\n    function sub(uint256 a, uint256 b) internal pure returns (uint256) {\n        return sub(a, b, \"SafeMath: subtraction overflow\");\n    }\n\n    /**\n     * @dev Returns the subtraction of two unsigned integers, reverting with custom message on\n     * overflow (when the result is negative).\n     *\n     * Counterpart to Solidity's `-` operator.\n     *\n     * Requirements:\n     * - Subtraction cannot overflow.\n     *\n     * _Available since v2.4.0._\n     */\n    function sub(uint256 a, uint256 b, string memory errorMessage) internal pure returns (uint256) {\n        require(b <= a, errorMessage);\n        uint256 c = a - b;\n\n        return c;\n    }\n\n    /**\n     * @dev Returns the multiplication of two unsigned integers, reverting on\n     * overflow.\n     *\n     * Counterpart to Solidity's `*` operator.\n     *\n     * Requirements:\n     * - Multiplication cannot overflow.\n     */\n    function mul(uint256 a, uint256 b) internal pure returns (uint256) {\n        // Gas optimization: this is cheaper than requiring 'a' not being zero, but the\n        // benefit is lost if 'b' is also tested.\n        // See: https://github.com/OpenZeppelin/openzeppelin-contracts/pull/522\n        if (a == 0) {\n            return 0;\n        }\n\n        uint256 c = a * b;\n        require(c / a == b, \"SafeMath: multiplication overflow\");\n\n        return c;\n    }\n\n    /**\n     * @dev Returns the integer division of two unsigned integers. Reverts on\n     * division by zero. The result is rounded towards zero.\n     *\n     * Counterpart to Solidity's `/` operator. Note: this function uses a\n     * `revert` opcode (which leaves remaining gas untouched) while Solidity\n     * uses an invalid opcode to revert (consuming all remaining gas).\n     *\n     * Requirements:\n     * - The divisor cannot be zero.\n     */\n    function div(uint256 a, uint256 b) internal pure returns (uint256) {\n        return div(a, b, \"SafeMath: division by zero\");\n    }\n\n    /**\n     * @dev Returns the integer division of two unsigned integers. Reverts with custom message on\n     * division by zero. The result is rounded towards zero.\n     *\n     * Counterpart to Solidity's `/` operator. Note: this function uses a\n     * `revert` opcode (which leaves remaining gas untouched) while Solidity\n     * uses an invalid opcode to revert (consuming all remaining gas).\n     *\n     * Requirements:\n     * - The divisor cannot be zero.\n     *\n     * _Available since v2.4.0._\n     */\n    function div(uint256 a, uint256 b, string memory errorMessage) internal pure returns (uint256) {\n        // Solidity only automatically asserts when dividing by 0\n        require(b > 0, errorMessage);\n        uint256 c = a / b;\n        // assert(a == b * c + a % b); // There is no case in which this doesn't hold\n\n        return c;\n    }\n\n    /**\n     * @dev Returns the remainder of dividing two unsigned integers. (unsigned integer modulo),\n     * Reverts when dividing by zero.\n     *\n     * Counterpart to Solidity's `%` operator. This function uses a `revert`\n     * opcode (which leaves remaining gas untouched) while Solidity uses an\n     * invalid opcode to revert (consuming all remaining gas).\n     *\n     * Requirements:\n     * - The divisor cannot be zero.\n     */\n    function mod(uint256 a, uint256 b) internal pure returns (uint256) {\n        return mod(a, b, \"SafeMath: modulo by zero\");\n    }\n\n    /**\n     * @dev Returns the remainder of dividing two unsigned integers. (unsigned integer modulo),\n     * Reverts with custom message when dividing by zero.\n     *\n     * Counterpart to Solidity's `%` operator. This function uses a `revert`\n     * opcode (which leaves remaining gas untouched) while Solidity uses an\n     * invalid opcode to revert (consuming all remaining gas).\n     *\n     * Requirements:\n     * - The divisor cannot be zero.\n     *\n     * _Available since v2.4.0._\n     */\n    function mod(uint256 a, uint256 b, string memory errorMessage) internal pure returns (uint256) {\n        require(b != 0, errorMessage);\n        return a % b;\n    }\n}\n\n/// @title Market Contract Factory\ncontract PredictionMarket is Ownable {\n  using SafeMath for uint;\n\n  // Market closed time has to be at least 30 secs from current.\n  uint constant MIN_DURATION = 30;\n\n  uint256 constant public MAX_UINT_256 = 115792089237316195423570985008687907853269984665640564039457584007913129639935;\n\n  enum MarketState { open, closed }\n\n  struct Market {\n    string name;\n    uint closedDateTime;\n\n    uint liquidityTotal; // total stake (ETH)\n    uint liquidityAvailable; // stake held (ETH)\n\n    uint sharesTotal; // total shares (all outcomes)\n    uint sharesAvailable; // shares held (all outcomes)\n\n    MarketState state;\n\n    address oracle;\n    address winner;\n\n    mapping(address => uint) holdersIndexes;\n    mapping(address => uint) holdersShares;\n    address[] holders;\n\n    mapping(address => uint) liquidityIndexes;\n    mapping(address => uint) liquidityShares;\n    address[] liquidityHolders;\n\n    // market outcomes\n    uint[] outcomeIds;\n    mapping(uint256 => MarketOutcome) outcomes;\n  }\n\n  struct MarketOutcome {\n    uint marketId;\n    uint256 index;\n    uint256 id;\n    string name;\n    Shares shares;\n  }\n\n  struct Shares {\n    uint256 total; // number of shares\n    uint256 available; // available shares\n\n    mapping(address => uint) holdersShares;\n    mapping(address => uint) holdersIndexes;\n    address[] holders;\n\n    // TODO: liquidity\n    // TODO: fees\n  }\n\n  uint[] marketIds;\n  mapping(uint256 => Market) public markets;\n  uint public marketIndex = 0;\n\n  // ------ Modifiers ------\n\n  modifier isMarket(uint marketId) {\n    require(marketId < marketIndex);\n    _;\n  }\n\n  modifier timeTransitions(uint marketId) {\n    if (now > markets[marketId].closedDateTime && markets[marketId].state == MarketState.open) {\n      nextState(marketId);\n    }\n    _;\n  }\n\n  modifier atState(uint marketId, MarketState state) {\n    require(markets[marketId].state == state);\n    _;\n  }\n\n  modifier notAtState(uint marketId, MarketState state) {\n    require(markets[marketId].state != state);\n    _;\n  }\n\n  modifier onlyBy(address addr) {\n    require(addr != address(0) && addr == msg.sender);\n    _;\n  }\n\n  modifier participantHasShares(uint marketId, uint outcomeId, address sender) {\n    require(markets[marketId].outcomes[outcomeId].shares.holdersShares[sender] > 0);\n    _;\n  }\n\n  modifier transitionNext(uint marketId) {\n    _;\n    nextState(marketId);\n  }\n\n  // ------ Modifiers End ------\n\n  /// Empty constructor\n  constructor() public {\n  }\n\n  /// Fallback function does nothing\n  function () external payable {\n  }\n\n  // ------ Core Functions ------\n\n  /// Create a new Market contract\n  /// @dev The new Market contract is then saved in the array of this contract for future reference.\n  /// @param name - Name of the market\n  /// @param duration - The duration of the market `open` period\n  /// @param oracle - oracle address\n  function createMarket(\n    string memory name, uint duration, address oracle, string memory outcome1, string memory outcome2\n  )\n  public payable\n  {\n    marketIds.push(marketIndex);\n\n    Market storage market = markets[marketIndex];\n\n    string[2] memory outcomes = [outcome1, outcome2];\n\n    require(msg.value > 0, \"The stake has to be greater than 0.\");\n    require(duration >= MIN_DURATION);\n    require(oracle == address(oracle), \"Invalid oracle address\");\n    // starting with secondary markets\n    require(outcomes.length == 2, \"Number market outcome has to be 2\");\n\n    market.name = name;\n    market.closedDateTime = now.add(duration);\n    market.state = MarketState.open;\n    market.oracle = oracle;\n\n    market.liquidityTotal = msg.value;\n    market.liquidityAvailable = msg.value;\n\n    // adding liquidity tokens to market creator\n    if (market.liquidityShares[msg.sender] == 0) {\n      market.liquidityHolders.push(msg.sender);\n      market.liquidityIndexes[msg.sender] = market.liquidityHolders.length - 1;\n    }\n\n    // TODO review: only valid for 50-50 start\n    market.liquidityShares[msg.sender] = market.liquidityShares[msg.sender].add(msg.value);\n\n    // creating market outcomes\n    for (uint i = 0; i < outcomes.length; i++) {\n      market.outcomeIds.push(i);\n      MarketOutcome storage outcome = market.outcomes[i];\n\n      outcome.marketId = marketIndex;\n      outcome.index = i;\n      outcome.id = i;\n      outcome.name = outcomes[i];\n\n      // TODO review: only valid for 50-50 start\n      // price starts at .5 ETH\n      outcome.shares.available = msg.value;\n      outcome.shares.total = msg.value;\n\n      market.sharesTotal = market.sharesTotal.add(msg.value);\n      market.sharesAvailable = market.sharesAvailable.add(msg.value);\n    }\n\n    marketIndex = marketIndex + 1;\n  }\n\n  function buy(uint marketId, uint outcomeId) public payable {\n    buy(marketId, outcomeId, msg.value, false);\n  }\n\n  /// Buy shares of a market outcome\n  function buy(uint marketId, uint outcomeId, uint value, bool subShares) internal\n    timeTransitions(marketId)\n    atState(marketId, MarketState.open)\n  {\n    address participant = msg.sender;\n\n    Market storage market = markets[marketId];\n\n    MarketOutcome storage outcome = market.outcomes[outcomeId];\n    market.liquidityTotal = subShares ? market.liquidityTotal.sub(value) : market.liquidityTotal.add(value);\n\n    uint productBalance = market.liquidityAvailable**(market.outcomeIds.length);\n    uint newProductBalance = 1;\n\n    // Funding market shares with received ETH\n    for (uint i = 0; i < market.outcomeIds.length; i++) {\n      MarketOutcome storage marketOutcome = market.outcomes[i];\n\n      marketOutcome.shares.available = subShares ? marketOutcome.shares.available.sub(value) : marketOutcome.shares.available.add(value);\n      marketOutcome.shares.total = subShares ? marketOutcome.shares.total.sub(value) : marketOutcome.shares.total.add(value);\n\n      newProductBalance = newProductBalance.mul(marketOutcome.shares.available);\n\n      // only adding to market total shares, the available remains\n      market.sharesTotal = subShares ? market.sharesTotal.sub(value) : market.sharesTotal.add(value);\n      market.sharesAvailable = subShares ? market.sharesAvailable.sub(value) : market.sharesAvailable.add(value);\n    }\n\n    uint newSharesAvailable = outcome.shares.available.mul(productBalance).div(newProductBalance);\n\n    uint shares = outcome.shares.available - newSharesAvailable;\n\n    require(shares > 0, \"Can't be 0\");\n    require(outcome.shares.available >= shares, \"Can't buy more shares than the ones available\");\n\n    // new participant, push into the array\n    if (market.holdersShares[participant] == 0) {\n      market.holders.push(participant);\n      market.holdersIndexes[participant] = market.holders.length - 1;\n    }\n\n    // doing it for both market and market outcomes\n    if (outcome.shares.holdersShares[participant] == 0) {\n      outcome.shares.holders.push(participant);\n      outcome.shares.holdersIndexes[participant] = market.holders.length - 1;\n    }\n\n    outcome.shares.holdersShares[participant] = outcome.shares.holdersShares[participant].add(shares);\n    market.holdersShares[participant] = market.holdersShares[participant].add(shares);\n\n    outcome.shares.available = outcome.shares.available.sub(shares);\n    market.sharesAvailable = market.sharesAvailable.sub(shares);\n  }\n\n  /// Sell shares of a market outcome\n  function sell(uint marketId, uint outcomeId, uint shares) public payable\n    timeTransitions(marketId)\n    atState(marketId, MarketState.open)\n    participantHasShares(marketId, outcomeId, msg.sender)\n  {\n    Market storage market = markets[marketId];\n    MarketOutcome storage outcome = market.outcomes[outcomeId];\n\n    // Invariant check: make sure the stake is <= than user's stake\n    require(myShares(marketId, outcomeId) >= shares);\n\n    // Invariant check: make sure the market's stake is smaller than the stake\n    uint sharesHeld = outcome.shares.total - outcome.shares.available;\n    require(sharesHeld >= shares);\n\n    // removing shares\n    outcome.shares.holdersShares[msg.sender] = outcome.shares.holdersShares[msg.sender].sub(shares);\n    market.holdersShares[msg.sender] = market.holdersShares[msg.sender].sub(shares);\n\n    // removing participant from participants list\n    if (market.holdersShares[msg.sender] == 0) {\n      uint index = market.holdersIndexes[msg.sender];\n      require(index < market.holders.length);\n      market.holders[index] = market.holders[market.holders.length-1];\n      market.holders.length--;\n    }\n\n    // doing it for both market and market outcomes\n    if (outcome.shares.holdersShares[msg.sender] == 0) {\n      uint index = outcome.shares.holdersIndexes[msg.sender];\n      require(index < outcome.shares.holders.length);\n      outcome.shares.holders[index] = outcome.shares.holders[outcome.shares.holders.length-1];\n      outcome.shares.holders.length--;\n    }\n\n    // adding shares back to pool\n    outcome.shares.available = outcome.shares.available.add(shares);\n    market.sharesAvailable = market.sharesAvailable.add(shares);\n\n    uint oppositeSharesAvailable = market.sharesAvailable.sub(outcome.shares.available);\n    uint productBalance = market.liquidityAvailable**(market.outcomeIds.length);\n\n    // formula to calculate amount user will receive in ETH\n    // x = 1/2 (-sqrt(a^2 - 2 a (y + z) + 4 b + (y + z)^2) + a + y + z)\n    // x = ETH amount user will receive\n    // y = # shares sold\n    // z = # selling shares available\n    // a = # opposite shares available\n    // b = product balance\n\n    uint value = (oppositeSharesAvailable**2).add(productBalance.mul(4));\n    value = value.add(outcome.shares.available**2);\n    value = value.sub(oppositeSharesAvailable.mul(2).mul(outcome.shares.available));\n    value = sqrt(value);\n    value = oppositeSharesAvailable.add(outcome.shares.available).sub(value);\n    value = value.div(2);\n\n    require(value >= 0, \"ETH value has to be > 0\");\n\n    // // Invariant check: make sure the contract has enough balance to be withdrawn from.\n    require(address(this).balance >= value);\n    require(market.liquidityTotal >= value);\n\n    // Rebalancing market shares\n    for (uint i = 0; i < market.outcomeIds.length; i++) {\n      MarketOutcome storage marketOutcome = market.outcomes[i];\n\n      marketOutcome.shares.available = marketOutcome.shares.available.sub(value);\n      marketOutcome.shares.total = marketOutcome.shares.total.sub(value);\n\n      // only adding to market total shares, the available remains\n      market.sharesTotal = market.sharesTotal.sub(value);\n      market.sharesAvailable = market.sharesAvailable.sub(value);\n    }\n\n    market.liquidityTotal = market.liquidityTotal.sub(value);\n\n    // 3. Interaction\n    msg.sender.transfer(value);\n  }\n\n  function addLiquidity(uint marketId) public payable {\n    Market storage market = markets[marketId];\n\n    require(msg.value > 0, \"The stake has to be greater than 0.\");\n\n    // part of the liquidity is exchanged for outcome shares if not 50-50 market\n    // getting liquidity ratio\n    uint minShares = MAX_UINT_256;\n    uint minOutcomeId;\n\n    for (uint i = 0; i < market.outcomeIds.length; i++) {\n      uint outcomeId = market.outcomeIds[i];\n      MarketOutcome storage outcome = market.outcomes[outcomeId];\n\n      if (outcome.shares.available < minShares) {\n        minShares = outcome.shares.available;\n        minOutcomeId = outcomeId;\n      }\n    }\n\n    uint liquidityRatio = minShares.mul(msg.value).div(market.liquidityAvailable);\n\n    market.liquidityAvailable = market.liquidityAvailable.add(liquidityRatio);\n\n    // adding liquidity tokens to market creator\n    if (market.liquidityShares[msg.sender] == 0) {\n      market.liquidityHolders.push(msg.sender);\n      market.liquidityIndexes[msg.sender] = market.liquidityHolders.length - 1;\n    }\n\n    market.liquidityShares[msg.sender] = market.liquidityShares[msg.sender].add(liquidityRatio);\n\n    // equal outcome split, no need to buy shares\n    if (liquidityRatio == msg.value) {\n      market.liquidityTotal = market.liquidityTotal.add(liquidityRatio);\n      for (uint i = 0; i < market.outcomeIds.length; i++) {\n        uint outcomeId = market.outcomeIds[i];\n        MarketOutcome storage outcome = market.outcomes[outcomeId];\n\n        outcome.shares.available = outcome.shares.available.add(liquidityRatio);\n        outcome.shares.total = outcome.shares.total.add(liquidityRatio);\n\n        market.sharesTotal = market.sharesTotal.add(liquidityRatio);\n        market.sharesAvailable = market.sharesAvailable.add(liquidityRatio);\n      }\n    } else {\n      buy(marketId, minOutcomeId, msg.value, false);\n    }\n  }\n\n  function removeLiquidity(uint marketId, uint shares) public payable {\n    Market storage market = markets[marketId];\n\n    // Invariant check: make sure the stake is <= than user's stake\n    require(myLiquidityShares(marketId) >= shares);\n\n    // ETH to transfer to user from liquidity removal\n    uint value;\n\n    // removing liquidity tokens from market creator\n    market.liquidityShares[msg.sender] = market.liquidityShares[msg.sender].sub(shares);\n\n    if (market.liquidityShares[msg.sender] == 0) {\n      uint index = market.liquidityIndexes[msg.sender];\n      require(index < market.liquidityHolders.length);\n      market.liquidityHolders[index] = market.liquidityHolders[market.liquidityHolders.length-1];\n      market.liquidityHolders.length--;\n    }\n\n    // part of the liquidity is exchanged for outcome shares if not 50-50 market\n    // getting liquidity ratio\n    uint minShares = MAX_UINT_256;\n    uint minOutcomeId;\n\n    for (uint i = 0; i < market.outcomeIds.length; i++) {\n      uint outcomeId = market.outcomeIds[i];\n      MarketOutcome storage outcome = market.outcomes[outcomeId];\n\n      if (outcome.shares.available < minShares) {\n        minShares = outcome.shares.available;\n        minOutcomeId = outcomeId;\n      }\n    }\n\n    uint liquidityRatio = minShares.mul(shares).div(market.liquidityAvailable);\n\n    // equal outcome split, no need to buy shares\n    if (liquidityRatio == shares) {\n      // removing liquidity from market\n      market.liquidityTotal = market.liquidityTotal.sub(liquidityRatio);\n      market.liquidityAvailable = market.liquidityAvailable.sub(liquidityRatio);\n\n      for (uint i = 0; i < market.outcomeIds.length; i++) {\n        uint outcomeId = market.outcomeIds[i];\n        MarketOutcome storage outcome = market.outcomes[outcomeId];\n\n        outcome.shares.available = outcome.shares.available.sub(liquidityRatio);\n        outcome.shares.total = outcome.shares.total.sub(liquidityRatio);\n\n        market.sharesTotal = market.sharesTotal.sub(liquidityRatio);\n        market.sharesAvailable = market.sharesAvailable.sub(liquidityRatio);\n      }\n\n      value = shares;\n    } else {\n      // buying shares from the opposite markets\n      uint outcomeId = minOutcomeId == 0 ? 1 : 0;\n\n      // value received: Total Liquidity / Shares Outcome * Liquidity Removed\n      value = market.liquidityAvailable.mul(shares).div(market.outcomes[outcomeId].shares.available);\n\n      // removing liquidity from market (shares = value)\n      market.liquidityAvailable = market.liquidityAvailable.sub(shares);\n\n      buy(marketId, outcomeId, value, true);\n      // msg.sender.transfer(value);\n    }\n\n    // transferring user ETH from liquidity removed\n    msg.sender.transfer(value);\n  }\n\n  /// Determine the winner of the market, actual algorithm is delegated to an internal function\n  /// @dev Purposefully make this function allowed to be run by anybody, not just the contract owner.\n  /// @return Address of the winner\n  function resolveMarketOutcome(uint marketId, uint outcomeId) public\n    timeTransitions(marketId)\n    atState(marketId, MarketState.closed)\n    returns(address)\n  {\n    // TODO\n  }\n\n\n  /// Allowing winner to withdraw money.\n  /// @dev in order to prevent withrawal address is a malicious contract, we use check-effect-interaction pattern inside.\n  function winnerWithdraw(uint marketId) public\n    atState(marketId, MarketState.closed)\n  {\n    // TOODO\n  }\n\n  // ------ Core Functions End ------\n\n  /// Internal function for advancing the market state.\n  function nextState(uint marketId) internal {\n    Market storage market = markets[marketId];\n    market.state = MarketState(uint(market.state) + 1);\n  }\n\n  // ------ Getters ------\n\n  /// @return stake of the `msg.sender` in the market outcome\n  function myShares(uint marketId, uint outcomeId) public view returns(uint) {\n    Market storage market = markets[marketId];\n    MarketOutcome storage outcome = market.outcomes[outcomeId];\n\n    return outcome.shares.holdersShares[msg.sender];\n  }\n\n  /// @return liquidity stake of the `msg.sender` in the market\n  function myLiquidityShares(uint marketId) public view returns(uint) {\n    Market storage market = markets[marketId];\n\n    return market.liquidityShares[msg.sender];\n  }\n\n  /// Allow retrieving the the array of created contracts\n  /// @return An array of all created Market contracts\n  function getMarkets() public view returns(uint[] memory) {\n    return marketIds;\n  }\n\n  function getMarketName(uint marketId) public view returns(string memory) {\n    Market storage market = markets[marketId];\n    return market.name;\n  }\n\n  function getMarketClosedDateTime(uint marketId) public view returns(uint) {\n    Market storage market = markets[marketId];\n    return market.closedDateTime;\n  }\n\n  function getMarketState(uint marketId) public view returns(MarketState) {\n    Market storage market = markets[marketId];\n    return market.state;\n  }\n\n  function getMarketWinner(uint marketId) public view returns(address) {\n    Market storage market = markets[marketId];\n    return market.winner;\n  }\n\n  function getMarketOracle(uint marketId) public view returns(address) {\n    Market storage market = markets[marketId];\n    return market.oracle;\n  }\n\n  function getMarketAvailableLiquidity(uint marketId) public view returns(uint) {\n    Market storage market = markets[marketId];\n    return market.liquidityAvailable;\n  }\n\n  function getMarketTotalLiquidity(uint marketId) public view returns(uint) {\n    Market storage market = markets[marketId];\n    return market.liquidityTotal;\n  }\n\n  function getMarketTotalShares(uint marketId) public view returns(uint) {\n    Market storage market = markets[marketId];\n    return market.sharesTotal;\n  }\n\n  function getMarketAvailableShares(uint marketId) public view returns(uint) {\n    Market storage market = markets[marketId];\n    return market.sharesAvailable;\n  }\n\n  // ------ Outcome Getters ------\n\n  function getMarketOutcomeIds(uint marketId) public view returns(uint[] memory) {\n    Market storage market = markets[marketId];\n    return market.outcomeIds;\n  }\n\n  function getMarketOutcomeName(uint marketId, uint marketOutcomeId) public view returns(string memory) {\n    Market storage market = markets[marketId];\n    MarketOutcome storage outcome = market.outcomes[marketOutcomeId];\n\n    return outcome.name;\n  }\n\n  function getMarketOutcomePrice(uint marketId, uint marketOutcomeId) public view returns(uint) {\n    Market storage market = markets[marketId];\n    MarketOutcome storage outcome = market.outcomes[marketOutcomeId];\n\n    require(outcome.shares.total >= outcome.shares.available, \"Total shares has to be equal or higher than available shares\");\n    require(market.sharesAvailable >= outcome.shares.available, \"Total # available shares has to be equal or higher than outcome available shares\");\n\n    uint holdersShares = market.sharesAvailable.sub(outcome.shares.available);\n\n    return holdersShares.mul(10**18).div(market.sharesAvailable);\n  }\n\n  function getMarketOutcomeAvailableShares(uint marketId, uint marketOutcomeId) public view returns(uint) {\n    Market storage market = markets[marketId];\n    MarketOutcome storage outcome = market.outcomes[marketOutcomeId];\n\n    return outcome.shares.available;\n  }\n\n  function getMarketOutcomeTotalShares(uint marketId, uint marketOutcomeId) public view returns(uint) {\n    Market storage market = markets[marketId];\n    MarketOutcome storage outcome = market.outcomes[marketOutcomeId];\n\n    return outcome.shares.total;\n  }\n\n  // ------ Getters ------\n\n  // TODO: move to library\n  // fetched from uniswap: https://github.com/Uniswap/uniswap-v2-core/blob/v1.0.1/contracts/libraries/Math.sol\n  // babylonian method (https://en.wikipedia.org/wiki/Methods_of_computing_square_roots#Babylonian_method)\n  function sqrt(uint y) internal pure returns (uint z) {\n    if (y > 3) {\n      z = y;\n      uint x = y / 2 + 1;\n      while (x < z) {\n        z = x;\n        x = (y / x + x) / 2;\n      }\n    } else if (y != 0) {\n      z = 1;\n    }\n  }\n}\n",
  "sourcePath": "/Users/ricardomarques/dev/workspace/polkamarkets/bepro-js/contracts/PredictionMarket.sol",
  "compiler": {
    "name": "solc",
    "version": "0.5.8+commit.23d335f2.Emscripten.clang"
  },
  "schemaVersion": "3.3.4",
  "updatedAt": "2021-04-06T17:48:18.605Z",
  "devdoc": {
    "methods": {
      "createMarket(string,uint256,address,string,string)": {
        "details": "The new Market contract is then saved in the array of this contract for future reference.",
        "params": {
          "duration": "- The duration of the market `open` period",
          "name": "- Name of the market",
          "oracle": "- oracle address"
        }
      },
      "getMarkets()": {
        "return": "An array of all created Market contracts"
      },
      "myLiquidityShares(uint256)": {
        "return": "liquidity stake of the `msg.sender` in the market"
      },
      "myShares(uint256,uint256)": {
        "return": "stake of the `msg.sender` in the market outcome"
      },
      "resolveMarketOutcome(uint256,uint256)": {
        "details": "Purposefully make this function allowed to be run by anybody, not just the contract owner.",
        "return": "Address of the winner"
      },
      "transferOwnership(address)": {
        "details": "Allows the current owner to transfer control of the contract to a newOwner.",
        "params": {
          "newOwner": "The address to transfer ownership to."
        }
      },
      "winnerWithdraw(uint256)": {
        "details": "in order to prevent withrawal address is a malicious contract, we use check-effect-interaction pattern inside."
      }
    },
    "title": "Market Contract Factory"
  },
  "userdoc": {
    "methods": {
      "constructor": "Empty constructor",
      "createMarket(string,uint256,address,string,string)": {
        "notice": "Create a new Market contract"
      },
      "getMarkets()": {
        "notice": "Allow retrieving the the array of created contracts"
      },
      "resolveMarketOutcome(uint256,uint256)": {
        "notice": "Determine the winner of the market, actual algorithm is delegated to an internal function"
      },
      "sell(uint256,uint256,uint256)": {
        "notice": "Sell shares of a market outcome"
      },
      "winnerWithdraw(uint256)": {
        "notice": "Allowing winner to withdraw money."
      }
    }
  }
}