{
  "contractName": "PredictionMarket",
  "abi": [
    {
      "inputs": [
        {
          "internalType": "uint256",
          "name": "_fee",
          "type": "uint256"
        },
        {
          "internalType": "contract IERC20",
          "name": "_token",
          "type": "address"
        },
        {
          "internalType": "uint256",
          "name": "_requiredBalance",
          "type": "uint256"
        },
        {
          "internalType": "address",
          "name": "_realitioAddress",
          "type": "address"
        },
        {
          "internalType": "uint256",
          "name": "_realitioTimeout",
          "type": "uint256"
        }
      ],
      "stateMutability": "nonpayable",
      "type": "constructor"
    },
    {
      "anonymous": false,
      "inputs": [
        {
          "indexed": true,
          "internalType": "address",
          "name": "user",
          "type": "address"
        },
        {
          "indexed": true,
          "internalType": "enum PredictionMarket.MarketAction",
          "name": "action",
          "type": "uint8"
        },
        {
          "indexed": true,
          "internalType": "uint256",
          "name": "marketId",
          "type": "uint256"
        },
        {
          "indexed": false,
          "internalType": "uint256",
          "name": "outcomeId",
          "type": "uint256"
        },
        {
          "indexed": false,
          "internalType": "uint256",
          "name": "shares",
          "type": "uint256"
        },
        {
          "indexed": false,
          "internalType": "uint256",
          "name": "value",
          "type": "uint256"
        },
        {
          "indexed": false,
          "internalType": "uint256",
          "name": "timestamp",
          "type": "uint256"
        }
      ],
      "name": "MarketActionTx",
      "type": "event"
    },
    {
      "anonymous": false,
      "inputs": [
        {
          "indexed": true,
          "internalType": "address",
          "name": "user",
          "type": "address"
        },
        {
          "indexed": true,
          "internalType": "uint256",
          "name": "marketId",
          "type": "uint256"
        },
        {
          "indexed": false,
          "internalType": "uint256",
          "name": "outcomes",
          "type": "uint256"
        },
        {
          "indexed": false,
          "internalType": "string",
          "name": "question",
          "type": "string"
        },
        {
          "indexed": false,
          "internalType": "string",
          "name": "image",
          "type": "string"
        }
      ],
      "name": "MarketCreated",
      "type": "event"
    },
    {
      "anonymous": false,
      "inputs": [
        {
          "indexed": true,
          "internalType": "uint256",
          "name": "marketId",
          "type": "uint256"
        },
        {
          "indexed": false,
          "internalType": "uint256",
          "name": "value",
          "type": "uint256"
        },
        {
          "indexed": false,
          "internalType": "uint256",
          "name": "price",
          "type": "uint256"
        },
        {
          "indexed": false,
          "internalType": "uint256",
          "name": "timestamp",
          "type": "uint256"
        }
      ],
      "name": "MarketLiquidity",
      "type": "event"
    },
    {
      "anonymous": false,
      "inputs": [
        {
          "indexed": true,
          "internalType": "uint256",
          "name": "marketId",
          "type": "uint256"
        },
        {
          "indexed": true,
          "internalType": "uint256",
          "name": "outcomeId",
          "type": "uint256"
        },
        {
          "indexed": false,
          "internalType": "uint256",
          "name": "value",
          "type": "uint256"
        },
        {
          "indexed": false,
          "internalType": "uint256",
          "name": "timestamp",
          "type": "uint256"
        }
      ],
      "name": "MarketOutcomePrice",
      "type": "event"
    },
    {
      "anonymous": false,
      "inputs": [
        {
          "indexed": true,
          "internalType": "address",
          "name": "user",
          "type": "address"
        },
        {
          "indexed": true,
          "internalType": "uint256",
          "name": "marketId",
          "type": "uint256"
        },
        {
          "indexed": false,
          "internalType": "uint256",
          "name": "outcomeId",
          "type": "uint256"
        },
        {
          "indexed": false,
          "internalType": "uint256",
          "name": "timestamp",
          "type": "uint256"
        }
      ],
      "name": "MarketResolved",
      "type": "event"
    },
    {
      "inputs": [],
      "name": "MAX_UINT_256",
      "outputs": [
        {
          "internalType": "uint256",
          "name": "",
          "type": "uint256"
        }
      ],
      "stateMutability": "view",
      "type": "function"
    },
    {
      "inputs": [],
      "name": "ONE",
      "outputs": [
        {
          "internalType": "uint256",
          "name": "",
          "type": "uint256"
        }
      ],
      "stateMutability": "view",
      "type": "function"
    },
    {
      "inputs": [],
      "name": "fee",
      "outputs": [
        {
          "internalType": "uint256",
          "name": "",
          "type": "uint256"
        }
      ],
      "stateMutability": "view",
      "type": "function"
    },
    {
      "inputs": [],
      "name": "marketIndex",
      "outputs": [
        {
          "internalType": "uint256",
          "name": "",
          "type": "uint256"
        }
      ],
      "stateMutability": "view",
      "type": "function"
    },
    {
      "inputs": [],
      "name": "realitioAddress",
      "outputs": [
        {
          "internalType": "address",
          "name": "",
          "type": "address"
        }
      ],
      "stateMutability": "view",
      "type": "function"
    },
    {
      "inputs": [],
      "name": "realitioTimeout",
      "outputs": [
        {
          "internalType": "uint256",
          "name": "",
          "type": "uint256"
        }
      ],
      "stateMutability": "view",
      "type": "function"
    },
    {
      "inputs": [],
      "name": "requiredBalance",
      "outputs": [
        {
          "internalType": "uint256",
          "name": "",
          "type": "uint256"
        }
      ],
      "stateMutability": "view",
      "type": "function"
    },
    {
      "inputs": [],
      "name": "token",
      "outputs": [
        {
          "internalType": "contract IERC20",
          "name": "",
          "type": "address"
        }
      ],
      "stateMutability": "view",
      "type": "function"
    },
    {
      "inputs": [
        {
          "internalType": "string",
          "name": "question",
          "type": "string"
        },
        {
          "internalType": "string",
          "name": "image",
          "type": "string"
        },
        {
          "internalType": "uint256",
          "name": "closesAt",
          "type": "uint256"
        },
        {
          "internalType": "address",
          "name": "arbitrator",
          "type": "address"
        },
        {
          "internalType": "uint256",
          "name": "outcomes",
          "type": "uint256"
        }
      ],
      "name": "createMarket",
      "outputs": [
        {
          "internalType": "uint256",
          "name": "",
          "type": "uint256"
        }
      ],
      "stateMutability": "payable",
      "type": "function"
    },
    {
      "inputs": [
        {
          "internalType": "uint256",
          "name": "amount",
          "type": "uint256"
        },
        {
          "internalType": "uint256",
          "name": "marketId",
          "type": "uint256"
        },
        {
          "internalType": "uint256",
          "name": "outcomeId",
          "type": "uint256"
        }
      ],
      "name": "calcBuyAmount",
      "outputs": [
        {
          "internalType": "uint256",
          "name": "",
          "type": "uint256"
        }
      ],
      "stateMutability": "view",
      "type": "function"
    },
    {
      "inputs": [
        {
          "internalType": "uint256",
          "name": "amount",
          "type": "uint256"
        },
        {
          "internalType": "uint256",
          "name": "marketId",
          "type": "uint256"
        },
        {
          "internalType": "uint256",
          "name": "outcomeId",
          "type": "uint256"
        }
      ],
      "name": "calcSellAmount",
      "outputs": [
        {
          "internalType": "uint256",
          "name": "outcomeTokenSellAmount",
          "type": "uint256"
        }
      ],
      "stateMutability": "view",
      "type": "function"
    },
    {
      "inputs": [
        {
          "internalType": "uint256",
          "name": "marketId",
          "type": "uint256"
        },
        {
          "internalType": "uint256",
          "name": "outcomeId",
          "type": "uint256"
        },
        {
          "internalType": "uint256",
          "name": "minOutcomeSharesToBuy",
          "type": "uint256"
        }
      ],
      "name": "buy",
      "outputs": [],
      "stateMutability": "payable",
      "type": "function"
    },
    {
      "inputs": [
        {
          "internalType": "uint256",
          "name": "marketId",
          "type": "uint256"
        },
        {
          "internalType": "uint256",
          "name": "outcomeId",
          "type": "uint256"
        },
        {
          "internalType": "uint256",
          "name": "value",
          "type": "uint256"
        },
        {
          "internalType": "uint256",
          "name": "maxOutcomeSharesToSell",
          "type": "uint256"
        }
      ],
      "name": "sell",
      "outputs": [],
      "stateMutability": "payable",
      "type": "function"
    },
    {
      "inputs": [
        {
          "internalType": "uint256",
          "name": "marketId",
          "type": "uint256"
        }
      ],
      "name": "addLiquidity",
      "outputs": [],
      "stateMutability": "payable",
      "type": "function"
    },
    {
      "inputs": [
        {
          "internalType": "uint256",
          "name": "marketId",
          "type": "uint256"
        },
        {
          "internalType": "uint256",
          "name": "shares",
          "type": "uint256"
        }
      ],
      "name": "removeLiquidity",
      "outputs": [],
      "stateMutability": "payable",
      "type": "function"
    },
    {
      "inputs": [
        {
          "internalType": "uint256",
          "name": "marketId",
          "type": "uint256"
        }
      ],
      "name": "resolveMarketOutcome",
      "outputs": [
        {
          "internalType": "uint256",
          "name": "",
          "type": "uint256"
        }
      ],
      "stateMutability": "nonpayable",
      "type": "function"
    },
    {
      "inputs": [
        {
          "internalType": "uint256",
          "name": "marketId",
          "type": "uint256"
        }
      ],
      "name": "claimWinnings",
      "outputs": [],
      "stateMutability": "nonpayable",
      "type": "function"
    },
    {
      "inputs": [
        {
          "internalType": "uint256",
          "name": "marketId",
          "type": "uint256"
        },
        {
          "internalType": "uint256",
          "name": "outcomeId",
          "type": "uint256"
        }
      ],
      "name": "claimVoidedOutcomeShares",
      "outputs": [],
      "stateMutability": "nonpayable",
      "type": "function"
    },
    {
      "inputs": [
        {
          "internalType": "uint256",
          "name": "marketId",
          "type": "uint256"
        }
      ],
      "name": "claimLiquidity",
      "outputs": [],
      "stateMutability": "nonpayable",
      "type": "function"
    },
    {
      "inputs": [
        {
          "internalType": "uint256",
          "name": "marketId",
          "type": "uint256"
        }
      ],
      "name": "claimFees",
      "outputs": [],
      "stateMutability": "payable",
      "type": "function"
    },
    {
      "inputs": [
        {
          "internalType": "uint256",
          "name": "marketId",
          "type": "uint256"
        },
        {
          "internalType": "address",
          "name": "user",
          "type": "address"
        }
      ],
      "name": "getUserMarketShares",
      "outputs": [
        {
          "internalType": "uint256",
          "name": "",
          "type": "uint256"
        },
        {
          "internalType": "uint256",
          "name": "",
          "type": "uint256"
        },
        {
          "internalType": "uint256",
          "name": "",
          "type": "uint256"
        }
      ],
      "stateMutability": "view",
      "type": "function"
    },
    {
      "inputs": [
        {
          "internalType": "uint256",
          "name": "marketId",
          "type": "uint256"
        },
        {
          "internalType": "address",
          "name": "user",
          "type": "address"
        }
      ],
      "name": "getUserClaimStatus",
      "outputs": [
        {
          "internalType": "bool",
          "name": "",
          "type": "bool"
        },
        {
          "internalType": "bool",
          "name": "",
          "type": "bool"
        },
        {
          "internalType": "bool",
          "name": "",
          "type": "bool"
        },
        {
          "internalType": "bool",
          "name": "",
          "type": "bool"
        },
        {
          "internalType": "uint256",
          "name": "",
          "type": "uint256"
        }
      ],
      "stateMutability": "view",
      "type": "function"
    },
    {
      "inputs": [
        {
          "internalType": "uint256",
          "name": "marketId",
          "type": "uint256"
        },
        {
          "internalType": "address",
          "name": "user",
          "type": "address"
        }
      ],
      "name": "getUserLiquidityPoolShare",
      "outputs": [
        {
          "internalType": "uint256",
          "name": "",
          "type": "uint256"
        }
      ],
      "stateMutability": "view",
      "type": "function"
    },
    {
      "inputs": [
        {
          "internalType": "uint256",
          "name": "marketId",
          "type": "uint256"
        },
        {
          "internalType": "address",
          "name": "user",
          "type": "address"
        }
      ],
      "name": "getUserClaimableFees",
      "outputs": [
        {
          "internalType": "uint256",
          "name": "",
          "type": "uint256"
        }
      ],
      "stateMutability": "view",
      "type": "function"
    },
    {
      "inputs": [],
      "name": "getMarkets",
      "outputs": [
        {
          "internalType": "uint256[]",
          "name": "",
          "type": "uint256[]"
        }
      ],
      "stateMutability": "view",
      "type": "function"
    },
    {
      "inputs": [
        {
          "internalType": "uint256",
          "name": "marketId",
          "type": "uint256"
        }
      ],
      "name": "getMarketData",
      "outputs": [
        {
          "internalType": "enum PredictionMarket.MarketState",
          "name": "",
          "type": "uint8"
        },
        {
          "internalType": "uint256",
          "name": "",
          "type": "uint256"
        },
        {
          "internalType": "uint256",
          "name": "",
          "type": "uint256"
        },
        {
          "internalType": "uint256",
          "name": "",
          "type": "uint256"
        },
        {
          "internalType": "uint256",
          "name": "",
          "type": "uint256"
        },
        {
          "internalType": "int256",
          "name": "",
          "type": "int256"
        }
      ],
      "stateMutability": "view",
      "type": "function"
    },
    {
      "inputs": [
        {
          "internalType": "uint256",
          "name": "marketId",
          "type": "uint256"
        }
      ],
      "name": "getMarketAltData",
      "outputs": [
        {
          "internalType": "uint256",
          "name": "",
          "type": "uint256"
        },
        {
          "internalType": "bytes32",
          "name": "",
          "type": "bytes32"
        },
        {
          "internalType": "uint256",
          "name": "",
          "type": "uint256"
        }
      ],
      "stateMutability": "view",
      "type": "function"
    },
    {
      "inputs": [
        {
          "internalType": "uint256",
          "name": "marketId",
          "type": "uint256"
        }
      ],
      "name": "getMarketQuestion",
      "outputs": [
        {
          "internalType": "bytes32",
          "name": "",
          "type": "bytes32"
        }
      ],
      "stateMutability": "view",
      "type": "function"
    },
    {
      "inputs": [
        {
          "internalType": "uint256",
          "name": "marketId",
          "type": "uint256"
        }
      ],
      "name": "getMarketPrices",
      "outputs": [
        {
          "internalType": "uint256",
          "name": "",
          "type": "uint256"
        },
        {
          "internalType": "uint256",
          "name": "",
          "type": "uint256"
        },
        {
          "internalType": "uint256",
          "name": "",
          "type": "uint256"
        }
      ],
      "stateMutability": "view",
      "type": "function"
    },
    {
      "inputs": [
        {
          "internalType": "uint256",
          "name": "marketId",
          "type": "uint256"
        }
      ],
      "name": "getMarketLiquidityPrice",
      "outputs": [
        {
          "internalType": "uint256",
          "name": "",
          "type": "uint256"
        }
      ],
      "stateMutability": "view",
      "type": "function"
    },
    {
      "inputs": [
        {
          "internalType": "uint256",
          "name": "marketId",
          "type": "uint256"
        }
      ],
      "name": "getMarketResolvedOutcome",
      "outputs": [
        {
          "internalType": "int256",
          "name": "",
          "type": "int256"
        }
      ],
      "stateMutability": "view",
      "type": "function"
    },
    {
      "inputs": [
        {
          "internalType": "uint256",
          "name": "marketId",
          "type": "uint256"
        }
      ],
      "name": "isMarketVoided",
      "outputs": [
        {
          "internalType": "bool",
          "name": "",
          "type": "bool"
        }
      ],
      "stateMutability": "view",
      "type": "function"
    },
    {
      "inputs": [
        {
          "internalType": "uint256",
          "name": "marketId",
          "type": "uint256"
        }
      ],
      "name": "getMarketOutcomeIds",
      "outputs": [
        {
          "internalType": "uint256[]",
          "name": "",
          "type": "uint256[]"
        }
      ],
      "stateMutability": "view",
      "type": "function"
    },
    {
      "inputs": [
        {
          "internalType": "uint256",
          "name": "marketId",
          "type": "uint256"
        },
        {
          "internalType": "uint256",
          "name": "outcomeId",
          "type": "uint256"
        }
      ],
      "name": "getMarketOutcomePrice",
      "outputs": [
        {
          "internalType": "uint256",
          "name": "",
          "type": "uint256"
        }
      ],
      "stateMutability": "view",
      "type": "function"
    },
    {
      "inputs": [
        {
          "internalType": "uint256",
          "name": "marketId",
          "type": "uint256"
        },
        {
          "internalType": "uint256",
          "name": "outcomeId",
          "type": "uint256"
        }
      ],
      "name": "getMarketOutcomeData",
      "outputs": [
        {
          "internalType": "uint256",
          "name": "",
          "type": "uint256"
        },
        {
          "internalType": "uint256",
          "name": "",
          "type": "uint256"
        },
        {
          "internalType": "uint256",
          "name": "",
          "type": "uint256"
        }
      ],
      "stateMutability": "view",
      "type": "function"
    }
  ],
  "bytecode": "0x60806040523480156200001157600080fd5b50604051620033f2380380620033f2833981016040819052620000349162000075565b600394909455600680546001600160a01b039485166001600160a01b03199182161790915560079290925560048054919093169116179055600555620000e9565b600080600080600060a086880312156200008d578081fd5b855194506020860151620000a181620000d0565b604087015160608801519195509350620000bb81620000d0565b80925050608086015190509295509295909350565b6001600160a01b0381168114620000e657600080fd5b50565b6132f980620000f96000396000f3fe6080604052600436106101945760003560e01c806308560ace146101995780631d7920aa146101c457806328747a80146101f35780632c2aa24e1461021357806331877a38146102445780633620875e146102715780633d41a26b146102865780633fe45e3b1461029b57806340993b26146102b0578063429c9dff146102c35780634397c4ce146102e3578063441cf65e1461030357806351c6590a146103305780635e648eff14610343578063677bd9ff146103635780637b34e6e01461038357806385b91d8e146103a55780638c7adc15146103c55780638cd41552146103da5780639d7de6b3146103fa578063aa22a02e1461040d578063ac68a7481461042d578063b31eb89514610440578063bf45572114610460578063bfacba3d14610480578063c2ee3a08146104b2578063c346a9d0146104c7578063c8f70d01146104e7578063ddca3f4314610507578063ec2c90161461051c578063ec93f0f514610531578063efbc47dc14610551578063efce431314610564578063fc0c546a14610584578063fdff808514610599575b600080fd5b3480156101a557600080fd5b506101ae6105b9565b6040516101bb9190612c12565b60405180910390f35b3480156101d057600080fd5b506101e46101df366004612a9d565b6105bf565b6040516101bb93929190613226565b3480156101ff57600080fd5b506101ae61020e366004612a9d565b6105de565b34801561021f57600080fd5b5061023361022e366004612ab5565b610758565b6040516101bb959493929190612beb565b34801561025057600080fd5b5061026461025f366004612a9d565b610828565b6040516101bb9190612b9c565b61028461027f366004612b2d565b610891565b005b34801561029257600080fd5b506101ae610ab5565b3480156102a757600080fd5b506101ae610abb565b6102846102be366004612b02565b610ac1565b3480156102cf57600080fd5b506101ae6102de366004612b02565b610c4f565b3480156102ef57600080fd5b506101ae6102fe366004612a9d565b610daf565b34801561030f57600080fd5b5061032361031e366004612a9d565b610dc4565b6040516101bb9190612be0565b61028461033e366004612a9d565b610e09565b34801561034f57600080fd5b5061028461035e366004612a9d565b610e91565b34801561036f57600080fd5b5061028461037e366004612a9d565b61104b565b34801561038f57600080fd5b506103986111a3565b6040516101bb9190612b88565b3480156103b157600080fd5b506101e46103c0366004612a9d565b6111b2565b3480156103d157600080fd5b506101ae6111e3565b3480156103e657600080fd5b506101ae6103f5366004612ae1565b6111e9565b610284610408366004612ae1565b6112a9565b34801561041957600080fd5b506101ae610428366004612ab5565b61169b565b61028461043b366004612a9d565b6116ee565b34801561044c57600080fd5b506101e461045b366004612ab5565b6117b7565b34801561046c57600080fd5b506101ae61047b366004612a9d565b611812565b34801561048c57600080fd5b506104a061049b366004612a9d565b61184f565b6040516101bb96959493929190612c1b565b3480156104be57600080fd5b506101ae6118a8565b3480156104d357600080fd5b506101ae6104e2366004612b02565b6118b4565b3480156104f357600080fd5b506101ae610502366004612a9d565b6119e4565b34801561051357600080fd5b506101ae611a97565b34801561052857600080fd5b50610264611a9d565b34801561053d57600080fd5b5061028461054c366004612ae1565b611af5565b6101ae61055f366004612a0d565b611cb5565b34801561057057600080fd5b506101e461057f366004612ae1565b611f7c565b34801561059057600080fd5b50610398611fc0565b3480156105a557600080fd5b506101ae6105b4366004612ab5565b611fcf565b60075481565b6000908152600160205260409020600a81015460099091015490918190565b60008181526001602052604081205482904211801561061a575060008181526001602052604081206006015460ff16600281111561061857fe5b145b156106285761062881612048565b8260018060008381526001602052604090206006015460ff16600281111561064c57fe5b1461065657600080fd5b600085815260016020526040808220600480546009830154935163684e62bf60e11b81528a9593946001600160a01b039092169392849263d09cc57e9261069d9201612c12565b60206040518083038186803b1580156106b557600080fd5b505afa1580156106c9573d6000803e3d6000fd5b505050506040513d601f19601f820116820180604052506106ed91908101906129f5565b60088401819055604051909150899033907f67a6457c8912ae1b7a9fbdfa311cbd016ba606b548bf06bc80bc751072d91bbc9061072d9085904290613275565b60405180910390a361073e89612098565b505060080154945061074f81612048565b50505050919050565b600082815260016020526040812081908190819081906002600682015460ff16600281111561078357fe5b146107a8576000806000806107988c8c611fcf565b955095509550955095505061081e565b60088101546000908152600e8201602090815260408083206001600160a01b038b16845260048082018452828520546005808401865284872054928801865284872054908801909552929094205490939115159260ff9283169290151591166108118d8d611fcf565b9650965096509650965050505b9295509295909350565b600081815260016020908152604091829020600d81018054845181850281018501909552808552606094929383018282801561088357602002820191906000526020600020905b81548152602001906001019080831161086f575b50505050509150505b919050565b6000848152600160205260409020548490421180156108cd575060008181526001602052604081206006015460ff1660028111156108cb57fe5b145b156108db576108db81612048565b8460008060008381526001602052604090206006015460ff1660028111156108ff57fe5b1461090957600080fd5b6000878152600160209081526040808320898452600e810190925282209091610933888b8b6118b4565b90508681111561095e5760405162461bcd60e51b8152600401610955906131ad565b60405180910390fd5b33600090815260048301602052604090205481111561098f5760405162461bcd60e51b8152600401610955906130ef565b61099b338b8b8461213b565b60006109ba600354670de0b6b3a76400006121da90919063ffffffff16565b600a8501546109d0908b9063ffffffff61220216565b816109d757fe5b600b86015491900491506109f1908263ffffffff61223c16565b600b8501556000610a088a8363ffffffff61223c16565b90508085600101541015610a2e5760405162461bcd60e51b8152600401610955906130ac565b610a388c82612261565b60405133908b156108fc02908c906000818181858888f19350505050158015610a65573d6000803e3d6000fd5b508b6001336001600160a01b03166000805160206132848339815191528e878f42604051610a969493929190612c52565b60405180910390a4610aa78c612098565b505050505050505050505050565b60001981565b60055481565b600083815260016020526040902054839042118015610afd575060008181526001602052604081206006015460ff166002811115610afb57fe5b145b15610b0b57610b0b81612048565b8360008060008381526001602052604090206006015460ff166002811115610b2f57fe5b14610b3957600080fd5b6000868152600160205260408120903490610b55828a8a610c4f565b905086811015610b775760405162461bcd60e51b815260040161095590613176565b600a830154600090670de0b6b3a764000090610b9a90859063ffffffff61220216565b81610ba157fe5b600b8601549190049150610bbb908263ffffffff61223c16565b600b8501556000610bd2848363ffffffff6121da16565b60008b8152600e870160205260409020909150610bef8c83612304565b6003810154841115610c135760405162461bcd60e51b815260040161095590613130565b610c1f338d8d8761239d565b8b6000336001600160a01b03166000805160206132848339815191528e888a42604051610a969493929190612c52565b60008281526001602052604081206060610c688561242c565b90506000610ca8670de0b6b3a7640000610c9285600a01600001548a61220290919063ffffffff16565b81610c9957fe5b8991900463ffffffff6121da16565b90506000828681518110610cb857fe5b602002602001015190506000610cdf670de0b6b3a76400008361220290919063ffffffff16565b905060005b8451811015610d4a57878114610d42576000858281518110610d0257fe5b60200260200101519050610d3e610d22868361223c90919063ffffffff16565b610d32858463ffffffff61220216565b9063ffffffff6124bf16565b9250505b600101610ce4565b5060008111610d6b5760405162461bcd60e51b815260040161095590612cbf565b610da2610d8682670de0b6b3a764000063ffffffff6124bf16565b610d96848663ffffffff61223c16565b9063ffffffff6121da16565b9998505050505050505050565b60009081526001602052604090206009015490565b60008181526001602052604081206002600682015460ff166002811115610de757fe5b14610df657600091505061088c565b600d810154600890910154101592915050565b600081815260016020526040902054819042118015610e45575060008181526001602052604081206006015460ff166002811115610e4357fe5b145b15610e5357610e5381612048565b8160008060008381526001602052604090206006015460ff166002811115610e7757fe5b14610e8157600080fd5b610e8b84346124ef565b50505050565b8060028060008381526001602052604090206006015460ff166002811115610eb557fe5b14610ebf57600080fd5b6000838152600160205260409020610ed6846116ee565b336000908152600482016020526040902054610f045760405162461bcd60e51b815260040161095590613069565b33600090815260058201602052604090205460ff1615610f365760405162461bcd60e51b815260040161095590613022565b6000610f41856119e4565b33600090815260048401602052604081205491925090670de0b6b3a764000090610f7290849063ffffffff61220216565b81610f7957fe5b0490508083600101541015610fa05760405162461bcd60e51b815260040161095590612e88565b6001830154610fb5908263ffffffff6121da16565b600184810191909155336000818152600580870160209081526040808420805460ff19169096179095556004880190528382205493518a949193926000805160206132848339815191529261100d9288904290612c52565b60405180910390a4604051339082156108fc029083906000818181858888f19350505050158015611042573d6000803e3d6000fd5b50505050505050565b8060028060008381526001602052604090206006015460ff16600281111561106f57fe5b1461107957600080fd5b600083815260016020908152604080832060088101548452600e81018352818420338552600481019093529220546110c35760405162461bcd60e51b815260040161095590612d99565b33600090815260058201602052604090205460ff16156110f55760405162461bcd60e51b815260040161095590612f49565b336000908152600482016020526040902054600183015481111561112b5760405162461bcd60e51b815260040161095590612e88565b6001830154611140908263ffffffff6121da16565b6001808501919091553360009081526005840160205260409020805460ff1916909117905585600460088501543360008181526004870160205260409081902054905191926000805160206132848339815191529261100d929088904290612c52565b6004546001600160a01b031681565b60008060006111c0846119e4565b6111cb8560006111e9565b6111d68660016111e9565b9250925092509193909250565b60025481565b6000828152600160209081526040808320848452600e810190925282206002600683015460ff16600281111561121b57fe5b14801561122e575061122c85610dc4565b155b15611258576008820154841461124557600061124f565b670de0b6b3a76400005b925050506112a3565b6003808301549082015461129e919061129290670de0b6b3a76400009061128690849063ffffffff6121da16565b9063ffffffff61220216565b9063ffffffff61288716565b925050505b92915050565b6000828152600160205260409020548290421180156112e5575060008181526001602052604081206006015460ff1660028111156112e357fe5b145b156112f3576112f381612048565b8260008060008381526001602052604090206006015460ff16600281111561131757fe5b1461132157600080fd5b6000858152600160209081526040808320338452600481019092529091205485111561135f5760405162461bcd60e51b8152600401610955906130ef565b611368866116ee565b611374868660036128a8565b5060606113808761242c565b9050606081516040519080825280602002602001820160405280156113af578160200160208202803883390190505b50905060001960005b83518110156113ee5760008482815181106113cf57fe5b60200260200101519050808311156113e5578092505b506001016113b8565b50600284015460009061140b906112928b8563ffffffff61220216565b905060005b84518110156114a95785600201546114448b87848151811061142e57fe5b602002602001015161220290919063ffffffff16565b8161144b57fe5b0484828151811061145857fe5b60200260200101818152505061148a8285838151811061147457fe5b60200260200101516121da90919063ffffffff16565b84828151811061149657fe5b6020908102919091010152600101611410565b506114b48a82612261565b60028501546114c9908a63ffffffff6121da16565b60028601553360009081526004860160205260409020546114f0908a63ffffffff6121da16565b3360009081526004870160205260408120919091555b84518110156115f157600084828151811061151d57fe5b602002602001015111156115e9576003808701546000838152600e89016020526040902090910154855161156a9033908f9086908a908290811061155d57fe5b602002602001015161239d565b8c6000336001600160a01b0316600080516020613284833981519152868a888151811061159357fe5b60200260200101516115cd8e600301546112928e8c815181106115b257fe5b60200260200101516112868b8d6121da90919063ffffffff16565b426040516115de9493929190612c52565b60405180910390a450505b600101611506565b50604051339082156108fc029083906000818181858888f1935050505015801561161f573d6000803e3d6000fd5b50896003336001600160a01b031660008051602061328483398151915260008d86426040516116519493929190612c52565b60405180910390a4896000805160206132a483398151915286600201546116778d6119e4565b4260405161168793929190613226565b60405180910390a250505050505050505050565b600082815260016020908152604080832060028101546001600160a01b0386168552600482019093529083205490916116e69161129290670de0b6b3a764000063ffffffff61220216565b949350505050565b6000818152600160205260408120906117078333611fcf565b9050801561177357336000908152600c83016020526040902054611731908263ffffffff61223c16565b336000818152600c85016020526040808220939093559151909183156108fc02918491818181858888f19350505050158015611771573d6000803e3d6000fd5b505b826006336000818152600486016020526040808220549051600080516020613284833981519152926117aa92909188904290612c52565b60405180910390a4505050565b60009182526001602081815260408085206001600160a01b03949094168086526004808601845282872054878052600e9096018085528388208389528201855283882054958852845282872091875201909152909220549092565b60008181526001602052604081206002600682015460ff16600281111561183557fe5b146118455760001991505061088c565b6008015492915050565b6000818152600160208190526040822060068101548154600283015493830154600384015486958695869586958695929460ff90921693909290916118938d611812565b949d939c50919a509850965090945092505050565b670de0b6b3a764000081565b600082815260016020526040812060606118cd8561242c565b600a8301549091506000906118f190670de0b6b3a76400009063ffffffff6121da16565b61190988670de0b6b3a764000063ffffffff61220216565b8161191057fe5b049050600082868151811061192157fe5b602002602001015190506000611948670de0b6b3a76400008361220290919063ffffffff16565b905060005b84518110156119975787811461198f57600085828151811061196b57fe5b6020026020010151905061198b610d2286836121da90919063ffffffff16565b9250505b60010161194d565b50600081116119b85760405162461bcd60e51b815260040161095590612cbf565b610da282610d966119d784670de0b6b3a764000063ffffffff6124bf16565b869063ffffffff61223c16565b60008181526001602052604081206002600682015460ff166002811115611a0757fe5b148015611a1a5750611a1883610dc4565b155b15611a6257600281015460088201546000908152600e83016020526040902060030154611a5a919061129290670de0b6b3a764000063ffffffff61220216565b91505061088c565b6003810154600d8201546002830154611a9092916112929190670de0b6b3a76400000263ffffffff61220216565b9392505050565b60035481565b60606000805480602002602001604051908101604052809291908181526020018280548015611aeb57602002820191906000526020600020905b815481526020019060010190808311611ad7575b5050505050905090565b8160028060008381526001602052604090206006015460ff166002811115611b1957fe5b14611b2357600080fd5b6000848152600160209081526040808320868452600e8101835281842033855260048101909352922054611b695760405162461bcd60e51b815260040161095590612d23565b33600090815260068201602052604090205460ff1615611b9b5760405162461bcd60e51b8152600401610955906131e3565b6000611ba787876111e9565b33600090815260048401602052604081205491925090611bdc90670de0b6b3a76400009061129290859063ffffffff61220216565b90508084600101541015611c025760405162461bcd60e51b815260040161095590612e88565b6001840154611c17908263ffffffff6121da16565b6001808601919091553360009081526006850160205260409020805460ff191690911790558760073360008181526004870160205260409081902054905160008051602061328483398151915291611c75918d919088904290612c52565b60405180910390a4604051339082156108fc029083906000818181858888f19350505050158015611caa573d6000803e3d6000fd5b505050505050505050565b6007546006546040516370a0823160e01b8152600092916001600160a01b0316906370a0823190611cea903390600401612b88565b60206040518083038186803b158015611d0257600080fd5b505afa158015611d16573d6000803e3d6000fd5b505050506040513d601f19601f82011682018060405250611d3a91908101906129f5565b1015611d585760405162461bcd60e51b815260040161095590612eff565b60025460008054600181810183557f290decd9548b62a8d60345a988386fc84ba6bc95484008f6362f93160ef3e5639091018390558282526020526040902034611db45760405162461bcd60e51b815260040161095590612cf4565b42861015611dd45760405162461bcd60e51b815260040161095590612fd8565b83600214611df45760405162461bcd60e51b815260040161095590612de3565b85815560068101805460ff19169055600354600a820155600019600882015560005b84811015611e5857600d820180546001818101835560009283526020808420909201849055838352600e85019091526040909120848155810182905501611e16565b506000600460009054906101000a90046001600160a01b03169050806001600160a01b031663d4876b9f60028d8d8a6005548d6000806040518963ffffffff1660e01b8152600401611eb1989796959493929190612c6d565b602060405180830381600087803b158015611ecb57600080fd5b505af1158015611edf573d6000803e3d6000fd5b505050506040513d601f19601f82011682018060405250611f0391908101906129f5565b6009830155611f1283346124ef565b611f1b83612098565b82336001600160a01b03167f928446b14f4c661d8499681f1d2eb118eb6e89066877a7d43e0672a27cc63a32878e8e8e8e604051611f5d95949392919061323c565b60405180910390a3505060028054600101905598975050505050505050565b6000828152600160209081526040808320848452600e8101909252822082918291611fa787876111e9565b6003820154600290920154909891975095509350505050565b6006546001600160a01b031681565b600082815260016020908152604080832060028101546001600160a01b03861685526004820190935290832054600b8201549192849261201992611292919063ffffffff61220216565b6001600160a01b0385166000908152600c8401602052604090205490915061129e90829063ffffffff6121da16565b6000818152600160205260409020600681015460ff16600281111561206957fe5b600101600281111561207757fe5b60068201805460ff1916600183600281111561208f57fe5b02179055505050565b6000818152600160205260408120905b600d8201548110156121005780837f8270f0a0534b13b7f92d1dbd58aa75c5207b40c55fefa7a17110c6136ad7270b6120e186856111e9565b426040516120f0929190613275565b60405180910390a36001016120a8565b50816000805160206132a4833981519152826002015461211f856119e4565b4260405161212f93929190613226565b60405180910390a25050565b6000838152600160209081526040808320858452600e810183528184206001600160a01b03891685526004810190935292205461217e908463ffffffff6121da16565b6001600160a01b038716600090815260048301602052604090205560038101546121ae908463ffffffff61223c16565b6003808301919091558201546121ca908463ffffffff61223c16565b8260030181905550505050505050565b6000828211156121fc5760405162461bcd60e51b815260040161095590612e51565b50900390565b600082612211575060006112a3565b8282028284828161221e57fe5b0414611a905760405162461bcd60e51b815260040161095590612f97565b600082820183811015611a905760405162461bcd60e51b815260040161095590612d64565b6000828152600160205260408120905b600d8201548110156122e4576000818152600e83016020526040902060038101546122a2908563ffffffff6121da16565b600382015560028101546122bc908563ffffffff6121da16565b600282015560038301546122d6908563ffffffff6121da16565b600384015550600101612271565b5060018101546122fa908363ffffffff6121da16565b6001909101555050565b6000828152600160205260408120905b600d820154811015612387576000818152600e8301602052604090206003810154612345908563ffffffff61223c16565b6003820155600281015461235f908563ffffffff61223c16565b60028201556003830154612379908563ffffffff61223c16565b600384015550600101612314565b5060018101546122fa908363ffffffff61223c16565b6000838152600160209081526040808320858452600e810183528184206001600160a01b0389168552600481019093529220546123e0908463ffffffff61223c16565b6001600160a01b03871660009081526004830160205260409020556003810154612410908463ffffffff6121da16565b6003808301919091558201546121ca908463ffffffff6121da16565b600081815260016020908152604091829020600d81015483518181528184028101909301909352606092909183918015612470578160200160208202803883390190505b50905060005b600d8301548110156124b7576000818152600e8401602052604090206003015482518390839081106124a457fe5b6020908102919091010152600101612476565b509392505050565b600082156124de578160018403816124d357fe5b0460010190506112a3565b8183816124e757fe5b049392505050565b60008281526001602052604090205482904211801561252b575060008181526001602052604081206006015460ff16600281111561252957fe5b145b156125395761253981612048565b8260008060008381526001602052604090206006015460ff16600281111561255d57fe5b1461256757600080fd5b6000858152600160205260409020846125925760405162461bcd60e51b815260040161095590612e1a565b6000606061259f8861242c565b9050606081516040519080825280602002602001820160405280156125ce578160200160208202803883390190505b506002850154909150600090156126bd5760005b83518110156126185760008482815181106125f957fe5b602002602001015190508083101561260f578092505b506001016125e2565b5060005b83518110156126885760008261264e86848151811061263757fe5b60200260200101518d61220290919063ffffffff16565b8161265557fe5b0490506126688b8263ffffffff6121da16565b84838151811061267457fe5b60209081029190910101525060010161261c565b50806126a186600201548b61220290919063ffffffff16565b816126a857fe5b0493506126b78a8560026128a8565b506126c1565b8893505b60028501546126d6908563ffffffff61223c16565b60028601553360009081526004860160205260409020546126fd908563ffffffff61223c16565b3360009081526004870160205260409020556127198a8a612304565b60005b82518110156127df57600083828151811061273357fe5b602002602001015111156127d7576003808701546000838152600e8901602052604090209091015484516127739033908f90869089908290811061155d57fe5b8c6000336001600160a01b03166000805160206132848339815191528689888151811061279c57fe5b60200260200101516127bb8e600301546112928d8c815181106115b257fe5b426040516127cc9493929190612c52565b60405180910390a450505b60010161271c565b5060006127eb8b6119e4565b90506000670de0b6b3a7640000612808838863ffffffff61220216565b8161280f57fe5b0490508b6002336001600160a01b031660008051602061328483398151915260008a86426040516128439493929190612c52565b60405180910390a48b6000805160206132a48339815191528860020154844260405161287193929190613226565b60405180910390a2505050505050505050505050565b60008082116124de5760405162461bcd60e51b815260040161095590612ecb565b60008381526001602052604081206002810154600b82015483916128d79161129290889063ffffffff61220216565b905060028460078111156128e757fe5b141561294057600b820154612902908263ffffffff61223c16565b600b830155336000908152600c83016020526040902054612929908263ffffffff61223c16565b336000908152600c8401602052604090205561298f565b600b820154612955908263ffffffff6121da16565b600b830155336000908152600c8301602052604090205461297c908263ffffffff6121da16565b336000908152600c840160205260409020555b50509392505050565b80356001600160a01b03811681146112a357600080fd5b60008083601f8401126129c0578182fd5b5081356001600160401b038111156129d6578182fd5b6020830191508360208285010111156129ee57600080fd5b9250929050565b600060208284031215612a06578081fd5b5051919050565b600080600080600080600060a0888a031215612a27578283fd5b87356001600160401b0380821115612a3d578485fd5b612a498b838c016129af565b909950975060208a0135915080821115612a61578485fd5b50612a6e8a828b016129af565b90965094505060408801359250612a888960608a01612998565b91506080880135905092959891949750929550565b600060208284031215612aae578081fd5b5035919050565b60008060408385031215612ac7578182fd5b82359150612ad88460208501612998565b90509250929050565b60008060408385031215612af3578182fd5b50508035926020909101359150565b600080600060608486031215612b16578283fd5b505081359360208301359350604090920135919050565b60008060008060808587031215612b42578384fd5b5050823594602084013594506040840135936060013592509050565b60008284528282602086013780602084860101526020601f19601f85011685010190509392505050565b6001600160a01b0391909116815260200190565b6020808252825182820181905260009190848201906040850190845b81811015612bd457835183529284019291840191600101612bb8565b50909695505050505050565b901515815260200190565b94151585529215156020850152901515604084015215156060830152608082015260a00190565b90815260200190565b60c0810160038810612c2957fe5b968152602081019590955260408501939093526060840191909152608083015260a09091015290565b93845260208401929092526040830152606082015260800190565b600089825260e06020830152612c8760e08301898b612b5e565b6001600160a01b039790971660408301525063ffffffff948516606082015292909316608083015260a082015260c001529392505050565b6020808252601b908201527a6d7573742068617665206e6f6e2d7a65726f2062616c616e63657360281b604082015260600190565b60208082526015908201527407374616b65206e6565647320746f206265203e203605c1b604082015260600190565b60208082526021908201527f7573657220646f6573206e6f7420686f6c64206f7574636f6d652073686172656040820152607360f81b606082015260800190565b6020808252601b908201527a536166654d6174683a206164646974696f6e206f766572666c6f7760281b604082015260600190565b6020808252602a908201527f7573657220646f6573206e6f7420686f6c64207265736f6c766564206f7574636040820152696f6d652073686172657360b01b606082015260800190565b6020808252601e908201527f6e756d626572206f66206f7574636f6d65732068617320746f20626520320000604082015260600190565b6020808252601f908201527f7374616b652068617320746f2062652067726561746572207468616e20302e00604082015260600190565b6020808252601e908201527f536166654d6174683a207375627472616374696f6e206f766572666c6f770000604082015260600190565b60208082526023908201527f4d61726b657420646f6573206e6f74206861766520656e6f7567682062616c616040820152626e636560e81b606082015260800190565b6020808252601a9082015279536166654d6174683a206469766973696f6e206279207a65726f60301b604082015260600190565b6020808252602a908201527f6d73672e73656e646572206d75737420686f6c64206d696e696d756d2065726360408201526932302062616c616e636560b01b606082015260800190565b6020808252602e908201527f7573657220616c726561647920636c61696d6564207265736f6c766564206f7560408201526d74636f6d652077696e6e696e677360901b606082015260800190565b60208082526021908201527f536166654d6174683a206d756c7469706c69636174696f6e206f766572666c6f6040820152607760f81b606082015260800190565b6020808252602a908201527f6d61726b6574206d757374207265736f6c7665206166746572207468652063756040820152697272656e74206461746560b01b606082015260800190565b60208082526027908201527f7573657220616c726561647920636c61696d6564206c69717569646974792077604082015266696e6e696e677360c81b606082015260800190565b60208082526023908201527f7573657220646f6573206e6f7420686f6c64206c69717569646974792073686160408201526272657360e81b606082015260800190565b60208082526023908201527f6d61726b657420646f6573206e6f74206861766520656e6f7567682062616c616040820152626e636560e81b606082015260800190565b60208082526021908201527f7573657220646f6573206e6f74206861766520656e6f7567682062616c616e636040820152606560f81b606082015260800190565b60208082526026908201527f6f7574636f6d652073686172657320706f6f6c2062616c616e636520697320746040820152656f6f206c6f7760d01b606082015260800190565b6020808252601e908201527f6d696e696d756d2062757920616d6f756e74206e6f7420726561636865640000604082015260600190565b6020808252601c908201527b1b585e1a5b5d5b481cd95b1b08185b5bdd5b9d08195e18d95959195960221b604082015260600190565b60208082526023908201527f7573657220616c726561647920636c61696d6564206f7574636f6d652073686160408201526272657360e81b606082015260800190565b9283526020830191909152604082015260600190565b600086825260606020830152613256606083018688612b5e565b8281036040840152613269818587612b5e565b98975050505050505050565b91825260208201526040019056fe9dcabe311735ed0d65f0c22c5425d1f17331f94c9d0767f59e58473cf95ada611eca98f266e5348ae38d5d057a4d8e451e76672f69ac6ba4b0e3b31ea9c7eb2ba2646970667358221220d6b40fb409b3b1dae8e848c618cc68b33682871ae8023644b8c17db46b2a088b64736f6c63430006020033",
  "source": "pragma solidity ^0.6.0;\npragma experimental ABIEncoderV2;\n\nimport \"./RealitioERC20.sol\";\n\n// openzeppelin imports\nimport \"@openzeppelin/contracts/math/SafeMath.sol\";\n\nlibrary CeilDiv {\n  // calculates ceil(x/y)\n  function ceildiv(uint256 x, uint256 y) internal pure returns (uint256) {\n    if (x > 0) return ((x - 1) / y) + 1;\n    return x / y;\n  }\n}\n\n/// @title Market Contract Factory\ncontract PredictionMarket {\n  using SafeMath for uint256;\n  using CeilDiv for uint256;\n\n  // ------ Events ------\n\n  event MarketCreated(address indexed user, uint256 indexed marketId, uint256 outcomes, string question, string image);\n\n  event MarketActionTx(\n    address indexed user,\n    MarketAction indexed action,\n    uint256 indexed marketId,\n    uint256 outcomeId,\n    uint256 shares,\n    uint256 value,\n    uint256 timestamp\n  );\n\n  event MarketOutcomePrice(uint256 indexed marketId, uint256 indexed outcomeId, uint256 value, uint256 timestamp);\n\n  event MarketLiquidity(\n    uint256 indexed marketId,\n    uint256 value, // total liquidity\n    uint256 price, // value of one liquidity share; max: 1 (50-50 situation)\n    uint256 timestamp\n  );\n\n  event MarketResolved(address indexed user, uint256 indexed marketId, uint256 outcomeId, uint256 timestamp);\n\n  // ------ Events End ------\n\n  uint256 public constant MAX_UINT_256 = 115792089237316195423570985008687907853269984665640564039457584007913129639935;\n\n  uint256 public constant ONE = 10**18;\n\n  enum MarketState {\n    open,\n    closed,\n    resolved\n  }\n  enum MarketAction {\n    buy,\n    sell,\n    addLiquidity,\n    removeLiquidity,\n    claimWinnings,\n    claimLiquidity,\n    claimFees,\n    claimVoided\n  }\n\n  struct Market {\n    // market details\n    uint256 closesAtTimestamp;\n    uint256 balance; // total stake\n    uint256 liquidity; // stake held\n    uint256 sharesAvailable; // shares held (all outcomes)\n    mapping(address => uint256) liquidityShares;\n    mapping(address => bool) liquidityClaims; // wether user has claimed liquidity earnings\n    MarketState state; // resolution variables\n    MarketResolution resolution; // fees\n    MarketFees fees;\n    // market outcomes\n    uint256[] outcomeIds;\n    mapping(uint256 => MarketOutcome) outcomes;\n  }\n\n  struct MarketFees {\n    uint256 value; // fee % taken from every transaction\n    uint256 poolWeight; // internal var used to ensure pro-rate fee distribution\n    mapping(address => uint256) claimed;\n  }\n\n  struct MarketResolution {\n    bool resolved;\n    uint256 outcomeId;\n    bytes32 questionId; // realitio questionId\n  }\n\n  struct MarketOutcome {\n    uint256 marketId;\n    uint256 id;\n    Shares shares;\n  }\n\n  struct Shares {\n    uint256 total; // number of shares\n    uint256 available; // available shares\n    mapping(address => uint256) holders;\n    mapping(address => bool) claims; // wether user has claimed winnings\n    mapping(address => bool) voidedClaims; // wether user has claimed voided market shares\n  }\n\n  uint256[] marketIds;\n  mapping(uint256 => Market) markets;\n  uint256 public marketIndex;\n\n  // governance\n  uint256 public fee; // fee % taken from every transaction, can be updated by contract owner\n  // realitio configs\n  address public realitioAddress;\n  uint256 public realitioTimeout;\n  // market creation\n  IERC20 public token; // token used for rewards / market creation\n  uint256 public requiredBalance; // required balance for market creation\n\n  // ------ Modifiers ------\n\n  modifier isMarket(uint256 marketId) {\n    require(marketId < marketIndex);\n    _;\n  }\n\n  modifier timeTransitions(uint256 marketId) {\n    if (now > markets[marketId].closesAtTimestamp && markets[marketId].state == MarketState.open) {\n      nextState(marketId);\n    }\n    _;\n  }\n\n  modifier atState(uint256 marketId, MarketState state) {\n    require(markets[marketId].state == state);\n    _;\n  }\n\n  modifier notAtState(uint256 marketId, MarketState state) {\n    require(markets[marketId].state != state);\n    _;\n  }\n\n  modifier transitionNext(uint256 marketId) {\n    _;\n    nextState(marketId);\n  }\n\n  modifier mustHoldRequiredBalance() {\n    require(token.balanceOf(msg.sender) >= requiredBalance, \"msg.sender must hold minimum erc20 balance\");\n    _;\n  }\n\n  // ------ Modifiers End ------\n\n  /// @dev protocol is immutable and has no ownership\n  constructor(\n    uint256 _fee,\n    IERC20 _token,\n    uint256 _requiredBalance,\n    address _realitioAddress,\n    uint256 _realitioTimeout\n  ) public {\n    fee = _fee;\n    token = _token;\n    requiredBalance = _requiredBalance;\n    realitioAddress = _realitioAddress;\n    realitioTimeout = _realitioTimeout;\n  }\n\n  // ------ Core Functions ------\n\n  /// @dev Creates a market, initializes the outcome shares pool and submits a question in Realitio\n  function createMarket(\n    string calldata question,\n    string calldata image,\n    uint256 closesAt,\n    address arbitrator,\n    uint256 outcomes\n  ) external payable mustHoldRequiredBalance() returns (uint256) {\n    uint256 marketId = marketIndex;\n    marketIds.push(marketId);\n\n    Market storage market = markets[marketId];\n\n    require(msg.value > 0, \"stake needs to be > 0\");\n    require(closesAt >= now, \"market must resolve after the current date\");\n    require(arbitrator == address(arbitrator), \"invalid arbitrator address\");\n    // v1 - only binary markets\n    require(outcomes == 2, \"number of outcomes has to be 2\");\n\n    market.closesAtTimestamp = closesAt;\n    market.state = MarketState.open;\n    market.fees.value = fee;\n    // setting intial value to an integer that does not map to any outcomeId\n    market.resolution.outcomeId = MAX_UINT_256;\n\n    // creating market outcomes\n    for (uint256 i = 0; i < outcomes; i++) {\n      market.outcomeIds.push(i);\n      MarketOutcome storage outcome = market.outcomes[i];\n\n      outcome.marketId = marketId;\n      outcome.id = i;\n    }\n\n    // creating question in realitio\n    RealitioERC20 realitio = RealitioERC20(realitioAddress);\n\n    market.resolution.questionId = realitio.askQuestionERC20(\n      2,\n      question,\n      arbitrator,\n      uint32(realitioTimeout),\n      uint32(closesAt),\n      0,\n      0\n    );\n\n    addLiquidity(marketId, msg.value);\n\n    // emiting initial price events\n    emitMarketOutcomePriceEvents(marketId);\n    emit MarketCreated(msg.sender, marketId, outcomes, question, image);\n\n    // incrementing market array index\n    marketIndex = marketIndex + 1;\n\n    return marketId;\n  }\n\n  /// @dev Calculates the number of shares bought with \"amount\" balance\n  function calcBuyAmount(\n    uint256 amount,\n    uint256 marketId,\n    uint256 outcomeId\n  ) public view returns (uint256) {\n    Market storage market = markets[marketId];\n\n    uint256[] memory outcomesShares = getMarketOutcomesShares(marketId);\n    uint256 amountMinusFees = amount.sub(amount.mul(market.fees.value) / ONE);\n    uint256 buyTokenPoolBalance = outcomesShares[outcomeId];\n    uint256 endingOutcomeBalance = buyTokenPoolBalance.mul(ONE);\n    for (uint256 i = 0; i < outcomesShares.length; i++) {\n      if (i != outcomeId) {\n        uint256 outcomeShares = outcomesShares[i];\n        endingOutcomeBalance = endingOutcomeBalance.mul(outcomeShares).ceildiv(outcomeShares.add(amountMinusFees));\n      }\n    }\n    require(endingOutcomeBalance > 0, \"must have non-zero balances\");\n\n    return buyTokenPoolBalance.add(amountMinusFees).sub(endingOutcomeBalance.ceildiv(ONE));\n  }\n\n  /// @dev Calculates the number of shares needed to be sold in order to receive \"amount\" in balance\n  function calcSellAmount(\n    uint256 amount,\n    uint256 marketId,\n    uint256 outcomeId\n  ) public view returns (uint256 outcomeTokenSellAmount) {\n    Market storage market = markets[marketId];\n\n    uint256[] memory outcomesShares = getMarketOutcomesShares(marketId);\n    uint256 amountPlusFees = amount.mul(ONE) / ONE.sub(market.fees.value);\n    uint256 sellTokenPoolBalance = outcomesShares[outcomeId];\n    uint256 endingOutcomeBalance = sellTokenPoolBalance.mul(ONE);\n    for (uint256 i = 0; i < outcomesShares.length; i++) {\n      if (i != outcomeId) {\n        uint256 outcomeShares = outcomesShares[i];\n        endingOutcomeBalance = endingOutcomeBalance.mul(outcomeShares).ceildiv(outcomeShares.sub(amountPlusFees));\n      }\n    }\n    require(endingOutcomeBalance > 0, \"must have non-zero balances\");\n\n    return amountPlusFees.add(endingOutcomeBalance.ceildiv(ONE)).sub(sellTokenPoolBalance);\n  }\n\n  /// @dev Buy shares of a market outcome\n  function buy(\n    uint256 marketId,\n    uint256 outcomeId,\n    uint256 minOutcomeSharesToBuy\n  ) external payable timeTransitions(marketId) atState(marketId, MarketState.open) {\n    Market storage market = markets[marketId];\n\n    uint256 value = msg.value;\n    uint256 shares = calcBuyAmount(value, marketId, outcomeId);\n    require(shares >= minOutcomeSharesToBuy, \"minimum buy amount not reached\");\n\n    // subtracting fee from transaction value\n    uint256 feeAmount = value.mul(market.fees.value) / ONE;\n    market.fees.poolWeight = market.fees.poolWeight.add(feeAmount);\n    uint256 valueMinusFees = value.sub(feeAmount);\n\n    MarketOutcome storage outcome = market.outcomes[outcomeId];\n\n    // Funding market shares with received funds\n    addSharesToMarket(marketId, valueMinusFees);\n\n    require(outcome.shares.available >= shares, \"outcome shares pool balance is too low\");\n\n    transferOutcomeSharesfromPool(msg.sender, marketId, outcomeId, shares);\n\n    emit MarketActionTx(msg.sender, MarketAction.buy, marketId, outcomeId, shares, value, now);\n    emitMarketOutcomePriceEvents(marketId);\n  }\n\n  /// @dev Sell shares of a market outcome\n  function sell(\n    uint256 marketId,\n    uint256 outcomeId,\n    uint256 value,\n    uint256 maxOutcomeSharesToSell\n  ) external payable timeTransitions(marketId) atState(marketId, MarketState.open) {\n    Market storage market = markets[marketId];\n    MarketOutcome storage outcome = market.outcomes[outcomeId];\n\n    uint256 shares = calcSellAmount(value, marketId, outcomeId);\n\n    require(shares <= maxOutcomeSharesToSell, \"maximum sell amount exceeded\");\n    require(outcome.shares.holders[msg.sender] >= shares, \"user does not have enough balance\");\n\n    transferOutcomeSharesToPool(msg.sender, marketId, outcomeId, shares);\n\n    // adding fee to transaction value\n    uint256 feeAmount = value.mul(market.fees.value) / (ONE.sub(fee));\n    market.fees.poolWeight = market.fees.poolWeight.add(feeAmount);\n    uint256 valuePlusFees = value.add(feeAmount);\n\n    require(market.balance >= valuePlusFees, \"market does not have enough balance\");\n\n    // Rebalancing market shares\n    removeSharesFromMarket(marketId, valuePlusFees);\n\n    // Transferring funds to user\n    msg.sender.transfer(value);\n\n    emit MarketActionTx(msg.sender, MarketAction.sell, marketId, outcomeId, shares, value, now);\n    emitMarketOutcomePriceEvents(marketId);\n  }\n\n  /// @dev Adds liquidity to a market - external\n  function addLiquidity(uint256 marketId)\n    external\n    payable\n    timeTransitions(marketId)\n    atState(marketId, MarketState.open)\n  {\n    addLiquidity(marketId, msg.value);\n  }\n\n  /// @dev Private function, used by addLiquidity and CreateMarket\n  function addLiquidity(uint256 marketId, uint256 value)\n    private\n    timeTransitions(marketId)\n    atState(marketId, MarketState.open)\n  {\n    Market storage market = markets[marketId];\n\n    require(value > 0, \"stake has to be greater than 0.\");\n\n    uint256 liquidityAmount;\n\n    uint256[] memory outcomesShares = getMarketOutcomesShares(marketId);\n    uint256[] memory sendBackAmounts = new uint256[](outcomesShares.length);\n    uint256 poolWeight = 0;\n\n    if (market.liquidity > 0) {\n      // part of the liquidity is exchanged for outcome shares if market is not balanced\n      for (uint256 i = 0; i < outcomesShares.length; i++) {\n        uint256 outcomeShares = outcomesShares[i];\n        if (poolWeight < outcomeShares) poolWeight = outcomeShares;\n      }\n\n      for (uint256 i = 0; i < outcomesShares.length; i++) {\n        uint256 remaining = value.mul(outcomesShares[i]) / poolWeight;\n        sendBackAmounts[i] = value.sub(remaining);\n      }\n\n      liquidityAmount = value.mul(market.liquidity) / poolWeight;\n\n      // re-balancing fees pool\n      rebalanceFeesPool(marketId, liquidityAmount, MarketAction.addLiquidity);\n    } else {\n      // funding market with no liquidity\n      liquidityAmount = value;\n    }\n\n    // funding market\n    market.liquidity = market.liquidity.add(liquidityAmount);\n    market.liquidityShares[msg.sender] = market.liquidityShares[msg.sender].add(liquidityAmount);\n\n    addSharesToMarket(marketId, value);\n\n    // transform sendBackAmounts to array of amounts added\n    for (uint256 i = 0; i < sendBackAmounts.length; i++) {\n      if (sendBackAmounts[i] > 0) {\n        uint256 marketShares = market.sharesAvailable;\n        uint256 outcomeShares = market.outcomes[i].shares.available;\n        transferOutcomeSharesfromPool(msg.sender, marketId, i, sendBackAmounts[i]);\n        emit MarketActionTx(\n          msg.sender,\n          MarketAction.buy,\n          marketId,\n          i,\n          sendBackAmounts[i],\n          (marketShares.sub(outcomeShares)).mul(sendBackAmounts[i]).div(market.sharesAvailable), // price * shares\n          now\n        );\n      }\n    }\n\n    uint256 liquidityPrice = getMarketLiquidityPrice(marketId);\n    uint256 liquidityValue = liquidityPrice.mul(liquidityAmount) / ONE;\n    emit MarketActionTx(msg.sender, MarketAction.addLiquidity, marketId, 0, liquidityAmount, liquidityValue, now);\n    emit MarketLiquidity(marketId, market.liquidity, liquidityPrice, now);\n  }\n\n  /// @dev Removes liquidity to a market - external\n  function removeLiquidity(uint256 marketId, uint256 shares)\n    external\n    payable\n    timeTransitions(marketId)\n    atState(marketId, MarketState.open)\n  {\n    Market storage market = markets[marketId];\n\n    require(market.liquidityShares[msg.sender] >= shares, \"user does not have enough balance\");\n    // claiming any pending fees\n    claimFees(marketId);\n\n    // re-balancing fees pool\n    rebalanceFeesPool(marketId, shares, MarketAction.removeLiquidity);\n\n    uint256[] memory outcomesShares = getMarketOutcomesShares(marketId);\n    uint256[] memory sendAmounts = new uint256[](outcomesShares.length);\n    uint256 poolWeight = MAX_UINT_256;\n\n    // part of the liquidity is exchanged for outcome shares if market is not balanced\n    for (uint256 i = 0; i < outcomesShares.length; i++) {\n      uint256 outcomeShares = outcomesShares[i];\n      if (poolWeight > outcomeShares) poolWeight = outcomeShares;\n    }\n\n    uint256 liquidityAmount = shares.mul(poolWeight).div(market.liquidity);\n\n    for (uint256 i = 0; i < outcomesShares.length; i++) {\n      sendAmounts[i] = outcomesShares[i].mul(shares) / market.liquidity;\n      sendAmounts[i] = sendAmounts[i].sub(liquidityAmount);\n    }\n\n    // removing liquidity from market\n    removeSharesFromMarket(marketId, liquidityAmount);\n    market.liquidity = market.liquidity.sub(shares);\n    // removing liquidity tokens from market creator\n    market.liquidityShares[msg.sender] = market.liquidityShares[msg.sender].sub(shares);\n\n    for (uint256 i = 0; i < outcomesShares.length; i++) {\n      if (sendAmounts[i] > 0) {\n        uint256 marketShares = market.sharesAvailable;\n        uint256 outcomeShares = market.outcomes[i].shares.available;\n\n        transferOutcomeSharesfromPool(msg.sender, marketId, i, sendAmounts[i]);\n        emit MarketActionTx(\n          msg.sender,\n          MarketAction.buy,\n          marketId,\n          i,\n          sendAmounts[i],\n          (marketShares.sub(outcomeShares)).mul(sendAmounts[i]).div(market.sharesAvailable), // price * shares\n          now\n        );\n      }\n    }\n\n    // transferring user funds from liquidity removed\n    msg.sender.transfer(liquidityAmount);\n\n    emit MarketActionTx(msg.sender, MarketAction.removeLiquidity, marketId, 0, shares, liquidityAmount, now);\n    emit MarketLiquidity(marketId, market.liquidity, getMarketLiquidityPrice(marketId), now);\n  }\n\n  /// @dev Fetches winning outcome from Realitio and resolves the market\n  function resolveMarketOutcome(uint256 marketId)\n    external\n    timeTransitions(marketId)\n    atState(marketId, MarketState.closed)\n    transitionNext(marketId)\n    returns (uint256)\n  {\n    Market storage market = markets[marketId];\n\n    RealitioERC20 realitio = RealitioERC20(realitioAddress);\n    // will fail if question is not finalized\n    uint256 outcomeId = uint256(realitio.resultFor(market.resolution.questionId));\n\n    market.resolution.outcomeId = outcomeId;\n\n    emit MarketResolved(msg.sender, marketId, outcomeId, now);\n    emitMarketOutcomePriceEvents(marketId);\n\n    return market.resolution.outcomeId;\n  }\n\n  /// @dev Allows holders of resolved outcome shares to claim earnings.\n  function claimWinnings(uint256 marketId) external atState(marketId, MarketState.resolved) {\n    Market storage market = markets[marketId];\n    MarketOutcome storage resolvedOutcome = market.outcomes[market.resolution.outcomeId];\n\n    require(resolvedOutcome.shares.holders[msg.sender] > 0, \"user does not hold resolved outcome shares\");\n    require(resolvedOutcome.shares.claims[msg.sender] == false, \"user already claimed resolved outcome winnings\");\n\n    // 1 share => price = 1\n    uint256 value = resolvedOutcome.shares.holders[msg.sender];\n\n    // assuring market has enough funds\n    require(market.balance >= value, \"Market does not have enough balance\");\n\n    market.balance = market.balance.sub(value);\n    resolvedOutcome.shares.claims[msg.sender] = true;\n\n    emit MarketActionTx(\n      msg.sender,\n      MarketAction.claimWinnings,\n      marketId,\n      market.resolution.outcomeId,\n      resolvedOutcome.shares.holders[msg.sender],\n      value,\n      now\n    );\n\n    msg.sender.transfer(value);\n  }\n\n  /// @dev Allows holders of voided outcome shares to claim balance back.\n  function claimVoidedOutcomeShares(uint256 marketId, uint256 outcomeId)\n    external\n    atState(marketId, MarketState.resolved)\n  {\n    Market storage market = markets[marketId];\n    MarketOutcome storage outcome = market.outcomes[outcomeId];\n\n    require(outcome.shares.holders[msg.sender] > 0, \"user does not hold outcome shares\");\n    require(outcome.shares.voidedClaims[msg.sender] == false, \"user already claimed outcome shares\");\n\n    // voided market - shares are valued at last market price\n    uint256 price = getMarketOutcomePrice(marketId, outcomeId);\n    uint256 value = price.mul(outcome.shares.holders[msg.sender]).div(ONE);\n\n    // assuring market has enough funds\n    require(market.balance >= value, \"Market does not have enough balance\");\n\n    market.balance = market.balance.sub(value);\n    outcome.shares.voidedClaims[msg.sender] = true;\n\n    emit MarketActionTx(\n      msg.sender,\n      MarketAction.claimVoided,\n      marketId,\n      outcomeId,\n      outcome.shares.holders[msg.sender],\n      value,\n      now\n    );\n\n    msg.sender.transfer(value);\n  }\n\n  /// @dev Allows liquidity providers to claim earnings from liquidity providing.\n  function claimLiquidity(uint256 marketId) external atState(marketId, MarketState.resolved) {\n    Market storage market = markets[marketId];\n\n    // claiming any pending fees\n    claimFees(marketId);\n\n    require(market.liquidityShares[msg.sender] > 0, \"user does not hold liquidity shares\");\n    require(market.liquidityClaims[msg.sender] == false, \"user already claimed liquidity winnings\");\n\n    // value = total resolved outcome pool shares * pool share (%)\n    uint256 liquidityPrice = getMarketLiquidityPrice(marketId);\n    uint256 value = liquidityPrice.mul(market.liquidityShares[msg.sender]) / ONE;\n\n    // assuring market has enough funds\n    require(market.balance >= value, \"Market does not have enough balance\");\n\n    market.balance = market.balance.sub(value);\n    market.liquidityClaims[msg.sender] = true;\n\n    emit MarketActionTx(\n      msg.sender,\n      MarketAction.claimLiquidity,\n      marketId,\n      0,\n      market.liquidityShares[msg.sender],\n      value,\n      now\n    );\n\n    msg.sender.transfer(value);\n  }\n\n  /// @dev Allows liquidity providers to claim their fees share from fees pool\n  function claimFees(uint256 marketId) public payable {\n    Market storage market = markets[marketId];\n\n    uint256 claimableFees = getUserClaimableFees(marketId, msg.sender);\n\n    if (claimableFees > 0) {\n      market.fees.claimed[msg.sender] = market.fees.claimed[msg.sender].add(claimableFees);\n      msg.sender.transfer(claimableFees);\n    }\n\n    emit MarketActionTx(\n      msg.sender,\n      MarketAction.claimFees,\n      marketId,\n      0,\n      market.liquidityShares[msg.sender],\n      claimableFees,\n      now\n    );\n  }\n\n  /// @dev Rebalances the fees pool. Needed in every AddLiquidity / RemoveLiquidity call\n  function rebalanceFeesPool(\n    uint256 marketId,\n    uint256 liquidityShares,\n    MarketAction action\n  ) private returns (uint256) {\n    Market storage market = markets[marketId];\n\n    uint256 poolWeight = liquidityShares.mul(market.fees.poolWeight).div(market.liquidity);\n\n    if (action == MarketAction.addLiquidity) {\n      market.fees.poolWeight = market.fees.poolWeight.add(poolWeight);\n      market.fees.claimed[msg.sender] = market.fees.claimed[msg.sender].add(poolWeight);\n    } else {\n      market.fees.poolWeight = market.fees.poolWeight.sub(poolWeight);\n      market.fees.claimed[msg.sender] = market.fees.claimed[msg.sender].sub(poolWeight);\n    }\n  }\n\n  /// @dev Transitions market to next state\n  function nextState(uint256 marketId) private {\n    Market storage market = markets[marketId];\n    market.state = MarketState(uint256(market.state) + 1);\n  }\n\n  /// @dev Emits a outcome price event for every outcome\n  function emitMarketOutcomePriceEvents(uint256 marketId) private {\n    Market storage market = markets[marketId];\n\n    for (uint256 i = 0; i < market.outcomeIds.length; i++) {\n      emit MarketOutcomePrice(marketId, i, getMarketOutcomePrice(marketId, i), now);\n    }\n\n    // liquidity shares also change value\n    emit MarketLiquidity(marketId, market.liquidity, getMarketLiquidityPrice(marketId), now);\n  }\n\n  /// @dev Adds outcome shares to shares pool\n  function addSharesToMarket(uint256 marketId, uint256 shares) private {\n    Market storage market = markets[marketId];\n\n    for (uint256 i = 0; i < market.outcomeIds.length; i++) {\n      MarketOutcome storage outcome = market.outcomes[i];\n\n      outcome.shares.available = outcome.shares.available.add(shares);\n      outcome.shares.total = outcome.shares.total.add(shares);\n\n      // only adding to market total shares, the available remains\n      market.sharesAvailable = market.sharesAvailable.add(shares);\n    }\n\n    market.balance = market.balance.add(shares);\n  }\n\n  /// @dev Removes outcome shares from shares pool\n  function removeSharesFromMarket(uint256 marketId, uint256 shares) private {\n    Market storage market = markets[marketId];\n\n    for (uint256 i = 0; i < market.outcomeIds.length; i++) {\n      MarketOutcome storage outcome = market.outcomes[i];\n\n      outcome.shares.available = outcome.shares.available.sub(shares);\n      outcome.shares.total = outcome.shares.total.sub(shares);\n\n      // only subtracting from market total shares, the available remains\n      market.sharesAvailable = market.sharesAvailable.sub(shares);\n    }\n\n    market.balance = market.balance.sub(shares);\n  }\n\n  /// @dev Transfer outcome shares from pool to user balance\n  function transferOutcomeSharesfromPool(\n    address user,\n    uint256 marketId,\n    uint256 outcomeId,\n    uint256 shares\n  ) private {\n    Market storage market = markets[marketId];\n    MarketOutcome storage outcome = market.outcomes[outcomeId];\n\n    // transfering shares from shares pool to user\n    outcome.shares.holders[user] = outcome.shares.holders[user].add(shares);\n    outcome.shares.available = outcome.shares.available.sub(shares);\n    market.sharesAvailable = market.sharesAvailable.sub(shares);\n  }\n\n  /// @dev Transfer outcome shares from user balance back to pool\n  function transferOutcomeSharesToPool(\n    address user,\n    uint256 marketId,\n    uint256 outcomeId,\n    uint256 shares\n  ) private {\n    Market storage market = markets[marketId];\n    MarketOutcome storage outcome = market.outcomes[outcomeId];\n\n    // adding shares back to pool\n    outcome.shares.holders[user] = outcome.shares.holders[user].sub(shares);\n    outcome.shares.available = outcome.shares.available.add(shares);\n    market.sharesAvailable = market.sharesAvailable.add(shares);\n  }\n\n  // ------ Core Functions End ------\n\n  // ------ Getters ------\n\n  function getUserMarketShares(uint256 marketId, address user)\n    external\n    view\n    returns (\n      uint256,\n      uint256,\n      uint256\n    )\n  {\n    Market storage market = markets[marketId];\n\n    return (\n      market.liquidityShares[user],\n      market.outcomes[0].shares.holders[user],\n      market.outcomes[1].shares.holders[user]\n    );\n  }\n\n  function getUserClaimStatus(uint256 marketId, address user)\n    external\n    view\n    returns (\n      bool,\n      bool,\n      bool,\n      bool,\n      uint256\n    )\n  {\n    Market storage market = markets[marketId];\n\n    // market still not resolved\n    if (market.state != MarketState.resolved) {\n      return (false, false, false, false, getUserClaimableFees(marketId, user));\n    }\n\n    MarketOutcome storage outcome = market.outcomes[market.resolution.outcomeId];\n\n    return (\n      outcome.shares.holders[user] > 0,\n      outcome.shares.claims[user],\n      market.liquidityShares[user] > 0,\n      market.liquidityClaims[user],\n      getUserClaimableFees(marketId, user)\n    );\n  }\n\n  function getUserLiquidityPoolShare(uint256 marketId, address user) external view returns (uint256) {\n    Market storage market = markets[marketId];\n\n    return market.liquidityShares[user].mul(ONE).div(market.liquidity);\n  }\n\n  function getUserClaimableFees(uint256 marketId, address user) public view returns (uint256) {\n    Market storage market = markets[marketId];\n\n    uint256 rawAmount = market.fees.poolWeight.mul(market.liquidityShares[user]).div(market.liquidity);\n    return rawAmount.sub(market.fees.claimed[user]);\n  }\n\n  function getMarkets() external view returns (uint256[] memory) {\n    return marketIds;\n  }\n\n  function getMarketData(uint256 marketId)\n    external\n    view\n    returns (\n      MarketState,\n      uint256,\n      uint256,\n      uint256,\n      uint256,\n      int256\n    )\n  {\n    Market storage market = markets[marketId];\n\n    return (\n      market.state,\n      market.closesAtTimestamp,\n      market.liquidity,\n      market.balance,\n      market.sharesAvailable,\n      getMarketResolvedOutcome(marketId)\n    );\n  }\n\n  function getMarketAltData(uint256 marketId)\n    external\n    view\n    returns (\n      uint256,\n      bytes32,\n      uint256\n    )\n  {\n    Market storage market = markets[marketId];\n\n    return (market.fees.value, market.resolution.questionId, uint256(market.resolution.questionId));\n  }\n\n  function getMarketQuestion(uint256 marketId) external view returns (bytes32) {\n    Market storage market = markets[marketId];\n\n    return (market.resolution.questionId);\n  }\n\n  function getMarketPrices(uint256 marketId)\n    external\n    view\n    returns (\n      uint256,\n      uint256,\n      uint256\n    )\n  {\n    return (getMarketLiquidityPrice(marketId), getMarketOutcomePrice(marketId, 0), getMarketOutcomePrice(marketId, 1));\n  }\n\n  function getMarketLiquidityPrice(uint256 marketId) public view returns (uint256) {\n    Market storage market = markets[marketId];\n\n    if (market.state == MarketState.resolved && !isMarketVoided(marketId)) {\n      // resolved market, price is either 0 or 1\n      // final liquidity price = outcome shares / liquidity shares\n      return market.outcomes[market.resolution.outcomeId].shares.available.mul(ONE).div(market.liquidity);\n    }\n\n    // liquidity price = # liquidity shares / # outcome shares * # outcomes\n    return market.liquidity.mul(ONE * market.outcomeIds.length).div(market.sharesAvailable);\n  }\n\n  function getMarketResolvedOutcome(uint256 marketId) public view returns (int256) {\n    Market storage market = markets[marketId];\n\n    // returning -1 if market still not resolved\n    if (market.state != MarketState.resolved) {\n      return -1;\n    }\n\n    return int256(market.resolution.outcomeId);\n  }\n\n  function isMarketVoided(uint256 marketId) public view returns (bool) {\n    Market storage market = markets[marketId];\n\n    // market still not resolved, still in valid state\n    if (market.state != MarketState.resolved) {\n      return false;\n    }\n\n    // resolved market id does not match any of the market ids\n    return market.resolution.outcomeId >= market.outcomeIds.length;\n  }\n\n  // ------ Outcome Getters ------\n\n  function getMarketOutcomeIds(uint256 marketId) external view returns (uint256[] memory) {\n    Market storage market = markets[marketId];\n    return market.outcomeIds;\n  }\n\n  function getMarketOutcomePrice(uint256 marketId, uint256 outcomeId) public view returns (uint256) {\n    Market storage market = markets[marketId];\n    MarketOutcome storage outcome = market.outcomes[outcomeId];\n\n    if (market.state == MarketState.resolved && !isMarketVoided(marketId)) {\n      // resolved market, price is either 0 or 1\n      return outcomeId == market.resolution.outcomeId ? ONE : 0;\n    }\n\n    return (market.sharesAvailable.sub(outcome.shares.available)).mul(ONE).div(market.sharesAvailable);\n  }\n\n  function getMarketOutcomeData(uint256 marketId, uint256 outcomeId)\n    external\n    view\n    returns (\n      uint256,\n      uint256,\n      uint256\n    )\n  {\n    Market storage market = markets[marketId];\n    MarketOutcome storage outcome = market.outcomes[outcomeId];\n\n    return (getMarketOutcomePrice(marketId, outcomeId), outcome.shares.available, outcome.shares.total);\n  }\n\n  function getMarketOutcomesShares(uint256 marketId) private view returns (uint256[] memory) {\n    Market storage market = markets[marketId];\n\n    uint256[] memory shares = new uint256[](market.outcomeIds.length);\n    for (uint256 i = 0; i < market.outcomeIds.length; i++) {\n      shares[i] = market.outcomes[i].shares.available;\n    }\n\n    return shares;\n  }\n}\n",
  "sourcePath": "/Users/ricardomarques/dev/workspace/polkamarkets/bepro-js/contracts/PredictionMarket.sol",
  "compiler": {
    "name": "solc",
    "version": "0.6.2+commit.bacdbe57.Emscripten.clang"
  },
  "schemaVersion": "3.3.4",
  "updatedAt": "2021-10-05T12:04:06.553Z",
  "devdoc": {
    "methods": {
      "addLiquidity(uint256)": {
        "details": "Adds liquidity to a market - external"
      },
      "buy(uint256,uint256,uint256)": {
        "details": "Buy shares of a market outcome"
      },
      "calcBuyAmount(uint256,uint256,uint256)": {
        "details": "Calculates the number of shares bought with \"amount\" balance"
      },
      "calcSellAmount(uint256,uint256,uint256)": {
        "details": "Calculates the number of shares needed to be sold in order to receive \"amount\" in balance"
      },
      "claimFees(uint256)": {
        "details": "Allows liquidity providers to claim their fees share from fees pool"
      },
      "claimLiquidity(uint256)": {
        "details": "Allows liquidity providers to claim earnings from liquidity providing."
      },
      "claimVoidedOutcomeShares(uint256,uint256)": {
        "details": "Allows holders of voided outcome shares to claim balance back."
      },
      "claimWinnings(uint256)": {
        "details": "Allows holders of resolved outcome shares to claim earnings."
      },
      "constructor": {
        "details": "protocol is immutable and has no ownership"
      },
      "createMarket(string,string,uint256,address,uint256)": {
        "details": "Creates a market, initializes the outcome shares pool and submits a question in Realitio"
      },
      "removeLiquidity(uint256,uint256)": {
        "details": "Removes liquidity to a market - external"
      },
      "resolveMarketOutcome(uint256)": {
        "details": "Fetches winning outcome from Realitio and resolves the market"
      },
      "sell(uint256,uint256,uint256,uint256)": {
        "details": "Sell shares of a market outcome"
      }
    },
    "title": "Market Contract Factory"
  },
  "userdoc": {
    "methods": {}
  }
}