{
  "contractName": "PredictionMarket",
  "abi": [
    {
      "anonymous": false,
      "inputs": [
        {
          "indexed": true,
          "internalType": "uint256",
          "name": "marketId",
          "type": "uint256"
        },
        {
          "indexed": false,
          "internalType": "uint256",
          "name": "value",
          "type": "uint256"
        },
        {
          "indexed": false,
          "internalType": "uint256",
          "name": "price",
          "type": "uint256"
        },
        {
          "indexed": false,
          "internalType": "uint256",
          "name": "timestamp",
          "type": "uint256"
        }
      ],
      "name": "MarketLiquidity",
      "type": "event"
    },
    {
      "anonymous": false,
      "inputs": [
        {
          "indexed": true,
          "internalType": "uint256",
          "name": "marketId",
          "type": "uint256"
        },
        {
          "indexed": true,
          "internalType": "uint256",
          "name": "outcomeId",
          "type": "uint256"
        },
        {
          "indexed": false,
          "internalType": "uint256",
          "name": "value",
          "type": "uint256"
        },
        {
          "indexed": false,
          "internalType": "uint256",
          "name": "timestamp",
          "type": "uint256"
        }
      ],
      "name": "MarketOutcomePrice",
      "type": "event"
    },
    {
      "anonymous": false,
      "inputs": [
        {
          "indexed": true,
          "internalType": "address",
          "name": "oracle",
          "type": "address"
        },
        {
          "indexed": true,
          "internalType": "uint256",
          "name": "marketId",
          "type": "uint256"
        },
        {
          "indexed": false,
          "internalType": "uint256",
          "name": "outcomeId",
          "type": "uint256"
        },
        {
          "indexed": false,
          "internalType": "uint256",
          "name": "timestamp",
          "type": "uint256"
        }
      ],
      "name": "MarketResolved",
      "type": "event"
    },
    {
      "anonymous": false,
      "inputs": [
        {
          "indexed": true,
          "internalType": "address",
          "name": "previousOwner",
          "type": "address"
        },
        {
          "indexed": true,
          "internalType": "address",
          "name": "newOwner",
          "type": "address"
        }
      ],
      "name": "OwnershipTransferred",
      "type": "event"
    },
    {
      "anonymous": false,
      "inputs": [
        {
          "indexed": true,
          "internalType": "address",
          "name": "participant",
          "type": "address"
        },
        {
          "indexed": true,
          "internalType": "enum PredictionMarket.MarketAction",
          "name": "action",
          "type": "uint8"
        },
        {
          "indexed": true,
          "internalType": "uint256",
          "name": "marketId",
          "type": "uint256"
        },
        {
          "indexed": false,
          "internalType": "uint256",
          "name": "outcomeId",
          "type": "uint256"
        },
        {
          "indexed": false,
          "internalType": "uint256",
          "name": "shares",
          "type": "uint256"
        },
        {
          "indexed": false,
          "internalType": "uint256",
          "name": "value",
          "type": "uint256"
        },
        {
          "indexed": false,
          "internalType": "uint256",
          "name": "timestamp",
          "type": "uint256"
        }
      ],
      "name": "ParticipantAction",
      "type": "event"
    },
    {
      "inputs": [],
      "name": "MAX_UINT_256",
      "outputs": [
        {
          "internalType": "uint256",
          "name": "",
          "type": "uint256"
        }
      ],
      "stateMutability": "view",
      "type": "function"
    },
    {
      "inputs": [],
      "name": "ONE",
      "outputs": [
        {
          "internalType": "uint256",
          "name": "",
          "type": "uint256"
        }
      ],
      "stateMutability": "view",
      "type": "function"
    },
    {
      "inputs": [],
      "name": "fee",
      "outputs": [
        {
          "internalType": "uint256",
          "name": "",
          "type": "uint256"
        }
      ],
      "stateMutability": "view",
      "type": "function"
    },
    {
      "inputs": [],
      "name": "marketIndex",
      "outputs": [
        {
          "internalType": "uint256",
          "name": "",
          "type": "uint256"
        }
      ],
      "stateMutability": "view",
      "type": "function"
    },
    {
      "inputs": [],
      "name": "owner",
      "outputs": [
        {
          "internalType": "address",
          "name": "",
          "type": "address"
        }
      ],
      "stateMutability": "view",
      "type": "function"
    },
    {
      "inputs": [],
      "name": "realitioAddress",
      "outputs": [
        {
          "internalType": "address",
          "name": "",
          "type": "address"
        }
      ],
      "stateMutability": "view",
      "type": "function"
    },
    {
      "inputs": [],
      "name": "realitioTimeout",
      "outputs": [
        {
          "internalType": "uint256",
          "name": "",
          "type": "uint256"
        }
      ],
      "stateMutability": "view",
      "type": "function"
    },
    {
      "inputs": [],
      "name": "renounceOwnership",
      "outputs": [],
      "stateMutability": "nonpayable",
      "type": "function"
    },
    {
      "inputs": [
        {
          "internalType": "address",
          "name": "newOwner",
          "type": "address"
        }
      ],
      "name": "transferOwnership",
      "outputs": [],
      "stateMutability": "nonpayable",
      "type": "function"
    },
    {
      "inputs": [],
      "name": "initialize",
      "outputs": [],
      "stateMutability": "nonpayable",
      "type": "function"
    },
    {
      "inputs": [
        {
          "internalType": "string",
          "name": "name",
          "type": "string"
        },
        {
          "internalType": "uint256",
          "name": "closesAt",
          "type": "uint256"
        },
        {
          "internalType": "address",
          "name": "oracle",
          "type": "address"
        },
        {
          "internalType": "string",
          "name": "outcome1Name",
          "type": "string"
        },
        {
          "internalType": "string",
          "name": "outcome2Name",
          "type": "string"
        }
      ],
      "name": "createMarket",
      "outputs": [
        {
          "internalType": "uint256",
          "name": "",
          "type": "uint256"
        }
      ],
      "stateMutability": "payable",
      "type": "function"
    },
    {
      "inputs": [
        {
          "internalType": "string",
          "name": "name",
          "type": "string"
        },
        {
          "internalType": "uint256",
          "name": "closesAt",
          "type": "uint256"
        },
        {
          "internalType": "address",
          "name": "oracle",
          "type": "address"
        },
        {
          "internalType": "string[]",
          "name": "outcomes",
          "type": "string[]"
        }
      ],
      "name": "createMarket",
      "outputs": [
        {
          "internalType": "uint256",
          "name": "",
          "type": "uint256"
        }
      ],
      "stateMutability": "payable",
      "type": "function"
    },
    {
      "inputs": [
        {
          "internalType": "uint256",
          "name": "marketId",
          "type": "uint256"
        },
        {
          "internalType": "uint256",
          "name": "outcomeId",
          "type": "uint256"
        }
      ],
      "name": "buy",
      "outputs": [],
      "stateMutability": "payable",
      "type": "function"
    },
    {
      "inputs": [
        {
          "internalType": "uint256",
          "name": "marketId",
          "type": "uint256"
        },
        {
          "internalType": "uint256",
          "name": "outcomeId",
          "type": "uint256"
        },
        {
          "internalType": "uint256",
          "name": "shares",
          "type": "uint256"
        }
      ],
      "name": "sell",
      "outputs": [],
      "stateMutability": "payable",
      "type": "function"
    },
    {
      "inputs": [
        {
          "internalType": "uint256",
          "name": "marketId",
          "type": "uint256"
        }
      ],
      "name": "addLiquidity",
      "outputs": [],
      "stateMutability": "payable",
      "type": "function"
    },
    {
      "inputs": [
        {
          "internalType": "uint256",
          "name": "marketId",
          "type": "uint256"
        },
        {
          "internalType": "uint256",
          "name": "shares",
          "type": "uint256"
        }
      ],
      "name": "removeLiquidity",
      "outputs": [],
      "stateMutability": "payable",
      "type": "function"
    },
    {
      "inputs": [
        {
          "internalType": "uint256",
          "name": "marketId",
          "type": "uint256"
        }
      ],
      "name": "resolveMarketOutcome",
      "outputs": [
        {
          "internalType": "uint256",
          "name": "",
          "type": "uint256"
        }
      ],
      "stateMutability": "nonpayable",
      "type": "function"
    },
    {
      "inputs": [
        {
          "internalType": "uint256",
          "name": "marketId",
          "type": "uint256"
        }
      ],
      "name": "claimWinnings",
      "outputs": [],
      "stateMutability": "nonpayable",
      "type": "function"
    },
    {
      "inputs": [
        {
          "internalType": "uint256",
          "name": "marketId",
          "type": "uint256"
        }
      ],
      "name": "claimLiquidity",
      "outputs": [],
      "stateMutability": "nonpayable",
      "type": "function"
    },
    {
      "inputs": [
        {
          "internalType": "uint256",
          "name": "marketId",
          "type": "uint256"
        }
      ],
      "name": "claimFees",
      "outputs": [],
      "stateMutability": "payable",
      "type": "function"
    },
    {
      "inputs": [
        {
          "internalType": "uint256",
          "name": "feeValue",
          "type": "uint256"
        }
      ],
      "name": "setFee",
      "outputs": [],
      "stateMutability": "nonpayable",
      "type": "function"
    },
    {
      "inputs": [
        {
          "internalType": "address",
          "name": "addr",
          "type": "address"
        }
      ],
      "name": "setRealitioERC20",
      "outputs": [],
      "stateMutability": "nonpayable",
      "type": "function"
    },
    {
      "inputs": [
        {
          "internalType": "uint256",
          "name": "timeout",
          "type": "uint256"
        }
      ],
      "name": "setRealitioTimeout",
      "outputs": [],
      "stateMutability": "nonpayable",
      "type": "function"
    },
    {
      "inputs": [
        {
          "internalType": "uint256",
          "name": "marketId",
          "type": "uint256"
        },
        {
          "internalType": "address",
          "name": "participant",
          "type": "address"
        }
      ],
      "name": "getUserMarketShares",
      "outputs": [
        {
          "internalType": "uint256",
          "name": "",
          "type": "uint256"
        },
        {
          "internalType": "uint256",
          "name": "",
          "type": "uint256"
        },
        {
          "internalType": "uint256",
          "name": "",
          "type": "uint256"
        }
      ],
      "stateMutability": "view",
      "type": "function"
    },
    {
      "inputs": [
        {
          "internalType": "uint256",
          "name": "marketId",
          "type": "uint256"
        },
        {
          "internalType": "address",
          "name": "participant",
          "type": "address"
        }
      ],
      "name": "getUserClaimStatus",
      "outputs": [
        {
          "internalType": "bool",
          "name": "",
          "type": "bool"
        },
        {
          "internalType": "bool",
          "name": "",
          "type": "bool"
        },
        {
          "internalType": "bool",
          "name": "",
          "type": "bool"
        },
        {
          "internalType": "bool",
          "name": "",
          "type": "bool"
        },
        {
          "internalType": "uint256",
          "name": "",
          "type": "uint256"
        }
      ],
      "stateMutability": "view",
      "type": "function"
    },
    {
      "inputs": [
        {
          "internalType": "uint256",
          "name": "marketId",
          "type": "uint256"
        },
        {
          "internalType": "address",
          "name": "participant",
          "type": "address"
        }
      ],
      "name": "getUserLiquidityPoolShare",
      "outputs": [
        {
          "internalType": "uint256",
          "name": "",
          "type": "uint256"
        }
      ],
      "stateMutability": "view",
      "type": "function"
    },
    {
      "inputs": [
        {
          "internalType": "uint256",
          "name": "marketId",
          "type": "uint256"
        },
        {
          "internalType": "address",
          "name": "participant",
          "type": "address"
        }
      ],
      "name": "getUserClaimableFees",
      "outputs": [
        {
          "internalType": "uint256",
          "name": "",
          "type": "uint256"
        }
      ],
      "stateMutability": "view",
      "type": "function"
    },
    {
      "inputs": [],
      "name": "getMarkets",
      "outputs": [
        {
          "internalType": "uint256[]",
          "name": "",
          "type": "uint256[]"
        }
      ],
      "stateMutability": "view",
      "type": "function"
    },
    {
      "inputs": [
        {
          "internalType": "uint256",
          "name": "marketId",
          "type": "uint256"
        }
      ],
      "name": "getMarketData",
      "outputs": [
        {
          "internalType": "string",
          "name": "",
          "type": "string"
        },
        {
          "internalType": "enum PredictionMarket.MarketState",
          "name": "",
          "type": "uint8"
        },
        {
          "internalType": "uint256",
          "name": "",
          "type": "uint256"
        },
        {
          "internalType": "uint256",
          "name": "",
          "type": "uint256"
        },
        {
          "internalType": "uint256",
          "name": "",
          "type": "uint256"
        },
        {
          "internalType": "uint256",
          "name": "",
          "type": "uint256"
        },
        {
          "internalType": "int256",
          "name": "",
          "type": "int256"
        }
      ],
      "stateMutability": "view",
      "type": "function"
    },
    {
      "inputs": [
        {
          "internalType": "uint256",
          "name": "marketId",
          "type": "uint256"
        }
      ],
      "name": "getMarketAltData",
      "outputs": [
        {
          "internalType": "uint256",
          "name": "",
          "type": "uint256"
        },
        {
          "internalType": "bytes32",
          "name": "",
          "type": "bytes32"
        }
      ],
      "stateMutability": "view",
      "type": "function"
    },
    {
      "inputs": [
        {
          "internalType": "uint256",
          "name": "marketId",
          "type": "uint256"
        }
      ],
      "name": "getMarketQuestion",
      "outputs": [
        {
          "internalType": "bytes32",
          "name": "",
          "type": "bytes32"
        }
      ],
      "stateMutability": "view",
      "type": "function"
    },
    {
      "inputs": [
        {
          "internalType": "uint256",
          "name": "marketId",
          "type": "uint256"
        }
      ],
      "name": "getMarketPrices",
      "outputs": [
        {
          "internalType": "uint256",
          "name": "",
          "type": "uint256"
        },
        {
          "internalType": "uint256",
          "name": "",
          "type": "uint256"
        },
        {
          "internalType": "uint256",
          "name": "",
          "type": "uint256"
        }
      ],
      "stateMutability": "view",
      "type": "function"
    },
    {
      "inputs": [
        {
          "internalType": "uint256",
          "name": "marketId",
          "type": "uint256"
        }
      ],
      "name": "getMarketLiquidityPrice",
      "outputs": [
        {
          "internalType": "uint256",
          "name": "",
          "type": "uint256"
        }
      ],
      "stateMutability": "view",
      "type": "function"
    },
    {
      "inputs": [
        {
          "internalType": "uint256",
          "name": "marketId",
          "type": "uint256"
        }
      ],
      "name": "getMarketResolvedOutcome",
      "outputs": [
        {
          "internalType": "int256",
          "name": "",
          "type": "int256"
        }
      ],
      "stateMutability": "view",
      "type": "function"
    },
    {
      "inputs": [
        {
          "internalType": "uint256",
          "name": "marketId",
          "type": "uint256"
        }
      ],
      "name": "getMarketOutcomeIds",
      "outputs": [
        {
          "internalType": "uint256[]",
          "name": "",
          "type": "uint256[]"
        }
      ],
      "stateMutability": "view",
      "type": "function"
    },
    {
      "inputs": [
        {
          "internalType": "uint256",
          "name": "marketId",
          "type": "uint256"
        },
        {
          "internalType": "uint256",
          "name": "marketOutcomeId",
          "type": "uint256"
        }
      ],
      "name": "getMarketOutcomePrice",
      "outputs": [
        {
          "internalType": "uint256",
          "name": "",
          "type": "uint256"
        }
      ],
      "stateMutability": "view",
      "type": "function"
    },
    {
      "inputs": [
        {
          "internalType": "uint256",
          "name": "marketId",
          "type": "uint256"
        },
        {
          "internalType": "uint256",
          "name": "marketOutcomeId",
          "type": "uint256"
        }
      ],
      "name": "getMarketOutcomeData",
      "outputs": [
        {
          "internalType": "string",
          "name": "",
          "type": "string"
        },
        {
          "internalType": "uint256",
          "name": "",
          "type": "uint256"
        },
        {
          "internalType": "uint256",
          "name": "",
          "type": "uint256"
        },
        {
          "internalType": "uint256",
          "name": "",
          "type": "uint256"
        }
      ],
      "stateMutability": "view",
      "type": "function"
    }
  ],
  "bytecode": "0x608060405234801561001057600080fd5b5061381c806100206000396000f3fe6080604052600436106101aa5760003560e01c80631d7920aa146101af57806328747a80146101e65780632bd81c2a146102135780632c2aa24e1461022657806331877a38146102575780633d41a26b146102845780633fe45e3b146102995780634397c4ce146102ae57806351c6590a146102ce5780635e648eff146102e3578063677bd9ff1461030357806369fe0e2d14610323578063715018a6146103435780637b34e6e0146103585780638129fc1c1461037a57806385b91d8e1461038f5780638c7adc15146103be5780638cd41552146103d35780638da5cb5b146103f35780639d7de6b314610408578063aa22a02e1461041b578063ac68a7481461043b578063b31eb8951461044e578063bf4557211461046e578063bfacba3d1461048e578063c2ee3a08146104c1578063c8f70d01146104d6578063d3c9727c146104f6578063d6febde814610509578063ddca3f431461051c578063e1e966dc14610531578063ec2c901614610544578063ede2e06e14610559578063efce431314610579578063f2fde38b146105a9578063fdff8085146105c9578063ffce3d5e146105e9575b600080fd5b3480156101bb57600080fd5b506101cf6101ca366004612ec8565b610609565b6040516101dd929190613093565b60405180910390f35b3480156101f257600080fd5b50610206610201366004612ec8565b610626565b6040516101dd919061308a565b610206610221366004612e29565b610881565b34801561023257600080fd5b50610246610241366004612ee0565b6108fc565b6040516101dd959493929190613063565b34801561026357600080fd5b50610277610272366004612ec8565b6109cc565b6040516101dd919061301f565b34801561029057600080fd5b50610206610a35565b3480156102a557600080fd5b50610206610a3b565b3480156102ba57600080fd5b506102066102c9366004612ec8565b610a41565b6102e16102dc366004612ec8565b610a56565b005b3480156102ef57600080fd5b506102e16102fe366004612ec8565b610d5c565b34801561030f57600080fd5b506102e161031e366004612ec8565b610f12565b34801561032f57600080fd5b506102e161033e366004612ec8565b611066565b34801561034f57600080fd5b506102e16110aa565b34801561036457600080fd5b5061036d611121565b6040516101dd919061300b565b34801561038657600080fd5b506102e1611130565b34801561039b57600080fd5b506103af6103aa366004612ec8565b6111bb565b6040516101dd939291906136c6565b3480156103ca57600080fd5b506102066111ec565b3480156103df57600080fd5b506102066103ee366004612f0c565b6111f2565b3480156103ff57600080fd5b5061036d6112ec565b6102e1610416366004612f0c565b6112fc565b34801561042757600080fd5b50610206610436366004612ee0565b611673565b6102e1610449366004612ec8565b6116c6565b34801561045a57600080fd5b506103af610469366004612ee0565b61178f565b34801561047a57600080fd5b50610206610489366004612ec8565b6117ed565b34801561049a57600080fd5b506104ae6104a9366004612ec8565b61182a565b6040516101dd979695949392919061310c565b3480156104cd57600080fd5b50610206611918565b3480156104e257600080fd5b506102066104f1366004612ec8565b611924565b6102e1610504366004612f2d565b6119c5565b6102e1610517366004612f0c565b611d1f565b34801561052857600080fd5b50610206611d30565b61020661053f366004612d58565b611d36565b34801561055057600080fd5b5061027761203e565b34801561056557600080fd5b506102e1610574366004612ec8565b612096565b34801561058557600080fd5b50610599610594366004612f0c565b6120da565b6040516101dd949392919061315b565b3480156105b557600080fd5b506102e16105c4366004612d25565b6121b8565b3480156105d557600080fd5b506102066105e4366004612ee0565b612267565b3480156105f557600080fd5b506102e1610604366004612d25565b6122e9565b6000908152606660205260409020600b810154600a909101549091565b600081815260666020526040812060010154829042118015610665575060008181526066602052604081206007015460ff16600281111561066357fe5b145b15610673576106738161234a565b8260018060008381526066602052604090206007015460ff16600281111561069757fe5b146106a157600080fd5b600085815260666020526040808220606954600a820154925163684e62bf60e11b8152899492936001600160a01b039092169291839163d09cc57e916106e99160040161308a565b60206040518083038186803b15801561070157600080fd5b505afa158015610715573d6000803e3d6000fd5b505050506040513d601f19601f820116820180604052506107399190810190612d40565b6000818152600f8501602052604090819020600986018390559051919250908a9033907f67a6457c8912ae1b7a9fbdfa311cbd016ba606b548bf06bc80bc751072d91bbc9061078b9086904290613093565b60405180910390a3818a6000805160206137c7833981519152670de0b6b3a7640000426040516107bc929190613093565b60405180910390a381156107d15760006107d4565b60015b60ff168a6000805160206137c78339815191526000426040516107f8929190613093565b60405180910390a3600384015460048201546000916108359161082990670de0b6b3a764000063ffffffff61239a16565b9063ffffffff6123d416565b90508a6000805160206137678339815191528660030154834260405161085d939291906136c6565b60405180910390a2505050506009015494506108788161234a565b50505050919050565b60408051600280825260608281019093526000929190816020015b606081526020019060019003908161089c57905050905083816000815181106108c157fe5b602002602001018190525082816001815181106108da57fe5b60200260200101819052506108f187878784611d36565b979650505050505050565b600082815260666020526040812081908190819081906002600782015460ff16600281111561092757fe5b1461094c5760008060008061093c8c8c612267565b95509550955095509550506109c2565b60098101546000908152600f8201602090815260408083206001600160a01b038b16845260058082018452828520546006808401865284872054928801865284872054908801909552929094205490939115159260ff9283169290151591166109b58d8d612267565b9650965096509650965050505b9295509295909350565b600081815260666020908152604091829020600e810180548451818502810185019095528085526060949293830182828015610a2757602002820191906000526020600020905b815481526020019060010190808311610a13575b50505050509150505b919050565b60001981565b606a5481565b6000908152606660205260409020600a015490565b600081815260666020526040902060010154819042118015610a95575060008181526066602052604081206007015460ff166002811115610a9357fe5b145b15610aa357610aa38161234a565b8160008060008381526066602052604090206007015460ff166002811115610ac757fe5b14610ad157600080fd5b600084815260666020526040902034610b055760405162461bcd60e51b8152600401610afc90613459565b60405180910390fd5b600019600080805b600e850154811015610b6f57600085600e018281548110610b2a57fe5b6000918252602080832090910154808352600f89019091526040909120600481015491925090861115610b6557806003016001015495508194505b5050600101610b0d565b506003840154600090610b8c90610829863463ffffffff61239a16565b9050610b9a89826002612406565b506003850154610bb0908263ffffffff6124f616565b6003860155336000908152600586016020526040902054610bd7908263ffffffff6124f616565b33600090815260058701602052604090205534811415610cad576002850154610c06908263ffffffff6124f616565b600286015560005b600e860154811015610ca757600086600e018281548110610c2b57fe5b6000918252602080832090910154808352600f8a019091526040909120600481015491925090610c61908563ffffffff6124f616565b60048201556003810154610c7b908563ffffffff6124f616565b60038201556004880154610c95908563ffffffff6124f616565b60048901555034935050600101610c0e565b50610ce2565b610cba898434600261251b565b610cdf670de0b6b3a7640000610829610cd28c611924565b849063ffffffff61239a16565b91505b886002336001600160a01b03166000805160206137a78339815191526000858742604051610d1394939291906130a1565b60405180910390a4886000805160206137678339815191528660030154610d398c611924565b42604051610d49939291906136c6565b60405180910390a2505050505050505050565b8060028060008381526066602052604090206007015460ff166002811115610d8057fe5b14610d8a57600080fd5b600083815260666020908152604080832060098101548452600f8101909252909120610db5856116c6565b336000908152600583016020526040902054610de35760405162461bcd60e51b8152600401610afc9061367c565b33600090815260068301602052604090205460ff1615610e155760405162461bcd60e51b8152600401610afc9061349c565b6000610e41670de0b6b3a7640000610829610e308933611673565b60048601549063ffffffff61239a16565b90508083600201541015610e675760405162461bcd60e51b8152600401610afc906132d9565b6002830154610e7c908263ffffffff61288d16565b60028401553360009081526006840160205260409020805460ff191660011790558560053360008181526005870160205260408082205490516000805160206137a783398151915292610ed4929091889042906130a1565b60405180910390a4604051339082156108fc029083906000818181858888f19350505050158015610f09573d6000803e3d6000fd5b50505050505050565b8060028060008381526066602052604090206007015460ff166002811115610f3657fe5b14610f4057600080fd5b600083815260666020908152604080832060098101548452600f8101835281842033855260058101909352922054610f8a5760405162461bcd60e51b8152600401610afc906134ea565b33600090815260068201602052604090205460ff1615610fbc5760405162461bcd60e51b8152600401610afc906135b1565b3360009081526005820160205260409020546002830154811115610ff25760405162461bcd60e51b8152600401610afc906132d9565b6002830154611007908263ffffffff61288d16565b60028401553360009081526006830160205260409020805460ff1916600117905585600460098501543360008181526005870160205260409081902054905191926000805160206137a783398151915292610ed49290889042906130a1565b61106e6128b5565b6001600160a01b031661107f6112ec565b6001600160a01b0316146110a55760405162461bcd60e51b8152600401610afc9061357c565b606855565b6110b26128b5565b6001600160a01b03166110c36112ec565b6001600160a01b0316146110e95760405162461bcd60e51b8152600401610afc9061357c565b6033546040516000916001600160a01b031690600080516020613787833981519152908390a3603380546001600160a01b0319169055565b6069546001600160a01b031681565b600054610100900460ff168061114957506111496128b9565b80611157575060005460ff16155b6111735760405162461bcd60e51b8152600401610afc906133c1565b600054610100900460ff1615801561119e576000805460ff1961ff0019909116610100171660011790555b6111a66128ca565b80156111b8576000805461ff00191690555b50565b60008060006111c984611924565b6111d48560006111f2565b6111df8660016111f2565b9250925092509193909250565b60675481565b6000828152606660209081526040808320848452600f810190925282206002600783015460ff16600281111561122457fe5b141561124f576009820154841461123c576000611246565b670de0b6b3a76400005b925050506112e6565b6004810154600382015410156112775760405162461bcd60e51b8152600401610afc90613246565b60048082015490830154101561129f5760405162461bcd60e51b8152600401610afc90613606565b600480820154908301546000916112bc919063ffffffff61288d16565b60048401549091506112e09061082983670de0b6b3a764000063ffffffff61239a16565b93505050505b92915050565b6033546001600160a01b03165b90565b60008281526066602052604090206001015482904211801561133b575060008181526066602052604081206007015460ff16600281111561133957fe5b145b15611349576113498161234a565b8260008060008381526066602052604090206007015460ff16600281111561136d57fe5b1461137757600080fd5b600085815260666020908152604080832033845260058101909252909120548511156113a257600080fd5b60006113ad876116c6565b3360009081526005830160205260409020546113cf908763ffffffff61288d16565b33600090815260058401602052604081209190915560001990805b600e85015481101561144c57600085600e01828154811061140757fe5b6000918252602080832090910154808352600f8901909152604090912060048101549192509085111561144257806003016001015494508193505b50506001016113ea565b50600384015460009061146990610829858c63ffffffff61239a16565b90506114778a8a6003612406565b5088811415611556576002850154611495908263ffffffff61288d16565b600286015560038501546114af908263ffffffff61288d16565b600386015560005b600e86015481101561154d57600086600e0182815481106114d457fe5b6000918252602080832090910154808352600f8a01909152604090912060048101549192509061150a908563ffffffff61288d16565b60048201556003810154611524908563ffffffff61288d16565b6003820155600488015461153e908563ffffffff61288d16565b600489015550506001016114b7565b508893506115ca565b60008215611565576000611568565b60015b60ff166000818152600f88016020526040902060040154600388015491925061159b91610829908d63ffffffff61239a16565b60038701549095506115b3908b63ffffffff61288d16565b86600301819055506115c88b8287600361251b565b505b604051339085156108fc029086906000818181858888f193505050501580156115f7573d6000803e3d6000fd5b50896003336001600160a01b03166000805160206137a783398151915260008d894260405161162994939291906130a1565b60405180910390a489600080516020613767833981519152866003015461164f8d611924565b4260405161165f939291906136c6565b60405180910390a250505050505050505050565b600082815260666020908152604080832060038101546001600160a01b0386168552600582019093529083205490916116be9161082990670de0b6b3a764000063ffffffff61239a16565b949350505050565b6000818152606660205260408120906116df8333612267565b9050801561174b57336000908152600d83016020526040902054611709908263ffffffff6124f616565b336000818152600d85016020526040808220939093559151909183156108fc02918491818181858888f19350505050158015611749573d6000803e3d6000fd5b505b8260063360008181526005860160205260408082205490516000805160206137a783398151915292611782929091889042906130a1565b60405180910390a4505050565b60008281526066602090815260408083206001600160a01b0385168085526005808301855283862054868052600f90930180865284872083885282018652848720546001885290865284872092875291019093529220549250925092565b60008181526066602052604081206002600782015460ff16600281111561181057fe5b1461182057600019915050610a30565b6009015492915050565b6000818152606660205260408120600781015460018201546003830154600284015460048501546060969586958695869586958695859460ff16939291906118718f6117ed565b8654604080516020601f600260001961010060018816150201909516949094049384018190048102820181019092528281529189918301828280156118f75780601f106118cc576101008083540402835291602001916118f7565b820191906000526020600020905b8154815290600101906020018083116118da57829003601f168201915b50505050509650975097509750975097509750975050919395979092949650565b670de0b6b3a764000081565b60008181526066602052604081206002600782015460ff16600281111561194757fe5b141561199057600381015460098201546000908152600f83016020526040902060040154611988919061082990670de0b6b3a764000063ffffffff61239a16565b915050610a30565b6004810154600e82015460038301546119be92916108299190670de0b6b3a76400000263ffffffff61239a16565b9392505050565b600083815260666020526040902060010154839042118015611a04575060008181526066602052604081206007015460ff166002811115611a0257fe5b145b15611a1257611a128161234a565b8360008060008381526066602052604090206007015460ff166002811115611a3657fe5b14611a4057600080fd5b6000868152606660209081526040808320888452600f8101835281842033855260058101909352922054861115611a7657600080fd5b6004810154600382015403861115611a8d57600080fd5b336000908152600582016020526040902054611aaf908763ffffffff61288d16565b3360009081526005830160205260409020556004810154611ad6908763ffffffff6124f616565b600480830191909155820154611af2908763ffffffff6124f616565b6004808401829055820154600091611b0f9163ffffffff61288d16565b600e8401546003850154919250600091611b4591611b35910a600463ffffffff61239a16565b6002840a9063ffffffff6124f616565b6004840154909150611b629082906002900a63ffffffff6124f616565b6004840154909150611b9c90611b8f90611b8385600263ffffffff61239a16565b9063ffffffff61239a16565b829063ffffffff61288d16565b9050611ba781612948565b9050611bd381611bc78560030160010154856124f690919063ffffffff16565b9063ffffffff61288d16565b9050611be681600263ffffffff6123d416565b905080471015611bf557600080fd5b8084600201541015611c0657600080fd5b60005b600e850154811015611c7c576000818152600f8601602052604090206004810154611c3a908463ffffffff61288d16565b60048201556003810154611c54908463ffffffff61288d16565b60038201556004860154611c6e908463ffffffff61288d16565b600487015550600101611c09565b506002840154611c92908263ffffffff61288d16565b6002850155611ca18a82612999565b604051909150339082156108fc029083906000818181858888f19350505050158015611cd1573d6000803e3d6000fd5b50896001336001600160a01b03166000805160206137a78339815191528c8c8642604051611d0294939291906130a1565b60405180910390a4611d138a6129ff565b50505050505050505050565b611d2c828234600061251b565b5050565b60685481565b60675460658054600181019091557f8ff97419363ffd7000167f130ef7168fbea05faf9251824ca5043f113cc6a7c701819055600081815260666020526040812090919034611d975760405162461bcd60e51b8152600401610afc90613459565b42861015611db75760405162461bcd60e51b8152600401610afc9061340f565b8351600214611dd85760405162461bcd60e51b8152600401610afc9061318a565b8651611dea90829060208a0190612c0e565b506001810186905560078101805460ff191690556008810180546001600160a01b0319166001600160a01b0387811691909117909155606854600b83015560001960098301556069548551911690606090611e6e908a908890600090611e4c57fe5b602002602001015188600181518110611e6157fe5b6020026020010151612a90565b606a5460405163d4876b9f60e01b81529192506001600160a01b0384169163d4876b9f91611ead9160029186918d91908f9060009081906004016130bc565b602060405180830381600087803b158015611ec757600080fd5b505af1158015611edb573d6000803e3d6000fd5b505050506040513d601f19601f82011682018060405250611eff9190810190612d40565b600a840155346002840181905560038401819055336000908152600585016020526040902054611f349163ffffffff6124f616565b3360009081526005850160205260408120919091555b8651811015611fe657600e840180546001818101835560009283526020808420909201849055838352600f870190915260409091208681559081018290558751889083908110611f9657fe5b6020026020010151816002019080519060200190611fb5929190612c0e565b5034600480830182905560038301829055860154611fd89163ffffffff6124f616565b600486015550600101611f4a565b50611ff0846129ff565b836002336001600160a01b03166000805160206137a7833981519152600034344260405161202194939291906130a1565b60405180910390a450506067805460010190555095945050505050565b6060606580548060200260200160405190810160405280929190818152602001828054801561208c57602002820191906000526020600020905b815481526020019060010190808311612078575b5050505050905090565b61209e6128b5565b6001600160a01b03166120af6112ec565b6001600160a01b0316146120d55760405162461bcd60e51b8152600401610afc9061357c565b606a55565b6000828152606660209081526040808320848452600f810190925282206060929182918291906002810161210e89896111f2565b600483015460038401548354604080516020601f6002600019610100600188161502019095169490940493840181900481028201810190925282815291869183018282801561219e5780601f106121735761010080835404028352916020019161219e565b820191906000526020600020905b81548152906001019060200180831161218157829003601f168201915b505050505093509550955095509550505092959194509250565b6121c06128b5565b6001600160a01b03166121d16112ec565b6001600160a01b0316146121f75760405162461bcd60e51b8152600401610afc9061357c565b6001600160a01b03811661221d5760405162461bcd60e51b8152600401610afc906131cb565b6033546040516001600160a01b0380841692169060008051602061378783398151915290600090a3603380546001600160a01b0319166001600160a01b0392909216919091179055565b600082815260666020908152604080832060038101546001600160a01b03861685526005820190935290832054600c820154919284926122b192610829919063ffffffff61239a16565b6001600160a01b0385166000908152600d840160205260409020549091506122e090829063ffffffff61288d16565b95945050505050565b6122f16128b5565b6001600160a01b03166123026112ec565b6001600160a01b0316146123285760405162461bcd60e51b8152600401610afc9061357c565b606980546001600160a01b0319166001600160a01b0392909216919091179055565b6000818152606660205260409020600781015460ff16600281111561236b57fe5b600101600281111561237957fe5b60078201805460ff1916600183600281111561239157fe5b02179055505050565b6000826123a9575060006112e6565b828202828482816123b657fe5b04146119be5760405162461bcd60e51b8152600401610afc9061353b565b60008082116123f55760405162461bcd60e51b8152600401610afc9061331c565b8183816123fe57fe5b049392505050565b60008381526066602052604081206003810154600c82015483916124359161082990889063ffffffff61239a16565b9050600284600681111561244557fe5b141561249e57600c820154612460908263ffffffff6124f616565b600c830155336000908152600d83016020526040902054612487908263ffffffff6124f616565b336000908152600d840160205260409020556124ed565b600c8201546124b3908263ffffffff61288d16565b600c830155336000908152600d830160205260409020546124da908263ffffffff61288d16565b336000908152600d840160205260409020555b50509392505050565b6000828201838110156119be5760405162461bcd60e51b8152600401610afc90613211565b60008481526066602052604090206001015484904211801561255a575060008181526066602052604081206007015460ff16600281111561255857fe5b145b15612568576125688161234a565b8460008060008381526066602052604090206007015460ff16600281111561258c57fe5b1461259657600080fd5b6000878152606660205260408120908560068111156125b157fe5b14156125c4576125c18887612999565b95505b6000878152600f82016020526040902060038660068111156125e257fe5b146126015760028201546125fc908863ffffffff6124f616565b612616565b6002820154612616908863ffffffff61288d16565b6002830155600160005b600e840154811015612732576000818152600f850160205260409020600389600681111561264a57fe5b14612669576004810154612664908b63ffffffff6124f616565b61267e565b600481015461267e908b63ffffffff61288d16565b6004820155600389600681111561269157fe5b146126b05760038101546126ab908b63ffffffff6124f616565b6126c5565b60038101546126c5908b63ffffffff61288d16565b600382015560048101546126e090849063ffffffff61239a16565b925060038960068111156126f057fe5b1461270f57600485015461270a908b63ffffffff6124f616565b612724565b6004850154612724908b63ffffffff61288d16565b600486015550600101612620565b50600e8301546003840154600484015460009261275d9285926108299290910a63ffffffff61239a16565b6004840154039050806127825760405162461bcd60e51b8152600401610afc9061339d565b60048301548111156127a65760405162461bcd60e51b8152600401610afc90613350565b3360009081526005840160205260409020546127c8908263ffffffff6124f616565b33600090815260058501602052604090205560048301546127ef908263ffffffff61288d16565b60048085019190915584015461280b908263ffffffff61288d16565b6004850155600088600681111561281e57fe5b1461283f5761283c670de0b6b3a7640000610829610cd28e8e6111f2565b98505b8a6000336001600160a01b03166000805160206137a78339815191528d858e4260405161286f94939291906130a1565b60405180910390a46128808b6129ff565b5050505050505050505050565b6000828211156128af5760405162461bcd60e51b8152600401610afc906132a2565b50900390565b3390565b60006128c430612abf565b15905090565b600054610100900460ff16806128e357506128e36128b9565b806128f1575060005460ff16155b61290d5760405162461bcd60e51b8152600401610afc906133c1565b600054610100900460ff16158015612938576000805460ff1961ff0019909116610100171660011790555b612940612ac5565b6111a6612b46565b6000600382111561298b575080600160028204015b818110156129855780915060028182858161297457fe5b04018161297d57fe5b04905061295d565b50610a30565b8115610a3057506001919050565b6000828152606660205260408120600b8101548290670de0b6b3a7640000906129c990869063ffffffff61239a16565b816129d057fe5b600c84015491900491506129ea908263ffffffff6124f616565b600c8301556122e0848263ffffffff61288d16565b6000818152606660205260408120905b600e820154811015612a555780836000805160206137c7833981519152612a3686856111f2565b42604051612a45929190613093565b60405180910390a3600101612a0f565b50816000805160206137678339815191528260030154612a7485611924565b42604051612a84939291906136c6565b60405180910390a25050565b6060838383604051602001612aa793929190612f84565b60405160208183030381529060405290509392505050565b3b151590565b600054610100900460ff1680612ade5750612ade6128b9565b80612aec575060005460ff16155b612b085760405162461bcd60e51b8152600401610afc906133c1565b600054610100900460ff161580156111a6576000805460ff1961ff00199091166101001716600117905580156111b8576000805461ff001916905550565b600054610100900460ff1680612b5f5750612b5f6128b9565b80612b6d575060005460ff16155b612b895760405162461bcd60e51b8152600401610afc906133c1565b600054610100900460ff16158015612bb4576000805460ff1961ff0019909116610100171660011790555b6000612bbe6128b5565b603380546001600160a01b0319166001600160a01b03831690811790915560405191925090600090600080516020613787833981519152908290a35080156111b8576000805461ff001916905550565b828054600181600116156101000203166002900490600052602060002090601f016020900481019282601f10612c4f57805160ff1916838001178555612c7c565b82800160010185558215612c7c579182015b82811115612c7c578251825591602001919060010190612c61565b50612c88929150612c8c565b5090565b6112f991905b80821115612c885760008155600101612c92565b80356001600160a01b03811681146112e657600080fd5b600082601f830112612ccd578081fd5b81356001600160401b03811115612ce2578182fd5b612cf5601f8201601f19166020016136dc565b9150808252836020828501011115612d0c57600080fd5b8060208401602084013760009082016020015292915050565b600060208284031215612d36578081fd5b6119be8383612ca6565b600060208284031215612d51578081fd5b5051919050565b60008060008060808587031215612d6d578283fd5b84356001600160401b0380821115612d83578485fd5b612d8f88838901612cbd565b9550602091508187013594506040870135612da981613751565b9350606087013581811115612dbc578384fd5b87019050601f81018813612dce578283fd5b8035612de1612ddc82613702565b6136dc565b81815283810190838501865b84811015612e1657612e048d888435890101612cbd565b84529286019290860190600101612ded565b5050809550505050505092959194509250565b600080600080600060a08688031215612e40578081fd5b85356001600160401b0380821115612e56578283fd5b612e6289838a01612cbd565b965060208801359550612e788960408a01612ca6565b94506060880135915080821115612e8d578283fd5b612e9989838a01612cbd565b93506080880135915080821115612eae578283fd5b50612ebb88828901612cbd565b9150509295509295909350565b600060208284031215612ed9578081fd5b5035919050565b60008060408385031215612ef2578182fd5b82359150612f038460208501612ca6565b90509250929050565b60008060408385031215612f1e578182fd5b50508035926020909101359150565b600080600060608486031215612f41578283fd5b505081359360208301359350604090920135919050565b60008151808452612f70816020860160208601613721565b601f01601f19169290920160200192915050565b60008451612f96818460208901613721565b62e2909f60e81b908301908152601160f91b6003820152845190612fc1826004830160208901613721565b818101600b60fa1b600482015285519250612fe3836005830160208901613721565b6c1171484fb6b4b9b1f1484fb2b760991b920160058101929092525060120195945050505050565b6001600160a01b0391909116815260200190565b6020808252825182820181905260009190848201906040850190845b818110156130575783518352928401929184019160010161303b565b50909695505050505050565b94151585529215156020850152901515604084015215156060830152608082015260a00190565b90815260200190565b918252602082015260400190565b93845260208401929092526040830152606082015260800190565b600088825260e060208301526130d560e0830189612f58565b6001600160a01b039790971660408301525063ffffffff948516606082015292909316608083015260a082015260c0015292915050565b600060e0825261311f60e083018a612f58565b90506003881061312b57fe5b8760208301528660408301528560608301528460808301528360a08301528260c083015298975050505050505050565b60006080825261316e6080830187612f58565b6020830195909552506040810192909252606090910152919050565b60208082526021908201527f4e756d626572206d61726b6574206f7574636f6d652068617320746f206265206040820152601960f91b606082015260800190565b60208082526026908201527f4f776e61626c653a206e6577206f776e657220697320746865207a65726f206160408201526564647265737360d01b606082015260800190565b6020808252601b908201527a536166654d6174683a206164646974696f6e206f766572666c6f7760281b604082015260600190565b6020808252603c908201527f546f74616c207368617265732068617320746f20626520657175616c206f722060408201527b686967686572207468616e20617661696c61626c652073686172657360201b606082015260800190565b6020808252601e908201527f536166654d6174683a207375627472616374696f6e206f766572666c6f770000604082015260600190565b60208082526023908201527f4d61726b657420646f6573206e6f74206861766520656e6f7567682062616c616040820152626e636560e81b606082015260800190565b6020808252601a9082015279536166654d6174683a206469766973696f6e206279207a65726f60301b604082015260600190565b6020808252602d908201527f43616e277420627579206d6f726520736861726573207468616e20746865206f60408201526c6e657320617661696c61626c6560981b606082015260800190565b6020808252600a9082015269043616e277420626520360b41b604082015260600190565b6020808252602e908201527f496e697469616c697a61626c653a20636f6e747261637420697320616c72656160408201526d191e481a5b9a5d1a585b1a5e995960921b606082015260800190565b6020808252602a908201527f4d61726b65742068617320746f20636c6f7365206166746572207468652063756040820152697272656e74206461746560b01b606082015260800190565b60208082526023908201527f546865207374616b652068617320746f2062652067726561746572207468616e60408201526210181760e91b606082015260800190565b6020808252602e908201527f5061727469636970616e7420616c726561647920636c61696d6564206c69717560408201526d69646974792077696e6e696e677360901b606082015260800190565b60208082526031908201527f5061727469636970616e7420646f6573206e6f7420686f6c64207265736f6c766040820152706564206f7574636f6d652073686172657360781b606082015260800190565b60208082526021908201527f536166654d6174683a206d756c7469706c69636174696f6e206f766572666c6f6040820152607760f81b606082015260800190565b6020808252818101527f4f776e61626c653a2063616c6c6572206973206e6f7420746865206f776e6572604082015260600190565b60208082526035908201527f5061727469636970616e7420616c726561647920636c61696d6564207265736f6040820152746c766564206f7574636f6d652077696e6e696e677360581b606082015260800190565b60208082526050908201527f546f74616c202320617661696c61626c65207368617265732068617320746f2060408201527f626520657175616c206f7220686967686572207468616e206f7574636f6d652060608201526f617661696c61626c652073686172657360801b608082015260a00190565b6020808252602a908201527f5061727469636970616e7420646f6573206e6f7420686f6c64206c69717569646040820152696974792073686172657360b01b606082015260800190565b9283526020830191909152604082015260600190565b6040518181016001600160401b03811182821017156136fa57600080fd5b604052919050565b60006001600160401b03821115613717578081fd5b5060209081020190565b60005b8381101561373c578181015183820152602001613724565b8381111561374b576000848401525b50505050565b6001600160a01b03811681146111b857600080fdfe1eca98f266e5348ae38d5d057a4d8e451e76672f69ac6ba4b0e3b31ea9c7eb2b8be0079c531659141344cd1fd0a4f28419497f9722a3daafe3b4186f6b6457e0f234ce8a0f255434ef7d62a699a746ee45ac4452531081e609f1556d27faf12c8270f0a0534b13b7f92d1dbd58aa75c5207b40c55fefa7a17110c6136ad7270ba26469706673582212201fc55a4e75696755ee08a9abea01a6cb1a8ec79df199e46e6272d03491e4360f64736f6c63430006020033",
  "source": "pragma solidity ^0.6.0;\npragma experimental ABIEncoderV2;\n\nimport \"./RealitioERC20.sol\";\n\n// openzeppelin imports\nimport \"@openzeppelin/contracts/math/SafeMath.sol\";\nimport \"@openzeppelin/contracts-upgradeable/access/OwnableUpgradeable.sol\";\n\nlibrary PMHelpers {\n  // fetched from uniswap: https://github.com/Uniswap/uniswap-v2-core/blob/v1.0.1/contracts/libraries/Math.sol\n  // babylonian method (https://en.wikipedia.org/wiki/Methods_of_computing_square_roots#Babylonian_method)\n  function sqrt(uint256 y) internal pure returns (uint256 z) {\n    if (y > 3) {\n      z = y;\n      uint256 x = y / 2 + 1;\n      while (x < z) {\n        z = x;\n        x = (y / x + x) / 2;\n      }\n    } else if (y != 0) {\n      z = 1;\n    }\n  }\n\n  // formats question for realitio\n  function formatQuestion(\n    string memory name,\n    string memory outcome1,\n    string memory outcome2\n  ) internal pure returns (string memory) {\n    return string(abi.encodePacked(name, \"\", '\"', outcome1, \",\", outcome2, '\"miscen'));\n  }\n}\n\n/// @title Market Contract Factory\ncontract PredictionMarket is Initializable, OwnableUpgradeable {\n  using SafeMath for uint256;\n\n  // ------ Events ------\n\n  event ParticipantAction(\n    address indexed participant,\n    MarketAction indexed action,\n    uint256 indexed marketId,\n    uint256 outcomeId,\n    uint256 shares,\n    uint256 value,\n    uint256 timestamp\n  );\n\n  event MarketOutcomePrice(uint256 indexed marketId, uint256 indexed outcomeId, uint256 value, uint256 timestamp);\n\n  event MarketLiquidity(\n    uint256 indexed marketId,\n    uint256 value, // total liquidity (ETH)\n    uint256 price, // value of 1 liquidity share; max: 1 ETH (50-50 situation)\n    uint256 timestamp\n  );\n\n  event MarketResolved(address indexed oracle, uint256 indexed marketId, uint256 outcomeId, uint256 timestamp);\n\n  // ------ Events End ------\n\n  uint256 public constant MAX_UINT_256 = 115792089237316195423570985008687907853269984665640564039457584007913129639935;\n\n  uint256 public constant ONE = 10**18;\n\n  enum MarketState {\n    open,\n    closed,\n    resolved\n  }\n  enum MarketAction {\n    buy,\n    sell,\n    addLiquidity,\n    removeLiquidity,\n    claimWinnings,\n    claimLiquidity,\n    claimFees\n  }\n\n  struct Market {\n    // market details\n    string name;\n    uint256 closedDateTime;\n    uint256 balance; // total stake (ETH)\n    uint256 liquidity; // stake held (ETH)\n    uint256 sharesAvailable; // shares held (all outcomes)\n    mapping(address => uint256) liquidityShares;\n    mapping(address => bool) liquidityClaims; // wether participant has claimed liquidity winnings\n    MarketState state; // resolution variables\n    MarketResolution resolution; // fees\n    MarketFees fees;\n    // market outcomes\n    uint256[] outcomeIds;\n    mapping(uint256 => MarketOutcome) outcomes;\n  }\n\n  struct MarketFees {\n    uint256 value; // fee % taken from every transaction\n    uint256 poolWeight; // internal var used to ensure pro-rate fee distribution\n    mapping(address => uint256) claimed;\n  }\n\n  struct MarketResolution {\n    address oracle; // TODO remove: deprecated;\n    bool resolved;\n    uint256 outcomeId;\n    bytes32 questionId; // realitio questionId\n  }\n\n  struct MarketOutcome {\n    uint256 marketId;\n    uint256 id;\n    string name;\n    Shares shares;\n  }\n\n  struct Shares {\n    uint256 total; // number of shares\n    uint256 available; // available shares\n    mapping(address => uint256) holders;\n    mapping(address => bool) claims; // wether participant has claimed winnings\n  }\n\n  uint256[] marketIds;\n  mapping(uint256 => Market) markets;\n  uint256 public marketIndex;\n\n  // governance\n  uint256 public fee; // fee % taken from every transaction, can be updated by contract owner\n  // realitio configs\n  address public realitioAddress;\n  uint256 public realitioTimeout;\n\n  // ------ Modifiers ------\n\n  modifier isMarket(uint256 marketId) {\n    require(marketId < marketIndex);\n    _;\n  }\n\n  modifier timeTransitions(uint256 marketId) {\n    if (now > markets[marketId].closedDateTime && markets[marketId].state == MarketState.open) {\n      nextState(marketId);\n    }\n    _;\n  }\n\n  modifier atState(uint256 marketId, MarketState state) {\n    require(markets[marketId].state == state);\n    _;\n  }\n\n  modifier notAtState(uint256 marketId, MarketState state) {\n    require(markets[marketId].state != state);\n    _;\n  }\n\n  modifier transitionNext(uint256 marketId) {\n    _;\n    nextState(marketId);\n  }\n\n  // ------ Modifiers End ------\n\n  // Initializer function (replaces constructor)\n  function initialize() public initializer {\n    __Ownable_init();\n  }\n\n  // ------ Core Functions ------\n\n  // TODO fix: temp solution, while fixing outcomes[] arg\n  function createMarket(\n    string memory name,\n    uint256 closesAt,\n    address oracle,\n    string memory outcome1Name,\n    string memory outcome2Name\n  ) public payable returns (uint256) {\n    string[] memory outcomes = new string[](2);\n    outcomes[0] = outcome1Name;\n    outcomes[1] = outcome2Name;\n\n    return createMarket(name, closesAt, oracle, outcomes);\n  }\n\n  /// Create a new Market contract\n  /// @dev The new Market contract is then saved in the array of this contract for future reference.\n  /// @param name - Name of the market\n  /// @param closesAt - The duration of the market `open` period\n  /// @param oracle - oracle address\n  function createMarket(\n    string memory name,\n    uint256 closesAt,\n    address oracle,\n    string[] memory outcomes\n  ) public payable returns (uint256) {\n    uint256 marketId = marketIndex;\n    marketIds.push(marketId);\n\n    Market storage market = markets[marketId];\n\n    require(msg.value > 0, \"The stake has to be greater than 0.\");\n    require(closesAt >= now, \"Market has to close after the current date\");\n    require(oracle == address(oracle), \"Invalid oracle address\");\n    // starting with secondary markets\n    require(outcomes.length == 2, \"Number market outcome has to be 2\");\n\n    market.name = name;\n    market.closedDateTime = closesAt;\n    market.state = MarketState.open;\n    market.resolution.oracle = oracle;\n    market.fees.value = fee;\n    // setting intial value to an integer that does not map to any outcomeId\n    market.resolution.outcomeId = MAX_UINT_256;\n\n    // creating question in realitio\n    RealitioERC20 realitio = RealitioERC20(realitioAddress);\n    string memory question = PMHelpers.formatQuestion(name, outcomes[0], outcomes[1]);\n\n    market.resolution.questionId = realitio.askQuestionERC20(\n      2,\n      question,\n      oracle,\n      uint32(realitioTimeout),\n      uint32(closesAt),\n      0,\n      0\n    );\n\n    market.balance = msg.value;\n    market.liquidity = msg.value;\n\n    // TODO review: only valid for 50-50 start\n    market.liquidityShares[msg.sender] = market.liquidityShares[msg.sender].add(msg.value);\n\n    // creating market outcomes\n    for (uint256 i = 0; i < outcomes.length; i++) {\n      market.outcomeIds.push(i);\n      MarketOutcome storage outcome = market.outcomes[i];\n\n      outcome.marketId = marketId;\n      outcome.id = i;\n      outcome.name = outcomes[i];\n\n      // TODO review: only valid for 50-50 start\n      // price starts at 0.5 ETH\n      outcome.shares.available = msg.value;\n      outcome.shares.total = msg.value;\n\n      market.sharesAvailable = market.sharesAvailable.add(msg.value);\n    }\n\n    // emiting initial price events\n    emitMarketOutcomePriceEvents(marketId);\n    emit ParticipantAction(msg.sender, MarketAction.addLiquidity, marketId, 0, msg.value, msg.value, now);\n\n    // incrementing market array index\n    marketIndex = marketIndex + 1;\n\n    return marketId;\n  }\n\n  function buy(uint256 marketId, uint256 outcomeId) external payable {\n    buy(marketId, outcomeId, msg.value, MarketAction.buy);\n  }\n\n  /// Buy shares of a market outcome\n  function buy(\n    uint256 marketId,\n    uint256 outcomeId,\n    uint256 value,\n    MarketAction parentAction\n  ) internal timeTransitions(marketId) atState(marketId, MarketState.open) {\n    Market storage market = markets[marketId];\n\n    if (parentAction == MarketAction.buy) {\n      // subtracting fee from transaction value\n      value = addTransactionToFeesPool(marketId, value);\n    }\n\n    MarketOutcome storage outcome = market.outcomes[outcomeId];\n    market.balance = parentAction == MarketAction.removeLiquidity\n      ? market.balance.sub(value)\n      : market.balance.add(value);\n\n    uint256 newProductBalance = 1;\n\n    // Funding market shares with received ETH\n    for (uint256 i = 0; i < market.outcomeIds.length; i++) {\n      MarketOutcome storage marketOutcome = market.outcomes[i];\n\n      marketOutcome.shares.available = parentAction == MarketAction.removeLiquidity\n        ? marketOutcome.shares.available.sub(value)\n        : marketOutcome.shares.available.add(value);\n      marketOutcome.shares.total = parentAction == MarketAction.removeLiquidity\n        ? marketOutcome.shares.total.sub(value)\n        : marketOutcome.shares.total.add(value);\n\n      newProductBalance = newProductBalance.mul(marketOutcome.shares.available);\n\n      // only adding to market total shares, the available remains\n      market.sharesAvailable = parentAction == MarketAction.removeLiquidity\n        ? market.sharesAvailable.sub(value)\n        : market.sharesAvailable.add(value);\n    }\n\n    // productBalance = market.liquidity**(market.outcomeIds.length);\n    // newSharesAvailable = outcome.shares.available.mul(productBalance).div(newProductBalance);\n    uint256 shares = outcome.shares.available -\n      outcome.shares.available.mul(market.liquidity**(market.outcomeIds.length)).div(newProductBalance);\n\n    require(shares > 0, \"Can't be 0\");\n    require(outcome.shares.available >= shares, \"Can't buy more shares than the ones available\");\n\n    outcome.shares.holders[msg.sender] = outcome.shares.holders[msg.sender].add(shares);\n\n    outcome.shares.available = outcome.shares.available.sub(shares);\n    market.sharesAvailable = market.sharesAvailable.sub(shares);\n\n    // transaction value is calculated differently if parent action is not buy\n    if (parentAction != MarketAction.buy) {\n      value = shares.mul(getMarketOutcomePrice(marketId, outcomeId)).div(ONE);\n    }\n\n    emit ParticipantAction(msg.sender, MarketAction.buy, marketId, outcomeId, shares, value, now);\n    emitMarketOutcomePriceEvents(marketId);\n  }\n\n  /// Sell shares of a market outcome\n  function sell(\n    uint256 marketId,\n    uint256 outcomeId,\n    uint256 shares\n  ) external payable timeTransitions(marketId) atState(marketId, MarketState.open) {\n    Market storage market = markets[marketId];\n    MarketOutcome storage outcome = market.outcomes[outcomeId];\n\n    // Invariant check: make sure the stake is <= than user's stake\n    require(outcome.shares.holders[msg.sender] >= shares);\n\n    // Invariant check: make sure the market's stake is smaller than the stake\n    require((outcome.shares.total - outcome.shares.available) >= shares);\n\n    // removing shares\n    outcome.shares.holders[msg.sender] = outcome.shares.holders[msg.sender].sub(shares);\n\n    // adding shares back to pool\n    outcome.shares.available = outcome.shares.available.add(shares);\n    market.sharesAvailable = market.sharesAvailable.add(shares);\n\n    uint256 oppositeSharesAvailable = market.sharesAvailable.sub(outcome.shares.available);\n\n    // formula to calculate amount user will receive in ETH\n    // x = 1/2 (-sqrt(a^2 - 2 a (y + z) + 4 b + (y + z)^2) + a + y + z)\n    // x = ETH amount user will receive\n    // y = # shares sold\n    // z = # selling shares available\n    // a = # opposite shares available\n    // b = product balance\n\n    // productBalance = market.liquidity**(market.outcomeIds.length);\n    uint256 value = (oppositeSharesAvailable**2).add((market.liquidity**(market.outcomeIds.length)).mul(4));\n    value = value.add(outcome.shares.available**2);\n    value = value.sub(oppositeSharesAvailable.mul(2).mul(outcome.shares.available));\n    value = PMHelpers.sqrt(value);\n    value = oppositeSharesAvailable.add(outcome.shares.available).sub(value);\n    value = value.div(2);\n\n    require(value >= 0, \"ETH value has to be > 0\");\n\n    // Invariant check: make sure the contract has enough balance to be withdrawn from.\n    require(address(this).balance >= value);\n    require(market.balance >= value);\n\n    // Rebalancing market shares\n    for (uint256 i = 0; i < market.outcomeIds.length; i++) {\n      MarketOutcome storage marketOutcome = market.outcomes[i];\n\n      marketOutcome.shares.available = marketOutcome.shares.available.sub(value);\n      marketOutcome.shares.total = marketOutcome.shares.total.sub(value);\n\n      // only adding to market total shares, the available remains\n      market.sharesAvailable = market.sharesAvailable.sub(value);\n    }\n\n    market.balance = market.balance.sub(value);\n\n    // subtracting fee from transaction value\n    value = addTransactionToFeesPool(marketId, value);\n\n    // 3. Interaction\n    msg.sender.transfer(value);\n\n    emit ParticipantAction(msg.sender, MarketAction.sell, marketId, outcomeId, shares, value, now);\n    emitMarketOutcomePriceEvents(marketId);\n  }\n\n  function addLiquidity(uint256 marketId)\n    external\n    payable\n    timeTransitions(marketId)\n    atState(marketId, MarketState.open)\n  {\n    Market storage market = markets[marketId];\n\n    require(msg.value > 0, \"The stake has to be greater than 0.\");\n\n    // part of the liquidity is exchanged for outcome shares if not 50-50 market\n    // getting liquidity ratio\n    uint256 minShares = MAX_UINT_256;\n    uint256 minOutcomeId;\n    uint256 value;\n\n    for (uint256 i = 0; i < market.outcomeIds.length; i++) {\n      uint256 outcomeId = market.outcomeIds[i];\n      MarketOutcome storage outcome = market.outcomes[outcomeId];\n\n      if (outcome.shares.available < minShares) {\n        minShares = outcome.shares.available;\n        minOutcomeId = outcomeId;\n      }\n    }\n\n    uint256 liquidityRatio = minShares.mul(msg.value).div(market.liquidity);\n\n    // re-balancing fees pool\n    rebalanceFeesPool(marketId, liquidityRatio, MarketAction.addLiquidity);\n\n    market.liquidity = market.liquidity.add(liquidityRatio);\n\n    market.liquidityShares[msg.sender] = market.liquidityShares[msg.sender].add(liquidityRatio);\n\n    // equal outcome split, no need to buy shares\n    if (liquidityRatio == msg.value) {\n      market.balance = market.balance.add(liquidityRatio);\n      for (uint256 i = 0; i < market.outcomeIds.length; i++) {\n        uint256 outcomeId = market.outcomeIds[i];\n        MarketOutcome storage outcome = market.outcomes[outcomeId];\n\n        outcome.shares.available = outcome.shares.available.add(liquidityRatio);\n        outcome.shares.total = outcome.shares.total.add(liquidityRatio);\n\n        market.sharesAvailable = market.sharesAvailable.add(liquidityRatio);\n        value = msg.value;\n      }\n    } else {\n      buy(marketId, minOutcomeId, msg.value, MarketAction.addLiquidity);\n      value = liquidityRatio.mul(getMarketLiquidityPrice(marketId)).div(ONE);\n    }\n\n    emit ParticipantAction(msg.sender, MarketAction.addLiquidity, marketId, 0, liquidityRatio, value, now);\n    emit MarketLiquidity(marketId, market.liquidity, getMarketLiquidityPrice(marketId), now);\n  }\n\n  function removeLiquidity(uint256 marketId, uint256 shares)\n    external\n    payable\n    timeTransitions(marketId)\n    atState(marketId, MarketState.open)\n  {\n    Market storage market = markets[marketId];\n\n    // Invariant check: make sure the stake is <= than user's stake\n    require(market.liquidityShares[msg.sender] >= shares);\n\n    // ETH to transfer to user from liquidity removal\n    uint256 value;\n\n    // claiming any pending fees\n    claimFees(marketId);\n\n    // removing liquidity tokens from market creator\n    market.liquidityShares[msg.sender] = market.liquidityShares[msg.sender].sub(shares);\n\n    // part of the liquidity is exchanged for outcome shares if not 50-50 market\n    // getting liquidity ratio\n    uint256 minShares = MAX_UINT_256;\n    uint256 minOutcomeId;\n\n    for (uint256 i = 0; i < market.outcomeIds.length; i++) {\n      uint256 outcomeId = market.outcomeIds[i];\n      MarketOutcome storage outcome = market.outcomes[outcomeId];\n\n      if (outcome.shares.available < minShares) {\n        minShares = outcome.shares.available;\n        minOutcomeId = outcomeId;\n      }\n    }\n\n    uint256 liquidityRatio = minShares.mul(shares).div(market.liquidity);\n\n    // re-balancing fees pool\n    rebalanceFeesPool(marketId, shares, MarketAction.removeLiquidity);\n\n    // equal outcome split, no need to buy shares\n    if (liquidityRatio == shares) {\n      // removing liquidity from market\n      market.balance = market.balance.sub(liquidityRatio);\n      market.liquidity = market.liquidity.sub(liquidityRatio);\n\n      for (uint256 i = 0; i < market.outcomeIds.length; i++) {\n        uint256 outcomeId = market.outcomeIds[i];\n        MarketOutcome storage outcome = market.outcomes[outcomeId];\n\n        outcome.shares.available = outcome.shares.available.sub(liquidityRatio);\n        outcome.shares.total = outcome.shares.total.sub(liquidityRatio);\n\n        market.sharesAvailable = market.sharesAvailable.sub(liquidityRatio);\n      }\n\n      value = shares;\n    } else {\n      // buying shares from the opposite markets\n      uint256 outcomeId = minOutcomeId == 0 ? 1 : 0;\n\n      // value received: Total Liquidity / Shares Outcome * Liquidity Removed\n      value = market.liquidity.mul(shares).div(market.outcomes[outcomeId].shares.available);\n\n      // removing liquidity from market (shares = value)\n      market.liquidity = market.liquidity.sub(shares);\n\n      buy(marketId, outcomeId, value, MarketAction.removeLiquidity);\n      // msg.sender.transfer(value);\n    }\n\n    // transferring user ETH from liquidity removed\n    msg.sender.transfer(value);\n\n    emit ParticipantAction(msg.sender, MarketAction.removeLiquidity, marketId, 0, shares, value, now);\n    emit MarketLiquidity(marketId, market.liquidity, getMarketLiquidityPrice(marketId), now);\n  }\n\n  /// Determine the result of the market\n  /// @dev Only allowed by oracle\n  /// @return Id of the outcome\n  function resolveMarketOutcome(uint256 marketId)\n    public\n    timeTransitions(marketId)\n    atState(marketId, MarketState.closed)\n    transitionNext(marketId)\n    returns (uint256)\n  {\n    Market storage market = markets[marketId];\n\n    RealitioERC20 realitio = RealitioERC20(realitioAddress);\n    // will throw an error if question is not finalized\n    uint256 outcomeId = uint256(realitio.resultFor(market.resolution.questionId));\n\n    MarketOutcome storage outcome = market.outcomes[outcomeId];\n\n    // TODO: process outcome\n\n    market.resolution.outcomeId = outcomeId;\n\n    emit MarketResolved(msg.sender, marketId, outcomeId, now);\n    // emitting 1 price event for winner outcome\n    emit MarketOutcomePrice(marketId, outcomeId, ONE, now);\n    // emitting 0 price event for loser outcome\n    emit MarketOutcomePrice(marketId, (outcomeId == 0 ? 1 : 0), 0, now);\n    // final liquidity price = outcome shares / liquidity shares\n    uint256 liquidityPrice = outcome.shares.available.mul(ONE).div(market.liquidity);\n    emit MarketLiquidity(marketId, market.liquidity, liquidityPrice, now);\n\n    return market.resolution.outcomeId;\n  }\n\n  /// Allowing holders of resolved outcome shares to claim earnings.\n  function claimWinnings(uint256 marketId) public atState(marketId, MarketState.resolved) {\n    Market storage market = markets[marketId];\n    MarketOutcome storage resolvedOutcome = market.outcomes[market.resolution.outcomeId];\n\n    require(resolvedOutcome.shares.holders[msg.sender] > 0, \"Participant does not hold resolved outcome shares\");\n    require(\n      resolvedOutcome.shares.claims[msg.sender] == false,\n      \"Participant already claimed resolved outcome winnings\"\n    );\n\n    // 1 share = 1 ETH\n    uint256 value = resolvedOutcome.shares.holders[msg.sender];\n\n    // assuring market has enough funds\n    require(market.balance >= value, \"Market does not have enough balance\");\n\n    market.balance = market.balance.sub(value);\n    resolvedOutcome.shares.claims[msg.sender] = true;\n\n    emit ParticipantAction(\n      msg.sender,\n      MarketAction.claimWinnings,\n      marketId,\n      market.resolution.outcomeId,\n      resolvedOutcome.shares.holders[msg.sender],\n      value,\n      now\n    );\n\n    msg.sender.transfer(value);\n  }\n\n  /// Allowing liquidity providers to claim earnings from liquidity providing.\n  function claimLiquidity(uint256 marketId) public atState(marketId, MarketState.resolved) {\n    Market storage market = markets[marketId];\n    MarketOutcome storage resolvedOutcome = market.outcomes[market.resolution.outcomeId];\n\n    // claiming any pending fees\n    claimFees(marketId);\n\n    require(market.liquidityShares[msg.sender] > 0, \"Participant does not hold liquidity shares\");\n    require(market.liquidityClaims[msg.sender] == false, \"Participant already claimed liquidity winnings\");\n\n    // value = total resolved outcome pool shares * pool share (%)\n    uint256 value = resolvedOutcome.shares.available.mul(getUserLiquidityPoolShare(marketId, msg.sender)).div(ONE);\n\n    // assuring market has enough funds\n    require(market.balance >= value, \"Market does not have enough balance\");\n\n    market.balance = market.balance.sub(value);\n    market.liquidityClaims[msg.sender] = true;\n\n    emit ParticipantAction(\n      msg.sender,\n      MarketAction.claimLiquidity,\n      marketId,\n      0,\n      market.liquidityShares[msg.sender],\n      value,\n      now\n    );\n\n    msg.sender.transfer(value);\n  }\n\n  function claimFees(uint256 marketId) public payable {\n    Market storage market = markets[marketId];\n\n    uint256 claimableFees = getUserClaimableFees(marketId, msg.sender);\n\n    if (claimableFees > 0) {\n      market.fees.claimed[msg.sender] = market.fees.claimed[msg.sender].add(claimableFees);\n      msg.sender.transfer(claimableFees);\n    }\n\n    emit ParticipantAction(\n      msg.sender,\n      MarketAction.claimFees,\n      marketId,\n      0,\n      market.liquidityShares[msg.sender],\n      claimableFees,\n      now\n    );\n  }\n\n  function addTransactionToFeesPool(uint256 marketId, uint256 value) internal returns (uint256) {\n    Market storage market = markets[marketId];\n    uint256 feeAmount = value.mul(market.fees.value) / ONE;\n\n    market.fees.poolWeight = market.fees.poolWeight.add(feeAmount);\n\n    // returning investment minus fees\n    return value.sub(feeAmount);\n  }\n\n  function rebalanceFeesPool(\n    uint256 marketId,\n    uint256 liquidityShares,\n    MarketAction action\n  ) internal returns (uint256) {\n    Market storage market = markets[marketId];\n\n    uint256 poolWeight = liquidityShares.mul(market.fees.poolWeight).div(market.liquidity);\n\n    if (action == MarketAction.addLiquidity) {\n      market.fees.poolWeight = market.fees.poolWeight.add(poolWeight);\n      market.fees.claimed[msg.sender] = market.fees.claimed[msg.sender].add(poolWeight);\n    } else {\n      market.fees.poolWeight = market.fees.poolWeight.sub(poolWeight);\n      market.fees.claimed[msg.sender] = market.fees.claimed[msg.sender].sub(poolWeight);\n    }\n  }\n\n  /// Internal function for advancing the market state.\n  function nextState(uint256 marketId) internal {\n    Market storage market = markets[marketId];\n    market.state = MarketState(uint256(market.state) + 1);\n  }\n\n  function emitMarketOutcomePriceEvents(uint256 marketId) internal {\n    Market storage market = markets[marketId];\n\n    for (uint256 i = 0; i < market.outcomeIds.length; i++) {\n      emit MarketOutcomePrice(marketId, i, getMarketOutcomePrice(marketId, i), now);\n    }\n\n    // liquidity shares also change value\n    emit MarketLiquidity(marketId, market.liquidity, getMarketLiquidityPrice(marketId), now);\n  }\n\n  // ------ Core Functions End ------\n\n  // ------ Governance Functions Start ------\n\n  function setFee(uint256 feeValue) public onlyOwner() {\n    fee = feeValue;\n  }\n\n  function setRealitioERC20(address addr) public onlyOwner() {\n    realitioAddress = addr;\n  }\n\n  function setRealitioTimeout(uint256 timeout) public onlyOwner() {\n    realitioTimeout = timeout;\n  }\n\n  // ------ Governance Functions End ------\n\n  // ------ Getters ------\n\n  function getUserMarketShares(uint256 marketId, address participant)\n    public\n    view\n    returns (\n      uint256,\n      uint256,\n      uint256\n    )\n  {\n    Market storage market = markets[marketId];\n\n    return (\n      market.liquidityShares[participant],\n      market.outcomes[0].shares.holders[participant],\n      market.outcomes[1].shares.holders[participant]\n    );\n  }\n\n  function getUserClaimStatus(uint256 marketId, address participant)\n    public\n    view\n    returns (\n      bool,\n      bool,\n      bool,\n      bool,\n      uint256\n    )\n  {\n    Market storage market = markets[marketId];\n\n    // market still not resolved\n    if (market.state != MarketState.resolved) {\n      return (false, false, false, false, getUserClaimableFees(marketId, participant));\n    }\n\n    MarketOutcome storage outcome = market.outcomes[market.resolution.outcomeId];\n\n    return (\n      outcome.shares.holders[participant] > 0,\n      outcome.shares.claims[participant],\n      market.liquidityShares[participant] > 0,\n      market.liquidityClaims[participant],\n      getUserClaimableFees(marketId, participant)\n    );\n  }\n\n  // @return % of liquidity pool stake\n  function getUserLiquidityPoolShare(uint256 marketId, address participant) public view returns (uint256) {\n    Market storage market = markets[marketId];\n\n    return market.liquidityShares[participant].mul(ONE).div(market.liquidity);\n  }\n\n  function getUserClaimableFees(uint256 marketId, address participant) public view returns (uint256) {\n    Market storage market = markets[marketId];\n\n    uint256 rawAmount = market.fees.poolWeight.mul(market.liquidityShares[participant]).div(market.liquidity);\n    return rawAmount.sub(market.fees.claimed[participant]);\n  }\n\n  /// Allow retrieving the the array of created contracts\n  /// @return An array of all created Market contracts\n  function getMarkets() public view returns (uint256[] memory) {\n    return marketIds;\n  }\n\n  function getMarketData(uint256 marketId)\n    public\n    view\n    returns (\n      string memory,\n      MarketState,\n      uint256,\n      uint256,\n      uint256,\n      uint256,\n      int256\n    )\n  {\n    Market storage market = markets[marketId];\n\n    return (\n      market.name,\n      market.state,\n      market.closedDateTime,\n      market.liquidity,\n      market.balance,\n      market.sharesAvailable,\n      getMarketResolvedOutcome(marketId)\n    );\n  }\n\n  function getMarketAltData(uint256 marketId) public view returns (uint256, bytes32) {\n    Market storage market = markets[marketId];\n\n    return (market.fees.value, market.resolution.questionId);\n  }\n\n  function getMarketQuestion(uint256 marketId) public view returns (bytes32) {\n    Market storage market = markets[marketId];\n\n    return (market.resolution.questionId);\n  }\n\n  function getMarketPrices(uint256 marketId)\n    public\n    view\n    returns (\n      uint256,\n      uint256,\n      uint256\n    )\n  {\n    return (getMarketLiquidityPrice(marketId), getMarketOutcomePrice(marketId, 0), getMarketOutcomePrice(marketId, 1));\n  }\n\n  function getMarketLiquidityPrice(uint256 marketId) public view returns (uint256) {\n    Market storage market = markets[marketId];\n\n    if (market.state == MarketState.resolved) {\n      // resolved market, price is either 0 or 1\n      // final liquidity price = outcome shares / liquidity shares\n      return market.outcomes[market.resolution.outcomeId].shares.available.mul(ONE).div(market.liquidity);\n    }\n\n    // liquidity price = # liquidity shares / # outcome shares * # outcomes\n    return market.liquidity.mul(ONE * market.outcomeIds.length).div(market.sharesAvailable);\n  }\n\n  function getMarketResolvedOutcome(uint256 marketId) public view returns (int256) {\n    Market storage market = markets[marketId];\n\n    // returning -1 if market still not resolved\n    if (market.state != MarketState.resolved) {\n      return -1;\n    }\n\n    return int256(market.resolution.outcomeId);\n  }\n\n  // ------ Outcome Getters ------\n\n  function getMarketOutcomeIds(uint256 marketId) public view returns (uint256[] memory) {\n    Market storage market = markets[marketId];\n    return market.outcomeIds;\n  }\n\n  function getMarketOutcomePrice(uint256 marketId, uint256 marketOutcomeId) public view returns (uint256) {\n    Market storage market = markets[marketId];\n    MarketOutcome storage outcome = market.outcomes[marketOutcomeId];\n\n    if (market.state == MarketState.resolved) {\n      // resolved market, price is either 0 or 1\n      return marketOutcomeId == market.resolution.outcomeId ? ONE : 0;\n    }\n\n    require(\n      outcome.shares.total >= outcome.shares.available,\n      \"Total shares has to be equal or higher than available shares\"\n    );\n    require(\n      market.sharesAvailable >= outcome.shares.available,\n      \"Total # available shares has to be equal or higher than outcome available shares\"\n    );\n\n    uint256 holders = market.sharesAvailable.sub(outcome.shares.available);\n\n    return holders.mul(ONE).div(market.sharesAvailable);\n  }\n\n  function getMarketOutcomeData(uint256 marketId, uint256 marketOutcomeId)\n    public\n    view\n    returns (\n      string memory,\n      uint256,\n      uint256,\n      uint256\n    )\n  {\n    Market storage market = markets[marketId];\n    MarketOutcome storage outcome = market.outcomes[marketOutcomeId];\n\n    return (\n      outcome.name,\n      getMarketOutcomePrice(marketId, marketOutcomeId),\n      outcome.shares.available,\n      outcome.shares.total\n    );\n  }\n}\n",
  "sourcePath": "/Users/ricardomarques/dev/workspace/polkamarkets/bepro-js/contracts/PredictionMarket.sol",
  "compiler": {
    "name": "solc",
    "version": "0.6.2+commit.bacdbe57.Emscripten.clang"
  },
  "schemaVersion": "3.3.4",
  "updatedAt": "2021-07-28T15:00:18.244Z",
  "devdoc": {
    "methods": {
      "createMarket(string,uint256,address,string[])": {
        "details": "The new Market contract is then saved in the array of this contract for future reference.",
        "params": {
          "closesAt": "- The duration of the market `open` period",
          "name": "- Name of the market",
          "oracle": "- oracle address"
        }
      },
      "owner()": {
        "details": "Returns the address of the current owner."
      },
      "renounceOwnership()": {
        "details": "Leaves the contract without owner. It will not be possible to call `onlyOwner` functions anymore. Can only be called by the current owner.     * NOTE: Renouncing ownership will leave the contract without an owner, thereby removing any functionality that is only available to the owner."
      },
      "resolveMarketOutcome(uint256)": {
        "details": "Only allowed by oracle",
        "returns": {
          "_0": "Id of the outcome"
        }
      },
      "transferOwnership(address)": {
        "details": "Transfers ownership of the contract to a new account (`newOwner`). Can only be called by the current owner."
      }
    },
    "title": "Market Contract Factory"
  },
  "userdoc": {
    "methods": {
      "claimLiquidity(uint256)": {
        "notice": "Allowing liquidity providers to claim earnings from liquidity providing."
      },
      "claimWinnings(uint256)": {
        "notice": "Allowing holders of resolved outcome shares to claim earnings."
      },
      "createMarket(string,uint256,address,string[])": {
        "notice": "Create a new Market contract"
      },
      "getMarkets()": {
        "notice": "Allow retrieving the the array of created contracts"
      },
      "resolveMarketOutcome(uint256)": {
        "notice": "Determine the result of the market"
      },
      "sell(uint256,uint256,uint256)": {
        "notice": "Sell shares of a market outcome"
      }
    }
  }
}