{
  "contractName": "PredictionMarket",
  "abi": [
    {
      "anonymous": false,
      "inputs": [
        {
          "indexed": true,
          "internalType": "address",
          "name": "participant",
          "type": "address"
        },
        {
          "indexed": true,
          "internalType": "uint256",
          "name": "marketId",
          "type": "uint256"
        },
        {
          "indexed": false,
          "internalType": "uint256",
          "name": "outcomes",
          "type": "uint256"
        },
        {
          "indexed": false,
          "internalType": "string",
          "name": "question",
          "type": "string"
        },
        {
          "indexed": false,
          "internalType": "string",
          "name": "image",
          "type": "string"
        }
      ],
      "name": "MarketCreated",
      "type": "event"
    },
    {
      "anonymous": false,
      "inputs": [
        {
          "indexed": true,
          "internalType": "uint256",
          "name": "marketId",
          "type": "uint256"
        },
        {
          "indexed": false,
          "internalType": "uint256",
          "name": "value",
          "type": "uint256"
        },
        {
          "indexed": false,
          "internalType": "uint256",
          "name": "price",
          "type": "uint256"
        },
        {
          "indexed": false,
          "internalType": "uint256",
          "name": "timestamp",
          "type": "uint256"
        }
      ],
      "name": "MarketLiquidity",
      "type": "event"
    },
    {
      "anonymous": false,
      "inputs": [
        {
          "indexed": true,
          "internalType": "uint256",
          "name": "marketId",
          "type": "uint256"
        },
        {
          "indexed": true,
          "internalType": "uint256",
          "name": "outcomeId",
          "type": "uint256"
        },
        {
          "indexed": false,
          "internalType": "uint256",
          "name": "value",
          "type": "uint256"
        },
        {
          "indexed": false,
          "internalType": "uint256",
          "name": "timestamp",
          "type": "uint256"
        }
      ],
      "name": "MarketOutcomePrice",
      "type": "event"
    },
    {
      "anonymous": false,
      "inputs": [
        {
          "indexed": true,
          "internalType": "address",
          "name": "oracle",
          "type": "address"
        },
        {
          "indexed": true,
          "internalType": "uint256",
          "name": "marketId",
          "type": "uint256"
        },
        {
          "indexed": false,
          "internalType": "uint256",
          "name": "outcomeId",
          "type": "uint256"
        },
        {
          "indexed": false,
          "internalType": "uint256",
          "name": "timestamp",
          "type": "uint256"
        }
      ],
      "name": "MarketResolved",
      "type": "event"
    },
    {
      "anonymous": false,
      "inputs": [
        {
          "indexed": true,
          "internalType": "address",
          "name": "previousOwner",
          "type": "address"
        },
        {
          "indexed": true,
          "internalType": "address",
          "name": "newOwner",
          "type": "address"
        }
      ],
      "name": "OwnershipTransferred",
      "type": "event"
    },
    {
      "anonymous": false,
      "inputs": [
        {
          "indexed": true,
          "internalType": "address",
          "name": "participant",
          "type": "address"
        },
        {
          "indexed": true,
          "internalType": "enum PredictionMarket.MarketAction",
          "name": "action",
          "type": "uint8"
        },
        {
          "indexed": true,
          "internalType": "uint256",
          "name": "marketId",
          "type": "uint256"
        },
        {
          "indexed": false,
          "internalType": "uint256",
          "name": "outcomeId",
          "type": "uint256"
        },
        {
          "indexed": false,
          "internalType": "uint256",
          "name": "shares",
          "type": "uint256"
        },
        {
          "indexed": false,
          "internalType": "uint256",
          "name": "value",
          "type": "uint256"
        },
        {
          "indexed": false,
          "internalType": "uint256",
          "name": "timestamp",
          "type": "uint256"
        }
      ],
      "name": "ParticipantAction",
      "type": "event"
    },
    {
      "inputs": [],
      "name": "MAX_UINT_256",
      "outputs": [
        {
          "internalType": "uint256",
          "name": "",
          "type": "uint256"
        }
      ],
      "stateMutability": "view",
      "type": "function"
    },
    {
      "inputs": [],
      "name": "ONE",
      "outputs": [
        {
          "internalType": "uint256",
          "name": "",
          "type": "uint256"
        }
      ],
      "stateMutability": "view",
      "type": "function"
    },
    {
      "inputs": [],
      "name": "fee",
      "outputs": [
        {
          "internalType": "uint256",
          "name": "",
          "type": "uint256"
        }
      ],
      "stateMutability": "view",
      "type": "function"
    },
    {
      "inputs": [],
      "name": "marketIndex",
      "outputs": [
        {
          "internalType": "uint256",
          "name": "",
          "type": "uint256"
        }
      ],
      "stateMutability": "view",
      "type": "function"
    },
    {
      "inputs": [],
      "name": "owner",
      "outputs": [
        {
          "internalType": "address",
          "name": "",
          "type": "address"
        }
      ],
      "stateMutability": "view",
      "type": "function"
    },
    {
      "inputs": [],
      "name": "realitioAddress",
      "outputs": [
        {
          "internalType": "address",
          "name": "",
          "type": "address"
        }
      ],
      "stateMutability": "view",
      "type": "function"
    },
    {
      "inputs": [],
      "name": "realitioTimeout",
      "outputs": [
        {
          "internalType": "uint256",
          "name": "",
          "type": "uint256"
        }
      ],
      "stateMutability": "view",
      "type": "function"
    },
    {
      "inputs": [],
      "name": "renounceOwnership",
      "outputs": [],
      "stateMutability": "nonpayable",
      "type": "function"
    },
    {
      "inputs": [],
      "name": "requiredBalance",
      "outputs": [
        {
          "internalType": "uint256",
          "name": "",
          "type": "uint256"
        }
      ],
      "stateMutability": "view",
      "type": "function"
    },
    {
      "inputs": [],
      "name": "token",
      "outputs": [
        {
          "internalType": "contract IERC20",
          "name": "",
          "type": "address"
        }
      ],
      "stateMutability": "view",
      "type": "function"
    },
    {
      "inputs": [
        {
          "internalType": "address",
          "name": "newOwner",
          "type": "address"
        }
      ],
      "name": "transferOwnership",
      "outputs": [],
      "stateMutability": "nonpayable",
      "type": "function"
    },
    {
      "inputs": [],
      "name": "initialize",
      "outputs": [],
      "stateMutability": "nonpayable",
      "type": "function"
    },
    {
      "inputs": [
        {
          "internalType": "string",
          "name": "question",
          "type": "string"
        },
        {
          "internalType": "string",
          "name": "image",
          "type": "string"
        },
        {
          "internalType": "uint256",
          "name": "closesAt",
          "type": "uint256"
        },
        {
          "internalType": "address",
          "name": "oracle",
          "type": "address"
        },
        {
          "internalType": "uint256",
          "name": "outcomes",
          "type": "uint256"
        }
      ],
      "name": "createMarket",
      "outputs": [
        {
          "internalType": "uint256",
          "name": "",
          "type": "uint256"
        }
      ],
      "stateMutability": "payable",
      "type": "function"
    },
    {
      "inputs": [
        {
          "internalType": "uint256",
          "name": "amount",
          "type": "uint256"
        },
        {
          "internalType": "uint256",
          "name": "marketId",
          "type": "uint256"
        },
        {
          "internalType": "uint256",
          "name": "outcomeId",
          "type": "uint256"
        }
      ],
      "name": "calcBuyAmount",
      "outputs": [
        {
          "internalType": "uint256",
          "name": "",
          "type": "uint256"
        }
      ],
      "stateMutability": "view",
      "type": "function"
    },
    {
      "inputs": [
        {
          "internalType": "uint256",
          "name": "amount",
          "type": "uint256"
        },
        {
          "internalType": "uint256",
          "name": "marketId",
          "type": "uint256"
        },
        {
          "internalType": "uint256",
          "name": "outcomeId",
          "type": "uint256"
        }
      ],
      "name": "calcSellAmount",
      "outputs": [
        {
          "internalType": "uint256",
          "name": "outcomeTokenSellAmount",
          "type": "uint256"
        }
      ],
      "stateMutability": "view",
      "type": "function"
    },
    {
      "inputs": [
        {
          "internalType": "uint256",
          "name": "marketId",
          "type": "uint256"
        },
        {
          "internalType": "uint256",
          "name": "outcomeId",
          "type": "uint256"
        }
      ],
      "name": "buy",
      "outputs": [],
      "stateMutability": "payable",
      "type": "function"
    },
    {
      "inputs": [
        {
          "internalType": "uint256",
          "name": "marketId",
          "type": "uint256"
        },
        {
          "internalType": "uint256",
          "name": "outcomeId",
          "type": "uint256"
        },
        {
          "internalType": "uint256",
          "name": "value",
          "type": "uint256"
        }
      ],
      "name": "sell",
      "outputs": [],
      "stateMutability": "payable",
      "type": "function"
    },
    {
      "inputs": [
        {
          "internalType": "uint256",
          "name": "marketId",
          "type": "uint256"
        }
      ],
      "name": "addLiquidity",
      "outputs": [],
      "stateMutability": "payable",
      "type": "function"
    },
    {
      "inputs": [
        {
          "internalType": "uint256",
          "name": "marketId",
          "type": "uint256"
        },
        {
          "internalType": "uint256",
          "name": "shares",
          "type": "uint256"
        }
      ],
      "name": "removeLiquidity",
      "outputs": [],
      "stateMutability": "payable",
      "type": "function"
    },
    {
      "inputs": [
        {
          "internalType": "uint256",
          "name": "marketId",
          "type": "uint256"
        }
      ],
      "name": "resolveMarketOutcome",
      "outputs": [
        {
          "internalType": "uint256",
          "name": "",
          "type": "uint256"
        }
      ],
      "stateMutability": "nonpayable",
      "type": "function"
    },
    {
      "inputs": [
        {
          "internalType": "uint256",
          "name": "marketId",
          "type": "uint256"
        }
      ],
      "name": "claimWinnings",
      "outputs": [],
      "stateMutability": "nonpayable",
      "type": "function"
    },
    {
      "inputs": [
        {
          "internalType": "uint256",
          "name": "marketId",
          "type": "uint256"
        }
      ],
      "name": "claimLiquidity",
      "outputs": [],
      "stateMutability": "nonpayable",
      "type": "function"
    },
    {
      "inputs": [
        {
          "internalType": "uint256",
          "name": "marketId",
          "type": "uint256"
        }
      ],
      "name": "claimFees",
      "outputs": [],
      "stateMutability": "payable",
      "type": "function"
    },
    {
      "inputs": [
        {
          "internalType": "uint256",
          "name": "_fee",
          "type": "uint256"
        }
      ],
      "name": "setFee",
      "outputs": [],
      "stateMutability": "nonpayable",
      "type": "function"
    },
    {
      "inputs": [
        {
          "internalType": "address",
          "name": "_address",
          "type": "address"
        }
      ],
      "name": "setRealitioERC20",
      "outputs": [],
      "stateMutability": "nonpayable",
      "type": "function"
    },
    {
      "inputs": [
        {
          "internalType": "uint256",
          "name": "timeout",
          "type": "uint256"
        }
      ],
      "name": "setRealitioTimeout",
      "outputs": [],
      "stateMutability": "nonpayable",
      "type": "function"
    },
    {
      "inputs": [
        {
          "internalType": "contract IERC20",
          "name": "_token",
          "type": "address"
        }
      ],
      "name": "setToken",
      "outputs": [],
      "stateMutability": "nonpayable",
      "type": "function"
    },
    {
      "inputs": [
        {
          "internalType": "uint256",
          "name": "_requiredBalance",
          "type": "uint256"
        }
      ],
      "name": "setRequiredBalance",
      "outputs": [],
      "stateMutability": "nonpayable",
      "type": "function"
    },
    {
      "inputs": [
        {
          "internalType": "uint256",
          "name": "marketId",
          "type": "uint256"
        },
        {
          "internalType": "address",
          "name": "participant",
          "type": "address"
        }
      ],
      "name": "getUserMarketShares",
      "outputs": [
        {
          "internalType": "uint256",
          "name": "",
          "type": "uint256"
        },
        {
          "internalType": "uint256",
          "name": "",
          "type": "uint256"
        },
        {
          "internalType": "uint256",
          "name": "",
          "type": "uint256"
        }
      ],
      "stateMutability": "view",
      "type": "function"
    },
    {
      "inputs": [
        {
          "internalType": "uint256",
          "name": "marketId",
          "type": "uint256"
        },
        {
          "internalType": "address",
          "name": "participant",
          "type": "address"
        }
      ],
      "name": "getUserClaimStatus",
      "outputs": [
        {
          "internalType": "bool",
          "name": "",
          "type": "bool"
        },
        {
          "internalType": "bool",
          "name": "",
          "type": "bool"
        },
        {
          "internalType": "bool",
          "name": "",
          "type": "bool"
        },
        {
          "internalType": "bool",
          "name": "",
          "type": "bool"
        },
        {
          "internalType": "uint256",
          "name": "",
          "type": "uint256"
        }
      ],
      "stateMutability": "view",
      "type": "function"
    },
    {
      "inputs": [
        {
          "internalType": "uint256",
          "name": "marketId",
          "type": "uint256"
        },
        {
          "internalType": "address",
          "name": "participant",
          "type": "address"
        }
      ],
      "name": "getUserLiquidityPoolShare",
      "outputs": [
        {
          "internalType": "uint256",
          "name": "",
          "type": "uint256"
        }
      ],
      "stateMutability": "view",
      "type": "function"
    },
    {
      "inputs": [
        {
          "internalType": "uint256",
          "name": "marketId",
          "type": "uint256"
        },
        {
          "internalType": "address",
          "name": "participant",
          "type": "address"
        }
      ],
      "name": "getUserClaimableFees",
      "outputs": [
        {
          "internalType": "uint256",
          "name": "",
          "type": "uint256"
        }
      ],
      "stateMutability": "view",
      "type": "function"
    },
    {
      "inputs": [],
      "name": "getMarkets",
      "outputs": [
        {
          "internalType": "uint256[]",
          "name": "",
          "type": "uint256[]"
        }
      ],
      "stateMutability": "view",
      "type": "function"
    },
    {
      "inputs": [
        {
          "internalType": "uint256",
          "name": "marketId",
          "type": "uint256"
        }
      ],
      "name": "getMarketData",
      "outputs": [
        {
          "internalType": "string",
          "name": "",
          "type": "string"
        },
        {
          "internalType": "enum PredictionMarket.MarketState",
          "name": "",
          "type": "uint8"
        },
        {
          "internalType": "uint256",
          "name": "",
          "type": "uint256"
        },
        {
          "internalType": "uint256",
          "name": "",
          "type": "uint256"
        },
        {
          "internalType": "uint256",
          "name": "",
          "type": "uint256"
        },
        {
          "internalType": "uint256",
          "name": "",
          "type": "uint256"
        },
        {
          "internalType": "int256",
          "name": "",
          "type": "int256"
        }
      ],
      "stateMutability": "view",
      "type": "function"
    },
    {
      "inputs": [
        {
          "internalType": "uint256",
          "name": "marketId",
          "type": "uint256"
        }
      ],
      "name": "getMarketAltData",
      "outputs": [
        {
          "internalType": "uint256",
          "name": "",
          "type": "uint256"
        },
        {
          "internalType": "bytes32",
          "name": "",
          "type": "bytes32"
        },
        {
          "internalType": "uint256",
          "name": "",
          "type": "uint256"
        }
      ],
      "stateMutability": "view",
      "type": "function"
    },
    {
      "inputs": [
        {
          "internalType": "uint256",
          "name": "marketId",
          "type": "uint256"
        }
      ],
      "name": "getMarketQuestion",
      "outputs": [
        {
          "internalType": "bytes32",
          "name": "",
          "type": "bytes32"
        }
      ],
      "stateMutability": "view",
      "type": "function"
    },
    {
      "inputs": [
        {
          "internalType": "uint256",
          "name": "marketId",
          "type": "uint256"
        }
      ],
      "name": "getMarketPrices",
      "outputs": [
        {
          "internalType": "uint256",
          "name": "",
          "type": "uint256"
        },
        {
          "internalType": "uint256",
          "name": "",
          "type": "uint256"
        },
        {
          "internalType": "uint256",
          "name": "",
          "type": "uint256"
        }
      ],
      "stateMutability": "view",
      "type": "function"
    },
    {
      "inputs": [
        {
          "internalType": "uint256",
          "name": "marketId",
          "type": "uint256"
        }
      ],
      "name": "getMarketLiquidityPrice",
      "outputs": [
        {
          "internalType": "uint256",
          "name": "",
          "type": "uint256"
        }
      ],
      "stateMutability": "view",
      "type": "function"
    },
    {
      "inputs": [
        {
          "internalType": "uint256",
          "name": "marketId",
          "type": "uint256"
        }
      ],
      "name": "getMarketResolvedOutcome",
      "outputs": [
        {
          "internalType": "int256",
          "name": "",
          "type": "int256"
        }
      ],
      "stateMutability": "view",
      "type": "function"
    },
    {
      "inputs": [
        {
          "internalType": "uint256",
          "name": "marketId",
          "type": "uint256"
        }
      ],
      "name": "getMarketOutcomeIds",
      "outputs": [
        {
          "internalType": "uint256[]",
          "name": "",
          "type": "uint256[]"
        }
      ],
      "stateMutability": "view",
      "type": "function"
    },
    {
      "inputs": [
        {
          "internalType": "uint256",
          "name": "marketId",
          "type": "uint256"
        },
        {
          "internalType": "uint256",
          "name": "marketOutcomeId",
          "type": "uint256"
        }
      ],
      "name": "getMarketOutcomePrice",
      "outputs": [
        {
          "internalType": "uint256",
          "name": "",
          "type": "uint256"
        }
      ],
      "stateMutability": "view",
      "type": "function"
    },
    {
      "inputs": [
        {
          "internalType": "uint256",
          "name": "marketId",
          "type": "uint256"
        },
        {
          "internalType": "uint256",
          "name": "marketOutcomeId",
          "type": "uint256"
        }
      ],
      "name": "getMarketOutcomeData",
      "outputs": [
        {
          "internalType": "string",
          "name": "",
          "type": "string"
        },
        {
          "internalType": "uint256",
          "name": "",
          "type": "uint256"
        },
        {
          "internalType": "uint256",
          "name": "",
          "type": "uint256"
        },
        {
          "internalType": "uint256",
          "name": "",
          "type": "uint256"
        }
      ],
      "stateMutability": "view",
      "type": "function"
    }
  ],
  "bytecode": "0x608060405234801561001057600080fd5b50613894806100206000396000f3fe6080604052600436106101e15760003560e01c806308560ace146101e6578063144fa6d7146102115780631d7920aa1461023357806328747a80146102625780632c2aa24e1461028257806331877a38146102b35780633d41a26b146102e05780633fe45e3b146102f5578063429c9dff1461030a5780634397c4ce1461032a57806351c6590a1461034a5780635e648eff1461035d578063677bd9ff1461037d57806369fe0e2d1461039d5780636f6e9f1e146103bd578063715018a6146103dd5780637b34e6e0146103f25780638129fc1c1461041457806385b91d8e146104295780638c7adc15146104495780638cd415521461045e5780638da5cb5b1461047e5780639d7de6b314610493578063aa22a02e146104a6578063ac68a748146104c6578063b31eb895146104d9578063bf455721146104f9578063bfacba3d14610519578063c2ee3a081461054c578063c346a9d014610561578063c8f70d0114610581578063d3c9727c146105a1578063d6febde8146105b4578063ddca3f43146105c7578063ec2c9016146105dc578063ede2e06e146105f1578063efbc47dc14610611578063efce431314610624578063f2fde38b14610654578063fc0c546a14610674578063fdff808514610689578063ffce3d5e146106a9575b600080fd5b3480156101f257600080fd5b506101fb6106c9565b60405161020891906130c3565b60405180910390f35b34801561021d57600080fd5b5061023161022c366004612eae565b6106cf565b005b34801561023f57600080fd5b5061025361024e366004612f66565b610739565b6040516102089392919061377e565b34801561026e57600080fd5b506101fb61027d366004612f66565b610758565b34801561028e57600080fd5b506102a261029d366004612f7e565b6109b3565b60405161020895949392919061309c565b3480156102bf57600080fd5b506102d36102ce366004612f66565b610a83565b6040516102089190613058565b3480156102ec57600080fd5b506101fb610aec565b34801561030157600080fd5b506101fb610af2565b34801561031657600080fd5b506101fb610325366004612fce565b610af8565b34801561033657600080fd5b506101fb610345366004612f66565b610c58565b610231610358366004612f66565b610c6d565b34801561036957600080fd5b50610231610378366004612f66565b610cf8565b34801561038957600080fd5b50610231610398366004612f66565b610eae565b3480156103a957600080fd5b506102316103b8366004612f66565b611002565b3480156103c957600080fd5b506102316103d8366004612f66565b611046565b3480156103e957600080fd5b5061023161108a565b3480156103fe57600080fd5b50610407611101565b6040516102089190613044565b34801561042057600080fd5b50610231611110565b34801561043557600080fd5b50610253610444366004612f66565b61119b565b34801561045557600080fd5b506101fb6111cc565b34801561046a57600080fd5b506101fb610479366004612fad565b6111d2565b34801561048a57600080fd5b506104076112cc565b6102316104a1366004612fad565b6112db565b3480156104b257600080fd5b506101fb6104c1366004612f7e565b61160a565b6102316104d4366004612f66565b61165d565b3480156104e557600080fd5b506102536104f4366004612f7e565b611726565b34801561050557600080fd5b506101fb610514366004612f66565b611784565b34801561052557600080fd5b50610539610534366004612f66565b6117c1565b6040516102089796959493929190613145565b34801561055857600080fd5b506101fb6118af565b34801561056d57600080fd5b506101fb61057c366004612fce565b6118bb565b34801561058d57600080fd5b506101fb61059c366004612f66565b6119eb565b6102316105af366004612fce565b611a8c565b6102316105c2366004612fad565b611c88565b3480156105d357600080fd5b506101fb611e1a565b3480156105e857600080fd5b506102d3611e20565b3480156105fd57600080fd5b5061023161060c366004612f66565b611e78565b6101fb61061f366004612ee2565b611ebc565b34801561063057600080fd5b5061064461063f366004612fad565b612189565b6040516102089493929190613194565b34801561066057600080fd5b5061023161066f366004612eae565b612267565b34801561068057600080fd5b50610407612316565b34801561069557600080fd5b506101fb6106a4366004612f7e565b612325565b3480156106b557600080fd5b506102316106c4366004612eae565b6123a7565b606c5481565b6106d7612408565b6001600160a01b03166106e86112cc565b6001600160a01b0316146107175760405162461bcd60e51b815260040161070e90613634565b60405180910390fd5b606b80546001600160a01b0319166001600160a01b0392909216919091179055565b6000908152606660205260409020600b810154600a9091015490918190565b600081815260666020526040812060010154829042118015610797575060008181526066602052604081206007015460ff16600281111561079557fe5b145b156107a5576107a58161240c565b8260018060008381526066602052604090206007015460ff1660028111156107c957fe5b146107d357600080fd5b600085815260666020526040808220606954600a820154925163684e62bf60e11b8152899492936001600160a01b039092169291839163d09cc57e9161081b916004016130c3565b60206040518083038186803b15801561083357600080fd5b505afa158015610847573d6000803e3d6000fd5b505050506040513d601f19601f8201168201806040525061086b9190810190612eca565b6000818152600f8501602052604090819020600986018390559051919250908a9033907f67a6457c8912ae1b7a9fbdfa311cbd016ba606b548bf06bc80bc751072d91bbc906108bd90869042906130cc565b60405180910390a3818a60008051602061383f833981519152670de0b6b3a7640000426040516108ee9291906130cc565b60405180910390a38115610903576000610906565b60015b60ff168a60008051602061383f83398151915260004260405161092a9291906130cc565b60405180910390a3600384015460048201546000916109679161095b90670de0b6b3a764000063ffffffff61245c16565b9063ffffffff61249616565b90508a6000805160206137df8339815191528660030154834260405161098f9392919061377e565b60405180910390a2505050506009015494506109aa8161240c565b50505050919050565b600082815260666020526040812081908190819081906002600782015460ff1660028111156109de57fe5b14610a03576000806000806109f38c8c612325565b9550955095509550955050610a79565b60098101546000908152600f8201602090815260408083206001600160a01b038b16845260058082018452828520546006808401865284872054928801865284872054908801909552929094205490939115159260ff928316929015159116610a6c8d8d612325565b9650965096509650965050505b9295509295909350565b600081815260666020908152604091829020600e810180548451818502810185019095528085526060949293830182828015610ade57602002820191906000526020600020905b815481526020019060010190808311610aca575b50505050509150505b919050565b60001981565b606a5481565b60008281526066602052604081206060610b11856124c8565b90506000610b51670de0b6b3a7640000610b3b85600b01600001548a61245c90919063ffffffff16565b81610b4257fe5b8991900463ffffffff61255b16565b90506000828681518110610b6157fe5b602002602001015190506000610b88670de0b6b3a76400008361245c90919063ffffffff16565b905060005b8451811015610bf357878114610beb576000858281518110610bab57fe5b60200260200101519050610be7610bcb868361258390919063ffffffff16565b610bdb858463ffffffff61245c16565b9063ffffffff6125a816565b9250505b600101610b8d565b5060008111610c145760405162461bcd60e51b815260040161070e906131c3565b610c4b610c2f82670de0b6b3a764000063ffffffff6125a816565b610c3f848663ffffffff61258316565b9063ffffffff61255b16565b9998505050505050505050565b6000908152606660205260409020600a015490565b600081815260666020526040902060010154819042118015610cac575060008181526066602052604081206007015460ff166002811115610caa57fe5b145b15610cba57610cba8161240c565b8160008060008381526066602052604090206007015460ff166002811115610cde57fe5b14610ce857600080fd5b610cf284346125c7565b50505050565b8060028060008381526066602052604090206007015460ff166002811115610d1c57fe5b14610d2657600080fd5b600083815260666020908152604080832060098101548452600f8101909252909120610d518561165d565b336000908152600583016020526040902054610d7f5760405162461bcd60e51b815260040161070e90613734565b33600090815260068301602052604090205460ff1615610db15760405162461bcd60e51b815260040161070e90613554565b6000610ddd670de0b6b3a764000061095b610dcc893361160a565b60048601549063ffffffff61245c16565b90508083600201541015610e035760405162461bcd60e51b815260040161070e90613347565b6002830154610e18908263ffffffff61255b16565b60028401553360009081526006840160205260409020805460ff1916600117905585600533600081815260058701602052604080822054905160008051602061381f83398151915292610e70929091889042906130da565b60405180910390a4604051339082156108fc029083906000818181858888f19350505050158015610ea5573d6000803e3d6000fd5b50505050505050565b8060028060008381526066602052604090206007015460ff166002811115610ed257fe5b14610edc57600080fd5b600083815260666020908152604080832060098101548452600f8101835281842033855260058101909352922054610f265760405162461bcd60e51b815260040161070e906135a2565b33600090815260068201602052604090205460ff1615610f585760405162461bcd60e51b815260040161070e90613669565b3360009081526005820160205260409020546002830154811115610f8e5760405162461bcd60e51b815260040161070e90613347565b6002830154610fa3908263ffffffff61255b16565b60028401553360009081526006830160205260409020805460ff19166001179055856004600985015433600081815260058701602052604090819020549051919260008051602061381f83398151915292610e709290889042906130da565b61100a612408565b6001600160a01b031661101b6112cc565b6001600160a01b0316146110415760405162461bcd60e51b815260040161070e90613634565b606855565b61104e612408565b6001600160a01b031661105f6112cc565b6001600160a01b0316146110855760405162461bcd60e51b815260040161070e90613634565b606c55565b611092612408565b6001600160a01b03166110a36112cc565b6001600160a01b0316146110c95760405162461bcd60e51b815260040161070e90613634565b6033546040516000916001600160a01b0316906000805160206137ff833981519152908390a3603380546001600160a01b0319169055565b6069546001600160a01b031681565b600054610100900460ff16806111295750611129612868565b80611137575060005460ff16155b6111535760405162461bcd60e51b815260040161070e90613479565b600054610100900460ff1615801561117e576000805460ff1961ff0019909116610100171660011790555b611186612879565b8015611198576000805461ff00191690555b50565b60008060006111a9846119eb565b6111b48560006111d2565b6111bf8660016111d2565b9250925092509193909250565b60675481565b6000828152606660209081526040808320848452600f810190925282206002600783015460ff16600281111561120457fe5b141561122f576009820154841461121c576000611226565b670de0b6b3a76400005b925050506112c6565b6004810154600382015410156112575760405162461bcd60e51b815260040161070e906132b4565b60048082015490830154101561127f5760405162461bcd60e51b815260040161070e906136be565b6004808201549083015460009161129c919063ffffffff61255b16565b60048401549091506112c09061095b83670de0b6b3a764000063ffffffff61245c16565b93505050505b92915050565b6033546001600160a01b031690565b60008281526066602052604090206001015482904211801561131a575060008181526066602052604081206007015460ff16600281111561131857fe5b145b15611328576113288161240c565b8260008060008381526066602052604090206007015460ff16600281111561134c57fe5b1461135657600080fd5b6000858152606660209081526040808320338452600581019092529091205485111561138157600080fd5b61138a8661165d565b611396868660036128f7565b5060606113a2876124c8565b9050606081516040519080825280602002602001820160405280156113d1578160200160208202803883390190505b50905060001960005b83518110156114105760008482815181106113f157fe5b6020026020010151905080831115611407578092505b506001016113da565b50600384015460009061142d9061095b8b8563ffffffff61245c16565b905060005b84518110156115075785600301546114668b87848151811061145057fe5b602002602001015161245c90919063ffffffff16565b8161146d57fe5b0484828151811061147a57fe5b6020026020010181815250506114ac8285838151811061149657fe5b602002602001015161255b90919063ffffffff16565b8482815181106114b857fe5b60200260200101818152505060008482815181106114d257fe5b602002602001015111156114ff576114ff338c838785815181106114f257fe5b60200260200101516129e7565b600101611432565b506115128a82612a86565b6003850154611527908a63ffffffff61255b16565b600386015533600090815260058601602052604090205461154e908a63ffffffff61255b16565b336000818152600588016020526040808220939093559151909183156108fc02918491818181858888f1935050505015801561158e573d6000803e3d6000fd5b50896003336001600160a01b031660008051602061381f83398151915260008d86426040516115c094939291906130da565b60405180910390a4896000805160206137df83398151915286600301546115e68d6119eb565b426040516115f69392919061377e565b60405180910390a250505050505050505050565b600082815260666020908152604080832060038101546001600160a01b0386168552600582019093529083205490916116559161095b90670de0b6b3a764000063ffffffff61245c16565b949350505050565b6000818152606660205260408120906116768333612325565b905080156116e257336000908152600d830160205260409020546116a0908263ffffffff61258316565b336000818152600d85016020526040808220939093559151909183156108fc02918491818181858888f193505050501580156116e0573d6000803e3d6000fd5b505b82600633600081815260058601602052604080822054905160008051602061381f83398151915292611719929091889042906130da565b60405180910390a4505050565b60008281526066602090815260408083206001600160a01b0385168085526005808301855283862054868052600f90930180865284872083885282018652848720546001885290865284872092875291019093529220549250925092565b60008181526066602052604081206002600782015460ff1660028111156117a757fe5b146117b757600019915050610ae7565b6009015492915050565b6000818152606660205260408120600781015460018201546003830154600284015460048501546060969586958695869586958695859460ff16939291906118088f611784565b8654604080516020601f6002600019610100600188161502019095169490940493840181900481028201810190925282815291899183018282801561188e5780601f106118635761010080835404028352916020019161188e565b820191906000526020600020905b81548152906001019060200180831161187157829003601f168201915b50505050509650975097509750975097509750975050919395979092949650565b670de0b6b3a764000081565b600082815260666020526040812060606118d4856124c8565b600b8301549091506000906118f890670de0b6b3a76400009063ffffffff61255b16565b61191088670de0b6b3a764000063ffffffff61245c16565b8161191757fe5b049050600082868151811061192857fe5b60200260200101519050600061194f670de0b6b3a76400008361245c90919063ffffffff16565b905060005b845181101561199e5787811461199657600085828151811061197257fe5b60200260200101519050611992610bcb868361255b90919063ffffffff16565b9250505b600101611954565b50600081116119bf5760405162461bcd60e51b815260040161070e906131c3565b610c4b82610c3f6119de84670de0b6b3a764000063ffffffff6125a816565b869063ffffffff61258316565b60008181526066602052604081206002600782015460ff166002811115611a0e57fe5b1415611a5757600381015460098201546000908152600f83016020526040902060040154611a4f919061095b90670de0b6b3a764000063ffffffff61245c16565b915050610ae7565b6004810154600e8201546003830154611a85929161095b9190670de0b6b3a76400000263ffffffff61245c16565b9392505050565b600083815260666020526040902060010154839042118015611acb575060008181526066602052604081206007015460ff166002811115611ac957fe5b145b15611ad957611ad98161240c565b8360008060008381526066602052604090206007015460ff166002811115611afd57fe5b14611b0757600080fd5b6000868152606660209081526040808320888452600f810190925282209091611b31878a8a6118bb565b336000908152600584016020526040902054909150811115611b5257600080fd5b6004820154600383015403811115611b6957600080fd5b611b75338a8a84612b29565b6000611b94606854670de0b6b3a764000061255b90919063ffffffff16565b600b850154611baa908a9063ffffffff61245c16565b81611bb157fe5b600c8601549190049150611bcb908263ffffffff61258316565b600c8501556000611be2898363ffffffff61258316565b905080471015611bf157600080fd5b8085600201541015611c0257600080fd5b611c0c8b82612a86565b60405133908a156108fc02908b906000818181858888f19350505050158015611c39573d6000803e3d6000fd5b508a6001336001600160a01b031660008051602061381f8339815191528d878e42604051611c6a94939291906130da565b60405180910390a4611c7b8b612bb8565b5050505050505050505050565b600082815260666020526040902060010154829042118015611cc7575060008181526066602052604081206007015460ff166002811115611cc557fe5b145b15611cd557611cd58161240c565b8260008060008381526066602052604090206007015460ff166002811115611cf957fe5b14611d0357600080fd5b6000858152606660205260408120903490611d1f828989610af8565b9050600080670de0b6b3a7640000611d4786600b01600001548661245c90919063ffffffff16565b81611d4e57fe5b600c8701549190049150611d68908263ffffffff61258316565b600c860155611d7d848263ffffffff61255b16565b60008a8152600f870160205260409020909250611d9a8b84612c49565b60008411611dba5760405162461bcd60e51b815260040161070e90613455565b6004810154841115611dde5760405162461bcd60e51b815260040161070e906133be565b611dea338c8c876129e7565b8a6000336001600160a01b031660008051602061381f8339815191528d888a42604051611c6a94939291906130da565b60685481565b60606065805480602002602001604051908101604052809291908181526020018280548015611e6e57602002820191906000526020600020905b815481526020019060010190808311611e5a575b5050505050905090565b611e80612408565b6001600160a01b0316611e916112cc565b6001600160a01b031614611eb75760405162461bcd60e51b815260040161070e90613634565b606a55565b606c54606b546040516370a0823160e01b8152600092916001600160a01b0316906370a0823190611ef1903390600401613044565b60206040518083038186803b158015611f0957600080fd5b505afa158015611f1d573d6000803e3d6000fd5b505050506040513d601f19601f82011682018060405250611f419190810190612eca565b1015611f5f5760405162461bcd60e51b815260040161070e9061340b565b60675460658054600181019091557f8ff97419363ffd7000167f130ef7168fbea05faf9251824ca5043f113cc6a7c701819055600081815260666020526040902034611fbd5760405162461bcd60e51b815260040161070e90613511565b42861015611fdd5760405162461bcd60e51b815260040161070e906134c7565b83600214611ffd5760405162461bcd60e51b815260040161070e906131f8565b6001810186905560078101805460ff191690556008810180546001600160a01b0319166001600160a01b038716179055606854600b820155600019600982015560005b8481101561208257600e820180546001818101835560009283526020808420909201849055838352600f85019091526040909120848155810182905501612040565b50606954606a5460405163d4876b9f60e01b81526001600160a01b0390921691829163d4876b9f916120c4916002918e918c918e9060009081906004016130f5565b602060405180830381600087803b1580156120de57600080fd5b505af11580156120f2573d6000803e3d6000fd5b505050506040513d601f19601f820116820180604052506121169190810190612eca565b600a83015561212583346125c7565b61212e83612bb8565b82336001600160a01b03167f928446b14f4c661d8499681f1d2eb118eb6e89066877a7d43e0672a27cc63a32878c8c60405161216c93929190613794565b60405180910390a350506067805460010190559695505050505050565b6000828152606660209081526040808320848452600f81019092528220606092918291829190600281016121bd89896111d2565b600483015460038401548354604080516020601f6002600019610100600188161502019095169490940493840181900481028201810190925282815291869183018282801561224d5780601f106122225761010080835404028352916020019161224d565b820191906000526020600020905b81548152906001019060200180831161223057829003601f168201915b505050505093509550955095509550505092959194509250565b61226f612408565b6001600160a01b03166122806112cc565b6001600160a01b0316146122a65760405162461bcd60e51b815260040161070e90613634565b6001600160a01b0381166122cc5760405162461bcd60e51b815260040161070e90613239565b6033546040516001600160a01b038084169216906000805160206137ff83398151915290600090a3603380546001600160a01b0319166001600160a01b0392909216919091179055565b606b546001600160a01b031681565b600082815260666020908152604080832060038101546001600160a01b03861685526005820190935290832054600c8201549192849261236f9261095b919063ffffffff61245c16565b6001600160a01b0385166000908152600d8401602052604090205490915061239e90829063ffffffff61255b16565b95945050505050565b6123af612408565b6001600160a01b03166123c06112cc565b6001600160a01b0316146123e65760405162461bcd60e51b815260040161070e90613634565b606980546001600160a01b0319166001600160a01b0392909216919091179055565b3390565b6000818152606660205260409020600781015460ff16600281111561242d57fe5b600101600281111561243b57fe5b60078201805460ff1916600183600281111561245357fe5b02179055505050565b60008261246b575060006112c6565b8282028284828161247857fe5b0414611a855760405162461bcd60e51b815260040161070e906135f3565b60008082116124b75760405162461bcd60e51b815260040161070e9061338a565b8183816124c057fe5b049392505050565b600081815260666020908152604091829020600e8101548351818152818402810190930190935260609290918391801561250c578160200160208202803883390190505b50905060005b600e830154811015612553576000818152600f84016020526040902060040154825183908390811061254057fe5b6020908102919091010152600101612512565b509392505050565b60008282111561257d5760405162461bcd60e51b815260040161070e90613310565b50900390565b600082820183811015611a855760405162461bcd60e51b815260040161070e9061327f565b600082156124b7578160018403816125bc57fe5b0460010190506112c6565b600082815260666020526040902060010154829042118015612606575060008181526066602052604081206007015460ff16600281111561260457fe5b145b15612614576126148161240c565b8260008060008381526066602052604090206007015460ff16600281111561263857fe5b1461264257600080fd5b60008581526066602052604090208461266d5760405162461bcd60e51b815260040161070e90613511565b6000606061267a886124c8565b9050606081516040519080825280602002602001820160405280156126a9578160200160208202803883390190505b506003850154909150600090156127985760005b83518110156126f35760008482815181106126d457fe5b60200260200101519050808310156126ea578092505b506001016126bd565b5060005b83518110156127635760008261272986848151811061271257fe5b60200260200101518d61245c90919063ffffffff16565b8161273057fe5b0490506127438b8263ffffffff61255b16565b84838151811061274f57fe5b6020908102919091010152506001016126f7565b508061277c86600301548b61245c90919063ffffffff16565b8161278357fe5b0493506127928a8560026128f7565b5061279c565b8893505b60038501546127b1908563ffffffff61258316565b60038601553360009081526005860160205260409020546127d8908563ffffffff61258316565b3360009081526005870160205260409020556127f48a8a612c49565b60005b825181101561283657600083828151811061280e57fe5b6020026020010151111561282e5761282e338c838685815181106114f257fe5b6001016127f7565b50896002336001600160a01b031660008051602061381f8339815191526000888e426040516115c094939291906130da565b600061287330612ce2565b15905090565b600054610100900460ff16806128925750612892612868565b806128a0575060005460ff16155b6128bc5760405162461bcd60e51b815260040161070e90613479565b600054610100900460ff161580156128e7576000805460ff1961ff0019909116610100171660011790555b6128ef612ce8565b611186612d69565b60008381526066602052604081206003810154600c82015483916129269161095b90889063ffffffff61245c16565b9050600284600681111561293657fe5b141561298f57600c820154612951908263ffffffff61258316565b600c830155336000908152600d83016020526040902054612978908263ffffffff61258316565b336000908152600d840160205260409020556129de565b600c8201546129a4908263ffffffff61255b16565b600c830155336000908152600d830160205260409020546129cb908263ffffffff61255b16565b336000908152600d840160205260409020555b50509392505050565b6000838152606660209081526040808320858452600f810183528184206001600160a01b038916855260058101909352922054612a2a908463ffffffff61258316565b6001600160a01b03871660009081526005830160205260409020556004810154612a5a908463ffffffff61255b16565b600480830191909155820154612a76908463ffffffff61255b16565b8260040181905550505050505050565b6000828152606660205260408120905b600e820154811015612b09576000818152600f8301602052604090206004810154612ac7908563ffffffff61255b16565b60048201556003810154612ae1908563ffffffff61255b16565b60038201556004830154612afb908563ffffffff61255b16565b600484015550600101612a96565b506002810154612b1f908363ffffffff61255b16565b6002909101555050565b6000838152606660209081526040808320858452600f810183528184206001600160a01b038916855260058101909352922054612b6c908463ffffffff61255b16565b6001600160a01b03871660009081526005830160205260409020556004810154612b9c908463ffffffff61258316565b600480830191909155820154612a76908463ffffffff61258316565b6000818152606660205260408120905b600e820154811015612c0e57808360008051602061383f833981519152612bef86856111d2565b42604051612bfe9291906130cc565b60405180910390a3600101612bc8565b50816000805160206137df8339815191528260030154612c2d856119eb565b42604051612c3d9392919061377e565b60405180910390a25050565b6000828152606660205260408120905b600e820154811015612ccc576000818152600f8301602052604090206004810154612c8a908563ffffffff61258316565b60048201556003810154612ca4908563ffffffff61258316565b60038201556004830154612cbe908563ffffffff61258316565b600484015550600101612c59565b506002810154612b1f908363ffffffff61258316565b3b151590565b600054610100900460ff1680612d015750612d01612868565b80612d0f575060005460ff16155b612d2b5760405162461bcd60e51b815260040161070e90613479565b600054610100900460ff16158015611186576000805460ff1961ff0019909116610100171660011790558015611198576000805461ff001916905550565b600054610100900460ff1680612d825750612d82612868565b80612d90575060005460ff16155b612dac5760405162461bcd60e51b815260040161070e90613479565b600054610100900460ff16158015612dd7576000805460ff1961ff0019909116610100171660011790555b6000612de1612408565b603380546001600160a01b0319166001600160a01b038316908117909155604051919250906000906000805160206137ff833981519152908290a3508015611198576000805461ff001916905550565b600082601f830112612e41578081fd5b81356001600160401b0380821115612e57578283fd5b604051601f8301601f191681016020018281118282101715612e77578485fd5b604052828152925082848301602001861015612e9257600080fd5b8260208601602083013760006020848301015250505092915050565b600060208284031215612ebf578081fd5b8135611a85816137c9565b600060208284031215612edb578081fd5b5051919050565b600080600080600060a08688031215612ef9578081fd5b85356001600160401b0380821115612f0f578283fd5b612f1b89838a01612e31565b96506020880135915080821115612f30578283fd5b50612f3d88828901612e31565b945050604086013592506060860135612f55816137c9565b949793965091946080013592915050565b600060208284031215612f77578081fd5b5035919050565b60008060408385031215612f90578182fd5b823591506020830135612fa2816137c9565b809150509250929050565b60008060408385031215612fbf578182fd5b50508035926020909101359150565b600080600060608486031215612fe2578283fd5b505081359360208301359350604090920135919050565b60008151808452815b8181101561301e57602081850181015186830182015201613002565b8181111561302f5782602083870101525b50601f01601f19169290920160200192915050565b6001600160a01b0391909116815260200190565b6020808252825182820181905260009190848201906040850190845b8181101561309057835183529284019291840191600101613074565b50909695505050505050565b94151585529215156020850152901515604084015215156060830152608082015260a00190565b90815260200190565b918252602082015260400190565b93845260208401929092526040830152606082015260800190565b600088825260e0602083015261310e60e0830189612ff9565b6001600160a01b039790971660408301525063ffffffff948516606082015292909316608083015260a082015260c0015292915050565b600060e0825261315860e083018a612ff9565b90506003881061316457fe5b8760208301528660408301528560608301528460808301528360a08301528260c083015298975050505050505050565b6000608082526131a76080830187612ff9565b6020830195909552506040810192909252606090910152919050565b6020808252601b908201527a6d7573742068617665206e6f6e2d7a65726f2062616c616e63657360281b604082015260600190565b60208082526021908201527f4e756d626572206d61726b6574206f7574636f6d652068617320746f206265206040820152601960f91b606082015260800190565b60208082526026908201527f4f776e61626c653a206e6577206f776e657220697320746865207a65726f206160408201526564647265737360d01b606082015260800190565b6020808252601b908201527a536166654d6174683a206164646974696f6e206f766572666c6f7760281b604082015260600190565b6020808252603c908201527f546f74616c207368617265732068617320746f20626520657175616c206f722060408201527b686967686572207468616e20617661696c61626c652073686172657360201b606082015260800190565b6020808252601e908201527f536166654d6174683a207375627472616374696f6e206f766572666c6f770000604082015260600190565b60208082526023908201527f4d61726b657420646f6573206e6f74206861766520656e6f7567682062616c616040820152626e636560e81b606082015260800190565b6020808252601a9082015279536166654d6174683a206469766973696f6e206279207a65726f60301b604082015260600190565b6020808252602d908201527f43616e277420627579206d6f726520736861726573207468616e20746865206f60408201526c6e657320617661696c61626c6560981b606082015260800190565b6020808252602a908201527f6d73672e73656e646572206d75737420686f6c64206d696e696d756d2065726360408201526932302062616c616e636560b01b606082015260800190565b6020808252600a9082015269043616e277420626520360b41b604082015260600190565b6020808252602e908201527f496e697469616c697a61626c653a20636f6e747261637420697320616c72656160408201526d191e481a5b9a5d1a585b1a5e995960921b606082015260800190565b6020808252602a908201527f4d61726b65742068617320746f20636c6f7365206166746572207468652063756040820152697272656e74206461746560b01b606082015260800190565b60208082526023908201527f546865207374616b652068617320746f2062652067726561746572207468616e60408201526210181760e91b606082015260800190565b6020808252602e908201527f5061727469636970616e7420616c726561647920636c61696d6564206c69717560408201526d69646974792077696e6e696e677360901b606082015260800190565b60208082526031908201527f5061727469636970616e7420646f6573206e6f7420686f6c64207265736f6c766040820152706564206f7574636f6d652073686172657360781b606082015260800190565b60208082526021908201527f536166654d6174683a206d756c7469706c69636174696f6e206f766572666c6f6040820152607760f81b606082015260800190565b6020808252818101527f4f776e61626c653a2063616c6c6572206973206e6f7420746865206f776e6572604082015260600190565b60208082526035908201527f5061727469636970616e7420616c726561647920636c61696d6564207265736f6040820152746c766564206f7574636f6d652077696e6e696e677360581b606082015260800190565b60208082526050908201527f546f74616c202320617661696c61626c65207368617265732068617320746f2060408201527f626520657175616c206f7220686967686572207468616e206f7574636f6d652060608201526f617661696c61626c652073686172657360801b608082015260a00190565b6020808252602a908201527f5061727469636970616e7420646f6573206e6f7420686f6c64206c69717569646040820152696974792073686172657360b01b606082015260800190565b9283526020830191909152604082015260600190565b6000848252606060208301526137ad6060830185612ff9565b82810360408401526137bf8185612ff9565b9695505050505050565b6001600160a01b038116811461119857600080fdfe1eca98f266e5348ae38d5d057a4d8e451e76672f69ac6ba4b0e3b31ea9c7eb2b8be0079c531659141344cd1fd0a4f28419497f9722a3daafe3b4186f6b6457e0f234ce8a0f255434ef7d62a699a746ee45ac4452531081e609f1556d27faf12c8270f0a0534b13b7f92d1dbd58aa75c5207b40c55fefa7a17110c6136ad7270ba2646970667358221220931403dc13334c18e466cc0c024236c2a3d9d8edbcc7753650c99995b259141964736f6c63430006020033",
  "source": "pragma solidity ^0.6.0;\npragma experimental ABIEncoderV2;\n\nimport \"./RealitioERC20.sol\";\n\n// openzeppelin imports\nimport \"@openzeppelin/contracts/math/SafeMath.sol\";\nimport \"@openzeppelin/contracts-upgradeable/access/OwnableUpgradeable.sol\";\n\nlibrary CeilDiv {\n  // calculates ceil(x/y)\n  function ceildiv(uint256 x, uint256 y) internal pure returns (uint256) {\n    if (x > 0) return ((x - 1) / y) + 1;\n    return x / y;\n  }\n}\n\n/// @title Market Contract Factory\ncontract PredictionMarket is Initializable, OwnableUpgradeable {\n  using SafeMath for uint256;\n  using CeilDiv for uint256;\n\n  // ------ Events ------\n\n  event MarketCreated(\n    address indexed participant,\n    uint256 indexed marketId,\n    uint256 outcomes,\n    string question,\n    string image\n  );\n\n  event ParticipantAction(\n    address indexed participant,\n    MarketAction indexed action,\n    uint256 indexed marketId,\n    uint256 outcomeId,\n    uint256 shares,\n    uint256 value,\n    uint256 timestamp\n  );\n\n  event MarketOutcomePrice(uint256 indexed marketId, uint256 indexed outcomeId, uint256 value, uint256 timestamp);\n\n  event MarketLiquidity(\n    uint256 indexed marketId,\n    uint256 value, // total liquidity (ETH)\n    uint256 price, // value of 1 liquidity share; max: 1 ETH (50-50 situation)\n    uint256 timestamp\n  );\n\n  event MarketResolved(address indexed oracle, uint256 indexed marketId, uint256 outcomeId, uint256 timestamp);\n\n  // ------ Events End ------\n\n  uint256 public constant MAX_UINT_256 = 115792089237316195423570985008687907853269984665640564039457584007913129639935;\n\n  uint256 public constant ONE = 10**18;\n\n  enum MarketState {\n    open,\n    closed,\n    resolved\n  }\n  enum MarketAction {\n    buy,\n    sell,\n    addLiquidity,\n    removeLiquidity,\n    claimWinnings,\n    claimLiquidity,\n    claimFees\n  }\n\n  struct Market {\n    // market details\n    string name; // TODO remove: deprecated;\n    uint256 closedDateTime;\n    uint256 balance; // total stake (ETH)\n    uint256 liquidity; // stake held (ETH)\n    uint256 sharesAvailable; // shares held (all outcomes)\n    mapping(address => uint256) liquidityShares;\n    mapping(address => bool) liquidityClaims; // wether participant has claimed liquidity winnings\n    MarketState state; // resolution variables\n    MarketResolution resolution; // fees\n    MarketFees fees;\n    // market outcomes\n    uint256[] outcomeIds;\n    mapping(uint256 => MarketOutcome) outcomes;\n  }\n\n  struct MarketFees {\n    uint256 value; // fee % taken from every transaction\n    uint256 poolWeight; // internal var used to ensure pro-rate fee distribution\n    mapping(address => uint256) claimed;\n  }\n\n  struct MarketResolution {\n    address oracle; // TODO remove: deprecated;\n    bool resolved;\n    uint256 outcomeId;\n    bytes32 questionId; // realitio questionId\n  }\n\n  struct MarketOutcome {\n    uint256 marketId;\n    uint256 id;\n    string name; // TODO remove: deprecated;\n    Shares shares;\n  }\n\n  struct Shares {\n    uint256 total; // number of shares\n    uint256 available; // available shares\n    mapping(address => uint256) holders;\n    mapping(address => bool) claims; // wether participant has claimed winnings\n  }\n\n  uint256[] marketIds;\n  mapping(uint256 => Market) markets;\n  uint256 public marketIndex;\n\n  // governance\n  uint256 public fee; // fee % taken from every transaction, can be updated by contract owner\n  // realitio configs\n  address public realitioAddress;\n  uint256 public realitioTimeout;\n  // market creation\n  IERC20 public token; // token used for rewards / market creation\n  uint256 public requiredBalance; // required balance for market creation\n\n  // ------ Modifiers ------\n\n  modifier isMarket(uint256 marketId) {\n    require(marketId < marketIndex);\n    _;\n  }\n\n  modifier timeTransitions(uint256 marketId) {\n    if (now > markets[marketId].closedDateTime && markets[marketId].state == MarketState.open) {\n      nextState(marketId);\n    }\n    _;\n  }\n\n  modifier atState(uint256 marketId, MarketState state) {\n    require(markets[marketId].state == state);\n    _;\n  }\n\n  modifier notAtState(uint256 marketId, MarketState state) {\n    require(markets[marketId].state != state);\n    _;\n  }\n\n  modifier transitionNext(uint256 marketId) {\n    _;\n    nextState(marketId);\n  }\n\n  modifier mustHoldRequiredBalance() {\n    require(token.balanceOf(msg.sender) >= requiredBalance, \"msg.sender must hold minimum erc20 balance\");\n    _;\n  }\n\n  // ------ Modifiers End ------\n\n  // Initializer function (replaces constructor)\n  function initialize() public initializer {\n    __Ownable_init();\n  }\n\n  // ------ Core Functions ------\n\n  /// Create a new Market contract\n  /// @dev The new Market contract is then saved in the array of this contract for future reference.\n  /// @param question - Market details: https://reality.eth.link/app/docs/html/contracts.html#how-questions-are-structured\n  /// @param image - image ipfs hash\n  /// @param closesAt - Timestamp of market expiration\n  /// @param oracle - Artbitrator address\n  /// @param outcomes - Number of outcomes\n  function createMarket(\n    string memory question,\n    string memory image,\n    uint256 closesAt,\n    address oracle,\n    uint256 outcomes\n  ) public payable mustHoldRequiredBalance() returns (uint256) {\n    uint256 marketId = marketIndex;\n    marketIds.push(marketId);\n\n    Market storage market = markets[marketId];\n\n    require(msg.value > 0, \"The stake has to be greater than 0.\");\n    require(closesAt >= now, \"Market has to close after the current date\");\n    require(oracle == address(oracle), \"Invalid oracle address\");\n    // starting with secondary markets\n    require(outcomes == 2, \"Number market outcome has to be 2\");\n\n    market.closedDateTime = closesAt;\n    market.state = MarketState.open;\n    market.resolution.oracle = oracle;\n    market.fees.value = fee;\n    // setting intial value to an integer that does not map to any outcomeId\n    market.resolution.outcomeId = MAX_UINT_256;\n\n    // creating market outcomes\n    for (uint256 i = 0; i < outcomes; i++) {\n      market.outcomeIds.push(i);\n      MarketOutcome storage outcome = market.outcomes[i];\n\n      outcome.marketId = marketId;\n      outcome.id = i;\n    }\n\n    // creating question in realitio\n    RealitioERC20 realitio = RealitioERC20(realitioAddress);\n\n    market.resolution.questionId = realitio.askQuestionERC20(\n      2,\n      question,\n      oracle,\n      uint32(realitioTimeout),\n      uint32(closesAt),\n      0,\n      0\n    );\n\n    // TODO: allow unbalanced (!50-50) start\n    addLiquidity(marketId, msg.value);\n\n    // emiting initial price events\n    emitMarketOutcomePriceEvents(marketId);\n    emit MarketCreated(msg.sender, marketId, outcomes, question, image);\n\n    // incrementing market array index\n    marketIndex = marketIndex + 1;\n\n    return marketId;\n  }\n\n  function calcBuyAmount(\n    uint256 amount,\n    uint256 marketId,\n    uint256 outcomeId\n  ) public view returns (uint256) {\n    Market storage market = markets[marketId];\n\n    uint256[] memory outcomesShares = getMarketOutcomesShares(marketId);\n    uint256 amountMinusFees = amount.sub(amount.mul(market.fees.value) / ONE);\n    uint256 buyTokenPoolBalance = outcomesShares[outcomeId];\n    uint256 endingOutcomeBalance = buyTokenPoolBalance.mul(ONE);\n    for (uint256 i = 0; i < outcomesShares.length; i++) {\n      if (i != outcomeId) {\n        uint256 outcomeShares = outcomesShares[i];\n        endingOutcomeBalance = endingOutcomeBalance.mul(outcomeShares).ceildiv(outcomeShares.add(amountMinusFees));\n      }\n    }\n    require(endingOutcomeBalance > 0, \"must have non-zero balances\");\n\n    return buyTokenPoolBalance.add(amountMinusFees).sub(endingOutcomeBalance.ceildiv(ONE));\n  }\n\n  function calcSellAmount(\n    uint256 amount,\n    uint256 marketId,\n    uint256 outcomeId\n  ) public view returns (uint256 outcomeTokenSellAmount) {\n    Market storage market = markets[marketId];\n\n    uint256[] memory outcomesShares = getMarketOutcomesShares(marketId);\n    uint256 amountPlusFees = amount.mul(ONE) / ONE.sub(market.fees.value);\n    uint256 sellTokenPoolBalance = outcomesShares[outcomeId];\n    uint256 endingOutcomeBalance = sellTokenPoolBalance.mul(ONE);\n    for (uint256 i = 0; i < outcomesShares.length; i++) {\n      if (i != outcomeId) {\n        uint256 outcomeShares = outcomesShares[i];\n        endingOutcomeBalance = endingOutcomeBalance.mul(outcomeShares).ceildiv(outcomeShares.sub(amountPlusFees));\n      }\n    }\n    require(endingOutcomeBalance > 0, \"must have non-zero balances\");\n\n    return amountPlusFees.add(endingOutcomeBalance.ceildiv(ONE)).sub(sellTokenPoolBalance);\n  }\n\n  /// Buy shares of a market outcome\n  function buy(uint256 marketId, uint256 outcomeId)\n    external\n    payable\n    timeTransitions(marketId)\n    atState(marketId, MarketState.open)\n  {\n    Market storage market = markets[marketId];\n\n    uint256 value = msg.value;\n    // TODO: verify value vs shares amount\n    uint256 shares = calcBuyAmount(value, marketId, outcomeId);\n    uint256 valueMinusFees;\n\n    // subtracting fee from transaction value\n    uint256 feeAmount = value.mul(market.fees.value) / ONE;\n    market.fees.poolWeight = market.fees.poolWeight.add(feeAmount);\n    valueMinusFees = value.sub(feeAmount);\n\n    MarketOutcome storage outcome = market.outcomes[outcomeId];\n\n    // Funding market shares with received ETH\n    addSharesToMarket(marketId, valueMinusFees);\n\n    require(shares > 0, \"Can't be 0\");\n    require(outcome.shares.available >= shares, \"Can't buy more shares than the ones available\");\n\n    transferOutcomeSharesfromPool(msg.sender, marketId, outcomeId, shares);\n\n    emit ParticipantAction(msg.sender, MarketAction.buy, marketId, outcomeId, shares, value, now);\n    emitMarketOutcomePriceEvents(marketId);\n  }\n\n  /// Sell shares of a market outcome\n  function sell(\n    uint256 marketId,\n    uint256 outcomeId,\n    uint256 value\n  ) external payable timeTransitions(marketId) atState(marketId, MarketState.open) {\n    Market storage market = markets[marketId];\n    MarketOutcome storage outcome = market.outcomes[outcomeId];\n\n    // TODO: verify value vs shares amount\n    uint256 shares = calcSellAmount(value, marketId, outcomeId);\n\n    // Invariant check: make sure the stake is <= than user's stake\n    require(outcome.shares.holders[msg.sender] >= shares);\n\n    // Invariant check: make sure the market's stake is smaller than the stake\n    require((outcome.shares.total - outcome.shares.available) >= shares);\n\n    transferOutcomeSharesToPool(msg.sender, marketId, outcomeId, shares);\n\n    // adding fee to transaction value\n    uint256 feeAmount = value.mul(market.fees.value) / (ONE.sub(fee));\n    market.fees.poolWeight = market.fees.poolWeight.add(feeAmount);\n    uint256 valuePlusFees = value.add(feeAmount);\n\n    // Invariant check: make sure the contract has enough balance to be withdrawn from.\n    require(address(this).balance >= valuePlusFees);\n    require(market.balance >= valuePlusFees);\n\n    // Rebalancing market shares\n    removeSharesFromMarket(marketId, valuePlusFees);\n\n    // Transferring funds to user\n    msg.sender.transfer(value);\n\n    emit ParticipantAction(msg.sender, MarketAction.sell, marketId, outcomeId, shares, value, now);\n    emitMarketOutcomePriceEvents(marketId);\n  }\n\n  function addLiquidity(uint256 marketId)\n    external\n    payable\n    timeTransitions(marketId)\n    atState(marketId, MarketState.open)\n  {\n    addLiquidity(marketId, msg.value);\n  }\n\n  function addLiquidity(uint256 marketId, uint256 value)\n    private\n    timeTransitions(marketId)\n    atState(marketId, MarketState.open)\n  {\n    Market storage market = markets[marketId];\n\n    require(value > 0, \"The stake has to be greater than 0.\");\n\n    uint256 liquidityAmount;\n\n    uint256[] memory outcomesShares = getMarketOutcomesShares(marketId);\n    uint256[] memory sendBackAmounts = new uint256[](outcomesShares.length);\n    uint256 poolWeight = 0;\n\n    if (market.liquidity > 0) {\n      // part of the liquidity is exchanged for outcome shares if market is not balanced\n      for (uint256 i = 0; i < outcomesShares.length; i++) {\n        uint256 outcomeShares = outcomesShares[i];\n        if (poolWeight < outcomeShares) poolWeight = outcomeShares;\n      }\n\n      for (uint256 i = 0; i < outcomesShares.length; i++) {\n        uint256 remaining = value.mul(outcomesShares[i]) / poolWeight;\n        sendBackAmounts[i] = value.sub(remaining);\n      }\n\n      liquidityAmount = value.mul(market.liquidity) / poolWeight;\n\n      // re-balancing fees pool\n      rebalanceFeesPool(marketId, liquidityAmount, MarketAction.addLiquidity);\n    } else {\n      // funding market with no liquidity\n      liquidityAmount = value;\n\n      // TODO: allow unbalanced (!50-50) start\n    }\n\n    // funding market\n    market.liquidity = market.liquidity.add(liquidityAmount);\n    market.liquidityShares[msg.sender] = market.liquidityShares[msg.sender].add(liquidityAmount);\n\n    addSharesToMarket(marketId, value);\n\n    // transform sendBackAmounts to array of amounts added\n    for (uint256 i = 0; i < sendBackAmounts.length; i++) {\n      if (sendBackAmounts[i] > 0) {\n        transferOutcomeSharesfromPool(msg.sender, marketId, i, sendBackAmounts[i]);\n        // TODO: buy event\n      }\n    }\n\n    emit ParticipantAction(msg.sender, MarketAction.addLiquidity, marketId, 0, liquidityAmount, value, now);\n    emit MarketLiquidity(marketId, market.liquidity, getMarketLiquidityPrice(marketId), now);\n  }\n\n  function removeLiquidity(uint256 marketId, uint256 shares)\n    external\n    payable\n    timeTransitions(marketId)\n    atState(marketId, MarketState.open)\n  {\n    Market storage market = markets[marketId];\n\n    // Invariant check: make sure the stake is <= than user's stake\n    require(market.liquidityShares[msg.sender] >= shares);\n    // claiming any pending fees\n    claimFees(marketId);\n\n    // re-balancing fees pool\n    rebalanceFeesPool(marketId, shares, MarketAction.removeLiquidity);\n\n    uint256[] memory outcomesShares = getMarketOutcomesShares(marketId);\n    uint256[] memory sendAmounts = new uint256[](outcomesShares.length);\n    uint256 poolWeight = MAX_UINT_256;\n\n    // part of the liquidity is exchanged for outcome shares if market is not balanced\n    for (uint256 i = 0; i < outcomesShares.length; i++) {\n      uint256 outcomeShares = outcomesShares[i];\n      if (poolWeight > outcomeShares) poolWeight = outcomeShares;\n    }\n\n    uint256 liquidityAmount = shares.mul(poolWeight).div(market.liquidity);\n\n    for (uint256 i = 0; i < outcomesShares.length; i++) {\n      sendAmounts[i] = outcomesShares[i].mul(shares) / market.liquidity;\n      sendAmounts[i] = sendAmounts[i].sub(liquidityAmount);\n\n      if (sendAmounts[i] > 0) {\n        transferOutcomeSharesfromPool(msg.sender, marketId, i, sendAmounts[i]);\n        // TODO: buy event\n      }\n    }\n\n    // removing liquidity from market\n    removeSharesFromMarket(marketId, liquidityAmount);\n    market.liquidity = market.liquidity.sub(shares);\n    // removing liquidity tokens from market creator\n    market.liquidityShares[msg.sender] = market.liquidityShares[msg.sender].sub(shares);\n\n    // transferring user ETH from liquidity removed\n    msg.sender.transfer(liquidityAmount);\n\n    emit ParticipantAction(msg.sender, MarketAction.removeLiquidity, marketId, 0, shares, liquidityAmount, now);\n    emit MarketLiquidity(marketId, market.liquidity, getMarketLiquidityPrice(marketId), now);\n  }\n\n  /// Determine the result of the market\n  /// @dev Only allowed by oracle\n  /// @return Id of the outcome\n  function resolveMarketOutcome(uint256 marketId)\n    public\n    timeTransitions(marketId)\n    atState(marketId, MarketState.closed)\n    transitionNext(marketId)\n    returns (uint256)\n  {\n    Market storage market = markets[marketId];\n\n    RealitioERC20 realitio = RealitioERC20(realitioAddress);\n    // will throw an error if question is not finalized\n    uint256 outcomeId = uint256(realitio.resultFor(market.resolution.questionId));\n\n    MarketOutcome storage outcome = market.outcomes[outcomeId];\n\n    // TODO: process outcome\n\n    market.resolution.outcomeId = outcomeId;\n\n    emit MarketResolved(msg.sender, marketId, outcomeId, now);\n    // emitting 1 price event for winner outcome\n    emit MarketOutcomePrice(marketId, outcomeId, ONE, now);\n    // emitting 0 price event for loser outcome\n    emit MarketOutcomePrice(marketId, (outcomeId == 0 ? 1 : 0), 0, now);\n    // final liquidity price = outcome shares / liquidity shares\n    uint256 liquidityPrice = outcome.shares.available.mul(ONE).div(market.liquidity);\n    emit MarketLiquidity(marketId, market.liquidity, liquidityPrice, now);\n\n    return market.resolution.outcomeId;\n  }\n\n  /// Allowing holders of resolved outcome shares to claim earnings.\n  function claimWinnings(uint256 marketId) public atState(marketId, MarketState.resolved) {\n    Market storage market = markets[marketId];\n    MarketOutcome storage resolvedOutcome = market.outcomes[market.resolution.outcomeId];\n\n    require(resolvedOutcome.shares.holders[msg.sender] > 0, \"Participant does not hold resolved outcome shares\");\n    require(\n      resolvedOutcome.shares.claims[msg.sender] == false,\n      \"Participant already claimed resolved outcome winnings\"\n    );\n\n    // 1 share = 1 ETH\n    uint256 value = resolvedOutcome.shares.holders[msg.sender];\n\n    // assuring market has enough funds\n    require(market.balance >= value, \"Market does not have enough balance\");\n\n    market.balance = market.balance.sub(value);\n    resolvedOutcome.shares.claims[msg.sender] = true;\n\n    emit ParticipantAction(\n      msg.sender,\n      MarketAction.claimWinnings,\n      marketId,\n      market.resolution.outcomeId,\n      resolvedOutcome.shares.holders[msg.sender],\n      value,\n      now\n    );\n\n    msg.sender.transfer(value);\n  }\n\n  /// Allowing liquidity providers to claim earnings from liquidity providing.\n  function claimLiquidity(uint256 marketId) public atState(marketId, MarketState.resolved) {\n    Market storage market = markets[marketId];\n    MarketOutcome storage resolvedOutcome = market.outcomes[market.resolution.outcomeId];\n\n    // claiming any pending fees\n    claimFees(marketId);\n\n    require(market.liquidityShares[msg.sender] > 0, \"Participant does not hold liquidity shares\");\n    require(market.liquidityClaims[msg.sender] == false, \"Participant already claimed liquidity winnings\");\n\n    // value = total resolved outcome pool shares * pool share (%)\n    uint256 value = resolvedOutcome.shares.available.mul(getUserLiquidityPoolShare(marketId, msg.sender)).div(ONE);\n\n    // assuring market has enough funds\n    require(market.balance >= value, \"Market does not have enough balance\");\n\n    market.balance = market.balance.sub(value);\n    market.liquidityClaims[msg.sender] = true;\n\n    emit ParticipantAction(\n      msg.sender,\n      MarketAction.claimLiquidity,\n      marketId,\n      0,\n      market.liquidityShares[msg.sender],\n      value,\n      now\n    );\n\n    msg.sender.transfer(value);\n  }\n\n  function claimFees(uint256 marketId) public payable {\n    Market storage market = markets[marketId];\n\n    uint256 claimableFees = getUserClaimableFees(marketId, msg.sender);\n\n    if (claimableFees > 0) {\n      market.fees.claimed[msg.sender] = market.fees.claimed[msg.sender].add(claimableFees);\n      msg.sender.transfer(claimableFees);\n    }\n\n    emit ParticipantAction(\n      msg.sender,\n      MarketAction.claimFees,\n      marketId,\n      0,\n      market.liquidityShares[msg.sender],\n      claimableFees,\n      now\n    );\n  }\n\n  function rebalanceFeesPool(\n    uint256 marketId,\n    uint256 liquidityShares,\n    MarketAction action\n  ) private returns (uint256) {\n    Market storage market = markets[marketId];\n\n    uint256 poolWeight = liquidityShares.mul(market.fees.poolWeight).div(market.liquidity);\n\n    if (action == MarketAction.addLiquidity) {\n      market.fees.poolWeight = market.fees.poolWeight.add(poolWeight);\n      market.fees.claimed[msg.sender] = market.fees.claimed[msg.sender].add(poolWeight);\n    } else {\n      market.fees.poolWeight = market.fees.poolWeight.sub(poolWeight);\n      market.fees.claimed[msg.sender] = market.fees.claimed[msg.sender].sub(poolWeight);\n    }\n  }\n\n  /// Internal function for advancing the market state.\n  function nextState(uint256 marketId) private {\n    Market storage market = markets[marketId];\n    market.state = MarketState(uint256(market.state) + 1);\n  }\n\n  function emitMarketOutcomePriceEvents(uint256 marketId) private {\n    Market storage market = markets[marketId];\n\n    for (uint256 i = 0; i < market.outcomeIds.length; i++) {\n      emit MarketOutcomePrice(marketId, i, getMarketOutcomePrice(marketId, i), now);\n    }\n\n    // liquidity shares also change value\n    emit MarketLiquidity(marketId, market.liquidity, getMarketLiquidityPrice(marketId), now);\n  }\n\n  function addSharesToMarket(uint256 marketId, uint256 shares) private {\n    Market storage market = markets[marketId];\n\n    for (uint256 i = 0; i < market.outcomeIds.length; i++) {\n      MarketOutcome storage outcome = market.outcomes[i];\n\n      outcome.shares.available = outcome.shares.available.add(shares);\n      outcome.shares.total = outcome.shares.total.add(shares);\n\n      // only adding to market total shares, the available remains\n      market.sharesAvailable = market.sharesAvailable.add(shares);\n    }\n\n    market.balance = market.balance.add(shares);\n  }\n\n  function removeSharesFromMarket(uint256 marketId, uint256 shares) private {\n    Market storage market = markets[marketId];\n\n    for (uint256 i = 0; i < market.outcomeIds.length; i++) {\n      MarketOutcome storage outcome = market.outcomes[i];\n\n      outcome.shares.available = outcome.shares.available.sub(shares);\n      outcome.shares.total = outcome.shares.total.sub(shares);\n\n      // only subtracting from market total shares, the available remains\n      market.sharesAvailable = market.sharesAvailable.sub(shares);\n    }\n\n    market.balance = market.balance.sub(shares);\n  }\n\n  function transferOutcomeSharesfromPool(\n    address user,\n    uint256 marketId,\n    uint256 outcomeId,\n    uint256 shares\n  ) private {\n    Market storage market = markets[marketId];\n    MarketOutcome storage outcome = market.outcomes[outcomeId];\n\n    // transfering shares from shares pool to user\n    outcome.shares.holders[user] = outcome.shares.holders[user].add(shares);\n    outcome.shares.available = outcome.shares.available.sub(shares);\n    market.sharesAvailable = market.sharesAvailable.sub(shares);\n  }\n\n  function transferOutcomeSharesToPool(\n    address user,\n    uint256 marketId,\n    uint256 outcomeId,\n    uint256 shares\n  ) private {\n    Market storage market = markets[marketId];\n    MarketOutcome storage outcome = market.outcomes[outcomeId];\n\n    // adding shares back to pool\n    outcome.shares.holders[user] = outcome.shares.holders[user].sub(shares);\n    outcome.shares.available = outcome.shares.available.add(shares);\n    market.sharesAvailable = market.sharesAvailable.add(shares);\n  }\n\n  // ------ Core Functions End ------\n\n  // ------ Governance Functions Start ------\n\n  function setFee(uint256 _fee) public onlyOwner() {\n    fee = _fee;\n  }\n\n  function setRealitioERC20(address _address) public onlyOwner() {\n    realitioAddress = _address;\n  }\n\n  function setRealitioTimeout(uint256 timeout) public onlyOwner() {\n    realitioTimeout = timeout;\n  }\n\n  function setToken(IERC20 _token) public onlyOwner() {\n    token = _token;\n  }\n\n  function setRequiredBalance(uint256 _requiredBalance) public onlyOwner() {\n    requiredBalance = _requiredBalance;\n  }\n\n  // ------ Governance Functions End ------\n\n  // ------ Getters ------\n\n  function getUserMarketShares(uint256 marketId, address participant)\n    public\n    view\n    returns (\n      uint256,\n      uint256,\n      uint256\n    )\n  {\n    Market storage market = markets[marketId];\n\n    return (\n      market.liquidityShares[participant],\n      market.outcomes[0].shares.holders[participant],\n      market.outcomes[1].shares.holders[participant]\n    );\n  }\n\n  function getUserClaimStatus(uint256 marketId, address participant)\n    public\n    view\n    returns (\n      bool,\n      bool,\n      bool,\n      bool,\n      uint256\n    )\n  {\n    Market storage market = markets[marketId];\n\n    // market still not resolved\n    if (market.state != MarketState.resolved) {\n      return (false, false, false, false, getUserClaimableFees(marketId, participant));\n    }\n\n    MarketOutcome storage outcome = market.outcomes[market.resolution.outcomeId];\n\n    return (\n      outcome.shares.holders[participant] > 0,\n      outcome.shares.claims[participant],\n      market.liquidityShares[participant] > 0,\n      market.liquidityClaims[participant],\n      getUserClaimableFees(marketId, participant)\n    );\n  }\n\n  // @return % of liquidity pool stake\n  function getUserLiquidityPoolShare(uint256 marketId, address participant) public view returns (uint256) {\n    Market storage market = markets[marketId];\n\n    return market.liquidityShares[participant].mul(ONE).div(market.liquidity);\n  }\n\n  function getUserClaimableFees(uint256 marketId, address participant) public view returns (uint256) {\n    Market storage market = markets[marketId];\n\n    uint256 rawAmount = market.fees.poolWeight.mul(market.liquidityShares[participant]).div(market.liquidity);\n    return rawAmount.sub(market.fees.claimed[participant]);\n  }\n\n  /// Allow retrieving the the array of created contracts\n  /// @return An array of all created Market contracts\n  function getMarkets() public view returns (uint256[] memory) {\n    return marketIds;\n  }\n\n  function getMarketData(uint256 marketId)\n    public\n    view\n    returns (\n      string memory,\n      MarketState,\n      uint256,\n      uint256,\n      uint256,\n      uint256,\n      int256\n    )\n  {\n    Market storage market = markets[marketId];\n\n    return (\n      market.name,\n      market.state,\n      market.closedDateTime,\n      market.liquidity,\n      market.balance,\n      market.sharesAvailable,\n      getMarketResolvedOutcome(marketId)\n    );\n  }\n\n  function getMarketAltData(uint256 marketId)\n    public\n    view\n    returns (\n      uint256,\n      bytes32,\n      uint256\n    )\n  {\n    Market storage market = markets[marketId];\n\n    return (market.fees.value, market.resolution.questionId, uint256(market.resolution.questionId));\n  }\n\n  function getMarketQuestion(uint256 marketId) public view returns (bytes32) {\n    Market storage market = markets[marketId];\n\n    return (market.resolution.questionId);\n  }\n\n  function getMarketPrices(uint256 marketId)\n    public\n    view\n    returns (\n      uint256,\n      uint256,\n      uint256\n    )\n  {\n    return (getMarketLiquidityPrice(marketId), getMarketOutcomePrice(marketId, 0), getMarketOutcomePrice(marketId, 1));\n  }\n\n  function getMarketLiquidityPrice(uint256 marketId) public view returns (uint256) {\n    Market storage market = markets[marketId];\n\n    if (market.state == MarketState.resolved) {\n      // resolved market, price is either 0 or 1\n      // final liquidity price = outcome shares / liquidity shares\n      return market.outcomes[market.resolution.outcomeId].shares.available.mul(ONE).div(market.liquidity);\n    }\n\n    // liquidity price = # liquidity shares / # outcome shares * # outcomes\n    return market.liquidity.mul(ONE * market.outcomeIds.length).div(market.sharesAvailable);\n  }\n\n  function getMarketResolvedOutcome(uint256 marketId) public view returns (int256) {\n    Market storage market = markets[marketId];\n\n    // returning -1 if market still not resolved\n    if (market.state != MarketState.resolved) {\n      return -1;\n    }\n\n    return int256(market.resolution.outcomeId);\n  }\n\n  // ------ Outcome Getters ------\n\n  function getMarketOutcomeIds(uint256 marketId) public view returns (uint256[] memory) {\n    Market storage market = markets[marketId];\n    return market.outcomeIds;\n  }\n\n  function getMarketOutcomePrice(uint256 marketId, uint256 marketOutcomeId) public view returns (uint256) {\n    Market storage market = markets[marketId];\n    MarketOutcome storage outcome = market.outcomes[marketOutcomeId];\n\n    if (market.state == MarketState.resolved) {\n      // resolved market, price is either 0 or 1\n      return marketOutcomeId == market.resolution.outcomeId ? ONE : 0;\n    }\n\n    require(\n      outcome.shares.total >= outcome.shares.available,\n      \"Total shares has to be equal or higher than available shares\"\n    );\n    require(\n      market.sharesAvailable >= outcome.shares.available,\n      \"Total # available shares has to be equal or higher than outcome available shares\"\n    );\n\n    uint256 holders = market.sharesAvailable.sub(outcome.shares.available);\n\n    return holders.mul(ONE).div(market.sharesAvailable);\n  }\n\n  function getMarketOutcomeData(uint256 marketId, uint256 marketOutcomeId)\n    public\n    view\n    returns (\n      string memory,\n      uint256,\n      uint256,\n      uint256\n    )\n  {\n    Market storage market = markets[marketId];\n    MarketOutcome storage outcome = market.outcomes[marketOutcomeId];\n\n    return (\n      outcome.name,\n      getMarketOutcomePrice(marketId, marketOutcomeId),\n      outcome.shares.available,\n      outcome.shares.total\n    );\n  }\n\n  function getMarketOutcomesShares(uint256 marketId) private view returns (uint256[] memory) {\n    Market storage market = markets[marketId];\n\n    uint256[] memory shares = new uint256[](market.outcomeIds.length);\n    for (uint256 i = 0; i < market.outcomeIds.length; i++) {\n      shares[i] = market.outcomes[i].shares.available;\n    }\n\n    return shares;\n  }\n}\n",
  "sourcePath": "/Users/ricardomarques/dev/workspace/polkamarkets/bepro-js/contracts/PredictionMarket.sol",
  "compiler": {
    "name": "solc",
    "version": "0.6.2+commit.bacdbe57.Emscripten.clang"
  },
  "schemaVersion": "3.3.4",
  "updatedAt": "2021-09-09T13:02:45.238Z",
  "devdoc": {
    "methods": {
      "createMarket(string,string,uint256,address,uint256)": {
        "details": "The new Market contract is then saved in the array of this contract for future reference.",
        "params": {
          "closesAt": "- Timestamp of market expiration",
          "image": "- image ipfs hash",
          "oracle": "- Artbitrator address",
          "outcomes": "- Number of outcomes",
          "question": "- Market details: https://reality.eth.link/app/docs/html/contracts.html#how-questions-are-structured"
        }
      },
      "owner()": {
        "details": "Returns the address of the current owner."
      },
      "renounceOwnership()": {
        "details": "Leaves the contract without owner. It will not be possible to call `onlyOwner` functions anymore. Can only be called by the current owner.     * NOTE: Renouncing ownership will leave the contract without an owner, thereby removing any functionality that is only available to the owner."
      },
      "resolveMarketOutcome(uint256)": {
        "details": "Only allowed by oracle",
        "returns": {
          "_0": "Id of the outcome"
        }
      },
      "transferOwnership(address)": {
        "details": "Transfers ownership of the contract to a new account (`newOwner`). Can only be called by the current owner."
      }
    },
    "title": "Market Contract Factory"
  },
  "userdoc": {
    "methods": {
      "buy(uint256,uint256)": {
        "notice": "Buy shares of a market outcome"
      },
      "claimLiquidity(uint256)": {
        "notice": "Allowing liquidity providers to claim earnings from liquidity providing."
      },
      "claimWinnings(uint256)": {
        "notice": "Allowing holders of resolved outcome shares to claim earnings."
      },
      "createMarket(string,string,uint256,address,uint256)": {
        "notice": "Create a new Market contract"
      },
      "getMarkets()": {
        "notice": "Allow retrieving the the array of created contracts"
      },
      "resolveMarketOutcome(uint256)": {
        "notice": "Determine the result of the market"
      },
      "sell(uint256,uint256,uint256)": {
        "notice": "Sell shares of a market outcome"
      }
    }
  }
}