{
  "contractName": "PredictionMarket",
  "abi": [
    {
      "anonymous": false,
      "inputs": [
        {
          "indexed": true,
          "internalType": "address",
          "name": "participant",
          "type": "address"
        },
        {
          "indexed": true,
          "internalType": "uint256",
          "name": "marketId",
          "type": "uint256"
        },
        {
          "indexed": false,
          "internalType": "uint256",
          "name": "outcomes",
          "type": "uint256"
        },
        {
          "indexed": false,
          "internalType": "string",
          "name": "question",
          "type": "string"
        }
      ],
      "name": "MarketCreated",
      "type": "event"
    },
    {
      "anonymous": false,
      "inputs": [
        {
          "indexed": true,
          "internalType": "uint256",
          "name": "marketId",
          "type": "uint256"
        },
        {
          "indexed": false,
          "internalType": "uint256",
          "name": "value",
          "type": "uint256"
        },
        {
          "indexed": false,
          "internalType": "uint256",
          "name": "price",
          "type": "uint256"
        },
        {
          "indexed": false,
          "internalType": "uint256",
          "name": "timestamp",
          "type": "uint256"
        }
      ],
      "name": "MarketLiquidity",
      "type": "event"
    },
    {
      "anonymous": false,
      "inputs": [
        {
          "indexed": true,
          "internalType": "uint256",
          "name": "marketId",
          "type": "uint256"
        },
        {
          "indexed": true,
          "internalType": "uint256",
          "name": "outcomeId",
          "type": "uint256"
        },
        {
          "indexed": false,
          "internalType": "uint256",
          "name": "value",
          "type": "uint256"
        },
        {
          "indexed": false,
          "internalType": "uint256",
          "name": "timestamp",
          "type": "uint256"
        }
      ],
      "name": "MarketOutcomePrice",
      "type": "event"
    },
    {
      "anonymous": false,
      "inputs": [
        {
          "indexed": true,
          "internalType": "address",
          "name": "oracle",
          "type": "address"
        },
        {
          "indexed": true,
          "internalType": "uint256",
          "name": "marketId",
          "type": "uint256"
        },
        {
          "indexed": false,
          "internalType": "uint256",
          "name": "outcomeId",
          "type": "uint256"
        },
        {
          "indexed": false,
          "internalType": "uint256",
          "name": "timestamp",
          "type": "uint256"
        }
      ],
      "name": "MarketResolved",
      "type": "event"
    },
    {
      "anonymous": false,
      "inputs": [
        {
          "indexed": true,
          "internalType": "address",
          "name": "previousOwner",
          "type": "address"
        },
        {
          "indexed": true,
          "internalType": "address",
          "name": "newOwner",
          "type": "address"
        }
      ],
      "name": "OwnershipTransferred",
      "type": "event"
    },
    {
      "anonymous": false,
      "inputs": [
        {
          "indexed": true,
          "internalType": "address",
          "name": "participant",
          "type": "address"
        },
        {
          "indexed": true,
          "internalType": "enum PredictionMarket.MarketAction",
          "name": "action",
          "type": "uint8"
        },
        {
          "indexed": true,
          "internalType": "uint256",
          "name": "marketId",
          "type": "uint256"
        },
        {
          "indexed": false,
          "internalType": "uint256",
          "name": "outcomeId",
          "type": "uint256"
        },
        {
          "indexed": false,
          "internalType": "uint256",
          "name": "shares",
          "type": "uint256"
        },
        {
          "indexed": false,
          "internalType": "uint256",
          "name": "value",
          "type": "uint256"
        },
        {
          "indexed": false,
          "internalType": "uint256",
          "name": "timestamp",
          "type": "uint256"
        }
      ],
      "name": "ParticipantAction",
      "type": "event"
    },
    {
      "inputs": [],
      "name": "MAX_UINT_256",
      "outputs": [
        {
          "internalType": "uint256",
          "name": "",
          "type": "uint256"
        }
      ],
      "stateMutability": "view",
      "type": "function",
      "constant": true
    },
    {
      "inputs": [],
      "name": "ONE",
      "outputs": [
        {
          "internalType": "uint256",
          "name": "",
          "type": "uint256"
        }
      ],
      "stateMutability": "view",
      "type": "function",
      "constant": true
    },
    {
      "inputs": [],
      "name": "fee",
      "outputs": [
        {
          "internalType": "uint256",
          "name": "",
          "type": "uint256"
        }
      ],
      "stateMutability": "view",
      "type": "function",
      "constant": true
    },
    {
      "inputs": [],
      "name": "marketIndex",
      "outputs": [
        {
          "internalType": "uint256",
          "name": "",
          "type": "uint256"
        }
      ],
      "stateMutability": "view",
      "type": "function",
      "constant": true
    },
    {
      "inputs": [],
      "name": "owner",
      "outputs": [
        {
          "internalType": "address",
          "name": "",
          "type": "address"
        }
      ],
      "stateMutability": "view",
      "type": "function",
      "constant": true
    },
    {
      "inputs": [],
      "name": "realitioAddress",
      "outputs": [
        {
          "internalType": "address",
          "name": "",
          "type": "address"
        }
      ],
      "stateMutability": "view",
      "type": "function",
      "constant": true
    },
    {
      "inputs": [],
      "name": "realitioTimeout",
      "outputs": [
        {
          "internalType": "uint256",
          "name": "",
          "type": "uint256"
        }
      ],
      "stateMutability": "view",
      "type": "function",
      "constant": true
    },
    {
      "inputs": [],
      "name": "renounceOwnership",
      "outputs": [],
      "stateMutability": "nonpayable",
      "type": "function"
    },
    {
      "inputs": [
        {
          "internalType": "address",
          "name": "newOwner",
          "type": "address"
        }
      ],
      "name": "transferOwnership",
      "outputs": [],
      "stateMutability": "nonpayable",
      "type": "function"
    },
    {
      "inputs": [],
      "name": "initialize",
      "outputs": [],
      "stateMutability": "nonpayable",
      "type": "function"
    },
    {
      "inputs": [
        {
          "internalType": "string",
          "name": "question",
          "type": "string"
        },
        {
          "internalType": "uint256",
          "name": "closesAt",
          "type": "uint256"
        },
        {
          "internalType": "address",
          "name": "oracle",
          "type": "address"
        },
        {
          "internalType": "uint256",
          "name": "outcomes",
          "type": "uint256"
        }
      ],
      "name": "createMarket",
      "outputs": [
        {
          "internalType": "uint256",
          "name": "",
          "type": "uint256"
        }
      ],
      "stateMutability": "payable",
      "type": "function",
      "payable": true
    },
    {
      "inputs": [
        {
          "internalType": "uint256",
          "name": "marketId",
          "type": "uint256"
        },
        {
          "internalType": "uint256",
          "name": "outcomeId",
          "type": "uint256"
        }
      ],
      "name": "buy",
      "outputs": [],
      "stateMutability": "payable",
      "type": "function",
      "payable": true
    },
    {
      "inputs": [
        {
          "internalType": "uint256",
          "name": "marketId",
          "type": "uint256"
        },
        {
          "internalType": "uint256",
          "name": "outcomeId",
          "type": "uint256"
        },
        {
          "internalType": "uint256",
          "name": "shares",
          "type": "uint256"
        }
      ],
      "name": "sell",
      "outputs": [],
      "stateMutability": "payable",
      "type": "function",
      "payable": true
    },
    {
      "inputs": [
        {
          "internalType": "uint256",
          "name": "marketId",
          "type": "uint256"
        }
      ],
      "name": "addLiquidity",
      "outputs": [],
      "stateMutability": "payable",
      "type": "function",
      "payable": true
    },
    {
      "inputs": [
        {
          "internalType": "uint256",
          "name": "marketId",
          "type": "uint256"
        },
        {
          "internalType": "uint256",
          "name": "shares",
          "type": "uint256"
        }
      ],
      "name": "removeLiquidity",
      "outputs": [],
      "stateMutability": "payable",
      "type": "function",
      "payable": true
    },
    {
      "inputs": [
        {
          "internalType": "uint256",
          "name": "marketId",
          "type": "uint256"
        }
      ],
      "name": "resolveMarketOutcome",
      "outputs": [
        {
          "internalType": "uint256",
          "name": "",
          "type": "uint256"
        }
      ],
      "stateMutability": "nonpayable",
      "type": "function"
    },
    {
      "inputs": [
        {
          "internalType": "uint256",
          "name": "marketId",
          "type": "uint256"
        }
      ],
      "name": "claimWinnings",
      "outputs": [],
      "stateMutability": "nonpayable",
      "type": "function"
    },
    {
      "inputs": [
        {
          "internalType": "uint256",
          "name": "marketId",
          "type": "uint256"
        }
      ],
      "name": "claimLiquidity",
      "outputs": [],
      "stateMutability": "nonpayable",
      "type": "function"
    },
    {
      "inputs": [
        {
          "internalType": "uint256",
          "name": "marketId",
          "type": "uint256"
        }
      ],
      "name": "claimFees",
      "outputs": [],
      "stateMutability": "payable",
      "type": "function",
      "payable": true
    },
    {
      "inputs": [
        {
          "internalType": "uint256",
          "name": "feeValue",
          "type": "uint256"
        }
      ],
      "name": "setFee",
      "outputs": [],
      "stateMutability": "nonpayable",
      "type": "function"
    },
    {
      "inputs": [
        {
          "internalType": "address",
          "name": "addr",
          "type": "address"
        }
      ],
      "name": "setRealitioERC20",
      "outputs": [],
      "stateMutability": "nonpayable",
      "type": "function"
    },
    {
      "inputs": [
        {
          "internalType": "uint256",
          "name": "timeout",
          "type": "uint256"
        }
      ],
      "name": "setRealitioTimeout",
      "outputs": [],
      "stateMutability": "nonpayable",
      "type": "function"
    },
    {
      "inputs": [
        {
          "internalType": "uint256",
          "name": "marketId",
          "type": "uint256"
        },
        {
          "internalType": "address",
          "name": "participant",
          "type": "address"
        }
      ],
      "name": "getUserMarketShares",
      "outputs": [
        {
          "internalType": "uint256",
          "name": "",
          "type": "uint256"
        },
        {
          "internalType": "uint256",
          "name": "",
          "type": "uint256"
        },
        {
          "internalType": "uint256",
          "name": "",
          "type": "uint256"
        }
      ],
      "stateMutability": "view",
      "type": "function",
      "constant": true
    },
    {
      "inputs": [
        {
          "internalType": "uint256",
          "name": "marketId",
          "type": "uint256"
        },
        {
          "internalType": "address",
          "name": "participant",
          "type": "address"
        }
      ],
      "name": "getUserClaimStatus",
      "outputs": [
        {
          "internalType": "bool",
          "name": "",
          "type": "bool"
        },
        {
          "internalType": "bool",
          "name": "",
          "type": "bool"
        },
        {
          "internalType": "bool",
          "name": "",
          "type": "bool"
        },
        {
          "internalType": "bool",
          "name": "",
          "type": "bool"
        },
        {
          "internalType": "uint256",
          "name": "",
          "type": "uint256"
        }
      ],
      "stateMutability": "view",
      "type": "function",
      "constant": true
    },
    {
      "inputs": [
        {
          "internalType": "uint256",
          "name": "marketId",
          "type": "uint256"
        },
        {
          "internalType": "address",
          "name": "participant",
          "type": "address"
        }
      ],
      "name": "getUserLiquidityPoolShare",
      "outputs": [
        {
          "internalType": "uint256",
          "name": "",
          "type": "uint256"
        }
      ],
      "stateMutability": "view",
      "type": "function",
      "constant": true
    },
    {
      "inputs": [
        {
          "internalType": "uint256",
          "name": "marketId",
          "type": "uint256"
        },
        {
          "internalType": "address",
          "name": "participant",
          "type": "address"
        }
      ],
      "name": "getUserClaimableFees",
      "outputs": [
        {
          "internalType": "uint256",
          "name": "",
          "type": "uint256"
        }
      ],
      "stateMutability": "view",
      "type": "function",
      "constant": true
    },
    {
      "inputs": [],
      "name": "getMarkets",
      "outputs": [
        {
          "internalType": "uint256[]",
          "name": "",
          "type": "uint256[]"
        }
      ],
      "stateMutability": "view",
      "type": "function",
      "constant": true
    },
    {
      "inputs": [
        {
          "internalType": "uint256",
          "name": "marketId",
          "type": "uint256"
        }
      ],
      "name": "getMarketData",
      "outputs": [
        {
          "internalType": "string",
          "name": "",
          "type": "string"
        },
        {
          "internalType": "enum PredictionMarket.MarketState",
          "name": "",
          "type": "uint8"
        },
        {
          "internalType": "uint256",
          "name": "",
          "type": "uint256"
        },
        {
          "internalType": "uint256",
          "name": "",
          "type": "uint256"
        },
        {
          "internalType": "uint256",
          "name": "",
          "type": "uint256"
        },
        {
          "internalType": "uint256",
          "name": "",
          "type": "uint256"
        },
        {
          "internalType": "int256",
          "name": "",
          "type": "int256"
        }
      ],
      "stateMutability": "view",
      "type": "function",
      "constant": true
    },
    {
      "inputs": [
        {
          "internalType": "uint256",
          "name": "marketId",
          "type": "uint256"
        }
      ],
      "name": "getMarketAltData",
      "outputs": [
        {
          "internalType": "uint256",
          "name": "",
          "type": "uint256"
        },
        {
          "internalType": "bytes32",
          "name": "",
          "type": "bytes32"
        },
        {
          "internalType": "uint256",
          "name": "",
          "type": "uint256"
        }
      ],
      "stateMutability": "view",
      "type": "function",
      "constant": true
    },
    {
      "inputs": [
        {
          "internalType": "uint256",
          "name": "marketId",
          "type": "uint256"
        }
      ],
      "name": "getMarketQuestion",
      "outputs": [
        {
          "internalType": "bytes32",
          "name": "",
          "type": "bytes32"
        }
      ],
      "stateMutability": "view",
      "type": "function",
      "constant": true
    },
    {
      "inputs": [
        {
          "internalType": "uint256",
          "name": "marketId",
          "type": "uint256"
        }
      ],
      "name": "getMarketPrices",
      "outputs": [
        {
          "internalType": "uint256",
          "name": "",
          "type": "uint256"
        },
        {
          "internalType": "uint256",
          "name": "",
          "type": "uint256"
        },
        {
          "internalType": "uint256",
          "name": "",
          "type": "uint256"
        }
      ],
      "stateMutability": "view",
      "type": "function",
      "constant": true
    },
    {
      "inputs": [
        {
          "internalType": "uint256",
          "name": "marketId",
          "type": "uint256"
        }
      ],
      "name": "getMarketLiquidityPrice",
      "outputs": [
        {
          "internalType": "uint256",
          "name": "",
          "type": "uint256"
        }
      ],
      "stateMutability": "view",
      "type": "function",
      "constant": true
    },
    {
      "inputs": [
        {
          "internalType": "uint256",
          "name": "marketId",
          "type": "uint256"
        }
      ],
      "name": "getMarketResolvedOutcome",
      "outputs": [
        {
          "internalType": "int256",
          "name": "",
          "type": "int256"
        }
      ],
      "stateMutability": "view",
      "type": "function",
      "constant": true
    },
    {
      "inputs": [
        {
          "internalType": "uint256",
          "name": "marketId",
          "type": "uint256"
        }
      ],
      "name": "getMarketOutcomeIds",
      "outputs": [
        {
          "internalType": "uint256[]",
          "name": "",
          "type": "uint256[]"
        }
      ],
      "stateMutability": "view",
      "type": "function",
      "constant": true
    },
    {
      "inputs": [
        {
          "internalType": "uint256",
          "name": "marketId",
          "type": "uint256"
        },
        {
          "internalType": "uint256",
          "name": "marketOutcomeId",
          "type": "uint256"
        }
      ],
      "name": "getMarketOutcomePrice",
      "outputs": [
        {
          "internalType": "uint256",
          "name": "",
          "type": "uint256"
        }
      ],
      "stateMutability": "view",
      "type": "function",
      "constant": true
    },
    {
      "inputs": [
        {
          "internalType": "uint256",
          "name": "marketId",
          "type": "uint256"
        },
        {
          "internalType": "uint256",
          "name": "marketOutcomeId",
          "type": "uint256"
        }
      ],
      "name": "getMarketOutcomeData",
      "outputs": [
        {
          "internalType": "string",
          "name": "",
          "type": "string"
        },
        {
          "internalType": "uint256",
          "name": "",
          "type": "uint256"
        },
        {
          "internalType": "uint256",
          "name": "",
          "type": "uint256"
        },
        {
          "internalType": "uint256",
          "name": "",
          "type": "uint256"
        }
      ],
      "stateMutability": "view",
      "type": "function",
      "constant": true
    }
  ],
  "bytecode": "0x608060405234801561001057600080fd5b50613476806100206000396000f3fe60806040526004361061019f5760003560e01c80631d7920aa146101a457806328747a80146101dc5780632c2aa24e1461020957806331877a381461023a5780633d41a26b146102675780633fe45e3b1461027c5780634397c4ce1461029157806351c6590a146102b15780635e648eff146102c6578063677bd9ff146102e657806369fe0e2d14610306578063715018a6146103265780637b34e6e01461033b5780638129fc1c1461035d57806385b91d8e146103725780638c7adc15146103925780638cd41552146103a75780638da5cb5b146103c75780639d7de6b3146103dc578063aa22a02e146103ef578063ac68a7481461040f578063b31eb89514610422578063bf45572114610442578063bfacba3d14610462578063c2ee3a0814610495578063c8f70d01146104aa578063d3c9727c146104ca578063d6febde8146104dd578063ddca3f43146104f0578063ec2c901614610505578063ede2e06e1461051a578063efce43131461053a578063f249cfd11461056a578063f2fde38b1461057d578063fdff80851461059d578063ffce3d5e146105bd575b600080fd5b3480156101b057600080fd5b506101c46101bf366004612bfb565b6105dd565b6040516101d393929190613391565b60405180910390f35b3480156101e857600080fd5b506101fc6101f7366004612bfb565b6105fc565b6040516101d39190612d55565b34801561021557600080fd5b50610229610224366004612c13565b610857565b6040516101d3959493929190612d2e565b34801561024657600080fd5b5061025a610255366004612bfb565b610927565b6040516101d39190612cea565b34801561027357600080fd5b506101fc610990565b34801561028857600080fd5b506101fc610996565b34801561029d57600080fd5b506101fc6102ac366004612bfb565b61099c565b6102c46102bf366004612bfb565b6109b1565b005b3480156102d257600080fd5b506102c46102e1366004612bfb565b610cb7565b3480156102f257600080fd5b506102c4610301366004612bfb565b610e6d565b34801561031257600080fd5b506102c4610321366004612bfb565b610fc1565b34801561033257600080fd5b506102c4611005565b34801561034757600080fd5b5061035061107c565b6040516101d39190612cd6565b34801561036957600080fd5b506102c461108b565b34801561037e57600080fd5b506101c461038d366004612bfb565b611116565b34801561039e57600080fd5b506101fc611147565b3480156103b357600080fd5b506101fc6103c2366004612c3f565b61114d565b3480156103d357600080fd5b50610350611247565b6102c46103ea366004612c3f565b611256565b3480156103fb57600080fd5b506101fc61040a366004612c13565b6115cd565b6102c461041d366004612bfb565b611620565b34801561042e57600080fd5b506101c461043d366004612c13565b6116e9565b34801561044e57600080fd5b506101fc61045d366004612bfb565b611747565b34801561046e57600080fd5b5061048261047d366004612bfb565b611784565b6040516101d39796959493929190612dd7565b3480156104a157600080fd5b506101fc611872565b3480156104b657600080fd5b506101fc6104c5366004612bfb565b61187e565b6102c46104d8366004612c60565b61191f565b6102c46104eb366004612c3f565b611c79565b3480156104fc57600080fd5b506101fc611c8a565b34801561051157600080fd5b5061025a611c90565b34801561052657600080fd5b506102c4610535366004612bfb565b611ce8565b34801561054657600080fd5b5061055a610555366004612c3f565b611d2c565b6040516101d39493929190612e26565b6101fc610578366004612b41565b611e0a565b34801561058957600080fd5b506102c4610598366004612b0e565b6120d0565b3480156105a957600080fd5b506101fc6105b8366004612c13565b61217f565b3480156105c957600080fd5b506102c46105d8366004612b0e565b612201565b6000908152606660205260409020600b810154600a9091015490918190565b60008181526066602052604081206001015482904211801561063b575060008181526066602052604081206007015460ff16600281111561063957fe5b145b156106495761064981612262565b8260018060008381526066602052604090206007015460ff16600281111561066d57fe5b1461067757600080fd5b600085815260666020526040808220606954600a820154925163684e62bf60e11b8152899492936001600160a01b039092169291839163d09cc57e916106bf91600401612d55565b60206040518083038186803b1580156106d757600080fd5b505afa1580156106eb573d6000803e3d6000fd5b505050506040513d601f19601f8201168201806040525061070f9190810190612b29565b6000818152600f8501602052604090819020600986018390559051919250908a9033907f67a6457c8912ae1b7a9fbdfa311cbd016ba606b548bf06bc80bc751072d91bbc906107619086904290612d5e565b60405180910390a3818a600080516020613421833981519152670de0b6b3a764000042604051610792929190612d5e565b60405180910390a381156107a75760006107aa565b60015b60ff168a6000805160206134218339815191526000426040516107ce929190612d5e565b60405180910390a36003840154600482015460009161080b916107ff90670de0b6b3a764000063ffffffff6122b216565b9063ffffffff6122ec16565b90508a6000805160206133c18339815191528660030154834260405161083393929190613391565b60405180910390a25050505060090154945061084e81612262565b50505050919050565b600082815260666020526040812081908190819081906002600782015460ff16600281111561088257fe5b146108a7576000806000806108978c8c61217f565b955095509550955095505061091d565b60098101546000908152600f8201602090815260408083206001600160a01b038b16845260058082018452828520546006808401865284872054928801865284872054908801909552929094205490939115159260ff9283169290151591166109108d8d61217f565b9650965096509650965050505b9295509295909350565b600081815260666020908152604091829020600e81018054845181850281018501909552808552606094929383018282801561098257602002820191906000526020600020905b81548152602001906001019080831161096e575b50505050509150505b919050565b60001981565b606a5481565b6000908152606660205260409020600a015490565b6000818152606660205260409020600101548190421180156109f0575060008181526066602052604081206007015460ff1660028111156109ee57fe5b145b156109fe576109fe81612262565b8160008060008381526066602052604090206007015460ff166002811115610a2257fe5b14610a2c57600080fd5b600084815260666020526040902034610a605760405162461bcd60e51b8152600401610a5790613124565b60405180910390fd5b600019600080805b600e850154811015610aca57600085600e018281548110610a8557fe5b6000918252602080832090910154808352600f89019091526040909120600481015491925090861115610ac057806003016001015495508194505b5050600101610a68565b506003840154600090610ae7906107ff863463ffffffff6122b216565b9050610af58982600261231e565b506003850154610b0b908263ffffffff61240e16565b6003860155336000908152600586016020526040902054610b32908263ffffffff61240e16565b33600090815260058701602052604090205534811415610c08576002850154610b61908263ffffffff61240e16565b600286015560005b600e860154811015610c0257600086600e018281548110610b8657fe5b6000918252602080832090910154808352600f8a019091526040909120600481015491925090610bbc908563ffffffff61240e16565b60048201556003810154610bd6908563ffffffff61240e16565b60038201556004880154610bf0908563ffffffff61240e16565b60048901555034935050600101610b69565b50610c3d565b610c158984346002612433565b610c3a670de0b6b3a76400006107ff610c2d8c61187e565b849063ffffffff6122b216565b91505b886002336001600160a01b03166000805160206134018339815191526000858742604051610c6e9493929190612d6c565b60405180910390a4886000805160206133c18339815191528660030154610c948c61187e565b42604051610ca493929190613391565b60405180910390a2505050505050505050565b8060028060008381526066602052604090206007015460ff166002811115610cdb57fe5b14610ce557600080fd5b600083815260666020908152604080832060098101548452600f8101909252909120610d1085611620565b336000908152600583016020526040902054610d3e5760405162461bcd60e51b8152600401610a5790613347565b33600090815260068301602052604090205460ff1615610d705760405162461bcd60e51b8152600401610a5790613167565b6000610d9c670de0b6b3a76400006107ff610d8b89336115cd565b60048601549063ffffffff6122b216565b90508083600201541015610dc25760405162461bcd60e51b8152600401610a5790612fa4565b6002830154610dd7908263ffffffff6127a516565b60028401553360009081526006840160205260409020805460ff1916600117905585600533600081815260058701602052604080822054905160008051602061340183398151915292610e2f92909188904290612d6c565b60405180910390a4604051339082156108fc029083906000818181858888f19350505050158015610e64573d6000803e3d6000fd5b50505050505050565b8060028060008381526066602052604090206007015460ff166002811115610e9157fe5b14610e9b57600080fd5b600083815260666020908152604080832060098101548452600f8101835281842033855260058101909352922054610ee55760405162461bcd60e51b8152600401610a57906131b5565b33600090815260068201602052604090205460ff1615610f175760405162461bcd60e51b8152600401610a579061327c565b3360009081526005820160205260409020546002830154811115610f4d5760405162461bcd60e51b8152600401610a5790612fa4565b6002830154610f62908263ffffffff6127a516565b60028401553360009081526006830160205260409020805460ff19166001179055856004600985015433600081815260058701602052604090819020549051919260008051602061340183398151915292610e2f929088904290612d6c565b610fc96127cd565b6001600160a01b0316610fda611247565b6001600160a01b0316146110005760405162461bcd60e51b8152600401610a5790613247565b606855565b61100d6127cd565b6001600160a01b031661101e611247565b6001600160a01b0316146110445760405162461bcd60e51b8152600401610a5790613247565b6033546040516000916001600160a01b0316906000805160206133e1833981519152908390a3603380546001600160a01b0319169055565b6069546001600160a01b031681565b600054610100900460ff16806110a457506110a46127d1565b806110b2575060005460ff16155b6110ce5760405162461bcd60e51b8152600401610a579061308c565b600054610100900460ff161580156110f9576000805460ff1961ff0019909116610100171660011790555b6111016127e2565b8015611113576000805461ff00191690555b50565b60008060006111248461187e565b61112f85600061114d565b61113a86600161114d565b9250925092509193909250565b60675481565b6000828152606660209081526040808320848452600f810190925282206002600783015460ff16600281111561117f57fe5b14156111aa57600982015484146111975760006111a1565b670de0b6b3a76400005b92505050611241565b6004810154600382015410156111d25760405162461bcd60e51b8152600401610a5790612f11565b6004808201549083015410156111fa5760405162461bcd60e51b8152600401610a57906132d1565b60048082015490830154600091611217919063ffffffff6127a516565b600484015490915061123b906107ff83670de0b6b3a764000063ffffffff6122b216565b93505050505b92915050565b6033546001600160a01b031690565b600082815260666020526040902060010154829042118015611295575060008181526066602052604081206007015460ff16600281111561129357fe5b145b156112a3576112a381612262565b8260008060008381526066602052604090206007015460ff1660028111156112c757fe5b146112d157600080fd5b600085815260666020908152604080832033845260058101909252909120548511156112fc57600080fd5b600061130787611620565b336000908152600583016020526040902054611329908763ffffffff6127a516565b33600090815260058401602052604081209190915560001990805b600e8501548110156113a657600085600e01828154811061136157fe5b6000918252602080832090910154808352600f8901909152604090912060048101549192509085111561139c57806003016001015494508193505b5050600101611344565b5060038401546000906113c3906107ff858c63ffffffff6122b216565b90506113d18a8a600361231e565b50888114156114b05760028501546113ef908263ffffffff6127a516565b60028601556003850154611409908263ffffffff6127a516565b600386015560005b600e8601548110156114a757600086600e01828154811061142e57fe5b6000918252602080832090910154808352600f8a019091526040909120600481015491925090611464908563ffffffff6127a516565b6004820155600381015461147e908563ffffffff6127a516565b60038201556004880154611498908563ffffffff6127a516565b60048901555050600101611411565b50889350611524565b600082156114bf5760006114c2565b60015b60ff166000818152600f8801602052604090206004015460038801549192506114f5916107ff908d63ffffffff6122b216565b600387015490955061150d908b63ffffffff6127a516565b86600301819055506115228b82876003612433565b505b604051339085156108fc029086906000818181858888f19350505050158015611551573d6000803e3d6000fd5b50896003336001600160a01b031660008051602061340183398151915260008d89426040516115839493929190612d6c565b60405180910390a4896000805160206133c183398151915286600301546115a98d61187e565b426040516115b993929190613391565b60405180910390a250505050505050505050565b600082815260666020908152604080832060038101546001600160a01b038616855260058201909352908320549091611618916107ff90670de0b6b3a764000063ffffffff6122b216565b949350505050565b600081815260666020526040812090611639833361217f565b905080156116a557336000908152600d83016020526040902054611663908263ffffffff61240e16565b336000818152600d85016020526040808220939093559151909183156108fc02918491818181858888f193505050501580156116a3573d6000803e3d6000fd5b505b826006336000818152600586016020526040808220549051600080516020613401833981519152926116dc92909188904290612d6c565b60405180910390a4505050565b60008281526066602090815260408083206001600160a01b0385168085526005808301855283862054868052600f90930180865284872083885282018652848720546001885290865284872092875291019093529220549250925092565b60008181526066602052604081206002600782015460ff16600281111561176a57fe5b1461177a5760001991505061098b565b6009015492915050565b6000818152606660205260408120600781015460018201546003830154600284015460048501546060969586958695869586958695859460ff16939291906117cb8f611747565b8654604080516020601f600260001961010060018816150201909516949094049384018190048102820181019092528281529189918301828280156118515780601f1061182657610100808354040283529160200191611851565b820191906000526020600020905b81548152906001019060200180831161183457829003601f168201915b50505050509650975097509750975097509750975050919395979092949650565b670de0b6b3a764000081565b60008181526066602052604081206002600782015460ff1660028111156118a157fe5b14156118ea57600381015460098201546000908152600f830160205260409020600401546118e291906107ff90670de0b6b3a764000063ffffffff6122b216565b91505061098b565b6004810154600e820154600383015461191892916107ff9190670de0b6b3a76400000263ffffffff6122b216565b9392505050565b60008381526066602052604090206001015483904211801561195e575060008181526066602052604081206007015460ff16600281111561195c57fe5b145b1561196c5761196c81612262565b8360008060008381526066602052604090206007015460ff16600281111561199057fe5b1461199a57600080fd5b6000868152606660209081526040808320888452600f81018352818420338552600581019093529220548611156119d057600080fd5b60048101546003820154038611156119e757600080fd5b336000908152600582016020526040902054611a09908763ffffffff6127a516565b3360009081526005830160205260409020556004810154611a30908763ffffffff61240e16565b600480830191909155820154611a4c908763ffffffff61240e16565b6004808401829055820154600091611a699163ffffffff6127a516565b600e8401546003850154919250600091611a9f91611a8f910a600463ffffffff6122b216565b6002840a9063ffffffff61240e16565b6004840154909150611abc9082906002900a63ffffffff61240e16565b6004840154909150611af690611ae990611add85600263ffffffff6122b216565b9063ffffffff6122b216565b829063ffffffff6127a516565b9050611b0181612860565b9050611b2d81611b2185600301600101548561240e90919063ffffffff16565b9063ffffffff6127a516565b9050611b4081600263ffffffff6122ec16565b905080471015611b4f57600080fd5b8084600201541015611b6057600080fd5b60005b600e850154811015611bd6576000818152600f8601602052604090206004810154611b94908463ffffffff6127a516565b60048201556003810154611bae908463ffffffff6127a516565b60038201556004860154611bc8908463ffffffff6127a516565b600487015550600101611b63565b506002840154611bec908263ffffffff6127a516565b6002850155611bfb8a826128b1565b604051909150339082156108fc029083906000818181858888f19350505050158015611c2b573d6000803e3d6000fd5b50896001336001600160a01b03166000805160206134018339815191528c8c8642604051611c5c9493929190612d6c565b60405180910390a4611c6d8a612917565b50505050505050505050565b611c868282346000612433565b5050565b60685481565b60606065805480602002602001604051908101604052809291908181526020018280548015611cde57602002820191906000526020600020905b815481526020019060010190808311611cca575b5050505050905090565b611cf06127cd565b6001600160a01b0316611d01611247565b6001600160a01b031614611d275760405162461bcd60e51b8152600401610a5790613247565b606a55565b6000828152606660209081526040808320848452600f8101909252822060609291829182919060028101611d60898961114d565b600483015460038401548354604080516020601f60026000196101006001881615020190951694909404938401819004810282018101909252828152918691830182828015611df05780601f10611dc557610100808354040283529160200191611df0565b820191906000526020600020905b815481529060010190602001808311611dd357829003601f168201915b505050505093509550955095509550505092959194509250565b60675460658054600181019091557f8ff97419363ffd7000167f130ef7168fbea05faf9251824ca5043f113cc6a7c701819055600081815260666020526040812090919034611e6b5760405162461bcd60e51b8152600401610a5790613124565b42861015611e8b5760405162461bcd60e51b8152600401610a57906130da565b83600214611eab5760405162461bcd60e51b8152600401610a5790612e55565b6001810186905560078101805460ff191690556008810180546001600160a01b0319166001600160a01b0387811691909117909155606854600b8301556000196009830155606954606a5460405163d4876b9f60e01b81529190921691829163d4876b9f91611f2b916002918d918c91908e906000908190600401612d87565b602060405180830381600087803b158015611f4557600080fd5b505af1158015611f59573d6000803e3d6000fd5b505050506040513d601f19601f82011682018060405250611f7d9190810190612b29565b600a830155346002830181905560038301819055336000908152600584016020526040902054611fb29163ffffffff61240e16565b3360009081526005840160205260408120919091555b8581101561203557600e830180546001818101835560009283526020808420909201849055838352600f86019091526040909120858155908101829055346004808301829055600383018290558501546120279163ffffffff61240e16565b600485015550600101611fc8565b5061203f83612917565b826002336001600160a01b031660008051602061340183398151915260003434426040516120709493929190612d6c565b60405180910390a482336001600160a01b03167fc1c6e14b42878a12d9051abeb4af5fbb5ee317931d51eea91483f1163c50c331878b6040516120b49291906133a7565b60405180910390a3505060678054600101905595945050505050565b6120d86127cd565b6001600160a01b03166120e9611247565b6001600160a01b03161461210f5760405162461bcd60e51b8152600401610a5790613247565b6001600160a01b0381166121355760405162461bcd60e51b8152600401610a5790612e96565b6033546040516001600160a01b038084169216906000805160206133e183398151915290600090a3603380546001600160a01b0319166001600160a01b0392909216919091179055565b600082815260666020908152604080832060038101546001600160a01b03861685526005820190935290832054600c820154919284926121c9926107ff919063ffffffff6122b216565b6001600160a01b0385166000908152600d840160205260409020549091506121f890829063ffffffff6127a516565b95945050505050565b6122096127cd565b6001600160a01b031661221a611247565b6001600160a01b0316146122405760405162461bcd60e51b8152600401610a5790613247565b606980546001600160a01b0319166001600160a01b0392909216919091179055565b6000818152606660205260409020600781015460ff16600281111561228357fe5b600101600281111561229157fe5b60078201805460ff191660018360028111156122a957fe5b02179055505050565b6000826122c157506000611241565b828202828482816122ce57fe5b04146119185760405162461bcd60e51b8152600401610a5790613206565b600080821161230d5760405162461bcd60e51b8152600401610a5790612fe7565b81838161231657fe5b049392505050565b60008381526066602052604081206003810154600c820154839161234d916107ff90889063ffffffff6122b216565b9050600284600681111561235d57fe5b14156123b657600c820154612378908263ffffffff61240e16565b600c830155336000908152600d8301602052604090205461239f908263ffffffff61240e16565b336000908152600d84016020526040902055612405565b600c8201546123cb908263ffffffff6127a516565b600c830155336000908152600d830160205260409020546123f2908263ffffffff6127a516565b336000908152600d840160205260409020555b50509392505050565b6000828201838110156119185760405162461bcd60e51b8152600401610a5790612edc565b600084815260666020526040902060010154849042118015612472575060008181526066602052604081206007015460ff16600281111561247057fe5b145b156124805761248081612262565b8460008060008381526066602052604090206007015460ff1660028111156124a457fe5b146124ae57600080fd5b6000878152606660205260408120908560068111156124c957fe5b14156124dc576124d988876128b1565b95505b6000878152600f82016020526040902060038660068111156124fa57fe5b14612519576002820154612514908863ffffffff61240e16565b61252e565b600282015461252e908863ffffffff6127a516565b6002830155600160005b600e84015481101561264a576000818152600f850160205260409020600389600681111561256257fe5b1461258157600481015461257c908b63ffffffff61240e16565b612596565b6004810154612596908b63ffffffff6127a516565b600482015560038960068111156125a957fe5b146125c85760038101546125c3908b63ffffffff61240e16565b6125dd565b60038101546125dd908b63ffffffff6127a516565b600382015560048101546125f890849063ffffffff6122b216565b9250600389600681111561260857fe5b14612627576004850154612622908b63ffffffff61240e16565b61263c565b600485015461263c908b63ffffffff6127a516565b600486015550600101612538565b50600e830154600384015460048401546000926126759285926107ff9290910a63ffffffff6122b216565b60048401540390508061269a5760405162461bcd60e51b8152600401610a5790613068565b60048301548111156126be5760405162461bcd60e51b8152600401610a579061301b565b3360009081526005840160205260409020546126e0908263ffffffff61240e16565b3360009081526005850160205260409020556004830154612707908263ffffffff6127a516565b600480850191909155840154612723908263ffffffff6127a516565b6004850155600088600681111561273657fe5b1461275757612754670de0b6b3a76400006107ff610c2d8e8e61114d565b98505b8a6000336001600160a01b03166000805160206134018339815191528d858e426040516127879493929190612d6c565b60405180910390a46127988b612917565b5050505050505050505050565b6000828211156127c75760405162461bcd60e51b8152600401610a5790612f6d565b50900390565b3390565b60006127dc306129a8565b15905090565b600054610100900460ff16806127fb57506127fb6127d1565b80612809575060005460ff16155b6128255760405162461bcd60e51b8152600401610a579061308c565b600054610100900460ff16158015612850576000805460ff1961ff0019909116610100171660011790555b6128586129ae565b611101612a2f565b600060038211156128a3575080600160028204015b8181101561289d5780915060028182858161288c57fe5b04018161289557fe5b049050612875565b5061098b565b811561098b57506001919050565b6000828152606660205260408120600b8101548290670de0b6b3a7640000906128e190869063ffffffff6122b216565b816128e857fe5b600c8401549190049150612902908263ffffffff61240e16565b600c8301556121f8848263ffffffff6127a516565b6000818152606660205260408120905b600e82015481101561296d57808360008051602061342183398151915261294e868561114d565b4260405161295d929190612d5e565b60405180910390a3600101612927565b50816000805160206133c1833981519152826003015461298c8561187e565b4260405161299c93929190613391565b60405180910390a25050565b3b151590565b600054610100900460ff16806129c757506129c76127d1565b806129d5575060005460ff16155b6129f15760405162461bcd60e51b8152600401610a579061308c565b600054610100900460ff16158015611101576000805460ff1961ff0019909116610100171660011790558015611113576000805461ff001916905550565b600054610100900460ff1680612a485750612a486127d1565b80612a56575060005460ff16155b612a725760405162461bcd60e51b8152600401610a579061308c565b600054610100900460ff16158015612a9d576000805460ff1961ff0019909116610100171660011790555b6000612aa76127cd565b603380546001600160a01b0319166001600160a01b038316908117909155604051919250906000906000805160206133e1833981519152908290a3508015611113576000805461ff001916905550565b80356001600160a01b038116811461124157600080fd5b600060208284031215612b1f578081fd5b6119188383612af7565b600060208284031215612b3a578081fd5b5051919050565b60008060008060808587031215612b56578283fd5b84356001600160401b0380821115612b6c578485fd5b81870188601f820112612b7d578586fd5b8035925081831115612b8d578586fd5b6040516020601f8501601f1916820181018481118382101715612bae578889fd5b60405284825282850181018b1015612bc4578788fd5b8481840182840137938101840196909652509394508501359250612beb8660408701612af7565b9396929550929360600135925050565b600060208284031215612c0c578081fd5b5035919050565b60008060408385031215612c25578182fd5b82359150612c368460208501612af7565b90509250929050565b60008060408385031215612c51578182fd5b50508035926020909101359150565b600080600060608486031215612c74578283fd5b505081359360208301359350604090920135919050565b60008151808452815b81811015612cb057602081850181015186830182015201612c94565b81811115612cc15782602083870101525b50601f01601f19169290920160200192915050565b6001600160a01b0391909116815260200190565b6020808252825182820181905260009190848201906040850190845b81811015612d2257835183529284019291840191600101612d06565b50909695505050505050565b94151585529215156020850152901515604084015215156060830152608082015260a00190565b90815260200190565b918252602082015260400190565b93845260208401929092526040830152606082015260800190565b600088825260e06020830152612da060e0830189612c8b565b6001600160a01b039790971660408301525063ffffffff948516606082015292909316608083015260a082015260c0015292915050565b600060e08252612dea60e083018a612c8b565b905060038810612df657fe5b8760208301528660408301528560608301528460808301528360a08301528260c083015298975050505050505050565b600060808252612e396080830187612c8b565b6020830195909552506040810192909252606090910152919050565b60208082526021908201527f4e756d626572206d61726b6574206f7574636f6d652068617320746f206265206040820152601960f91b606082015260800190565b60208082526026908201527f4f776e61626c653a206e6577206f776e657220697320746865207a65726f206160408201526564647265737360d01b606082015260800190565b6020808252601b908201527a536166654d6174683a206164646974696f6e206f766572666c6f7760281b604082015260600190565b6020808252603c908201527f546f74616c207368617265732068617320746f20626520657175616c206f722060408201527b686967686572207468616e20617661696c61626c652073686172657360201b606082015260800190565b6020808252601e908201527f536166654d6174683a207375627472616374696f6e206f766572666c6f770000604082015260600190565b60208082526023908201527f4d61726b657420646f6573206e6f74206861766520656e6f7567682062616c616040820152626e636560e81b606082015260800190565b6020808252601a9082015279536166654d6174683a206469766973696f6e206279207a65726f60301b604082015260600190565b6020808252602d908201527f43616e277420627579206d6f726520736861726573207468616e20746865206f60408201526c6e657320617661696c61626c6560981b606082015260800190565b6020808252600a9082015269043616e277420626520360b41b604082015260600190565b6020808252602e908201527f496e697469616c697a61626c653a20636f6e747261637420697320616c72656160408201526d191e481a5b9a5d1a585b1a5e995960921b606082015260800190565b6020808252602a908201527f4d61726b65742068617320746f20636c6f7365206166746572207468652063756040820152697272656e74206461746560b01b606082015260800190565b60208082526023908201527f546865207374616b652068617320746f2062652067726561746572207468616e60408201526210181760e91b606082015260800190565b6020808252602e908201527f5061727469636970616e7420616c726561647920636c61696d6564206c69717560408201526d69646974792077696e6e696e677360901b606082015260800190565b60208082526031908201527f5061727469636970616e7420646f6573206e6f7420686f6c64207265736f6c766040820152706564206f7574636f6d652073686172657360781b606082015260800190565b60208082526021908201527f536166654d6174683a206d756c7469706c69636174696f6e206f766572666c6f6040820152607760f81b606082015260800190565b6020808252818101527f4f776e61626c653a2063616c6c6572206973206e6f7420746865206f776e6572604082015260600190565b60208082526035908201527f5061727469636970616e7420616c726561647920636c61696d6564207265736f6040820152746c766564206f7574636f6d652077696e6e696e677360581b606082015260800190565b60208082526050908201527f546f74616c202320617661696c61626c65207368617265732068617320746f2060408201527f626520657175616c206f7220686967686572207468616e206f7574636f6d652060608201526f617661696c61626c652073686172657360801b608082015260a00190565b6020808252602a908201527f5061727469636970616e7420646f6573206e6f7420686f6c64206c69717569646040820152696974792073686172657360b01b606082015260800190565b9283526020830191909152604082015260600190565b6000838252604060208301526116186040830184612c8b56fe1eca98f266e5348ae38d5d057a4d8e451e76672f69ac6ba4b0e3b31ea9c7eb2b8be0079c531659141344cd1fd0a4f28419497f9722a3daafe3b4186f6b6457e0f234ce8a0f255434ef7d62a699a746ee45ac4452531081e609f1556d27faf12c8270f0a0534b13b7f92d1dbd58aa75c5207b40c55fefa7a17110c6136ad7270ba26469706673582212204e530d1f93576279af2e47d1b5c952b3e9a52c8f751664b3eaa8cac467a5a33764736f6c63430006020033",
  "source": "pragma solidity ^0.6.0;\npragma experimental ABIEncoderV2;\n\nimport \"./RealitioERC20.sol\";\n\n// openzeppelin imports\nimport \"@openzeppelin/contracts/math/SafeMath.sol\";\nimport \"@openzeppelin/contracts-upgradeable/access/OwnableUpgradeable.sol\";\n\nlibrary PMHelpers {\n  // fetched from uniswap: https://github.com/Uniswap/uniswap-v2-core/blob/v1.0.1/contracts/libraries/Math.sol\n  // babylonian method (https://en.wikipedia.org/wiki/Methods_of_computing_square_roots#Babylonian_method)\n  function sqrt(uint256 y) internal pure returns (uint256 z) {\n    if (y > 3) {\n      z = y;\n      uint256 x = y / 2 + 1;\n      while (x < z) {\n        z = x;\n        x = (y / x + x) / 2;\n      }\n    } else if (y != 0) {\n      z = 1;\n    }\n  }\n}\n\n/// @title Market Contract Factory\ncontract PredictionMarket is Initializable, OwnableUpgradeable {\n  using SafeMath for uint256;\n\n  // ------ Events ------\n\n  event MarketCreated(\n    address indexed participant,\n    uint256 indexed marketId,\n    uint256 outcomes,\n    string question\n  );\n\n  event ParticipantAction(\n    address indexed participant,\n    MarketAction indexed action,\n    uint256 indexed marketId,\n    uint256 outcomeId,\n    uint256 shares,\n    uint256 value,\n    uint256 timestamp\n  );\n\n  event MarketOutcomePrice(uint256 indexed marketId, uint256 indexed outcomeId, uint256 value, uint256 timestamp);\n\n  event MarketLiquidity(\n    uint256 indexed marketId,\n    uint256 value, // total liquidity (ETH)\n    uint256 price, // value of 1 liquidity share; max: 1 ETH (50-50 situation)\n    uint256 timestamp\n  );\n\n  event MarketResolved(address indexed oracle, uint256 indexed marketId, uint256 outcomeId, uint256 timestamp);\n\n  // ------ Events End ------\n\n  uint256 public constant MAX_UINT_256 = 115792089237316195423570985008687907853269984665640564039457584007913129639935;\n\n  uint256 public constant ONE = 10**18;\n\n  enum MarketState {\n    open,\n    closed,\n    resolved\n  }\n  enum MarketAction {\n    buy,\n    sell,\n    addLiquidity,\n    removeLiquidity,\n    claimWinnings,\n    claimLiquidity,\n    claimFees\n  }\n\n  struct Market {\n    // market details\n    string name; // TODO remove: deprecated;\n    uint256 closedDateTime;\n    uint256 balance; // total stake (ETH)\n    uint256 liquidity; // stake held (ETH)\n    uint256 sharesAvailable; // shares held (all outcomes)\n    mapping(address => uint256) liquidityShares;\n    mapping(address => bool) liquidityClaims; // wether participant has claimed liquidity winnings\n    MarketState state; // resolution variables\n    MarketResolution resolution; // fees\n    MarketFees fees;\n    // market outcomes\n    uint256[] outcomeIds;\n    mapping(uint256 => MarketOutcome) outcomes;\n  }\n\n  struct MarketFees {\n    uint256 value; // fee % taken from every transaction\n    uint256 poolWeight; // internal var used to ensure pro-rate fee distribution\n    mapping(address => uint256) claimed;\n  }\n\n  struct MarketResolution {\n    address oracle; // TODO remove: deprecated;\n    bool resolved;\n    uint256 outcomeId;\n    bytes32 questionId; // realitio questionId\n  }\n\n  struct MarketOutcome {\n    uint256 marketId;\n    uint256 id;\n    string name;  // TODO remove: deprecated;\n    Shares shares;\n  }\n\n  struct Shares {\n    uint256 total; // number of shares\n    uint256 available; // available shares\n    mapping(address => uint256) holders;\n    mapping(address => bool) claims; // wether participant has claimed winnings\n  }\n\n  uint256[] marketIds;\n  mapping(uint256 => Market) markets;\n  uint256 public marketIndex;\n\n  // governance\n  uint256 public fee; // fee % taken from every transaction, can be updated by contract owner\n  // realitio configs\n  address public realitioAddress;\n  uint256 public realitioTimeout;\n\n  // ------ Modifiers ------\n\n  modifier isMarket(uint256 marketId) {\n    require(marketId < marketIndex);\n    _;\n  }\n\n  modifier timeTransitions(uint256 marketId) {\n    if (now > markets[marketId].closedDateTime && markets[marketId].state == MarketState.open) {\n      nextState(marketId);\n    }\n    _;\n  }\n\n  modifier atState(uint256 marketId, MarketState state) {\n    require(markets[marketId].state == state);\n    _;\n  }\n\n  modifier notAtState(uint256 marketId, MarketState state) {\n    require(markets[marketId].state != state);\n    _;\n  }\n\n  modifier transitionNext(uint256 marketId) {\n    _;\n    nextState(marketId);\n  }\n\n  // ------ Modifiers End ------\n\n  // Initializer function (replaces constructor)\n  function initialize() public initializer {\n    __Ownable_init();\n  }\n\n  // ------ Core Functions ------\n\n  /// Create a new Market contract\n  /// @dev The new Market contract is then saved in the array of this contract for future reference.\n  /// @param question - Market details: https://reality.eth.link/app/docs/html/contracts.html#how-questions-are-structured\n  /// @param closesAt - Timestamp of market expiration\n  /// @param oracle - Artbitrator address\n  /// @param outcomes - Number of outcomes\n  function createMarket(\n    string memory question,\n    uint256 closesAt,\n    address oracle,\n    uint256 outcomes\n  ) public payable returns (uint256) {\n    uint256 marketId = marketIndex;\n    marketIds.push(marketId);\n\n    Market storage market = markets[marketId];\n\n    require(msg.value > 0, \"The stake has to be greater than 0.\");\n    require(closesAt >= now, \"Market has to close after the current date\");\n    require(oracle == address(oracle), \"Invalid oracle address\");\n    // starting with secondary markets\n    require(outcomes == 2, \"Number market outcome has to be 2\");\n\n    market.closedDateTime = closesAt;\n    market.state = MarketState.open;\n    market.resolution.oracle = oracle;\n    market.fees.value = fee;\n    // setting intial value to an integer that does not map to any outcomeId\n    market.resolution.outcomeId = MAX_UINT_256;\n\n    // creating question in realitio\n    RealitioERC20 realitio = RealitioERC20(realitioAddress);\n\n    market.resolution.questionId = realitio.askQuestionERC20(\n      2,\n      question,\n      oracle,\n      uint32(realitioTimeout),\n      uint32(closesAt),\n      0,\n      0\n    );\n\n    market.balance = msg.value;\n    market.liquidity = msg.value;\n\n    // TODO review: only valid for 50-50 start\n    market.liquidityShares[msg.sender] = market.liquidityShares[msg.sender].add(msg.value);\n\n    // creating market outcomes\n    for (uint256 i = 0; i < outcomes; i++) {\n      market.outcomeIds.push(i);\n      MarketOutcome storage outcome = market.outcomes[i];\n\n      outcome.marketId = marketId;\n      outcome.id = i;\n\n      // TODO review: only valid for 50-50 start\n      // price starts at 0.5 ETH\n      outcome.shares.available = msg.value;\n      outcome.shares.total = msg.value;\n\n      market.sharesAvailable = market.sharesAvailable.add(msg.value);\n    }\n\n    // emiting initial price events\n    emitMarketOutcomePriceEvents(marketId);\n    emit ParticipantAction(msg.sender, MarketAction.addLiquidity, marketId, 0, msg.value, msg.value, now);\n    emit MarketCreated(msg.sender, marketId, outcomes, question);\n\n    // incrementing market array index\n    marketIndex = marketIndex + 1;\n\n    return marketId;\n  }\n\n  function buy(uint256 marketId, uint256 outcomeId) external payable {\n    buy(marketId, outcomeId, msg.value, MarketAction.buy);\n  }\n\n  /// Buy shares of a market outcome\n  function buy(\n    uint256 marketId,\n    uint256 outcomeId,\n    uint256 value,\n    MarketAction parentAction\n  ) internal timeTransitions(marketId) atState(marketId, MarketState.open) {\n    Market storage market = markets[marketId];\n\n    if (parentAction == MarketAction.buy) {\n      // subtracting fee from transaction value\n      value = addTransactionToFeesPool(marketId, value);\n    }\n\n    MarketOutcome storage outcome = market.outcomes[outcomeId];\n    market.balance = parentAction == MarketAction.removeLiquidity\n      ? market.balance.sub(value)\n      : market.balance.add(value);\n\n    uint256 newProductBalance = 1;\n\n    // Funding market shares with received ETH\n    for (uint256 i = 0; i < market.outcomeIds.length; i++) {\n      MarketOutcome storage marketOutcome = market.outcomes[i];\n\n      marketOutcome.shares.available = parentAction == MarketAction.removeLiquidity\n        ? marketOutcome.shares.available.sub(value)\n        : marketOutcome.shares.available.add(value);\n      marketOutcome.shares.total = parentAction == MarketAction.removeLiquidity\n        ? marketOutcome.shares.total.sub(value)\n        : marketOutcome.shares.total.add(value);\n\n      newProductBalance = newProductBalance.mul(marketOutcome.shares.available);\n\n      // only adding to market total shares, the available remains\n      market.sharesAvailable = parentAction == MarketAction.removeLiquidity\n        ? market.sharesAvailable.sub(value)\n        : market.sharesAvailable.add(value);\n    }\n\n    // productBalance = market.liquidity**(market.outcomeIds.length);\n    // newSharesAvailable = outcome.shares.available.mul(productBalance).div(newProductBalance);\n    uint256 shares = outcome.shares.available -\n      outcome.shares.available.mul(market.liquidity**(market.outcomeIds.length)).div(newProductBalance);\n\n    require(shares > 0, \"Can't be 0\");\n    require(outcome.shares.available >= shares, \"Can't buy more shares than the ones available\");\n\n    outcome.shares.holders[msg.sender] = outcome.shares.holders[msg.sender].add(shares);\n\n    outcome.shares.available = outcome.shares.available.sub(shares);\n    market.sharesAvailable = market.sharesAvailable.sub(shares);\n\n    // transaction value is calculated differently if parent action is not buy\n    if (parentAction != MarketAction.buy) {\n      value = shares.mul(getMarketOutcomePrice(marketId, outcomeId)).div(ONE);\n    }\n\n    emit ParticipantAction(msg.sender, MarketAction.buy, marketId, outcomeId, shares, value, now);\n    emitMarketOutcomePriceEvents(marketId);\n  }\n\n  /// Sell shares of a market outcome\n  function sell(\n    uint256 marketId,\n    uint256 outcomeId,\n    uint256 shares\n  ) external payable timeTransitions(marketId) atState(marketId, MarketState.open) {\n    Market storage market = markets[marketId];\n    MarketOutcome storage outcome = market.outcomes[outcomeId];\n\n    // Invariant check: make sure the stake is <= than user's stake\n    require(outcome.shares.holders[msg.sender] >= shares);\n\n    // Invariant check: make sure the market's stake is smaller than the stake\n    require((outcome.shares.total - outcome.shares.available) >= shares);\n\n    // removing shares\n    outcome.shares.holders[msg.sender] = outcome.shares.holders[msg.sender].sub(shares);\n\n    // adding shares back to pool\n    outcome.shares.available = outcome.shares.available.add(shares);\n    market.sharesAvailable = market.sharesAvailable.add(shares);\n\n    uint256 oppositeSharesAvailable = market.sharesAvailable.sub(outcome.shares.available);\n\n    // formula to calculate amount user will receive in ETH\n    // x = 1/2 (-sqrt(a^2 - 2 a (y + z) + 4 b + (y + z)^2) + a + y + z)\n    // x = ETH amount user will receive\n    // y = # shares sold\n    // z = # selling shares available\n    // a = # opposite shares available\n    // b = product balance\n\n    // productBalance = market.liquidity**(market.outcomeIds.length);\n    uint256 value = (oppositeSharesAvailable**2).add((market.liquidity**(market.outcomeIds.length)).mul(4));\n    value = value.add(outcome.shares.available**2);\n    value = value.sub(oppositeSharesAvailable.mul(2).mul(outcome.shares.available));\n    value = PMHelpers.sqrt(value);\n    value = oppositeSharesAvailable.add(outcome.shares.available).sub(value);\n    value = value.div(2);\n\n    require(value >= 0, \"ETH value has to be > 0\");\n\n    // Invariant check: make sure the contract has enough balance to be withdrawn from.\n    require(address(this).balance >= value);\n    require(market.balance >= value);\n\n    // Rebalancing market shares\n    for (uint256 i = 0; i < market.outcomeIds.length; i++) {\n      MarketOutcome storage marketOutcome = market.outcomes[i];\n\n      marketOutcome.shares.available = marketOutcome.shares.available.sub(value);\n      marketOutcome.shares.total = marketOutcome.shares.total.sub(value);\n\n      // only adding to market total shares, the available remains\n      market.sharesAvailable = market.sharesAvailable.sub(value);\n    }\n\n    market.balance = market.balance.sub(value);\n\n    // subtracting fee from transaction value\n    value = addTransactionToFeesPool(marketId, value);\n\n    // 3. Interaction\n    msg.sender.transfer(value);\n\n    emit ParticipantAction(msg.sender, MarketAction.sell, marketId, outcomeId, shares, value, now);\n    emitMarketOutcomePriceEvents(marketId);\n  }\n\n  function addLiquidity(uint256 marketId)\n    external\n    payable\n    timeTransitions(marketId)\n    atState(marketId, MarketState.open)\n  {\n    Market storage market = markets[marketId];\n\n    require(msg.value > 0, \"The stake has to be greater than 0.\");\n\n    // part of the liquidity is exchanged for outcome shares if not 50-50 market\n    // getting liquidity ratio\n    uint256 minShares = MAX_UINT_256;\n    uint256 minOutcomeId;\n    uint256 value;\n\n    for (uint256 i = 0; i < market.outcomeIds.length; i++) {\n      uint256 outcomeId = market.outcomeIds[i];\n      MarketOutcome storage outcome = market.outcomes[outcomeId];\n\n      if (outcome.shares.available < minShares) {\n        minShares = outcome.shares.available;\n        minOutcomeId = outcomeId;\n      }\n    }\n\n    uint256 liquidityRatio = minShares.mul(msg.value).div(market.liquidity);\n\n    // re-balancing fees pool\n    rebalanceFeesPool(marketId, liquidityRatio, MarketAction.addLiquidity);\n\n    market.liquidity = market.liquidity.add(liquidityRatio);\n\n    market.liquidityShares[msg.sender] = market.liquidityShares[msg.sender].add(liquidityRatio);\n\n    // equal outcome split, no need to buy shares\n    if (liquidityRatio == msg.value) {\n      market.balance = market.balance.add(liquidityRatio);\n      for (uint256 i = 0; i < market.outcomeIds.length; i++) {\n        uint256 outcomeId = market.outcomeIds[i];\n        MarketOutcome storage outcome = market.outcomes[outcomeId];\n\n        outcome.shares.available = outcome.shares.available.add(liquidityRatio);\n        outcome.shares.total = outcome.shares.total.add(liquidityRatio);\n\n        market.sharesAvailable = market.sharesAvailable.add(liquidityRatio);\n        value = msg.value;\n      }\n    } else {\n      buy(marketId, minOutcomeId, msg.value, MarketAction.addLiquidity);\n      value = liquidityRatio.mul(getMarketLiquidityPrice(marketId)).div(ONE);\n    }\n\n    emit ParticipantAction(msg.sender, MarketAction.addLiquidity, marketId, 0, liquidityRatio, value, now);\n    emit MarketLiquidity(marketId, market.liquidity, getMarketLiquidityPrice(marketId), now);\n  }\n\n  function removeLiquidity(uint256 marketId, uint256 shares)\n    external\n    payable\n    timeTransitions(marketId)\n    atState(marketId, MarketState.open)\n  {\n    Market storage market = markets[marketId];\n\n    // Invariant check: make sure the stake is <= than user's stake\n    require(market.liquidityShares[msg.sender] >= shares);\n\n    // ETH to transfer to user from liquidity removal\n    uint256 value;\n\n    // claiming any pending fees\n    claimFees(marketId);\n\n    // removing liquidity tokens from market creator\n    market.liquidityShares[msg.sender] = market.liquidityShares[msg.sender].sub(shares);\n\n    // part of the liquidity is exchanged for outcome shares if not 50-50 market\n    // getting liquidity ratio\n    uint256 minShares = MAX_UINT_256;\n    uint256 minOutcomeId;\n\n    for (uint256 i = 0; i < market.outcomeIds.length; i++) {\n      uint256 outcomeId = market.outcomeIds[i];\n      MarketOutcome storage outcome = market.outcomes[outcomeId];\n\n      if (outcome.shares.available < minShares) {\n        minShares = outcome.shares.available;\n        minOutcomeId = outcomeId;\n      }\n    }\n\n    uint256 liquidityRatio = minShares.mul(shares).div(market.liquidity);\n\n    // re-balancing fees pool\n    rebalanceFeesPool(marketId, shares, MarketAction.removeLiquidity);\n\n    // equal outcome split, no need to buy shares\n    if (liquidityRatio == shares) {\n      // removing liquidity from market\n      market.balance = market.balance.sub(liquidityRatio);\n      market.liquidity = market.liquidity.sub(liquidityRatio);\n\n      for (uint256 i = 0; i < market.outcomeIds.length; i++) {\n        uint256 outcomeId = market.outcomeIds[i];\n        MarketOutcome storage outcome = market.outcomes[outcomeId];\n\n        outcome.shares.available = outcome.shares.available.sub(liquidityRatio);\n        outcome.shares.total = outcome.shares.total.sub(liquidityRatio);\n\n        market.sharesAvailable = market.sharesAvailable.sub(liquidityRatio);\n      }\n\n      value = shares;\n    } else {\n      // buying shares from the opposite markets\n      uint256 outcomeId = minOutcomeId == 0 ? 1 : 0;\n\n      // value received: Total Liquidity / Shares Outcome * Liquidity Removed\n      value = market.liquidity.mul(shares).div(market.outcomes[outcomeId].shares.available);\n\n      // removing liquidity from market (shares = value)\n      market.liquidity = market.liquidity.sub(shares);\n\n      buy(marketId, outcomeId, value, MarketAction.removeLiquidity);\n      // msg.sender.transfer(value);\n    }\n\n    // transferring user ETH from liquidity removed\n    msg.sender.transfer(value);\n\n    emit ParticipantAction(msg.sender, MarketAction.removeLiquidity, marketId, 0, shares, value, now);\n    emit MarketLiquidity(marketId, market.liquidity, getMarketLiquidityPrice(marketId), now);\n  }\n\n  /// Determine the result of the market\n  /// @dev Only allowed by oracle\n  /// @return Id of the outcome\n  function resolveMarketOutcome(uint256 marketId)\n    public\n    timeTransitions(marketId)\n    atState(marketId, MarketState.closed)\n    transitionNext(marketId)\n    returns (uint256)\n  {\n    Market storage market = markets[marketId];\n\n    RealitioERC20 realitio = RealitioERC20(realitioAddress);\n    // will throw an error if question is not finalized\n    uint256 outcomeId = uint256(realitio.resultFor(market.resolution.questionId));\n\n    MarketOutcome storage outcome = market.outcomes[outcomeId];\n\n    // TODO: process outcome\n\n    market.resolution.outcomeId = outcomeId;\n\n    emit MarketResolved(msg.sender, marketId, outcomeId, now);\n    // emitting 1 price event for winner outcome\n    emit MarketOutcomePrice(marketId, outcomeId, ONE, now);\n    // emitting 0 price event for loser outcome\n    emit MarketOutcomePrice(marketId, (outcomeId == 0 ? 1 : 0), 0, now);\n    // final liquidity price = outcome shares / liquidity shares\n    uint256 liquidityPrice = outcome.shares.available.mul(ONE).div(market.liquidity);\n    emit MarketLiquidity(marketId, market.liquidity, liquidityPrice, now);\n\n    return market.resolution.outcomeId;\n  }\n\n  /// Allowing holders of resolved outcome shares to claim earnings.\n  function claimWinnings(uint256 marketId) public atState(marketId, MarketState.resolved) {\n    Market storage market = markets[marketId];\n    MarketOutcome storage resolvedOutcome = market.outcomes[market.resolution.outcomeId];\n\n    require(resolvedOutcome.shares.holders[msg.sender] > 0, \"Participant does not hold resolved outcome shares\");\n    require(\n      resolvedOutcome.shares.claims[msg.sender] == false,\n      \"Participant already claimed resolved outcome winnings\"\n    );\n\n    // 1 share = 1 ETH\n    uint256 value = resolvedOutcome.shares.holders[msg.sender];\n\n    // assuring market has enough funds\n    require(market.balance >= value, \"Market does not have enough balance\");\n\n    market.balance = market.balance.sub(value);\n    resolvedOutcome.shares.claims[msg.sender] = true;\n\n    emit ParticipantAction(\n      msg.sender,\n      MarketAction.claimWinnings,\n      marketId,\n      market.resolution.outcomeId,\n      resolvedOutcome.shares.holders[msg.sender],\n      value,\n      now\n    );\n\n    msg.sender.transfer(value);\n  }\n\n  /// Allowing liquidity providers to claim earnings from liquidity providing.\n  function claimLiquidity(uint256 marketId) public atState(marketId, MarketState.resolved) {\n    Market storage market = markets[marketId];\n    MarketOutcome storage resolvedOutcome = market.outcomes[market.resolution.outcomeId];\n\n    // claiming any pending fees\n    claimFees(marketId);\n\n    require(market.liquidityShares[msg.sender] > 0, \"Participant does not hold liquidity shares\");\n    require(market.liquidityClaims[msg.sender] == false, \"Participant already claimed liquidity winnings\");\n\n    // value = total resolved outcome pool shares * pool share (%)\n    uint256 value = resolvedOutcome.shares.available.mul(getUserLiquidityPoolShare(marketId, msg.sender)).div(ONE);\n\n    // assuring market has enough funds\n    require(market.balance >= value, \"Market does not have enough balance\");\n\n    market.balance = market.balance.sub(value);\n    market.liquidityClaims[msg.sender] = true;\n\n    emit ParticipantAction(\n      msg.sender,\n      MarketAction.claimLiquidity,\n      marketId,\n      0,\n      market.liquidityShares[msg.sender],\n      value,\n      now\n    );\n\n    msg.sender.transfer(value);\n  }\n\n  function claimFees(uint256 marketId) public payable {\n    Market storage market = markets[marketId];\n\n    uint256 claimableFees = getUserClaimableFees(marketId, msg.sender);\n\n    if (claimableFees > 0) {\n      market.fees.claimed[msg.sender] = market.fees.claimed[msg.sender].add(claimableFees);\n      msg.sender.transfer(claimableFees);\n    }\n\n    emit ParticipantAction(\n      msg.sender,\n      MarketAction.claimFees,\n      marketId,\n      0,\n      market.liquidityShares[msg.sender],\n      claimableFees,\n      now\n    );\n  }\n\n  function addTransactionToFeesPool(uint256 marketId, uint256 value) internal returns (uint256) {\n    Market storage market = markets[marketId];\n    uint256 feeAmount = value.mul(market.fees.value) / ONE;\n\n    market.fees.poolWeight = market.fees.poolWeight.add(feeAmount);\n\n    // returning investment minus fees\n    return value.sub(feeAmount);\n  }\n\n  function rebalanceFeesPool(\n    uint256 marketId,\n    uint256 liquidityShares,\n    MarketAction action\n  ) internal returns (uint256) {\n    Market storage market = markets[marketId];\n\n    uint256 poolWeight = liquidityShares.mul(market.fees.poolWeight).div(market.liquidity);\n\n    if (action == MarketAction.addLiquidity) {\n      market.fees.poolWeight = market.fees.poolWeight.add(poolWeight);\n      market.fees.claimed[msg.sender] = market.fees.claimed[msg.sender].add(poolWeight);\n    } else {\n      market.fees.poolWeight = market.fees.poolWeight.sub(poolWeight);\n      market.fees.claimed[msg.sender] = market.fees.claimed[msg.sender].sub(poolWeight);\n    }\n  }\n\n  /// Internal function for advancing the market state.\n  function nextState(uint256 marketId) internal {\n    Market storage market = markets[marketId];\n    market.state = MarketState(uint256(market.state) + 1);\n  }\n\n  function emitMarketOutcomePriceEvents(uint256 marketId) internal {\n    Market storage market = markets[marketId];\n\n    for (uint256 i = 0; i < market.outcomeIds.length; i++) {\n      emit MarketOutcomePrice(marketId, i, getMarketOutcomePrice(marketId, i), now);\n    }\n\n    // liquidity shares also change value\n    emit MarketLiquidity(marketId, market.liquidity, getMarketLiquidityPrice(marketId), now);\n  }\n\n  // ------ Core Functions End ------\n\n  // ------ Governance Functions Start ------\n\n  function setFee(uint256 feeValue) public onlyOwner() {\n    fee = feeValue;\n  }\n\n  function setRealitioERC20(address addr) public onlyOwner() {\n    realitioAddress = addr;\n  }\n\n  function setRealitioTimeout(uint256 timeout) public onlyOwner() {\n    realitioTimeout = timeout;\n  }\n\n  // ------ Governance Functions End ------\n\n  // ------ Getters ------\n\n  function getUserMarketShares(uint256 marketId, address participant)\n    public\n    view\n    returns (\n      uint256,\n      uint256,\n      uint256\n    )\n  {\n    Market storage market = markets[marketId];\n\n    return (\n      market.liquidityShares[participant],\n      market.outcomes[0].shares.holders[participant],\n      market.outcomes[1].shares.holders[participant]\n    );\n  }\n\n  function getUserClaimStatus(uint256 marketId, address participant)\n    public\n    view\n    returns (\n      bool,\n      bool,\n      bool,\n      bool,\n      uint256\n    )\n  {\n    Market storage market = markets[marketId];\n\n    // market still not resolved\n    if (market.state != MarketState.resolved) {\n      return (false, false, false, false, getUserClaimableFees(marketId, participant));\n    }\n\n    MarketOutcome storage outcome = market.outcomes[market.resolution.outcomeId];\n\n    return (\n      outcome.shares.holders[participant] > 0,\n      outcome.shares.claims[participant],\n      market.liquidityShares[participant] > 0,\n      market.liquidityClaims[participant],\n      getUserClaimableFees(marketId, participant)\n    );\n  }\n\n  // @return % of liquidity pool stake\n  function getUserLiquidityPoolShare(uint256 marketId, address participant) public view returns (uint256) {\n    Market storage market = markets[marketId];\n\n    return market.liquidityShares[participant].mul(ONE).div(market.liquidity);\n  }\n\n  function getUserClaimableFees(uint256 marketId, address participant) public view returns (uint256) {\n    Market storage market = markets[marketId];\n\n    uint256 rawAmount = market.fees.poolWeight.mul(market.liquidityShares[participant]).div(market.liquidity);\n    return rawAmount.sub(market.fees.claimed[participant]);\n  }\n\n  /// Allow retrieving the the array of created contracts\n  /// @return An array of all created Market contracts\n  function getMarkets() public view returns (uint256[] memory) {\n    return marketIds;\n  }\n\n  function getMarketData(uint256 marketId)\n    public\n    view\n    returns (\n      string memory,\n      MarketState,\n      uint256,\n      uint256,\n      uint256,\n      uint256,\n      int256\n    )\n  {\n    Market storage market = markets[marketId];\n\n    return (\n      market.name,\n      market.state,\n      market.closedDateTime,\n      market.liquidity,\n      market.balance,\n      market.sharesAvailable,\n      getMarketResolvedOutcome(marketId)\n    );\n  }\n\n  function getMarketAltData(uint256 marketId)\n    public\n    view\n    returns (\n      uint256,\n      bytes32,\n      uint256\n    )\n  {\n    Market storage market = markets[marketId];\n\n    return (market.fees.value, market.resolution.questionId, uint256(market.resolution.questionId));\n  }\n\n  function getMarketQuestion(uint256 marketId) public view returns (bytes32) {\n    Market storage market = markets[marketId];\n\n    return (market.resolution.questionId);\n  }\n\n  function getMarketPrices(uint256 marketId)\n    public\n    view\n    returns (\n      uint256,\n      uint256,\n      uint256\n    )\n  {\n    return (getMarketLiquidityPrice(marketId), getMarketOutcomePrice(marketId, 0), getMarketOutcomePrice(marketId, 1));\n  }\n\n  function getMarketLiquidityPrice(uint256 marketId) public view returns (uint256) {\n    Market storage market = markets[marketId];\n\n    if (market.state == MarketState.resolved) {\n      // resolved market, price is either 0 or 1\n      // final liquidity price = outcome shares / liquidity shares\n      return market.outcomes[market.resolution.outcomeId].shares.available.mul(ONE).div(market.liquidity);\n    }\n\n    // liquidity price = # liquidity shares / # outcome shares * # outcomes\n    return market.liquidity.mul(ONE * market.outcomeIds.length).div(market.sharesAvailable);\n  }\n\n  function getMarketResolvedOutcome(uint256 marketId) public view returns (int256) {\n    Market storage market = markets[marketId];\n\n    // returning -1 if market still not resolved\n    if (market.state != MarketState.resolved) {\n      return -1;\n    }\n\n    return int256(market.resolution.outcomeId);\n  }\n\n  // ------ Outcome Getters ------\n\n  function getMarketOutcomeIds(uint256 marketId) public view returns (uint256[] memory) {\n    Market storage market = markets[marketId];\n    return market.outcomeIds;\n  }\n\n  function getMarketOutcomePrice(uint256 marketId, uint256 marketOutcomeId) public view returns (uint256) {\n    Market storage market = markets[marketId];\n    MarketOutcome storage outcome = market.outcomes[marketOutcomeId];\n\n    if (market.state == MarketState.resolved) {\n      // resolved market, price is either 0 or 1\n      return marketOutcomeId == market.resolution.outcomeId ? ONE : 0;\n    }\n\n    require(\n      outcome.shares.total >= outcome.shares.available,\n      \"Total shares has to be equal or higher than available shares\"\n    );\n    require(\n      market.sharesAvailable >= outcome.shares.available,\n      \"Total # available shares has to be equal or higher than outcome available shares\"\n    );\n\n    uint256 holders = market.sharesAvailable.sub(outcome.shares.available);\n\n    return holders.mul(ONE).div(market.sharesAvailable);\n  }\n\n  function getMarketOutcomeData(uint256 marketId, uint256 marketOutcomeId)\n    public\n    view\n    returns (\n      string memory,\n      uint256,\n      uint256,\n      uint256\n    )\n  {\n    Market storage market = markets[marketId];\n    MarketOutcome storage outcome = market.outcomes[marketOutcomeId];\n\n    return (\n      outcome.name,\n      getMarketOutcomePrice(marketId, marketOutcomeId),\n      outcome.shares.available,\n      outcome.shares.total\n    );\n  }\n}\n",
  "sourcePath": "/Users/ricardomarques/dev/workspace/polkamarkets/bepro-js/contracts/PredictionMarket.sol",
  "compiler": {
    "name": "solc",
    "version": "0.6.2+commit.bacdbe57.Emscripten.clang"
  },
  "schemaVersion": "3.3.4",
  "updatedAt": "2021-08-24T19:55:29.627Z",
  "networkType": "ethereum",
  "devdoc": {
    "methods": {
      "createMarket(string,uint256,address,uint256)": {
        "details": "The new Market contract is then saved in the array of this contract for future reference.",
        "params": {
          "closesAt": "- Timestamp of market expiration",
          "oracle": "- Artbitrator address",
          "outcomes": "- Number of outcomes",
          "question": "- Market details: https://reality.eth.link/app/docs/html/contracts.html#how-questions-are-structured"
        }
      },
      "owner()": {
        "details": "Returns the address of the current owner."
      },
      "renounceOwnership()": {
        "details": "Leaves the contract without owner. It will not be possible to call `onlyOwner` functions anymore. Can only be called by the current owner.     * NOTE: Renouncing ownership will leave the contract without an owner, thereby removing any functionality that is only available to the owner."
      },
      "resolveMarketOutcome(uint256)": {
        "details": "Only allowed by oracle",
        "returns": {
          "_0": "Id of the outcome"
        }
      },
      "transferOwnership(address)": {
        "details": "Transfers ownership of the contract to a new account (`newOwner`). Can only be called by the current owner."
      }
    },
    "title": "Market Contract Factory"
  },
  "userdoc": {
    "methods": {
      "claimLiquidity(uint256)": {
        "notice": "Allowing liquidity providers to claim earnings from liquidity providing."
      },
      "claimWinnings(uint256)": {
        "notice": "Allowing holders of resolved outcome shares to claim earnings."
      },
      "createMarket(string,uint256,address,uint256)": {
        "notice": "Create a new Market contract"
      },
      "getMarkets()": {
        "notice": "Allow retrieving the the array of created contracts"
      },
      "resolveMarketOutcome(uint256)": {
        "notice": "Determine the result of the market"
      },
      "sell(uint256,uint256,uint256)": {
        "notice": "Sell shares of a market outcome"
      }
    }
  }
}