{
  "contractName": "PredictionMarket",
  "abi": [
    {
      "constant": true,
      "inputs": [],
      "name": "MAX_UINT_256",
      "outputs": [
        {
          "name": "",
          "type": "uint256"
        }
      ],
      "payable": false,
      "stateMutability": "view",
      "type": "function"
    },
    {
      "constant": true,
      "inputs": [],
      "name": "marketIndex",
      "outputs": [
        {
          "name": "",
          "type": "uint256"
        }
      ],
      "payable": false,
      "stateMutability": "view",
      "type": "function"
    },
    {
      "constant": true,
      "inputs": [],
      "name": "owner",
      "outputs": [
        {
          "name": "",
          "type": "address"
        }
      ],
      "payable": false,
      "stateMutability": "view",
      "type": "function"
    },
    {
      "constant": true,
      "inputs": [
        {
          "name": "",
          "type": "uint256"
        }
      ],
      "name": "markets",
      "outputs": [
        {
          "name": "name",
          "type": "string"
        },
        {
          "name": "closedDateTime",
          "type": "uint256"
        },
        {
          "name": "liquidityTotal",
          "type": "uint256"
        },
        {
          "name": "liquidityAvailable",
          "type": "uint256"
        },
        {
          "name": "sharesTotal",
          "type": "uint256"
        },
        {
          "name": "sharesAvailable",
          "type": "uint256"
        },
        {
          "name": "state",
          "type": "uint8"
        },
        {
          "name": "oracle",
          "type": "address"
        },
        {
          "name": "winner",
          "type": "address"
        }
      ],
      "payable": false,
      "stateMutability": "view",
      "type": "function"
    },
    {
      "constant": false,
      "inputs": [
        {
          "name": "newOwner",
          "type": "address"
        }
      ],
      "name": "transferOwnership",
      "outputs": [],
      "payable": false,
      "stateMutability": "nonpayable",
      "type": "function"
    },
    {
      "inputs": [],
      "payable": false,
      "stateMutability": "nonpayable",
      "type": "constructor"
    },
    {
      "payable": true,
      "stateMutability": "payable",
      "type": "fallback"
    },
    {
      "anonymous": false,
      "inputs": [
        {
          "indexed": true,
          "name": "participant",
          "type": "address"
        },
        {
          "indexed": true,
          "name": "action",
          "type": "uint8"
        },
        {
          "indexed": true,
          "name": "marketId",
          "type": "uint256"
        },
        {
          "indexed": false,
          "name": "outcomeId",
          "type": "uint256"
        },
        {
          "indexed": false,
          "name": "shares",
          "type": "uint256"
        },
        {
          "indexed": false,
          "name": "value",
          "type": "uint256"
        },
        {
          "indexed": false,
          "name": "timestamp",
          "type": "uint256"
        }
      ],
      "name": "ParticipantAction",
      "type": "event"
    },
    {
      "anonymous": false,
      "inputs": [
        {
          "indexed": true,
          "name": "marketId",
          "type": "uint256"
        },
        {
          "indexed": true,
          "name": "outcomeId",
          "type": "uint256"
        },
        {
          "indexed": false,
          "name": "value",
          "type": "uint256"
        },
        {
          "indexed": false,
          "name": "timestamp",
          "type": "uint256"
        }
      ],
      "name": "MarketOutcomePrice",
      "type": "event"
    },
    {
      "anonymous": false,
      "inputs": [
        {
          "indexed": true,
          "name": "marketId",
          "type": "uint256"
        },
        {
          "indexed": false,
          "name": "value",
          "type": "uint256"
        },
        {
          "indexed": false,
          "name": "timestamp",
          "type": "uint256"
        }
      ],
      "name": "MarketLiquidity",
      "type": "event"
    },
    {
      "anonymous": false,
      "inputs": [
        {
          "indexed": true,
          "name": "previousOwner",
          "type": "address"
        },
        {
          "indexed": true,
          "name": "newOwner",
          "type": "address"
        }
      ],
      "name": "OwnershipTransferred",
      "type": "event"
    },
    {
      "constant": false,
      "inputs": [
        {
          "name": "name",
          "type": "string"
        },
        {
          "name": "duration",
          "type": "uint256"
        },
        {
          "name": "oracle",
          "type": "address"
        },
        {
          "name": "outcome1",
          "type": "string"
        },
        {
          "name": "outcome2",
          "type": "string"
        }
      ],
      "name": "createMarket",
      "outputs": [],
      "payable": true,
      "stateMutability": "payable",
      "type": "function"
    },
    {
      "constant": false,
      "inputs": [
        {
          "name": "marketId",
          "type": "uint256"
        },
        {
          "name": "outcomeId",
          "type": "uint256"
        }
      ],
      "name": "buy",
      "outputs": [],
      "payable": true,
      "stateMutability": "payable",
      "type": "function"
    },
    {
      "constant": false,
      "inputs": [
        {
          "name": "marketId",
          "type": "uint256"
        },
        {
          "name": "outcomeId",
          "type": "uint256"
        },
        {
          "name": "shares",
          "type": "uint256"
        }
      ],
      "name": "sell",
      "outputs": [],
      "payable": true,
      "stateMutability": "payable",
      "type": "function"
    },
    {
      "constant": false,
      "inputs": [
        {
          "name": "marketId",
          "type": "uint256"
        }
      ],
      "name": "addLiquidity",
      "outputs": [],
      "payable": true,
      "stateMutability": "payable",
      "type": "function"
    },
    {
      "constant": false,
      "inputs": [
        {
          "name": "marketId",
          "type": "uint256"
        },
        {
          "name": "shares",
          "type": "uint256"
        }
      ],
      "name": "removeLiquidity",
      "outputs": [],
      "payable": true,
      "stateMutability": "payable",
      "type": "function"
    },
    {
      "constant": false,
      "inputs": [
        {
          "name": "marketId",
          "type": "uint256"
        },
        {
          "name": "outcomeId",
          "type": "uint256"
        }
      ],
      "name": "resolveMarketOutcome",
      "outputs": [
        {
          "name": "",
          "type": "address"
        }
      ],
      "payable": false,
      "stateMutability": "nonpayable",
      "type": "function"
    },
    {
      "constant": false,
      "inputs": [
        {
          "name": "marketId",
          "type": "uint256"
        }
      ],
      "name": "winnerWithdraw",
      "outputs": [],
      "payable": false,
      "stateMutability": "nonpayable",
      "type": "function"
    },
    {
      "constant": true,
      "inputs": [
        {
          "name": "marketId",
          "type": "uint256"
        },
        {
          "name": "outcomeId",
          "type": "uint256"
        }
      ],
      "name": "myShares",
      "outputs": [
        {
          "name": "",
          "type": "uint256"
        }
      ],
      "payable": false,
      "stateMutability": "view",
      "type": "function"
    },
    {
      "constant": true,
      "inputs": [
        {
          "name": "marketId",
          "type": "uint256"
        }
      ],
      "name": "myLiquidityShares",
      "outputs": [
        {
          "name": "",
          "type": "uint256"
        }
      ],
      "payable": false,
      "stateMutability": "view",
      "type": "function"
    },
    {
      "constant": true,
      "inputs": [
        {
          "name": "marketId",
          "type": "uint256"
        },
        {
          "name": "participant",
          "type": "address"
        }
      ],
      "name": "getUserMarketShares",
      "outputs": [
        {
          "name": "",
          "type": "uint256"
        },
        {
          "name": "",
          "type": "uint256"
        },
        {
          "name": "",
          "type": "uint256"
        }
      ],
      "payable": false,
      "stateMutability": "view",
      "type": "function"
    },
    {
      "constant": true,
      "inputs": [],
      "name": "getMarkets",
      "outputs": [
        {
          "name": "",
          "type": "uint256[]"
        }
      ],
      "payable": false,
      "stateMutability": "view",
      "type": "function"
    },
    {
      "constant": true,
      "inputs": [
        {
          "name": "marketId",
          "type": "uint256"
        }
      ],
      "name": "getMarketName",
      "outputs": [
        {
          "name": "",
          "type": "string"
        }
      ],
      "payable": false,
      "stateMutability": "view",
      "type": "function"
    },
    {
      "constant": true,
      "inputs": [
        {
          "name": "marketId",
          "type": "uint256"
        }
      ],
      "name": "getMarketClosedDateTime",
      "outputs": [
        {
          "name": "",
          "type": "uint256"
        }
      ],
      "payable": false,
      "stateMutability": "view",
      "type": "function"
    },
    {
      "constant": true,
      "inputs": [
        {
          "name": "marketId",
          "type": "uint256"
        }
      ],
      "name": "getMarketState",
      "outputs": [
        {
          "name": "",
          "type": "uint8"
        }
      ],
      "payable": false,
      "stateMutability": "view",
      "type": "function"
    },
    {
      "constant": true,
      "inputs": [
        {
          "name": "marketId",
          "type": "uint256"
        }
      ],
      "name": "getMarketWinner",
      "outputs": [
        {
          "name": "",
          "type": "address"
        }
      ],
      "payable": false,
      "stateMutability": "view",
      "type": "function"
    },
    {
      "constant": true,
      "inputs": [
        {
          "name": "marketId",
          "type": "uint256"
        }
      ],
      "name": "getMarketOracle",
      "outputs": [
        {
          "name": "",
          "type": "address"
        }
      ],
      "payable": false,
      "stateMutability": "view",
      "type": "function"
    },
    {
      "constant": true,
      "inputs": [
        {
          "name": "marketId",
          "type": "uint256"
        }
      ],
      "name": "getMarketAvailableLiquidity",
      "outputs": [
        {
          "name": "",
          "type": "uint256"
        }
      ],
      "payable": false,
      "stateMutability": "view",
      "type": "function"
    },
    {
      "constant": true,
      "inputs": [
        {
          "name": "marketId",
          "type": "uint256"
        }
      ],
      "name": "getMarketTotalLiquidity",
      "outputs": [
        {
          "name": "",
          "type": "uint256"
        }
      ],
      "payable": false,
      "stateMutability": "view",
      "type": "function"
    },
    {
      "constant": true,
      "inputs": [
        {
          "name": "marketId",
          "type": "uint256"
        }
      ],
      "name": "getMarketTotalShares",
      "outputs": [
        {
          "name": "",
          "type": "uint256"
        }
      ],
      "payable": false,
      "stateMutability": "view",
      "type": "function"
    },
    {
      "constant": true,
      "inputs": [
        {
          "name": "marketId",
          "type": "uint256"
        }
      ],
      "name": "getMarketAvailableShares",
      "outputs": [
        {
          "name": "",
          "type": "uint256"
        }
      ],
      "payable": false,
      "stateMutability": "view",
      "type": "function"
    },
    {
      "constant": true,
      "inputs": [
        {
          "name": "marketId",
          "type": "uint256"
        }
      ],
      "name": "getMarketData",
      "outputs": [
        {
          "name": "",
          "type": "string"
        },
        {
          "name": "",
          "type": "uint8"
        },
        {
          "name": "",
          "type": "uint256"
        },
        {
          "name": "",
          "type": "uint256"
        },
        {
          "name": "",
          "type": "uint256"
        },
        {
          "name": "",
          "type": "uint256"
        }
      ],
      "payable": false,
      "stateMutability": "view",
      "type": "function"
    },
    {
      "constant": true,
      "inputs": [
        {
          "name": "marketId",
          "type": "uint256"
        }
      ],
      "name": "getMarketOutcomeIds",
      "outputs": [
        {
          "name": "",
          "type": "uint256[]"
        }
      ],
      "payable": false,
      "stateMutability": "view",
      "type": "function"
    },
    {
      "constant": true,
      "inputs": [
        {
          "name": "marketId",
          "type": "uint256"
        },
        {
          "name": "marketOutcomeId",
          "type": "uint256"
        }
      ],
      "name": "getMarketOutcomeName",
      "outputs": [
        {
          "name": "",
          "type": "string"
        }
      ],
      "payable": false,
      "stateMutability": "view",
      "type": "function"
    },
    {
      "constant": true,
      "inputs": [
        {
          "name": "marketId",
          "type": "uint256"
        },
        {
          "name": "marketOutcomeId",
          "type": "uint256"
        }
      ],
      "name": "getMarketOutcomePrice",
      "outputs": [
        {
          "name": "",
          "type": "uint256"
        }
      ],
      "payable": false,
      "stateMutability": "view",
      "type": "function"
    },
    {
      "constant": true,
      "inputs": [
        {
          "name": "marketId",
          "type": "uint256"
        },
        {
          "name": "marketOutcomeId",
          "type": "uint256"
        }
      ],
      "name": "getMarketOutcomeAvailableShares",
      "outputs": [
        {
          "name": "",
          "type": "uint256"
        }
      ],
      "payable": false,
      "stateMutability": "view",
      "type": "function"
    },
    {
      "constant": true,
      "inputs": [
        {
          "name": "marketId",
          "type": "uint256"
        },
        {
          "name": "marketOutcomeId",
          "type": "uint256"
        }
      ],
      "name": "getMarketOutcomeTotalShares",
      "outputs": [
        {
          "name": "",
          "type": "uint256"
        }
      ],
      "payable": false,
      "stateMutability": "view",
      "type": "function"
    },
    {
      "constant": true,
      "inputs": [
        {
          "name": "marketId",
          "type": "uint256"
        },
        {
          "name": "marketOutcomeId",
          "type": "uint256"
        }
      ],
      "name": "getMarketOutcomeData",
      "outputs": [
        {
          "name": "",
          "type": "string"
        },
        {
          "name": "",
          "type": "uint256"
        },
        {
          "name": "",
          "type": "uint256"
        },
        {
          "name": "",
          "type": "uint256"
        }
      ],
      "payable": false,
      "stateMutability": "view",
      "type": "function"
    }
  ],
  "bytecode": "0x6080604052600060035534801561001557600080fd5b50336000806101000a81548173ffffffffffffffffffffffffffffffffffffffff021916908373ffffffffffffffffffffffffffffffffffffffff160217905550614642806100656000396000f3fe6080604052600436106101e35760003560e01c80638da5cb5b11610102578063bfacba3d11610095578063d6febde811610064578063d6febde814610f54578063ec2c901614610f8c578063efce431314610ff8578063f2fde38b146110cb576101e3565b8063bfacba3d14610d7b578063cc38d72514610e60578063cef81bc514610eb9578063d3c9727c14610f12576101e3565b8063b1283e77116100d1578063b1283e7714610b18578063b1bbd45314610c6a578063b31eb89514610ca5578063b56e98b114610d22576101e3565b80638da5cb5b146109eb5780639d7de6b314610a42578063a9bcea8314610a7a578063acad4fed14610ac9576101e3565b806367e37c0f1161017a5780638b8ea480116101495780638b8ea480146108645780638c7adc15146109185780638c8d12af146109435780638cd4155214610992576101e3565b806367e37c0f1461067f5780636a69f54c146106ce57806388b1f1c31461074957806388fd5e30146107a6576101e3565b806349aa2390116101b657806349aa23901461053857806351c6590a14610587578063568fe54d146105b55780636605403814610604576101e3565b80632855482e146101e55780632bd81c2a1461026a57806331877a381461047d5780633d41a26b1461050d575b005b3480156101f157600080fd5b506102286004803603604081101561020857600080fd5b81019080803590602001909291908035906020019092919050505061111c565b604051808273ffffffffffffffffffffffffffffffffffffffff1673ffffffffffffffffffffffffffffffffffffffff16815260200191505060405180910390f35b61047b600480360360a081101561028057600080fd5b810190808035906020019064010000000081111561029d57600080fd5b8201836020820111156102af57600080fd5b803590602001918460018302840111640100000000831117156102d157600080fd5b91908080601f016020809104026020016040519081016040528093929190818152602001838380828437600081840152601f19601f82011690508083019250505050505050919291929080359060200190929190803573ffffffffffffffffffffffffffffffffffffffff1690602001909291908035906020019064010000000081111561035e57600080fd5b82018360208201111561037057600080fd5b8035906020019184600183028401116401000000008311171561039257600080fd5b91908080601f016020809104026020016040519081016040528093929190818152602001838380828437600081840152601f19601f820116905080830192505050505050509192919290803590602001906401000000008111156103f557600080fd5b82018360208201111561040757600080fd5b8035906020019184600183028401116401000000008311171561042957600080fd5b91908080601f016020809104026020016040519081016040528093929190818152602001838380828437600081840152601f19601f8201169050808301925050505050505091929192905050506111dd565b005b34801561048957600080fd5b506104b6600480360360208110156104a057600080fd5b8101908080359060200190929190505050611705565b6040518080602001828103825283818151815260200191508051906020019060200280838360005b838110156104f95780820151818401526020810190506104de565b505050509050019250505060405180910390f35b34801561051957600080fd5b50610522611779565b6040518082815260200191505060405180910390f35b34801561054457600080fd5b506105716004803603602081101561055b57600080fd5b810190808035906020019092919050505061179d565b6040518082815260200191505060405180910390f35b6105b36004803603602081101561059d57600080fd5b81019080803590602001909291905050506117c2565b005b3480156105c157600080fd5b506105ee600480360360208110156105d857600080fd5b8101908080359060200190929190505050611c98565b6040518082815260200191505060405180910390f35b34801561061057600080fd5b5061063d6004803603602081101561062757600080fd5b8101908080359060200190929190505050611cbd565b604051808273ffffffffffffffffffffffffffffffffffffffff1673ffffffffffffffffffffffffffffffffffffffff16815260200191505060405180910390f35b34801561068b57600080fd5b506106b8600480360360208110156106a257600080fd5b8101908080359060200190929190505050611d02565b6040518082815260200191505060405180910390f35b3480156106da57600080fd5b50610707600480360360208110156106f157600080fd5b8101908080359060200190929190505050611d27565b604051808273ffffffffffffffffffffffffffffffffffffffff1673ffffffffffffffffffffffffffffffffffffffff16815260200191505060405180910390f35b34801561075557600080fd5b506107826004803603602081101561076c57600080fd5b8101908080359060200190929190505050611d6c565b6040518082600181111561079257fe5b60ff16815260200191505060405180910390f35b3480156107b257600080fd5b506107e9600480360360408110156107c957600080fd5b810190808035906020019092919080359060200190929190505050611d9e565b6040518080602001828103825283818151815260200191508051906020019080838360005b8381101561082957808201518184015260208101905061080e565b50505050905090810190601f1680156108565780820380516001836020036101000a031916815260200191505b509250505060405180910390f35b34801561087057600080fd5b5061089d6004803603602081101561088757600080fd5b8101908080359060200190929190505050611e77565b6040518080602001828103825283818151815260200191508051906020019080838360005b838110156108dd5780820151818401526020810190506108c2565b50505050905090810190601f16801561090a5780820380516001836020036101000a031916815260200191505b509250505060405180910390f35b34801561092457600080fd5b5061092d611f35565b6040518082815260200191505060405180910390f35b34801561094f57600080fd5b5061097c6004803603602081101561096657600080fd5b8101908080359060200190929190505050611f3b565b6040518082815260200191505060405180910390f35b34801561099e57600080fd5b506109d5600480360360408110156109b557600080fd5b810190808035906020019092919080359060200190929190505050611f9d565b6040518082815260200191505060405180910390f35b3480156109f757600080fd5b50610a006120f7565b604051808273ffffffffffffffffffffffffffffffffffffffff1673ffffffffffffffffffffffffffffffffffffffff16815260200191505060405180910390f35b610a7860048036036040811015610a5857600080fd5b81019080803590602001909291908035906020019092919050505061211c565b005b348015610a8657600080fd5b50610ab360048036036020811015610a9d57600080fd5b81019080803590602001909291905050506126ce565b6040518082815260200191505060405180910390f35b348015610ad557600080fd5b50610b0260048036036020811015610aec57600080fd5b81019080803590602001909291905050506126f3565b6040518082815260200191505060405180910390f35b348015610b2457600080fd5b50610b5160048036036020811015610b3b57600080fd5b8101908080359060200190929190505050612718565b60405180806020018a8152602001898152602001888152602001878152602001868152602001856001811115610b8357fe5b60ff1681526020018473ffffffffffffffffffffffffffffffffffffffff1673ffffffffffffffffffffffffffffffffffffffff1681526020018373ffffffffffffffffffffffffffffffffffffffff1673ffffffffffffffffffffffffffffffffffffffff16815260200182810382528b818151815260200191508051906020019080838360005b83811015610c27578082015181840152602081019050610c0c565b50505050905090810190601f168015610c545780820380516001836020036101000a031916815260200191505b509a505050505050505050505060405180910390f35b348015610c7657600080fd5b50610ca360048036036020811015610c8d57600080fd5b810190808035906020019092919050505061284b565b005b348015610cb157600080fd5b50610cfe60048036036040811015610cc857600080fd5b8101908080359060200190929190803573ffffffffffffffffffffffffffffffffffffffff169060200190929190505050612898565b60405180848152602001838152602001828152602001935050505060405180910390f35b348015610d2e57600080fd5b50610d6560048036036040811015610d4557600080fd5b8101908080359060200190929190803590602001909291905050506129b6565b6040518082815260200191505060405180910390f35b348015610d8757600080fd5b50610db460048036036020811015610d9e57600080fd5b8101908080359060200190929190505050612a36565b6040518080602001876001811115610dc857fe5b60ff168152602001868152602001858152602001848152602001838152602001828103825288818151815260200191508051906020019080838360005b83811015610e20578082015181840152602081019050610e05565b50505050905090810190601f168015610e4d5780820380516001836020036101000a031916815260200191505b5097505050505050505060405180910390f35b348015610e6c57600080fd5b50610ea360048036036040811015610e8357600080fd5b810190808035906020019092919080359060200190929190505050612b32565b6040518082815260200191505060405180910390f35b348015610ec557600080fd5b50610efc60048036036040811015610edc57600080fd5b810190808035906020019092919080359060200190929190505050612b75565b6040518082815260200191505060405180910390f35b610f5260048036036060811015610f2857600080fd5b81019080803590602001909291908035906020019092919080359060200190929190505050612bb8565b005b610f8a60048036036040811015610f6a57600080fd5b8101908080359060200190929190803590602001909291905050506134fa565b005b348015610f9857600080fd5b50610fa161350b565b6040518080602001828103825283818151815260200191508051906020019060200280838360005b83811015610fe4578082015181840152602081019050610fc9565b505050509050019250505060405180910390f35b34801561100457600080fd5b5061103b6004803603604081101561101b57600080fd5b810190808035906020019092919080359060200190929190505050613563565b6040518080602001858152602001848152602001838152602001828103825286818151815260200191508051906020019080838360005b8381101561108d578082015181840152602081019050611072565b50505050905090810190601f1680156110ba5780820380516001836020036101000a031916815260200191505b509550505050505060405180910390f35b3480156110d757600080fd5b5061111a600480360360208110156110ee57600080fd5b81019080803573ffffffffffffffffffffffffffffffffffffffff169060200190929190505050613666565b005b60008260026000828152602001908152602001600020600101544211801561117d57506000600181111561114c57fe5b6002600083815260200190815260200160002060060160009054906101000a900460ff16600181111561117b57fe5b145b1561118c5761118b816137b7565b5b83600180600181111561119b57fe5b6002600084815260200190815260200160002060060160009054906101000a900460ff1660018111156111ca57fe5b146111d457600080fd5b50505092915050565b600160035490806001815401808255809150509060018203906000526020600020016000909192909190915055506000600260006003548152602001908152602001600020905061122c614400565b60405180604001604052808581526020018481525090506000341161129c576040517f08c379a00000000000000000000000000000000000000000000000000000000081526004018080602001828103825260238152602001806145836023913960400191505060405180910390fd5b601e8610156112aa57600080fd5b8473ffffffffffffffffffffffffffffffffffffffff168573ffffffffffffffffffffffffffffffffffffffff161461134b576040517f08c379a00000000000000000000000000000000000000000000000000000000081526004018080602001828103825260168152602001807f496e76616c6964206f7261636c6520616464726573730000000000000000000081525060200191505060405180910390fd5b600280146113a4576040517f08c379a00000000000000000000000000000000000000000000000000000000081526004018080602001828103825260218152602001806144f96021913960400191505060405180910390fd5b868260000190805190602001906113bc929190614427565b506113d0864261382190919063ffffffff16565b826001018190555060008260060160006101000a81548160ff021916908360018111156113f957fe5b0217905550848260060160016101000a81548173ffffffffffffffffffffffffffffffffffffffff021916908373ffffffffffffffffffffffffffffffffffffffff160217905550348260020181905550348260030181905550600082600c0160003373ffffffffffffffffffffffffffffffffffffffff1673ffffffffffffffffffffffffffffffffffffffff1681526020019081526020016000205414156115565781600d013390806001815401808255809150509060018203906000526020600020016000909192909190916101000a81548173ffffffffffffffffffffffffffffffffffffffff021916908373ffffffffffffffffffffffffffffffffffffffff16021790555050600182600d01805490500382600b0160003373ffffffffffffffffffffffffffffffffffffffff1673ffffffffffffffffffffffffffffffffffffffff168152602001908152602001600020819055505b6115aa3483600c0160003373ffffffffffffffffffffffffffffffffffffffff1673ffffffffffffffffffffffffffffffffffffffff1681526020019081526020016000205461382190919063ffffffff16565b82600c0160003373ffffffffffffffffffffffffffffffffffffffff1673ffffffffffffffffffffffffffffffffffffffff1681526020019081526020016000208190555060008090505b60028110156116ef5782600e01819080600181540180825580915050906001820390600052602060002001600090919290919091505550600083600f0160008381526020019081526020016000209050600354816000018190555081816001018190555081816002018190555082826002811061166e57fe5b602002015181600301908051906020019061168a929190614427565b503481600401600101819055503481600401600001819055506116ba34856004015461382190919063ffffffff16565b84600401819055506116d934856005015461382190919063ffffffff16565b84600501819055505080806001019150506115f5565b5060016003540160038190555050505050505050565b6060600060026000848152602001908152602001600020905080600e0180548060200260200160405190810160405280929190818152602001828054801561176c57602002820191906000526020600020905b815481526020019060010190808311611758575b5050505050915050919050565b7fffffffffffffffffffffffffffffffffffffffffffffffffffffffffffffffff81565b6000806002600084815260200190815260200160002090508060050154915050919050565b600060026000838152602001908152602001600020905060003411611832576040517f08c379a00000000000000000000000000000000000000000000000000000000081526004018080602001828103825260238152602001806145836023913960400191505060405180910390fd5b60007fffffffffffffffffffffffffffffffffffffffffffffffffffffffffffffffff9050600080600090505b83600e01805490508110156118d157600084600e01828154811061187f57fe5b90600052602060002001549050600085600f016000838152602001908152602001600020905084816004016001015410156118c257806004016001015494508193505b5050808060010191505061185f565b5060006118fd84600301546118ef34866138a990919063ffffffff16565b61392f90919063ffffffff16565b905061191681856003015461382190919063ffffffff16565b8460030181905550600084600c0160003373ffffffffffffffffffffffffffffffffffffffff1673ffffffffffffffffffffffffffffffffffffffff168152602001908152602001600020541415611a215783600d013390806001815401808255809150509060018203906000526020600020016000909192909190916101000a81548173ffffffffffffffffffffffffffffffffffffffff021916908373ffffffffffffffffffffffffffffffffffffffff16021790555050600184600d01805490500384600b0160003373ffffffffffffffffffffffffffffffffffffffff1673ffffffffffffffffffffffffffffffffffffffff168152602001908152602001600020819055505b611a758185600c0160003373ffffffffffffffffffffffffffffffffffffffff1673ffffffffffffffffffffffffffffffffffffffff1681526020019081526020016000205461382190919063ffffffff16565b84600c0160003373ffffffffffffffffffffffffffffffffffffffff1673ffffffffffffffffffffffffffffffffffffffff1681526020019081526020016000208190555034811415611bca57611ad981856002015461382190919063ffffffff16565b846002018190555060008090505b84600e0180549050811015611bc457600085600e018281548110611b0757fe5b90600052602060002001549050600086600f0160008381526020019081526020016000209050611b4784826004016001015461382190919063ffffffff16565b8160040160010181905550611b6c84826004016000015461382190919063ffffffff16565b8160040160000181905550611b8e84886004015461382190919063ffffffff16565b8760040181905550611bad84886005015461382190919063ffffffff16565b876005018190555050508080600101915050611ae7565b50611bd8565b611bd78583346000613979565b5b8460026003811115611be657fe5b3373ffffffffffffffffffffffffffffffffffffffff167ff234ce8a0f255434ef7d62a699a746ee45ac4452531081e609f1556d27faf12c60008534426040518085815260200184815260200183815260200182815260200194505050505060405180910390a4847f085434a259e78ef9c83bca2bf47d2a39606ca6cfcf012f8122df7e0969ae30ec856003015442604051808381526020018281526020019250505060405180910390a25050505050565b6000806002600084815260200190815260200160002090508060030154915050919050565b6000806002600084815260200190815260200160002090508060070160009054906101000a900473ffffffffffffffffffffffffffffffffffffffff16915050919050565b6000806002600084815260200190815260200160002090508060020154915050919050565b6000806002600084815260200190815260200160002090508060060160019054906101000a900473ffffffffffffffffffffffffffffffffffffffff16915050919050565b6000806002600084815260200190815260200160002090508060060160009054906101000a900460ff16915050919050565b60606000600260008581526020019081526020016000209050600081600f0160008581526020019081526020016000209050806003018054600181600116156101000203166002900480601f016020809104026020016040519081016040528092919081815260200182805460018160011615610100020316600290048015611e685780601f10611e3d57610100808354040283529160200191611e68565b820191906000526020600020905b815481529060010190602001808311611e4b57829003601f168201915b50505050509250505092915050565b60606000600260008481526020019081526020016000209050806000018054600181600116156101000203166002900480601f016020809104026020016040519081016040528092919081815260200182805460018160011615610100020316600290048015611f285780601f10611efd57610100808354040283529160200191611f28565b820191906000526020600020905b815481529060010190602001808311611f0b57829003601f168201915b5050505050915050919050565b60035481565b60008060026000848152602001908152602001600020905080600c0160003373ffffffffffffffffffffffffffffffffffffffff1673ffffffffffffffffffffffffffffffffffffffff16815260200190815260200160002054915050919050565b600080600260008581526020019081526020016000209050600081600f0160008581526020019081526020016000209050806004016001015481600401600001541015612035576040517f08c379a000000000000000000000000000000000000000000000000000000000815260040180806020018281038252603c81526020018061451a603c913960400191505060405180910390fd5b806004016001015482600501541015612099576040517f08c379a00000000000000000000000000000000000000000000000000000000081526004018080602001828103825260508152602001806145c76050913960600191505060405180910390fd5b60006120b98260040160010154846005015461414690919063ffffffff16565b90506120ec83600501546120de670de0b6b3a7640000846138a990919063ffffffff16565b61392f90919063ffffffff16565b935050505092915050565b6000809054906101000a900473ffffffffffffffffffffffffffffffffffffffff1681565b60006002600084815260200190815260200160002090508161213d84611f3b565b101561214857600080fd5b600061219e8383600c0160003373ffffffffffffffffffffffffffffffffffffffff1673ffffffffffffffffffffffffffffffffffffffff1681526020019081526020016000205461414690919063ffffffff16565b82600c0160003373ffffffffffffffffffffffffffffffffffffffff1673ffffffffffffffffffffffffffffffffffffffff16815260200190815260200160002081905550600082600c0160003373ffffffffffffffffffffffffffffffffffffffff1673ffffffffffffffffffffffffffffffffffffffff16815260200190815260200160002054141561233b57600082600b0160003373ffffffffffffffffffffffffffffffffffffffff1673ffffffffffffffffffffffffffffffffffffffff16815260200190815260200160002054905082600d0180549050811061228657600080fd5b82600d01600184600d0180549050038154811061229f57fe5b9060005260206000200160009054906101000a900473ffffffffffffffffffffffffffffffffffffffff1683600d0182815481106122d957fe5b9060005260206000200160006101000a81548173ffffffffffffffffffffffffffffffffffffffff021916908373ffffffffffffffffffffffffffffffffffffffff16021790555082600d0180548091906001900361233891906144a7565b50505b60007fffffffffffffffffffffffffffffffffffffffffffffffffffffffffffffffff9050600080600090505b84600e01805490508110156123da57600085600e01828154811061238857fe5b90600052602060002001549050600086600f016000838152602001908152602001600020905084816004016001015410156123cb57806004016001015494508193505b50508080600101915050612368565b50600061240685600301546123f888866138a990919063ffffffff16565b61392f90919063ffffffff16565b90508581141561253a5761242781866002015461414690919063ffffffff16565b856002018190555061244681866003015461414690919063ffffffff16565b856003018190555060008090505b85600e018054905081101561253157600086600e01828154811061247457fe5b90600052602060002001549050600087600f01600083815260200190815260200160002090506124b484826004016001015461414690919063ffffffff16565b81600401600101819055506124d984826004016000015461414690919063ffffffff16565b81600401600001819055506124fb84896004015461414690919063ffffffff16565b886004018190555061251a84896005015461414690919063ffffffff16565b886005018190555050508080600101915050612454565b508593506125c6565b600080831461254a57600061254d565b60015b60ff16905061259686600f016000838152602001908152602001600020600401600101546125888989600301546138a990919063ffffffff16565b61392f90919063ffffffff16565b94506125af87876003015461414690919063ffffffff16565b86600301819055506125c48882876001613979565b505b3373ffffffffffffffffffffffffffffffffffffffff166108fc859081150290604051600060405180830381858888f1935050505015801561260c573d6000803e3d6000fd5b508660038081111561261a57fe5b3373ffffffffffffffffffffffffffffffffffffffff167ff234ce8a0f255434ef7d62a699a746ee45ac4452531081e609f1556d27faf12c60008a89426040518085815260200184815260200183815260200182815260200194505050505060405180910390a4867f085434a259e78ef9c83bca2bf47d2a39606ca6cfcf012f8122df7e0969ae30ec866003015442604051808381526020018281526020019250505060405180910390a250505050505050565b6000806002600084815260200190815260200160002090508060040154915050919050565b6000806002600084815260200190815260200160002090508060010154915050919050565b6002602052806000526040600020600091509050806000018054600181600116156101000203166002900480601f0160208091040260200160405190810160405280929190818152602001828054600181600116156101000203166002900480156127c45780601f10612799576101008083540402835291602001916127c4565b820191906000526020600020905b8154815290600101906020018083116127a757829003601f168201915b5050505050908060010154908060020154908060030154908060040154908060050154908060060160009054906101000a900460ff16908060060160019054906101000a900473ffffffffffffffffffffffffffffffffffffffff16908060070160009054906101000a900473ffffffffffffffffffffffffffffffffffffffff16905089565b80600180600181111561285a57fe5b6002600084815260200190815260200160002060060160009054906101000a900460ff16600181111561288957fe5b1461289357600080fd5b505050565b60008060008060026000878152602001908152602001600020905080600c0160008673ffffffffffffffffffffffffffffffffffffffff1673ffffffffffffffffffffffffffffffffffffffff1681526020019081526020016000205481600f01600080815260200190815260200160002060040160020160008773ffffffffffffffffffffffffffffffffffffffff1673ffffffffffffffffffffffffffffffffffffffff1681526020019081526020016000205482600f0160006001815260200190815260200160002060040160020160008873ffffffffffffffffffffffffffffffffffffffff1673ffffffffffffffffffffffffffffffffffffffff16815260200190815260200160002054935093509350509250925092565b600080600260008581526020019081526020016000209050600081600f01600085815260200190815260200160002090508060040160020160003373ffffffffffffffffffffffffffffffffffffffff1673ffffffffffffffffffffffffffffffffffffffff168152602001908152602001600020549250505092915050565b6060600080600080600080600260008981526020019081526020016000209050806000018160060160009054906101000a900460ff168260010154836003015484600201548560050154858054600181600116156101000203166002900480601f016020809104026020016040519081016040528092919081815260200182805460018160011615610100020316600290048015612b155780601f10612aea57610100808354040283529160200191612b15565b820191906000526020600020905b815481529060010190602001808311612af857829003601f168201915b505050505095509650965096509650965096505091939550919395565b600080600260008581526020019081526020016000209050600081600f016000858152602001908152602001600020905080600401600101549250505092915050565b600080600260008581526020019081526020016000209050600081600f016000858152602001908152602001600020905080600401600001549250505092915050565b82600260008281526020019081526020016000206001015442118015612c17575060006001811115612be657fe5b6002600083815260200190815260200160002060060160009054906101000a900460ff166001811115612c1557fe5b145b15612c2657612c25816137b7565b5b836000806001811115612c3557fe5b6002600084815260200190815260200160002060060160009054906101000a900460ff166001811115612c6457fe5b14612c6e57600080fd5b858533600060026000858152602001908152602001600020600f01600084815260200190815260200160002060040160020160008373ffffffffffffffffffffffffffffffffffffffff1673ffffffffffffffffffffffffffffffffffffffff1681526020019081526020016000205411612ce857600080fd5b6000600260008b81526020019081526020016000209050600081600f0160008b8152602001908152602001600020905088612d238c8c6129b6565b1015612d2e57600080fd5b8881600401600101548260040160000154031015612d4b57600080fd5b612da2898260040160020160003373ffffffffffffffffffffffffffffffffffffffff1673ffffffffffffffffffffffffffffffffffffffff1681526020019081526020016000205461414690919063ffffffff16565b8160040160020160003373ffffffffffffffffffffffffffffffffffffffff1673ffffffffffffffffffffffffffffffffffffffff16815260200190815260200160002081905550612e3e898360090160003373ffffffffffffffffffffffffffffffffffffffff1673ffffffffffffffffffffffffffffffffffffffff1681526020019081526020016000205461414690919063ffffffff16565b8260090160003373ffffffffffffffffffffffffffffffffffffffff1673ffffffffffffffffffffffffffffffffffffffff1681526020019081526020016000208190555060008260090160003373ffffffffffffffffffffffffffffffffffffffff1673ffffffffffffffffffffffffffffffffffffffff168152602001908152602001600020541415612fdb5760008260080160003373ffffffffffffffffffffffffffffffffffffffff1673ffffffffffffffffffffffffffffffffffffffff16815260200190815260200160002054905082600a01805490508110612f2657600080fd5b82600a01600184600a01805490500381548110612f3f57fe5b9060005260206000200160009054906101000a900473ffffffffffffffffffffffffffffffffffffffff1683600a018281548110612f7957fe5b9060005260206000200160006101000a81548173ffffffffffffffffffffffffffffffffffffffff021916908373ffffffffffffffffffffffffffffffffffffffff16021790555082600a01805480919060019003612fd891906144a7565b50505b60008160040160020160003373ffffffffffffffffffffffffffffffffffffffff1673ffffffffffffffffffffffffffffffffffffffff1681526020019081526020016000205414156131485760008160040160030160003373ffffffffffffffffffffffffffffffffffffffff1673ffffffffffffffffffffffffffffffffffffffff1681526020019081526020016000205490508160040160040180549050811061308757600080fd5b816004016004016001836004016004018054905003815481106130a657fe5b9060005260206000200160009054906101000a900473ffffffffffffffffffffffffffffffffffffffff168260040160040182815481106130e357fe5b9060005260206000200160006101000a81548173ffffffffffffffffffffffffffffffffffffffff021916908373ffffffffffffffffffffffffffffffffffffffff1602179055508160040160040180548091906001900361314591906144a7565b50505b61316289826004016001015461382190919063ffffffff16565b816004016001018190555061318489836005015461382190919063ffffffff16565b826005018190555060006131ac8260040160010154846005015461414690919063ffffffff16565b905060006131e66131d4600486600e018054905087600301540a6138a990919063ffffffff16565b6002840a61382190919063ffffffff16565b9050613205600284600401600101540a8261382190919063ffffffff16565b905061324661323784600401600101546132296002866138a990919063ffffffff16565b6138a990919063ffffffff16565b8261414690919063ffffffff16565b905061325181614190565b905061327f8161327185600401600101548561382190919063ffffffff16565b61414690919063ffffffff16565b905061329560028261392f90919063ffffffff16565b9050600081101561330e576040517f08c379a00000000000000000000000000000000000000000000000000000000081526004018080602001828103825260178152602001807f4554482076616c75652068617320746f206265203e203000000000000000000081525060200191505060405180910390fd5b803073ffffffffffffffffffffffffffffffffffffffff1631101561333257600080fd5b808460020154101561334357600080fd5b60008090505b84600e018054905081101561340757600085600f016000838152602001908152602001600020905061338b83826004016001015461414690919063ffffffff16565b81600401600101819055506133b083826004016000015461414690919063ffffffff16565b81600401600001819055506133d283876004015461414690919063ffffffff16565b86600401819055506133f183876005015461414690919063ffffffff16565b8660050181905550508080600101915050613349565b5061341f81856002015461414690919063ffffffff16565b84600201819055503373ffffffffffffffffffffffffffffffffffffffff166108fc829081150290604051600060405180830381858888f1935050505015801561346d573d6000803e3d6000fd5b508c6001600381111561347c57fe5b3373ffffffffffffffffffffffffffffffffffffffff167ff234ce8a0f255434ef7d62a699a746ee45ac4452531081e609f1556d27faf12c8f8f86426040518085815260200184815260200183815260200182815260200194505050505060405180910390a46134eb8d6141f2565b50505050505050505050505050565b6135078282346000613979565b5050565b6060600180548060200260200160405190810160405280929190818152602001828054801561355957602002820191906000526020600020905b815481526020019060010190808311613545575b5050505050905090565b6060600080600080600260008881526020019081526020016000209050600081600f0160008881526020019081526020016000209050806003016135a78989611f9d565b82600401600101548360040160000154838054600181600116156101000203166002900480601f01602080910402602001604051908101604052809291908181526020018280546001816001161561010002031660029004801561364c5780601f106136215761010080835404028352916020019161364c565b820191906000526020600020905b81548152906001019060200180831161362f57829003601f168201915b505050505093509550955095509550505092959194509250565b6000809054906101000a900473ffffffffffffffffffffffffffffffffffffffff1673ffffffffffffffffffffffffffffffffffffffff163373ffffffffffffffffffffffffffffffffffffffff16146136bf57600080fd5b600073ffffffffffffffffffffffffffffffffffffffff168173ffffffffffffffffffffffffffffffffffffffff1614156136f957600080fd5b8073ffffffffffffffffffffffffffffffffffffffff166000809054906101000a900473ffffffffffffffffffffffffffffffffffffffff1673ffffffffffffffffffffffffffffffffffffffff167f8be0079c531659141344cd1fd0a4f28419497f9722a3daafe3b4186f6b6457e060405160405180910390a3806000806101000a81548173ffffffffffffffffffffffffffffffffffffffff021916908373ffffffffffffffffffffffffffffffffffffffff16021790555050565b600060026000838152602001908152602001600020905060018160060160009054906101000a900460ff1660018111156137ed57fe5b0160018111156137f957fe5b8160060160006101000a81548160ff0219169083600181111561381857fe5b02179055505050565b60008082840190508381101561389f576040517f08c379a000000000000000000000000000000000000000000000000000000000815260040180806020018281038252601b8152602001807f536166654d6174683a206164646974696f6e206f766572666c6f77000000000081525060200191505060405180910390fd5b8091505092915050565b6000808314156138bc5760009050613929565b60008284029050828482816138cd57fe5b0414613924576040517f08c379a00000000000000000000000000000000000000000000000000000000081526004018080602001828103825260218152602001806145a66021913960400191505060405180910390fd5b809150505b92915050565b600061397183836040518060400160405280601a81526020017f536166654d6174683a206469766973696f6e206279207a65726f00000000000081525061427a565b905092915050565b836002600082815260200190815260200160002060010154421180156139d85750600060018111156139a757fe5b6002600083815260200190815260200160002060060160009054906101000a900460ff1660018111156139d657fe5b145b156139e7576139e6816137b7565b5b8460008060018111156139f657fe5b6002600084815260200190815260200160002060060160009054906101000a900460ff166001811115613a2557fe5b14613a2f57600080fd5b6000600260008981526020019081526020016000209050600081600f016000898152602001908152602001600020905085613a8057613a7b87836002015461382190919063ffffffff16565b613a98565b613a9787836002015461414690919063ffffffff16565b5b826002018190555060006001905060008090505b83600e0180549050811015613c1457600084600f016000838152602001908152602001600020905088613af857613af38a826004016001015461382190919063ffffffff16565b613b13565b613b128a826004016001015461414690919063ffffffff16565b5b816004016001018190555088613b4257613b3d8a826004016000015461382190919063ffffffff16565b613b5d565b613b5c8a826004016000015461414690919063ffffffff16565b5b8160040160000181905550613b828160040160010154846138a990919063ffffffff16565b925088613ba557613ba08a866004015461382190919063ffffffff16565b613bbd565b613bbc8a866004015461414690919063ffffffff16565b5b856004018190555088613be657613be18a866005015461382190919063ffffffff16565b613bfe565b613bfd8a866005015461414690919063ffffffff16565b5b8560050181905550508080600101915050613aac565b506000613c5082613c4286600e018054905087600301540a86600401600101546138a990919063ffffffff16565b61392f90919063ffffffff16565b836004016001015403905060008111613cd1576040517f08c379a000000000000000000000000000000000000000000000000000000000815260040180806020018281038252600a8152602001807f43616e277420626520300000000000000000000000000000000000000000000081525060200191505060405180910390fd5b8083600401600101541015613d31576040517f08c379a000000000000000000000000000000000000000000000000000000000815260040180806020018281038252602d815260200180614556602d913960400191505060405180910390fd5b60008460090160003373ffffffffffffffffffffffffffffffffffffffff1673ffffffffffffffffffffffffffffffffffffffff168152602001908152602001600020541415613e345783600a013390806001815401808255809150509060018203906000526020600020016000909192909190916101000a81548173ffffffffffffffffffffffffffffffffffffffff021916908373ffffffffffffffffffffffffffffffffffffffff16021790555050600184600a0180549050038460080160003373ffffffffffffffffffffffffffffffffffffffff1673ffffffffffffffffffffffffffffffffffffffff168152602001908152602001600020819055505b60008360040160020160003373ffffffffffffffffffffffffffffffffffffffff1673ffffffffffffffffffffffffffffffffffffffff168152602001908152602001600020541415613f4057826004016004013390806001815401808255809150509060018203906000526020600020016000909192909190916101000a81548173ffffffffffffffffffffffffffffffffffffffff021916908373ffffffffffffffffffffffffffffffffffffffff16021790555050600184600a0180549050038360040160030160003373ffffffffffffffffffffffffffffffffffffffff1673ffffffffffffffffffffffffffffffffffffffff168152602001908152602001600020819055505b613f97818460040160020160003373ffffffffffffffffffffffffffffffffffffffff1673ffffffffffffffffffffffffffffffffffffffff1681526020019081526020016000205461382190919063ffffffff16565b8360040160020160003373ffffffffffffffffffffffffffffffffffffffff1673ffffffffffffffffffffffffffffffffffffffff16815260200190815260200160002081905550614033818560090160003373ffffffffffffffffffffffffffffffffffffffff1673ffffffffffffffffffffffffffffffffffffffff1681526020019081526020016000205461382190919063ffffffff16565b8460090160003373ffffffffffffffffffffffffffffffffffffffff1673ffffffffffffffffffffffffffffffffffffffff1681526020019081526020016000208190555061409281846004016001015461414690919063ffffffff16565b83600401600101819055506140b481856005015461414690919063ffffffff16565b84600501819055508a600060038111156140ca57fe5b3373ffffffffffffffffffffffffffffffffffffffff167ff234ce8a0f255434ef7d62a699a746ee45ac4452531081e609f1556d27faf12c8d858e426040518085815260200184815260200183815260200182815260200194505050505060405180910390a46141398b6141f2565b5050505050505050505050565b600061418883836040518060400160405280601e81526020017f536166654d6174683a207375627472616374696f6e206f766572666c6f770000815250614340565b905092915050565b600060038211156141df5781905060006001600284816141ac57fe5b040190505b818110156141d9578091506002818285816141c857fe5b0401816141d157fe5b0490506141b1565b506141ed565b600082146141ec57600190505b5b919050565b600060026000838152602001908152602001600020905060008090505b81600e01805490508110156142755780837f8270f0a0534b13b7f92d1dbd58aa75c5207b40c55fefa7a17110c6136ad7270b61424b8685611f9d565b42604051808381526020018281526020019250505060405180910390a3808060010191505061420f565b505050565b60008083118290614326576040517f08c379a00000000000000000000000000000000000000000000000000000000081526004018080602001828103825283818151815260200191508051906020019080838360005b838110156142eb5780820151818401526020810190506142d0565b50505050905090810190601f1680156143185780820380516001836020036101000a031916815260200191505b509250505060405180910390fd5b50600083858161433257fe5b049050809150509392505050565b60008383111582906143ed576040517f08c379a00000000000000000000000000000000000000000000000000000000081526004018080602001828103825283818151815260200191508051906020019080838360005b838110156143b2578082015181840152602081019050614397565b50505050905090810190601f1680156143df5780820380516001836020036101000a031916815260200191505b509250505060405180910390fd5b5060008385039050809150509392505050565b60405180604001604052806002905b606081526020019060019003908161440f5790505090565b828054600181600116156101000203166002900490600052602060002090601f016020900481019282601f1061446857805160ff1916838001178555614496565b82800160010185558215614496579182015b8281111561449557825182559160200191906001019061447a565b5b5090506144a391906144d3565b5090565b8154818355818111156144ce578183600052602060002091820191016144cd91906144d3565b5b505050565b6144f591905b808211156144f15760008160009055506001016144d9565b5090565b9056fe4e756d626572206d61726b6574206f7574636f6d652068617320746f2062652032546f74616c207368617265732068617320746f20626520657175616c206f7220686967686572207468616e20617661696c61626c652073686172657343616e277420627579206d6f726520736861726573207468616e20746865206f6e657320617661696c61626c65546865207374616b652068617320746f2062652067726561746572207468616e20302e536166654d6174683a206d756c7469706c69636174696f6e206f766572666c6f77546f74616c202320617661696c61626c65207368617265732068617320746f20626520657175616c206f7220686967686572207468616e206f7574636f6d6520617661696c61626c6520736861726573a165627a7a723058202ade585f4d5f15cf808640b68480adaed9101b6e4e41b6ad97156b066a57cc1a0029",
  "source": "pragma solidity 0.5.8;\n\n// File: openzeppelin-solidity/contracts/ownership/Ownable.sol\n\n/**\n * @title Ownable\n * @dev The Ownable contract has an owner address, and provides basic authorization control\n * functions, this simplifies the implementation of \"user permissions\".\n */\ncontract Ownable {\n    address public owner;\n    event OwnershipTransferred(address indexed previousOwner, address indexed newOwner);\n\n\n    /**\n    * @dev The Ownable constructor sets the original `owner` of the contract to the sender\n    * account.\n    */\n    constructor() public {\n        owner = msg.sender;\n    }\n\n    /**\n    * @dev Throws if called by any account other than the owner.\n    */\n    modifier onlyOwner() {\n        require(msg.sender == owner);\n        _;\n    }\n\n    /**\n    * @dev Allows the current owner to transfer control of the contract to a newOwner.\n    * @param newOwner The address to transfer ownership to.\n    */\n    function transferOwnership(address newOwner) public onlyOwner {\n        require(newOwner != address(0));\n        emit OwnershipTransferred(owner, newOwner);\n        owner = newOwner;\n    }\n}\n\n// File: openzeppelin-solidity/contracts/math/SafeMath.sol\";\n\n/**\n * @dev Wrappers over Solidity's arithmetic operations with added overflow\n * checks.\n *\n * Arithmetic operations in Solidity wrap on overflow. This can easily result\n * in bugs, because programmers usually assume that an overflow raises an\n * error, which is the standard behavior in high level programming languages.\n * `SafeMath` restores this intuition by reverting the transaction when an\n * operation overflows.\n *\n * Using this library instead of the unchecked operations eliminates an entire\n * class of bugs, so it's recommended to use it always.\n */\nlibrary SafeMath {\n    /**\n     * @dev Returns the addition of two unsigned integers, reverting on\n     * overflow.\n     *\n     * Counterpart to Solidity's `+` operator.\n     *\n     * Requirements:\n     * - Addition cannot overflow.\n     */\n    function add(uint256 a, uint256 b) internal pure returns (uint256) {\n        uint256 c = a + b;\n        require(c >= a, \"SafeMath: addition overflow\");\n\n        return c;\n    }\n\n    /**\n     * @dev Returns the subtraction of two unsigned integers, reverting on\n     * overflow (when the result is negative).\n     *\n     * Counterpart to Solidity's `-` operator.\n     *\n     * Requirements:\n     * - Subtraction cannot overflow.\n     */\n    function sub(uint256 a, uint256 b) internal pure returns (uint256) {\n        return sub(a, b, \"SafeMath: subtraction overflow\");\n    }\n\n    /**\n     * @dev Returns the subtraction of two unsigned integers, reverting with custom message on\n     * overflow (when the result is negative).\n     *\n     * Counterpart to Solidity's `-` operator.\n     *\n     * Requirements:\n     * - Subtraction cannot overflow.\n     *\n     * _Available since v2.4.0._\n     */\n    function sub(uint256 a, uint256 b, string memory errorMessage) internal pure returns (uint256) {\n        require(b <= a, errorMessage);\n        uint256 c = a - b;\n\n        return c;\n    }\n\n    /**\n     * @dev Returns the multiplication of two unsigned integers, reverting on\n     * overflow.\n     *\n     * Counterpart to Solidity's `*` operator.\n     *\n     * Requirements:\n     * - Multiplication cannot overflow.\n     */\n    function mul(uint256 a, uint256 b) internal pure returns (uint256) {\n        // Gas optimization: this is cheaper than requiring 'a' not being zero, but the\n        // benefit is lost if 'b' is also tested.\n        // See: https://github.com/OpenZeppelin/openzeppelin-contracts/pull/522\n        if (a == 0) {\n            return 0;\n        }\n\n        uint256 c = a * b;\n        require(c / a == b, \"SafeMath: multiplication overflow\");\n\n        return c;\n    }\n\n    /**\n     * @dev Returns the integer division of two unsigned integers. Reverts on\n     * division by zero. The result is rounded towards zero.\n     *\n     * Counterpart to Solidity's `/` operator. Note: this function uses a\n     * `revert` opcode (which leaves remaining gas untouched) while Solidity\n     * uses an invalid opcode to revert (consuming all remaining gas).\n     *\n     * Requirements:\n     * - The divisor cannot be zero.\n     */\n    function div(uint256 a, uint256 b) internal pure returns (uint256) {\n        return div(a, b, \"SafeMath: division by zero\");\n    }\n\n    /**\n     * @dev Returns the integer division of two unsigned integers. Reverts with custom message on\n     * division by zero. The result is rounded towards zero.\n     *\n     * Counterpart to Solidity's `/` operator. Note: this function uses a\n     * `revert` opcode (which leaves remaining gas untouched) while Solidity\n     * uses an invalid opcode to revert (consuming all remaining gas).\n     *\n     * Requirements:\n     * - The divisor cannot be zero.\n     *\n     * _Available since v2.4.0._\n     */\n    function div(uint256 a, uint256 b, string memory errorMessage) internal pure returns (uint256) {\n        // Solidity only automatically asserts when dividing by 0\n        require(b > 0, errorMessage);\n        uint256 c = a / b;\n        // assert(a == b * c + a % b); // There is no case in which this doesn't hold\n\n        return c;\n    }\n\n    /**\n     * @dev Returns the remainder of dividing two unsigned integers. (unsigned integer modulo),\n     * Reverts when dividing by zero.\n     *\n     * Counterpart to Solidity's `%` operator. This function uses a `revert`\n     * opcode (which leaves remaining gas untouched) while Solidity uses an\n     * invalid opcode to revert (consuming all remaining gas).\n     *\n     * Requirements:\n     * - The divisor cannot be zero.\n     */\n    function mod(uint256 a, uint256 b) internal pure returns (uint256) {\n        return mod(a, b, \"SafeMath: modulo by zero\");\n    }\n\n    /**\n     * @dev Returns the remainder of dividing two unsigned integers. (unsigned integer modulo),\n     * Reverts with custom message when dividing by zero.\n     *\n     * Counterpart to Solidity's `%` operator. This function uses a `revert`\n     * opcode (which leaves remaining gas untouched) while Solidity uses an\n     * invalid opcode to revert (consuming all remaining gas).\n     *\n     * Requirements:\n     * - The divisor cannot be zero.\n     *\n     * _Available since v2.4.0._\n     */\n    function mod(uint256 a, uint256 b, string memory errorMessage) internal pure returns (uint256) {\n        require(b != 0, errorMessage);\n        return a % b;\n    }\n}\n\n/// @title Market Contract Factory\ncontract PredictionMarket is Ownable {\n  using SafeMath for uint;\n\n  // ------ Events ------\n\n  event ParticipantAction(\n    address indexed participant,\n    MarketAction indexed action,\n    uint indexed marketId,\n    uint outcomeId,\n    uint shares,\n    uint value,\n    uint timestamp\n  );\n\n  event MarketOutcomePrice(\n    uint indexed marketId,\n    uint indexed outcomeId,\n    uint value,\n    uint timestamp\n  );\n\n  event MarketLiquidity(\n    uint indexed marketId,\n    uint value,\n    uint timestamp\n  );\n\n  // ------ Events End ------\n\n\n  // Market closed time has to be at least 30 secs from current.\n  uint constant MIN_DURATION = 30;\n\n  uint256 constant public MAX_UINT_256 = 115792089237316195423570985008687907853269984665640564039457584007913129639935;\n\n  enum MarketState { open, closed }\n  enum MarketAction { buy, sell, addLiquidity, removeLiquidity }\n\n  struct Market {\n    string name;\n    uint closedDateTime;\n\n    uint liquidityTotal; // total stake (ETH)\n    uint liquidityAvailable; // stake held (ETH)\n\n    uint sharesTotal; // total shares (all outcomes)\n    uint sharesAvailable; // shares held (all outcomes)\n\n    MarketState state;\n\n    address oracle;\n    address winner;\n\n    mapping(address => uint) holdersIndexes;\n    mapping(address => uint) holdersShares;\n    address[] holders;\n\n    mapping(address => uint) liquidityIndexes;\n    mapping(address => uint) liquidityShares;\n    address[] liquidityHolders;\n\n    // market outcomes\n    uint[] outcomeIds;\n    mapping(uint256 => MarketOutcome) outcomes;\n  }\n\n  struct MarketOutcome {\n    uint marketId;\n    uint256 index;\n    uint256 id;\n    string name;\n    Shares shares;\n  }\n\n  struct Shares {\n    uint256 total; // number of shares\n    uint256 available; // available shares\n\n    mapping(address => uint) holdersShares;\n    mapping(address => uint) holdersIndexes;\n    address[] holders;\n\n    // TODO: fees\n  }\n\n  // struct MarketHoldings {\n  //   address participant; // number of shares\n\n  //   mapping(uint => bool) hasInteracted; // mapping for indexes in the  marketIds array\n  //   mapping(uint => uint) marketIndexes; // mapping for indexes in the  marketIds array\n  //   uint[] marketIds; // markets the participant holds/held positions in\n  //   uint[] liquitityShares; // liquidity shares participant holds/held positions in\n  //   uint[][2] outcomeShares; // outcomes shares participant holds/held positions in\n  // }\n\n  uint[] marketIds;\n  mapping(uint256 => Market) public markets;\n  uint public marketIndex = 0;\n  // mapping(address => MarketHoldings) public marketHoldings;\n\n  // ------ Modifiers ------\n\n  modifier isMarket(uint marketId) {\n    require(marketId < marketIndex);\n    _;\n  }\n\n  modifier timeTransitions(uint marketId) {\n    if (now > markets[marketId].closedDateTime && markets[marketId].state == MarketState.open) {\n      nextState(marketId);\n    }\n    _;\n  }\n\n  modifier atState(uint marketId, MarketState state) {\n    require(markets[marketId].state == state);\n    _;\n  }\n\n  modifier notAtState(uint marketId, MarketState state) {\n    require(markets[marketId].state != state);\n    _;\n  }\n\n  modifier onlyBy(address addr) {\n    require(addr != address(0) && addr == msg.sender);\n    _;\n  }\n\n  modifier participantHasShares(uint marketId, uint outcomeId, address sender) {\n    require(markets[marketId].outcomes[outcomeId].shares.holdersShares[sender] > 0);\n    _;\n  }\n\n  modifier transitionNext(uint marketId) {\n    _;\n    nextState(marketId);\n  }\n\n  // ------ Modifiers End ------\n\n  /// Empty constructor\n  constructor() public {\n  }\n\n  /// Fallback function does nothing\n  function () external payable {\n  }\n\n  // ------ Core Functions ------\n\n  /// Create a new Market contract\n  /// @dev The new Market contract is then saved in the array of this contract for future reference.\n  /// @param name - Name of the market\n  /// @param duration - The duration of the market `open` period\n  /// @param oracle - oracle address\n  function createMarket(\n    string memory name, uint duration, address oracle, string memory outcome1, string memory outcome2\n  )\n  public payable\n  {\n    marketIds.push(marketIndex);\n\n    Market storage market = markets[marketIndex];\n\n    string[2] memory outcomes = [outcome1, outcome2];\n\n    require(msg.value > 0, \"The stake has to be greater than 0.\");\n    require(duration >= MIN_DURATION);\n    require(oracle == address(oracle), \"Invalid oracle address\");\n    // starting with secondary markets\n    require(outcomes.length == 2, \"Number market outcome has to be 2\");\n\n    market.name = name;\n    market.closedDateTime = now.add(duration);\n    market.state = MarketState.open;\n    market.oracle = oracle;\n\n    market.liquidityTotal = msg.value;\n    market.liquidityAvailable = msg.value;\n\n    // adding liquidity tokens to market creator\n    if (market.liquidityShares[msg.sender] == 0) {\n      market.liquidityHolders.push(msg.sender);\n      market.liquidityIndexes[msg.sender] = market.liquidityHolders.length - 1;\n    }\n\n    // TODO review: only valid for 50-50 start\n    market.liquidityShares[msg.sender] = market.liquidityShares[msg.sender].add(msg.value);\n\n    // creating market outcomes\n    for (uint i = 0; i < outcomes.length; i++) {\n      market.outcomeIds.push(i);\n      MarketOutcome storage outcome = market.outcomes[i];\n\n      outcome.marketId = marketIndex;\n      outcome.index = i;\n      outcome.id = i;\n      outcome.name = outcomes[i];\n\n      // TODO review: only valid for 50-50 start\n      // price starts at .5 ETH\n      outcome.shares.available = msg.value;\n      outcome.shares.total = msg.value;\n\n      market.sharesTotal = market.sharesTotal.add(msg.value);\n      market.sharesAvailable = market.sharesAvailable.add(msg.value);\n    }\n\n    marketIndex = marketIndex + 1;\n  }\n\n  function buy(uint marketId, uint outcomeId) public payable {\n    buy(marketId, outcomeId, msg.value, false);\n  }\n\n  /// Buy shares of a market outcome\n  function buy(uint marketId, uint outcomeId, uint value, bool subShares) internal\n    timeTransitions(marketId)\n    atState(marketId, MarketState.open)\n  {\n    Market storage market = markets[marketId];\n\n    MarketOutcome storage outcome = market.outcomes[outcomeId];\n    market.liquidityTotal = subShares ? market.liquidityTotal.sub(value) : market.liquidityTotal.add(value);\n\n    uint newProductBalance = 1;\n\n    // Funding market shares with received ETH\n    for (uint i = 0; i < market.outcomeIds.length; i++) {\n      MarketOutcome storage marketOutcome = market.outcomes[i];\n\n      marketOutcome.shares.available = subShares ? marketOutcome.shares.available.sub(value) : marketOutcome.shares.available.add(value);\n      marketOutcome.shares.total = subShares ? marketOutcome.shares.total.sub(value) : marketOutcome.shares.total.add(value);\n\n      newProductBalance = newProductBalance.mul(marketOutcome.shares.available);\n\n      // only adding to market total shares, the available remains\n      market.sharesTotal = subShares ? market.sharesTotal.sub(value) : market.sharesTotal.add(value);\n      market.sharesAvailable = subShares ? market.sharesAvailable.sub(value) : market.sharesAvailable.add(value);\n    }\n\n    // productBalance = market.liquidityAvailable**(market.outcomeIds.length);\n    // newSharesAvailable = outcome.shares.available.mul(productBalance).div(newProductBalance);\n    uint shares = outcome.shares.available - outcome.shares.available.mul(market.liquidityAvailable**(market.outcomeIds.length)).div(newProductBalance);\n\n    require(shares > 0, \"Can't be 0\");\n    require(outcome.shares.available >= shares, \"Can't buy more shares than the ones available\");\n\n    // new participant, push into the array\n    if (market.holdersShares[msg.sender] == 0) {\n      market.holders.push(msg.sender);\n      market.holdersIndexes[msg.sender] = market.holders.length - 1;\n    }\n\n    // doing it for both market and market outcomes\n    if (outcome.shares.holdersShares[msg.sender] == 0) {\n      outcome.shares.holders.push(msg.sender);\n      outcome.shares.holdersIndexes[msg.sender] = market.holders.length - 1;\n    }\n\n    outcome.shares.holdersShares[msg.sender] = outcome.shares.holdersShares[msg.sender].add(shares);\n    market.holdersShares[msg.sender] = market.holdersShares[msg.sender].add(shares);\n\n    outcome.shares.available = outcome.shares.available.sub(shares);\n    market.sharesAvailable = market.sharesAvailable.sub(shares);\n\n    emit ParticipantAction(msg.sender, MarketAction.buy, marketId, outcomeId, shares, value, now);\n    emitMarketOutcomePriceEvents(marketId);\n  }\n\n  /// Sell shares of a market outcome\n  function sell(uint marketId, uint outcomeId, uint shares) public payable\n    timeTransitions(marketId)\n    atState(marketId, MarketState.open)\n    participantHasShares(marketId, outcomeId, msg.sender)\n  {\n    Market storage market = markets[marketId];\n    MarketOutcome storage outcome = market.outcomes[outcomeId];\n\n    // Invariant check: make sure the stake is <= than user's stake\n    require(myShares(marketId, outcomeId) >= shares);\n\n    // Invariant check: make sure the market's stake is smaller than the stake\n    require((outcome.shares.total - outcome.shares.available) >= shares);\n\n    // removing shares\n    outcome.shares.holdersShares[msg.sender] = outcome.shares.holdersShares[msg.sender].sub(shares);\n    market.holdersShares[msg.sender] = market.holdersShares[msg.sender].sub(shares);\n\n    // removing participant from participants list\n    if (market.holdersShares[msg.sender] == 0) {\n      uint index = market.holdersIndexes[msg.sender];\n      require(index < market.holders.length);\n      market.holders[index] = market.holders[market.holders.length-1];\n      market.holders.length--;\n    }\n\n    // doing it for both market and market outcomes\n    if (outcome.shares.holdersShares[msg.sender] == 0) {\n      uint index = outcome.shares.holdersIndexes[msg.sender];\n      require(index < outcome.shares.holders.length);\n      outcome.shares.holders[index] = outcome.shares.holders[outcome.shares.holders.length-1];\n      outcome.shares.holders.length--;\n    }\n\n    // adding shares back to pool\n    outcome.shares.available = outcome.shares.available.add(shares);\n    market.sharesAvailable = market.sharesAvailable.add(shares);\n\n    uint oppositeSharesAvailable = market.sharesAvailable.sub(outcome.shares.available);\n\n    // formula to calculate amount user will receive in ETH\n    // x = 1/2 (-sqrt(a^2 - 2 a (y + z) + 4 b + (y + z)^2) + a + y + z)\n    // x = ETH amount user will receive\n    // y = # shares sold\n    // z = # selling shares available\n    // a = # opposite shares available\n    // b = product balance\n\n    // productBalance = market.liquidityAvailable**(market.outcomeIds.length);\n    uint value = (oppositeSharesAvailable**2).add((market.liquidityAvailable**(market.outcomeIds.length)).mul(4));\n    value = value.add(outcome.shares.available**2);\n    value = value.sub(oppositeSharesAvailable.mul(2).mul(outcome.shares.available));\n    value = sqrt(value);\n    value = oppositeSharesAvailable.add(outcome.shares.available).sub(value);\n    value = value.div(2);\n\n    require(value >= 0, \"ETH value has to be > 0\");\n\n    // // Invariant check: make sure the contract has enough balance to be withdrawn from.\n    require(address(this).balance >= value);\n    require(market.liquidityTotal >= value);\n\n    // Rebalancing market shares\n    for (uint i = 0; i < market.outcomeIds.length; i++) {\n      MarketOutcome storage marketOutcome = market.outcomes[i];\n\n      marketOutcome.shares.available = marketOutcome.shares.available.sub(value);\n      marketOutcome.shares.total = marketOutcome.shares.total.sub(value);\n\n      // only adding to market total shares, the available remains\n      market.sharesTotal = market.sharesTotal.sub(value);\n      market.sharesAvailable = market.sharesAvailable.sub(value);\n    }\n\n    market.liquidityTotal = market.liquidityTotal.sub(value);\n\n    // 3. Interaction\n    msg.sender.transfer(value);\n\n    emit ParticipantAction(msg.sender, MarketAction.sell, marketId, outcomeId, shares, value, now);\n    emitMarketOutcomePriceEvents(marketId);\n  }\n\n  function addLiquidity(uint marketId) public payable {\n    Market storage market = markets[marketId];\n\n    require(msg.value > 0, \"The stake has to be greater than 0.\");\n\n    // part of the liquidity is exchanged for outcome shares if not 50-50 market\n    // getting liquidity ratio\n    uint minShares = MAX_UINT_256;\n    uint minOutcomeId;\n\n    for (uint i = 0; i < market.outcomeIds.length; i++) {\n      uint outcomeId = market.outcomeIds[i];\n      MarketOutcome storage outcome = market.outcomes[outcomeId];\n\n      if (outcome.shares.available < minShares) {\n        minShares = outcome.shares.available;\n        minOutcomeId = outcomeId;\n      }\n    }\n\n    uint liquidityRatio = minShares.mul(msg.value).div(market.liquidityAvailable);\n\n    market.liquidityAvailable = market.liquidityAvailable.add(liquidityRatio);\n\n    // adding liquidity tokens to market creator\n    if (market.liquidityShares[msg.sender] == 0) {\n      market.liquidityHolders.push(msg.sender);\n      market.liquidityIndexes[msg.sender] = market.liquidityHolders.length - 1;\n    }\n\n    market.liquidityShares[msg.sender] = market.liquidityShares[msg.sender].add(liquidityRatio);\n\n    // equal outcome split, no need to buy shares\n    if (liquidityRatio == msg.value) {\n      market.liquidityTotal = market.liquidityTotal.add(liquidityRatio);\n      for (uint i = 0; i < market.outcomeIds.length; i++) {\n        uint outcomeId = market.outcomeIds[i];\n        MarketOutcome storage outcome = market.outcomes[outcomeId];\n\n        outcome.shares.available = outcome.shares.available.add(liquidityRatio);\n        outcome.shares.total = outcome.shares.total.add(liquidityRatio);\n\n        market.sharesTotal = market.sharesTotal.add(liquidityRatio);\n        market.sharesAvailable = market.sharesAvailable.add(liquidityRatio);\n      }\n    } else {\n      buy(marketId, minOutcomeId, msg.value, false);\n    }\n\n    emit ParticipantAction(msg.sender, MarketAction.addLiquidity, marketId, 0, liquidityRatio, msg.value, now);\n    emit MarketLiquidity(marketId, market.liquidityAvailable, now);\n  }\n\n  function removeLiquidity(uint marketId, uint shares) public payable {\n    Market storage market = markets[marketId];\n\n    // Invariant check: make sure the stake is <= than user's stake\n    require(myLiquidityShares(marketId) >= shares);\n\n    // ETH to transfer to user from liquidity removal\n    uint value;\n\n    // removing liquidity tokens from market creator\n    market.liquidityShares[msg.sender] = market.liquidityShares[msg.sender].sub(shares);\n\n    if (market.liquidityShares[msg.sender] == 0) {\n      uint index = market.liquidityIndexes[msg.sender];\n      require(index < market.liquidityHolders.length);\n      market.liquidityHolders[index] = market.liquidityHolders[market.liquidityHolders.length-1];\n      market.liquidityHolders.length--;\n    }\n\n    // part of the liquidity is exchanged for outcome shares if not 50-50 market\n    // getting liquidity ratio\n    uint minShares = MAX_UINT_256;\n    uint minOutcomeId;\n\n    for (uint i = 0; i < market.outcomeIds.length; i++) {\n      uint outcomeId = market.outcomeIds[i];\n      MarketOutcome storage outcome = market.outcomes[outcomeId];\n\n      if (outcome.shares.available < minShares) {\n        minShares = outcome.shares.available;\n        minOutcomeId = outcomeId;\n      }\n    }\n\n    uint liquidityRatio = minShares.mul(shares).div(market.liquidityAvailable);\n\n    // equal outcome split, no need to buy shares\n    if (liquidityRatio == shares) {\n      // removing liquidity from market\n      market.liquidityTotal = market.liquidityTotal.sub(liquidityRatio);\n      market.liquidityAvailable = market.liquidityAvailable.sub(liquidityRatio);\n\n      for (uint i = 0; i < market.outcomeIds.length; i++) {\n        uint outcomeId = market.outcomeIds[i];\n        MarketOutcome storage outcome = market.outcomes[outcomeId];\n\n        outcome.shares.available = outcome.shares.available.sub(liquidityRatio);\n        outcome.shares.total = outcome.shares.total.sub(liquidityRatio);\n\n        market.sharesTotal = market.sharesTotal.sub(liquidityRatio);\n        market.sharesAvailable = market.sharesAvailable.sub(liquidityRatio);\n      }\n\n      value = shares;\n    } else {\n      // buying shares from the opposite markets\n      uint outcomeId = minOutcomeId == 0 ? 1 : 0;\n\n      // value received: Total Liquidity / Shares Outcome * Liquidity Removed\n      value = market.liquidityAvailable.mul(shares).div(market.outcomes[outcomeId].shares.available);\n\n      // removing liquidity from market (shares = value)\n      market.liquidityAvailable = market.liquidityAvailable.sub(shares);\n\n      buy(marketId, outcomeId, value, true);\n      // msg.sender.transfer(value);\n    }\n\n    // transferring user ETH from liquidity removed\n    msg.sender.transfer(value);\n\n    emit ParticipantAction(msg.sender, MarketAction.removeLiquidity, marketId, 0, shares, value, now);\n    emit MarketLiquidity(marketId, market.liquidityAvailable, now);\n  }\n\n  /// Determine the winner of the market, actual algorithm is delegated to an internal function\n  /// @dev Purposefully make this function allowed to be run by anybody, not just the contract owner.\n  /// @return Address of the winner\n  function resolveMarketOutcome(uint marketId, uint outcomeId) public\n    timeTransitions(marketId)\n    atState(marketId, MarketState.closed)\n    returns(address)\n  {\n    // TODO\n  }\n\n\n  /// Allowing winner to withdraw money.\n  /// @dev in order to prevent withrawal address is a malicious contract, we use check-effect-interaction pattern inside.\n  function winnerWithdraw(uint marketId) public\n    atState(marketId, MarketState.closed)\n  {\n    // TOODO\n  }\n\n  /// Internal function for advancing the market state.\n  function nextState(uint marketId) internal {\n    Market storage market = markets[marketId];\n    market.state = MarketState(uint(market.state) + 1);\n  }\n\n  function emitMarketOutcomePriceEvents(\n    uint marketId\n  ) internal {\n    Market storage market = markets[marketId];\n\n    for (uint i = 0; i < market.outcomeIds.length; i++) {\n      emit MarketOutcomePrice(marketId, i, getMarketOutcomePrice(marketId, i), now);\n    }\n  }\n\n  // ------ Core Functions End ------\n\n  // ------ Getters ------\n\n  /// @return stake of the `msg.sender` in the market outcome\n  function myShares(uint marketId, uint outcomeId) public view returns(uint) {\n    Market storage market = markets[marketId];\n    MarketOutcome storage outcome = market.outcomes[outcomeId];\n\n    return outcome.shares.holdersShares[msg.sender];\n  }\n\n  // @return liquidity stake of the `msg.sender` in the market\n  function myLiquidityShares(uint marketId) public view returns(uint) {\n    Market storage market = markets[marketId];\n\n    return market.liquidityShares[msg.sender];\n  }\n\n  function getUserMarketShares(uint marketId, address participant)\n    public view\n    returns(\n      uint,\n      uint,\n      uint\n    )\n  {\n    Market storage market = markets[marketId];\n\n    return (\n      market.liquidityShares[participant],\n      market.outcomes[0].shares.holdersShares[participant],\n      market.outcomes[1].shares.holdersShares[participant]\n    );\n  }\n\n  /// Allow retrieving the the array of created contracts\n  /// @return An array of all created Market contracts\n  function getMarkets() public view returns(uint[] memory) {\n    return marketIds;\n  }\n\n  function getMarketName(uint marketId) public view returns(string memory) {\n    Market storage market = markets[marketId];\n    return market.name;\n  }\n\n  function getMarketClosedDateTime(uint marketId) public view returns(uint) {\n    Market storage market = markets[marketId];\n    return market.closedDateTime;\n  }\n\n  function getMarketState(uint marketId) public view returns(MarketState) {\n    Market storage market = markets[marketId];\n    return market.state;\n  }\n\n  function getMarketWinner(uint marketId) public view returns(address) {\n    Market storage market = markets[marketId];\n    return market.winner;\n  }\n\n  function getMarketOracle(uint marketId) public view returns(address) {\n    Market storage market = markets[marketId];\n    return market.oracle;\n  }\n\n  function getMarketAvailableLiquidity(uint marketId) public view returns(uint) {\n    Market storage market = markets[marketId];\n    return market.liquidityAvailable;\n  }\n\n  function getMarketTotalLiquidity(uint marketId) public view returns(uint) {\n    Market storage market = markets[marketId];\n    return market.liquidityTotal;\n  }\n\n  function getMarketTotalShares(uint marketId) public view returns(uint) {\n    Market storage market = markets[marketId];\n    return market.sharesTotal;\n  }\n\n  function getMarketAvailableShares(uint marketId) public view returns(uint) {\n    Market storage market = markets[marketId];\n    return market.sharesAvailable;\n  }\n\n  function getMarketData(uint marketId)\n    public view\n    returns(\n      string memory,\n      MarketState,\n      uint,\n      uint,\n      uint,\n      uint\n    )\n  {\n    Market storage market = markets[marketId];\n\n    return (\n      market.name,\n      market.state,\n      market.closedDateTime,\n      market.liquidityAvailable,\n      market.liquidityTotal,\n      market.sharesAvailable\n    );\n  }\n\n  // ------ Outcome Getters ------\n\n  function getMarketOutcomeIds(uint marketId) public view returns(uint[] memory) {\n    Market storage market = markets[marketId];\n    return market.outcomeIds;\n  }\n\n  function getMarketOutcomeName(uint marketId, uint marketOutcomeId) public view returns(string memory) {\n    Market storage market = markets[marketId];\n    MarketOutcome storage outcome = market.outcomes[marketOutcomeId];\n\n    return outcome.name;\n  }\n\n  function getMarketOutcomePrice(uint marketId, uint marketOutcomeId) public view returns(uint) {\n    Market storage market = markets[marketId];\n    MarketOutcome storage outcome = market.outcomes[marketOutcomeId];\n\n    require(outcome.shares.total >= outcome.shares.available, \"Total shares has to be equal or higher than available shares\");\n    require(market.sharesAvailable >= outcome.shares.available, \"Total # available shares has to be equal or higher than outcome available shares\");\n\n    uint holdersShares = market.sharesAvailable.sub(outcome.shares.available);\n\n    return holdersShares.mul(10**18).div(market.sharesAvailable);\n  }\n\n  function getMarketOutcomeAvailableShares(uint marketId, uint marketOutcomeId) public view returns(uint) {\n    Market storage market = markets[marketId];\n    MarketOutcome storage outcome = market.outcomes[marketOutcomeId];\n\n    return outcome.shares.available;\n  }\n\n  function getMarketOutcomeTotalShares(uint marketId, uint marketOutcomeId) public view returns(uint) {\n    Market storage market = markets[marketId];\n    MarketOutcome storage outcome = market.outcomes[marketOutcomeId];\n\n    return outcome.shares.total;\n  }\n\n  function getMarketOutcomeData(uint marketId, uint marketOutcomeId)\n    public view\n    returns(\n      string memory,\n      uint,\n      uint,\n      uint\n    )\n  {\n    Market storage market = markets[marketId];\n    MarketOutcome storage outcome = market.outcomes[marketOutcomeId];\n\n    return (\n      outcome.name,\n      getMarketOutcomePrice(marketId, marketOutcomeId),\n      outcome.shares.available,\n      outcome.shares.total\n    );\n  }\n\n  // ------ Getters ------\n\n  // TODO: move to library\n  // fetched from uniswap: https://github.com/Uniswap/uniswap-v2-core/blob/v1.0.1/contracts/libraries/Math.sol\n  // babylonian method (https://en.wikipedia.org/wiki/Methods_of_computing_square_roots#Babylonian_method)\n  function sqrt(uint y) internal pure returns (uint z) {\n    if (y > 3) {\n      z = y;\n      uint x = y / 2 + 1;\n      while (x < z) {\n        z = x;\n        x = (y / x + x) / 2;\n      }\n    } else if (y != 0) {\n      z = 1;\n    }\n  }\n}\n",
  "sourcePath": "/Users/ricardomarques/dev/workspace/polkamarkets/bepro-js/contracts/PredictionMarket.sol",
  "compiler": {
    "name": "solc",
    "version": "0.5.8+commit.23d335f2.Emscripten.clang"
  },
  "schemaVersion": "3.3.4",
  "updatedAt": "2021-04-12T03:44:29.937Z",
  "networkType": "ethereum",
  "devdoc": {
    "methods": {
      "createMarket(string,uint256,address,string,string)": {
        "details": "The new Market contract is then saved in the array of this contract for future reference.",
        "params": {
          "duration": "- The duration of the market `open` period",
          "name": "- Name of the market",
          "oracle": "- oracle address"
        }
      },
      "getMarkets()": {
        "return": "An array of all created Market contracts"
      },
      "myShares(uint256,uint256)": {
        "return": "stake of the `msg.sender` in the market outcome"
      },
      "resolveMarketOutcome(uint256,uint256)": {
        "details": "Purposefully make this function allowed to be run by anybody, not just the contract owner.",
        "return": "Address of the winner"
      },
      "transferOwnership(address)": {
        "details": "Allows the current owner to transfer control of the contract to a newOwner.",
        "params": {
          "newOwner": "The address to transfer ownership to."
        }
      },
      "winnerWithdraw(uint256)": {
        "details": "in order to prevent withrawal address is a malicious contract, we use check-effect-interaction pattern inside."
      }
    },
    "title": "Market Contract Factory"
  },
  "userdoc": {
    "methods": {
      "constructor": "Empty constructor",
      "createMarket(string,uint256,address,string,string)": {
        "notice": "Create a new Market contract"
      },
      "getMarkets()": {
        "notice": "Allow retrieving the the array of created contracts"
      },
      "resolveMarketOutcome(uint256,uint256)": {
        "notice": "Determine the winner of the market, actual algorithm is delegated to an internal function"
      },
      "sell(uint256,uint256,uint256)": {
        "notice": "Sell shares of a market outcome"
      },
      "winnerWithdraw(uint256)": {
        "notice": "Allowing winner to withdraw money."
      }
    }
  }
}