{
  "contractName": "PredictionMarket",
  "abi": [
    {
      "anonymous": false,
      "inputs": [
        {
          "indexed": true,
          "internalType": "uint256",
          "name": "marketId",
          "type": "uint256"
        },
        {
          "indexed": false,
          "internalType": "uint256",
          "name": "value",
          "type": "uint256"
        },
        {
          "indexed": false,
          "internalType": "uint256",
          "name": "price",
          "type": "uint256"
        },
        {
          "indexed": false,
          "internalType": "uint256",
          "name": "timestamp",
          "type": "uint256"
        }
      ],
      "name": "MarketLiquidity",
      "type": "event"
    },
    {
      "anonymous": false,
      "inputs": [
        {
          "indexed": true,
          "internalType": "uint256",
          "name": "marketId",
          "type": "uint256"
        },
        {
          "indexed": true,
          "internalType": "uint256",
          "name": "outcomeId",
          "type": "uint256"
        },
        {
          "indexed": false,
          "internalType": "uint256",
          "name": "value",
          "type": "uint256"
        },
        {
          "indexed": false,
          "internalType": "uint256",
          "name": "timestamp",
          "type": "uint256"
        }
      ],
      "name": "MarketOutcomePrice",
      "type": "event"
    },
    {
      "anonymous": false,
      "inputs": [
        {
          "indexed": true,
          "internalType": "address",
          "name": "oracle",
          "type": "address"
        },
        {
          "indexed": true,
          "internalType": "uint256",
          "name": "marketId",
          "type": "uint256"
        },
        {
          "indexed": false,
          "internalType": "uint256",
          "name": "outcomeId",
          "type": "uint256"
        },
        {
          "indexed": false,
          "internalType": "uint256",
          "name": "timestamp",
          "type": "uint256"
        }
      ],
      "name": "MarketResolved",
      "type": "event"
    },
    {
      "anonymous": false,
      "inputs": [
        {
          "indexed": true,
          "internalType": "address",
          "name": "previousOwner",
          "type": "address"
        },
        {
          "indexed": true,
          "internalType": "address",
          "name": "newOwner",
          "type": "address"
        }
      ],
      "name": "OwnershipTransferred",
      "type": "event"
    },
    {
      "anonymous": false,
      "inputs": [
        {
          "indexed": true,
          "internalType": "address",
          "name": "participant",
          "type": "address"
        },
        {
          "indexed": true,
          "internalType": "enum PredictionMarket.MarketAction",
          "name": "action",
          "type": "uint8"
        },
        {
          "indexed": true,
          "internalType": "uint256",
          "name": "marketId",
          "type": "uint256"
        },
        {
          "indexed": false,
          "internalType": "uint256",
          "name": "outcomeId",
          "type": "uint256"
        },
        {
          "indexed": false,
          "internalType": "uint256",
          "name": "shares",
          "type": "uint256"
        },
        {
          "indexed": false,
          "internalType": "uint256",
          "name": "value",
          "type": "uint256"
        },
        {
          "indexed": false,
          "internalType": "uint256",
          "name": "timestamp",
          "type": "uint256"
        }
      ],
      "name": "ParticipantAction",
      "type": "event"
    },
    {
      "inputs": [],
      "name": "MAX_UINT_256",
      "outputs": [
        {
          "internalType": "uint256",
          "name": "",
          "type": "uint256"
        }
      ],
      "stateMutability": "view",
      "type": "function",
      "constant": true
    },
    {
      "inputs": [],
      "name": "ONE",
      "outputs": [
        {
          "internalType": "uint256",
          "name": "",
          "type": "uint256"
        }
      ],
      "stateMutability": "view",
      "type": "function",
      "constant": true
    },
    {
      "inputs": [],
      "name": "fee",
      "outputs": [
        {
          "internalType": "uint256",
          "name": "",
          "type": "uint256"
        }
      ],
      "stateMutability": "view",
      "type": "function",
      "constant": true
    },
    {
      "inputs": [],
      "name": "marketIndex",
      "outputs": [
        {
          "internalType": "uint256",
          "name": "",
          "type": "uint256"
        }
      ],
      "stateMutability": "view",
      "type": "function",
      "constant": true
    },
    {
      "inputs": [],
      "name": "owner",
      "outputs": [
        {
          "internalType": "address",
          "name": "",
          "type": "address"
        }
      ],
      "stateMutability": "view",
      "type": "function",
      "constant": true
    },
    {
      "inputs": [],
      "name": "realitioAddress",
      "outputs": [
        {
          "internalType": "address",
          "name": "",
          "type": "address"
        }
      ],
      "stateMutability": "view",
      "type": "function",
      "constant": true
    },
    {
      "inputs": [],
      "name": "realitioTimeout",
      "outputs": [
        {
          "internalType": "uint256",
          "name": "",
          "type": "uint256"
        }
      ],
      "stateMutability": "view",
      "type": "function",
      "constant": true
    },
    {
      "inputs": [],
      "name": "renounceOwnership",
      "outputs": [],
      "stateMutability": "nonpayable",
      "type": "function"
    },
    {
      "inputs": [
        {
          "internalType": "address",
          "name": "newOwner",
          "type": "address"
        }
      ],
      "name": "transferOwnership",
      "outputs": [],
      "stateMutability": "nonpayable",
      "type": "function"
    },
    {
      "inputs": [],
      "name": "initialize",
      "outputs": [],
      "stateMutability": "nonpayable",
      "type": "function"
    },
    {
      "inputs": [
        {
          "internalType": "string",
          "name": "name",
          "type": "string"
        },
        {
          "internalType": "uint256",
          "name": "closesAt",
          "type": "uint256"
        },
        {
          "internalType": "address",
          "name": "oracle",
          "type": "address"
        },
        {
          "internalType": "string",
          "name": "outcome1Name",
          "type": "string"
        },
        {
          "internalType": "string",
          "name": "outcome2Name",
          "type": "string"
        }
      ],
      "name": "createMarket",
      "outputs": [
        {
          "internalType": "uint256",
          "name": "",
          "type": "uint256"
        }
      ],
      "stateMutability": "payable",
      "type": "function",
      "payable": true
    },
    {
      "inputs": [
        {
          "internalType": "string",
          "name": "name",
          "type": "string"
        },
        {
          "internalType": "uint256",
          "name": "closesAt",
          "type": "uint256"
        },
        {
          "internalType": "address",
          "name": "oracle",
          "type": "address"
        },
        {
          "internalType": "string[]",
          "name": "outcomes",
          "type": "string[]"
        }
      ],
      "name": "createMarket",
      "outputs": [
        {
          "internalType": "uint256",
          "name": "",
          "type": "uint256"
        }
      ],
      "stateMutability": "payable",
      "type": "function",
      "payable": true
    },
    {
      "inputs": [
        {
          "internalType": "uint256",
          "name": "marketId",
          "type": "uint256"
        },
        {
          "internalType": "uint256",
          "name": "outcomeId",
          "type": "uint256"
        }
      ],
      "name": "buy",
      "outputs": [],
      "stateMutability": "payable",
      "type": "function",
      "payable": true
    },
    {
      "inputs": [
        {
          "internalType": "uint256",
          "name": "marketId",
          "type": "uint256"
        },
        {
          "internalType": "uint256",
          "name": "outcomeId",
          "type": "uint256"
        },
        {
          "internalType": "uint256",
          "name": "shares",
          "type": "uint256"
        }
      ],
      "name": "sell",
      "outputs": [],
      "stateMutability": "payable",
      "type": "function",
      "payable": true
    },
    {
      "inputs": [
        {
          "internalType": "uint256",
          "name": "marketId",
          "type": "uint256"
        }
      ],
      "name": "addLiquidity",
      "outputs": [],
      "stateMutability": "payable",
      "type": "function",
      "payable": true
    },
    {
      "inputs": [
        {
          "internalType": "uint256",
          "name": "marketId",
          "type": "uint256"
        },
        {
          "internalType": "uint256",
          "name": "shares",
          "type": "uint256"
        }
      ],
      "name": "removeLiquidity",
      "outputs": [],
      "stateMutability": "payable",
      "type": "function",
      "payable": true
    },
    {
      "inputs": [
        {
          "internalType": "uint256",
          "name": "marketId",
          "type": "uint256"
        }
      ],
      "name": "resolveMarketOutcome",
      "outputs": [
        {
          "internalType": "uint256",
          "name": "",
          "type": "uint256"
        }
      ],
      "stateMutability": "nonpayable",
      "type": "function"
    },
    {
      "inputs": [
        {
          "internalType": "uint256",
          "name": "marketId",
          "type": "uint256"
        }
      ],
      "name": "claimWinnings",
      "outputs": [],
      "stateMutability": "nonpayable",
      "type": "function"
    },
    {
      "inputs": [
        {
          "internalType": "uint256",
          "name": "marketId",
          "type": "uint256"
        }
      ],
      "name": "claimLiquidity",
      "outputs": [],
      "stateMutability": "nonpayable",
      "type": "function"
    },
    {
      "inputs": [
        {
          "internalType": "uint256",
          "name": "marketId",
          "type": "uint256"
        }
      ],
      "name": "claimFees",
      "outputs": [],
      "stateMutability": "payable",
      "type": "function",
      "payable": true
    },
    {
      "inputs": [
        {
          "internalType": "uint256",
          "name": "feeValue",
          "type": "uint256"
        }
      ],
      "name": "setFee",
      "outputs": [],
      "stateMutability": "nonpayable",
      "type": "function"
    },
    {
      "inputs": [
        {
          "internalType": "address",
          "name": "addr",
          "type": "address"
        }
      ],
      "name": "setRealitioERC20",
      "outputs": [],
      "stateMutability": "nonpayable",
      "type": "function"
    },
    {
      "inputs": [
        {
          "internalType": "uint256",
          "name": "timeout",
          "type": "uint256"
        }
      ],
      "name": "setRealitioTimeout",
      "outputs": [],
      "stateMutability": "nonpayable",
      "type": "function"
    },
    {
      "inputs": [
        {
          "internalType": "uint256",
          "name": "marketId",
          "type": "uint256"
        },
        {
          "internalType": "address",
          "name": "participant",
          "type": "address"
        }
      ],
      "name": "getUserMarketShares",
      "outputs": [
        {
          "internalType": "uint256",
          "name": "",
          "type": "uint256"
        },
        {
          "internalType": "uint256",
          "name": "",
          "type": "uint256"
        },
        {
          "internalType": "uint256",
          "name": "",
          "type": "uint256"
        }
      ],
      "stateMutability": "view",
      "type": "function",
      "constant": true
    },
    {
      "inputs": [
        {
          "internalType": "uint256",
          "name": "marketId",
          "type": "uint256"
        },
        {
          "internalType": "address",
          "name": "participant",
          "type": "address"
        }
      ],
      "name": "getUserClaimStatus",
      "outputs": [
        {
          "internalType": "bool",
          "name": "",
          "type": "bool"
        },
        {
          "internalType": "bool",
          "name": "",
          "type": "bool"
        },
        {
          "internalType": "bool",
          "name": "",
          "type": "bool"
        },
        {
          "internalType": "bool",
          "name": "",
          "type": "bool"
        },
        {
          "internalType": "uint256",
          "name": "",
          "type": "uint256"
        }
      ],
      "stateMutability": "view",
      "type": "function",
      "constant": true
    },
    {
      "inputs": [
        {
          "internalType": "uint256",
          "name": "marketId",
          "type": "uint256"
        },
        {
          "internalType": "address",
          "name": "participant",
          "type": "address"
        }
      ],
      "name": "getUserLiquidityPoolShare",
      "outputs": [
        {
          "internalType": "uint256",
          "name": "",
          "type": "uint256"
        }
      ],
      "stateMutability": "view",
      "type": "function",
      "constant": true
    },
    {
      "inputs": [
        {
          "internalType": "uint256",
          "name": "marketId",
          "type": "uint256"
        },
        {
          "internalType": "address",
          "name": "participant",
          "type": "address"
        }
      ],
      "name": "getUserClaimableFees",
      "outputs": [
        {
          "internalType": "uint256",
          "name": "",
          "type": "uint256"
        }
      ],
      "stateMutability": "view",
      "type": "function",
      "constant": true
    },
    {
      "inputs": [],
      "name": "getMarkets",
      "outputs": [
        {
          "internalType": "uint256[]",
          "name": "",
          "type": "uint256[]"
        }
      ],
      "stateMutability": "view",
      "type": "function",
      "constant": true
    },
    {
      "inputs": [
        {
          "internalType": "uint256",
          "name": "marketId",
          "type": "uint256"
        }
      ],
      "name": "getMarketData",
      "outputs": [
        {
          "internalType": "string",
          "name": "",
          "type": "string"
        },
        {
          "internalType": "enum PredictionMarket.MarketState",
          "name": "",
          "type": "uint8"
        },
        {
          "internalType": "uint256",
          "name": "",
          "type": "uint256"
        },
        {
          "internalType": "uint256",
          "name": "",
          "type": "uint256"
        },
        {
          "internalType": "uint256",
          "name": "",
          "type": "uint256"
        },
        {
          "internalType": "uint256",
          "name": "",
          "type": "uint256"
        },
        {
          "internalType": "int256",
          "name": "",
          "type": "int256"
        }
      ],
      "stateMutability": "view",
      "type": "function",
      "constant": true
    },
    {
      "inputs": [
        {
          "internalType": "uint256",
          "name": "marketId",
          "type": "uint256"
        }
      ],
      "name": "getMarketAltData",
      "outputs": [
        {
          "internalType": "uint256",
          "name": "",
          "type": "uint256"
        },
        {
          "internalType": "bytes32",
          "name": "",
          "type": "bytes32"
        },
        {
          "internalType": "uint256",
          "name": "",
          "type": "uint256"
        }
      ],
      "stateMutability": "view",
      "type": "function",
      "constant": true
    },
    {
      "inputs": [
        {
          "internalType": "uint256",
          "name": "marketId",
          "type": "uint256"
        }
      ],
      "name": "getMarketQuestion",
      "outputs": [
        {
          "internalType": "bytes32",
          "name": "",
          "type": "bytes32"
        }
      ],
      "stateMutability": "view",
      "type": "function",
      "constant": true
    },
    {
      "inputs": [
        {
          "internalType": "uint256",
          "name": "marketId",
          "type": "uint256"
        }
      ],
      "name": "getMarketPrices",
      "outputs": [
        {
          "internalType": "uint256",
          "name": "",
          "type": "uint256"
        },
        {
          "internalType": "uint256",
          "name": "",
          "type": "uint256"
        },
        {
          "internalType": "uint256",
          "name": "",
          "type": "uint256"
        }
      ],
      "stateMutability": "view",
      "type": "function",
      "constant": true
    },
    {
      "inputs": [
        {
          "internalType": "uint256",
          "name": "marketId",
          "type": "uint256"
        }
      ],
      "name": "getMarketLiquidityPrice",
      "outputs": [
        {
          "internalType": "uint256",
          "name": "",
          "type": "uint256"
        }
      ],
      "stateMutability": "view",
      "type": "function",
      "constant": true
    },
    {
      "inputs": [
        {
          "internalType": "uint256",
          "name": "marketId",
          "type": "uint256"
        }
      ],
      "name": "getMarketResolvedOutcome",
      "outputs": [
        {
          "internalType": "int256",
          "name": "",
          "type": "int256"
        }
      ],
      "stateMutability": "view",
      "type": "function",
      "constant": true
    },
    {
      "inputs": [
        {
          "internalType": "uint256",
          "name": "marketId",
          "type": "uint256"
        }
      ],
      "name": "getMarketOutcomeIds",
      "outputs": [
        {
          "internalType": "uint256[]",
          "name": "",
          "type": "uint256[]"
        }
      ],
      "stateMutability": "view",
      "type": "function",
      "constant": true
    },
    {
      "inputs": [
        {
          "internalType": "uint256",
          "name": "marketId",
          "type": "uint256"
        },
        {
          "internalType": "uint256",
          "name": "marketOutcomeId",
          "type": "uint256"
        }
      ],
      "name": "getMarketOutcomePrice",
      "outputs": [
        {
          "internalType": "uint256",
          "name": "",
          "type": "uint256"
        }
      ],
      "stateMutability": "view",
      "type": "function",
      "constant": true
    },
    {
      "inputs": [
        {
          "internalType": "uint256",
          "name": "marketId",
          "type": "uint256"
        },
        {
          "internalType": "uint256",
          "name": "marketOutcomeId",
          "type": "uint256"
        }
      ],
      "name": "getMarketOutcomeData",
      "outputs": [
        {
          "internalType": "string",
          "name": "",
          "type": "string"
        },
        {
          "internalType": "uint256",
          "name": "",
          "type": "uint256"
        },
        {
          "internalType": "uint256",
          "name": "",
          "type": "uint256"
        },
        {
          "internalType": "uint256",
          "name": "",
          "type": "uint256"
        }
      ],
      "stateMutability": "view",
      "type": "function",
      "constant": true
    }
  ],
  "bytecode": "0x608060405234801561001057600080fd5b50613812806100206000396000f3fe6080604052600436106101aa5760003560e01c80631d7920aa146101af57806328747a80146101e75780632bd81c2a146102145780632c2aa24e1461022757806331877a38146102585780633d41a26b146102855780633fe45e3b1461029a5780634397c4ce146102af57806351c6590a146102cf5780635e648eff146102e4578063677bd9ff1461030457806369fe0e2d14610324578063715018a6146103445780637b34e6e0146103595780638129fc1c1461037b57806385b91d8e146103905780638c7adc15146103b05780638cd41552146103c55780638da5cb5b146103e55780639d7de6b3146103fa578063aa22a02e1461040d578063ac68a7481461042d578063b31eb89514610440578063bf45572114610460578063bfacba3d14610480578063c2ee3a08146104b3578063c8f70d01146104c8578063d3c9727c146104e8578063d6febde8146104fb578063ddca3f431461050e578063e1e966dc14610523578063ec2c901614610536578063ede2e06e1461054b578063efce43131461056b578063f2fde38b1461059b578063fdff8085146105bb578063ffce3d5e146105db575b600080fd5b3480156101bb57600080fd5b506101cf6101ca366004612ebc565b6105fb565b6040516101de939291906136bc565b60405180910390f35b3480156101f357600080fd5b50610207610202366004612ebc565b61061a565b6040516101de9190613080565b610207610222366004612e1d565b610875565b34801561023357600080fd5b50610247610242366004612ed4565b6108f0565b6040516101de959493929190613059565b34801561026457600080fd5b50610278610273366004612ebc565b6109c0565b6040516101de9190613015565b34801561029157600080fd5b50610207610a29565b3480156102a657600080fd5b50610207610a2f565b3480156102bb57600080fd5b506102076102ca366004612ebc565b610a35565b6102e26102dd366004612ebc565b610a4a565b005b3480156102f057600080fd5b506102e26102ff366004612ebc565b610d50565b34801561031057600080fd5b506102e261031f366004612ebc565b610f06565b34801561033057600080fd5b506102e261033f366004612ebc565b61105a565b34801561035057600080fd5b506102e261109e565b34801561036557600080fd5b5061036e611115565b6040516101de9190613001565b34801561038757600080fd5b506102e2611124565b34801561039c57600080fd5b506101cf6103ab366004612ebc565b6111af565b3480156103bc57600080fd5b506102076111e0565b3480156103d157600080fd5b506102076103e0366004612f00565b6111e6565b3480156103f157600080fd5b5061036e6112e0565b6102e2610408366004612f00565b6112f0565b34801561041957600080fd5b50610207610428366004612ed4565b611667565b6102e261043b366004612ebc565b6116ba565b34801561044c57600080fd5b506101cf61045b366004612ed4565b611783565b34801561046c57600080fd5b5061020761047b366004612ebc565b6117e1565b34801561048c57600080fd5b506104a061049b366004612ebc565b61181e565b6040516101de9796959493929190613102565b3480156104bf57600080fd5b5061020761190c565b3480156104d457600080fd5b506102076104e3366004612ebc565b611918565b6102e26104f6366004612f21565b6119b9565b6102e2610509366004612f00565b611d13565b34801561051a57600080fd5b50610207611d24565b610207610531366004612d4c565b611d2a565b34801561054257600080fd5b50610278612032565b34801561055757600080fd5b506102e2610566366004612ebc565b61208a565b34801561057757600080fd5b5061058b610586366004612f00565b6120ce565b6040516101de9493929190613151565b3480156105a757600080fd5b506102e26105b6366004612d19565b6121ac565b3480156105c757600080fd5b506102076105d6366004612ed4565b61225b565b3480156105e757600080fd5b506102e26105f6366004612d19565b6122dd565b6000908152606660205260409020600b810154600a9091015490918190565b600081815260666020526040812060010154829042118015610659575060008181526066602052604081206007015460ff16600281111561065757fe5b145b15610667576106678161233e565b8260018060008381526066602052604090206007015460ff16600281111561068b57fe5b1461069557600080fd5b600085815260666020526040808220606954600a820154925163684e62bf60e11b8152899492936001600160a01b039092169291839163d09cc57e916106dd91600401613080565b60206040518083038186803b1580156106f557600080fd5b505afa158015610709573d6000803e3d6000fd5b505050506040513d601f19601f8201168201806040525061072d9190810190612d34565b6000818152600f8501602052604090819020600986018390559051919250908a9033907f67a6457c8912ae1b7a9fbdfa311cbd016ba606b548bf06bc80bc751072d91bbc9061077f9086904290613089565b60405180910390a3818a6000805160206137bd833981519152670de0b6b3a7640000426040516107b0929190613089565b60405180910390a381156107c55760006107c8565b60015b60ff168a6000805160206137bd8339815191526000426040516107ec929190613089565b60405180910390a3600384015460048201546000916108299161081d90670de0b6b3a764000063ffffffff61238e16565b9063ffffffff6123c816565b90508a60008051602061375d83398151915286600301548342604051610851939291906136bc565b60405180910390a25050505060090154945061086c8161233e565b50505050919050565b60408051600280825260608281019093526000929190816020015b606081526020019060019003908161089057905050905083816000815181106108b557fe5b602002602001018190525082816001815181106108ce57fe5b60200260200101819052506108e587878784611d2a565b979650505050505050565b600082815260666020526040812081908190819081906002600782015460ff16600281111561091b57fe5b14610940576000806000806109308c8c61225b565b95509550955095509550506109b6565b60098101546000908152600f8201602090815260408083206001600160a01b038b16845260058082018452828520546006808401865284872054928801865284872054908801909552929094205490939115159260ff9283169290151591166109a98d8d61225b565b9650965096509650965050505b9295509295909350565b600081815260666020908152604091829020600e810180548451818502810185019095528085526060949293830182828015610a1b57602002820191906000526020600020905b815481526020019060010190808311610a07575b50505050509150505b919050565b60001981565b606a5481565b6000908152606660205260409020600a015490565b600081815260666020526040902060010154819042118015610a89575060008181526066602052604081206007015460ff166002811115610a8757fe5b145b15610a9757610a978161233e565b8160008060008381526066602052604090206007015460ff166002811115610abb57fe5b14610ac557600080fd5b600084815260666020526040902034610af95760405162461bcd60e51b8152600401610af09061344f565b60405180910390fd5b600019600080805b600e850154811015610b6357600085600e018281548110610b1e57fe5b6000918252602080832090910154808352600f89019091526040909120600481015491925090861115610b5957806003016001015495508194505b5050600101610b01565b506003840154600090610b809061081d863463ffffffff61238e16565b9050610b8e898260026123fa565b506003850154610ba4908263ffffffff6124ea16565b6003860155336000908152600586016020526040902054610bcb908263ffffffff6124ea16565b33600090815260058701602052604090205534811415610ca1576002850154610bfa908263ffffffff6124ea16565b600286015560005b600e860154811015610c9b57600086600e018281548110610c1f57fe5b6000918252602080832090910154808352600f8a019091526040909120600481015491925090610c55908563ffffffff6124ea16565b60048201556003810154610c6f908563ffffffff6124ea16565b60038201556004880154610c89908563ffffffff6124ea16565b60048901555034935050600101610c02565b50610cd6565b610cae898434600261250f565b610cd3670de0b6b3a764000061081d610cc68c611918565b849063ffffffff61238e16565b91505b886002336001600160a01b031660008051602061379d8339815191526000858742604051610d079493929190613097565b60405180910390a48860008051602061375d8339815191528660030154610d2d8c611918565b42604051610d3d939291906136bc565b60405180910390a2505050505050505050565b8060028060008381526066602052604090206007015460ff166002811115610d7457fe5b14610d7e57600080fd5b600083815260666020908152604080832060098101548452600f8101909252909120610da9856116ba565b336000908152600583016020526040902054610dd75760405162461bcd60e51b8152600401610af090613672565b33600090815260068301602052604090205460ff1615610e095760405162461bcd60e51b8152600401610af090613492565b6000610e35670de0b6b3a764000061081d610e248933611667565b60048601549063ffffffff61238e16565b90508083600201541015610e5b5760405162461bcd60e51b8152600401610af0906132cf565b6002830154610e70908263ffffffff61288116565b60028401553360009081526006840160205260409020805460ff1916600117905585600533600081815260058701602052604080822054905160008051602061379d83398151915292610ec892909188904290613097565b60405180910390a4604051339082156108fc029083906000818181858888f19350505050158015610efd573d6000803e3d6000fd5b50505050505050565b8060028060008381526066602052604090206007015460ff166002811115610f2a57fe5b14610f3457600080fd5b600083815260666020908152604080832060098101548452600f8101835281842033855260058101909352922054610f7e5760405162461bcd60e51b8152600401610af0906134e0565b33600090815260068201602052604090205460ff1615610fb05760405162461bcd60e51b8152600401610af0906135a7565b3360009081526005820160205260409020546002830154811115610fe65760405162461bcd60e51b8152600401610af0906132cf565b6002830154610ffb908263ffffffff61288116565b60028401553360009081526006830160205260409020805460ff19166001179055856004600985015433600081815260058701602052604090819020549051919260008051602061379d83398151915292610ec8929088904290613097565b6110626128a9565b6001600160a01b03166110736112e0565b6001600160a01b0316146110995760405162461bcd60e51b8152600401610af090613572565b606855565b6110a66128a9565b6001600160a01b03166110b76112e0565b6001600160a01b0316146110dd5760405162461bcd60e51b8152600401610af090613572565b6033546040516000916001600160a01b03169060008051602061377d833981519152908390a3603380546001600160a01b0319169055565b6069546001600160a01b031681565b600054610100900460ff168061113d575061113d6128ad565b8061114b575060005460ff16155b6111675760405162461bcd60e51b8152600401610af0906133b7565b600054610100900460ff16158015611192576000805460ff1961ff0019909116610100171660011790555b61119a6128be565b80156111ac576000805461ff00191690555b50565b60008060006111bd84611918565b6111c88560006111e6565b6111d38660016111e6565b9250925092509193909250565b60675481565b6000828152606660209081526040808320848452600f810190925282206002600783015460ff16600281111561121857fe5b1415611243576009820154841461123057600061123a565b670de0b6b3a76400005b925050506112da565b60048101546003820154101561126b5760405162461bcd60e51b8152600401610af09061323c565b6004808201549083015410156112935760405162461bcd60e51b8152600401610af0906135fc565b600480820154908301546000916112b0919063ffffffff61288116565b60048401549091506112d49061081d83670de0b6b3a764000063ffffffff61238e16565b93505050505b92915050565b6033546001600160a01b03165b90565b60008281526066602052604090206001015482904211801561132f575060008181526066602052604081206007015460ff16600281111561132d57fe5b145b1561133d5761133d8161233e565b8260008060008381526066602052604090206007015460ff16600281111561136157fe5b1461136b57600080fd5b6000858152606660209081526040808320338452600581019092529091205485111561139657600080fd5b60006113a1876116ba565b3360009081526005830160205260409020546113c3908763ffffffff61288116565b33600090815260058401602052604081209190915560001990805b600e85015481101561144057600085600e0182815481106113fb57fe5b6000918252602080832090910154808352600f8901909152604090912060048101549192509085111561143657806003016001015494508193505b50506001016113de565b50600384015460009061145d9061081d858c63ffffffff61238e16565b905061146b8a8a60036123fa565b508881141561154a576002850154611489908263ffffffff61288116565b600286015560038501546114a3908263ffffffff61288116565b600386015560005b600e86015481101561154157600086600e0182815481106114c857fe5b6000918252602080832090910154808352600f8a0190915260409091206004810154919250906114fe908563ffffffff61288116565b60048201556003810154611518908563ffffffff61288116565b60038201556004880154611532908563ffffffff61288116565b600489015550506001016114ab565b508893506115be565b6000821561155957600061155c565b60015b60ff166000818152600f88016020526040902060040154600388015491925061158f9161081d908d63ffffffff61238e16565b60038701549095506115a7908b63ffffffff61288116565b86600301819055506115bc8b8287600361250f565b505b604051339085156108fc029086906000818181858888f193505050501580156115eb573d6000803e3d6000fd5b50896003336001600160a01b031660008051602061379d83398151915260008d894260405161161d9493929190613097565b60405180910390a48960008051602061375d83398151915286600301546116438d611918565b42604051611653939291906136bc565b60405180910390a250505050505050505050565b600082815260666020908152604080832060038101546001600160a01b0386168552600582019093529083205490916116b29161081d90670de0b6b3a764000063ffffffff61238e16565b949350505050565b6000818152606660205260408120906116d3833361225b565b9050801561173f57336000908152600d830160205260409020546116fd908263ffffffff6124ea16565b336000818152600d85016020526040808220939093559151909183156108fc02918491818181858888f1935050505015801561173d573d6000803e3d6000fd5b505b82600633600081815260058601602052604080822054905160008051602061379d8339815191529261177692909188904290613097565b60405180910390a4505050565b60008281526066602090815260408083206001600160a01b0385168085526005808301855283862054868052600f90930180865284872083885282018652848720546001885290865284872092875291019093529220549250925092565b60008181526066602052604081206002600782015460ff16600281111561180457fe5b1461181457600019915050610a24565b6009015492915050565b6000818152606660205260408120600781015460018201546003830154600284015460048501546060969586958695869586958695859460ff16939291906118658f6117e1565b8654604080516020601f600260001961010060018816150201909516949094049384018190048102820181019092528281529189918301828280156118eb5780601f106118c0576101008083540402835291602001916118eb565b820191906000526020600020905b8154815290600101906020018083116118ce57829003601f168201915b50505050509650975097509750975097509750975050919395979092949650565b670de0b6b3a764000081565b60008181526066602052604081206002600782015460ff16600281111561193b57fe5b141561198457600381015460098201546000908152600f8301602052604090206004015461197c919061081d90670de0b6b3a764000063ffffffff61238e16565b915050610a24565b6004810154600e82015460038301546119b2929161081d9190670de0b6b3a76400000263ffffffff61238e16565b9392505050565b6000838152606660205260409020600101548390421180156119f8575060008181526066602052604081206007015460ff1660028111156119f657fe5b145b15611a0657611a068161233e565b8360008060008381526066602052604090206007015460ff166002811115611a2a57fe5b14611a3457600080fd5b6000868152606660209081526040808320888452600f8101835281842033855260058101909352922054861115611a6a57600080fd5b6004810154600382015403861115611a8157600080fd5b336000908152600582016020526040902054611aa3908763ffffffff61288116565b3360009081526005830160205260409020556004810154611aca908763ffffffff6124ea16565b600480830191909155820154611ae6908763ffffffff6124ea16565b6004808401829055820154600091611b039163ffffffff61288116565b600e8401546003850154919250600091611b3991611b29910a600463ffffffff61238e16565b6002840a9063ffffffff6124ea16565b6004840154909150611b569082906002900a63ffffffff6124ea16565b6004840154909150611b9090611b8390611b7785600263ffffffff61238e16565b9063ffffffff61238e16565b829063ffffffff61288116565b9050611b9b8161293c565b9050611bc781611bbb8560030160010154856124ea90919063ffffffff16565b9063ffffffff61288116565b9050611bda81600263ffffffff6123c816565b905080471015611be957600080fd5b8084600201541015611bfa57600080fd5b60005b600e850154811015611c70576000818152600f8601602052604090206004810154611c2e908463ffffffff61288116565b60048201556003810154611c48908463ffffffff61288116565b60038201556004860154611c62908463ffffffff61288116565b600487015550600101611bfd565b506002840154611c86908263ffffffff61288116565b6002850155611c958a8261298d565b604051909150339082156108fc029083906000818181858888f19350505050158015611cc5573d6000803e3d6000fd5b50896001336001600160a01b031660008051602061379d8339815191528c8c8642604051611cf69493929190613097565b60405180910390a4611d078a6129f3565b50505050505050505050565b611d20828234600061250f565b5050565b60685481565b60675460658054600181019091557f8ff97419363ffd7000167f130ef7168fbea05faf9251824ca5043f113cc6a7c701819055600081815260666020526040812090919034611d8b5760405162461bcd60e51b8152600401610af09061344f565b42861015611dab5760405162461bcd60e51b8152600401610af090613405565b8351600214611dcc5760405162461bcd60e51b8152600401610af090613180565b8651611dde90829060208a0190612c02565b506001810186905560078101805460ff191690556008810180546001600160a01b0319166001600160a01b0387811691909117909155606854600b83015560001960098301556069548551911690606090611e62908a908890600090611e4057fe5b602002602001015188600181518110611e5557fe5b6020026020010151612a84565b606a5460405163d4876b9f60e01b81529192506001600160a01b0384169163d4876b9f91611ea19160029186918d91908f9060009081906004016130b2565b602060405180830381600087803b158015611ebb57600080fd5b505af1158015611ecf573d6000803e3d6000fd5b505050506040513d601f19601f82011682018060405250611ef39190810190612d34565b600a840155346002840181905560038401819055336000908152600585016020526040902054611f289163ffffffff6124ea16565b3360009081526005850160205260408120919091555b8651811015611fda57600e840180546001818101835560009283526020808420909201849055838352600f870190915260409091208681559081018290558751889083908110611f8a57fe5b6020026020010151816002019080519060200190611fa9929190612c02565b5034600480830182905560038301829055860154611fcc9163ffffffff6124ea16565b600486015550600101611f3e565b50611fe4846129f3565b836002336001600160a01b031660008051602061379d83398151915260003434426040516120159493929190613097565b60405180910390a450506067805460010190555095945050505050565b6060606580548060200260200160405190810160405280929190818152602001828054801561208057602002820191906000526020600020905b81548152602001906001019080831161206c575b5050505050905090565b6120926128a9565b6001600160a01b03166120a36112e0565b6001600160a01b0316146120c95760405162461bcd60e51b8152600401610af090613572565b606a55565b6000828152606660209081526040808320848452600f810190925282206060929182918291906002810161210289896111e6565b600483015460038401548354604080516020601f600260001961010060018816150201909516949094049384018190048102820181019092528281529186918301828280156121925780601f1061216757610100808354040283529160200191612192565b820191906000526020600020905b81548152906001019060200180831161217557829003601f168201915b505050505093509550955095509550505092959194509250565b6121b46128a9565b6001600160a01b03166121c56112e0565b6001600160a01b0316146121eb5760405162461bcd60e51b8152600401610af090613572565b6001600160a01b0381166122115760405162461bcd60e51b8152600401610af0906131c1565b6033546040516001600160a01b0380841692169060008051602061377d83398151915290600090a3603380546001600160a01b0319166001600160a01b0392909216919091179055565b600082815260666020908152604080832060038101546001600160a01b03861685526005820190935290832054600c820154919284926122a59261081d919063ffffffff61238e16565b6001600160a01b0385166000908152600d840160205260409020549091506122d490829063ffffffff61288116565b95945050505050565b6122e56128a9565b6001600160a01b03166122f66112e0565b6001600160a01b03161461231c5760405162461bcd60e51b8152600401610af090613572565b606980546001600160a01b0319166001600160a01b0392909216919091179055565b6000818152606660205260409020600781015460ff16600281111561235f57fe5b600101600281111561236d57fe5b60078201805460ff1916600183600281111561238557fe5b02179055505050565b60008261239d575060006112da565b828202828482816123aa57fe5b04146119b25760405162461bcd60e51b8152600401610af090613531565b60008082116123e95760405162461bcd60e51b8152600401610af090613312565b8183816123f257fe5b049392505050565b60008381526066602052604081206003810154600c82015483916124299161081d90889063ffffffff61238e16565b9050600284600681111561243957fe5b141561249257600c820154612454908263ffffffff6124ea16565b600c830155336000908152600d8301602052604090205461247b908263ffffffff6124ea16565b336000908152600d840160205260409020556124e1565b600c8201546124a7908263ffffffff61288116565b600c830155336000908152600d830160205260409020546124ce908263ffffffff61288116565b336000908152600d840160205260409020555b50509392505050565b6000828201838110156119b25760405162461bcd60e51b8152600401610af090613207565b60008481526066602052604090206001015484904211801561254e575060008181526066602052604081206007015460ff16600281111561254c57fe5b145b1561255c5761255c8161233e565b8460008060008381526066602052604090206007015460ff16600281111561258057fe5b1461258a57600080fd5b6000878152606660205260408120908560068111156125a557fe5b14156125b8576125b5888761298d565b95505b6000878152600f82016020526040902060038660068111156125d657fe5b146125f55760028201546125f0908863ffffffff6124ea16565b61260a565b600282015461260a908863ffffffff61288116565b6002830155600160005b600e840154811015612726576000818152600f850160205260409020600389600681111561263e57fe5b1461265d576004810154612658908b63ffffffff6124ea16565b612672565b6004810154612672908b63ffffffff61288116565b6004820155600389600681111561268557fe5b146126a457600381015461269f908b63ffffffff6124ea16565b6126b9565b60038101546126b9908b63ffffffff61288116565b600382015560048101546126d490849063ffffffff61238e16565b925060038960068111156126e457fe5b146127035760048501546126fe908b63ffffffff6124ea16565b612718565b6004850154612718908b63ffffffff61288116565b600486015550600101612614565b50600e8301546003840154600484015460009261275192859261081d9290910a63ffffffff61238e16565b6004840154039050806127765760405162461bcd60e51b8152600401610af090613393565b600483015481111561279a5760405162461bcd60e51b8152600401610af090613346565b3360009081526005840160205260409020546127bc908263ffffffff6124ea16565b33600090815260058501602052604090205560048301546127e3908263ffffffff61288116565b6004808501919091558401546127ff908263ffffffff61288116565b6004850155600088600681111561281257fe5b1461283357612830670de0b6b3a764000061081d610cc68e8e6111e6565b98505b8a6000336001600160a01b031660008051602061379d8339815191528d858e426040516128639493929190613097565b60405180910390a46128748b6129f3565b5050505050505050505050565b6000828211156128a35760405162461bcd60e51b8152600401610af090613298565b50900390565b3390565b60006128b830612ab3565b15905090565b600054610100900460ff16806128d757506128d76128ad565b806128e5575060005460ff16155b6129015760405162461bcd60e51b8152600401610af0906133b7565b600054610100900460ff1615801561292c576000805460ff1961ff0019909116610100171660011790555b612934612ab9565b61119a612b3a565b6000600382111561297f575080600160028204015b818110156129795780915060028182858161296857fe5b04018161297157fe5b049050612951565b50610a24565b8115610a2457506001919050565b6000828152606660205260408120600b8101548290670de0b6b3a7640000906129bd90869063ffffffff61238e16565b816129c457fe5b600c84015491900491506129de908263ffffffff6124ea16565b600c8301556122d4848263ffffffff61288116565b6000818152606660205260408120905b600e820154811015612a495780836000805160206137bd833981519152612a2a86856111e6565b42604051612a39929190613089565b60405180910390a3600101612a03565b508160008051602061375d8339815191528260030154612a6885611918565b42604051612a78939291906136bc565b60405180910390a25050565b6060838383604051602001612a9b93929190612f78565b60405160208183030381529060405290509392505050565b3b151590565b600054610100900460ff1680612ad25750612ad26128ad565b80612ae0575060005460ff16155b612afc5760405162461bcd60e51b8152600401610af0906133b7565b600054610100900460ff1615801561119a576000805460ff1961ff00199091166101001716600117905580156111ac576000805461ff001916905550565b600054610100900460ff1680612b535750612b536128ad565b80612b61575060005460ff16155b612b7d5760405162461bcd60e51b8152600401610af0906133b7565b600054610100900460ff16158015612ba8576000805460ff1961ff0019909116610100171660011790555b6000612bb26128a9565b603380546001600160a01b0319166001600160a01b0383169081179091556040519192509060009060008051602061377d833981519152908290a35080156111ac576000805461ff001916905550565b828054600181600116156101000203166002900490600052602060002090601f016020900481019282601f10612c4357805160ff1916838001178555612c70565b82800160010185558215612c70579182015b82811115612c70578251825591602001919060010190612c55565b50612c7c929150612c80565b5090565b6112ed91905b80821115612c7c5760008155600101612c86565b80356001600160a01b03811681146112da57600080fd5b600082601f830112612cc1578081fd5b81356001600160401b03811115612cd6578182fd5b612ce9601f8201601f19166020016136d2565b9150808252836020828501011115612d0057600080fd5b8060208401602084013760009082016020015292915050565b600060208284031215612d2a578081fd5b6119b28383612c9a565b600060208284031215612d45578081fd5b5051919050565b60008060008060808587031215612d61578283fd5b84356001600160401b0380821115612d77578485fd5b612d8388838901612cb1565b9550602091508187013594506040870135612d9d81613747565b9350606087013581811115612db0578384fd5b87019050601f81018813612dc2578283fd5b8035612dd5612dd0826136f8565b6136d2565b81815283810190838501865b84811015612e0a57612df88d888435890101612cb1565b84529286019290860190600101612de1565b5050809550505050505092959194509250565b600080600080600060a08688031215612e34578081fd5b85356001600160401b0380821115612e4a578283fd5b612e5689838a01612cb1565b965060208801359550612e6c8960408a01612c9a565b94506060880135915080821115612e81578283fd5b612e8d89838a01612cb1565b93506080880135915080821115612ea2578283fd5b50612eaf88828901612cb1565b9150509295509295909350565b600060208284031215612ecd578081fd5b5035919050565b60008060408385031215612ee6578182fd5b82359150612ef78460208501612c9a565b90509250929050565b60008060408385031215612f12578182fd5b50508035926020909101359150565b600080600060608486031215612f35578283fd5b505081359360208301359350604090920135919050565b60008151808452612f64816020860160208601613717565b601f01601f19169290920160200192915050565b60008451612f8a818460208901613717565b62e2909f60e81b908301908152601160f91b6003820152845190612fb5826004830160208901613717565b6211161160e91b600492820192830152845191612fd9836007830160208901613717565b6c1171484fb6b4b9b1f1484fb2b760991b920160078101929092525060140195945050505050565b6001600160a01b0391909116815260200190565b6020808252825182820181905260009190848201906040850190845b8181101561304d57835183529284019291840191600101613031565b50909695505050505050565b94151585529215156020850152901515604084015215156060830152608082015260a00190565b90815260200190565b918252602082015260400190565b93845260208401929092526040830152606082015260800190565b600088825260e060208301526130cb60e0830189612f4c565b6001600160a01b039790971660408301525063ffffffff948516606082015292909316608083015260a082015260c0015292915050565b600060e0825261311560e083018a612f4c565b90506003881061312157fe5b8760208301528660408301528560608301528460808301528360a08301528260c083015298975050505050505050565b6000608082526131646080830187612f4c565b6020830195909552506040810192909252606090910152919050565b60208082526021908201527f4e756d626572206d61726b6574206f7574636f6d652068617320746f206265206040820152601960f91b606082015260800190565b60208082526026908201527f4f776e61626c653a206e6577206f776e657220697320746865207a65726f206160408201526564647265737360d01b606082015260800190565b6020808252601b908201527a536166654d6174683a206164646974696f6e206f766572666c6f7760281b604082015260600190565b6020808252603c908201527f546f74616c207368617265732068617320746f20626520657175616c206f722060408201527b686967686572207468616e20617661696c61626c652073686172657360201b606082015260800190565b6020808252601e908201527f536166654d6174683a207375627472616374696f6e206f766572666c6f770000604082015260600190565b60208082526023908201527f4d61726b657420646f6573206e6f74206861766520656e6f7567682062616c616040820152626e636560e81b606082015260800190565b6020808252601a9082015279536166654d6174683a206469766973696f6e206279207a65726f60301b604082015260600190565b6020808252602d908201527f43616e277420627579206d6f726520736861726573207468616e20746865206f60408201526c6e657320617661696c61626c6560981b606082015260800190565b6020808252600a9082015269043616e277420626520360b41b604082015260600190565b6020808252602e908201527f496e697469616c697a61626c653a20636f6e747261637420697320616c72656160408201526d191e481a5b9a5d1a585b1a5e995960921b606082015260800190565b6020808252602a908201527f4d61726b65742068617320746f20636c6f7365206166746572207468652063756040820152697272656e74206461746560b01b606082015260800190565b60208082526023908201527f546865207374616b652068617320746f2062652067726561746572207468616e60408201526210181760e91b606082015260800190565b6020808252602e908201527f5061727469636970616e7420616c726561647920636c61696d6564206c69717560408201526d69646974792077696e6e696e677360901b606082015260800190565b60208082526031908201527f5061727469636970616e7420646f6573206e6f7420686f6c64207265736f6c766040820152706564206f7574636f6d652073686172657360781b606082015260800190565b60208082526021908201527f536166654d6174683a206d756c7469706c69636174696f6e206f766572666c6f6040820152607760f81b606082015260800190565b6020808252818101527f4f776e61626c653a2063616c6c6572206973206e6f7420746865206f776e6572604082015260600190565b60208082526035908201527f5061727469636970616e7420616c726561647920636c61696d6564207265736f6040820152746c766564206f7574636f6d652077696e6e696e677360581b606082015260800190565b60208082526050908201527f546f74616c202320617661696c61626c65207368617265732068617320746f2060408201527f626520657175616c206f7220686967686572207468616e206f7574636f6d652060608201526f617661696c61626c652073686172657360801b608082015260a00190565b6020808252602a908201527f5061727469636970616e7420646f6573206e6f7420686f6c64206c69717569646040820152696974792073686172657360b01b606082015260800190565b9283526020830191909152604082015260600190565b6040518181016001600160401b03811182821017156136f057600080fd5b604052919050565b60006001600160401b0382111561370d578081fd5b5060209081020190565b60005b8381101561373257818101518382015260200161371a565b83811115613741576000848401525b50505050565b6001600160a01b03811681146111ac57600080fdfe1eca98f266e5348ae38d5d057a4d8e451e76672f69ac6ba4b0e3b31ea9c7eb2b8be0079c531659141344cd1fd0a4f28419497f9722a3daafe3b4186f6b6457e0f234ce8a0f255434ef7d62a699a746ee45ac4452531081e609f1556d27faf12c8270f0a0534b13b7f92d1dbd58aa75c5207b40c55fefa7a17110c6136ad7270ba2646970667358221220b40866ceb606c2b0d2e981cf5cc227d1ce537c62d2e67158f5291fa6a8925ca364736f6c63430006020033",
  "source": "pragma solidity ^0.6.0;\npragma experimental ABIEncoderV2;\n\nimport \"./RealitioERC20.sol\";\n\n// openzeppelin imports\nimport \"@openzeppelin/contracts/math/SafeMath.sol\";\nimport \"@openzeppelin/contracts-upgradeable/access/OwnableUpgradeable.sol\";\n\nlibrary PMHelpers {\n  // fetched from uniswap: https://github.com/Uniswap/uniswap-v2-core/blob/v1.0.1/contracts/libraries/Math.sol\n  // babylonian method (https://en.wikipedia.org/wiki/Methods_of_computing_square_roots#Babylonian_method)\n  function sqrt(uint256 y) internal pure returns (uint256 z) {\n    if (y > 3) {\n      z = y;\n      uint256 x = y / 2 + 1;\n      while (x < z) {\n        z = x;\n        x = (y / x + x) / 2;\n      }\n    } else if (y != 0) {\n      z = 1;\n    }\n  }\n\n  // formats question for realitio\n  function formatQuestion(\n    string memory name,\n    string memory outcome1,\n    string memory outcome2\n  ) internal pure returns (string memory) {\n    return string(abi.encodePacked(name, \"\", '\"', outcome1, '\",\"', outcome2, '\"miscen'));\n  }\n}\n\n/// @title Market Contract Factory\ncontract PredictionMarket is Initializable, OwnableUpgradeable {\n  using SafeMath for uint256;\n\n  // ------ Events ------\n\n  event ParticipantAction(\n    address indexed participant,\n    MarketAction indexed action,\n    uint256 indexed marketId,\n    uint256 outcomeId,\n    uint256 shares,\n    uint256 value,\n    uint256 timestamp\n  );\n\n  event MarketOutcomePrice(uint256 indexed marketId, uint256 indexed outcomeId, uint256 value, uint256 timestamp);\n\n  event MarketLiquidity(\n    uint256 indexed marketId,\n    uint256 value, // total liquidity (ETH)\n    uint256 price, // value of 1 liquidity share; max: 1 ETH (50-50 situation)\n    uint256 timestamp\n  );\n\n  event MarketResolved(address indexed oracle, uint256 indexed marketId, uint256 outcomeId, uint256 timestamp);\n\n  // ------ Events End ------\n\n  uint256 public constant MAX_UINT_256 = 115792089237316195423570985008687907853269984665640564039457584007913129639935;\n\n  uint256 public constant ONE = 10**18;\n\n  enum MarketState {\n    open,\n    closed,\n    resolved\n  }\n  enum MarketAction {\n    buy,\n    sell,\n    addLiquidity,\n    removeLiquidity,\n    claimWinnings,\n    claimLiquidity,\n    claimFees\n  }\n\n  struct Market {\n    // market details\n    string name;\n    uint256 closedDateTime;\n    uint256 balance; // total stake (ETH)\n    uint256 liquidity; // stake held (ETH)\n    uint256 sharesAvailable; // shares held (all outcomes)\n    mapping(address => uint256) liquidityShares;\n    mapping(address => bool) liquidityClaims; // wether participant has claimed liquidity winnings\n    MarketState state; // resolution variables\n    MarketResolution resolution; // fees\n    MarketFees fees;\n    // market outcomes\n    uint256[] outcomeIds;\n    mapping(uint256 => MarketOutcome) outcomes;\n  }\n\n  struct MarketFees {\n    uint256 value; // fee % taken from every transaction\n    uint256 poolWeight; // internal var used to ensure pro-rate fee distribution\n    mapping(address => uint256) claimed;\n  }\n\n  struct MarketResolution {\n    address oracle; // TODO remove: deprecated;\n    bool resolved;\n    uint256 outcomeId;\n    bytes32 questionId; // realitio questionId\n  }\n\n  struct MarketOutcome {\n    uint256 marketId;\n    uint256 id;\n    string name;\n    Shares shares;\n  }\n\n  struct Shares {\n    uint256 total; // number of shares\n    uint256 available; // available shares\n    mapping(address => uint256) holders;\n    mapping(address => bool) claims; // wether participant has claimed winnings\n  }\n\n  uint256[] marketIds;\n  mapping(uint256 => Market) markets;\n  uint256 public marketIndex;\n\n  // governance\n  uint256 public fee; // fee % taken from every transaction, can be updated by contract owner\n  // realitio configs\n  address public realitioAddress;\n  uint256 public realitioTimeout;\n\n  // ------ Modifiers ------\n\n  modifier isMarket(uint256 marketId) {\n    require(marketId < marketIndex);\n    _;\n  }\n\n  modifier timeTransitions(uint256 marketId) {\n    if (now > markets[marketId].closedDateTime && markets[marketId].state == MarketState.open) {\n      nextState(marketId);\n    }\n    _;\n  }\n\n  modifier atState(uint256 marketId, MarketState state) {\n    require(markets[marketId].state == state);\n    _;\n  }\n\n  modifier notAtState(uint256 marketId, MarketState state) {\n    require(markets[marketId].state != state);\n    _;\n  }\n\n  modifier transitionNext(uint256 marketId) {\n    _;\n    nextState(marketId);\n  }\n\n  // ------ Modifiers End ------\n\n  // Initializer function (replaces constructor)\n  function initialize() public initializer {\n    __Ownable_init();\n  }\n\n  // ------ Core Functions ------\n\n  // TODO fix: temp solution, while fixing outcomes[] arg\n  function createMarket(\n    string memory name,\n    uint256 closesAt,\n    address oracle,\n    string memory outcome1Name,\n    string memory outcome2Name\n  ) public payable returns (uint256) {\n    string[] memory outcomes = new string[](2);\n    outcomes[0] = outcome1Name;\n    outcomes[1] = outcome2Name;\n\n    return createMarket(name, closesAt, oracle, outcomes);\n  }\n\n  /// Create a new Market contract\n  /// @dev The new Market contract is then saved in the array of this contract for future reference.\n  /// @param name - Name of the market\n  /// @param closesAt - The duration of the market `open` period\n  /// @param oracle - oracle address\n  function createMarket(\n    string memory name,\n    uint256 closesAt,\n    address oracle,\n    string[] memory outcomes\n  ) public payable returns (uint256) {\n    uint256 marketId = marketIndex;\n    marketIds.push(marketId);\n\n    Market storage market = markets[marketId];\n\n    require(msg.value > 0, \"The stake has to be greater than 0.\");\n    require(closesAt >= now, \"Market has to close after the current date\");\n    require(oracle == address(oracle), \"Invalid oracle address\");\n    // starting with secondary markets\n    require(outcomes.length == 2, \"Number market outcome has to be 2\");\n\n    market.name = name;\n    market.closedDateTime = closesAt;\n    market.state = MarketState.open;\n    market.resolution.oracle = oracle;\n    market.fees.value = fee;\n    // setting intial value to an integer that does not map to any outcomeId\n    market.resolution.outcomeId = MAX_UINT_256;\n\n    // creating question in realitio\n    RealitioERC20 realitio = RealitioERC20(realitioAddress);\n    string memory question = PMHelpers.formatQuestion(name, outcomes[0], outcomes[1]);\n\n    market.resolution.questionId = realitio.askQuestionERC20(\n      2,\n      question,\n      oracle,\n      uint32(realitioTimeout),\n      uint32(closesAt),\n      0,\n      0\n    );\n\n    market.balance = msg.value;\n    market.liquidity = msg.value;\n\n    // TODO review: only valid for 50-50 start\n    market.liquidityShares[msg.sender] = market.liquidityShares[msg.sender].add(msg.value);\n\n    // creating market outcomes\n    for (uint256 i = 0; i < outcomes.length; i++) {\n      market.outcomeIds.push(i);\n      MarketOutcome storage outcome = market.outcomes[i];\n\n      outcome.marketId = marketId;\n      outcome.id = i;\n      outcome.name = outcomes[i];\n\n      // TODO review: only valid for 50-50 start\n      // price starts at 0.5 ETH\n      outcome.shares.available = msg.value;\n      outcome.shares.total = msg.value;\n\n      market.sharesAvailable = market.sharesAvailable.add(msg.value);\n    }\n\n    // emiting initial price events\n    emitMarketOutcomePriceEvents(marketId);\n    emit ParticipantAction(msg.sender, MarketAction.addLiquidity, marketId, 0, msg.value, msg.value, now);\n\n    // incrementing market array index\n    marketIndex = marketIndex + 1;\n\n    return marketId;\n  }\n\n  function buy(uint256 marketId, uint256 outcomeId) external payable {\n    buy(marketId, outcomeId, msg.value, MarketAction.buy);\n  }\n\n  /// Buy shares of a market outcome\n  function buy(\n    uint256 marketId,\n    uint256 outcomeId,\n    uint256 value,\n    MarketAction parentAction\n  ) internal timeTransitions(marketId) atState(marketId, MarketState.open) {\n    Market storage market = markets[marketId];\n\n    if (parentAction == MarketAction.buy) {\n      // subtracting fee from transaction value\n      value = addTransactionToFeesPool(marketId, value);\n    }\n\n    MarketOutcome storage outcome = market.outcomes[outcomeId];\n    market.balance = parentAction == MarketAction.removeLiquidity\n      ? market.balance.sub(value)\n      : market.balance.add(value);\n\n    uint256 newProductBalance = 1;\n\n    // Funding market shares with received ETH\n    for (uint256 i = 0; i < market.outcomeIds.length; i++) {\n      MarketOutcome storage marketOutcome = market.outcomes[i];\n\n      marketOutcome.shares.available = parentAction == MarketAction.removeLiquidity\n        ? marketOutcome.shares.available.sub(value)\n        : marketOutcome.shares.available.add(value);\n      marketOutcome.shares.total = parentAction == MarketAction.removeLiquidity\n        ? marketOutcome.shares.total.sub(value)\n        : marketOutcome.shares.total.add(value);\n\n      newProductBalance = newProductBalance.mul(marketOutcome.shares.available);\n\n      // only adding to market total shares, the available remains\n      market.sharesAvailable = parentAction == MarketAction.removeLiquidity\n        ? market.sharesAvailable.sub(value)\n        : market.sharesAvailable.add(value);\n    }\n\n    // productBalance = market.liquidity**(market.outcomeIds.length);\n    // newSharesAvailable = outcome.shares.available.mul(productBalance).div(newProductBalance);\n    uint256 shares = outcome.shares.available -\n      outcome.shares.available.mul(market.liquidity**(market.outcomeIds.length)).div(newProductBalance);\n\n    require(shares > 0, \"Can't be 0\");\n    require(outcome.shares.available >= shares, \"Can't buy more shares than the ones available\");\n\n    outcome.shares.holders[msg.sender] = outcome.shares.holders[msg.sender].add(shares);\n\n    outcome.shares.available = outcome.shares.available.sub(shares);\n    market.sharesAvailable = market.sharesAvailable.sub(shares);\n\n    // transaction value is calculated differently if parent action is not buy\n    if (parentAction != MarketAction.buy) {\n      value = shares.mul(getMarketOutcomePrice(marketId, outcomeId)).div(ONE);\n    }\n\n    emit ParticipantAction(msg.sender, MarketAction.buy, marketId, outcomeId, shares, value, now);\n    emitMarketOutcomePriceEvents(marketId);\n  }\n\n  /// Sell shares of a market outcome\n  function sell(\n    uint256 marketId,\n    uint256 outcomeId,\n    uint256 shares\n  ) external payable timeTransitions(marketId) atState(marketId, MarketState.open) {\n    Market storage market = markets[marketId];\n    MarketOutcome storage outcome = market.outcomes[outcomeId];\n\n    // Invariant check: make sure the stake is <= than user's stake\n    require(outcome.shares.holders[msg.sender] >= shares);\n\n    // Invariant check: make sure the market's stake is smaller than the stake\n    require((outcome.shares.total - outcome.shares.available) >= shares);\n\n    // removing shares\n    outcome.shares.holders[msg.sender] = outcome.shares.holders[msg.sender].sub(shares);\n\n    // adding shares back to pool\n    outcome.shares.available = outcome.shares.available.add(shares);\n    market.sharesAvailable = market.sharesAvailable.add(shares);\n\n    uint256 oppositeSharesAvailable = market.sharesAvailable.sub(outcome.shares.available);\n\n    // formula to calculate amount user will receive in ETH\n    // x = 1/2 (-sqrt(a^2 - 2 a (y + z) + 4 b + (y + z)^2) + a + y + z)\n    // x = ETH amount user will receive\n    // y = # shares sold\n    // z = # selling shares available\n    // a = # opposite shares available\n    // b = product balance\n\n    // productBalance = market.liquidity**(market.outcomeIds.length);\n    uint256 value = (oppositeSharesAvailable**2).add((market.liquidity**(market.outcomeIds.length)).mul(4));\n    value = value.add(outcome.shares.available**2);\n    value = value.sub(oppositeSharesAvailable.mul(2).mul(outcome.shares.available));\n    value = PMHelpers.sqrt(value);\n    value = oppositeSharesAvailable.add(outcome.shares.available).sub(value);\n    value = value.div(2);\n\n    require(value >= 0, \"ETH value has to be > 0\");\n\n    // Invariant check: make sure the contract has enough balance to be withdrawn from.\n    require(address(this).balance >= value);\n    require(market.balance >= value);\n\n    // Rebalancing market shares\n    for (uint256 i = 0; i < market.outcomeIds.length; i++) {\n      MarketOutcome storage marketOutcome = market.outcomes[i];\n\n      marketOutcome.shares.available = marketOutcome.shares.available.sub(value);\n      marketOutcome.shares.total = marketOutcome.shares.total.sub(value);\n\n      // only adding to market total shares, the available remains\n      market.sharesAvailable = market.sharesAvailable.sub(value);\n    }\n\n    market.balance = market.balance.sub(value);\n\n    // subtracting fee from transaction value\n    value = addTransactionToFeesPool(marketId, value);\n\n    // 3. Interaction\n    msg.sender.transfer(value);\n\n    emit ParticipantAction(msg.sender, MarketAction.sell, marketId, outcomeId, shares, value, now);\n    emitMarketOutcomePriceEvents(marketId);\n  }\n\n  function addLiquidity(uint256 marketId)\n    external\n    payable\n    timeTransitions(marketId)\n    atState(marketId, MarketState.open)\n  {\n    Market storage market = markets[marketId];\n\n    require(msg.value > 0, \"The stake has to be greater than 0.\");\n\n    // part of the liquidity is exchanged for outcome shares if not 50-50 market\n    // getting liquidity ratio\n    uint256 minShares = MAX_UINT_256;\n    uint256 minOutcomeId;\n    uint256 value;\n\n    for (uint256 i = 0; i < market.outcomeIds.length; i++) {\n      uint256 outcomeId = market.outcomeIds[i];\n      MarketOutcome storage outcome = market.outcomes[outcomeId];\n\n      if (outcome.shares.available < minShares) {\n        minShares = outcome.shares.available;\n        minOutcomeId = outcomeId;\n      }\n    }\n\n    uint256 liquidityRatio = minShares.mul(msg.value).div(market.liquidity);\n\n    // re-balancing fees pool\n    rebalanceFeesPool(marketId, liquidityRatio, MarketAction.addLiquidity);\n\n    market.liquidity = market.liquidity.add(liquidityRatio);\n\n    market.liquidityShares[msg.sender] = market.liquidityShares[msg.sender].add(liquidityRatio);\n\n    // equal outcome split, no need to buy shares\n    if (liquidityRatio == msg.value) {\n      market.balance = market.balance.add(liquidityRatio);\n      for (uint256 i = 0; i < market.outcomeIds.length; i++) {\n        uint256 outcomeId = market.outcomeIds[i];\n        MarketOutcome storage outcome = market.outcomes[outcomeId];\n\n        outcome.shares.available = outcome.shares.available.add(liquidityRatio);\n        outcome.shares.total = outcome.shares.total.add(liquidityRatio);\n\n        market.sharesAvailable = market.sharesAvailable.add(liquidityRatio);\n        value = msg.value;\n      }\n    } else {\n      buy(marketId, minOutcomeId, msg.value, MarketAction.addLiquidity);\n      value = liquidityRatio.mul(getMarketLiquidityPrice(marketId)).div(ONE);\n    }\n\n    emit ParticipantAction(msg.sender, MarketAction.addLiquidity, marketId, 0, liquidityRatio, value, now);\n    emit MarketLiquidity(marketId, market.liquidity, getMarketLiquidityPrice(marketId), now);\n  }\n\n  function removeLiquidity(uint256 marketId, uint256 shares)\n    external\n    payable\n    timeTransitions(marketId)\n    atState(marketId, MarketState.open)\n  {\n    Market storage market = markets[marketId];\n\n    // Invariant check: make sure the stake is <= than user's stake\n    require(market.liquidityShares[msg.sender] >= shares);\n\n    // ETH to transfer to user from liquidity removal\n    uint256 value;\n\n    // claiming any pending fees\n    claimFees(marketId);\n\n    // removing liquidity tokens from market creator\n    market.liquidityShares[msg.sender] = market.liquidityShares[msg.sender].sub(shares);\n\n    // part of the liquidity is exchanged for outcome shares if not 50-50 market\n    // getting liquidity ratio\n    uint256 minShares = MAX_UINT_256;\n    uint256 minOutcomeId;\n\n    for (uint256 i = 0; i < market.outcomeIds.length; i++) {\n      uint256 outcomeId = market.outcomeIds[i];\n      MarketOutcome storage outcome = market.outcomes[outcomeId];\n\n      if (outcome.shares.available < minShares) {\n        minShares = outcome.shares.available;\n        minOutcomeId = outcomeId;\n      }\n    }\n\n    uint256 liquidityRatio = minShares.mul(shares).div(market.liquidity);\n\n    // re-balancing fees pool\n    rebalanceFeesPool(marketId, shares, MarketAction.removeLiquidity);\n\n    // equal outcome split, no need to buy shares\n    if (liquidityRatio == shares) {\n      // removing liquidity from market\n      market.balance = market.balance.sub(liquidityRatio);\n      market.liquidity = market.liquidity.sub(liquidityRatio);\n\n      for (uint256 i = 0; i < market.outcomeIds.length; i++) {\n        uint256 outcomeId = market.outcomeIds[i];\n        MarketOutcome storage outcome = market.outcomes[outcomeId];\n\n        outcome.shares.available = outcome.shares.available.sub(liquidityRatio);\n        outcome.shares.total = outcome.shares.total.sub(liquidityRatio);\n\n        market.sharesAvailable = market.sharesAvailable.sub(liquidityRatio);\n      }\n\n      value = shares;\n    } else {\n      // buying shares from the opposite markets\n      uint256 outcomeId = minOutcomeId == 0 ? 1 : 0;\n\n      // value received: Total Liquidity / Shares Outcome * Liquidity Removed\n      value = market.liquidity.mul(shares).div(market.outcomes[outcomeId].shares.available);\n\n      // removing liquidity from market (shares = value)\n      market.liquidity = market.liquidity.sub(shares);\n\n      buy(marketId, outcomeId, value, MarketAction.removeLiquidity);\n      // msg.sender.transfer(value);\n    }\n\n    // transferring user ETH from liquidity removed\n    msg.sender.transfer(value);\n\n    emit ParticipantAction(msg.sender, MarketAction.removeLiquidity, marketId, 0, shares, value, now);\n    emit MarketLiquidity(marketId, market.liquidity, getMarketLiquidityPrice(marketId), now);\n  }\n\n  /// Determine the result of the market\n  /// @dev Only allowed by oracle\n  /// @return Id of the outcome\n  function resolveMarketOutcome(uint256 marketId)\n    public\n    timeTransitions(marketId)\n    atState(marketId, MarketState.closed)\n    transitionNext(marketId)\n    returns (uint256)\n  {\n    Market storage market = markets[marketId];\n\n    RealitioERC20 realitio = RealitioERC20(realitioAddress);\n    // will throw an error if question is not finalized\n    uint256 outcomeId = uint256(realitio.resultFor(market.resolution.questionId));\n\n    MarketOutcome storage outcome = market.outcomes[outcomeId];\n\n    // TODO: process outcome\n\n    market.resolution.outcomeId = outcomeId;\n\n    emit MarketResolved(msg.sender, marketId, outcomeId, now);\n    // emitting 1 price event for winner outcome\n    emit MarketOutcomePrice(marketId, outcomeId, ONE, now);\n    // emitting 0 price event for loser outcome\n    emit MarketOutcomePrice(marketId, (outcomeId == 0 ? 1 : 0), 0, now);\n    // final liquidity price = outcome shares / liquidity shares\n    uint256 liquidityPrice = outcome.shares.available.mul(ONE).div(market.liquidity);\n    emit MarketLiquidity(marketId, market.liquidity, liquidityPrice, now);\n\n    return market.resolution.outcomeId;\n  }\n\n  /// Allowing holders of resolved outcome shares to claim earnings.\n  function claimWinnings(uint256 marketId) public atState(marketId, MarketState.resolved) {\n    Market storage market = markets[marketId];\n    MarketOutcome storage resolvedOutcome = market.outcomes[market.resolution.outcomeId];\n\n    require(resolvedOutcome.shares.holders[msg.sender] > 0, \"Participant does not hold resolved outcome shares\");\n    require(\n      resolvedOutcome.shares.claims[msg.sender] == false,\n      \"Participant already claimed resolved outcome winnings\"\n    );\n\n    // 1 share = 1 ETH\n    uint256 value = resolvedOutcome.shares.holders[msg.sender];\n\n    // assuring market has enough funds\n    require(market.balance >= value, \"Market does not have enough balance\");\n\n    market.balance = market.balance.sub(value);\n    resolvedOutcome.shares.claims[msg.sender] = true;\n\n    emit ParticipantAction(\n      msg.sender,\n      MarketAction.claimWinnings,\n      marketId,\n      market.resolution.outcomeId,\n      resolvedOutcome.shares.holders[msg.sender],\n      value,\n      now\n    );\n\n    msg.sender.transfer(value);\n  }\n\n  /// Allowing liquidity providers to claim earnings from liquidity providing.\n  function claimLiquidity(uint256 marketId) public atState(marketId, MarketState.resolved) {\n    Market storage market = markets[marketId];\n    MarketOutcome storage resolvedOutcome = market.outcomes[market.resolution.outcomeId];\n\n    // claiming any pending fees\n    claimFees(marketId);\n\n    require(market.liquidityShares[msg.sender] > 0, \"Participant does not hold liquidity shares\");\n    require(market.liquidityClaims[msg.sender] == false, \"Participant already claimed liquidity winnings\");\n\n    // value = total resolved outcome pool shares * pool share (%)\n    uint256 value = resolvedOutcome.shares.available.mul(getUserLiquidityPoolShare(marketId, msg.sender)).div(ONE);\n\n    // assuring market has enough funds\n    require(market.balance >= value, \"Market does not have enough balance\");\n\n    market.balance = market.balance.sub(value);\n    market.liquidityClaims[msg.sender] = true;\n\n    emit ParticipantAction(\n      msg.sender,\n      MarketAction.claimLiquidity,\n      marketId,\n      0,\n      market.liquidityShares[msg.sender],\n      value,\n      now\n    );\n\n    msg.sender.transfer(value);\n  }\n\n  function claimFees(uint256 marketId) public payable {\n    Market storage market = markets[marketId];\n\n    uint256 claimableFees = getUserClaimableFees(marketId, msg.sender);\n\n    if (claimableFees > 0) {\n      market.fees.claimed[msg.sender] = market.fees.claimed[msg.sender].add(claimableFees);\n      msg.sender.transfer(claimableFees);\n    }\n\n    emit ParticipantAction(\n      msg.sender,\n      MarketAction.claimFees,\n      marketId,\n      0,\n      market.liquidityShares[msg.sender],\n      claimableFees,\n      now\n    );\n  }\n\n  function addTransactionToFeesPool(uint256 marketId, uint256 value) internal returns (uint256) {\n    Market storage market = markets[marketId];\n    uint256 feeAmount = value.mul(market.fees.value) / ONE;\n\n    market.fees.poolWeight = market.fees.poolWeight.add(feeAmount);\n\n    // returning investment minus fees\n    return value.sub(feeAmount);\n  }\n\n  function rebalanceFeesPool(\n    uint256 marketId,\n    uint256 liquidityShares,\n    MarketAction action\n  ) internal returns (uint256) {\n    Market storage market = markets[marketId];\n\n    uint256 poolWeight = liquidityShares.mul(market.fees.poolWeight).div(market.liquidity);\n\n    if (action == MarketAction.addLiquidity) {\n      market.fees.poolWeight = market.fees.poolWeight.add(poolWeight);\n      market.fees.claimed[msg.sender] = market.fees.claimed[msg.sender].add(poolWeight);\n    } else {\n      market.fees.poolWeight = market.fees.poolWeight.sub(poolWeight);\n      market.fees.claimed[msg.sender] = market.fees.claimed[msg.sender].sub(poolWeight);\n    }\n  }\n\n  /// Internal function for advancing the market state.\n  function nextState(uint256 marketId) internal {\n    Market storage market = markets[marketId];\n    market.state = MarketState(uint256(market.state) + 1);\n  }\n\n  function emitMarketOutcomePriceEvents(uint256 marketId) internal {\n    Market storage market = markets[marketId];\n\n    for (uint256 i = 0; i < market.outcomeIds.length; i++) {\n      emit MarketOutcomePrice(marketId, i, getMarketOutcomePrice(marketId, i), now);\n    }\n\n    // liquidity shares also change value\n    emit MarketLiquidity(marketId, market.liquidity, getMarketLiquidityPrice(marketId), now);\n  }\n\n  // ------ Core Functions End ------\n\n  // ------ Governance Functions Start ------\n\n  function setFee(uint256 feeValue) public onlyOwner() {\n    fee = feeValue;\n  }\n\n  function setRealitioERC20(address addr) public onlyOwner() {\n    realitioAddress = addr;\n  }\n\n  function setRealitioTimeout(uint256 timeout) public onlyOwner() {\n    realitioTimeout = timeout;\n  }\n\n  // ------ Governance Functions End ------\n\n  // ------ Getters ------\n\n  function getUserMarketShares(uint256 marketId, address participant)\n    public\n    view\n    returns (\n      uint256,\n      uint256,\n      uint256\n    )\n  {\n    Market storage market = markets[marketId];\n\n    return (\n      market.liquidityShares[participant],\n      market.outcomes[0].shares.holders[participant],\n      market.outcomes[1].shares.holders[participant]\n    );\n  }\n\n  function getUserClaimStatus(uint256 marketId, address participant)\n    public\n    view\n    returns (\n      bool,\n      bool,\n      bool,\n      bool,\n      uint256\n    )\n  {\n    Market storage market = markets[marketId];\n\n    // market still not resolved\n    if (market.state != MarketState.resolved) {\n      return (false, false, false, false, getUserClaimableFees(marketId, participant));\n    }\n\n    MarketOutcome storage outcome = market.outcomes[market.resolution.outcomeId];\n\n    return (\n      outcome.shares.holders[participant] > 0,\n      outcome.shares.claims[participant],\n      market.liquidityShares[participant] > 0,\n      market.liquidityClaims[participant],\n      getUserClaimableFees(marketId, participant)\n    );\n  }\n\n  // @return % of liquidity pool stake\n  function getUserLiquidityPoolShare(uint256 marketId, address participant) public view returns (uint256) {\n    Market storage market = markets[marketId];\n\n    return market.liquidityShares[participant].mul(ONE).div(market.liquidity);\n  }\n\n  function getUserClaimableFees(uint256 marketId, address participant) public view returns (uint256) {\n    Market storage market = markets[marketId];\n\n    uint256 rawAmount = market.fees.poolWeight.mul(market.liquidityShares[participant]).div(market.liquidity);\n    return rawAmount.sub(market.fees.claimed[participant]);\n  }\n\n  /// Allow retrieving the the array of created contracts\n  /// @return An array of all created Market contracts\n  function getMarkets() public view returns (uint256[] memory) {\n    return marketIds;\n  }\n\n  function getMarketData(uint256 marketId)\n    public\n    view\n    returns (\n      string memory,\n      MarketState,\n      uint256,\n      uint256,\n      uint256,\n      uint256,\n      int256\n    )\n  {\n    Market storage market = markets[marketId];\n\n    return (\n      market.name,\n      market.state,\n      market.closedDateTime,\n      market.liquidity,\n      market.balance,\n      market.sharesAvailable,\n      getMarketResolvedOutcome(marketId)\n    );\n  }\n\n  function getMarketAltData(uint256 marketId)\n    public\n    view\n    returns (\n      uint256,\n      bytes32,\n      uint256\n    )\n  {\n    Market storage market = markets[marketId];\n\n    return (market.fees.value, market.resolution.questionId, uint256(market.resolution.questionId));\n  }\n\n  function getMarketQuestion(uint256 marketId) public view returns (bytes32) {\n    Market storage market = markets[marketId];\n\n    return (market.resolution.questionId);\n  }\n\n  function getMarketPrices(uint256 marketId)\n    public\n    view\n    returns (\n      uint256,\n      uint256,\n      uint256\n    )\n  {\n    return (getMarketLiquidityPrice(marketId), getMarketOutcomePrice(marketId, 0), getMarketOutcomePrice(marketId, 1));\n  }\n\n  function getMarketLiquidityPrice(uint256 marketId) public view returns (uint256) {\n    Market storage market = markets[marketId];\n\n    if (market.state == MarketState.resolved) {\n      // resolved market, price is either 0 or 1\n      // final liquidity price = outcome shares / liquidity shares\n      return market.outcomes[market.resolution.outcomeId].shares.available.mul(ONE).div(market.liquidity);\n    }\n\n    // liquidity price = # liquidity shares / # outcome shares * # outcomes\n    return market.liquidity.mul(ONE * market.outcomeIds.length).div(market.sharesAvailable);\n  }\n\n  function getMarketResolvedOutcome(uint256 marketId) public view returns (int256) {\n    Market storage market = markets[marketId];\n\n    // returning -1 if market still not resolved\n    if (market.state != MarketState.resolved) {\n      return -1;\n    }\n\n    return int256(market.resolution.outcomeId);\n  }\n\n  // ------ Outcome Getters ------\n\n  function getMarketOutcomeIds(uint256 marketId) public view returns (uint256[] memory) {\n    Market storage market = markets[marketId];\n    return market.outcomeIds;\n  }\n\n  function getMarketOutcomePrice(uint256 marketId, uint256 marketOutcomeId) public view returns (uint256) {\n    Market storage market = markets[marketId];\n    MarketOutcome storage outcome = market.outcomes[marketOutcomeId];\n\n    if (market.state == MarketState.resolved) {\n      // resolved market, price is either 0 or 1\n      return marketOutcomeId == market.resolution.outcomeId ? ONE : 0;\n    }\n\n    require(\n      outcome.shares.total >= outcome.shares.available,\n      \"Total shares has to be equal or higher than available shares\"\n    );\n    require(\n      market.sharesAvailable >= outcome.shares.available,\n      \"Total # available shares has to be equal or higher than outcome available shares\"\n    );\n\n    uint256 holders = market.sharesAvailable.sub(outcome.shares.available);\n\n    return holders.mul(ONE).div(market.sharesAvailable);\n  }\n\n  function getMarketOutcomeData(uint256 marketId, uint256 marketOutcomeId)\n    public\n    view\n    returns (\n      string memory,\n      uint256,\n      uint256,\n      uint256\n    )\n  {\n    Market storage market = markets[marketId];\n    MarketOutcome storage outcome = market.outcomes[marketOutcomeId];\n\n    return (\n      outcome.name,\n      getMarketOutcomePrice(marketId, marketOutcomeId),\n      outcome.shares.available,\n      outcome.shares.total\n    );\n  }\n}\n",
  "sourcePath": "/Users/ricardomarques/dev/workspace/polkamarkets/bepro-js/contracts/PredictionMarket.sol",
  "compiler": {
    "name": "solc",
    "version": "0.6.2+commit.bacdbe57.Emscripten.clang"
  },
  "schemaVersion": "3.3.4",
  "updatedAt": "2021-08-02T15:25:17.943Z",
  "networkType": "ethereum",
  "devdoc": {
    "methods": {
      "createMarket(string,uint256,address,string[])": {
        "details": "The new Market contract is then saved in the array of this contract for future reference.",
        "params": {
          "closesAt": "- The duration of the market `open` period",
          "name": "- Name of the market",
          "oracle": "- oracle address"
        }
      },
      "owner()": {
        "details": "Returns the address of the current owner."
      },
      "renounceOwnership()": {
        "details": "Leaves the contract without owner. It will not be possible to call `onlyOwner` functions anymore. Can only be called by the current owner.     * NOTE: Renouncing ownership will leave the contract without an owner, thereby removing any functionality that is only available to the owner."
      },
      "resolveMarketOutcome(uint256)": {
        "details": "Only allowed by oracle",
        "returns": {
          "_0": "Id of the outcome"
        }
      },
      "transferOwnership(address)": {
        "details": "Transfers ownership of the contract to a new account (`newOwner`). Can only be called by the current owner."
      }
    },
    "title": "Market Contract Factory"
  },
  "userdoc": {
    "methods": {
      "claimLiquidity(uint256)": {
        "notice": "Allowing liquidity providers to claim earnings from liquidity providing."
      },
      "claimWinnings(uint256)": {
        "notice": "Allowing holders of resolved outcome shares to claim earnings."
      },
      "createMarket(string,uint256,address,string[])": {
        "notice": "Create a new Market contract"
      },
      "getMarkets()": {
        "notice": "Allow retrieving the the array of created contracts"
      },
      "resolveMarketOutcome(uint256)": {
        "notice": "Determine the result of the market"
      },
      "sell(uint256,uint256,uint256)": {
        "notice": "Sell shares of a market outcome"
      }
    }
  }
}