{
  "contractName": "PredictionMarketAchievement",
  "abi": [
    {
      "inputs": [
        {
          "internalType": "contract RealitioERC20",
          "name": "_realitioERC20",
          "type": "address"
        },
        {
          "internalType": "contract PredictionMarket",
          "name": "_predictionMarket",
          "type": "address"
        }
      ],
      "stateMutability": "nonpayable",
      "type": "constructor"
    },
    {
      "inputs": [],
      "name": "predictionMarket",
      "outputs": [
        {
          "internalType": "contract PredictionMarket",
          "name": "",
          "type": "address"
        }
      ],
      "stateMutability": "view",
      "type": "function"
    },
    {
      "inputs": [],
      "name": "realitioERC20",
      "outputs": [
        {
          "internalType": "contract RealitioERC20",
          "name": "",
          "type": "address"
        }
      ],
      "stateMutability": "view",
      "type": "function"
    }
  ],
  "bytecode": "0x608060405234801561001057600080fd5b5060405161024438038061024483398101604081905261002f916100b8565b6001600160a01b03811661005e5760405162461bcd60e51b815260040161005590610128565b60405180910390fd5b6001600160a01b0382166100845760405162461bcd60e51b8152600401610055906100f1565b600180546001600160a01b039283166001600160a01b03199182161790915560008054939092169216919091179055610177565b600080604083850312156100ca578182fd5b82516100d58161015f565b60208401519092506100e68161015f565b809150509250929050565b6020808252601b908201527f5f7265616c6974696f4552433230206164647265737320697320300000000000604082015260600190565b6020808252601f908201527f5f5f70726564696374696f6e4d61726b65742061646472657373206973203000604082015260600190565b6001600160a01b038116811461017457600080fd5b50565b60bf806101856000396000f3fe6080604052348015600f57600080fd5b506004361060325760003560e01c8063c97c8976146037578063def114b6146051575b600080fd5b603d6057565b604051604891906075565b60405180910390f35b603d6066565b6000546001600160a01b031681565b6001546001600160a01b031681565b6001600160a01b039190911681526020019056fea26469706673582212202a5b2cdb392cad385758dce99d5530989899eab934901125e0d2d4344bede4b964736f6c63430006020033",
  "source": "pragma solidity ^0.6.0;\npragma experimental ABIEncoderV2;\n\nimport \"./RealitioERC20.sol\";\nimport \"./PredictionMarket.sol\";\n\n/// @title Prediction Market Achievements Contract\ncontract PredictionMarketAchievement {\n  /// @dev protocol is immutable and has no ownership\n  RealitioERC20 public realitioERC20;\n  PredictionMarket public predictionMarket;\n\n  // First Prediction\n  // Claim through market[x].outcome[y].shares.holders[msg.sender] > 0\n\n  // First Market Created\n  // ???\n\n  // First Claim Winnings\n  // Claim through market[x].outcome[y].shares.holders[msg.sender] > 0 && y == market.resolution.outcomeId\n\n  // First POLK Bond\n  // Use RealitioERC20 historyHashes logic value and ensure addrs.includes(msg.sender)\n\n  // Most Volume (Week #X of Year Y)\n\n  constructor(\n    RealitioERC20 _realitioERC20,\n    PredictionMarket _predictionMarket\n  ) public {\n    require(address(_predictionMarket) != address(0), \"__predictionMarket address is 0\");\n    require(address(_realitioERC20) != address(0), \"_realitioERC20 address is 0\");\n\n    predictionMarket = _predictionMarket;\n    realitioERC20 = _realitioERC20;\n  }\n}\n",
  "sourcePath": "/Users/ricardomarques/dev/workspace/polkamarkets/bepro-js/contracts/PredictionMarketAchievement.sol",
  "compiler": {
    "name": "solc",
    "version": "0.6.2+commit.bacdbe57.Emscripten.clang"
  },
  "schemaVersion": "3.3.4",
  "updatedAt": "2021-11-25T02:14:38.795Z",
  "devdoc": {
    "methods": {},
    "title": "Prediction Market Achievements Contract"
  },
  "userdoc": {
    "methods": {}
  }
}