{
  "contractName": "PredictionMarket",
  "abi": [
    {
      "anonymous": false,
      "inputs": [
        {
          "indexed": true,
          "internalType": "address",
          "name": "user",
          "type": "address"
        },
        {
          "indexed": true,
          "internalType": "enum PredictionMarket.MarketAction",
          "name": "action",
          "type": "uint8"
        },
        {
          "indexed": true,
          "internalType": "uint256",
          "name": "marketId",
          "type": "uint256"
        },
        {
          "indexed": false,
          "internalType": "uint256",
          "name": "outcomeId",
          "type": "uint256"
        },
        {
          "indexed": false,
          "internalType": "uint256",
          "name": "shares",
          "type": "uint256"
        },
        {
          "indexed": false,
          "internalType": "uint256",
          "name": "value",
          "type": "uint256"
        },
        {
          "indexed": false,
          "internalType": "uint256",
          "name": "timestamp",
          "type": "uint256"
        }
      ],
      "name": "MarketActionTx",
      "type": "event"
    },
    {
      "anonymous": false,
      "inputs": [
        {
          "indexed": true,
          "internalType": "address",
          "name": "user",
          "type": "address"
        },
        {
          "indexed": true,
          "internalType": "uint256",
          "name": "marketId",
          "type": "uint256"
        },
        {
          "indexed": false,
          "internalType": "uint256",
          "name": "outcomes",
          "type": "uint256"
        },
        {
          "indexed": false,
          "internalType": "string",
          "name": "question",
          "type": "string"
        },
        {
          "indexed": false,
          "internalType": "string",
          "name": "image",
          "type": "string"
        }
      ],
      "name": "MarketCreated",
      "type": "event"
    },
    {
      "anonymous": false,
      "inputs": [
        {
          "indexed": true,
          "internalType": "uint256",
          "name": "marketId",
          "type": "uint256"
        },
        {
          "indexed": false,
          "internalType": "uint256",
          "name": "value",
          "type": "uint256"
        },
        {
          "indexed": false,
          "internalType": "uint256",
          "name": "price",
          "type": "uint256"
        },
        {
          "indexed": false,
          "internalType": "uint256",
          "name": "timestamp",
          "type": "uint256"
        }
      ],
      "name": "MarketLiquidity",
      "type": "event"
    },
    {
      "anonymous": false,
      "inputs": [
        {
          "indexed": true,
          "internalType": "uint256",
          "name": "marketId",
          "type": "uint256"
        },
        {
          "indexed": true,
          "internalType": "uint256",
          "name": "outcomeId",
          "type": "uint256"
        },
        {
          "indexed": false,
          "internalType": "uint256",
          "name": "value",
          "type": "uint256"
        },
        {
          "indexed": false,
          "internalType": "uint256",
          "name": "timestamp",
          "type": "uint256"
        }
      ],
      "name": "MarketOutcomePrice",
      "type": "event"
    },
    {
      "anonymous": false,
      "inputs": [
        {
          "indexed": true,
          "internalType": "address",
          "name": "user",
          "type": "address"
        },
        {
          "indexed": true,
          "internalType": "uint256",
          "name": "marketId",
          "type": "uint256"
        },
        {
          "indexed": false,
          "internalType": "uint256",
          "name": "outcomeId",
          "type": "uint256"
        },
        {
          "indexed": false,
          "internalType": "uint256",
          "name": "timestamp",
          "type": "uint256"
        }
      ],
      "name": "MarketResolved",
      "type": "event"
    },
    {
      "anonymous": false,
      "inputs": [
        {
          "indexed": true,
          "internalType": "address",
          "name": "previousOwner",
          "type": "address"
        },
        {
          "indexed": true,
          "internalType": "address",
          "name": "newOwner",
          "type": "address"
        }
      ],
      "name": "OwnershipTransferred",
      "type": "event"
    },
    {
      "inputs": [],
      "name": "MAX_UINT_256",
      "outputs": [
        {
          "internalType": "uint256",
          "name": "",
          "type": "uint256"
        }
      ],
      "stateMutability": "view",
      "type": "function",
      "constant": true
    },
    {
      "inputs": [],
      "name": "ONE",
      "outputs": [
        {
          "internalType": "uint256",
          "name": "",
          "type": "uint256"
        }
      ],
      "stateMutability": "view",
      "type": "function",
      "constant": true
    },
    {
      "inputs": [],
      "name": "fee",
      "outputs": [
        {
          "internalType": "uint256",
          "name": "",
          "type": "uint256"
        }
      ],
      "stateMutability": "view",
      "type": "function",
      "constant": true
    },
    {
      "inputs": [],
      "name": "marketIndex",
      "outputs": [
        {
          "internalType": "uint256",
          "name": "",
          "type": "uint256"
        }
      ],
      "stateMutability": "view",
      "type": "function",
      "constant": true
    },
    {
      "inputs": [],
      "name": "owner",
      "outputs": [
        {
          "internalType": "address",
          "name": "",
          "type": "address"
        }
      ],
      "stateMutability": "view",
      "type": "function",
      "constant": true
    },
    {
      "inputs": [],
      "name": "realitioAddress",
      "outputs": [
        {
          "internalType": "address",
          "name": "",
          "type": "address"
        }
      ],
      "stateMutability": "view",
      "type": "function",
      "constant": true
    },
    {
      "inputs": [],
      "name": "realitioTimeout",
      "outputs": [
        {
          "internalType": "uint256",
          "name": "",
          "type": "uint256"
        }
      ],
      "stateMutability": "view",
      "type": "function",
      "constant": true
    },
    {
      "inputs": [],
      "name": "renounceOwnership",
      "outputs": [],
      "stateMutability": "nonpayable",
      "type": "function"
    },
    {
      "inputs": [],
      "name": "requiredBalance",
      "outputs": [
        {
          "internalType": "uint256",
          "name": "",
          "type": "uint256"
        }
      ],
      "stateMutability": "view",
      "type": "function",
      "constant": true
    },
    {
      "inputs": [],
      "name": "token",
      "outputs": [
        {
          "internalType": "contract IERC20",
          "name": "",
          "type": "address"
        }
      ],
      "stateMutability": "view",
      "type": "function",
      "constant": true
    },
    {
      "inputs": [
        {
          "internalType": "address",
          "name": "newOwner",
          "type": "address"
        }
      ],
      "name": "transferOwnership",
      "outputs": [],
      "stateMutability": "nonpayable",
      "type": "function"
    },
    {
      "inputs": [],
      "name": "initialize",
      "outputs": [],
      "stateMutability": "nonpayable",
      "type": "function"
    },
    {
      "inputs": [
        {
          "internalType": "string",
          "name": "question",
          "type": "string"
        },
        {
          "internalType": "string",
          "name": "image",
          "type": "string"
        },
        {
          "internalType": "uint256",
          "name": "closesAt",
          "type": "uint256"
        },
        {
          "internalType": "address",
          "name": "arbitrator",
          "type": "address"
        },
        {
          "internalType": "uint256",
          "name": "outcomes",
          "type": "uint256"
        }
      ],
      "name": "createMarket",
      "outputs": [
        {
          "internalType": "uint256",
          "name": "",
          "type": "uint256"
        }
      ],
      "stateMutability": "payable",
      "type": "function",
      "payable": true
    },
    {
      "inputs": [
        {
          "internalType": "uint256",
          "name": "amount",
          "type": "uint256"
        },
        {
          "internalType": "uint256",
          "name": "marketId",
          "type": "uint256"
        },
        {
          "internalType": "uint256",
          "name": "outcomeId",
          "type": "uint256"
        }
      ],
      "name": "calcBuyAmount",
      "outputs": [
        {
          "internalType": "uint256",
          "name": "",
          "type": "uint256"
        }
      ],
      "stateMutability": "view",
      "type": "function",
      "constant": true
    },
    {
      "inputs": [
        {
          "internalType": "uint256",
          "name": "amount",
          "type": "uint256"
        },
        {
          "internalType": "uint256",
          "name": "marketId",
          "type": "uint256"
        },
        {
          "internalType": "uint256",
          "name": "outcomeId",
          "type": "uint256"
        }
      ],
      "name": "calcSellAmount",
      "outputs": [
        {
          "internalType": "uint256",
          "name": "outcomeTokenSellAmount",
          "type": "uint256"
        }
      ],
      "stateMutability": "view",
      "type": "function",
      "constant": true
    },
    {
      "inputs": [
        {
          "internalType": "uint256",
          "name": "marketId",
          "type": "uint256"
        },
        {
          "internalType": "uint256",
          "name": "outcomeId",
          "type": "uint256"
        },
        {
          "internalType": "uint256",
          "name": "minOutcomeSharesToBuy",
          "type": "uint256"
        }
      ],
      "name": "buy",
      "outputs": [],
      "stateMutability": "payable",
      "type": "function",
      "payable": true
    },
    {
      "inputs": [
        {
          "internalType": "uint256",
          "name": "marketId",
          "type": "uint256"
        },
        {
          "internalType": "uint256",
          "name": "outcomeId",
          "type": "uint256"
        },
        {
          "internalType": "uint256",
          "name": "value",
          "type": "uint256"
        },
        {
          "internalType": "uint256",
          "name": "maxOutcomeSharesToSell",
          "type": "uint256"
        }
      ],
      "name": "sell",
      "outputs": [],
      "stateMutability": "payable",
      "type": "function",
      "payable": true
    },
    {
      "inputs": [
        {
          "internalType": "uint256",
          "name": "marketId",
          "type": "uint256"
        }
      ],
      "name": "addLiquidity",
      "outputs": [],
      "stateMutability": "payable",
      "type": "function",
      "payable": true
    },
    {
      "inputs": [
        {
          "internalType": "uint256",
          "name": "marketId",
          "type": "uint256"
        },
        {
          "internalType": "uint256",
          "name": "shares",
          "type": "uint256"
        }
      ],
      "name": "removeLiquidity",
      "outputs": [],
      "stateMutability": "payable",
      "type": "function",
      "payable": true
    },
    {
      "inputs": [
        {
          "internalType": "uint256",
          "name": "marketId",
          "type": "uint256"
        }
      ],
      "name": "resolveMarketOutcome",
      "outputs": [
        {
          "internalType": "uint256",
          "name": "",
          "type": "uint256"
        }
      ],
      "stateMutability": "nonpayable",
      "type": "function"
    },
    {
      "inputs": [
        {
          "internalType": "uint256",
          "name": "marketId",
          "type": "uint256"
        }
      ],
      "name": "claimWinnings",
      "outputs": [],
      "stateMutability": "nonpayable",
      "type": "function"
    },
    {
      "inputs": [
        {
          "internalType": "uint256",
          "name": "marketId",
          "type": "uint256"
        },
        {
          "internalType": "uint256",
          "name": "outcomeId",
          "type": "uint256"
        }
      ],
      "name": "claimVoidedOutcomeShares",
      "outputs": [],
      "stateMutability": "nonpayable",
      "type": "function"
    },
    {
      "inputs": [
        {
          "internalType": "uint256",
          "name": "marketId",
          "type": "uint256"
        }
      ],
      "name": "claimLiquidity",
      "outputs": [],
      "stateMutability": "nonpayable",
      "type": "function"
    },
    {
      "inputs": [
        {
          "internalType": "uint256",
          "name": "marketId",
          "type": "uint256"
        }
      ],
      "name": "claimFees",
      "outputs": [],
      "stateMutability": "payable",
      "type": "function",
      "payable": true
    },
    {
      "inputs": [
        {
          "internalType": "uint256",
          "name": "_fee",
          "type": "uint256"
        }
      ],
      "name": "setFee",
      "outputs": [],
      "stateMutability": "nonpayable",
      "type": "function"
    },
    {
      "inputs": [
        {
          "internalType": "address",
          "name": "_address",
          "type": "address"
        }
      ],
      "name": "setRealitioERC20",
      "outputs": [],
      "stateMutability": "nonpayable",
      "type": "function"
    },
    {
      "inputs": [
        {
          "internalType": "uint256",
          "name": "timeout",
          "type": "uint256"
        }
      ],
      "name": "setRealitioTimeout",
      "outputs": [],
      "stateMutability": "nonpayable",
      "type": "function"
    },
    {
      "inputs": [
        {
          "internalType": "contract IERC20",
          "name": "_token",
          "type": "address"
        }
      ],
      "name": "setToken",
      "outputs": [],
      "stateMutability": "nonpayable",
      "type": "function"
    },
    {
      "inputs": [
        {
          "internalType": "uint256",
          "name": "_requiredBalance",
          "type": "uint256"
        }
      ],
      "name": "setRequiredBalance",
      "outputs": [],
      "stateMutability": "nonpayable",
      "type": "function"
    },
    {
      "inputs": [
        {
          "internalType": "uint256",
          "name": "marketId",
          "type": "uint256"
        },
        {
          "internalType": "address",
          "name": "user",
          "type": "address"
        }
      ],
      "name": "getUserMarketShares",
      "outputs": [
        {
          "internalType": "uint256",
          "name": "",
          "type": "uint256"
        },
        {
          "internalType": "uint256",
          "name": "",
          "type": "uint256"
        },
        {
          "internalType": "uint256",
          "name": "",
          "type": "uint256"
        }
      ],
      "stateMutability": "view",
      "type": "function",
      "constant": true
    },
    {
      "inputs": [
        {
          "internalType": "uint256",
          "name": "marketId",
          "type": "uint256"
        },
        {
          "internalType": "address",
          "name": "user",
          "type": "address"
        }
      ],
      "name": "getUserClaimStatus",
      "outputs": [
        {
          "internalType": "bool",
          "name": "",
          "type": "bool"
        },
        {
          "internalType": "bool",
          "name": "",
          "type": "bool"
        },
        {
          "internalType": "bool",
          "name": "",
          "type": "bool"
        },
        {
          "internalType": "bool",
          "name": "",
          "type": "bool"
        },
        {
          "internalType": "uint256",
          "name": "",
          "type": "uint256"
        }
      ],
      "stateMutability": "view",
      "type": "function",
      "constant": true
    },
    {
      "inputs": [
        {
          "internalType": "uint256",
          "name": "marketId",
          "type": "uint256"
        },
        {
          "internalType": "address",
          "name": "user",
          "type": "address"
        }
      ],
      "name": "getUserLiquidityPoolShare",
      "outputs": [
        {
          "internalType": "uint256",
          "name": "",
          "type": "uint256"
        }
      ],
      "stateMutability": "view",
      "type": "function",
      "constant": true
    },
    {
      "inputs": [
        {
          "internalType": "uint256",
          "name": "marketId",
          "type": "uint256"
        },
        {
          "internalType": "address",
          "name": "user",
          "type": "address"
        }
      ],
      "name": "getUserClaimableFees",
      "outputs": [
        {
          "internalType": "uint256",
          "name": "",
          "type": "uint256"
        }
      ],
      "stateMutability": "view",
      "type": "function",
      "constant": true
    },
    {
      "inputs": [],
      "name": "getMarkets",
      "outputs": [
        {
          "internalType": "uint256[]",
          "name": "",
          "type": "uint256[]"
        }
      ],
      "stateMutability": "view",
      "type": "function",
      "constant": true
    },
    {
      "inputs": [
        {
          "internalType": "uint256",
          "name": "marketId",
          "type": "uint256"
        }
      ],
      "name": "getMarketData",
      "outputs": [
        {
          "internalType": "enum PredictionMarket.MarketState",
          "name": "",
          "type": "uint8"
        },
        {
          "internalType": "uint256",
          "name": "",
          "type": "uint256"
        },
        {
          "internalType": "uint256",
          "name": "",
          "type": "uint256"
        },
        {
          "internalType": "uint256",
          "name": "",
          "type": "uint256"
        },
        {
          "internalType": "uint256",
          "name": "",
          "type": "uint256"
        },
        {
          "internalType": "int256",
          "name": "",
          "type": "int256"
        }
      ],
      "stateMutability": "view",
      "type": "function",
      "constant": true
    },
    {
      "inputs": [
        {
          "internalType": "uint256",
          "name": "marketId",
          "type": "uint256"
        }
      ],
      "name": "getMarketAltData",
      "outputs": [
        {
          "internalType": "uint256",
          "name": "",
          "type": "uint256"
        },
        {
          "internalType": "bytes32",
          "name": "",
          "type": "bytes32"
        },
        {
          "internalType": "uint256",
          "name": "",
          "type": "uint256"
        }
      ],
      "stateMutability": "view",
      "type": "function",
      "constant": true
    },
    {
      "inputs": [
        {
          "internalType": "uint256",
          "name": "marketId",
          "type": "uint256"
        }
      ],
      "name": "getMarketQuestion",
      "outputs": [
        {
          "internalType": "bytes32",
          "name": "",
          "type": "bytes32"
        }
      ],
      "stateMutability": "view",
      "type": "function",
      "constant": true
    },
    {
      "inputs": [
        {
          "internalType": "uint256",
          "name": "marketId",
          "type": "uint256"
        }
      ],
      "name": "getMarketPrices",
      "outputs": [
        {
          "internalType": "uint256",
          "name": "",
          "type": "uint256"
        },
        {
          "internalType": "uint256",
          "name": "",
          "type": "uint256"
        },
        {
          "internalType": "uint256",
          "name": "",
          "type": "uint256"
        }
      ],
      "stateMutability": "view",
      "type": "function",
      "constant": true
    },
    {
      "inputs": [
        {
          "internalType": "uint256",
          "name": "marketId",
          "type": "uint256"
        }
      ],
      "name": "getMarketLiquidityPrice",
      "outputs": [
        {
          "internalType": "uint256",
          "name": "",
          "type": "uint256"
        }
      ],
      "stateMutability": "view",
      "type": "function",
      "constant": true
    },
    {
      "inputs": [
        {
          "internalType": "uint256",
          "name": "marketId",
          "type": "uint256"
        }
      ],
      "name": "getMarketResolvedOutcome",
      "outputs": [
        {
          "internalType": "int256",
          "name": "",
          "type": "int256"
        }
      ],
      "stateMutability": "view",
      "type": "function",
      "constant": true
    },
    {
      "inputs": [
        {
          "internalType": "uint256",
          "name": "marketId",
          "type": "uint256"
        }
      ],
      "name": "isMarketVoided",
      "outputs": [
        {
          "internalType": "bool",
          "name": "",
          "type": "bool"
        }
      ],
      "stateMutability": "view",
      "type": "function",
      "constant": true
    },
    {
      "inputs": [
        {
          "internalType": "uint256",
          "name": "marketId",
          "type": "uint256"
        }
      ],
      "name": "getMarketOutcomeIds",
      "outputs": [
        {
          "internalType": "uint256[]",
          "name": "",
          "type": "uint256[]"
        }
      ],
      "stateMutability": "view",
      "type": "function",
      "constant": true
    },
    {
      "inputs": [
        {
          "internalType": "uint256",
          "name": "marketId",
          "type": "uint256"
        },
        {
          "internalType": "uint256",
          "name": "outcomeId",
          "type": "uint256"
        }
      ],
      "name": "getMarketOutcomePrice",
      "outputs": [
        {
          "internalType": "uint256",
          "name": "",
          "type": "uint256"
        }
      ],
      "stateMutability": "view",
      "type": "function",
      "constant": true
    },
    {
      "inputs": [
        {
          "internalType": "uint256",
          "name": "marketId",
          "type": "uint256"
        },
        {
          "internalType": "uint256",
          "name": "outcomeId",
          "type": "uint256"
        }
      ],
      "name": "getMarketOutcomeData",
      "outputs": [
        {
          "internalType": "uint256",
          "name": "",
          "type": "uint256"
        },
        {
          "internalType": "uint256",
          "name": "",
          "type": "uint256"
        },
        {
          "internalType": "uint256",
          "name": "",
          "type": "uint256"
        }
      ],
      "stateMutability": "view",
      "type": "function",
      "constant": true
    }
  ],
  "bytecode": "0x608060405234801561001057600080fd5b50613ac5806100206000396000f3fe6080604052600436106101f75760003560e01c806308560ace146101fc578063144fa6d7146102275780631d7920aa1461024957806328747a80146102785780632c2aa24e1461029857806331877a38146102c95780633620875e146102f65780633d41a26b146103095780633fe45e3b1461031e57806340993b2614610333578063429c9dff146103465780634397c4ce14610366578063441cf65e1461038657806351c6590a146103b35780635e648eff146103c6578063677bd9ff146103e657806369fe0e2d146104065780636f6e9f1e14610426578063715018a6146104465780637b34e6e01461045b5780638129fc1c1461047d57806385b91d8e146104925780638c7adc15146104b25780638cd41552146104c75780638da5cb5b146104e75780639d7de6b3146104fc578063aa22a02e1461050f578063ac68a7481461052f578063b31eb89514610542578063bf45572114610562578063bfacba3d14610582578063c2ee3a08146105b4578063c346a9d0146105c9578063c8f70d01146105e9578063ddca3f4314610609578063ec2c90161461061e578063ec93f0f514610633578063ede2e06e14610653578063efbc47dc14610673578063efce431314610686578063f2fde38b146106a6578063fc0c546a146106c6578063fdff8085146106db578063ffce3d5e146106fb575b600080fd5b34801561020857600080fd5b5061021161071b565b60405161021e91906132e6565b60405180910390f35b34801561023357600080fd5b50610247610242366004613095565b610721565b005b34801561025557600080fd5b5061026961026436600461314d565b61078b565b60405161021e939291906139c1565b34801561028457600080fd5b5061021161029336600461314d565b6107aa565b3480156102a457600080fd5b506102b86102b3366004613165565b610925565b60405161021e9594939291906132bf565b3480156102d557600080fd5b506102e96102e436600461314d565b6109f5565b60405161021e9190613270565b6102476103043660046131e0565b610a5e565b34801561031557600080fd5b50610211610c79565b34801561032a57600080fd5b50610211610c7f565b6102476103413660046131b5565b610c85565b34801561035257600080fd5b506102116103613660046131b5565b610e13565b34801561037257600080fd5b5061021161038136600461314d565b610f73565b34801561039257600080fd5b506103a66103a136600461314d565b610f88565b60405161021e91906132b4565b6102476103c136600461314d565b610fcd565b3480156103d257600080fd5b506102476103e136600461314d565b611055565b3480156103f257600080fd5b5061024761040136600461314d565b61120f565b34801561041257600080fd5b5061024761042136600461314d565b611367565b34801561043257600080fd5b5061024761044136600461314d565b6113ab565b34801561045257600080fd5b506102476113ef565b34801561046757600080fd5b50610470611466565b60405161021e919061325c565b34801561048957600080fd5b50610247611475565b34801561049e57600080fd5b506102696104ad36600461314d565b611500565b3480156104be57600080fd5b50610211611531565b3480156104d357600080fd5b506102116104e2366004613194565b611537565b3480156104f357600080fd5b506104706115f7565b61024761050a366004613194565b611606565b34801561051b57600080fd5b5061021161052a366004613165565b6119f8565b61024761053d36600461314d565b611a4b565b34801561054e57600080fd5b5061026961055d366004613165565b611b14565b34801561056e57600080fd5b5061021161057d36600461314d565b611b72565b34801561058e57600080fd5b506105a261059d36600461314d565b611baf565b60405161021e969594939291906132ef565b3480156105c057600080fd5b50610211611c08565b3480156105d557600080fd5b506102116105e43660046131b5565b611c14565b3480156105f557600080fd5b5061021161060436600461314d565b611d44565b34801561061557600080fd5b50610211611df7565b34801561062a57600080fd5b506102e9611dfd565b34801561063f57600080fd5b5061024761064e366004613194565b611e55565b34801561065f57600080fd5b5061024761066e36600461314d565b61201a565b6102116106813660046130c9565b61205e565b34801561069257600080fd5b506102696106a1366004613194565b61230a565b3480156106b257600080fd5b506102476106c1366004613095565b61234e565b3480156106d257600080fd5b506104706123fd565b3480156106e757600080fd5b506102116106f6366004613165565b61240c565b34801561070757600080fd5b50610247610716366004613095565b612485565b606c5481565b6107296124e6565b6001600160a01b031661073a6115f7565b6001600160a01b0316146107695760405162461bcd60e51b81526004016107609061373e565b60405180910390fd5b606b80546001600160a01b0319166001600160a01b0392909216919091179055565b6000908152606660205260409020600a81015460099091015490918190565b6000818152606660205260408120548290421180156107e6575060008181526066602052604081206006015460ff1660028111156107e457fe5b145b156107f4576107f4816124ea565b8260018060008381526066602052604090206006015460ff16600281111561081857fe5b1461082257600080fd5b6000858152606660205260408082206069546009820154925163684e62bf60e11b8152899492936001600160a01b039092169291839163d09cc57e9161086a916004016132e6565b60206040518083038186803b15801561088257600080fd5b505afa158015610896573d6000803e3d6000fd5b505050506040513d601f19601f820116820180604052506108ba91908101906130b1565b60088401819055604051909150899033907f67a6457c8912ae1b7a9fbdfa311cbd016ba606b548bf06bc80bc751072d91bbc906108fa9085904290613a0c565b60405180910390a361090b8961253a565b505060080154945061091c816124ea565b50505050919050565b600082815260666020526040812081908190819081906002600682015460ff16600281111561095057fe5b14610975576000806000806109658c8c61240c565b95509550955095509550506109eb565b60088101546000908152600e8201602090815260408083206001600160a01b038b16845260048082018452828520546005808401865284872054928801865284872054908801909552929094205490939115159260ff9283169290151591166109de8d8d61240c565b9650965096509650965050505b9295509295909350565b600081815260666020908152604091829020600d810180548451818502810185019095528085526060949293830182828015610a5057602002820191906000526020600020905b815481526020019060010190808311610a3c575b50505050509150505b919050565b600084815260666020526040902054849042118015610a9a575060008181526066602052604081206006015460ff166002811115610a9857fe5b145b15610aa857610aa8816124ea565b8460008060008381526066602052604090206006015460ff166002811115610acc57fe5b14610ad657600080fd5b6000878152606660209081526040808320898452600e810190925282209091610b00888b8b611c14565b905086811115610b225760405162461bcd60e51b815260040161076090613948565b336000908152600483016020526040902054811115610b535760405162461bcd60e51b81526004016107609061388a565b610b5f338b8b846125dd565b6000610b7e606854670de0b6b3a764000061267c90919063ffffffff16565b600a850154610b94908b9063ffffffff6126a416565b81610b9b57fe5b600b8601549190049150610bb5908263ffffffff6126de16565b600b8501556000610bcc8a8363ffffffff6126de16565b90508085600101541015610bf25760405162461bcd60e51b815260040161076090613847565b610bfc8c82612703565b60405133908b156108fc02908c906000818181858888f19350505050158015610c29573d6000803e3d6000fd5b508b6001336001600160a01b0316600080516020613a308339815191528e878f42604051610c5a9493929190613326565b60405180910390a4610c6b8c61253a565b505050505050505050505050565b60001981565b606a5481565b600083815260666020526040902054839042118015610cc1575060008181526066602052604081206006015460ff166002811115610cbf57fe5b145b15610ccf57610ccf816124ea565b8360008060008381526066602052604090206006015460ff166002811115610cf357fe5b14610cfd57600080fd5b6000868152606660205260408120903490610d19828a8a610e13565b905086811015610d3b5760405162461bcd60e51b815260040161076090613911565b600a830154600090670de0b6b3a764000090610d5e90859063ffffffff6126a416565b81610d6557fe5b600b8601549190049150610d7f908263ffffffff6126de16565b600b8501556000610d96848363ffffffff61267c16565b60008b8152600e870160205260409020909150610db38c836127a6565b6003810154841115610dd75760405162461bcd60e51b8152600401610760906138cb565b610de3338d8d8761283f565b8b6000336001600160a01b0316600080516020613a308339815191528e888a42604051610c5a9493929190613326565b60008281526066602052604081206060610e2c856128ce565b90506000610e6c670de0b6b3a7640000610e5685600a01600001548a6126a490919063ffffffff16565b81610e5d57fe5b8991900463ffffffff61267c16565b90506000828681518110610e7c57fe5b602002602001015190506000610ea3670de0b6b3a7640000836126a490919063ffffffff16565b905060005b8451811015610f0e57878114610f06576000858281518110610ec657fe5b60200260200101519050610f02610ee686836126de90919063ffffffff16565b610ef6858463ffffffff6126a416565b9063ffffffff61296116565b9250505b600101610ea8565b5060008111610f2f5760405162461bcd60e51b815260040161076090613391565b610f66610f4a82670de0b6b3a764000063ffffffff61296116565b610f5a848663ffffffff6126de16565b9063ffffffff61267c16565b9998505050505050505050565b60009081526066602052604090206009015490565b60008181526066602052604081206002600682015460ff166002811115610fab57fe5b14610fba576000915050610a59565b600d810154600890910154101592915050565b600081815260666020526040902054819042118015611009575060008181526066602052604081206006015460ff16600281111561100757fe5b145b1561101757611017816124ea565b8160008060008381526066602052604090206006015460ff16600281111561103b57fe5b1461104557600080fd5b61104f8434612991565b50505050565b8060028060008381526066602052604090206006015460ff16600281111561107957fe5b1461108357600080fd5b600083815260666020526040902061109a84611a4b565b3360009081526004820160205260409020546110c85760405162461bcd60e51b815260040161076090613804565b33600090815260058201602052604090205460ff16156110fa5760405162461bcd60e51b8152600401610760906137bd565b600061110585611d44565b33600090815260048401602052604081205491925090670de0b6b3a76400009061113690849063ffffffff6126a416565b8161113d57fe5b04905080836001015410156111645760405162461bcd60e51b8152600401610760906135a0565b6001830154611179908263ffffffff61267c16565b600184810191909155336000818152600580870160209081526040808420805460ff19169096179095556004880190528382205493518a94919392600080516020613a30833981519152926111d19288904290613326565b60405180910390a4604051339082156108fc029083906000818181858888f19350505050158015611206573d6000803e3d6000fd5b50505050505050565b8060028060008381526066602052604090206006015460ff16600281111561123357fe5b1461123d57600080fd5b600083815260666020908152604080832060088101548452600e81018352818420338552600481019093529220546112875760405162461bcd60e51b8152600401610760906134b1565b33600090815260058201602052604090205460ff16156112b95760405162461bcd60e51b815260040161076090613661565b33600090815260048201602052604090205460018301548111156112ef5760405162461bcd60e51b8152600401610760906135a0565b6001830154611304908263ffffffff61267c16565b6001808501919091553360009081526005840160205260409020805460ff191690911790558560046008850154336000818152600487016020526040908190205490519192600080516020613a30833981519152926111d1929088904290613326565b61136f6124e6565b6001600160a01b03166113806115f7565b6001600160a01b0316146113a65760405162461bcd60e51b81526004016107609061373e565b606855565b6113b36124e6565b6001600160a01b03166113c46115f7565b6001600160a01b0316146113ea5760405162461bcd60e51b81526004016107609061373e565b606c55565b6113f76124e6565b6001600160a01b03166114086115f7565b6001600160a01b03161461142e5760405162461bcd60e51b81526004016107609061373e565b6033546040516000916001600160a01b031690600080516020613a70833981519152908390a3603380546001600160a01b0319169055565b6069546001600160a01b031681565b600054610100900460ff168061148e575061148e612d29565b8061149c575060005460ff16155b6114b85760405162461bcd60e51b8152600401610760906136af565b600054610100900460ff161580156114e3576000805460ff1961ff0019909116610100171660011790555b6114eb612d3a565b80156114fd576000805461ff00191690555b50565b600080600061150e84611d44565b611519856000611537565b611524866001611537565b9250925092509193909250565b60675481565b6000828152606660209081526040808320848452600e810190925282206002600683015460ff16600281111561156957fe5b14801561157c575061157a85610f88565b155b156115a6576008820154841461159357600061159d565b670de0b6b3a76400005b925050506115f1565b600380830154908201546115ec91906115e090670de0b6b3a7640000906115d490849063ffffffff61267c16565b9063ffffffff6126a416565b9063ffffffff612db816565b925050505b92915050565b6033546001600160a01b031690565b600082815260666020526040902054829042118015611642575060008181526066602052604081206006015460ff16600281111561164057fe5b145b1561165057611650816124ea565b8260008060008381526066602052604090206006015460ff16600281111561167457fe5b1461167e57600080fd5b600085815260666020908152604080832033845260048101909252909120548511156116bc5760405162461bcd60e51b81526004016107609061388a565b6116c586611a4b565b6116d186866003612dd9565b5060606116dd876128ce565b90506060815160405190808252806020026020018201604052801561170c578160200160208202803883390190505b50905060001960005b835181101561174b57600084828151811061172c57fe5b6020026020010151905080831115611742578092505b50600101611715565b506002840154600090611768906115e08b8563ffffffff6126a416565b905060005b84518110156118065785600201546117a18b87848151811061178b57fe5b60200260200101516126a490919063ffffffff16565b816117a857fe5b048482815181106117b557fe5b6020026020010181815250506117e7828583815181106117d157fe5b602002602001015161267c90919063ffffffff16565b8482815181106117f357fe5b602090810291909101015260010161176d565b506118118a82612703565b6002850154611826908a63ffffffff61267c16565b600286015533600090815260048601602052604090205461184d908a63ffffffff61267c16565b3360009081526004870160205260408120919091555b845181101561194e57600084828151811061187a57fe5b60200260200101511115611946576003808701546000838152600e8901602052604090209091015485516118c79033908f9086908a90829081106118ba57fe5b602002602001015161283f565b8c6000336001600160a01b0316600080516020613a30833981519152868a88815181106118f057fe5b602002602001015161192a8e600301546115e08e8c8151811061190f57fe5b60200260200101516115d48b8d61267c90919063ffffffff16565b4260405161193b9493929190613326565b60405180910390a450505b600101611863565b50604051339082156108fc029083906000818181858888f1935050505015801561197c573d6000803e3d6000fd5b50896003336001600160a01b0316600080516020613a3083398151915260008d86426040516119ae9493929190613326565b60405180910390a489600080516020613a5083398151915286600201546119d48d611d44565b426040516119e4939291906139c1565b60405180910390a250505050505050505050565b600082815260666020908152604080832060028101546001600160a01b038616855260048201909352908320549091611a43916115e090670de0b6b3a764000063ffffffff6126a416565b949350505050565b600081815260666020526040812090611a64833361240c565b90508015611ad057336000908152600c83016020526040902054611a8e908263ffffffff6126de16565b336000818152600c85016020526040808220939093559151909183156108fc02918491818181858888f19350505050158015611ace573d6000803e3d6000fd5b505b826006336000818152600486016020526040808220549051600080516020613a3083398151915292611b0792909188904290613326565b60405180910390a4505050565b60008281526066602090815260408083206001600160a01b0385168085526004808301855283862054868052600e90930180865284872083885282018652848720546001885290865284872092875291019093529220549250925092565b60008181526066602052604081206002600682015460ff166002811115611b9557fe5b14611ba557600019915050610a59565b6008015492915050565b60008181526066602052604081206006810154815460028301546001840154600385015486958695869586958695939460ff909316939192909190611bf38d611b72565b949d939c50919a509850965090945092505050565b670de0b6b3a764000081565b60008281526066602052604081206060611c2d856128ce565b600a830154909150600090611c5190670de0b6b3a76400009063ffffffff61267c16565b611c6988670de0b6b3a764000063ffffffff6126a416565b81611c7057fe5b0490506000828681518110611c8157fe5b602002602001015190506000611ca8670de0b6b3a7640000836126a490919063ffffffff16565b905060005b8451811015611cf757878114611cef576000858281518110611ccb57fe5b60200260200101519050611ceb610ee6868361267c90919063ffffffff16565b9250505b600101611cad565b5060008111611d185760405162461bcd60e51b815260040161076090613391565b610f6682610f5a611d3784670de0b6b3a764000063ffffffff61296116565b869063ffffffff6126de16565b60008181526066602052604081206002600682015460ff166002811115611d6757fe5b148015611d7a5750611d7883610f88565b155b15611dc257600281015460088201546000908152600e83016020526040902060030154611dba91906115e090670de0b6b3a764000063ffffffff6126a416565b915050610a59565b6003810154600d8201546002830154611df092916115e09190670de0b6b3a76400000263ffffffff6126a416565b9392505050565b60685481565b60606065805480602002602001604051908101604052809291908181526020018280548015611e4b57602002820191906000526020600020905b815481526020019060010190808311611e37575b5050505050905090565b8160028060008381526066602052604090206006015460ff166002811115611e7957fe5b14611e8357600080fd5b6000848152606660209081526040808320868452600e8101835281842033855260048101909352922054611ec95760405162461bcd60e51b81526004016107609061343b565b33600090815260068201602052604090205460ff1615611efb5760405162461bcd60e51b81526004016107609061397e565b6000611f078787611537565b33600090815260048401602052604081205491925090611f3c90670de0b6b3a7640000906115e090859063ffffffff6126a416565b90508084600101541015611f625760405162461bcd60e51b8152600401610760906135a0565b6001840154611f77908263ffffffff61267c16565b6001808601919091553360009081526006850160205260409020805460ff191690911790558760076008860154336000818152600488016020526040908190205490519192600080516020613a3083398151915292611fda929088904290613326565b60405180910390a4604051339082156108fc029083906000818181858888f1935050505015801561200f573d6000803e3d6000fd5b505050505050505050565b6120226124e6565b6001600160a01b03166120336115f7565b6001600160a01b0316146120595760405162461bcd60e51b81526004016107609061373e565b606a55565b606c54606b546040516370a0823160e01b8152600092916001600160a01b0316906370a082319061209390339060040161325c565b60206040518083038186803b1580156120ab57600080fd5b505afa1580156120bf573d6000803e3d6000fd5b505050506040513d601f19601f820116820180604052506120e391908101906130b1565b10156121015760405162461bcd60e51b815260040161076090613617565b60675460658054600181019091557f8ff97419363ffd7000167f130ef7168fbea05faf9251824ca5043f113cc6a7c70181905560008181526066602052604090203461215f5760405162461bcd60e51b81526004016107609061340c565b4286101561217f5760405162461bcd60e51b815260040161076090613773565b8360021461219f5760405162461bcd60e51b8152600401610760906134fb565b85815560068101805460ff19169055606854600a820155600019600882015560005b8481101561220357600d820180546001818101835560009283526020808420909201849055838352600e850190915260409091208481558101829055016121c1565b50606954606a5460405163d4876b9f60e01b81526001600160a01b0390921691829163d4876b9f91612245916002918e918c918e906000908190600401613341565b602060405180830381600087803b15801561225f57600080fd5b505af1158015612273573d6000803e3d6000fd5b505050506040513d601f19601f8201168201806040525061229791908101906130b1565b60098301556122a68334612991565b6122af8361253a565b82336001600160a01b03167f928446b14f4c661d8499681f1d2eb118eb6e89066877a7d43e0672a27cc63a32878c8c6040516122ed939291906139d7565b60405180910390a350506067805460010190559695505050505050565b6000828152606660209081526040808320848452600e81019092528220829182916123358787611537565b6003820154600290920154909891975095509350505050565b6123566124e6565b6001600160a01b03166123676115f7565b6001600160a01b03161461238d5760405162461bcd60e51b81526004016107609061373e565b6001600160a01b0381166123b35760405162461bcd60e51b8152600401610760906133c6565b6033546040516001600160a01b03808416921690600080516020613a7083398151915290600090a3603380546001600160a01b0319166001600160a01b0392909216919091179055565b606b546001600160a01b031681565b600082815260666020908152604080832060028101546001600160a01b03861685526004820190935290832054600b82015491928492612456926115e0919063ffffffff6126a416565b6001600160a01b0385166000908152600c840160205260409020549091506115ec90829063ffffffff61267c16565b61248d6124e6565b6001600160a01b031661249e6115f7565b6001600160a01b0316146124c45760405162461bcd60e51b81526004016107609061373e565b606980546001600160a01b0319166001600160a01b0392909216919091179055565b3390565b6000818152606660205260409020600681015460ff16600281111561250b57fe5b600101600281111561251957fe5b60068201805460ff1916600183600281111561253157fe5b02179055505050565b6000818152606660205260408120905b600d8201548110156125a25780837f8270f0a0534b13b7f92d1dbd58aa75c5207b40c55fefa7a17110c6136ad7270b6125838685611537565b42604051612592929190613a0c565b60405180910390a360010161254a565b5081600080516020613a5083398151915282600201546125c185611d44565b426040516125d1939291906139c1565b60405180910390a25050565b6000838152606660209081526040808320858452600e810183528184206001600160a01b038916855260048101909352922054612620908463ffffffff61267c16565b6001600160a01b03871660009081526004830160205260409020556003810154612650908463ffffffff6126de16565b60038083019190915582015461266c908463ffffffff6126de16565b8260030181905550505050505050565b60008282111561269e5760405162461bcd60e51b815260040161076090613569565b50900390565b6000826126b3575060006115f1565b828202828482816126c057fe5b0414611df05760405162461bcd60e51b8152600401610760906136fd565b600082820183811015611df05760405162461bcd60e51b81526004016107609061347c565b6000828152606660205260408120905b600d820154811015612786576000818152600e8301602052604090206003810154612744908563ffffffff61267c16565b6003820155600281015461275e908563ffffffff61267c16565b60028201556003830154612778908563ffffffff61267c16565b600384015550600101612713565b50600181015461279c908363ffffffff61267c16565b6001909101555050565b6000828152606660205260408120905b600d820154811015612829576000818152600e83016020526040902060038101546127e7908563ffffffff6126de16565b60038201556002810154612801908563ffffffff6126de16565b6002820155600383015461281b908563ffffffff6126de16565b6003840155506001016127b6565b50600181015461279c908363ffffffff6126de16565b6000838152606660209081526040808320858452600e810183528184206001600160a01b038916855260048101909352922054612882908463ffffffff6126de16565b6001600160a01b038716600090815260048301602052604090205560038101546128b2908463ffffffff61267c16565b60038083019190915582015461266c908463ffffffff61267c16565b600081815260666020908152604091829020600d81015483518181528184028101909301909352606092909183918015612912578160200160208202803883390190505b50905060005b600d830154811015612959576000818152600e84016020526040902060030154825183908390811061294657fe5b6020908102919091010152600101612918565b509392505050565b600082156129805781600184038161297557fe5b0460010190506115f1565b81838161298957fe5b049392505050565b6000828152606660205260409020548290421180156129cd575060008181526066602052604081206006015460ff1660028111156129cb57fe5b145b156129db576129db816124ea565b8260008060008381526066602052604090206006015460ff1660028111156129ff57fe5b14612a0957600080fd5b600085815260666020526040902084612a345760405162461bcd60e51b815260040161076090613532565b60006060612a41886128ce565b905060608151604051908082528060200260200182016040528015612a70578160200160208202803883390190505b50600285015490915060009015612b5f5760005b8351811015612aba576000848281518110612a9b57fe5b6020026020010151905080831015612ab1578092505b50600101612a84565b5060005b8351811015612b2a57600082612af0868481518110612ad957fe5b60200260200101518d6126a490919063ffffffff16565b81612af757fe5b049050612b0a8b8263ffffffff61267c16565b848381518110612b1657fe5b602090810291909101015250600101612abe565b5080612b4386600201548b6126a490919063ffffffff16565b81612b4a57fe5b049350612b598a856002612dd9565b50612b63565b8893505b6002850154612b78908563ffffffff6126de16565b6002860155336000908152600486016020526040902054612b9f908563ffffffff6126de16565b336000908152600487016020526040902055612bbb8a8a6127a6565b60005b8251811015612c81576000838281518110612bd557fe5b60200260200101511115612c79576003808701546000838152600e890160205260409020909101548451612c159033908f9086908990829081106118ba57fe5b8c6000336001600160a01b0316600080516020613a3083398151915286898881518110612c3e57fe5b6020026020010151612c5d8e600301546115e08d8c8151811061190f57fe5b42604051612c6e9493929190613326565b60405180910390a450505b600101612bbe565b506000612c8d8b611d44565b90506000670de0b6b3a7640000612caa838863ffffffff6126a416565b81612cb157fe5b0490508b6002336001600160a01b0316600080516020613a3083398151915260008a8642604051612ce59493929190613326565b60405180910390a48b600080516020613a5083398151915288600201548442604051612d13939291906139c1565b60405180910390a2505050505050505050505050565b6000612d3430612ec9565b15905090565b600054610100900460ff1680612d535750612d53612d29565b80612d61575060005460ff16155b612d7d5760405162461bcd60e51b8152600401610760906136af565b600054610100900460ff16158015612da8576000805460ff1961ff0019909116610100171660011790555b612db0612ecf565b6114eb612f50565b60008082116129805760405162461bcd60e51b8152600401610760906135e3565b60008381526066602052604081206002810154600b8201548391612e08916115e090889063ffffffff6126a416565b90506002846007811115612e1857fe5b1415612e7157600b820154612e33908263ffffffff6126de16565b600b830155336000908152600c83016020526040902054612e5a908263ffffffff6126de16565b336000908152600c84016020526040902055612ec0565b600b820154612e86908263ffffffff61267c16565b600b830155336000908152600c83016020526040902054612ead908263ffffffff61267c16565b336000908152600c840160205260409020555b50509392505050565b3b151590565b600054610100900460ff1680612ee85750612ee8612d29565b80612ef6575060005460ff16155b612f125760405162461bcd60e51b8152600401610760906136af565b600054610100900460ff161580156114eb576000805460ff1961ff00199091166101001716600117905580156114fd576000805461ff001916905550565b600054610100900460ff1680612f695750612f69612d29565b80612f77575060005460ff16155b612f935760405162461bcd60e51b8152600401610760906136af565b600054610100900460ff16158015612fbe576000805460ff1961ff0019909116610100171660011790555b6000612fc86124e6565b603380546001600160a01b0319166001600160a01b03831690811790915560405191925090600090600080516020613a70833981519152908290a35080156114fd576000805461ff001916905550565b600082601f830112613028578081fd5b81356001600160401b038082111561303e578283fd5b604051601f8301601f19168101602001828111828210171561305e578485fd5b60405282815292508284830160200186101561307957600080fd5b8260208601602083013760006020848301015250505092915050565b6000602082840312156130a6578081fd5b8135611df081613a1a565b6000602082840312156130c2578081fd5b5051919050565b600080600080600060a086880312156130e0578081fd5b85356001600160401b03808211156130f6578283fd5b61310289838a01613018565b96506020880135915080821115613117578283fd5b5061312488828901613018565b94505060408601359250606086013561313c81613a1a565b949793965091946080013592915050565b60006020828403121561315e578081fd5b5035919050565b60008060408385031215613177578182fd5b82359150602083013561318981613a1a565b809150509250929050565b600080604083850312156131a6578182fd5b50508035926020909101359150565b6000806000606084860312156131c9578283fd5b505081359360208301359350604090920135919050565b600080600080608085870312156131f5578384fd5b5050823594602084013594506040840135936060013592509050565b60008151808452815b818110156132365760208185018101518683018201520161321a565b818111156132475782602083870101525b50601f01601f19169290920160200192915050565b6001600160a01b0391909116815260200190565b6020808252825182820181905260009190848201906040850190845b818110156132a85783518352928401929184019160010161328c565b50909695505050505050565b901515815260200190565b94151585529215156020850152901515604084015215156060830152608082015260a00190565b90815260200190565b60c08101600388106132fd57fe5b968152602081019590955260408501939093526060840191909152608083015260a09091015290565b93845260208401929092526040830152606082015260800190565b600088825260e0602083015261335a60e0830189613211565b6001600160a01b039790971660408301525063ffffffff948516606082015292909316608083015260a082015260c0015292915050565b6020808252601b908201527a6d7573742068617665206e6f6e2d7a65726f2062616c616e63657360281b604082015260600190565b60208082526026908201527f4f776e61626c653a206e6577206f776e657220697320746865207a65726f206160408201526564647265737360d01b606082015260800190565b60208082526015908201527407374616b65206e6565647320746f206265203e203605c1b604082015260600190565b60208082526021908201527f7573657220646f6573206e6f7420686f6c64206f7574636f6d652073686172656040820152607360f81b606082015260800190565b6020808252601b908201527a536166654d6174683a206164646974696f6e206f766572666c6f7760281b604082015260600190565b6020808252602a908201527f7573657220646f6573206e6f7420686f6c64207265736f6c766564206f7574636040820152696f6d652073686172657360b01b606082015260800190565b6020808252601e908201527f6e756d626572206f66206f7574636f6d65732068617320746f20626520320000604082015260600190565b6020808252601f908201527f7374616b652068617320746f2062652067726561746572207468616e20302e00604082015260600190565b6020808252601e908201527f536166654d6174683a207375627472616374696f6e206f766572666c6f770000604082015260600190565b60208082526023908201527f4d61726b657420646f6573206e6f74206861766520656e6f7567682062616c616040820152626e636560e81b606082015260800190565b6020808252601a9082015279536166654d6174683a206469766973696f6e206279207a65726f60301b604082015260600190565b6020808252602a908201527f6d73672e73656e646572206d75737420686f6c64206d696e696d756d2065726360408201526932302062616c616e636560b01b606082015260800190565b6020808252602e908201527f7573657220616c726561647920636c61696d6564207265736f6c766564206f7560408201526d74636f6d652077696e6e696e677360901b606082015260800190565b6020808252602e908201527f496e697469616c697a61626c653a20636f6e747261637420697320616c72656160408201526d191e481a5b9a5d1a585b1a5e995960921b606082015260800190565b60208082526021908201527f536166654d6174683a206d756c7469706c69636174696f6e206f766572666c6f6040820152607760f81b606082015260800190565b6020808252818101527f4f776e61626c653a2063616c6c6572206973206e6f7420746865206f776e6572604082015260600190565b6020808252602a908201527f6d61726b6574206d757374207265736f6c7665206166746572207468652063756040820152697272656e74206461746560b01b606082015260800190565b60208082526027908201527f7573657220616c726561647920636c61696d6564206c69717569646974792077604082015266696e6e696e677360c81b606082015260800190565b60208082526023908201527f7573657220646f6573206e6f7420686f6c64206c69717569646974792073686160408201526272657360e81b606082015260800190565b60208082526023908201527f6d61726b657420646f6573206e6f74206861766520656e6f7567682062616c616040820152626e636560e81b606082015260800190565b60208082526021908201527f7573657220646f6573206e6f74206861766520656e6f7567682062616c616e636040820152606560f81b606082015260800190565b60208082526026908201527f6f7574636f6d652073686172657320706f6f6c2062616c616e636520697320746040820152656f6f206c6f7760d01b606082015260800190565b6020808252601e908201527f6d696e696d756d2062757920616d6f756e74206e6f7420726561636865640000604082015260600190565b6020808252601c908201527b1b585e1a5b5d5b481cd95b1b08185b5bdd5b9d08195e18d95959195960221b604082015260600190565b60208082526023908201527f7573657220616c726561647920636c61696d6564206f7574636f6d652073686160408201526272657360e81b606082015260800190565b9283526020830191909152604082015260600190565b6000848252606060208301526139f06060830185613211565b8281036040840152613a028185613211565b9695505050505050565b918252602082015260400190565b6001600160a01b03811681146114fd57600080fdfe9dcabe311735ed0d65f0c22c5425d1f17331f94c9d0767f59e58473cf95ada611eca98f266e5348ae38d5d057a4d8e451e76672f69ac6ba4b0e3b31ea9c7eb2b8be0079c531659141344cd1fd0a4f28419497f9722a3daafe3b4186f6b6457e0a2646970667358221220cdc69f2f87582e825473d9274c464139a989582aadd6b54b6e672518747a624164736f6c63430006020033",
  "source": "pragma solidity ^0.6.0;\npragma experimental ABIEncoderV2;\n\nimport \"./RealitioERC20.sol\";\n\n// openzeppelin imports\nimport \"@openzeppelin/contracts/math/SafeMath.sol\";\nimport \"@openzeppelin/contracts-upgradeable/access/OwnableUpgradeable.sol\";\n\nlibrary CeilDiv {\n  // calculates ceil(x/y)\n  function ceildiv(uint256 x, uint256 y) internal pure returns (uint256) {\n    if (x > 0) return ((x - 1) / y) + 1;\n    return x / y;\n  }\n}\n\n/// @title Market Contract Factory\ncontract PredictionMarket is Initializable, OwnableUpgradeable {\n  using SafeMath for uint256;\n  using CeilDiv for uint256;\n\n  // ------ Events ------\n\n  event MarketCreated(address indexed user, uint256 indexed marketId, uint256 outcomes, string question, string image);\n\n  event MarketActionTx(\n    address indexed user,\n    MarketAction indexed action,\n    uint256 indexed marketId,\n    uint256 outcomeId,\n    uint256 shares,\n    uint256 value,\n    uint256 timestamp\n  );\n\n  event MarketOutcomePrice(uint256 indexed marketId, uint256 indexed outcomeId, uint256 value, uint256 timestamp);\n\n  event MarketLiquidity(\n    uint256 indexed marketId,\n    uint256 value, // total liquidity\n    uint256 price, // value of one liquidity share; max: 1 (50-50 situation)\n    uint256 timestamp\n  );\n\n  event MarketResolved(address indexed user, uint256 indexed marketId, uint256 outcomeId, uint256 timestamp);\n\n  // ------ Events End ------\n\n  uint256 public constant MAX_UINT_256 = 115792089237316195423570985008687907853269984665640564039457584007913129639935;\n\n  uint256 public constant ONE = 10**18;\n\n  enum MarketState {\n    open,\n    closed,\n    resolved\n  }\n  enum MarketAction {\n    buy,\n    sell,\n    addLiquidity,\n    removeLiquidity,\n    claimWinnings,\n    claimLiquidity,\n    claimFees,\n    claimVoided\n  }\n\n  struct Market {\n    // market details\n    uint256 closesAtTimestamp;\n    uint256 balance; // total stake\n    uint256 liquidity; // stake held\n    uint256 sharesAvailable; // shares held (all outcomes)\n    mapping(address => uint256) liquidityShares;\n    mapping(address => bool) liquidityClaims; // wether user has claimed liquidity earnings\n    MarketState state; // resolution variables\n    MarketResolution resolution; // fees\n    MarketFees fees;\n    // market outcomes\n    uint256[] outcomeIds;\n    mapping(uint256 => MarketOutcome) outcomes;\n  }\n\n  struct MarketFees {\n    uint256 value; // fee % taken from every transaction\n    uint256 poolWeight; // internal var used to ensure pro-rate fee distribution\n    mapping(address => uint256) claimed;\n  }\n\n  struct MarketResolution {\n    bool resolved;\n    uint256 outcomeId;\n    bytes32 questionId; // realitio questionId\n  }\n\n  struct MarketOutcome {\n    uint256 marketId;\n    uint256 id;\n    Shares shares;\n  }\n\n  struct Shares {\n    uint256 total; // number of shares\n    uint256 available; // available shares\n    mapping(address => uint256) holders;\n    mapping(address => bool) claims; // wether user has claimed winnings\n    mapping(address => bool) voidedClaims; // wether user has claimed voided market shares\n  }\n\n  uint256[] marketIds;\n  mapping(uint256 => Market) markets;\n  uint256 public marketIndex;\n\n  // governance\n  uint256 public fee; // fee % taken from every transaction, can be updated by contract owner\n  // realitio configs\n  address public realitioAddress;\n  uint256 public realitioTimeout;\n  // market creation\n  IERC20 public token; // token used for rewards / market creation\n  uint256 public requiredBalance; // required balance for market creation\n\n  // ------ Modifiers ------\n\n  modifier isMarket(uint256 marketId) {\n    require(marketId < marketIndex);\n    _;\n  }\n\n  modifier timeTransitions(uint256 marketId) {\n    if (now > markets[marketId].closesAtTimestamp && markets[marketId].state == MarketState.open) {\n      nextState(marketId);\n    }\n    _;\n  }\n\n  modifier atState(uint256 marketId, MarketState state) {\n    require(markets[marketId].state == state);\n    _;\n  }\n\n  modifier notAtState(uint256 marketId, MarketState state) {\n    require(markets[marketId].state != state);\n    _;\n  }\n\n  modifier transitionNext(uint256 marketId) {\n    _;\n    nextState(marketId);\n  }\n\n  modifier mustHoldRequiredBalance() {\n    require(token.balanceOf(msg.sender) >= requiredBalance, \"msg.sender must hold minimum erc20 balance\");\n    _;\n  }\n\n  // ------ Modifiers End ------\n\n  // Initializer function (replaces constructor)\n  function initialize() public initializer {\n    __Ownable_init();\n  }\n\n  // ------ Core Functions ------\n\n  /// @dev Creates a market, initializes the outcome shares pool and submits a question in Realitio\n  function createMarket(\n    string memory question,\n    string memory image,\n    uint256 closesAt,\n    address arbitrator,\n    uint256 outcomes\n  ) public payable mustHoldRequiredBalance() returns (uint256) {\n    uint256 marketId = marketIndex;\n    marketIds.push(marketId);\n\n    Market storage market = markets[marketId];\n\n    require(msg.value > 0, \"stake needs to be > 0\");\n    require(closesAt >= now, \"market must resolve after the current date\");\n    require(arbitrator == address(arbitrator), \"invalid arbitrator address\");\n    // v1 - only binary markets\n    require(outcomes == 2, \"number of outcomes has to be 2\");\n\n    market.closesAtTimestamp = closesAt;\n    market.state = MarketState.open;\n    market.fees.value = fee;\n    // setting intial value to an integer that does not map to any outcomeId\n    market.resolution.outcomeId = MAX_UINT_256;\n\n    // creating market outcomes\n    for (uint256 i = 0; i < outcomes; i++) {\n      market.outcomeIds.push(i);\n      MarketOutcome storage outcome = market.outcomes[i];\n\n      outcome.marketId = marketId;\n      outcome.id = i;\n    }\n\n    // creating question in realitio\n    RealitioERC20 realitio = RealitioERC20(realitioAddress);\n\n    market.resolution.questionId = realitio.askQuestionERC20(\n      2,\n      question,\n      arbitrator,\n      uint32(realitioTimeout),\n      uint32(closesAt),\n      0,\n      0\n    );\n\n    addLiquidity(marketId, msg.value);\n\n    // emiting initial price events\n    emitMarketOutcomePriceEvents(marketId);\n    emit MarketCreated(msg.sender, marketId, outcomes, question, image);\n\n    // incrementing market array index\n    marketIndex = marketIndex + 1;\n\n    return marketId;\n  }\n\n  /// @dev Calculates the number of shares bought with \"amount\" balance\n  function calcBuyAmount(\n    uint256 amount,\n    uint256 marketId,\n    uint256 outcomeId\n  ) public view returns (uint256) {\n    Market storage market = markets[marketId];\n\n    uint256[] memory outcomesShares = getMarketOutcomesShares(marketId);\n    uint256 amountMinusFees = amount.sub(amount.mul(market.fees.value) / ONE);\n    uint256 buyTokenPoolBalance = outcomesShares[outcomeId];\n    uint256 endingOutcomeBalance = buyTokenPoolBalance.mul(ONE);\n    for (uint256 i = 0; i < outcomesShares.length; i++) {\n      if (i != outcomeId) {\n        uint256 outcomeShares = outcomesShares[i];\n        endingOutcomeBalance = endingOutcomeBalance.mul(outcomeShares).ceildiv(outcomeShares.add(amountMinusFees));\n      }\n    }\n    require(endingOutcomeBalance > 0, \"must have non-zero balances\");\n\n    return buyTokenPoolBalance.add(amountMinusFees).sub(endingOutcomeBalance.ceildiv(ONE));\n  }\n\n  /// @dev Calculates the number of shares needed to be sold in order to receive \"amount\" in balance\n  function calcSellAmount(\n    uint256 amount,\n    uint256 marketId,\n    uint256 outcomeId\n  ) public view returns (uint256 outcomeTokenSellAmount) {\n    Market storage market = markets[marketId];\n\n    uint256[] memory outcomesShares = getMarketOutcomesShares(marketId);\n    uint256 amountPlusFees = amount.mul(ONE) / ONE.sub(market.fees.value);\n    uint256 sellTokenPoolBalance = outcomesShares[outcomeId];\n    uint256 endingOutcomeBalance = sellTokenPoolBalance.mul(ONE);\n    for (uint256 i = 0; i < outcomesShares.length; i++) {\n      if (i != outcomeId) {\n        uint256 outcomeShares = outcomesShares[i];\n        endingOutcomeBalance = endingOutcomeBalance.mul(outcomeShares).ceildiv(outcomeShares.sub(amountPlusFees));\n      }\n    }\n    require(endingOutcomeBalance > 0, \"must have non-zero balances\");\n\n    return amountPlusFees.add(endingOutcomeBalance.ceildiv(ONE)).sub(sellTokenPoolBalance);\n  }\n\n  /// @dev Buy shares of a market outcome\n  function buy(\n    uint256 marketId,\n    uint256 outcomeId,\n    uint256 minOutcomeSharesToBuy\n  ) external payable timeTransitions(marketId) atState(marketId, MarketState.open) {\n    Market storage market = markets[marketId];\n\n    uint256 value = msg.value;\n    uint256 shares = calcBuyAmount(value, marketId, outcomeId);\n    require(shares >= minOutcomeSharesToBuy, \"minimum buy amount not reached\");\n\n    // subtracting fee from transaction value\n    uint256 feeAmount = value.mul(market.fees.value) / ONE;\n    market.fees.poolWeight = market.fees.poolWeight.add(feeAmount);\n    uint256 valueMinusFees = value.sub(feeAmount);\n\n    MarketOutcome storage outcome = market.outcomes[outcomeId];\n\n    // Funding market shares with received funds\n    addSharesToMarket(marketId, valueMinusFees);\n\n    require(outcome.shares.available >= shares, \"outcome shares pool balance is too low\");\n\n    transferOutcomeSharesfromPool(msg.sender, marketId, outcomeId, shares);\n\n    emit MarketActionTx(msg.sender, MarketAction.buy, marketId, outcomeId, shares, value, now);\n    emitMarketOutcomePriceEvents(marketId);\n  }\n\n  /// @dev Sell shares of a market outcome\n  function sell(\n    uint256 marketId,\n    uint256 outcomeId,\n    uint256 value,\n    uint256 maxOutcomeSharesToSell\n  ) external payable timeTransitions(marketId) atState(marketId, MarketState.open) {\n    Market storage market = markets[marketId];\n    MarketOutcome storage outcome = market.outcomes[outcomeId];\n\n    uint256 shares = calcSellAmount(value, marketId, outcomeId);\n\n    require(shares <= maxOutcomeSharesToSell, \"maximum sell amount exceeded\");\n    require(outcome.shares.holders[msg.sender] >= shares, \"user does not have enough balance\");\n\n    transferOutcomeSharesToPool(msg.sender, marketId, outcomeId, shares);\n\n    // adding fee to transaction value\n    uint256 feeAmount = value.mul(market.fees.value) / (ONE.sub(fee));\n    market.fees.poolWeight = market.fees.poolWeight.add(feeAmount);\n    uint256 valuePlusFees = value.add(feeAmount);\n\n    require(market.balance >= valuePlusFees, \"market does not have enough balance\");\n\n    // Rebalancing market shares\n    removeSharesFromMarket(marketId, valuePlusFees);\n\n    // Transferring funds to user\n    msg.sender.transfer(value);\n\n    emit MarketActionTx(msg.sender, MarketAction.sell, marketId, outcomeId, shares, value, now);\n    emitMarketOutcomePriceEvents(marketId);\n  }\n\n  /// @dev Adds liquidity to a market - external\n  function addLiquidity(uint256 marketId)\n    external\n    payable\n    timeTransitions(marketId)\n    atState(marketId, MarketState.open)\n  {\n    addLiquidity(marketId, msg.value);\n  }\n\n  /// @dev Private function, used by addLiquidity and CreateMarket\n  function addLiquidity(uint256 marketId, uint256 value)\n    private\n    timeTransitions(marketId)\n    atState(marketId, MarketState.open)\n  {\n    Market storage market = markets[marketId];\n\n    require(value > 0, \"stake has to be greater than 0.\");\n\n    uint256 liquidityAmount;\n\n    uint256[] memory outcomesShares = getMarketOutcomesShares(marketId);\n    uint256[] memory sendBackAmounts = new uint256[](outcomesShares.length);\n    uint256 poolWeight = 0;\n\n    if (market.liquidity > 0) {\n      // part of the liquidity is exchanged for outcome shares if market is not balanced\n      for (uint256 i = 0; i < outcomesShares.length; i++) {\n        uint256 outcomeShares = outcomesShares[i];\n        if (poolWeight < outcomeShares) poolWeight = outcomeShares;\n      }\n\n      for (uint256 i = 0; i < outcomesShares.length; i++) {\n        uint256 remaining = value.mul(outcomesShares[i]) / poolWeight;\n        sendBackAmounts[i] = value.sub(remaining);\n      }\n\n      liquidityAmount = value.mul(market.liquidity) / poolWeight;\n\n      // re-balancing fees pool\n      rebalanceFeesPool(marketId, liquidityAmount, MarketAction.addLiquidity);\n    } else {\n      // funding market with no liquidity\n      liquidityAmount = value;\n    }\n\n    // funding market\n    market.liquidity = market.liquidity.add(liquidityAmount);\n    market.liquidityShares[msg.sender] = market.liquidityShares[msg.sender].add(liquidityAmount);\n\n    addSharesToMarket(marketId, value);\n\n    // transform sendBackAmounts to array of amounts added\n    for (uint256 i = 0; i < sendBackAmounts.length; i++) {\n      if (sendBackAmounts[i] > 0) {\n        uint256 marketShares = market.sharesAvailable;\n        uint256 outcomeShares = market.outcomes[i].shares.available;\n        transferOutcomeSharesfromPool(msg.sender, marketId, i, sendBackAmounts[i]);\n        emit MarketActionTx(\n          msg.sender,\n          MarketAction.buy,\n          marketId,\n          i,\n          sendBackAmounts[i],\n          (marketShares.sub(outcomeShares)).mul(sendBackAmounts[i]).div(market.sharesAvailable), // price * shares\n          now\n        );\n      }\n    }\n\n    uint256 liquidityPrice = getMarketLiquidityPrice(marketId);\n    uint256 liquidityValue = liquidityPrice.mul(liquidityAmount) / ONE;\n    emit MarketActionTx(msg.sender, MarketAction.addLiquidity, marketId, 0, liquidityAmount, liquidityValue, now);\n    emit MarketLiquidity(marketId, market.liquidity, liquidityPrice, now);\n  }\n\n  /// @dev Removes liquidity to a market - external\n  function removeLiquidity(uint256 marketId, uint256 shares)\n    external\n    payable\n    timeTransitions(marketId)\n    atState(marketId, MarketState.open)\n  {\n    Market storage market = markets[marketId];\n\n    require(market.liquidityShares[msg.sender] >= shares, \"user does not have enough balance\");\n    // claiming any pending fees\n    claimFees(marketId);\n\n    // re-balancing fees pool\n    rebalanceFeesPool(marketId, shares, MarketAction.removeLiquidity);\n\n    uint256[] memory outcomesShares = getMarketOutcomesShares(marketId);\n    uint256[] memory sendAmounts = new uint256[](outcomesShares.length);\n    uint256 poolWeight = MAX_UINT_256;\n\n    // part of the liquidity is exchanged for outcome shares if market is not balanced\n    for (uint256 i = 0; i < outcomesShares.length; i++) {\n      uint256 outcomeShares = outcomesShares[i];\n      if (poolWeight > outcomeShares) poolWeight = outcomeShares;\n    }\n\n    uint256 liquidityAmount = shares.mul(poolWeight).div(market.liquidity);\n\n    for (uint256 i = 0; i < outcomesShares.length; i++) {\n      sendAmounts[i] = outcomesShares[i].mul(shares) / market.liquidity;\n      sendAmounts[i] = sendAmounts[i].sub(liquidityAmount);\n    }\n\n    // removing liquidity from market\n    removeSharesFromMarket(marketId, liquidityAmount);\n    market.liquidity = market.liquidity.sub(shares);\n    // removing liquidity tokens from market creator\n    market.liquidityShares[msg.sender] = market.liquidityShares[msg.sender].sub(shares);\n\n    for (uint256 i = 0; i < outcomesShares.length; i++) {\n      if (sendAmounts[i] > 0) {\n        uint256 marketShares = market.sharesAvailable;\n        uint256 outcomeShares = market.outcomes[i].shares.available;\n\n        transferOutcomeSharesfromPool(msg.sender, marketId, i, sendAmounts[i]);\n        emit MarketActionTx(\n          msg.sender,\n          MarketAction.buy,\n          marketId,\n          i,\n          sendAmounts[i],\n          (marketShares.sub(outcomeShares)).mul(sendAmounts[i]).div(market.sharesAvailable), // price * shares\n          now\n        );\n      }\n    }\n\n    // transferring user funds from liquidity removed\n    msg.sender.transfer(liquidityAmount);\n\n    emit MarketActionTx(msg.sender, MarketAction.removeLiquidity, marketId, 0, shares, liquidityAmount, now);\n    emit MarketLiquidity(marketId, market.liquidity, getMarketLiquidityPrice(marketId), now);\n  }\n\n  /// @dev Fetches winning outcome from Realitio and resolves the market\n  function resolveMarketOutcome(uint256 marketId)\n    public\n    timeTransitions(marketId)\n    atState(marketId, MarketState.closed)\n    transitionNext(marketId)\n    returns (uint256)\n  {\n    Market storage market = markets[marketId];\n\n    RealitioERC20 realitio = RealitioERC20(realitioAddress);\n    // will fail if question is not finalized\n    uint256 outcomeId = uint256(realitio.resultFor(market.resolution.questionId));\n\n    market.resolution.outcomeId = outcomeId;\n\n    emit MarketResolved(msg.sender, marketId, outcomeId, now);\n    emitMarketOutcomePriceEvents(marketId);\n\n    return market.resolution.outcomeId;\n  }\n\n  /// @dev Allows holders of resolved outcome shares to claim earnings.\n  function claimWinnings(uint256 marketId) public atState(marketId, MarketState.resolved) {\n    Market storage market = markets[marketId];\n    MarketOutcome storage resolvedOutcome = market.outcomes[market.resolution.outcomeId];\n\n    require(resolvedOutcome.shares.holders[msg.sender] > 0, \"user does not hold resolved outcome shares\");\n    require(resolvedOutcome.shares.claims[msg.sender] == false, \"user already claimed resolved outcome winnings\");\n\n    // 1 share => price = 1\n    uint256 value = resolvedOutcome.shares.holders[msg.sender];\n\n    // assuring market has enough funds\n    require(market.balance >= value, \"Market does not have enough balance\");\n\n    market.balance = market.balance.sub(value);\n    resolvedOutcome.shares.claims[msg.sender] = true;\n\n    emit MarketActionTx(\n      msg.sender,\n      MarketAction.claimWinnings,\n      marketId,\n      market.resolution.outcomeId,\n      resolvedOutcome.shares.holders[msg.sender],\n      value,\n      now\n    );\n\n    msg.sender.transfer(value);\n  }\n\n  /// @dev Allows holders of voided outcome shares to claim balance back.\n  function claimVoidedOutcomeShares(uint256 marketId, uint256 outcomeId)\n    public\n    atState(marketId, MarketState.resolved)\n  {\n    Market storage market = markets[marketId];\n    MarketOutcome storage outcome = market.outcomes[outcomeId];\n\n    require(outcome.shares.holders[msg.sender] > 0, \"user does not hold outcome shares\");\n    require(outcome.shares.voidedClaims[msg.sender] == false, \"user already claimed outcome shares\");\n\n    // voided market - shares are valued at last market price\n    uint256 price = getMarketOutcomePrice(marketId, outcomeId);\n    uint256 value = price.mul(outcome.shares.holders[msg.sender]).div(ONE);\n\n    // assuring market has enough funds\n    require(market.balance >= value, \"Market does not have enough balance\");\n\n    market.balance = market.balance.sub(value);\n    outcome.shares.voidedClaims[msg.sender] = true;\n\n    emit MarketActionTx(\n      msg.sender,\n      MarketAction.claimVoided,\n      marketId,\n      market.resolution.outcomeId,\n      outcome.shares.holders[msg.sender],\n      value,\n      now\n    );\n\n    msg.sender.transfer(value);\n  }\n\n  /// @dev Allows liquidity providers to claim earnings from liquidity providing.\n  function claimLiquidity(uint256 marketId) public atState(marketId, MarketState.resolved) {\n    Market storage market = markets[marketId];\n\n    // claiming any pending fees\n    claimFees(marketId);\n\n    require(market.liquidityShares[msg.sender] > 0, \"user does not hold liquidity shares\");\n    require(market.liquidityClaims[msg.sender] == false, \"user already claimed liquidity winnings\");\n\n    // value = total resolved outcome pool shares * pool share (%)\n    uint256 liquidityPrice = getMarketLiquidityPrice(marketId);\n    uint256 value = liquidityPrice.mul(market.liquidityShares[msg.sender]) / ONE;\n\n    // assuring market has enough funds\n    require(market.balance >= value, \"Market does not have enough balance\");\n\n    market.balance = market.balance.sub(value);\n    market.liquidityClaims[msg.sender] = true;\n\n    emit MarketActionTx(\n      msg.sender,\n      MarketAction.claimLiquidity,\n      marketId,\n      0,\n      market.liquidityShares[msg.sender],\n      value,\n      now\n    );\n\n    msg.sender.transfer(value);\n  }\n\n  /// @dev Allows liquidity providers to claim their fees share from fees pool\n  function claimFees(uint256 marketId) public payable {\n    Market storage market = markets[marketId];\n\n    uint256 claimableFees = getUserClaimableFees(marketId, msg.sender);\n\n    if (claimableFees > 0) {\n      market.fees.claimed[msg.sender] = market.fees.claimed[msg.sender].add(claimableFees);\n      msg.sender.transfer(claimableFees);\n    }\n\n    emit MarketActionTx(\n      msg.sender,\n      MarketAction.claimFees,\n      marketId,\n      0,\n      market.liquidityShares[msg.sender],\n      claimableFees,\n      now\n    );\n  }\n\n  /// @dev Rebalances the fees pool. Needed in every AddLiquidity / RemoveLiquidity call\n  function rebalanceFeesPool(\n    uint256 marketId,\n    uint256 liquidityShares,\n    MarketAction action\n  ) private returns (uint256) {\n    Market storage market = markets[marketId];\n\n    uint256 poolWeight = liquidityShares.mul(market.fees.poolWeight).div(market.liquidity);\n\n    if (action == MarketAction.addLiquidity) {\n      market.fees.poolWeight = market.fees.poolWeight.add(poolWeight);\n      market.fees.claimed[msg.sender] = market.fees.claimed[msg.sender].add(poolWeight);\n    } else {\n      market.fees.poolWeight = market.fees.poolWeight.sub(poolWeight);\n      market.fees.claimed[msg.sender] = market.fees.claimed[msg.sender].sub(poolWeight);\n    }\n  }\n\n  /// @dev Transitions market to next state\n  function nextState(uint256 marketId) private {\n    Market storage market = markets[marketId];\n    market.state = MarketState(uint256(market.state) + 1);\n  }\n\n  /// @dev Emits a outcome price event for every outcome\n  function emitMarketOutcomePriceEvents(uint256 marketId) private {\n    Market storage market = markets[marketId];\n\n    for (uint256 i = 0; i < market.outcomeIds.length; i++) {\n      emit MarketOutcomePrice(marketId, i, getMarketOutcomePrice(marketId, i), now);\n    }\n\n    // liquidity shares also change value\n    emit MarketLiquidity(marketId, market.liquidity, getMarketLiquidityPrice(marketId), now);\n  }\n\n  /// @dev Adds outcome shares to shares pool\n  function addSharesToMarket(uint256 marketId, uint256 shares) private {\n    Market storage market = markets[marketId];\n\n    for (uint256 i = 0; i < market.outcomeIds.length; i++) {\n      MarketOutcome storage outcome = market.outcomes[i];\n\n      outcome.shares.available = outcome.shares.available.add(shares);\n      outcome.shares.total = outcome.shares.total.add(shares);\n\n      // only adding to market total shares, the available remains\n      market.sharesAvailable = market.sharesAvailable.add(shares);\n    }\n\n    market.balance = market.balance.add(shares);\n  }\n\n  /// @dev Removes outcome shares from shares pool\n  function removeSharesFromMarket(uint256 marketId, uint256 shares) private {\n    Market storage market = markets[marketId];\n\n    for (uint256 i = 0; i < market.outcomeIds.length; i++) {\n      MarketOutcome storage outcome = market.outcomes[i];\n\n      outcome.shares.available = outcome.shares.available.sub(shares);\n      outcome.shares.total = outcome.shares.total.sub(shares);\n\n      // only subtracting from market total shares, the available remains\n      market.sharesAvailable = market.sharesAvailable.sub(shares);\n    }\n\n    market.balance = market.balance.sub(shares);\n  }\n\n  /// @dev Transfer outcome shares from pool to user balance\n  function transferOutcomeSharesfromPool(\n    address user,\n    uint256 marketId,\n    uint256 outcomeId,\n    uint256 shares\n  ) private {\n    Market storage market = markets[marketId];\n    MarketOutcome storage outcome = market.outcomes[outcomeId];\n\n    // transfering shares from shares pool to user\n    outcome.shares.holders[user] = outcome.shares.holders[user].add(shares);\n    outcome.shares.available = outcome.shares.available.sub(shares);\n    market.sharesAvailable = market.sharesAvailable.sub(shares);\n  }\n\n  /// @dev Transfer outcome shares from user balance back to pool\n  function transferOutcomeSharesToPool(\n    address user,\n    uint256 marketId,\n    uint256 outcomeId,\n    uint256 shares\n  ) private {\n    Market storage market = markets[marketId];\n    MarketOutcome storage outcome = market.outcomes[outcomeId];\n\n    // adding shares back to pool\n    outcome.shares.holders[user] = outcome.shares.holders[user].sub(shares);\n    outcome.shares.available = outcome.shares.available.add(shares);\n    market.sharesAvailable = market.sharesAvailable.add(shares);\n  }\n\n  // ------ Core Functions End ------\n\n  // ------ Governance Functions Start ------\n\n  /// @dev Sets fee taken from every buy/sell tx\n  function setFee(uint256 _fee) public onlyOwner() {\n    fee = _fee;\n  }\n\n  /// @dev Sets Realitio smart contract address\n  function setRealitioERC20(address _address) public onlyOwner() {\n    realitioAddress = _address;\n  }\n\n  /// @dev Sets timeout for questions submitted in Realitio\n  function setRealitioTimeout(uint256 timeout) public onlyOwner() {\n    realitioTimeout = timeout;\n  }\n\n  /// @dev Sets ERC20 token needed for markets creation\n  function setToken(IERC20 _token) public onlyOwner() {\n    token = _token;\n  }\n\n  /// @dev Sets needed ERC20 balance to create markets\n  function setRequiredBalance(uint256 _requiredBalance) public onlyOwner() {\n    requiredBalance = _requiredBalance;\n  }\n\n  // ------ Governance Functions End ------\n\n  // ------ Getters ------\n\n  function getUserMarketShares(uint256 marketId, address user)\n    public\n    view\n    returns (\n      uint256,\n      uint256,\n      uint256\n    )\n  {\n    Market storage market = markets[marketId];\n\n    return (\n      market.liquidityShares[user],\n      market.outcomes[0].shares.holders[user],\n      market.outcomes[1].shares.holders[user]\n    );\n  }\n\n  function getUserClaimStatus(uint256 marketId, address user)\n    public\n    view\n    returns (\n      bool,\n      bool,\n      bool,\n      bool,\n      uint256\n    )\n  {\n    Market storage market = markets[marketId];\n\n    // market still not resolved\n    if (market.state != MarketState.resolved) {\n      return (false, false, false, false, getUserClaimableFees(marketId, user));\n    }\n\n    MarketOutcome storage outcome = market.outcomes[market.resolution.outcomeId];\n\n    return (\n      outcome.shares.holders[user] > 0,\n      outcome.shares.claims[user],\n      market.liquidityShares[user] > 0,\n      market.liquidityClaims[user],\n      getUserClaimableFees(marketId, user)\n    );\n  }\n\n  function getUserLiquidityPoolShare(uint256 marketId, address user) public view returns (uint256) {\n    Market storage market = markets[marketId];\n\n    return market.liquidityShares[user].mul(ONE).div(market.liquidity);\n  }\n\n  function getUserClaimableFees(uint256 marketId, address user) public view returns (uint256) {\n    Market storage market = markets[marketId];\n\n    uint256 rawAmount = market.fees.poolWeight.mul(market.liquidityShares[user]).div(market.liquidity);\n    return rawAmount.sub(market.fees.claimed[user]);\n  }\n\n  function getMarkets() public view returns (uint256[] memory) {\n    return marketIds;\n  }\n\n  function getMarketData(uint256 marketId)\n    public\n    view\n    returns (\n      MarketState,\n      uint256,\n      uint256,\n      uint256,\n      uint256,\n      int256\n    )\n  {\n    Market storage market = markets[marketId];\n\n    return (\n      market.state,\n      market.closesAtTimestamp,\n      market.liquidity,\n      market.balance,\n      market.sharesAvailable,\n      getMarketResolvedOutcome(marketId)\n    );\n  }\n\n  function getMarketAltData(uint256 marketId)\n    public\n    view\n    returns (\n      uint256,\n      bytes32,\n      uint256\n    )\n  {\n    Market storage market = markets[marketId];\n\n    return (market.fees.value, market.resolution.questionId, uint256(market.resolution.questionId));\n  }\n\n  function getMarketQuestion(uint256 marketId) public view returns (bytes32) {\n    Market storage market = markets[marketId];\n\n    return (market.resolution.questionId);\n  }\n\n  function getMarketPrices(uint256 marketId)\n    public\n    view\n    returns (\n      uint256,\n      uint256,\n      uint256\n    )\n  {\n    return (getMarketLiquidityPrice(marketId), getMarketOutcomePrice(marketId, 0), getMarketOutcomePrice(marketId, 1));\n  }\n\n  function getMarketLiquidityPrice(uint256 marketId) public view returns (uint256) {\n    Market storage market = markets[marketId];\n\n    if (market.state == MarketState.resolved && !isMarketVoided(marketId)) {\n      // resolved market, price is either 0 or 1\n      // final liquidity price = outcome shares / liquidity shares\n      return market.outcomes[market.resolution.outcomeId].shares.available.mul(ONE).div(market.liquidity);\n    }\n\n    // liquidity price = # liquidity shares / # outcome shares * # outcomes\n    return market.liquidity.mul(ONE * market.outcomeIds.length).div(market.sharesAvailable);\n  }\n\n  function getMarketResolvedOutcome(uint256 marketId) public view returns (int256) {\n    Market storage market = markets[marketId];\n\n    // returning -1 if market still not resolved\n    if (market.state != MarketState.resolved) {\n      return -1;\n    }\n\n    return int256(market.resolution.outcomeId);\n  }\n\n  function isMarketVoided(uint256 marketId) public view returns (bool) {\n    Market storage market = markets[marketId];\n\n    // market still not resolved, still in valid state\n    if (market.state != MarketState.resolved) {\n      return false;\n    }\n\n    // resolved market id does not match any of the market ids\n    return market.resolution.outcomeId >= market.outcomeIds.length;\n  }\n\n  // ------ Outcome Getters ------\n\n  function getMarketOutcomeIds(uint256 marketId) public view returns (uint256[] memory) {\n    Market storage market = markets[marketId];\n    return market.outcomeIds;\n  }\n\n  function getMarketOutcomePrice(uint256 marketId, uint256 outcomeId) public view returns (uint256) {\n    Market storage market = markets[marketId];\n    MarketOutcome storage outcome = market.outcomes[outcomeId];\n\n    if (market.state == MarketState.resolved && !isMarketVoided(marketId)) {\n      // resolved market, price is either 0 or 1\n      return outcomeId == market.resolution.outcomeId ? ONE : 0;\n    }\n\n    return (market.sharesAvailable.sub(outcome.shares.available)).mul(ONE).div(market.sharesAvailable);\n  }\n\n  function getMarketOutcomeData(uint256 marketId, uint256 outcomeId)\n    public\n    view\n    returns (\n      uint256,\n      uint256,\n      uint256\n    )\n  {\n    Market storage market = markets[marketId];\n    MarketOutcome storage outcome = market.outcomes[outcomeId];\n\n    return (getMarketOutcomePrice(marketId, outcomeId), outcome.shares.available, outcome.shares.total);\n  }\n\n  function getMarketOutcomesShares(uint256 marketId) private view returns (uint256[] memory) {\n    Market storage market = markets[marketId];\n\n    uint256[] memory shares = new uint256[](market.outcomeIds.length);\n    for (uint256 i = 0; i < market.outcomeIds.length; i++) {\n      shares[i] = market.outcomes[i].shares.available;\n    }\n\n    return shares;\n  }\n}\n",
  "sourcePath": "/Users/ricardomarques/dev/workspace/polkamarkets/bepro-js/contracts/PredictionMarket.sol",
  "compiler": {
    "name": "solc",
    "version": "0.6.2+commit.bacdbe57.Emscripten.clang"
  },
  "schemaVersion": "3.3.4",
  "updatedAt": "2021-09-18T01:21:52.688Z",
  "networkType": "ethereum",
  "devdoc": {
    "methods": {
      "addLiquidity(uint256)": {
        "details": "Adds liquidity to a market - external"
      },
      "buy(uint256,uint256,uint256)": {
        "details": "Buy shares of a market outcome"
      },
      "calcBuyAmount(uint256,uint256,uint256)": {
        "details": "Calculates the number of shares bought with \"amount\" balance"
      },
      "calcSellAmount(uint256,uint256,uint256)": {
        "details": "Calculates the number of shares needed to be sold in order to receive \"amount\" in balance"
      },
      "claimFees(uint256)": {
        "details": "Allows liquidity providers to claim their fees share from fees pool"
      },
      "claimLiquidity(uint256)": {
        "details": "Allows liquidity providers to claim earnings from liquidity providing."
      },
      "claimVoidedOutcomeShares(uint256,uint256)": {
        "details": "Allows holders of voided outcome shares to claim balance back."
      },
      "claimWinnings(uint256)": {
        "details": "Allows holders of resolved outcome shares to claim earnings."
      },
      "createMarket(string,string,uint256,address,uint256)": {
        "details": "Creates a market, initializes the outcome shares pool and submits a question in Realitio"
      },
      "owner()": {
        "details": "Returns the address of the current owner."
      },
      "removeLiquidity(uint256,uint256)": {
        "details": "Removes liquidity to a market - external"
      },
      "renounceOwnership()": {
        "details": "Leaves the contract without owner. It will not be possible to call `onlyOwner` functions anymore. Can only be called by the current owner.     * NOTE: Renouncing ownership will leave the contract without an owner, thereby removing any functionality that is only available to the owner."
      },
      "resolveMarketOutcome(uint256)": {
        "details": "Fetches winning outcome from Realitio and resolves the market"
      },
      "sell(uint256,uint256,uint256,uint256)": {
        "details": "Sell shares of a market outcome"
      },
      "setFee(uint256)": {
        "details": "Sets fee taken from every buy/sell tx"
      },
      "setRealitioERC20(address)": {
        "details": "Sets Realitio smart contract address"
      },
      "setRealitioTimeout(uint256)": {
        "details": "Sets timeout for questions submitted in Realitio"
      },
      "setRequiredBalance(uint256)": {
        "details": "Sets needed ERC20 balance to create markets"
      },
      "setToken(address)": {
        "details": "Sets ERC20 token needed for markets creation"
      },
      "transferOwnership(address)": {
        "details": "Transfers ownership of the contract to a new account (`newOwner`). Can only be called by the current owner."
      }
    },
    "title": "Market Contract Factory"
  },
  "userdoc": {
    "methods": {}
  }
}