{
  "contractName": "RealitioERC20",
  "abi": [
    {
      "inputs": [],
      "stateMutability": "nonpayable",
      "type": "constructor"
    },
    {
      "anonymous": false,
      "inputs": [
        {
          "indexed": true,
          "internalType": "bytes32",
          "name": "question_id",
          "type": "bytes32"
        },
        {
          "indexed": true,
          "internalType": "address",
          "name": "user",
          "type": "address"
        },
        {
          "indexed": true,
          "internalType": "bytes32",
          "name": "answer_hash",
          "type": "bytes32"
        },
        {
          "indexed": false,
          "internalType": "bytes32",
          "name": "answer",
          "type": "bytes32"
        },
        {
          "indexed": false,
          "internalType": "uint256",
          "name": "nonce",
          "type": "uint256"
        },
        {
          "indexed": false,
          "internalType": "uint256",
          "name": "bond",
          "type": "uint256"
        }
      ],
      "name": "LogAnswerReveal",
      "type": "event"
    },
    {
      "anonymous": false,
      "inputs": [
        {
          "indexed": true,
          "internalType": "bytes32",
          "name": "question_id",
          "type": "bytes32"
        },
        {
          "indexed": true,
          "internalType": "address",
          "name": "user",
          "type": "address"
        },
        {
          "indexed": false,
          "internalType": "uint256",
          "name": "amount",
          "type": "uint256"
        }
      ],
      "name": "LogClaim",
      "type": "event"
    },
    {
      "anonymous": false,
      "inputs": [
        {
          "indexed": true,
          "internalType": "bytes32",
          "name": "question_id",
          "type": "bytes32"
        },
        {
          "indexed": true,
          "internalType": "bytes32",
          "name": "answer",
          "type": "bytes32"
        }
      ],
      "name": "LogFinalize",
      "type": "event"
    },
    {
      "anonymous": false,
      "inputs": [
        {
          "indexed": true,
          "internalType": "bytes32",
          "name": "question_id",
          "type": "bytes32"
        },
        {
          "indexed": false,
          "internalType": "uint256",
          "name": "bounty_added",
          "type": "uint256"
        },
        {
          "indexed": false,
          "internalType": "uint256",
          "name": "bounty",
          "type": "uint256"
        },
        {
          "indexed": true,
          "internalType": "address",
          "name": "user",
          "type": "address"
        }
      ],
      "name": "LogFundAnswerBounty",
      "type": "event"
    },
    {
      "anonymous": false,
      "inputs": [
        {
          "indexed": false,
          "internalType": "bytes32",
          "name": "answer",
          "type": "bytes32"
        },
        {
          "indexed": true,
          "internalType": "bytes32",
          "name": "question_id",
          "type": "bytes32"
        },
        {
          "indexed": false,
          "internalType": "bytes32",
          "name": "history_hash",
          "type": "bytes32"
        },
        {
          "indexed": true,
          "internalType": "address",
          "name": "user",
          "type": "address"
        },
        {
          "indexed": false,
          "internalType": "uint256",
          "name": "bond",
          "type": "uint256"
        },
        {
          "indexed": false,
          "internalType": "uint256",
          "name": "ts",
          "type": "uint256"
        },
        {
          "indexed": false,
          "internalType": "bool",
          "name": "is_commitment",
          "type": "bool"
        }
      ],
      "name": "LogNewAnswer",
      "type": "event"
    },
    {
      "anonymous": false,
      "inputs": [
        {
          "indexed": true,
          "internalType": "bytes32",
          "name": "question_id",
          "type": "bytes32"
        },
        {
          "indexed": true,
          "internalType": "address",
          "name": "user",
          "type": "address"
        },
        {
          "indexed": false,
          "internalType": "uint256",
          "name": "template_id",
          "type": "uint256"
        },
        {
          "indexed": false,
          "internalType": "string",
          "name": "question",
          "type": "string"
        },
        {
          "indexed": true,
          "internalType": "bytes32",
          "name": "content_hash",
          "type": "bytes32"
        },
        {
          "indexed": false,
          "internalType": "address",
          "name": "arbitrator",
          "type": "address"
        },
        {
          "indexed": false,
          "internalType": "uint32",
          "name": "timeout",
          "type": "uint32"
        },
        {
          "indexed": false,
          "internalType": "uint32",
          "name": "opening_ts",
          "type": "uint32"
        },
        {
          "indexed": false,
          "internalType": "uint256",
          "name": "nonce",
          "type": "uint256"
        },
        {
          "indexed": false,
          "internalType": "uint256",
          "name": "created",
          "type": "uint256"
        }
      ],
      "name": "LogNewQuestion",
      "type": "event"
    },
    {
      "anonymous": false,
      "inputs": [
        {
          "indexed": true,
          "internalType": "uint256",
          "name": "template_id",
          "type": "uint256"
        },
        {
          "indexed": true,
          "internalType": "address",
          "name": "user",
          "type": "address"
        },
        {
          "indexed": false,
          "internalType": "string",
          "name": "question_text",
          "type": "string"
        }
      ],
      "name": "LogNewTemplate",
      "type": "event"
    },
    {
      "anonymous": false,
      "inputs": [
        {
          "indexed": true,
          "internalType": "bytes32",
          "name": "question_id",
          "type": "bytes32"
        },
        {
          "indexed": true,
          "internalType": "address",
          "name": "user",
          "type": "address"
        }
      ],
      "name": "LogNotifyOfArbitrationRequest",
      "type": "event"
    },
    {
      "anonymous": false,
      "inputs": [
        {
          "indexed": false,
          "internalType": "address",
          "name": "arbitrator",
          "type": "address"
        },
        {
          "indexed": false,
          "internalType": "uint256",
          "name": "amount",
          "type": "uint256"
        }
      ],
      "name": "LogSetQuestionFee",
      "type": "event"
    },
    {
      "anonymous": false,
      "inputs": [
        {
          "indexed": true,
          "internalType": "address",
          "name": "user",
          "type": "address"
        },
        {
          "indexed": false,
          "internalType": "uint256",
          "name": "amount",
          "type": "uint256"
        }
      ],
      "name": "LogWithdraw",
      "type": "event"
    },
    {
      "inputs": [
        {
          "internalType": "address",
          "name": "",
          "type": "address"
        }
      ],
      "name": "arbitrator_question_fees",
      "outputs": [
        {
          "internalType": "uint256",
          "name": "",
          "type": "uint256"
        }
      ],
      "stateMutability": "view",
      "type": "function"
    },
    {
      "inputs": [
        {
          "internalType": "address",
          "name": "",
          "type": "address"
        }
      ],
      "name": "balanceOf",
      "outputs": [
        {
          "internalType": "uint256",
          "name": "",
          "type": "uint256"
        }
      ],
      "stateMutability": "view",
      "type": "function"
    },
    {
      "inputs": [
        {
          "internalType": "bytes32",
          "name": "",
          "type": "bytes32"
        }
      ],
      "name": "commitments",
      "outputs": [
        {
          "internalType": "uint32",
          "name": "reveal_ts",
          "type": "uint32"
        },
        {
          "internalType": "bool",
          "name": "is_revealed",
          "type": "bool"
        },
        {
          "internalType": "bytes32",
          "name": "revealed_answer",
          "type": "bytes32"
        }
      ],
      "stateMutability": "view",
      "type": "function"
    },
    {
      "inputs": [
        {
          "internalType": "bytes32",
          "name": "",
          "type": "bytes32"
        }
      ],
      "name": "question_claims",
      "outputs": [
        {
          "internalType": "address",
          "name": "payee",
          "type": "address"
        },
        {
          "internalType": "uint256",
          "name": "last_bond",
          "type": "uint256"
        },
        {
          "internalType": "uint256",
          "name": "queued_funds",
          "type": "uint256"
        }
      ],
      "stateMutability": "view",
      "type": "function"
    },
    {
      "inputs": [
        {
          "internalType": "bytes32",
          "name": "",
          "type": "bytes32"
        }
      ],
      "name": "questions",
      "outputs": [
        {
          "internalType": "bytes32",
          "name": "content_hash",
          "type": "bytes32"
        },
        {
          "internalType": "address",
          "name": "arbitrator",
          "type": "address"
        },
        {
          "internalType": "uint32",
          "name": "opening_ts",
          "type": "uint32"
        },
        {
          "internalType": "uint32",
          "name": "timeout",
          "type": "uint32"
        },
        {
          "internalType": "uint32",
          "name": "finalize_ts",
          "type": "uint32"
        },
        {
          "internalType": "bool",
          "name": "is_pending_arbitration",
          "type": "bool"
        },
        {
          "internalType": "uint256",
          "name": "bounty",
          "type": "uint256"
        },
        {
          "internalType": "bytes32",
          "name": "best_answer",
          "type": "bytes32"
        },
        {
          "internalType": "bytes32",
          "name": "history_hash",
          "type": "bytes32"
        },
        {
          "internalType": "uint256",
          "name": "bond",
          "type": "uint256"
        }
      ],
      "stateMutability": "view",
      "type": "function"
    },
    {
      "inputs": [
        {
          "internalType": "uint256",
          "name": "",
          "type": "uint256"
        }
      ],
      "name": "template_hashes",
      "outputs": [
        {
          "internalType": "bytes32",
          "name": "",
          "type": "bytes32"
        }
      ],
      "stateMutability": "view",
      "type": "function"
    },
    {
      "inputs": [
        {
          "internalType": "uint256",
          "name": "",
          "type": "uint256"
        }
      ],
      "name": "templates",
      "outputs": [
        {
          "internalType": "uint256",
          "name": "",
          "type": "uint256"
        }
      ],
      "stateMutability": "view",
      "type": "function"
    },
    {
      "inputs": [],
      "name": "token",
      "outputs": [
        {
          "internalType": "contract IERC20",
          "name": "",
          "type": "address"
        }
      ],
      "stateMutability": "view",
      "type": "function"
    },
    {
      "inputs": [],
      "name": "withdraw",
      "outputs": [],
      "stateMutability": "nonpayable",
      "type": "function"
    },
    {
      "inputs": [
        {
          "internalType": "contract IERC20",
          "name": "_token",
          "type": "address"
        }
      ],
      "name": "setToken",
      "outputs": [],
      "stateMutability": "nonpayable",
      "type": "function"
    },
    {
      "inputs": [
        {
          "internalType": "uint256",
          "name": "fee",
          "type": "uint256"
        }
      ],
      "name": "setQuestionFee",
      "outputs": [],
      "stateMutability": "nonpayable",
      "type": "function"
    },
    {
      "inputs": [
        {
          "internalType": "string",
          "name": "content",
          "type": "string"
        }
      ],
      "name": "createTemplate",
      "outputs": [
        {
          "internalType": "uint256",
          "name": "",
          "type": "uint256"
        }
      ],
      "stateMutability": "nonpayable",
      "type": "function"
    },
    {
      "inputs": [
        {
          "internalType": "string",
          "name": "content",
          "type": "string"
        },
        {
          "internalType": "string",
          "name": "question",
          "type": "string"
        },
        {
          "internalType": "address",
          "name": "arbitrator",
          "type": "address"
        },
        {
          "internalType": "uint32",
          "name": "timeout",
          "type": "uint32"
        },
        {
          "internalType": "uint32",
          "name": "opening_ts",
          "type": "uint32"
        },
        {
          "internalType": "uint256",
          "name": "nonce",
          "type": "uint256"
        }
      ],
      "name": "createTemplateAndAskQuestion",
      "outputs": [
        {
          "internalType": "bytes32",
          "name": "",
          "type": "bytes32"
        }
      ],
      "stateMutability": "nonpayable",
      "type": "function"
    },
    {
      "inputs": [
        {
          "internalType": "uint256",
          "name": "template_id",
          "type": "uint256"
        },
        {
          "internalType": "string",
          "name": "question",
          "type": "string"
        },
        {
          "internalType": "address",
          "name": "arbitrator",
          "type": "address"
        },
        {
          "internalType": "uint32",
          "name": "timeout",
          "type": "uint32"
        },
        {
          "internalType": "uint32",
          "name": "opening_ts",
          "type": "uint32"
        },
        {
          "internalType": "uint256",
          "name": "nonce",
          "type": "uint256"
        }
      ],
      "name": "askQuestion",
      "outputs": [
        {
          "internalType": "bytes32",
          "name": "",
          "type": "bytes32"
        }
      ],
      "stateMutability": "nonpayable",
      "type": "function"
    },
    {
      "inputs": [
        {
          "internalType": "uint256",
          "name": "template_id",
          "type": "uint256"
        },
        {
          "internalType": "string",
          "name": "question",
          "type": "string"
        },
        {
          "internalType": "address",
          "name": "arbitrator",
          "type": "address"
        },
        {
          "internalType": "uint32",
          "name": "timeout",
          "type": "uint32"
        },
        {
          "internalType": "uint32",
          "name": "opening_ts",
          "type": "uint32"
        },
        {
          "internalType": "uint256",
          "name": "nonce",
          "type": "uint256"
        },
        {
          "internalType": "uint256",
          "name": "tokens",
          "type": "uint256"
        }
      ],
      "name": "askQuestionERC20",
      "outputs": [
        {
          "internalType": "bytes32",
          "name": "",
          "type": "bytes32"
        }
      ],
      "stateMutability": "nonpayable",
      "type": "function"
    },
    {
      "inputs": [
        {
          "internalType": "bytes32",
          "name": "question_id",
          "type": "bytes32"
        },
        {
          "internalType": "uint256",
          "name": "tokens",
          "type": "uint256"
        }
      ],
      "name": "fundAnswerBountyERC20",
      "outputs": [],
      "stateMutability": "nonpayable",
      "type": "function"
    },
    {
      "inputs": [
        {
          "internalType": "bytes32",
          "name": "question_id",
          "type": "bytes32"
        },
        {
          "internalType": "bytes32",
          "name": "answer",
          "type": "bytes32"
        },
        {
          "internalType": "uint256",
          "name": "max_previous",
          "type": "uint256"
        },
        {
          "internalType": "uint256",
          "name": "tokens",
          "type": "uint256"
        }
      ],
      "name": "submitAnswerERC20",
      "outputs": [],
      "stateMutability": "nonpayable",
      "type": "function"
    },
    {
      "inputs": [
        {
          "internalType": "bytes32",
          "name": "question_id",
          "type": "bytes32"
        },
        {
          "internalType": "bytes32",
          "name": "answer_hash",
          "type": "bytes32"
        },
        {
          "internalType": "uint256",
          "name": "max_previous",
          "type": "uint256"
        },
        {
          "internalType": "address",
          "name": "_answerer",
          "type": "address"
        },
        {
          "internalType": "uint256",
          "name": "tokens",
          "type": "uint256"
        }
      ],
      "name": "submitAnswerCommitmentERC20",
      "outputs": [],
      "stateMutability": "nonpayable",
      "type": "function"
    },
    {
      "inputs": [
        {
          "internalType": "bytes32",
          "name": "question_id",
          "type": "bytes32"
        },
        {
          "internalType": "bytes32",
          "name": "answer",
          "type": "bytes32"
        },
        {
          "internalType": "uint256",
          "name": "nonce",
          "type": "uint256"
        },
        {
          "internalType": "uint256",
          "name": "bond",
          "type": "uint256"
        }
      ],
      "name": "submitAnswerReveal",
      "outputs": [],
      "stateMutability": "nonpayable",
      "type": "function"
    },
    {
      "inputs": [
        {
          "internalType": "bytes32",
          "name": "question_id",
          "type": "bytes32"
        },
        {
          "internalType": "address",
          "name": "requester",
          "type": "address"
        },
        {
          "internalType": "uint256",
          "name": "max_previous",
          "type": "uint256"
        }
      ],
      "name": "notifyOfArbitrationRequest",
      "outputs": [],
      "stateMutability": "nonpayable",
      "type": "function"
    },
    {
      "inputs": [
        {
          "internalType": "bytes32",
          "name": "question_id",
          "type": "bytes32"
        },
        {
          "internalType": "bytes32",
          "name": "answer",
          "type": "bytes32"
        },
        {
          "internalType": "address",
          "name": "answerer",
          "type": "address"
        }
      ],
      "name": "submitAnswerByArbitrator",
      "outputs": [],
      "stateMutability": "nonpayable",
      "type": "function"
    },
    {
      "inputs": [
        {
          "internalType": "bytes32",
          "name": "question_id",
          "type": "bytes32"
        }
      ],
      "name": "isFinalized",
      "outputs": [
        {
          "internalType": "bool",
          "name": "",
          "type": "bool"
        }
      ],
      "stateMutability": "view",
      "type": "function"
    },
    {
      "inputs": [
        {
          "internalType": "bytes32",
          "name": "question_id",
          "type": "bytes32"
        }
      ],
      "name": "getFinalAnswer",
      "outputs": [
        {
          "internalType": "bytes32",
          "name": "",
          "type": "bytes32"
        }
      ],
      "stateMutability": "view",
      "type": "function"
    },
    {
      "inputs": [
        {
          "internalType": "bytes32",
          "name": "question_id",
          "type": "bytes32"
        }
      ],
      "name": "resultFor",
      "outputs": [
        {
          "internalType": "bytes32",
          "name": "",
          "type": "bytes32"
        }
      ],
      "stateMutability": "view",
      "type": "function"
    },
    {
      "inputs": [
        {
          "internalType": "bytes32",
          "name": "question_id",
          "type": "bytes32"
        },
        {
          "internalType": "bytes32",
          "name": "content_hash",
          "type": "bytes32"
        },
        {
          "internalType": "address",
          "name": "arbitrator",
          "type": "address"
        },
        {
          "internalType": "uint32",
          "name": "min_timeout",
          "type": "uint32"
        },
        {
          "internalType": "uint256",
          "name": "min_bond",
          "type": "uint256"
        }
      ],
      "name": "getFinalAnswerIfMatches",
      "outputs": [
        {
          "internalType": "bytes32",
          "name": "",
          "type": "bytes32"
        }
      ],
      "stateMutability": "view",
      "type": "function"
    },
    {
      "inputs": [
        {
          "internalType": "bytes32",
          "name": "question_id",
          "type": "bytes32"
        },
        {
          "internalType": "bytes32[]",
          "name": "history_hashes",
          "type": "bytes32[]"
        },
        {
          "internalType": "address[]",
          "name": "addrs",
          "type": "address[]"
        },
        {
          "internalType": "uint256[]",
          "name": "bonds",
          "type": "uint256[]"
        },
        {
          "internalType": "bytes32[]",
          "name": "answers",
          "type": "bytes32[]"
        }
      ],
      "name": "claimWinnings",
      "outputs": [],
      "stateMutability": "nonpayable",
      "type": "function"
    },
    {
      "inputs": [
        {
          "internalType": "bytes32[]",
          "name": "question_ids",
          "type": "bytes32[]"
        },
        {
          "internalType": "uint256[]",
          "name": "lengths",
          "type": "uint256[]"
        },
        {
          "internalType": "bytes32[]",
          "name": "hist_hashes",
          "type": "bytes32[]"
        },
        {
          "internalType": "address[]",
          "name": "addrs",
          "type": "address[]"
        },
        {
          "internalType": "uint256[]",
          "name": "bonds",
          "type": "uint256[]"
        },
        {
          "internalType": "bytes32[]",
          "name": "answers",
          "type": "bytes32[]"
        }
      ],
      "name": "claimMultipleAndWithdrawBalance",
      "outputs": [],
      "stateMutability": "nonpayable",
      "type": "function"
    },
    {
      "inputs": [
        {
          "internalType": "bytes32",
          "name": "question_id",
          "type": "bytes32"
        }
      ],
      "name": "getContentHash",
      "outputs": [
        {
          "internalType": "bytes32",
          "name": "",
          "type": "bytes32"
        }
      ],
      "stateMutability": "view",
      "type": "function"
    },
    {
      "inputs": [
        {
          "internalType": "bytes32",
          "name": "question_id",
          "type": "bytes32"
        }
      ],
      "name": "getArbitrator",
      "outputs": [
        {
          "internalType": "address",
          "name": "",
          "type": "address"
        }
      ],
      "stateMutability": "view",
      "type": "function"
    },
    {
      "inputs": [
        {
          "internalType": "bytes32",
          "name": "question_id",
          "type": "bytes32"
        }
      ],
      "name": "getOpeningTS",
      "outputs": [
        {
          "internalType": "uint32",
          "name": "",
          "type": "uint32"
        }
      ],
      "stateMutability": "view",
      "type": "function"
    },
    {
      "inputs": [
        {
          "internalType": "bytes32",
          "name": "question_id",
          "type": "bytes32"
        }
      ],
      "name": "getTimeout",
      "outputs": [
        {
          "internalType": "uint32",
          "name": "",
          "type": "uint32"
        }
      ],
      "stateMutability": "view",
      "type": "function"
    },
    {
      "inputs": [
        {
          "internalType": "bytes32",
          "name": "question_id",
          "type": "bytes32"
        }
      ],
      "name": "getFinalizeTS",
      "outputs": [
        {
          "internalType": "uint32",
          "name": "",
          "type": "uint32"
        }
      ],
      "stateMutability": "view",
      "type": "function"
    },
    {
      "inputs": [
        {
          "internalType": "bytes32",
          "name": "question_id",
          "type": "bytes32"
        }
      ],
      "name": "isPendingArbitration",
      "outputs": [
        {
          "internalType": "bool",
          "name": "",
          "type": "bool"
        }
      ],
      "stateMutability": "view",
      "type": "function"
    },
    {
      "inputs": [
        {
          "internalType": "bytes32",
          "name": "question_id",
          "type": "bytes32"
        }
      ],
      "name": "getBounty",
      "outputs": [
        {
          "internalType": "uint256",
          "name": "",
          "type": "uint256"
        }
      ],
      "stateMutability": "view",
      "type": "function"
    },
    {
      "inputs": [
        {
          "internalType": "bytes32",
          "name": "question_id",
          "type": "bytes32"
        }
      ],
      "name": "getBestAnswer",
      "outputs": [
        {
          "internalType": "bytes32",
          "name": "",
          "type": "bytes32"
        }
      ],
      "stateMutability": "view",
      "type": "function"
    },
    {
      "inputs": [
        {
          "internalType": "bytes32",
          "name": "question_id",
          "type": "bytes32"
        }
      ],
      "name": "getHistoryHash",
      "outputs": [
        {
          "internalType": "bytes32",
          "name": "",
          "type": "bytes32"
        }
      ],
      "stateMutability": "view",
      "type": "function"
    },
    {
      "inputs": [
        {
          "internalType": "bytes32",
          "name": "question_id",
          "type": "bytes32"
        }
      ],
      "name": "getBond",
      "outputs": [
        {
          "internalType": "uint256",
          "name": "",
          "type": "uint256"
        }
      ],
      "stateMutability": "view",
      "type": "function"
    }
  ],
  "bytecode": "0x608060405260006002553480156200001657600080fd5b50620000446040518060600160405280603f81526020016200400f603f91396001600160e01b036200010316565b50620000726040518060800160405280604f8152602001620040eb604f91396001600160e01b036200010316565b50620000a06040518060800160405280605a815260200162004091605a91396001600160e01b036200010316565b50620000ce6040518060800160405280605c815260200162003fb3605c91396001600160e01b036200010316565b50620000fc6040518060800160405280604381526020016200404e604391396001600160e01b036200010316565b5062000285565b60025460008181526003602090815260408083204390555184519293928592918201918291908401908083835b60208310620001515780518252601f19909201916020918201910162000130565b6001836020036101000a038019825116818451168082178552505050505050905001915050604051602081830303815290604052805190602001206004600083815260200190815260200160002081905550336001600160a01b0316817fb87fb721c0a557bb8dff89a86796466931d82ba530a66a239263eb8735ade2e4856040518080602001828103825283818151815260200191508051906020019080838360005b838110156200020f578181015183820152602001620001f5565b50505050905090810190601f1680156200023d5780820380516001836020036101000a031916815260200191505b509250505060405180910390a3620002656001826200026e60201b620031c51790919060201c565b60025592915050565b6000828201838110156200027e57fe5b9392505050565b613d1e80620002956000396000f3fe608060405234801561001057600080fd5b50600436106101b75760003560e01c80631101a0fd146101bc578063128b7a47146103ec57806312a203c31461040f578063144fa6d7146104655780632417395c1461048b5780632518904c146104a857806326d6c97b146104e157806328828b1e146104fe5780632f998a6f146108295780633ccfd60b146108585780634dc266b4146108605780634df6ca2a1461088f5780634e60f883146108ac57806351577ea9146108c9578063590158a7146108e65780636fa427421461092b57806370a0823114610951578063762c38fd146109775780637f8d429e14610a4657806382ffa9f714610a77578063839df94514610a9457806383bf460914610ad65780638d552d4614610b7a578063924532fb14610b9757806395addb9014610bb45780639e63fa6a14610c355780639f1025c614610c6b578063a1130d0414610c88578063a462fb7b14610dd5578063ac7b2a5f14610df2578063acae8f4e14610e30578063bc52565214610e4d578063d09cc57e14610dd5578063d4876b9f14610e6a578063f6a94ecb14610f3f578063fc0c546a14610f71578063fe92049d14610f79575b600080fd5b6103ea600480360360a08110156101d257600080fd5b81359190810190604081016020820135600160201b8111156101f357600080fd5b82018360208201111561020557600080fd5b803590602001918460208302840111600160201b8311171561022657600080fd5b9190808060200260200160405190810160405280939291908181526020018383602002808284376000920191909152509295949360208101935035915050600160201b81111561027557600080fd5b82018360208201111561028757600080fd5b803590602001918460208302840111600160201b831117156102a857600080fd5b9190808060200260200160405190810160405280939291908181526020018383602002808284376000920191909152509295949360208101935035915050600160201b8111156102f757600080fd5b82018360208201111561030957600080fd5b803590602001918460208302840111600160201b8311171561032a57600080fd5b9190808060200260200160405190810160405280939291908181526020018383602002808284376000920191909152509295949360208101935035915050600160201b81111561037957600080fd5b82018360208201111561038b57600080fd5b803590602001918460208302840111600160201b831117156103ac57600080fd5b919080806020026020016040519081016040528093929190818152602001838360200280828437600092019190915250929550610fab945050505050565b005b6103ea6004803603604081101561040257600080fd5b508035906020013561123a565b610453600480360360a081101561042557600080fd5b508035906020810135906001600160a01b036040820135169063ffffffff6060820135169060800135611459565b60408051918252519081900360200190f35b6103ea6004803603602081101561047b57600080fd5b50356001600160a01b031661165a565b610453600480360360208110156104a157600080fd5b50356116c4565b6104c5600480360360208110156104be57600080fd5b50356116d9565b604080516001600160a01b039092168252519081900360200190f35b610453600480360360208110156104f757600080fd5b50356116f7565b6103ea600480360360c081101561051457600080fd5b810190602081018135600160201b81111561052e57600080fd5b82018360208201111561054057600080fd5b803590602001918460208302840111600160201b8311171561056157600080fd5b9190808060200260200160405190810160405280939291908181526020018383602002808284376000920191909152509295949360208101935035915050600160201b8111156105b057600080fd5b8201836020820111156105c257600080fd5b803590602001918460208302840111600160201b831117156105e357600080fd5b9190808060200260200160405190810160405280939291908181526020018383602002808284376000920191909152509295949360208101935035915050600160201b81111561063257600080fd5b82018360208201111561064457600080fd5b803590602001918460208302840111600160201b8311171561066557600080fd5b9190808060200260200160405190810160405280939291908181526020018383602002808284376000920191909152509295949360208101935035915050600160201b8111156106b457600080fd5b8201836020820111156106c657600080fd5b803590602001918460208302840111600160201b831117156106e757600080fd5b9190808060200260200160405190810160405280939291908181526020018383602002808284376000920191909152509295949360208101935035915050600160201b81111561073657600080fd5b82018360208201111561074857600080fd5b803590602001918460208302840111600160201b8311171561076957600080fd5b9190808060200260200160405190810160405280939291908181526020018383602002808284376000920191909152509295949360208101935035915050600160201b8111156107b857600080fd5b8201836020820111156107ca57600080fd5b803590602001918460208302840111600160201b831117156107eb57600080fd5b91908080602002602001604051908101604052809392919081815260200183836020028082843760009201919091525092955061170c945050505050565b6103ea6004803603608081101561083f57600080fd5b5080359060208101359060408101359060600135611911565b6103ea611c07565b6103ea6004803603608081101561087657600080fd5b5080359060208101359060408101359060600135611ce0565b6103ea600480360360208110156108a557600080fd5b5035611fe8565b610453600480360360208110156108c257600080fd5b5035612037565b610453600480360360208110156108df57600080fd5b5035612049565b610903600480360360208110156108fc57600080fd5b503561205b565b604080516001600160a01b039094168452602084019290925282820152519081900360600190f35b6104536004803603602081101561094157600080fd5b50356001600160a01b0316612086565b6104536004803603602081101561096757600080fd5b50356001600160a01b0316612098565b610453600480360360c081101561098d57600080fd5b81359190810190604081016020820135600160201b8111156109ae57600080fd5b8201836020820111156109c057600080fd5b803590602001918460018302840111600160201b831117156109e157600080fd5b91908080601f016020809104026020016040519081016040528093929190818152602001838380828437600092019190915250929550506001600160a01b0383351693505063ffffffff602083013581169260408101359091169150606001356120aa565b610a6360048036036020811015610a5c57600080fd5b503561231d565b604080519115158252519081900360200190f35b61045360048036036020811015610a8d57600080fd5b5035612379565b610ab160048036036020811015610aaa57600080fd5b503561238f565b6040805163ffffffff9094168452911515602084015282820152519081900360600190f35b61045360048036036020811015610aec57600080fd5b810190602081018135600160201b811115610b0657600080fd5b820183602082011115610b1857600080fd5b803590602001918460018302840111600160201b83111715610b3957600080fd5b91908080601f0160208091040260200160405190810160405280939291908181526020018383808284376000920191909152509295506123bb945050505050565b61045360048036036020811015610b9057600080fd5b5035612517565b610a6360048036036020811015610bad57600080fd5b503561252c565b610bd160048036036020811015610bca57600080fd5b5035612544565b604080519a8b526001600160a01b0390991660208b015263ffffffff9788168a8a015295871660608a015293909516608088015290151560a087015260c086015260e085019290925261010084019190915261012083015251908190036101400190f35b610c5260048036036020811015610c4b57600080fd5b50356125b0565b6040805163ffffffff9092168252519081900360200190f35b610c5260048036036020811015610c8157600080fd5b50356125d2565b610453600480360360c0811015610c9e57600080fd5b810190602081018135600160201b811115610cb857600080fd5b820183602082011115610cca57600080fd5b803590602001918460018302840111600160201b83111715610ceb57600080fd5b91908080601f0160208091040260200160405190810160405280939291908181526020018383808284376000920191909152509295949360208101935035915050600160201b811115610d3d57600080fd5b820183602082011115610d4f57600080fd5b803590602001918460018302840111600160201b83111715610d7057600080fd5b91908080601f016020809104026020016040519081016040528093929190818152602001838380828437600092019190915250929550506001600160a01b0383351693505063ffffffff602083013581169260408101359091169150606001356125f4565b61045360048036036020811015610deb57600080fd5b503561261c565b6103ea600480360360a0811015610e0857600080fd5b508035906020810135906040810135906001600160a01b03606082013516906080013561267e565b610c5260048036036020811015610e4657600080fd5b50356129a1565b61045360048036036020811015610e6357600080fd5b50356129c3565b610453600480360360e0811015610e8057600080fd5b81359190810190604081016020820135600160201b811115610ea157600080fd5b820183602082011115610eb357600080fd5b803590602001918460018302840111600160201b83111715610ed457600080fd5b91908080601f016020809104026020016040519081016040528093929190818152602001838380828437600092019190915250929550506001600160a01b0383351693505063ffffffff602083013581169260408101359091169150606081013590608001356129d5565b6103ea60048036036060811015610f5557600080fd5b508035906001600160a01b036020820135169060400135612c53565b6104c5612f4e565b6103ea60048036036060811015610f8f57600080fd5b50803590602081013590604001356001600160a01b0316612f5d565b84610fb58161231d565b610ff4576040805162461bcd60e51b815260206004820152601a6024820152600080516020613cc9833981519152604482015290519081900360640190fd5b60008551116110345760405162461bcd60e51b8152600401808060200182810382526030815260200180613bf96030913960400191505060405180910390fd5b600086815260066020908152604080832080546001820154600290920154600594859052928520938401546004909401546001600160a01b03909116949193915b8a518110156111765760006110d9848d848151811061109057fe5b60200260200101518b85815181106110a457fe5b60200260200101518d86815181106110b857fe5b60200260200101518f87815181106110cc57fe5b60200260200101516130cd565b90506110eb858763ffffffff6131c516565b94506111368d84878a8f878151811061110057fe5b60200260200101518f888151811061111457fe5b60200260200101518f898151811061112857fe5b6020026020010151886131dd565b809850819650505089828151811061114a57fe5b602002602001015195508b828151811061116057fe5b6020908102919091010151935050600101611075565b82156111d4576001600160a01b0386161561119b576111968c8786613309565b600093505b60008c815260066020526040902080546001600160a01b0319166001600160a01b03881617815560018101869055600201849055611216565b6111ee8c876111e9878963ffffffff6131c516565b613309565b60008c815260066020526040812080546001600160a01b031916815560018101829055600201555b50506000998a52600560208190526040909a20909901989098555050505050505050565b6000828152600560205260409020600101548290600160c01b900463ffffffff1661129a576040805162461bcd60e51b81526020600482015260136024820152600080516020613a49833981519152604482015290519081900360640190fd5b60008181526005602052604090206002015460ff16156112eb5760405162461bcd60e51b8152600401808060200182810382526028815260200180613bd16028913960400191505060405180910390fd5b600081815260056020526040902060010154600160e01b900463ffffffff1680158061132257504263ffffffff168163ffffffff16115b61135d5760405162461bcd60e51b815260040180806020018281038252602a8152602001806139fb602a913960400191505060405180910390fd5b600082815260056020526040902060010154600160a01b900463ffffffff1680158061139557504263ffffffff168163ffffffff1611155b6113d4576040805162461bcd60e51b815260206004820152601d6024820152600080516020613c29833981519152604482015290519081900360640190fd5b6113dd8461338c565b6000858152600560205260409020600301546113ff908563ffffffff6131c516565b6000868152600560209081526040918290206003018390558151878152908101929092528051339288927f54d68405b79f2aa4fd4e8db7b67844ad254cf8f208aac476c2894134a9deab6692918290030190a35050505050565b6000856114658161231d565b6114a4576040805162461bcd60e51b815260206004820152601a6024820152600080516020613cc9833981519152604482015290519081900360640190fd5b6000878152600560205260409020548614611500576040805162461bcd60e51b81526020600482015260176024820152760c6dedce8cadce840d0c2e6d040daeae6e840dac2e8c6d604b1b604482015290519081900360640190fd5b6000878152600560205260409020600101546001600160a01b03868116911614611569576040805162461bcd60e51b81526020600482015260156024820152740c2e4c4d2e8e4c2e8dee440daeae6e840dac2e8c6d605b1b604482015290519081900360640190fd5b60008781526005602052604090206001015463ffffffff600160c01b909104811690851611156115de576040805162461bcd60e51b815260206004820152601b60248201527a0e8d2dacadeeae840daeae6e840c4ca40d8dedcce40cadcdeeaced602b1b604482015290519081900360640190fd5b60008781526005602052604090206006015483111561163f576040805162461bcd60e51b81526020600482015260186024820152770c4dedcc840daeae6e840c4ca40d0d2ced040cadcdeeaced60431b604482015290519081900360640190fd5b50505060009384525050600560205250604090206004015490565b6000546001600160a01b0316156116a25760405162461bcd60e51b8152600401808060200182810382526022815260200180613aff6022913960400191505060405180910390fd5b600080546001600160a01b0319166001600160a01b0392909216919091179055565b60009081526005602052604090206003015490565b6000908152600560205260409020600101546001600160a01b031690565b60009081526005602052604090206006015490565b6000805b87518210156118ff57600088838151811061172757fe5b60200260200101519050600088848151811061173f57fe5b60200260200101519050606081604051908082528060200260200182016040528015611775578160200160208202803883390190505b5090506060826040519080825280602002602001820160405280156117a4578160200160208202803883390190505b5090506060836040519080825280602002602001820160405280156117d3578160200160208202803883390190505b509050606084604051908082528060200260200182016040528015611802578160200160208202803883390190505b50905060005b858110156118df578c888151811061181c57fe5b602002602001015185828151811061183057fe5b6020026020010181815250508b888151811061184857fe5b602002602001015184828151811061185c57fe5b60200260200101906001600160a01b031690816001600160a01b0316815250508a888151811061188857fe5b602002602001015183828151811061189c57fe5b6020026020010181815250508988815181106118b457fe5b60200260200101518282815181106118c857fe5b602090810291909101015260019788019701611808565b6118ec8786868686610fab565b5050600190960195506117109350505050565b611907611c07565b5050505050505050565b6000848152600560205260409020600101548490600160c01b900463ffffffff16611971576040805162461bcd60e51b81526020600482015260136024820152600080516020613a49833981519152604482015290519081900360640190fd5b60008181526005602052604090206002015460ff16156119c25760405162461bcd60e51b8152600401808060200182810382526028815260200180613bd16028913960400191505060405180910390fd5b600081815260056020526040902060010154600160e01b900463ffffffff168015806119f957504263ffffffff168163ffffffff16115b611a345760405162461bcd60e51b815260040180806020018281038252602a8152602001806139fb602a913960400191505060405180910390fd5b600082815260056020526040902060010154600160a01b900463ffffffff16801580611a6c57504263ffffffff168163ffffffff1611155b611aab576040805162461bcd60e51b815260206004820152601d6024820152600080516020613c29833981519152604482015290519081900360640190fd5b868460008111611afa576040805162461bcd60e51b8152602060048201526015602482015274626f6e64206d75737420626520706f73697469766560581b604482015290519081900360640190fd5b600082815260056020526040902060060154611b1d90600263ffffffff6134c316565b811015611b5b5760405162461bcd60e51b815260040180806020018281038252602a815260200180613a69602a913960400191505060405180910390fd5b88878015611bb757600082815260056020526040902060060154811015611bb7576040805162461bcd60e51b815260206004820152601d6024820152600080516020613b4a833981519152604482015290519081900360640190fd5b611bc08861338c565b611bce8b8b338b60006134e7565b60008b815260056020526040902060010154611bfa908c908c90600160c01b900463ffffffff166135db565b5050505050505050505050565b3360008181526001602090815260408083208054908490558354825163a9059cbb60e01b8152600481019690965260248601829052915190946001600160a01b039092169363a9059cbb93604480850194919392918390030190829087803b158015611c7257600080fd5b505af1158015611c86573d6000803e3d6000fd5b505050506040513d6020811015611c9c57600080fd5b5051611ca757600080fd5b60408051828152905133917f4ce7033d118120e254016dccf195288400b28fc8936425acd5f17ce2df3ab708919081900360200190a250565b6000848152600560205260409020600101548490600160c01b900463ffffffff16611d40576040805162461bcd60e51b81526020600482015260136024820152600080516020613a49833981519152604482015290519081900360640190fd5b600081815260056020526040902060010154600160e01b900463ffffffff16801580611d7757504263ffffffff168163ffffffff16115b611db25760405162461bcd60e51b8152600401808060200182810382526029815260200180613b216029913960400191505060405180910390fd5b600082815260056020526040902060010154600160a01b900463ffffffff16801580611dea57504263ffffffff168163ffffffff1611155b611e29576040805162461bcd60e51b815260206004820152601d6024820152600080516020613c29833981519152604482015290519081900360640190fd5b604080516020808201899052818301889052825180830384018152606083018452805190820120608083018b905260a0830181905260c08084018990528451808503909101815260e090930184528251928201929092206000818152600790925292902054909190600160201b900460ff1615611ed75760405162461bcd60e51b815260040180806020018281038252602a815260200180613a93602a913960400191505060405180910390fd5b60008181526007602052604090205463ffffffff428116911611611f2c5760405162461bcd60e51b8152600401808060200182810382526024815260200180613b6a6024913960400191505060405180910390fd5b6000818152600760209081526040808320600181018c9055805460ff60201b1916600160201b1790558b83526005909152902060060154861415611f9657600089815260056020526040902060010154611f96908a908a90600160c01b900463ffffffff166135db565b60408051898152602081018990528082018890529051839133918c917fa7b2d313bc7a062e30b2c3b811aa4c9faf09755a6b4ea3bf42deff920944332f919081900360600190a4505050505050505050565b336000818152600860209081526040918290208490558151928352820183905280517fdca703d022171824d3d639b33c1525fd2338120b4cfb89507c0b59596893acda9281900390910190a150565b60046020526000908152604090205481565b60009081526005602052604090205490565b6006602052600090815260409020805460018201546002909201546001600160a01b03909116919083565b60086020526000908152604090205481565b60016020526000908152604090205481565b600086815260036020526040812054612100576040805162461bcd60e51b81526020600482015260136024820152721d195b5c1b185d19481b5d5cdd08195e1a5cdd606a1b604482015290519081900360640190fd5b6000878488604051602001808481526020018363ffffffff1663ffffffff1660e01b815260040182805190602001908083835b602083106121525780518252601f199092019160209182019101612133565b6001836020036101000a03801982511681845116808217855250505050505090500193505050506040516020818303038152906040528051906020012090506000818787338760405160200180868152602001856001600160a01b03166001600160a01b031660601b81526014018463ffffffff1663ffffffff1660e01b8152600401836001600160a01b03166001600160a01b031660601b8152601401828152602001955050505050506040516020818303038152906040528051906020012090506122248183898989600061363c565b81336001600160a01b0316826000805160206139a58339815191528c8c8c8c8c8c426040518088815260200180602001876001600160a01b03166001600160a01b031681526020018663ffffffff1663ffffffff1681526020018563ffffffff1663ffffffff168152602001848152602001838152602001828103825288818151815260200191508051906020019080838360005b838110156122d15781810151838201526020016122b9565b50505050905090810190601f1680156122fe5780820380516001836020036101000a031916815260200191505b509850505050505050505060405180910390a498975050505050505050565b60008181526005602052604081206001810154600290910154600160e01b90910463ffffffff169060ff1615801561235a575063ffffffff811615155b801561237257504263ffffffff168163ffffffff1611155b9392505050565b6000908152600560208190526040909120015490565b6007602052600090815260409020805460019091015463ffffffff821691600160201b900460ff169083565b60025460008181526003602090815260408083204390555184519293928592918201918291908401908083835b602083106124075780518252601f1990920191602091820191016123e8565b6001836020036101000a038019825116818451168082178552505050505050905001915050604051602081830303815290604052805190602001206004600083815260200190815260200160002081905550336001600160a01b0316817fb87fb721c0a557bb8dff89a86796466931d82ba530a66a239263eb8735ade2e4856040518080602001828103825283818151815260200191508051906020019080838360005b838110156124c35781810151838201526020016124ab565b50505050905090810190601f1680156124f05780820380516001836020036101000a031916815260200191505b509250505060405180910390a361250e81600163ffffffff6131c516565b60025592915050565b60009081526005602052604090206004015490565b60009081526005602052604090206002015460ff1690565b6005602081905260009182526040909120805460018201546002830154600384015460048501549585015460069095015493956001600160a01b0384169563ffffffff600160a01b8604811696600160c01b8704821696600160e01b90049091169460ff16939291908a565b600090815260056020526040902060010154600160a01b900463ffffffff1690565b600090815260056020526040902060010154600160c01b900463ffffffff1690565b600080612600886123bb565b90506126108188888888886120aa565b98975050505050505050565b6000816126288161231d565b612667576040805162461bcd60e51b815260206004820152601a6024820152600080516020613cc9833981519152604482015290519081900360640190fd5b505060009081526005602052604090206004015490565b6000858152600560205260409020600101548590600160c01b900463ffffffff166126de576040805162461bcd60e51b81526020600482015260136024820152600080516020613a49833981519152604482015290519081900360640190fd5b60008181526005602052604090206002015460ff161561272f5760405162461bcd60e51b8152600401808060200182810382526028815260200180613bd16028913960400191505060405180910390fd5b600081815260056020526040902060010154600160e01b900463ffffffff1680158061276657504263ffffffff168163ffffffff16115b6127a15760405162461bcd60e51b815260040180806020018281038252602a8152602001806139fb602a913960400191505060405180910390fd5b600082815260056020526040902060010154600160a01b900463ffffffff168015806127d957504263ffffffff168163ffffffff1611155b612818576040805162461bcd60e51b815260206004820152601d6024820152600080516020613c29833981519152604482015290519081900360640190fd5b878460008111612867576040805162461bcd60e51b8152602060048201526015602482015274626f6e64206d75737420626520706f73697469766560581b604482015290519081900360640190fd5b60008281526005602052604090206006015461288a90600263ffffffff6134c316565b8110156128c85760405162461bcd60e51b815260040180806020018281038252602a815260200180613a69602a913960400191505060405180910390fd5b8988801561292457600082815260056020526040902060060154811015612924576040805162461bcd60e51b815260206004820152601d6024820152600080516020613b4a833981519152604482015290519081900360640190fd5b61292d8861338c565b6040805160208082018f90528183018e905260608083018c9052835180840390910181526080909201909252805191012060006001600160a01b038b1615612975578a612977565b335b90506129838e836138c5565b6129918e83838d60016134e7565b5050505050505050505050505050565b600090815260056020526040902060010154600160e01b900463ffffffff1690565b60036020526000908152604090205481565b60006129e08261338c565b600088815260036020526040902054612a36576040805162461bcd60e51b81526020600482015260136024820152721d195b5c1b185d19481b5d5cdd08195e1a5cdd606a1b604482015290519081900360640190fd5b6000888589604051602001808481526020018363ffffffff1663ffffffff1660e01b815260040182805190602001908083835b60208310612a885780518252601f199092019160209182019101612a69565b6001836020036101000a03801982511681845116808217855250505050505090500193505050506040516020818303038152906040528051906020012090506000818888338860405160200180868152602001856001600160a01b03166001600160a01b031660601b81526014018463ffffffff1663ffffffff1660e01b8152600401836001600160a01b03166001600160a01b031660601b815260140182815260200195505050505050604051602081830303815290604052805190602001209050612b5981838a8a8a8961363c565b81336001600160a01b0316826000805160206139a58339815191528d8d8d8d8d8d426040518088815260200180602001876001600160a01b03166001600160a01b031681526020018663ffffffff1663ffffffff1681526020018563ffffffff1663ffffffff168152602001848152602001838152602001828103825288818151815260200191508051906020019080838360005b83811015612c06578181015183820152602001612bee565b50505050905090810190601f168015612c335780820380516001836020036101000a031916815260200191505b509850505050505050505060405180910390a49998505050505050505050565b60008381526005602052604090206001015483906001600160a01b03163314612cb1576040805162461bcd60e51b815260206004820152601d6024820152600080516020613ca9833981519152604482015290519081900360640190fd5b6000848152600560205260409020600101548490600160c01b900463ffffffff16612d11576040805162461bcd60e51b81526020600482015260136024820152600080516020613a49833981519152604482015290519081900360640190fd5b60008181526005602052604090206002015460ff1615612d625760405162461bcd60e51b8152600401808060200182810382526028815260200180613bd16028913960400191505060405180910390fd5b600081815260056020526040902060010154600160e01b900463ffffffff16801580612d9957504263ffffffff168163ffffffff16115b612dd45760405162461bcd60e51b815260040180806020018281038252602a8152602001806139fb602a913960400191505060405180910390fd5b600082815260056020526040902060010154600160a01b900463ffffffff16801580612e0c57504263ffffffff168163ffffffff1611155b612e4b576040805162461bcd60e51b815260206004820152601d6024820152600080516020613c29833981519152604482015290519081900360640190fd5b86858015612ea757600082815260056020526040902060060154811015612ea7576040805162461bcd60e51b815260206004820152601d6024820152600080516020613b4a833981519152604482015290519081900360640190fd5b600089815260056020526040902060060154612ef45760405162461bcd60e51b8152600401808060200182810382526042815260200180613abd6042913960600191505060405180910390fd5b600089815260056020526040808220600201805460ff19166001179055516001600160a01b038a16918b917f75d7939999bc902187c4aed400872883e445145f1983539166f783fa040b47629190a3505050505050505050565b6000546001600160a01b031681565b60008381526005602052604090206001015483906001600160a01b03163314612fbb576040805162461bcd60e51b815260206004820152601d6024820152600080516020613ca9833981519152604482015290519081900360640190fd5b600084815260056020526040902060020154849060ff1661300d5760405162461bcd60e51b8152600401808060200182810382526024815260200180613a256024913960400191505060405180910390fd5b6001600160a01b038316613064576040805162461bcd60e51b8152602060048201526019602482015278185b9cddd95c995c881b5d5cdd081899481c1c9bdd9a591959603a1b604482015290519081900360640190fd5b604051849086907f18d760beffe3717270cd90d9d920ec1a48c194e9ad7bba23eb1c92d3eb974f9790600090a36000858152600560205260408120600201805460ff191690556130ba90869086908690806134e7565b6130c6858560006135db565b5050505050565b604080516020808201879052818301869052606080830186905284901b6001600160601b0319166080830152600160f81b6094830152825180830360750181526095909201909252805191012060009086141561312c575060016131bc565b604080516020808201889052818301879052606080830187905285901b6001600160601b0319166080830152600060948301528251808303607501815260959092019092528051910120861415613185575060006131bc565b60405162461bcd60e51b81526004018080602001828103825260368152602001806139c56036913960400191505060405180910390fd5b95945050505050565b6000828201838110156131d457fe5b90505b92915050565b6000808215613255576000848152600760205260409020548490600160201b900460ff1661322d576000908152600760205260408120805464ffffffffff191681556001015550869050856132fc565b6000908152600760205260408120600181018054825464ffffffffff19169092559190915593505b888414156132f6576001600160a01b0387166132ac5760008a815260056020526040902060030154959650869561329390899063ffffffff6131c516565b60008b81526005602052604081206003015597506132f6565b866001600160a01b0316866001600160a01b0316146132f6576000858910156132d557886132d7565b855b90506132ee8b896111e98c8563ffffffff61397a16565b869750809850505b50869050855b9850989650505050505050565b6001600160a01b038216600090815260016020526040902054613332908263ffffffff6131c516565b6001600160a01b0383166000818152600160209081526040918290209390935580518481529051919286927f9c121aff33b50c1a53fef034ebec5f83da2d5a5187048f9c76c397ba27c1a1a69281900390910190a3505050565b80613396576134c0565b3360009081526001602052604090205480156133fc578181106133d9576133c3818363ffffffff61397a16565b33600090815260016020526040902055506134c0565b6133e9828263ffffffff61397a16565b3360009081526001602052604081205591505b60008054604080516323b872dd60e01b81523360048201523060248201526044810186905290516001600160a01b03909216926323b872dd926064808401936020939083900390910190829087803b15801561345757600080fd5b505af115801561346b573d6000803e3d6000fd5b505050506040513d602081101561348157600080fd5b50516134be5760405162461bcd60e51b8152600401808060200182810382526039815260200180613c706039913960400191505060405180910390fd5b505b50565b6000826134d2575060006131d7565b828202828482816134df57fe5b04146131d457fe5b60008581526005602081815260409283902090910154825180830191909152808301879052606080820186905286901b6001600160601b031916608082015283151560f81b6094820152825180820360750181526095909101909252815191012082156135635760008681526005602052604090206006018390555b6000868152600560208181526040928390209091018390558151878152908101839052808201859052426060820152831515608082015290516001600160a01b0386169188917fe47ca4ebbbc2990134d1168821f38c5e177f3d5ee564bffeadeaa351905e62219181900360a00190a3505050505050565b600083815260056020526040902060040182905561360363ffffffff42811690839061398c16565b600093845260056020526040909320600101805463ffffffff94909416600160e01b026001600160e01b03909416939093179092555050565b6000868152600560205260409020600101548690600160c01b900463ffffffff16156136a9576040805162461bcd60e51b81526020600482015260176024820152761c5d595cdd1a5bdb881b5d5cdd081b9bdd08195e1a5cdd604a1b604482015290519081900360640190fd5b8163ffffffff85166136fd576040805162461bcd60e51b815260206004820152601860248201527774696d656f7574206d75737420626520706f73697469766560401b604482015290519081900360640190fd5b6301e133808563ffffffff16106137455760405162461bcd60e51b8152600401808060200182810382526022815260200180613baf6022913960400191505060405180910390fd5b6001600160a01b038616613799576040805162461bcd60e51b8152602060048201526016602482015275185c989a5d1c985d1bdc881b5d5cdd081899481cd95d60521b604482015290519081900360640190fd5b336001600160a01b03871614613858576001600160a01b038616600090815260086020526040902054808210156138015760405162461bcd60e51b8152600401808060200182810382526027815260200180613c496027913960400191505060405180910390fd5b613811828263ffffffff61397a16565b6001600160a01b03881660009081526001602052604090205490925061383d908263ffffffff6131c516565b6001600160a01b038816600090815260016020526040902055505b60009788526005602052604090972095865550506001840180546001600160a01b0319166001600160a01b03949094169390931763ffffffff60a01b1916600160a01b63ffffffff928316021763ffffffff60c01b1916600160c01b929091169190910217905560030155565b60008181526007602052604090205463ffffffff16156139165760405162461bcd60e51b8152600401808060200182810382526021815260200180613b8e6021913960400191505060405180910390fd5b600082815260056020526040812060010154600890600160c01b900463ffffffff1604905061394f63ffffffff42811690839061398c16565b600092835260076020526040909220805463ffffffff191663ffffffff909316929092179091555050565b60008282111561398657fe5b50900390565b600082820163ffffffff80851690821610156131d457fefefe2dac156a3890636ce13f65f4fdf41dcaee11526e4a5374531572d92194796c486973746f727920696e7075742070726f766964656420646964206e6f74206d6174636820746865206578706563746564206861736866696e616c697a6174696f6e20646561646c696e65206d757374206e6f742068617665207061737365647175657374696f6e206d7573742062652070656e64696e67206172626974726174696f6e7175657374696f6e206d75737420657869737400000000000000000000000000626f6e64206d75737420626520646f75626c65206174206c656173742070726576696f757320626f6e64636f6d6d69746d656e74206d757374206e6f742068617665206265656e2072657665616c6564207965745175657374696f6e206d75737420616c7265616479206861766520616e20616e73776572207768656e206172626974726174696f6e20697320726571756573746564546f6b656e2063616e206f6e6c7920626520696e697469616c697a6564206f6e636566696e616c697a6174696f6e206465616c696e65206d757374206e6f74206861766520706173736564626f6e64206d75737420657863656564206d61785f70726576696f757300000072657665616c20646561646c696e65206d757374206e6f74206861766520706173736564636f6d6d69746d656e74206d757374206e6f7420616c726561647920657869737474696d656f7574206d757374206265206c657373207468616e2033363520646179737175657374696f6e206d757374206e6f742062652070656e64696e67206172626974726174696f6e6174206c65617374206f6e6520686973746f7279206861736820656e747279206d7573742062652070726f76696465646f70656e696e672064617465206d757374206861766520706173736564000000546f6b656e732070726f7669646564206d75737420636f766572207175657374696f6e206665655472616e73666572206f6620746f6b656e73206661696c65642c20696e73756666696369656e7420617070726f7665642062616c616e63653f6d73672e73656e646572206d7573742062652061726269747261746f720000007175657374696f6e206d7573742062652066696e616c697a6564000000000000a2646970667358221220a2d56e60dca40445907174f7305386a9b8412dbc53d0e040c998d9ce1ba8f8a564736f6c634300060200337b227469746c65223a20222573222c202274797065223a20226d756c7469706c652d73656c656374222c20226f7574636f6d6573223a205b25735d2c202263617465676f7279223a20222573222c20226c616e67223a20222573227d7b227469746c65223a20222573222c202274797065223a2022626f6f6c222c202263617465676f7279223a20222573222c20226c616e67223a20222573227d7b227469746c65223a20222573222c202274797065223a20226461746574696d65222c202263617465676f7279223a20222573222c20226c616e67223a20222573227d7b227469746c65223a20222573222c202274797065223a202273696e676c652d73656c656374222c20226f7574636f6d6573223a205b25735d2c202263617465676f7279223a20222573222c20226c616e67223a20222573227d7b227469746c65223a20222573222c202274797065223a202275696e74222c2022646563696d616c73223a2031382c202263617465676f7279223a20222573222c20226c616e67223a20222573227d",
  "source": "/**\n *Submitted for verification at Etherscan.io on 2021-06-09\n*/\n\npragma solidity >0.4.24;\n\n/**\n * @title ERC20 interface\n * @dev see https://github.com/ethereum/EIPs/issues/20\n */\ninterface IERC20 {\n    function totalSupply() external view returns (uint256);\n\n    function balanceOf(address who) external view returns (uint256);\n\n    function allowance(address owner, address spender) external view returns (uint256);\n\n    function transfer(address to, uint256 value) external returns (bool);\n\n    function approve(address spender, uint256 value) external returns (bool);\n\n    function transferFrom(address from, address to, uint256 value) external returns (bool);\n\n    event Transfer(address indexed from, address indexed to, uint256 value);\n\n    event Approval(address indexed owner, address indexed spender, uint256 value);\n}\npragma solidity >0.4.24;\n\n/**\n * @title ReailtioSafeMath256\n * @dev Math operations with safety checks that throw on error\n */\nlibrary RealitioSafeMath256 {\n  function mul(uint256 a, uint256 b) internal pure returns (uint256) {\n    if (a == 0) {\n      return 0;\n    }\n    uint256 c = a * b;\n    assert(c / a == b);\n    return c;\n  }\n\n  function div(uint256 a, uint256 b) internal pure returns (uint256) {\n    // assert(b > 0); // Solidity automatically throws when dividing by 0\n    uint256 c = a / b;\n    // assert(a == b * c + a % b); // There is no case in which this doesn't hold\n    return c;\n  }\n\n  function sub(uint256 a, uint256 b) internal pure returns (uint256) {\n    assert(b <= a);\n    return a - b;\n  }\n\n  function add(uint256 a, uint256 b) internal pure returns (uint256) {\n    uint256 c = a + b;\n    assert(c >= a);\n    return c;\n  }\n}\npragma solidity >0.4.24;\n\n/**\n * @title RealitioSafeMath32\n * @dev Math operations with safety checks that throw on error\n * @dev Copy of SafeMath but for uint32 instead of uint256\n * @dev Deleted functions we don't use\n */\nlibrary RealitioSafeMath32 {\n  function add(uint32 a, uint32 b) internal pure returns (uint32) {\n    uint32 c = a + b;\n    assert(c >= a);\n    return c;\n  }\n}\npragma solidity >0.4.18;\n\n\ncontract BalanceHolder {\n\n    IERC20 public token;\n\n    mapping(address => uint256) public balanceOf;\n\n    event LogWithdraw(\n        address indexed user,\n        uint256 amount\n    );\n\n    function withdraw()\n    public {\n        uint256 bal = balanceOf[msg.sender];\n        balanceOf[msg.sender] = 0;\n        require(token.transfer(msg.sender, bal));\n        emit LogWithdraw(msg.sender, bal);\n    }\n\n}\npragma solidity >0.4.24;\n\n\ncontract RealitioERC20 is BalanceHolder {\n\n    using RealitioSafeMath256 for uint256;\n    using RealitioSafeMath32 for uint32;\n\n    address constant NULL_ADDRESS = address(0);\n\n    // History hash when no history is created, or history has been cleared\n    bytes32 constant NULL_HASH = bytes32(0);\n\n    // An unitinalized finalize_ts for a question will indicate an unanswered question.\n    uint32 constant UNANSWERED = 0;\n\n    // An unanswered reveal_ts for a commitment will indicate that it does not exist.\n    uint256 constant COMMITMENT_NON_EXISTENT = 0;\n\n    // Commit->reveal timeout is 1/8 of the question timeout (rounded down).\n    uint32 constant COMMITMENT_TIMEOUT_RATIO = 8;\n\n    event LogSetQuestionFee(\n        address arbitrator,\n        uint256 amount\n    );\n\n    event LogNewTemplate(\n        uint256 indexed template_id,\n        address indexed user,\n        string question_text\n    );\n\n    event LogNewQuestion(\n        bytes32 indexed question_id,\n        address indexed user,\n        uint256 template_id,\n        string question,\n        bytes32 indexed content_hash,\n        address arbitrator,\n        uint32 timeout,\n        uint32 opening_ts,\n        uint256 nonce,\n        uint256 created\n    );\n\n    event LogFundAnswerBounty(\n        bytes32 indexed question_id,\n        uint256 bounty_added,\n        uint256 bounty,\n        address indexed user\n    );\n\n    event LogNewAnswer(\n        bytes32 answer,\n        bytes32 indexed question_id,\n        bytes32 history_hash,\n        address indexed user,\n        uint256 bond,\n        uint256 ts,\n        bool is_commitment\n    );\n\n    event LogAnswerReveal(\n        bytes32 indexed question_id,\n        address indexed user,\n        bytes32 indexed answer_hash,\n        bytes32 answer,\n        uint256 nonce,\n        uint256 bond\n    );\n\n    event LogNotifyOfArbitrationRequest(\n        bytes32 indexed question_id,\n        address indexed user\n    );\n\n    event LogFinalize(\n        bytes32 indexed question_id,\n        bytes32 indexed answer\n    );\n\n    event LogClaim(\n        bytes32 indexed question_id,\n        address indexed user,\n        uint256 amount\n    );\n\n    struct Question {\n        bytes32 content_hash;\n        address arbitrator;\n        uint32 opening_ts;\n        uint32 timeout;\n        uint32 finalize_ts;\n        bool is_pending_arbitration;\n        uint256 bounty;\n        bytes32 best_answer;\n        bytes32 history_hash;\n        uint256 bond;\n    }\n\n    // Stored in a mapping indexed by commitment_id, a hash of commitment hash, question, bond.\n    struct Commitment {\n        uint32 reveal_ts;\n        bool is_revealed;\n        bytes32 revealed_answer;\n    }\n\n    // Only used when claiming more bonds than fits into a transaction\n    // Stored in a mapping indexed by question_id.\n    struct Claim {\n        address payee;\n        uint256 last_bond;\n        uint256 queued_funds;\n    }\n\n    uint256 nextTemplateID = 0;\n    mapping(uint256 => uint256) public templates;\n    mapping(uint256 => bytes32) public template_hashes;\n    mapping(bytes32 => Question) public questions;\n    mapping(bytes32 => Claim) public question_claims;\n    mapping(bytes32 => Commitment) public commitments;\n    mapping(address => uint256) public arbitrator_question_fees;\n\n    modifier onlyArbitrator(bytes32 question_id) {\n        require(msg.sender == questions[question_id].arbitrator, \"msg.sender must be arbitrator\");\n        _;\n    }\n\n    modifier stateAny() {\n        _;\n    }\n\n    modifier stateNotCreated(bytes32 question_id) {\n        require(questions[question_id].timeout == 0, \"question must not exist\");\n        _;\n    }\n\n    modifier stateOpen(bytes32 question_id) {\n        require(questions[question_id].timeout > 0, \"question must exist\");\n        require(!questions[question_id].is_pending_arbitration, \"question must not be pending arbitration\");\n        uint32 finalize_ts = questions[question_id].finalize_ts;\n        require(finalize_ts == UNANSWERED || finalize_ts > uint32(now), \"finalization deadline must not have passed\");\n        uint32 opening_ts = questions[question_id].opening_ts;\n        require(opening_ts == 0 || opening_ts <= uint32(now), \"opening date must have passed\");\n        _;\n    }\n\n    modifier statePendingArbitration(bytes32 question_id) {\n        require(questions[question_id].is_pending_arbitration, \"question must be pending arbitration\");\n        _;\n    }\n\n    modifier stateOpenOrPendingArbitration(bytes32 question_id) {\n        require(questions[question_id].timeout > 0, \"question must exist\");\n        uint32 finalize_ts = questions[question_id].finalize_ts;\n        require(finalize_ts == UNANSWERED || finalize_ts > uint32(now), \"finalization dealine must not have passed\");\n        uint32 opening_ts = questions[question_id].opening_ts;\n        require(opening_ts == 0 || opening_ts <= uint32(now), \"opening date must have passed\");\n        _;\n    }\n\n    modifier stateFinalized(bytes32 question_id) {\n        require(isFinalized(question_id), \"question must be finalized\");\n        _;\n    }\n\n    modifier bondMustDouble(bytes32 question_id, uint256 tokens) {\n        require(tokens > 0, \"bond must be positive\");\n        require(tokens >= (questions[question_id].bond.mul(2)), \"bond must be double at least previous bond\");\n        _;\n    }\n\n    modifier previousBondMustNotBeatMaxPrevious(bytes32 question_id, uint256 max_previous) {\n        if (max_previous > 0) {\n            require(questions[question_id].bond <= max_previous, \"bond must exceed max_previous\");\n        }\n        _;\n    }\n\n    function setToken(IERC20 _token)\n    public\n    {\n        require(token == IERC20(0x0), \"Token can only be initialized once\");\n        token = _token;\n    }\n\n    /// @notice Constructor, sets up some initial templates\n    /// @dev Creates some generalized templates for different question types used in the DApp.\n    constructor()\n    public {\n        createTemplate('{\"title\": \"%s\", \"type\": \"bool\", \"category\": \"%s\", \"lang\": \"%s\"}');\n        createTemplate('{\"title\": \"%s\", \"type\": \"uint\", \"decimals\": 18, \"category\": \"%s\", \"lang\": \"%s\"}');\n        createTemplate('{\"title\": \"%s\", \"type\": \"single-select\", \"outcomes\": [%s], \"category\": \"%s\", \"lang\": \"%s\"}');\n        createTemplate('{\"title\": \"%s\", \"type\": \"multiple-select\", \"outcomes\": [%s], \"category\": \"%s\", \"lang\": \"%s\"}');\n        createTemplate('{\"title\": \"%s\", \"type\": \"datetime\", \"category\": \"%s\", \"lang\": \"%s\"}');\n    }\n\n    /// @notice Function for arbitrator to set an optional per-question fee.\n    /// @dev The per-question fee, charged when a question is asked, is intended as an anti-spam measure.\n    /// @param fee The fee to be charged by the arbitrator when a question is asked\n    function setQuestionFee(uint256 fee)\n        stateAny()\n    external {\n        arbitrator_question_fees[msg.sender] = fee;\n        emit LogSetQuestionFee(msg.sender, fee);\n    }\n\n    /// @notice Create a reusable template, which should be a JSON document.\n    /// Placeholders should use gettext() syntax, eg %s.\n    /// @dev Template data is only stored in the event logs, but its block number is kept in contract storage.\n    /// @param content The template content\n    /// @return The ID of the newly-created template, which is created sequentially.\n    function createTemplate(string memory content)\n        stateAny()\n    public returns (uint256) {\n        uint256 id = nextTemplateID;\n        templates[id] = block.number;\n        template_hashes[id] = keccak256(abi.encodePacked(content));\n        emit LogNewTemplate(id, msg.sender, content);\n        nextTemplateID = id.add(1);\n        return id;\n    }\n\n    /// @notice Create a new reusable template and use it to ask a question\n    /// @dev Template data is only stored in the event logs, but its block number is kept in contract storage.\n    /// @param content The template content\n    /// @param question A string containing the parameters that will be passed into the template to make the question\n    /// @param arbitrator The arbitration contract that will have the final word on the answer if there is a dispute\n    /// @param timeout How long the contract should wait after the answer is changed before finalizing on that answer\n    /// @param opening_ts If set, the earliest time it should be possible to answer the question.\n    /// @param nonce A user-specified nonce used in the question ID. Change it to repeat a question.\n    /// @return The ID of the newly-created template, which is created sequentially.\n    function createTemplateAndAskQuestion(\n        string memory content,\n        string memory question, address arbitrator, uint32 timeout, uint32 opening_ts, uint256 nonce\n    )\n        // stateNotCreated is enforced by the internal _askQuestion\n    public returns (bytes32) {\n        uint256 template_id = createTemplate(content);\n        return askQuestion(template_id, question, arbitrator, timeout, opening_ts, nonce);\n    }\n\n    /// @notice Ask a new question without a bounty and return the ID\n    /// @dev Template data is only stored in the event logs, but its block number is kept in contract storage.\n    /// @dev Calling without the token param will only work if there is no arbitrator-set question fee.\n    /// @dev This has the same function signature as askQuestion() in the non-ERC20 version, which is optionally payable.\n    /// @param template_id The ID number of the template the question will use\n    /// @param question A string containing the parameters that will be passed into the template to make the question\n    /// @param arbitrator The arbitration contract that will have the final word on the answer if there is a dispute\n    /// @param timeout How long the contract should wait after the answer is changed before finalizing on that answer\n    /// @param opening_ts If set, the earliest time it should be possible to answer the question.\n    /// @param nonce A user-specified nonce used in the question ID. Change it to repeat a question.\n    /// @return The ID of the newly-created question, created deterministically.\n    function askQuestion(uint256 template_id, string memory question, address arbitrator, uint32 timeout, uint32 opening_ts, uint256 nonce)\n        // stateNotCreated is enforced by the internal _askQuestion\n    public returns (bytes32) {\n\n        require(templates[template_id] > 0, \"template must exist\");\n\n        bytes32 content_hash = keccak256(abi.encodePacked(template_id, opening_ts, question));\n        bytes32 question_id = keccak256(abi.encodePacked(content_hash, arbitrator, timeout, msg.sender, nonce));\n\n        _askQuestion(question_id, content_hash, arbitrator, timeout, opening_ts, 0);\n        emit LogNewQuestion(question_id, msg.sender, template_id, question, content_hash, arbitrator, timeout, opening_ts, nonce, now);\n\n        return question_id;\n    }\n\n    /// @notice Ask a new question with a bounty and return the ID\n    /// @dev Template data is only stored in the event logs, but its block number is kept in contract storage.\n    /// @param template_id The ID number of the template the question will use\n    /// @param question A string containing the parameters that will be passed into the template to make the question\n    /// @param arbitrator The arbitration contract that will have the final word on the answer if there is a dispute\n    /// @param timeout How long the contract should wait after the answer is changed before finalizing on that answer\n    /// @param opening_ts If set, the earliest time it should be possible to answer the question.\n    /// @param nonce A user-specified nonce used in the question ID. Change it to repeat a question.\n    /// @param tokens The combined initial question bounty and question fee\n    /// @return The ID of the newly-created question, created deterministically.\n    function askQuestionERC20(uint256 template_id, string memory question, address arbitrator, uint32 timeout, uint32 opening_ts, uint256 nonce, uint256 tokens)\n        // stateNotCreated is enforced by the internal _askQuestion\n    public returns (bytes32) {\n\n        _deductTokensOrRevert(tokens);\n\n        require(templates[template_id] > 0, \"template must exist\");\n\n        bytes32 content_hash = keccak256(abi.encodePacked(template_id, opening_ts, question));\n        bytes32 question_id = keccak256(abi.encodePacked(content_hash, arbitrator, timeout, msg.sender, nonce));\n\n        _askQuestion(question_id, content_hash, arbitrator, timeout, opening_ts, tokens);\n        emit LogNewQuestion(question_id, msg.sender, template_id, question, content_hash, arbitrator, timeout, opening_ts, nonce, now);\n\n        return question_id;\n    }\n\n    function _deductTokensOrRevert(uint256 tokens)\n    internal {\n\n        if (tokens == 0) {\n            return;\n        }\n\n        uint256 bal = balanceOf[msg.sender];\n\n        // Deduct any tokens you have in your internal balance first\n        if (bal > 0) {\n            if (bal >= tokens) {\n                balanceOf[msg.sender] = bal.sub(tokens);\n                return;\n            } else {\n                tokens = tokens.sub(bal);\n                balanceOf[msg.sender] = 0;\n            }\n        }\n        // Now we need to charge the rest from\n        require(token.transferFrom(msg.sender, address(this), tokens), \"Transfer of tokens failed, insufficient approved balance?\");\n        return;\n\n    }\n\n    function _askQuestion(bytes32 question_id, bytes32 content_hash, address arbitrator, uint32 timeout, uint32 opening_ts, uint256 tokens)\n        stateNotCreated(question_id)\n    internal {\n\n        uint256 bounty = tokens;\n\n        // A timeout of 0 makes no sense, and we will use this to check existence\n        require(timeout > 0, \"timeout must be positive\");\n        require(timeout < 365 days, \"timeout must be less than 365 days\");\n        require(arbitrator != NULL_ADDRESS, \"arbitrator must be set\");\n\n        // The arbitrator can set a fee for asking a question.\n        // This is intended as an anti-spam defence.\n        // The fee is waived if the arbitrator is asking the question.\n        // This allows them to set an impossibly high fee and make users proxy the question through them.\n        // This would allow more sophisticated pricing, question whitelisting etc.\n        if (msg.sender != arbitrator) {\n            uint256 question_fee = arbitrator_question_fees[arbitrator];\n            require(bounty >= question_fee, \"Tokens provided must cover question fee\");\n            bounty = bounty.sub(question_fee);\n            balanceOf[arbitrator] = balanceOf[arbitrator].add(question_fee);\n        }\n\n        questions[question_id].content_hash = content_hash;\n        questions[question_id].arbitrator = arbitrator;\n        questions[question_id].opening_ts = opening_ts;\n        questions[question_id].timeout = timeout;\n        questions[question_id].bounty = bounty;\n\n    }\n\n    /// @notice Add funds to the bounty for a question\n    /// @dev Add bounty funds after the initial question creation. Can be done any time until the question is finalized.\n    /// @param question_id The ID of the question you wish to fund\n    /// @param tokens The number of tokens to fund\n    function fundAnswerBountyERC20(bytes32 question_id, uint256 tokens)\n        stateOpen(question_id)\n    external {\n        _deductTokensOrRevert(tokens);\n        questions[question_id].bounty = questions[question_id].bounty.add(tokens);\n        emit LogFundAnswerBounty(question_id, tokens, questions[question_id].bounty, msg.sender);\n    }\n\n    /// @notice Submit an answer for a question.\n    /// @dev Adds the answer to the history and updates the current \"best\" answer.\n    /// May be subject to front-running attacks; Substitute submitAnswerCommitment()->submitAnswerReveal() to prevent them.\n    /// @param question_id The ID of the question\n    /// @param answer The answer, encoded into bytes32\n    /// @param max_previous If specified, reverts if a bond higher than this was submitted after you sent your transaction.\n    /// @param tokens The amount of tokens to submit\n    function submitAnswerERC20(bytes32 question_id, bytes32 answer, uint256 max_previous, uint256 tokens)\n        stateOpen(question_id)\n        bondMustDouble(question_id, tokens)\n        previousBondMustNotBeatMaxPrevious(question_id, max_previous)\n    external {\n        _deductTokensOrRevert(tokens);\n        _addAnswerToHistory(question_id, answer, msg.sender, tokens, false);\n        _updateCurrentAnswer(question_id, answer, questions[question_id].timeout);\n    }\n\n    // @notice Verify and store a commitment, including an appropriate timeout\n    // @param question_id The ID of the question to store\n    // @param commitment The ID of the commitment\n    function _storeCommitment(bytes32 question_id, bytes32 commitment_id)\n    internal\n    {\n        require(commitments[commitment_id].reveal_ts == COMMITMENT_NON_EXISTENT, \"commitment must not already exist\");\n\n        uint32 commitment_timeout = questions[question_id].timeout / COMMITMENT_TIMEOUT_RATIO;\n        commitments[commitment_id].reveal_ts = uint32(now).add(commitment_timeout);\n    }\n\n    /// @notice Submit the hash of an answer, laying your claim to that answer if you reveal it in a subsequent transaction.\n    /// @dev Creates a hash, commitment_id, uniquely identifying this answer, to this question, with this bond.\n    /// The commitment_id is stored in the answer history where the answer would normally go.\n    /// Does not update the current best answer - this is left to the later submitAnswerReveal() transaction.\n    /// @param question_id The ID of the question\n    /// @param answer_hash The hash of your answer, plus a nonce that you will later reveal\n    /// @param max_previous If specified, reverts if a bond higher than this was submitted after you sent your transaction.\n    /// @param _answerer If specified, the address to be given as the question answerer. Defaults to the sender.\n    /// @param tokens Number of tokens sent\n    /// @dev Specifying the answerer is useful if you want to delegate the commit-and-reveal to a third-party.\n    function submitAnswerCommitmentERC20(bytes32 question_id, bytes32 answer_hash, uint256 max_previous, address _answerer, uint256 tokens)\n        stateOpen(question_id)\n        bondMustDouble(question_id, tokens)\n        previousBondMustNotBeatMaxPrevious(question_id, max_previous)\n    external {\n\n        _deductTokensOrRevert(tokens);\n\n        bytes32 commitment_id = keccak256(abi.encodePacked(question_id, answer_hash, tokens));\n        address answerer = (_answerer == NULL_ADDRESS) ? msg.sender : _answerer;\n\n        _storeCommitment(question_id, commitment_id);\n        _addAnswerToHistory(question_id, commitment_id, answerer, tokens, true);\n\n    }\n\n    /// @notice Submit the answer whose hash you sent in a previous submitAnswerCommitment() transaction\n    /// @dev Checks the parameters supplied recreate an existing commitment, and stores the revealed answer\n    /// Updates the current answer unless someone has since supplied a new answer with a higher bond\n    /// msg.sender is intentionally not restricted to the user who originally sent the commitment;\n    /// For example, the user may want to provide the answer+nonce to a third-party service and let them send the tx\n    /// NB If we are pending arbitration, it will be up to the arbitrator to wait and see any outstanding reveal is sent\n    /// @param question_id The ID of the question\n    /// @param answer The answer, encoded as bytes32\n    /// @param nonce The nonce that, combined with the answer, recreates the answer_hash you gave in submitAnswerCommitment()\n    /// @param bond The bond that you paid in your submitAnswerCommitment() transaction\n    function submitAnswerReveal(bytes32 question_id, bytes32 answer, uint256 nonce, uint256 bond)\n        stateOpenOrPendingArbitration(question_id)\n    external {\n\n        bytes32 answer_hash = keccak256(abi.encodePacked(answer, nonce));\n        bytes32 commitment_id = keccak256(abi.encodePacked(question_id, answer_hash, bond));\n\n        require(!commitments[commitment_id].is_revealed, \"commitment must not have been revealed yet\");\n        require(commitments[commitment_id].reveal_ts > uint32(now), \"reveal deadline must not have passed\");\n\n        commitments[commitment_id].revealed_answer = answer;\n        commitments[commitment_id].is_revealed = true;\n\n        if (bond == questions[question_id].bond) {\n            _updateCurrentAnswer(question_id, answer, questions[question_id].timeout);\n        }\n\n        emit LogAnswerReveal(question_id, msg.sender, answer_hash, answer, nonce, bond);\n\n    }\n\n    function _addAnswerToHistory(bytes32 question_id, bytes32 answer_or_commitment_id, address answerer, uint256 bond, bool is_commitment)\n    internal\n    {\n        bytes32 new_history_hash = keccak256(abi.encodePacked(questions[question_id].history_hash, answer_or_commitment_id, bond, answerer, is_commitment));\n\n        // Update the current bond level, if there's a bond (ie anything except arbitration)\n        if (bond > 0) {\n            questions[question_id].bond = bond;\n        }\n        questions[question_id].history_hash = new_history_hash;\n\n        emit LogNewAnswer(answer_or_commitment_id, question_id, new_history_hash, answerer, bond, now, is_commitment);\n    }\n\n    function _updateCurrentAnswer(bytes32 question_id, bytes32 answer, uint32 timeout_secs)\n    internal {\n        questions[question_id].best_answer = answer;\n        questions[question_id].finalize_ts = uint32(now).add(timeout_secs);\n    }\n\n    /// @notice Notify the contract that the arbitrator has been paid for a question, freezing it pending their decision.\n    /// @dev The arbitrator contract is trusted to only call this if they've been paid, and tell us who paid them.\n    /// @param question_id The ID of the question\n    /// @param requester The account that requested arbitration\n    /// @param max_previous If specified, reverts if a bond higher than this was submitted after you sent your transaction.\n    function notifyOfArbitrationRequest(bytes32 question_id, address requester, uint256 max_previous)\n        onlyArbitrator(question_id)\n        stateOpen(question_id)\n        previousBondMustNotBeatMaxPrevious(question_id, max_previous)\n    external {\n        require(questions[question_id].bond > 0, \"Question must already have an answer when arbitration is requested\");\n        questions[question_id].is_pending_arbitration = true;\n        emit LogNotifyOfArbitrationRequest(question_id, requester);\n    }\n\n    /// @notice Submit the answer for a question, for use by the arbitrator.\n    /// @dev Doesn't require (or allow) a bond.\n    /// If the current final answer is correct, the account should be whoever submitted it.\n    /// If the current final answer is wrong, the account should be whoever paid for arbitration.\n    /// However, the answerer stipulations are not enforced by the contract.\n    /// @param question_id The ID of the question\n    /// @param answer The answer, encoded into bytes32\n    /// @param answerer The account credited with this answer for the purpose of bond claims\n    function submitAnswerByArbitrator(bytes32 question_id, bytes32 answer, address answerer)\n        onlyArbitrator(question_id)\n        statePendingArbitration(question_id)\n    external {\n\n        require(answerer != NULL_ADDRESS, \"answerer must be provided\");\n        emit LogFinalize(question_id, answer);\n\n        questions[question_id].is_pending_arbitration = false;\n        _addAnswerToHistory(question_id, answer, answerer, 0, false);\n        _updateCurrentAnswer(question_id, answer, 0);\n\n    }\n\n    /// @notice Report whether the answer to the specified question is finalized\n    /// @param question_id The ID of the question\n    /// @return Return true if finalized\n    function isFinalized(bytes32 question_id)\n    view public returns (bool) {\n        uint32 finalize_ts = questions[question_id].finalize_ts;\n        return ( !questions[question_id].is_pending_arbitration && (finalize_ts > UNANSWERED) && (finalize_ts <= uint32(now)) );\n    }\n\n    /// @notice (Deprecated) Return the final answer to the specified question, or revert if there isn't one\n    /// @param question_id The ID of the question\n    /// @return The answer formatted as a bytes32\n    function getFinalAnswer(bytes32 question_id)\n        stateFinalized(question_id)\n    external view returns (bytes32) {\n        return questions[question_id].best_answer;\n    }\n\n    /// @notice Return the final answer to the specified question, or revert if there isn't one\n    /// @param question_id The ID of the question\n    /// @return The answer formatted as a bytes32\n    function resultFor(bytes32 question_id)\n        stateFinalized(question_id)\n    external view returns (bytes32) {\n        return questions[question_id].best_answer;\n    }\n\n\n    /// @notice Return the final answer to the specified question, provided it matches the specified criteria.\n    /// @dev Reverts if the question is not finalized, or if it does not match the specified criteria.\n    /// @param question_id The ID of the question\n    /// @param content_hash The hash of the question content (template ID + opening time + question parameter string)\n    /// @param arbitrator The arbitrator chosen for the question (regardless of whether they are asked to arbitrate)\n    /// @param min_timeout The timeout set in the initial question settings must be this high or higher\n    /// @param min_bond The bond sent with the final answer must be this high or higher\n    /// @return The answer formatted as a bytes32\n    function getFinalAnswerIfMatches(\n        bytes32 question_id,\n        bytes32 content_hash, address arbitrator, uint32 min_timeout, uint256 min_bond\n    )\n        stateFinalized(question_id)\n    external view returns (bytes32) {\n        require(content_hash == questions[question_id].content_hash, \"content hash must match\");\n        require(arbitrator == questions[question_id].arbitrator, \"arbitrator must match\");\n        require(min_timeout <= questions[question_id].timeout, \"timeout must be long enough\");\n        require(min_bond <= questions[question_id].bond, \"bond must be high enough\");\n        return questions[question_id].best_answer;\n    }\n\n    /// @notice Assigns the winnings (bounty and bonds) to everyone who gave the accepted answer\n    /// Caller must provide the answer history, in reverse order\n    /// @dev Works up the chain and assign bonds to the person who gave the right answer\n    /// If someone gave the winning answer earlier, they must get paid from the higher bond\n    /// That means we can't pay out the bond added at n until we have looked at n-1\n    /// The first answer is authenticated by checking against the stored history_hash.\n    /// One of the inputs to history_hash is the history_hash before it, so we use that to authenticate the next entry, etc\n    /// Once we get to a null hash we'll know we're done and there are no more answers.\n    /// Usually you would call the whole thing in a single transaction, but if not then the data is persisted to pick up later.\n    /// @param question_id The ID of the question\n    /// @param history_hashes Second-last-to-first, the hash of each history entry. (Final one should be empty).\n    /// @param addrs Last-to-first, the address of each answerer or commitment sender\n    /// @param bonds Last-to-first, the bond supplied with each answer or commitment\n    /// @param answers Last-to-first, each answer supplied, or commitment ID if the answer was supplied with commit->reveal\n    function claimWinnings(\n        bytes32 question_id,\n        bytes32[] memory history_hashes, address[] memory addrs, uint256[] memory bonds, bytes32[] memory answers\n    )\n        stateFinalized(question_id)\n    public {\n\n        require(history_hashes.length > 0, \"at least one history hash entry must be provided\");\n\n        // These are only set if we split our claim over multiple transactions.\n        address payee = question_claims[question_id].payee;\n        uint256 last_bond = question_claims[question_id].last_bond;\n        uint256 queued_funds = question_claims[question_id].queued_funds;\n\n        // Starts as the hash of the final answer submitted. It'll be cleared when we're done.\n        // If we're splitting the claim over multiple transactions, it'll be the hash where we left off last time\n        bytes32 last_history_hash = questions[question_id].history_hash;\n\n        bytes32 best_answer = questions[question_id].best_answer;\n\n        uint256 i;\n        for (i = 0; i < history_hashes.length; i++) {\n\n            // Check input against the history hash, and see which of 2 possible values of is_commitment fits.\n            bool is_commitment = _verifyHistoryInputOrRevert(last_history_hash, history_hashes[i], answers[i], bonds[i], addrs[i]);\n\n            queued_funds = queued_funds.add(last_bond);\n            (queued_funds, payee) = _processHistoryItem(\n                question_id, best_answer, queued_funds, payee,\n                addrs[i], bonds[i], answers[i], is_commitment);\n\n            // Line the bond up for next time, when it will be added to somebody's queued_funds\n            last_bond = bonds[i];\n            last_history_hash = history_hashes[i];\n\n        }\n\n        if (last_history_hash != NULL_HASH) {\n            // We haven't yet got to the null hash (1st answer), ie the caller didn't supply the full answer chain.\n            // Persist the details so we can pick up later where we left off later.\n\n            // If we know who to pay we can go ahead and pay them out, only keeping back last_bond\n            // (We always know who to pay unless all we saw were unrevealed commits)\n            if (payee != NULL_ADDRESS) {\n                _payPayee(question_id, payee, queued_funds);\n                queued_funds = 0;\n            }\n\n            question_claims[question_id].payee = payee;\n            question_claims[question_id].last_bond = last_bond;\n            question_claims[question_id].queued_funds = queued_funds;\n        } else {\n            // There is nothing left below us so the payee can keep what remains\n            _payPayee(question_id, payee, queued_funds.add(last_bond));\n            delete question_claims[question_id];\n        }\n\n        questions[question_id].history_hash = last_history_hash;\n\n    }\n\n    function _payPayee(bytes32 question_id, address payee, uint256 value)\n    internal {\n        balanceOf[payee] = balanceOf[payee].add(value);\n        emit LogClaim(question_id, payee, value);\n    }\n\n    function _verifyHistoryInputOrRevert(\n        bytes32 last_history_hash,\n        bytes32 history_hash, bytes32 answer, uint256 bond, address addr\n    )\n    internal pure returns (bool) {\n        if (last_history_hash == keccak256(abi.encodePacked(history_hash, answer, bond, addr, true)) ) {\n            return true;\n        }\n        if (last_history_hash == keccak256(abi.encodePacked(history_hash, answer, bond, addr, false)) ) {\n            return false;\n        }\n        revert(\"History input provided did not match the expected hash\");\n    }\n\n    function _processHistoryItem(\n        bytes32 question_id, bytes32 best_answer,\n        uint256 queued_funds, address payee,\n        address addr, uint256 bond, bytes32 answer, bool is_commitment\n    )\n    internal returns (uint256, address) {\n\n        // For commit-and-reveal, the answer history holds the commitment ID instead of the answer.\n        // We look at the referenced commitment ID and switch in the actual answer.\n        if (is_commitment) {\n            bytes32 commitment_id = answer;\n            // If it's a commit but it hasn't been revealed, it will always be considered wrong.\n            if (!commitments[commitment_id].is_revealed) {\n                delete commitments[commitment_id];\n                return (queued_funds, payee);\n            } else {\n                answer = commitments[commitment_id].revealed_answer;\n                delete commitments[commitment_id];\n            }\n        }\n\n        if (answer == best_answer) {\n\n            if (payee == NULL_ADDRESS) {\n\n                // The entry is for the first payee we come to, ie the winner.\n                // They get the question bounty.\n                payee = addr;\n                queued_funds = queued_funds.add(questions[question_id].bounty);\n                questions[question_id].bounty = 0;\n\n            } else if (addr != payee) {\n\n                // Answerer has changed, ie we found someone lower down who needs to be paid\n\n                // The lower answerer will take over receiving bonds from higher answerer.\n                // They should also be paid the takeover fee, which is set at a rate equivalent to their bond.\n                // (This is our arbitrary rule, to give consistent right-answerers a defence against high-rollers.)\n\n                // There should be enough for the fee, but if not, take what we have.\n                // There's an edge case involving weird arbitrator behaviour where we may be short.\n                uint256 answer_takeover_fee = (queued_funds >= bond) ? bond : queued_funds;\n\n                // Settle up with the old (higher-bonded) payee\n                _payPayee(question_id, payee, queued_funds.sub(answer_takeover_fee));\n\n                // Now start queued_funds again for the new (lower-bonded) payee\n                payee = addr;\n                queued_funds = answer_takeover_fee;\n\n            }\n\n        }\n\n        return (queued_funds, payee);\n\n    }\n\n    /// @notice Convenience function to assign bounties/bonds for multiple questions in one go, then withdraw all your funds.\n    /// Caller must provide the answer history for each question, in reverse order\n    /// @dev Can be called by anyone to assign bonds/bounties, but funds are only withdrawn for the user making the call.\n    /// @param question_ids The IDs of the questions you want to claim for\n    /// @param lengths The number of history entries you will supply for each question ID\n    /// @param hist_hashes In a single list for all supplied questions, the hash of each history entry.\n    /// @param addrs In a single list for all supplied questions, the address of each answerer or commitment sender\n    /// @param bonds In a single list for all supplied questions, the bond supplied with each answer or commitment\n    /// @param answers In a single list for all supplied questions, each answer supplied, or commitment ID\n    function claimMultipleAndWithdrawBalance(\n        bytes32[] memory question_ids, uint256[] memory lengths,\n        bytes32[] memory hist_hashes, address[] memory addrs, uint256[] memory bonds, bytes32[] memory answers\n    )\n        stateAny() // The finalization checks are done in the claimWinnings function\n    public {\n\n        uint256 qi;\n        uint256 i;\n        for (qi = 0; qi < question_ids.length; qi++) {\n            bytes32 qid = question_ids[qi];\n            uint256 ln = lengths[qi];\n            bytes32[] memory hh = new bytes32[](ln);\n            address[] memory ad = new address[](ln);\n            uint256[] memory bo = new uint256[](ln);\n            bytes32[] memory an = new bytes32[](ln);\n            uint256 j;\n            for (j = 0; j < ln; j++) {\n                hh[j] = hist_hashes[i];\n                ad[j] = addrs[i];\n                bo[j] = bonds[i];\n                an[j] = answers[i];\n                i++;\n            }\n            claimWinnings(qid, hh, ad, bo, an);\n        }\n        withdraw();\n    }\n\n    /// @notice Returns the questions's content hash, identifying the question content\n    /// @param question_id The ID of the question\n    function getContentHash(bytes32 question_id)\n    public view returns(bytes32) {\n        return questions[question_id].content_hash;\n    }\n\n    /// @notice Returns the arbitrator address for the question\n    /// @param question_id The ID of the question\n    function getArbitrator(bytes32 question_id)\n    public view returns(address) {\n        return questions[question_id].arbitrator;\n    }\n\n    /// @notice Returns the timestamp when the question can first be answered\n    /// @param question_id The ID of the question\n    function getOpeningTS(bytes32 question_id)\n    public view returns(uint32) {\n        return questions[question_id].opening_ts;\n    }\n\n    /// @notice Returns the timeout in seconds used after each answer\n    /// @param question_id The ID of the question\n    function getTimeout(bytes32 question_id)\n    public view returns(uint32) {\n        return questions[question_id].timeout;\n    }\n\n    /// @notice Returns the timestamp at which the question will be/was finalized\n    /// @param question_id The ID of the question\n    function getFinalizeTS(bytes32 question_id)\n    public view returns(uint32) {\n        return questions[question_id].finalize_ts;\n    }\n\n    /// @notice Returns whether the question is pending arbitration\n    /// @param question_id The ID of the question\n    function isPendingArbitration(bytes32 question_id)\n    public view returns(bool) {\n        return questions[question_id].is_pending_arbitration;\n    }\n\n    /// @notice Returns the current total unclaimed bounty\n    /// @dev Set back to zero once the bounty has been claimed\n    /// @param question_id The ID of the question\n    function getBounty(bytes32 question_id)\n    public view returns(uint256) {\n        return questions[question_id].bounty;\n    }\n\n    /// @notice Returns the current best answer\n    /// @param question_id The ID of the question\n    function getBestAnswer(bytes32 question_id)\n    public view returns(bytes32) {\n        return questions[question_id].best_answer;\n    }\n\n    /// @notice Returns the history hash of the question\n    /// @param question_id The ID of the question\n    /// @dev Updated on each answer, then rewound as each is claimed\n    function getHistoryHash(bytes32 question_id)\n    public view returns(bytes32) {\n        return questions[question_id].history_hash;\n    }\n\n    /// @notice Returns the highest bond posted so far for a question\n    /// @param question_id The ID of the question\n    function getBond(bytes32 question_id)\n    public view returns(uint256) {\n        return questions[question_id].bond;\n    }\n\n}\n",
  "sourcePath": "/Users/ricardomarques/dev/workspace/polkamarkets/bepro-js/contracts/RealitioERC20.sol",
  "compiler": {
    "name": "solc",
    "version": "0.6.2+commit.bacdbe57.Emscripten.clang"
  },
  "schemaVersion": "3.3.4",
  "updatedAt": "2021-08-02T15:24:45.723Z",
  "devdoc": {
    "methods": {
      "askQuestion(uint256,string,address,uint32,uint32,uint256)": {
        "details": "Template data is only stored in the event logs, but its block number is kept in contract storage.Calling without the token param will only work if there is no arbitrator-set question fee.This has the same function signature as askQuestion() in the non-ERC20 version, which is optionally payable.",
        "params": {
          "arbitrator": "The arbitration contract that will have the final word on the answer if there is a dispute",
          "nonce": "A user-specified nonce used in the question ID. Change it to repeat a question.",
          "opening_ts": "If set, the earliest time it should be possible to answer the question.",
          "question": "A string containing the parameters that will be passed into the template to make the question",
          "template_id": "The ID number of the template the question will use",
          "timeout": "How long the contract should wait after the answer is changed before finalizing on that answer"
        },
        "returns": {
          "_0": "The ID of the newly-created question, created deterministically."
        }
      },
      "askQuestionERC20(uint256,string,address,uint32,uint32,uint256,uint256)": {
        "details": "Template data is only stored in the event logs, but its block number is kept in contract storage.",
        "params": {
          "arbitrator": "The arbitration contract that will have the final word on the answer if there is a dispute",
          "nonce": "A user-specified nonce used in the question ID. Change it to repeat a question.",
          "opening_ts": "If set, the earliest time it should be possible to answer the question.",
          "question": "A string containing the parameters that will be passed into the template to make the question",
          "template_id": "The ID number of the template the question will use",
          "timeout": "How long the contract should wait after the answer is changed before finalizing on that answer",
          "tokens": "The combined initial question bounty and question fee"
        },
        "returns": {
          "_0": "The ID of the newly-created question, created deterministically."
        }
      },
      "claimMultipleAndWithdrawBalance(bytes32[],uint256[],bytes32[],address[],uint256[],bytes32[])": {
        "details": "Can be called by anyone to assign bonds/bounties, but funds are only withdrawn for the user making the call.",
        "params": {
          "addrs": "In a single list for all supplied questions, the address of each answerer or commitment sender",
          "answers": "In a single list for all supplied questions, each answer supplied, or commitment ID",
          "bonds": "In a single list for all supplied questions, the bond supplied with each answer or commitment",
          "hist_hashes": "In a single list for all supplied questions, the hash of each history entry.",
          "lengths": "The number of history entries you will supply for each question ID",
          "question_ids": "The IDs of the questions you want to claim for"
        }
      },
      "claimWinnings(bytes32,bytes32[],address[],uint256[],bytes32[])": {
        "details": "Works up the chain and assign bonds to the person who gave the right answer If someone gave the winning answer earlier, they must get paid from the higher bond That means we can't pay out the bond added at n until we have looked at n-1 The first answer is authenticated by checking against the stored history_hash. One of the inputs to history_hash is the history_hash before it, so we use that to authenticate the next entry, etc Once we get to a null hash we'll know we're done and there are no more answers. Usually you would call the whole thing in a single transaction, but if not then the data is persisted to pick up later.",
        "params": {
          "addrs": "Last-to-first, the address of each answerer or commitment sender",
          "answers": "Last-to-first, each answer supplied, or commitment ID if the answer was supplied with commit->reveal",
          "bonds": "Last-to-first, the bond supplied with each answer or commitment",
          "history_hashes": "Second-last-to-first, the hash of each history entry. (Final one should be empty).",
          "question_id": "The ID of the question"
        }
      },
      "constructor": {
        "details": "Creates some generalized templates for different question types used in the DApp."
      },
      "createTemplate(string)": {
        "details": "Template data is only stored in the event logs, but its block number is kept in contract storage.",
        "params": {
          "content": "The template content"
        },
        "returns": {
          "_0": "The ID of the newly-created template, which is created sequentially."
        }
      },
      "createTemplateAndAskQuestion(string,string,address,uint32,uint32,uint256)": {
        "details": "Template data is only stored in the event logs, but its block number is kept in contract storage.",
        "params": {
          "arbitrator": "The arbitration contract that will have the final word on the answer if there is a dispute",
          "content": "The template content",
          "nonce": "A user-specified nonce used in the question ID. Change it to repeat a question.",
          "opening_ts": "If set, the earliest time it should be possible to answer the question.",
          "question": "A string containing the parameters that will be passed into the template to make the question",
          "timeout": "How long the contract should wait after the answer is changed before finalizing on that answer"
        },
        "returns": {
          "_0": "The ID of the newly-created template, which is created sequentially."
        }
      },
      "fundAnswerBountyERC20(bytes32,uint256)": {
        "details": "Add bounty funds after the initial question creation. Can be done any time until the question is finalized.",
        "params": {
          "question_id": "The ID of the question you wish to fund",
          "tokens": "The number of tokens to fund"
        }
      },
      "getArbitrator(bytes32)": {
        "params": {
          "question_id": "The ID of the question"
        }
      },
      "getBestAnswer(bytes32)": {
        "params": {
          "question_id": "The ID of the question"
        }
      },
      "getBond(bytes32)": {
        "params": {
          "question_id": "The ID of the question"
        }
      },
      "getBounty(bytes32)": {
        "details": "Set back to zero once the bounty has been claimed",
        "params": {
          "question_id": "The ID of the question"
        }
      },
      "getContentHash(bytes32)": {
        "params": {
          "question_id": "The ID of the question"
        }
      },
      "getFinalAnswer(bytes32)": {
        "params": {
          "question_id": "The ID of the question"
        },
        "returns": {
          "_0": "The answer formatted as a bytes32"
        }
      },
      "getFinalAnswerIfMatches(bytes32,bytes32,address,uint32,uint256)": {
        "details": "Reverts if the question is not finalized, or if it does not match the specified criteria.",
        "params": {
          "arbitrator": "The arbitrator chosen for the question (regardless of whether they are asked to arbitrate)",
          "content_hash": "The hash of the question content (template ID + opening time + question parameter string)",
          "min_bond": "The bond sent with the final answer must be this high or higher",
          "min_timeout": "The timeout set in the initial question settings must be this high or higher",
          "question_id": "The ID of the question"
        },
        "returns": {
          "_0": "The answer formatted as a bytes32"
        }
      },
      "getFinalizeTS(bytes32)": {
        "params": {
          "question_id": "The ID of the question"
        }
      },
      "getHistoryHash(bytes32)": {
        "details": "Updated on each answer, then rewound as each is claimed",
        "params": {
          "question_id": "The ID of the question"
        }
      },
      "getOpeningTS(bytes32)": {
        "params": {
          "question_id": "The ID of the question"
        }
      },
      "getTimeout(bytes32)": {
        "params": {
          "question_id": "The ID of the question"
        }
      },
      "isFinalized(bytes32)": {
        "params": {
          "question_id": "The ID of the question"
        },
        "returns": {
          "_0": "Return true if finalized"
        }
      },
      "isPendingArbitration(bytes32)": {
        "params": {
          "question_id": "The ID of the question"
        }
      },
      "notifyOfArbitrationRequest(bytes32,address,uint256)": {
        "details": "The arbitrator contract is trusted to only call this if they've been paid, and tell us who paid them.",
        "params": {
          "max_previous": "If specified, reverts if a bond higher than this was submitted after you sent your transaction.",
          "question_id": "The ID of the question",
          "requester": "The account that requested arbitration"
        }
      },
      "resultFor(bytes32)": {
        "params": {
          "question_id": "The ID of the question"
        },
        "returns": {
          "_0": "The answer formatted as a bytes32"
        }
      },
      "setQuestionFee(uint256)": {
        "details": "The per-question fee, charged when a question is asked, is intended as an anti-spam measure.",
        "params": {
          "fee": "The fee to be charged by the arbitrator when a question is asked"
        }
      },
      "submitAnswerByArbitrator(bytes32,bytes32,address)": {
        "details": "Doesn't require (or allow) a bond. If the current final answer is correct, the account should be whoever submitted it. If the current final answer is wrong, the account should be whoever paid for arbitration. However, the answerer stipulations are not enforced by the contract.",
        "params": {
          "answer": "The answer, encoded into bytes32",
          "answerer": "The account credited with this answer for the purpose of bond claims",
          "question_id": "The ID of the question"
        }
      },
      "submitAnswerCommitmentERC20(bytes32,bytes32,uint256,address,uint256)": {
        "details": "Creates a hash, commitment_id, uniquely identifying this answer, to this question, with this bond. The commitment_id is stored in the answer history where the answer would normally go. Does not update the current best answer - this is left to the later submitAnswerReveal() transaction.Specifying the answerer is useful if you want to delegate the commit-and-reveal to a third-party.",
        "params": {
          "_answerer": "If specified, the address to be given as the question answerer. Defaults to the sender.",
          "answer_hash": "The hash of your answer, plus a nonce that you will later reveal",
          "max_previous": "If specified, reverts if a bond higher than this was submitted after you sent your transaction.",
          "question_id": "The ID of the question",
          "tokens": "Number of tokens sent"
        }
      },
      "submitAnswerERC20(bytes32,bytes32,uint256,uint256)": {
        "details": "Adds the answer to the history and updates the current \"best\" answer. May be subject to front-running attacks; Substitute submitAnswerCommitment()->submitAnswerReveal() to prevent them.",
        "params": {
          "answer": "The answer, encoded into bytes32",
          "max_previous": "If specified, reverts if a bond higher than this was submitted after you sent your transaction.",
          "question_id": "The ID of the question",
          "tokens": "The amount of tokens to submit"
        }
      },
      "submitAnswerReveal(bytes32,bytes32,uint256,uint256)": {
        "details": "Checks the parameters supplied recreate an existing commitment, and stores the revealed answer Updates the current answer unless someone has since supplied a new answer with a higher bond msg.sender is intentionally not restricted to the user who originally sent the commitment; For example, the user may want to provide the answer+nonce to a third-party service and let them send the tx NB If we are pending arbitration, it will be up to the arbitrator to wait and see any outstanding reveal is sent",
        "params": {
          "answer": "The answer, encoded as bytes32",
          "bond": "The bond that you paid in your submitAnswerCommitment() transaction",
          "nonce": "The nonce that, combined with the answer, recreates the answer_hash you gave in submitAnswerCommitment()",
          "question_id": "The ID of the question"
        }
      }
    }
  },
  "userdoc": {
    "methods": {
      "askQuestion(uint256,string,address,uint32,uint32,uint256)": {
        "notice": "Ask a new question without a bounty and return the ID"
      },
      "askQuestionERC20(uint256,string,address,uint32,uint32,uint256,uint256)": {
        "notice": "Ask a new question with a bounty and return the ID"
      },
      "claimMultipleAndWithdrawBalance(bytes32[],uint256[],bytes32[],address[],uint256[],bytes32[])": {
        "notice": "Convenience function to assign bounties/bonds for multiple questions in one go, then withdraw all your funds. Caller must provide the answer history for each question, in reverse order"
      },
      "claimWinnings(bytes32,bytes32[],address[],uint256[],bytes32[])": {
        "notice": "Assigns the winnings (bounty and bonds) to everyone who gave the accepted answer Caller must provide the answer history, in reverse order"
      },
      "constructor": "Constructor, sets up some initial templates",
      "createTemplate(string)": {
        "notice": "Create a reusable template, which should be a JSON document. Placeholders should use gettext() syntax, eg %s."
      },
      "createTemplateAndAskQuestion(string,string,address,uint32,uint32,uint256)": {
        "notice": "Create a new reusable template and use it to ask a question"
      },
      "fundAnswerBountyERC20(bytes32,uint256)": {
        "notice": "Add funds to the bounty for a question"
      },
      "getArbitrator(bytes32)": {
        "notice": "Returns the arbitrator address for the question"
      },
      "getBestAnswer(bytes32)": {
        "notice": "Returns the current best answer"
      },
      "getBond(bytes32)": {
        "notice": "Returns the highest bond posted so far for a question"
      },
      "getBounty(bytes32)": {
        "notice": "Returns the current total unclaimed bounty"
      },
      "getContentHash(bytes32)": {
        "notice": "Returns the questions's content hash, identifying the question content"
      },
      "getFinalAnswer(bytes32)": {
        "notice": "(Deprecated) Return the final answer to the specified question, or revert if there isn't one"
      },
      "getFinalAnswerIfMatches(bytes32,bytes32,address,uint32,uint256)": {
        "notice": "Return the final answer to the specified question, provided it matches the specified criteria."
      },
      "getFinalizeTS(bytes32)": {
        "notice": "Returns the timestamp at which the question will be/was finalized"
      },
      "getHistoryHash(bytes32)": {
        "notice": "Returns the history hash of the question"
      },
      "getOpeningTS(bytes32)": {
        "notice": "Returns the timestamp when the question can first be answered"
      },
      "getTimeout(bytes32)": {
        "notice": "Returns the timeout in seconds used after each answer"
      },
      "isFinalized(bytes32)": {
        "notice": "Report whether the answer to the specified question is finalized"
      },
      "isPendingArbitration(bytes32)": {
        "notice": "Returns whether the question is pending arbitration"
      },
      "notifyOfArbitrationRequest(bytes32,address,uint256)": {
        "notice": "Notify the contract that the arbitrator has been paid for a question, freezing it pending their decision."
      },
      "resultFor(bytes32)": {
        "notice": "Return the final answer to the specified question, or revert if there isn't one"
      },
      "setQuestionFee(uint256)": {
        "notice": "Function for arbitrator to set an optional per-question fee."
      },
      "submitAnswerByArbitrator(bytes32,bytes32,address)": {
        "notice": "Submit the answer for a question, for use by the arbitrator."
      },
      "submitAnswerCommitmentERC20(bytes32,bytes32,uint256,address,uint256)": {
        "notice": "Submit the hash of an answer, laying your claim to that answer if you reveal it in a subsequent transaction."
      },
      "submitAnswerERC20(bytes32,bytes32,uint256,uint256)": {
        "notice": "Submit an answer for a question."
      },
      "submitAnswerReveal(bytes32,bytes32,uint256,uint256)": {
        "notice": "Submit the answer whose hash you sent in a previous submitAnswerCommitment() transaction"
      }
    }
  }
}