{
  "contractName": "StakingContract",
  "abi": [
    {
      "inputs": [
        {
          "internalType": "address",
          "name": "_tokenAddress",
          "type": "address"
        }
      ],
      "stateMutability": "nonpayable",
      "type": "constructor"
    },
    {
      "anonymous": false,
      "inputs": [
        {
          "indexed": true,
          "internalType": "address",
          "name": "previousOwner",
          "type": "address"
        },
        {
          "indexed": true,
          "internalType": "address",
          "name": "newOwner",
          "type": "address"
        }
      ],
      "name": "OwnershipTransferred",
      "type": "event"
    },
    {
      "anonymous": false,
      "inputs": [
        {
          "indexed": false,
          "internalType": "address",
          "name": "account",
          "type": "address"
        }
      ],
      "name": "Paused",
      "type": "event"
    },
    {
      "anonymous": false,
      "inputs": [
        {
          "indexed": false,
          "internalType": "address",
          "name": "account",
          "type": "address"
        }
      ],
      "name": "Unpaused",
      "type": "event"
    },
    {
      "inputs": [],
      "name": "erc20",
      "outputs": [
        {
          "internalType": "contract ERC20",
          "name": "",
          "type": "address"
        }
      ],
      "stateMutability": "view",
      "type": "function"
    },
    {
      "inputs": [
        {
          "internalType": "address",
          "name": "",
          "type": "address"
        },
        {
          "internalType": "uint256",
          "name": "",
          "type": "uint256"
        }
      ],
      "name": "mySubscriptions",
      "outputs": [
        {
          "internalType": "uint256",
          "name": "",
          "type": "uint256"
        }
      ],
      "stateMutability": "view",
      "type": "function"
    },
    {
      "inputs": [],
      "name": "owner",
      "outputs": [
        {
          "internalType": "address",
          "name": "",
          "type": "address"
        }
      ],
      "stateMutability": "view",
      "type": "function"
    },
    {
      "inputs": [],
      "name": "paused",
      "outputs": [
        {
          "internalType": "bool",
          "name": "",
          "type": "bool"
        }
      ],
      "stateMutability": "view",
      "type": "function"
    },
    {
      "inputs": [
        {
          "internalType": "uint256",
          "name": "",
          "type": "uint256"
        }
      ],
      "name": "productIds",
      "outputs": [
        {
          "internalType": "uint256",
          "name": "",
          "type": "uint256"
        }
      ],
      "stateMutability": "view",
      "type": "function"
    },
    {
      "inputs": [
        {
          "internalType": "uint256",
          "name": "",
          "type": "uint256"
        }
      ],
      "name": "products",
      "outputs": [
        {
          "internalType": "uint256",
          "name": "createdAt",
          "type": "uint256"
        },
        {
          "internalType": "uint256",
          "name": "startDate",
          "type": "uint256"
        },
        {
          "internalType": "uint256",
          "name": "endDate",
          "type": "uint256"
        },
        {
          "internalType": "uint256",
          "name": "totalMaxAmount",
          "type": "uint256"
        },
        {
          "internalType": "uint256",
          "name": "individualMinimumAmount",
          "type": "uint256"
        },
        {
          "internalType": "uint256",
          "name": "APR",
          "type": "uint256"
        },
        {
          "internalType": "uint256",
          "name": "currentAmount",
          "type": "uint256"
        },
        {
          "internalType": "bool",
          "name": "lockedUntilFinalization",
          "type": "bool"
        }
      ],
      "stateMutability": "view",
      "type": "function"
    },
    {
      "inputs": [
        {
          "internalType": "address",
          "name": "newOwner",
          "type": "address"
        }
      ],
      "name": "transferOwnership",
      "outputs": [],
      "stateMutability": "nonpayable",
      "type": "function"
    },
    {
      "inputs": [],
      "name": "heldTokens",
      "outputs": [
        {
          "internalType": "uint256",
          "name": "",
          "type": "uint256"
        }
      ],
      "stateMutability": "view",
      "type": "function"
    },
    {
      "inputs": [],
      "name": "futureLockedTokens",
      "outputs": [
        {
          "internalType": "uint256",
          "name": "",
          "type": "uint256"
        }
      ],
      "stateMutability": "view",
      "type": "function"
    },
    {
      "inputs": [],
      "name": "availableTokens",
      "outputs": [
        {
          "internalType": "uint256",
          "name": "",
          "type": "uint256"
        }
      ],
      "stateMutability": "view",
      "type": "function"
    },
    {
      "inputs": [
        {
          "internalType": "uint256",
          "name": "_product_id",
          "type": "uint256"
        },
        {
          "internalType": "uint256",
          "name": "_amount",
          "type": "uint256"
        }
      ],
      "name": "subscribeProduct",
      "outputs": [],
      "stateMutability": "nonpayable",
      "type": "function"
    },
    {
      "inputs": [
        {
          "internalType": "uint256",
          "name": "_startDate",
          "type": "uint256"
        },
        {
          "internalType": "uint256",
          "name": "_endDate",
          "type": "uint256"
        },
        {
          "internalType": "uint256",
          "name": "_totalMaxAmount",
          "type": "uint256"
        },
        {
          "internalType": "uint256",
          "name": "_individualMinimumAmount",
          "type": "uint256"
        },
        {
          "internalType": "uint256",
          "name": "_APR",
          "type": "uint256"
        },
        {
          "internalType": "bool",
          "name": "_lockedUntilFinalization",
          "type": "bool"
        }
      ],
      "name": "createProduct",
      "outputs": [],
      "stateMutability": "nonpayable",
      "type": "function"
    },
    {
      "inputs": [
        {
          "internalType": "uint256",
          "name": "_APR",
          "type": "uint256"
        },
        {
          "internalType": "uint256",
          "name": "_startDate",
          "type": "uint256"
        },
        {
          "internalType": "uint256",
          "name": "_endDate",
          "type": "uint256"
        },
        {
          "internalType": "uint256",
          "name": "_amount",
          "type": "uint256"
        }
      ],
      "name": "getAPRAmount",
      "outputs": [
        {
          "internalType": "uint256",
          "name": "",
          "type": "uint256"
        }
      ],
      "stateMutability": "pure",
      "type": "function"
    },
    {
      "inputs": [],
      "name": "getProductIds",
      "outputs": [
        {
          "internalType": "uint256[]",
          "name": "",
          "type": "uint256[]"
        }
      ],
      "stateMutability": "view",
      "type": "function"
    },
    {
      "inputs": [
        {
          "internalType": "address",
          "name": "_address",
          "type": "address"
        }
      ],
      "name": "getMySubscriptions",
      "outputs": [
        {
          "internalType": "uint256[]",
          "name": "",
          "type": "uint256[]"
        }
      ],
      "stateMutability": "view",
      "type": "function"
    },
    {
      "inputs": [
        {
          "internalType": "uint256",
          "name": "_product_id",
          "type": "uint256"
        },
        {
          "internalType": "uint256",
          "name": "_subscription_id",
          "type": "uint256"
        }
      ],
      "name": "withdrawSubscription",
      "outputs": [],
      "stateMutability": "nonpayable",
      "type": "function"
    },
    {
      "inputs": [
        {
          "internalType": "uint256",
          "name": "_subscription_id",
          "type": "uint256"
        },
        {
          "internalType": "uint256",
          "name": "_product_id",
          "type": "uint256"
        }
      ],
      "name": "getSubscription",
      "outputs": [
        {
          "internalType": "uint256",
          "name": "",
          "type": "uint256"
        },
        {
          "internalType": "uint256",
          "name": "",
          "type": "uint256"
        },
        {
          "internalType": "uint256",
          "name": "",
          "type": "uint256"
        },
        {
          "internalType": "uint256",
          "name": "",
          "type": "uint256"
        },
        {
          "internalType": "uint256",
          "name": "",
          "type": "uint256"
        },
        {
          "internalType": "address",
          "name": "",
          "type": "address"
        },
        {
          "internalType": "uint256",
          "name": "",
          "type": "uint256"
        },
        {
          "internalType": "bool",
          "name": "",
          "type": "bool"
        },
        {
          "internalType": "uint256",
          "name": "",
          "type": "uint256"
        }
      ],
      "stateMutability": "view",
      "type": "function"
    },
    {
      "inputs": [
        {
          "internalType": "uint256",
          "name": "_product_id",
          "type": "uint256"
        }
      ],
      "name": "getProduct",
      "outputs": [
        {
          "internalType": "uint256",
          "name": "",
          "type": "uint256"
        },
        {
          "internalType": "uint256",
          "name": "",
          "type": "uint256"
        },
        {
          "internalType": "uint256",
          "name": "",
          "type": "uint256"
        },
        {
          "internalType": "uint256",
          "name": "",
          "type": "uint256"
        },
        {
          "internalType": "uint256",
          "name": "",
          "type": "uint256"
        },
        {
          "internalType": "uint256",
          "name": "",
          "type": "uint256"
        },
        {
          "internalType": "uint256",
          "name": "",
          "type": "uint256"
        },
        {
          "internalType": "bool",
          "name": "",
          "type": "bool"
        },
        {
          "internalType": "address[]",
          "name": "",
          "type": "address[]"
        },
        {
          "internalType": "uint256[]",
          "name": "",
          "type": "uint256[]"
        }
      ],
      "stateMutability": "view",
      "type": "function"
    },
    {
      "inputs": [
        {
          "internalType": "address",
          "name": "_address",
          "type": "address"
        }
      ],
      "name": "safeGuardAllTokens",
      "outputs": [],
      "stateMutability": "nonpayable",
      "type": "function"
    },
    {
      "inputs": [
        {
          "internalType": "address",
          "name": "_tokenAddress",
          "type": "address"
        }
      ],
      "name": "changeTokenAddress",
      "outputs": [],
      "stateMutability": "nonpayable",
      "type": "function"
    }
  ],
  "bytecode": "0x60806040526000600455600060055534801561001a57600080fd5b50604051611ceb380380611ceb8339818101604052602081101561003d57600080fd5b5051600080546001600160a81b0319166101003302178155600680546001600160a01b0319166001600160a01b0390931692909217909155611c6690819061008590396000f3fe608060405234801561001057600080fd5b506004361061012c5760003560e01c80637acc0b20116100ad578063b90c72ae11610071578063b90c72ae146103d6578063b9db15b4146103fc578063c9cda91f146104ee578063cb51bba914610514578063f2fde38b146105315761012c565b80637acc0b201461029e5780637e6288f1146102fe5780638da5cb5b1461032d578063a461efb914610335578063b6ee04fa146103aa5761012c565b80635c975abb116100f45780635c975abb1461023457806369bb4dc2146102505780636ede83321461026a57806376f7ca6e14610272578063785e9e861461027a5761012c565b80630ea52b6c14610131578063130d89451461015657806321090380146101cc5780632c6131cb146101ef57806347428e7b1461022c575b600080fd5b6101546004803603604081101561014757600080fd5b5080359060200135610557565b005b61017c6004803603602081101561016c57600080fd5b50356001600160a01b0316610ac8565b60408051602080825283518183015283519192839290830191858101910280838360005b838110156101b85781810151838201526020016101a0565b505050509050019250505060405180910390f35b610154600480360360408110156101e257600080fd5b5080359060200135610b34565b610154600480360360c081101561020557600080fd5b5080359060208101359060408101359060608101359060808101359060a001351515610f7a565b61017c611163565b61023c6111bc565b604080519115158252519081900360200190f35b6102586111c5565b60408051918252519081900360200190f35b6102586111eb565b610258611267565b61028261126d565b604080516001600160a01b039092168252519081900360200190f35b6102bb600480360360208110156102b457600080fd5b503561127c565b604080519889526020890197909752878701959095526060870193909352608086019190915260a085015260c0840152151560e083015251908190036101000190f35b6102586004803603608081101561031457600080fd5b50803590602081013590604081013590606001356112c3565b610282611314565b6103586004803603604081101561034b57600080fd5b5080359060200135611328565b60408051998a5260208a019890985288880196909652606088019490945260808701929092526001600160a01b031660a086015260c0850152151560e084015261010083015251908190036101200190f35b610258600480360360408110156103c057600080fd5b506001600160a01b0381351690602001356113f4565b610154600480360360208110156103ec57600080fd5b50356001600160a01b0316611422565b6104196004803603602081101561041257600080fd5b5035611595565b604051808b81526020018a8152602001898152602001888152602001878152602001868152602001858152602001841515151581526020018060200180602001838103835285818151815260200191508051906020019060200280838360005b83811015610491578181015183820152602001610479565b50505050905001838103825284818151815260200191508051906020019060200280838360005b838110156104d05781810151838201526020016104b8565b505050509050019c5050505050505050505050505060405180910390f35b6101546004803603602081101561050457600080fd5b50356001600160a01b031661172a565b6102586004803603602081101561052a57600080fd5b50356117b8565b6101546004803603602081101561054757600080fd5b50356001600160a01b03166117d6565b61055f6111bc565b156105a4576040805162461bcd60e51b815260206004820152601060248201526f14185d5cd8589b194e881c185d5cd95960821b604482015290519081900360640190fd5b6000828152600160205260409020600201546105fd576040805162461bcd60e51b8152602060048201526013602482015272141c9bd91d58dd081a185cc8195e1c1a5c9959606a1b604482015290519081900360640190fd5b6000828152600160209081526040808320848452600a01909152902060030154610667576040805162461bcd60e51b8152602060048201526016602482015275141c9bd91d58dd08191bd95cc81b9bdd08195e1a5cdd60521b604482015290519081900360640190fd5b6000828152600160209081526040808320848452600a0190915290206007015460ff16156106c65760405162461bcd60e51b8152600401808060200182810382526022815260200180611ba86022913960400191505060405180910390fd5b6000828152600160209081526040808320848452600a019091529020600501546001600160a01b03163314610742576040805162461bcd60e51b815260206004820152601a60248201527f4e6f742074686520737562736372697074696f6e206f776e6572000000000000604482015290519081900360640190fd5b61074a6119eb565b506000828152600160208181526040808420858552600a018252928390208351610120810185528154815292810154918301919091526002810154928201839052600381015460608301526004810154608083015260058101546001600160a01b031660a0830152600681015460c0830152600781015460ff16151560e083015260080154610100820152904211610829576040805162461bcd60e51b815260206004820152601b60248201527f4e6f772069732062656c6f772074686520737461727420646174650000000000604482015290519081900360640190fd5b6000838152600160205260409020600201544290811061085b57506000838152600160205260409020600201546108ac565b60008481526001602052604090206007015460ff16156108ac5760405162461bcd60e51b8152600401808060200182810382526026815260200180611b826026913960400191505060405180910390fd5b60006108c68360c0015184604001518486608001516112c3565b9050600081116109075760405162461bcd60e51b8152600401808060200182810382526022815260200180611c0f6022913960400191505060405180910390fd5b608083015160009061091f908363ffffffff61186b16565b905060006109656109548660c001518760400151600160008c81526020019081526020016000206002015489608001516112c3565b60808701519063ffffffff61186b16565b9050600082116109a65760405162461bcd60e51b8152600401808060200182810382526024815260200180611beb6024913960400191505060405180910390fd5b60008781526001602081815260408084208a8552600a01825280842060078101805460ff191690941790935560038301889055600890920185905560065460a0890151835163a9059cbb60e01b81526001600160a01b03918216600482015260248101889052935191169363a9059cbb936044808201949392918390030190829087803b158015610a3657600080fd5b505af1158015610a4a573d6000803e3d6000fd5b505050506040513d6020811015610a6057600080fd5b5051610aa9576040805162461bcd60e51b8152602060048201526013602482015272151c985b9cd9995c881a185cc819985a5b1959606a1b604482015290519081900360640190fd5b600554610abc908263ffffffff6118ce16565b60055550505050505050565b6001600160a01b038116600090815260036020908152604091829020805483518184028101840190945280845260609392830182828015610b2857602002820191906000526020600020905b815481526020019060010190808311610b14575b50505050509050919050565b610b3c6111bc565b15610b81576040805162461bcd60e51b815260206004820152601060248201526f14185d5cd8589b194e881c185d5cd95960821b604482015290519081900360640190fd5b4281610b8c57600080fd5b6000838152600160205260409020600201544210610ba957600080fd5b60008381526001602081905260409091200154421015610bd85750600082815260016020819052604090912001545b6000838152600160205260409020600681015460039091015490830110610bfe57600080fd5b600083815260016020526040902060040154821015610c1c57600080fd5b60008381526001602052604081206005810154600290910154610c4291908490866112c3565b905080610c4d6111c5565b1015610c5857600080fd5b600654604080516323b872dd60e01b81523360048201523060248201526044810186905290516001600160a01b03909216916323b872dd916064808201926020929091908290030181600087803b158015610cb257600080fd5b505af1158015610cc6573d6000803e3d6000fd5b505050506040513d6020811015610cdc57600080fd5b5051610ce757600080fd5b610d09610cfa848363ffffffff61186b16565b6005549063ffffffff61186b16565b6005556004805460018101909155610d1f6119eb565b60405180610120016040528083815260200187815260200185815260200160016000898152602001908152602001600020600201548152602001868152602001336001600160a01b03168152602001600160008981526020019081526020016000206005015481526020016000151581526020016000815250905060036000336001600160a01b03166001600160a01b03168152602001908152602001600020829080600181540180825580915050600190039060005260206000200160009091909190915055600160008781526020019081526020016000206009018290806001815401808255809150506001900390600052602060002001600090919091909150558060016000888152602001908152602001600020600a016000848152602001908152602001600020600082015181600001556020820151816001015560408201518160020155606082015181600301556080820151816004015560a08201518160050160006101000a8154816001600160a01b0302191690836001600160a01b0316021790555060c0820151816006015560e08201518160070160006101000a81548160ff021916908315150217905550610100820151816008015590505084600160008881526020019081526020016000206006015401600160008881526020019081526020016000206006018190555060016000878152602001908152602001600020600801339080600181540180825580915050600190039060005260206000200160009091909190916101000a8154816001600160a01b0302191690836001600160a01b03160217905550505050505050565b610f826111bc565b15610fc7576040805162461bcd60e51b815260206004820152601060248201526f14185d5cd8589b194e881c185d5cd95960821b604482015290519081900360640190fd5b60005461010090046001600160a01b03163314610fe357600080fd5b844210610fef57600080fd5b85421115610ffc57600080fd5b84861061100857600080fd5b6000841161101557600080fd5b6000831161102257600080fd5b82841161102e57600080fd5b6000821161103b57600080fd5b606080611046611a42565b50604080516101408101825242815260208082018b81528284018b8152606084018b8152608085018b815260a086018b8152600060c088018181528c151560e08a019081526101008a018d81526101208b018d90526002805460018082018084557f405787fa12a823e0f2b7631cc41b3ba8828b3321ca811111fa75cd3aa3bb5ace909201829055818752808d529d9095208c51815599519c8a019c909c5596519a88019a909a55935160038701559151600486015551600585015590516006840155945160078301805460ff19169115159190911790555180519394938593611137926008850192910190611a97565b506101208201518051611154916009840191602090910190611afc565b50505050505050505050505050565b606060028054806020026020016040519081016040528092919081815260200182805480156111b157602002820191906000526020600020905b81548152602001906001019080831161119d575b505050505090505b90565b60005460ff1690565b60006111e66111d2611267565b6111da6111eb565b9063ffffffff6118ce16565b905090565b600654604080516370a0823160e01b815230600482015290516000926001600160a01b0316916370a08231916024808301926020929190829003018186803b15801561123657600080fd5b505afa15801561124a573d6000803e3d6000fd5b505050506040513d602081101561126057600080fd5b5051905090565b60055490565b6006546001600160a01b031681565b600160208190526000918252604090912080549181015460028201546003830154600484015460058501546006860154600790960154949593949293919290919060ff1688565b600061130b6112dd6301e13380606463ffffffff61192b16565b6112ff846112f38981898b63ffffffff6118ce16565b9063ffffffff61192b16565b9063ffffffff61198416565b95945050505050565b60005461010090046001600160a01b031681565b600080600080600080600080600061133e6119eb565b50505060009788525050600160208181526040808920998952600a909901815296889020885161012081018a5281548082529282015498810189905260028201549981018a905260038201546060820181905260048301546080830181905260058401546001600160a01b031660a08401819052600685015460c08501819052600786015460ff16151560e08601819052600890960154610100909501859052959d9b9c9b929a50909850965092945090925090565b6003602052816000526040600020818154811061140d57fe5b90600052602060002001600091509150505481565b60005461010090046001600160a01b0316331461143e57600080fd5b6114466111bc565b61148e576040805162461bcd60e51b815260206004820152601460248201527314185d5cd8589b194e881b9bdd081c185d5cd95960621b604482015290519081900360640190fd5b600654604080516370a0823160e01b815230600482015290516001600160a01b039092169163a9059cbb91849184916370a08231916024808301926020929190829003018186803b1580156114e257600080fd5b505afa1580156114f6573d6000803e3d6000fd5b505050506040513d602081101561150c57600080fd5b5051604080516001600160e01b031960e086901b1681526001600160a01b03909316600484015260248301919091525160448083019260209291908290030181600087803b15801561155d57600080fd5b505af1158015611571573d6000803e3d6000fd5b505050506040513d602081101561158757600080fd5b505161159257600080fd5b50565b6000806000806000806000806060806115ac611a42565b60008c8152600160208181526040928390208351610140810185528154815292810154838301526002810154838501526003810154606084015260048101546080840152600581015460a0840152600681015460c0840152600781015460ff16151560e08401526008810180548551818502810185019096528086529394919361010086019383018282801561166b57602002820191906000526020600020905b81546001600160a01b0316815260019091019060200180831161164d575b50505050508152602001600982018054806020026020016040519081016040528092919081815260200182805480156116c357602002820191906000526020600020905b8154815260200190600101908083116116af575b5050505050815250509050806000015181602001518260400151836060015184608001518560a001518660c001518760e001518861010001518961012001518191508090509a509a509a509a509a509a509a509a509a509a50509193959799509193959799565b60005461010090046001600160a01b0316331461174657600080fd5b61174e6111bc565b611796576040805162461bcd60e51b815260206004820152601460248201527314185d5cd8589b194e881b9bdd081c185d5cd95960621b604482015290519081900360640190fd5b600680546001600160a01b0319166001600160a01b0392909216919091179055565b600281815481106117c557fe5b600091825260209091200154905081565b60005461010090046001600160a01b031633146117f257600080fd5b6001600160a01b03811661180557600080fd5b600080546040516001600160a01b038085169361010090930416917f8be0079c531659141344cd1fd0a4f28419497f9722a3daafe3b4186f6b6457e091a3600080546001600160a01b0390921661010002610100600160a81b0319909216919091179055565b6000828201838110156118c5576040805162461bcd60e51b815260206004820152601b60248201527f536166654d6174683a206164646974696f6e206f766572666c6f770000000000604482015290519081900360640190fd5b90505b92915050565b600082821115611925576040805162461bcd60e51b815260206004820152601e60248201527f536166654d6174683a207375627472616374696f6e206f766572666c6f770000604482015290519081900360640190fd5b50900390565b60008261193a575060006118c8565b8282028284828161194757fe5b04146118c55760405162461bcd60e51b8152600401808060200182810382526021815260200180611bca6021913960400191505060405180910390fd5b60008082116119da576040805162461bcd60e51b815260206004820152601a60248201527f536166654d6174683a206469766973696f6e206279207a65726f000000000000604482015290519081900360640190fd5b8183816119e357fe5b049392505050565b604051806101200160405280600081526020016000815260200160008152602001600081526020016000815260200160006001600160a01b0316815260200160008152602001600015158152602001600081525090565b6040518061014001604052806000815260200160008152602001600081526020016000815260200160008152602001600081526020016000815260200160001515815260200160608152602001606081525090565b828054828255906000526020600020908101928215611aec579160200282015b82811115611aec57825182546001600160a01b0319166001600160a01b03909116178255602090920191600190910190611ab7565b50611af8929150611b43565b5090565b828054828255906000526020600020908101928215611b37579160200282015b82811115611b37578251825591602001919060010190611b1c565b50611af8929150611b67565b6111b991905b80821115611af85780546001600160a01b0319168155600101611b49565b6111b991905b80821115611af85760008155600101611b6d56fe50726f647563742068617320746f20636c6f736520746f2062652077697468647261776e6564537562736372697074696f6e207761732066696e616c697a656420616c7265616479536166654d6174683a206d756c7469706c69636174696f6e206f766572666c6f77546f74616c20416d6f756e742068617320746f20626520626967676572207468616e203041505220616d6f756e742068617320746f20626520626967676572207468616e2030a264697066735822122034e68f95d848a06694f4e8c0eec86ac07d12bb18ef50689b8ca7d43b2b07782664736f6c63430006020033",
  "source": "// SPDX-License-Identifier: MIT\r\n\r\npragma solidity >=0.6.0;\r\n\r\nimport \"@openzeppelin/contracts/token/ERC20/ERC20.sol\";\r\nimport \"@openzeppelin/contracts/utils/Pausable.sol\";\r\nimport \"./utils/Ownable.sol\";\r\n\r\ncontract StakingContract is Pausable, Ownable {\r\n    using SafeMath for uint256;\r\n\r\n    mapping(uint256 => ProductAPR) public products; /* Available Products */\r\n    uint256[] public productIds; /* Available Product Ids*/\r\n    mapping(address => uint256[]) public mySubscriptions; /* Address Based Subcriptions */\r\n    uint256 incrementId = 0;\r\n    uint256 lockedTokens = 0;\r\n\r\n    uint256 constant private year = 365 days;\r\n    \r\n    ERC20 public erc20;\r\n\r\n    struct SubscriptionAPR {\r\n        uint256 _id;\r\n        uint256 productId;\r\n        uint256 startDate;\r\n        uint256 endDate;\r\n        uint256 amount;\r\n        address subscriberAddress;\r\n        uint256 APR; /* APR for this product */\r\n        bool finalized;\r\n        uint256 withdrawAmount;\r\n    }\r\n\r\n    struct ProductAPR {\r\n        uint256 createdAt;\r\n        uint256 startDate;\r\n        uint256 endDate;\r\n        uint256 totalMaxAmount;\r\n        uint256 individualMinimumAmount;\r\n        uint256 APR; /* APR for this product */\r\n        uint256 currentAmount;\r\n        bool lockedUntilFinalization; /* Product can only be withdrawn when finalized */\r\n        address[] subscribers;\r\n        uint256[] subscriptionIds;\r\n        mapping(uint256 => SubscriptionAPR) subscriptions; /* Distribution object */\r\n    }\r\n    \r\n    constructor(address _tokenAddress) public {\r\n        erc20 = ERC20(_tokenAddress);\r\n    }\r\n    \r\n    /* Current Held Tokens */\r\n    function heldTokens() public view returns (uint256) {\r\n        return erc20.balanceOf(address(this));\r\n    }\r\n\r\n    /* Locked Tokens for the APR */\r\n    function futureLockedTokens() public view returns (uint256) {\r\n        return lockedTokens;\r\n    }\r\n\r\n    /* Available Tokens to he APRed by future subscribers */\r\n    function availableTokens() public view returns (uint256) {\r\n        return heldTokens().sub(futureLockedTokens());\r\n    }\r\n\r\n    function subscribeProduct(uint256 _product_id, uint256 _amount) external whenNotPaused {\r\n\r\n        uint256 time = block.timestamp;\r\n        /* Confirm Amount is positive */\r\n        require(_amount > 0);\r\n     \r\n        /* Confirm product still exists */\r\n        require(block.timestamp < products[_product_id].endDate);\r\n\r\n        /* Confirm Subscription prior to opening */\r\n        if(block.timestamp < products[_product_id].startDate){\r\n            time = products[_product_id].startDate;\r\n        }\r\n        \r\n        /* Confirm Max Amount was not hit already */\r\n        require(products[_product_id].totalMaxAmount > (products[_product_id].currentAmount + _amount));\r\n\r\n        /* Confirm Amount is bigger than minimum Amount */\r\n        require(_amount >= products[_product_id].individualMinimumAmount);\r\n        \r\n        uint256 futureAPRAmount = getAPRAmount(products[_product_id].APR, time, products[_product_id].endDate, _amount);\r\n\r\n        /* Confirm the current funds can assure the user the APR is valid */\r\n        require(availableTokens() >= futureAPRAmount);\r\n\r\n        /* Confirm the user has funds for the transfer */\r\n        require(erc20.transferFrom(msg.sender, address(this), _amount));\r\n\r\n        /* Add to LockedTokens */\r\n        lockedTokens = lockedTokens.add(_amount.add(futureAPRAmount));\r\n\r\n        uint256 subscription_id = incrementId;\r\n        incrementId = incrementId + 1;\r\n\r\n        /* Create SubscriptionAPR Object */\r\n        SubscriptionAPR memory subscriptionAPR = SubscriptionAPR(subscription_id, _product_id, time, products[_product_id].endDate, _amount, \r\n        msg.sender, products[_product_id].APR, false, 0);\r\n\r\n        /* Create new subscription */\r\n        mySubscriptions[msg.sender].push(subscription_id);\r\n        products[_product_id].subscriptionIds.push(subscription_id);\r\n        products[_product_id].subscriptions[subscription_id] = subscriptionAPR;\r\n        products[_product_id].currentAmount = products[_product_id].currentAmount + _amount;\r\n        products[_product_id].subscribers.push(msg.sender);\r\n    }\r\n\r\n    function createProduct(uint256 _startDate, uint256 _endDate, uint256 _totalMaxAmount, uint256 _individualMinimumAmount, uint256 _APR, bool _lockedUntilFinalization) external whenNotPaused onlyOwner {\r\n\r\n        /* Confirmations */\r\n        require(block.timestamp < _endDate);\r\n        require(block.timestamp <= _startDate);\r\n        require(_startDate < _endDate);\r\n        require(_totalMaxAmount > 0);\r\n        require(_individualMinimumAmount > 0);\r\n        require(_totalMaxAmount > _individualMinimumAmount);\r\n        require(_APR > 0);\r\n\r\n        address[] memory addressesI;\r\n        uint256[] memory subscriptionsI;\r\n        \r\n        /* Create ProductAPR Object */\r\n        ProductAPR memory productAPR = ProductAPR(block.timestamp, _startDate, _endDate, _totalMaxAmount, _individualMinimumAmount, _APR, 0, _lockedUntilFinalization,\r\n            addressesI, subscriptionsI);\r\n\r\n        uint256 product_id = productIds.length + 1;\r\n\r\n        /* Add Product to System */\r\n        productIds.push(product_id);\r\n        products[product_id] = productAPR;\r\n    }\r\n\r\n\r\n    function getAPRAmount(uint256 _APR, uint256 _startDate, uint256 _endDate, uint256 _amount) public pure returns(uint256) {\r\n        return ((_endDate.sub(_startDate)).mul(_APR).mul(_amount)).div(year.mul(100));\r\n    }\r\n\r\n    function getProductIds() public view returns(uint256[] memory) {\r\n        return productIds;\r\n    }\r\n\r\n    function getMySubscriptions(address _address) public view returns(uint256[] memory) {\r\n        return mySubscriptions[_address];\r\n    }\r\n\r\n    function withdrawSubscription(uint256 _product_id, uint256 _subscription_id) external whenNotPaused {\r\n\r\n        /* Confirm Product exists */\r\n        require(products[_product_id].endDate != 0, \"Product has expired\");\r\n\r\n        /* Confirm Subscription exists */\r\n        require(products[_product_id].subscriptions[_subscription_id].endDate != 0, \"Product does not exist\");\r\n\r\n        /* Confirm Subscription is not finalized */\r\n        require(products[_product_id].subscriptions[_subscription_id].finalized == false, \"Subscription was finalized already\");\r\n\r\n        /* Confirm Subscriptor is the sender */\r\n        require(products[_product_id].subscriptions[_subscription_id].subscriberAddress == msg.sender, \"Not the subscription owner\");\r\n\r\n        SubscriptionAPR memory subscription = products[_product_id].subscriptions[_subscription_id];\r\n\r\n        /* Confirm start date has already passed */\r\n        require(block.timestamp > subscription.startDate, \"Now is below the start date\");\r\n\r\n        /* Confirm end date for APR */\r\n        uint256 finishDate = block.timestamp;\r\n        /* Verify if date has passed the end date */\r\n        if(block.timestamp >= products[_product_id].endDate){\r\n            finishDate = products[_product_id].endDate;\r\n        }else{\r\n            /* Confirm the Product can be withdrawn at any time */\r\n            require(products[_product_id].lockedUntilFinalization == false, \"Product has to close to be withdrawned\");\r\n        }\r\n\r\n        uint256 APRedAmount = getAPRAmount(subscription.APR, subscription.startDate, finishDate, subscription.amount);\r\n        require(APRedAmount > 0, \"APR amount has to be bigger than 0\");\r\n        uint256 totalAmount = subscription.amount.add(APRedAmount);\r\n        uint256 totalAmountWithFullAPR = subscription.amount.add(getAPRAmount(subscription.APR, subscription.startDate, products[_product_id].endDate, subscription.amount));\r\n        require(totalAmount > 0, \"Total Amount has to be bigger than 0\");\r\n\r\n        /* Update Subscription */\r\n        products[_product_id].subscriptions[_subscription_id].finalized = true;\r\n        products[_product_id].subscriptions[_subscription_id].endDate = finishDate;\r\n        products[_product_id].subscriptions[_subscription_id].withdrawAmount = totalAmount;\r\n\r\n        /* Transfer funds to the subscriber address */\r\n        require(erc20.transfer(subscription.subscriberAddress, totalAmount), \"Transfer has failed\");\r\n\r\n        /* Sub to LockedTokens */\r\n        lockedTokens = lockedTokens.sub(totalAmountWithFullAPR);\r\n    }   \r\n\r\n    function getSubscription(uint256 _subscription_id, uint256 _product_id) external view returns (uint256, uint256, uint256, uint256, uint256, address, uint256, bool, uint256){\r\n\r\n        SubscriptionAPR memory subscription = products[_product_id].subscriptions[_subscription_id];\r\n\r\n        return (subscription._id, subscription.productId, subscription.startDate, subscription.endDate, \r\n            subscription.amount, subscription.subscriberAddress, subscription.APR, subscription.finalized, subscription.withdrawAmount);\r\n    }\r\n    \r\n    function getProduct(uint256 _product_id) external view returns (uint256, uint256, uint256, uint256, uint256, uint256, uint256, bool, address[] memory, uint256[] memory){\r\n\r\n        ProductAPR memory product = products[_product_id];\r\n\r\n        return (product.createdAt, product.startDate, product.endDate, product.totalMaxAmount, \r\n            product.individualMinimumAmount, product.APR, product.currentAmount, product.lockedUntilFinalization,\r\n            product.subscribers, product.subscriptionIds\r\n        );\r\n    }\r\n    \r\n    function safeGuardAllTokens(address _address) external onlyOwner whenPaused  { /* In case of needed urgency for the sake of contract bug */\r\n        require(erc20.transfer(_address, erc20.balanceOf(address(this))));\r\n    }\r\n\r\n    function changeTokenAddress(address _tokenAddress) external onlyOwner whenPaused  {\r\n        /* If Needed to Update the Token Address (ex : token swap) */\r\n        erc20 = ERC20(_tokenAddress);\r\n    }\r\n}",
  "sourcePath": "C:/Users/user/Desktop/sgoia.bepronetwork.bepro-js/contracts/StakingContract.sol",
  "compiler": {
    "name": "solc",
    "version": "0.6.2+commit.bacdbe57.Emscripten.clang"
  },
  "schemaVersion": "3.0.20",
  "updatedAt": "2021-05-25T23:28:00.934Z",
  "devdoc": {
    "methods": {
      "paused()": {
        "details": "Returns true if the contract is paused, and false otherwise."
      },
      "transferOwnership(address)": {
        "details": "Allows the current owner to transfer control of the contract to a newOwner.",
        "params": {
          "newOwner": "The address to transfer ownership to."
        }
      }
    }
  },
  "userdoc": {
    "methods": {}
  }
}