{
  "contractName": "StakingContract",
  "abi": [
    {
      "inputs": [
        {
          "internalType": "address",
          "name": "_tokenAddress",
          "type": "address"
        }
      ],
      "stateMutability": "nonpayable",
      "type": "constructor"
    },
    {
      "anonymous": false,
      "inputs": [
        {
          "indexed": true,
          "internalType": "address",
          "name": "previousOwner",
          "type": "address"
        },
        {
          "indexed": true,
          "internalType": "address",
          "name": "newOwner",
          "type": "address"
        }
      ],
      "name": "OwnershipTransferred",
      "type": "event"
    },
    {
      "anonymous": false,
      "inputs": [
        {
          "indexed": false,
          "internalType": "address",
          "name": "account",
          "type": "address"
        }
      ],
      "name": "Paused",
      "type": "event"
    },
    {
      "anonymous": false,
      "inputs": [
        {
          "indexed": false,
          "internalType": "address",
          "name": "account",
          "type": "address"
        }
      ],
      "name": "Unpaused",
      "type": "event"
    },
    {
      "inputs": [],
      "name": "erc20",
      "outputs": [
        {
          "internalType": "contract ERC20",
          "name": "",
          "type": "address"
        }
      ],
      "stateMutability": "view",
      "type": "function"
    },
    {
      "inputs": [
        {
          "internalType": "address",
          "name": "",
          "type": "address"
        },
        {
          "internalType": "uint256",
          "name": "",
          "type": "uint256"
        }
      ],
      "name": "mySubscriptions",
      "outputs": [
        {
          "internalType": "uint256",
          "name": "",
          "type": "uint256"
        }
      ],
      "stateMutability": "view",
      "type": "function"
    },
    {
      "inputs": [],
      "name": "owner",
      "outputs": [
        {
          "internalType": "address",
          "name": "",
          "type": "address"
        }
      ],
      "stateMutability": "view",
      "type": "function"
    },
    {
      "inputs": [],
      "name": "paused",
      "outputs": [
        {
          "internalType": "bool",
          "name": "",
          "type": "bool"
        }
      ],
      "stateMutability": "view",
      "type": "function"
    },
    {
      "inputs": [
        {
          "internalType": "uint256",
          "name": "",
          "type": "uint256"
        }
      ],
      "name": "productIds",
      "outputs": [
        {
          "internalType": "uint256",
          "name": "",
          "type": "uint256"
        }
      ],
      "stateMutability": "view",
      "type": "function"
    },
    {
      "inputs": [
        {
          "internalType": "uint256",
          "name": "",
          "type": "uint256"
        }
      ],
      "name": "products",
      "outputs": [
        {
          "internalType": "uint256",
          "name": "createdAt",
          "type": "uint256"
        },
        {
          "internalType": "uint256",
          "name": "startDate",
          "type": "uint256"
        },
        {
          "internalType": "uint256",
          "name": "endDate",
          "type": "uint256"
        },
        {
          "internalType": "uint256",
          "name": "totalMaxAmount",
          "type": "uint256"
        },
        {
          "internalType": "uint256",
          "name": "individualMinimumAmount",
          "type": "uint256"
        },
        {
          "internalType": "uint256",
          "name": "APR",
          "type": "uint256"
        },
        {
          "internalType": "uint256",
          "name": "currentAmount",
          "type": "uint256"
        },
        {
          "internalType": "bool",
          "name": "lockedUntilFinalization",
          "type": "bool"
        }
      ],
      "stateMutability": "view",
      "type": "function"
    },
    {
      "inputs": [
        {
          "internalType": "address",
          "name": "newOwner",
          "type": "address"
        }
      ],
      "name": "transferOwnership",
      "outputs": [],
      "stateMutability": "nonpayable",
      "type": "function"
    },
    {
      "inputs": [],
      "name": "heldTokens",
      "outputs": [
        {
          "internalType": "uint256",
          "name": "",
          "type": "uint256"
        }
      ],
      "stateMutability": "view",
      "type": "function"
    },
    {
      "inputs": [],
      "name": "futureLockedTokens",
      "outputs": [
        {
          "internalType": "uint256",
          "name": "",
          "type": "uint256"
        }
      ],
      "stateMutability": "view",
      "type": "function"
    },
    {
      "inputs": [],
      "name": "availableTokens",
      "outputs": [
        {
          "internalType": "uint256",
          "name": "",
          "type": "uint256"
        }
      ],
      "stateMutability": "view",
      "type": "function"
    },
    {
      "inputs": [
        {
          "internalType": "uint256",
          "name": "_product_id",
          "type": "uint256"
        },
        {
          "internalType": "uint256",
          "name": "_amount",
          "type": "uint256"
        }
      ],
      "name": "subscribeProduct",
      "outputs": [],
      "stateMutability": "nonpayable",
      "type": "function"
    },
    {
      "inputs": [
        {
          "internalType": "uint256",
          "name": "_startDate",
          "type": "uint256"
        },
        {
          "internalType": "uint256",
          "name": "_endDate",
          "type": "uint256"
        },
        {
          "internalType": "uint256",
          "name": "_totalMaxAmount",
          "type": "uint256"
        },
        {
          "internalType": "uint256",
          "name": "_individualMinimumAmount",
          "type": "uint256"
        },
        {
          "internalType": "uint256",
          "name": "_APR",
          "type": "uint256"
        },
        {
          "internalType": "bool",
          "name": "_lockedUntilFinalization",
          "type": "bool"
        }
      ],
      "name": "createProduct",
      "outputs": [],
      "stateMutability": "nonpayable",
      "type": "function"
    },
    {
      "inputs": [
        {
          "internalType": "uint256",
          "name": "_APR",
          "type": "uint256"
        },
        {
          "internalType": "uint256",
          "name": "_startDate",
          "type": "uint256"
        },
        {
          "internalType": "uint256",
          "name": "_endDate",
          "type": "uint256"
        },
        {
          "internalType": "uint256",
          "name": "_amount",
          "type": "uint256"
        }
      ],
      "name": "getAPRAmount",
      "outputs": [
        {
          "internalType": "uint256",
          "name": "",
          "type": "uint256"
        }
      ],
      "stateMutability": "pure",
      "type": "function"
    },
    {
      "inputs": [],
      "name": "getProductIds",
      "outputs": [
        {
          "internalType": "uint256[]",
          "name": "",
          "type": "uint256[]"
        }
      ],
      "stateMutability": "view",
      "type": "function"
    },
    {
      "inputs": [
        {
          "internalType": "address",
          "name": "_address",
          "type": "address"
        }
      ],
      "name": "getMySubscriptions",
      "outputs": [
        {
          "internalType": "uint256[]",
          "name": "",
          "type": "uint256[]"
        }
      ],
      "stateMutability": "view",
      "type": "function"
    },
    {
      "inputs": [
        {
          "internalType": "uint256",
          "name": "_product_id",
          "type": "uint256"
        },
        {
          "internalType": "uint256",
          "name": "_subscription_id",
          "type": "uint256"
        }
      ],
      "name": "withdrawSubscription",
      "outputs": [],
      "stateMutability": "nonpayable",
      "type": "function"
    },
    {
      "inputs": [
        {
          "internalType": "uint256",
          "name": "_subscription_id",
          "type": "uint256"
        },
        {
          "internalType": "uint256",
          "name": "_product_id",
          "type": "uint256"
        }
      ],
      "name": "getSubscription",
      "outputs": [
        {
          "internalType": "uint256",
          "name": "",
          "type": "uint256"
        },
        {
          "internalType": "uint256",
          "name": "",
          "type": "uint256"
        },
        {
          "internalType": "uint256",
          "name": "",
          "type": "uint256"
        },
        {
          "internalType": "uint256",
          "name": "",
          "type": "uint256"
        },
        {
          "internalType": "uint256",
          "name": "",
          "type": "uint256"
        },
        {
          "internalType": "address",
          "name": "",
          "type": "address"
        },
        {
          "internalType": "uint256",
          "name": "",
          "type": "uint256"
        },
        {
          "internalType": "bool",
          "name": "",
          "type": "bool"
        },
        {
          "internalType": "uint256",
          "name": "",
          "type": "uint256"
        }
      ],
      "stateMutability": "view",
      "type": "function"
    },
    {
      "inputs": [
        {
          "internalType": "uint256",
          "name": "_product_id",
          "type": "uint256"
        }
      ],
      "name": "getProduct",
      "outputs": [
        {
          "internalType": "uint256",
          "name": "",
          "type": "uint256"
        },
        {
          "internalType": "uint256",
          "name": "",
          "type": "uint256"
        },
        {
          "internalType": "uint256",
          "name": "",
          "type": "uint256"
        },
        {
          "internalType": "uint256",
          "name": "",
          "type": "uint256"
        },
        {
          "internalType": "uint256",
          "name": "",
          "type": "uint256"
        },
        {
          "internalType": "uint256",
          "name": "",
          "type": "uint256"
        },
        {
          "internalType": "uint256",
          "name": "",
          "type": "uint256"
        },
        {
          "internalType": "bool",
          "name": "",
          "type": "bool"
        },
        {
          "internalType": "address[]",
          "name": "",
          "type": "address[]"
        },
        {
          "internalType": "uint256[]",
          "name": "",
          "type": "uint256[]"
        }
      ],
      "stateMutability": "view",
      "type": "function"
    },
    {
      "inputs": [
        {
          "internalType": "address",
          "name": "_address",
          "type": "address"
        }
      ],
      "name": "safeGuardAllTokens",
      "outputs": [],
      "stateMutability": "nonpayable",
      "type": "function"
    },
    {
      "inputs": [
        {
          "internalType": "address",
          "name": "_tokenAddress",
          "type": "address"
        }
      ],
      "name": "changeTokenAddress",
      "outputs": [],
      "stateMutability": "nonpayable",
      "type": "function"
    }
  ],
  "bytecode": "0x60806040526000600455600060055534801561001a57600080fd5b50604051612b78380380612b788339818101604052602081101561003d57600080fd5b810190808051906020019092919050505060008060006101000a81548160ff02191690831515021790555033600060016101000a81548173ffffffffffffffffffffffffffffffffffffffff021916908373ffffffffffffffffffffffffffffffffffffffff16021790555080600660006101000a81548173ffffffffffffffffffffffffffffffffffffffff021916908373ffffffffffffffffffffffffffffffffffffffff16021790555050612a7e806100fa6000396000f3fe608060405234801561001057600080fd5b5060043610610149576000357c0100000000000000000000000000000000000000000000000000000000900480637acc0b20116100ca578063b90c72ae1161008e578063b90c72ae14610615578063b9db15b414610659578063c9cda91f14610760578063cb51bba9146107a4578063f2fde38b146107e657610149565b80637acc0b20146103de5780637e6288f1146104555780638da5cb5b146104b5578063a461efb9146104ff578063b6ee04fa146105b357610149565b80635c975abb116101115780635c975abb1461031857806369bb4dc21461033a5780636ede83321461035857806376f7ca6e14610376578063785e9e861461039457610149565b80630ea52b6c1461014e578063130d894514610186578063210903801461021f5780632c6131cb1461025757806347428e7b146102b9575b600080fd5b6101846004803603604081101561016457600080fd5b81019080803590602001909291908035906020019092919050505061082a565b005b6101c86004803603602081101561019c57600080fd5b81019080803573ffffffffffffffffffffffffffffffffffffffff1690602001909291905050506110eb565b6040518080602001828103825283818151815260200191508051906020019060200280838360005b8381101561020b5780820151818401526020810190506101f0565b505050509050019250505060405180910390f35b6102556004803603604081101561023557600080fd5b810190808035906020019092919080359060200190929190505050611182565b005b6102b7600480360360c081101561026d57600080fd5b81019080803590602001909291908035906020019092919080359060200190929190803590602001909291908035906020019092919080351515906020019092919050505061176a565b005b6102c16119e8565b6040518080602001828103825283818151815260200191508051906020019060200280838360005b838110156103045780820151818401526020810190506102e9565b505050509050019250505060405180910390f35b610320611a40565b604051808215151515815260200191505060405180910390f35b610342611a56565b6040518082815260200191505060405180910390f35b610360611a7e565b6040518082815260200191505060405180910390f35b61037e611b7b565b6040518082815260200191505060405180910390f35b61039c611b85565b604051808273ffffffffffffffffffffffffffffffffffffffff1673ffffffffffffffffffffffffffffffffffffffff16815260200191505060405180910390f35b61040a600480360360208110156103f457600080fd5b8101908080359060200190929190505050611bab565b60405180898152602001888152602001878152602001868152602001858152602001848152602001838152602001821515151581526020019850505050505050505060405180910390f35b61049f6004803603608081101561046b57600080fd5b8101908080359060200190929190803590602001909291908035906020019092919080359060200190929190505050611c00565b6040518082815260200191505060405180910390f35b6104bd611c6c565b604051808273ffffffffffffffffffffffffffffffffffffffff1673ffffffffffffffffffffffffffffffffffffffff16815260200191505060405180910390f35b6105356004803603604081101561051557600080fd5b810190808035906020019092919080359060200190929190505050611c92565b604051808a81526020018981526020018881526020018781526020018681526020018573ffffffffffffffffffffffffffffffffffffffff1673ffffffffffffffffffffffffffffffffffffffff16815260200184815260200183151515158152602001828152602001995050505050505050505060405180910390f35b6105ff600480360360408110156105c957600080fd5b81019080803573ffffffffffffffffffffffffffffffffffffffff16906020019092919080359060200190929190505050611de2565b6040518082815260200191505060405180910390f35b6106576004803603602081101561062b57600080fd5b81019080803573ffffffffffffffffffffffffffffffffffffffff169060200190929190505050611e10565b005b6106856004803603602081101561066f57600080fd5b81019080803590602001909291905050506120e5565b604051808b81526020018a8152602001898152602001888152602001878152602001868152602001858152602001841515151581526020018060200180602001838103835285818151815260200191508051906020019060200280838360005b838110156107005780820151818401526020810190506106e5565b50505050905001838103825284818151815260200191508051906020019060200280838360005b83811015610742578082015181840152602081019050610727565b505050509050019c5050505050505050505050505060405180910390f35b6107a26004803603602081101561077657600080fd5b81019080803573ffffffffffffffffffffffffffffffffffffffff1690602001909291905050506122c0565b005b6107d0600480360360208110156107ba57600080fd5b81019080803590602001909291905050506123d8565b6040518082815260200191505060405180910390f35b610828600480360360208110156107fc57600080fd5b81019080803573ffffffffffffffffffffffffffffffffffffffff1690602001909291905050506123f9565b005b610832611a40565b156108a5576040517f08c379a00000000000000000000000000000000000000000000000000000000081526004018080602001828103825260108152602001807f5061757361626c653a207061757365640000000000000000000000000000000081525060200191505060405180910390fd5b600060016000848152602001908152602001600020600201541415610932576040517f08c379a00000000000000000000000000000000000000000000000000000000081526004018080602001828103825260138152602001807f50726f647563742068617320657870697265640000000000000000000000000081525060200191505060405180910390fd5b600060016000848152602001908152602001600020600a0160008381526020019081526020016000206003015414156109d3576040517f08c379a00000000000000000000000000000000000000000000000000000000081526004018080602001828103825260168152602001807f50726f6475637420646f6573206e6f742065786973740000000000000000000081525060200191505060405180910390fd5b6000151560016000848152602001908152602001600020600a01600083815260200190815260200160002060070160009054906101000a900460ff16151514610a67576040517f08c379a00000000000000000000000000000000000000000000000000000000081526004018080602001828103825260228152602001806129c06022913960400191505060405180910390fd5b3373ffffffffffffffffffffffffffffffffffffffff1660016000848152602001908152602001600020600a01600083815260200190815260200160002060050160009054906101000a900473ffffffffffffffffffffffffffffffffffffffff1673ffffffffffffffffffffffffffffffffffffffff1614610b52576040517f08c379a000000000000000000000000000000000000000000000000000000000815260040180806020018281038252601a8152602001807f4e6f742074686520737562736372697074696f6e206f776e657200000000000081525060200191505060405180910390fd5b610b5a6127a1565b60016000848152602001908152602001600020600a0160008381526020019081526020016000206040518061012001604052908160008201548152602001600182015481526020016002820154815260200160038201548152602001600482015481526020016005820160009054906101000a900473ffffffffffffffffffffffffffffffffffffffff1673ffffffffffffffffffffffffffffffffffffffff1673ffffffffffffffffffffffffffffffffffffffff168152602001600682015481526020016007820160009054906101000a900460ff16151515158152602001600882015481525050905080604001514211610cbf576040517f08c379a000000000000000000000000000000000000000000000000000000000815260040180806020018281038252601b8152602001807f4e6f772069732062656c6f77207468652073746172742064617465000000000081525060200191505060405180910390fd5b600042905060016000858152602001908152602001600020600201544210610cff5760016000858152602001908152602001600020600201549050610d80565b600015156001600086815260200190815260200160002060070160009054906101000a900460ff16151514610d7f576040517f08c379a000000000000000000000000000000000000000000000000000000000815260040180806020018281038252602681526020018061299a6026913960400191505060405180910390fd5b5b6000610d9a8360c001518460400151848660800151611c00565b905060008111610df5576040517f08c379a0000000000000000000000000000000000000000000000000000000008152600401808060200182810382526022815260200180612a276022913960400191505060405180910390fd5b6000610e0e82856080015161254d90919063ffffffff16565b90506000610e56610e438660c001518760400151600160008c8152602001908152602001600020600201548960800151611c00565b866080015161254d90919063ffffffff16565b905060008211610eb1576040517f08c379a0000000000000000000000000000000000000000000000000000000008152600401808060200182810382526024815260200180612a036024913960400191505060405180910390fd5b6001806000898152602001908152602001600020600a01600088815260200190815260200160002060070160006101000a81548160ff0219169083151502179055508360016000898152602001908152602001600020600a016000888152602001908152602001600020600301819055508160016000898152602001908152602001600020600a01600088815260200190815260200160002060080181905550600660009054906101000a900473ffffffffffffffffffffffffffffffffffffffff1673ffffffffffffffffffffffffffffffffffffffff1663a9059cbb8660a00151846040518363ffffffff167c0100000000000000000000000000000000000000000000000000000000028152600401808373ffffffffffffffffffffffffffffffffffffffff1673ffffffffffffffffffffffffffffffffffffffff16815260200182815260200192505050602060405180830381600087803b15801561101a57600080fd5b505af115801561102e573d6000803e3d6000fd5b505050506040513d602081101561104457600080fd5b81019080805190602001909291905050506110c7576040517f08c379a00000000000000000000000000000000000000000000000000000000081526004018080602001828103825260138152602001807f5472616e7366657220686173206661696c65640000000000000000000000000081525060200191505060405180910390fd5b6110dc816005546125d590919063ffffffff16565b60058190555050505050505050565b6060600360008373ffffffffffffffffffffffffffffffffffffffff1673ffffffffffffffffffffffffffffffffffffffff16815260200190815260200160002080548060200260200160405190810160405280929190818152602001828054801561117657602002820191906000526020600020905b815481526020019060010190808311611162575b50505050509050919050565b61118a611a40565b156111fd576040517f08c379a00000000000000000000000000000000000000000000000000000000081526004018080602001828103825260108152602001807f5061757361626c653a207061757365640000000000000000000000000000000081525060200191505060405180910390fd5b60004290506000821161120f57600080fd5b6001600084815260200190815260200160002060020154421061123157600080fd5b600160008481526020019081526020016000206001015442101561126957600160008481526020019081526020016000206001015490505b816001600085815260200190815260200160002060060154016001600085815260200190815260200160002060030154116112a357600080fd5b60016000848152602001908152602001600020600401548210156112c657600080fd5b6000611300600160008681526020019081526020016000206005015483600160008881526020019081526020016000206002015486611c00565b90508061130b611a56565b101561131657600080fd5b600660009054906101000a900473ffffffffffffffffffffffffffffffffffffffff1673ffffffffffffffffffffffffffffffffffffffff166323b872dd3330866040518463ffffffff167c0100000000000000000000000000000000000000000000000000000000028152600401808473ffffffffffffffffffffffffffffffffffffffff1673ffffffffffffffffffffffffffffffffffffffff1681526020018373ffffffffffffffffffffffffffffffffffffffff1673ffffffffffffffffffffffffffffffffffffffff1681526020018281526020019350505050602060405180830381600087803b15801561140f57600080fd5b505af1158015611423573d6000803e3d6000fd5b505050506040513d602081101561143957600080fd5b810190808051906020019092919050505061145357600080fd5b61147a611469828561254d90919063ffffffff16565b60055461254d90919063ffffffff16565b600581905550600061149e600454611490612658565b61254d90919063ffffffff16565b90506001600454016004819055506114b46127a1565b604051806101200160405280838152602001878152602001858152602001600160008981526020019081526020016000206002015481526020018681526020013373ffffffffffffffffffffffffffffffffffffffff1681526020016001600089815260200190815260200160002060050154815260200160001515815260200160008152509050600360003373ffffffffffffffffffffffffffffffffffffffff1673ffffffffffffffffffffffffffffffffffffffff168152602001908152602001600020829080600181540180825580915050600190039060005260206000200160009091909190915055600160008781526020019081526020016000206009018290806001815401808255809150506001900390600052602060002001600090919091909150558060016000888152602001908152602001600020600a016000848152602001908152602001600020600082015181600001556020820151816001015560408201518160020155606082015181600301556080820151816004015560a08201518160050160006101000a81548173ffffffffffffffffffffffffffffffffffffffff021916908373ffffffffffffffffffffffffffffffffffffffff16021790555060c0820151816006015560e08201518160070160006101000a81548160ff021916908315150217905550610100820151816008015590505084600160008881526020019081526020016000206006015401600160008881526020019081526020016000206006018190555060016000878152602001908152602001600020600801339080600181540180825580915050600190039060005260206000200160009091909190916101000a81548173ffffffffffffffffffffffffffffffffffffffff021916908373ffffffffffffffffffffffffffffffffffffffff160217905550505050505050565b611772611a40565b156117e5576040517f08c379a00000000000000000000000000000000000000000000000000000000081526004018080602001828103825260108152602001807f5061757361626c653a207061757365640000000000000000000000000000000081525060200191505060405180910390fd5b600060019054906101000a900473ffffffffffffffffffffffffffffffffffffffff1673ffffffffffffffffffffffffffffffffffffffff163373ffffffffffffffffffffffffffffffffffffffff161461183f57600080fd5b84421061184b57600080fd5b8542111561185857600080fd5b84861061186457600080fd5b6000841161187157600080fd5b6000831161187e57600080fd5b82841161188a57600080fd5b6000821161189757600080fd5b6060806118a2612805565b6040518061014001604052804281526020018a81526020018981526020018881526020018781526020018681526020016000815260200185151581526020018481526020018381525090506000600160028054905001905060028190806001815401808255809150506001900390600052602060002001600090919091909150558160016000838152602001908152602001600020600082015181600001556020820151816001015560408201518160020155606082015181600301556080820151816004015560a0820151816005015560c0820151816006015560e08201518160070160006101000a81548160ff0219169083151502179055506101008201518160080190805190602001906119ba92919061285a565b506101208201518160090190805190602001906119d89291906128e4565b5090505050505050505050505050565b60606002805480602002602001604051908101604052809291908181526020018280548015611a3657602002820191906000526020600020905b815481526020019060010190808311611a22575b5050505050905090565b60008060009054906101000a900460ff16905090565b6000611a79611a63611b7b565b611a6b611a7e565b6125d590919063ffffffff16565b905090565b6000600660009054906101000a900473ffffffffffffffffffffffffffffffffffffffff1673ffffffffffffffffffffffffffffffffffffffff166370a08231306040518263ffffffff167c0100000000000000000000000000000000000000000000000000000000028152600401808273ffffffffffffffffffffffffffffffffffffffff1673ffffffffffffffffffffffffffffffffffffffff16815260200191505060206040518083038186803b158015611b3b57600080fd5b505afa158015611b4f573d6000803e3d6000fd5b505050506040513d6020811015611b6557600080fd5b8101908080519060200190929190505050905090565b6000600554905090565b600660009054906101000a900473ffffffffffffffffffffffffffffffffffffffff1681565b60016020528060005260406000206000915090508060000154908060010154908060020154908060030154908060040154908060050154908060060154908060070160009054906101000a900460ff16905088565b6000611c62611c1d60646301e1338061269290919063ffffffff16565b611c5484611c4689611c388a8a6125d590919063ffffffff16565b61269290919063ffffffff16565b61269290919063ffffffff16565b61271890919063ffffffff16565b9050949350505050565b600060019054906101000a900473ffffffffffffffffffffffffffffffffffffffff1681565b6000806000806000806000806000611ca86127a1565b600160008c8152602001908152602001600020600a0160008d81526020019081526020016000206040518061012001604052908160008201548152602001600182015481526020016002820154815260200160038201548152602001600482015481526020016005820160009054906101000a900473ffffffffffffffffffffffffffffffffffffffff1673ffffffffffffffffffffffffffffffffffffffff1673ffffffffffffffffffffffffffffffffffffffff168152602001600682015481526020016007820160009054906101000a900460ff161515151581526020016008820154815250509050806000015181602001518260400151836060015184608001518560a001518660c001518760e00151886101000151995099509950995099509950995099509950509295985092959850929598565b60036020528160005260406000208181548110611dfb57fe5b90600052602060002001600091509150505481565b600060019054906101000a900473ffffffffffffffffffffffffffffffffffffffff1673ffffffffffffffffffffffffffffffffffffffff163373ffffffffffffffffffffffffffffffffffffffff1614611e6a57600080fd5b611e72611a40565b611ee4576040517f08c379a00000000000000000000000000000000000000000000000000000000081526004018080602001828103825260148152602001807f5061757361626c653a206e6f742070617573656400000000000000000000000081525060200191505060405180910390fd5b600660009054906101000a900473ffffffffffffffffffffffffffffffffffffffff1673ffffffffffffffffffffffffffffffffffffffff1663a9059cbb82600660009054906101000a900473ffffffffffffffffffffffffffffffffffffffff1673ffffffffffffffffffffffffffffffffffffffff166370a08231306040518263ffffffff167c0100000000000000000000000000000000000000000000000000000000028152600401808273ffffffffffffffffffffffffffffffffffffffff1673ffffffffffffffffffffffffffffffffffffffff16815260200191505060206040518083038186803b158015611fde57600080fd5b505afa158015611ff2573d6000803e3d6000fd5b505050506040513d602081101561200857600080fd5b81019080805190602001909291905050506040518363ffffffff167c0100000000000000000000000000000000000000000000000000000000028152600401808373ffffffffffffffffffffffffffffffffffffffff1673ffffffffffffffffffffffffffffffffffffffff16815260200182815260200192505050602060405180830381600087803b15801561209e57600080fd5b505af11580156120b2573d6000803e3d6000fd5b505050506040513d60208110156120c857600080fd5b81019080805190602001909291905050506120e257600080fd5b50565b6000806000806000806000806060806120fc612805565b600160008d815260200190815260200160002060405180610140016040529081600082015481526020016001820154815260200160028201548152602001600382015481526020016004820154815260200160058201548152602001600682015481526020016007820160009054906101000a900460ff161515151581526020016008820180548060200260200160405190810160405280929190818152602001828054801561220157602002820191906000526020600020905b8160009054906101000a900473ffffffffffffffffffffffffffffffffffffffff1673ffffffffffffffffffffffffffffffffffffffff16815260200190600101908083116121b7575b505050505081526020016009820180548060200260200160405190810160405280929190818152602001828054801561225957602002820191906000526020600020905b815481526020019060010190808311612245575b5050505050815250509050806000015181602001518260400151836060015184608001518560a001518660c001518760e001518861010001518961012001518191508090509a509a509a509a509a509a509a509a509a509a50509193959799509193959799565b600060019054906101000a900473ffffffffffffffffffffffffffffffffffffffff1673ffffffffffffffffffffffffffffffffffffffff163373ffffffffffffffffffffffffffffffffffffffff161461231a57600080fd5b612322611a40565b612394576040517f08c379a00000000000000000000000000000000000000000000000000000000081526004018080602001828103825260148152602001807f5061757361626c653a206e6f742070617573656400000000000000000000000081525060200191505060405180910390fd5b80600660006101000a81548173ffffffffffffffffffffffffffffffffffffffff021916908373ffffffffffffffffffffffffffffffffffffffff16021790555050565b600281815481106123e557fe5b906000526020600020016000915090505481565b600060019054906101000a900473ffffffffffffffffffffffffffffffffffffffff1673ffffffffffffffffffffffffffffffffffffffff163373ffffffffffffffffffffffffffffffffffffffff161461245357600080fd5b600073ffffffffffffffffffffffffffffffffffffffff168173ffffffffffffffffffffffffffffffffffffffff16141561248d57600080fd5b8073ffffffffffffffffffffffffffffffffffffffff16600060019054906101000a900473ffffffffffffffffffffffffffffffffffffffff1673ffffffffffffffffffffffffffffffffffffffff167f8be0079c531659141344cd1fd0a4f28419497f9722a3daafe3b4186f6b6457e060405160405180910390a380600060016101000a81548173ffffffffffffffffffffffffffffffffffffffff021916908373ffffffffffffffffffffffffffffffffffffffff16021790555050565b6000808284019050838110156125cb576040517f08c379a000000000000000000000000000000000000000000000000000000000815260040180806020018281038252601b8152602001807f536166654d6174683a206164646974696f6e206f766572666c6f77000000000081525060200191505060405180910390fd5b8091505092915050565b60008282111561264d576040517f08c379a000000000000000000000000000000000000000000000000000000000815260040180806020018281038252601e8152602001807f536166654d6174683a207375627472616374696f6e206f766572666c6f77000081525060200191505060405180910390fd5b818303905092915050565b6000444260405160200180838152602001828152602001925050506040516020818303038152906040528051906020012060019004905090565b6000808314156126a55760009050612712565b60008284029050828482816126b657fe5b041461270d576040517f08c379a00000000000000000000000000000000000000000000000000000000081526004018080602001828103825260218152602001806129e26021913960400191505060405180910390fd5b809150505b92915050565b600080821161278f576040517f08c379a000000000000000000000000000000000000000000000000000000000815260040180806020018281038252601a8152602001807f536166654d6174683a206469766973696f6e206279207a65726f00000000000081525060200191505060405180910390fd5b81838161279857fe5b04905092915050565b6040518061012001604052806000815260200160008152602001600081526020016000815260200160008152602001600073ffffffffffffffffffffffffffffffffffffffff16815260200160008152602001600015158152602001600081525090565b6040518061014001604052806000815260200160008152602001600081526020016000815260200160008152602001600081526020016000815260200160001515815260200160608152602001606081525090565b8280548282559060005260206000209081019282156128d3579160200282015b828111156128d25782518260006101000a81548173ffffffffffffffffffffffffffffffffffffffff021916908373ffffffffffffffffffffffffffffffffffffffff1602179055509160200191906001019061287a565b5b5090506128e09190612931565b5090565b828054828255906000526020600020908101928215612920579160200282015b8281111561291f578251825591602001919060010190612904565b5b50905061292d9190612974565b5090565b61297191905b8082111561296d57600081816101000a81549073ffffffffffffffffffffffffffffffffffffffff021916905550600101612937565b5090565b90565b61299691905b8082111561299257600081600090555060010161297a565b5090565b9056fe50726f647563742068617320746f20636c6f736520746f2062652077697468647261776e6564537562736372697074696f6e207761732066696e616c697a656420616c7265616479536166654d6174683a206d756c7469706c69636174696f6e206f766572666c6f77546f74616c20416d6f756e742068617320746f20626520626967676572207468616e203041505220616d6f756e742068617320746f20626520626967676572207468616e2030a2646970667358221220310e7d2c0d28900edfcbe5cff900520e543dced8804999aec063feb0377222bd64736f6c63430006020033",
  "source": "// SPDX-License-Identifier: MIT\n\npragma solidity >=0.6.0;\n\nimport \"@openzeppelin/contracts/token/ERC20/ERC20.sol\";\nimport \"@openzeppelin/contracts/utils/Pausable.sol\";\nimport \"./utils/Ownable.sol\";\n\ncontract StakingContract is Pausable, Ownable {\n    using SafeMath for uint256;\n\n    mapping(uint256 => ProductAPR) public products; /* Available Products */\n    uint256[] public productIds; /* Available Product Ids*/\n    mapping(address => uint256[]) public mySubscriptions; /* Address Based Subcriptions */\n    uint256 incrementId = 0;\n    uint256 lockedTokens = 0;\n\n    uint256 constant private year = 365 days;\n    \n    ERC20 public erc20;\n\n    struct SubscriptionAPR {\n        uint256 _id;\n        uint256 productId;\n        uint256 startDate;\n        uint256 endDate;\n        uint256 amount;\n        address subscriberAddress;\n        uint256 APR; /* APR for this product */\n        bool finalized;\n        uint256 withdrawAmount;\n    }\n\n    struct ProductAPR {\n        uint256 createdAt;\n        uint256 startDate;\n        uint256 endDate;\n        uint256 totalMaxAmount;\n        uint256 individualMinimumAmount;\n        uint256 APR; /* APR for this product */\n        uint256 currentAmount;\n        bool lockedUntilFinalization; /* Product can only be withdrawn when finalized */\n        address[] subscribers;\n        uint256[] subscriptionIds;\n        mapping(uint256 => SubscriptionAPR) subscriptions; /* Distribution object */\n    }\n    \n    constructor(address _tokenAddress) public {\n        erc20 = ERC20(_tokenAddress);\n    }\n\n    function random() private view returns (uint) {\n        return uint(keccak256(abi.encode(block.difficulty, now)));\n    } \n    \n    /* Current Held Tokens */\n    function heldTokens() public view returns (uint256) {\n        return erc20.balanceOf(address(this));\n    }\n\n    /* Locked Tokens for the APR */\n    function futureLockedTokens() public view returns (uint256) {\n        return lockedTokens;\n    }\n\n    /* Available Tokens to he APRed by future subscribers */\n    function availableTokens() public view returns (uint256) {\n        return heldTokens().sub(futureLockedTokens());\n    }\n\n    function subscribeProduct(uint256 _product_id, uint256 _amount) external whenNotPaused {\n\n        uint256 time = block.timestamp;\n        /* Confirm Amount is positive */\n        require(_amount > 0);\n     \n        /* Confirm product still exists */\n        require(block.timestamp < products[_product_id].endDate);\n\n        /* Confirm Subscription prior to opening */\n        if(block.timestamp < products[_product_id].startDate){\n            time = products[_product_id].startDate;\n        }\n        \n        /* Confirm Max Amount was not hit already */\n        require(products[_product_id].totalMaxAmount > (products[_product_id].currentAmount + _amount));\n\n        /* Confirm Amount is bigger than minimum Amount */\n        require(_amount >= products[_product_id].individualMinimumAmount);\n        \n        uint256 futureAPRAmount = getAPRAmount(products[_product_id].APR, time, products[_product_id].endDate, _amount);\n\n        /* Confirm the current funds can assure the user the APR is valid */\n        require(availableTokens() >= futureAPRAmount);\n\n        /* Confirm the user has funds for the transfer */\n        require(erc20.transferFrom(msg.sender, address(this), _amount));\n\n        /* Add to LockedTokens */\n        lockedTokens = lockedTokens.add(_amount.add(futureAPRAmount));\n\n        uint256 subscription_id = random().add(incrementId);\n        incrementId = incrementId + 1;\n\n        /* Create SubscriptionAPR Object */\n        SubscriptionAPR memory subscriptionAPR = SubscriptionAPR(subscription_id, _product_id, time, products[_product_id].endDate, _amount, \n        msg.sender, products[_product_id].APR, false, 0);\n\n        /* Create new subscription */\n        mySubscriptions[msg.sender].push(subscription_id);\n        products[_product_id].subscriptionIds.push(subscription_id);\n        products[_product_id].subscriptions[subscription_id] = subscriptionAPR;\n        products[_product_id].currentAmount = products[_product_id].currentAmount + _amount;\n        products[_product_id].subscribers.push(msg.sender);\n    }\n\n    function createProduct(uint256 _startDate, uint256 _endDate, uint256 _totalMaxAmount, uint256 _individualMinimumAmount, uint256 _APR, bool _lockedUntilFinalization) external whenNotPaused onlyOwner {\n\n        /* Confirmations */\n        require(block.timestamp < _endDate);\n        require(block.timestamp <= _startDate);\n        require(_startDate < _endDate);\n        require(_totalMaxAmount > 0);\n        require(_individualMinimumAmount > 0);\n        require(_totalMaxAmount > _individualMinimumAmount);\n        require(_APR > 0);\n\n        address[] memory addressesI;\n        uint256[] memory subscriptionsI;\n        \n        /* Create ProductAPR Object */\n        ProductAPR memory productAPR = ProductAPR(block.timestamp, _startDate, _endDate, _totalMaxAmount, _individualMinimumAmount, _APR, 0, _lockedUntilFinalization,\n            addressesI, subscriptionsI);\n\n        uint256 product_id = productIds.length + 1;\n\n        /* Add Product to System */\n        productIds.push(product_id);\n        products[product_id] = productAPR;\n    }\n\n\n    function getAPRAmount(uint256 _APR, uint256 _startDate, uint256 _endDate, uint256 _amount) public pure returns(uint256) {\n        return ((_endDate.sub(_startDate)).mul(_APR).mul(_amount)).div(year.mul(100));\n    }\n\n    function getProductIds() public view returns(uint256[] memory) {\n        return productIds;\n    }\n\n    function getMySubscriptions(address _address) public view returns(uint256[] memory) {\n        return mySubscriptions[_address];\n    }\n\n    function withdrawSubscription(uint256 _product_id, uint256 _subscription_id) external whenNotPaused {\n\n        /* Confirm Product exists */\n        require(products[_product_id].endDate != 0, \"Product has expired\");\n\n        /* Confirm Subscription exists */\n        require(products[_product_id].subscriptions[_subscription_id].endDate != 0, \"Product does not exist\");\n\n        /* Confirm Subscription is not finalized */\n        require(products[_product_id].subscriptions[_subscription_id].finalized == false, \"Subscription was finalized already\");\n\n        /* Confirm Subscriptor is the sender */\n        require(products[_product_id].subscriptions[_subscription_id].subscriberAddress == msg.sender, \"Not the subscription owner\");\n\n        SubscriptionAPR memory subscription = products[_product_id].subscriptions[_subscription_id];\n\n        /* Confirm start date has already passed */\n        require(block.timestamp > subscription.startDate, \"Now is below the start date\");\n\n        /* Confirm end date for APR */\n        uint256 finishDate = block.timestamp;\n        /* Verify if date has passed the end date */\n        if(block.timestamp >= products[_product_id].endDate){\n            finishDate = products[_product_id].endDate;\n        }else{\n            /* Confirm the Product can be withdrawn at any time */\n            require(products[_product_id].lockedUntilFinalization == false, \"Product has to close to be withdrawned\");\n        }\n\n        uint256 APRedAmount = getAPRAmount(subscription.APR, subscription.startDate, finishDate, subscription.amount);\n        require(APRedAmount > 0, \"APR amount has to be bigger than 0\");\n        uint256 totalAmount = subscription.amount.add(APRedAmount);\n        uint256 totalAmountWithFullAPR = subscription.amount.add(getAPRAmount(subscription.APR, subscription.startDate, products[_product_id].endDate, subscription.amount));\n        require(totalAmount > 0, \"Total Amount has to be bigger than 0\");\n\n        /* Update Subscription */\n        products[_product_id].subscriptions[_subscription_id].finalized = true;\n        products[_product_id].subscriptions[_subscription_id].endDate = finishDate;\n        products[_product_id].subscriptions[_subscription_id].withdrawAmount = totalAmount;\n\n        /* Transfer funds to the subscriber address */\n        require(erc20.transfer(subscription.subscriberAddress, totalAmount), \"Transfer has failed\");\n\n        /* Sub to LockedTokens */\n        lockedTokens = lockedTokens.sub(totalAmountWithFullAPR);\n    }   \n\n    function getSubscription(uint256 _subscription_id, uint256 _product_id) external view returns (uint256, uint256, uint256, uint256, uint256, address, uint256, bool, uint256){\n\n        SubscriptionAPR memory subscription = products[_product_id].subscriptions[_subscription_id];\n\n        return (subscription._id, subscription.productId, subscription.startDate, subscription.endDate, \n            subscription.amount, subscription.subscriberAddress, subscription.APR, subscription.finalized, subscription.withdrawAmount);\n    }\n    \n    function getProduct(uint256 _product_id) external view returns (uint256, uint256, uint256, uint256, uint256, uint256, uint256, bool, address[] memory, uint256[] memory){\n\n        ProductAPR memory product = products[_product_id];\n\n        return (product.createdAt, product.startDate, product.endDate, product.totalMaxAmount, \n            product.individualMinimumAmount, product.APR, product.currentAmount, product.lockedUntilFinalization,\n            product.subscribers, product.subscriptionIds\n        );\n    }\n    \n    function safeGuardAllTokens(address _address) external onlyOwner whenPaused  { /* In case of needed urgency for the sake of contract bug */\n        require(erc20.transfer(_address, erc20.balanceOf(address(this))));\n    }\n\n    function changeTokenAddress(address _tokenAddress) external onlyOwner whenPaused  {\n        /* If Needed to Update the Token Address (ex : token swap) */\n        erc20 = ERC20(_tokenAddress);\n    }\n}",
  "sourcePath": "/Users/ruipedro/Desktop/projects/Bepro/@bepro-js/contracts/StakingContract.sol",
  "compiler": {
    "name": "solc",
    "version": "0.6.2+commit.bacdbe57.Emscripten.clang"
  },
  "schemaVersion": "3.0.20",
  "updatedAt": "2021-04-21T19:39:24.973Z",
  "devdoc": {
    "methods": {
      "paused()": {
        "details": "Returns true if the contract is paused, and false otherwise."
      },
      "transferOwnership(address)": {
        "details": "Allows the current owner to transfer control of the contract to a newOwner.",
        "params": {
          "newOwner": "The address to transfer ownership to."
        }
      }
    }
  },
  "userdoc": {
    "methods": {}
  }
}