{
  "contractName": "Votable",
  "abi": [
    {
      "inputs": [
        {
          "internalType": "address",
          "name": "_token",
          "type": "address"
        }
      ],
      "stateMutability": "nonpayable",
      "type": "constructor"
    },
    {
      "anonymous": false,
      "inputs": [
        {
          "indexed": false,
          "internalType": "address",
          "name": "creator",
          "type": "address"
        },
        {
          "indexed": false,
          "internalType": "uint256",
          "name": "pollID",
          "type": "uint256"
        },
        {
          "indexed": false,
          "internalType": "string",
          "name": "description",
          "type": "string"
        },
        {
          "indexed": false,
          "internalType": "uint256",
          "name": "votingLength",
          "type": "uint256"
        }
      ],
      "name": "pollCreated",
      "type": "event"
    },
    {
      "anonymous": false,
      "inputs": [
        {
          "indexed": false,
          "internalType": "bool",
          "name": "status",
          "type": "bool"
        }
      ],
      "name": "pollStatusUpdate",
      "type": "event"
    },
    {
      "anonymous": false,
      "inputs": [
        {
          "indexed": false,
          "internalType": "address",
          "name": "voter",
          "type": "address"
        },
        {
          "indexed": false,
          "internalType": "uint256",
          "name": "pollID",
          "type": "uint256"
        },
        {
          "indexed": false,
          "internalType": "uint256",
          "name": "vote",
          "type": "uint256"
        },
        {
          "indexed": false,
          "internalType": "uint256",
          "name": "weight",
          "type": "uint256"
        }
      ],
      "name": "voteCasted",
      "type": "event"
    },
    {
      "inputs": [
        {
          "internalType": "address",
          "name": "",
          "type": "address"
        }
      ],
      "name": "bank",
      "outputs": [
        {
          "internalType": "uint256",
          "name": "tokenBalance",
          "type": "uint256"
        }
      ],
      "stateMutability": "view",
      "type": "function"
    },
    {
      "inputs": [],
      "name": "pollCount",
      "outputs": [
        {
          "internalType": "uint256",
          "name": "",
          "type": "uint256"
        }
      ],
      "stateMutability": "view",
      "type": "function"
    },
    {
      "inputs": [
        {
          "internalType": "uint256",
          "name": "",
          "type": "uint256"
        }
      ],
      "name": "polls",
      "outputs": [
        {
          "internalType": "address",
          "name": "creator",
          "type": "address"
        },
        {
          "internalType": "enum Votable.PollStatus",
          "name": "status",
          "type": "uint8"
        },
        {
          "internalType": "uint256",
          "name": "optionsSize",
          "type": "uint256"
        },
        {
          "internalType": "string",
          "name": "description",
          "type": "string"
        },
        {
          "internalType": "uint256",
          "name": "expirationTime",
          "type": "uint256"
        },
        {
          "internalType": "uint256",
          "name": "winnerId",
          "type": "uint256"
        }
      ],
      "stateMutability": "view",
      "type": "function"
    },
    {
      "inputs": [],
      "name": "token",
      "outputs": [
        {
          "internalType": "contract ERC20",
          "name": "",
          "type": "address"
        }
      ],
      "stateMutability": "view",
      "type": "function"
    },
    {
      "inputs": [
        {
          "internalType": "string",
          "name": "_description",
          "type": "string"
        },
        {
          "internalType": "uint256",
          "name": "_voteLength",
          "type": "uint256"
        },
        {
          "internalType": "uint256[]",
          "name": "options",
          "type": "uint256[]"
        }
      ],
      "name": "createPoll",
      "outputs": [
        {
          "internalType": "uint256",
          "name": "",
          "type": "uint256"
        }
      ],
      "stateMutability": "nonpayable",
      "type": "function"
    },
    {
      "inputs": [
        {
          "internalType": "uint256",
          "name": "_pollID",
          "type": "uint256"
        }
      ],
      "name": "endPoll",
      "outputs": [],
      "stateMutability": "nonpayable",
      "type": "function"
    },
    {
      "inputs": [
        {
          "internalType": "uint256",
          "name": "_pollID",
          "type": "uint256"
        }
      ],
      "name": "getPoolInformation",
      "outputs": [
        {
          "internalType": "address",
          "name": "",
          "type": "address"
        },
        {
          "internalType": "enum Votable.PollStatus",
          "name": "",
          "type": "uint8"
        },
        {
          "internalType": "uint256",
          "name": "",
          "type": "uint256"
        },
        {
          "internalType": "string",
          "name": "",
          "type": "string"
        },
        {
          "internalType": "address[]",
          "name": "",
          "type": "address[]"
        },
        {
          "internalType": "uint256",
          "name": "",
          "type": "uint256"
        }
      ],
      "stateMutability": "view",
      "type": "function"
    },
    {
      "inputs": [
        {
          "internalType": "uint256",
          "name": "_pollID",
          "type": "uint256"
        }
      ],
      "name": "getPoolWinner",
      "outputs": [
        {
          "internalType": "uint256",
          "name": "",
          "type": "uint256"
        },
        {
          "internalType": "uint256",
          "name": "",
          "type": "uint256"
        }
      ],
      "stateMutability": "view",
      "type": "function"
    },
    {
      "inputs": [
        {
          "internalType": "uint256",
          "name": "_pollID",
          "type": "uint256"
        },
        {
          "internalType": "uint256",
          "name": "id",
          "type": "uint256"
        }
      ],
      "name": "getPollOptionById",
      "outputs": [
        {
          "internalType": "uint256",
          "name": "",
          "type": "uint256"
        }
      ],
      "stateMutability": "view",
      "type": "function"
    },
    {
      "inputs": [
        {
          "internalType": "address",
          "name": "_voter",
          "type": "address"
        }
      ],
      "name": "getPollHistory",
      "outputs": [
        {
          "internalType": "uint256[]",
          "name": "",
          "type": "uint256[]"
        }
      ],
      "stateMutability": "view",
      "type": "function"
    },
    {
      "inputs": [
        {
          "internalType": "uint256",
          "name": "_pollID",
          "type": "uint256"
        },
        {
          "internalType": "address",
          "name": "_voter",
          "type": "address"
        }
      ],
      "name": "getPollInfoForVoter",
      "outputs": [
        {
          "internalType": "uint256",
          "name": "",
          "type": "uint256"
        },
        {
          "internalType": "uint256",
          "name": "",
          "type": "uint256"
        }
      ],
      "stateMutability": "view",
      "type": "function"
    },
    {
      "inputs": [
        {
          "internalType": "uint256",
          "name": "_pollID",
          "type": "uint256"
        },
        {
          "internalType": "address",
          "name": "_user",
          "type": "address"
        }
      ],
      "name": "userHasVoted",
      "outputs": [
        {
          "internalType": "bool",
          "name": "",
          "type": "bool"
        }
      ],
      "stateMutability": "view",
      "type": "function"
    },
    {
      "inputs": [
        {
          "internalType": "uint256",
          "name": "_pollID",
          "type": "uint256"
        },
        {
          "internalType": "uint256",
          "name": "_voteId",
          "type": "uint256"
        }
      ],
      "name": "castVote",
      "outputs": [],
      "stateMutability": "nonpayable",
      "type": "function"
    },
    {
      "inputs": [
        {
          "internalType": "uint256",
          "name": "_numTokens",
          "type": "uint256"
        }
      ],
      "name": "stakeVotingTokens",
      "outputs": [],
      "stateMutability": "nonpayable",
      "type": "function"
    },
    {
      "inputs": [
        {
          "internalType": "uint256",
          "name": "_numTokens",
          "type": "uint256"
        }
      ],
      "name": "withdrawTokens",
      "outputs": [],
      "stateMutability": "nonpayable",
      "type": "function"
    },
    {
      "inputs": [
        {
          "internalType": "address",
          "name": "_voter",
          "type": "address"
        }
      ],
      "name": "getLockedAmount",
      "outputs": [
        {
          "internalType": "uint256",
          "name": "",
          "type": "uint256"
        }
      ],
      "stateMutability": "view",
      "type": "function"
    },
    {
      "inputs": [
        {
          "internalType": "address",
          "name": "_voter",
          "type": "address"
        }
      ],
      "name": "getTokenStake",
      "outputs": [
        {
          "internalType": "uint256",
          "name": "",
          "type": "uint256"
        }
      ],
      "stateMutability": "view",
      "type": "function"
    }
  ],
  "bytecode": "0x608060405234801561001057600080fd5b506040516117663803806117668339818101604052602081101561003357600080fd5b50516001600160a01b03811661004857600080fd5b600380546001600160a01b0319166001600160a01b03929092169190911790556116ef806100776000396000f3fe608060405234801561001057600080fd5b506004361061010a5760003560e01c80635fc48d7e116100a25780639207891d116100715780639207891d146104d6578063929ec537146104de578063ac2f007414610504578063f43b8778146105d3578063fc0c546a146105f05761010a565b80635fc48d7e1461032b5780636cee7be51461036b578063896e1da9146103b05780638a0ce67d146104b95761010a565b80632c0a3f89116100de5780632c0a3f89146102a2578063315a095d146102c5578063529a1baf146102e25780635beed676146103085761010a565b80623c59fd1461010f5780630da65600146101e75780630de88fd8146102065780630ed70ed11461027c575b600080fd5b6101d56004803603606081101561012557600080fd5b81019060208101813564010000000081111561014057600080fd5b82018360208201111561015257600080fd5b8035906020019184600183028401116401000000008311171561017457600080fd5b9193909282359260408101906020013564010000000081111561019657600080fd5b8201836020820111156101a857600080fd5b803590602001918460208302840111640100000000831117156101ca57600080fd5b509092509050610614565b60408051918252519081900360200190f35b610204600480360360208110156101fd57600080fd5b50356107e4565b005b61022c6004803603602081101561021c57600080fd5b50356001600160a01b0316610986565b60408051602080825283518183015283519192839290830191858101910280838360005b83811015610268578181015183820152602001610250565b505050509050019250505060405180910390f35b6101d56004803603602081101561029257600080fd5b50356001600160a01b03166109f5565b610204600480360360408110156102b857600080fd5b5080359060200135610a10565b610204600480360360208110156102db57600080fd5b5035610d1f565b6101d5600480360360208110156102f857600080fd5b50356001600160a01b0316610e17565b6101d56004803603604081101561031e57600080fd5b5080359060200135610e29565b6103576004803603604081101561034157600080fd5b50803590602001356001600160a01b0316610ea7565b604080519115158252519081900360200190f35b6103976004803603604081101561038157600080fd5b50803590602001356001600160a01b0316610f33565b6040805192835260208301919091528051918290030190f35b6103cd600480360360208110156103c657600080fd5b503561100c565b6040516001600160a01b0387168152602081018660018111156103ec57fe5b60ff1681526020018581526020018060200180602001848152602001838103835286818151815260200191508051906020019080838360005b8381101561043d578181015183820152602001610425565b50505050905090810190601f16801561046a5780820380516001836020036101000a031916815260200191505b508381038252855181528551602091820191808801910280838360005b8381101561049f578181015183820152602001610487565b505050509050019850505050505050505060405180910390f35b610397600480360360208110156104cf57600080fd5b50356111b1565b6101d5611235565b6101d5600480360360208110156104f457600080fd5b50356001600160a01b031661123b565b6105216004803603602081101561051a57600080fd5b50356112c2565b6040516001600160a01b03871681526020810186600181111561054057fe5b60ff16815260200185815260200180602001848152602001838152602001828103825285818151815260200191508051906020019080838360005b8381101561059357818101518382015260200161057b565b50505050905090810190601f1680156105c05780820380516001836020036101000a031916815260200191505b5097505050505050505060405180910390f35b610204600480360360208110156105e957600080fd5b5035611391565b6105f86114f5565b604080516001600160a01b039092168252519081900360200190f35b600080841161066a576040805162461bcd60e51b815260206004820152601e60248201527f54686520766f74696e6720706572696f642063616e6e6f7420626520302e0000604482015290519081900360640190fd5b600182116106bf576040805162461bcd60e51b815260206004820181905260248201527f4f7074696f6e73206861766520746f20626520686967686572207468616e2031604482015290519081900360640190fd5b6002805460010190819055600090815260208190526040812080546001600160a01b031916331760ff60a01b19168155905b8381101561072b5784848281811061070557fe5b6000848152600286016020908152604090912091029290920135909155506001016106f1565b506001810183905542850160068201556107496004820188886115cf565b507f7b419a5af714030ff3c227818ce7b2a9864a0c7ed2d6315e1db36e7c70c3d2813360025489898960405180866001600160a01b03166001600160a01b03168152602001858152602001806020018381526020018281038252858582818152602001925080828437600083820152604051601f909101601f19169092018290039850909650505050505050a1505060025495945050505050565b600354604080516370a0823160e01b8152336004820152905183926001600160a01b0316916370a08231916024808301926020929190829003018186803b15801561082e57600080fd5b505afa158015610842573d6000803e3d6000fd5b505050506040513d602081101561085857600080fd5b505110156108ad576040805162461bcd60e51b815260206004820181905260248201527f5573657220646f6573206e6f74206861766520656e6f75676820746f6b656e73604482015290519081900360640190fd5b600354604080516323b872dd60e01b81523360048201523060248201526044810184905290516001600160a01b03909216916323b872dd916064808201926020929091908290030181600087803b15801561090757600080fd5b505af115801561091b573d6000803e3d6000fd5b505050506040513d602081101561093157600080fd5b505161096e5760405162461bcd60e51b81526004018080602001828103825260248152602001806116966024913960400191505060405180910390fd5b33600090815260016020526040902080549091019055565b6001600160a01b0381166000908152600160209081526040918290206002018054835181840281018401909452808452606093928301828280156109e957602002820191906000526020600020905b8154815260200190600101908083116109d5575b50505050509050919050565b6001600160a01b031660009081526001602052604090205490565b81600081118015610a2357506002548111155b610a6b576040805162461bcd60e51b81526020600482015260146024820152732737ba1030903b30b634b2103837b6361024b21760611b604482015290519081900360640190fd5b60008084815260208190526040902054600160a01b900460ff166001811115610a9057fe5b14610ad6576040805162461bcd60e51b81526020600482015260116024820152702837b636103430b99032bc3834b932b21760791b604482015290519081900360640190fd5b610ae08333610ea7565b15610b32576040805162461bcd60e51b815260206004820152601760248201527f557365722068617320616c726561647920766f7465642e000000000000000000604482015290519081900360640190fd5b6000838152602081905260409020600601544210610b4f57600080fd5b6000838152602081905260409020600101548210610bb4576040805162461bcd60e51b815260206004820152601b60248201527f566f7465206f7074696f6e206973206e6f7420617661696c626c650000000000604482015290519081900360640190fd5b610bbd336109f5565b33600081815260016020818152604080842089855280840183528185209690965560029095018054928301815583528083209091018790558682528190529190912090610c2a90610c0d906109f5565b60008581526003840160205260409020549063ffffffff61150416565b6000848152600383016020908152604091829020929092558051606081018252600181529182018590528101610c5f336109f5565b905233600081815260088401602090815260408083208551815460ff191690151517815585830151600180830191909155959091015160029091015560058501805494850181558252902090910180546001600160a01b031916821790557f24e8f28bcf1dbc2f2cbdaf38b4ed8c435d3ac3b055bd15be18b06645b29dba1d908585610cea836109f5565b604080516001600160a01b0390951685526020850193909352838301919091526060830152519081900360800190a150505050565b6000610d2a3361123b565b90508181610d37336109f5565b031015610d755760405162461bcd60e51b815260040180806020018281038252602b81526020018061166b602b913960400191505060405180910390fd5b33600081815260016020908152604080832080548790039055600354815163a9059cbb60e01b815260048101959095526024850187905290516001600160a01b039091169363a9059cbb9360448083019493928390030190829087803b158015610dde57600080fd5b505af1158015610df2573d6000803e3d6000fd5b505050506040513d6020811015610e0857600080fd5b5051610e1357600080fd5b5050565b60016020526000908152604090205481565b600082600081118015610e3e57506002548111155b610e86576040805162461bcd60e51b81526020600482015260146024820152732737ba1030903b30b634b2103837b6361024b21760611b604482015290519081900360640190fd5b50506000918252602082815260408084209284526002909201905290205490565b600082600081118015610ebc57506002548111155b610f04576040805162461bcd60e51b81526020600482015260146024820152732737ba1030903b30b634b2103837b6361024b21760611b604482015290519081900360640190fd5b50506000918252602082815260408084206001600160a01b039390931684526008909201905290205460ff1690565b60008083600081118015610f4957506002548111155b610f91576040805162461bcd60e51b81526020600482015260146024820152732737ba1030903b30b634b2103837b6361024b21760611b604482015290519081900360640190fd5b60008086815260208190526040902054600160a01b900460ff166001811115610fb657fe5b1415610fc157600080fd5b610fcb8585610ea7565b610fd457600080fd5b5050506000918252602082815260408084206001600160a01b0393909316845260089092019052902060018101546002909101549091565b600080600060608060008660008111801561102957506002548111155b611071576040805162461bcd60e51b81526020600482015260146024820152732737ba1030903b30b634b2103837b6361024b21760611b604482015290519081900360640190fd5b60008881526020818152604091829020805460018083015460068401546004850180548851600261010096831615969096026000190190911694909404601f81018890048802850188019098528784526001600160a01b03851697600160a01b90950460ff16969295909460059091019391928591908301828280156111385780601f1061110d57610100808354040283529160200191611138565b820191906000526020600020905b81548152906001019060200180831161111b57829003601f168201915b505050505092508180548060200260200160405190810160405280929190818152602001828054801561119457602002820191906000526020600020905b81546001600160a01b03168152600190910190602001808311611176575b505050505091509650965096509650965096505091939550919395565b600080826000811180156111c757506002548111155b61120f576040805162461bcd60e51b81526020600482015260146024820152732737ba1030903b30b634b2103837b6361024b21760611b604482015290519081900360640190fd5b60008481526020819052604090206007015461122b8582610e29565b9250925050915091565b60025481565b6001600160a01b038116600090815260016020526040812081805b60028301548110156112ba57600083600201828154811061127357fe5b90600052602060002001549050828460010160008381526020019081526020016000205411156112b157600081815260018501602052604090205492505b50600101611256565b509392505050565b6000602081815291815260409081902080546001808301546004840180548651600261010095831615959095026000190190911693909304601f81018890048802840188019096528583526001600160a01b03841696600160a01b90940460ff169591949390919083018282801561137b5780601f106113505761010080835404028352916020019161137b565b820191906000526020600020905b81548152906001019060200180831161135e57829003601f168201915b5050505050908060060154908060070154905086565b806000811180156113a457506002548111155b6113ec576040805162461bcd60e51b81526020600482015260146024820152732737ba1030903b30b634b2103837b6361024b21760611b604482015290519081900360640190fd5b60008083815260208190526040902054600160a01b900460ff16600181111561141157fe5b14611463576040805162461bcd60e51b815260206004820152601860248201527f566f7465206973206e6f7420696e2070726f67726573732e0000000000000000604482015290519081900360640190fd5b6000828152602081905260409020600601544210156114c9576040805162461bcd60e51b815260206004820152601d60248201527f566f74696e6720706572696f6420686173206e6f742065787069726564000000604482015290519081900360640190fd5b6114d282611565565b50506000908152602081905260409020805460ff60a01b1916600160a01b179055565b6003546001600160a01b031681565b60008282018381101561155e576040805162461bcd60e51b815260206004820152601b60248201527f536166654d6174683a206164646974696f6e206f766572666c6f770000000000604482015290519081900360640190fd5b9392505050565b6000818152602081815260408083208380526003810190925282205460015b82600101548110156115bf57600019810160009081526003840160205260408082205483835291205411156115b7578091505b600101611584565b5060079091018190559050919050565b828054600181600116156101000203166002900490600052602060002090601f016020900481019282601f106116105782800160ff1982351617855561163d565b8280016001018555821561163d579182015b8281111561163d578235825591602001919060010190611622565b5061164992915061164d565b5090565b61166791905b808211156116495760008155600101611653565b9056fe5573657220697320747279696e6720746f20776974686472617720746f6f206d616e7920746f6b656e732e5573657220646964206e6f7420617070726f766520746f6b656e207472616e736665722ea2646970667358221220a3b615a3bd362e93ac473ee93b8c26207df4a2ff86d89c7b7e66440ff5b8933464736f6c63430006020033",
  "source": "pragma solidity >=0.6.0;\nimport \"@openzeppelin/contracts/token/ERC20/ERC20.sol\";\nimport \"@openzeppelin/contracts/math/SafeMath.sol\";\n\ncontract Votable {\n    using SafeMath for uint256;\n\n    /* EVENTS */\n    event voteCasted(address voter, uint pollID, uint256 vote, uint256 weight);\n    event pollCreated(address creator, uint pollID, string description, uint votingLength);\n    event pollStatusUpdate(bool status);\n\n    /* Determine the current state of a poll */\n    enum PollStatus { IN_PROGRESS, ENDED }\n\n    /* POLL */\n    struct Poll {\n        address creator;\n        PollStatus status;\n        uint256 optionsSize;\n        mapping(uint256 => uint256) options;\n        mapping(uint256 => uint256) votesPerOption;\n        string description;\n        address[] voters;\n        uint expirationTime;\n        uint256 winnerId;\n        mapping(address => Voter) voterInfo;\n    }\n\n    /* VOTER */\n    struct Voter {\n        bool hasVoted;\n        uint256 vote;\n        uint256 weight;\n    }\n\n    /* TOKEN MANAGER */\n    struct TokenManager {\n        uint tokenBalance;\n        mapping(uint => uint) lockedTokens;\n        uint[] participatedPolls;\n    }\n\n    /* STATE VARIABLES */\n    mapping(uint => Poll) public polls;\n    mapping(address => TokenManager) public bank;\n\n    uint256 public pollCount;\n    ERC20 public token;\n\n    /* CONSTRUCTOR */\n    constructor(address _token) public {\n        require(_token != address(0));\n        token = ERC20(_token);\n    }\n\n    /* POLL OPERATIONS */\n\n    /*\n    * Creates a new poll with a specified quorum percentage.\n    */\n    function createPoll(string calldata _description, uint _voteLength, uint256[] calldata options) external returns (uint){\n        require(_voteLength > 0, \"The voting period cannot be 0.\");\n        require(options.length > 1, \"Options have to be higher than 1\");\n        pollCount++;\n\n        Poll storage curPoll = polls[pollCount];\n        curPoll.creator = msg.sender;\n        curPoll.status = PollStatus.IN_PROGRESS;\n        \n        for(uint i = 0; i < options.length; i++){\n            curPoll.options[i] = options[i];\n        }\n        curPoll.optionsSize = options.length;\n        curPoll.expirationTime = now + _voteLength * 1 seconds;\n        curPoll.description = _description;\n\n        emit pollCreated(msg.sender, pollCount, _description, _voteLength);\n        return pollCount;\n    }\n\n    /*\n    * Ends a poll. Only the creator of a given poll can end that poll.\n    */\n    function endPoll(uint _pollID) external validPoll(_pollID) {\n        require(polls[_pollID].status == PollStatus.IN_PROGRESS, \"Vote is not in progress.\");\n        require(now >= polls[_pollID].expirationTime, \"Voting period has not expired\");\n        _countVotes(_pollID);\n        polls[_pollID].status = PollStatus.ENDED;\n    }\n\n    /*\n    * Gets the status of a poll.\n    */\n    function getPoolInformation(uint _pollID) public view validPoll(_pollID) returns (address, PollStatus, uint256, string memory, address[] memory, uint256) {\n        return (polls[_pollID].creator, polls[_pollID].status, polls[_pollID].optionsSize, polls[_pollID].description, \n        polls[_pollID].voters, polls[_pollID].expirationTime);\n    }\n\n    /*\n    * Gets the winner vote of pool\n    */\n    function getPoolWinner(uint _pollID) public view validPoll(_pollID) returns (uint256, uint256) {\n        return (polls[_pollID].winnerId, getPollOptionById(_pollID, polls[_pollID].winnerId));\n    }\n\n    /*\n    * Gets the pool option meaning by id\n    */\n    function getPollOptionById(uint256 _pollID, uint id) public view validPoll(_pollID) returns (uint256) {\n        return polls[_pollID].options[id];\n    }\n\n    /*\n    * Gets the complete list of polls a user has voted in.\n    */\n    function getPollHistory(address _voter) public view returns(uint[] memory) {\n        return bank[_voter].participatedPolls;\n    }\n\n    /*\n    * Gets a voter's encrypted vote and weight for a given expired poll.\n    */\n    function getPollInfoForVoter(uint _pollID, address _voter) public view validPoll(_pollID) returns (uint256, uint256) {\n        require(polls[_pollID].status != PollStatus.IN_PROGRESS);\n        require(userHasVoted(_pollID, _voter));\n        Poll storage curPoll = polls[_pollID];\n        uint256 vote = curPoll.voterInfo[_voter].vote;\n        uint256 weight = curPoll.voterInfo[_voter].weight;\n        return (vote, weight);\n    }\n\n   /*\n    * Checks if a user has voted for a specific poll.\n    */\n    function userHasVoted(uint _pollID, address _user) public view validPoll(_pollID) returns (bool) {\n        return (polls[_pollID].voterInfo[_user].hasVoted);\n    }\n\n    /*\n    * Modifier that checks for a valid poll ID.\n    */\n    modifier validPoll(uint _pollID) {\n        require(_pollID > 0 && _pollID <= pollCount, \"Not a valid poll Id.\");\n        _;\n    }\n\n    /* VOTE OPERATIONS */\n\n    /*\n    * Casts a vote for a given poll.\n    */\n    function castVote(uint _pollID, uint256 _voteId) external validPoll(_pollID) {\n        require(polls[_pollID].status == PollStatus.IN_PROGRESS, \"Poll has expired.\");\n        require(!userHasVoted(_pollID, msg.sender), \"User has already voted.\");\n        require(polls[_pollID].expirationTime > now);\n        require(_voteId < polls[_pollID].optionsSize, \"Vote option is not availble\");\n        \n        // update token bank\n        bank[msg.sender].lockedTokens[_pollID] = getTokenStake(msg.sender);\n        bank[msg.sender].participatedPolls.push(_pollID);\n\n        Poll storage curPoll = polls[_pollID];\n\n        curPoll.votesPerOption[_voteId] = curPoll.votesPerOption[_voteId].add(getTokenStake(msg.sender));\n\n        curPoll.voterInfo[msg.sender] = Voter({\n            hasVoted: true,\n            vote: _voteId,\n            weight: getTokenStake(msg.sender)\n        });\n\n        curPoll.voters.push(msg.sender);\n\n        emit voteCasted(msg.sender, _pollID, _voteId, getTokenStake(msg.sender));\n    }\n\n    /*\n    * Function that counts votes\n    */\n    function _countVotes(uint _pollID) internal returns (uint256) {\n        Poll storage curPoll = polls[_pollID];\n\n        uint256 winnerId = curPoll.votesPerOption[0];\n        for(uint i = 1; i < curPoll.optionsSize; i++){\n            if(curPoll.votesPerOption[i] > curPoll.votesPerOption[i-1]){\n                winnerId = i;\n            }\n        }\n        curPoll.winnerId = winnerId;\n        return winnerId;\n    }\n\n\n    /* TOKEN OPERATIONS */\n\n    /*\n    * Stakes tokens for a given voter in return for voting credits.\n    * NOTE:\n    *  User must approve transfer of tokens.\n    *  _numTokens is denominated in *wei*.\n    */\n    function stakeVotingTokens(uint256 _numTokens) external {\n        require(token.balanceOf(msg.sender) >= _numTokens, \"User does not have enough tokens\");\n        require(token.transferFrom(msg.sender, address(this), _numTokens), \"User did not approve token transfer.\");\n        bank[msg.sender].tokenBalance += _numTokens;\n    }\n\n    /*\n    * Allows a voter to withdraw voting tokens after a poll has ended.\n    * NOTE: _numTokens is denominated in *wei*.\n    */\n    function withdrawTokens(uint256 _numTokens) external {\n        uint largest = getLockedAmount(msg.sender);\n        require(getTokenStake(msg.sender) - largest >= _numTokens, \"User is trying to withdraw too many tokens.\");\n        bank[msg.sender].tokenBalance -= _numTokens;\n        require(token.transfer(msg.sender, _numTokens));\n    }\n\n    /*\n    * Gets the amount of Voting Tokens that are locked for a given voter.\n    */\n    function getLockedAmount(address _voter) public view returns (uint) {\n        TokenManager storage manager = bank[_voter];\n        uint largest;\n        for (uint i = 0; i < manager.participatedPolls.length; i++) {\n            uint curPollID = manager.participatedPolls[i];\n            if (manager.lockedTokens[curPollID] > largest) {\n                largest = manager.lockedTokens[curPollID];\n            }\n        }\n        return largest;\n    }\n\n    /*\n    * Gets the amount of Voting Credits for a given voter.\n    */\n    function getTokenStake(address _voter) public view returns(uint) {\n        return bank[_voter].tokenBalance;\n    }\n\n}",
  "sourcePath": "/Users/ruipedro/Desktop/projects/Bepro/@bepro-js/contracts/utils/Votable.sol",
  "compiler": {
    "name": "solc",
    "version": "0.6.2+commit.bacdbe57.Emscripten.clang"
  },
  "schemaVersion": "3.0.20",
  "updatedAt": "2021-06-01T17:14:28.169Z",
  "devdoc": {
    "methods": {}
  },
  "userdoc": {
    "methods": {}
  }
}